{
  "transactions": [
    {
      "hash": "0x945f0b28fc5ed2862ccb386b56e2a1d55dd46a49a578a73bdb91282593ea1563",
      "transactionType": "CREATE",
      "contractName": "Rescue",
      "contractAddress": "0xcb032aa67621810830281abd3345fe3df4d9d2bf",
      "function": null,
      "arguments": null,
      "transaction": {
        "from": "0xcda2fdb452ff4f5d7ba1c3d5dfcc9cb926a5eb7d",
        "gas": "0x52471",
        "value": "0x0",
        "input": "0x608060405234801561000f575f80fd5b50338061003557604051631e4fbdf760e01b81525f600482015260240160405180910390fd5b61003e81610044565b50610093565b5f80546001600160a01b038381166001600160a01b0319831681178455604051919092169283917f8be0079c531659141344cd1fd0a4f28419497f9722a3daafe3b4186f6b6457e09190a35050565b610341806100a05f395ff3fe608060405234801561000f575f80fd5b506004361061004a575f3560e01c806347d1cd491461004e578063715018a6146100635780638da5cb5b1461006b578063f2fde38b14610089575b5f80fd5b61006161005c366004610275565b61009c565b005b61006161018a565b5f54604080516001600160a01b039092168252519081900360200190f35b6100616100973660046102b5565b61019d565b6040516370a0823160e01b81526001600160a01b0383811660048301525f91908316906370a0823190602401602060405180830381865afa1580156100e3573d5f803e3d5ffd5b505050506040513d601f19601f8201168201806040525081019061010791906102d5565b6040516323b872dd60e01b81526001600160a01b038581166004830152868116602483015260448201839052919250908316906323b872dd906064016020604051808303815f875af115801561015f573d5f803e3d5ffd5b505050506040513d601f19601f8201168201806040525081019061018391906102ec565b5050505050565b6101926101df565b61019b5f61020b565b565b6101a56101df565b6001600160a01b0381166101d357604051631e4fbdf760e01b81525f60048201526024015b60405180910390fd5b6101dc8161020b565b50565b5f546001600160a01b0316331461019b5760405163118cdaa760e01b81523360048201526024016101ca565b5f80546001600160a01b038381166001600160a01b0319831681178455604051919092169283917f8be0079c531659141344cd1fd0a4f28419497f9722a3daafe3b4186f6b6457e09190a35050565b80356001600160a01b0381168114610270575f80fd5b919050565b5f805f60608486031215610287575f80fd5b6102908461025a565b925061029e6020850161025a565b91506102ac6040850161025a565b90509250925092565b5f602082840312156102c5575f80fd5b6102ce8261025a565b9392505050565b5f602082840312156102e5575f80fd5b5051919050565b5f602082840312156102fc575f80fd5b815180151581146102ce575f80fdfea264697066735822122066661b9e70f02148872be7654cbadcb1d810c31b1dfe6b621c1d2a0075c5009564736f6c63430008140033",
        "nonce": "0x28",
        "chainId": "0xa"
      },
      "additionalContracts": [],
      "isFixedGasLimit": false
    },
    {
      "hash": "0x21d443fd157c46ac5f717f57308540bc2f78534500e00bf1bd1cd7361f535f55",
      "transactionType": "CALL",
      "contractName": null,
      "contractAddress": "0x5e3b8296a8327f871700638cd9b6c516726ca99b",
      "function": "execute(address,bytes)",
      "arguments": [
        "0x625E7708f30cA75bfd92586e17077590C60eb4cD",
        "0x095ea7b3000000000000000000000000cb032aa67621810830281abd3345fe3df4d9d2bfffffffffffffffffffffffffffffffffffffffffffffffffffffffffffffffff"
      ],
      "transaction": {
        "from": "0xcda2fdb452ff4f5d7ba1c3d5dfcc9cb926a5eb7d",
        "to": "0x5e3b8296a8327f871700638cd9b6c516726ca99b",
        "gas": "0x14e55",
        "value": "0x0",
        "input": "0x1cff79cd000000000000000000000000625e7708f30ca75bfd92586e17077590c60eb4cd00000000000000000000000000000000000000000000000000000000000000400000000000000000000000000000000000000000000000000000000000000044095ea7b3000000000000000000000000cb032aa67621810830281abd3345fe3df4d9d2bfffffffffffffffffffffffffffffffffffffffffffffffffffffffffffffffff00000000000000000000000000000000000000000000000000000000",
        "nonce": "0x29",
        "chainId": "0xa"
      },
      "additionalContracts": [],
      "isFixedGasLimit": false
    },
    {
      "hash": "0xbb513a8d3efd8b0a5bc9bb6c9b9a6faee6552ff162151d95fb16e5f1d335a472",
      "transactionType": "CALL",
      "contractName": "Rescue",
      "contractAddress": "0xcb032aa67621810830281abd3345fe3df4d9d2bf",
      "function": "rescue(address,address,address)",
      "arguments": [
        "0xcdA2fDB452FF4F5D7Ba1C3d5dFCc9CB926A5eb7D",
        "0x5e3b8296a8327F871700638cD9B6C516726cA99B",
        "0x625E7708f30cA75bfd92586e17077590C60eb4cD"
      ],
      "transaction": {
        "from": "0xcda2fdb452ff4f5d7ba1c3d5dfcc9cb926a5eb7d",
        "to": "0xcb032aa67621810830281abd3345fe3df4d9d2bf",
        "gas": "0x332f5",
        "value": "0x0",
        "input": "0x47d1cd49000000000000000000000000cda2fdb452ff4f5d7ba1c3d5dfcc9cb926a5eb7d0000000000000000000000005e3b8296a8327f871700638cd9b6c516726ca99b000000000000000000000000625e7708f30ca75bfd92586e17077590c60eb4cd",
        "nonce": "0x2a",
        "chainId": "0xa"
      },
      "additionalContracts": [],
      "isFixedGasLimit": false
    }
  ],
  "receipts": [
    {
      "status": "0x1",
      "cumulativeGasUsed": "0x6e92c1",
      "logs": [
        {
          "address": "0xcb032aa67621810830281abd3345fe3df4d9d2bf",
          "topics": [
            "0x8be0079c531659141344cd1fd0a4f28419497f9722a3daafe3b4186f6b6457e0",
            "0x0000000000000000000000000000000000000000000000000000000000000000",
            "0x000000000000000000000000cda2fdb452ff4f5d7ba1c3d5dfcc9cb926a5eb7d"
          ],
          "data": "0x",
          "blockHash": "0x6bff2cc5a548dceea1e36ab09cc29e2af71f726a87032ee8b2cbb7cd992a0fac",
          "blockNumber": "0x7cfe0ef",
          "transactionHash": "0x945f0b28fc5ed2862ccb386b56e2a1d55dd46a49a578a73bdb91282593ea1563",
          "transactionIndex": "0x10",
          "logIndex": "0x68",
          "removed": false
        }
      ],
      "logsBloom": "0x00000000000001000000000000000000000000000000000000800000000000000000000000000000000000000000000000000000000000000000000000000000000000000000000000080000040000000001000000000000000000000000000000000000020000000000000000000800000000000000800000000000000000400000000000000000000000000000000000000000000000000000000000000000000000000000000000000000000000000000800000004000000000000000000000000000000000000000000000000000000000000000000000000000000020000000000000000000000000000000000000000000000000000000000000000000",
      "type": "0x2",
      "transactionHash": "0x945f0b28fc5ed2862ccb386b56e2a1d55dd46a49a578a73bdb91282593ea1563",
      "transactionIndex": "0x10",
      "blockHash": "0x6bff2cc5a548dceea1e36ab09cc29e2af71f726a87032ee8b2cbb7cd992a0fac",
      "blockNumber": "0x7cfe0ef",
      "gasUsed": "0x3f4a6",
      "effectiveGasPrice": "0x1fa",
      "from": "0xcda2fdb452ff4f5d7ba1c3d5dfcc9cb926a5eb7d",
      "to": null,
      "contractAddress": "0xcb032aa67621810830281abd3345fe3df4d9d2bf",
      "l1BaseFeeScalar": "0x146b",
      "l1BlobBaseFee": "0x1054e",
      "l1BlobBaseFeeScalar": "0xf79c5",
      "l1Fee": "0xf0ddbc2b3e",
      "l1GasPrice": "0x492570d2a",
      "l1GasUsed": "0x275f"
    },
    {
      "status": "0x1",
      "cumulativeGasUsed": "0x6f775c",
      "logs": [
        {
          "address": "0x625e7708f30ca75bfd92586e17077590c60eb4cd",
          "topics": [
            "0x8c5be1e5ebec7d5bd14f71427d1e84f3dd0314c0f7b2291e5b200ac8c7c3b925",
            "0x0000000000000000000000005e3b8296a8327f871700638cd9b6c516726ca99b",
            "0x000000000000000000000000cb032aa67621810830281abd3345fe3df4d9d2bf"
          ],
          "data": "0xffffffffffffffffffffffffffffffffffffffffffffffffffffffffffffffff",
          "blockHash": "0x6bff2cc5a548dceea1e36ab09cc29e2af71f726a87032ee8b2cbb7cd992a0fac",
          "blockNumber": "0x7cfe0ef",
          "transactionHash": "0x21d443fd157c46ac5f717f57308540bc2f78534500e00bf1bd1cd7361f535f55",
          "transactionIndex": "0x11",
          "logIndex": "0x69",
          "removed": false
        }
      ],
      "logsBloom": "0x00000000000000000000000000000000000000000800000000000000000000000001000000000000000000000000000000000000000000000000000000200000000000000000002000000000000000000000004000000000000000000000000000000000000000000000000000000000000000000000000000000000000000000000000000000000000200000000000000000000000000000000000000000000020000000000000000000000000000000000200000000000000000000000000000000000000000000000000000000000000000000000000000000000000000000010000000000000000000000000000000000000008000000100000000000040",
      "type": "0x2",
      "transactionHash": "0x21d443fd157c46ac5f717f57308540bc2f78534500e00bf1bd1cd7361f535f55",
      "transactionIndex": "0x11",
      "blockHash": "0x6bff2cc5a548dceea1e36ab09cc29e2af71f726a87032ee8b2cbb7cd992a0fac",
      "blockNumber": "0x7cfe0ef",
      "gasUsed": "0xe49b",
      "effectiveGasPrice": "0x1fa",
      "from": "0xcda2fdb452ff4f5d7ba1c3d5dfcc9cb926a5eb7d",
      "to": "0x5e3b8296a8327f871700638cd9b6c516726ca99b",
      "contractAddress": null,
      "l1BaseFeeScalar": "0x146b",
      "l1BlobBaseFee": "0x1054e",
      "l1BlobBaseFeeScalar": "0xf79c5",
      "l1Fee": "0x2d72233c0f",
      "l1GasPrice": "0x492570d2a",
      "l1GasUsed": "0x76d"
    },
    {
      "status": "0x1",
      "cumulativeGasUsed": "0x71a755",
      "logs": [
        {
          "address": "0x625e7708f30ca75bfd92586e17077590c60eb4cd",
          "topics": [
            "0x8c5be1e5ebec7d5bd14f71427d1e84f3dd0314c0f7b2291e5b200ac8c7c3b925",
            "0x0000000000000000000000005e3b8296a8327f871700638cd9b6c516726ca99b",
            "0x000000000000000000000000cb032aa67621810830281abd3345fe3df4d9d2bf"
          ],
          "data": "0xffffffffffffffffffffffffffffffffffffffffffffffffffffffffff1b1c67",
          "blockHash": "0x6bff2cc5a548dceea1e36ab09cc29e2af71f726a87032ee8b2cbb7cd992a0fac",
          "blockNumber": "0x7cfe0ef",
          "transactionHash": "0xbb513a8d3efd8b0a5bc9bb6c9b9a6faee6552ff162151d95fb16e5f1d335a472",
          "transactionIndex": "0x12",
          "logIndex": "0x6a",
          "removed": false
        },
        {
          "address": "0x625e7708f30ca75bfd92586e17077590c60eb4cd",
          "topics": [
            "0xddf252ad1be2c89b69c2b068fc378daa952ba7f163c4a11628f55a4df523b3ef",
            "0x0000000000000000000000000000000000000000000000000000000000000000",
            "0x0000000000000000000000005e3b8296a8327f871700638cd9b6c516726ca99b"
          ],
          "data": "0x00000000000000000000000000000000000000000000000000000000000001d2",
          "blockHash": "0x6bff2cc5a548dceea1e36ab09cc29e2af71f726a87032ee8b2cbb7cd992a0fac",
          "blockNumber": "0x7cfe0ef",
          "transactionHash": "0xbb513a8d3efd8b0a5bc9bb6c9b9a6faee6552ff162151d95fb16e5f1d335a472",
          "transactionIndex": "0x12",
          "logIndex": "0x6b",
          "removed": false
        },
        {
          "address": "0x625e7708f30ca75bfd92586e17077590c60eb4cd",
          "topics": [
            "0x458f5fa412d0f69b08dd84872b0215675cc67bc1d5b6fd93300a1c3878b86196",
            "0x000000000000000000000000cb032aa67621810830281abd3345fe3df4d9d2bf",
            "0x0000000000000000000000005e3b8296a8327f871700638cd9b6c516726ca99b"
          ],
          "data": "0x00000000000000000000000000000000000000000000000000000000000001d200000000000000000000000000000000000000000000000000000000000001d20000000000000000000000000000000000000000039cfcb3be7a7e1908bc20fd",
          "blockHash": "0x6bff2cc5a548dceea1e36ab09cc29e2af71f726a87032ee8b2cbb7cd992a0fac",
          "blockNumber": "0x7cfe0ef",
          "transactionHash": "0xbb513a8d3efd8b0a5bc9bb6c9b9a6faee6552ff162151d95fb16e5f1d335a472",
          "transactionIndex": "0x12",
          "logIndex": "0x6c",
          "removed": false
        },
        {
          "address": "0x625e7708f30ca75bfd92586e17077590c60eb4cd",
          "topics": [
            "0xddf252ad1be2c89b69c2b068fc378daa952ba7f163c4a11628f55a4df523b3ef",
            "0x0000000000000000000000000000000000000000000000000000000000000000",
            "0x000000000000000000000000cda2fdb452ff4f5d7ba1c3d5dfcc9cb926a5eb7d"
          ],
          "data": "0x000000000000000000000000000000000000000000000000000000000000017b",
          "blockHash": "0x6bff2cc5a548dceea1e36ab09cc29e2af71f726a87032ee8b2cbb7cd992a0fac",
          "blockNumber": "0x7cfe0ef",
          "transactionHash": "0xbb513a8d3efd8b0a5bc9bb6c9b9a6faee6552ff162151d95fb16e5f1d335a472",
          "transactionIndex": "0x12",
          "logIndex": "0x6d",
          "removed": false
        },
        {
          "address": "0x625e7708f30ca75bfd92586e17077590c60eb4cd",
          "topics": [
            "0x458f5fa412d0f69b08dd84872b0215675cc67bc1d5b6fd93300a1c3878b86196",
            "0x000000000000000000000000cb032aa67621810830281abd3345fe3df4d9d2bf",
            "0x000000000000000000000000cda2fdb452ff4f5d7ba1c3d5dfcc9cb926a5eb7d"
          ],
          "data": "0x000000000000000000000000000000000000000000000000000000000000017b000000000000000000000000000000000000000000000000000000000000017b0000000000000000000000000000000000000000039cfcb3be7a7e1908bc20fd",
          "blockHash": "0x6bff2cc5a548dceea1e36ab09cc29e2af71f726a87032ee8b2cbb7cd992a0fac",
          "blockNumber": "0x7cfe0ef",
          "transactionHash": "0xbb513a8d3efd8b0a5bc9bb6c9b9a6faee6552ff162151d95fb16e5f1d335a472",
          "transactionIndex": "0x12",
          "logIndex": "0x6e",
          "removed": false
        },
        {
          "address": "0x625e7708f30ca75bfd92586e17077590c60eb4cd",
          "topics": [
            "0xddf252ad1be2c89b69c2b068fc378daa952ba7f163c4a11628f55a4df523b3ef",
            "0x0000000000000000000000005e3b8296a8327f871700638cd9b6c516726ca99b",
            "0x000000000000000000000000cda2fdb452ff4f5d7ba1c3d5dfcc9cb926a5eb7d"
          ],
          "data": "0x0000000000000000000000000000000000000000000000000000000000e4e398",
          "blockHash": "0x6bff2cc5a548dceea1e36ab09cc29e2af71f726a87032ee8b2cbb7cd992a0fac",
          "blockNumber": "0x7cfe0ef",
          "transactionHash": "0xbb513a8d3efd8b0a5bc9bb6c9b9a6faee6552ff162151d95fb16e5f1d335a472",
          "transactionIndex": "0x12",
          "logIndex": "0x6f",
          "removed": false
        },
        {
          "address": "0x794a61358d6845594f94dc1db02a252b5b4814ad",
          "topics": [
            "0x44c58d81365b66dd4b1a7f36c25aa97b8c71c361ee4937adc1a00000227db5dd",
            "0x0000000000000000000000007f5c764cbc14f9669b88837ca1490cca17c31607",
            "0x0000000000000000000000005e3b8296a8327f871700638cd9b6c516726ca99b"
          ],
          "data": "0x",
          "blockHash": "0x6bff2cc5a548dceea1e36ab09cc29e2af71f726a87032ee8b2cbb7cd992a0fac",
          "blockNumber": "0x7cfe0ef",
          "transactionHash": "0xbb513a8d3efd8b0a5bc9bb6c9b9a6faee6552ff162151d95fb16e5f1d335a472",
          "transactionIndex": "0x12",
          "logIndex": "0x70",
          "removed": false
        },
        {
          "address": "0x625e7708f30ca75bfd92586e17077590c60eb4cd",
          "topics": [
            "0x4beccb90f994c31aced7a23b5611020728a23d8ec5cddd1a3e9d97b96fda8666",
            "0x0000000000000000000000005e3b8296a8327f871700638cd9b6c516726ca99b",
            "0x000000000000000000000000cda2fdb452ff4f5d7ba1c3d5dfcc9cb926a5eb7d"
          ],
          "data": "0x0000000000000000000000000000000000000000000000000000000000ccafcd0000000000000000000000000000000000000000039cfcb3be7a7e1908bc20fd",
          "blockHash": "0x6bff2cc5a548dceea1e36ab09cc29e2af71f726a87032ee8b2cbb7cd992a0fac",
          "blockNumber": "0x7cfe0ef",
          "transactionHash": "0xbb513a8d3efd8b0a5bc9bb6c9b9a6faee6552ff162151d95fb16e5f1d335a472",
          "transactionIndex": "0x12",
          "logIndex": "0x71",
          "removed": false
        }
      ],
      "logsBloom": "0x00080000000000000000000000000000000000000800000002000000000000000001000000000000000000000004000000000000000004000000000000200000000000000000002080000008040000000000044000000000000000040000000002000000020000000000000000000800000004000000800000000010000000000400000000000000000200000000000000000000088000000000000000000000020000000000000000000000000000000000200000004000000000000000000002000002000000100000000000000000000000000000000000000000000020000010000000000000000080000000000000000000008000000100000000000040",
      "type": "0x2",
      "transactionHash": "0xbb513a8d3efd8b0a5bc9bb6c9b9a6faee6552ff162151d95fb16e5f1d335a472",
      "transactionIndex": "0x12",
      "blockHash": "0x6bff2cc5a548dceea1e36ab09cc29e2af71f726a87032ee8b2cbb7cd992a0fac",
      "blockNumber": "0x7cfe0ef",
      "gasUsed": "0x22ff9",
      "effectiveGasPrice": "0x1fa",
      "from": "0xcda2fdb452ff4f5d7ba1c3d5dfcc9cb926a5eb7d",
      "to": "0xcb032aa67621810830281abd3345fe3df4d9d2bf",
      "contractAddress": null,
      "l1BaseFeeScalar": "0x146b",
      "l1BlobBaseFee": "0x1054e",
      "l1BlobBaseFeeScalar": "0xf79c5",
      "l1Fee": "0x2c2a9fedd2",
      "l1GasPrice": "0x492570d2a",
      "l1GasUsed": "0x738"
    }
  ],
  "libraries": [],
  "pending": [],
  "returns": {},
  "timestamp": 1737726879,
  "chain": 10,
  "commit": "c03c0fa"
}