{
  "transactions": [
    {
      "hash": "0xa29329732ddff4d5baa25c58de7931b2704069fe39f46bef715a671c6a0a9794",
      "transactionType": "CALL",
      "contractName": null,
      "contractAddress": "0xd51b286ad70a7b1c0e9de8755b260c1ef055b79a",
      "function": "redeem(uint256,address,address)",
      "arguments": [
        "1179021465362437749517",
        "0xcdA2fDB452FF4F5D7Ba1C3d5dFCc9CB926A5eb7D",
        "0xcdA2fDB452FF4F5D7Ba1C3d5dFCc9CB926A5eb7D"
      ],
      "transaction": {
        "from": "0xcda2fdb452ff4f5d7ba1c3d5dfcc9cb926a5eb7d",
        "to": "0xd51b286ad70a7b1c0e9de8755b260c1ef055b79a",
        "gas": "0x4c0b1",
        "value": "0x0",
        "input": "0xba08765200000000000000000000000000000000000000000000003fea35b006109fbb0d000000000000000000000000cda2fdb452ff4f5d7ba1c3d5dfcc9cb926a5eb7d000000000000000000000000cda2fdb452ff4f5d7ba1c3d5dfcc9cb926a5eb7d",
        "nonce": "0x3d",
        "chainId": "0xa"
      },
      "additionalContracts": [],
      "isFixedGasLimit": false
    }
  ],
  "receipts": [
    {
      "status": "0x1",
      "cumulativeGasUsed": "0x4ce41a",
      "logs": [
        {
          "address": "0x794a61358d6845594f94dc1db02a252b5b4814ad",
          "topics": [
            "0x804c9b842b2748a22bb64b345453a3de7ca54a6ca45ce00d415894979e22897a",
            "0x0000000000000000000000007f5c764cbc14f9669b88837ca1490cca17c31607"
          ],
          "data": "0x0000000000000000000000000000000000000000004ed534d60904ec2a9e70080000000000000000000000000000000000000000000000000000000000000000000000000000000000000000000000000000000000ab8007f35f92e93e9b869c0000000000000000000000000000000000000000039cfd472b2e6eb317a85dd3000000000000000000000000000000000000000003def0b7b2040a68d1f0f5d3",
          "blockHash": "0x35ae503621ec2081a3d5b12d2d14675e84713e97d2d04771beee9d95d0ebe630",
          "blockNumber": "0x7cfe280",
          "transactionHash": "0xa29329732ddff4d5baa25c58de7931b2704069fe39f46bef715a671c6a0a9794",
          "transactionIndex": "0xf",
          "logIndex": "0x28",
          "removed": false
        },
        {
          "address": "0x625e7708f30ca75bfd92586e17077590c60eb4cd",
          "topics": [
            "0xddf252ad1be2c89b69c2b068fc378daa952ba7f163c4a11628f55a4df523b3ef",
            "0x000000000000000000000000d51b286ad70a7b1c0e9de8755b260c1ef055b79a",
            "0x0000000000000000000000000000000000000000000000000000000000000000"
          ],
          "data": "0x0000000000000000000000000000000000000000000000000000000006f1b9d0",
          "blockHash": "0x35ae503621ec2081a3d5b12d2d14675e84713e97d2d04771beee9d95d0ebe630",
          "blockNumber": "0x7cfe280",
          "transactionHash": "0xa29329732ddff4d5baa25c58de7931b2704069fe39f46bef715a671c6a0a9794",
          "transactionIndex": "0xf",
          "logIndex": "0x29",
          "removed": false
        },
        {
          "address": "0x625e7708f30ca75bfd92586e17077590c60eb4cd",
          "topics": [
            "0x4cf25bc1d991c17529c25213d3cc0cda295eeaad5f13f361969b12ea48015f90",
            "0x000000000000000000000000d51b286ad70a7b1c0e9de8755b260c1ef055b79a",
            "0x000000000000000000000000d51b286ad70a7b1c0e9de8755b260c1ef055b79a"
          ],
          "data": "0x0000000000000000000000000000000000000000000000000000000006f1b9d0000000000000000000000000000000000000000000000000000000000000002c0000000000000000000000000000000000000000039cfd472b2e6eb317a85dd3",
          "blockHash": "0x35ae503621ec2081a3d5b12d2d14675e84713e97d2d04771beee9d95d0ebe630",
          "blockNumber": "0x7cfe280",
          "transactionHash": "0xa29329732ddff4d5baa25c58de7931b2704069fe39f46bef715a671c6a0a9794",
          "transactionIndex": "0xf",
          "logIndex": "0x2a",
          "removed": false
        },
        {
          "address": "0x7f5c764cbc14f9669b88837ca1490cca17c31607",
          "topics": [
            "0xddf252ad1be2c89b69c2b068fc378daa952ba7f163c4a11628f55a4df523b3ef",
            "0x000000000000000000000000625e7708f30ca75bfd92586e17077590c60eb4cd",
            "0x000000000000000000000000d51b286ad70a7b1c0e9de8755b260c1ef055b79a"
          ],
          "data": "0x0000000000000000000000000000000000000000000000000000000006f1b9fc",
          "blockHash": "0x35ae503621ec2081a3d5b12d2d14675e84713e97d2d04771beee9d95d0ebe630",
          "blockNumber": "0x7cfe280",
          "transactionHash": "0xa29329732ddff4d5baa25c58de7931b2704069fe39f46bef715a671c6a0a9794",
          "transactionIndex": "0xf",
          "logIndex": "0x2b",
          "removed": false
        },
        {
          "address": "0x794a61358d6845594f94dc1db02a252b5b4814ad",
          "topics": [
            "0x3115d1449a7b732c986cba18244e897a450f61e1bb8d589cd2e69e6c8924f9f7",
            "0x0000000000000000000000007f5c764cbc14f9669b88837ca1490cca17c31607",
            "0x000000000000000000000000d51b286ad70a7b1c0e9de8755b260c1ef055b79a",
            "0x000000000000000000000000d51b286ad70a7b1c0e9de8755b260c1ef055b79a"
          ],
          "data": "0x0000000000000000000000000000000000000000000000000000000006f1b9fc",
          "blockHash": "0x35ae503621ec2081a3d5b12d2d14675e84713e97d2d04771beee9d95d0ebe630",
          "blockNumber": "0x7cfe280",
          "transactionHash": "0xa29329732ddff4d5baa25c58de7931b2704069fe39f46bef715a671c6a0a9794",
          "transactionIndex": "0xf",
          "logIndex": "0x2c",
          "removed": false
        },
        {
          "address": "0xd51b286ad70a7b1c0e9de8755b260c1ef055b79a",
          "topics": [
            "0xddf252ad1be2c89b69c2b068fc378daa952ba7f163c4a11628f55a4df523b3ef",
            "0x000000000000000000000000cda2fdb452ff4f5d7ba1c3d5dfcc9cb926a5eb7d",
            "0x0000000000000000000000000000000000000000000000000000000000000000"
          ],
          "data": "0x00000000000000000000000000000000000000000000003fea35b006109fbb0d",
          "blockHash": "0x35ae503621ec2081a3d5b12d2d14675e84713e97d2d04771beee9d95d0ebe630",
          "blockNumber": "0x7cfe280",
          "transactionHash": "0xa29329732ddff4d5baa25c58de7931b2704069fe39f46bef715a671c6a0a9794",
          "transactionIndex": "0xf",
          "logIndex": "0x2d",
          "removed": false
        },
        {
          "address": "0x7f5c764cbc14f9669b88837ca1490cca17c31607",
          "topics": [
            "0xddf252ad1be2c89b69c2b068fc378daa952ba7f163c4a11628f55a4df523b3ef",
            "0x000000000000000000000000d51b286ad70a7b1c0e9de8755b260c1ef055b79a",
            "0x000000000000000000000000cda2fdb452ff4f5d7ba1c3d5dfcc9cb926a5eb7d"
          ],
          "data": "0x0000000000000000000000000000000000000000000000000000000006f1b9fc",
          "blockHash": "0x35ae503621ec2081a3d5b12d2d14675e84713e97d2d04771beee9d95d0ebe630",
          "blockNumber": "0x7cfe280",
          "transactionHash": "0xa29329732ddff4d5baa25c58de7931b2704069fe39f46bef715a671c6a0a9794",
          "transactionIndex": "0xf",
          "logIndex": "0x2e",
          "removed": false
        },
        {
          "address": "0xd51b286ad70a7b1c0e9de8755b260c1ef055b79a",
          "topics": [
            "0xfbde797d201c681b91056529119e0b02407c7bb96a4a2c75c01fc9667232c8db",
            "0x000000000000000000000000cda2fdb452ff4f5d7ba1c3d5dfcc9cb926a5eb7d",
            "0x000000000000000000000000cda2fdb452ff4f5d7ba1c3d5dfcc9cb926a5eb7d",
            "0x000000000000000000000000cda2fdb452ff4f5d7ba1c3d5dfcc9cb926a5eb7d"
          ],
          "data": "0x0000000000000000000000000000000000000000000000000000000006f1b9fc00000000000000000000000000000000000000000000003fea35b006109fbb0d",
          "blockHash": "0x35ae503621ec2081a3d5b12d2d14675e84713e97d2d04771beee9d95d0ebe630",
          "blockNumber": "0x7cfe280",
          "transactionHash": "0xa29329732ddff4d5baa25c58de7931b2704069fe39f46bef715a671c6a0a9794",
          "transactionIndex": "0xf",
          "logIndex": "0x2f",
          "removed": false
        }
      ],
      "logsBloom": "0x10080000000000400000008000000000008000000004000000000000000000000001000000000000000000000000000000010040000004000000000000000001000001000000000000000008040000008000044000080000000000000000000002000000020000000000000000000800000000000000820000000010000000000400000040000000000200000000000000000000008000000000000000000000000000000080000000000000000000020000000000004000000000000000010000000002000000000000002000000000000000000000000000000000000020040000000000000000000000040008000000000000040000000000000000010000",
      "type": "0x2",
      "transactionHash": "0xa29329732ddff4d5baa25c58de7931b2704069fe39f46bef715a671c6a0a9794",
      "transactionIndex": "0xf",
      "blockHash": "0x35ae503621ec2081a3d5b12d2d14675e84713e97d2d04771beee9d95d0ebe630",
      "blockNumber": "0x7cfe280",
      "gasUsed": "0x370de",
      "effectiveGasPrice": "0x1ed",
      "from": "0xcda2fdb452ff4f5d7ba1c3d5dfcc9cb926a5eb7d",
      "to": "0xd51b286ad70a7b1c0e9de8755b260c1ef055b79a",
      "contractAddress": null,
      "l1BaseFeeScalar": "0x146b",
      "l1BlobBaseFee": "0x253f5",
      "l1BlobBaseFeeScalar": "0xf79c5",
      "l1Fee": "0x26fc428fa6",
      "l1GasPrice": "0x4a93e72df",
      "l1GasUsed": "0x640"
    }
  ],
  "libraries": [],
  "pending": [],
  "returns": {},
  "timestamp": 1737727678,
  "chain": 10,
  "commit": "c03c0fa"
}