{
  "transactions": [
    {
      "hash": "0xe785cee38efa43061f35a708116a9ea70f8c304247a1249293a57753802b7514",
      "transactionType": "CALL",
      "contractName": null,
      "contractAddress": "0xd51b286ad70a7b1c0e9de8755b260c1ef055b79a",
      "function": "withdraw(uint256,address,address)",
      "arguments": [
        "5000000",
        "0xcdA2fDB452FF4F5D7Ba1C3d5dFCc9CB926A5eb7D",
        "0xcdA2fDB452FF4F5D7Ba1C3d5dFCc9CB926A5eb7D"
      ],
      "transaction": {
        "from": "0xcda2fdb452ff4f5d7ba1c3d5dfcc9cb926a5eb7d",
        "to": "0xd51b286ad70a7b1c0e9de8755b260c1ef055b79a",
        "gas": "0x55ba8",
        "value": "0x0",
        "input": "0xb460af9400000000000000000000000000000000000000000000000000000000004c4b40000000000000000000000000cda2fdb452ff4f5d7ba1c3d5dfcc9cb926a5eb7d000000000000000000000000cda2fdb452ff4f5d7ba1c3d5dfcc9cb926a5eb7d",
        "nonce": "0x37",
        "chainId": "0xa"
      },
      "additionalContracts": [],
      "isFixedGasLimit": false
    },
    {
      "hash": "0x2cd0bcb0f8ec06b3f9a3ecc7da09556231736e5c923578b05b2c8de56dc1f814",
      "transactionType": "CALL",
      "contractName": null,
      "contractAddress": "0xd51b286ad70a7b1c0e9de8755b260c1ef055b79a",
      "function": "deposit(uint256,address)",
      "arguments": [
        "5000000",
        "0xcdA2fDB452FF4F5D7Ba1C3d5dFCc9CB926A5eb7D"
      ],
      "transaction": {
        "from": "0xcda2fdb452ff4f5d7ba1c3d5dfcc9cb926a5eb7d",
        "to": "0xd51b286ad70a7b1c0e9de8755b260c1ef055b79a",
        "gas": "0x4fc8a",
        "value": "0x0",
        "input": "0x6e553f6500000000000000000000000000000000000000000000000000000000004c4b40000000000000000000000000cda2fdb452ff4f5d7ba1c3d5dfcc9cb926a5eb7d",
        "nonce": "0x38",
        "chainId": "0xa"
      },
      "additionalContracts": [],
      "isFixedGasLimit": false
    },
    {
      "hash": "0x854e7552a24938118458c8a21200d034fc8858136fac88e0140385a79c768063",
      "transactionType": "CALL",
      "contractName": null,
      "contractAddress": "0xd51b286ad70a7b1c0e9de8755b260c1ef055b79a",
      "function": "withdraw(uint256,address,address)",
      "arguments": [
        "5000000",
        "0xcdA2fDB452FF4F5D7Ba1C3d5dFCc9CB926A5eb7D",
        "0xcdA2fDB452FF4F5D7Ba1C3d5dFCc9CB926A5eb7D"
      ],
      "transaction": {
        "from": "0xcda2fdb452ff4f5d7ba1c3d5dfcc9cb926a5eb7d",
        "to": "0xd51b286ad70a7b1c0e9de8755b260c1ef055b79a",
        "gas": "0x50a28",
        "value": "0x0",
        "input": "0xb460af9400000000000000000000000000000000000000000000000000000000004c4b40000000000000000000000000cda2fdb452ff4f5d7ba1c3d5dfcc9cb926a5eb7d000000000000000000000000cda2fdb452ff4f5d7ba1c3d5dfcc9cb926a5eb7d",
        "nonce": "0x39",
        "chainId": "0xa"
      },
      "additionalContracts": [],
      "isFixedGasLimit": false
    },
    {
      "hash": "0xaa447430a4460568f50eb263af4bc79e113e7f791ad9a0ba302698b7761be79f",
      "transactionType": "CALL",
      "contractName": null,
      "contractAddress": "0xd51b286ad70a7b1c0e9de8755b260c1ef055b79a",
      "function": "deposit(uint256,address)",
      "arguments": [
        "5000000",
        "0xcdA2fDB452FF4F5D7Ba1C3d5dFCc9CB926A5eb7D"
      ],
      "transaction": {
        "from": "0xcda2fdb452ff4f5d7ba1c3d5dfcc9cb926a5eb7d",
        "to": "0xd51b286ad70a7b1c0e9de8755b260c1ef055b79a",
        "gas": "0x4fc8a",
        "value": "0x0",
        "input": "0x6e553f6500000000000000000000000000000000000000000000000000000000004c4b40000000000000000000000000cda2fdb452ff4f5d7ba1c3d5dfcc9cb926a5eb7d",
        "nonce": "0x3a",
        "chainId": "0xa"
      },
      "additionalContracts": [],
      "isFixedGasLimit": false
    },
    {
      "hash": "0x90e5b01c0a149ba345de1f146b95ce1670870d5806ed9a26d6bd35b38a51a95b",
      "transactionType": "CALL",
      "contractName": null,
      "contractAddress": "0xd51b286ad70a7b1c0e9de8755b260c1ef055b79a",
      "function": "withdraw(uint256,address,address)",
      "arguments": [
        "5000000",
        "0xcdA2fDB452FF4F5D7Ba1C3d5dFCc9CB926A5eb7D",
        "0xcdA2fDB452FF4F5D7Ba1C3d5dFCc9CB926A5eb7D"
      ],
      "transaction": {
        "from": "0xcda2fdb452ff4f5d7ba1c3d5dfcc9cb926a5eb7d",
        "to": "0xd51b286ad70a7b1c0e9de8755b260c1ef055b79a",
        "gas": "0x50a28",
        "value": "0x0",
        "input": "0xb460af9400000000000000000000000000000000000000000000000000000000004c4b40000000000000000000000000cda2fdb452ff4f5d7ba1c3d5dfcc9cb926a5eb7d000000000000000000000000cda2fdb452ff4f5d7ba1c3d5dfcc9cb926a5eb7d",
        "nonce": "0x3b",
        "chainId": "0xa"
      },
      "additionalContracts": [],
      "isFixedGasLimit": false
    },
    {
      "hash": "0x9e84a35c57801a8a7876b7b5be5c2c292e4c8a00f55998fe3b3408ab8aa4a6ec",
      "transactionType": "CALL",
      "contractName": null,
      "contractAddress": "0xd51b286ad70a7b1c0e9de8755b260c1ef055b79a",
      "function": "deposit(uint256,address)",
      "arguments": [
        "5000000",
        "0xcdA2fDB452FF4F5D7Ba1C3d5dFCc9CB926A5eb7D"
      ],
      "transaction": {
        "from": "0xcda2fdb452ff4f5d7ba1c3d5dfcc9cb926a5eb7d",
        "to": "0xd51b286ad70a7b1c0e9de8755b260c1ef055b79a",
        "gas": "0x4fc8a",
        "value": "0x0",
        "input": "0x6e553f6500000000000000000000000000000000000000000000000000000000004c4b40000000000000000000000000cda2fdb452ff4f5d7ba1c3d5dfcc9cb926a5eb7d",
        "nonce": "0x3c",
        "chainId": "0xa"
      },
      "additionalContracts": [],
      "isFixedGasLimit": false
    }
  ],
  "receipts": [
    {
      "status": "0x1",
      "cumulativeGasUsed": "0x5a5f5f",
      "logs": [
        {
          "address": "0x794a61358d6845594f94dc1db02a252b5b4814ad",
          "topics": [
            "0x804c9b842b2748a22bb64b345453a3de7ca54a6ca45ce00d415894979e22897a",
            "0x0000000000000000000000007f5c764cbc14f9669b88837ca1490cca17c31607"
          ],
          "data": "0x0000000000000000000000000000000000000000004ec4a6f40edb8419cd9a230000000000000000000000000000000000000000000000000000000000000000000000000000000000000000000000000000000000ab5df02c2857a56116ed6c0000000000000000000000000000000000000000039cfd30f8957f49aabaef25000000000000000000000000000000000000000003def08558783d7055c363e9",
          "blockHash": "0xb4dac390f0324d4e28c1c73caa1bc308a7c6c4df3c5b7ca855e4f229340134d4",
          "blockNumber": "0x7cfe245",
          "transactionHash": "0xe785cee38efa43061f35a708116a9ea70f8c304247a1249293a57753802b7514",
          "transactionIndex": "0x12",
          "logIndex": "0x3b",
          "removed": false
        },
        {
          "address": "0x625e7708f30ca75bfd92586e17077590c60eb4cd",
          "topics": [
            "0xddf252ad1be2c89b69c2b068fc378daa952ba7f163c4a11628f55a4df523b3ef",
            "0x000000000000000000000000d51b286ad70a7b1c0e9de8755b260c1ef055b79a",
            "0x0000000000000000000000000000000000000000000000000000000000000000"
          ],
          "data": "0x00000000000000000000000000000000000000000000000000000000004c4b16",
          "blockHash": "0xb4dac390f0324d4e28c1c73caa1bc308a7c6c4df3c5b7ca855e4f229340134d4",
          "blockNumber": "0x7cfe245",
          "transactionHash": "0xe785cee38efa43061f35a708116a9ea70f8c304247a1249293a57753802b7514",
          "transactionIndex": "0x12",
          "logIndex": "0x3c",
          "removed": false
        },
        {
          "address": "0x625e7708f30ca75bfd92586e17077590c60eb4cd",
          "topics": [
            "0x4cf25bc1d991c17529c25213d3cc0cda295eeaad5f13f361969b12ea48015f90",
            "0x000000000000000000000000d51b286ad70a7b1c0e9de8755b260c1ef055b79a",
            "0x000000000000000000000000d51b286ad70a7b1c0e9de8755b260c1ef055b79a"
          ],
          "data": "0x00000000000000000000000000000000000000000000000000000000004c4b16000000000000000000000000000000000000000000000000000000000000002a0000000000000000000000000000000000000000039cfd30f8957f49aabaef25",
          "blockHash": "0xb4dac390f0324d4e28c1c73caa1bc308a7c6c4df3c5b7ca855e4f229340134d4",
          "blockNumber": "0x7cfe245",
          "transactionHash": "0xe785cee38efa43061f35a708116a9ea70f8c304247a1249293a57753802b7514",
          "transactionIndex": "0x12",
          "logIndex": "0x3d",
          "removed": false
        },
        {
          "address": "0x7f5c764cbc14f9669b88837ca1490cca17c31607",
          "topics": [
            "0xddf252ad1be2c89b69c2b068fc378daa952ba7f163c4a11628f55a4df523b3ef",
            "0x000000000000000000000000625e7708f30ca75bfd92586e17077590c60eb4cd",
            "0x000000000000000000000000d51b286ad70a7b1c0e9de8755b260c1ef055b79a"
          ],
          "data": "0x00000000000000000000000000000000000000000000000000000000004c4b40",
          "blockHash": "0xb4dac390f0324d4e28c1c73caa1bc308a7c6c4df3c5b7ca855e4f229340134d4",
          "blockNumber": "0x7cfe245",
          "transactionHash": "0xe785cee38efa43061f35a708116a9ea70f8c304247a1249293a57753802b7514",
          "transactionIndex": "0x12",
          "logIndex": "0x3e",
          "removed": false
        },
        {
          "address": "0x794a61358d6845594f94dc1db02a252b5b4814ad",
          "topics": [
            "0x3115d1449a7b732c986cba18244e897a450f61e1bb8d589cd2e69e6c8924f9f7",
            "0x0000000000000000000000007f5c764cbc14f9669b88837ca1490cca17c31607",
            "0x000000000000000000000000d51b286ad70a7b1c0e9de8755b260c1ef055b79a",
            "0x000000000000000000000000d51b286ad70a7b1c0e9de8755b260c1ef055b79a"
          ],
          "data": "0x00000000000000000000000000000000000000000000000000000000004c4b40",
          "blockHash": "0xb4dac390f0324d4e28c1c73caa1bc308a7c6c4df3c5b7ca855e4f229340134d4",
          "blockNumber": "0x7cfe245",
          "transactionHash": "0xe785cee38efa43061f35a708116a9ea70f8c304247a1249293a57753802b7514",
          "transactionIndex": "0x12",
          "logIndex": "0x3f",
          "removed": false
        },
        {
          "address": "0xd51b286ad70a7b1c0e9de8755b260c1ef055b79a",
          "topics": [
            "0xddf252ad1be2c89b69c2b068fc378daa952ba7f163c4a11628f55a4df523b3ef",
            "0x000000000000000000000000cda2fdb452ff4f5d7ba1c3d5dfcc9cb926a5eb7d",
            "0x0000000000000000000000000000000000000000000000000000000000000000"
          ],
          "data": "0x000000000000000000000000000000000000000000000002c389c780ef4c85d5",
          "blockHash": "0xb4dac390f0324d4e28c1c73caa1bc308a7c6c4df3c5b7ca855e4f229340134d4",
          "blockNumber": "0x7cfe245",
          "transactionHash": "0xe785cee38efa43061f35a708116a9ea70f8c304247a1249293a57753802b7514",
          "transactionIndex": "0x12",
          "logIndex": "0x40",
          "removed": false
        },
        {
          "address": "0x7f5c764cbc14f9669b88837ca1490cca17c31607",
          "topics": [
            "0xddf252ad1be2c89b69c2b068fc378daa952ba7f163c4a11628f55a4df523b3ef",
            "0x000000000000000000000000d51b286ad70a7b1c0e9de8755b260c1ef055b79a",
            "0x000000000000000000000000cda2fdb452ff4f5d7ba1c3d5dfcc9cb926a5eb7d"
          ],
          "data": "0x00000000000000000000000000000000000000000000000000000000004c4b40",
          "blockHash": "0xb4dac390f0324d4e28c1c73caa1bc308a7c6c4df3c5b7ca855e4f229340134d4",
          "blockNumber": "0x7cfe245",
          "transactionHash": "0xe785cee38efa43061f35a708116a9ea70f8c304247a1249293a57753802b7514",
          "transactionIndex": "0x12",
          "logIndex": "0x41",
          "removed": false
        },
        {
          "address": "0xd51b286ad70a7b1c0e9de8755b260c1ef055b79a",
          "topics": [
            "0xfbde797d201c681b91056529119e0b02407c7bb96a4a2c75c01fc9667232c8db",
            "0x000000000000000000000000cda2fdb452ff4f5d7ba1c3d5dfcc9cb926a5eb7d",
            "0x000000000000000000000000cda2fdb452ff4f5d7ba1c3d5dfcc9cb926a5eb7d",
            "0x000000000000000000000000cda2fdb452ff4f5d7ba1c3d5dfcc9cb926a5eb7d"
          ],
          "data": "0x00000000000000000000000000000000000000000000000000000000004c4b40000000000000000000000000000000000000000000000002c389c780ef4c85d5",
          "blockHash": "0xb4dac390f0324d4e28c1c73caa1bc308a7c6c4df3c5b7ca855e4f229340134d4",
          "blockNumber": "0x7cfe245",
          "transactionHash": "0xe785cee38efa43061f35a708116a9ea70f8c304247a1249293a57753802b7514",
          "transactionIndex": "0x12",
          "logIndex": "0x42",
          "removed": false
        }
      ],
      "logsBloom": "0x10080000000000400000008000000000008000000004000000000000000000000001000000000000000000000000000000010040000004000000000000000001000001000000000000000008040000008000044000080000000000000000000002000000020000000000000000000800000000000000820000000010000000000400000040000000000200000000000000000000008000000000000000000000000000000080000000000000000000020000000000004000000000000000010000000002000000000000002000000000000000000000000000000000000020040000000000000000000000040008000000000000040000000000000000010000",
      "type": "0x2",
      "transactionHash": "0xe785cee38efa43061f35a708116a9ea70f8c304247a1249293a57753802b7514",
      "transactionIndex": "0x12",
      "blockHash": "0xb4dac390f0324d4e28c1c73caa1bc308a7c6c4df3c5b7ca855e4f229340134d4",
      "blockNumber": "0x7cfe245",
      "gasUsed": "0x3a9e3",
      "effectiveGasPrice": "0x18852",
      "from": "0xcda2fdb452ff4f5d7ba1c3d5dfcc9cb926a5eb7d",
      "to": "0xd51b286ad70a7b1c0e9de8755b260c1ef055b79a",
      "contractAddress": null,
      "l1BaseFeeScalar": "0x146b",
      "l1BlobBaseFee": "0x29e74",
      "l1BlobBaseFeeScalar": "0xf79c5",
      "l1Fee": "0x283f9f8b43",
      "l1GasPrice": "0x4cfe52991",
      "l1GasUsed": "0x640"
    },
    {
      "status": "0x1",
      "cumulativeGasUsed": "0x5dc838",
      "logs": [
        {
          "address": "0x7f5c764cbc14f9669b88837ca1490cca17c31607",
          "topics": [
            "0xddf252ad1be2c89b69c2b068fc378daa952ba7f163c4a11628f55a4df523b3ef",
            "0x000000000000000000000000cda2fdb452ff4f5d7ba1c3d5dfcc9cb926a5eb7d",
            "0x000000000000000000000000d51b286ad70a7b1c0e9de8755b260c1ef055b79a"
          ],
          "data": "0x00000000000000000000000000000000000000000000000000000000004c4b40",
          "blockHash": "0xb4dac390f0324d4e28c1c73caa1bc308a7c6c4df3c5b7ca855e4f229340134d4",
          "blockNumber": "0x7cfe245",
          "transactionHash": "0x2cd0bcb0f8ec06b3f9a3ecc7da09556231736e5c923578b05b2c8de56dc1f814",
          "transactionIndex": "0x13",
          "logIndex": "0x43",
          "removed": false
        },
        {
          "address": "0x7f5c764cbc14f9669b88837ca1490cca17c31607",
          "topics": [
            "0x8c5be1e5ebec7d5bd14f71427d1e84f3dd0314c0f7b2291e5b200ac8c7c3b925",
            "0x000000000000000000000000cda2fdb452ff4f5d7ba1c3d5dfcc9cb926a5eb7d",
            "0x000000000000000000000000d51b286ad70a7b1c0e9de8755b260c1ef055b79a"
          ],
          "data": "0xfffffffffffffffffffffffffffffffffffffffffffffffffffffffffe8287bf",
          "blockHash": "0xb4dac390f0324d4e28c1c73caa1bc308a7c6c4df3c5b7ca855e4f229340134d4",
          "blockNumber": "0x7cfe245",
          "transactionHash": "0x2cd0bcb0f8ec06b3f9a3ecc7da09556231736e5c923578b05b2c8de56dc1f814",
          "transactionIndex": "0x13",
          "logIndex": "0x44",
          "removed": false
        },
        {
          "address": "0x7f5c764cbc14f9669b88837ca1490cca17c31607",
          "topics": [
            "0x8c5be1e5ebec7d5bd14f71427d1e84f3dd0314c0f7b2291e5b200ac8c7c3b925",
            "0x000000000000000000000000d51b286ad70a7b1c0e9de8755b260c1ef055b79a",
            "0x000000000000000000000000794a61358d6845594f94dc1db02a252b5b4814ad"
          ],
          "data": "0x00000000000000000000000000000000000000000000000000000000004c4b40",
          "blockHash": "0xb4dac390f0324d4e28c1c73caa1bc308a7c6c4df3c5b7ca855e4f229340134d4",
          "blockNumber": "0x7cfe245",
          "transactionHash": "0x2cd0bcb0f8ec06b3f9a3ecc7da09556231736e5c923578b05b2c8de56dc1f814",
          "transactionIndex": "0x13",
          "logIndex": "0x45",
          "removed": false
        },
        {
          "address": "0x794a61358d6845594f94dc1db02a252b5b4814ad",
          "topics": [
            "0x804c9b842b2748a22bb64b345453a3de7ca54a6ca45ce00d415894979e22897a",
            "0x0000000000000000000000007f5c764cbc14f9669b88837ca1490cca17c31607"
          ],
          "data": "0x0000000000000000000000000000000000000000004ec43df63c48d5b03f131e0000000000000000000000000000000000000000000000000000000000000000000000000000000000000000000000000000000000ab5d17efd3b1570bd5e1d40000000000000000000000000000000000000000039cfd30f8957f49aabaef25000000000000000000000000000000000000000003def08558783d7055c363e9",
          "blockHash": "0xb4dac390f0324d4e28c1c73caa1bc308a7c6c4df3c5b7ca855e4f229340134d4",
          "blockNumber": "0x7cfe245",
          "transactionHash": "0x2cd0bcb0f8ec06b3f9a3ecc7da09556231736e5c923578b05b2c8de56dc1f814",
          "transactionIndex": "0x13",
          "logIndex": "0x46",
          "removed": false
        },
        {
          "address": "0x7f5c764cbc14f9669b88837ca1490cca17c31607",
          "topics": [
            "0xddf252ad1be2c89b69c2b068fc378daa952ba7f163c4a11628f55a4df523b3ef",
            "0x000000000000000000000000d51b286ad70a7b1c0e9de8755b260c1ef055b79a",
            "0x000000000000000000000000625e7708f30ca75bfd92586e17077590c60eb4cd"
          ],
          "data": "0x00000000000000000000000000000000000000000000000000000000004c4b40",
          "blockHash": "0xb4dac390f0324d4e28c1c73caa1bc308a7c6c4df3c5b7ca855e4f229340134d4",
          "blockNumber": "0x7cfe245",
          "transactionHash": "0x2cd0bcb0f8ec06b3f9a3ecc7da09556231736e5c923578b05b2c8de56dc1f814",
          "transactionIndex": "0x13",
          "logIndex": "0x47",
          "removed": false
        },
        {
          "address": "0x7f5c764cbc14f9669b88837ca1490cca17c31607",
          "topics": [
            "0x8c5be1e5ebec7d5bd14f71427d1e84f3dd0314c0f7b2291e5b200ac8c7c3b925",
            "0x000000000000000000000000d51b286ad70a7b1c0e9de8755b260c1ef055b79a",
            "0x000000000000000000000000794a61358d6845594f94dc1db02a252b5b4814ad"
          ],
          "data": "0x0000000000000000000000000000000000000000000000000000000000000000",
          "blockHash": "0xb4dac390f0324d4e28c1c73caa1bc308a7c6c4df3c5b7ca855e4f229340134d4",
          "blockNumber": "0x7cfe245",
          "transactionHash": "0x2cd0bcb0f8ec06b3f9a3ecc7da09556231736e5c923578b05b2c8de56dc1f814",
          "transactionIndex": "0x13",
          "logIndex": "0x48",
          "removed": false
        },
        {
          "address": "0x625e7708f30ca75bfd92586e17077590c60eb4cd",
          "topics": [
            "0xddf252ad1be2c89b69c2b068fc378daa952ba7f163c4a11628f55a4df523b3ef",
            "0x0000000000000000000000000000000000000000000000000000000000000000",
            "0x000000000000000000000000d51b286ad70a7b1c0e9de8755b260c1ef055b79a"
          ],
          "data": "0x00000000000000000000000000000000000000000000000000000000004c4b40",
          "blockHash": "0xb4dac390f0324d4e28c1c73caa1bc308a7c6c4df3c5b7ca855e4f229340134d4",
          "blockNumber": "0x7cfe245",
          "transactionHash": "0x2cd0bcb0f8ec06b3f9a3ecc7da09556231736e5c923578b05b2c8de56dc1f814",
          "transactionIndex": "0x13",
          "logIndex": "0x49",
          "removed": false
        },
        {
          "address": "0x625e7708f30ca75bfd92586e17077590c60eb4cd",
          "topics": [
            "0x458f5fa412d0f69b08dd84872b0215675cc67bc1d5b6fd93300a1c3878b86196",
            "0x000000000000000000000000d51b286ad70a7b1c0e9de8755b260c1ef055b79a",
            "0x000000000000000000000000d51b286ad70a7b1c0e9de8755b260c1ef055b79a"
          ],
          "data": "0x00000000000000000000000000000000000000000000000000000000004c4b4000000000000000000000000000000000000000000000000000000000000000000000000000000000000000000000000000000000039cfd30f8957f49aabaef25",
          "blockHash": "0xb4dac390f0324d4e28c1c73caa1bc308a7c6c4df3c5b7ca855e4f229340134d4",
          "blockNumber": "0x7cfe245",
          "transactionHash": "0x2cd0bcb0f8ec06b3f9a3ecc7da09556231736e5c923578b05b2c8de56dc1f814",
          "transactionIndex": "0x13",
          "logIndex": "0x4a",
          "removed": false
        },
        {
          "address": "0x794a61358d6845594f94dc1db02a252b5b4814ad",
          "topics": [
            "0x2b627736bca15cd5381dcf80b0bf11fd197d01a037c52b927a881a10fb73ba61",
            "0x0000000000000000000000007f5c764cbc14f9669b88837ca1490cca17c31607",
            "0x000000000000000000000000d51b286ad70a7b1c0e9de8755b260c1ef055b79a",
            "0x0000000000000000000000000000000000000000000000000000000000000000"
          ],
          "data": "0x000000000000000000000000d51b286ad70a7b1c0e9de8755b260c1ef055b79a00000000000000000000000000000000000000000000000000000000004c4b40",
          "blockHash": "0xb4dac390f0324d4e28c1c73caa1bc308a7c6c4df3c5b7ca855e4f229340134d4",
          "blockNumber": "0x7cfe245",
          "transactionHash": "0x2cd0bcb0f8ec06b3f9a3ecc7da09556231736e5c923578b05b2c8de56dc1f814",
          "transactionIndex": "0x13",
          "logIndex": "0x4b",
          "removed": false
        },
        {
          "address": "0xd51b286ad70a7b1c0e9de8755b260c1ef055b79a",
          "topics": [
            "0xddf252ad1be2c89b69c2b068fc378daa952ba7f163c4a11628f55a4df523b3ef",
            "0x0000000000000000000000000000000000000000000000000000000000000000",
            "0x000000000000000000000000cda2fdb452ff4f5d7ba1c3d5dfcc9cb926a5eb7d"
          ],
          "data": "0x0000000000000000000000000000000000000000000000029a0d76650a816f50",
          "blockHash": "0xb4dac390f0324d4e28c1c73caa1bc308a7c6c4df3c5b7ca855e4f229340134d4",
          "blockNumber": "0x7cfe245",
          "transactionHash": "0x2cd0bcb0f8ec06b3f9a3ecc7da09556231736e5c923578b05b2c8de56dc1f814",
          "transactionIndex": "0x13",
          "logIndex": "0x4c",
          "removed": false
        },
        {
          "address": "0xd51b286ad70a7b1c0e9de8755b260c1ef055b79a",
          "topics": [
            "0xdcbc1c05240f31ff3ad067ef1ee35ce4997762752e3a095284754544f4c709d7",
            "0x000000000000000000000000cda2fdb452ff4f5d7ba1c3d5dfcc9cb926a5eb7d",
            "0x000000000000000000000000cda2fdb452ff4f5d7ba1c3d5dfcc9cb926a5eb7d"
          ],
          "data": "0x00000000000000000000000000000000000000000000000000000000004c4b400000000000000000000000000000000000000000000000029a0d76650a816f50",
          "blockHash": "0xb4dac390f0324d4e28c1c73caa1bc308a7c6c4df3c5b7ca855e4f229340134d4",
          "blockNumber": "0x7cfe245",
          "transactionHash": "0x2cd0bcb0f8ec06b3f9a3ecc7da09556231736e5c923578b05b2c8de56dc1f814",
          "transactionIndex": "0x13",
          "logIndex": "0x4d",
          "removed": false
        }
      ],
      "logsBloom": "0x00080000000000000000008000000000000000000004000000000000000000000001000000000000000000000004000000000040000004000000000000200001000001400000000000000008040000008000044000080000800000040000000002000000020000000000000000000800000000000004800000000010000000000400000040000000000200000000000000000800008000000000000000000000020000000000000000000000000000000000000000004100000000000000010002000002000000000000002040000000000000000008000000000000000020000010000000000000000000040008000040000000040000000000400000010000",
      "type": "0x2",
      "transactionHash": "0x2cd0bcb0f8ec06b3f9a3ecc7da09556231736e5c923578b05b2c8de56dc1f814",
      "transactionIndex": "0x13",
      "blockHash": "0xb4dac390f0324d4e28c1c73caa1bc308a7c6c4df3c5b7ca855e4f229340134d4",
      "blockNumber": "0x7cfe245",
      "gasUsed": "0x368d9",
      "effectiveGasPrice": "0x18852",
      "from": "0xcda2fdb452ff4f5d7ba1c3d5dfcc9cb926a5eb7d",
      "to": "0xd51b286ad70a7b1c0e9de8755b260c1ef055b79a",
      "contractAddress": null,
      "l1BaseFeeScalar": "0x146b",
      "l1BlobBaseFee": "0x29e74",
      "l1BlobBaseFeeScalar": "0xf79c5",
      "l1Fee": "0x283f9f8b43",
      "l1GasPrice": "0x4cfe52991",
      "l1GasUsed": "0x640"
    },
    {
      "status": "0x1",
      "cumulativeGasUsed": "0x613a61",
      "logs": [
        {
          "address": "0x794a61358d6845594f94dc1db02a252b5b4814ad",
          "topics": [
            "0x804c9b842b2748a22bb64b345453a3de7ca54a6ca45ce00d415894979e22897a",
            "0x0000000000000000000000007f5c764cbc14f9669b88837ca1490cca17c31607"
          ],
          "data": "0x0000000000000000000000000000000000000000004ec4a6f40edb8419cd9a230000000000000000000000000000000000000000000000000000000000000000000000000000000000000000000000000000000000ab5df02c2857a56116ed6c0000000000000000000000000000000000000000039cfd30f8957f49aabaef25000000000000000000000000000000000000000003def08558783d7055c363e9",
          "blockHash": "0xb4dac390f0324d4e28c1c73caa1bc308a7c6c4df3c5b7ca855e4f229340134d4",
          "blockNumber": "0x7cfe245",
          "transactionHash": "0x854e7552a24938118458c8a21200d034fc8858136fac88e0140385a79c768063",
          "transactionIndex": "0x14",
          "logIndex": "0x4e",
          "removed": false
        },
        {
          "address": "0x625e7708f30ca75bfd92586e17077590c60eb4cd",
          "topics": [
            "0xddf252ad1be2c89b69c2b068fc378daa952ba7f163c4a11628f55a4df523b3ef",
            "0x000000000000000000000000d51b286ad70a7b1c0e9de8755b260c1ef055b79a",
            "0x0000000000000000000000000000000000000000000000000000000000000000"
          ],
          "data": "0x00000000000000000000000000000000000000000000000000000000004c4b40",
          "blockHash": "0xb4dac390f0324d4e28c1c73caa1bc308a7c6c4df3c5b7ca855e4f229340134d4",
          "blockNumber": "0x7cfe245",
          "transactionHash": "0x854e7552a24938118458c8a21200d034fc8858136fac88e0140385a79c768063",
          "transactionIndex": "0x14",
          "logIndex": "0x4f",
          "removed": false
        },
        {
          "address": "0x625e7708f30ca75bfd92586e17077590c60eb4cd",
          "topics": [
            "0x4cf25bc1d991c17529c25213d3cc0cda295eeaad5f13f361969b12ea48015f90",
            "0x000000000000000000000000d51b286ad70a7b1c0e9de8755b260c1ef055b79a",
            "0x000000000000000000000000d51b286ad70a7b1c0e9de8755b260c1ef055b79a"
          ],
          "data": "0x00000000000000000000000000000000000000000000000000000000004c4b4000000000000000000000000000000000000000000000000000000000000000000000000000000000000000000000000000000000039cfd30f8957f49aabaef25",
          "blockHash": "0xb4dac390f0324d4e28c1c73caa1bc308a7c6c4df3c5b7ca855e4f229340134d4",
          "blockNumber": "0x7cfe245",
          "transactionHash": "0x854e7552a24938118458c8a21200d034fc8858136fac88e0140385a79c768063",
          "transactionIndex": "0x14",
          "logIndex": "0x50",
          "removed": false
        },
        {
          "address": "0x7f5c764cbc14f9669b88837ca1490cca17c31607",
          "topics": [
            "0xddf252ad1be2c89b69c2b068fc378daa952ba7f163c4a11628f55a4df523b3ef",
            "0x000000000000000000000000625e7708f30ca75bfd92586e17077590c60eb4cd",
            "0x000000000000000000000000d51b286ad70a7b1c0e9de8755b260c1ef055b79a"
          ],
          "data": "0x00000000000000000000000000000000000000000000000000000000004c4b40",
          "blockHash": "0xb4dac390f0324d4e28c1c73caa1bc308a7c6c4df3c5b7ca855e4f229340134d4",
          "blockNumber": "0x7cfe245",
          "transactionHash": "0x854e7552a24938118458c8a21200d034fc8858136fac88e0140385a79c768063",
          "transactionIndex": "0x14",
          "logIndex": "0x51",
          "removed": false
        },
        {
          "address": "0x794a61358d6845594f94dc1db02a252b5b4814ad",
          "topics": [
            "0x3115d1449a7b732c986cba18244e897a450f61e1bb8d589cd2e69e6c8924f9f7",
            "0x0000000000000000000000007f5c764cbc14f9669b88837ca1490cca17c31607",
            "0x000000000000000000000000d51b286ad70a7b1c0e9de8755b260c1ef055b79a",
            "0x000000000000000000000000d51b286ad70a7b1c0e9de8755b260c1ef055b79a"
          ],
          "data": "0x00000000000000000000000000000000000000000000000000000000004c4b40",
          "blockHash": "0xb4dac390f0324d4e28c1c73caa1bc308a7c6c4df3c5b7ca855e4f229340134d4",
          "blockNumber": "0x7cfe245",
          "transactionHash": "0x854e7552a24938118458c8a21200d034fc8858136fac88e0140385a79c768063",
          "transactionIndex": "0x14",
          "logIndex": "0x52",
          "removed": false
        },
        {
          "address": "0xd51b286ad70a7b1c0e9de8755b260c1ef055b79a",
          "topics": [
            "0xddf252ad1be2c89b69c2b068fc378daa952ba7f163c4a11628f55a4df523b3ef",
            "0x000000000000000000000000cda2fdb452ff4f5d7ba1c3d5dfcc9cb926a5eb7d",
            "0x0000000000000000000000000000000000000000000000000000000000000000"
          ],
          "data": "0x000000000000000000000000000000000000000000000002c1c1fdcfb554616a",
          "blockHash": "0xb4dac390f0324d4e28c1c73caa1bc308a7c6c4df3c5b7ca855e4f229340134d4",
          "blockNumber": "0x7cfe245",
          "transactionHash": "0x854e7552a24938118458c8a21200d034fc8858136fac88e0140385a79c768063",
          "transactionIndex": "0x14",
          "logIndex": "0x53",
          "removed": false
        },
        {
          "address": "0x7f5c764cbc14f9669b88837ca1490cca17c31607",
          "topics": [
            "0xddf252ad1be2c89b69c2b068fc378daa952ba7f163c4a11628f55a4df523b3ef",
            "0x000000000000000000000000d51b286ad70a7b1c0e9de8755b260c1ef055b79a",
            "0x000000000000000000000000cda2fdb452ff4f5d7ba1c3d5dfcc9cb926a5eb7d"
          ],
          "data": "0x00000000000000000000000000000000000000000000000000000000004c4b40",
          "blockHash": "0xb4dac390f0324d4e28c1c73caa1bc308a7c6c4df3c5b7ca855e4f229340134d4",
          "blockNumber": "0x7cfe245",
          "transactionHash": "0x854e7552a24938118458c8a21200d034fc8858136fac88e0140385a79c768063",
          "transactionIndex": "0x14",
          "logIndex": "0x54",
          "removed": false
        },
        {
          "address": "0xd51b286ad70a7b1c0e9de8755b260c1ef055b79a",
          "topics": [
            "0xfbde797d201c681b91056529119e0b02407c7bb96a4a2c75c01fc9667232c8db",
            "0x000000000000000000000000cda2fdb452ff4f5d7ba1c3d5dfcc9cb926a5eb7d",
            "0x000000000000000000000000cda2fdb452ff4f5d7ba1c3d5dfcc9cb926a5eb7d",
            "0x000000000000000000000000cda2fdb452ff4f5d7ba1c3d5dfcc9cb926a5eb7d"
          ],
          "data": "0x00000000000000000000000000000000000000000000000000000000004c4b40000000000000000000000000000000000000000000000002c1c1fdcfb554616a",
          "blockHash": "0xb4dac390f0324d4e28c1c73caa1bc308a7c6c4df3c5b7ca855e4f229340134d4",
          "blockNumber": "0x7cfe245",
          "transactionHash": "0x854e7552a24938118458c8a21200d034fc8858136fac88e0140385a79c768063",
          "transactionIndex": "0x14",
          "logIndex": "0x55",
          "removed": false
        }
      ],
      "logsBloom": "0x10080000000000400000008000000000008000000004000000000000000000000001000000000000000000000000000000010040000004000000000000000001000001000000000000000008040000008000044000080000000000000000000002000000020000000000000000000800000000000000820000000010000000000400000040000000000200000000000000000000008000000000000000000000000000000080000000000000000000020000000000004000000000000000010000000002000000000000002000000000000000000000000000000000000020040000000000000000000000040008000000000000040000000000000000010000",
      "type": "0x2",
      "transactionHash": "0x854e7552a24938118458c8a21200d034fc8858136fac88e0140385a79c768063",
      "transactionIndex": "0x14",
      "blockHash": "0xb4dac390f0324d4e28c1c73caa1bc308a7c6c4df3c5b7ca855e4f229340134d4",
      "blockNumber": "0x7cfe245",
      "gasUsed": "0x37229",
      "effectiveGasPrice": "0x18852",
      "from": "0xcda2fdb452ff4f5d7ba1c3d5dfcc9cb926a5eb7d",
      "to": "0xd51b286ad70a7b1c0e9de8755b260c1ef055b79a",
      "contractAddress": null,
      "l1BaseFeeScalar": "0x146b",
      "l1BlobBaseFee": "0x29e74",
      "l1BlobBaseFeeScalar": "0xf79c5",
      "l1Fee": "0x283f9f8b43",
      "l1GasPrice": "0x4cfe52991",
      "l1GasUsed": "0x640"
    },
    {
      "status": "0x1",
      "cumulativeGasUsed": "0x64a33a",
      "logs": [
        {
          "address": "0x7f5c764cbc14f9669b88837ca1490cca17c31607",
          "topics": [
            "0xddf252ad1be2c89b69c2b068fc378daa952ba7f163c4a11628f55a4df523b3ef",
            "0x000000000000000000000000cda2fdb452ff4f5d7ba1c3d5dfcc9cb926a5eb7d",
            "0x000000000000000000000000d51b286ad70a7b1c0e9de8755b260c1ef055b79a"
          ],
          "data": "0x00000000000000000000000000000000000000000000000000000000004c4b40",
          "blockHash": "0xb4dac390f0324d4e28c1c73caa1bc308a7c6c4df3c5b7ca855e4f229340134d4",
          "blockNumber": "0x7cfe245",
          "transactionHash": "0xaa447430a4460568f50eb263af4bc79e113e7f791ad9a0ba302698b7761be79f",
          "transactionIndex": "0x15",
          "logIndex": "0x56",
          "removed": false
        },
        {
          "address": "0x7f5c764cbc14f9669b88837ca1490cca17c31607",
          "topics": [
            "0x8c5be1e5ebec7d5bd14f71427d1e84f3dd0314c0f7b2291e5b200ac8c7c3b925",
            "0x000000000000000000000000cda2fdb452ff4f5d7ba1c3d5dfcc9cb926a5eb7d",
            "0x000000000000000000000000d51b286ad70a7b1c0e9de8755b260c1ef055b79a"
          ],
          "data": "0xfffffffffffffffffffffffffffffffffffffffffffffffffffffffffe363c7f",
          "blockHash": "0xb4dac390f0324d4e28c1c73caa1bc308a7c6c4df3c5b7ca855e4f229340134d4",
          "blockNumber": "0x7cfe245",
          "transactionHash": "0xaa447430a4460568f50eb263af4bc79e113e7f791ad9a0ba302698b7761be79f",
          "transactionIndex": "0x15",
          "logIndex": "0x57",
          "removed": false
        },
        {
          "address": "0x7f5c764cbc14f9669b88837ca1490cca17c31607",
          "topics": [
            "0x8c5be1e5ebec7d5bd14f71427d1e84f3dd0314c0f7b2291e5b200ac8c7c3b925",
            "0x000000000000000000000000d51b286ad70a7b1c0e9de8755b260c1ef055b79a",
            "0x000000000000000000000000794a61358d6845594f94dc1db02a252b5b4814ad"
          ],
          "data": "0x00000000000000000000000000000000000000000000000000000000004c4b40",
          "blockHash": "0xb4dac390f0324d4e28c1c73caa1bc308a7c6c4df3c5b7ca855e4f229340134d4",
          "blockNumber": "0x7cfe245",
          "transactionHash": "0xaa447430a4460568f50eb263af4bc79e113e7f791ad9a0ba302698b7761be79f",
          "transactionIndex": "0x15",
          "logIndex": "0x58",
          "removed": false
        },
        {
          "address": "0x794a61358d6845594f94dc1db02a252b5b4814ad",
          "topics": [
            "0x804c9b842b2748a22bb64b345453a3de7ca54a6ca45ce00d415894979e22897a",
            "0x0000000000000000000000007f5c764cbc14f9669b88837ca1490cca17c31607"
          ],
          "data": "0x0000000000000000000000000000000000000000004ec43df63c48d5b03f131e0000000000000000000000000000000000000000000000000000000000000000000000000000000000000000000000000000000000ab5d17efd3b1570bd5e1d40000000000000000000000000000000000000000039cfd30f8957f49aabaef25000000000000000000000000000000000000000003def08558783d7055c363e9",
          "blockHash": "0xb4dac390f0324d4e28c1c73caa1bc308a7c6c4df3c5b7ca855e4f229340134d4",
          "blockNumber": "0x7cfe245",
          "transactionHash": "0xaa447430a4460568f50eb263af4bc79e113e7f791ad9a0ba302698b7761be79f",
          "transactionIndex": "0x15",
          "logIndex": "0x59",
          "removed": false
        },
        {
          "address": "0x7f5c764cbc14f9669b88837ca1490cca17c31607",
          "topics": [
            "0xddf252ad1be2c89b69c2b068fc378daa952ba7f163c4a11628f55a4df523b3ef",
            "0x000000000000000000000000d51b286ad70a7b1c0e9de8755b260c1ef055b79a",
            "0x000000000000000000000000625e7708f30ca75bfd92586e17077590c60eb4cd"
          ],
          "data": "0x00000000000000000000000000000000000000000000000000000000004c4b40",
          "blockHash": "0xb4dac390f0324d4e28c1c73caa1bc308a7c6c4df3c5b7ca855e4f229340134d4",
          "blockNumber": "0x7cfe245",
          "transactionHash": "0xaa447430a4460568f50eb263af4bc79e113e7f791ad9a0ba302698b7761be79f",
          "transactionIndex": "0x15",
          "logIndex": "0x5a",
          "removed": false
        },
        {
          "address": "0x7f5c764cbc14f9669b88837ca1490cca17c31607",
          "topics": [
            "0x8c5be1e5ebec7d5bd14f71427d1e84f3dd0314c0f7b2291e5b200ac8c7c3b925",
            "0x000000000000000000000000d51b286ad70a7b1c0e9de8755b260c1ef055b79a",
            "0x000000000000000000000000794a61358d6845594f94dc1db02a252b5b4814ad"
          ],
          "data": "0x0000000000000000000000000000000000000000000000000000000000000000",
          "blockHash": "0xb4dac390f0324d4e28c1c73caa1bc308a7c6c4df3c5b7ca855e4f229340134d4",
          "blockNumber": "0x7cfe245",
          "transactionHash": "0xaa447430a4460568f50eb263af4bc79e113e7f791ad9a0ba302698b7761be79f",
          "transactionIndex": "0x15",
          "logIndex": "0x5b",
          "removed": false
        },
        {
          "address": "0x625e7708f30ca75bfd92586e17077590c60eb4cd",
          "topics": [
            "0xddf252ad1be2c89b69c2b068fc378daa952ba7f163c4a11628f55a4df523b3ef",
            "0x0000000000000000000000000000000000000000000000000000000000000000",
            "0x000000000000000000000000d51b286ad70a7b1c0e9de8755b260c1ef055b79a"
          ],
          "data": "0x00000000000000000000000000000000000000000000000000000000004c4b40",
          "blockHash": "0xb4dac390f0324d4e28c1c73caa1bc308a7c6c4df3c5b7ca855e4f229340134d4",
          "blockNumber": "0x7cfe245",
          "transactionHash": "0xaa447430a4460568f50eb263af4bc79e113e7f791ad9a0ba302698b7761be79f",
          "transactionIndex": "0x15",
          "logIndex": "0x5c",
          "removed": false
        },
        {
          "address": "0x625e7708f30ca75bfd92586e17077590c60eb4cd",
          "topics": [
            "0x458f5fa412d0f69b08dd84872b0215675cc67bc1d5b6fd93300a1c3878b86196",
            "0x000000000000000000000000d51b286ad70a7b1c0e9de8755b260c1ef055b79a",
            "0x000000000000000000000000d51b286ad70a7b1c0e9de8755b260c1ef055b79a"
          ],
          "data": "0x00000000000000000000000000000000000000000000000000000000004c4b4000000000000000000000000000000000000000000000000000000000000000000000000000000000000000000000000000000000039cfd30f8957f49aabaef25",
          "blockHash": "0xb4dac390f0324d4e28c1c73caa1bc308a7c6c4df3c5b7ca855e4f229340134d4",
          "blockNumber": "0x7cfe245",
          "transactionHash": "0xaa447430a4460568f50eb263af4bc79e113e7f791ad9a0ba302698b7761be79f",
          "transactionIndex": "0x15",
          "logIndex": "0x5d",
          "removed": false
        },
        {
          "address": "0x794a61358d6845594f94dc1db02a252b5b4814ad",
          "topics": [
            "0x2b627736bca15cd5381dcf80b0bf11fd197d01a037c52b927a881a10fb73ba61",
            "0x0000000000000000000000007f5c764cbc14f9669b88837ca1490cca17c31607",
            "0x000000000000000000000000d51b286ad70a7b1c0e9de8755b260c1ef055b79a",
            "0x0000000000000000000000000000000000000000000000000000000000000000"
          ],
          "data": "0x000000000000000000000000d51b286ad70a7b1c0e9de8755b260c1ef055b79a00000000000000000000000000000000000000000000000000000000004c4b40",
          "blockHash": "0xb4dac390f0324d4e28c1c73caa1bc308a7c6c4df3c5b7ca855e4f229340134d4",
          "blockNumber": "0x7cfe245",
          "transactionHash": "0xaa447430a4460568f50eb263af4bc79e113e7f791ad9a0ba302698b7761be79f",
          "transactionIndex": "0x15",
          "logIndex": "0x5e",
          "removed": false
        },
        {
          "address": "0xd51b286ad70a7b1c0e9de8755b260c1ef055b79a",
          "topics": [
            "0xddf252ad1be2c89b69c2b068fc378daa952ba7f163c4a11628f55a4df523b3ef",
            "0x0000000000000000000000000000000000000000000000000000000000000000",
            "0x000000000000000000000000cda2fdb452ff4f5d7ba1c3d5dfcc9cb926a5eb7d"
          ],
          "data": "0x0000000000000000000000000000000000000000000000029860662fcb53c707",
          "blockHash": "0xb4dac390f0324d4e28c1c73caa1bc308a7c6c4df3c5b7ca855e4f229340134d4",
          "blockNumber": "0x7cfe245",
          "transactionHash": "0xaa447430a4460568f50eb263af4bc79e113e7f791ad9a0ba302698b7761be79f",
          "transactionIndex": "0x15",
          "logIndex": "0x5f",
          "removed": false
        },
        {
          "address": "0xd51b286ad70a7b1c0e9de8755b260c1ef055b79a",
          "topics": [
            "0xdcbc1c05240f31ff3ad067ef1ee35ce4997762752e3a095284754544f4c709d7",
            "0x000000000000000000000000cda2fdb452ff4f5d7ba1c3d5dfcc9cb926a5eb7d",
            "0x000000000000000000000000cda2fdb452ff4f5d7ba1c3d5dfcc9cb926a5eb7d"
          ],
          "data": "0x00000000000000000000000000000000000000000000000000000000004c4b400000000000000000000000000000000000000000000000029860662fcb53c707",
          "blockHash": "0xb4dac390f0324d4e28c1c73caa1bc308a7c6c4df3c5b7ca855e4f229340134d4",
          "blockNumber": "0x7cfe245",
          "transactionHash": "0xaa447430a4460568f50eb263af4bc79e113e7f791ad9a0ba302698b7761be79f",
          "transactionIndex": "0x15",
          "logIndex": "0x60",
          "removed": false
        }
      ],
      "logsBloom": "0x00080000000000000000008000000000000000000004000000000000000000000001000000000000000000000004000000000040000004000000000000200001000001400000000000000008040000008000044000080000800000040000000002000000020000000000000000000800000000000004800000000010000000000400000040000000000200000000000000000800008000000000000000000000020000000000000000000000000000000000000000004100000000000000010002000002000000000000002040000000000000000008000000000000000020000010000000000000000000040008000040000000040000000000400000010000",
      "type": "0x2",
      "transactionHash": "0xaa447430a4460568f50eb263af4bc79e113e7f791ad9a0ba302698b7761be79f",
      "transactionIndex": "0x15",
      "blockHash": "0xb4dac390f0324d4e28c1c73caa1bc308a7c6c4df3c5b7ca855e4f229340134d4",
      "blockNumber": "0x7cfe245",
      "gasUsed": "0x368d9",
      "effectiveGasPrice": "0x18852",
      "from": "0xcda2fdb452ff4f5d7ba1c3d5dfcc9cb926a5eb7d",
      "to": "0xd51b286ad70a7b1c0e9de8755b260c1ef055b79a",
      "contractAddress": null,
      "l1BaseFeeScalar": "0x146b",
      "l1BlobBaseFee": "0x29e74",
      "l1BlobBaseFeeScalar": "0xf79c5",
      "l1Fee": "0x283f9f8b43",
      "l1GasPrice": "0x4cfe52991",
      "l1GasUsed": "0x640"
    },
    {
      "status": "0x1",
      "cumulativeGasUsed": "0x681563",
      "logs": [
        {
          "address": "0x794a61358d6845594f94dc1db02a252b5b4814ad",
          "topics": [
            "0x804c9b842b2748a22bb64b345453a3de7ca54a6ca45ce00d415894979e22897a",
            "0x0000000000000000000000007f5c764cbc14f9669b88837ca1490cca17c31607"
          ],
          "data": "0x0000000000000000000000000000000000000000004ec4a6f40edb8419cd9a230000000000000000000000000000000000000000000000000000000000000000000000000000000000000000000000000000000000ab5df02c2857a56116ed6c0000000000000000000000000000000000000000039cfd30f8957f49aabaef25000000000000000000000000000000000000000003def08558783d7055c363e9",
          "blockHash": "0xb4dac390f0324d4e28c1c73caa1bc308a7c6c4df3c5b7ca855e4f229340134d4",
          "blockNumber": "0x7cfe245",
          "transactionHash": "0x90e5b01c0a149ba345de1f146b95ce1670870d5806ed9a26d6bd35b38a51a95b",
          "transactionIndex": "0x16",
          "logIndex": "0x61",
          "removed": false
        },
        {
          "address": "0x625e7708f30ca75bfd92586e17077590c60eb4cd",
          "topics": [
            "0xddf252ad1be2c89b69c2b068fc378daa952ba7f163c4a11628f55a4df523b3ef",
            "0x000000000000000000000000d51b286ad70a7b1c0e9de8755b260c1ef055b79a",
            "0x0000000000000000000000000000000000000000000000000000000000000000"
          ],
          "data": "0x00000000000000000000000000000000000000000000000000000000004c4b40",
          "blockHash": "0xb4dac390f0324d4e28c1c73caa1bc308a7c6c4df3c5b7ca855e4f229340134d4",
          "blockNumber": "0x7cfe245",
          "transactionHash": "0x90e5b01c0a149ba345de1f146b95ce1670870d5806ed9a26d6bd35b38a51a95b",
          "transactionIndex": "0x16",
          "logIndex": "0x62",
          "removed": false
        },
        {
          "address": "0x625e7708f30ca75bfd92586e17077590c60eb4cd",
          "topics": [
            "0x4cf25bc1d991c17529c25213d3cc0cda295eeaad5f13f361969b12ea48015f90",
            "0x000000000000000000000000d51b286ad70a7b1c0e9de8755b260c1ef055b79a",
            "0x000000000000000000000000d51b286ad70a7b1c0e9de8755b260c1ef055b79a"
          ],
          "data": "0x00000000000000000000000000000000000000000000000000000000004c4b4000000000000000000000000000000000000000000000000000000000000000000000000000000000000000000000000000000000039cfd30f8957f49aabaef25",
          "blockHash": "0xb4dac390f0324d4e28c1c73caa1bc308a7c6c4df3c5b7ca855e4f229340134d4",
          "blockNumber": "0x7cfe245",
          "transactionHash": "0x90e5b01c0a149ba345de1f146b95ce1670870d5806ed9a26d6bd35b38a51a95b",
          "transactionIndex": "0x16",
          "logIndex": "0x63",
          "removed": false
        },
        {
          "address": "0x7f5c764cbc14f9669b88837ca1490cca17c31607",
          "topics": [
            "0xddf252ad1be2c89b69c2b068fc378daa952ba7f163c4a11628f55a4df523b3ef",
            "0x000000000000000000000000625e7708f30ca75bfd92586e17077590c60eb4cd",
            "0x000000000000000000000000d51b286ad70a7b1c0e9de8755b260c1ef055b79a"
          ],
          "data": "0x00000000000000000000000000000000000000000000000000000000004c4b40",
          "blockHash": "0xb4dac390f0324d4e28c1c73caa1bc308a7c6c4df3c5b7ca855e4f229340134d4",
          "blockNumber": "0x7cfe245",
          "transactionHash": "0x90e5b01c0a149ba345de1f146b95ce1670870d5806ed9a26d6bd35b38a51a95b",
          "transactionIndex": "0x16",
          "logIndex": "0x64",
          "removed": false
        },
        {
          "address": "0x794a61358d6845594f94dc1db02a252b5b4814ad",
          "topics": [
            "0x3115d1449a7b732c986cba18244e897a450f61e1bb8d589cd2e69e6c8924f9f7",
            "0x0000000000000000000000007f5c764cbc14f9669b88837ca1490cca17c31607",
            "0x000000000000000000000000d51b286ad70a7b1c0e9de8755b260c1ef055b79a",
            "0x000000000000000000000000d51b286ad70a7b1c0e9de8755b260c1ef055b79a"
          ],
          "data": "0x00000000000000000000000000000000000000000000000000000000004c4b40",
          "blockHash": "0xb4dac390f0324d4e28c1c73caa1bc308a7c6c4df3c5b7ca855e4f229340134d4",
          "blockNumber": "0x7cfe245",
          "transactionHash": "0x90e5b01c0a149ba345de1f146b95ce1670870d5806ed9a26d6bd35b38a51a95b",
          "transactionIndex": "0x16",
          "logIndex": "0x65",
          "removed": false
        },
        {
          "address": "0xd51b286ad70a7b1c0e9de8755b260c1ef055b79a",
          "topics": [
            "0xddf252ad1be2c89b69c2b068fc378daa952ba7f163c4a11628f55a4df523b3ef",
            "0x000000000000000000000000cda2fdb452ff4f5d7ba1c3d5dfcc9cb926a5eb7d",
            "0x0000000000000000000000000000000000000000000000000000000000000000"
          ],
          "data": "0x000000000000000000000000000000000000000000000002bffb59bb77c30577",
          "blockHash": "0xb4dac390f0324d4e28c1c73caa1bc308a7c6c4df3c5b7ca855e4f229340134d4",
          "blockNumber": "0x7cfe245",
          "transactionHash": "0x90e5b01c0a149ba345de1f146b95ce1670870d5806ed9a26d6bd35b38a51a95b",
          "transactionIndex": "0x16",
          "logIndex": "0x66",
          "removed": false
        },
        {
          "address": "0x7f5c764cbc14f9669b88837ca1490cca17c31607",
          "topics": [
            "0xddf252ad1be2c89b69c2b068fc378daa952ba7f163c4a11628f55a4df523b3ef",
            "0x000000000000000000000000d51b286ad70a7b1c0e9de8755b260c1ef055b79a",
            "0x000000000000000000000000cda2fdb452ff4f5d7ba1c3d5dfcc9cb926a5eb7d"
          ],
          "data": "0x00000000000000000000000000000000000000000000000000000000004c4b40",
          "blockHash": "0xb4dac390f0324d4e28c1c73caa1bc308a7c6c4df3c5b7ca855e4f229340134d4",
          "blockNumber": "0x7cfe245",
          "transactionHash": "0x90e5b01c0a149ba345de1f146b95ce1670870d5806ed9a26d6bd35b38a51a95b",
          "transactionIndex": "0x16",
          "logIndex": "0x67",
          "removed": false
        },
        {
          "address": "0xd51b286ad70a7b1c0e9de8755b260c1ef055b79a",
          "topics": [
            "0xfbde797d201c681b91056529119e0b02407c7bb96a4a2c75c01fc9667232c8db",
            "0x000000000000000000000000cda2fdb452ff4f5d7ba1c3d5dfcc9cb926a5eb7d",
            "0x000000000000000000000000cda2fdb452ff4f5d7ba1c3d5dfcc9cb926a5eb7d",
            "0x000000000000000000000000cda2fdb452ff4f5d7ba1c3d5dfcc9cb926a5eb7d"
          ],
          "data": "0x00000000000000000000000000000000000000000000000000000000004c4b40000000000000000000000000000000000000000000000002bffb59bb77c30577",
          "blockHash": "0xb4dac390f0324d4e28c1c73caa1bc308a7c6c4df3c5b7ca855e4f229340134d4",
          "blockNumber": "0x7cfe245",
          "transactionHash": "0x90e5b01c0a149ba345de1f146b95ce1670870d5806ed9a26d6bd35b38a51a95b",
          "transactionIndex": "0x16",
          "logIndex": "0x68",
          "removed": false
        }
      ],
      "logsBloom": "0x10080000000000400000008000000000008000000004000000000000000000000001000000000000000000000000000000010040000004000000000000000001000001000000000000000008040000008000044000080000000000000000000002000000020000000000000000000800000000000000820000000010000000000400000040000000000200000000000000000000008000000000000000000000000000000080000000000000000000020000000000004000000000000000010000000002000000000000002000000000000000000000000000000000000020040000000000000000000000040008000000000000040000000000000000010000",
      "type": "0x2",
      "transactionHash": "0x90e5b01c0a149ba345de1f146b95ce1670870d5806ed9a26d6bd35b38a51a95b",
      "transactionIndex": "0x16",
      "blockHash": "0xb4dac390f0324d4e28c1c73caa1bc308a7c6c4df3c5b7ca855e4f229340134d4",
      "blockNumber": "0x7cfe245",
      "gasUsed": "0x37229",
      "effectiveGasPrice": "0x18852",
      "from": "0xcda2fdb452ff4f5d7ba1c3d5dfcc9cb926a5eb7d",
      "to": "0xd51b286ad70a7b1c0e9de8755b260c1ef055b79a",
      "contractAddress": null,
      "l1BaseFeeScalar": "0x146b",
      "l1BlobBaseFee": "0x29e74",
      "l1BlobBaseFeeScalar": "0xf79c5",
      "l1Fee": "0x283f9f8b43",
      "l1GasPrice": "0x4cfe52991",
      "l1GasUsed": "0x640"
    },
    {
      "status": "0x1",
      "cumulativeGasUsed": "0x6b7e3c",
      "logs": [
        {
          "address": "0x7f5c764cbc14f9669b88837ca1490cca17c31607",
          "topics": [
            "0xddf252ad1be2c89b69c2b068fc378daa952ba7f163c4a11628f55a4df523b3ef",
            "0x000000000000000000000000cda2fdb452ff4f5d7ba1c3d5dfcc9cb926a5eb7d",
            "0x000000000000000000000000d51b286ad70a7b1c0e9de8755b260c1ef055b79a"
          ],
          "data": "0x00000000000000000000000000000000000000000000000000000000004c4b40",
          "blockHash": "0xb4dac390f0324d4e28c1c73caa1bc308a7c6c4df3c5b7ca855e4f229340134d4",
          "blockNumber": "0x7cfe245",
          "transactionHash": "0x9e84a35c57801a8a7876b7b5be5c2c292e4c8a00f55998fe3b3408ab8aa4a6ec",
          "transactionIndex": "0x17",
          "logIndex": "0x69",
          "removed": false
        },
        {
          "address": "0x7f5c764cbc14f9669b88837ca1490cca17c31607",
          "topics": [
            "0x8c5be1e5ebec7d5bd14f71427d1e84f3dd0314c0f7b2291e5b200ac8c7c3b925",
            "0x000000000000000000000000cda2fdb452ff4f5d7ba1c3d5dfcc9cb926a5eb7d",
            "0x000000000000000000000000d51b286ad70a7b1c0e9de8755b260c1ef055b79a"
          ],
          "data": "0xfffffffffffffffffffffffffffffffffffffffffffffffffffffffffde9f13f",
          "blockHash": "0xb4dac390f0324d4e28c1c73caa1bc308a7c6c4df3c5b7ca855e4f229340134d4",
          "blockNumber": "0x7cfe245",
          "transactionHash": "0x9e84a35c57801a8a7876b7b5be5c2c292e4c8a00f55998fe3b3408ab8aa4a6ec",
          "transactionIndex": "0x17",
          "logIndex": "0x6a",
          "removed": false
        },
        {
          "address": "0x7f5c764cbc14f9669b88837ca1490cca17c31607",
          "topics": [
            "0x8c5be1e5ebec7d5bd14f71427d1e84f3dd0314c0f7b2291e5b200ac8c7c3b925",
            "0x000000000000000000000000d51b286ad70a7b1c0e9de8755b260c1ef055b79a",
            "0x000000000000000000000000794a61358d6845594f94dc1db02a252b5b4814ad"
          ],
          "data": "0x00000000000000000000000000000000000000000000000000000000004c4b40",
          "blockHash": "0xb4dac390f0324d4e28c1c73caa1bc308a7c6c4df3c5b7ca855e4f229340134d4",
          "blockNumber": "0x7cfe245",
          "transactionHash": "0x9e84a35c57801a8a7876b7b5be5c2c292e4c8a00f55998fe3b3408ab8aa4a6ec",
          "transactionIndex": "0x17",
          "logIndex": "0x6b",
          "removed": false
        },
        {
          "address": "0x794a61358d6845594f94dc1db02a252b5b4814ad",
          "topics": [
            "0x804c9b842b2748a22bb64b345453a3de7ca54a6ca45ce00d415894979e22897a",
            "0x0000000000000000000000007f5c764cbc14f9669b88837ca1490cca17c31607"
          ],
          "data": "0x0000000000000000000000000000000000000000004ec43df63c48d5b03f131e0000000000000000000000000000000000000000000000000000000000000000000000000000000000000000000000000000000000ab5d17efd3b1570bd5e1d40000000000000000000000000000000000000000039cfd30f8957f49aabaef25000000000000000000000000000000000000000003def08558783d7055c363e9",
          "blockHash": "0xb4dac390f0324d4e28c1c73caa1bc308a7c6c4df3c5b7ca855e4f229340134d4",
          "blockNumber": "0x7cfe245",
          "transactionHash": "0x9e84a35c57801a8a7876b7b5be5c2c292e4c8a00f55998fe3b3408ab8aa4a6ec",
          "transactionIndex": "0x17",
          "logIndex": "0x6c",
          "removed": false
        },
        {
          "address": "0x7f5c764cbc14f9669b88837ca1490cca17c31607",
          "topics": [
            "0xddf252ad1be2c89b69c2b068fc378daa952ba7f163c4a11628f55a4df523b3ef",
            "0x000000000000000000000000d51b286ad70a7b1c0e9de8755b260c1ef055b79a",
            "0x000000000000000000000000625e7708f30ca75bfd92586e17077590c60eb4cd"
          ],
          "data": "0x00000000000000000000000000000000000000000000000000000000004c4b40",
          "blockHash": "0xb4dac390f0324d4e28c1c73caa1bc308a7c6c4df3c5b7ca855e4f229340134d4",
          "blockNumber": "0x7cfe245",
          "transactionHash": "0x9e84a35c57801a8a7876b7b5be5c2c292e4c8a00f55998fe3b3408ab8aa4a6ec",
          "transactionIndex": "0x17",
          "logIndex": "0x6d",
          "removed": false
        },
        {
          "address": "0x7f5c764cbc14f9669b88837ca1490cca17c31607",
          "topics": [
            "0x8c5be1e5ebec7d5bd14f71427d1e84f3dd0314c0f7b2291e5b200ac8c7c3b925",
            "0x000000000000000000000000d51b286ad70a7b1c0e9de8755b260c1ef055b79a",
            "0x000000000000000000000000794a61358d6845594f94dc1db02a252b5b4814ad"
          ],
          "data": "0x0000000000000000000000000000000000000000000000000000000000000000",
          "blockHash": "0xb4dac390f0324d4e28c1c73caa1bc308a7c6c4df3c5b7ca855e4f229340134d4",
          "blockNumber": "0x7cfe245",
          "transactionHash": "0x9e84a35c57801a8a7876b7b5be5c2c292e4c8a00f55998fe3b3408ab8aa4a6ec",
          "transactionIndex": "0x17",
          "logIndex": "0x6e",
          "removed": false
        },
        {
          "address": "0x625e7708f30ca75bfd92586e17077590c60eb4cd",
          "topics": [
            "0xddf252ad1be2c89b69c2b068fc378daa952ba7f163c4a11628f55a4df523b3ef",
            "0x0000000000000000000000000000000000000000000000000000000000000000",
            "0x000000000000000000000000d51b286ad70a7b1c0e9de8755b260c1ef055b79a"
          ],
          "data": "0x00000000000000000000000000000000000000000000000000000000004c4b40",
          "blockHash": "0xb4dac390f0324d4e28c1c73caa1bc308a7c6c4df3c5b7ca855e4f229340134d4",
          "blockNumber": "0x7cfe245",
          "transactionHash": "0x9e84a35c57801a8a7876b7b5be5c2c292e4c8a00f55998fe3b3408ab8aa4a6ec",
          "transactionIndex": "0x17",
          "logIndex": "0x6f",
          "removed": false
        },
        {
          "address": "0x625e7708f30ca75bfd92586e17077590c60eb4cd",
          "topics": [
            "0x458f5fa412d0f69b08dd84872b0215675cc67bc1d5b6fd93300a1c3878b86196",
            "0x000000000000000000000000d51b286ad70a7b1c0e9de8755b260c1ef055b79a",
            "0x000000000000000000000000d51b286ad70a7b1c0e9de8755b260c1ef055b79a"
          ],
          "data": "0x00000000000000000000000000000000000000000000000000000000004c4b4000000000000000000000000000000000000000000000000000000000000000000000000000000000000000000000000000000000039cfd30f8957f49aabaef25",
          "blockHash": "0xb4dac390f0324d4e28c1c73caa1bc308a7c6c4df3c5b7ca855e4f229340134d4",
          "blockNumber": "0x7cfe245",
          "transactionHash": "0x9e84a35c57801a8a7876b7b5be5c2c292e4c8a00f55998fe3b3408ab8aa4a6ec",
          "transactionIndex": "0x17",
          "logIndex": "0x70",
          "removed": false
        },
        {
          "address": "0x794a61358d6845594f94dc1db02a252b5b4814ad",
          "topics": [
            "0x2b627736bca15cd5381dcf80b0bf11fd197d01a037c52b927a881a10fb73ba61",
            "0x0000000000000000000000007f5c764cbc14f9669b88837ca1490cca17c31607",
            "0x000000000000000000000000d51b286ad70a7b1c0e9de8755b260c1ef055b79a",
            "0x0000000000000000000000000000000000000000000000000000000000000000"
          ],
          "data": "0x000000000000000000000000d51b286ad70a7b1c0e9de8755b260c1ef055b79a00000000000000000000000000000000000000000000000000000000004c4b40",
          "blockHash": "0xb4dac390f0324d4e28c1c73caa1bc308a7c6c4df3c5b7ca855e4f229340134d4",
          "blockNumber": "0x7cfe245",
          "transactionHash": "0x9e84a35c57801a8a7876b7b5be5c2c292e4c8a00f55998fe3b3408ab8aa4a6ec",
          "transactionIndex": "0x17",
          "logIndex": "0x71",
          "removed": false
        },
        {
          "address": "0xd51b286ad70a7b1c0e9de8755b260c1ef055b79a",
          "topics": [
            "0xddf252ad1be2c89b69c2b068fc378daa952ba7f163c4a11628f55a4df523b3ef",
            "0x0000000000000000000000000000000000000000000000000000000000000000",
            "0x000000000000000000000000cda2fdb452ff4f5d7ba1c3d5dfcc9cb926a5eb7d"
          ],
          "data": "0x00000000000000000000000000000000000000000000000296b46a605437864b",
          "blockHash": "0xb4dac390f0324d4e28c1c73caa1bc308a7c6c4df3c5b7ca855e4f229340134d4",
          "blockNumber": "0x7cfe245",
          "transactionHash": "0x9e84a35c57801a8a7876b7b5be5c2c292e4c8a00f55998fe3b3408ab8aa4a6ec",
          "transactionIndex": "0x17",
          "logIndex": "0x72",
          "removed": false
        },
        {
          "address": "0xd51b286ad70a7b1c0e9de8755b260c1ef055b79a",
          "topics": [
            "0xdcbc1c05240f31ff3ad067ef1ee35ce4997762752e3a095284754544f4c709d7",
            "0x000000000000000000000000cda2fdb452ff4f5d7ba1c3d5dfcc9cb926a5eb7d",
            "0x000000000000000000000000cda2fdb452ff4f5d7ba1c3d5dfcc9cb926a5eb7d"
          ],
          "data": "0x00000000000000000000000000000000000000000000000000000000004c4b4000000000000000000000000000000000000000000000000296b46a605437864b",
          "blockHash": "0xb4dac390f0324d4e28c1c73caa1bc308a7c6c4df3c5b7ca855e4f229340134d4",
          "blockNumber": "0x7cfe245",
          "transactionHash": "0x9e84a35c57801a8a7876b7b5be5c2c292e4c8a00f55998fe3b3408ab8aa4a6ec",
          "transactionIndex": "0x17",
          "logIndex": "0x73",
          "removed": false
        }
      ],
      "logsBloom": "0x00080000000000000000008000000000000000000004000000000000000000000001000000000000000000000004000000000040000004000000000000200001000001400000000000000008040000008000044000080000800000040000000002000000020000000000000000000800000000000004800000000010000000000400000040000000000200000000000000000800008000000000000000000000020000000000000000000000000000000000000000004100000000000000010002000002000000000000002040000000000000000008000000000000000020000010000000000000000000040008000040000000040000000000400000010000",
      "type": "0x2",
      "transactionHash": "0x9e84a35c57801a8a7876b7b5be5c2c292e4c8a00f55998fe3b3408ab8aa4a6ec",
      "transactionIndex": "0x17",
      "blockHash": "0xb4dac390f0324d4e28c1c73caa1bc308a7c6c4df3c5b7ca855e4f229340134d4",
      "blockNumber": "0x7cfe245",
      "gasUsed": "0x368d9",
      "effectiveGasPrice": "0x18852",
      "from": "0xcda2fdb452ff4f5d7ba1c3d5dfcc9cb926a5eb7d",
      "to": "0xd51b286ad70a7b1c0e9de8755b260c1ef055b79a",
      "contractAddress": null,
      "l1BaseFeeScalar": "0x146b",
      "l1BlobBaseFee": "0x29e74",
      "l1BlobBaseFeeScalar": "0xf79c5",
      "l1Fee": "0x283f9f8b43",
      "l1GasPrice": "0x4cfe52991",
      "l1GasUsed": "0x640"
    }
  ],
  "libraries": [],
  "pending": [],
  "returns": {},
  "timestamp": 1737727562,
  "chain": 10,
  "commit": "c03c0fa"
}