{
  "transactions": [
    {
      "hash": "0x5678dc56f895b7a910738664c07db604f04633b75465158514a81f3e7d21f817",
      "transactionType": "CALL",
      "contractName": null,
      "contractAddress": "0xd51b286ad70a7b1c0e9de8755b260c1ef055b79a",
      "function": "withdraw(uint256,address,address)",
      "arguments": [
        "5000000",
        "0xcdA2fDB452FF4F5D7Ba1C3d5dFCc9CB926A5eb7D",
        "0xcdA2fDB452FF4F5D7Ba1C3d5dFCc9CB926A5eb7D"
      ],
      "transaction": {
        "from": "0xcda2fdb452ff4f5d7ba1c3d5dfcc9cb926a5eb7d",
        "to": "0xd51b286ad70a7b1c0e9de8755b260c1ef055b79a",
        "gas": "0x55ba8",
        "value": "0x0",
        "input": "0xb460af9400000000000000000000000000000000000000000000000000000000004c4b40000000000000000000000000cda2fdb452ff4f5d7ba1c3d5dfcc9cb926a5eb7d000000000000000000000000cda2fdb452ff4f5d7ba1c3d5dfcc9cb926a5eb7d",
        "nonce": "0x31",
        "chainId": "0xa"
      },
      "additionalContracts": [],
      "isFixedGasLimit": false
    },
    {
      "hash": "0x7d7854e6c9a8bde63cc0571fdbee4b67b86bff3e48b0423bfeb0a90f0565810d",
      "transactionType": "CALL",
      "contractName": null,
      "contractAddress": "0xd51b286ad70a7b1c0e9de8755b260c1ef055b79a",
      "function": "deposit(uint256,address)",
      "arguments": [
        "5000000",
        "0xcdA2fDB452FF4F5D7Ba1C3d5dFCc9CB926A5eb7D"
      ],
      "transaction": {
        "from": "0xcda2fdb452ff4f5d7ba1c3d5dfcc9cb926a5eb7d",
        "to": "0xd51b286ad70a7b1c0e9de8755b260c1ef055b79a",
        "gas": "0x4fc8a",
        "value": "0x0",
        "input": "0x6e553f6500000000000000000000000000000000000000000000000000000000004c4b40000000000000000000000000cda2fdb452ff4f5d7ba1c3d5dfcc9cb926a5eb7d",
        "nonce": "0x32",
        "chainId": "0xa"
      },
      "additionalContracts": [],
      "isFixedGasLimit": false
    },
    {
      "hash": "0xda7267153b2b58404af8ce4aabb083706b2c77538192f51fc39e591c44ca7082",
      "transactionType": "CALL",
      "contractName": null,
      "contractAddress": "0xd51b286ad70a7b1c0e9de8755b260c1ef055b79a",
      "function": "withdraw(uint256,address,address)",
      "arguments": [
        "5000000",
        "0xcdA2fDB452FF4F5D7Ba1C3d5dFCc9CB926A5eb7D",
        "0xcdA2fDB452FF4F5D7Ba1C3d5dFCc9CB926A5eb7D"
      ],
      "transaction": {
        "from": "0xcda2fdb452ff4f5d7ba1c3d5dfcc9cb926a5eb7d",
        "to": "0xd51b286ad70a7b1c0e9de8755b260c1ef055b79a",
        "gas": "0x50a28",
        "value": "0x0",
        "input": "0xb460af9400000000000000000000000000000000000000000000000000000000004c4b40000000000000000000000000cda2fdb452ff4f5d7ba1c3d5dfcc9cb926a5eb7d000000000000000000000000cda2fdb452ff4f5d7ba1c3d5dfcc9cb926a5eb7d",
        "nonce": "0x33",
        "chainId": "0xa"
      },
      "additionalContracts": [],
      "isFixedGasLimit": false
    },
    {
      "hash": "0x44cc4ab278270d96dcbdec8b3ea7473310cf8508096c6d8ef5e9c044e10c2e8a",
      "transactionType": "CALL",
      "contractName": null,
      "contractAddress": "0xd51b286ad70a7b1c0e9de8755b260c1ef055b79a",
      "function": "deposit(uint256,address)",
      "arguments": [
        "5000000",
        "0xcdA2fDB452FF4F5D7Ba1C3d5dFCc9CB926A5eb7D"
      ],
      "transaction": {
        "from": "0xcda2fdb452ff4f5d7ba1c3d5dfcc9cb926a5eb7d",
        "to": "0xd51b286ad70a7b1c0e9de8755b260c1ef055b79a",
        "gas": "0x4fc8a",
        "value": "0x0",
        "input": "0x6e553f6500000000000000000000000000000000000000000000000000000000004c4b40000000000000000000000000cda2fdb452ff4f5d7ba1c3d5dfcc9cb926a5eb7d",
        "nonce": "0x34",
        "chainId": "0xa"
      },
      "additionalContracts": [],
      "isFixedGasLimit": false
    },
    {
      "hash": "0x000f329f037da9d852104432965108a237a9de273bbac0dd2548d2f81e81cd6d",
      "transactionType": "CALL",
      "contractName": null,
      "contractAddress": "0xd51b286ad70a7b1c0e9de8755b260c1ef055b79a",
      "function": "withdraw(uint256,address,address)",
      "arguments": [
        "5000000",
        "0xcdA2fDB452FF4F5D7Ba1C3d5dFCc9CB926A5eb7D",
        "0xcdA2fDB452FF4F5D7Ba1C3d5dFCc9CB926A5eb7D"
      ],
      "transaction": {
        "from": "0xcda2fdb452ff4f5d7ba1c3d5dfcc9cb926a5eb7d",
        "to": "0xd51b286ad70a7b1c0e9de8755b260c1ef055b79a",
        "gas": "0x50a28",
        "value": "0x0",
        "input": "0xb460af9400000000000000000000000000000000000000000000000000000000004c4b40000000000000000000000000cda2fdb452ff4f5d7ba1c3d5dfcc9cb926a5eb7d000000000000000000000000cda2fdb452ff4f5d7ba1c3d5dfcc9cb926a5eb7d",
        "nonce": "0x35",
        "chainId": "0xa"
      },
      "additionalContracts": [],
      "isFixedGasLimit": false
    },
    {
      "hash": "0xf7869d08c81c9f76ae5841077815fad1bed76e9f2b5ae632df80525915b682da",
      "transactionType": "CALL",
      "contractName": null,
      "contractAddress": "0xd51b286ad70a7b1c0e9de8755b260c1ef055b79a",
      "function": "deposit(uint256,address)",
      "arguments": [
        "5000000",
        "0xcdA2fDB452FF4F5D7Ba1C3d5dFCc9CB926A5eb7D"
      ],
      "transaction": {
        "from": "0xcda2fdb452ff4f5d7ba1c3d5dfcc9cb926a5eb7d",
        "to": "0xd51b286ad70a7b1c0e9de8755b260c1ef055b79a",
        "gas": "0x4fc8a",
        "value": "0x0",
        "input": "0x6e553f6500000000000000000000000000000000000000000000000000000000004c4b40000000000000000000000000cda2fdb452ff4f5d7ba1c3d5dfcc9cb926a5eb7d",
        "nonce": "0x36",
        "chainId": "0xa"
      },
      "additionalContracts": [],
      "isFixedGasLimit": false
    }
  ],
  "receipts": [
    {
      "status": "0x1",
      "cumulativeGasUsed": "0x317503",
      "logs": [
        {
          "address": "0x794a61358d6845594f94dc1db02a252b5b4814ad",
          "topics": [
            "0x804c9b842b2748a22bb64b345453a3de7ca54a6ca45ce00d415894979e22897a",
            "0x0000000000000000000000007f5c764cbc14f9669b88837ca1490cca17c31607"
          ],
          "data": "0x0000000000000000000000000000000000000000004ec4a0e5ed27db56ba14df0000000000000000000000000000000000000000000000000000000000000000000000000000000000000000000000000000000000ab5de3b394a3f8475632300000000000000000000000000000000000000000039cfd1b5f400fe1e433c20e000000000000000000000000000000000000000003def05301390ac18589dae0",
          "blockHash": "0xc150915d6dc67d3a7be76b9bc9a681d534b8b3d14f25c1df73b0dc37985005c2",
          "blockNumber": "0x7cfe20a",
          "transactionHash": "0x5678dc56f895b7a910738664c07db604f04633b75465158514a81f3e7d21f817",
          "transactionIndex": "0xc",
          "logIndex": "0x1f",
          "removed": false
        },
        {
          "address": "0x625e7708f30ca75bfd92586e17077590c60eb4cd",
          "topics": [
            "0xddf252ad1be2c89b69c2b068fc378daa952ba7f163c4a11628f55a4df523b3ef",
            "0x000000000000000000000000d51b286ad70a7b1c0e9de8755b260c1ef055b79a",
            "0x0000000000000000000000000000000000000000000000000000000000000000"
          ],
          "data": "0x00000000000000000000000000000000000000000000000000000000004c4b17",
          "blockHash": "0xc150915d6dc67d3a7be76b9bc9a681d534b8b3d14f25c1df73b0dc37985005c2",
          "blockNumber": "0x7cfe20a",
          "transactionHash": "0x5678dc56f895b7a910738664c07db604f04633b75465158514a81f3e7d21f817",
          "transactionIndex": "0xc",
          "logIndex": "0x20",
          "removed": false
        },
        {
          "address": "0x625e7708f30ca75bfd92586e17077590c60eb4cd",
          "topics": [
            "0x4cf25bc1d991c17529c25213d3cc0cda295eeaad5f13f361969b12ea48015f90",
            "0x000000000000000000000000d51b286ad70a7b1c0e9de8755b260c1ef055b79a",
            "0x000000000000000000000000d51b286ad70a7b1c0e9de8755b260c1ef055b79a"
          ],
          "data": "0x00000000000000000000000000000000000000000000000000000000004c4b1700000000000000000000000000000000000000000000000000000000000000290000000000000000000000000000000000000000039cfd1b5f400fe1e433c20e",
          "blockHash": "0xc150915d6dc67d3a7be76b9bc9a681d534b8b3d14f25c1df73b0dc37985005c2",
          "blockNumber": "0x7cfe20a",
          "transactionHash": "0x5678dc56f895b7a910738664c07db604f04633b75465158514a81f3e7d21f817",
          "transactionIndex": "0xc",
          "logIndex": "0x21",
          "removed": false
        },
        {
          "address": "0x7f5c764cbc14f9669b88837ca1490cca17c31607",
          "topics": [
            "0xddf252ad1be2c89b69c2b068fc378daa952ba7f163c4a11628f55a4df523b3ef",
            "0x000000000000000000000000625e7708f30ca75bfd92586e17077590c60eb4cd",
            "0x000000000000000000000000d51b286ad70a7b1c0e9de8755b260c1ef055b79a"
          ],
          "data": "0x00000000000000000000000000000000000000000000000000000000004c4b40",
          "blockHash": "0xc150915d6dc67d3a7be76b9bc9a681d534b8b3d14f25c1df73b0dc37985005c2",
          "blockNumber": "0x7cfe20a",
          "transactionHash": "0x5678dc56f895b7a910738664c07db604f04633b75465158514a81f3e7d21f817",
          "transactionIndex": "0xc",
          "logIndex": "0x22",
          "removed": false
        },
        {
          "address": "0x794a61358d6845594f94dc1db02a252b5b4814ad",
          "topics": [
            "0x3115d1449a7b732c986cba18244e897a450f61e1bb8d589cd2e69e6c8924f9f7",
            "0x0000000000000000000000007f5c764cbc14f9669b88837ca1490cca17c31607",
            "0x000000000000000000000000d51b286ad70a7b1c0e9de8755b260c1ef055b79a",
            "0x000000000000000000000000d51b286ad70a7b1c0e9de8755b260c1ef055b79a"
          ],
          "data": "0x00000000000000000000000000000000000000000000000000000000004c4b40",
          "blockHash": "0xc150915d6dc67d3a7be76b9bc9a681d534b8b3d14f25c1df73b0dc37985005c2",
          "blockNumber": "0x7cfe20a",
          "transactionHash": "0x5678dc56f895b7a910738664c07db604f04633b75465158514a81f3e7d21f817",
          "transactionIndex": "0xc",
          "logIndex": "0x23",
          "removed": false
        },
        {
          "address": "0xd51b286ad70a7b1c0e9de8755b260c1ef055b79a",
          "topics": [
            "0xddf252ad1be2c89b69c2b068fc378daa952ba7f163c4a11628f55a4df523b3ef",
            "0x000000000000000000000000cda2fdb452ff4f5d7ba1c3d5dfcc9cb926a5eb7d",
            "0x0000000000000000000000000000000000000000000000000000000000000000"
          ],
          "data": "0x000000000000000000000000000000000000000000000002c8e81e27b0e4b50f",
          "blockHash": "0xc150915d6dc67d3a7be76b9bc9a681d534b8b3d14f25c1df73b0dc37985005c2",
          "blockNumber": "0x7cfe20a",
          "transactionHash": "0x5678dc56f895b7a910738664c07db604f04633b75465158514a81f3e7d21f817",
          "transactionIndex": "0xc",
          "logIndex": "0x24",
          "removed": false
        },
        {
          "address": "0x7f5c764cbc14f9669b88837ca1490cca17c31607",
          "topics": [
            "0xddf252ad1be2c89b69c2b068fc378daa952ba7f163c4a11628f55a4df523b3ef",
            "0x000000000000000000000000d51b286ad70a7b1c0e9de8755b260c1ef055b79a",
            "0x000000000000000000000000cda2fdb452ff4f5d7ba1c3d5dfcc9cb926a5eb7d"
          ],
          "data": "0x00000000000000000000000000000000000000000000000000000000004c4b40",
          "blockHash": "0xc150915d6dc67d3a7be76b9bc9a681d534b8b3d14f25c1df73b0dc37985005c2",
          "blockNumber": "0x7cfe20a",
          "transactionHash": "0x5678dc56f895b7a910738664c07db604f04633b75465158514a81f3e7d21f817",
          "transactionIndex": "0xc",
          "logIndex": "0x25",
          "removed": false
        },
        {
          "address": "0xd51b286ad70a7b1c0e9de8755b260c1ef055b79a",
          "topics": [
            "0xfbde797d201c681b91056529119e0b02407c7bb96a4a2c75c01fc9667232c8db",
            "0x000000000000000000000000cda2fdb452ff4f5d7ba1c3d5dfcc9cb926a5eb7d",
            "0x000000000000000000000000cda2fdb452ff4f5d7ba1c3d5dfcc9cb926a5eb7d",
            "0x000000000000000000000000cda2fdb452ff4f5d7ba1c3d5dfcc9cb926a5eb7d"
          ],
          "data": "0x00000000000000000000000000000000000000000000000000000000004c4b40000000000000000000000000000000000000000000000002c8e81e27b0e4b50f",
          "blockHash": "0xc150915d6dc67d3a7be76b9bc9a681d534b8b3d14f25c1df73b0dc37985005c2",
          "blockNumber": "0x7cfe20a",
          "transactionHash": "0x5678dc56f895b7a910738664c07db604f04633b75465158514a81f3e7d21f817",
          "transactionIndex": "0xc",
          "logIndex": "0x26",
          "removed": false
        }
      ],
      "logsBloom": "0x10080000000000400000008000000000008000000004000000000000000000000001000000000000000000000000000000010040000004000000000000000001000001000000000000000008040000008000044000080000000000000000000002000000020000000000000000000800000000000000820000000010000000000400000040000000000200000000000000000000008000000000000000000000000000000080000000000000000000020000000000004000000000000000010000000002000000000000002000000000000000000000000000000000000020040000000000000000000000040008000000000000040000000000000000010000",
      "type": "0x2",
      "transactionHash": "0x5678dc56f895b7a910738664c07db604f04633b75465158514a81f3e7d21f817",
      "transactionIndex": "0xc",
      "blockHash": "0xc150915d6dc67d3a7be76b9bc9a681d534b8b3d14f25c1df73b0dc37985005c2",
      "blockNumber": "0x7cfe20a",
      "gasUsed": "0x3a9e3",
      "effectiveGasPrice": "0xecb4",
      "from": "0xcda2fdb452ff4f5d7ba1c3d5dfcc9cb926a5eb7d",
      "to": "0xd51b286ad70a7b1c0e9de8755b260c1ef055b79a",
      "contractAddress": null,
      "l1BaseFeeScalar": "0x146b",
      "l1BlobBaseFee": "0xf192",
      "l1BlobBaseFeeScalar": "0xf79c5",
      "l1Fee": "0x261150817a",
      "l1GasPrice": "0x48d377c31",
      "l1GasUsed": "0x640"
    },
    {
      "status": "0x1",
      "cumulativeGasUsed": "0x34dddc",
      "logs": [
        {
          "address": "0x7f5c764cbc14f9669b88837ca1490cca17c31607",
          "topics": [
            "0xddf252ad1be2c89b69c2b068fc378daa952ba7f163c4a11628f55a4df523b3ef",
            "0x000000000000000000000000cda2fdb452ff4f5d7ba1c3d5dfcc9cb926a5eb7d",
            "0x000000000000000000000000d51b286ad70a7b1c0e9de8755b260c1ef055b79a"
          ],
          "data": "0x00000000000000000000000000000000000000000000000000000000004c4b40",
          "blockHash": "0xc150915d6dc67d3a7be76b9bc9a681d534b8b3d14f25c1df73b0dc37985005c2",
          "blockNumber": "0x7cfe20a",
          "transactionHash": "0x7d7854e6c9a8bde63cc0571fdbee4b67b86bff3e48b0423bfeb0a90f0565810d",
          "transactionIndex": "0xd",
          "logIndex": "0x27",
          "removed": false
        },
        {
          "address": "0x7f5c764cbc14f9669b88837ca1490cca17c31607",
          "topics": [
            "0x8c5be1e5ebec7d5bd14f71427d1e84f3dd0314c0f7b2291e5b200ac8c7c3b925",
            "0x000000000000000000000000cda2fdb452ff4f5d7ba1c3d5dfcc9cb926a5eb7d",
            "0x000000000000000000000000d51b286ad70a7b1c0e9de8755b260c1ef055b79a"
          ],
          "data": "0xffffffffffffffffffffffffffffffffffffffffffffffffffffffffff67697f",
          "blockHash": "0xc150915d6dc67d3a7be76b9bc9a681d534b8b3d14f25c1df73b0dc37985005c2",
          "blockNumber": "0x7cfe20a",
          "transactionHash": "0x7d7854e6c9a8bde63cc0571fdbee4b67b86bff3e48b0423bfeb0a90f0565810d",
          "transactionIndex": "0xd",
          "logIndex": "0x28",
          "removed": false
        },
        {
          "address": "0x7f5c764cbc14f9669b88837ca1490cca17c31607",
          "topics": [
            "0x8c5be1e5ebec7d5bd14f71427d1e84f3dd0314c0f7b2291e5b200ac8c7c3b925",
            "0x000000000000000000000000d51b286ad70a7b1c0e9de8755b260c1ef055b79a",
            "0x000000000000000000000000794a61358d6845594f94dc1db02a252b5b4814ad"
          ],
          "data": "0x00000000000000000000000000000000000000000000000000000000004c4b40",
          "blockHash": "0xc150915d6dc67d3a7be76b9bc9a681d534b8b3d14f25c1df73b0dc37985005c2",
          "blockNumber": "0x7cfe20a",
          "transactionHash": "0x7d7854e6c9a8bde63cc0571fdbee4b67b86bff3e48b0423bfeb0a90f0565810d",
          "transactionIndex": "0xd",
          "logIndex": "0x29",
          "removed": false
        },
        {
          "address": "0x794a61358d6845594f94dc1db02a252b5b4814ad",
          "topics": [
            "0x804c9b842b2748a22bb64b345453a3de7ca54a6ca45ce00d415894979e22897a",
            "0x0000000000000000000000007f5c764cbc14f9669b88837ca1490cca17c31607"
          ],
          "data": "0x0000000000000000000000000000000000000000004ec437e816ecccb33eadc50000000000000000000000000000000000000000000000000000000000000000000000000000000000000000000000000000000000ab5d0b7736c76da3018f400000000000000000000000000000000000000000039cfd1b5f400fe1e433c20e000000000000000000000000000000000000000003def05301390ac18589dae0",
          "blockHash": "0xc150915d6dc67d3a7be76b9bc9a681d534b8b3d14f25c1df73b0dc37985005c2",
          "blockNumber": "0x7cfe20a",
          "transactionHash": "0x7d7854e6c9a8bde63cc0571fdbee4b67b86bff3e48b0423bfeb0a90f0565810d",
          "transactionIndex": "0xd",
          "logIndex": "0x2a",
          "removed": false
        },
        {
          "address": "0x7f5c764cbc14f9669b88837ca1490cca17c31607",
          "topics": [
            "0xddf252ad1be2c89b69c2b068fc378daa952ba7f163c4a11628f55a4df523b3ef",
            "0x000000000000000000000000d51b286ad70a7b1c0e9de8755b260c1ef055b79a",
            "0x000000000000000000000000625e7708f30ca75bfd92586e17077590c60eb4cd"
          ],
          "data": "0x00000000000000000000000000000000000000000000000000000000004c4b40",
          "blockHash": "0xc150915d6dc67d3a7be76b9bc9a681d534b8b3d14f25c1df73b0dc37985005c2",
          "blockNumber": "0x7cfe20a",
          "transactionHash": "0x7d7854e6c9a8bde63cc0571fdbee4b67b86bff3e48b0423bfeb0a90f0565810d",
          "transactionIndex": "0xd",
          "logIndex": "0x2b",
          "removed": false
        },
        {
          "address": "0x7f5c764cbc14f9669b88837ca1490cca17c31607",
          "topics": [
            "0x8c5be1e5ebec7d5bd14f71427d1e84f3dd0314c0f7b2291e5b200ac8c7c3b925",
            "0x000000000000000000000000d51b286ad70a7b1c0e9de8755b260c1ef055b79a",
            "0x000000000000000000000000794a61358d6845594f94dc1db02a252b5b4814ad"
          ],
          "data": "0x0000000000000000000000000000000000000000000000000000000000000000",
          "blockHash": "0xc150915d6dc67d3a7be76b9bc9a681d534b8b3d14f25c1df73b0dc37985005c2",
          "blockNumber": "0x7cfe20a",
          "transactionHash": "0x7d7854e6c9a8bde63cc0571fdbee4b67b86bff3e48b0423bfeb0a90f0565810d",
          "transactionIndex": "0xd",
          "logIndex": "0x2c",
          "removed": false
        },
        {
          "address": "0x625e7708f30ca75bfd92586e17077590c60eb4cd",
          "topics": [
            "0xddf252ad1be2c89b69c2b068fc378daa952ba7f163c4a11628f55a4df523b3ef",
            "0x0000000000000000000000000000000000000000000000000000000000000000",
            "0x000000000000000000000000d51b286ad70a7b1c0e9de8755b260c1ef055b79a"
          ],
          "data": "0x00000000000000000000000000000000000000000000000000000000004c4b40",
          "blockHash": "0xc150915d6dc67d3a7be76b9bc9a681d534b8b3d14f25c1df73b0dc37985005c2",
          "blockNumber": "0x7cfe20a",
          "transactionHash": "0x7d7854e6c9a8bde63cc0571fdbee4b67b86bff3e48b0423bfeb0a90f0565810d",
          "transactionIndex": "0xd",
          "logIndex": "0x2d",
          "removed": false
        },
        {
          "address": "0x625e7708f30ca75bfd92586e17077590c60eb4cd",
          "topics": [
            "0x458f5fa412d0f69b08dd84872b0215675cc67bc1d5b6fd93300a1c3878b86196",
            "0x000000000000000000000000d51b286ad70a7b1c0e9de8755b260c1ef055b79a",
            "0x000000000000000000000000d51b286ad70a7b1c0e9de8755b260c1ef055b79a"
          ],
          "data": "0x00000000000000000000000000000000000000000000000000000000004c4b4000000000000000000000000000000000000000000000000000000000000000000000000000000000000000000000000000000000039cfd1b5f400fe1e433c20e",
          "blockHash": "0xc150915d6dc67d3a7be76b9bc9a681d534b8b3d14f25c1df73b0dc37985005c2",
          "blockNumber": "0x7cfe20a",
          "transactionHash": "0x7d7854e6c9a8bde63cc0571fdbee4b67b86bff3e48b0423bfeb0a90f0565810d",
          "transactionIndex": "0xd",
          "logIndex": "0x2e",
          "removed": false
        },
        {
          "address": "0x794a61358d6845594f94dc1db02a252b5b4814ad",
          "topics": [
            "0x2b627736bca15cd5381dcf80b0bf11fd197d01a037c52b927a881a10fb73ba61",
            "0x0000000000000000000000007f5c764cbc14f9669b88837ca1490cca17c31607",
            "0x000000000000000000000000d51b286ad70a7b1c0e9de8755b260c1ef055b79a",
            "0x0000000000000000000000000000000000000000000000000000000000000000"
          ],
          "data": "0x000000000000000000000000d51b286ad70a7b1c0e9de8755b260c1ef055b79a00000000000000000000000000000000000000000000000000000000004c4b40",
          "blockHash": "0xc150915d6dc67d3a7be76b9bc9a681d534b8b3d14f25c1df73b0dc37985005c2",
          "blockNumber": "0x7cfe20a",
          "transactionHash": "0x7d7854e6c9a8bde63cc0571fdbee4b67b86bff3e48b0423bfeb0a90f0565810d",
          "transactionIndex": "0xd",
          "logIndex": "0x2f",
          "removed": false
        },
        {
          "address": "0xd51b286ad70a7b1c0e9de8755b260c1ef055b79a",
          "topics": [
            "0xddf252ad1be2c89b69c2b068fc378daa952ba7f163c4a11628f55a4df523b3ef",
            "0x0000000000000000000000000000000000000000000000000000000000000000",
            "0x000000000000000000000000cda2fdb452ff4f5d7ba1c3d5dfcc9cb926a5eb7d"
          ],
          "data": "0x0000000000000000000000000000000000000000000000029f1b37e096cf4bbf",
          "blockHash": "0xc150915d6dc67d3a7be76b9bc9a681d534b8b3d14f25c1df73b0dc37985005c2",
          "blockNumber": "0x7cfe20a",
          "transactionHash": "0x7d7854e6c9a8bde63cc0571fdbee4b67b86bff3e48b0423bfeb0a90f0565810d",
          "transactionIndex": "0xd",
          "logIndex": "0x30",
          "removed": false
        },
        {
          "address": "0xd51b286ad70a7b1c0e9de8755b260c1ef055b79a",
          "topics": [
            "0xdcbc1c05240f31ff3ad067ef1ee35ce4997762752e3a095284754544f4c709d7",
            "0x000000000000000000000000cda2fdb452ff4f5d7ba1c3d5dfcc9cb926a5eb7d",
            "0x000000000000000000000000cda2fdb452ff4f5d7ba1c3d5dfcc9cb926a5eb7d"
          ],
          "data": "0x00000000000000000000000000000000000000000000000000000000004c4b400000000000000000000000000000000000000000000000029f1b37e096cf4bbf",
          "blockHash": "0xc150915d6dc67d3a7be76b9bc9a681d534b8b3d14f25c1df73b0dc37985005c2",
          "blockNumber": "0x7cfe20a",
          "transactionHash": "0x7d7854e6c9a8bde63cc0571fdbee4b67b86bff3e48b0423bfeb0a90f0565810d",
          "transactionIndex": "0xd",
          "logIndex": "0x31",
          "removed": false
        }
      ],
      "logsBloom": "0x00080000000000000000008000000000000000000004000000000000000000000001000000000000000000000004000000000040000004000000000000200001000001400000000000000008040000008000044000080000800000040000000002000000020000000000000000000800000000000004800000000010000000000400000040000000000200000000000000000800008000000000000000000000020000000000000000000000000000000000000000004100000000000000010002000002000000000000002040000000000000000008000000000000000020000010000000000000000000040008000040000000040000000000400000010000",
      "type": "0x2",
      "transactionHash": "0x7d7854e6c9a8bde63cc0571fdbee4b67b86bff3e48b0423bfeb0a90f0565810d",
      "transactionIndex": "0xd",
      "blockHash": "0xc150915d6dc67d3a7be76b9bc9a681d534b8b3d14f25c1df73b0dc37985005c2",
      "blockNumber": "0x7cfe20a",
      "gasUsed": "0x368d9",
      "effectiveGasPrice": "0xecb4",
      "from": "0xcda2fdb452ff4f5d7ba1c3d5dfcc9cb926a5eb7d",
      "to": "0xd51b286ad70a7b1c0e9de8755b260c1ef055b79a",
      "contractAddress": null,
      "l1BaseFeeScalar": "0x146b",
      "l1BlobBaseFee": "0xf192",
      "l1BlobBaseFeeScalar": "0xf79c5",
      "l1Fee": "0x261150817a",
      "l1GasPrice": "0x48d377c31",
      "l1GasUsed": "0x640"
    },
    {
      "status": "0x1",
      "cumulativeGasUsed": "0x385005",
      "logs": [
        {
          "address": "0x794a61358d6845594f94dc1db02a252b5b4814ad",
          "topics": [
            "0x804c9b842b2748a22bb64b345453a3de7ca54a6ca45ce00d415894979e22897a",
            "0x0000000000000000000000007f5c764cbc14f9669b88837ca1490cca17c31607"
          ],
          "data": "0x0000000000000000000000000000000000000000004ec4a0e5ed27db56ba14df0000000000000000000000000000000000000000000000000000000000000000000000000000000000000000000000000000000000ab5de3b394a3f8475632300000000000000000000000000000000000000000039cfd1b5f400fe1e433c20e000000000000000000000000000000000000000003def05301390ac18589dae0",
          "blockHash": "0xc150915d6dc67d3a7be76b9bc9a681d534b8b3d14f25c1df73b0dc37985005c2",
          "blockNumber": "0x7cfe20a",
          "transactionHash": "0xda7267153b2b58404af8ce4aabb083706b2c77538192f51fc39e591c44ca7082",
          "transactionIndex": "0xe",
          "logIndex": "0x32",
          "removed": false
        },
        {
          "address": "0x625e7708f30ca75bfd92586e17077590c60eb4cd",
          "topics": [
            "0xddf252ad1be2c89b69c2b068fc378daa952ba7f163c4a11628f55a4df523b3ef",
            "0x000000000000000000000000d51b286ad70a7b1c0e9de8755b260c1ef055b79a",
            "0x0000000000000000000000000000000000000000000000000000000000000000"
          ],
          "data": "0x00000000000000000000000000000000000000000000000000000000004c4b40",
          "blockHash": "0xc150915d6dc67d3a7be76b9bc9a681d534b8b3d14f25c1df73b0dc37985005c2",
          "blockNumber": "0x7cfe20a",
          "transactionHash": "0xda7267153b2b58404af8ce4aabb083706b2c77538192f51fc39e591c44ca7082",
          "transactionIndex": "0xe",
          "logIndex": "0x33",
          "removed": false
        },
        {
          "address": "0x625e7708f30ca75bfd92586e17077590c60eb4cd",
          "topics": [
            "0x4cf25bc1d991c17529c25213d3cc0cda295eeaad5f13f361969b12ea48015f90",
            "0x000000000000000000000000d51b286ad70a7b1c0e9de8755b260c1ef055b79a",
            "0x000000000000000000000000d51b286ad70a7b1c0e9de8755b260c1ef055b79a"
          ],
          "data": "0x00000000000000000000000000000000000000000000000000000000004c4b4000000000000000000000000000000000000000000000000000000000000000000000000000000000000000000000000000000000039cfd1b5f400fe1e433c20e",
          "blockHash": "0xc150915d6dc67d3a7be76b9bc9a681d534b8b3d14f25c1df73b0dc37985005c2",
          "blockNumber": "0x7cfe20a",
          "transactionHash": "0xda7267153b2b58404af8ce4aabb083706b2c77538192f51fc39e591c44ca7082",
          "transactionIndex": "0xe",
          "logIndex": "0x34",
          "removed": false
        },
        {
          "address": "0x7f5c764cbc14f9669b88837ca1490cca17c31607",
          "topics": [
            "0xddf252ad1be2c89b69c2b068fc378daa952ba7f163c4a11628f55a4df523b3ef",
            "0x000000000000000000000000625e7708f30ca75bfd92586e17077590c60eb4cd",
            "0x000000000000000000000000d51b286ad70a7b1c0e9de8755b260c1ef055b79a"
          ],
          "data": "0x00000000000000000000000000000000000000000000000000000000004c4b40",
          "blockHash": "0xc150915d6dc67d3a7be76b9bc9a681d534b8b3d14f25c1df73b0dc37985005c2",
          "blockNumber": "0x7cfe20a",
          "transactionHash": "0xda7267153b2b58404af8ce4aabb083706b2c77538192f51fc39e591c44ca7082",
          "transactionIndex": "0xe",
          "logIndex": "0x35",
          "removed": false
        },
        {
          "address": "0x794a61358d6845594f94dc1db02a252b5b4814ad",
          "topics": [
            "0x3115d1449a7b732c986cba18244e897a450f61e1bb8d589cd2e69e6c8924f9f7",
            "0x0000000000000000000000007f5c764cbc14f9669b88837ca1490cca17c31607",
            "0x000000000000000000000000d51b286ad70a7b1c0e9de8755b260c1ef055b79a",
            "0x000000000000000000000000d51b286ad70a7b1c0e9de8755b260c1ef055b79a"
          ],
          "data": "0x00000000000000000000000000000000000000000000000000000000004c4b40",
          "blockHash": "0xc150915d6dc67d3a7be76b9bc9a681d534b8b3d14f25c1df73b0dc37985005c2",
          "blockNumber": "0x7cfe20a",
          "transactionHash": "0xda7267153b2b58404af8ce4aabb083706b2c77538192f51fc39e591c44ca7082",
          "transactionIndex": "0xe",
          "logIndex": "0x36",
          "removed": false
        },
        {
          "address": "0xd51b286ad70a7b1c0e9de8755b260c1ef055b79a",
          "topics": [
            "0xddf252ad1be2c89b69c2b068fc378daa952ba7f163c4a11628f55a4df523b3ef",
            "0x000000000000000000000000cda2fdb452ff4f5d7ba1c3d5dfcc9cb926a5eb7d",
            "0x0000000000000000000000000000000000000000000000000000000000000000"
          ],
          "data": "0x000000000000000000000000000000000000000000000002c71cdf167ef6733d",
          "blockHash": "0xc150915d6dc67d3a7be76b9bc9a681d534b8b3d14f25c1df73b0dc37985005c2",
          "blockNumber": "0x7cfe20a",
          "transactionHash": "0xda7267153b2b58404af8ce4aabb083706b2c77538192f51fc39e591c44ca7082",
          "transactionIndex": "0xe",
          "logIndex": "0x37",
          "removed": false
        },
        {
          "address": "0x7f5c764cbc14f9669b88837ca1490cca17c31607",
          "topics": [
            "0xddf252ad1be2c89b69c2b068fc378daa952ba7f163c4a11628f55a4df523b3ef",
            "0x000000000000000000000000d51b286ad70a7b1c0e9de8755b260c1ef055b79a",
            "0x000000000000000000000000cda2fdb452ff4f5d7ba1c3d5dfcc9cb926a5eb7d"
          ],
          "data": "0x00000000000000000000000000000000000000000000000000000000004c4b40",
          "blockHash": "0xc150915d6dc67d3a7be76b9bc9a681d534b8b3d14f25c1df73b0dc37985005c2",
          "blockNumber": "0x7cfe20a",
          "transactionHash": "0xda7267153b2b58404af8ce4aabb083706b2c77538192f51fc39e591c44ca7082",
          "transactionIndex": "0xe",
          "logIndex": "0x38",
          "removed": false
        },
        {
          "address": "0xd51b286ad70a7b1c0e9de8755b260c1ef055b79a",
          "topics": [
            "0xfbde797d201c681b91056529119e0b02407c7bb96a4a2c75c01fc9667232c8db",
            "0x000000000000000000000000cda2fdb452ff4f5d7ba1c3d5dfcc9cb926a5eb7d",
            "0x000000000000000000000000cda2fdb452ff4f5d7ba1c3d5dfcc9cb926a5eb7d",
            "0x000000000000000000000000cda2fdb452ff4f5d7ba1c3d5dfcc9cb926a5eb7d"
          ],
          "data": "0x00000000000000000000000000000000000000000000000000000000004c4b40000000000000000000000000000000000000000000000002c71cdf167ef6733d",
          "blockHash": "0xc150915d6dc67d3a7be76b9bc9a681d534b8b3d14f25c1df73b0dc37985005c2",
          "blockNumber": "0x7cfe20a",
          "transactionHash": "0xda7267153b2b58404af8ce4aabb083706b2c77538192f51fc39e591c44ca7082",
          "transactionIndex": "0xe",
          "logIndex": "0x39",
          "removed": false
        }
      ],
      "logsBloom": "0x10080000000000400000008000000000008000000004000000000000000000000001000000000000000000000000000000010040000004000000000000000001000001000000000000000008040000008000044000080000000000000000000002000000020000000000000000000800000000000000820000000010000000000400000040000000000200000000000000000000008000000000000000000000000000000080000000000000000000020000000000004000000000000000010000000002000000000000002000000000000000000000000000000000000020040000000000000000000000040008000000000000040000000000000000010000",
      "type": "0x2",
      "transactionHash": "0xda7267153b2b58404af8ce4aabb083706b2c77538192f51fc39e591c44ca7082",
      "transactionIndex": "0xe",
      "blockHash": "0xc150915d6dc67d3a7be76b9bc9a681d534b8b3d14f25c1df73b0dc37985005c2",
      "blockNumber": "0x7cfe20a",
      "gasUsed": "0x37229",
      "effectiveGasPrice": "0xecb4",
      "from": "0xcda2fdb452ff4f5d7ba1c3d5dfcc9cb926a5eb7d",
      "to": "0xd51b286ad70a7b1c0e9de8755b260c1ef055b79a",
      "contractAddress": null,
      "l1BaseFeeScalar": "0x146b",
      "l1BlobBaseFee": "0xf192",
      "l1BlobBaseFeeScalar": "0xf79c5",
      "l1Fee": "0x261150817a",
      "l1GasPrice": "0x48d377c31",
      "l1GasUsed": "0x640"
    },
    {
      "status": "0x1",
      "cumulativeGasUsed": "0x3bb8de",
      "logs": [
        {
          "address": "0x7f5c764cbc14f9669b88837ca1490cca17c31607",
          "topics": [
            "0xddf252ad1be2c89b69c2b068fc378daa952ba7f163c4a11628f55a4df523b3ef",
            "0x000000000000000000000000cda2fdb452ff4f5d7ba1c3d5dfcc9cb926a5eb7d",
            "0x000000000000000000000000d51b286ad70a7b1c0e9de8755b260c1ef055b79a"
          ],
          "data": "0x00000000000000000000000000000000000000000000000000000000004c4b40",
          "blockHash": "0xc150915d6dc67d3a7be76b9bc9a681d534b8b3d14f25c1df73b0dc37985005c2",
          "blockNumber": "0x7cfe20a",
          "transactionHash": "0x44cc4ab278270d96dcbdec8b3ea7473310cf8508096c6d8ef5e9c044e10c2e8a",
          "transactionIndex": "0xf",
          "logIndex": "0x3a",
          "removed": false
        },
        {
          "address": "0x7f5c764cbc14f9669b88837ca1490cca17c31607",
          "topics": [
            "0x8c5be1e5ebec7d5bd14f71427d1e84f3dd0314c0f7b2291e5b200ac8c7c3b925",
            "0x000000000000000000000000cda2fdb452ff4f5d7ba1c3d5dfcc9cb926a5eb7d",
            "0x000000000000000000000000d51b286ad70a7b1c0e9de8755b260c1ef055b79a"
          ],
          "data": "0xffffffffffffffffffffffffffffffffffffffffffffffffffffffffff1b1e3f",
          "blockHash": "0xc150915d6dc67d3a7be76b9bc9a681d534b8b3d14f25c1df73b0dc37985005c2",
          "blockNumber": "0x7cfe20a",
          "transactionHash": "0x44cc4ab278270d96dcbdec8b3ea7473310cf8508096c6d8ef5e9c044e10c2e8a",
          "transactionIndex": "0xf",
          "logIndex": "0x3b",
          "removed": false
        },
        {
          "address": "0x7f5c764cbc14f9669b88837ca1490cca17c31607",
          "topics": [
            "0x8c5be1e5ebec7d5bd14f71427d1e84f3dd0314c0f7b2291e5b200ac8c7c3b925",
            "0x000000000000000000000000d51b286ad70a7b1c0e9de8755b260c1ef055b79a",
            "0x000000000000000000000000794a61358d6845594f94dc1db02a252b5b4814ad"
          ],
          "data": "0x00000000000000000000000000000000000000000000000000000000004c4b40",
          "blockHash": "0xc150915d6dc67d3a7be76b9bc9a681d534b8b3d14f25c1df73b0dc37985005c2",
          "blockNumber": "0x7cfe20a",
          "transactionHash": "0x44cc4ab278270d96dcbdec8b3ea7473310cf8508096c6d8ef5e9c044e10c2e8a",
          "transactionIndex": "0xf",
          "logIndex": "0x3c",
          "removed": false
        },
        {
          "address": "0x794a61358d6845594f94dc1db02a252b5b4814ad",
          "topics": [
            "0x804c9b842b2748a22bb64b345453a3de7ca54a6ca45ce00d415894979e22897a",
            "0x0000000000000000000000007f5c764cbc14f9669b88837ca1490cca17c31607"
          ],
          "data": "0x0000000000000000000000000000000000000000004ec437e816ecccb33eadc50000000000000000000000000000000000000000000000000000000000000000000000000000000000000000000000000000000000ab5d0b7736c76da3018f400000000000000000000000000000000000000000039cfd1b5f400fe1e433c20e000000000000000000000000000000000000000003def05301390ac18589dae0",
          "blockHash": "0xc150915d6dc67d3a7be76b9bc9a681d534b8b3d14f25c1df73b0dc37985005c2",
          "blockNumber": "0x7cfe20a",
          "transactionHash": "0x44cc4ab278270d96dcbdec8b3ea7473310cf8508096c6d8ef5e9c044e10c2e8a",
          "transactionIndex": "0xf",
          "logIndex": "0x3d",
          "removed": false
        },
        {
          "address": "0x7f5c764cbc14f9669b88837ca1490cca17c31607",
          "topics": [
            "0xddf252ad1be2c89b69c2b068fc378daa952ba7f163c4a11628f55a4df523b3ef",
            "0x000000000000000000000000d51b286ad70a7b1c0e9de8755b260c1ef055b79a",
            "0x000000000000000000000000625e7708f30ca75bfd92586e17077590c60eb4cd"
          ],
          "data": "0x00000000000000000000000000000000000000000000000000000000004c4b40",
          "blockHash": "0xc150915d6dc67d3a7be76b9bc9a681d534b8b3d14f25c1df73b0dc37985005c2",
          "blockNumber": "0x7cfe20a",
          "transactionHash": "0x44cc4ab278270d96dcbdec8b3ea7473310cf8508096c6d8ef5e9c044e10c2e8a",
          "transactionIndex": "0xf",
          "logIndex": "0x3e",
          "removed": false
        },
        {
          "address": "0x7f5c764cbc14f9669b88837ca1490cca17c31607",
          "topics": [
            "0x8c5be1e5ebec7d5bd14f71427d1e84f3dd0314c0f7b2291e5b200ac8c7c3b925",
            "0x000000000000000000000000d51b286ad70a7b1c0e9de8755b260c1ef055b79a",
            "0x000000000000000000000000794a61358d6845594f94dc1db02a252b5b4814ad"
          ],
          "data": "0x0000000000000000000000000000000000000000000000000000000000000000",
          "blockHash": "0xc150915d6dc67d3a7be76b9bc9a681d534b8b3d14f25c1df73b0dc37985005c2",
          "blockNumber": "0x7cfe20a",
          "transactionHash": "0x44cc4ab278270d96dcbdec8b3ea7473310cf8508096c6d8ef5e9c044e10c2e8a",
          "transactionIndex": "0xf",
          "logIndex": "0x3f",
          "removed": false
        },
        {
          "address": "0x625e7708f30ca75bfd92586e17077590c60eb4cd",
          "topics": [
            "0xddf252ad1be2c89b69c2b068fc378daa952ba7f163c4a11628f55a4df523b3ef",
            "0x0000000000000000000000000000000000000000000000000000000000000000",
            "0x000000000000000000000000d51b286ad70a7b1c0e9de8755b260c1ef055b79a"
          ],
          "data": "0x00000000000000000000000000000000000000000000000000000000004c4b40",
          "blockHash": "0xc150915d6dc67d3a7be76b9bc9a681d534b8b3d14f25c1df73b0dc37985005c2",
          "blockNumber": "0x7cfe20a",
          "transactionHash": "0x44cc4ab278270d96dcbdec8b3ea7473310cf8508096c6d8ef5e9c044e10c2e8a",
          "transactionIndex": "0xf",
          "logIndex": "0x40",
          "removed": false
        },
        {
          "address": "0x625e7708f30ca75bfd92586e17077590c60eb4cd",
          "topics": [
            "0x458f5fa412d0f69b08dd84872b0215675cc67bc1d5b6fd93300a1c3878b86196",
            "0x000000000000000000000000d51b286ad70a7b1c0e9de8755b260c1ef055b79a",
            "0x000000000000000000000000d51b286ad70a7b1c0e9de8755b260c1ef055b79a"
          ],
          "data": "0x00000000000000000000000000000000000000000000000000000000004c4b4000000000000000000000000000000000000000000000000000000000000000000000000000000000000000000000000000000000039cfd1b5f400fe1e433c20e",
          "blockHash": "0xc150915d6dc67d3a7be76b9bc9a681d534b8b3d14f25c1df73b0dc37985005c2",
          "blockNumber": "0x7cfe20a",
          "transactionHash": "0x44cc4ab278270d96dcbdec8b3ea7473310cf8508096c6d8ef5e9c044e10c2e8a",
          "transactionIndex": "0xf",
          "logIndex": "0x41",
          "removed": false
        },
        {
          "address": "0x794a61358d6845594f94dc1db02a252b5b4814ad",
          "topics": [
            "0x2b627736bca15cd5381dcf80b0bf11fd197d01a037c52b927a881a10fb73ba61",
            "0x0000000000000000000000007f5c764cbc14f9669b88837ca1490cca17c31607",
            "0x000000000000000000000000d51b286ad70a7b1c0e9de8755b260c1ef055b79a",
            "0x0000000000000000000000000000000000000000000000000000000000000000"
          ],
          "data": "0x000000000000000000000000d51b286ad70a7b1c0e9de8755b260c1ef055b79a00000000000000000000000000000000000000000000000000000000004c4b40",
          "blockHash": "0xc150915d6dc67d3a7be76b9bc9a681d534b8b3d14f25c1df73b0dc37985005c2",
          "blockNumber": "0x7cfe20a",
          "transactionHash": "0x44cc4ab278270d96dcbdec8b3ea7473310cf8508096c6d8ef5e9c044e10c2e8a",
          "transactionIndex": "0xf",
          "logIndex": "0x42",
          "removed": false
        },
        {
          "address": "0xd51b286ad70a7b1c0e9de8755b260c1ef055b79a",
          "topics": [
            "0xddf252ad1be2c89b69c2b068fc378daa952ba7f163c4a11628f55a4df523b3ef",
            "0x0000000000000000000000000000000000000000000000000000000000000000",
            "0x000000000000000000000000cda2fdb452ff4f5d7ba1c3d5dfcc9cb926a5eb7d"
          ],
          "data": "0x0000000000000000000000000000000000000000000000029d6ae635132da277",
          "blockHash": "0xc150915d6dc67d3a7be76b9bc9a681d534b8b3d14f25c1df73b0dc37985005c2",
          "blockNumber": "0x7cfe20a",
          "transactionHash": "0x44cc4ab278270d96dcbdec8b3ea7473310cf8508096c6d8ef5e9c044e10c2e8a",
          "transactionIndex": "0xf",
          "logIndex": "0x43",
          "removed": false
        },
        {
          "address": "0xd51b286ad70a7b1c0e9de8755b260c1ef055b79a",
          "topics": [
            "0xdcbc1c05240f31ff3ad067ef1ee35ce4997762752e3a095284754544f4c709d7",
            "0x000000000000000000000000cda2fdb452ff4f5d7ba1c3d5dfcc9cb926a5eb7d",
            "0x000000000000000000000000cda2fdb452ff4f5d7ba1c3d5dfcc9cb926a5eb7d"
          ],
          "data": "0x00000000000000000000000000000000000000000000000000000000004c4b400000000000000000000000000000000000000000000000029d6ae635132da277",
          "blockHash": "0xc150915d6dc67d3a7be76b9bc9a681d534b8b3d14f25c1df73b0dc37985005c2",
          "blockNumber": "0x7cfe20a",
          "transactionHash": "0x44cc4ab278270d96dcbdec8b3ea7473310cf8508096c6d8ef5e9c044e10c2e8a",
          "transactionIndex": "0xf",
          "logIndex": "0x44",
          "removed": false
        }
      ],
      "logsBloom": "0x00080000000000000000008000000000000000000004000000000000000000000001000000000000000000000004000000000040000004000000000000200001000001400000000000000008040000008000044000080000800000040000000002000000020000000000000000000800000000000004800000000010000000000400000040000000000200000000000000000800008000000000000000000000020000000000000000000000000000000000000000004100000000000000010002000002000000000000002040000000000000000008000000000000000020000010000000000000000000040008000040000000040000000000400000010000",
      "type": "0x2",
      "transactionHash": "0x44cc4ab278270d96dcbdec8b3ea7473310cf8508096c6d8ef5e9c044e10c2e8a",
      "transactionIndex": "0xf",
      "blockHash": "0xc150915d6dc67d3a7be76b9bc9a681d534b8b3d14f25c1df73b0dc37985005c2",
      "blockNumber": "0x7cfe20a",
      "gasUsed": "0x368d9",
      "effectiveGasPrice": "0xecb4",
      "from": "0xcda2fdb452ff4f5d7ba1c3d5dfcc9cb926a5eb7d",
      "to": "0xd51b286ad70a7b1c0e9de8755b260c1ef055b79a",
      "contractAddress": null,
      "l1BaseFeeScalar": "0x146b",
      "l1BlobBaseFee": "0xf192",
      "l1BlobBaseFeeScalar": "0xf79c5",
      "l1Fee": "0x261150817a",
      "l1GasPrice": "0x48d377c31",
      "l1GasUsed": "0x640"
    },
    {
      "status": "0x1",
      "cumulativeGasUsed": "0x3f2b07",
      "logs": [
        {
          "address": "0x794a61358d6845594f94dc1db02a252b5b4814ad",
          "topics": [
            "0x804c9b842b2748a22bb64b345453a3de7ca54a6ca45ce00d415894979e22897a",
            "0x0000000000000000000000007f5c764cbc14f9669b88837ca1490cca17c31607"
          ],
          "data": "0x0000000000000000000000000000000000000000004ec4a0e5ed27db56ba14df0000000000000000000000000000000000000000000000000000000000000000000000000000000000000000000000000000000000ab5de3b394a3f8475632300000000000000000000000000000000000000000039cfd1b5f400fe1e433c20e000000000000000000000000000000000000000003def05301390ac18589dae0",
          "blockHash": "0xc150915d6dc67d3a7be76b9bc9a681d534b8b3d14f25c1df73b0dc37985005c2",
          "blockNumber": "0x7cfe20a",
          "transactionHash": "0x000f329f037da9d852104432965108a237a9de273bbac0dd2548d2f81e81cd6d",
          "transactionIndex": "0x10",
          "logIndex": "0x45",
          "removed": false
        },
        {
          "address": "0x625e7708f30ca75bfd92586e17077590c60eb4cd",
          "topics": [
            "0xddf252ad1be2c89b69c2b068fc378daa952ba7f163c4a11628f55a4df523b3ef",
            "0x000000000000000000000000d51b286ad70a7b1c0e9de8755b260c1ef055b79a",
            "0x0000000000000000000000000000000000000000000000000000000000000000"
          ],
          "data": "0x00000000000000000000000000000000000000000000000000000000004c4b40",
          "blockHash": "0xc150915d6dc67d3a7be76b9bc9a681d534b8b3d14f25c1df73b0dc37985005c2",
          "blockNumber": "0x7cfe20a",
          "transactionHash": "0x000f329f037da9d852104432965108a237a9de273bbac0dd2548d2f81e81cd6d",
          "transactionIndex": "0x10",
          "logIndex": "0x46",
          "removed": false
        },
        {
          "address": "0x625e7708f30ca75bfd92586e17077590c60eb4cd",
          "topics": [
            "0x4cf25bc1d991c17529c25213d3cc0cda295eeaad5f13f361969b12ea48015f90",
            "0x000000000000000000000000d51b286ad70a7b1c0e9de8755b260c1ef055b79a",
            "0x000000000000000000000000d51b286ad70a7b1c0e9de8755b260c1ef055b79a"
          ],
          "data": "0x00000000000000000000000000000000000000000000000000000000004c4b4000000000000000000000000000000000000000000000000000000000000000000000000000000000000000000000000000000000039cfd1b5f400fe1e433c20e",
          "blockHash": "0xc150915d6dc67d3a7be76b9bc9a681d534b8b3d14f25c1df73b0dc37985005c2",
          "blockNumber": "0x7cfe20a",
          "transactionHash": "0x000f329f037da9d852104432965108a237a9de273bbac0dd2548d2f81e81cd6d",
          "transactionIndex": "0x10",
          "logIndex": "0x47",
          "removed": false
        },
        {
          "address": "0x7f5c764cbc14f9669b88837ca1490cca17c31607",
          "topics": [
            "0xddf252ad1be2c89b69c2b068fc378daa952ba7f163c4a11628f55a4df523b3ef",
            "0x000000000000000000000000625e7708f30ca75bfd92586e17077590c60eb4cd",
            "0x000000000000000000000000d51b286ad70a7b1c0e9de8755b260c1ef055b79a"
          ],
          "data": "0x00000000000000000000000000000000000000000000000000000000004c4b40",
          "blockHash": "0xc150915d6dc67d3a7be76b9bc9a681d534b8b3d14f25c1df73b0dc37985005c2",
          "blockNumber": "0x7cfe20a",
          "transactionHash": "0x000f329f037da9d852104432965108a237a9de273bbac0dd2548d2f81e81cd6d",
          "transactionIndex": "0x10",
          "logIndex": "0x48",
          "removed": false
        },
        {
          "address": "0x794a61358d6845594f94dc1db02a252b5b4814ad",
          "topics": [
            "0x3115d1449a7b732c986cba18244e897a450f61e1bb8d589cd2e69e6c8924f9f7",
            "0x0000000000000000000000007f5c764cbc14f9669b88837ca1490cca17c31607",
            "0x000000000000000000000000d51b286ad70a7b1c0e9de8755b260c1ef055b79a",
            "0x000000000000000000000000d51b286ad70a7b1c0e9de8755b260c1ef055b79a"
          ],
          "data": "0x00000000000000000000000000000000000000000000000000000000004c4b40",
          "blockHash": "0xc150915d6dc67d3a7be76b9bc9a681d534b8b3d14f25c1df73b0dc37985005c2",
          "blockNumber": "0x7cfe20a",
          "transactionHash": "0x000f329f037da9d852104432965108a237a9de273bbac0dd2548d2f81e81cd6d",
          "transactionIndex": "0x10",
          "logIndex": "0x49",
          "removed": false
        },
        {
          "address": "0xd51b286ad70a7b1c0e9de8755b260c1ef055b79a",
          "topics": [
            "0xddf252ad1be2c89b69c2b068fc378daa952ba7f163c4a11628f55a4df523b3ef",
            "0x000000000000000000000000cda2fdb452ff4f5d7ba1c3d5dfcc9cb926a5eb7d",
            "0x0000000000000000000000000000000000000000000000000000000000000000"
          ],
          "data": "0x000000000000000000000000000000000000000000000002c552c7dca9802498",
          "blockHash": "0xc150915d6dc67d3a7be76b9bc9a681d534b8b3d14f25c1df73b0dc37985005c2",
          "blockNumber": "0x7cfe20a",
          "transactionHash": "0x000f329f037da9d852104432965108a237a9de273bbac0dd2548d2f81e81cd6d",
          "transactionIndex": "0x10",
          "logIndex": "0x4a",
          "removed": false
        },
        {
          "address": "0x7f5c764cbc14f9669b88837ca1490cca17c31607",
          "topics": [
            "0xddf252ad1be2c89b69c2b068fc378daa952ba7f163c4a11628f55a4df523b3ef",
            "0x000000000000000000000000d51b286ad70a7b1c0e9de8755b260c1ef055b79a",
            "0x000000000000000000000000cda2fdb452ff4f5d7ba1c3d5dfcc9cb926a5eb7d"
          ],
          "data": "0x00000000000000000000000000000000000000000000000000000000004c4b40",
          "blockHash": "0xc150915d6dc67d3a7be76b9bc9a681d534b8b3d14f25c1df73b0dc37985005c2",
          "blockNumber": "0x7cfe20a",
          "transactionHash": "0x000f329f037da9d852104432965108a237a9de273bbac0dd2548d2f81e81cd6d",
          "transactionIndex": "0x10",
          "logIndex": "0x4b",
          "removed": false
        },
        {
          "address": "0xd51b286ad70a7b1c0e9de8755b260c1ef055b79a",
          "topics": [
            "0xfbde797d201c681b91056529119e0b02407c7bb96a4a2c75c01fc9667232c8db",
            "0x000000000000000000000000cda2fdb452ff4f5d7ba1c3d5dfcc9cb926a5eb7d",
            "0x000000000000000000000000cda2fdb452ff4f5d7ba1c3d5dfcc9cb926a5eb7d",
            "0x000000000000000000000000cda2fdb452ff4f5d7ba1c3d5dfcc9cb926a5eb7d"
          ],
          "data": "0x00000000000000000000000000000000000000000000000000000000004c4b40000000000000000000000000000000000000000000000002c552c7dca9802498",
          "blockHash": "0xc150915d6dc67d3a7be76b9bc9a681d534b8b3d14f25c1df73b0dc37985005c2",
          "blockNumber": "0x7cfe20a",
          "transactionHash": "0x000f329f037da9d852104432965108a237a9de273bbac0dd2548d2f81e81cd6d",
          "transactionIndex": "0x10",
          "logIndex": "0x4c",
          "removed": false
        }
      ],
      "logsBloom": "0x10080000000000400000008000000000008000000004000000000000000000000001000000000000000000000000000000010040000004000000000000000001000001000000000000000008040000008000044000080000000000000000000002000000020000000000000000000800000000000000820000000010000000000400000040000000000200000000000000000000008000000000000000000000000000000080000000000000000000020000000000004000000000000000010000000002000000000000002000000000000000000000000000000000000020040000000000000000000000040008000000000000040000000000000000010000",
      "type": "0x2",
      "transactionHash": "0x000f329f037da9d852104432965108a237a9de273bbac0dd2548d2f81e81cd6d",
      "transactionIndex": "0x10",
      "blockHash": "0xc150915d6dc67d3a7be76b9bc9a681d534b8b3d14f25c1df73b0dc37985005c2",
      "blockNumber": "0x7cfe20a",
      "gasUsed": "0x37229",
      "effectiveGasPrice": "0xecb4",
      "from": "0xcda2fdb452ff4f5d7ba1c3d5dfcc9cb926a5eb7d",
      "to": "0xd51b286ad70a7b1c0e9de8755b260c1ef055b79a",
      "contractAddress": null,
      "l1BaseFeeScalar": "0x146b",
      "l1BlobBaseFee": "0xf192",
      "l1BlobBaseFeeScalar": "0xf79c5",
      "l1Fee": "0x261150817a",
      "l1GasPrice": "0x48d377c31",
      "l1GasUsed": "0x640"
    },
    {
      "status": "0x1",
      "cumulativeGasUsed": "0x4293e0",
      "logs": [
        {
          "address": "0x7f5c764cbc14f9669b88837ca1490cca17c31607",
          "topics": [
            "0xddf252ad1be2c89b69c2b068fc378daa952ba7f163c4a11628f55a4df523b3ef",
            "0x000000000000000000000000cda2fdb452ff4f5d7ba1c3d5dfcc9cb926a5eb7d",
            "0x000000000000000000000000d51b286ad70a7b1c0e9de8755b260c1ef055b79a"
          ],
          "data": "0x00000000000000000000000000000000000000000000000000000000004c4b40",
          "blockHash": "0xc150915d6dc67d3a7be76b9bc9a681d534b8b3d14f25c1df73b0dc37985005c2",
          "blockNumber": "0x7cfe20a",
          "transactionHash": "0xf7869d08c81c9f76ae5841077815fad1bed76e9f2b5ae632df80525915b682da",
          "transactionIndex": "0x11",
          "logIndex": "0x4d",
          "removed": false
        },
        {
          "address": "0x7f5c764cbc14f9669b88837ca1490cca17c31607",
          "topics": [
            "0x8c5be1e5ebec7d5bd14f71427d1e84f3dd0314c0f7b2291e5b200ac8c7c3b925",
            "0x000000000000000000000000cda2fdb452ff4f5d7ba1c3d5dfcc9cb926a5eb7d",
            "0x000000000000000000000000d51b286ad70a7b1c0e9de8755b260c1ef055b79a"
          ],
          "data": "0xfffffffffffffffffffffffffffffffffffffffffffffffffffffffffeced2ff",
          "blockHash": "0xc150915d6dc67d3a7be76b9bc9a681d534b8b3d14f25c1df73b0dc37985005c2",
          "blockNumber": "0x7cfe20a",
          "transactionHash": "0xf7869d08c81c9f76ae5841077815fad1bed76e9f2b5ae632df80525915b682da",
          "transactionIndex": "0x11",
          "logIndex": "0x4e",
          "removed": false
        },
        {
          "address": "0x7f5c764cbc14f9669b88837ca1490cca17c31607",
          "topics": [
            "0x8c5be1e5ebec7d5bd14f71427d1e84f3dd0314c0f7b2291e5b200ac8c7c3b925",
            "0x000000000000000000000000d51b286ad70a7b1c0e9de8755b260c1ef055b79a",
            "0x000000000000000000000000794a61358d6845594f94dc1db02a252b5b4814ad"
          ],
          "data": "0x00000000000000000000000000000000000000000000000000000000004c4b40",
          "blockHash": "0xc150915d6dc67d3a7be76b9bc9a681d534b8b3d14f25c1df73b0dc37985005c2",
          "blockNumber": "0x7cfe20a",
          "transactionHash": "0xf7869d08c81c9f76ae5841077815fad1bed76e9f2b5ae632df80525915b682da",
          "transactionIndex": "0x11",
          "logIndex": "0x4f",
          "removed": false
        },
        {
          "address": "0x794a61358d6845594f94dc1db02a252b5b4814ad",
          "topics": [
            "0x804c9b842b2748a22bb64b345453a3de7ca54a6ca45ce00d415894979e22897a",
            "0x0000000000000000000000007f5c764cbc14f9669b88837ca1490cca17c31607"
          ],
          "data": "0x0000000000000000000000000000000000000000004ec437e816ecccb33eadc50000000000000000000000000000000000000000000000000000000000000000000000000000000000000000000000000000000000ab5d0b7736c76da3018f400000000000000000000000000000000000000000039cfd1b5f400fe1e433c20e000000000000000000000000000000000000000003def05301390ac18589dae0",
          "blockHash": "0xc150915d6dc67d3a7be76b9bc9a681d534b8b3d14f25c1df73b0dc37985005c2",
          "blockNumber": "0x7cfe20a",
          "transactionHash": "0xf7869d08c81c9f76ae5841077815fad1bed76e9f2b5ae632df80525915b682da",
          "transactionIndex": "0x11",
          "logIndex": "0x50",
          "removed": false
        },
        {
          "address": "0x7f5c764cbc14f9669b88837ca1490cca17c31607",
          "topics": [
            "0xddf252ad1be2c89b69c2b068fc378daa952ba7f163c4a11628f55a4df523b3ef",
            "0x000000000000000000000000d51b286ad70a7b1c0e9de8755b260c1ef055b79a",
            "0x000000000000000000000000625e7708f30ca75bfd92586e17077590c60eb4cd"
          ],
          "data": "0x00000000000000000000000000000000000000000000000000000000004c4b40",
          "blockHash": "0xc150915d6dc67d3a7be76b9bc9a681d534b8b3d14f25c1df73b0dc37985005c2",
          "blockNumber": "0x7cfe20a",
          "transactionHash": "0xf7869d08c81c9f76ae5841077815fad1bed76e9f2b5ae632df80525915b682da",
          "transactionIndex": "0x11",
          "logIndex": "0x51",
          "removed": false
        },
        {
          "address": "0x7f5c764cbc14f9669b88837ca1490cca17c31607",
          "topics": [
            "0x8c5be1e5ebec7d5bd14f71427d1e84f3dd0314c0f7b2291e5b200ac8c7c3b925",
            "0x000000000000000000000000d51b286ad70a7b1c0e9de8755b260c1ef055b79a",
            "0x000000000000000000000000794a61358d6845594f94dc1db02a252b5b4814ad"
          ],
          "data": "0x0000000000000000000000000000000000000000000000000000000000000000",
          "blockHash": "0xc150915d6dc67d3a7be76b9bc9a681d534b8b3d14f25c1df73b0dc37985005c2",
          "blockNumber": "0x7cfe20a",
          "transactionHash": "0xf7869d08c81c9f76ae5841077815fad1bed76e9f2b5ae632df80525915b682da",
          "transactionIndex": "0x11",
          "logIndex": "0x52",
          "removed": false
        },
        {
          "address": "0x625e7708f30ca75bfd92586e17077590c60eb4cd",
          "topics": [
            "0xddf252ad1be2c89b69c2b068fc378daa952ba7f163c4a11628f55a4df523b3ef",
            "0x0000000000000000000000000000000000000000000000000000000000000000",
            "0x000000000000000000000000d51b286ad70a7b1c0e9de8755b260c1ef055b79a"
          ],
          "data": "0x00000000000000000000000000000000000000000000000000000000004c4b40",
          "blockHash": "0xc150915d6dc67d3a7be76b9bc9a681d534b8b3d14f25c1df73b0dc37985005c2",
          "blockNumber": "0x7cfe20a",
          "transactionHash": "0xf7869d08c81c9f76ae5841077815fad1bed76e9f2b5ae632df80525915b682da",
          "transactionIndex": "0x11",
          "logIndex": "0x53",
          "removed": false
        },
        {
          "address": "0x625e7708f30ca75bfd92586e17077590c60eb4cd",
          "topics": [
            "0x458f5fa412d0f69b08dd84872b0215675cc67bc1d5b6fd93300a1c3878b86196",
            "0x000000000000000000000000d51b286ad70a7b1c0e9de8755b260c1ef055b79a",
            "0x000000000000000000000000d51b286ad70a7b1c0e9de8755b260c1ef055b79a"
          ],
          "data": "0x00000000000000000000000000000000000000000000000000000000004c4b4000000000000000000000000000000000000000000000000000000000000000000000000000000000000000000000000000000000039cfd1b5f400fe1e433c20e",
          "blockHash": "0xc150915d6dc67d3a7be76b9bc9a681d534b8b3d14f25c1df73b0dc37985005c2",
          "blockNumber": "0x7cfe20a",
          "transactionHash": "0xf7869d08c81c9f76ae5841077815fad1bed76e9f2b5ae632df80525915b682da",
          "transactionIndex": "0x11",
          "logIndex": "0x54",
          "removed": false
        },
        {
          "address": "0x794a61358d6845594f94dc1db02a252b5b4814ad",
          "topics": [
            "0x2b627736bca15cd5381dcf80b0bf11fd197d01a037c52b927a881a10fb73ba61",
            "0x0000000000000000000000007f5c764cbc14f9669b88837ca1490cca17c31607",
            "0x000000000000000000000000d51b286ad70a7b1c0e9de8755b260c1ef055b79a",
            "0x0000000000000000000000000000000000000000000000000000000000000000"
          ],
          "data": "0x000000000000000000000000d51b286ad70a7b1c0e9de8755b260c1ef055b79a00000000000000000000000000000000000000000000000000000000004c4b40",
          "blockHash": "0xc150915d6dc67d3a7be76b9bc9a681d534b8b3d14f25c1df73b0dc37985005c2",
          "blockNumber": "0x7cfe20a",
          "transactionHash": "0xf7869d08c81c9f76ae5841077815fad1bed76e9f2b5ae632df80525915b682da",
          "transactionIndex": "0x11",
          "logIndex": "0x55",
          "removed": false
        },
        {
          "address": "0xd51b286ad70a7b1c0e9de8755b260c1ef055b79a",
          "topics": [
            "0xddf252ad1be2c89b69c2b068fc378daa952ba7f163c4a11628f55a4df523b3ef",
            "0x0000000000000000000000000000000000000000000000000000000000000000",
            "0x000000000000000000000000cda2fdb452ff4f5d7ba1c3d5dfcc9cb926a5eb7d"
          ],
          "data": "0x0000000000000000000000000000000000000000000000029bbbab0846346333",
          "blockHash": "0xc150915d6dc67d3a7be76b9bc9a681d534b8b3d14f25c1df73b0dc37985005c2",
          "blockNumber": "0x7cfe20a",
          "transactionHash": "0xf7869d08c81c9f76ae5841077815fad1bed76e9f2b5ae632df80525915b682da",
          "transactionIndex": "0x11",
          "logIndex": "0x56",
          "removed": false
        },
        {
          "address": "0xd51b286ad70a7b1c0e9de8755b260c1ef055b79a",
          "topics": [
            "0xdcbc1c05240f31ff3ad067ef1ee35ce4997762752e3a095284754544f4c709d7",
            "0x000000000000000000000000cda2fdb452ff4f5d7ba1c3d5dfcc9cb926a5eb7d",
            "0x000000000000000000000000cda2fdb452ff4f5d7ba1c3d5dfcc9cb926a5eb7d"
          ],
          "data": "0x00000000000000000000000000000000000000000000000000000000004c4b400000000000000000000000000000000000000000000000029bbbab0846346333",
          "blockHash": "0xc150915d6dc67d3a7be76b9bc9a681d534b8b3d14f25c1df73b0dc37985005c2",
          "blockNumber": "0x7cfe20a",
          "transactionHash": "0xf7869d08c81c9f76ae5841077815fad1bed76e9f2b5ae632df80525915b682da",
          "transactionIndex": "0x11",
          "logIndex": "0x57",
          "removed": false
        }
      ],
      "logsBloom": "0x00080000000000000000008000000000000000000004000000000000000000000001000000000000000000000004000000000040000004000000000000200001000001400000000000000008040000008000044000080000800000040000000002000000020000000000000000000800000000000004800000000010000000000400000040000000000200000000000000000800008000000000000000000000020000000000000000000000000000000000000000004100000000000000010002000002000000000000002040000000000000000008000000000000000020000010000000000000000000040008000040000000040000000000400000010000",
      "type": "0x2",
      "transactionHash": "0xf7869d08c81c9f76ae5841077815fad1bed76e9f2b5ae632df80525915b682da",
      "transactionIndex": "0x11",
      "blockHash": "0xc150915d6dc67d3a7be76b9bc9a681d534b8b3d14f25c1df73b0dc37985005c2",
      "blockNumber": "0x7cfe20a",
      "gasUsed": "0x368d9",
      "effectiveGasPrice": "0xecb4",
      "from": "0xcda2fdb452ff4f5d7ba1c3d5dfcc9cb926a5eb7d",
      "to": "0xd51b286ad70a7b1c0e9de8755b260c1ef055b79a",
      "contractAddress": null,
      "l1BaseFeeScalar": "0x146b",
      "l1BlobBaseFee": "0xf192",
      "l1BlobBaseFeeScalar": "0xf79c5",
      "l1Fee": "0x261150817a",
      "l1GasPrice": "0x48d377c31",
      "l1GasUsed": "0x640"
    }
  ],
  "libraries": [],
  "pending": [],
  "returns": {},
  "timestamp": 1737727444,
  "chain": 10,
  "commit": "c03c0fa"
}