{
  "transactions": [
    {
      "hash": "0x713e8a8b03caf962f3980716e1afce2f0c7f486a611a544c84fa5263d757541a",
      "transactionType": "CALL",
      "contractName": null,
      "contractAddress": "0x7f5c764cbc14f9669b88837ca1490cca17c31607",
      "function": "approve(address,uint256)",
      "arguments": [
        "0xC5ba7B7E9Db0d470F5dAfdB2B6782e8010Cf4ee7",
        "115792089237316195423570985008687907853269984665640564039457584007913129639935"
      ],
      "transaction": {
        "from": "0xcda2fdb452ff4f5d7ba1c3d5dfcc9cb926a5eb7d",
        "to": "0x7f5c764cbc14f9669b88837ca1490cca17c31607",
        "gas": "0x13115",
        "value": "0x0",
        "input": "0x095ea7b3000000000000000000000000c5ba7b7e9db0d470f5dafdb2b6782e8010cf4ee7ffffffffffffffffffffffffffffffffffffffffffffffffffffffffffffffff",
        "nonce": "0x23",
        "chainId": "0xa"
      },
      "additionalContracts": [],
      "isFixedGasLimit": false
    },
    {
      "hash": "0x69dcdc3ef3da8b3fb162af92e80f86d5900ab7c98e73178c47051d38b7af8b47",
      "transactionType": "CALL",
      "contractName": null,
      "contractAddress": "0xc5ba7b7e9db0d470f5dafdb2b6782e8010cf4ee7",
      "function": "deposit(uint256,address)",
      "arguments": [
        "5000000",
        "0xcdA2fDB452FF4F5D7Ba1C3d5dFCc9CB926A5eb7D"
      ],
      "transaction": {
        "from": "0xcda2fdb452ff4f5d7ba1c3d5dfcc9cb926a5eb7d",
        "to": "0xc5ba7b7e9db0d470f5dafdb2b6782e8010cf4ee7",
        "gas": "0x548c8",
        "value": "0x0",
        "input": "0x6e553f6500000000000000000000000000000000000000000000000000000000004c4b40000000000000000000000000cda2fdb452ff4f5d7ba1c3d5dfcc9cb926a5eb7d",
        "nonce": "0x24",
        "chainId": "0xa"
      },
      "additionalContracts": [],
      "isFixedGasLimit": false
    }
  ],
  "receipts": [
    {
      "status": "0x1",
      "cumulativeGasUsed": "0x4a11a7",
      "logs": [
        {
          "address": "0x7f5c764cbc14f9669b88837ca1490cca17c31607",
          "topics": [
            "0x8c5be1e5ebec7d5bd14f71427d1e84f3dd0314c0f7b2291e5b200ac8c7c3b925",
            "0x000000000000000000000000cda2fdb452ff4f5d7ba1c3d5dfcc9cb926a5eb7d",
            "0x000000000000000000000000c5ba7b7e9db0d470f5dafdb2b6782e8010cf4ee7"
          ],
          "data": "0xffffffffffffffffffffffffffffffffffffffffffffffffffffffffffffffff",
          "blockHash": "0x364b8951d02a6645c88563c838e6c9ae04a04e52824abaa454e383580f1b88ec",
          "blockNumber": "0x7cfdbe4",
          "transactionHash": "0x713e8a8b03caf962f3980716e1afce2f0c7f486a611a544c84fa5263d757541a",
          "transactionIndex": "0x16",
          "logIndex": "0x51",
          "removed": false
        }
      ],
      "logsBloom": "0x00000000000000000000008000000000000000000000000000000000000000000000000000000000000000000000000000000040000000000000000000200000000000000000000000000000040000000000000000000000000000000008000000000000000000000000000000000000000000000000800000000000000000000400400000000000000000000000000000000000000000000000000000000000020000000000000000000000000000000000000000004000000000000000000000000000000000000000000000000000000000000000000000000000000000000010000000000000000000000000000000000000000000000000000000010000",
      "type": "0x2",
      "transactionHash": "0x713e8a8b03caf962f3980716e1afce2f0c7f486a611a544c84fa5263d757541a",
      "transactionIndex": "0x16",
      "blockHash": "0x364b8951d02a6645c88563c838e6c9ae04a04e52824abaa454e383580f1b88ec",
      "blockNumber": "0x7cfdbe4",
      "gasUsed": "0xd09b",
      "effectiveGasPrice": "0x1e35",
      "from": "0xcda2fdb452ff4f5d7ba1c3d5dfcc9cb926a5eb7d",
      "to": "0x7f5c764cbc14f9669b88837ca1490cca17c31607",
      "contractAddress": null,
      "l1BaseFeeScalar": "0x146b",
      "l1BlobBaseFee": "0x16e8",
      "l1BlobBaseFeeScalar": "0xf79c5",
      "l1Fee": "0x23a66740e2",
      "l1GasPrice": "0x44340cad7",
      "l1GasUsed": "0x640"
    },
    {
      "status": "0x1",
      "cumulativeGasUsed": "0x4daea2",
      "logs": [
        {
          "address": "0x7f5c764cbc14f9669b88837ca1490cca17c31607",
          "topics": [
            "0xddf252ad1be2c89b69c2b068fc378daa952ba7f163c4a11628f55a4df523b3ef",
            "0x000000000000000000000000cda2fdb452ff4f5d7ba1c3d5dfcc9cb926a5eb7d",
            "0x000000000000000000000000c5ba7b7e9db0d470f5dafdb2b6782e8010cf4ee7"
          ],
          "data": "0x00000000000000000000000000000000000000000000000000000000004c4b40",
          "blockHash": "0x364b8951d02a6645c88563c838e6c9ae04a04e52824abaa454e383580f1b88ec",
          "blockNumber": "0x7cfdbe4",
          "transactionHash": "0x69dcdc3ef3da8b3fb162af92e80f86d5900ab7c98e73178c47051d38b7af8b47",
          "transactionIndex": "0x17",
          "logIndex": "0x52",
          "removed": false
        },
        {
          "address": "0x7f5c764cbc14f9669b88837ca1490cca17c31607",
          "topics": [
            "0x8c5be1e5ebec7d5bd14f71427d1e84f3dd0314c0f7b2291e5b200ac8c7c3b925",
            "0x000000000000000000000000cda2fdb452ff4f5d7ba1c3d5dfcc9cb926a5eb7d",
            "0x000000000000000000000000c5ba7b7e9db0d470f5dafdb2b6782e8010cf4ee7"
          ],
          "data": "0xffffffffffffffffffffffffffffffffffffffffffffffffffffffffffb3b4bf",
          "blockHash": "0x364b8951d02a6645c88563c838e6c9ae04a04e52824abaa454e383580f1b88ec",
          "blockNumber": "0x7cfdbe4",
          "transactionHash": "0x69dcdc3ef3da8b3fb162af92e80f86d5900ab7c98e73178c47051d38b7af8b47",
          "transactionIndex": "0x17",
          "logIndex": "0x53",
          "removed": false
        },
        {
          "address": "0x7f5c764cbc14f9669b88837ca1490cca17c31607",
          "topics": [
            "0x8c5be1e5ebec7d5bd14f71427d1e84f3dd0314c0f7b2291e5b200ac8c7c3b925",
            "0x000000000000000000000000c5ba7b7e9db0d470f5dafdb2b6782e8010cf4ee7",
            "0x000000000000000000000000794a61358d6845594f94dc1db02a252b5b4814ad"
          ],
          "data": "0x00000000000000000000000000000000000000000000000000000000004c4b40",
          "blockHash": "0x364b8951d02a6645c88563c838e6c9ae04a04e52824abaa454e383580f1b88ec",
          "blockNumber": "0x7cfdbe4",
          "transactionHash": "0x69dcdc3ef3da8b3fb162af92e80f86d5900ab7c98e73178c47051d38b7af8b47",
          "transactionIndex": "0x17",
          "logIndex": "0x54",
          "removed": false
        },
        {
          "address": "0x794a61358d6845594f94dc1db02a252b5b4814ad",
          "topics": [
            "0x804c9b842b2748a22bb64b345453a3de7ca54a6ca45ce00d415894979e22897a",
            "0x0000000000000000000000007f5c764cbc14f9669b88837ca1490cca17c31607"
          ],
          "data": "0x0000000000000000000000000000000000000000004ece45e3b01f81ea8f78620000000000000000000000000000000000000000000000000000000000000000000000000000000000000000000000000000000000ab71c098615b16b230c7080000000000000000000000000000000000000000039cfadfbf4eb8c365cbc8dd000000000000000000000000000000000000000003deeb1e3832377ea6cccabe",
          "blockHash": "0x364b8951d02a6645c88563c838e6c9ae04a04e52824abaa454e383580f1b88ec",
          "blockNumber": "0x7cfdbe4",
          "transactionHash": "0x69dcdc3ef3da8b3fb162af92e80f86d5900ab7c98e73178c47051d38b7af8b47",
          "transactionIndex": "0x17",
          "logIndex": "0x55",
          "removed": false
        },
        {
          "address": "0x7f5c764cbc14f9669b88837ca1490cca17c31607",
          "topics": [
            "0xddf252ad1be2c89b69c2b068fc378daa952ba7f163c4a11628f55a4df523b3ef",
            "0x000000000000000000000000c5ba7b7e9db0d470f5dafdb2b6782e8010cf4ee7",
            "0x000000000000000000000000625e7708f30ca75bfd92586e17077590c60eb4cd"
          ],
          "data": "0x00000000000000000000000000000000000000000000000000000000004c4b40",
          "blockHash": "0x364b8951d02a6645c88563c838e6c9ae04a04e52824abaa454e383580f1b88ec",
          "blockNumber": "0x7cfdbe4",
          "transactionHash": "0x69dcdc3ef3da8b3fb162af92e80f86d5900ab7c98e73178c47051d38b7af8b47",
          "transactionIndex": "0x17",
          "logIndex": "0x56",
          "removed": false
        },
        {
          "address": "0x7f5c764cbc14f9669b88837ca1490cca17c31607",
          "topics": [
            "0x8c5be1e5ebec7d5bd14f71427d1e84f3dd0314c0f7b2291e5b200ac8c7c3b925",
            "0x000000000000000000000000c5ba7b7e9db0d470f5dafdb2b6782e8010cf4ee7",
            "0x000000000000000000000000794a61358d6845594f94dc1db02a252b5b4814ad"
          ],
          "data": "0x0000000000000000000000000000000000000000000000000000000000000000",
          "blockHash": "0x364b8951d02a6645c88563c838e6c9ae04a04e52824abaa454e383580f1b88ec",
          "blockNumber": "0x7cfdbe4",
          "transactionHash": "0x69dcdc3ef3da8b3fb162af92e80f86d5900ab7c98e73178c47051d38b7af8b47",
          "transactionIndex": "0x17",
          "logIndex": "0x57",
          "removed": false
        },
        {
          "address": "0x625e7708f30ca75bfd92586e17077590c60eb4cd",
          "topics": [
            "0xddf252ad1be2c89b69c2b068fc378daa952ba7f163c4a11628f55a4df523b3ef",
            "0x0000000000000000000000000000000000000000000000000000000000000000",
            "0x000000000000000000000000c5ba7b7e9db0d470f5dafdb2b6782e8010cf4ee7"
          ],
          "data": "0x00000000000000000000000000000000000000000000000000000000004c4b94",
          "blockHash": "0x364b8951d02a6645c88563c838e6c9ae04a04e52824abaa454e383580f1b88ec",
          "blockNumber": "0x7cfdbe4",
          "transactionHash": "0x69dcdc3ef3da8b3fb162af92e80f86d5900ab7c98e73178c47051d38b7af8b47",
          "transactionIndex": "0x17",
          "logIndex": "0x58",
          "removed": false
        },
        {
          "address": "0x625e7708f30ca75bfd92586e17077590c60eb4cd",
          "topics": [
            "0x458f5fa412d0f69b08dd84872b0215675cc67bc1d5b6fd93300a1c3878b86196",
            "0x000000000000000000000000c5ba7b7e9db0d470f5dafdb2b6782e8010cf4ee7",
            "0x000000000000000000000000c5ba7b7e9db0d470f5dafdb2b6782e8010cf4ee7"
          ],
          "data": "0x00000000000000000000000000000000000000000000000000000000004c4b9400000000000000000000000000000000000000000000000000000000000000540000000000000000000000000000000000000000039cfadfbf4eb8c365cbc8dd",
          "blockHash": "0x364b8951d02a6645c88563c838e6c9ae04a04e52824abaa454e383580f1b88ec",
          "blockNumber": "0x7cfdbe4",
          "transactionHash": "0x69dcdc3ef3da8b3fb162af92e80f86d5900ab7c98e73178c47051d38b7af8b47",
          "transactionIndex": "0x17",
          "logIndex": "0x59",
          "removed": false
        },
        {
          "address": "0x794a61358d6845594f94dc1db02a252b5b4814ad",
          "topics": [
            "0x2b627736bca15cd5381dcf80b0bf11fd197d01a037c52b927a881a10fb73ba61",
            "0x0000000000000000000000007f5c764cbc14f9669b88837ca1490cca17c31607",
            "0x000000000000000000000000c5ba7b7e9db0d470f5dafdb2b6782e8010cf4ee7",
            "0x0000000000000000000000000000000000000000000000000000000000000000"
          ],
          "data": "0x000000000000000000000000c5ba7b7e9db0d470f5dafdb2b6782e8010cf4ee700000000000000000000000000000000000000000000000000000000004c4b40",
          "blockHash": "0x364b8951d02a6645c88563c838e6c9ae04a04e52824abaa454e383580f1b88ec",
          "blockNumber": "0x7cfdbe4",
          "transactionHash": "0x69dcdc3ef3da8b3fb162af92e80f86d5900ab7c98e73178c47051d38b7af8b47",
          "transactionIndex": "0x17",
          "logIndex": "0x5a",
          "removed": false
        },
        {
          "address": "0xc5ba7b7e9db0d470f5dafdb2b6782e8010cf4ee7",
          "topics": [
            "0xddf252ad1be2c89b69c2b068fc378daa952ba7f163c4a11628f55a4df523b3ef",
            "0x0000000000000000000000000000000000000000000000000000000000000000",
            "0x000000000000000000000000cda2fdb452ff4f5d7ba1c3d5dfcc9cb926a5eb7d"
          ],
          "data": "0x00000000000000000000000000000000000000000000001a50c87e69c7da9b3f",
          "blockHash": "0x364b8951d02a6645c88563c838e6c9ae04a04e52824abaa454e383580f1b88ec",
          "blockNumber": "0x7cfdbe4",
          "transactionHash": "0x69dcdc3ef3da8b3fb162af92e80f86d5900ab7c98e73178c47051d38b7af8b47",
          "transactionIndex": "0x17",
          "logIndex": "0x5b",
          "removed": false
        },
        {
          "address": "0xc5ba7b7e9db0d470f5dafdb2b6782e8010cf4ee7",
          "topics": [
            "0xdcbc1c05240f31ff3ad067ef1ee35ce4997762752e3a095284754544f4c709d7",
            "0x000000000000000000000000cda2fdb452ff4f5d7ba1c3d5dfcc9cb926a5eb7d",
            "0x000000000000000000000000cda2fdb452ff4f5d7ba1c3d5dfcc9cb926a5eb7d"
          ],
          "data": "0x00000000000000000000000000000000000000000000000000000000004c4b4000000000000000000000000000000000000000000000001a50c87e69c7da9b3f",
          "blockHash": "0x364b8951d02a6645c88563c838e6c9ae04a04e52824abaa454e383580f1b88ec",
          "blockNumber": "0x7cfdbe4",
          "transactionHash": "0x69dcdc3ef3da8b3fb162af92e80f86d5900ab7c98e73178c47051d38b7af8b47",
          "transactionIndex": "0x17",
          "logIndex": "0x5c",
          "removed": false
        }
      ],
      "logsBloom": "0x00080000000000000000008000000000000000000000000000000000000000000001000000000000000000800004000000000040000004000000000000200000000001400000008000000008040000008000044000000000800000040008000002000000020000000000000000000800000000000004840000000010000000000400400000000000000200000000000000000800008000000000000000000000020000000000000000000000000000000000000000004100000000000000010002000002000000000000002040000000000000000008000000000000000020000010000000000000000000040000000040000000000000000000400000010000",
      "type": "0x2",
      "transactionHash": "0x69dcdc3ef3da8b3fb162af92e80f86d5900ab7c98e73178c47051d38b7af8b47",
      "transactionIndex": "0x17",
      "blockHash": "0x364b8951d02a6645c88563c838e6c9ae04a04e52824abaa454e383580f1b88ec",
      "blockNumber": "0x7cfdbe4",
      "gasUsed": "0x39cfb",
      "effectiveGasPrice": "0x1e35",
      "from": "0xcda2fdb452ff4f5d7ba1c3d5dfcc9cb926a5eb7d",
      "to": "0xc5ba7b7e9db0d470f5dafdb2b6782e8010cf4ee7",
      "contractAddress": null,
      "l1BaseFeeScalar": "0x146b",
      "l1BlobBaseFee": "0x16e8",
      "l1BlobBaseFeeScalar": "0xf79c5",
      "l1Fee": "0x23a66740e2",
      "l1GasPrice": "0x44340cad7",
      "l1GasUsed": "0x640"
    }
  ],
  "libraries": [],
  "pending": [],
  "returns": {},
  "timestamp": 1737724290,
  "chain": 10,
  "commit": "c03c0fa"
}