{
  "transactions": [
    {
      "hash": "0x43f4b0e44af68e0e80d9adbbf9644774627514d2aa24ff4855b2da1b20c17ce2",
      "transactionType": "CALL",
      "contractName": null,
      "contractAddress": "0x7f5c764cbc14f9669b88837ca1490cca17c31607",
      "function": "approve(address,uint256)",
      "arguments": [
        "0x5e3b8296a8327F871700638cD9B6C516726cA99B",
        "115792089237316195423570985008687907853269984665640564039457584007913129639935"
      ],
      "transaction": {
        "from": "0xcda2fdb452ff4f5d7ba1c3d5dfcc9cb926a5eb7d",
        "to": "0x7f5c764cbc14f9669b88837ca1490cca17c31607",
        "gas": "0x12011",
        "value": "0x0",
        "input": "0x095ea7b30000000000000000000000005e3b8296a8327f871700638cd9b6c516726ca99bffffffffffffffffffffffffffffffffffffffffffffffffffffffffffffffff",
        "nonce": "0x17",
        "chainId": "0xa"
      },
      "additionalContracts": [],
      "isFixedGasLimit": false
    },
    {
      "hash": "0x7556436ecc7be55027055d6589bf83c03d40b066d227a26c4b43924438701ca6",
      "transactionType": "CALL",
      "contractName": null,
      "contractAddress": "0x5e3b8296a8327f871700638cd9b6c516726ca99b",
      "function": "deposit(uint256,address)",
      "arguments": [
        "5000000",
        "0xcdA2fDB452FF4F5D7Ba1C3d5dFCc9CB926A5eb7D"
      ],
      "transaction": {
        "from": "0xcda2fdb452ff4f5d7ba1c3d5dfcc9cb926a5eb7d",
        "to": "0x5e3b8296a8327f871700638cd9b6c516726ca99b",
        "gas": "0x54902",
        "value": "0x0",
        "input": "0x6e553f6500000000000000000000000000000000000000000000000000000000004c4b40000000000000000000000000cda2fdb452ff4f5d7ba1c3d5dfcc9cb926a5eb7d",
        "nonce": "0x18",
        "chainId": "0xa"
      },
      "additionalContracts": [],
      "isFixedGasLimit": false
    }
  ],
  "receipts": [
    {
      "status": "0x1",
      "cumulativeGasUsed": "0x1fd446",
      "logs": [
        {
          "address": "0x7f5c764cbc14f9669b88837ca1490cca17c31607",
          "topics": [
            "0x8c5be1e5ebec7d5bd14f71427d1e84f3dd0314c0f7b2291e5b200ac8c7c3b925",
            "0x000000000000000000000000cda2fdb452ff4f5d7ba1c3d5dfcc9cb926a5eb7d",
            "0x0000000000000000000000005e3b8296a8327f871700638cd9b6c516726ca99b"
          ],
          "data": "0xffffffffffffffffffffffffffffffffffffffffffffffffffffffffffffffff",
          "blockHash": "0xcd3864e439e592e891cc988901f70b7baf961170416b92e5bb5e2ecc597aaf87",
          "blockNumber": "0x7cfccd5",
          "transactionHash": "0x43f4b0e44af68e0e80d9adbbf9644774627514d2aa24ff4855b2da1b20c17ce2",
          "transactionIndex": "0xc",
          "logIndex": "0x14",
          "removed": false
        }
      ],
      "logsBloom": "0x00000000000000000000008000000000000000000000000000000000000000000000000000000000000000000000000000000040000000000000000000200000000000000000000000000000040000000000000000000000000000000000000000000000000000000000000000000000000000000000800000000000000000000000000000000000000000000000000000000000000000000000000000000000020000000000000000000000000000000000200000004000000000000000000000000000000000000000000000000000000000000000000000000000000000000010000000000000000000000000000000000000008000000000000000010040",
      "type": "0x2",
      "transactionHash": "0x43f4b0e44af68e0e80d9adbbf9644774627514d2aa24ff4855b2da1b20c17ce2",
      "transactionIndex": "0xc",
      "blockHash": "0xcd3864e439e592e891cc988901f70b7baf961170416b92e5bb5e2ecc597aaf87",
      "blockNumber": "0x7cfccd5",
      "gasUsed": "0xd08f",
      "effectiveGasPrice": "0x1892c",
      "from": "0xcda2fdb452ff4f5d7ba1c3d5dfcc9cb926a5eb7d",
      "to": "0x7f5c764cbc14f9669b88837ca1490cca17c31607",
      "contractAddress": null,
      "l1BaseFeeScalar": "0x146b",
      "l1BlobBaseFee": "0x35d517",
      "l1BlobBaseFeeScalar": "0xf79c5",
      "l1Fee": "0x2129039ff7",
      "l1GasPrice": "0x3f47e60c3",
      "l1GasUsed": "0x640"
    },
    {
      "status": "0x1",
      "cumulativeGasUsed": "0x25bf24",
      "logs": [
        {
          "address": "0x7f5c764cbc14f9669b88837ca1490cca17c31607",
          "topics": [
            "0xddf252ad1be2c89b69c2b068fc378daa952ba7f163c4a11628f55a4df523b3ef",
            "0x000000000000000000000000cda2fdb452ff4f5d7ba1c3d5dfcc9cb926a5eb7d",
            "0x0000000000000000000000005e3b8296a8327f871700638cd9b6c516726ca99b"
          ],
          "data": "0x00000000000000000000000000000000000000000000000000000000004c4b40",
          "blockHash": "0xcd3864e439e592e891cc988901f70b7baf961170416b92e5bb5e2ecc597aaf87",
          "blockNumber": "0x7cfccd5",
          "transactionHash": "0x7556436ecc7be55027055d6589bf83c03d40b066d227a26c4b43924438701ca6",
          "transactionIndex": "0xe",
          "logIndex": "0x18",
          "removed": false
        },
        {
          "address": "0x7f5c764cbc14f9669b88837ca1490cca17c31607",
          "topics": [
            "0x8c5be1e5ebec7d5bd14f71427d1e84f3dd0314c0f7b2291e5b200ac8c7c3b925",
            "0x000000000000000000000000cda2fdb452ff4f5d7ba1c3d5dfcc9cb926a5eb7d",
            "0x0000000000000000000000005e3b8296a8327f871700638cd9b6c516726ca99b"
          ],
          "data": "0xffffffffffffffffffffffffffffffffffffffffffffffffffffffffffb3b4bf",
          "blockHash": "0xcd3864e439e592e891cc988901f70b7baf961170416b92e5bb5e2ecc597aaf87",
          "blockNumber": "0x7cfccd5",
          "transactionHash": "0x7556436ecc7be55027055d6589bf83c03d40b066d227a26c4b43924438701ca6",
          "transactionIndex": "0xe",
          "logIndex": "0x19",
          "removed": false
        },
        {
          "address": "0x7f5c764cbc14f9669b88837ca1490cca17c31607",
          "topics": [
            "0x8c5be1e5ebec7d5bd14f71427d1e84f3dd0314c0f7b2291e5b200ac8c7c3b925",
            "0x0000000000000000000000005e3b8296a8327f871700638cd9b6c516726ca99b",
            "0x000000000000000000000000794a61358d6845594f94dc1db02a252b5b4814ad"
          ],
          "data": "0x00000000000000000000000000000000000000000000000000000000004c4b40",
          "blockHash": "0xcd3864e439e592e891cc988901f70b7baf961170416b92e5bb5e2ecc597aaf87",
          "blockNumber": "0x7cfccd5",
          "transactionHash": "0x7556436ecc7be55027055d6589bf83c03d40b066d227a26c4b43924438701ca6",
          "transactionIndex": "0xe",
          "logIndex": "0x1a",
          "removed": false
        },
        {
          "address": "0x794a61358d6845594f94dc1db02a252b5b4814ad",
          "topics": [
            "0x804c9b842b2748a22bb64b345453a3de7ca54a6ca45ce00d415894979e22897a",
            "0x0000000000000000000000007f5c764cbc14f9669b88837ca1490cca17c31607"
          ],
          "data": "0x0000000000000000000000000000000000000000005ab915ffc37fdce6db16980000000000000000000000000000000000000000000000000000000000000000000000000000000000000000000000000000000000c3cd7c81aa06580cfb668c0000000000000000000000000000000000000000039cf5575a2143b5558ecad9000000000000000000000000000000000000000003dede400c82fcaac0ee760b",
          "blockHash": "0xcd3864e439e592e891cc988901f70b7baf961170416b92e5bb5e2ecc597aaf87",
          "blockNumber": "0x7cfccd5",
          "transactionHash": "0x7556436ecc7be55027055d6589bf83c03d40b066d227a26c4b43924438701ca6",
          "transactionIndex": "0xe",
          "logIndex": "0x1b",
          "removed": false
        },
        {
          "address": "0x7f5c764cbc14f9669b88837ca1490cca17c31607",
          "topics": [
            "0xddf252ad1be2c89b69c2b068fc378daa952ba7f163c4a11628f55a4df523b3ef",
            "0x0000000000000000000000005e3b8296a8327f871700638cd9b6c516726ca99b",
            "0x000000000000000000000000625e7708f30ca75bfd92586e17077590c60eb4cd"
          ],
          "data": "0x00000000000000000000000000000000000000000000000000000000004c4b40",
          "blockHash": "0xcd3864e439e592e891cc988901f70b7baf961170416b92e5bb5e2ecc597aaf87",
          "blockNumber": "0x7cfccd5",
          "transactionHash": "0x7556436ecc7be55027055d6589bf83c03d40b066d227a26c4b43924438701ca6",
          "transactionIndex": "0xe",
          "logIndex": "0x1c",
          "removed": false
        },
        {
          "address": "0x7f5c764cbc14f9669b88837ca1490cca17c31607",
          "topics": [
            "0x8c5be1e5ebec7d5bd14f71427d1e84f3dd0314c0f7b2291e5b200ac8c7c3b925",
            "0x0000000000000000000000005e3b8296a8327f871700638cd9b6c516726ca99b",
            "0x000000000000000000000000794a61358d6845594f94dc1db02a252b5b4814ad"
          ],
          "data": "0x0000000000000000000000000000000000000000000000000000000000000000",
          "blockHash": "0xcd3864e439e592e891cc988901f70b7baf961170416b92e5bb5e2ecc597aaf87",
          "blockNumber": "0x7cfccd5",
          "transactionHash": "0x7556436ecc7be55027055d6589bf83c03d40b066d227a26c4b43924438701ca6",
          "transactionIndex": "0xe",
          "logIndex": "0x1d",
          "removed": false
        },
        {
          "address": "0x625e7708f30ca75bfd92586e17077590c60eb4cd",
          "topics": [
            "0xddf252ad1be2c89b69c2b068fc378daa952ba7f163c4a11628f55a4df523b3ef",
            "0x0000000000000000000000000000000000000000000000000000000000000000",
            "0x0000000000000000000000005e3b8296a8327f871700638cd9b6c516726ca99b"
          ],
          "data": "0x00000000000000000000000000000000000000000000000000000000004c4b46",
          "blockHash": "0xcd3864e439e592e891cc988901f70b7baf961170416b92e5bb5e2ecc597aaf87",
          "blockNumber": "0x7cfccd5",
          "transactionHash": "0x7556436ecc7be55027055d6589bf83c03d40b066d227a26c4b43924438701ca6",
          "transactionIndex": "0xe",
          "logIndex": "0x1e",
          "removed": false
        },
        {
          "address": "0x625e7708f30ca75bfd92586e17077590c60eb4cd",
          "topics": [
            "0x458f5fa412d0f69b08dd84872b0215675cc67bc1d5b6fd93300a1c3878b86196",
            "0x0000000000000000000000005e3b8296a8327f871700638cd9b6c516726ca99b",
            "0x0000000000000000000000005e3b8296a8327f871700638cd9b6c516726ca99b"
          ],
          "data": "0x00000000000000000000000000000000000000000000000000000000004c4b4600000000000000000000000000000000000000000000000000000000000000060000000000000000000000000000000000000000039cf5575a2143b5558ecad9",
          "blockHash": "0xcd3864e439e592e891cc988901f70b7baf961170416b92e5bb5e2ecc597aaf87",
          "blockNumber": "0x7cfccd5",
          "transactionHash": "0x7556436ecc7be55027055d6589bf83c03d40b066d227a26c4b43924438701ca6",
          "transactionIndex": "0xe",
          "logIndex": "0x1f",
          "removed": false
        },
        {
          "address": "0x794a61358d6845594f94dc1db02a252b5b4814ad",
          "topics": [
            "0x2b627736bca15cd5381dcf80b0bf11fd197d01a037c52b927a881a10fb73ba61",
            "0x0000000000000000000000007f5c764cbc14f9669b88837ca1490cca17c31607",
            "0x0000000000000000000000005e3b8296a8327f871700638cd9b6c516726ca99b",
            "0x0000000000000000000000000000000000000000000000000000000000000000"
          ],
          "data": "0x0000000000000000000000005e3b8296a8327f871700638cd9b6c516726ca99b00000000000000000000000000000000000000000000000000000000004c4b40",
          "blockHash": "0xcd3864e439e592e891cc988901f70b7baf961170416b92e5bb5e2ecc597aaf87",
          "blockNumber": "0x7cfccd5",
          "transactionHash": "0x7556436ecc7be55027055d6589bf83c03d40b066d227a26c4b43924438701ca6",
          "transactionIndex": "0xe",
          "logIndex": "0x20",
          "removed": false
        },
        {
          "address": "0x5e3b8296a8327f871700638cd9b6c516726ca99b",
          "topics": [
            "0xddf252ad1be2c89b69c2b068fc378daa952ba7f163c4a11628f55a4df523b3ef",
            "0x0000000000000000000000000000000000000000000000000000000000000000",
            "0x000000000000000000000000cda2fdb452ff4f5d7ba1c3d5dfcc9cb926a5eb7d"
          ],
          "data": "0x0000000000000000000000000000000000000000000000004215abdc1bac507e",
          "blockHash": "0xcd3864e439e592e891cc988901f70b7baf961170416b92e5bb5e2ecc597aaf87",
          "blockNumber": "0x7cfccd5",
          "transactionHash": "0x7556436ecc7be55027055d6589bf83c03d40b066d227a26c4b43924438701ca6",
          "transactionIndex": "0xe",
          "logIndex": "0x21",
          "removed": false
        },
        {
          "address": "0x5e3b8296a8327f871700638cd9b6c516726ca99b",
          "topics": [
            "0xdcbc1c05240f31ff3ad067ef1ee35ce4997762752e3a095284754544f4c709d7",
            "0x000000000000000000000000cda2fdb452ff4f5d7ba1c3d5dfcc9cb926a5eb7d",
            "0x000000000000000000000000cda2fdb452ff4f5d7ba1c3d5dfcc9cb926a5eb7d"
          ],
          "data": "0x00000000000000000000000000000000000000000000000000000000004c4b400000000000000000000000000000000000000000000000004215abdc1bac507e",
          "blockHash": "0xcd3864e439e592e891cc988901f70b7baf961170416b92e5bb5e2ecc597aaf87",
          "blockNumber": "0x7cfccd5",
          "transactionHash": "0x7556436ecc7be55027055d6589bf83c03d40b066d227a26c4b43924438701ca6",
          "transactionIndex": "0xe",
          "logIndex": "0x22",
          "removed": false
        }
      ],
      "logsBloom": "0x00080000000000000000008000000000000000000000000000000000000000000001000000000000000000000004000000000040000004000000000000200000000001400000000000000008040008008000044000000000800000040000000002000000020000000000000000000800000000000004800000000010000000000400000000000000000200000000000000000800008000000000000000000000020000000000000000000000000000000000200000004100000000000000010002000002000000000000002040000000000000100008000000000000000020000010000000000000000000040000000040000000008800000000400000010040",
      "type": "0x2",
      "transactionHash": "0x7556436ecc7be55027055d6589bf83c03d40b066d227a26c4b43924438701ca6",
      "transactionIndex": "0xe",
      "blockHash": "0xcd3864e439e592e891cc988901f70b7baf961170416b92e5bb5e2ecc597aaf87",
      "blockNumber": "0x7cfccd5",
      "gasUsed": "0x39d23",
      "effectiveGasPrice": "0x1892c",
      "from": "0xcda2fdb452ff4f5d7ba1c3d5dfcc9cb926a5eb7d",
      "to": "0x5e3b8296a8327f871700638cd9b6c516726ca99b",
      "contractAddress": null,
      "l1BaseFeeScalar": "0x146b",
      "l1BlobBaseFee": "0x35d517",
      "l1BlobBaseFeeScalar": "0xf79c5",
      "l1Fee": "0x2129039ff7",
      "l1GasPrice": "0x3f47e60c3",
      "l1GasUsed": "0x640"
    }
  ],
  "libraries": [],
  "pending": [],
  "returns": {},
  "timestamp": 1737716587,
  "chain": 10,
  "commit": "c03c0fa"
}