{
  "transactions": [
    {
      "hash": "0x4f896ae171c0a127deb59ca333e2b62ce7c9731bd4e63e4d835fbcda06830914",
      "transactionType": "CALL",
      "contractName": null,
      "contractAddress": "0x7f5c764cbc14f9669b88837ca1490cca17c31607",
      "function": "approve(address,uint256)",
      "arguments": [
        "0xD51b286aD70a7b1c0E9DE8755b260c1eF055B79A",
        "115792089237316195423570985008687907853269984665640564039457584007913129639935"
      ],
      "transaction": {
        "from": "0xcda2fdb452ff4f5d7ba1c3d5dfcc9cb926a5eb7d",
        "to": "0x7f5c764cbc14f9669b88837ca1490cca17c31607",
        "gas": "0x13115",
        "value": "0x0",
        "input": "0x095ea7b3000000000000000000000000d51b286ad70a7b1c0e9de8755b260c1ef055b79affffffffffffffffffffffffffffffffffffffffffffffffffffffffffffffff",
        "nonce": "0x2e",
        "chainId": "0xa"
      },
      "additionalContracts": [],
      "isFixedGasLimit": false
    },
    {
      "hash": "0xb291ce5e5bb3d53cf37fdddaac008eb9c514d37fcde81a20b9ddaf8522110994",
      "transactionType": "CALL",
      "contractName": null,
      "contractAddress": "0xd51b286ad70a7b1c0e9de8755b260c1ef055b79a",
      "function": "withdraw(uint256,address,address)",
      "arguments": [
        "5000000",
        "0xcdA2fDB452FF4F5D7Ba1C3d5dFCc9CB926A5eb7D",
        "0xcdA2fDB452FF4F5D7Ba1C3d5dFCc9CB926A5eb7D"
      ],
      "transaction": {
        "from": "0xcda2fdb452ff4f5d7ba1c3d5dfcc9cb926a5eb7d",
        "to": "0xd51b286ad70a7b1c0e9de8755b260c1ef055b79a",
        "gas": "0x55ba8",
        "value": "0x0",
        "input": "0xb460af9400000000000000000000000000000000000000000000000000000000004c4b40000000000000000000000000cda2fdb452ff4f5d7ba1c3d5dfcc9cb926a5eb7d000000000000000000000000cda2fdb452ff4f5d7ba1c3d5dfcc9cb926a5eb7d",
        "nonce": "0x2f",
        "chainId": "0xa"
      },
      "additionalContracts": [],
      "isFixedGasLimit": false
    },
    {
      "hash": "0xa310b6f8d8dd041d76bd7b77f463c4fef2b7095afa1c597a4b0e00475b05ffa3",
      "transactionType": "CALL",
      "contractName": null,
      "contractAddress": "0xd51b286ad70a7b1c0e9de8755b260c1ef055b79a",
      "function": "deposit(uint256,address)",
      "arguments": [
        "5000000",
        "0xcdA2fDB452FF4F5D7Ba1C3d5dFCc9CB926A5eb7D"
      ],
      "transaction": {
        "from": "0xcda2fdb452ff4f5d7ba1c3d5dfcc9cb926a5eb7d",
        "to": "0xd51b286ad70a7b1c0e9de8755b260c1ef055b79a",
        "gas": "0x4fc8a",
        "value": "0x0",
        "input": "0x6e553f6500000000000000000000000000000000000000000000000000000000004c4b40000000000000000000000000cda2fdb452ff4f5d7ba1c3d5dfcc9cb926a5eb7d",
        "nonce": "0x30",
        "chainId": "0xa"
      },
      "additionalContracts": [],
      "isFixedGasLimit": false
    }
  ],
  "receipts": [
    {
      "status": "0x1",
      "cumulativeGasUsed": "0x57656f",
      "logs": [
        {
          "address": "0x7f5c764cbc14f9669b88837ca1490cca17c31607",
          "topics": [
            "0x8c5be1e5ebec7d5bd14f71427d1e84f3dd0314c0f7b2291e5b200ac8c7c3b925",
            "0x000000000000000000000000cda2fdb452ff4f5d7ba1c3d5dfcc9cb926a5eb7d",
            "0x000000000000000000000000d51b286ad70a7b1c0e9de8755b260c1ef055b79a"
          ],
          "data": "0xffffffffffffffffffffffffffffffffffffffffffffffffffffffffffffffff",
          "blockHash": "0x8a25a16a65e89d056bb642b5065cddd65672d56a6acbbb7227f79c218f0cdc64",
          "blockNumber": "0x7cfe1d2",
          "transactionHash": "0x4f896ae171c0a127deb59ca333e2b62ce7c9731bd4e63e4d835fbcda06830914",
          "transactionIndex": "0xd",
          "logIndex": "0x3a",
          "removed": false
        }
      ],
      "logsBloom": "0x00000000000000000000008000000000000000000000000000000000000000000000000000000000000000000000000000000040000000000000000000200001000000000000000000000000040000000000000000000000000000000000000000000000000000000000000000000000000000000000800000000000000000000000000040000000000000000000000000000000000000000000000000000000020000000000000000000000000000000000000000004000000000000000000000000000000000000000000000000000000000000000000000000000000000000010000000000000000000000008000000000000000000000000000000010000",
      "type": "0x2",
      "transactionHash": "0x4f896ae171c0a127deb59ca333e2b62ce7c9731bd4e63e4d835fbcda06830914",
      "transactionIndex": "0xd",
      "blockHash": "0x8a25a16a65e89d056bb642b5065cddd65672d56a6acbbb7227f79c218f0cdc64",
      "blockNumber": "0x7cfe1d2",
      "gasUsed": "0xd09b",
      "effectiveGasPrice": "0x35d",
      "from": "0xcda2fdb452ff4f5d7ba1c3d5dfcc9cb926a5eb7d",
      "to": "0x7f5c764cbc14f9669b88837ca1490cca17c31607",
      "contractAddress": null,
      "l1BaseFeeScalar": "0x146b",
      "l1BlobBaseFee": "0xf192",
      "l1BlobBaseFeeScalar": "0xf79c5",
      "l1Fee": "0x2b8f1285b3",
      "l1GasPrice": "0x5354e252d",
      "l1GasUsed": "0x640"
    },
    {
      "status": "0x1",
      "cumulativeGasUsed": "0x5b0f52",
      "logs": [
        {
          "address": "0x794a61358d6845594f94dc1db02a252b5b4814ad",
          "topics": [
            "0x804c9b842b2748a22bb64b345453a3de7ca54a6ca45ce00d415894979e22897a",
            "0x0000000000000000000000007f5c764cbc14f9669b88837ca1490cca17c31607"
          ],
          "data": "0x0000000000000000000000000000000000000000004ec4f972a2fb831f73f90a0000000000000000000000000000000000000000000000000000000000000000000000000000000000000000000000000000000000ab5e9a12ef0de5b39b06c40000000000000000000000000000000000000000039cfd06df0b51ab25c44d9b000000000000000000000000000000000000000003def0233936059304cd461c",
          "blockHash": "0x8a25a16a65e89d056bb642b5065cddd65672d56a6acbbb7227f79c218f0cdc64",
          "blockNumber": "0x7cfe1d2",
          "transactionHash": "0xb291ce5e5bb3d53cf37fdddaac008eb9c514d37fcde81a20b9ddaf8522110994",
          "transactionIndex": "0xe",
          "logIndex": "0x3b",
          "removed": false
        },
        {
          "address": "0x625e7708f30ca75bfd92586e17077590c60eb4cd",
          "topics": [
            "0xddf252ad1be2c89b69c2b068fc378daa952ba7f163c4a11628f55a4df523b3ef",
            "0x000000000000000000000000d51b286ad70a7b1c0e9de8755b260c1ef055b79a",
            "0x0000000000000000000000000000000000000000000000000000000000000000"
          ],
          "data": "0x00000000000000000000000000000000000000000000000000000000004c4ad2",
          "blockHash": "0x8a25a16a65e89d056bb642b5065cddd65672d56a6acbbb7227f79c218f0cdc64",
          "blockNumber": "0x7cfe1d2",
          "transactionHash": "0xb291ce5e5bb3d53cf37fdddaac008eb9c514d37fcde81a20b9ddaf8522110994",
          "transactionIndex": "0xe",
          "logIndex": "0x3c",
          "removed": false
        },
        {
          "address": "0x625e7708f30ca75bfd92586e17077590c60eb4cd",
          "topics": [
            "0x4cf25bc1d991c17529c25213d3cc0cda295eeaad5f13f361969b12ea48015f90",
            "0x000000000000000000000000d51b286ad70a7b1c0e9de8755b260c1ef055b79a",
            "0x000000000000000000000000d51b286ad70a7b1c0e9de8755b260c1ef055b79a"
          ],
          "data": "0x00000000000000000000000000000000000000000000000000000000004c4ad2000000000000000000000000000000000000000000000000000000000000006e0000000000000000000000000000000000000000039cfd06df0b51ab25c44d9b",
          "blockHash": "0x8a25a16a65e89d056bb642b5065cddd65672d56a6acbbb7227f79c218f0cdc64",
          "blockNumber": "0x7cfe1d2",
          "transactionHash": "0xb291ce5e5bb3d53cf37fdddaac008eb9c514d37fcde81a20b9ddaf8522110994",
          "transactionIndex": "0xe",
          "logIndex": "0x3d",
          "removed": false
        },
        {
          "address": "0x7f5c764cbc14f9669b88837ca1490cca17c31607",
          "topics": [
            "0xddf252ad1be2c89b69c2b068fc378daa952ba7f163c4a11628f55a4df523b3ef",
            "0x000000000000000000000000625e7708f30ca75bfd92586e17077590c60eb4cd",
            "0x000000000000000000000000d51b286ad70a7b1c0e9de8755b260c1ef055b79a"
          ],
          "data": "0x00000000000000000000000000000000000000000000000000000000004c4b40",
          "blockHash": "0x8a25a16a65e89d056bb642b5065cddd65672d56a6acbbb7227f79c218f0cdc64",
          "blockNumber": "0x7cfe1d2",
          "transactionHash": "0xb291ce5e5bb3d53cf37fdddaac008eb9c514d37fcde81a20b9ddaf8522110994",
          "transactionIndex": "0xe",
          "logIndex": "0x3e",
          "removed": false
        },
        {
          "address": "0x794a61358d6845594f94dc1db02a252b5b4814ad",
          "topics": [
            "0x3115d1449a7b732c986cba18244e897a450f61e1bb8d589cd2e69e6c8924f9f7",
            "0x0000000000000000000000007f5c764cbc14f9669b88837ca1490cca17c31607",
            "0x000000000000000000000000d51b286ad70a7b1c0e9de8755b260c1ef055b79a",
            "0x000000000000000000000000d51b286ad70a7b1c0e9de8755b260c1ef055b79a"
          ],
          "data": "0x00000000000000000000000000000000000000000000000000000000004c4b40",
          "blockHash": "0x8a25a16a65e89d056bb642b5065cddd65672d56a6acbbb7227f79c218f0cdc64",
          "blockNumber": "0x7cfe1d2",
          "transactionHash": "0xb291ce5e5bb3d53cf37fdddaac008eb9c514d37fcde81a20b9ddaf8522110994",
          "transactionIndex": "0xe",
          "logIndex": "0x3f",
          "removed": false
        },
        {
          "address": "0xd51b286ad70a7b1c0e9de8755b260c1ef055b79a",
          "topics": [
            "0xddf252ad1be2c89b69c2b068fc378daa952ba7f163c4a11628f55a4df523b3ef",
            "0x000000000000000000000000cda2fdb452ff4f5d7ba1c3d5dfcc9cb926a5eb7d",
            "0x0000000000000000000000000000000000000000000000000000000000000000"
          ],
          "data": "0x000000000000000000000000000000000000000000000002cab495dab5022aa0",
          "blockHash": "0x8a25a16a65e89d056bb642b5065cddd65672d56a6acbbb7227f79c218f0cdc64",
          "blockNumber": "0x7cfe1d2",
          "transactionHash": "0xb291ce5e5bb3d53cf37fdddaac008eb9c514d37fcde81a20b9ddaf8522110994",
          "transactionIndex": "0xe",
          "logIndex": "0x40",
          "removed": false
        },
        {
          "address": "0x7f5c764cbc14f9669b88837ca1490cca17c31607",
          "topics": [
            "0xddf252ad1be2c89b69c2b068fc378daa952ba7f163c4a11628f55a4df523b3ef",
            "0x000000000000000000000000d51b286ad70a7b1c0e9de8755b260c1ef055b79a",
            "0x000000000000000000000000cda2fdb452ff4f5d7ba1c3d5dfcc9cb926a5eb7d"
          ],
          "data": "0x00000000000000000000000000000000000000000000000000000000004c4b40",
          "blockHash": "0x8a25a16a65e89d056bb642b5065cddd65672d56a6acbbb7227f79c218f0cdc64",
          "blockNumber": "0x7cfe1d2",
          "transactionHash": "0xb291ce5e5bb3d53cf37fdddaac008eb9c514d37fcde81a20b9ddaf8522110994",
          "transactionIndex": "0xe",
          "logIndex": "0x41",
          "removed": false
        },
        {
          "address": "0xd51b286ad70a7b1c0e9de8755b260c1ef055b79a",
          "topics": [
            "0xfbde797d201c681b91056529119e0b02407c7bb96a4a2c75c01fc9667232c8db",
            "0x000000000000000000000000cda2fdb452ff4f5d7ba1c3d5dfcc9cb926a5eb7d",
            "0x000000000000000000000000cda2fdb452ff4f5d7ba1c3d5dfcc9cb926a5eb7d",
            "0x000000000000000000000000cda2fdb452ff4f5d7ba1c3d5dfcc9cb926a5eb7d"
          ],
          "data": "0x00000000000000000000000000000000000000000000000000000000004c4b40000000000000000000000000000000000000000000000002cab495dab5022aa0",
          "blockHash": "0x8a25a16a65e89d056bb642b5065cddd65672d56a6acbbb7227f79c218f0cdc64",
          "blockNumber": "0x7cfe1d2",
          "transactionHash": "0xb291ce5e5bb3d53cf37fdddaac008eb9c514d37fcde81a20b9ddaf8522110994",
          "transactionIndex": "0xe",
          "logIndex": "0x42",
          "removed": false
        }
      ],
      "logsBloom": "0x10080000000000400000008000000000008000000004000000000000000000000001000000000000000000000000000000010040000004000000000000000001000001000000000000000008040000008000044000080000000000000000000002000000020000000000000000000800000000000000820000000010000000000400000040000000000200000000000000000000008000000000000000000000000000000080000000000000000000020000000000004000000000000000010000000002000000000000002000000000000000000000000000000000000020040000000000000000000000040008000000000000040000000000000000010000",
      "type": "0x2",
      "transactionHash": "0xb291ce5e5bb3d53cf37fdddaac008eb9c514d37fcde81a20b9ddaf8522110994",
      "transactionIndex": "0xe",
      "blockHash": "0x8a25a16a65e89d056bb642b5065cddd65672d56a6acbbb7227f79c218f0cdc64",
      "blockNumber": "0x7cfe1d2",
      "gasUsed": "0x3a9e3",
      "effectiveGasPrice": "0x35d",
      "from": "0xcda2fdb452ff4f5d7ba1c3d5dfcc9cb926a5eb7d",
      "to": "0xd51b286ad70a7b1c0e9de8755b260c1ef055b79a",
      "contractAddress": null,
      "l1BaseFeeScalar": "0x146b",
      "l1BlobBaseFee": "0xf192",
      "l1BlobBaseFeeScalar": "0xf79c5",
      "l1Fee": "0x2b8f1285b3",
      "l1GasPrice": "0x5354e252d",
      "l1GasUsed": "0x640"
    },
    {
      "status": "0x1",
      "cumulativeGasUsed": "0x5e782b",
      "logs": [
        {
          "address": "0x7f5c764cbc14f9669b88837ca1490cca17c31607",
          "topics": [
            "0xddf252ad1be2c89b69c2b068fc378daa952ba7f163c4a11628f55a4df523b3ef",
            "0x000000000000000000000000cda2fdb452ff4f5d7ba1c3d5dfcc9cb926a5eb7d",
            "0x000000000000000000000000d51b286ad70a7b1c0e9de8755b260c1ef055b79a"
          ],
          "data": "0x00000000000000000000000000000000000000000000000000000000004c4b40",
          "blockHash": "0x8a25a16a65e89d056bb642b5065cddd65672d56a6acbbb7227f79c218f0cdc64",
          "blockNumber": "0x7cfe1d2",
          "transactionHash": "0xa310b6f8d8dd041d76bd7b77f463c4fef2b7095afa1c597a4b0e00475b05ffa3",
          "transactionIndex": "0xf",
          "logIndex": "0x43",
          "removed": false
        },
        {
          "address": "0x7f5c764cbc14f9669b88837ca1490cca17c31607",
          "topics": [
            "0x8c5be1e5ebec7d5bd14f71427d1e84f3dd0314c0f7b2291e5b200ac8c7c3b925",
            "0x000000000000000000000000cda2fdb452ff4f5d7ba1c3d5dfcc9cb926a5eb7d",
            "0x000000000000000000000000d51b286ad70a7b1c0e9de8755b260c1ef055b79a"
          ],
          "data": "0xffffffffffffffffffffffffffffffffffffffffffffffffffffffffffb3b4bf",
          "blockHash": "0x8a25a16a65e89d056bb642b5065cddd65672d56a6acbbb7227f79c218f0cdc64",
          "blockNumber": "0x7cfe1d2",
          "transactionHash": "0xa310b6f8d8dd041d76bd7b77f463c4fef2b7095afa1c597a4b0e00475b05ffa3",
          "transactionIndex": "0xf",
          "logIndex": "0x44",
          "removed": false
        },
        {
          "address": "0x7f5c764cbc14f9669b88837ca1490cca17c31607",
          "topics": [
            "0x8c5be1e5ebec7d5bd14f71427d1e84f3dd0314c0f7b2291e5b200ac8c7c3b925",
            "0x000000000000000000000000d51b286ad70a7b1c0e9de8755b260c1ef055b79a",
            "0x000000000000000000000000794a61358d6845594f94dc1db02a252b5b4814ad"
          ],
          "data": "0x00000000000000000000000000000000000000000000000000000000004c4b40",
          "blockHash": "0x8a25a16a65e89d056bb642b5065cddd65672d56a6acbbb7227f79c218f0cdc64",
          "blockNumber": "0x7cfe1d2",
          "transactionHash": "0xa310b6f8d8dd041d76bd7b77f463c4fef2b7095afa1c597a4b0e00475b05ffa3",
          "transactionIndex": "0xf",
          "logIndex": "0x45",
          "removed": false
        },
        {
          "address": "0x794a61358d6845594f94dc1db02a252b5b4814ad",
          "topics": [
            "0x804c9b842b2748a22bb64b345453a3de7ca54a6ca45ce00d415894979e22897a",
            "0x0000000000000000000000007f5c764cbc14f9669b88837ca1490cca17c31607"
          ],
          "data": "0x0000000000000000000000000000000000000000004ec49074af2e35829dc4a80000000000000000000000000000000000000000000000000000000000000000000000000000000000000000000000000000000000ab5dc1d66cd614cd68b1d80000000000000000000000000000000000000000039cfd06df0b51ab25c44d9b000000000000000000000000000000000000000003def0233936059304cd461c",
          "blockHash": "0x8a25a16a65e89d056bb642b5065cddd65672d56a6acbbb7227f79c218f0cdc64",
          "blockNumber": "0x7cfe1d2",
          "transactionHash": "0xa310b6f8d8dd041d76bd7b77f463c4fef2b7095afa1c597a4b0e00475b05ffa3",
          "transactionIndex": "0xf",
          "logIndex": "0x46",
          "removed": false
        },
        {
          "address": "0x7f5c764cbc14f9669b88837ca1490cca17c31607",
          "topics": [
            "0xddf252ad1be2c89b69c2b068fc378daa952ba7f163c4a11628f55a4df523b3ef",
            "0x000000000000000000000000d51b286ad70a7b1c0e9de8755b260c1ef055b79a",
            "0x000000000000000000000000625e7708f30ca75bfd92586e17077590c60eb4cd"
          ],
          "data": "0x00000000000000000000000000000000000000000000000000000000004c4b40",
          "blockHash": "0x8a25a16a65e89d056bb642b5065cddd65672d56a6acbbb7227f79c218f0cdc64",
          "blockNumber": "0x7cfe1d2",
          "transactionHash": "0xa310b6f8d8dd041d76bd7b77f463c4fef2b7095afa1c597a4b0e00475b05ffa3",
          "transactionIndex": "0xf",
          "logIndex": "0x47",
          "removed": false
        },
        {
          "address": "0x7f5c764cbc14f9669b88837ca1490cca17c31607",
          "topics": [
            "0x8c5be1e5ebec7d5bd14f71427d1e84f3dd0314c0f7b2291e5b200ac8c7c3b925",
            "0x000000000000000000000000d51b286ad70a7b1c0e9de8755b260c1ef055b79a",
            "0x000000000000000000000000794a61358d6845594f94dc1db02a252b5b4814ad"
          ],
          "data": "0x0000000000000000000000000000000000000000000000000000000000000000",
          "blockHash": "0x8a25a16a65e89d056bb642b5065cddd65672d56a6acbbb7227f79c218f0cdc64",
          "blockNumber": "0x7cfe1d2",
          "transactionHash": "0xa310b6f8d8dd041d76bd7b77f463c4fef2b7095afa1c597a4b0e00475b05ffa3",
          "transactionIndex": "0xf",
          "logIndex": "0x48",
          "removed": false
        },
        {
          "address": "0x625e7708f30ca75bfd92586e17077590c60eb4cd",
          "topics": [
            "0xddf252ad1be2c89b69c2b068fc378daa952ba7f163c4a11628f55a4df523b3ef",
            "0x0000000000000000000000000000000000000000000000000000000000000000",
            "0x000000000000000000000000d51b286ad70a7b1c0e9de8755b260c1ef055b79a"
          ],
          "data": "0x00000000000000000000000000000000000000000000000000000000004c4b40",
          "blockHash": "0x8a25a16a65e89d056bb642b5065cddd65672d56a6acbbb7227f79c218f0cdc64",
          "blockNumber": "0x7cfe1d2",
          "transactionHash": "0xa310b6f8d8dd041d76bd7b77f463c4fef2b7095afa1c597a4b0e00475b05ffa3",
          "transactionIndex": "0xf",
          "logIndex": "0x49",
          "removed": false
        },
        {
          "address": "0x625e7708f30ca75bfd92586e17077590c60eb4cd",
          "topics": [
            "0x458f5fa412d0f69b08dd84872b0215675cc67bc1d5b6fd93300a1c3878b86196",
            "0x000000000000000000000000d51b286ad70a7b1c0e9de8755b260c1ef055b79a",
            "0x000000000000000000000000d51b286ad70a7b1c0e9de8755b260c1ef055b79a"
          ],
          "data": "0x00000000000000000000000000000000000000000000000000000000004c4b4000000000000000000000000000000000000000000000000000000000000000000000000000000000000000000000000000000000039cfd06df0b51ab25c44d9b",
          "blockHash": "0x8a25a16a65e89d056bb642b5065cddd65672d56a6acbbb7227f79c218f0cdc64",
          "blockNumber": "0x7cfe1d2",
          "transactionHash": "0xa310b6f8d8dd041d76bd7b77f463c4fef2b7095afa1c597a4b0e00475b05ffa3",
          "transactionIndex": "0xf",
          "logIndex": "0x4a",
          "removed": false
        },
        {
          "address": "0x794a61358d6845594f94dc1db02a252b5b4814ad",
          "topics": [
            "0x2b627736bca15cd5381dcf80b0bf11fd197d01a037c52b927a881a10fb73ba61",
            "0x0000000000000000000000007f5c764cbc14f9669b88837ca1490cca17c31607",
            "0x000000000000000000000000d51b286ad70a7b1c0e9de8755b260c1ef055b79a",
            "0x0000000000000000000000000000000000000000000000000000000000000000"
          ],
          "data": "0x000000000000000000000000d51b286ad70a7b1c0e9de8755b260c1ef055b79a00000000000000000000000000000000000000000000000000000000004c4b40",
          "blockHash": "0x8a25a16a65e89d056bb642b5065cddd65672d56a6acbbb7227f79c218f0cdc64",
          "blockNumber": "0x7cfe1d2",
          "transactionHash": "0xa310b6f8d8dd041d76bd7b77f463c4fef2b7095afa1c597a4b0e00475b05ffa3",
          "transactionIndex": "0xf",
          "logIndex": "0x4b",
          "removed": false
        },
        {
          "address": "0xd51b286ad70a7b1c0e9de8755b260c1ef055b79a",
          "topics": [
            "0xddf252ad1be2c89b69c2b068fc378daa952ba7f163c4a11628f55a4df523b3ef",
            "0x0000000000000000000000000000000000000000000000000000000000000000",
            "0x000000000000000000000000cda2fdb452ff4f5d7ba1c3d5dfcc9cb926a5eb7d"
          ],
          "data": "0x000000000000000000000000000000000000000000000002a0ccafd3fc63113c",
          "blockHash": "0x8a25a16a65e89d056bb642b5065cddd65672d56a6acbbb7227f79c218f0cdc64",
          "blockNumber": "0x7cfe1d2",
          "transactionHash": "0xa310b6f8d8dd041d76bd7b77f463c4fef2b7095afa1c597a4b0e00475b05ffa3",
          "transactionIndex": "0xf",
          "logIndex": "0x4c",
          "removed": false
        },
        {
          "address": "0xd51b286ad70a7b1c0e9de8755b260c1ef055b79a",
          "topics": [
            "0xdcbc1c05240f31ff3ad067ef1ee35ce4997762752e3a095284754544f4c709d7",
            "0x000000000000000000000000cda2fdb452ff4f5d7ba1c3d5dfcc9cb926a5eb7d",
            "0x000000000000000000000000cda2fdb452ff4f5d7ba1c3d5dfcc9cb926a5eb7d"
          ],
          "data": "0x00000000000000000000000000000000000000000000000000000000004c4b40000000000000000000000000000000000000000000000002a0ccafd3fc63113c",
          "blockHash": "0x8a25a16a65e89d056bb642b5065cddd65672d56a6acbbb7227f79c218f0cdc64",
          "blockNumber": "0x7cfe1d2",
          "transactionHash": "0xa310b6f8d8dd041d76bd7b77f463c4fef2b7095afa1c597a4b0e00475b05ffa3",
          "transactionIndex": "0xf",
          "logIndex": "0x4d",
          "removed": false
        }
      ],
      "logsBloom": "0x00080000000000000000008000000000000000000004000000000000000000000001000000000000000000000004000000000040000004000000000000200001000001400000000000000008040000008000044000080000800000040000000002000000020000000000000000000800000000000004800000000010000000000400000040000000000200000000000000000800008000000000000000000000020000000000000000000000000000000000000000004100000000000000010002000002000000000000002040000000000000000008000000000000000020000010000000000000000000040008000040000000040000000000400000010000",
      "type": "0x2",
      "transactionHash": "0xa310b6f8d8dd041d76bd7b77f463c4fef2b7095afa1c597a4b0e00475b05ffa3",
      "transactionIndex": "0xf",
      "blockHash": "0x8a25a16a65e89d056bb642b5065cddd65672d56a6acbbb7227f79c218f0cdc64",
      "blockNumber": "0x7cfe1d2",
      "gasUsed": "0x368d9",
      "effectiveGasPrice": "0x35d",
      "from": "0xcda2fdb452ff4f5d7ba1c3d5dfcc9cb926a5eb7d",
      "to": "0xd51b286ad70a7b1c0e9de8755b260c1ef055b79a",
      "contractAddress": null,
      "l1BaseFeeScalar": "0x146b",
      "l1BlobBaseFee": "0xf192",
      "l1BlobBaseFeeScalar": "0xf79c5",
      "l1Fee": "0x2b8f1285b3",
      "l1GasPrice": "0x5354e252d",
      "l1GasUsed": "0x640"
    }
  ],
  "libraries": [],
  "pending": [],
  "returns": {},
  "timestamp": 1737727332,
  "chain": 10,
  "commit": "c03c0fa"
}