{
  "transactions": [
    {
      "hash": "0x0a592bf2141de8b7c5a28a514fdce505e36ba451a6078fe888ee92d1ea0a2dc1",
      "transactionType": "CREATE",
      "contractName": "Rescue",
      "contractAddress": "0xd8cc6aedaf3eda59897cde189ce9fb780c2b3b43",
      "function": null,
      "arguments": null,
      "transaction": {
        "from": "0xcda2fdb452ff4f5d7ba1c3d5dfcc9cb926a5eb7d",
        "gas": "0x52471",
        "value": "0x0",
        "input": "0x608060405234801561000f575f80fd5b50338061003557604051631e4fbdf760e01b81525f600482015260240160405180910390fd5b61003e81610044565b50610093565b5f80546001600160a01b038381166001600160a01b0319831681178455604051919092169283917f8be0079c531659141344cd1fd0a4f28419497f9722a3daafe3b4186f6b6457e09190a35050565b610341806100a05f395ff3fe608060405234801561000f575f80fd5b506004361061004a575f3560e01c806347d1cd491461004e578063715018a6146100635780638da5cb5b1461006b578063f2fde38b14610089575b5f80fd5b61006161005c366004610275565b61009c565b005b61006161018a565b5f54604080516001600160a01b039092168252519081900360200190f35b6100616100973660046102b5565b61019d565b6040516370a0823160e01b81526001600160a01b0383811660048301525f91908316906370a0823190602401602060405180830381865afa1580156100e3573d5f803e3d5ffd5b505050506040513d601f19601f8201168201806040525081019061010791906102d5565b6040516323b872dd60e01b81526001600160a01b038581166004830152868116602483015260448201839052919250908316906323b872dd906064016020604051808303815f875af115801561015f573d5f803e3d5ffd5b505050506040513d601f19601f8201168201806040525081019061018391906102ec565b5050505050565b6101926101df565b61019b5f61020b565b565b6101a56101df565b6001600160a01b0381166101d357604051631e4fbdf760e01b81525f60048201526024015b60405180910390fd5b6101dc8161020b565b50565b5f546001600160a01b0316331461019b5760405163118cdaa760e01b81523360048201526024016101ca565b5f80546001600160a01b038381166001600160a01b0319831681178455604051919092169283917f8be0079c531659141344cd1fd0a4f28419497f9722a3daafe3b4186f6b6457e09190a35050565b80356001600160a01b0381168114610270575f80fd5b919050565b5f805f60608486031215610287575f80fd5b6102908461025a565b925061029e6020850161025a565b91506102ac6040850161025a565b90509250925092565b5f602082840312156102c5575f80fd5b6102ce8261025a565b9392505050565b5f602082840312156102e5575f80fd5b5051919050565b5f602082840312156102fc575f80fd5b815180151581146102ce575f80fdfea264697066735822122066661b9e70f02148872be7654cbadcb1d810c31b1dfe6b621c1d2a0075c5009564736f6c63430008140033",
        "nonce": "0x2c9c",
        "chainId": "0xed88"
      },
      "additionalContracts": [],
      "isFixedGasLimit": false
    },
    {
      "hash": "0xccef9144c76968ad1d6085f51e37c388fa7ea0dd530a92bd3afc03a147df34dc",
      "transactionType": "CALL",
      "contractName": null,
      "contractAddress": "0xf9bcffb46e008ff75006a7c906976bdc6d89615d",
      "function": "execute(address,bytes)",
      "arguments": [
        "0x03C7054BCB39f7b2e5B2c7AcB37583e32D70Cfa3",
        "0x095ea7b3000000000000000000000000d8cc6aedaf3eda59897cde189ce9fb780c2b3b43ffffffffffffffffffffffffffffffffffffffffffffffffffffffffffffffff"
      ],
      "transaction": {
        "from": "0xcda2fdb452ff4f5d7ba1c3d5dfcc9cb926a5eb7d",
        "to": "0xf9bcffb46e008ff75006a7c906976bdc6d89615d",
        "gas": "0x13cc7",
        "value": "0x0",
        "input": "0x1cff79cd00000000000000000000000003c7054bcb39f7b2e5b2c7acb37583e32d70cfa300000000000000000000000000000000000000000000000000000000000000400000000000000000000000000000000000000000000000000000000000000044095ea7b3000000000000000000000000d8cc6aedaf3eda59897cde189ce9fb780c2b3b43ffffffffffffffffffffffffffffffffffffffffffffffffffffffffffffffff00000000000000000000000000000000000000000000000000000000",
        "nonce": "0x2c9d",
        "chainId": "0xed88"
      },
      "additionalContracts": [],
      "isFixedGasLimit": false
    },
    {
      "hash": "0xdaeb3eb11d02cbc86ba4a447474ba1a90266a5cc1efb11447f98c8cce1480855",
      "transactionType": "CALL",
      "contractName": "Rescue",
      "contractAddress": "0xd8cc6aedaf3eda59897cde189ce9fb780c2b3b43",
      "function": "rescue(address,address,address)",
      "arguments": [
        "0xcdA2fDB452FF4F5D7Ba1C3d5dFCc9CB926A5eb7D",
        "0xf9bcffb46e008ff75006a7c906976bDC6d89615D",
        "0x03C7054BCB39f7b2e5B2c7AcB37583e32D70Cfa3"
      ],
      "transaction": {
        "from": "0xcda2fdb452ff4f5d7ba1c3d5dfcc9cb926a5eb7d",
        "to": "0xd8cc6aedaf3eda59897cde189ce9fb780c2b3b43",
        "gas": "0x1346b",
        "value": "0x0",
        "input": "0x47d1cd49000000000000000000000000cda2fdb452ff4f5d7ba1c3d5dfcc9cb926a5eb7d000000000000000000000000f9bcffb46e008ff75006a7c906976bdc6d89615d00000000000000000000000003c7054bcb39f7b2e5b2c7acb37583e32d70cfa3",
        "nonce": "0x2c9e",
        "chainId": "0xed88"
      },
      "additionalContracts": [],
      "isFixedGasLimit": false
    },
    {
      "hash": "0xdc2939fa362d15037b94a39fd84dfe49e0c011aec6c8b1449f2c787798433f68",
      "transactionType": "CALL",
      "contractName": null,
      "contractAddress": "0xf9bcffb46e008ff75006a7c906976bdc6d89615d",
      "function": "execute(address,bytes)",
      "arguments": [
        "0x4200000000000000000000000000000000000006",
        "0x095ea7b3000000000000000000000000d8cc6aedaf3eda59897cde189ce9fb780c2b3b43ffffffffffffffffffffffffffffffffffffffffffffffffffffffffffffffff"
      ],
      "transaction": {
        "from": "0xcda2fdb452ff4f5d7ba1c3d5dfcc9cb926a5eb7d",
        "to": "0xf9bcffb46e008ff75006a7c906976bdc6d89615d",
        "gas": "0x128de",
        "value": "0x0",
        "input": "0x1cff79cd000000000000000000000000420000000000000000000000000000000000000600000000000000000000000000000000000000000000000000000000000000400000000000000000000000000000000000000000000000000000000000000044095ea7b3000000000000000000000000d8cc6aedaf3eda59897cde189ce9fb780c2b3b43ffffffffffffffffffffffffffffffffffffffffffffffffffffffffffffffff00000000000000000000000000000000000000000000000000000000",
        "nonce": "0x2c9f",
        "chainId": "0xed88"
      },
      "additionalContracts": [],
      "isFixedGasLimit": false
    },
    {
      "hash": "0x520af51e53fe9cc3e0d2aadf38d5a880eb26f57f2c312b3510fd4218d2d720ac",
      "transactionType": "CALL",
      "contractName": "Rescue",
      "contractAddress": "0xd8cc6aedaf3eda59897cde189ce9fb780c2b3b43",
      "function": "rescue(address,address,address)",
      "arguments": [
        "0xcdA2fDB452FF4F5D7Ba1C3d5dFCc9CB926A5eb7D",
        "0xf9bcffb46e008ff75006a7c906976bDC6d89615D",
        "0x4200000000000000000000000000000000000006"
      ],
      "transaction": {
        "from": "0xcda2fdb452ff4f5d7ba1c3d5dfcc9cb926a5eb7d",
        "to": "0xd8cc6aedaf3eda59897cde189ce9fb780c2b3b43",
        "gas": "0xc3c6",
        "value": "0x0",
        "input": "0x47d1cd49000000000000000000000000cda2fdb452ff4f5d7ba1c3d5dfcc9cb926a5eb7d000000000000000000000000f9bcffb46e008ff75006a7c906976bdc6d89615d0000000000000000000000004200000000000000000000000000000000000006",
        "nonce": "0x2ca0",
        "chainId": "0xed88"
      },
      "additionalContracts": [],
      "isFixedGasLimit": false
    }
  ],
  "receipts": [
    {
      "status": "0x1",
      "cumulativeGasUsed": "0x4cbc9",
      "logs": [
        {
          "address": "0xd8cc6aedaf3eda59897cde189ce9fb780c2b3b43",
          "topics": [
            "0x8be0079c531659141344cd1fd0a4f28419497f9722a3daafe3b4186f6b6457e0",
            "0x0000000000000000000000000000000000000000000000000000000000000000",
            "0x000000000000000000000000cda2fdb452ff4f5d7ba1c3d5dfcc9cb926a5eb7d"
          ],
          "data": "0x",
          "blockHash": "0x7ba0bcd3738a1a001a28ee0a6bfea3828bc4c712166f369ff796f8bed1bc8761",
          "blockNumber": "0xf45e43",
          "transactionHash": "0x0a592bf2141de8b7c5a28a514fdce505e36ba451a6078fe888ee92d1ea0a2dc1",
          "transactionIndex": "0x1",
          "logIndex": "0x0",
          "removed": false
        }
      ],
      "logsBloom": "0x00000000000000000000000000000000000000000000000000800000000000000000000000000000000000000000000000000000000000000000000000000000000000000000000000000000040000000001000000000000000000000000000000000000020000000000000000000800000000000000800000000000000000400000000000000000000000000000000000000000000000000000000000000000000000000000000000000000000000000000000000004000000000000000000000000000000000000200000000000000000000000000000000000000000020000000000000000000080000000000000000000000000000000000000200000000",
      "type": "0x2",
      "transactionHash": "0x0a592bf2141de8b7c5a28a514fdce505e36ba451a6078fe888ee92d1ea0a2dc1",
      "transactionIndex": "0x1",
      "blockHash": "0x7ba0bcd3738a1a001a28ee0a6bfea3828bc4c712166f369ff796f8bed1bc8761",
      "blockNumber": "0xf45e43",
      "gasUsed": "0x3f4a6",
      "effectiveGasPrice": "0xfd",
      "from": "0xcda2fdb452ff4f5d7ba1c3d5dfcc9cb926a5eb7d",
      "to": null,
      "contractAddress": "0xd8cc6aedaf3eda59897cde189ce9fb780c2b3b43",
      "l1BaseFeeScalar": "0x989680",
      "l1BlobBaseFee": "0x9c4164a12",
      "l1BlobBaseFeeScalar": "0x95506",
      "l1Fee": "0x3076892d7746",
      "l1GasPrice": "0x15b484bc",
      "l1GasUsed": "0x27af"
    },
    {
      "status": "0x1",
      "cumulativeGasUsed": "0x5a463",
      "logs": [
        {
          "address": "0x03c7054bcb39f7b2e5b2c7acb37583e32d70cfa3",
          "topics": [
            "0x8c5be1e5ebec7d5bd14f71427d1e84f3dd0314c0f7b2291e5b200ac8c7c3b925",
            "0x000000000000000000000000f9bcffb46e008ff75006a7c906976bdc6d89615d",
            "0x000000000000000000000000d8cc6aedaf3eda59897cde189ce9fb780c2b3b43"
          ],
          "data": "0xffffffffffffffffffffffffffffffffffffffffffffffffffffffffffffffff",
          "blockHash": "0x7ba0bcd3738a1a001a28ee0a6bfea3828bc4c712166f369ff796f8bed1bc8761",
          "blockNumber": "0xf45e43",
          "transactionHash": "0xccef9144c76968ad1d6085f51e37c388fa7ea0dd530a92bd3afc03a147df34dc",
          "transactionIndex": "0x2",
          "logIndex": "0x1",
          "removed": false
        }
      ],
      "logsBloom": "0x00000000000000000000000000000100000000000000000000000000000000000000000000002000000000000000000000000000000000000000400000200000000000800000000000000000000000000000000000000000000000000000000010000000000000000000000000000000000000000000000000000000000000000008000000000000000000000000000000000000000000000000400000000000020000000000000000000000000000000000000000000000000000000000000000000000000000000000000000000000002000000000000000000000000000000010000000000000000000100000000000000000000000000000000000000000",
      "type": "0x2",
      "transactionHash": "0xccef9144c76968ad1d6085f51e37c388fa7ea0dd530a92bd3afc03a147df34dc",
      "transactionIndex": "0x2",
      "blockHash": "0x7ba0bcd3738a1a001a28ee0a6bfea3828bc4c712166f369ff796f8bed1bc8761",
      "blockNumber": "0xf45e43",
      "gasUsed": "0xd89a",
      "effectiveGasPrice": "0xfd",
      "from": "0xcda2fdb452ff4f5d7ba1c3d5dfcc9cb926a5eb7d",
      "to": "0xf9bcffb46e008ff75006a7c906976bdc6d89615d",
      "contractAddress": null,
      "l1BaseFeeScalar": "0x989680",
      "l1BlobBaseFee": "0x9c4164a12",
      "l1BlobBaseFeeScalar": "0x95506",
      "l1Fee": "0x97462f5c67f",
      "l1GasPrice": "0x15b484bc",
      "l1GasUsed": "0x7be"
    },
    {
      "status": "0x1",
      "cumulativeGasUsed": "0x67746",
      "logs": [
        {
          "address": "0x03c7054bcb39f7b2e5b2c7acb37583e32d70cfa3",
          "topics": [
            "0xddf252ad1be2c89b69c2b068fc378daa952ba7f163c4a11628f55a4df523b3ef",
            "0x000000000000000000000000f9bcffb46e008ff75006a7c906976bdc6d89615d",
            "0x000000000000000000000000cda2fdb452ff4f5d7ba1c3d5dfcc9cb926a5eb7d"
          ],
          "data": "0x000000000000000000000000000000000000000000000000000000000009af00",
          "blockHash": "0x7ba0bcd3738a1a001a28ee0a6bfea3828bc4c712166f369ff796f8bed1bc8761",
          "blockNumber": "0xf45e43",
          "transactionHash": "0xdaeb3eb11d02cbc86ba4a447474ba1a90266a5cc1efb11447f98c8cce1480855",
          "transactionIndex": "0x3",
          "logIndex": "0x2",
          "removed": false
        }
      ],
      "logsBloom": "0x00000000000000000000000000000100000000000000000000000000000000000000000000002000000000000000000000000000000000000000400000000000000000000000000000000008040000000000000000000000000000000000000010000000000000000000000000000000000000000000800000000010000000000000000000000000000000000000000000000000000000000000400000000000000000000000000000000000000000000000000000004000000000000000000000000002000000000000000000000000002000000000000000000000000000000000000000000000000000000000000000000000000000000000000000000000",
      "type": "0x2",
      "transactionHash": "0xdaeb3eb11d02cbc86ba4a447474ba1a90266a5cc1efb11447f98c8cce1480855",
      "transactionIndex": "0x3",
      "blockHash": "0x7ba0bcd3738a1a001a28ee0a6bfea3828bc4c712166f369ff796f8bed1bc8761",
      "blockNumber": "0xf45e43",
      "gasUsed": "0xd2e3",
      "effectiveGasPrice": "0xfd",
      "from": "0xcda2fdb452ff4f5d7ba1c3d5dfcc9cb926a5eb7d",
      "to": "0xd8cc6aedaf3eda59897cde189ce9fb780c2b3b43",
      "contractAddress": null,
      "l1BaseFeeScalar": "0x989680",
      "l1BlobBaseFee": "0x9c4164a12",
      "l1BlobBaseFeeScalar": "0x95506",
      "l1Fee": "0x922aab678cb",
      "l1GasPrice": "0x15b484bc",
      "l1GasUsed": "0x77b"
    },
    {
      "status": "0x1",
      "cumulativeGasUsed": "0x74e34",
      "logs": [
        {
          "address": "0x4200000000000000000000000000000000000006",
          "topics": [
            "0x8c5be1e5ebec7d5bd14f71427d1e84f3dd0314c0f7b2291e5b200ac8c7c3b925",
            "0x000000000000000000000000f9bcffb46e008ff75006a7c906976bdc6d89615d",
            "0x000000000000000000000000d8cc6aedaf3eda59897cde189ce9fb780c2b3b43"
          ],
          "data": "0xffffffffffffffffffffffffffffffffffffffffffffffffffffffffffffffff",
          "blockHash": "0x7ba0bcd3738a1a001a28ee0a6bfea3828bc4c712166f369ff796f8bed1bc8761",
          "blockNumber": "0xf45e43",
          "transactionHash": "0xdc2939fa362d15037b94a39fd84dfe49e0c011aec6c8b1449f2c787798433f68",
          "transactionIndex": "0x4",
          "logIndex": "0x3",
          "removed": false
        }
      ],
      "logsBloom": "0x00000000000000000000000000000000000000000000000000040000000000000000000000002000000000100000000000000000000000000000400000200000000000800000000000000000000000000000000000000000000000000000000010000000000000000000000000000000000000000000000000000000000000000008000000000000000000000000000000000000002000000000000000000000020000000000000000000000000000000000000000000000000000000000000000000000000000000000000000000000000000000000000000000000000000000010000000000000000000100000000000000000000000000000000000000000",
      "type": "0x2",
      "transactionHash": "0xdc2939fa362d15037b94a39fd84dfe49e0c011aec6c8b1449f2c787798433f68",
      "transactionIndex": "0x4",
      "blockHash": "0x7ba0bcd3738a1a001a28ee0a6bfea3828bc4c712166f369ff796f8bed1bc8761",
      "blockNumber": "0xf45e43",
      "gasUsed": "0xd6ee",
      "effectiveGasPrice": "0xfd",
      "from": "0xcda2fdb452ff4f5d7ba1c3d5dfcc9cb926a5eb7d",
      "to": "0xf9bcffb46e008ff75006a7c906976bdc6d89615d",
      "contractAddress": null,
      "l1BaseFeeScalar": "0x989680",
      "l1BlobBaseFee": "0x9c4164a12",
      "l1BlobBaseFeeScalar": "0x95506",
      "l1Fee": "0x88f92448688",
      "l1GasPrice": "0x15b484bc",
      "l1GasUsed": "0x702"
    },
    {
      "status": "0x1",
      "cumulativeGasUsed": "0x7dbf2",
      "logs": [
        {
          "address": "0x4200000000000000000000000000000000000006",
          "topics": [
            "0xddf252ad1be2c89b69c2b068fc378daa952ba7f163c4a11628f55a4df523b3ef",
            "0x000000000000000000000000f9bcffb46e008ff75006a7c906976bdc6d89615d",
            "0x000000000000000000000000cda2fdb452ff4f5d7ba1c3d5dfcc9cb926a5eb7d"
          ],
          "data": "0x000000000000000000000000000000000000000000000000030b53eacc27f738",
          "blockHash": "0x7ba0bcd3738a1a001a28ee0a6bfea3828bc4c712166f369ff796f8bed1bc8761",
          "blockNumber": "0xf45e43",
          "transactionHash": "0x520af51e53fe9cc3e0d2aadf38d5a880eb26f57f2c312b3510fd4218d2d720ac",
          "transactionIndex": "0x5",
          "logIndex": "0x4",
          "removed": false
        }
      ],
      "logsBloom": "0x00000000000000000000000000000000000000000000000000040000000000000000000000002000000000100000000000000000000000000000400000000000000000000000000000000008040000000000000000000000000000000000000010000000000000000000000000000000000000000000800000000010000000000000000000000000000000000000000000000000002000000000000000000000000000000000000000000000000000000000000000004000000000000000000000000002000000000000000000000000000000000000000000000000000000000000000000000000000000000000000000000000000000000000000000000000",
      "type": "0x2",
      "transactionHash": "0x520af51e53fe9cc3e0d2aadf38d5a880eb26f57f2c312b3510fd4218d2d720ac",
      "transactionIndex": "0x5",
      "blockHash": "0x7ba0bcd3738a1a001a28ee0a6bfea3828bc4c712166f369ff796f8bed1bc8761",
      "blockNumber": "0xf45e43",
      "gasUsed": "0x8dbe",
      "effectiveGasPrice": "0xfd",
      "from": "0xcda2fdb452ff4f5d7ba1c3d5dfcc9cb926a5eb7d",
      "to": "0xd8cc6aedaf3eda59897cde189ce9fb780c2b3b43",
      "contractAddress": null,
      "l1BaseFeeScalar": "0x989680",
      "l1BlobBaseFee": "0x9c4164a12",
      "l1BlobBaseFeeScalar": "0x95506",
      "l1Fee": "0x85e8a1e8b1c",
      "l1GasPrice": "0x15b484bc",
      "l1GasUsed": "0x6da"
    }
  ],
  "libraries": [],
  "pending": [],
  "returns": {},
  "timestamp": 1744891823,
  "chain": 60808,
  "commit": "76f5463"
}