{
  "transactions": [
    {
      "hash": "0xf4254b059e57d8c3d42e6dced5a8c9ddd0a85e9452e0593c1f438ce4d0c67f58",
      "transactionType": "CALL",
      "contractName": null,
      "contractAddress": "0xd61fd14acec329cabdc0b52d35e718086a558df2",
      "function": "mint(uint256,address)",
      "arguments": [
        "15000000000000000000000000000",
        "0xcdA2fDB452FF4F5D7Ba1C3d5dFCc9CB926A5eb7D"
      ],
      "transaction": {
        "from": "0xcda2fdb452ff4f5d7ba1c3d5dfcc9cb926a5eb7d",
        "to": "0xd61fd14acec329cabdc0b52d35e718086a558df2",
        "gas": "0xa735e",
        "value": "0x0",
        "input": "0x94bf804d00000000000000000000000000000000000000003077b58d5d37839198000000000000000000000000000000cda2fdb452ff4f5d7ba1c3d5dfcc9cb926a5eb7d",
        "nonce": "0x22cd",
        "chainId": "0xed88"
      },
      "additionalContracts": [],
      "isFixedGasLimit": false
    }
  ],
  "receipts": [
    {
      "status": "0x1",
      "cumulativeGasUsed": "0x83c67",
      "logs": [
        {
          "address": "0x05d032ac25d322df992303dca074ee7392c117b9",
          "topics": [
            "0xddf252ad1be2c89b69c2b068fc378daa952ba7f163c4a11628f55a4df523b3ef",
            "0x000000000000000000000000cda2fdb452ff4f5d7ba1c3d5dfcc9cb926a5eb7d",
            "0x000000000000000000000000d61fd14acec329cabdc0b52d35e718086a558df2"
          ],
          "data": "0x0000000000000000000000000000000000000000000000000000000000eb1d42",
          "blockHash": "0x91fd81140bc5ab0d2afafd434e4a34f3cd204dd4a22818dc14bc276f51f276cb",
          "blockNumber": "0xc90dcf",
          "transactionHash": "0xf4254b059e57d8c3d42e6dced5a8c9ddd0a85e9452e0593c1f438ce4d0c67f58",
          "transactionIndex": "0x1",
          "logIndex": "0x0",
          "removed": false
        },
        {
          "address": "0x05d032ac25d322df992303dca074ee7392c117b9",
          "topics": [
            "0x8c5be1e5ebec7d5bd14f71427d1e84f3dd0314c0f7b2291e5b200ac8c7c3b925",
            "0x000000000000000000000000d61fd14acec329cabdc0b52d35e718086a558df2",
            "0x000000000000000000000000807f4e281b7a3b324825c64ca53c69f0b418de40"
          ],
          "data": "0x0000000000000000000000000000000000000000000000000000000000eb1d42",
          "blockHash": "0x91fd81140bc5ab0d2afafd434e4a34f3cd204dd4a22818dc14bc276f51f276cb",
          "blockNumber": "0xc90dcf",
          "transactionHash": "0xf4254b059e57d8c3d42e6dced5a8c9ddd0a85e9452e0593c1f438ce4d0c67f58",
          "transactionIndex": "0x1",
          "logIndex": "0x1",
          "removed": false
        },
        {
          "address": "0x03c7054bcb39f7b2e5b2c7acb37583e32d70cfa3",
          "topics": [
            "0xddf252ad1be2c89b69c2b068fc378daa952ba7f163c4a11628f55a4df523b3ef",
            "0x0000000000000000000000006407fec527abad1aafdb9a3b5a2171800c21a2fe",
            "0x000000000000000000000000d61fd14acec329cabdc0b52d35e718086a558df2"
          ],
          "data": "0x0000000000000000000000000000000000000000000000000000000000001ef1",
          "blockHash": "0x91fd81140bc5ab0d2afafd434e4a34f3cd204dd4a22818dc14bc276f51f276cb",
          "blockNumber": "0xc90dcf",
          "transactionHash": "0xf4254b059e57d8c3d42e6dced5a8c9ddd0a85e9452e0593c1f438ce4d0c67f58",
          "transactionIndex": "0x1",
          "logIndex": "0x2",
          "removed": false
        },
        {
          "address": "0x05d032ac25d322df992303dca074ee7392c117b9",
          "topics": [
            "0x8c5be1e5ebec7d5bd14f71427d1e84f3dd0314c0f7b2291e5b200ac8c7c3b925",
            "0x000000000000000000000000d61fd14acec329cabdc0b52d35e718086a558df2",
            "0x000000000000000000000000807f4e281b7a3b324825c64ca53c69f0b418de40"
          ],
          "data": "0x0000000000000000000000000000000000000000000000000000000000758ea1",
          "blockHash": "0x91fd81140bc5ab0d2afafd434e4a34f3cd204dd4a22818dc14bc276f51f276cb",
          "blockNumber": "0xc90dcf",
          "transactionHash": "0xf4254b059e57d8c3d42e6dced5a8c9ddd0a85e9452e0593c1f438ce4d0c67f58",
          "transactionIndex": "0x1",
          "logIndex": "0x3",
          "removed": false
        },
        {
          "address": "0x05d032ac25d322df992303dca074ee7392c117b9",
          "topics": [
            "0xddf252ad1be2c89b69c2b068fc378daa952ba7f163c4a11628f55a4df523b3ef",
            "0x000000000000000000000000d61fd14acec329cabdc0b52d35e718086a558df2",
            "0x0000000000000000000000006407fec527abad1aafdb9a3b5a2171800c21a2fe"
          ],
          "data": "0x0000000000000000000000000000000000000000000000000000000000758ea1",
          "blockHash": "0x91fd81140bc5ab0d2afafd434e4a34f3cd204dd4a22818dc14bc276f51f276cb",
          "blockNumber": "0xc90dcf",
          "transactionHash": "0xf4254b059e57d8c3d42e6dced5a8c9ddd0a85e9452e0593c1f438ce4d0c67f58",
          "transactionIndex": "0x1",
          "logIndex": "0x4",
          "removed": false
        },
        {
          "address": "0x6407fec527abad1aafdb9a3b5a2171800c21a2fe",
          "topics": [
            "0xc42079f94a6350d7e6235f29174924f928cc2ac818eb64fed8004e115fbcca67",
            "0x000000000000000000000000807f4e281b7a3b324825c64ca53c69f0b418de40",
            "0x000000000000000000000000d61fd14acec329cabdc0b52d35e718086a558df2"
          ],
          "data": "0xffffffffffffffffffffffffffffffffffffffffffffffffffffffffffffe10f0000000000000000000000000000000000000000000000000000000000758ea1000000000000000000000000000000000000001f23d81a627d6d72fcad0ba7fc000000000000000000000000000000000000000000000000000000046fc64f030000000000000000000000000000000000000000000000000000000000010ca5",
          "blockHash": "0x91fd81140bc5ab0d2afafd434e4a34f3cd204dd4a22818dc14bc276f51f276cb",
          "blockNumber": "0xc90dcf",
          "transactionHash": "0xf4254b059e57d8c3d42e6dced5a8c9ddd0a85e9452e0593c1f438ce4d0c67f58",
          "transactionIndex": "0x1",
          "logIndex": "0x5",
          "removed": false
        },
        {
          "address": "0x4200000000000000000000000000000000000006",
          "topics": [
            "0xddf252ad1be2c89b69c2b068fc378daa952ba7f163c4a11628f55a4df523b3ef",
            "0x0000000000000000000000009a3b17a2e2daf54ce80f2f4b2c8440902be715de",
            "0x000000000000000000000000d61fd14acec329cabdc0b52d35e718086a558df2"
          ],
          "data": "0x000000000000000000000000000000000000000000000000000a3045fc88163b",
          "blockHash": "0x91fd81140bc5ab0d2afafd434e4a34f3cd204dd4a22818dc14bc276f51f276cb",
          "blockNumber": "0xc90dcf",
          "transactionHash": "0xf4254b059e57d8c3d42e6dced5a8c9ddd0a85e9452e0593c1f438ce4d0c67f58",
          "transactionIndex": "0x1",
          "logIndex": "0x6",
          "removed": false
        },
        {
          "address": "0x05d032ac25d322df992303dca074ee7392c117b9",
          "topics": [
            "0x8c5be1e5ebec7d5bd14f71427d1e84f3dd0314c0f7b2291e5b200ac8c7c3b925",
            "0x000000000000000000000000d61fd14acec329cabdc0b52d35e718086a558df2",
            "0x000000000000000000000000807f4e281b7a3b324825c64ca53c69f0b418de40"
          ],
          "data": "0x0000000000000000000000000000000000000000000000000000000000000000",
          "blockHash": "0x91fd81140bc5ab0d2afafd434e4a34f3cd204dd4a22818dc14bc276f51f276cb",
          "blockNumber": "0xc90dcf",
          "transactionHash": "0xf4254b059e57d8c3d42e6dced5a8c9ddd0a85e9452e0593c1f438ce4d0c67f58",
          "transactionIndex": "0x1",
          "logIndex": "0x7",
          "removed": false
        },
        {
          "address": "0x05d032ac25d322df992303dca074ee7392c117b9",
          "topics": [
            "0xddf252ad1be2c89b69c2b068fc378daa952ba7f163c4a11628f55a4df523b3ef",
            "0x000000000000000000000000d61fd14acec329cabdc0b52d35e718086a558df2",
            "0x0000000000000000000000009a3b17a2e2daf54ce80f2f4b2c8440902be715de"
          ],
          "data": "0x0000000000000000000000000000000000000000000000000000000000758ea1",
          "blockHash": "0x91fd81140bc5ab0d2afafd434e4a34f3cd204dd4a22818dc14bc276f51f276cb",
          "blockNumber": "0xc90dcf",
          "transactionHash": "0xf4254b059e57d8c3d42e6dced5a8c9ddd0a85e9452e0593c1f438ce4d0c67f58",
          "transactionIndex": "0x1",
          "logIndex": "0x8",
          "removed": false
        },
        {
          "address": "0x9a3b17a2e2daf54ce80f2f4b2c8440902be715de",
          "topics": [
            "0xc42079f94a6350d7e6235f29174924f928cc2ac818eb64fed8004e115fbcca67",
            "0x000000000000000000000000807f4e281b7a3b324825c64ca53c69f0b418de40",
            "0x000000000000000000000000d61fd14acec329cabdc0b52d35e718086a558df2"
          ],
          "data": "0x0000000000000000000000000000000000000000000000000000000000758ea1fffffffffffffffffffffffffffffffffffffffffffffffffff5cfba0377e9c50000000000000000000000000000000000004b79ece32b81fefa817e894faabb00000000000000000000000000000000000000000000000000082ac5e903b631000000000000000000000000000000000000000000000000000000000003030d",
          "blockHash": "0x91fd81140bc5ab0d2afafd434e4a34f3cd204dd4a22818dc14bc276f51f276cb",
          "blockNumber": "0xc90dcf",
          "transactionHash": "0xf4254b059e57d8c3d42e6dced5a8c9ddd0a85e9452e0593c1f438ce4d0c67f58",
          "transactionIndex": "0x1",
          "logIndex": "0x9",
          "removed": false
        },
        {
          "address": "0xd61fd14acec329cabdc0b52d35e718086a558df2",
          "topics": [
            "0xddf252ad1be2c89b69c2b068fc378daa952ba7f163c4a11628f55a4df523b3ef",
            "0x0000000000000000000000000000000000000000000000000000000000000000",
            "0x000000000000000000000000cda2fdb452ff4f5d7ba1c3d5dfcc9cb926a5eb7d"
          ],
          "data": "0x00000000000000000000000000000000000000003077b58d5d37839198000000",
          "blockHash": "0x91fd81140bc5ab0d2afafd434e4a34f3cd204dd4a22818dc14bc276f51f276cb",
          "blockNumber": "0xc90dcf",
          "transactionHash": "0xf4254b059e57d8c3d42e6dced5a8c9ddd0a85e9452e0593c1f438ce4d0c67f58",
          "transactionIndex": "0x1",
          "logIndex": "0xa",
          "removed": false
        },
        {
          "address": "0xd61fd14acec329cabdc0b52d35e718086a558df2",
          "topics": [
            "0x90890809c654f11d6e72a28fa60149770a0d11ec6c92319d6ceb2bb0a4ea1a15",
            "0x000000000000000000000000cda2fdb452ff4f5d7ba1c3d5dfcc9cb926a5eb7d"
          ],
          "data": "0x00000000000000000000000000000000000000003077b58d5d378391980000000000000000000000000000000000000000000000000000000000000000eb1d42",
          "blockHash": "0x91fd81140bc5ab0d2afafd434e4a34f3cd204dd4a22818dc14bc276f51f276cb",
          "blockNumber": "0xc90dcf",
          "transactionHash": "0xf4254b059e57d8c3d42e6dced5a8c9ddd0a85e9452e0593c1f438ce4d0c67f58",
          "transactionIndex": "0x1",
          "logIndex": "0xb",
          "removed": false
        }
      ],
      "logsBloom": "0x00000800000000000000010000000100000000000400000080040000000000000000000020000000000000100000000008000000000030000000000000200000000000000040000800000008040000000000000000000000000000000000000000000000020000000000000000000800000000000000800000802010000800000000000800000000000200000000000000000000022020000020400000000000020000000000000001000010004000000081000000004000000000000000000000000002000000000000000000000000002000000080000100000000000020000010000020020000000000000000000000000000400000000400080000000000",
      "type": "0x2",
      "transactionHash": "0xf4254b059e57d8c3d42e6dced5a8c9ddd0a85e9452e0593c1f438ce4d0c67f58",
      "transactionIndex": "0x1",
      "blockHash": "0x91fd81140bc5ab0d2afafd434e4a34f3cd204dd4a22818dc14bc276f51f276cb",
      "blockNumber": "0xc90dcf",
      "gasUsed": "0x790ec",
      "effectiveGasPrice": "0xfd",
      "from": "0xcda2fdb452ff4f5d7ba1c3d5dfcc9cb926a5eb7d",
      "to": "0xd61fd14acec329cabdc0b52d35e718086a558df2",
      "contractAddress": null,
      "l1BaseFeeScalar": "0x186a0",
      "l1BlobBaseFee": "0x13813794d",
      "l1BlobBaseFeeScalar": "0x95506",
      "l1Fee": "0x6e3eba97c6",
      "l1GasPrice": "0x391a5983",
      "l1GasUsed": "0x640"
    }
  ],
  "libraries": [],
  "pending": [],
  "returns": {},
  "timestamp": 1739214534,
  "chain": 60808,
  "commit": "c03c0fa"
}