{
  "transactions": [
    {
      "hash": "0x54608c87e09a3f896567e19639dbc1f6a91c5d12df53f58ac818c8da5b2617df",
      "transactionType": "CALL",
      "contractName": null,
      "contractAddress": "0xf9bcffb46e008ff75006a7c906976bdc6d89615d",
      "function": "setFee(uint256)",
      "arguments": [
        "5000"
      ],
      "transaction": {
        "from": "0xcda2fdb452ff4f5d7ba1c3d5dfcc9cb926a5eb7d",
        "to": "0xf9bcffb46e008ff75006a7c906976bdc6d89615d",
        "gas": "0x9b21",
        "value": "0x0",
        "input": "0x69fe0e2d0000000000000000000000000000000000000000000000000000000000001388",
        "nonce": "0x2c99",
        "chainId": "0xed88"
      },
      "additionalContracts": [],
      "isFixedGasLimit": false
    },
    {
      "hash": "0x0948731754ecab1827507f1c5c7ced9ffacbbf74cbc2c2ba034c7ac5f78139d2",
      "transactionType": "CALL",
      "contractName": null,
      "contractAddress": "0xf9bcffb46e008ff75006a7c906976bdc6d89615d",
      "function": "setSlippage(uint256)",
      "arguments": [
        "900"
      ],
      "transaction": {
        "from": "0xcda2fdb452ff4f5d7ba1c3d5dfcc9cb926a5eb7d",
        "to": "0xf9bcffb46e008ff75006a7c906976bdc6d89615d",
        "gas": "0xa420",
        "value": "0x0",
        "input": "0xf0fa55a90000000000000000000000000000000000000000000000000000000000000384",
        "nonce": "0x2c9a",
        "chainId": "0xed88"
      },
      "additionalContracts": [],
      "isFixedGasLimit": false
    }
  ],
  "receipts": [
    {
      "status": "0x1",
      "cumulativeGasUsed": "0x434b4",
      "logs": [],
      "logsBloom": "0x00000000000000000000000000000000000000000000000000000000000000000000000000000000000000000000000000000000000000000000000000000000000000000000000000000000000000000000000000000000000000000000000000000000000000000000000000000000000000000000000000000000000000000000000000000000000000000000000000000000000000000000000000000000000000000000000000000000000000000000000000000000000000000000000000000000000000000000000000000000000000000000000000000000000000000000000000000000000000000000000000000000000000000000000000000000",
      "type": "0x2",
      "transactionHash": "0x54608c87e09a3f896567e19639dbc1f6a91c5d12df53f58ac818c8da5b2617df",
      "transactionIndex": "0x3",
      "blockHash": "0x4ae640f8b15fb1f5c9d815a58432fb146212b5856c28c78aa80ee92b5fff7e5c",
      "blockNumber": "0xf2e7c3",
      "gasUsed": "0x7050",
      "effectiveGasPrice": "0xfd",
      "from": "0xcda2fdb452ff4f5d7ba1c3d5dfcc9cb926a5eb7d",
      "to": "0xf9bcffb46e008ff75006a7c906976bdc6d89615d",
      "contractAddress": null,
      "l1BaseFeeScalar": "0x989680",
      "l1BlobBaseFee": "0x563aa5",
      "l1BlobBaseFeeScalar": "0x95506",
      "l1Fee": "0x55fefbf7daf",
      "l1GasPrice": "0x160381a1",
      "l1GasUsed": "0x640"
    },
    {
      "status": "0x1",
      "cumulativeGasUsed": "0x4a4ed",
      "logs": [],
      "logsBloom": "0x00000000000000000000000000000000000000000000000000000000000000000000000000000000000000000000000000000000000000000000000000000000000000000000000000000000000000000000000000000000000000000000000000000000000000000000000000000000000000000000000000000000000000000000000000000000000000000000000000000000000000000000000000000000000000000000000000000000000000000000000000000000000000000000000000000000000000000000000000000000000000000000000000000000000000000000000000000000000000000000000000000000000000000000000000000000",
      "type": "0x2",
      "transactionHash": "0x0948731754ecab1827507f1c5c7ced9ffacbbf74cbc2c2ba034c7ac5f78139d2",
      "transactionIndex": "0x4",
      "blockHash": "0x4ae640f8b15fb1f5c9d815a58432fb146212b5856c28c78aa80ee92b5fff7e5c",
      "blockNumber": "0xf2e7c3",
      "gasUsed": "0x7039",
      "effectiveGasPrice": "0xfd",
      "from": "0xcda2fdb452ff4f5d7ba1c3d5dfcc9cb926a5eb7d",
      "to": "0xf9bcffb46e008ff75006a7c906976bdc6d89615d",
      "contractAddress": null,
      "l1BaseFeeScalar": "0x989680",
      "l1BlobBaseFee": "0x563aa5",
      "l1BlobBaseFeeScalar": "0x95506",
      "l1Fee": "0x55fefbf7daf",
      "l1GasPrice": "0x160381a1",
      "l1GasUsed": "0x640"
    }
  ],
  "libraries": [],
  "pending": [],
  "returns": {},
  "timestamp": 1744700079,
  "chain": 60808,
  "commit": "76f5463"
}