{
  "transactions": [
    {
      "hash": "0x0eb48053d252678c5fcd784aeac13632108f4865d7757d022753f22a2d704ee6",
      "transactionType": "CALL",
      "contractName": null,
      "contractAddress": "0xb798f567d61b8cffd5854bf8f44efa63175d96b9",
      "function": "adminWithdraw(address,uint256,address)",
      "arguments": [
        "0x03C7054BCB39f7b2e5B2c7AcB37583e32D70Cfa3",
        "52366",
        "0xcdA2fDB452FF4F5D7Ba1C3d5dFCc9CB926A5eb7D"
      ],
      "transaction": {
        "from": "0xcda2fdb452ff4f5d7ba1c3d5dfcc9cb926a5eb7d",
        "to": "0xb798f567d61b8cffd5854bf8f44efa63175d96b9",
        "gas": "0x139b6",
        "value": "0x0",
        "input": "0x56e1887d00000000000000000000000003c7054bcb39f7b2e5b2c7acb37583e32d70cfa3000000000000000000000000000000000000000000000000000000000000cc8e000000000000000000000000cda2fdb452ff4f5d7ba1c3d5dfcc9cb926a5eb7d",
        "nonce": "0x229f",
        "chainId": "0xed88"
      },
      "additionalContracts": [],
      "isFixedGasLimit": false
    },
    {
      "hash": "0x59e995e0559c5cf77dea4b8c096962fbb2a2d8394c52c6b7a8f6104c0ea0f875",
      "transactionType": "CALL",
      "contractName": null,
      "contractAddress": "0xb798f567d61b8cffd5854bf8f44efa63175d96b9",
      "function": "adminWithdraw(address,uint256,address)",
      "arguments": [
        "0x4200000000000000000000000000000000000006",
        "18951386352910123",
        "0xcdA2fDB452FF4F5D7Ba1C3d5dFCc9CB926A5eb7D"
      ],
      "transaction": {
        "from": "0xcda2fdb452ff4f5d7ba1c3d5dfcc9cb926a5eb7d",
        "to": "0xb798f567d61b8cffd5854bf8f44efa63175d96b9",
        "gas": "0x125ed",
        "value": "0x0",
        "input": "0x56e1887d00000000000000000000000042000000000000000000000000000000000000060000000000000000000000000000000000000000000000000043542f7b90ff2b000000000000000000000000cda2fdb452ff4f5d7ba1c3d5dfcc9cb926a5eb7d",
        "nonce": "0x22a0",
        "chainId": "0xed88"
      },
      "additionalContracts": [],
      "isFixedGasLimit": false
    }
  ],
  "receipts": [
    {
      "status": "0x1",
      "cumulativeGasUsed": "0x181f0",
      "logs": [
        {
          "address": "0x03c7054bcb39f7b2e5b2c7acb37583e32d70cfa3",
          "topics": [
            "0xddf252ad1be2c89b69c2b068fc378daa952ba7f163c4a11628f55a4df523b3ef",
            "0x000000000000000000000000b798f567d61b8cffd5854bf8f44efa63175d96b9",
            "0x000000000000000000000000cda2fdb452ff4f5d7ba1c3d5dfcc9cb926a5eb7d"
          ],
          "data": "0x000000000000000000000000000000000000000000000000000000000000cc8e",
          "blockHash": "0xf583d8f0fdfd14e91d085cbbd202f9633220d72b8fa238042905377eb5c1b9d7",
          "blockNumber": "0xc8df0e",
          "transactionHash": "0x0eb48053d252678c5fcd784aeac13632108f4865d7757d022753f22a2d704ee6",
          "transactionIndex": "0x1",
          "logIndex": "0x0",
          "removed": false
        }
      ],
      "logsBloom": "0x00000000000000000000000000000100000000000000000000000000000000000000000000000000000000000000000000000000000000000000000000000000000000000000000000000008040000000000000000000000000000000000000000000000000000000000000000200000000000000000800000000010000000000000000000000000000000000000000000002000000000000000400000000000000000000000000000000000000000000000000000004000000000000000000000000002000000000000000000080000002000000000000000000000000000000000000000000000000000000000000000000000000000000000000000000000",
      "type": "0x2",
      "transactionHash": "0x0eb48053d252678c5fcd784aeac13632108f4865d7757d022753f22a2d704ee6",
      "transactionIndex": "0x1",
      "blockHash": "0xf583d8f0fdfd14e91d085cbbd202f9633220d72b8fa238042905377eb5c1b9d7",
      "blockNumber": "0xc8df0e",
      "gasUsed": "0xd681",
      "effectiveGasPrice": "0xfd",
      "from": "0xcda2fdb452ff4f5d7ba1c3d5dfcc9cb926a5eb7d",
      "to": "0xb798f567d61b8cffd5854bf8f44efa63175d96b9",
      "contractAddress": null,
      "l1BaseFeeScalar": "0x186a0",
      "l1BlobBaseFee": "0x74f27422",
      "l1BlobBaseFeeScalar": "0x95506",
      "l1Fee": "0x41977f6243",
      "l1GasPrice": "0x3797adb7",
      "l1GasUsed": "0x68a"
    },
    {
      "status": "0x1",
      "cumulativeGasUsed": "0x256bd",
      "logs": [
        {
          "address": "0x4200000000000000000000000000000000000006",
          "topics": [
            "0xddf252ad1be2c89b69c2b068fc378daa952ba7f163c4a11628f55a4df523b3ef",
            "0x000000000000000000000000b798f567d61b8cffd5854bf8f44efa63175d96b9",
            "0x000000000000000000000000cda2fdb452ff4f5d7ba1c3d5dfcc9cb926a5eb7d"
          ],
          "data": "0x0000000000000000000000000000000000000000000000000043542f7b90ff2b",
          "blockHash": "0xf583d8f0fdfd14e91d085cbbd202f9633220d72b8fa238042905377eb5c1b9d7",
          "blockNumber": "0xc8df0e",
          "transactionHash": "0x59e995e0559c5cf77dea4b8c096962fbb2a2d8394c52c6b7a8f6104c0ea0f875",
          "transactionIndex": "0x2",
          "logIndex": "0x1",
          "removed": false
        }
      ],
      "logsBloom": "0x00000000000000000000000000000000000000000000000000040000000000000000000000000000000000100000000000000000000000000000000000000000000000000000000000000008040000000000000000000000000000000000000000000000000000000000000000200000000000000000800000000010000000000000000000000000000000000000000000002000002000000000000000000000000000000000000000000000000000000000000000004000000000000000000000000002000000000000000000080000000000000000000000000000000000000000000000000000000000000000000000000000000000000000000000000000",
      "type": "0x2",
      "transactionHash": "0x59e995e0559c5cf77dea4b8c096962fbb2a2d8394c52c6b7a8f6104c0ea0f875",
      "transactionIndex": "0x2",
      "blockHash": "0xf583d8f0fdfd14e91d085cbbd202f9633220d72b8fa238042905377eb5c1b9d7",
      "blockNumber": "0xc8df0e",
      "gasUsed": "0xd4cd",
      "effectiveGasPrice": "0xfd",
      "from": "0xcda2fdb452ff4f5d7ba1c3d5dfcc9cb926a5eb7d",
      "to": "0xb798f567d61b8cffd5854bf8f44efa63175d96b9",
      "contractAddress": null,
      "l1BaseFeeScalar": "0x186a0",
      "l1BlobBaseFee": "0x74f27422",
      "l1BlobBaseFeeScalar": "0x95506",
      "l1Fee": "0x3eaf2a754b",
      "l1GasPrice": "0x3797adb7",
      "l1GasUsed": "0x640"
    }
  ],
  "libraries": [],
  "pending": [],
  "returns": {},
  "timestamp": 1739190598,
  "chain": 60808,
  "commit": "c03c0fa"
}