{
  "transactions": [
    {
      "hash": "0x51c3eefaaa580eb897d84fcbc52704a29ffbe97083f2a971d8129733a2698dd9",
      "transactionType": "CREATE",
      "contractName": "Rescue",
      "contractAddress": "0x3966870f49806bef96ea3ff5bd31c57f68de0269",
      "function": null,
      "arguments": null,
      "transaction": {
        "from": "0xcda2fdb452ff4f5d7ba1c3d5dfcc9cb926a5eb7d",
        "gas": "0x82cc9",
        "value": "0x0",
        "input": "0x608060405234801561000f575f80fd5b50335f73ffffffffffffffffffffffffffffffffffffffff168173ffffffffffffffffffffffffffffffffffffffff1603610081575f6040517f1e4fbdf70000000000000000000000000000000000000000000000000000000081526004016100789190610196565b60405180910390fd5b6100908161009660201b60201c565b506101af565b5f805f9054906101000a900473ffffffffffffffffffffffffffffffffffffffff169050815f806101000a81548173ffffffffffffffffffffffffffffffffffffffff021916908373ffffffffffffffffffffffffffffffffffffffff1602179055508173ffffffffffffffffffffffffffffffffffffffff168173ffffffffffffffffffffffffffffffffffffffff167f8be0079c531659141344cd1fd0a4f28419497f9722a3daafe3b4186f6b6457e060405160405180910390a35050565b5f73ffffffffffffffffffffffffffffffffffffffff82169050919050565b5f61018082610157565b9050919050565b61019081610176565b82525050565b5f6020820190506101a95f830184610187565b92915050565b6105f3806101bc5f395ff3fe608060405234801561000f575f80fd5b506004361061004a575f3560e01c806347d1cd491461004e578063715018a61461006a5780638da5cb5b14610074578063f2fde38b14610092575b5f80fd5b61006860048036038101906100639190610418565b6100ae565b005b6100726101ad565b005b61007c6101c0565b6040516100899190610477565b60405180910390f35b6100ac60048036038101906100a79190610490565b6101e7565b005b5f8173ffffffffffffffffffffffffffffffffffffffff166370a08231846040518263ffffffff1660e01b81526004016100e89190610477565b602060405180830381865afa158015610103573d5f803e3d5ffd5b505050506040513d601f19601f8201168201806040525081019061012791906104ee565b90508173ffffffffffffffffffffffffffffffffffffffff166323b872dd8486846040518463ffffffff1660e01b815260040161016693929190610528565b6020604051808303815f875af1158015610182573d5f803e3d5ffd5b505050506040513d601f19601f820116820180604052508101906101a69190610592565b5050505050565b6101b561026b565b6101be5f6102f2565b565b5f805f9054906101000a900473ffffffffffffffffffffffffffffffffffffffff16905090565b6101ef61026b565b5f73ffffffffffffffffffffffffffffffffffffffff168173ffffffffffffffffffffffffffffffffffffffff160361025f575f6040517f1e4fbdf70000000000000000000000000000000000000000000000000000000081526004016102569190610477565b60405180910390fd5b610268816102f2565b50565b6102736103b3565b73ffffffffffffffffffffffffffffffffffffffff166102916101c0565b73ffffffffffffffffffffffffffffffffffffffff16146102f0576102b46103b3565b6040517f118cdaa70000000000000000000000000000000000000000000000000000000081526004016102e79190610477565b60405180910390fd5b565b5f805f9054906101000a900473ffffffffffffffffffffffffffffffffffffffff169050815f806101000a81548173ffffffffffffffffffffffffffffffffffffffff021916908373ffffffffffffffffffffffffffffffffffffffff1602179055508173ffffffffffffffffffffffffffffffffffffffff168173ffffffffffffffffffffffffffffffffffffffff167f8be0079c531659141344cd1fd0a4f28419497f9722a3daafe3b4186f6b6457e060405160405180910390a35050565b5f33905090565b5f80fd5b5f73ffffffffffffffffffffffffffffffffffffffff82169050919050565b5f6103e7826103be565b9050919050565b6103f7816103dd565b8114610401575f80fd5b50565b5f81359050610412816103ee565b92915050565b5f805f6060848603121561042f5761042e6103ba565b5b5f61043c86828701610404565b935050602061044d86828701610404565b925050604061045e86828701610404565b9150509250925092565b610471816103dd565b82525050565b5f60208201905061048a5f830184610468565b92915050565b5f602082840312156104a5576104a46103ba565b5b5f6104b284828501610404565b91505092915050565b5f819050919050565b6104cd816104bb565b81146104d7575f80fd5b50565b5f815190506104e8816104c4565b92915050565b5f60208284031215610503576105026103ba565b5b5f610510848285016104da565b91505092915050565b610522816104bb565b82525050565b5f60608201905061053b5f830186610468565b6105486020830185610468565b6105556040830184610519565b949350505050565b5f8115159050919050565b6105718161055d565b811461057b575f80fd5b50565b5f8151905061058c81610568565b92915050565b5f602082840312156105a7576105a66103ba565b5b5f6105b48482850161057e565b9150509291505056fea26469706673582212203b85dd1e1084b454dc951d698928fc97b285848c31da10b0ffbe4296f453953364736f6c63430008140033",
        "nonce": "0x2f64",
        "chainId": "0xed88"
      },
      "additionalContracts": [],
      "isFixedGasLimit": false
    },
    {
      "hash": "0x71b53e69d72e90ee3adcd077a735ead337644f078140e6666a59e2118939499d",
      "transactionType": "CALL",
      "contractName": null,
      "contractAddress": "0x6d46fb1f6659d0c5512cb96e8246bd7f6eeb5287",
      "function": "execute(address,bytes)",
      "arguments": [
        "0x6d46Fb1f6659D0C5512CB96e8246bD7f6Eeb5287",
        "0x095ea7b30000000000000000000000003966870f49806bef96ea3ff5bd31c57f68de0269ffffffffffffffffffffffffffffffffffffffffffffffffffffffffffffffff"
      ],
      "transaction": {
        "from": "0xcda2fdb452ff4f5d7ba1c3d5dfcc9cb926a5eb7d",
        "to": "0x6d46fb1f6659d0c5512cb96e8246bd7f6eeb5287",
        "gas": "0x1248d",
        "value": "0x0",
        "input": "0x1cff79cd0000000000000000000000006d46fb1f6659d0c5512cb96e8246bd7f6eeb528700000000000000000000000000000000000000000000000000000000000000400000000000000000000000000000000000000000000000000000000000000044095ea7b30000000000000000000000003966870f49806bef96ea3ff5bd31c57f68de0269ffffffffffffffffffffffffffffffffffffffffffffffffffffffffffffffff00000000000000000000000000000000000000000000000000000000",
        "nonce": "0x2f65",
        "chainId": "0xed88"
      },
      "additionalContracts": [],
      "isFixedGasLimit": false
    },
    {
      "hash": "0xe438ef7730f03532a50746433074a1d9f0b41b06c896808d4ec295f5cd372280",
      "transactionType": "CALL",
      "contractName": "Rescue",
      "contractAddress": "0x3966870f49806bef96ea3ff5bd31c57f68de0269",
      "function": "rescue(address,address,address)",
      "arguments": [
        "0xcdA2fDB452FF4F5D7Ba1C3d5dFCc9CB926A5eb7D",
        "0x6d46Fb1f6659D0C5512CB96e8246bD7f6Eeb5287",
        "0x6d46Fb1f6659D0C5512CB96e8246bD7f6Eeb5287"
      ],
      "transaction": {
        "from": "0xcda2fdb452ff4f5d7ba1c3d5dfcc9cb926a5eb7d",
        "to": "0x3966870f49806bef96ea3ff5bd31c57f68de0269",
        "gas": "0xcec8",
        "value": "0x0",
        "input": "0x47d1cd49000000000000000000000000cda2fdb452ff4f5d7ba1c3d5dfcc9cb926a5eb7d0000000000000000000000006d46fb1f6659d0c5512cb96e8246bd7f6eeb52870000000000000000000000006d46fb1f6659d0c5512cb96e8246bd7f6eeb5287",
        "nonce": "0x2f66",
        "chainId": "0xed88"
      },
      "additionalContracts": [],
      "isFixedGasLimit": false
    }
  ],
  "receipts": [
    {
      "status": "0x1",
      "cumulativeGasUsed": "0x6fe22",
      "logs": [
        {
          "address": "0x3966870f49806bef96ea3ff5bd31c57f68de0269",
          "topics": [
            "0x8be0079c531659141344cd1fd0a4f28419497f9722a3daafe3b4186f6b6457e0",
            "0x0000000000000000000000000000000000000000000000000000000000000000",
            "0x000000000000000000000000cda2fdb452ff4f5d7ba1c3d5dfcc9cb926a5eb7d"
          ],
          "data": "0x",
          "blockHash": "0xdad1ee72cc2a31fc2bb181db2ce4861b624b382663e01a0c8dfd4a94523265ce",
          "blockNumber": "0x11c7b4f",
          "transactionHash": "0x51c3eefaaa580eb897d84fcbc52704a29ffbe97083f2a971d8129733a2698dd9",
          "transactionIndex": "0x1",
          "logIndex": "0x0",
          "removed": false
        }
      ],
      "logsBloom": "0x00000000000000000000000000000000000000000000800000800000000000000000000000000000000000000000000000000000000000000000000000000000000000000000000000000000040000000001000000000000000000000000000000000000020080000000000000000800000000000000800000000000000000400000000000000000000200000000000000000000000000000000000000000000000000000000000000000000000000000000000000004000000000000000000000000000000000000000000000000000000000000000000000000000000020000000000000000000000000000000000000000000000000000000000000000000",
      "type": "0x2",
      "transactionHash": "0x51c3eefaaa580eb897d84fcbc52704a29ffbe97083f2a971d8129733a2698dd9",
      "transactionIndex": "0x1",
      "blockHash": "0xdad1ee72cc2a31fc2bb181db2ce4861b624b382663e01a0c8dfd4a94523265ce",
      "blockNumber": "0x11c7b4f",
      "gasUsed": "0x649d6",
      "effectiveGasPrice": "0xfd",
      "from": "0xcda2fdb452ff4f5d7ba1c3d5dfcc9cb926a5eb7d",
      "to": null,
      "contractAddress": "0x3966870f49806bef96ea3ff5bd31c57f68de0269",
      "l1BaseFeeScalar": "0x989680",
      "l1BlobBaseFee": "0x1",
      "l1BlobBaseFeeScalar": "0x95506",
      "l1Fee": "0xd6e38145d508",
      "l1GasPrice": "0x60596fc1",
      "l1GasUsed": "0x3918"
    },
    {
      "status": "0x1",
      "cumulativeGasUsed": "0x7c62b",
      "logs": [
        {
          "address": "0x6d46fb1f6659d0c5512cb96e8246bd7f6eeb5287",
          "topics": [
            "0x8c5be1e5ebec7d5bd14f71427d1e84f3dd0314c0f7b2291e5b200ac8c7c3b925",
            "0x0000000000000000000000006d46fb1f6659d0c5512cb96e8246bd7f6eeb5287",
            "0x0000000000000000000000003966870f49806bef96ea3ff5bd31c57f68de0269"
          ],
          "data": "0xffffffffffffffffffffffffffffffffffffffffffffffffffffffffffffffff",
          "blockHash": "0xdad1ee72cc2a31fc2bb181db2ce4861b624b382663e01a0c8dfd4a94523265ce",
          "blockNumber": "0x11c7b4f",
          "transactionHash": "0x71b53e69d72e90ee3adcd077a735ead337644f078140e6666a59e2118939499d",
          "transactionIndex": "0x2",
          "logIndex": "0x1",
          "removed": false
        }
      ],
      "logsBloom": "0x00000000000000000000000000000000000000000000000000000000000000000000000000000000000000000000000000000000000000000000000000200000000000000000000000000000000000000000000100000000000000000000000000000000020000000000000000000000000000000000000000000000000000010000000000000000000008000000000000000000400000000000000000000000020400000000000000000000000000000000000000000000000000000000000000000000000000000000000010000000000000000000000000000000000000000010000000000000000000000000000080000000000000000000100000000000",
      "type": "0x2",
      "transactionHash": "0x71b53e69d72e90ee3adcd077a735ead337644f078140e6666a59e2118939499d",
      "transactionIndex": "0x2",
      "blockHash": "0xdad1ee72cc2a31fc2bb181db2ce4861b624b382663e01a0c8dfd4a94523265ce",
      "blockNumber": "0x11c7b4f",
      "gasUsed": "0xc809",
      "effectiveGasPrice": "0xfd",
      "from": "0xcda2fdb452ff4f5d7ba1c3d5dfcc9cb926a5eb7d",
      "to": "0x6d46fb1f6659d0c5512cb96e8246bd7f6eeb5287",
      "contractAddress": null,
      "l1BaseFeeScalar": "0x989680",
      "l1BlobBaseFee": "0x1",
      "l1BlobBaseFeeScalar": "0x95506",
      "l1Fee": "0x1966a47a75c7",
      "l1GasPrice": "0x60596fc1",
      "l1GasUsed": "0x6bf"
    },
    {
      "status": "0x1",
      "cumulativeGasUsed": "0x85be0",
      "logs": [
        {
          "address": "0x6d46fb1f6659d0c5512cb96e8246bd7f6eeb5287",
          "topics": [
            "0xddf252ad1be2c89b69c2b068fc378daa952ba7f163c4a11628f55a4df523b3ef",
            "0x0000000000000000000000006d46fb1f6659d0c5512cb96e8246bd7f6eeb5287",
            "0x000000000000000000000000cda2fdb452ff4f5d7ba1c3d5dfcc9cb926a5eb7d"
          ],
          "data": "0x0000000000000000000000000000000000000000b6542e41daddd186b5000000",
          "blockHash": "0xdad1ee72cc2a31fc2bb181db2ce4861b624b382663e01a0c8dfd4a94523265ce",
          "blockNumber": "0x11c7b4f",
          "transactionHash": "0xe438ef7730f03532a50746433074a1d9f0b41b06c896808d4ec295f5cd372280",
          "transactionIndex": "0x3",
          "logIndex": "0x2",
          "removed": false
        }
      ],
      "logsBloom": "0x00000000000000000000000000000000000000000000000000000000000000000000000000000000000000000000000000000000000000000000000000000000000000000000000000000008040000000000000100000000000000000000000000000000020000000000000000000000000000000000800000000010000000010000000000000000000000000000000000000000400000000000000000000000000400000000000000000000000000000000000000004000000000000000000000000002000000000000000000000000000000000000000000000000000000000000000000000000000000000000000080000000000000000000000000000000",
      "type": "0x2",
      "transactionHash": "0xe438ef7730f03532a50746433074a1d9f0b41b06c896808d4ec295f5cd372280",
      "transactionIndex": "0x3",
      "blockHash": "0xdad1ee72cc2a31fc2bb181db2ce4861b624b382663e01a0c8dfd4a94523265ce",
      "blockNumber": "0x11c7b4f",
      "gasUsed": "0x95b5",
      "effectiveGasPrice": "0xfd",
      "from": "0xcda2fdb452ff4f5d7ba1c3d5dfcc9cb926a5eb7d",
      "to": "0x3966870f49806bef96ea3ff5bd31c57f68de0269",
      "contractAddress": null,
      "l1BaseFeeScalar": "0x989680",
      "l1BlobBaseFee": "0x1",
      "l1BlobBaseFeeScalar": "0x95506",
      "l1Fee": "0x186ac77c540e",
      "l1GasPrice": "0x60596fc1",
      "l1GasUsed": "0x67c"
    }
  ],
  "libraries": [],
  "pending": [],
  "returns": {},
  "timestamp": 1750149589,
  "chain": 60808,
  "commit": "76f5463"
}