{
  "transactions": [
    {
      "hash": "0x892bdcb44737c1764bff5fb584f802cf1926176b233061ecf3a74f51d215bd92",
      "transactionType": "CALL",
      "contractName": null,
      "contractAddress": "0xf9bcffb46e008ff75006a7c906976bdc6d89615d",
      "function": "setFee(uint256)",
      "arguments": [
        "200"
      ],
      "transaction": {
        "from": "0xcda2fdb452ff4f5d7ba1c3d5dfcc9cb926a5eb7d",
        "to": "0xf9bcffb46e008ff75006a7c906976bdc6d89615d",
        "gas": "0x9b10",
        "value": "0x0",
        "input": "0x69fe0e2d00000000000000000000000000000000000000000000000000000000000000c8",
        "nonce": "0x2c8a",
        "chainId": "0xed88"
      },
      "additionalContracts": [],
      "isFixedGasLimit": false
    },
    {
      "hash": "0x8c0e8b17a97ce3dde4dc5fa10e95240a2121b9c9e9ca7e33f0fce802e2a817bf",
      "transactionType": "CALL",
      "contractName": null,
      "contractAddress": "0xf9bcffb46e008ff75006a7c906976bdc6d89615d",
      "function": "setSlippage(uint256)",
      "arguments": [
        "25"
      ],
      "transaction": {
        "from": "0xcda2fdb452ff4f5d7ba1c3d5dfcc9cb926a5eb7d",
        "to": "0xf9bcffb46e008ff75006a7c906976bdc6d89615d",
        "gas": "0x9af0",
        "value": "0x0",
        "input": "0xf0fa55a90000000000000000000000000000000000000000000000000000000000000019",
        "nonce": "0x2c8b",
        "chainId": "0xed88"
      },
      "additionalContracts": [],
      "isFixedGasLimit": false
    }
  ],
  "receipts": [
    {
      "status": "0x1",
      "cumulativeGasUsed": "0x16dbb",
      "logs": [],
      "logsBloom": "0x00000000000000000000000000000000000000000000000000000000000000000000000000000000000000000000000000000000000000000000000000000000000000000000000000000000000000000000000000000000000000000000000000000000000000000000000000000000000000000000000000000000000000000000000000000000000000000000000000000000000000000000000000000000000000000000000000000000000000000000000000000000000000000000000000000000000000000000000000000000000000000000000000000000000000000000000000000000000000000000000000000000000000000000000000000000",
      "type": "0x2",
      "transactionHash": "0x892bdcb44737c1764bff5fb584f802cf1926176b233061ecf3a74f51d215bd92",
      "transactionIndex": "0x2",
      "blockHash": "0xf73ff0278300133014dd69e08ae063f65b4b7992aad3213da016ef662488a2fb",
      "blockNumber": "0xf2b5f2",
      "gasUsed": "0x7044",
      "effectiveGasPrice": "0xfd",
      "from": "0xcda2fdb452ff4f5d7ba1c3d5dfcc9cb926a5eb7d",
      "to": "0xf9bcffb46e008ff75006a7c906976bdc6d89615d",
      "contractAddress": null,
      "l1BaseFeeScalar": "0x989680",
      "l1BlobBaseFee": "0x427eabd",
      "l1BlobBaseFeeScalar": "0x95506",
      "l1Fee": "0x5def02684b5",
      "l1GasPrice": "0x1807f7b8",
      "l1GasUsed": "0x640"
    },
    {
      "status": "0x1",
      "cumulativeGasUsed": "0x11b9c",
      "logs": [],
      "logsBloom": "0x00000000000000000000000000000000000000000000000000000000000000000000000000000000000000000000000000000000000000000000000000000000000000000000000000000000000000000000000000000000000000000000000000000000000000000000000000000000000000000000000000000000000000000000000000000000000000000000000000000000000000000000000000000000000000000000000000000000000000000000000000000000000000000000000000000000000000000000000000000000000000000000000000000000000000000000000000000000000000000000000000000000000000000000000000000000",
      "type": "0x2",
      "transactionHash": "0x8c0e8b17a97ce3dde4dc5fa10e95240a2121b9c9e9ca7e33f0fce802e2a817bf",
      "transactionIndex": "0x1",
      "blockHash": "0x6a515878949fb0c0f90208e11bc752bff7f35ad9b15b81abf8850faa1ce08cdc",
      "blockNumber": "0xf2b5f3",
      "gasUsed": "0x702d",
      "effectiveGasPrice": "0xfd",
      "from": "0xcda2fdb452ff4f5d7ba1c3d5dfcc9cb926a5eb7d",
      "to": "0xf9bcffb46e008ff75006a7c906976bdc6d89615d",
      "contractAddress": null,
      "l1BaseFeeScalar": "0x989680",
      "l1BlobBaseFee": "0x427eabd",
      "l1BlobBaseFeeScalar": "0x95506",
      "l1Fee": "0x5def02684b5",
      "l1GasPrice": "0x1807f7b8",
      "l1GasUsed": "0x640"
    }
  ],
  "libraries": [],
  "pending": [],
  "returns": {},
  "timestamp": 1744674574,
  "chain": 60808,
  "commit": "76f5463"
}