{
  "transactions": [
    {
      "hash": "0x823febf517c3e283e18f3ebc7923cbeba0f7f517e1f17dd88d1e1cf2bea1440c",
      "transactionType": "CALL",
      "contractName": null,
      "contractAddress": "0xf9bcffb46e008ff75006a7c906976bdc6d89615d",
      "function": "setSlippage(uint256)",
      "arguments": [
        "500"
      ],
      "transaction": {
        "from": "0xcda2fdb452ff4f5d7ba1c3d5dfcc9cb926a5eb7d",
        "to": "0xf9bcffb46e008ff75006a7c906976bdc6d89615d",
        "gas": "0xa420",
        "value": "0x0",
        "input": "0xf0fa55a900000000000000000000000000000000000000000000000000000000000001f4",
        "nonce": "0x2c92",
        "chainId": "0xed88"
      },
      "additionalContracts": [],
      "isFixedGasLimit": false
    }
  ],
  "receipts": [
    {
      "status": "0x1",
      "cumulativeGasUsed": "0x22e27",
      "logs": [],
      "logsBloom": "0x00000000000000000000000000000000000000000000000000000000000000000000000000000000000000000000000000000000000000000000000000000000000000000000000000000000000000000000000000000000000000000000000000000000000000000000000000000000000000000000000000000000000000000000000000000000000000000000000000000000000000000000000000000000000000000000000000000000000000000000000000000000000000000000000000000000000000000000000000000000000000000000000000000000000000000000000000000000000000000000000000000000000000000000000000000000",
      "type": "0x2",
      "transactionHash": "0x823febf517c3e283e18f3ebc7923cbeba0f7f517e1f17dd88d1e1cf2bea1440c",
      "transactionIndex": "0x2",
      "blockHash": "0x37cee7644c6016d45fd35f2d9cefdba8e28fb92f8d8777c3fec1555cf666aa7e",
      "blockNumber": "0xf2b668",
      "gasUsed": "0x7039",
      "effectiveGasPrice": "0xfd",
      "from": "0xcda2fdb452ff4f5d7ba1c3d5dfcc9cb926a5eb7d",
      "to": "0xf9bcffb46e008ff75006a7c906976bdc6d89615d",
      "contractAddress": null,
      "l1BaseFeeScalar": "0x989680",
      "l1BlobBaseFee": "0x3fef4b2",
      "l1BlobBaseFeeScalar": "0x95506",
      "l1Fee": "0x546e566624f",
      "l1GasPrice": "0x15995c37",
      "l1GasUsed": "0x640"
    }
  ],
  "libraries": [],
  "pending": [],
  "returns": {},
  "timestamp": 1744674809,
  "chain": 60808,
  "commit": "76f5463"
}