{
  "transactions": [
    {
      "hash": "0xa638a68b481bd21765e0cde47edd2a300ae8011224829283ce022c668b8396db",
      "transactionType": "CALL",
      "contractName": null,
      "contractAddress": "0x79674078ad361d75ee04c73bccb5bbea4c55c618",
      "function": "changeStates(address[],address[],uint8[],uint24[],address,address,address,address)",
      "arguments": [
        "[0x03C7054BCB39f7b2e5B2c7AcB37583e32D70Cfa3, 0x4200000000000000000000000000000000000006]",
        "[0x041a131Fa91Ad61dD85262A42c04975986580d50, 0x5b0cf2b36a65a6BB085D501B971e4c102B9Cd473]",
        "[8, 18]",
        "[3000, 3000]",
        "0x05D032ac25d322df992303dCa074EE7392C117b9",
        "0x807F4E281B7A3B324825C64ca53c69F0b418dE40",
        "0x6Aa54a43d7eEF5b239a18eed3Af4877f46522BCA",
        "0xcb2436774C3e191c85056d248EF4260ce5f27A9D"
      ],
      "transaction": {
        "from": "0xcda2fdb452ff4f5d7ba1c3d5dfcc9cb926a5eb7d",
        "to": "0x79674078ad361d75ee04c73bccb5bbea4c55c618",
        "gas": "0x1c896",
        "value": "0x0",
        "input": "0x423792170000000000000000000000000000000000000000000000000000000000000100000000000000000000000000000000000000000000000000000000000000016000000000000000000000000000000000000000000000000000000000000001c0000000000000000000000000000000000000000000000000000000000000022000000000000000000000000005d032ac25d322df992303dca074ee7392c117b9000000000000000000000000807f4e281b7a3b324825c64ca53c69f0b418de400000000000000000000000006aa54a43d7eef5b239a18eed3af4877f46522bca000000000000000000000000cb2436774c3e191c85056d248ef4260ce5f27a9d000000000000000000000000000000000000000000000000000000000000000200000000000000000000000003c7054bcb39f7b2e5b2c7acb37583e32d70cfa300000000000000000000000042000000000000000000000000000000000000060000000000000000000000000000000000000000000000000000000000000002000000000000000000000000041a131fa91ad61dd85262a42c04975986580d500000000000000000000000005b0cf2b36a65a6bb085d501b971e4c102b9cd47300000000000000000000000000000000000000000000000000000000000000020000000000000000000000000000000000000000000000000000000000000008000000000000000000000000000000000000000000000000000000000000001200000000000000000000000000000000000000000000000000000000000000020000000000000000000000000000000000000000000000000000000000000bb80000000000000000000000000000000000000000000000000000000000000bb8",
        "nonce": "0x2c49",
        "chainId": "0xed88"
      },
      "additionalContracts": [],
      "isFixedGasLimit": false
    }
  ],
  "receipts": [
    {
      "status": "0x1",
      "cumulativeGasUsed": "0x1f5db",
      "logs": [],
      "logsBloom": "0x00000000000000000000000000000000000000000000000000000000000000000000000000000000000000000000000000000000000000000000000000000000000000000000000000000000000000000000000000000000000000000000000000000000000000000000000000000000000000000000000000000000000000000000000000000000000000000000000000000000000000000000000000000000000000000000000000000000000000000000000000000000000000000000000000000000000000000000000000000000000000000000000000000000000000000000000000000000000000000000000000000000000000000000000000000000",
      "type": "0x2",
      "transactionHash": "0xa638a68b481bd21765e0cde47edd2a300ae8011224829283ce022c668b8396db",
      "transactionIndex": "0x1",
      "blockHash": "0x6b4d0b493d4bd1556a77197973cb7fe5621313bfd5406bac13aca47ed018096c",
      "blockNumber": "0xda94b4",
      "gasUsed": "0x14a90",
      "effectiveGasPrice": "0xfd",
      "from": "0xcda2fdb452ff4f5d7ba1c3d5dfcc9cb926a5eb7d",
      "to": "0x79674078ad361d75ee04c73bccb5bbea4c55c618",
      "contractAddress": null,
      "l1BaseFeeScalar": "0x186a0",
      "l1BlobBaseFee": "0x1",
      "l1BlobBaseFeeScalar": "0x95506",
      "l1Fee": "0x38ad99d500",
      "l1GasPrice": "0x1fc8895d",
      "l1GasUsed": "0x11d5"
    }
  ],
  "libraries": [],
  "pending": [],
  "returns": {},
  "timestamp": 1741511825,
  "chain": 60808,
  "commit": "c03c0fa"
}