{
  "transactions": [
    {
      "hash": "0x6b855e55f47f8aae455b046b4b78389235ae8cc90c6a8b827337a4e9ea591cb8",
      "transactionType": "CALL",
      "contractName": null,
      "contractAddress": "0x05d032ac25d322df992303dca074ee7392c117b9",
      "function": "approve(address,uint256)",
      "arguments": [
        "0x0932F0E427D7CF8709Bbf3CE2F3B42D1Fa538439",
        "115792089237316195423570985008687907853269984665640564039457584007913129639935"
      ],
      "transaction": {
        "from": "0xcda2fdb452ff4f5d7ba1c3d5dfcc9cb926a5eb7d",
        "to": "0x05d032ac25d322df992303dca074ee7392c117b9",
        "gas": "0x8fd0",
        "value": "0x0",
        "input": "0x095ea7b30000000000000000000000000932f0e427d7cf8709bbf3ce2f3b42d1fa538439ffffffffffffffffffffffffffffffffffffffffffffffffffffffffffffffff",
        "nonce": "0x22a6",
        "chainId": "0xed88"
      },
      "additionalContracts": [],
      "isFixedGasLimit": false
    },
    {
      "hash": "0x33f1a7bd2635728a3c9854ed7e50eaeea3837e52ae7aa98b774d3676527de305",
      "transactionType": "CALL",
      "contractName": null,
      "contractAddress": "0x03c7054bcb39f7b2e5b2c7acb37583e32d70cfa3",
      "function": "approve(address,uint256)",
      "arguments": [
        "0x0932F0E427D7CF8709Bbf3CE2F3B42D1Fa538439",
        "115792089237316195423570985008687907853269984665640564039457584007913129639935"
      ],
      "transaction": {
        "from": "0xcda2fdb452ff4f5d7ba1c3d5dfcc9cb926a5eb7d",
        "to": "0x03c7054bcb39f7b2e5b2c7acb37583e32d70cfa3",
        "gas": "0x8fd0",
        "value": "0x0",
        "input": "0x095ea7b30000000000000000000000000932f0e427d7cf8709bbf3ce2f3b42d1fa538439ffffffffffffffffffffffffffffffffffffffffffffffffffffffffffffffff",
        "nonce": "0x22a7",
        "chainId": "0xed88"
      },
      "additionalContracts": [],
      "isFixedGasLimit": false
    },
    {
      "hash": "0xcb877b0e35b998a8edda7857349ed62926c8912b4357ce0af976ac5310cc69d4",
      "transactionType": "CALL",
      "contractName": null,
      "contractAddress": "0x4200000000000000000000000000000000000006",
      "function": "approve(address,uint256)",
      "arguments": [
        "0x0932F0E427D7CF8709Bbf3CE2F3B42D1Fa538439",
        "115792089237316195423570985008687907853269984665640564039457584007913129639935"
      ],
      "transaction": {
        "from": "0xcda2fdb452ff4f5d7ba1c3d5dfcc9cb926a5eb7d",
        "to": "0x4200000000000000000000000000000000000006",
        "gas": "0x9710",
        "value": "0x0",
        "input": "0x095ea7b30000000000000000000000000932f0e427d7cf8709bbf3ce2f3b42d1fa538439ffffffffffffffffffffffffffffffffffffffffffffffffffffffffffffffff",
        "nonce": "0x22a8",
        "chainId": "0xed88"
      },
      "additionalContracts": [],
      "isFixedGasLimit": false
    },
    {
      "hash": "0x3ca64a1b1e9069c94724f0e30fe1cd116746ca430372f3849ed95285986c4385",
      "transactionType": "CALL",
      "contractName": null,
      "contractAddress": "0x0932f0e427d7cf8709bbf3ce2f3b42d1fa538439",
      "function": "mint(uint256,address)",
      "arguments": [
        "1000000000000000000000000000",
        "0xcdA2fDB452FF4F5D7Ba1C3d5dFCc9CB926A5eb7D"
      ],
      "transaction": {
        "from": "0xcda2fdb452ff4f5d7ba1c3d5dfcc9cb926a5eb7d",
        "to": "0x0932f0e427d7cf8709bbf3ce2f3b42d1fa538439",
        "gas": "0xa854c",
        "value": "0x0",
        "input": "0x94bf804d0000000000000000000000000000000000000000033b2e3c9fd0803ce8000000000000000000000000000000cda2fdb452ff4f5d7ba1c3d5dfcc9cb926a5eb7d",
        "nonce": "0x22a9",
        "chainId": "0xed88"
      },
      "additionalContracts": [],
      "isFixedGasLimit": false
    }
  ],
  "receipts": [
    {
      "status": "0x1",
      "cumulativeGasUsed": "0x1138e",
      "logs": [
        {
          "address": "0x05d032ac25d322df992303dca074ee7392c117b9",
          "topics": [
            "0x8c5be1e5ebec7d5bd14f71427d1e84f3dd0314c0f7b2291e5b200ac8c7c3b925",
            "0x000000000000000000000000cda2fdb452ff4f5d7ba1c3d5dfcc9cb926a5eb7d",
            "0x0000000000000000000000000932f0e427d7cf8709bbf3ce2f3b42d1fa538439"
          ],
          "data": "0xffffffffffffffffffffffffffffffffffffffffffffffffffffffffffffffff",
          "blockHash": "0x8ea2fe8e5d6edb034f0913c99ba84248984dcf5360177e5c4fe73c3c97da6fbd",
          "blockNumber": "0xc8dfce",
          "transactionHash": "0x6b855e55f47f8aae455b046b4b78389235ae8cc90c6a8b827337a4e9ea591cb8",
          "transactionIndex": "0x1",
          "logIndex": "0x0",
          "removed": false
        }
      ],
      "logsBloom": "0x00000000000000000000010200000000000000000000000000000000000000000000000000000000000000000000000000000000000000020000000000200000000000000000000000000000040000000000000000000000000000010000000000000000000000000000000000000000000000000000800000000000000000000000000800000000000000000000000000000000000000000000000000000000020000000000000000000000000000000080000000004000000000000000000000000000000000000000000000000000000000000000000000000000000000000010000000000000000000000000000000000000000000000000000000000000",
      "type": "0x2",
      "transactionHash": "0x6b855e55f47f8aae455b046b4b78389235ae8cc90c6a8b827337a4e9ea591cb8",
      "transactionIndex": "0x1",
      "blockHash": "0x8ea2fe8e5d6edb034f0913c99ba84248984dcf5360177e5c4fe73c3c97da6fbd",
      "blockNumber": "0xc8dfce",
      "gasUsed": "0x681f",
      "effectiveGasPrice": "0xfd",
      "from": "0xcda2fdb452ff4f5d7ba1c3d5dfcc9cb926a5eb7d",
      "to": "0x05d032ac25d322df992303dca074ee7392c117b9",
      "contractAddress": null,
      "l1BaseFeeScalar": "0x186a0",
      "l1BlobBaseFee": "0x10073bc9d",
      "l1BlobBaseFeeScalar": "0x95506",
      "l1Fee": "0x71b7f772d4",
      "l1GasPrice": "0x53ec2e35",
      "l1GasUsed": "0x640"
    },
    {
      "status": "0x1",
      "cumulativeGasUsed": "0x17bad",
      "logs": [
        {
          "address": "0x03c7054bcb39f7b2e5b2c7acb37583e32d70cfa3",
          "topics": [
            "0x8c5be1e5ebec7d5bd14f71427d1e84f3dd0314c0f7b2291e5b200ac8c7c3b925",
            "0x000000000000000000000000cda2fdb452ff4f5d7ba1c3d5dfcc9cb926a5eb7d",
            "0x0000000000000000000000000932f0e427d7cf8709bbf3ce2f3b42d1fa538439"
          ],
          "data": "0xffffffffffffffffffffffffffffffffffffffffffffffffffffffffffffffff",
          "blockHash": "0x8ea2fe8e5d6edb034f0913c99ba84248984dcf5360177e5c4fe73c3c97da6fbd",
          "blockNumber": "0xc8dfce",
          "transactionHash": "0x33f1a7bd2635728a3c9854ed7e50eaeea3837e52ae7aa98b774d3676527de305",
          "transactionIndex": "0x2",
          "logIndex": "0x1",
          "removed": false
        }
      ],
      "logsBloom": "0x00000000000000000000000200000100000000000000000000000000000000000000000000000000000000000000000000000000000000020000000000200000000000000000000000000000040000000000000000000000000000010000000000000000000000000000000000000000000000000000800000000000000000000000000000000000000000000000000000000000000000000000400000000000020000000000000000000000000000000000000000004000000000000000000000000000000000000000000000000000002000000000000000000000000000000010000000000000000000000000000000000000000000000000000000000000",
      "type": "0x2",
      "transactionHash": "0x33f1a7bd2635728a3c9854ed7e50eaeea3837e52ae7aa98b774d3676527de305",
      "transactionIndex": "0x2",
      "blockHash": "0x8ea2fe8e5d6edb034f0913c99ba84248984dcf5360177e5c4fe73c3c97da6fbd",
      "blockNumber": "0xc8dfce",
      "gasUsed": "0x681f",
      "effectiveGasPrice": "0xfd",
      "from": "0xcda2fdb452ff4f5d7ba1c3d5dfcc9cb926a5eb7d",
      "to": "0x03c7054bcb39f7b2e5b2c7acb37583e32d70cfa3",
      "contractAddress": null,
      "l1BaseFeeScalar": "0x186a0",
      "l1BlobBaseFee": "0x10073bc9d",
      "l1BlobBaseFeeScalar": "0x95506",
      "l1Fee": "0x71b7f772d4",
      "l1GasPrice": "0x53ec2e35",
      "l1GasUsed": "0x640"
    },
    {
      "status": "0x1",
      "cumulativeGasUsed": "0x1e2f8",
      "logs": [
        {
          "address": "0x4200000000000000000000000000000000000006",
          "topics": [
            "0x8c5be1e5ebec7d5bd14f71427d1e84f3dd0314c0f7b2291e5b200ac8c7c3b925",
            "0x000000000000000000000000cda2fdb452ff4f5d7ba1c3d5dfcc9cb926a5eb7d",
            "0x0000000000000000000000000932f0e427d7cf8709bbf3ce2f3b42d1fa538439"
          ],
          "data": "0xffffffffffffffffffffffffffffffffffffffffffffffffffffffffffffffff",
          "blockHash": "0x8ea2fe8e5d6edb034f0913c99ba84248984dcf5360177e5c4fe73c3c97da6fbd",
          "blockNumber": "0xc8dfce",
          "transactionHash": "0xcb877b0e35b998a8edda7857349ed62926c8912b4357ce0af976ac5310cc69d4",
          "transactionIndex": "0x3",
          "logIndex": "0x2",
          "removed": false
        }
      ],
      "logsBloom": "0x00000000000000000000000200000000000000000000000000040000000000000000000000000000000000100000000000000000000000020000000000200000000000000000000000000000040000000000000000000000000000010000000000000000000000000000000000000000000000000000800000000000000000000000000000000000000000000000000000000000002000000000000000000000020000000000000000000000000000000000000000004000000000000000000000000000000000000000000000000000000000000000000000000000000000000010000000000000000000000000000000000000000000000000000000000000",
      "type": "0x2",
      "transactionHash": "0xcb877b0e35b998a8edda7857349ed62926c8912b4357ce0af976ac5310cc69d4",
      "transactionIndex": "0x3",
      "blockHash": "0x8ea2fe8e5d6edb034f0913c99ba84248984dcf5360177e5c4fe73c3c97da6fbd",
      "blockNumber": "0xc8dfce",
      "gasUsed": "0x674b",
      "effectiveGasPrice": "0xfd",
      "from": "0xcda2fdb452ff4f5d7ba1c3d5dfcc9cb926a5eb7d",
      "to": "0x4200000000000000000000000000000000000006",
      "contractAddress": null,
      "l1BaseFeeScalar": "0x186a0",
      "l1BlobBaseFee": "0x10073bc9d",
      "l1BlobBaseFeeScalar": "0x95506",
      "l1Fee": "0x71b7f772d4",
      "l1GasPrice": "0x53ec2e35",
      "l1GasUsed": "0x640"
    },
    {
      "status": "0x1",
      "cumulativeGasUsed": "0x9148b",
      "logs": [
        {
          "address": "0x05d032ac25d322df992303dca074ee7392c117b9",
          "topics": [
            "0xddf252ad1be2c89b69c2b068fc378daa952ba7f163c4a11628f55a4df523b3ef",
            "0x000000000000000000000000cda2fdb452ff4f5d7ba1c3d5dfcc9cb926a5eb7d",
            "0x0000000000000000000000000932f0e427d7cf8709bbf3ce2f3b42d1fa538439"
          ],
          "data": "0x00000000000000000000000000000000000000000000000000000000000f70e4",
          "blockHash": "0x8ea2fe8e5d6edb034f0913c99ba84248984dcf5360177e5c4fe73c3c97da6fbd",
          "blockNumber": "0xc8dfce",
          "transactionHash": "0x3ca64a1b1e9069c94724f0e30fe1cd116746ca430372f3849ed95285986c4385",
          "transactionIndex": "0x4",
          "logIndex": "0x3",
          "removed": false
        },
        {
          "address": "0x05d032ac25d322df992303dca074ee7392c117b9",
          "topics": [
            "0x8c5be1e5ebec7d5bd14f71427d1e84f3dd0314c0f7b2291e5b200ac8c7c3b925",
            "0x0000000000000000000000000932f0e427d7cf8709bbf3ce2f3b42d1fa538439",
            "0x000000000000000000000000807f4e281b7a3b324825c64ca53c69f0b418de40"
          ],
          "data": "0x00000000000000000000000000000000000000000000000000000000000f70e4",
          "blockHash": "0x8ea2fe8e5d6edb034f0913c99ba84248984dcf5360177e5c4fe73c3c97da6fbd",
          "blockNumber": "0xc8dfce",
          "transactionHash": "0x3ca64a1b1e9069c94724f0e30fe1cd116746ca430372f3849ed95285986c4385",
          "transactionIndex": "0x4",
          "logIndex": "0x4",
          "removed": false
        },
        {
          "address": "0x03c7054bcb39f7b2e5b2c7acb37583e32d70cfa3",
          "topics": [
            "0xddf252ad1be2c89b69c2b068fc378daa952ba7f163c4a11628f55a4df523b3ef",
            "0x0000000000000000000000006407fec527abad1aafdb9a3b5a2171800c21a2fe",
            "0x0000000000000000000000000932f0e427d7cf8709bbf3ce2f3b42d1fa538439"
          ],
          "data": "0x000000000000000000000000000000000000000000000000000000000000020a",
          "blockHash": "0x8ea2fe8e5d6edb034f0913c99ba84248984dcf5360177e5c4fe73c3c97da6fbd",
          "blockNumber": "0xc8dfce",
          "transactionHash": "0x3ca64a1b1e9069c94724f0e30fe1cd116746ca430372f3849ed95285986c4385",
          "transactionIndex": "0x4",
          "logIndex": "0x5",
          "removed": false
        },
        {
          "address": "0x05d032ac25d322df992303dca074ee7392c117b9",
          "topics": [
            "0x8c5be1e5ebec7d5bd14f71427d1e84f3dd0314c0f7b2291e5b200ac8c7c3b925",
            "0x0000000000000000000000000932f0e427d7cf8709bbf3ce2f3b42d1fa538439",
            "0x000000000000000000000000807f4e281b7a3b324825c64ca53c69f0b418de40"
          ],
          "data": "0x000000000000000000000000000000000000000000000000000000000007b872",
          "blockHash": "0x8ea2fe8e5d6edb034f0913c99ba84248984dcf5360177e5c4fe73c3c97da6fbd",
          "blockNumber": "0xc8dfce",
          "transactionHash": "0x3ca64a1b1e9069c94724f0e30fe1cd116746ca430372f3849ed95285986c4385",
          "transactionIndex": "0x4",
          "logIndex": "0x6",
          "removed": false
        },
        {
          "address": "0x05d032ac25d322df992303dca074ee7392c117b9",
          "topics": [
            "0xddf252ad1be2c89b69c2b068fc378daa952ba7f163c4a11628f55a4df523b3ef",
            "0x0000000000000000000000000932f0e427d7cf8709bbf3ce2f3b42d1fa538439",
            "0x0000000000000000000000006407fec527abad1aafdb9a3b5a2171800c21a2fe"
          ],
          "data": "0x000000000000000000000000000000000000000000000000000000000007b872",
          "blockHash": "0x8ea2fe8e5d6edb034f0913c99ba84248984dcf5360177e5c4fe73c3c97da6fbd",
          "blockNumber": "0xc8dfce",
          "transactionHash": "0x3ca64a1b1e9069c94724f0e30fe1cd116746ca430372f3849ed95285986c4385",
          "transactionIndex": "0x4",
          "logIndex": "0x7",
          "removed": false
        },
        {
          "address": "0x6407fec527abad1aafdb9a3b5a2171800c21a2fe",
          "topics": [
            "0xc42079f94a6350d7e6235f29174924f928cc2ac818eb64fed8004e115fbcca67",
            "0x000000000000000000000000807f4e281b7a3b324825c64ca53c69f0b418de40",
            "0x0000000000000000000000000932f0e427d7cf8709bbf3ce2f3b42d1fa538439"
          ],
          "data": "0xfffffffffffffffffffffffffffffffffffffffffffffffffffffffffffffdf6000000000000000000000000000000000000000000000000000000000007b872000000000000000000000000000000000000001f1329b5e49a6fdb654947612a000000000000000000000000000000000000000000000000000000046fc5a4070000000000000000000000000000000000000000000000000000000000010c7b",
          "blockHash": "0x8ea2fe8e5d6edb034f0913c99ba84248984dcf5360177e5c4fe73c3c97da6fbd",
          "blockNumber": "0xc8dfce",
          "transactionHash": "0x3ca64a1b1e9069c94724f0e30fe1cd116746ca430372f3849ed95285986c4385",
          "transactionIndex": "0x4",
          "logIndex": "0x8",
          "removed": false
        },
        {
          "address": "0x4200000000000000000000000000000000000006",
          "topics": [
            "0xddf252ad1be2c89b69c2b068fc378daa952ba7f163c4a11628f55a4df523b3ef",
            "0x0000000000000000000000009a3b17a2e2daf54ce80f2f4b2c8440902be715de",
            "0x0000000000000000000000000932f0e427d7cf8709bbf3ce2f3b42d1fa538439"
          ],
          "data": "0x0000000000000000000000000000000000000000000000000000acd452fa4fd0",
          "blockHash": "0x8ea2fe8e5d6edb034f0913c99ba84248984dcf5360177e5c4fe73c3c97da6fbd",
          "blockNumber": "0xc8dfce",
          "transactionHash": "0x3ca64a1b1e9069c94724f0e30fe1cd116746ca430372f3849ed95285986c4385",
          "transactionIndex": "0x4",
          "logIndex": "0x9",
          "removed": false
        },
        {
          "address": "0x05d032ac25d322df992303dca074ee7392c117b9",
          "topics": [
            "0x8c5be1e5ebec7d5bd14f71427d1e84f3dd0314c0f7b2291e5b200ac8c7c3b925",
            "0x0000000000000000000000000932f0e427d7cf8709bbf3ce2f3b42d1fa538439",
            "0x000000000000000000000000807f4e281b7a3b324825c64ca53c69f0b418de40"
          ],
          "data": "0x0000000000000000000000000000000000000000000000000000000000000000",
          "blockHash": "0x8ea2fe8e5d6edb034f0913c99ba84248984dcf5360177e5c4fe73c3c97da6fbd",
          "blockNumber": "0xc8dfce",
          "transactionHash": "0x3ca64a1b1e9069c94724f0e30fe1cd116746ca430372f3849ed95285986c4385",
          "transactionIndex": "0x4",
          "logIndex": "0xa",
          "removed": false
        },
        {
          "address": "0x05d032ac25d322df992303dca074ee7392c117b9",
          "topics": [
            "0xddf252ad1be2c89b69c2b068fc378daa952ba7f163c4a11628f55a4df523b3ef",
            "0x0000000000000000000000000932f0e427d7cf8709bbf3ce2f3b42d1fa538439",
            "0x0000000000000000000000009a3b17a2e2daf54ce80f2f4b2c8440902be715de"
          ],
          "data": "0x000000000000000000000000000000000000000000000000000000000007b872",
          "blockHash": "0x8ea2fe8e5d6edb034f0913c99ba84248984dcf5360177e5c4fe73c3c97da6fbd",
          "blockNumber": "0xc8dfce",
          "transactionHash": "0x3ca64a1b1e9069c94724f0e30fe1cd116746ca430372f3849ed95285986c4385",
          "transactionIndex": "0x4",
          "logIndex": "0xb",
          "removed": false
        },
        {
          "address": "0x9a3b17a2e2daf54ce80f2f4b2c8440902be715de",
          "topics": [
            "0xc42079f94a6350d7e6235f29174924f928cc2ac818eb64fed8004e115fbcca67",
            "0x000000000000000000000000807f4e281b7a3b324825c64ca53c69f0b418de40",
            "0x0000000000000000000000000932f0e427d7cf8709bbf3ce2f3b42d1fa538439"
          ],
          "data": "0x000000000000000000000000000000000000000000000000000000000007b872ffffffffffffffffffffffffffffffffffffffffffffffffffff532bad05b0300000000000000000000000000000000000004bd0c33571be067fee1b3fd7f1390000000000000000000000000000000000000000000000000008033695dfddc00000000000000000000000000000000000000000000000000000000000030367",
          "blockHash": "0x8ea2fe8e5d6edb034f0913c99ba84248984dcf5360177e5c4fe73c3c97da6fbd",
          "blockNumber": "0xc8dfce",
          "transactionHash": "0x3ca64a1b1e9069c94724f0e30fe1cd116746ca430372f3849ed95285986c4385",
          "transactionIndex": "0x4",
          "logIndex": "0xc",
          "removed": false
        },
        {
          "address": "0x0932f0e427d7cf8709bbf3ce2f3b42d1fa538439",
          "topics": [
            "0xddf252ad1be2c89b69c2b068fc378daa952ba7f163c4a11628f55a4df523b3ef",
            "0x0000000000000000000000000000000000000000000000000000000000000000",
            "0x000000000000000000000000cda2fdb452ff4f5d7ba1c3d5dfcc9cb926a5eb7d"
          ],
          "data": "0x0000000000000000000000000000000000000000033b2e3c9fd0803ce8000000",
          "blockHash": "0x8ea2fe8e5d6edb034f0913c99ba84248984dcf5360177e5c4fe73c3c97da6fbd",
          "blockNumber": "0xc8dfce",
          "transactionHash": "0x3ca64a1b1e9069c94724f0e30fe1cd116746ca430372f3849ed95285986c4385",
          "transactionIndex": "0x4",
          "logIndex": "0xd",
          "removed": false
        },
        {
          "address": "0x0932f0e427d7cf8709bbf3ce2f3b42d1fa538439",
          "topics": [
            "0x90890809c654f11d6e72a28fa60149770a0d11ec6c92319d6ceb2bb0a4ea1a15",
            "0x000000000000000000000000cda2fdb452ff4f5d7ba1c3d5dfcc9cb926a5eb7d"
          ],
          "data": "0x0000000000000000000000000000000000000000033b2e3c9fd0803ce800000000000000000000000000000000000000000000000000000000000000000f70e4",
          "blockHash": "0x8ea2fe8e5d6edb034f0913c99ba84248984dcf5360177e5c4fe73c3c97da6fbd",
          "blockNumber": "0xc8dfce",
          "transactionHash": "0x3ca64a1b1e9069c94724f0e30fe1cd116746ca430372f3849ed95285986c4385",
          "transactionIndex": "0x4",
          "logIndex": "0xe",
          "removed": false
        }
      ],
      "logsBloom": "0x00000000000000000000010200000100000000000400000080040000000000000000000000000000000000100000000008000000000030020000000000200000000000000040000800000008040000000000000000000000080000010000000000000000020001000000000000000800000000000000800000802010000800000000000800000000000200000000000000000000022000000000400000000000020000000000000001000010000000000081000000004000000000000000000000000002000000000000000000000000002000000080000000000000000020000010000020020000000000000000000000000000400000000400080000000000",
      "type": "0x2",
      "transactionHash": "0x3ca64a1b1e9069c94724f0e30fe1cd116746ca430372f3849ed95285986c4385",
      "transactionIndex": "0x4",
      "blockHash": "0x8ea2fe8e5d6edb034f0913c99ba84248984dcf5360177e5c4fe73c3c97da6fbd",
      "blockNumber": "0xc8dfce",
      "gasUsed": "0x73193",
      "effectiveGasPrice": "0xfd",
      "from": "0xcda2fdb452ff4f5d7ba1c3d5dfcc9cb926a5eb7d",
      "to": "0x0932f0e427d7cf8709bbf3ce2f3b42d1fa538439",
      "contractAddress": null,
      "l1BaseFeeScalar": "0x186a0",
      "l1BlobBaseFee": "0x10073bc9d",
      "l1BlobBaseFeeScalar": "0x95506",
      "l1Fee": "0x71b7f772d4",
      "l1GasPrice": "0x53ec2e35",
      "l1GasUsed": "0x640"
    }
  ],
  "libraries": [],
  "pending": [],
  "returns": {},
  "timestamp": 1739190981,
  "chain": 60808,
  "commit": "c03c0fa"
}