{
  "transactions": [
    {
      "hash": "0x2954e4843c1b459130b53eb46101cbe6e4af33778af963d70cdb5485deb27486",
      "transactionType": "CREATE",
      "contractName": "BethVault",
      "contractAddress": "0xa0b1eae720bf65593534f4fc5e374af3b5ac2137",
      "function": null,
      "arguments": [
        "[0x03C7054BCB39f7b2e5B2c7AcB37583e32D70Cfa3, 0x4200000000000000000000000000000000000006]",
        "[0x041a131Fa91Ad61dD85262A42c04975986580d50, 0x5b0cf2b36a65a6BB085D501B971e4c102B9Cd473]",
        "[8, 18]",
        "[3000, 3000]",
        "0x05D032ac25d322df992303dCa074EE7392C117b9",
        "0x807F4E281B7A3B324825C64ca53c69F0b418dE40",
        "0x6Aa54a43d7eEF5b239a18eed3Af4877f46522BCA",
        "0xcb2436774C3e191c85056d248EF4260ce5f27A9D",
        "BTC-ETH",
        "BETH"
      ],
      "transaction": {
        "from": "0xcda2fdb452ff4f5d7ba1c3d5dfcc9cb926a5eb7d",
        "gas": "0x3fef3d",
        "value": "0x0",
        "input": "0x60806040526002600955600f805460ff60a01b1916905534801562000022575f80fd5b5060405162003994380380620039948339810160408190526200004591620005fb565b338a8a8a8a8a8a8a8a8a8a60036200005e8382620007d0565b5060046200006d8282620007d0565b5050885162000085915060059060208b0190620001c5565b5086516200009b9060079060208a0190620001c5565b50600880546001600160a01b0319166001600160a01b0386161790558551620000cc9060069060208901906200022d565b50600c80546001600160a01b038086166001600160a01b031992831617909255600d8054858416908316179055600e80549284169290911691909117905584516200011f90600b906020880190620002d0565b5050506001600160a01b03871695506200015894505050505057604051631e4fbdf760e01b81525f600482015260240160405180910390fd5b620001638162000174565b505050505050505050505062000898565b600f80546001600160a01b038381166001600160a01b0319831681179093556040519116919082907f8be0079c531659141344cd1fd0a4f28419497f9722a3daafe3b4186f6b6457e0905f90a35050565b828054828255905f5260205f209081019282156200021b579160200282015b828111156200021b57825182546001600160a01b0319166001600160a01b03909116178255602090920191600190910190620001e4565b50620002299291506200036c565b5090565b828054828255905f5260205f2090601f016020900481019282156200021b579160200282015f5b838211156200029357835183826101000a81548160ff021916908360ff16021790555092602001926001016020815f0104928301926001030262000254565b8015620002c15782816101000a81549060ff02191690556001016020815f0104928301926001030262000293565b5050620002299291506200036c565b828054828255905f5260205f2090600901600a900481019282156200021b579160200282015f5b838211156200033b57835183826101000a81548162ffffff021916908362ffffff1602179055509260200192600301602081600201049283019260010302620002f7565b8015620002c15782816101000a81549062ffffff02191690556003016020816002010492830192600103026200033b565b5b8082111562000229575f81556001016200036d565b634e487b7160e01b5f52604160045260245ffd5b604051601f8201601f191681016001600160401b0381118282101715620003c157620003c162000382565b604052919050565b5f6001600160401b03821115620003e457620003e462000382565b5060051b60200190565b6001600160a01b038116811462000403575f80fd5b50565b80516200041381620003ee565b919050565b5f82601f83011262000428575f80fd5b81516020620004416200043b83620003c9565b62000396565b82815260059290921b8401810191818101908684111562000460575f80fd5b8286015b84811015620004885780516200047a81620003ee565b835291830191830162000464565b509695505050505050565b5f82601f830112620004a3575f80fd5b81516020620004b66200043b83620003c9565b82815260059290921b84018101918181019086841115620004d5575f80fd5b8286015b848110156200048857805160ff81168114620004f4575f8081fd5b8352918301918301620004d9565b5f82601f83011262000512575f80fd5b81516020620005256200043b83620003c9565b82815260059290921b8401810191818101908684111562000544575f80fd5b8286015b848110156200048857805162ffffff8116811462000565575f8081fd5b835291830191830162000548565b5f82601f83011262000583575f80fd5b81516001600160401b038111156200059f576200059f62000382565b6020620005b5601f8301601f1916820162000396565b8281528582848701011115620005c9575f80fd5b5f5b83811015620005e8578581018301518282018401528201620005cb565b505f928101909101919091529392505050565b5f805f805f805f805f806101408b8d03121562000616575f80fd5b8a516001600160401b03808211156200062d575f80fd5b6200063b8e838f0162000418565b9b5060208d015191508082111562000651575f80fd5b6200065f8e838f0162000418565b9a5060408d015191508082111562000675575f80fd5b620006838e838f0162000493565b995060608d015191508082111562000699575f80fd5b620006a78e838f0162000502565b9850620006b760808e0162000406565b9750620006c760a08e0162000406565b9650620006d760c08e0162000406565b9550620006e760e08e0162000406565b94506101008d0151915080821115620006fe575f80fd5b6200070c8e838f0162000573565b93506101208d015191508082111562000723575f80fd5b50620007328d828e0162000573565b9150509295989b9194979a5092959850565b600181811c908216806200075957607f821691505b6020821081036200077857634e487b7160e01b5f52602260045260245ffd5b50919050565b601f821115620007cb575f81815260208120601f850160051c81016020861015620007a65750805b601f850160051c820191505b81811015620007c757828155600101620007b2565b5050505b505050565b81516001600160401b03811115620007ec57620007ec62000382565b6200080481620007fd845462000744565b846200077e565b602080601f8311600181146200083a575f8415620008225750858301515b5f19600386901b1c1916600185901b178555620007c7565b5f85815260208120601f198616915b828110156200086a5788860151825594840194600190910190840162000849565b50858210156200088857878501515f19600388901b60f8161c191681555b5050505050600190811b01905550565b6130ee80620008a65f395ff3fe6080604052600436106101f1575f3560e01c8063715018a6116101085780639dba25071161009d578063d42500a21161006d578063d42500a214610595578063d905777e146105b4578063dd62ed3e146105d3578063eb70cba414610617578063f2fde38b1461064a575f80fd5b80639dba250714610519578063a74edaf714610538578063a9059cbb14610557578063c63d75b614610576575f80fd5b80638da5cb5b116100d85780638da5cb5b146104b557806394bf804d146104d257806395d89b41146104f157806399530b0614610505575f80fd5b8063715018a61461044f5780637bde82f214610463578063837baf2c146104825780638b2ec28f14610496575f80fd5b8063260b79ac1161018957806343fe44801161015957806343fe44801461039d57806356e1887d146103bc5780635c199c09146103db57806363070d64146103fa57806370a082311461041b575f80fd5b8063260b79ac14610300578063313ce5671461033757806338d52e0f1461035d578063423792171461037e575f80fd5b8063157e0b97116101c4578063157e0b971461028d57806318160ddd146102ac5780631cff79cd146102c057806323b872dd146102e1575f80fd5b806301e1d114146101f557806306fdde031461021c578063095ea7b31461023d5780630f9c77c11461026c575b5f80fd5b348015610200575f80fd5b50610209610669565b6040519081526020015b60405180910390f35b348015610227575f80fd5b506102306107cf565b6040516102139190612514565b348015610248575f80fd5b5061025c61025736600461254a565b61085f565b6040519015158152602001610213565b348015610277575f80fd5b5061028b610286366004612574565b610878565b005b348015610298575f80fd5b506102096102a7366004612664565b610890565b3480156102b7575f80fd5b50600254610209565b6102d36102ce3660046126a6565b61090f565b604051610213929190612724565b3480156102ec575f80fd5b5061025c6102fb366004612746565b6109d5565b34801561030b575f80fd5b5061031f61031a366004612784565b6109fa565b6040516001600160a01b039091168152602001610213565b348015610342575f80fd5b5061034b610a22565b60405160ff9091168152602001610213565b348015610368575f80fd5b50610371610a34565b604051610213919061279b565b348015610389575f80fd5b5061028b610398366004612953565b610a93565b3480156103a8575f80fd5b5061034b6103b7366004612784565b610b4d565b3480156103c7575f80fd5b5061028b6103d6366004612574565b610b7e565b3480156103e6575f80fd5b5061028b6103f5366004612a3a565b610b91565b348015610405575f80fd5b5061040e610d81565b6040516102139190612ae3565b348015610426575f80fd5b50610209610435366004612b1a565b6001600160a01b03165f9081526020819052604090205490565b34801561045a575f80fd5b5061028b610e49565b34801561046e575f80fd5b5061020961047d366004612b35565b610e5c565b34801561048d575f80fd5b5061040e6112e6565b3480156104a1575f80fd5b506102096104b0366004612b63565b611418565b3480156104c0575f80fd5b50600f546001600160a01b031661031f565b3480156104dd575f80fd5b506102096104ec366004612b35565b61153b565b3480156104fc575f80fd5b50610230611897565b348015610510575f80fd5b506102096118a6565b348015610524575f80fd5b50610230610533366004612baf565b6118df565b348015610543575f80fd5b50610209610552366004612bea565b611936565b348015610562575f80fd5b5061025c61057136600461254a565b6119f4565b348015610581575f80fd5b50610209610590366004612b1a565b611a01565b3480156105a0575f80fd5b5061040e6105af366004612784565b611a16565b3480156105bf575f80fd5b506102096105ce366004612b1a565b611baa565b3480156105de575f80fd5b506102096105ed366004612c34565b6001600160a01b039182165f90815260016020908152604080832093909416825291909152205490565b348015610622575f80fd5b50610636610631366004612784565b611bc7565b60405162ffffff9091168152602001610213565b348015610655575f80fd5b5061028b610664366004612b1a565b611bfd565b5f805f5b6005548110156107c9575f6007828154811061068b5761068b612c60565b905f5260205f20015f9054906101000a90046001600160a01b03166001600160a01b03166357de26a46040518163ffffffff1660e01b81526004016040805180830381865afa1580156106e0573d5f803e3d5ffd5b505050506040513d601f19601f820116820180604052508101906107049190612c87565b5090505f81601b0b1215610716575f80fd5b5f81601b0b90506006838154811061073057610730612c60565b905f5260205f2090602091828204019190069054906101000a900460ff16600a61075a9190612db3565b600a5f6005868154811061077057610770612c60565b5f9182526020808320909101546001600160a01b0316835282019290925260400190205461079e9083612dc1565b6107a89190612dd8565b6107b29085612df7565b9350505080806107c190612e0a565b91505061066d565b50919050565b6060600380546107de90612e22565b80601f016020809104026020016040519081016040528092919081815260200182805461080a90612e22565b80156108555780601f1061082c57610100808354040283529160200191610855565b820191905f5260205f20905b81548152906001019060200180831161083857829003601f168201915b5050505050905090565b5f3361086c818585611c3a565b60019150505b92915050565b610880611c47565b61088b838383611c74565b505050565b600d5460405163cdca175360e01b81525f916001600160a01b03169063cdca1753906108c29086908690600401612e54565b5f604051808303815f875af11580156108dd573d5f803e3d5ffd5b505050506040513d5f823e601f3d908101601f191682016040526109049190810190612ed4565b509195945050505050565b5f606061091a611c47565b600f54600160a01b900460ff1661096a5760405162461bcd60e51b815260206004820152600f60248201526e139bdd08125b9a5d1a585b1a5e9959608a1b60448201526064015b60405180910390fd5b5f80866001600160a01b0316348787604051610987929190612fa3565b5f6040518083038185875af1925050503d805f81146109c1576040519150601f19603f3d011682016040523d82523d5f602084013e6109c6565b606091505b50909890975095505050505050565b5f336109e2858285611d26565b6109ed858585611d8e565b60019150505b9392505050565b60058181548110610a09575f80fd5b5f918252602090912001546001600160a01b0316905081565b5f610a2f60086012612fb2565b905090565b6060600580548060200260200160405190810160405280929190818152602001828054801561085557602002820191905f5260205f20905b81546001600160a01b03168152600190910190602001808311610a6c575050505050905090565b610a9b611c47565b8751610aae9060059060208b019061231d565b508651610ac29060079060208a019061231d565b50600880546001600160a01b0319166001600160a01b0386161790558551610af1906006906020890190612380565b50600c80546001600160a01b038086166001600160a01b031992831617909255600d8054858416908316179055600e8054928416929091169190911790558451610b4290600b90602088019061241c565b505050505050505050565b60068181548110610b5c575f80fd5b905f5260205f209060209182820401919006915054906101000a900460ff1681565b610b86611c47565b61088b838383611deb565b610b99611c47565b600f54600160a01b900460ff1615610baf575f80fd5b5f5b8151811015610d5e57818181518110610bcc57610bcc612c60565b602002602001015160058281548110610be757610be7612c60565b5f918252602090912001546040516370a0823160e01b81523360048201526001600160a01b03909116906370a0823190602401602060405180830381865afa158015610c35573d5f803e3d5ffd5b505050506040513d601f19601f82011682018060405250810190610c599190612fcb565b1015610c915760405162461bcd60e51b81526020600482015260076024820152662130b61022b93960c91b6044820152606401610961565b610ce360058281548110610ca757610ca7612c60565b905f5260205f20015f9054906101000a90046001600160a01b03163330858581518110610cd657610cd6612c60565b6020026020010151611e8f565b818181518110610cf557610cf5612c60565b6020026020010151600a5f60058481548110610d1357610d13612c60565b5f9182526020808320909101546001600160a01b0316835282019290925260400181208054909190610d46908490612df7565b90915550819050610d5681612e0a565b915050610bb1565b50610d698383611ef6565b5050600f805460ff60a01b1916600160a01b17905550565b6005546060905f8167ffffffffffffffff811115610da157610da16125b3565b604051908082528060200260200182016040528015610dca578160200160208202803683370190505b5090505f5b82811015610e4257600a5f60058381548110610ded57610ded612c60565b5f9182526020808320909101546001600160a01b031683528201929092526040019020548251839083908110610e2557610e25612c60565b602090810291909101015280610e3a81612e0a565b915050610dcf565b5092915050565b610e51611c47565b610e5a5f611f2e565b565b5f80610e6783611baa565b905080841115610e9057828482604051632e52afbb60e21b815260040161096193929190612fe2565b5f610e9a85611a16565b90505f610ea78587611f7f565b5f5b60028110156111bf5760058181548110610ec557610ec5612c60565b5f91825260209091200154600c5484516001600160a01b039283169263095ea7b3921690869085908110610efb57610efb612c60565b60200260200101516040518363ffffffff1660e01b8152600401610f349291906001600160a01b03929092168252602082015260400190565b6020604051808303815f875af1158015610f50573d5f803e3d5ffd5b505050506040513d601f19601f82011682018060405250810190610f749190613003565b505f610ff460058381548110610f8c57610f8c612c60565b5f91825260209091200154600b80546001600160a01b039092169185908110610fb757610fb7612c60565b905f5260205f2090600a91828204019190066003029054906101000a900462ffffff1660085f9054906101000a90046001600160a01b03166118df565b90505f61101a8286858151811061100d5761100d612c60565b6020026020010151610890565b9050805f036110585760405162461bcd60e51b815260206004820152600a6024820152693837b7b61032b93937b960b11b6044820152606401610961565b5f6110ca6005858154811061106f5761106f612c60565b5f91825260209091200154600854600b80546001600160a01b039384169390921691889081106110a1576110a1612c60565b905f5260205f2090600a91828204019190066003029054906101000a900462ffffff1685611418565b90508181101561110b5760405162461bcd60e51b815260206004820152600c60248201526b3837b7b61032b93937b9101960a11b6044820152606401610961565b5f6111308488878151811061112257611122612c60565b602002602001015185611936565b905061113c8187612df7565b955086858151811061115057611150612c60565b6020026020010151600a5f6005888154811061116e5761116e612c60565b5f9182526020808320909101546001600160a01b03168352820192909252604001812080549091906111a1908490613022565b925050819055505050505080806111b790612e0a565b915050610ea9565b505f8111801561123757506008546040516370a0823160e01b815230600482015282916001600160a01b0316906370a0823190602401602060405180830381865afa158015611210573d5f803e3d5ffd5b505050506040513d601f19601f820116820180604052508101906112349190612fcb565b10155b156112625760085461125d906001600160a01b031686611258600185613022565b611fb3565b611299565b60405162461bcd60e51b815260206004820152600c60248201526b73776170206572726f72203160a01b6044820152606401610961565b60408051878152602081018390526001600160a01b038716917ff279e6a1f5e320cca91135676d9cb6e44ca8a08c0b88342bcdb1144f6511b568910160405180910390a295945050505050565b6005546060905f9067ffffffffffffffff811115611306576113066125b3565b60405190808252806020026020018201604052801561132f578160200160208202803683370190505b5090505f5b6005548110156107c9575f6007828154811061135257611352612c60565b905f5260205f20015f9054906101000a90046001600160a01b03166001600160a01b03166357de26a46040518163ffffffff1660e01b81526004016040805180830381865afa1580156113a7573d5f803e3d5ffd5b505050506040513d601f19601f820116820180604052508101906113cb9190612c87565b5090505f81601b0b12156113dd575f80fd5b5f81601b0b9050808484815181106113f7576113f7612c60565b6020026020010181815250505050808061141090612e0a565b915050611334565b600e54604051630b4c774160e11b81526001600160a01b038681166004830152858116602483015262ffffff851660448301525f928392911690631698ee8290606401602060405180830381865afa158015611476573d5f803e3d5ffd5b505050506040513d601f19601f8201168201806040525081019061149a9190613035565b90506001600160a01b0381166114ae575f91505b6040516370a0823160e01b81526001600160a01b0382811660048301525f91908716906370a0823190602401602060405180830381865afa1580156114f5573d5f803e3d5ffd5b505050506040513d601f19601f820116820180604052508101906115199190612fcb565b9050838110611526578092505b838111611531575f92505b5050949350505050565b5f8061154683611a01565b90508084111561156f5782848260405163284ff66760e01b815260040161096193929190612fe2565b5f611578610a22565b61158390600a612db3565b61158d9086612dd8565b64e8d4a5100061159b6118a6565b6115a59190612dd8565b6115af9190612dc1565b6008549091506115ca906001600160a01b0316333084611e8f565b600854600c5460405163095ea7b360e01b81526001600160a01b0391821660048201526024810184905291169063095ea7b3906044016020604051808303815f875af115801561161c573d5f803e3d5ffd5b505050506040513d601f19601f820116820180604052508101906116409190613003565b505f61164d600283612dd8565b11611656575f80fd5b5f5b600281101561184057600854600b80545f926116d9926001600160a01b03909116918590811061168a5761168a612c60565b905f5260205f2090600a91828204019190066003029054906101000a900462ffffff16600585815481106116c0576116c0612c60565b5f918252602090912001546001600160a01b03166118df565b90505f6116eb826102a7600287612dd8565b9050805f0361172b5760405162461bcd60e51b815260206004820152600c60248201526b706f6f6c206572726f72203160a01b6044820152606401610961565b600854600580545f9261177f926001600160a01b03909116918790811061175457611754612c60565b5f91825260209091200154600b80546001600160a01b0390921691889081106110a1576110a1612c60565b9050818110156117c05760405162461bcd60e51b815260206004820152600c60248201526b3837b7b61032b93937b9101960a11b6044820152606401610961565b5f6117d6846117d0600289612dd8565b85611936565b905080600a5f600588815481106117ef576117ef612c60565b5f9182526020808320909101546001600160a01b0316835282019290925260400181208054909190611822908490612df7565b9250508190555050505050808061183890612e0a565b915050611658565b5061184b8486611ef6565b60408051868152602081018390526001600160a01b038616917f90890809c654f11d6e72a28fa60149770a0d11ec6c92319d6ceb2bb0a4ea1a15910160405180910390a2949350505050565b6060600480546107de90612e22565b5f6118b060025490565b6118b8610a22565b6118c390600a612db3565b6118cb610669565b6118d59190612dc1565b610a2f9190612dd8565b604051606084811b6bffffffffffffffffffffffff19908116602084015260e885901b6001600160e81b031916603484015283821b16603783015290604b0160405160208183030381529060405290509392505050565b5f821580611942575081155b1561194b575f80fd5b83515f03611957575f80fd5b6040805160808101825285815230602082015280820185905260608101849052600c54915163b858183f60e01b815290915f916001600160a01b039091169063b858183f906119aa908590600401613050565b6020604051808303815f875af11580156119c6573d5f803e3d5ffd5b505050506040513d601f19601f820116820180604052508101906119ea9190612fcb565b9695505050505050565b5f3361086c818585611d8e565b5f611a0b60025490565b610872905f19613022565b6005546060905f9067ffffffffffffffff811115611a3657611a366125b3565b604051908082528060200260200182016040528015611a5f578160200160208202803683370190505b5090505f611a6b6112e6565b90505f600954611a796118a6565b611a839190612dd8565b90505f5b600554811015611ba0575f838281518110611aa457611aa4612c60565b602002602001015183670de0b6b3a7640000611ac09190612dc1565b611aca9190612dd8565b90505f611ad8606483612dd8565b611ae29083613022565b9050825f03611b4557611af3610a22565b611afe90600a612db3565b88611b0e6402540be40084612dd8565b611b189190612dc1565b611b229190612dd8565b868481518110611b3457611b34612c60565b602002602001018181525050611b8b565b611b4d610a22565b611b5890600a612db3565b611b628983612dc1565b611b6c9190612dd8565b868481518110611b7e57611b7e612c60565b6020026020010181815250505b50508080611b9890612e0a565b915050611a87565b5091949350505050565b6001600160a01b0381165f90815260208190526040812054610872565b600b8181548110611bd6575f80fd5b905f5260205f2090600a9182820401919006600302915054906101000a900462ffffff1681565b611c05611c47565b6001600160a01b038116611c2e57604051631e4fbdf760e01b81525f6004820152602401610961565b611c3781611f2e565b50565b61088b8383836001611fe4565b600f546001600160a01b03163314610e5a5760405163118cdaa760e01b8152336004820152602401610961565b6040516370a0823160e01b81526001600160a01b0382811660048301528391908516906370a0823190602401602060405180830381865afa158015611cbb573d5f803e3d5ffd5b505050506040513d601f19601f82011682018060405250810190611cdf9190612fcb565b1015611ce9575f80fd5b611cf583823085611e8f565b6001600160a01b0383165f908152600a602052604081208054849290611d1c908490612df7565b9091555050505050565b6001600160a01b038381165f908152600160209081526040808320938616835292905220545f198114611d885781811015611d7a57828183604051637dc7a0d960e11b815260040161096193929190612fe2565b611d8884848484035f611fe4565b50505050565b6001600160a01b038316611db757604051634b637e8f60e11b81525f6004820152602401610961565b6001600160a01b038216611de05760405163ec442f0560e01b81525f6004820152602401610961565b61088b8383836120b6565b6040516370a0823160e01b815230600482015282906001600160a01b038516906370a0823190602401602060405180830381865afa158015611e2f573d5f803e3d5ffd5b505050506040513d601f19601f82011682018060405250810190611e539190612fcb565b1015611e5d575f80fd5b611e68838284611fb3565b6001600160a01b0383165f908152600a602052604081208054849290611d1c908490613022565b6040516001600160a01b038481166024830152838116604483015260648201839052611d889186918216906323b872dd906084015b604051602081830303815290604052915060e01b6020820180516001600160e01b0383818316178352505050506121c9565b6001600160a01b038216611f1f5760405163ec442f0560e01b81525f6004820152602401610961565b611f2a5f83836120b6565b5050565b600f80546001600160a01b038381166001600160a01b0319831681179093556040519116919082907f8be0079c531659141344cd1fd0a4f28419497f9722a3daafe3b4186f6b6457e0905f90a35050565b6001600160a01b038216611fa857604051634b637e8f60e11b81525f6004820152602401610961565b611f2a825f836120b6565b6040516001600160a01b0383811660248301526044820183905261088b91859182169063a9059cbb90606401611ec4565b6001600160a01b03841661200d5760405163e602df0560e01b81525f6004820152602401610961565b6001600160a01b03831661203657604051634a1406b160e11b81525f6004820152602401610961565b6001600160a01b038085165f9081526001602090815260408083209387168352929052208290558015611d8857826001600160a01b0316846001600160a01b03167f8c5be1e5ebec7d5bd14f71427d1e84f3dd0314c0f7b2291e5b200ac8c7c3b925846040516120a891815260200190565b60405180910390a350505050565b6001600160a01b0383166120e0578060025f8282546120d59190612df7565b9091555061213d9050565b6001600160a01b0383165f908152602081905260409020548181101561211f5783818360405163391434e360e21b815260040161096193929190612fe2565b6001600160a01b0384165f9081526020819052604090209082900390555b6001600160a01b03821661215957600280548290039055612177565b6001600160a01b0382165f9081526020819052604090208054820190555b816001600160a01b0316836001600160a01b03167fddf252ad1be2c89b69c2b068fc378daa952ba7f163c4a11628f55a4df523b3ef836040516121bc91815260200190565b60405180910390a3505050565b5f6121dd6001600160a01b0384168361222a565b905080515f141580156122015750808060200190518101906121ff9190613003565b155b1561088b57604051635274afe760e01b81526001600160a01b0384166004820152602401610961565b60606109f383835f845f80856001600160a01b0316848660405161224e919061309d565b5f6040518083038185875af1925050503d805f8114612288576040519150601f19603f3d011682016040523d82523d5f602084013e61228d565b606091505b50915091506119ea8683836060826122ad576122a8826122f4565b6109f3565b81511580156122c457506001600160a01b0384163b155b156122ed57604051639996b31560e01b81526001600160a01b0385166004820152602401610961565b50806109f3565b8051156123045780518082602001fd5b604051630a12f52160e11b815260040160405180910390fd5b828054828255905f5260205f20908101928215612370579160200282015b8281111561237057825182546001600160a01b0319166001600160a01b0390911617825560209092019160019091019061233b565b5061237c9291506124b3565b5090565b828054828255905f5260205f2090601f01602090048101928215612370579160200282015f5b838211156123e357835183826101000a81548160ff021916908360ff16021790555092602001926001016020815f010492830192600103026123a6565b801561240f5782816101000a81549060ff02191690556001016020815f010492830192600103026123e3565b505061237c9291506124b3565b828054828255905f5260205f2090600901600a90048101928215612370579160200282015f5b8382111561248457835183826101000a81548162ffffff021916908362ffffff1602179055509260200192600301602081600201049283019260010302612442565b801561240f5782816101000a81549062ffffff0219169055600301602081600201049283019260010302612484565b5b8082111561237c575f81556001016124b4565b5f5b838110156124e15781810151838201526020016124c9565b50505f910152565b5f81518084526125008160208601602086016124c7565b601f01601f19169290920160200192915050565b602081525f6109f360208301846124e9565b6001600160a01b0381168114611c37575f80fd5b803561254581612526565b919050565b5f806040838503121561255b575f80fd5b823561256681612526565b946020939093013593505050565b5f805f60608486031215612586575f80fd5b833561259181612526565b92506020840135915060408401356125a881612526565b809150509250925092565b634e487b7160e01b5f52604160045260245ffd5b604051601f8201601f1916810167ffffffffffffffff811182821017156125f0576125f06125b3565b604052919050565b5f82601f830112612607575f80fd5b813567ffffffffffffffff811115612621576126216125b3565b612634601f8201601f19166020016125c7565b818152846020838601011115612648575f80fd5b816020850160208301375f918101602001919091529392505050565b5f8060408385031215612675575f80fd5b823567ffffffffffffffff81111561268b575f80fd5b612697858286016125f8565b95602094909401359450505050565b5f805f604084860312156126b8575f80fd5b83356126c381612526565b9250602084013567ffffffffffffffff808211156126df575f80fd5b818601915086601f8301126126f2575f80fd5b813581811115612700575f80fd5b876020828501011115612711575f80fd5b6020830194508093505050509250925092565b8215158152604060208201525f61273e60408301846124e9565b949350505050565b5f805f60608486031215612758575f80fd5b833561276381612526565b9250602084013561277381612526565b929592945050506040919091013590565b5f60208284031215612794575f80fd5b5035919050565b602080825282518282018190525f9190848201906040850190845b818110156127db5783516001600160a01b0316835292840192918401916001016127b6565b50909695505050505050565b5f67ffffffffffffffff821115612800576128006125b3565b5060051b60200190565b5f82601f830112612819575f80fd5b8135602061282e612829836127e7565b6125c7565b82815260059290921b8401810191818101908684111561284c575f80fd5b8286015b8481101561287057803561286381612526565b8352918301918301612850565b509695505050505050565b5f82601f83011261288a575f80fd5b8135602061289a612829836127e7565b82815260059290921b840181019181810190868411156128b8575f80fd5b8286015b8481101561287057803560ff811681146128d5575f8081fd5b83529183019183016128bc565b803562ffffff81168114612545575f80fd5b5f82601f830112612903575f80fd5b81356020612913612829836127e7565b82815260059290921b84018101918181019086841115612931575f80fd5b8286015b8481101561287057612946816128e2565b8352918301918301612935565b5f805f805f805f80610100898b03121561296b575f80fd5b883567ffffffffffffffff80821115612982575f80fd5b61298e8c838d0161280a565b995060208b01359150808211156129a3575f80fd5b6129af8c838d0161280a565b985060408b01359150808211156129c4575f80fd5b6129d08c838d0161287b565b975060608b01359150808211156129e5575f80fd5b506129f28b828c016128f4565b955050612a0160808a0161253a565b9350612a0f60a08a0161253a565b9250612a1d60c08a0161253a565b9150612a2b60e08a0161253a565b90509295985092959890939650565b5f805f60608486031215612a4c575f80fd5b8335612a5781612526565b92506020848101359250604085013567ffffffffffffffff811115612a7a575f80fd5b8501601f81018713612a8a575f80fd5b8035612a98612829826127e7565b81815260059190911b82018301908381019089831115612ab6575f80fd5b928401925b82841015612ad457833582529284019290840190612abb565b80955050505050509250925092565b602080825282518282018190525f9190848201906040850190845b818110156127db57835183529284019291840191600101612afe565b5f60208284031215612b2a575f80fd5b81356109f381612526565b5f8060408385031215612b46575f80fd5b823591506020830135612b5881612526565b809150509250929050565b5f805f8060808587031215612b76575f80fd5b8435612b8181612526565b93506020850135612b9181612526565b9250612b9f604086016128e2565b9396929550929360600135925050565b5f805f60608486031215612bc1575f80fd5b8335612bcc81612526565b9250612bda602085016128e2565b915060408401356125a881612526565b5f805f60608486031215612bfc575f80fd5b833567ffffffffffffffff811115612c12575f80fd5b612c1e868287016125f8565b9660208601359650604090950135949350505050565b5f8060408385031215612c45575f80fd5b8235612c5081612526565b91506020830135612b5881612526565b634e487b7160e01b5f52603260045260245ffd5b805163ffffffff81168114612545575f80fd5b5f8060408385031215612c98575f80fd5b825180601b0b8114612ca8575f80fd5b9150612cb660208401612c74565b90509250929050565b634e487b7160e01b5f52601160045260245ffd5b600181815b80851115612d0d57815f1904821115612cf357612cf3612cbf565b80851615612d0057918102915b93841c9390800290612cd8565b509250929050565b5f82612d2357506001610872565b81612d2f57505f610872565b8160018114612d455760028114612d4f57612d6b565b6001915050610872565b60ff841115612d6057612d60612cbf565b50506001821b610872565b5060208310610133831016604e8410600b8410161715612d8e575081810a610872565b612d988383612cd3565b805f1904821115612dab57612dab612cbf565b029392505050565b5f6109f360ff841683612d15565b808202811582820484141761087257610872612cbf565b5f82612df257634e487b7160e01b5f52601260045260245ffd5b500490565b8082018082111561087257610872612cbf565b5f60018201612e1b57612e1b612cbf565b5060010190565b600181811c90821680612e3657607f821691505b6020821081036107c957634e487b7160e01b5f52602260045260245ffd5b604081525f612e6660408301856124e9565b90508260208301529392505050565b5f82601f830112612e84575f80fd5b81516020612e94612829836127e7565b82815260059290921b84018101918181019086841115612eb2575f80fd5b8286015b8481101561287057612ec781612c74565b8352918301918301612eb6565b5f805f8060808587031215612ee7575f80fd5b8451935060208086015167ffffffffffffffff80821115612f06575f80fd5b818801915088601f830112612f19575f80fd5b8151612f27612829826127e7565b81815260059190911b8301840190848101908b831115612f45575f80fd5b938501935b82851015612f6c578451612f5d81612526565b82529385019390850190612f4a565b60408b01519098509450505080831115612f84575f80fd5b5050612f9287828801612e75565b606096909601519497939650505050565b818382375f9101908152919050565b60ff818116838216019081111561087257610872612cbf565b5f60208284031215612fdb575f80fd5b5051919050565b6001600160a01b039390931683526020830191909152604082015260600190565b5f60208284031215613013575f80fd5b815180151581146109f3575f80fd5b8181038181111561087257610872612cbf565b5f60208284031215613045575f80fd5b81516109f381612526565b602081525f82516080602084015261306b60a08401826124e9565b905060018060a01b03602085015116604084015260408401516060840152606084015160808401528091505092915050565b5f82516130ae8184602087016124c7565b919091019291505056fea2646970667358221220d150fdad24a13d88342b9a547167bea385971f091d314763b6c4801d203917c864736f6c63430008140033000000000000000000000000000000000000000000000000000000000000014000000000000000000000000000000000000000000000000000000000000001a00000000000000000000000000000000000000000000000000000000000000200000000000000000000000000000000000000000000000000000000000000026000000000000000000000000005d032ac25d322df992303dca074ee7392c117b9000000000000000000000000807f4e281b7a3b324825c64ca53c69f0b418de400000000000000000000000006aa54a43d7eef5b239a18eed3af4877f46522bca000000000000000000000000cb2436774c3e191c85056d248ef4260ce5f27a9d00000000000000000000000000000000000000000000000000000000000002c00000000000000000000000000000000000000000000000000000000000000300000000000000000000000000000000000000000000000000000000000000000200000000000000000000000003c7054bcb39f7b2e5b2c7acb37583e32d70cfa300000000000000000000000042000000000000000000000000000000000000060000000000000000000000000000000000000000000000000000000000000002000000000000000000000000041a131fa91ad61dd85262a42c04975986580d500000000000000000000000005b0cf2b36a65a6bb085d501b971e4c102b9cd47300000000000000000000000000000000000000000000000000000000000000020000000000000000000000000000000000000000000000000000000000000008000000000000000000000000000000000000000000000000000000000000001200000000000000000000000000000000000000000000000000000000000000020000000000000000000000000000000000000000000000000000000000000bb80000000000000000000000000000000000000000000000000000000000000bb800000000000000000000000000000000000000000000000000000000000000074254432d4554480000000000000000000000000000000000000000000000000000000000000000000000000000000000000000000000000000000000000000044245544800000000000000000000000000000000000000000000000000000000",
        "nonce": "0x22ba",
        "chainId": "0xed88"
      },
      "additionalContracts": [],
      "isFixedGasLimit": false
    },
    {
      "hash": "0x931da8d7a537dd90795fcae66ae8fbaafa98ffdb3d1418aef43f03a3745970c6",
      "transactionType": "CALL",
      "contractName": null,
      "contractAddress": "0x05d032ac25d322df992303dca074ee7392c117b9",
      "function": "approve(address,uint256)",
      "arguments": [
        "0xA0B1EaE720Bf65593534f4FC5e374AF3b5Ac2137",
        "115792089237316195423570985008687907853269984665640564039457584007913129639935"
      ],
      "transaction": {
        "from": "0xcda2fdb452ff4f5d7ba1c3d5dfcc9cb926a5eb7d",
        "to": "0x05d032ac25d322df992303dca074ee7392c117b9",
        "gas": "0x109f6",
        "value": "0x0",
        "input": "0x095ea7b3000000000000000000000000a0b1eae720bf65593534f4fc5e374af3b5ac2137ffffffffffffffffffffffffffffffffffffffffffffffffffffffffffffffff",
        "nonce": "0x22bb",
        "chainId": "0xed88"
      },
      "additionalContracts": [],
      "isFixedGasLimit": false
    },
    {
      "hash": "0x3d82110426f60acaac9d076c05053c4a18b1bcfb99b6d451492e799898415305",
      "transactionType": "CALL",
      "contractName": null,
      "contractAddress": "0x03c7054bcb39f7b2e5b2c7acb37583e32d70cfa3",
      "function": "approve(address,uint256)",
      "arguments": [
        "0xA0B1EaE720Bf65593534f4FC5e374AF3b5Ac2137",
        "115792089237316195423570985008687907853269984665640564039457584007913129639935"
      ],
      "transaction": {
        "from": "0xcda2fdb452ff4f5d7ba1c3d5dfcc9cb926a5eb7d",
        "to": "0x03c7054bcb39f7b2e5b2c7acb37583e32d70cfa3",
        "gas": "0x109f6",
        "value": "0x0",
        "input": "0x095ea7b3000000000000000000000000a0b1eae720bf65593534f4fc5e374af3b5ac2137ffffffffffffffffffffffffffffffffffffffffffffffffffffffffffffffff",
        "nonce": "0x22bc",
        "chainId": "0xed88"
      },
      "additionalContracts": [],
      "isFixedGasLimit": false
    },
    {
      "hash": "0xb2de9a3f14afc3097a7231a13ee4020cad68aa1df23750378aecdc5811f7a44a",
      "transactionType": "CALL",
      "contractName": null,
      "contractAddress": "0x4200000000000000000000000000000000000006",
      "function": "approve(address,uint256)",
      "arguments": [
        "0xA0B1EaE720Bf65593534f4FC5e374AF3b5Ac2137",
        "115792089237316195423570985008687907853269984665640564039457584007913129639935"
      ],
      "transaction": {
        "from": "0xcda2fdb452ff4f5d7ba1c3d5dfcc9cb926a5eb7d",
        "to": "0x4200000000000000000000000000000000000006",
        "gas": "0xfa0a",
        "value": "0x0",
        "input": "0x095ea7b3000000000000000000000000a0b1eae720bf65593534f4fc5e374af3b5ac2137ffffffffffffffffffffffffffffffffffffffffffffffffffffffffffffffff",
        "nonce": "0x22bd",
        "chainId": "0xed88"
      },
      "additionalContracts": [],
      "isFixedGasLimit": false
    },
    {
      "hash": "0x7e514beabc43535654ca06f3a062301aa1ba27f39a6493376d5c230dd25bfccc",
      "transactionType": "CALL",
      "contractName": "BethVault",
      "contractAddress": "0xa0b1eae720bf65593534f4fc5e374af3b5ac2137",
      "function": "initialize(address,uint256,uint256[])",
      "arguments": [
        "0xcdA2fDB452FF4F5D7Ba1C3d5dFCc9CB926A5eb7D",
        "100000000000000000000000000000",
        "[52888, 19141414278090491]"
      ],
      "transaction": {
        "from": "0xcda2fdb452ff4f5d7ba1c3d5dfcc9cb926a5eb7d",
        "to": "0xa0b1eae720bf65593534f4fc5e374af3b5ac2137",
        "gas": "0x44ace",
        "value": "0x0",
        "input": "0x5c199c09000000000000000000000000cda2fdb452ff4f5d7ba1c3d5dfcc9cb926a5eb7d0000000000000000000000000000000000000001431e0fae6d7217caa000000000000000000000000000000000000000000000000000000000000000000000600000000000000000000000000000000000000000000000000000000000000002000000000000000000000000000000000000000000000000000000000000ce9800000000000000000000000000000000000000000000000000440103ce8b4efb",
        "nonce": "0x22be",
        "chainId": "0xed88"
      },
      "additionalContracts": [],
      "isFixedGasLimit": false
    },
    {
      "hash": "0xe9cbd9a3548d6e29efdaf934778cad41043c395bada4c9cd8cab8d528a5d9297",
      "transactionType": "CALL",
      "contractName": "BethVault",
      "contractAddress": "0xa0b1eae720bf65593534f4fc5e374af3b5ac2137",
      "function": "mint(uint256,address)",
      "arguments": [
        "1000000000000000000000000000",
        "0xcdA2fDB452FF4F5D7Ba1C3d5dFCc9CB926A5eb7D"
      ],
      "transaction": {
        "from": "0xcda2fdb452ff4f5d7ba1c3d5dfcc9cb926a5eb7d",
        "to": "0xa0b1eae720bf65593534f4fc5e374af3b5ac2137",
        "gas": "0xa1573",
        "value": "0x0",
        "input": "0x94bf804d0000000000000000000000000000000000000000033b2e3c9fd0803ce8000000000000000000000000000000cda2fdb452ff4f5d7ba1c3d5dfcc9cb926a5eb7d",
        "nonce": "0x22bf",
        "chainId": "0xed88"
      },
      "additionalContracts": [],
      "isFixedGasLimit": false
    },
    {
      "hash": "0x356fc327e2a891a0ec5457a2e2149e3e9260b7828635ef4d3175cd9b7a7fe7b3",
      "transactionType": "CALL",
      "contractName": "BethVault",
      "contractAddress": "0xa0b1eae720bf65593534f4fc5e374af3b5ac2137",
      "function": "redeem(uint256,address)",
      "arguments": [
        "1000000000000000000000000000",
        "0xcdA2fDB452FF4F5D7Ba1C3d5dFCc9CB926A5eb7D"
      ],
      "transaction": {
        "from": "0xcda2fdb452ff4f5d7ba1c3d5dfcc9cb926a5eb7d",
        "to": "0xa0b1eae720bf65593534f4fc5e374af3b5ac2137",
        "gas": "0xb75ec",
        "value": "0x0",
        "input": "0x7bde82f20000000000000000000000000000000000000000033b2e3c9fd0803ce8000000000000000000000000000000cda2fdb452ff4f5d7ba1c3d5dfcc9cb926a5eb7d",
        "nonce": "0x22c0",
        "chainId": "0xed88"
      },
      "additionalContracts": [],
      "isFixedGasLimit": false
    }
  ],
  "receipts": [
    {
      "status": "0x1",
      "cumulativeGasUsed": "0x342498",
      "logs": [
        {
          "address": "0xa0b1eae720bf65593534f4fc5e374af3b5ac2137",
          "topics": [
            "0x8be0079c531659141344cd1fd0a4f28419497f9722a3daafe3b4186f6b6457e0",
            "0x0000000000000000000000000000000000000000000000000000000000000000",
            "0x000000000000000000000000cda2fdb452ff4f5d7ba1c3d5dfcc9cb926a5eb7d"
          ],
          "data": "0x",
          "blockHash": "0x66a7a41ead6d6b2ca49897908a5c55353e4be9f722bafd285fff28dcd76dd96e",
          "blockNumber": "0xc8f2bb",
          "transactionHash": "0x2954e4843c1b459130b53eb46101cbe6e4af33778af963d70cdb5485deb27486",
          "transactionIndex": "0x2",
          "logIndex": "0x5",
          "removed": false
        }
      ],
      "logsBloom": "0x10000000000000000000000000000000000000000000000000800000000000000000000000000000000000000000000000000000000000000000000000000000000000000000000000000000040000000001000000000000000000000000000000000000020000000000000000000800000000000000800000000000000000400000000000000000000000000000000000000000000000000000000000000000100000000000000000000000000000000000000000004000000000000000000000000000000000000000000000000000000000000000000000000000000020000000000000000000000000000000400000000000000000000000000000000000",
      "type": "0x2",
      "transactionHash": "0x2954e4843c1b459130b53eb46101cbe6e4af33778af963d70cdb5485deb27486",
      "transactionIndex": "0x2",
      "blockHash": "0x66a7a41ead6d6b2ca49897908a5c55353e4be9f722bafd285fff28dcd76dd96e",
      "blockNumber": "0xc8f2bb",
      "gasUsed": "0x312e2f",
      "effectiveGasPrice": "0xfd",
      "from": "0xcda2fdb452ff4f5d7ba1c3d5dfcc9cb926a5eb7d",
      "to": null,
      "contractAddress": "0xa0b1eae720bf65593534f4fc5e374af3b5ac2137",
      "l1BaseFeeScalar": "0x186a0",
      "l1BlobBaseFee": "0x6574a002c",
      "l1BlobBaseFeeScalar": "0x95506",
      "l1Fee": "0x8a2d8da3809e",
      "l1GasPrice": "0x500fc64f",
      "l1GasUsed": "0x1f8ef"
    },
    {
      "status": "0x1",
      "cumulativeGasUsed": "0x34da73",
      "logs": [
        {
          "address": "0x05d032ac25d322df992303dca074ee7392c117b9",
          "topics": [
            "0x8c5be1e5ebec7d5bd14f71427d1e84f3dd0314c0f7b2291e5b200ac8c7c3b925",
            "0x000000000000000000000000cda2fdb452ff4f5d7ba1c3d5dfcc9cb926a5eb7d",
            "0x000000000000000000000000a0b1eae720bf65593534f4fc5e374af3b5ac2137"
          ],
          "data": "0xffffffffffffffffffffffffffffffffffffffffffffffffffffffffffffffff",
          "blockHash": "0x66a7a41ead6d6b2ca49897908a5c55353e4be9f722bafd285fff28dcd76dd96e",
          "blockNumber": "0xc8f2bb",
          "transactionHash": "0x931da8d7a537dd90795fcae66ae8fbaafa98ffdb3d1418aef43f03a3745970c6",
          "transactionIndex": "0x3",
          "logIndex": "0x6",
          "removed": false
        }
      ],
      "logsBloom": "0x00000000000000000000010000000000000000000000000000000000000000000000000000000000000000000000000000000000000000000000000000200000000000000000000000000000040000000000000000000000000000000000000000000000000000000000000000000000008000000000800000000000000000000000000800000000000000000000040000000000000000000000000000000000020100000000000000000000000000000080000000004000000000000000000000000000000000000000000000000000000000000000000000000000000000000010000000000000000000000000000000000000000000000000000000000000",
      "type": "0x2",
      "transactionHash": "0x931da8d7a537dd90795fcae66ae8fbaafa98ffdb3d1418aef43f03a3745970c6",
      "transactionIndex": "0x3",
      "blockHash": "0x66a7a41ead6d6b2ca49897908a5c55353e4be9f722bafd285fff28dcd76dd96e",
      "blockNumber": "0xc8f2bb",
      "gasUsed": "0xb5db",
      "effectiveGasPrice": "0xfd",
      "from": "0xcda2fdb452ff4f5d7ba1c3d5dfcc9cb926a5eb7d",
      "to": "0x05d032ac25d322df992303dca074ee7392c117b9",
      "contractAddress": null,
      "l1BaseFeeScalar": "0x186a0",
      "l1BlobBaseFee": "0x6574a002c",
      "l1BlobBaseFeeScalar": "0x95506",
      "l1Fee": "0x1b5d8985788",
      "l1GasPrice": "0x500fc64f",
      "l1GasUsed": "0x640"
    },
    {
      "status": "0x1",
      "cumulativeGasUsed": "0x35904e",
      "logs": [
        {
          "address": "0x03c7054bcb39f7b2e5b2c7acb37583e32d70cfa3",
          "topics": [
            "0x8c5be1e5ebec7d5bd14f71427d1e84f3dd0314c0f7b2291e5b200ac8c7c3b925",
            "0x000000000000000000000000cda2fdb452ff4f5d7ba1c3d5dfcc9cb926a5eb7d",
            "0x000000000000000000000000a0b1eae720bf65593534f4fc5e374af3b5ac2137"
          ],
          "data": "0xffffffffffffffffffffffffffffffffffffffffffffffffffffffffffffffff",
          "blockHash": "0x66a7a41ead6d6b2ca49897908a5c55353e4be9f722bafd285fff28dcd76dd96e",
          "blockNumber": "0xc8f2bb",
          "transactionHash": "0x3d82110426f60acaac9d076c05053c4a18b1bcfb99b6d451492e799898415305",
          "transactionIndex": "0x4",
          "logIndex": "0x7",
          "removed": false
        }
      ],
      "logsBloom": "0x00000000000000000000000000000100000000000000000000000000000000000000000000000000000000000000000000000000000000000000000000200000000000000000000000000000040000000000000000000000000000000000000000000000000000000000000000000000008000000000800000000000000000000000000000000000000000000000040000000000000000000000400000000000020100000000000000000000000000000000000000004000000000000000000000000000000000000000000000000000002000000000000000000000000000000010000000000000000000000000000000000000000000000000000000000000",
      "type": "0x2",
      "transactionHash": "0x3d82110426f60acaac9d076c05053c4a18b1bcfb99b6d451492e799898415305",
      "transactionIndex": "0x4",
      "blockHash": "0x66a7a41ead6d6b2ca49897908a5c55353e4be9f722bafd285fff28dcd76dd96e",
      "blockNumber": "0xc8f2bb",
      "gasUsed": "0xb5db",
      "effectiveGasPrice": "0xfd",
      "from": "0xcda2fdb452ff4f5d7ba1c3d5dfcc9cb926a5eb7d",
      "to": "0x03c7054bcb39f7b2e5b2c7acb37583e32d70cfa3",
      "contractAddress": null,
      "l1BaseFeeScalar": "0x186a0",
      "l1BlobBaseFee": "0x6574a002c",
      "l1BlobBaseFeeScalar": "0x95506",
      "l1Fee": "0x1b5d8985788",
      "l1GasPrice": "0x500fc64f",
      "l1GasUsed": "0x640"
    },
    {
      "status": "0x1",
      "cumulativeGasUsed": "0x364555",
      "logs": [
        {
          "address": "0x4200000000000000000000000000000000000006",
          "topics": [
            "0x8c5be1e5ebec7d5bd14f71427d1e84f3dd0314c0f7b2291e5b200ac8c7c3b925",
            "0x000000000000000000000000cda2fdb452ff4f5d7ba1c3d5dfcc9cb926a5eb7d",
            "0x000000000000000000000000a0b1eae720bf65593534f4fc5e374af3b5ac2137"
          ],
          "data": "0xffffffffffffffffffffffffffffffffffffffffffffffffffffffffffffffff",
          "blockHash": "0x66a7a41ead6d6b2ca49897908a5c55353e4be9f722bafd285fff28dcd76dd96e",
          "blockNumber": "0xc8f2bb",
          "transactionHash": "0xb2de9a3f14afc3097a7231a13ee4020cad68aa1df23750378aecdc5811f7a44a",
          "transactionIndex": "0x5",
          "logIndex": "0x8",
          "removed": false
        }
      ],
      "logsBloom": "0x00000000000000000000000000000000000000000000000000040000000000000000000000000000000000100000000000000000000000000000000000200000000000000000000000000000040000000000000000000000000000000000000000000000000000000000000000000000008000000000800000000000000000000000000000000000000000000000040000000000002000000000000000000000020100000000000000000000000000000000000000004000000000000000000000000000000000000000000000000000000000000000000000000000000000000010000000000000000000000000000000000000000000000000000000000000",
      "type": "0x2",
      "transactionHash": "0xb2de9a3f14afc3097a7231a13ee4020cad68aa1df23750378aecdc5811f7a44a",
      "transactionIndex": "0x5",
      "blockHash": "0x66a7a41ead6d6b2ca49897908a5c55353e4be9f722bafd285fff28dcd76dd96e",
      "blockNumber": "0xc8f2bb",
      "gasUsed": "0xb507",
      "effectiveGasPrice": "0xfd",
      "from": "0xcda2fdb452ff4f5d7ba1c3d5dfcc9cb926a5eb7d",
      "to": "0x4200000000000000000000000000000000000006",
      "contractAddress": null,
      "l1BaseFeeScalar": "0x186a0",
      "l1BlobBaseFee": "0x6574a002c",
      "l1BlobBaseFeeScalar": "0x95506",
      "l1Fee": "0x1b5d8985788",
      "l1GasPrice": "0x500fc64f",
      "l1GasUsed": "0x640"
    },
    {
      "status": "0x1",
      "cumulativeGasUsed": "0x3934a7",
      "logs": [
        {
          "address": "0x03c7054bcb39f7b2e5b2c7acb37583e32d70cfa3",
          "topics": [
            "0xddf252ad1be2c89b69c2b068fc378daa952ba7f163c4a11628f55a4df523b3ef",
            "0x000000000000000000000000cda2fdb452ff4f5d7ba1c3d5dfcc9cb926a5eb7d",
            "0x000000000000000000000000a0b1eae720bf65593534f4fc5e374af3b5ac2137"
          ],
          "data": "0x000000000000000000000000000000000000000000000000000000000000ce98",
          "blockHash": "0x66a7a41ead6d6b2ca49897908a5c55353e4be9f722bafd285fff28dcd76dd96e",
          "blockNumber": "0xc8f2bb",
          "transactionHash": "0x7e514beabc43535654ca06f3a062301aa1ba27f39a6493376d5c230dd25bfccc",
          "transactionIndex": "0x6",
          "logIndex": "0x9",
          "removed": false
        },
        {
          "address": "0x4200000000000000000000000000000000000006",
          "topics": [
            "0xddf252ad1be2c89b69c2b068fc378daa952ba7f163c4a11628f55a4df523b3ef",
            "0x000000000000000000000000cda2fdb452ff4f5d7ba1c3d5dfcc9cb926a5eb7d",
            "0x000000000000000000000000a0b1eae720bf65593534f4fc5e374af3b5ac2137"
          ],
          "data": "0x00000000000000000000000000000000000000000000000000440103ce8b4efb",
          "blockHash": "0x66a7a41ead6d6b2ca49897908a5c55353e4be9f722bafd285fff28dcd76dd96e",
          "blockNumber": "0xc8f2bb",
          "transactionHash": "0x7e514beabc43535654ca06f3a062301aa1ba27f39a6493376d5c230dd25bfccc",
          "transactionIndex": "0x6",
          "logIndex": "0xa",
          "removed": false
        },
        {
          "address": "0xa0b1eae720bf65593534f4fc5e374af3b5ac2137",
          "topics": [
            "0xddf252ad1be2c89b69c2b068fc378daa952ba7f163c4a11628f55a4df523b3ef",
            "0x0000000000000000000000000000000000000000000000000000000000000000",
            "0x000000000000000000000000cda2fdb452ff4f5d7ba1c3d5dfcc9cb926a5eb7d"
          ],
          "data": "0x0000000000000000000000000000000000000001431e0fae6d7217caa0000000",
          "blockHash": "0x66a7a41ead6d6b2ca49897908a5c55353e4be9f722bafd285fff28dcd76dd96e",
          "blockNumber": "0xc8f2bb",
          "transactionHash": "0x7e514beabc43535654ca06f3a062301aa1ba27f39a6493376d5c230dd25bfccc",
          "transactionIndex": "0x6",
          "logIndex": "0xb",
          "removed": false
        }
      ],
      "logsBloom": "0x10000000000000000000000000000100000000000000000000040000000000000000000000000000000000100000000000000000000000000000000000000000000000000000000000000008040000000000000000000000000000000000000000000000020000000000000000000800008000000000800000000010000000000000000000000000000000000000040000000000002000000000400000000000100100000000000000000000000000000000000000004000000000000000000000000002000000000000000000000000002000000000000000000000000020000000000000000000000000000000400000000000000000000000000000000000",
      "type": "0x2",
      "transactionHash": "0x7e514beabc43535654ca06f3a062301aa1ba27f39a6493376d5c230dd25bfccc",
      "transactionIndex": "0x6",
      "blockHash": "0x66a7a41ead6d6b2ca49897908a5c55353e4be9f722bafd285fff28dcd76dd96e",
      "blockNumber": "0xc8f2bb",
      "gasUsed": "0x2ef52",
      "effectiveGasPrice": "0xfd",
      "from": "0xcda2fdb452ff4f5d7ba1c3d5dfcc9cb926a5eb7d",
      "to": "0xa0b1eae720bf65593534f4fc5e374af3b5ac2137",
      "contractAddress": null,
      "l1BaseFeeScalar": "0x186a0",
      "l1BlobBaseFee": "0x6574a002c",
      "l1BlobBaseFeeScalar": "0x95506",
      "l1Fee": "0x2086b4569b6",
      "l1GasPrice": "0x500fc64f",
      "l1GasUsed": "0x76d"
    },
    {
      "status": "0x1",
      "cumulativeGasUsed": "0x408194",
      "logs": [
        {
          "address": "0x05d032ac25d322df992303dca074ee7392c117b9",
          "topics": [
            "0xddf252ad1be2c89b69c2b068fc378daa952ba7f163c4a11628f55a4df523b3ef",
            "0x000000000000000000000000cda2fdb452ff4f5d7ba1c3d5dfcc9cb926a5eb7d",
            "0x000000000000000000000000a0b1eae720bf65593534f4fc5e374af3b5ac2137"
          ],
          "data": "0x00000000000000000000000000000000000000000000000000000000000f9768",
          "blockHash": "0x66a7a41ead6d6b2ca49897908a5c55353e4be9f722bafd285fff28dcd76dd96e",
          "blockNumber": "0xc8f2bb",
          "transactionHash": "0xe9cbd9a3548d6e29efdaf934778cad41043c395bada4c9cd8cab8d528a5d9297",
          "transactionIndex": "0x7",
          "logIndex": "0xc",
          "removed": false
        },
        {
          "address": "0x05d032ac25d322df992303dca074ee7392c117b9",
          "topics": [
            "0x8c5be1e5ebec7d5bd14f71427d1e84f3dd0314c0f7b2291e5b200ac8c7c3b925",
            "0x000000000000000000000000a0b1eae720bf65593534f4fc5e374af3b5ac2137",
            "0x000000000000000000000000807f4e281b7a3b324825c64ca53c69f0b418de40"
          ],
          "data": "0x00000000000000000000000000000000000000000000000000000000000f9768",
          "blockHash": "0x66a7a41ead6d6b2ca49897908a5c55353e4be9f722bafd285fff28dcd76dd96e",
          "blockNumber": "0xc8f2bb",
          "transactionHash": "0xe9cbd9a3548d6e29efdaf934778cad41043c395bada4c9cd8cab8d528a5d9297",
          "transactionIndex": "0x7",
          "logIndex": "0xd",
          "removed": false
        },
        {
          "address": "0x03c7054bcb39f7b2e5b2c7acb37583e32d70cfa3",
          "topics": [
            "0xddf252ad1be2c89b69c2b068fc378daa952ba7f163c4a11628f55a4df523b3ef",
            "0x0000000000000000000000006407fec527abad1aafdb9a3b5a2171800c21a2fe",
            "0x000000000000000000000000a0b1eae720bf65593534f4fc5e374af3b5ac2137"
          ],
          "data": "0x000000000000000000000000000000000000000000000000000000000000020e",
          "blockHash": "0x66a7a41ead6d6b2ca49897908a5c55353e4be9f722bafd285fff28dcd76dd96e",
          "blockNumber": "0xc8f2bb",
          "transactionHash": "0xe9cbd9a3548d6e29efdaf934778cad41043c395bada4c9cd8cab8d528a5d9297",
          "transactionIndex": "0x7",
          "logIndex": "0xe",
          "removed": false
        },
        {
          "address": "0x05d032ac25d322df992303dca074ee7392c117b9",
          "topics": [
            "0x8c5be1e5ebec7d5bd14f71427d1e84f3dd0314c0f7b2291e5b200ac8c7c3b925",
            "0x000000000000000000000000a0b1eae720bf65593534f4fc5e374af3b5ac2137",
            "0x000000000000000000000000807f4e281b7a3b324825c64ca53c69f0b418de40"
          ],
          "data": "0x000000000000000000000000000000000000000000000000000000000007cbb4",
          "blockHash": "0x66a7a41ead6d6b2ca49897908a5c55353e4be9f722bafd285fff28dcd76dd96e",
          "blockNumber": "0xc8f2bb",
          "transactionHash": "0xe9cbd9a3548d6e29efdaf934778cad41043c395bada4c9cd8cab8d528a5d9297",
          "transactionIndex": "0x7",
          "logIndex": "0xf",
          "removed": false
        },
        {
          "address": "0x05d032ac25d322df992303dca074ee7392c117b9",
          "topics": [
            "0xddf252ad1be2c89b69c2b068fc378daa952ba7f163c4a11628f55a4df523b3ef",
            "0x000000000000000000000000a0b1eae720bf65593534f4fc5e374af3b5ac2137",
            "0x0000000000000000000000006407fec527abad1aafdb9a3b5a2171800c21a2fe"
          ],
          "data": "0x000000000000000000000000000000000000000000000000000000000007cbb4",
          "blockHash": "0x66a7a41ead6d6b2ca49897908a5c55353e4be9f722bafd285fff28dcd76dd96e",
          "blockNumber": "0xc8f2bb",
          "transactionHash": "0xe9cbd9a3548d6e29efdaf934778cad41043c395bada4c9cd8cab8d528a5d9297",
          "transactionIndex": "0x7",
          "logIndex": "0x10",
          "removed": false
        },
        {
          "address": "0x6407fec527abad1aafdb9a3b5a2171800c21a2fe",
          "topics": [
            "0xc42079f94a6350d7e6235f29174924f928cc2ac818eb64fed8004e115fbcca67",
            "0x000000000000000000000000807f4e281b7a3b324825c64ca53c69f0b418de40",
            "0x000000000000000000000000a0b1eae720bf65593534f4fc5e374af3b5ac2137"
          ],
          "data": "0xfffffffffffffffffffffffffffffffffffffffffffffffffffffffffffffdf2000000000000000000000000000000000000000000000000000000000007cbb4000000000000000000000000000000000000001f1cc8a72835cd094728ab2f25000000000000000000000000000000000000000000000000000000046fc5a4070000000000000000000000000000000000000000000000000000000000010c93",
          "blockHash": "0x66a7a41ead6d6b2ca49897908a5c55353e4be9f722bafd285fff28dcd76dd96e",
          "blockNumber": "0xc8f2bb",
          "transactionHash": "0xe9cbd9a3548d6e29efdaf934778cad41043c395bada4c9cd8cab8d528a5d9297",
          "transactionIndex": "0x7",
          "logIndex": "0x11",
          "removed": false
        },
        {
          "address": "0x4200000000000000000000000000000000000006",
          "topics": [
            "0xddf252ad1be2c89b69c2b068fc378daa952ba7f163c4a11628f55a4df523b3ef",
            "0x0000000000000000000000009a3b17a2e2daf54ce80f2f4b2c8440902be715de",
            "0x000000000000000000000000a0b1eae720bf65593534f4fc5e374af3b5ac2137"
          ],
          "data": "0x0000000000000000000000000000000000000000000000000000aeab397bf563",
          "blockHash": "0x66a7a41ead6d6b2ca49897908a5c55353e4be9f722bafd285fff28dcd76dd96e",
          "blockNumber": "0xc8f2bb",
          "transactionHash": "0xe9cbd9a3548d6e29efdaf934778cad41043c395bada4c9cd8cab8d528a5d9297",
          "transactionIndex": "0x7",
          "logIndex": "0x12",
          "removed": false
        },
        {
          "address": "0x05d032ac25d322df992303dca074ee7392c117b9",
          "topics": [
            "0x8c5be1e5ebec7d5bd14f71427d1e84f3dd0314c0f7b2291e5b200ac8c7c3b925",
            "0x000000000000000000000000a0b1eae720bf65593534f4fc5e374af3b5ac2137",
            "0x000000000000000000000000807f4e281b7a3b324825c64ca53c69f0b418de40"
          ],
          "data": "0x0000000000000000000000000000000000000000000000000000000000000000",
          "blockHash": "0x66a7a41ead6d6b2ca49897908a5c55353e4be9f722bafd285fff28dcd76dd96e",
          "blockNumber": "0xc8f2bb",
          "transactionHash": "0xe9cbd9a3548d6e29efdaf934778cad41043c395bada4c9cd8cab8d528a5d9297",
          "transactionIndex": "0x7",
          "logIndex": "0x13",
          "removed": false
        },
        {
          "address": "0x05d032ac25d322df992303dca074ee7392c117b9",
          "topics": [
            "0xddf252ad1be2c89b69c2b068fc378daa952ba7f163c4a11628f55a4df523b3ef",
            "0x000000000000000000000000a0b1eae720bf65593534f4fc5e374af3b5ac2137",
            "0x0000000000000000000000009a3b17a2e2daf54ce80f2f4b2c8440902be715de"
          ],
          "data": "0x000000000000000000000000000000000000000000000000000000000007cbb4",
          "blockHash": "0x66a7a41ead6d6b2ca49897908a5c55353e4be9f722bafd285fff28dcd76dd96e",
          "blockNumber": "0xc8f2bb",
          "transactionHash": "0xe9cbd9a3548d6e29efdaf934778cad41043c395bada4c9cd8cab8d528a5d9297",
          "transactionIndex": "0x7",
          "logIndex": "0x14",
          "removed": false
        },
        {
          "address": "0x9a3b17a2e2daf54ce80f2f4b2c8440902be715de",
          "topics": [
            "0xc42079f94a6350d7e6235f29174924f928cc2ac818eb64fed8004e115fbcca67",
            "0x000000000000000000000000807f4e281b7a3b324825c64ca53c69f0b418de40",
            "0x000000000000000000000000a0b1eae720bf65593534f4fc5e374af3b5ac2137"
          ],
          "data": "0x000000000000000000000000000000000000000000000000000000000007cbb4ffffffffffffffffffffffffffffffffffffffffffffffffffff5154c6840a9d0000000000000000000000000000000000004bd967620a24d4b2dd812fc6356a00000000000000000000000000000000000000000000000000071c8f20592a200000000000000000000000000000000000000000000000000000000000030370",
          "blockHash": "0x66a7a41ead6d6b2ca49897908a5c55353e4be9f722bafd285fff28dcd76dd96e",
          "blockNumber": "0xc8f2bb",
          "transactionHash": "0xe9cbd9a3548d6e29efdaf934778cad41043c395bada4c9cd8cab8d528a5d9297",
          "transactionIndex": "0x7",
          "logIndex": "0x15",
          "removed": false
        },
        {
          "address": "0xa0b1eae720bf65593534f4fc5e374af3b5ac2137",
          "topics": [
            "0xddf252ad1be2c89b69c2b068fc378daa952ba7f163c4a11628f55a4df523b3ef",
            "0x0000000000000000000000000000000000000000000000000000000000000000",
            "0x000000000000000000000000cda2fdb452ff4f5d7ba1c3d5dfcc9cb926a5eb7d"
          ],
          "data": "0x0000000000000000000000000000000000000000033b2e3c9fd0803ce8000000",
          "blockHash": "0x66a7a41ead6d6b2ca49897908a5c55353e4be9f722bafd285fff28dcd76dd96e",
          "blockNumber": "0xc8f2bb",
          "transactionHash": "0xe9cbd9a3548d6e29efdaf934778cad41043c395bada4c9cd8cab8d528a5d9297",
          "transactionIndex": "0x7",
          "logIndex": "0x16",
          "removed": false
        },
        {
          "address": "0xa0b1eae720bf65593534f4fc5e374af3b5ac2137",
          "topics": [
            "0x90890809c654f11d6e72a28fa60149770a0d11ec6c92319d6ceb2bb0a4ea1a15",
            "0x000000000000000000000000cda2fdb452ff4f5d7ba1c3d5dfcc9cb926a5eb7d"
          ],
          "data": "0x0000000000000000000000000000000000000000033b2e3c9fd0803ce800000000000000000000000000000000000000000000000000000000000000000f9768",
          "blockHash": "0x66a7a41ead6d6b2ca49897908a5c55353e4be9f722bafd285fff28dcd76dd96e",
          "blockNumber": "0xc8f2bb",
          "transactionHash": "0xe9cbd9a3548d6e29efdaf934778cad41043c395bada4c9cd8cab8d528a5d9297",
          "transactionIndex": "0x7",
          "logIndex": "0x17",
          "removed": false
        }
      ],
      "logsBloom": "0x10000000000000000000010000000100000000000400000080040000000000000000000000000000000000100000000008000000000030000000000000200000000000000040000800000008040000000000000000000000000000000000000000000000020000000000000000000800008000000000800000802010000800000000000800000000000200000000040000000000022000000000400000000000120100000000000001000010000000000081000000004000000000000000000000000002000000000000000000000000002000000080000000000000000020000010000020020000000000000000400000000000400000000400080000000000",
      "type": "0x2",
      "transactionHash": "0xe9cbd9a3548d6e29efdaf934778cad41043c395bada4c9cd8cab8d528a5d9297",
      "transactionIndex": "0x7",
      "blockHash": "0x66a7a41ead6d6b2ca49897908a5c55353e4be9f722bafd285fff28dcd76dd96e",
      "blockNumber": "0xc8f2bb",
      "gasUsed": "0x74ced",
      "effectiveGasPrice": "0xfd",
      "from": "0xcda2fdb452ff4f5d7ba1c3d5dfcc9cb926a5eb7d",
      "to": "0xa0b1eae720bf65593534f4fc5e374af3b5ac2137",
      "contractAddress": null,
      "l1BaseFeeScalar": "0x186a0",
      "l1BlobBaseFee": "0x6574a002c",
      "l1BlobBaseFeeScalar": "0x95506",
      "l1Fee": "0x1b5d8985788",
      "l1GasPrice": "0x500fc64f",
      "l1GasUsed": "0x640"
    },
    {
      "status": "0x1",
      "cumulativeGasUsed": "0x4857ae",
      "logs": [
        {
          "address": "0xa0b1eae720bf65593534f4fc5e374af3b5ac2137",
          "topics": [
            "0xddf252ad1be2c89b69c2b068fc378daa952ba7f163c4a11628f55a4df523b3ef",
            "0x000000000000000000000000cda2fdb452ff4f5d7ba1c3d5dfcc9cb926a5eb7d",
            "0x0000000000000000000000000000000000000000000000000000000000000000"
          ],
          "data": "0x0000000000000000000000000000000000000000033b2e3c9fd0803ce8000000",
          "blockHash": "0x66a7a41ead6d6b2ca49897908a5c55353e4be9f722bafd285fff28dcd76dd96e",
          "blockNumber": "0xc8f2bb",
          "transactionHash": "0x356fc327e2a891a0ec5457a2e2149e3e9260b7828635ef4d3175cd9b7a7fe7b3",
          "transactionIndex": "0x8",
          "logIndex": "0x18",
          "removed": false
        },
        {
          "address": "0x03c7054bcb39f7b2e5b2c7acb37583e32d70cfa3",
          "topics": [
            "0x8c5be1e5ebec7d5bd14f71427d1e84f3dd0314c0f7b2291e5b200ac8c7c3b925",
            "0x000000000000000000000000a0b1eae720bf65593534f4fc5e374af3b5ac2137",
            "0x000000000000000000000000807f4e281b7a3b324825c64ca53c69f0b418de40"
          ],
          "data": "0x0000000000000000000000000000000000000000000000000000000000000208",
          "blockHash": "0x66a7a41ead6d6b2ca49897908a5c55353e4be9f722bafd285fff28dcd76dd96e",
          "blockNumber": "0xc8f2bb",
          "transactionHash": "0x356fc327e2a891a0ec5457a2e2149e3e9260b7828635ef4d3175cd9b7a7fe7b3",
          "transactionIndex": "0x8",
          "logIndex": "0x19",
          "removed": false
        },
        {
          "address": "0x05d032ac25d322df992303dca074ee7392c117b9",
          "topics": [
            "0xddf252ad1be2c89b69c2b068fc378daa952ba7f163c4a11628f55a4df523b3ef",
            "0x0000000000000000000000006407fec527abad1aafdb9a3b5a2171800c21a2fe",
            "0x000000000000000000000000a0b1eae720bf65593534f4fc5e374af3b5ac2137"
          ],
          "data": "0x000000000000000000000000000000000000000000000000000000000007a6a7",
          "blockHash": "0x66a7a41ead6d6b2ca49897908a5c55353e4be9f722bafd285fff28dcd76dd96e",
          "blockNumber": "0xc8f2bb",
          "transactionHash": "0x356fc327e2a891a0ec5457a2e2149e3e9260b7828635ef4d3175cd9b7a7fe7b3",
          "transactionIndex": "0x8",
          "logIndex": "0x1a",
          "removed": false
        },
        {
          "address": "0x03c7054bcb39f7b2e5b2c7acb37583e32d70cfa3",
          "topics": [
            "0x8c5be1e5ebec7d5bd14f71427d1e84f3dd0314c0f7b2291e5b200ac8c7c3b925",
            "0x000000000000000000000000a0b1eae720bf65593534f4fc5e374af3b5ac2137",
            "0x000000000000000000000000807f4e281b7a3b324825c64ca53c69f0b418de40"
          ],
          "data": "0x0000000000000000000000000000000000000000000000000000000000000000",
          "blockHash": "0x66a7a41ead6d6b2ca49897908a5c55353e4be9f722bafd285fff28dcd76dd96e",
          "blockNumber": "0xc8f2bb",
          "transactionHash": "0x356fc327e2a891a0ec5457a2e2149e3e9260b7828635ef4d3175cd9b7a7fe7b3",
          "transactionIndex": "0x8",
          "logIndex": "0x1b",
          "removed": false
        },
        {
          "address": "0x03c7054bcb39f7b2e5b2c7acb37583e32d70cfa3",
          "topics": [
            "0xddf252ad1be2c89b69c2b068fc378daa952ba7f163c4a11628f55a4df523b3ef",
            "0x000000000000000000000000a0b1eae720bf65593534f4fc5e374af3b5ac2137",
            "0x0000000000000000000000006407fec527abad1aafdb9a3b5a2171800c21a2fe"
          ],
          "data": "0x0000000000000000000000000000000000000000000000000000000000000208",
          "blockHash": "0x66a7a41ead6d6b2ca49897908a5c55353e4be9f722bafd285fff28dcd76dd96e",
          "blockNumber": "0xc8f2bb",
          "transactionHash": "0x356fc327e2a891a0ec5457a2e2149e3e9260b7828635ef4d3175cd9b7a7fe7b3",
          "transactionIndex": "0x8",
          "logIndex": "0x1c",
          "removed": false
        },
        {
          "address": "0x6407fec527abad1aafdb9a3b5a2171800c21a2fe",
          "topics": [
            "0xc42079f94a6350d7e6235f29174924f928cc2ac818eb64fed8004e115fbcca67",
            "0x000000000000000000000000807f4e281b7a3b324825c64ca53c69f0b418de40",
            "0x000000000000000000000000a0b1eae720bf65593534f4fc5e374af3b5ac2137"
          ],
          "data": "0x0000000000000000000000000000000000000000000000000000000000000208fffffffffffffffffffffffffffffffffffffffffffffffffffffffffff85959000000000000000000000000000000000000001f1cc6edae919d6c9fad9298be000000000000000000000000000000000000000000000000000000046fc5a4070000000000000000000000000000000000000000000000000000000000010c93",
          "blockHash": "0x66a7a41ead6d6b2ca49897908a5c55353e4be9f722bafd285fff28dcd76dd96e",
          "blockNumber": "0xc8f2bb",
          "transactionHash": "0x356fc327e2a891a0ec5457a2e2149e3e9260b7828635ef4d3175cd9b7a7fe7b3",
          "transactionIndex": "0x8",
          "logIndex": "0x1d",
          "removed": false
        },
        {
          "address": "0x4200000000000000000000000000000000000006",
          "topics": [
            "0x8c5be1e5ebec7d5bd14f71427d1e84f3dd0314c0f7b2291e5b200ac8c7c3b925",
            "0x000000000000000000000000a0b1eae720bf65593534f4fc5e374af3b5ac2137",
            "0x000000000000000000000000807f4e281b7a3b324825c64ca53c69f0b418de40"
          ],
          "data": "0x0000000000000000000000000000000000000000000000000000ad09b05d16b6",
          "blockHash": "0x66a7a41ead6d6b2ca49897908a5c55353e4be9f722bafd285fff28dcd76dd96e",
          "blockNumber": "0xc8f2bb",
          "transactionHash": "0x356fc327e2a891a0ec5457a2e2149e3e9260b7828635ef4d3175cd9b7a7fe7b3",
          "transactionIndex": "0x8",
          "logIndex": "0x1e",
          "removed": false
        },
        {
          "address": "0x05d032ac25d322df992303dca074ee7392c117b9",
          "topics": [
            "0xddf252ad1be2c89b69c2b068fc378daa952ba7f163c4a11628f55a4df523b3ef",
            "0x0000000000000000000000009a3b17a2e2daf54ce80f2f4b2c8440902be715de",
            "0x000000000000000000000000a0b1eae720bf65593534f4fc5e374af3b5ac2137"
          ],
          "data": "0x000000000000000000000000000000000000000000000000000000000007ad38",
          "blockHash": "0x66a7a41ead6d6b2ca49897908a5c55353e4be9f722bafd285fff28dcd76dd96e",
          "blockNumber": "0xc8f2bb",
          "transactionHash": "0x356fc327e2a891a0ec5457a2e2149e3e9260b7828635ef4d3175cd9b7a7fe7b3",
          "transactionIndex": "0x8",
          "logIndex": "0x1f",
          "removed": false
        },
        {
          "address": "0x4200000000000000000000000000000000000006",
          "topics": [
            "0xddf252ad1be2c89b69c2b068fc378daa952ba7f163c4a11628f55a4df523b3ef",
            "0x000000000000000000000000a0b1eae720bf65593534f4fc5e374af3b5ac2137",
            "0x0000000000000000000000009a3b17a2e2daf54ce80f2f4b2c8440902be715de"
          ],
          "data": "0x0000000000000000000000000000000000000000000000000000ad09b05d16b6",
          "blockHash": "0x66a7a41ead6d6b2ca49897908a5c55353e4be9f722bafd285fff28dcd76dd96e",
          "blockNumber": "0xc8f2bb",
          "transactionHash": "0x356fc327e2a891a0ec5457a2e2149e3e9260b7828635ef4d3175cd9b7a7fe7b3",
          "transactionIndex": "0x8",
          "logIndex": "0x20",
          "removed": false
        },
        {
          "address": "0x9a3b17a2e2daf54ce80f2f4b2c8440902be715de",
          "topics": [
            "0xc42079f94a6350d7e6235f29174924f928cc2ac818eb64fed8004e115fbcca67",
            "0x000000000000000000000000807f4e281b7a3b324825c64ca53c69f0b418de40",
            "0x000000000000000000000000a0b1eae720bf65593534f4fc5e374af3b5ac2137"
          ],
          "data": "0xfffffffffffffffffffffffffffffffffffffffffffffffffffffffffff852c80000000000000000000000000000000000000000000000000000ad09b05d16b60000000000000000000000000000000000004bd97fa452acae8c12895d257b3d00000000000000000000000000000000000000000000000000071c8f20592a200000000000000000000000000000000000000000000000000000000000030370",
          "blockHash": "0x66a7a41ead6d6b2ca49897908a5c55353e4be9f722bafd285fff28dcd76dd96e",
          "blockNumber": "0xc8f2bb",
          "transactionHash": "0x356fc327e2a891a0ec5457a2e2149e3e9260b7828635ef4d3175cd9b7a7fe7b3",
          "transactionIndex": "0x8",
          "logIndex": "0x21",
          "removed": false
        },
        {
          "address": "0x05d032ac25d322df992303dca074ee7392c117b9",
          "topics": [
            "0xddf252ad1be2c89b69c2b068fc378daa952ba7f163c4a11628f55a4df523b3ef",
            "0x000000000000000000000000a0b1eae720bf65593534f4fc5e374af3b5ac2137",
            "0x000000000000000000000000cda2fdb452ff4f5d7ba1c3d5dfcc9cb926a5eb7d"
          ],
          "data": "0x00000000000000000000000000000000000000000000000000000000000f53de",
          "blockHash": "0x66a7a41ead6d6b2ca49897908a5c55353e4be9f722bafd285fff28dcd76dd96e",
          "blockNumber": "0xc8f2bb",
          "transactionHash": "0x356fc327e2a891a0ec5457a2e2149e3e9260b7828635ef4d3175cd9b7a7fe7b3",
          "transactionIndex": "0x8",
          "logIndex": "0x22",
          "removed": false
        },
        {
          "address": "0xa0b1eae720bf65593534f4fc5e374af3b5ac2137",
          "topics": [
            "0xf279e6a1f5e320cca91135676d9cb6e44ca8a08c0b88342bcdb1144f6511b568",
            "0x000000000000000000000000cda2fdb452ff4f5d7ba1c3d5dfcc9cb926a5eb7d"
          ],
          "data": "0x0000000000000000000000000000000000000000033b2e3c9fd0803ce800000000000000000000000000000000000000000000000000000000000000000f53df",
          "blockHash": "0x66a7a41ead6d6b2ca49897908a5c55353e4be9f722bafd285fff28dcd76dd96e",
          "blockNumber": "0xc8f2bb",
          "transactionHash": "0x356fc327e2a891a0ec5457a2e2149e3e9260b7828635ef4d3175cd9b7a7fe7b3",
          "transactionIndex": "0x8",
          "logIndex": "0x23",
          "removed": false
        }
      ],
      "logsBloom": "0x10000000000000000000010000000100000000000000000080040000000000000000000000000000000000100000000000000000000030000000000000200000000000000040000800000008040000000000000000000000000000000000000000000000020000000000000000000800008000000000800000802010000800000000000800000000000200000000040000000000022000000000400000000810120100000000000001000010000000000081000000004000000000000000000000000002000000000000000000000000002000000080000000000000000020000010040020020000000000000000400000000000000000000400080000000000",
      "type": "0x2",
      "transactionHash": "0x356fc327e2a891a0ec5457a2e2149e3e9260b7828635ef4d3175cd9b7a7fe7b3",
      "transactionIndex": "0x8",
      "blockHash": "0x66a7a41ead6d6b2ca49897908a5c55353e4be9f722bafd285fff28dcd76dd96e",
      "blockNumber": "0xc8f2bb",
      "gasUsed": "0x7d61a",
      "effectiveGasPrice": "0xfd",
      "from": "0xcda2fdb452ff4f5d7ba1c3d5dfcc9cb926a5eb7d",
      "to": "0xa0b1eae720bf65593534f4fc5e374af3b5ac2137",
      "contractAddress": null,
      "l1BaseFeeScalar": "0x186a0",
      "l1BlobBaseFee": "0x6574a002c",
      "l1BlobBaseFeeScalar": "0x95506",
      "l1Fee": "0x1b5d8985788",
      "l1GasPrice": "0x500fc64f",
      "l1GasUsed": "0x640"
    }
  ],
  "libraries": [],
  "pending": [],
  "returns": {},
  "timestamp": 1739200689,
  "chain": 60808,
  "commit": "c03c0fa"
}