{
  "transactions": [
    {
      "hash": "0x480f1020bc237e22b475bfdb4c25c21fbd7d4885bfa2682a546eb65780f33d1c",
      "transactionType": "CREATE",
      "contractName": "Rescue",
      "contractAddress": "0xf869f27b55c55fce5c512d46652182906b6852f5",
      "function": null,
      "arguments": null,
      "transaction": {
        "from": "0xcda2fdb452ff4f5d7ba1c3d5dfcc9cb926a5eb7d",
        "gas": "0x52471",
        "value": "0x0",
        "input": "0x608060405234801561000f575f80fd5b50338061003557604051631e4fbdf760e01b81525f600482015260240160405180910390fd5b61003e81610044565b50610093565b5f80546001600160a01b038381166001600160a01b0319831681178455604051919092169283917f8be0079c531659141344cd1fd0a4f28419497f9722a3daafe3b4186f6b6457e09190a35050565b610341806100a05f395ff3fe608060405234801561000f575f80fd5b506004361061004a575f3560e01c806347d1cd491461004e578063715018a6146100635780638da5cb5b1461006b578063f2fde38b14610089575b5f80fd5b61006161005c366004610275565b61009c565b005b61006161018a565b5f54604080516001600160a01b039092168252519081900360200190f35b6100616100973660046102b5565b61019d565b6040516370a0823160e01b81526001600160a01b0383811660048301525f91908316906370a0823190602401602060405180830381865afa1580156100e3573d5f803e3d5ffd5b505050506040513d601f19601f8201168201806040525081019061010791906102d5565b6040516323b872dd60e01b81526001600160a01b038581166004830152868116602483015260448201839052919250908316906323b872dd906064016020604051808303815f875af115801561015f573d5f803e3d5ffd5b505050506040513d601f19601f8201168201806040525081019061018391906102ec565b5050505050565b6101926101df565b61019b5f61020b565b565b6101a56101df565b6001600160a01b0381166101d357604051631e4fbdf760e01b81525f60048201526024015b60405180910390fd5b6101dc8161020b565b50565b5f546001600160a01b0316331461019b5760405163118cdaa760e01b81523360048201526024016101ca565b5f80546001600160a01b038381166001600160a01b0319831681178455604051919092169283917f8be0079c531659141344cd1fd0a4f28419497f9722a3daafe3b4186f6b6457e09190a35050565b80356001600160a01b0381168114610270575f80fd5b919050565b5f805f60608486031215610287575f80fd5b6102908461025a565b925061029e6020850161025a565b91506102ac6040850161025a565b90509250925092565b5f602082840312156102c5575f80fd5b6102ce8261025a565b9392505050565b5f602082840312156102e5575f80fd5b5051919050565b5f602082840312156102fc575f80fd5b815180151581146102ce575f80fdfea264697066735822122066661b9e70f02148872be7654cbadcb1d810c31b1dfe6b621c1d2a0075c5009564736f6c63430008140033",
        "nonce": "0x22ab",
        "chainId": "0xed88"
      },
      "additionalContracts": [],
      "isFixedGasLimit": false
    },
    {
      "hash": "0x542f5c579a25c463924756436c01390e1b81cdd978614b3f0b6a3862122b3f51",
      "transactionType": "CALL",
      "contractName": null,
      "contractAddress": "0x0932f0e427d7cf8709bbf3ce2f3b42d1fa538439",
      "function": "execute(address,bytes)",
      "arguments": [
        "0x03C7054BCB39f7b2e5B2c7AcB37583e32D70Cfa3",
        "0x095ea7b3000000000000000000000000f869f27b55c55fce5c512d46652182906b6852f5ffffffffffffffffffffffffffffffffffffffffffffffffffffffffffffffff"
      ],
      "transaction": {
        "from": "0xcda2fdb452ff4f5d7ba1c3d5dfcc9cb926a5eb7d",
        "to": "0x0932f0e427d7cf8709bbf3ce2f3b42d1fa538439",
        "gas": "0x120b8",
        "value": "0x0",
        "input": "0x1cff79cd00000000000000000000000003c7054bcb39f7b2e5b2c7acb37583e32d70cfa300000000000000000000000000000000000000000000000000000000000000400000000000000000000000000000000000000000000000000000000000000044095ea7b3000000000000000000000000f869f27b55c55fce5c512d46652182906b6852f5ffffffffffffffffffffffffffffffffffffffffffffffffffffffffffffffff00000000000000000000000000000000000000000000000000000000",
        "nonce": "0x22ac",
        "chainId": "0xed88"
      },
      "additionalContracts": [],
      "isFixedGasLimit": false
    },
    {
      "hash": "0x3fe12c49a405e1ce9c01ea105764e2a70cd0f02333b5cd46dd67c899c3607853",
      "transactionType": "CALL",
      "contractName": "Rescue",
      "contractAddress": "0xf869f27b55c55fce5c512d46652182906b6852f5",
      "function": "rescue(address,address,address)",
      "arguments": [
        "0xcdA2fDB452FF4F5D7Ba1C3d5dFCc9CB926A5eb7D",
        "0x0932F0E427D7CF8709Bbf3CE2F3B42D1Fa538439",
        "0x03C7054BCB39f7b2e5B2c7AcB37583e32D70Cfa3"
      ],
      "transaction": {
        "from": "0xcda2fdb452ff4f5d7ba1c3d5dfcc9cb926a5eb7d",
        "to": "0xf869f27b55c55fce5c512d46652182906b6852f5",
        "gas": "0x12358",
        "value": "0x0",
        "input": "0x47d1cd49000000000000000000000000cda2fdb452ff4f5d7ba1c3d5dfcc9cb926a5eb7d0000000000000000000000000932f0e427d7cf8709bbf3ce2f3b42d1fa53843900000000000000000000000003c7054bcb39f7b2e5b2c7acb37583e32d70cfa3",
        "nonce": "0x22ad",
        "chainId": "0xed88"
      },
      "additionalContracts": [],
      "isFixedGasLimit": false
    },
    {
      "hash": "0x70984d79044902006521bc68681fd0b92acd1239590fef15b6b38c4782dcd054",
      "transactionType": "CALL",
      "contractName": null,
      "contractAddress": "0x0932f0e427d7cf8709bbf3ce2f3b42d1fa538439",
      "function": "execute(address,bytes)",
      "arguments": [
        "0x4200000000000000000000000000000000000006",
        "0x095ea7b3000000000000000000000000f869f27b55c55fce5c512d46652182906b6852f5ffffffffffffffffffffffffffffffffffffffffffffffffffffffffffffffff"
      ],
      "transaction": {
        "from": "0xcda2fdb452ff4f5d7ba1c3d5dfcc9cb926a5eb7d",
        "to": "0x0932f0e427d7cf8709bbf3ce2f3b42d1fa538439",
        "gas": "0x11e69",
        "value": "0x0",
        "input": "0x1cff79cd000000000000000000000000420000000000000000000000000000000000000600000000000000000000000000000000000000000000000000000000000000400000000000000000000000000000000000000000000000000000000000000044095ea7b3000000000000000000000000f869f27b55c55fce5c512d46652182906b6852f5ffffffffffffffffffffffffffffffffffffffffffffffffffffffffffffffff00000000000000000000000000000000000000000000000000000000",
        "nonce": "0x22ae",
        "chainId": "0xed88"
      },
      "additionalContracts": [],
      "isFixedGasLimit": false
    },
    {
      "hash": "0x5d003103348ec53f746382f7d33786b5be38cbfb9d81dd0473bc72def721802f",
      "transactionType": "CALL",
      "contractName": "Rescue",
      "contractAddress": "0xf869f27b55c55fce5c512d46652182906b6852f5",
      "function": "rescue(address,address,address)",
      "arguments": [
        "0xcdA2fDB452FF4F5D7Ba1C3d5dFCc9CB926A5eb7D",
        "0x0932F0E427D7CF8709Bbf3CE2F3B42D1Fa538439",
        "0x4200000000000000000000000000000000000006"
      ],
      "transaction": {
        "from": "0xcda2fdb452ff4f5d7ba1c3d5dfcc9cb926a5eb7d",
        "to": "0xf869f27b55c55fce5c512d46652182906b6852f5",
        "gas": "0x1201b",
        "value": "0x0",
        "input": "0x47d1cd49000000000000000000000000cda2fdb452ff4f5d7ba1c3d5dfcc9cb926a5eb7d0000000000000000000000000932f0e427d7cf8709bbf3ce2f3b42d1fa5384390000000000000000000000004200000000000000000000000000000000000006",
        "nonce": "0x22af",
        "chainId": "0xed88"
      },
      "additionalContracts": [],
      "isFixedGasLimit": false
    }
  ],
  "receipts": [
    {
      "status": "0x1",
      "cumulativeGasUsed": "0x4a015",
      "logs": [
        {
          "address": "0xf869f27b55c55fce5c512d46652182906b6852f5",
          "topics": [
            "0x8be0079c531659141344cd1fd0a4f28419497f9722a3daafe3b4186f6b6457e0",
            "0x0000000000000000000000000000000000000000000000000000000000000000",
            "0x000000000000000000000000cda2fdb452ff4f5d7ba1c3d5dfcc9cb926a5eb7d"
          ],
          "data": "0x",
          "blockHash": "0xfbd7752e12df43197ee65edee41209dc4615bf8e4cc54408652128d8b5ce4ba9",
          "blockNumber": "0xc8e450",
          "transactionHash": "0x480f1020bc237e22b475bfdb4c25c21fbd7d4885bfa2682a546eb65780f33d1c",
          "transactionIndex": "0x1",
          "logIndex": "0x0",
          "removed": false
        }
      ],
      "logsBloom": "0x00000000000000000000000000000000000000000000000000800000000000000000000000000000000000000000000000000000000000000000000000000000000000000000000000000000040000000001000000000000000000000000000000000000020000000000000000000800000000000000800000000000000000400000800000000000000000000000000000000000000000000000000000000000000000000000000000000000000000000000000000004000000000000000020000000000000000000000000000000000000000000000000000000000000020000000000000000000000000000002000000000000000000000000000000000000",
      "type": "0x2",
      "transactionHash": "0x480f1020bc237e22b475bfdb4c25c21fbd7d4885bfa2682a546eb65780f33d1c",
      "transactionIndex": "0x1",
      "blockHash": "0xfbd7752e12df43197ee65edee41209dc4615bf8e4cc54408652128d8b5ce4ba9",
      "blockNumber": "0xc8e450",
      "gasUsed": "0x3f4a6",
      "effectiveGasPrice": "0xfd",
      "from": "0xcda2fdb452ff4f5d7ba1c3d5dfcc9cb926a5eb7d",
      "to": null,
      "contractAddress": "0xf869f27b55c55fce5c512d46652182906b6852f5",
      "l1BaseFeeScalar": "0x186a0",
      "l1BlobBaseFee": "0x44831ac79",
      "l1BlobBaseFeeScalar": "0x95506",
      "l1Fee": "0x763775cd48b",
      "l1GasPrice": "0x3a38838d",
      "l1GasUsed": "0x27a2"
    },
    {
      "status": "0x1",
      "cumulativeGasUsed": "0x5711d",
      "logs": [
        {
          "address": "0x03c7054bcb39f7b2e5b2c7acb37583e32d70cfa3",
          "topics": [
            "0x8c5be1e5ebec7d5bd14f71427d1e84f3dd0314c0f7b2291e5b200ac8c7c3b925",
            "0x0000000000000000000000000932f0e427d7cf8709bbf3ce2f3b42d1fa538439",
            "0x000000000000000000000000f869f27b55c55fce5c512d46652182906b6852f5"
          ],
          "data": "0xffffffffffffffffffffffffffffffffffffffffffffffffffffffffffffffff",
          "blockHash": "0xfbd7752e12df43197ee65edee41209dc4615bf8e4cc54408652128d8b5ce4ba9",
          "blockNumber": "0xc8e450",
          "transactionHash": "0x542f5c579a25c463924756436c01390e1b81cdd978614b3f0b6a3862122b3f51",
          "transactionIndex": "0x2",
          "logIndex": "0x1",
          "removed": false
        }
      ],
      "logsBloom": "0x02000000000000000000000200000100000000000000000000000000000000000000000000000000000000000000000000000000000000020000000000200000000000000000000000000000000000000000000000000000000000010000000000000000000000000000000000000000000000000000000000000000000000000000000400000000000000000000000000000000000000000000400000000000020000000000000000000000000000000000200000000000000000000000000000000000000000000000000000000000002000000000000000000000000000000010000000000000000000000000000000000000000000000000000000000000",
      "type": "0x2",
      "transactionHash": "0x542f5c579a25c463924756436c01390e1b81cdd978614b3f0b6a3862122b3f51",
      "transactionIndex": "0x2",
      "blockHash": "0xfbd7752e12df43197ee65edee41209dc4615bf8e4cc54408652128d8b5ce4ba9",
      "blockNumber": "0xc8e450",
      "gasUsed": "0xd108",
      "effectiveGasPrice": "0xfd",
      "from": "0xcda2fdb452ff4f5d7ba1c3d5dfcc9cb926a5eb7d",
      "to": "0x0932f0e427d7cf8709bbf3ce2f3b42d1fa538439",
      "contractAddress": null,
      "l1BaseFeeScalar": "0x186a0",
      "l1BlobBaseFee": "0x44831ac79",
      "l1BlobBaseFeeScalar": "0x95506",
      "l1Fee": "0x16eff47429d",
      "l1GasPrice": "0x3a38838d",
      "l1GasUsed": "0x7b0"
    },
    {
      "status": "0x1",
      "cumulativeGasUsed": "0x6440c",
      "logs": [
        {
          "address": "0x03c7054bcb39f7b2e5b2c7acb37583e32d70cfa3",
          "topics": [
            "0xddf252ad1be2c89b69c2b068fc378daa952ba7f163c4a11628f55a4df523b3ef",
            "0x0000000000000000000000000932f0e427d7cf8709bbf3ce2f3b42d1fa538439",
            "0x000000000000000000000000cda2fdb452ff4f5d7ba1c3d5dfcc9cb926a5eb7d"
          ],
          "data": "0x000000000000000000000000000000000000000000000000000000000000ce98",
          "blockHash": "0xfbd7752e12df43197ee65edee41209dc4615bf8e4cc54408652128d8b5ce4ba9",
          "blockNumber": "0xc8e450",
          "transactionHash": "0x3fe12c49a405e1ce9c01ea105764e2a70cd0f02333b5cd46dd67c899c3607853",
          "transactionIndex": "0x3",
          "logIndex": "0x2",
          "removed": false
        }
      ],
      "logsBloom": "0x00000000000000000000000200000100000000000000000000000000000000000000000000000000000000000000000000000000000000020000000000000000000000000000000000000008040000000000000000000000000000010000000000000000000000000000000000000000000000000000800000000010000000000000000000000000000000000000000000000000000000000000400000000000000000000000000000000000000000000000000000004000000000000000000000000002000000000000000000000000002000000000000000000000000000000000000000000000000000000000000000000000000000000000000000000000",
      "type": "0x2",
      "transactionHash": "0x3fe12c49a405e1ce9c01ea105764e2a70cd0f02333b5cd46dd67c899c3607853",
      "transactionIndex": "0x3",
      "blockHash": "0xfbd7752e12df43197ee65edee41209dc4615bf8e4cc54408652128d8b5ce4ba9",
      "blockNumber": "0xc8e450",
      "gasUsed": "0xd2ef",
      "effectiveGasPrice": "0xfd",
      "from": "0xcda2fdb452ff4f5d7ba1c3d5dfcc9cb926a5eb7d",
      "to": "0xf869f27b55c55fce5c512d46652182906b6852f5",
      "contractAddress": null,
      "l1BaseFeeScalar": "0x186a0",
      "l1BlobBaseFee": "0x44831ac79",
      "l1BlobBaseFeeScalar": "0x95506",
      "l1Fee": "0x16285a0bf1d",
      "l1GasPrice": "0x3a38838d",
      "l1GasUsed": "0x76d"
    },
    {
      "status": "0x1",
      "cumulativeGasUsed": "0x71368",
      "logs": [
        {
          "address": "0x4200000000000000000000000000000000000006",
          "topics": [
            "0x8c5be1e5ebec7d5bd14f71427d1e84f3dd0314c0f7b2291e5b200ac8c7c3b925",
            "0x0000000000000000000000000932f0e427d7cf8709bbf3ce2f3b42d1fa538439",
            "0x000000000000000000000000f869f27b55c55fce5c512d46652182906b6852f5"
          ],
          "data": "0xffffffffffffffffffffffffffffffffffffffffffffffffffffffffffffffff",
          "blockHash": "0xfbd7752e12df43197ee65edee41209dc4615bf8e4cc54408652128d8b5ce4ba9",
          "blockNumber": "0xc8e450",
          "transactionHash": "0x70984d79044902006521bc68681fd0b92acd1239590fef15b6b38c4782dcd054",
          "transactionIndex": "0x4",
          "logIndex": "0x3",
          "removed": false
        }
      ],
      "logsBloom": "0x02000000000000000000000200000000000000000000000000040000000000000000000000000000000000100000000000000000000000020000000000200000000000000000000000000000000000000000000000000000000000010000000000000000000000000000000000000000000000000000000000000000000000000000000400000000000000000000000000000000002000000000000000000000020000000000000000000000000000000000200000000000000000000000000000000000000000000000000000000000000000000000000000000000000000000010000000000000000000000000000000000000000000000000000000000000",
      "type": "0x2",
      "transactionHash": "0x70984d79044902006521bc68681fd0b92acd1239590fef15b6b38c4782dcd054",
      "transactionIndex": "0x4",
      "blockHash": "0xfbd7752e12df43197ee65edee41209dc4615bf8e4cc54408652128d8b5ce4ba9",
      "blockNumber": "0xc8e450",
      "gasUsed": "0xcf5c",
      "effectiveGasPrice": "0xfd",
      "from": "0xcda2fdb452ff4f5d7ba1c3d5dfcc9cb926a5eb7d",
      "to": "0x0932f0e427d7cf8709bbf3ce2f3b42d1fa538439",
      "contractAddress": null,
      "l1BaseFeeScalar": "0x186a0",
      "l1BlobBaseFee": "0x44831ac79",
      "l1BlobBaseFeeScalar": "0x95506",
      "l1Fee": "0x14c110e9f37",
      "l1GasPrice": "0x3a38838d",
      "l1GasUsed": "0x6f5"
    },
    {
      "status": "0x1",
      "cumulativeGasUsed": "0x7e3fe",
      "logs": [
        {
          "address": "0x4200000000000000000000000000000000000006",
          "topics": [
            "0xddf252ad1be2c89b69c2b068fc378daa952ba7f163c4a11628f55a4df523b3ef",
            "0x0000000000000000000000000932f0e427d7cf8709bbf3ce2f3b42d1fa538439",
            "0x000000000000000000000000cda2fdb452ff4f5d7ba1c3d5dfcc9cb926a5eb7d"
          ],
          "data": "0x00000000000000000000000000000000000000000000000000440103ce8b4efb",
          "blockHash": "0xfbd7752e12df43197ee65edee41209dc4615bf8e4cc54408652128d8b5ce4ba9",
          "blockNumber": "0xc8e450",
          "transactionHash": "0x5d003103348ec53f746382f7d33786b5be38cbfb9d81dd0473bc72def721802f",
          "transactionIndex": "0x5",
          "logIndex": "0x4",
          "removed": false
        }
      ],
      "logsBloom": "0x00000000000000000000000200000000000000000000000000040000000000000000000000000000000000100000000000000000000000020000000000000000000000000000000000000008040000000000000000000000000000010000000000000000000000000000000000000000000000000000800000000010000000000000000000000000000000000000000000000000002000000000000000000000000000000000000000000000000000000000000000004000000000000000000000000002000000000000000000000000000000000000000000000000000000000000000000000000000000000000000000000000000000000000000000000000",
      "type": "0x2",
      "transactionHash": "0x5d003103348ec53f746382f7d33786b5be38cbfb9d81dd0473bc72def721802f",
      "transactionIndex": "0x5",
      "blockHash": "0xfbd7752e12df43197ee65edee41209dc4615bf8e4cc54408652128d8b5ce4ba9",
      "blockNumber": "0xc8e450",
      "gasUsed": "0xd096",
      "effectiveGasPrice": "0xfd",
      "from": "0xcda2fdb452ff4f5d7ba1c3d5dfcc9cb926a5eb7d",
      "to": "0xf869f27b55c55fce5c512d46652182906b6852f5",
      "contractAddress": null,
      "l1BaseFeeScalar": "0x186a0",
      "l1BlobBaseFee": "0x44831ac79",
      "l1BlobBaseFeeScalar": "0x95506",
      "l1Fee": "0x1471398d104",
      "l1GasPrice": "0x3a38838d",
      "l1GasUsed": "0x6da"
    }
  ],
  "libraries": [],
  "pending": [],
  "returns": {},
  "timestamp": 1739193307,
  "chain": 60808,
  "commit": "c03c0fa"
}