{
  "transactions": [
    {
      "hash": "0x045dbabb2a75b449c2c2610d6f382e7171c4e6edaf2451bd29ce9f183e5ea70a",
      "transactionType": "CALL",
      "contractName": null,
      "contractAddress": "0xf9bcffb46e008ff75006a7c906976bdc6d89615d",
      "function": "setFee(uint256)",
      "arguments": [
        "100"
      ],
      "transaction": {
        "from": "0xcda2fdb452ff4f5d7ba1c3d5dfcc9cb926a5eb7d",
        "to": "0xf9bcffb46e008ff75006a7c906976bdc6d89615d",
        "gas": "0x9b10",
        "value": "0x0",
        "input": "0x69fe0e2d0000000000000000000000000000000000000000000000000000000000000064",
        "nonce": "0x2c69",
        "chainId": "0xed88"
      },
      "additionalContracts": [],
      "isFixedGasLimit": false
    },
    {
      "hash": "0x316c0b1a745e362fb1b3878bf16810cf512cf7f2918da12f0775f3178aabc45e",
      "transactionType": "CALL",
      "contractName": null,
      "contractAddress": "0xf9bcffb46e008ff75006a7c906976bdc6d89615d",
      "function": "setSlippage(uint256)",
      "arguments": [
        "10"
      ],
      "transaction": {
        "from": "0xcda2fdb452ff4f5d7ba1c3d5dfcc9cb926a5eb7d",
        "to": "0xf9bcffb46e008ff75006a7c906976bdc6d89615d",
        "gas": "0x9af0",
        "value": "0x0",
        "input": "0xf0fa55a9000000000000000000000000000000000000000000000000000000000000000a",
        "nonce": "0x2c6a",
        "chainId": "0xed88"
      },
      "additionalContracts": [],
      "isFixedGasLimit": false
    }
  ],
  "receipts": [
    {
      "status": "0x1",
      "cumulativeGasUsed": "0x11bbf",
      "logs": [],
      "logsBloom": "0x00000000000000000000000000000000000000000000000000000000000000000000000000000000000000000000000000000000000000000000000000000000000000000000000000000000000000000000000000000000000000000000000000000000000000000000000000000000000000000000000000000000000000000000000000000000000000000000000000000000000000000000000000000000000000000000000000000000000000000000000000000000000000000000000000000000000000000000000000000000000000000000000000000000000000000000000000000000000000000000000000000000000000000000000000000000",
      "type": "0x2",
      "transactionHash": "0x045dbabb2a75b449c2c2610d6f382e7171c4e6edaf2451bd29ce9f183e5ea70a",
      "transactionIndex": "0x1",
      "blockHash": "0x62b95aa243c65b4b34dfe0436043533218856660c4b7910d0e40bc474689fe41",
      "blockNumber": "0xdb8bec",
      "gasUsed": "0x7044",
      "effectiveGasPrice": "0xf433c",
      "from": "0xcda2fdb452ff4f5d7ba1c3d5dfcc9cb926a5eb7d",
      "to": "0xf9bcffb46e008ff75006a7c906976bdc6d89615d",
      "contractAddress": null,
      "l1BaseFeeScalar": "0x186a0",
      "l1BlobBaseFee": "0xed15d41e",
      "l1BlobBaseFeeScalar": "0x95506",
      "l1Fee": "0x10ec738fdbf",
      "l1GasPrice": "0x1569eeb68",
      "l1GasUsed": "0x640"
    },
    {
      "status": "0x1",
      "cumulativeGasUsed": "0x18bec",
      "logs": [],
      "logsBloom": "0x00000000000000000000000000000000000000000000000000000000000000000000000000000000000000000000000000000000000000000000000000000000000000000000000000000000000000000000000000000000000000000000000000000000000000000000000000000000000000000000000000000000000000000000000000000000000000000000000000000000000000000000000000000000000000000000000000000000000000000000000000000000000000000000000000000000000000000000000000000000000000000000000000000000000000000000000000000000000000000000000000000000000000000000000000000000",
      "type": "0x2",
      "transactionHash": "0x316c0b1a745e362fb1b3878bf16810cf512cf7f2918da12f0775f3178aabc45e",
      "transactionIndex": "0x2",
      "blockHash": "0x62b95aa243c65b4b34dfe0436043533218856660c4b7910d0e40bc474689fe41",
      "blockNumber": "0xdb8bec",
      "gasUsed": "0x702d",
      "effectiveGasPrice": "0xf433c",
      "from": "0xcda2fdb452ff4f5d7ba1c3d5dfcc9cb926a5eb7d",
      "to": "0xf9bcffb46e008ff75006a7c906976bdc6d89615d",
      "contractAddress": null,
      "l1BaseFeeScalar": "0x186a0",
      "l1BlobBaseFee": "0xed15d41e",
      "l1BlobBaseFeeScalar": "0x95506",
      "l1Fee": "0x10ec738fdbf",
      "l1GasPrice": "0x1569eeb68",
      "l1GasUsed": "0x640"
    }
  ],
  "libraries": [],
  "pending": [],
  "returns": {},
  "timestamp": 1741638401,
  "chain": 60808,
  "commit": "76f5463"
}