{
  "transactions": [
    {
      "hash": "0x5d5b93eb2606362ca7440b2290efffc6e603670cfacd73a45676ae4f80fbfde7",
      "transactionType": "CREATE",
      "contractName": "Rescue",
      "contractAddress": "0x5f6c7115e66b4b436376c99b05f6ca34607b8a34",
      "function": null,
      "arguments": null,
      "transaction": {
        "from": "0xcda2fdb452ff4f5d7ba1c3d5dfcc9cb926a5eb7d",
        "gas": "0x52471",
        "value": "0x0",
        "input": "0x608060405234801561000f575f80fd5b50338061003557604051631e4fbdf760e01b81525f600482015260240160405180910390fd5b61003e81610044565b50610093565b5f80546001600160a01b038381166001600160a01b0319831681178455604051919092169283917f8be0079c531659141344cd1fd0a4f28419497f9722a3daafe3b4186f6b6457e09190a35050565b610341806100a05f395ff3fe608060405234801561000f575f80fd5b506004361061004a575f3560e01c806347d1cd491461004e578063715018a6146100635780638da5cb5b1461006b578063f2fde38b14610089575b5f80fd5b61006161005c366004610275565b61009c565b005b61006161018a565b5f54604080516001600160a01b039092168252519081900360200190f35b6100616100973660046102b5565b61019d565b6040516370a0823160e01b81526001600160a01b0383811660048301525f91908316906370a0823190602401602060405180830381865afa1580156100e3573d5f803e3d5ffd5b505050506040513d601f19601f8201168201806040525081019061010791906102d5565b6040516323b872dd60e01b81526001600160a01b038581166004830152868116602483015260448201839052919250908316906323b872dd906064016020604051808303815f875af115801561015f573d5f803e3d5ffd5b505050506040513d601f19601f8201168201806040525081019061018391906102ec565b5050505050565b6101926101df565b61019b5f61020b565b565b6101a56101df565b6001600160a01b0381166101d357604051631e4fbdf760e01b81525f60048201526024015b60405180910390fd5b6101dc8161020b565b50565b5f546001600160a01b0316331461019b5760405163118cdaa760e01b81523360048201526024016101ca565b5f80546001600160a01b038381166001600160a01b0319831681178455604051919092169283917f8be0079c531659141344cd1fd0a4f28419497f9722a3daafe3b4186f6b6457e09190a35050565b80356001600160a01b0381168114610270575f80fd5b919050565b5f805f60608486031215610287575f80fd5b6102908461025a565b925061029e6020850161025a565b91506102ac6040850161025a565b90509250925092565b5f602082840312156102c5575f80fd5b6102ce8261025a565b9392505050565b5f602082840312156102e5575f80fd5b5051919050565b5f602082840312156102fc575f80fd5b815180151581146102ce575f80fdfea264697066735822122066661b9e70f02148872be7654cbadcb1d810c31b1dfe6b621c1d2a0075c5009564736f6c63430008140033",
        "nonce": "0x2c4b",
        "chainId": "0xed88"
      },
      "additionalContracts": [],
      "isFixedGasLimit": false
    },
    {
      "hash": "0xecbe5504001396f46132b15a5d3fa0509defdf0dd336b86c2976e47ab9eb035f",
      "transactionType": "CALL",
      "contractName": null,
      "contractAddress": "0x79674078ad361d75ee04c73bccb5bbea4c55c618",
      "function": "execute(address,bytes)",
      "arguments": [
        "0x03C7054BCB39f7b2e5B2c7AcB37583e32D70Cfa3",
        "0x095ea7b30000000000000000000000005f6c7115e66b4b436376c99b05f6ca34607b8a34ffffffffffffffffffffffffffffffffffffffffffffffffffffffffffffffff"
      ],
      "transaction": {
        "from": "0xcda2fdb452ff4f5d7ba1c3d5dfcc9cb926a5eb7d",
        "to": "0x79674078ad361d75ee04c73bccb5bbea4c55c618",
        "gas": "0x13194",
        "value": "0x0",
        "input": "0x1cff79cd00000000000000000000000003c7054bcb39f7b2e5b2c7acb37583e32d70cfa300000000000000000000000000000000000000000000000000000000000000400000000000000000000000000000000000000000000000000000000000000044095ea7b30000000000000000000000005f6c7115e66b4b436376c99b05f6ca34607b8a34ffffffffffffffffffffffffffffffffffffffffffffffffffffffffffffffff00000000000000000000000000000000000000000000000000000000",
        "nonce": "0x2c4c",
        "chainId": "0xed88"
      },
      "additionalContracts": [],
      "isFixedGasLimit": false
    },
    {
      "hash": "0xf38459d86bc8a1b422f4fd8c268b3857d7b9284fb955b7a2d7c01d1a8b9b7cd8",
      "transactionType": "CALL",
      "contractName": "Rescue",
      "contractAddress": "0x5f6c7115e66b4b436376c99b05f6ca34607b8a34",
      "function": "rescue(address,address,address)",
      "arguments": [
        "0xcdA2fDB452FF4F5D7Ba1C3d5dFCc9CB926A5eb7D",
        "0x79674078Ad361D75eE04C73BCCB5BBeA4c55c618",
        "0x03C7054BCB39f7b2e5B2c7AcB37583e32D70Cfa3"
      ],
      "transaction": {
        "from": "0xcda2fdb452ff4f5d7ba1c3d5dfcc9cb926a5eb7d",
        "to": "0x5f6c7115e66b4b436376c99b05f6ca34607b8a34",
        "gas": "0x12358",
        "value": "0x0",
        "input": "0x47d1cd49000000000000000000000000cda2fdb452ff4f5d7ba1c3d5dfcc9cb926a5eb7d00000000000000000000000079674078ad361d75ee04c73bccb5bbea4c55c61800000000000000000000000003c7054bcb39f7b2e5b2c7acb37583e32d70cfa3",
        "nonce": "0x2c4d",
        "chainId": "0xed88"
      },
      "additionalContracts": [],
      "isFixedGasLimit": false
    },
    {
      "hash": "0x9616470c794a6c3960dd6d7721d90021038cd0393921bad550aceb27ce68940a",
      "transactionType": "CALL",
      "contractName": null,
      "contractAddress": "0x79674078ad361d75ee04c73bccb5bbea4c55c618",
      "function": "execute(address,bytes)",
      "arguments": [
        "0x4200000000000000000000000000000000000006",
        "0x095ea7b30000000000000000000000005f6c7115e66b4b436376c99b05f6ca34607b8a34ffffffffffffffffffffffffffffffffffffffffffffffffffffffffffffffff"
      ],
      "transaction": {
        "from": "0xcda2fdb452ff4f5d7ba1c3d5dfcc9cb926a5eb7d",
        "to": "0x79674078ad361d75ee04c73bccb5bbea4c55c618",
        "gas": "0x11e4b",
        "value": "0x0",
        "input": "0x1cff79cd000000000000000000000000420000000000000000000000000000000000000600000000000000000000000000000000000000000000000000000000000000400000000000000000000000000000000000000000000000000000000000000044095ea7b30000000000000000000000005f6c7115e66b4b436376c99b05f6ca34607b8a34ffffffffffffffffffffffffffffffffffffffffffffffffffffffffffffffff00000000000000000000000000000000000000000000000000000000",
        "nonce": "0x2c4e",
        "chainId": "0xed88"
      },
      "additionalContracts": [],
      "isFixedGasLimit": false
    },
    {
      "hash": "0xdd35ea0dbab37e2bba7d807b9dbf04dbb181357c03d9ff035e77c11e167343c8",
      "transactionType": "CALL",
      "contractName": "Rescue",
      "contractAddress": "0x5f6c7115e66b4b436376c99b05f6ca34607b8a34",
      "function": "rescue(address,address,address)",
      "arguments": [
        "0xcdA2fDB452FF4F5D7Ba1C3d5dFCc9CB926A5eb7D",
        "0x79674078Ad361D75eE04C73BCCB5BBeA4c55c618",
        "0x4200000000000000000000000000000000000006"
      ],
      "transaction": {
        "from": "0xcda2fdb452ff4f5d7ba1c3d5dfcc9cb926a5eb7d",
        "to": "0x5f6c7115e66b4b436376c99b05f6ca34607b8a34",
        "gas": "0xcf5d",
        "value": "0x0",
        "input": "0x47d1cd49000000000000000000000000cda2fdb452ff4f5d7ba1c3d5dfcc9cb926a5eb7d00000000000000000000000079674078ad361d75ee04c73bccb5bbea4c55c6180000000000000000000000004200000000000000000000000000000000000006",
        "nonce": "0x2c4f",
        "chainId": "0xed88"
      },
      "additionalContracts": [],
      "isFixedGasLimit": false
    }
  ],
  "receipts": [
    {
      "status": "0x1",
      "cumulativeGasUsed": "0x5a684",
      "logs": [
        {
          "address": "0x5f6c7115e66b4b436376c99b05f6ca34607b8a34",
          "topics": [
            "0x8be0079c531659141344cd1fd0a4f28419497f9722a3daafe3b4186f6b6457e0",
            "0x0000000000000000000000000000000000000000000000000000000000000000",
            "0x000000000000000000000000cda2fdb452ff4f5d7ba1c3d5dfcc9cb926a5eb7d"
          ],
          "data": "0x",
          "blockHash": "0x8e03800d004a097efe16e2853a2e010ccdb430ea61f169d8cba932f17c326069",
          "blockNumber": "0xdb3a77",
          "transactionHash": "0x5d5b93eb2606362ca7440b2290efffc6e603670cfacd73a45676ae4f80fbfde7",
          "transactionIndex": "0x3",
          "logIndex": "0x1",
          "removed": false
        }
      ],
      "logsBloom": "0x00000000000000000000000000000000000000000000000000800000000000000000000000000000000000400000000000000000000000000000000000000000000000000000000000000000040000000001000000000000000000000000000000000000020000000000000000000800000000000000800000000000000000400000000000000000000000000000000000000000000000000000000000000000000000000000000000000000400000000000000000004000000000000000000000000000000000000000000000000000000001000000000000000000000020000000000000000000000000000000000000000000000000000000000000000000",
      "type": "0x2",
      "transactionHash": "0x5d5b93eb2606362ca7440b2290efffc6e603670cfacd73a45676ae4f80fbfde7",
      "transactionIndex": "0x3",
      "blockHash": "0x8e03800d004a097efe16e2853a2e010ccdb430ea61f169d8cba932f17c326069",
      "blockNumber": "0xdb3a77",
      "gasUsed": "0x3f4a6",
      "effectiveGasPrice": "0xfd",
      "from": "0xcda2fdb452ff4f5d7ba1c3d5dfcc9cb926a5eb7d",
      "to": null,
      "contractAddress": "0x5f6c7115e66b4b436376c99b05f6ca34607b8a34",
      "l1BaseFeeScalar": "0x186a0",
      "l1BlobBaseFee": "0x7e800aac",
      "l1BlobBaseFeeScalar": "0x95506",
      "l1Fee": "0x161081b572e",
      "l1GasPrice": "0x289a12db",
      "l1GasUsed": "0x27af"
    },
    {
      "status": "0x1",
      "cumulativeGasUsed": "0x67776",
      "logs": [
        {
          "address": "0x03c7054bcb39f7b2e5b2c7acb37583e32d70cfa3",
          "topics": [
            "0x8c5be1e5ebec7d5bd14f71427d1e84f3dd0314c0f7b2291e5b200ac8c7c3b925",
            "0x00000000000000000000000079674078ad361d75ee04c73bccb5bbea4c55c618",
            "0x0000000000000000000000005f6c7115e66b4b436376c99b05f6ca34607b8a34"
          ],
          "data": "0xffffffffffffffffffffffffffffffffffffffffffffffffffffffffffffffff",
          "blockHash": "0x8e03800d004a097efe16e2853a2e010ccdb430ea61f169d8cba932f17c326069",
          "blockNumber": "0xdb3a77",
          "transactionHash": "0xecbe5504001396f46132b15a5d3fa0509defdf0dd336b86c2976e47ab9eb035f",
          "transactionIndex": "0x4",
          "logIndex": "0x2",
          "removed": false
        }
      ],
      "logsBloom": "0x00000400000000000000000000000100000000000000000000000000000000000000000000000000000000000000000000000000000000000000000000200000000000000000000000000000000000000000000000000000000000000000000000000000000000000000000000000000000000000000000000000000000000000000000000000000000000000000000000000030000000000000400010000000020000040000000000000000000000000000000000000000000000000000000000000000000000000010000000000000002000000000000000000000000000000010000000000000000000000000000000000000000000000000000000000000",
      "type": "0x2",
      "transactionHash": "0xecbe5504001396f46132b15a5d3fa0509defdf0dd336b86c2976e47ab9eb035f",
      "transactionIndex": "0x4",
      "blockHash": "0x8e03800d004a097efe16e2853a2e010ccdb430ea61f169d8cba932f17c326069",
      "blockNumber": "0xdb3a77",
      "gasUsed": "0xd0f2",
      "effectiveGasPrice": "0xfd",
      "from": "0xcda2fdb452ff4f5d7ba1c3d5dfcc9cb926a5eb7d",
      "to": "0x79674078ad361d75ee04c73bccb5bbea4c55c618",
      "contractAddress": null,
      "l1BaseFeeScalar": "0x186a0",
      "l1BlobBaseFee": "0x7e800aac",
      "l1BlobBaseFeeScalar": "0x95506",
      "l1Fee": "0x44df711845",
      "l1GasPrice": "0x289a12db",
      "l1GasUsed": "0x7be"
    },
    {
      "status": "0x1",
      "cumulativeGasUsed": "0x74a65",
      "logs": [
        {
          "address": "0x03c7054bcb39f7b2e5b2c7acb37583e32d70cfa3",
          "topics": [
            "0xddf252ad1be2c89b69c2b068fc378daa952ba7f163c4a11628f55a4df523b3ef",
            "0x00000000000000000000000079674078ad361d75ee04c73bccb5bbea4c55c618",
            "0x000000000000000000000000cda2fdb452ff4f5d7ba1c3d5dfcc9cb926a5eb7d"
          ],
          "data": "0x00000000000000000000000000000000000000000000000000000000000647f1",
          "blockHash": "0x8e03800d004a097efe16e2853a2e010ccdb430ea61f169d8cba932f17c326069",
          "blockNumber": "0xdb3a77",
          "transactionHash": "0xf38459d86bc8a1b422f4fd8c268b3857d7b9284fb955b7a2d7c01d1a8b9b7cd8",
          "transactionIndex": "0x5",
          "logIndex": "0x3",
          "removed": false
        }
      ],
      "logsBloom": "0x00000400000000000000000000000100000000000000000000000000000000000000000000000000000000000000000000000000000000000000000000000000000000000000000000000008040000000000000000000000000000000000000000000000000000000000000000000000000000000000800000000010000000000000000000000000000000000000000000000000000000000000400010000000000000000000000000000000000000000000000000004000000000000000000000000002000000000010000000000000002000000000000000000000000000000000000000000000000000000000000000000000000000000000000000000000",
      "type": "0x2",
      "transactionHash": "0xf38459d86bc8a1b422f4fd8c268b3857d7b9284fb955b7a2d7c01d1a8b9b7cd8",
      "transactionIndex": "0x5",
      "blockHash": "0x8e03800d004a097efe16e2853a2e010ccdb430ea61f169d8cba932f17c326069",
      "blockNumber": "0xdb3a77",
      "gasUsed": "0xd2ef",
      "effectiveGasPrice": "0xfd",
      "from": "0xcda2fdb452ff4f5d7ba1c3d5dfcc9cb926a5eb7d",
      "to": "0x5f6c7115e66b4b436376c99b05f6ca34607b8a34",
      "contractAddress": null,
      "l1BaseFeeScalar": "0x186a0",
      "l1BlobBaseFee": "0x7e800aac",
      "l1BlobBaseFeeScalar": "0x95506",
      "l1Fee": "0x428c266114",
      "l1GasPrice": "0x289a12db",
      "l1GasUsed": "0x77b"
    },
    {
      "status": "0x1",
      "cumulativeGasUsed": "0x819ab",
      "logs": [
        {
          "address": "0x4200000000000000000000000000000000000006",
          "topics": [
            "0x8c5be1e5ebec7d5bd14f71427d1e84f3dd0314c0f7b2291e5b200ac8c7c3b925",
            "0x00000000000000000000000079674078ad361d75ee04c73bccb5bbea4c55c618",
            "0x0000000000000000000000005f6c7115e66b4b436376c99b05f6ca34607b8a34"
          ],
          "data": "0xffffffffffffffffffffffffffffffffffffffffffffffffffffffffffffffff",
          "blockHash": "0x8e03800d004a097efe16e2853a2e010ccdb430ea61f169d8cba932f17c326069",
          "blockNumber": "0xdb3a77",
          "transactionHash": "0x9616470c794a6c3960dd6d7721d90021038cd0393921bad550aceb27ce68940a",
          "transactionIndex": "0x6",
          "logIndex": "0x4",
          "removed": false
        }
      ],
      "logsBloom": "0x00000400000000000000000000000000000000000000000000040000000000000000000000000000000000100000000000000000000000000000000000200000000000000000000000000000000000000000000000000000000000000000000000000000000000000000000000000000000000000000000000000000000000000000000000000000000000000000000000000030002000000000000010000000020000040000000000000000000000000000000000000000000000000000000000000000000000000010000000000000000000000000000000000000000000000010000000000000000000000000000000000000000000000000000000000000",
      "type": "0x2",
      "transactionHash": "0x9616470c794a6c3960dd6d7721d90021038cd0393921bad550aceb27ce68940a",
      "transactionIndex": "0x6",
      "blockHash": "0x8e03800d004a097efe16e2853a2e010ccdb430ea61f169d8cba932f17c326069",
      "blockNumber": "0xdb3a77",
      "gasUsed": "0xcf46",
      "effectiveGasPrice": "0xfd",
      "from": "0xcda2fdb452ff4f5d7ba1c3d5dfcc9cb926a5eb7d",
      "to": "0x79674078ad361d75ee04c73bccb5bbea4c55c618",
      "contractAddress": null,
      "l1BaseFeeScalar": "0x186a0",
      "l1BlobBaseFee": "0x7e800aac",
      "l1BlobBaseFeeScalar": "0x95506",
      "l1Fee": "0x3e5c9fe421",
      "l1GasPrice": "0x289a12db",
      "l1GasUsed": "0x702"
    },
    {
      "status": "0x1",
      "cumulativeGasUsed": "0x8a775",
      "logs": [
        {
          "address": "0x4200000000000000000000000000000000000006",
          "topics": [
            "0xddf252ad1be2c89b69c2b068fc378daa952ba7f163c4a11628f55a4df523b3ef",
            "0x00000000000000000000000079674078ad361d75ee04c73bccb5bbea4c55c618",
            "0x000000000000000000000000cda2fdb452ff4f5d7ba1c3d5dfcc9cb926a5eb7d"
          ],
          "data": "0x00000000000000000000000000000000000000000000000002451ca4127a7632",
          "blockHash": "0x8e03800d004a097efe16e2853a2e010ccdb430ea61f169d8cba932f17c326069",
          "blockNumber": "0xdb3a77",
          "transactionHash": "0xdd35ea0dbab37e2bba7d807b9dbf04dbb181357c03d9ff035e77c11e167343c8",
          "transactionIndex": "0x7",
          "logIndex": "0x5",
          "removed": false
        }
      ],
      "logsBloom": "0x00000400000000000000000000000000000000000000000000040000000000000000000000000000000000100000000000000000000000000000000000000000000000000000000000000008040000000000000000000000000000000000000000000000000000000000000000000000000000000000800000000010000000000000000000000000000000000000000000000000002000000000000010000000000000000000000000000000000000000000000000004000000000000000000000000002000000000010000000000000000000000000000000000000000000000000000000000000000000000000000000000000000000000000000000000000",
      "type": "0x2",
      "transactionHash": "0xdd35ea0dbab37e2bba7d807b9dbf04dbb181357c03d9ff035e77c11e167343c8",
      "transactionIndex": "0x7",
      "blockHash": "0x8e03800d004a097efe16e2853a2e010ccdb430ea61f169d8cba932f17c326069",
      "blockNumber": "0xdb3a77",
      "gasUsed": "0x8dca",
      "effectiveGasPrice": "0xfd",
      "from": "0xcda2fdb452ff4f5d7ba1c3d5dfcc9cb926a5eb7d",
      "to": "0x5f6c7115e66b4b436376c99b05f6ca34607b8a34",
      "contractAddress": null,
      "l1BaseFeeScalar": "0x186a0",
      "l1BlobBaseFee": "0x7e800aac",
      "l1BlobBaseFeeScalar": "0x95506",
      "l1Fee": "0x3cf7730fd1",
      "l1GasPrice": "0x289a12db",
      "l1GasUsed": "0x6da"
    }
  ],
  "libraries": [],
  "pending": [],
  "returns": {},
  "timestamp": 1741596697,
  "chain": 60808,
  "commit": "c03c0fa"
}