{
  "transactions": [
    {
      "hash": "0x8788492c6df346934394df7597005ea1f99fbe9686779af7faa7877ad0faee08",
      "transactionType": "CREATE",
      "contractName": "BethVault",
      "contractAddress": "0x5b83f73357d81f4ae9e08094a0a4469bc77a7d42",
      "function": null,
      "arguments": [
        "[0x03C7054BCB39f7b2e5B2c7AcB37583e32D70Cfa3, 0x4200000000000000000000000000000000000006]",
        "[0x041a131Fa91Ad61dD85262A42c04975986580d50, 0x5b0cf2b36a65a6BB085D501B971e4c102B9Cd473]",
        "[8, 18]",
        "[3000, 3000]",
        "0x05D032ac25d322df992303dCa074EE7392C117b9",
        "0x807F4E281B7A3B324825C64ca53c69F0b418dE40",
        "0x6Aa54a43d7eEF5b239a18eed3Af4877f46522BCA",
        "0xcb2436774C3e191c85056d248EF4260ce5f27A9D",
        "BTC-ETH",
        "BETH"
      ],
      "transaction": {
        "from": "0xcda2fdb452ff4f5d7ba1c3d5dfcc9cb926a5eb7d",
        "gas": "0x405b1e",
        "value": "0x0",
        "input": "0x60806040526002600955600f805460ff60a01b1916905534801562000022575f80fd5b50604051620039f6380380620039f68339810160408190526200004591620005fb565b338a8a8a8a8a8a8a8a8a8a60036200005e8382620007d0565b5060046200006d8282620007d0565b5050885162000085915060059060208b0190620001c5565b5086516200009b9060079060208a0190620001c5565b50600880546001600160a01b0319166001600160a01b0386161790558551620000cc9060069060208901906200022d565b50600c80546001600160a01b038086166001600160a01b031992831617909255600d8054858416908316179055600e80549284169290911691909117905584516200011f90600b906020880190620002d0565b5050506001600160a01b03871695506200015894505050505057604051631e4fbdf760e01b81525f600482015260240160405180910390fd5b620001638162000174565b505050505050505050505062000898565b600f80546001600160a01b038381166001600160a01b0319831681179093556040519116919082907f8be0079c531659141344cd1fd0a4f28419497f9722a3daafe3b4186f6b6457e0905f90a35050565b828054828255905f5260205f209081019282156200021b579160200282015b828111156200021b57825182546001600160a01b0319166001600160a01b03909116178255602090920191600190910190620001e4565b50620002299291506200036c565b5090565b828054828255905f5260205f2090601f016020900481019282156200021b579160200282015f5b838211156200029357835183826101000a81548160ff021916908360ff16021790555092602001926001016020815f0104928301926001030262000254565b8015620002c15782816101000a81549060ff02191690556001016020815f0104928301926001030262000293565b5050620002299291506200036c565b828054828255905f5260205f2090600901600a900481019282156200021b579160200282015f5b838211156200033b57835183826101000a81548162ffffff021916908362ffffff1602179055509260200192600301602081600201049283019260010302620002f7565b8015620002c15782816101000a81549062ffffff02191690556003016020816002010492830192600103026200033b565b5b8082111562000229575f81556001016200036d565b634e487b7160e01b5f52604160045260245ffd5b604051601f8201601f191681016001600160401b0381118282101715620003c157620003c162000382565b604052919050565b5f6001600160401b03821115620003e457620003e462000382565b5060051b60200190565b6001600160a01b038116811462000403575f80fd5b50565b80516200041381620003ee565b919050565b5f82601f83011262000428575f80fd5b81516020620004416200043b83620003c9565b62000396565b82815260059290921b8401810191818101908684111562000460575f80fd5b8286015b84811015620004885780516200047a81620003ee565b835291830191830162000464565b509695505050505050565b5f82601f830112620004a3575f80fd5b81516020620004b66200043b83620003c9565b82815260059290921b84018101918181019086841115620004d5575f80fd5b8286015b848110156200048857805160ff81168114620004f4575f8081fd5b8352918301918301620004d9565b5f82601f83011262000512575f80fd5b81516020620005256200043b83620003c9565b82815260059290921b8401810191818101908684111562000544575f80fd5b8286015b848110156200048857805162ffffff8116811462000565575f8081fd5b835291830191830162000548565b5f82601f83011262000583575f80fd5b81516001600160401b038111156200059f576200059f62000382565b6020620005b5601f8301601f1916820162000396565b8281528582848701011115620005c9575f80fd5b5f5b83811015620005e8578581018301518282018401528201620005cb565b505f928101909101919091529392505050565b5f805f805f805f805f806101408b8d03121562000616575f80fd5b8a516001600160401b03808211156200062d575f80fd5b6200063b8e838f0162000418565b9b5060208d015191508082111562000651575f80fd5b6200065f8e838f0162000418565b9a5060408d015191508082111562000675575f80fd5b620006838e838f0162000493565b995060608d015191508082111562000699575f80fd5b620006a78e838f0162000502565b9850620006b760808e0162000406565b9750620006c760a08e0162000406565b9650620006d760c08e0162000406565b9550620006e760e08e0162000406565b94506101008d0151915080821115620006fe575f80fd5b6200070c8e838f0162000573565b93506101208d015191508082111562000723575f80fd5b50620007328d828e0162000573565b9150509295989b9194979a5092959850565b600181811c908216806200075957607f821691505b6020821081036200077857634e487b7160e01b5f52602260045260245ffd5b50919050565b601f821115620007cb575f81815260208120601f850160051c81016020861015620007a65750805b601f850160051c820191505b81811015620007c757828155600101620007b2565b5050505b505050565b81516001600160401b03811115620007ec57620007ec62000382565b6200080481620007fd845462000744565b846200077e565b602080601f8311600181146200083a575f8415620008225750858301515b5f19600386901b1c1916600185901b178555620007c7565b5f85815260208120601f198616915b828110156200086a5788860151825594840194600190910190840162000849565b50858210156200088857878501515f19600388901b60f8161c191681555b5050505050600190811b01905550565b61315080620008a65f395ff3fe6080604052600436106101d0575f3560e01c806363070d64116100fd57806399530b0611610092578063d905777e11610062578063d905777e14610544578063dd62ed3e14610563578063eb70cba4146105a7578063f2fde38b146105da575f80fd5b806399530b06146104d3578063a9059cbb146104e7578063b3d7f6b914610506578063c63d75b614610525575f80fd5b8063837baf2c116100cd578063837baf2c1461046f5780638da5cb5b1461048357806394bf804d146104a057806395d89b41146104bf575f80fd5b806363070d64146103e757806370a0823114610408578063715018a61461043c5780637bde82f214610450575f80fd5b8063260b79ac1161017357806343fe44801161014357806343fe44801461036b5780634cdad5061461038a57806356e1887d146103a95780635c199c09146103c8575f80fd5b8063260b79ac146102ce578063313ce5671461030557806338d52e0f1461032b578063423792171461034c575f80fd5b80630f9c77c1116101ae5780630f9c77c11461024f57806318160ddd146102705780631cff79cd1461028e57806323b872dd146102af575f80fd5b806301e1d114146101d457806306fdde03146101ff578063095ea7b314610220575b5f80fd5b3480156101df575f80fd5b506101e86105f9565b6040516101f69291906126bd565b60405180910390f35b34801561020a575f80fd5b506102136107cb565b6040516101f6919061272a565b34801561022b575f80fd5b5061023f61023a366004612760565b61085b565b60405190151581526020016101f6565b34801561025a575f80fd5b5061026e61026936600461278a565b610874565b005b34801561027b575f80fd5b506002545b6040519081526020016101f6565b6102a161029c3660046127c9565b61088c565b6040516101f6929190612847565b3480156102ba575f80fd5b5061023f6102c9366004612861565b610952565b3480156102d9575f80fd5b506102ed6102e836600461289f565b610977565b6040516001600160a01b0390911681526020016101f6565b348015610310575f80fd5b5061031961099f565b60405160ff90911681526020016101f6565b348015610336575f80fd5b5061033f6109b1565b6040516101f691906128b6565b348015610357575f80fd5b5061026e610366366004612aab565b610a10565b348015610376575f80fd5b5061031961038536600461289f565b610aca565b348015610395575f80fd5b506102806103a436600461289f565b610afb565b3480156103b4575f80fd5b5061026e6103c336600461278a565b610c4e565b3480156103d3575f80fd5b5061026e6103e2366004612b92565b610c61565b3480156103f2575f80fd5b506103fb610e51565b6040516101f69190612c3b565b348015610413575f80fd5b50610280610422366004612c4d565b6001600160a01b03165f9081526020819052604090205490565b348015610447575f80fd5b5061026e610f17565b34801561045b575f80fd5b5061028061046a366004612c68565b610f2a565b34801561047a575f80fd5b506103fb6113a8565b34801561048e575f80fd5b50600f546001600160a01b03166102ed565b3480156104ab575f80fd5b506102806104ba366004612c68565b6114de565b3480156104ca575f80fd5b5061021361183e565b3480156104de575f80fd5b5061028061184d565b3480156104f2575f80fd5b5061023f610501366004612760565b611890565b348015610511575f80fd5b5061028061052036600461289f565b61189d565b348015610530575f80fd5b5061028061053f366004612c4d565b6118dd565b34801561054f575f80fd5b5061028061055e366004612c4d565b6118f2565b34801561056e575f80fd5b5061028061057d366004612c96565b6001600160a01b039182165f90815260016020908152604080832093909416825291909152205490565b3480156105b2575f80fd5b506105c66105c136600461289f565b61190f565b60405162ffffff90911681526020016101f6565b3480156105e5575f80fd5b5061026e6105f4366004612c4d565b611945565b5f60605f60058054905067ffffffffffffffff81111561061b5761061b612902565b604051908082528060200260200182016040528015610644578160200160208202803683370190505b5090505f805b6005548110156107c2575f6007828154811061066857610668612cc2565b905f5260205f20015f9054906101000a90046001600160a01b03166001600160a01b03166357de26a46040518163ffffffff1660e01b81526004016040805180830381865afa1580156106bd573d5f803e3d5ffd5b505050506040513d601f19601f820116820180604052508101906106e19190612ce9565b5090505f81601b0b12156106f3575f80fd5b80601b0b84838151811061070957610709612cc2565b6020026020010181815250506006828154811061072857610728612cc2565b905f5260205f2090602091828204019190069054906101000a900460ff16600a6107529190612e15565b600a5f6005858154811061076857610768612cc2565b5f9182526020808320909101546001600160a01b0316835282019290925260400190205461079a90601b84900b612e23565b6107a49190612e3a565b6107ae9084612e59565b925050806107bb90612e6c565b905061064a565b50939092509050565b6060600380546107da90612e84565b80601f016020809104026020016040519081016040528092919081815260200182805461080690612e84565b80156108515780601f1061082857610100808354040283529160200191610851565b820191905f5260205f20905b81548152906001019060200180831161083457829003601f168201915b5050505050905090565b5f33610868818585611982565b60019150505b92915050565b61087c61198f565b6108878383836119bc565b505050565b5f606061089761198f565b600f54600160a01b900460ff166108e75760405162461bcd60e51b815260206004820152600f60248201526e139bdd08125b9a5d1a585b1a5e9959608a1b60448201526064015b60405180910390fd5b5f80866001600160a01b0316348787604051610904929190612eb6565b5f6040518083038185875af1925050503d805f811461093e576040519150601f19603f3d011682016040523d82523d5f602084013e610943565b606091505b50909890975095505050505050565b5f3361095f858285611a6e565b61096a858585611ad6565b60019150505b9392505050565b60058181548110610986575f80fd5b5f918252602090912001546001600160a01b0316905081565b5f6109ac60086012612ec5565b905090565b6060600580548060200260200160405190810160405280929190818152602001828054801561085157602002820191905f5260205f20905b81546001600160a01b031681526001909101906020018083116109e9575050505050905090565b610a1861198f565b8751610a2b9060059060208b01906124da565b508651610a3f9060079060208a01906124da565b50600880546001600160a01b0319166001600160a01b0386161790558551610a6e90600690602089019061253d565b50600c80546001600160a01b038086166001600160a01b031992831617909255600d8054858416908316179055600e8054928416929091169190911790558451610abf90600b9060208801906125d9565b505050505050505050565b60068181548110610ad9575f80fd5b905f5260205f209060209182820401919006915054906101000a900460ff1681565b5f8080610b0784611b33565b90505f5b8151811015610c45575f60078281548110610b2857610b28612cc2565b905f5260205f20015f9054906101000a90046001600160a01b03166001600160a01b03166357de26a46040518163ffffffff1660e01b81526004016040805180830381865afa158015610b7d573d5f803e3d5ffd5b505050506040513d601f19601f82011682018060405250810190610ba19190612ce9565b5090505f81601b0b1215610bb3575f80fd5b5f81601b0b905060068381548110610bcd57610bcd612cc2565b905f5260205f2090602091828204019190069054906101000a900460ff16600a610bf79190612e15565b848481518110610c0957610c09612cc2565b602002602001015182610c1c9190612e23565b610c269190612e3a565b610c309086612e59565b9450505080610c3e90612e6c565b9050610b0b565b50909392505050565b610c5661198f565b610887838383611cf1565b610c6961198f565b600f54600160a01b900460ff1615610c7f575f80fd5b5f5b8151811015610e2e57818181518110610c9c57610c9c612cc2565b602002602001015160058281548110610cb757610cb7612cc2565b5f918252602090912001546040516370a0823160e01b81523360048201526001600160a01b03909116906370a0823190602401602060405180830381865afa158015610d05573d5f803e3d5ffd5b505050506040513d601f19601f82011682018060405250810190610d299190612ede565b1015610d615760405162461bcd60e51b81526020600482015260076024820152662130b61022b93960c91b60448201526064016108de565b610db360058281548110610d7757610d77612cc2565b905f5260205f20015f9054906101000a90046001600160a01b03163330858581518110610da657610da6612cc2565b6020026020010151611d95565b818181518110610dc557610dc5612cc2565b6020026020010151600a5f60058481548110610de357610de3612cc2565b5f9182526020808320909101546001600160a01b0316835282019290925260400181208054909190610e16908490612e59565b90915550819050610e2681612e6c565b915050610c81565b50610e398383611dfc565b5050600f805460ff60a01b1916600160a01b17905550565b6005546060905f8167ffffffffffffffff811115610e7157610e71612902565b604051908082528060200260200182016040528015610e9a578160200160208202803683370190505b5090505f5b82811015610f1057600a5f60058381548110610ebd57610ebd612cc2565b5f9182526020808320909101546001600160a01b031683528201929092526040019020548251839083908110610ef557610ef5612cc2565b6020908102919091010152610f0981612e6c565b9050610e9f565b5092915050565b610f1f61198f565b610f285f611e34565b565b5f80610f35836118f2565b905080841115610f5e57828482604051632e52afbb60e21b81526004016108de93929190612ef5565b5f610f6885611b33565b90505f610f758587611e85565b5f5b600281101561128b5760058181548110610f9357610f93612cc2565b5f91825260209091200154600c5484516001600160a01b039283169263095ea7b3921690869085908110610fc957610fc9612cc2565b60200260200101516040518363ffffffff1660e01b81526004016110029291906001600160a01b03929092168252602082015260400190565b6020604051808303815f875af115801561101e573d5f803e3d5ffd5b505050506040513d601f19601f820116820180604052508101906110429190612f16565b505f6110c26005838154811061105a5761105a612cc2565b5f91825260209091200154600b80546001600160a01b03909216918590811061108557611085612cc2565b905f5260205f2090600a91828204019190066003029054906101000a900462ffffff1660085f9054906101000a90046001600160a01b0316611eb9565b90505f6110e8828685815181106110db576110db612cc2565b6020026020010151611f10565b9050805f036111265760405162461bcd60e51b815260206004820152600a6024820152693837b7b61032b93937b960b11b60448201526064016108de565b5f6111986005858154811061113d5761113d612cc2565b5f91825260209091200154600854600b80546001600160a01b0393841693909216918890811061116f5761116f612cc2565b905f5260205f2090600a91828204019190066003029054906101000a900462ffffff1685611f8f565b9050818110156111d95760405162461bcd60e51b815260206004820152600c60248201526b3837b7b61032b93937b9101960a11b60448201526064016108de565b5f6111fe848887815181106111f0576111f0612cc2565b6020026020010151856120b2565b905061120a8187612e59565b955086858151811061121e5761121e612cc2565b6020026020010151600a5f6005888154811061123c5761123c612cc2565b5f9182526020808320909101546001600160a01b031683528201929092526040018120805490919061126f908490612f35565b92505081905550505050508061128490612e6c565b9050610f77565b505f8111801561130357506008546040516370a0823160e01b815230600482015282916001600160a01b0316906370a0823190602401602060405180830381865afa1580156112dc573d5f803e3d5ffd5b505050506040513d601f19601f820116820180604052508101906113009190612ede565b10155b156113245760085461131f906001600160a01b03168683612170565b61135b565b60405162461bcd60e51b815260206004820152600c60248201526b73776170206572726f72203160a01b60448201526064016108de565b60408051878152602081018390526001600160a01b038716917ff279e6a1f5e320cca91135676d9cb6e44ca8a08c0b88342bcdb1144f6511b568910160405180910390a295945050505050565b6005546060905f9067ffffffffffffffff8111156113c8576113c8612902565b6040519080825280602002602001820160405280156113f1578160200160208202803683370190505b5090505f5b6005548110156114d8575f6007828154811061141457611414612cc2565b905f5260205f20015f9054906101000a90046001600160a01b03166001600160a01b03166357de26a46040518163ffffffff1660e01b81526004016040805180830381865afa158015611469573d5f803e3d5ffd5b505050506040513d601f19601f8201168201806040525081019061148d9190612ce9565b5090505f81601b0b121561149f575f80fd5b5f81601b0b9050808484815181106114b9576114b9612cc2565b6020026020010181815250505050806114d190612e6c565b90506113f6565b50919050565b5f806114e9836118dd565b9050808411156115125782848260405163284ff66760e01b81526004016108de93929190612ef5565b5f61151b61099f565b61152690600a612e15565b6115309086612e3a565b64e8d4a5100061153e61184d565b6115489190612e3a565b6115529190612e23565b60085490915061156d906001600160a01b0316333084611d95565b600854600c5460405163095ea7b360e01b81526001600160a01b0391821660048201526024810184905291169063095ea7b3906044016020604051808303815f875af11580156115bf573d5f803e3d5ffd5b505050506040513d601f19601f820116820180604052508101906115e39190612f16565b505f6115f0600283612e3a565b116115f9575f80fd5b5f5b6005548110156117e757600854600b80545f9261167d926001600160a01b03909116918590811061162e5761162e612cc2565b905f5260205f2090600a91828204019190066003029054906101000a900462ffffff166005858154811061166457611664612cc2565b5f918252602090912001546001600160a01b0316611eb9565b90505f6116948261168f600287612e3a565b611f10565b9050805f036116d45760405162461bcd60e51b815260206004820152600c60248201526b706f6f6c206572726f72203160a01b60448201526064016108de565b600854600580545f92611728926001600160a01b0390911691879081106116fd576116fd612cc2565b5f91825260209091200154600b80546001600160a01b03909216918890811061116f5761116f612cc2565b9050818110156117695760405162461bcd60e51b815260206004820152600c60248201526b3837b7b61032b93937b9101960a11b60448201526064016108de565b5f61177f84611779600289612e3a565b856120b2565b905080600a5f6005888154811061179857611798612cc2565b5f9182526020808320909101546001600160a01b03168352820192909252604001812080549091906117cb908490612e59565b9250508190555050505050806117e090612e6c565b90506115fb565b506117f28486611dfc565b60408051868152602081018390526001600160a01b038616917f90890809c654f11d6e72a28fa60149770a0d11ec6c92319d6ceb2bb0a4ea1a15910160405180910390a2949350505050565b6060600480546107da90612e84565b5f806118576105f9565b50905061186360025490565b61186b61099f565b61187690600a612e15565b6118809083612e23565b61188a9190612e3a565b91505090565b5f33610868818585611ad6565b5f6118a661099f565b6118b190600a612e15565b6118bb9083612e3a565b64e8d4a510006118c961184d565b6118d39190612e3a565b61086e9190612e23565b5f6118e760025490565b61086e905f19612f35565b6001600160a01b0381165f9081526020819052604081205461086e565b600b818154811061191e575f80fd5b905f5260205f2090600a9182820401919006600302915054906101000a900462ffffff1681565b61194d61198f565b6001600160a01b03811661197657604051631e4fbdf760e01b81525f60048201526024016108de565b61197f81611e34565b50565b61088783838360016121a1565b600f546001600160a01b03163314610f285760405163118cdaa760e01b81523360048201526024016108de565b6040516370a0823160e01b81526001600160a01b0382811660048301528391908516906370a0823190602401602060405180830381865afa158015611a03573d5f803e3d5ffd5b505050506040513d601f19601f82011682018060405250810190611a279190612ede565b1015611a31575f80fd5b611a3d83823085611d95565b6001600160a01b0383165f908152600a602052604081208054849290611a64908490612e59565b9091555050505050565b6001600160a01b038381165f908152600160209081526040808320938616835292905220545f198114611ad05781811015611ac257828183604051637dc7a0d960e11b81526004016108de93929190612ef5565b611ad084848484035f6121a1565b50505050565b6001600160a01b038316611aff57604051634b637e8f60e11b81525f60048201526024016108de565b6001600160a01b038216611b285760405163ec442f0560e01b81525f60048201526024016108de565b610887838383612273565b6005546060905f9067ffffffffffffffff811115611b5357611b53612902565b604051908082528060200260200182016040528015611b7c578160200160208202803683370190505b5090505f80611b896105f9565b915091505f600954611b9a60025490565b611ba261099f565b611bad90600a612e15565b611bb79086612e23565b611bc19190612e3a565b611bcb9190612e3a565b90505f5b600554811015611ce6575f838281518110611bec57611bec612cc2565b602002602001015183670de0b6b3a7640000611c089190612e23565b611c129190612e3a565b90505f611c20606483612e3a565b611c2a9083612f35565b9050825f03611c8d57611c3b61099f565b611c4690600a612e15565b89611c566402540be40084612e3a565b611c609190612e23565b611c6a9190612e3a565b878481518110611c7c57611c7c612cc2565b602002602001018181525050611cd3565b611c9561099f565b611ca090600a612e15565b611caa8a83612e23565b611cb49190612e3a565b878481518110611cc657611cc6612cc2565b6020026020010181815250505b505080611cdf90612e6c565b9050611bcf565b509295945050505050565b6040516370a0823160e01b815230600482015282906001600160a01b038516906370a0823190602401602060405180830381865afa158015611d35573d5f803e3d5ffd5b505050506040513d601f19601f82011682018060405250810190611d599190612ede565b1015611d63575f80fd5b611d6e838284612170565b6001600160a01b0383165f908152600a602052604081208054849290611a64908490612f35565b6040516001600160a01b038481166024830152838116604483015260648201839052611ad09186918216906323b872dd906084015b604051602081830303815290604052915060e01b6020820180516001600160e01b038381831617835250505050612386565b6001600160a01b038216611e255760405163ec442f0560e01b81525f60048201526024016108de565b611e305f8383612273565b5050565b600f80546001600160a01b038381166001600160a01b0319831681179093556040519116919082907f8be0079c531659141344cd1fd0a4f28419497f9722a3daafe3b4186f6b6457e0905f90a35050565b6001600160a01b038216611eae57604051634b637e8f60e11b81525f60048201526024016108de565b611e30825f83612273565b604051606084811b6bffffffffffffffffffffffff19908116602084015260e885901b6001600160e81b031916603484015283821b16603783015290604b0160405160208183030381529060405290509392505050565b600d5460405163cdca175360e01b81525f916001600160a01b03169063cdca175390611f429086908690600401612f48565b5f604051808303815f875af1158015611f5d573d5f803e3d5ffd5b505050506040513d5f823e601f3d908101601f19168201604052611f849190810190612fc8565b509195945050505050565b600e54604051630b4c774160e11b81526001600160a01b038681166004830152858116602483015262ffffff851660448301525f928392911690631698ee8290606401602060405180830381865afa158015611fed573d5f803e3d5ffd5b505050506040513d601f19601f820116820180604052508101906120119190613097565b90506001600160a01b038116612025575f91505b6040516370a0823160e01b81526001600160a01b0382811660048301525f91908716906370a0823190602401602060405180830381865afa15801561206c573d5f803e3d5ffd5b505050506040513d601f19601f820116820180604052508101906120909190612ede565b905083811061209d578092505b8381116120a8575f92505b5050949350505050565b5f8215806120be575081155b156120c7575f80fd5b83515f036120d3575f80fd5b6040805160808101825285815230602082015280820185905260608101849052600c54915163b858183f60e01b815290915f916001600160a01b039091169063b858183f906121269085906004016130b2565b6020604051808303815f875af1158015612142573d5f803e3d5ffd5b505050506040513d601f19601f820116820180604052508101906121669190612ede565b9695505050505050565b6040516001600160a01b0383811660248301526044820183905261088791859182169063a9059cbb90606401611dca565b6001600160a01b0384166121ca5760405163e602df0560e01b81525f60048201526024016108de565b6001600160a01b0383166121f357604051634a1406b160e11b81525f60048201526024016108de565b6001600160a01b038085165f9081526001602090815260408083209387168352929052208290558015611ad057826001600160a01b0316846001600160a01b03167f8c5be1e5ebec7d5bd14f71427d1e84f3dd0314c0f7b2291e5b200ac8c7c3b9258460405161226591815260200190565b60405180910390a350505050565b6001600160a01b03831661229d578060025f8282546122929190612e59565b909155506122fa9050565b6001600160a01b0383165f90815260208190526040902054818110156122dc5783818360405163391434e360e21b81526004016108de93929190612ef5565b6001600160a01b0384165f9081526020819052604090209082900390555b6001600160a01b03821661231657600280548290039055612334565b6001600160a01b0382165f9081526020819052604090208054820190555b816001600160a01b0316836001600160a01b03167fddf252ad1be2c89b69c2b068fc378daa952ba7f163c4a11628f55a4df523b3ef8360405161237991815260200190565b60405180910390a3505050565b5f61239a6001600160a01b038416836123e7565b905080515f141580156123be5750808060200190518101906123bc9190612f16565b155b1561088757604051635274afe760e01b81526001600160a01b03841660048201526024016108de565b606061097083835f845f80856001600160a01b0316848660405161240b91906130ff565b5f6040518083038185875af1925050503d805f8114612445576040519150601f19603f3d011682016040523d82523d5f602084013e61244a565b606091505b509150915061216686838360608261246a57612465826124b1565b610970565b815115801561248157506001600160a01b0384163b155b156124aa57604051639996b31560e01b81526001600160a01b03851660048201526024016108de565b5080610970565b8051156124c15780518082602001fd5b604051630a12f52160e11b815260040160405180910390fd5b828054828255905f5260205f2090810192821561252d579160200282015b8281111561252d57825182546001600160a01b0319166001600160a01b039091161782556020909201916001909101906124f8565b50612539929150612670565b5090565b828054828255905f5260205f2090601f0160209004810192821561252d579160200282015f5b838211156125a057835183826101000a81548160ff021916908360ff16021790555092602001926001016020815f01049283019260010302612563565b80156125cc5782816101000a81549060ff02191690556001016020815f010492830192600103026125a0565b5050612539929150612670565b828054828255905f5260205f2090600901600a9004810192821561252d579160200282015f5b8382111561264157835183826101000a81548162ffffff021916908362ffffff16021790555092602001926003016020816002010492830192600103026125ff565b80156125cc5782816101000a81549062ffffff0219169055600301602081600201049283019260010302612641565b5b80821115612539575f8155600101612671565b5f8151808452602080850194508084015f5b838110156126b257815187529582019590820190600101612696565b509495945050505050565b828152604060208201525f6126d56040830184612684565b949350505050565b5f5b838110156126f75781810151838201526020016126df565b50505f910152565b5f81518084526127168160208601602086016126dd565b601f01601f19169290920160200192915050565b602081525f61097060208301846126ff565b6001600160a01b038116811461197f575f80fd5b803561275b8161273c565b919050565b5f8060408385031215612771575f80fd5b823561277c8161273c565b946020939093013593505050565b5f805f6060848603121561279c575f80fd5b83356127a78161273c565b92506020840135915060408401356127be8161273c565b809150509250925092565b5f805f604084860312156127db575f80fd5b83356127e68161273c565b9250602084013567ffffffffffffffff80821115612802575f80fd5b818601915086601f830112612815575f80fd5b813581811115612823575f80fd5b876020828501011115612834575f80fd5b6020830194508093505050509250925092565b8215158152604060208201525f6126d560408301846126ff565b5f805f60608486031215612873575f80fd5b833561287e8161273c565b9250602084013561288e8161273c565b929592945050506040919091013590565b5f602082840312156128af575f80fd5b5035919050565b602080825282518282018190525f9190848201906040850190845b818110156128f65783516001600160a01b0316835292840192918401916001016128d1565b50909695505050505050565b634e487b7160e01b5f52604160045260245ffd5b604051601f8201601f1916810167ffffffffffffffff8111828210171561293f5761293f612902565b604052919050565b5f67ffffffffffffffff82111561296057612960612902565b5060051b60200190565b5f82601f830112612979575f80fd5b8135602061298e61298983612947565b612916565b82815260059290921b840181019181810190868411156129ac575f80fd5b8286015b848110156129d05780356129c38161273c565b83529183019183016129b0565b509695505050505050565b5f82601f8301126129ea575f80fd5b813560206129fa61298983612947565b82815260059290921b84018101918181019086841115612a18575f80fd5b8286015b848110156129d057803560ff81168114612a35575f8081fd5b8352918301918301612a1c565b5f82601f830112612a51575f80fd5b81356020612a6161298983612947565b82815260059290921b84018101918181019086841115612a7f575f80fd5b8286015b848110156129d057803562ffffff81168114612a9e575f8081fd5b8352918301918301612a83565b5f805f805f805f80610100898b031215612ac3575f80fd5b883567ffffffffffffffff80821115612ada575f80fd5b612ae68c838d0161296a565b995060208b0135915080821115612afb575f80fd5b612b078c838d0161296a565b985060408b0135915080821115612b1c575f80fd5b612b288c838d016129db565b975060608b0135915080821115612b3d575f80fd5b50612b4a8b828c01612a42565b955050612b5960808a01612750565b9350612b6760a08a01612750565b9250612b7560c08a01612750565b9150612b8360e08a01612750565b90509295985092959890939650565b5f805f60608486031215612ba4575f80fd5b8335612baf8161273c565b92506020848101359250604085013567ffffffffffffffff811115612bd2575f80fd5b8501601f81018713612be2575f80fd5b8035612bf061298982612947565b81815260059190911b82018301908381019089831115612c0e575f80fd5b928401925b82841015612c2c57833582529284019290840190612c13565b80955050505050509250925092565b602081525f6109706020830184612684565b5f60208284031215612c5d575f80fd5b81356109708161273c565b5f8060408385031215612c79575f80fd5b823591506020830135612c8b8161273c565b809150509250929050565b5f8060408385031215612ca7575f80fd5b8235612cb28161273c565b91506020830135612c8b8161273c565b634e487b7160e01b5f52603260045260245ffd5b805163ffffffff8116811461275b575f80fd5b5f8060408385031215612cfa575f80fd5b825180601b0b8114612d0a575f80fd5b9150612d1860208401612cd6565b90509250929050565b634e487b7160e01b5f52601160045260245ffd5b600181815b80851115612d6f57815f1904821115612d5557612d55612d21565b80851615612d6257918102915b93841c9390800290612d3a565b509250929050565b5f82612d855750600161086e565b81612d9157505f61086e565b8160018114612da75760028114612db157612dcd565b600191505061086e565b60ff841115612dc257612dc2612d21565b50506001821b61086e565b5060208310610133831016604e8410600b8410161715612df0575081810a61086e565b612dfa8383612d35565b805f1904821115612e0d57612e0d612d21565b029392505050565b5f61097060ff841683612d77565b808202811582820484141761086e5761086e612d21565b5f82612e5457634e487b7160e01b5f52601260045260245ffd5b500490565b8082018082111561086e5761086e612d21565b5f60018201612e7d57612e7d612d21565b5060010190565b600181811c90821680612e9857607f821691505b6020821081036114d857634e487b7160e01b5f52602260045260245ffd5b818382375f9101908152919050565b60ff818116838216019081111561086e5761086e612d21565b5f60208284031215612eee575f80fd5b5051919050565b6001600160a01b039390931683526020830191909152604082015260600190565b5f60208284031215612f26575f80fd5b81518015158114610970575f80fd5b8181038181111561086e5761086e612d21565b604081525f612f5a60408301856126ff565b90508260208301529392505050565b5f82601f830112612f78575f80fd5b81516020612f8861298983612947565b82815260059290921b84018101918181019086841115612fa6575f80fd5b8286015b848110156129d057612fbb81612cd6565b8352918301918301612faa565b5f805f8060808587031215612fdb575f80fd5b8451935060208086015167ffffffffffffffff80821115612ffa575f80fd5b818801915088601f83011261300d575f80fd5b815161301b61298982612947565b81815260059190911b8301840190848101908b831115613039575f80fd5b938501935b828510156130605784516130518161273c565b8252938501939085019061303e565b60408b01519098509450505080831115613078575f80fd5b505061308687828801612f69565b606096909601519497939650505050565b5f602082840312156130a7575f80fd5b81516109708161273c565b602081525f8251608060208401526130cd60a08401826126ff565b905060018060a01b03602085015116604084015260408401516060840152606084015160808401528091505092915050565b5f82516131108184602087016126dd565b919091019291505056fea26469706673582212206ac115aab433e0034a89288fe1a09aa018191a95702234ae4adbfb74ffb9dc4964736f6c63430008140033000000000000000000000000000000000000000000000000000000000000014000000000000000000000000000000000000000000000000000000000000001a00000000000000000000000000000000000000000000000000000000000000200000000000000000000000000000000000000000000000000000000000000026000000000000000000000000005d032ac25d322df992303dca074ee7392c117b9000000000000000000000000807f4e281b7a3b324825c64ca53c69f0b418de400000000000000000000000006aa54a43d7eef5b239a18eed3af4877f46522bca000000000000000000000000cb2436774c3e191c85056d248ef4260ce5f27a9d00000000000000000000000000000000000000000000000000000000000002c00000000000000000000000000000000000000000000000000000000000000300000000000000000000000000000000000000000000000000000000000000000200000000000000000000000003c7054bcb39f7b2e5b2c7acb37583e32d70cfa300000000000000000000000042000000000000000000000000000000000000060000000000000000000000000000000000000000000000000000000000000002000000000000000000000000041a131fa91ad61dd85262a42c04975986580d500000000000000000000000005b0cf2b36a65a6bb085d501b971e4c102b9cd47300000000000000000000000000000000000000000000000000000000000000020000000000000000000000000000000000000000000000000000000000000008000000000000000000000000000000000000000000000000000000000000001200000000000000000000000000000000000000000000000000000000000000020000000000000000000000000000000000000000000000000000000000000bb80000000000000000000000000000000000000000000000000000000000000bb800000000000000000000000000000000000000000000000000000000000000074254432d4554480000000000000000000000000000000000000000000000000000000000000000000000000000000000000000000000000000000000000000044245544800000000000000000000000000000000000000000000000000000000",
        "nonce": "0x22dd",
        "chainId": "0xed88"
      },
      "additionalContracts": [],
      "isFixedGasLimit": false
    },
    {
      "hash": "0xe4f9cf90aa83da1fb062cf4ba2c59478dd4ad7ff15d0eff4d455717354562e0c",
      "transactionType": "CALL",
      "contractName": null,
      "contractAddress": "0x05d032ac25d322df992303dca074ee7392c117b9",
      "function": "approve(address,uint256)",
      "arguments": [
        "0x5B83f73357d81f4AE9E08094a0A4469Bc77A7d42",
        "115792089237316195423570985008687907853269984665640564039457584007913129639935"
      ],
      "transaction": {
        "from": "0xcda2fdb452ff4f5d7ba1c3d5dfcc9cb926a5eb7d",
        "to": "0x05d032ac25d322df992303dca074ee7392c117b9",
        "gas": "0x109f6",
        "value": "0x0",
        "input": "0x095ea7b30000000000000000000000005b83f73357d81f4ae9e08094a0a4469bc77a7d42ffffffffffffffffffffffffffffffffffffffffffffffffffffffffffffffff",
        "nonce": "0x22de",
        "chainId": "0xed88"
      },
      "additionalContracts": [],
      "isFixedGasLimit": false
    },
    {
      "hash": "0x6bfac645f3c99d21eb3b50f0bf28df2f59996fb92a85449bac83525d5a4c3d92",
      "transactionType": "CALL",
      "contractName": null,
      "contractAddress": "0x03c7054bcb39f7b2e5b2c7acb37583e32d70cfa3",
      "function": "approve(address,uint256)",
      "arguments": [
        "0x5B83f73357d81f4AE9E08094a0A4469Bc77A7d42",
        "115792089237316195423570985008687907853269984665640564039457584007913129639935"
      ],
      "transaction": {
        "from": "0xcda2fdb452ff4f5d7ba1c3d5dfcc9cb926a5eb7d",
        "to": "0x03c7054bcb39f7b2e5b2c7acb37583e32d70cfa3",
        "gas": "0x109f6",
        "value": "0x0",
        "input": "0x095ea7b30000000000000000000000005b83f73357d81f4ae9e08094a0a4469bc77a7d42ffffffffffffffffffffffffffffffffffffffffffffffffffffffffffffffff",
        "nonce": "0x22df",
        "chainId": "0xed88"
      },
      "additionalContracts": [],
      "isFixedGasLimit": false
    },
    {
      "hash": "0x3c41454930d1119d4ee95a9256ea38901d97c841cb6d6ff384b0383b80f5f5c5",
      "transactionType": "CALL",
      "contractName": null,
      "contractAddress": "0x4200000000000000000000000000000000000006",
      "function": "approve(address,uint256)",
      "arguments": [
        "0x5B83f73357d81f4AE9E08094a0A4469Bc77A7d42",
        "115792089237316195423570985008687907853269984665640564039457584007913129639935"
      ],
      "transaction": {
        "from": "0xcda2fdb452ff4f5d7ba1c3d5dfcc9cb926a5eb7d",
        "to": "0x4200000000000000000000000000000000000006",
        "gas": "0xfa0a",
        "value": "0x0",
        "input": "0x095ea7b30000000000000000000000005b83f73357d81f4ae9e08094a0a4469bc77a7d42ffffffffffffffffffffffffffffffffffffffffffffffffffffffffffffffff",
        "nonce": "0x22e0",
        "chainId": "0xed88"
      },
      "additionalContracts": [],
      "isFixedGasLimit": false
    },
    {
      "hash": "0xf705ae29b1f77266a9da6e827a090c24cf17a9739145163ce29bd6d321c4cfe1",
      "transactionType": "CALL",
      "contractName": "BethVault",
      "contractAddress": "0x5b83f73357d81f4ae9e08094a0a4469bc77a7d42",
      "function": "initialize(address,uint256,uint256[])",
      "arguments": [
        "0xcdA2fDB452FF4F5D7Ba1C3d5dFCc9CB926A5eb7D",
        "100000000000000000000000000000",
        "[60821, 22012828891724611]"
      ],
      "transaction": {
        "from": "0xcda2fdb452ff4f5d7ba1c3d5dfcc9cb926a5eb7d",
        "to": "0x5b83f73357d81f4ae9e08094a0a4469bc77a7d42",
        "gas": "0x40de0",
        "value": "0x0",
        "input": "0x5c199c09000000000000000000000000cda2fdb452ff4f5d7ba1c3d5dfcc9cb926a5eb7d0000000000000000000000000000000000000001431e0fae6d7217caa000000000000000000000000000000000000000000000000000000000000000000000600000000000000000000000000000000000000000000000000000000000000002000000000000000000000000000000000000000000000000000000000000ed95000000000000000000000000000000000000000000000000004e348d1e97bb43",
        "nonce": "0x22e1",
        "chainId": "0xed88"
      },
      "additionalContracts": [],
      "isFixedGasLimit": false
    },
    {
      "hash": "0x4686f0b9b91e1966a73ee821e0d3beda0be51a2a3162650af52b9a8de1ca6629",
      "transactionType": "CALL",
      "contractName": "BethVault",
      "contractAddress": "0x5b83f73357d81f4ae9e08094a0a4469bc77a7d42",
      "function": "mint(uint256,address)",
      "arguments": [
        "1000000000000000000000000000",
        "0xcdA2fDB452FF4F5D7Ba1C3d5dFCc9CB926A5eb7D"
      ],
      "transaction": {
        "from": "0xcda2fdb452ff4f5d7ba1c3d5dfcc9cb926a5eb7d",
        "to": "0x5b83f73357d81f4ae9e08094a0a4469bc77a7d42",
        "gas": "0xa9a52",
        "value": "0x0",
        "input": "0x94bf804d0000000000000000000000000000000000000000033b2e3c9fd0803ce8000000000000000000000000000000cda2fdb452ff4f5d7ba1c3d5dfcc9cb926a5eb7d",
        "nonce": "0x22e2",
        "chainId": "0xed88"
      },
      "additionalContracts": [],
      "isFixedGasLimit": false
    },
    {
      "hash": "0x210228013f92c2923bed4ea426a4a776d828ae1599f86642364145d8cce902c0",
      "transactionType": "CALL",
      "contractName": "BethVault",
      "contractAddress": "0x5b83f73357d81f4ae9e08094a0a4469bc77a7d42",
      "function": "redeem(uint256,address)",
      "arguments": [
        "1000000000000000000000000000",
        "0xcdA2fDB452FF4F5D7Ba1C3d5dFCc9CB926A5eb7D"
      ],
      "transaction": {
        "from": "0xcda2fdb452ff4f5d7ba1c3d5dfcc9cb926a5eb7d",
        "to": "0x5b83f73357d81f4ae9e08094a0a4469bc77a7d42",
        "gas": "0xa19b9",
        "value": "0x0",
        "input": "0x7bde82f20000000000000000000000000000000000000000033b2e3c9fd0803ce8000000000000000000000000000000cda2fdb452ff4f5d7ba1c3d5dfcc9cb926a5eb7d",
        "nonce": "0x22e3",
        "chainId": "0xed88"
      },
      "additionalContracts": [],
      "isFixedGasLimit": false
    }
  ],
  "receipts": [
    {
      "status": "0x1",
      "cumulativeGasUsed": "0x322c8e",
      "logs": [
        {
          "address": "0x5b83f73357d81f4ae9e08094a0a4469bc77a7d42",
          "topics": [
            "0x8be0079c531659141344cd1fd0a4f28419497f9722a3daafe3b4186f6b6457e0",
            "0x0000000000000000000000000000000000000000000000000000000000000000",
            "0x000000000000000000000000cda2fdb452ff4f5d7ba1c3d5dfcc9cb926a5eb7d"
          ],
          "data": "0x",
          "blockHash": "0x30b45fe7d831aede9587a5dcf22a7217aaa5303580e5d2632d5f2011069db58b",
          "blockNumber": "0xcb594b",
          "transactionHash": "0x8788492c6df346934394df7597005ea1f99fbe9686779af7faa7877ad0faee08",
          "transactionIndex": "0x1",
          "logIndex": "0x0",
          "removed": false
        }
      ],
      "logsBloom": "0x00000000000000080000000000000000000000000000000000800000000000000000000000000000000000000000000000000000000000000000000000000000000000000000000000000000040000000001000000000000000000000000000000000000020000000000000000000800000000000000800000000000000000400000000000000000000000000000000000000000000000008000000000000000000000000000000000000000000000000000000000004000000000000000000000800000000000000000000000000000000000000000000000000000000020000000000000000000000000000000000000000000000000000000000000000000",
      "type": "0x2",
      "transactionHash": "0x8788492c6df346934394df7597005ea1f99fbe9686779af7faa7877ad0faee08",
      "transactionIndex": "0x1",
      "blockHash": "0x30b45fe7d831aede9587a5dcf22a7217aaa5303580e5d2632d5f2011069db58b",
      "blockNumber": "0xcb594b",
      "gasUsed": "0x31812b",
      "effectiveGasPrice": "0xfd",
      "from": "0xcda2fdb452ff4f5d7ba1c3d5dfcc9cb926a5eb7d",
      "to": null,
      "contractAddress": "0x5b83f73357d81f4ae9e08094a0a4469bc77a7d42",
      "l1BaseFeeScalar": "0x186a0",
      "l1BlobBaseFee": "0x9dba228",
      "l1BlobBaseFeeScalar": "0x95506",
      "l1Fee": "0xa2d8613c838",
      "l1GasPrice": "0x2ff09d5c",
      "l1GasUsed": "0x1f7e4"
    },
    {
      "status": "0x1",
      "cumulativeGasUsed": "0x32e269",
      "logs": [
        {
          "address": "0x05d032ac25d322df992303dca074ee7392c117b9",
          "topics": [
            "0x8c5be1e5ebec7d5bd14f71427d1e84f3dd0314c0f7b2291e5b200ac8c7c3b925",
            "0x000000000000000000000000cda2fdb452ff4f5d7ba1c3d5dfcc9cb926a5eb7d",
            "0x0000000000000000000000005b83f73357d81f4ae9e08094a0a4469bc77a7d42"
          ],
          "data": "0xffffffffffffffffffffffffffffffffffffffffffffffffffffffffffffffff",
          "blockHash": "0x30b45fe7d831aede9587a5dcf22a7217aaa5303580e5d2632d5f2011069db58b",
          "blockNumber": "0xcb594b",
          "transactionHash": "0xe4f9cf90aa83da1fb062cf4ba2c59478dd4ad7ff15d0eff4d455717354562e0c",
          "transactionIndex": "0x2",
          "logIndex": "0x1",
          "removed": false
        }
      ],
      "logsBloom": "0x00000000000000000001010000000000000000000000000000000000000000000000000000000000000000000000000000000000000000000000000000200000000100000000000000000000040000000000000000000000000000000000000000000000000000000000000000000000000000000000800000000000000000000000000800000000000000000000000000000000000000000000000000000000020000000000000000000000000000000080000000004000000000000000000000000000000000000000000000000000000000000000000000000000000000000010000000000000000000000100000000000000000000000000000000000000",
      "type": "0x2",
      "transactionHash": "0xe4f9cf90aa83da1fb062cf4ba2c59478dd4ad7ff15d0eff4d455717354562e0c",
      "transactionIndex": "0x2",
      "blockHash": "0x30b45fe7d831aede9587a5dcf22a7217aaa5303580e5d2632d5f2011069db58b",
      "blockNumber": "0xcb594b",
      "gasUsed": "0xb5db",
      "effectiveGasPrice": "0xfd",
      "from": "0xcda2fdb452ff4f5d7ba1c3d5dfcc9cb926a5eb7d",
      "to": "0x05d032ac25d322df992303dca074ee7392c117b9",
      "contractAddress": null,
      "l1BaseFeeScalar": "0x186a0",
      "l1BlobBaseFee": "0x9dba228",
      "l1BlobBaseFeeScalar": "0x95506",
      "l1Fee": "0x2051493f01",
      "l1GasPrice": "0x2ff09d5c",
      "l1GasUsed": "0x640"
    },
    {
      "status": "0x1",
      "cumulativeGasUsed": "0x339844",
      "logs": [
        {
          "address": "0x03c7054bcb39f7b2e5b2c7acb37583e32d70cfa3",
          "topics": [
            "0x8c5be1e5ebec7d5bd14f71427d1e84f3dd0314c0f7b2291e5b200ac8c7c3b925",
            "0x000000000000000000000000cda2fdb452ff4f5d7ba1c3d5dfcc9cb926a5eb7d",
            "0x0000000000000000000000005b83f73357d81f4ae9e08094a0a4469bc77a7d42"
          ],
          "data": "0xffffffffffffffffffffffffffffffffffffffffffffffffffffffffffffffff",
          "blockHash": "0x30b45fe7d831aede9587a5dcf22a7217aaa5303580e5d2632d5f2011069db58b",
          "blockNumber": "0xcb594b",
          "transactionHash": "0x6bfac645f3c99d21eb3b50f0bf28df2f59996fb92a85449bac83525d5a4c3d92",
          "transactionIndex": "0x3",
          "logIndex": "0x2",
          "removed": false
        }
      ],
      "logsBloom": "0x00000000000000000001000000000100000000000000000000000000000000000000000000000000000000000000000000000000000000000000000000200000000100000000000000000000040000000000000000000000000000000000000000000000000000000000000000000000000000000000800000000000000000000000000000000000000000000000000000000000000000000000400000000000020000000000000000000000000000000000000000004000000000000000000000000000000000000000000000000000002000000000000000000000000000000010000000000000000000000100000000000000000000000000000000000000",
      "type": "0x2",
      "transactionHash": "0x6bfac645f3c99d21eb3b50f0bf28df2f59996fb92a85449bac83525d5a4c3d92",
      "transactionIndex": "0x3",
      "blockHash": "0x30b45fe7d831aede9587a5dcf22a7217aaa5303580e5d2632d5f2011069db58b",
      "blockNumber": "0xcb594b",
      "gasUsed": "0xb5db",
      "effectiveGasPrice": "0xfd",
      "from": "0xcda2fdb452ff4f5d7ba1c3d5dfcc9cb926a5eb7d",
      "to": "0x03c7054bcb39f7b2e5b2c7acb37583e32d70cfa3",
      "contractAddress": null,
      "l1BaseFeeScalar": "0x186a0",
      "l1BlobBaseFee": "0x9dba228",
      "l1BlobBaseFeeScalar": "0x95506",
      "l1Fee": "0x2051493f01",
      "l1GasPrice": "0x2ff09d5c",
      "l1GasUsed": "0x640"
    },
    {
      "status": "0x1",
      "cumulativeGasUsed": "0x344d4b",
      "logs": [
        {
          "address": "0x4200000000000000000000000000000000000006",
          "topics": [
            "0x8c5be1e5ebec7d5bd14f71427d1e84f3dd0314c0f7b2291e5b200ac8c7c3b925",
            "0x000000000000000000000000cda2fdb452ff4f5d7ba1c3d5dfcc9cb926a5eb7d",
            "0x0000000000000000000000005b83f73357d81f4ae9e08094a0a4469bc77a7d42"
          ],
          "data": "0xffffffffffffffffffffffffffffffffffffffffffffffffffffffffffffffff",
          "blockHash": "0x30b45fe7d831aede9587a5dcf22a7217aaa5303580e5d2632d5f2011069db58b",
          "blockNumber": "0xcb594b",
          "transactionHash": "0x3c41454930d1119d4ee95a9256ea38901d97c841cb6d6ff384b0383b80f5f5c5",
          "transactionIndex": "0x4",
          "logIndex": "0x3",
          "removed": false
        }
      ],
      "logsBloom": "0x00000000000000000001000000000000000000000000000000040000000000000000000000000000000000100000000000000000000000000000000000200000000100000000000000000000040000000000000000000000000000000000000000000000000000000000000000000000000000000000800000000000000000000000000000000000000000000000000000000000002000000000000000000000020000000000000000000000000000000000000000004000000000000000000000000000000000000000000000000000000000000000000000000000000000000010000000000000000000000100000000000000000000000000000000000000",
      "type": "0x2",
      "transactionHash": "0x3c41454930d1119d4ee95a9256ea38901d97c841cb6d6ff384b0383b80f5f5c5",
      "transactionIndex": "0x4",
      "blockHash": "0x30b45fe7d831aede9587a5dcf22a7217aaa5303580e5d2632d5f2011069db58b",
      "blockNumber": "0xcb594b",
      "gasUsed": "0xb507",
      "effectiveGasPrice": "0xfd",
      "from": "0xcda2fdb452ff4f5d7ba1c3d5dfcc9cb926a5eb7d",
      "to": "0x4200000000000000000000000000000000000006",
      "contractAddress": null,
      "l1BaseFeeScalar": "0x186a0",
      "l1BlobBaseFee": "0x9dba228",
      "l1BlobBaseFeeScalar": "0x95506",
      "l1Fee": "0x2051493f01",
      "l1GasPrice": "0x2ff09d5c",
      "l1GasUsed": "0x640"
    },
    {
      "status": "0x1",
      "cumulativeGasUsed": "0x373cb3",
      "logs": [
        {
          "address": "0x03c7054bcb39f7b2e5b2c7acb37583e32d70cfa3",
          "topics": [
            "0xddf252ad1be2c89b69c2b068fc378daa952ba7f163c4a11628f55a4df523b3ef",
            "0x000000000000000000000000cda2fdb452ff4f5d7ba1c3d5dfcc9cb926a5eb7d",
            "0x0000000000000000000000005b83f73357d81f4ae9e08094a0a4469bc77a7d42"
          ],
          "data": "0x000000000000000000000000000000000000000000000000000000000000ed95",
          "blockHash": "0x30b45fe7d831aede9587a5dcf22a7217aaa5303580e5d2632d5f2011069db58b",
          "blockNumber": "0xcb594b",
          "transactionHash": "0xf705ae29b1f77266a9da6e827a090c24cf17a9739145163ce29bd6d321c4cfe1",
          "transactionIndex": "0x5",
          "logIndex": "0x4",
          "removed": false
        },
        {
          "address": "0x4200000000000000000000000000000000000006",
          "topics": [
            "0xddf252ad1be2c89b69c2b068fc378daa952ba7f163c4a11628f55a4df523b3ef",
            "0x000000000000000000000000cda2fdb452ff4f5d7ba1c3d5dfcc9cb926a5eb7d",
            "0x0000000000000000000000005b83f73357d81f4ae9e08094a0a4469bc77a7d42"
          ],
          "data": "0x000000000000000000000000000000000000000000000000004e348d1e97bb43",
          "blockHash": "0x30b45fe7d831aede9587a5dcf22a7217aaa5303580e5d2632d5f2011069db58b",
          "blockNumber": "0xcb594b",
          "transactionHash": "0xf705ae29b1f77266a9da6e827a090c24cf17a9739145163ce29bd6d321c4cfe1",
          "transactionIndex": "0x5",
          "logIndex": "0x5",
          "removed": false
        },
        {
          "address": "0x5b83f73357d81f4ae9e08094a0a4469bc77a7d42",
          "topics": [
            "0xddf252ad1be2c89b69c2b068fc378daa952ba7f163c4a11628f55a4df523b3ef",
            "0x0000000000000000000000000000000000000000000000000000000000000000",
            "0x000000000000000000000000cda2fdb452ff4f5d7ba1c3d5dfcc9cb926a5eb7d"
          ],
          "data": "0x0000000000000000000000000000000000000001431e0fae6d7217caa0000000",
          "blockHash": "0x30b45fe7d831aede9587a5dcf22a7217aaa5303580e5d2632d5f2011069db58b",
          "blockNumber": "0xcb594b",
          "transactionHash": "0xf705ae29b1f77266a9da6e827a090c24cf17a9739145163ce29bd6d321c4cfe1",
          "transactionIndex": "0x5",
          "logIndex": "0x6",
          "removed": false
        }
      ],
      "logsBloom": "0x00000000000000080001000000000100000000000000000000040000000000000000000000000000000000100000000000000000000000000000000000000000000100000000000000000008040000000000000000000000000000000000000000000000020000000000000000000800000000000000800000000010000000000000000000000000000000000000000000000000002000008000400000000000000000000000000000000000000000000000000000004000000000000000000000800002000000000000000000000000002000000000000000000000000020000000000000000000000000000100000000000000000000000000000000000000",
      "type": "0x2",
      "transactionHash": "0xf705ae29b1f77266a9da6e827a090c24cf17a9739145163ce29bd6d321c4cfe1",
      "transactionIndex": "0x5",
      "blockHash": "0x30b45fe7d831aede9587a5dcf22a7217aaa5303580e5d2632d5f2011069db58b",
      "blockNumber": "0xcb594b",
      "gasUsed": "0x2ef68",
      "effectiveGasPrice": "0xfd",
      "from": "0xcda2fdb452ff4f5d7ba1c3d5dfcc9cb926a5eb7d",
      "to": "0x5b83f73357d81f4ae9e08094a0a4469bc77a7d42",
      "contractAddress": null,
      "l1BaseFeeScalar": "0x186a0",
      "l1BlobBaseFee": "0x9dba228",
      "l1BlobBaseFeeScalar": "0x95506",
      "l1Fee": "0x262454b198",
      "l1GasPrice": "0x2ff09d5c",
      "l1GasUsed": "0x760"
    },
    {
      "status": "0x1",
      "cumulativeGasUsed": "0x3e7ca6",
      "logs": [
        {
          "address": "0x05d032ac25d322df992303dca074ee7392c117b9",
          "topics": [
            "0xddf252ad1be2c89b69c2b068fc378daa952ba7f163c4a11628f55a4df523b3ef",
            "0x000000000000000000000000cda2fdb452ff4f5d7ba1c3d5dfcc9cb926a5eb7d",
            "0x0000000000000000000000005b83f73357d81f4ae9e08094a0a4469bc77a7d42"
          ],
          "data": "0x0000000000000000000000000000000000000000000000000000000000120994",
          "blockHash": "0x30b45fe7d831aede9587a5dcf22a7217aaa5303580e5d2632d5f2011069db58b",
          "blockNumber": "0xcb594b",
          "transactionHash": "0x4686f0b9b91e1966a73ee821e0d3beda0be51a2a3162650af52b9a8de1ca6629",
          "transactionIndex": "0x6",
          "logIndex": "0x7",
          "removed": false
        },
        {
          "address": "0x05d032ac25d322df992303dca074ee7392c117b9",
          "topics": [
            "0x8c5be1e5ebec7d5bd14f71427d1e84f3dd0314c0f7b2291e5b200ac8c7c3b925",
            "0x0000000000000000000000005b83f73357d81f4ae9e08094a0a4469bc77a7d42",
            "0x000000000000000000000000807f4e281b7a3b324825c64ca53c69f0b418de40"
          ],
          "data": "0x0000000000000000000000000000000000000000000000000000000000120994",
          "blockHash": "0x30b45fe7d831aede9587a5dcf22a7217aaa5303580e5d2632d5f2011069db58b",
          "blockNumber": "0xcb594b",
          "transactionHash": "0x4686f0b9b91e1966a73ee821e0d3beda0be51a2a3162650af52b9a8de1ca6629",
          "transactionIndex": "0x6",
          "logIndex": "0x8",
          "removed": false
        },
        {
          "address": "0x03c7054bcb39f7b2e5b2c7acb37583e32d70cfa3",
          "topics": [
            "0xddf252ad1be2c89b69c2b068fc378daa952ba7f163c4a11628f55a4df523b3ef",
            "0x0000000000000000000000006407fec527abad1aafdb9a3b5a2171800c21a2fe",
            "0x0000000000000000000000005b83f73357d81f4ae9e08094a0a4469bc77a7d42"
          ],
          "data": "0x0000000000000000000000000000000000000000000000000000000000000261",
          "blockHash": "0x30b45fe7d831aede9587a5dcf22a7217aaa5303580e5d2632d5f2011069db58b",
          "blockNumber": "0xcb594b",
          "transactionHash": "0x4686f0b9b91e1966a73ee821e0d3beda0be51a2a3162650af52b9a8de1ca6629",
          "transactionIndex": "0x6",
          "logIndex": "0x9",
          "removed": false
        },
        {
          "address": "0x05d032ac25d322df992303dca074ee7392c117b9",
          "topics": [
            "0x8c5be1e5ebec7d5bd14f71427d1e84f3dd0314c0f7b2291e5b200ac8c7c3b925",
            "0x0000000000000000000000005b83f73357d81f4ae9e08094a0a4469bc77a7d42",
            "0x000000000000000000000000807f4e281b7a3b324825c64ca53c69f0b418de40"
          ],
          "data": "0x00000000000000000000000000000000000000000000000000000000000904ca",
          "blockHash": "0x30b45fe7d831aede9587a5dcf22a7217aaa5303580e5d2632d5f2011069db58b",
          "blockNumber": "0xcb594b",
          "transactionHash": "0x4686f0b9b91e1966a73ee821e0d3beda0be51a2a3162650af52b9a8de1ca6629",
          "transactionIndex": "0x6",
          "logIndex": "0xa",
          "removed": false
        },
        {
          "address": "0x05d032ac25d322df992303dca074ee7392c117b9",
          "topics": [
            "0xddf252ad1be2c89b69c2b068fc378daa952ba7f163c4a11628f55a4df523b3ef",
            "0x0000000000000000000000005b83f73357d81f4ae9e08094a0a4469bc77a7d42",
            "0x0000000000000000000000006407fec527abad1aafdb9a3b5a2171800c21a2fe"
          ],
          "data": "0x00000000000000000000000000000000000000000000000000000000000904ca",
          "blockHash": "0x30b45fe7d831aede9587a5dcf22a7217aaa5303580e5d2632d5f2011069db58b",
          "blockNumber": "0xcb594b",
          "transactionHash": "0x4686f0b9b91e1966a73ee821e0d3beda0be51a2a3162650af52b9a8de1ca6629",
          "transactionIndex": "0x6",
          "logIndex": "0xb",
          "removed": false
        },
        {
          "address": "0x6407fec527abad1aafdb9a3b5a2171800c21a2fe",
          "topics": [
            "0xc42079f94a6350d7e6235f29174924f928cc2ac818eb64fed8004e115fbcca67",
            "0x000000000000000000000000807f4e281b7a3b324825c64ca53c69f0b418de40",
            "0x0000000000000000000000005b83f73357d81f4ae9e08094a0a4469bc77a7d42"
          ],
          "data": "0xfffffffffffffffffffffffffffffffffffffffffffffffffffffffffffffd9f00000000000000000000000000000000000000000000000000000000000904ca000000000000000000000000000000000000001f15439fa3421baddda344629100000000000000000000000000000000000000000000000000000004b7f741bf0000000000000000000000000000000000000000000000000000000000010c80",
          "blockHash": "0x30b45fe7d831aede9587a5dcf22a7217aaa5303580e5d2632d5f2011069db58b",
          "blockNumber": "0xcb594b",
          "transactionHash": "0x4686f0b9b91e1966a73ee821e0d3beda0be51a2a3162650af52b9a8de1ca6629",
          "transactionIndex": "0x6",
          "logIndex": "0xc",
          "removed": false
        },
        {
          "address": "0x4200000000000000000000000000000000000006",
          "topics": [
            "0xddf252ad1be2c89b69c2b068fc378daa952ba7f163c4a11628f55a4df523b3ef",
            "0x0000000000000000000000009a3b17a2e2daf54ce80f2f4b2c8440902be715de",
            "0x0000000000000000000000005b83f73357d81f4ae9e08094a0a4469bc77a7d42"
          ],
          "data": "0x0000000000000000000000000000000000000000000000000000c6b11da35ecb",
          "blockHash": "0x30b45fe7d831aede9587a5dcf22a7217aaa5303580e5d2632d5f2011069db58b",
          "blockNumber": "0xcb594b",
          "transactionHash": "0x4686f0b9b91e1966a73ee821e0d3beda0be51a2a3162650af52b9a8de1ca6629",
          "transactionIndex": "0x6",
          "logIndex": "0xd",
          "removed": false
        },
        {
          "address": "0x05d032ac25d322df992303dca074ee7392c117b9",
          "topics": [
            "0x8c5be1e5ebec7d5bd14f71427d1e84f3dd0314c0f7b2291e5b200ac8c7c3b925",
            "0x0000000000000000000000005b83f73357d81f4ae9e08094a0a4469bc77a7d42",
            "0x000000000000000000000000807f4e281b7a3b324825c64ca53c69f0b418de40"
          ],
          "data": "0x0000000000000000000000000000000000000000000000000000000000000000",
          "blockHash": "0x30b45fe7d831aede9587a5dcf22a7217aaa5303580e5d2632d5f2011069db58b",
          "blockNumber": "0xcb594b",
          "transactionHash": "0x4686f0b9b91e1966a73ee821e0d3beda0be51a2a3162650af52b9a8de1ca6629",
          "transactionIndex": "0x6",
          "logIndex": "0xe",
          "removed": false
        },
        {
          "address": "0x05d032ac25d322df992303dca074ee7392c117b9",
          "topics": [
            "0xddf252ad1be2c89b69c2b068fc378daa952ba7f163c4a11628f55a4df523b3ef",
            "0x0000000000000000000000005b83f73357d81f4ae9e08094a0a4469bc77a7d42",
            "0x0000000000000000000000009a3b17a2e2daf54ce80f2f4b2c8440902be715de"
          ],
          "data": "0x00000000000000000000000000000000000000000000000000000000000904ca",
          "blockHash": "0x30b45fe7d831aede9587a5dcf22a7217aaa5303580e5d2632d5f2011069db58b",
          "blockNumber": "0xcb594b",
          "transactionHash": "0x4686f0b9b91e1966a73ee821e0d3beda0be51a2a3162650af52b9a8de1ca6629",
          "transactionIndex": "0x6",
          "logIndex": "0xf",
          "removed": false
        },
        {
          "address": "0x9a3b17a2e2daf54ce80f2f4b2c8440902be715de",
          "topics": [
            "0xc42079f94a6350d7e6235f29174924f928cc2ac818eb64fed8004e115fbcca67",
            "0x000000000000000000000000807f4e281b7a3b324825c64ca53c69f0b418de40",
            "0x0000000000000000000000005b83f73357d81f4ae9e08094a0a4469bc77a7d42"
          ],
          "data": "0x00000000000000000000000000000000000000000000000000000000000904caffffffffffffffffffffffffffffffffffffffffffffffffffff394ee25ca1350000000000000000000000000000000000004b3662862f2a09d95f54ce0946c30000000000000000000000000000000000000000000000000009789402dceb9200000000000000000000000000000000000000000000000000000000000302c7",
          "blockHash": "0x30b45fe7d831aede9587a5dcf22a7217aaa5303580e5d2632d5f2011069db58b",
          "blockNumber": "0xcb594b",
          "transactionHash": "0x4686f0b9b91e1966a73ee821e0d3beda0be51a2a3162650af52b9a8de1ca6629",
          "transactionIndex": "0x6",
          "logIndex": "0x10",
          "removed": false
        },
        {
          "address": "0x5b83f73357d81f4ae9e08094a0a4469bc77a7d42",
          "topics": [
            "0xddf252ad1be2c89b69c2b068fc378daa952ba7f163c4a11628f55a4df523b3ef",
            "0x0000000000000000000000000000000000000000000000000000000000000000",
            "0x000000000000000000000000cda2fdb452ff4f5d7ba1c3d5dfcc9cb926a5eb7d"
          ],
          "data": "0x0000000000000000000000000000000000000000033b2e3c9fd0803ce8000000",
          "blockHash": "0x30b45fe7d831aede9587a5dcf22a7217aaa5303580e5d2632d5f2011069db58b",
          "blockNumber": "0xcb594b",
          "transactionHash": "0x4686f0b9b91e1966a73ee821e0d3beda0be51a2a3162650af52b9a8de1ca6629",
          "transactionIndex": "0x6",
          "logIndex": "0x11",
          "removed": false
        },
        {
          "address": "0x5b83f73357d81f4ae9e08094a0a4469bc77a7d42",
          "topics": [
            "0x90890809c654f11d6e72a28fa60149770a0d11ec6c92319d6ceb2bb0a4ea1a15",
            "0x000000000000000000000000cda2fdb452ff4f5d7ba1c3d5dfcc9cb926a5eb7d"
          ],
          "data": "0x0000000000000000000000000000000000000000033b2e3c9fd0803ce80000000000000000000000000000000000000000000000000000000000000000120994",
          "blockHash": "0x30b45fe7d831aede9587a5dcf22a7217aaa5303580e5d2632d5f2011069db58b",
          "blockNumber": "0xcb594b",
          "transactionHash": "0x4686f0b9b91e1966a73ee821e0d3beda0be51a2a3162650af52b9a8de1ca6629",
          "transactionIndex": "0x6",
          "logIndex": "0x12",
          "removed": false
        }
      ],
      "logsBloom": "0x00000000000000080001010000000100000000000400000080040000000000000000000000000000000000100000000008000000000030000000000000200000000100000040000800000008040000000000000000000000000000000000000000000000020000000000000000000800000000000000800000802010000800000000000800000000000200000000000000000000022000008000400000000000020000000000000001000010000000000081000000004000000000000000000000800002000000000000000000000000002000000080000000000000000020000010000020020000000000000100000000000000400000000400080000000000",
      "type": "0x2",
      "transactionHash": "0x4686f0b9b91e1966a73ee821e0d3beda0be51a2a3162650af52b9a8de1ca6629",
      "transactionIndex": "0x6",
      "blockHash": "0x30b45fe7d831aede9587a5dcf22a7217aaa5303580e5d2632d5f2011069db58b",
      "blockNumber": "0xcb594b",
      "gasUsed": "0x73ff3",
      "effectiveGasPrice": "0xfd",
      "from": "0xcda2fdb452ff4f5d7ba1c3d5dfcc9cb926a5eb7d",
      "to": "0x5b83f73357d81f4ae9e08094a0a4469bc77a7d42",
      "contractAddress": null,
      "l1BaseFeeScalar": "0x186a0",
      "l1BlobBaseFee": "0x9dba228",
      "l1BlobBaseFeeScalar": "0x95506",
      "l1Fee": "0x2051493f01",
      "l1GasPrice": "0x2ff09d5c",
      "l1GasUsed": "0x640"
    },
    {
      "status": "0x1",
      "cumulativeGasUsed": "0x45ccab",
      "logs": [
        {
          "address": "0x5b83f73357d81f4ae9e08094a0a4469bc77a7d42",
          "topics": [
            "0xddf252ad1be2c89b69c2b068fc378daa952ba7f163c4a11628f55a4df523b3ef",
            "0x000000000000000000000000cda2fdb452ff4f5d7ba1c3d5dfcc9cb926a5eb7d",
            "0x0000000000000000000000000000000000000000000000000000000000000000"
          ],
          "data": "0x0000000000000000000000000000000000000000033b2e3c9fd0803ce8000000",
          "blockHash": "0x30b45fe7d831aede9587a5dcf22a7217aaa5303580e5d2632d5f2011069db58b",
          "blockNumber": "0xcb594b",
          "transactionHash": "0x210228013f92c2923bed4ea426a4a776d828ae1599f86642364145d8cce902c0",
          "transactionIndex": "0x7",
          "logIndex": "0x13",
          "removed": false
        },
        {
          "address": "0x03c7054bcb39f7b2e5b2c7acb37583e32d70cfa3",
          "topics": [
            "0x8c5be1e5ebec7d5bd14f71427d1e84f3dd0314c0f7b2291e5b200ac8c7c3b925",
            "0x0000000000000000000000005b83f73357d81f4ae9e08094a0a4469bc77a7d42",
            "0x000000000000000000000000807f4e281b7a3b324825c64ca53c69f0b418de40"
          ],
          "data": "0x0000000000000000000000000000000000000000000000000000000000000258",
          "blockHash": "0x30b45fe7d831aede9587a5dcf22a7217aaa5303580e5d2632d5f2011069db58b",
          "blockNumber": "0xcb594b",
          "transactionHash": "0x210228013f92c2923bed4ea426a4a776d828ae1599f86642364145d8cce902c0",
          "transactionIndex": "0x7",
          "logIndex": "0x14",
          "removed": false
        },
        {
          "address": "0x05d032ac25d322df992303dca074ee7392c117b9",
          "topics": [
            "0xddf252ad1be2c89b69c2b068fc378daa952ba7f163c4a11628f55a4df523b3ef",
            "0x0000000000000000000000006407fec527abad1aafdb9a3b5a2171800c21a2fe",
            "0x0000000000000000000000005b83f73357d81f4ae9e08094a0a4469bc77a7d42"
          ],
          "data": "0x000000000000000000000000000000000000000000000000000000000008d0e1",
          "blockHash": "0x30b45fe7d831aede9587a5dcf22a7217aaa5303580e5d2632d5f2011069db58b",
          "blockNumber": "0xcb594b",
          "transactionHash": "0x210228013f92c2923bed4ea426a4a776d828ae1599f86642364145d8cce902c0",
          "transactionIndex": "0x7",
          "logIndex": "0x15",
          "removed": false
        },
        {
          "address": "0x03c7054bcb39f7b2e5b2c7acb37583e32d70cfa3",
          "topics": [
            "0x8c5be1e5ebec7d5bd14f71427d1e84f3dd0314c0f7b2291e5b200ac8c7c3b925",
            "0x0000000000000000000000005b83f73357d81f4ae9e08094a0a4469bc77a7d42",
            "0x000000000000000000000000807f4e281b7a3b324825c64ca53c69f0b418de40"
          ],
          "data": "0x0000000000000000000000000000000000000000000000000000000000000000",
          "blockHash": "0x30b45fe7d831aede9587a5dcf22a7217aaa5303580e5d2632d5f2011069db58b",
          "blockNumber": "0xcb594b",
          "transactionHash": "0x210228013f92c2923bed4ea426a4a776d828ae1599f86642364145d8cce902c0",
          "transactionIndex": "0x7",
          "logIndex": "0x16",
          "removed": false
        },
        {
          "address": "0x03c7054bcb39f7b2e5b2c7acb37583e32d70cfa3",
          "topics": [
            "0xddf252ad1be2c89b69c2b068fc378daa952ba7f163c4a11628f55a4df523b3ef",
            "0x0000000000000000000000005b83f73357d81f4ae9e08094a0a4469bc77a7d42",
            "0x0000000000000000000000006407fec527abad1aafdb9a3b5a2171800c21a2fe"
          ],
          "data": "0x0000000000000000000000000000000000000000000000000000000000000258",
          "blockHash": "0x30b45fe7d831aede9587a5dcf22a7217aaa5303580e5d2632d5f2011069db58b",
          "blockNumber": "0xcb594b",
          "transactionHash": "0x210228013f92c2923bed4ea426a4a776d828ae1599f86642364145d8cce902c0",
          "transactionIndex": "0x7",
          "logIndex": "0x17",
          "removed": false
        },
        {
          "address": "0x6407fec527abad1aafdb9a3b5a2171800c21a2fe",
          "topics": [
            "0xc42079f94a6350d7e6235f29174924f928cc2ac818eb64fed8004e115fbcca67",
            "0x000000000000000000000000807f4e281b7a3b324825c64ca53c69f0b418de40",
            "0x0000000000000000000000005b83f73357d81f4ae9e08094a0a4469bc77a7d42"
          ],
          "data": "0x0000000000000000000000000000000000000000000000000000000000000258fffffffffffffffffffffffffffffffffffffffffffffffffffffffffff72f1f000000000000000000000000000000000000001f1541c15853dfbd038908158b00000000000000000000000000000000000000000000000000000004b7f741bf0000000000000000000000000000000000000000000000000000000000010c80",
          "blockHash": "0x30b45fe7d831aede9587a5dcf22a7217aaa5303580e5d2632d5f2011069db58b",
          "blockNumber": "0xcb594b",
          "transactionHash": "0x210228013f92c2923bed4ea426a4a776d828ae1599f86642364145d8cce902c0",
          "transactionIndex": "0x7",
          "logIndex": "0x18",
          "removed": false
        },
        {
          "address": "0x4200000000000000000000000000000000000006",
          "topics": [
            "0x8c5be1e5ebec7d5bd14f71427d1e84f3dd0314c0f7b2291e5b200ac8c7c3b925",
            "0x0000000000000000000000005b83f73357d81f4ae9e08094a0a4469bc77a7d42",
            "0x000000000000000000000000807f4e281b7a3b324825c64ca53c69f0b418de40"
          ],
          "data": "0x0000000000000000000000000000000000000000000000000000c5a03053b984",
          "blockHash": "0x30b45fe7d831aede9587a5dcf22a7217aaa5303580e5d2632d5f2011069db58b",
          "blockNumber": "0xcb594b",
          "transactionHash": "0x210228013f92c2923bed4ea426a4a776d828ae1599f86642364145d8cce902c0",
          "transactionIndex": "0x7",
          "logIndex": "0x19",
          "removed": false
        },
        {
          "address": "0x05d032ac25d322df992303dca074ee7392c117b9",
          "topics": [
            "0xddf252ad1be2c89b69c2b068fc378daa952ba7f163c4a11628f55a4df523b3ef",
            "0x0000000000000000000000009a3b17a2e2daf54ce80f2f4b2c8440902be715de",
            "0x0000000000000000000000005b83f73357d81f4ae9e08094a0a4469bc77a7d42"
          ],
          "data": "0x000000000000000000000000000000000000000000000000000000000008eaa3",
          "blockHash": "0x30b45fe7d831aede9587a5dcf22a7217aaa5303580e5d2632d5f2011069db58b",
          "blockNumber": "0xcb594b",
          "transactionHash": "0x210228013f92c2923bed4ea426a4a776d828ae1599f86642364145d8cce902c0",
          "transactionIndex": "0x7",
          "logIndex": "0x1a",
          "removed": false
        },
        {
          "address": "0x4200000000000000000000000000000000000006",
          "topics": [
            "0xddf252ad1be2c89b69c2b068fc378daa952ba7f163c4a11628f55a4df523b3ef",
            "0x0000000000000000000000005b83f73357d81f4ae9e08094a0a4469bc77a7d42",
            "0x0000000000000000000000009a3b17a2e2daf54ce80f2f4b2c8440902be715de"
          ],
          "data": "0x0000000000000000000000000000000000000000000000000000c5a03053b984",
          "blockHash": "0x30b45fe7d831aede9587a5dcf22a7217aaa5303580e5d2632d5f2011069db58b",
          "blockNumber": "0xcb594b",
          "transactionHash": "0x210228013f92c2923bed4ea426a4a776d828ae1599f86642364145d8cce902c0",
          "transactionIndex": "0x7",
          "logIndex": "0x1b",
          "removed": false
        },
        {
          "address": "0x9a3b17a2e2daf54ce80f2f4b2c8440902be715de",
          "topics": [
            "0xc42079f94a6350d7e6235f29174924f928cc2ac818eb64fed8004e115fbcca67",
            "0x000000000000000000000000807f4e281b7a3b324825c64ca53c69f0b418de40",
            "0x0000000000000000000000005b83f73357d81f4ae9e08094a0a4469bc77a7d42"
          ],
          "data": "0xfffffffffffffffffffffffffffffffffffffffffffffffffffffffffff7155d0000000000000000000000000000000000000000000000000000c5a03053b9840000000000000000000000000000000000004b367753f444c66911f03938ffe80000000000000000000000000000000000000000000000000009789402dceb9200000000000000000000000000000000000000000000000000000000000302c7",
          "blockHash": "0x30b45fe7d831aede9587a5dcf22a7217aaa5303580e5d2632d5f2011069db58b",
          "blockNumber": "0xcb594b",
          "transactionHash": "0x210228013f92c2923bed4ea426a4a776d828ae1599f86642364145d8cce902c0",
          "transactionIndex": "0x7",
          "logIndex": "0x1c",
          "removed": false
        },
        {
          "address": "0x05d032ac25d322df992303dca074ee7392c117b9",
          "topics": [
            "0xddf252ad1be2c89b69c2b068fc378daa952ba7f163c4a11628f55a4df523b3ef",
            "0x0000000000000000000000005b83f73357d81f4ae9e08094a0a4469bc77a7d42",
            "0x000000000000000000000000cda2fdb452ff4f5d7ba1c3d5dfcc9cb926a5eb7d"
          ],
          "data": "0x000000000000000000000000000000000000000000000000000000000011bb84",
          "blockHash": "0x30b45fe7d831aede9587a5dcf22a7217aaa5303580e5d2632d5f2011069db58b",
          "blockNumber": "0xcb594b",
          "transactionHash": "0x210228013f92c2923bed4ea426a4a776d828ae1599f86642364145d8cce902c0",
          "transactionIndex": "0x7",
          "logIndex": "0x1d",
          "removed": false
        },
        {
          "address": "0x5b83f73357d81f4ae9e08094a0a4469bc77a7d42",
          "topics": [
            "0xf279e6a1f5e320cca91135676d9cb6e44ca8a08c0b88342bcdb1144f6511b568",
            "0x000000000000000000000000cda2fdb452ff4f5d7ba1c3d5dfcc9cb926a5eb7d"
          ],
          "data": "0x0000000000000000000000000000000000000000033b2e3c9fd0803ce8000000000000000000000000000000000000000000000000000000000000000011bb84",
          "blockHash": "0x30b45fe7d831aede9587a5dcf22a7217aaa5303580e5d2632d5f2011069db58b",
          "blockNumber": "0xcb594b",
          "transactionHash": "0x210228013f92c2923bed4ea426a4a776d828ae1599f86642364145d8cce902c0",
          "transactionIndex": "0x7",
          "logIndex": "0x1e",
          "removed": false
        }
      ],
      "logsBloom": "0x00000000000000080001010000000100000000000000000080040000000000000000000000000000000000100000000000000000000030000000000000200000000100000040000800000008040000000000000000000000000000000000000000000000020000000000000000000800000000000000800000802010000800000000000800000000000200000000000000000000022000008000400000000810020000000000000001000010000000000081000000004000000000000000000000800002000000000000000000000000002000000080000000000000000020000010040020020000000000000100000000000000000000000400080000000000",
      "type": "0x2",
      "transactionHash": "0x210228013f92c2923bed4ea426a4a776d828ae1599f86642364145d8cce902c0",
      "transactionIndex": "0x7",
      "blockHash": "0x30b45fe7d831aede9587a5dcf22a7217aaa5303580e5d2632d5f2011069db58b",
      "blockNumber": "0xcb594b",
      "gasUsed": "0x75005",
      "effectiveGasPrice": "0xfd",
      "from": "0xcda2fdb452ff4f5d7ba1c3d5dfcc9cb926a5eb7d",
      "to": "0x5b83f73357d81f4ae9e08094a0a4469bc77a7d42",
      "contractAddress": null,
      "l1BaseFeeScalar": "0x186a0",
      "l1BlobBaseFee": "0x9dba228",
      "l1BlobBaseFeeScalar": "0x95506",
      "l1Fee": "0x2051493f01",
      "l1GasPrice": "0x2ff09d5c",
      "l1GasUsed": "0x640"
    }
  ],
  "libraries": [],
  "pending": [],
  "returns": {},
  "timestamp": 1739515344,
  "chain": 60808,
  "commit": "c03c0fa"
}