{
  "transactions": [
    {
      "hash": "0x094f71f8cfc1b2348693da9153c5132ac2536925526425d6f9041471a2d93c15",
      "transactionType": "CALL",
      "contractName": null,
      "contractAddress": "0x33f88c2c609d0c6812c4b16275f636b2458df5b6",
      "function": "redeem(uint256,address)",
      "arguments": [
        "10000000000000000000000000000",
        "0xcdA2fDB452FF4F5D7Ba1C3d5dFCc9CB926A5eb7D"
      ],
      "transaction": {
        "from": "0xcda2fdb452ff4f5d7ba1c3d5dfcc9cb926a5eb7d",
        "to": "0x33f88c2c609d0c6812c4b16275f636b2458df5b6",
        "gas": "0xa4432",
        "value": "0x0",
        "input": "0x7bde82f20000000000000000000000000000000000000000204fce5e3e25026110000000000000000000000000000000cda2fdb452ff4f5d7ba1c3d5dfcc9cb926a5eb7d",
        "nonce": "0x2311",
        "chainId": "0xed88"
      },
      "additionalContracts": [],
      "isFixedGasLimit": false
    }
  ],
  "receipts": [
    {
      "status": "0x1",
      "cumulativeGasUsed": "0x845dc",
      "logs": [
        {
          "address": "0x33f88c2c609d0c6812c4b16275f636b2458df5b6",
          "topics": [
            "0xddf252ad1be2c89b69c2b068fc378daa952ba7f163c4a11628f55a4df523b3ef",
            "0x000000000000000000000000cda2fdb452ff4f5d7ba1c3d5dfcc9cb926a5eb7d",
            "0x0000000000000000000000000000000000000000000000000000000000000000"
          ],
          "data": "0x000000000000000000000000000000000000000000084595161401484a000000",
          "blockHash": "0xa235cc36bc92bbc2eace9c6a634a75fc5996eec36b84044051e99e4a3cd4ecc5",
          "blockNumber": "0xd1fcaa",
          "transactionHash": "0x094f71f8cfc1b2348693da9153c5132ac2536925526425d6f9041471a2d93c15",
          "transactionIndex": "0x1",
          "logIndex": "0x0",
          "removed": false
        },
        {
          "address": "0x03c7054bcb39f7b2e5b2c7acb37583e32d70cfa3",
          "topics": [
            "0x8c5be1e5ebec7d5bd14f71427d1e84f3dd0314c0f7b2291e5b200ac8c7c3b925",
            "0x00000000000000000000000033f88c2c609d0c6812c4b16275f636b2458df5b6",
            "0x000000000000000000000000807f4e281b7a3b324825c64ca53c69f0b418de40"
          ],
          "data": "0x0000000000000000000000000000000000000000000000000000000000000005",
          "blockHash": "0xa235cc36bc92bbc2eace9c6a634a75fc5996eec36b84044051e99e4a3cd4ecc5",
          "blockNumber": "0xd1fcaa",
          "transactionHash": "0x094f71f8cfc1b2348693da9153c5132ac2536925526425d6f9041471a2d93c15",
          "transactionIndex": "0x1",
          "logIndex": "0x1",
          "removed": false
        },
        {
          "address": "0x05d032ac25d322df992303dca074ee7392c117b9",
          "topics": [
            "0xddf252ad1be2c89b69c2b068fc378daa952ba7f163c4a11628f55a4df523b3ef",
            "0x0000000000000000000000006407fec527abad1aafdb9a3b5a2171800c21a2fe",
            "0x00000000000000000000000033f88c2c609d0c6812c4b16275f636b2458df5b6"
          ],
          "data": "0x0000000000000000000000000000000000000000000000000000000000000edc",
          "blockHash": "0xa235cc36bc92bbc2eace9c6a634a75fc5996eec36b84044051e99e4a3cd4ecc5",
          "blockNumber": "0xd1fcaa",
          "transactionHash": "0x094f71f8cfc1b2348693da9153c5132ac2536925526425d6f9041471a2d93c15",
          "transactionIndex": "0x1",
          "logIndex": "0x2",
          "removed": false
        },
        {
          "address": "0x03c7054bcb39f7b2e5b2c7acb37583e32d70cfa3",
          "topics": [
            "0x8c5be1e5ebec7d5bd14f71427d1e84f3dd0314c0f7b2291e5b200ac8c7c3b925",
            "0x00000000000000000000000033f88c2c609d0c6812c4b16275f636b2458df5b6",
            "0x000000000000000000000000807f4e281b7a3b324825c64ca53c69f0b418de40"
          ],
          "data": "0x0000000000000000000000000000000000000000000000000000000000000000",
          "blockHash": "0xa235cc36bc92bbc2eace9c6a634a75fc5996eec36b84044051e99e4a3cd4ecc5",
          "blockNumber": "0xd1fcaa",
          "transactionHash": "0x094f71f8cfc1b2348693da9153c5132ac2536925526425d6f9041471a2d93c15",
          "transactionIndex": "0x1",
          "logIndex": "0x3",
          "removed": false
        },
        {
          "address": "0x03c7054bcb39f7b2e5b2c7acb37583e32d70cfa3",
          "topics": [
            "0xddf252ad1be2c89b69c2b068fc378daa952ba7f163c4a11628f55a4df523b3ef",
            "0x00000000000000000000000033f88c2c609d0c6812c4b16275f636b2458df5b6",
            "0x0000000000000000000000006407fec527abad1aafdb9a3b5a2171800c21a2fe"
          ],
          "data": "0x0000000000000000000000000000000000000000000000000000000000000005",
          "blockHash": "0xa235cc36bc92bbc2eace9c6a634a75fc5996eec36b84044051e99e4a3cd4ecc5",
          "blockNumber": "0xd1fcaa",
          "transactionHash": "0x094f71f8cfc1b2348693da9153c5132ac2536925526425d6f9041471a2d93c15",
          "transactionIndex": "0x1",
          "logIndex": "0x4",
          "removed": false
        },
        {
          "address": "0x6407fec527abad1aafdb9a3b5a2171800c21a2fe",
          "topics": [
            "0xc42079f94a6350d7e6235f29174924f928cc2ac818eb64fed8004e115fbcca67",
            "0x000000000000000000000000807f4e281b7a3b324825c64ca53c69f0b418de40",
            "0x00000000000000000000000033f88c2c609d0c6812c4b16275f636b2458df5b6"
          ],
          "data": "0x0000000000000000000000000000000000000000000000000000000000000005fffffffffffffffffffffffffffffffffffffffffffffffffffffffffffff124000000000000000000000000000000000000001ed71a137a49e974338fac4e9b000000000000000000000000000000000000000000000000000000055499266f0000000000000000000000000000000000000000000000000000000000010be3",
          "blockHash": "0xa235cc36bc92bbc2eace9c6a634a75fc5996eec36b84044051e99e4a3cd4ecc5",
          "blockNumber": "0xd1fcaa",
          "transactionHash": "0x094f71f8cfc1b2348693da9153c5132ac2536925526425d6f9041471a2d93c15",
          "transactionIndex": "0x1",
          "logIndex": "0x5",
          "removed": false
        },
        {
          "address": "0x4200000000000000000000000000000000000006",
          "topics": [
            "0x8c5be1e5ebec7d5bd14f71427d1e84f3dd0314c0f7b2291e5b200ac8c7c3b925",
            "0x00000000000000000000000033f88c2c609d0c6812c4b16275f636b2458df5b6",
            "0x000000000000000000000000807f4e281b7a3b324825c64ca53c69f0b418de40"
          ],
          "data": "0x000000000000000000000000000000000000000000000000000001ae1da3e791",
          "blockHash": "0xa235cc36bc92bbc2eace9c6a634a75fc5996eec36b84044051e99e4a3cd4ecc5",
          "blockNumber": "0xd1fcaa",
          "transactionHash": "0x094f71f8cfc1b2348693da9153c5132ac2536925526425d6f9041471a2d93c15",
          "transactionIndex": "0x1",
          "logIndex": "0x6",
          "removed": false
        },
        {
          "address": "0x05d032ac25d322df992303dca074ee7392c117b9",
          "topics": [
            "0xddf252ad1be2c89b69c2b068fc378daa952ba7f163c4a11628f55a4df523b3ef",
            "0x0000000000000000000000009a3b17a2e2daf54ce80f2f4b2c8440902be715de",
            "0x00000000000000000000000033f88c2c609d0c6812c4b16275f636b2458df5b6"
          ],
          "data": "0x000000000000000000000000000000000000000000000000000000000000139a",
          "blockHash": "0xa235cc36bc92bbc2eace9c6a634a75fc5996eec36b84044051e99e4a3cd4ecc5",
          "blockNumber": "0xd1fcaa",
          "transactionHash": "0x094f71f8cfc1b2348693da9153c5132ac2536925526425d6f9041471a2d93c15",
          "transactionIndex": "0x1",
          "logIndex": "0x7",
          "removed": false
        },
        {
          "address": "0x4200000000000000000000000000000000000006",
          "topics": [
            "0xddf252ad1be2c89b69c2b068fc378daa952ba7f163c4a11628f55a4df523b3ef",
            "0x00000000000000000000000033f88c2c609d0c6812c4b16275f636b2458df5b6",
            "0x0000000000000000000000009a3b17a2e2daf54ce80f2f4b2c8440902be715de"
          ],
          "data": "0x000000000000000000000000000000000000000000000000000001ae1da3e791",
          "blockHash": "0xa235cc36bc92bbc2eace9c6a634a75fc5996eec36b84044051e99e4a3cd4ecc5",
          "blockNumber": "0xd1fcaa",
          "transactionHash": "0x094f71f8cfc1b2348693da9153c5132ac2536925526425d6f9041471a2d93c15",
          "transactionIndex": "0x1",
          "logIndex": "0x8",
          "removed": false
        },
        {
          "address": "0x9a3b17a2e2daf54ce80f2f4b2c8440902be715de",
          "topics": [
            "0xc42079f94a6350d7e6235f29174924f928cc2ac818eb64fed8004e115fbcca67",
            "0x000000000000000000000000807f4e281b7a3b324825c64ca53c69f0b418de40",
            "0x00000000000000000000000033f88c2c609d0c6812c4b16275f636b2458df5b6"
          ],
          "data": "0xffffffffffffffffffffffffffffffffffffffffffffffffffffffffffffec66000000000000000000000000000000000000000000000000000001ae1da3e7910000000000000000000000000000000000004ad52928fc5903411a97086a1dfe0000000000000000000000000000000000000000000000000012563dad7f42cc0000000000000000000000000000000000000000000000000000000000030262",
          "blockHash": "0xa235cc36bc92bbc2eace9c6a634a75fc5996eec36b84044051e99e4a3cd4ecc5",
          "blockNumber": "0xd1fcaa",
          "transactionHash": "0x094f71f8cfc1b2348693da9153c5132ac2536925526425d6f9041471a2d93c15",
          "transactionIndex": "0x1",
          "logIndex": "0x9",
          "removed": false
        },
        {
          "address": "0x05d032ac25d322df992303dca074ee7392c117b9",
          "topics": [
            "0xddf252ad1be2c89b69c2b068fc378daa952ba7f163c4a11628f55a4df523b3ef",
            "0x00000000000000000000000033f88c2c609d0c6812c4b16275f636b2458df5b6",
            "0x000000000000000000000000cda2fdb452ff4f5d7ba1c3d5dfcc9cb926a5eb7d"
          ],
          "data": "0x0000000000000000000000000000000000000000000000000000000000002276",
          "blockHash": "0xa235cc36bc92bbc2eace9c6a634a75fc5996eec36b84044051e99e4a3cd4ecc5",
          "blockNumber": "0xd1fcaa",
          "transactionHash": "0x094f71f8cfc1b2348693da9153c5132ac2536925526425d6f9041471a2d93c15",
          "transactionIndex": "0x1",
          "logIndex": "0xa",
          "removed": false
        }
      ],
      "logsBloom": "0x0000000000000000000001000000010000400040000000008004000000000000000000000000000000000010000000000000000000003000000000000020000000000000004000080000000804000000000000000000000000000000000000000000000002000000000000000000080000000000000080000090201000080000000000080000000000020000000000000000000002200000000040000000000002000000000000000100001000000000008100000000400000000000000000000000000a000000000000000000000000002000000080000000000008000020000010004020020000000000000000000000000000000000000400080000000000",
      "type": "0x2",
      "transactionHash": "0x094f71f8cfc1b2348693da9153c5132ac2536925526425d6f9041471a2d93c15",
      "transactionIndex": "0x1",
      "blockHash": "0xa235cc36bc92bbc2eace9c6a634a75fc5996eec36b84044051e99e4a3cd4ecc5",
      "blockNumber": "0xd1fcaa",
      "gasUsed": "0x76ec5",
      "effectiveGasPrice": "0xfd",
      "from": "0xcda2fdb452ff4f5d7ba1c3d5dfcc9cb926a5eb7d",
      "to": "0x33f88c2c609d0c6812c4b16275f636b2458df5b6",
      "contractAddress": null,
      "l1BaseFeeScalar": "0x186a0",
      "l1BlobBaseFee": "0x20ccc68",
      "l1BlobBaseFeeScalar": "0x95506",
      "l1Fee": "0x1c5a7a54cd",
      "l1GasPrice": "0x2c94f6b1",
      "l1GasUsed": "0x640"
    }
  ],
  "libraries": [],
  "pending": [],
  "returns": {},
  "timestamp": 1740385406,
  "chain": 60808,
  "commit": "c03c0fa"
}