{
  "transactions": [
    {
      "hash": "0x4f3b77ea75bc02e2fecb0d149e856590476b680281151eddce2aede207e1b628",
      "transactionType": "CALL",
      "contractName": null,
      "contractAddress": "0xf9bcffb46e008ff75006a7c906976bdc6d89615d",
      "function": "setFee(uint256)",
      "arguments": [
        "1000"
      ],
      "transaction": {
        "from": "0xcda2fdb452ff4f5d7ba1c3d5dfcc9cb926a5eb7d",
        "to": "0xf9bcffb46e008ff75006a7c906976bdc6d89615d",
        "gas": "0x9b21",
        "value": "0x0",
        "input": "0x69fe0e2d00000000000000000000000000000000000000000000000000000000000003e8",
        "nonce": "0x2c90",
        "chainId": "0xed88"
      },
      "additionalContracts": [],
      "isFixedGasLimit": false
    }
  ],
  "receipts": [
    {
      "status": "0x1",
      "cumulativeGasUsed": "0x43034",
      "logs": [],
      "logsBloom": "0x00000000000000000000000000000000000000000000000000000000000000000000000000000000000000000000000000000000000000000000000000000000000000000000000000000000000000000000000000000000000000000000000000000000000000000000000000000000000000000000000000000000000000000000000000000000000000000000000000000000000000000000000000000000000000000000000000000000000000000000000000000000000000000000000000000000000000000000000000000000000000000000000000000000000000000000000000000000000000000000000000000000000000000000000000000000",
      "type": "0x2",
      "transactionHash": "0x4f3b77ea75bc02e2fecb0d149e856590476b680281151eddce2aede207e1b628",
      "transactionIndex": "0x2",
      "blockHash": "0x1d15963b6fd1dc49ebf001725c7709703255f92f046e113064004086a99e43af",
      "blockNumber": "0xf2b63f",
      "gasUsed": "0x7050",
      "effectiveGasPrice": "0xfd",
      "from": "0xcda2fdb452ff4f5d7ba1c3d5dfcc9cb926a5eb7d",
      "to": "0xf9bcffb46e008ff75006a7c906976bdc6d89615d",
      "contractAddress": null,
      "l1BaseFeeScalar": "0x989680",
      "l1BlobBaseFee": "0x427eabd",
      "l1BlobBaseFeeScalar": "0x95506",
      "l1Fee": "0x5b60c83acb5",
      "l1GasPrice": "0x17607c48",
      "l1GasUsed": "0x640"
    }
  ],
  "libraries": [],
  "pending": [],
  "returns": {},
  "timestamp": 1744674728,
  "chain": 60808,
  "commit": "76f5463"
}