{
  "transactions": [
    {
      "hash": "0x87956e33466e301bad7bd5b81f253514940e88c971258dd7d11d3527574dd750",
      "transactionType": "CALL",
      "contractName": null,
      "contractAddress": "0x03c7054bcb39f7b2e5b2c7acb37583e32d70cfa3",
      "function": "approve(address,uint256)",
      "arguments": [
        "0x7b67119A4Bf877920aC9fF403FBE920983aFBF1a",
        "115792089237316195423570985008687907853269984665640564039457584007913129639935"
      ],
      "transaction": {
        "from": "0xcda2fdb452ff4f5d7ba1c3d5dfcc9cb926a5eb7d",
        "to": "0x03c7054bcb39f7b2e5b2c7acb37583e32d70cfa3",
        "gas": "0x109f6",
        "value": "0x0",
        "input": "0x095ea7b30000000000000000000000007b67119a4bf877920ac9ff403fbe920983afbf1affffffffffffffffffffffffffffffffffffffffffffffffffffffffffffffff",
        "nonce": "0x2292",
        "chainId": "0xed88"
      },
      "additionalContracts": [],
      "isFixedGasLimit": false
    },
    {
      "hash": "0x147892507bac4a331984431f6e9cc562f701a02f228463a22aed1d78bb0a3a5d",
      "transactionType": "CALL",
      "contractName": null,
      "contractAddress": "0x4200000000000000000000000000000000000006",
      "function": "approve(address,uint256)",
      "arguments": [
        "0x7b67119A4Bf877920aC9fF403FBE920983aFBF1a",
        "115792089237316195423570985008687907853269984665640564039457584007913129639935"
      ],
      "transaction": {
        "from": "0xcda2fdb452ff4f5d7ba1c3d5dfcc9cb926a5eb7d",
        "to": "0x4200000000000000000000000000000000000006",
        "gas": "0xfa0a",
        "value": "0x0",
        "input": "0x095ea7b30000000000000000000000007b67119a4bf877920ac9ff403fbe920983afbf1affffffffffffffffffffffffffffffffffffffffffffffffffffffffffffffff",
        "nonce": "0x2293",
        "chainId": "0xed88"
      },
      "additionalContracts": [],
      "isFixedGasLimit": false
    },
    {
      "hash": "0x5fb179b646505f49055b348137243c343d0822d4a4120bb5faba174ffc4a1a9e",
      "transactionType": "CALL",
      "contractName": null,
      "contractAddress": "0x7b67119a4bf877920ac9ff403fbe920983afbf1a",
      "function": "initialize(address,uint256,uint256[])",
      "arguments": [
        "0xcdA2fDB452FF4F5D7Ba1C3d5dFCc9CB926A5eb7D",
        "100000000000000000000000000000",
        "[52366, 18951386352910123]"
      ],
      "transaction": {
        "from": "0xcda2fdb452ff4f5d7ba1c3d5dfcc9cb926a5eb7d",
        "to": "0x7b67119a4bf877920ac9ff403fbe920983afbf1a",
        "gas": "0x40de0",
        "value": "0x0",
        "input": "0x5c199c09000000000000000000000000cda2fdb452ff4f5d7ba1c3d5dfcc9cb926a5eb7d0000000000000000000000000000000000000001431e0fae6d7217caa000000000000000000000000000000000000000000000000000000000000000000000600000000000000000000000000000000000000000000000000000000000000002000000000000000000000000000000000000000000000000000000000000cc8e0000000000000000000000000000000000000000000000000043542f7b90ff2b",
        "nonce": "0x2294",
        "chainId": "0xed88"
      },
      "additionalContracts": [],
      "isFixedGasLimit": false
    }
  ],
  "receipts": [
    {
      "status": "0x1",
      "cumulativeGasUsed": "0x3db4b",
      "logs": [
        {
          "address": "0x03c7054bcb39f7b2e5b2c7acb37583e32d70cfa3",
          "topics": [
            "0x8c5be1e5ebec7d5bd14f71427d1e84f3dd0314c0f7b2291e5b200ac8c7c3b925",
            "0x000000000000000000000000cda2fdb452ff4f5d7ba1c3d5dfcc9cb926a5eb7d",
            "0x0000000000000000000000007b67119a4bf877920ac9ff403fbe920983afbf1a"
          ],
          "data": "0xffffffffffffffffffffffffffffffffffffffffffffffffffffffffffffffff",
          "blockHash": "0x805d8965859e8c07c9669e0819ba58839cb7779f618962972a551d46dea38a61",
          "blockNumber": "0xc84135",
          "transactionHash": "0x87956e33466e301bad7bd5b81f253514940e88c971258dd7d11d3527574dd750",
          "transactionIndex": "0x2",
          "logIndex": "0x1",
          "removed": false
        }
      ],
      "logsBloom": "0x00000000000000000000000000000100000000000000000000000000000000000000000000000000000000000000000000000000000000000000000000200000000000000000000000000000040000000000000000000002000000000000000000000000000000000000000000000000000000000000800000000000000000000080000000000000000000001000000000000000000000000000400000000000020000000000000000000000000000000000000000004000000000000000000000000000000000000000000000000000002000000000000000000000000000000010000000000000000000000000000000000000000000000000000000000000",
      "type": "0x2",
      "transactionHash": "0x87956e33466e301bad7bd5b81f253514940e88c971258dd7d11d3527574dd750",
      "transactionIndex": "0x2",
      "blockHash": "0x805d8965859e8c07c9669e0819ba58839cb7779f618962972a551d46dea38a61",
      "blockNumber": "0xc84135",
      "gasUsed": "0xb5db",
      "effectiveGasPrice": "0xfd",
      "from": "0xcda2fdb452ff4f5d7ba1c3d5dfcc9cb926a5eb7d",
      "to": "0x03c7054bcb39f7b2e5b2c7acb37583e32d70cfa3",
      "contractAddress": null,
      "l1BaseFeeScalar": "0x186a0",
      "l1BlobBaseFee": "0x317",
      "l1BlobBaseFeeScalar": "0x95506",
      "l1Fee": "0x33cef13938",
      "l1GasPrice": "0x52e4b3fa",
      "l1GasUsed": "0x640"
    },
    {
      "status": "0x1",
      "cumulativeGasUsed": "0x49052",
      "logs": [
        {
          "address": "0x4200000000000000000000000000000000000006",
          "topics": [
            "0x8c5be1e5ebec7d5bd14f71427d1e84f3dd0314c0f7b2291e5b200ac8c7c3b925",
            "0x000000000000000000000000cda2fdb452ff4f5d7ba1c3d5dfcc9cb926a5eb7d",
            "0x0000000000000000000000007b67119a4bf877920ac9ff403fbe920983afbf1a"
          ],
          "data": "0xffffffffffffffffffffffffffffffffffffffffffffffffffffffffffffffff",
          "blockHash": "0x805d8965859e8c07c9669e0819ba58839cb7779f618962972a551d46dea38a61",
          "blockNumber": "0xc84135",
          "transactionHash": "0x147892507bac4a331984431f6e9cc562f701a02f228463a22aed1d78bb0a3a5d",
          "transactionIndex": "0x3",
          "logIndex": "0x2",
          "removed": false
        }
      ],
      "logsBloom": "0x00000000000000000000000000000000000000000000000000040000000000000000000000000000000000100000000000000000000000000000000000200000000000000000000000000000040000000000000000000002000000000000000000000000000000000000000000000000000000000000800000000000000000000080000000000000000000001000000000000000002000000000000000000000020000000000000000000000000000000000000000004000000000000000000000000000000000000000000000000000000000000000000000000000000000000010000000000000000000000000000000000000000000000000000000000000",
      "type": "0x2",
      "transactionHash": "0x147892507bac4a331984431f6e9cc562f701a02f228463a22aed1d78bb0a3a5d",
      "transactionIndex": "0x3",
      "blockHash": "0x805d8965859e8c07c9669e0819ba58839cb7779f618962972a551d46dea38a61",
      "blockNumber": "0xc84135",
      "gasUsed": "0xb507",
      "effectiveGasPrice": "0xfd",
      "from": "0xcda2fdb452ff4f5d7ba1c3d5dfcc9cb926a5eb7d",
      "to": "0x4200000000000000000000000000000000000006",
      "contractAddress": null,
      "l1BaseFeeScalar": "0x186a0",
      "l1BlobBaseFee": "0x317",
      "l1BlobBaseFeeScalar": "0x95506",
      "l1Fee": "0x33cef13938",
      "l1GasPrice": "0x52e4b3fa",
      "l1GasUsed": "0x640"
    },
    {
      "status": "0x1",
      "cumulativeGasUsed": "0x77fba",
      "logs": [
        {
          "address": "0x03c7054bcb39f7b2e5b2c7acb37583e32d70cfa3",
          "topics": [
            "0xddf252ad1be2c89b69c2b068fc378daa952ba7f163c4a11628f55a4df523b3ef",
            "0x000000000000000000000000cda2fdb452ff4f5d7ba1c3d5dfcc9cb926a5eb7d",
            "0x0000000000000000000000007b67119a4bf877920ac9ff403fbe920983afbf1a"
          ],
          "data": "0x000000000000000000000000000000000000000000000000000000000000cc8e",
          "blockHash": "0x805d8965859e8c07c9669e0819ba58839cb7779f618962972a551d46dea38a61",
          "blockNumber": "0xc84135",
          "transactionHash": "0x5fb179b646505f49055b348137243c343d0822d4a4120bb5faba174ffc4a1a9e",
          "transactionIndex": "0x4",
          "logIndex": "0x3",
          "removed": false
        },
        {
          "address": "0x4200000000000000000000000000000000000006",
          "topics": [
            "0xddf252ad1be2c89b69c2b068fc378daa952ba7f163c4a11628f55a4df523b3ef",
            "0x000000000000000000000000cda2fdb452ff4f5d7ba1c3d5dfcc9cb926a5eb7d",
            "0x0000000000000000000000007b67119a4bf877920ac9ff403fbe920983afbf1a"
          ],
          "data": "0x0000000000000000000000000000000000000000000000000043542f7b90ff2b",
          "blockHash": "0x805d8965859e8c07c9669e0819ba58839cb7779f618962972a551d46dea38a61",
          "blockNumber": "0xc84135",
          "transactionHash": "0x5fb179b646505f49055b348137243c343d0822d4a4120bb5faba174ffc4a1a9e",
          "transactionIndex": "0x4",
          "logIndex": "0x4",
          "removed": false
        },
        {
          "address": "0x7b67119a4bf877920ac9ff403fbe920983afbf1a",
          "topics": [
            "0xddf252ad1be2c89b69c2b068fc378daa952ba7f163c4a11628f55a4df523b3ef",
            "0x0000000000000000000000000000000000000000000000000000000000000000",
            "0x000000000000000000000000cda2fdb452ff4f5d7ba1c3d5dfcc9cb926a5eb7d"
          ],
          "data": "0x0000000000000000000000000000000000000001431e0fae6d7217caa0000000",
          "blockHash": "0x805d8965859e8c07c9669e0819ba58839cb7779f618962972a551d46dea38a61",
          "blockNumber": "0xc84135",
          "transactionHash": "0x5fb179b646505f49055b348137243c343d0822d4a4120bb5faba174ffc4a1a9e",
          "transactionIndex": "0x4",
          "logIndex": "0x5",
          "removed": false
        }
      ],
      "logsBloom": "0x00000000000000000000000000000100000000000000000000040000000000000000000000000000000000100020000000000000000000000000000000000000000000000000000000000008040000000000000000000002000000000000000000000000020000000000000000000800000000000000800000000010000000000080000000000000000000001000000000000000002000000000400000000000000000000000000000000000000000000000000000004000000000000400000000000002004000000000000000000000002000000000000000000000000020000000000000000000000000000000000000000000000000000000000000000000",
      "type": "0x2",
      "transactionHash": "0x5fb179b646505f49055b348137243c343d0822d4a4120bb5faba174ffc4a1a9e",
      "transactionIndex": "0x4",
      "blockHash": "0x805d8965859e8c07c9669e0819ba58839cb7779f618962972a551d46dea38a61",
      "blockNumber": "0xc84135",
      "gasUsed": "0x2ef68",
      "effectiveGasPrice": "0xfd",
      "from": "0xcda2fdb452ff4f5d7ba1c3d5dfcc9cb926a5eb7d",
      "to": "0x7b67119a4bf877920ac9ff403fbe920983afbf1a",
      "contractAddress": null,
      "l1BaseFeeScalar": "0x186a0",
      "l1BlobBaseFee": "0x317",
      "l1BlobBaseFeeScalar": "0x95506",
      "l1Fee": "0x3d942ff2f3",
      "l1GasPrice": "0x52e4b3fa",
      "l1GasUsed": "0x76d"
    }
  ],
  "libraries": [],
  "pending": [],
  "returns": {},
  "timestamp": 1739109779,
  "chain": 60808,
  "commit": "c03c0fa"
}