{
  "transactions": [
    {
      "hash": "0x668e2b8d8925afe14ec67924026517bde933c57f643b4b6e39534a7c125d530c",
      "transactionType": "CREATE",
      "contractName": "Rescue",
      "contractAddress": "0xee1d78df748f54eebf4ed39cb4e8616f938e16b0",
      "function": null,
      "arguments": null,
      "transaction": {
        "from": "0xcda2fdb452ff4f5d7ba1c3d5dfcc9cb926a5eb7d",
        "gas": "0x52471",
        "value": "0x0",
        "input": "0x608060405234801561000f575f80fd5b50338061003557604051631e4fbdf760e01b81525f600482015260240160405180910390fd5b61003e81610044565b50610093565b5f80546001600160a01b038381166001600160a01b0319831681178455604051919092169283917f8be0079c531659141344cd1fd0a4f28419497f9722a3daafe3b4186f6b6457e09190a35050565b610341806100a05f395ff3fe608060405234801561000f575f80fd5b506004361061004a575f3560e01c806347d1cd491461004e578063715018a6146100635780638da5cb5b1461006b578063f2fde38b14610089575b5f80fd5b61006161005c366004610275565b61009c565b005b61006161018a565b5f54604080516001600160a01b039092168252519081900360200190f35b6100616100973660046102b5565b61019d565b6040516370a0823160e01b81526001600160a01b0383811660048301525f91908316906370a0823190602401602060405180830381865afa1580156100e3573d5f803e3d5ffd5b505050506040513d601f19601f8201168201806040525081019061010791906102d5565b6040516323b872dd60e01b81526001600160a01b038581166004830152868116602483015260448201839052919250908316906323b872dd906064016020604051808303815f875af115801561015f573d5f803e3d5ffd5b505050506040513d601f19601f8201168201806040525081019061018391906102ec565b5050505050565b6101926101df565b61019b5f61020b565b565b6101a56101df565b6001600160a01b0381166101d357604051631e4fbdf760e01b81525f60048201526024015b60405180910390fd5b6101dc8161020b565b50565b5f546001600160a01b0316331461019b5760405163118cdaa760e01b81523360048201526024016101ca565b5f80546001600160a01b038381166001600160a01b0319831681178455604051919092169283917f8be0079c531659141344cd1fd0a4f28419497f9722a3daafe3b4186f6b6457e09190a35050565b80356001600160a01b0381168114610270575f80fd5b919050565b5f805f60608486031215610287575f80fd5b6102908461025a565b925061029e6020850161025a565b91506102ac6040850161025a565b90509250925092565b5f602082840312156102c5575f80fd5b6102ce8261025a565b9392505050565b5f602082840312156102e5575f80fd5b5051919050565b5f602082840312156102fc575f80fd5b815180151581146102ce575f80fdfea264697066735822122066661b9e70f02148872be7654cbadcb1d810c31b1dfe6b621c1d2a0075c5009564736f6c63430008140033",
        "nonce": "0x2cc2",
        "chainId": "0xed88"
      },
      "additionalContracts": [],
      "isFixedGasLimit": false
    },
    {
      "hash": "0x1d65489d3d7120b477c980dc956b190b39d45166e6fc6bebe84e13ffd84972e2",
      "transactionType": "CALL",
      "contractName": null,
      "contractAddress": "0x6d380d6fd1f36f3c46e13e7f6dc38a1261bfead1",
      "function": "execute(address,bytes)",
      "arguments": [
        "0x03C7054BCB39f7b2e5B2c7AcB37583e32D70Cfa3",
        "0x095ea7b3000000000000000000000000ee1d78df748f54eebf4ed39cb4e8616f938e16b0ffffffffffffffffffffffffffffffffffffffffffffffffffffffffffffffff"
      ],
      "transaction": {
        "from": "0xcda2fdb452ff4f5d7ba1c3d5dfcc9cb926a5eb7d",
        "to": "0x6d380d6fd1f36f3c46e13e7f6dc38a1261bfead1",
        "gas": "0x120b8",
        "value": "0x0",
        "input": "0x1cff79cd00000000000000000000000003c7054bcb39f7b2e5b2c7acb37583e32d70cfa300000000000000000000000000000000000000000000000000000000000000400000000000000000000000000000000000000000000000000000000000000044095ea7b3000000000000000000000000ee1d78df748f54eebf4ed39cb4e8616f938e16b0ffffffffffffffffffffffffffffffffffffffffffffffffffffffffffffffff00000000000000000000000000000000000000000000000000000000",
        "nonce": "0x2cc3",
        "chainId": "0xed88"
      },
      "additionalContracts": [],
      "isFixedGasLimit": false
    },
    {
      "hash": "0x50663a4bd54c65709ef0a2bfa48458f198333d7d448637a2e2bf699162899377",
      "transactionType": "CALL",
      "contractName": "Rescue",
      "contractAddress": "0xee1d78df748f54eebf4ed39cb4e8616f938e16b0",
      "function": "rescue(address,address,address)",
      "arguments": [
        "0xcdA2fDB452FF4F5D7Ba1C3d5dFCc9CB926A5eb7D",
        "0x6D380D6Fd1f36f3c46e13E7f6dc38A1261bfead1",
        "0x03C7054BCB39f7b2e5B2c7AcB37583e32D70Cfa3"
      ],
      "transaction": {
        "from": "0xcda2fdb452ff4f5d7ba1c3d5dfcc9cb926a5eb7d",
        "to": "0xee1d78df748f54eebf4ed39cb4e8616f938e16b0",
        "gas": "0x12358",
        "value": "0x0",
        "input": "0x47d1cd49000000000000000000000000cda2fdb452ff4f5d7ba1c3d5dfcc9cb926a5eb7d0000000000000000000000006d380d6fd1f36f3c46e13e7f6dc38a1261bfead100000000000000000000000003c7054bcb39f7b2e5b2c7acb37583e32d70cfa3",
        "nonce": "0x2cc4",
        "chainId": "0xed88"
      },
      "additionalContracts": [],
      "isFixedGasLimit": false
    },
    {
      "hash": "0x4a5b0cd7960650b1a719784f1fb93ed0d41a62aad0fc3e13afc599272a6bd986",
      "transactionType": "CALL",
      "contractName": null,
      "contractAddress": "0x6d380d6fd1f36f3c46e13e7f6dc38a1261bfead1",
      "function": "execute(address,bytes)",
      "arguments": [
        "0x4200000000000000000000000000000000000006",
        "0x095ea7b3000000000000000000000000ee1d78df748f54eebf4ed39cb4e8616f938e16b0ffffffffffffffffffffffffffffffffffffffffffffffffffffffffffffffff"
      ],
      "transaction": {
        "from": "0xcda2fdb452ff4f5d7ba1c3d5dfcc9cb926a5eb7d",
        "to": "0x6d380d6fd1f36f3c46e13e7f6dc38a1261bfead1",
        "gas": "0x11e69",
        "value": "0x0",
        "input": "0x1cff79cd000000000000000000000000420000000000000000000000000000000000000600000000000000000000000000000000000000000000000000000000000000400000000000000000000000000000000000000000000000000000000000000044095ea7b3000000000000000000000000ee1d78df748f54eebf4ed39cb4e8616f938e16b0ffffffffffffffffffffffffffffffffffffffffffffffffffffffffffffffff00000000000000000000000000000000000000000000000000000000",
        "nonce": "0x2cc5",
        "chainId": "0xed88"
      },
      "additionalContracts": [],
      "isFixedGasLimit": false
    },
    {
      "hash": "0xf4ee97d96984784cff14e06c66f36bc8020e48609ed0c0bc0a76face9ef40d4c",
      "transactionType": "CALL",
      "contractName": "Rescue",
      "contractAddress": "0xee1d78df748f54eebf4ed39cb4e8616f938e16b0",
      "function": "rescue(address,address,address)",
      "arguments": [
        "0xcdA2fDB452FF4F5D7Ba1C3d5dFCc9CB926A5eb7D",
        "0x6D380D6Fd1f36f3c46e13E7f6dc38A1261bfead1",
        "0x4200000000000000000000000000000000000006"
      ],
      "transaction": {
        "from": "0xcda2fdb452ff4f5d7ba1c3d5dfcc9cb926a5eb7d",
        "to": "0xee1d78df748f54eebf4ed39cb4e8616f938e16b0",
        "gas": "0x1201b",
        "value": "0x0",
        "input": "0x47d1cd49000000000000000000000000cda2fdb452ff4f5d7ba1c3d5dfcc9cb926a5eb7d0000000000000000000000006d380d6fd1f36f3c46e13e7f6dc38a1261bfead10000000000000000000000004200000000000000000000000000000000000006",
        "nonce": "0x2cc6",
        "chainId": "0xed88"
      },
      "additionalContracts": [],
      "isFixedGasLimit": false
    }
  ],
  "receipts": [
    {
      "status": "0x1",
      "cumulativeGasUsed": "0x4a021",
      "logs": [
        {
          "address": "0xee1d78df748f54eebf4ed39cb4e8616f938e16b0",
          "topics": [
            "0x8be0079c531659141344cd1fd0a4f28419497f9722a3daafe3b4186f6b6457e0",
            "0x0000000000000000000000000000000000000000000000000000000000000000",
            "0x000000000000000000000000cda2fdb452ff4f5d7ba1c3d5dfcc9cb926a5eb7d"
          ],
          "data": "0x",
          "blockHash": "0xbb3b99c13db098a92b11ebc3f474aea7c580df5c79add47f93c62eb7e2479102",
          "blockNumber": "0xf4e079",
          "transactionHash": "0x668e2b8d8925afe14ec67924026517bde933c57f643b4b6e39534a7c125d530c",
          "transactionIndex": "0x1",
          "logIndex": "0x0",
          "removed": false
        }
      ],
      "logsBloom": "0x00000000000000000000000000000000000000000000000000800000000000000000000000000000000000000000000000000000000000000000000000000000000000000000000000000000040000000001000000000000000000000000000000000000020000000000000000000800000000000800800000000000000000400000000000000000000000000000000000000000000000000000000000000000000000000000000000000000000000000001000000004000000000000000000000000000000000000800000000000000000000000000000000000000000020000000000000000000000000000000000000000000000000000000000000000000",
      "type": "0x2",
      "transactionHash": "0x668e2b8d8925afe14ec67924026517bde933c57f643b4b6e39534a7c125d530c",
      "transactionIndex": "0x1",
      "blockHash": "0xbb3b99c13db098a92b11ebc3f474aea7c580df5c79add47f93c62eb7e2479102",
      "blockNumber": "0xf4e079",
      "gasUsed": "0x3f4a6",
      "effectiveGasPrice": "0xfd",
      "from": "0xcda2fdb452ff4f5d7ba1c3d5dfcc9cb926a5eb7d",
      "to": null,
      "contractAddress": "0xee1d78df748f54eebf4ed39cb4e8616f938e16b0",
      "l1BaseFeeScalar": "0x989680",
      "l1BlobBaseFee": "0x11566a477",
      "l1BlobBaseFeeScalar": "0x95506",
      "l1Fee": "0x222cf7ce4665",
      "l1GasPrice": "0x15039b7c",
      "l1GasUsed": "0x27a2"
    },
    {
      "status": "0x1",
      "cumulativeGasUsed": "0x57129",
      "logs": [
        {
          "address": "0x03c7054bcb39f7b2e5b2c7acb37583e32d70cfa3",
          "topics": [
            "0x8c5be1e5ebec7d5bd14f71427d1e84f3dd0314c0f7b2291e5b200ac8c7c3b925",
            "0x0000000000000000000000006d380d6fd1f36f3c46e13e7f6dc38a1261bfead1",
            "0x000000000000000000000000ee1d78df748f54eebf4ed39cb4e8616f938e16b0"
          ],
          "data": "0xffffffffffffffffffffffffffffffffffffffffffffffffffffffffffffffff",
          "blockHash": "0xbb3b99c13db098a92b11ebc3f474aea7c580df5c79add47f93c62eb7e2479102",
          "blockNumber": "0xf4e079",
          "transactionHash": "0x1d65489d3d7120b477c980dc956b190b39d45166e6fc6bebe84e13ffd84972e2",
          "transactionIndex": "0x2",
          "logIndex": "0x1",
          "removed": false
        }
      ],
      "logsBloom": "0x00000000000000000000000000000100000000000000000000000000000000000000000000000000000000000000000000000000001000000000000000200000000000000000000000000000000000000040000000000000000000000000000000000000000000000000000000000000000000000000000000000000000000000000000000000000000000000000000000000000000000000000400000000000020000000000000000000010000000000000000000000000000000000000000000000000000000001000000000000000002000000000000000002000000000000010000000000000000000000000000000000000000000000000000000000004",
      "type": "0x2",
      "transactionHash": "0x1d65489d3d7120b477c980dc956b190b39d45166e6fc6bebe84e13ffd84972e2",
      "transactionIndex": "0x2",
      "blockHash": "0xbb3b99c13db098a92b11ebc3f474aea7c580df5c79add47f93c62eb7e2479102",
      "blockNumber": "0xf4e079",
      "gasUsed": "0xd108",
      "effectiveGasPrice": "0xfd",
      "from": "0xcda2fdb452ff4f5d7ba1c3d5dfcc9cb926a5eb7d",
      "to": "0x6d380d6fd1f36f3c46e13e7f6dc38a1261bfead1",
      "contractAddress": null,
      "l1BaseFeeScalar": "0x989680",
      "l1BlobBaseFee": "0x11566a477",
      "l1BlobBaseFeeScalar": "0x95506",
      "l1Fee": "0x6a18b2e6a32",
      "l1GasPrice": "0x15039b7c",
      "l1GasUsed": "0x7b0"
    },
    {
      "status": "0x1",
      "cumulativeGasUsed": "0x64418",
      "logs": [
        {
          "address": "0x03c7054bcb39f7b2e5b2c7acb37583e32d70cfa3",
          "topics": [
            "0xddf252ad1be2c89b69c2b068fc378daa952ba7f163c4a11628f55a4df523b3ef",
            "0x0000000000000000000000006d380d6fd1f36f3c46e13e7f6dc38a1261bfead1",
            "0x000000000000000000000000cda2fdb452ff4f5d7ba1c3d5dfcc9cb926a5eb7d"
          ],
          "data": "0x00000000000000000000000000000000000000000000000000000000000983ca",
          "blockHash": "0xbb3b99c13db098a92b11ebc3f474aea7c580df5c79add47f93c62eb7e2479102",
          "blockNumber": "0xf4e079",
          "transactionHash": "0x50663a4bd54c65709ef0a2bfa48458f198333d7d448637a2e2bf699162899377",
          "transactionIndex": "0x3",
          "logIndex": "0x2",
          "removed": false
        }
      ],
      "logsBloom": "0x00000000000000000000000000000100000000000000000000000000000000000000000000000000000000000000000000000000001000000000000000000000000000000000000000000008040000000040000000000000000000000000000000000000000000000000000000000000000000000000800000000010000000000000000000000000000000000000000000000000000000000000400000000000000000000000000000000010000000000000000000004000000000000000000000000002000000000000000000000000002000000000000000000000000000000000000000000000000000000000000000000000000000000000000000000000",
      "type": "0x2",
      "transactionHash": "0x50663a4bd54c65709ef0a2bfa48458f198333d7d448637a2e2bf699162899377",
      "transactionIndex": "0x3",
      "blockHash": "0xbb3b99c13db098a92b11ebc3f474aea7c580df5c79add47f93c62eb7e2479102",
      "blockNumber": "0xf4e079",
      "gasUsed": "0xd2ef",
      "effectiveGasPrice": "0xfd",
      "from": "0xcda2fdb452ff4f5d7ba1c3d5dfcc9cb926a5eb7d",
      "to": "0xee1d78df748f54eebf4ed39cb4e8616f938e16b0",
      "contractAddress": null,
      "l1BaseFeeScalar": "0x989680",
      "l1BlobBaseFee": "0x11566a477",
      "l1BlobBaseFeeScalar": "0x95506",
      "l1Fee": "0x667d6f779fe",
      "l1GasPrice": "0x15039b7c",
      "l1GasUsed": "0x76d"
    },
    {
      "status": "0x1",
      "cumulativeGasUsed": "0x71374",
      "logs": [
        {
          "address": "0x4200000000000000000000000000000000000006",
          "topics": [
            "0x8c5be1e5ebec7d5bd14f71427d1e84f3dd0314c0f7b2291e5b200ac8c7c3b925",
            "0x0000000000000000000000006d380d6fd1f36f3c46e13e7f6dc38a1261bfead1",
            "0x000000000000000000000000ee1d78df748f54eebf4ed39cb4e8616f938e16b0"
          ],
          "data": "0xffffffffffffffffffffffffffffffffffffffffffffffffffffffffffffffff",
          "blockHash": "0xbb3b99c13db098a92b11ebc3f474aea7c580df5c79add47f93c62eb7e2479102",
          "blockNumber": "0xf4e079",
          "transactionHash": "0x4a5b0cd7960650b1a719784f1fb93ed0d41a62aad0fc3e13afc599272a6bd986",
          "transactionIndex": "0x4",
          "logIndex": "0x3",
          "removed": false
        }
      ],
      "logsBloom": "0x00000000000000000000000000000000000000000000000000040000000000000000000000000000000000100000000000000000001000000000000000200000000000000000000000000000000000000040000000000000000000000000000000000000000000000000000000000000000000000000000000000000000000000000000000000000000000000000000000000000002000000000000000000000020000000000000000000010000000000000000000000000000000000000000000000000000000001000000000000000000000000000000000002000000000000010000000000000000000000000000000000000000000000000000000000004",
      "type": "0x2",
      "transactionHash": "0x4a5b0cd7960650b1a719784f1fb93ed0d41a62aad0fc3e13afc599272a6bd986",
      "transactionIndex": "0x4",
      "blockHash": "0xbb3b99c13db098a92b11ebc3f474aea7c580df5c79add47f93c62eb7e2479102",
      "blockNumber": "0xf4e079",
      "gasUsed": "0xcf5c",
      "effectiveGasPrice": "0xfd",
      "from": "0xcda2fdb452ff4f5d7ba1c3d5dfcc9cb926a5eb7d",
      "to": "0x6d380d6fd1f36f3c46e13e7f6dc38a1261bfead1",
      "contractAddress": null,
      "l1BaseFeeScalar": "0x989680",
      "l1BlobBaseFee": "0x11566a477",
      "l1BlobBaseFeeScalar": "0x95506",
      "l1Fee": "0x5fff8fafcd2",
      "l1GasPrice": "0x15039b7c",
      "l1GasUsed": "0x6f5"
    },
    {
      "status": "0x1",
      "cumulativeGasUsed": "0x7e40a",
      "logs": [
        {
          "address": "0x4200000000000000000000000000000000000006",
          "topics": [
            "0xddf252ad1be2c89b69c2b068fc378daa952ba7f163c4a11628f55a4df523b3ef",
            "0x0000000000000000000000006d380d6fd1f36f3c46e13e7f6dc38a1261bfead1",
            "0x000000000000000000000000cda2fdb452ff4f5d7ba1c3d5dfcc9cb926a5eb7d"
          ],
          "data": "0x00000000000000000000000000000000000000000000000002fcd8505fd6609c",
          "blockHash": "0xbb3b99c13db098a92b11ebc3f474aea7c580df5c79add47f93c62eb7e2479102",
          "blockNumber": "0xf4e079",
          "transactionHash": "0xf4ee97d96984784cff14e06c66f36bc8020e48609ed0c0bc0a76face9ef40d4c",
          "transactionIndex": "0x5",
          "logIndex": "0x4",
          "removed": false
        }
      ],
      "logsBloom": "0x00000000000000000000000000000000000000000000000000040000000000000000000000000000000000100000000000000000001000000000000000000000000000000000000000000008040000000040000000000000000000000000000000000000000000000000000000000000000000000000800000000010000000000000000000000000000000000000000000000000002000000000000000000000000000000000000000000010000000000000000000004000000000000000000000000002000000000000000000000000000000000000000000000000000000000000000000000000000000000000000000000000000000000000000000000000",
      "type": "0x2",
      "transactionHash": "0xf4ee97d96984784cff14e06c66f36bc8020e48609ed0c0bc0a76face9ef40d4c",
      "transactionIndex": "0x5",
      "blockHash": "0xbb3b99c13db098a92b11ebc3f474aea7c580df5c79add47f93c62eb7e2479102",
      "blockNumber": "0xf4e079",
      "gasUsed": "0xd096",
      "effectiveGasPrice": "0xfd",
      "from": "0xcda2fdb452ff4f5d7ba1c3d5dfcc9cb926a5eb7d",
      "to": "0xee1d78df748f54eebf4ed39cb4e8616f938e16b0",
      "contractAddress": null,
      "l1BaseFeeScalar": "0x989680",
      "l1BlobBaseFee": "0x11566a477",
      "l1BlobBaseFeeScalar": "0x95506",
      "l1Fee": "0x5e8e4183657",
      "l1GasPrice": "0x15039b7c",
      "l1GasUsed": "0x6da"
    }
  ],
  "libraries": [],
  "pending": [],
  "returns": {},
  "timestamp": 1744958492,
  "chain": 60808,
  "commit": "76f5463"
}