{
  "transactions": [
    {
      "hash": "0x96762aa0ec3e64d1aed6a24216ff4645923d4c4a3fe41b587b8fad3bc5d7bafa",
      "transactionType": "CREATE",
      "contractName": "BethVault",
      "contractAddress": "0xd61fd14acec329cabdc0b52d35e718086a558df2",
      "function": null,
      "arguments": [
        "[0x03C7054BCB39f7b2e5B2c7AcB37583e32D70Cfa3, 0x4200000000000000000000000000000000000006]",
        "[0x041a131Fa91Ad61dD85262A42c04975986580d50, 0x5b0cf2b36a65a6BB085D501B971e4c102B9Cd473]",
        "[8, 18]",
        "[3000, 3000]",
        "0x05D032ac25d322df992303dCa074EE7392C117b9",
        "0x807F4E281B7A3B324825C64ca53c69F0b418dE40",
        "0x6Aa54a43d7eEF5b239a18eed3Af4877f46522BCA",
        "0xcb2436774C3e191c85056d248EF4260ce5f27A9D",
        "BTC-ETH",
        "BETH"
      ],
      "transaction": {
        "from": "0xcda2fdb452ff4f5d7ba1c3d5dfcc9cb926a5eb7d",
        "gas": "0x3fe3f7",
        "value": "0x0",
        "input": "0x60806040526002600955600f805460ff60a01b1916905534801562000022575f80fd5b506040516200398a3803806200398a8339810160408190526200004591620005fb565b338a8a8a8a8a8a8a8a8a8a60036200005e8382620007d0565b5060046200006d8282620007d0565b5050885162000085915060059060208b0190620001c5565b5086516200009b9060079060208a0190620001c5565b50600880546001600160a01b0319166001600160a01b0386161790558551620000cc9060069060208901906200022d565b50600c80546001600160a01b038086166001600160a01b031992831617909255600d8054858416908316179055600e80549284169290911691909117905584516200011f90600b906020880190620002d0565b5050506001600160a01b03871695506200015894505050505057604051631e4fbdf760e01b81525f600482015260240160405180910390fd5b620001638162000174565b505050505050505050505062000898565b600f80546001600160a01b038381166001600160a01b0319831681179093556040519116919082907f8be0079c531659141344cd1fd0a4f28419497f9722a3daafe3b4186f6b6457e0905f90a35050565b828054828255905f5260205f209081019282156200021b579160200282015b828111156200021b57825182546001600160a01b0319166001600160a01b03909116178255602090920191600190910190620001e4565b50620002299291506200036c565b5090565b828054828255905f5260205f2090601f016020900481019282156200021b579160200282015f5b838211156200029357835183826101000a81548160ff021916908360ff16021790555092602001926001016020815f0104928301926001030262000254565b8015620002c15782816101000a81549060ff02191690556001016020815f0104928301926001030262000293565b5050620002299291506200036c565b828054828255905f5260205f2090600901600a900481019282156200021b579160200282015f5b838211156200033b57835183826101000a81548162ffffff021916908362ffffff1602179055509260200192600301602081600201049283019260010302620002f7565b8015620002c15782816101000a81549062ffffff02191690556003016020816002010492830192600103026200033b565b5b8082111562000229575f81556001016200036d565b634e487b7160e01b5f52604160045260245ffd5b604051601f8201601f191681016001600160401b0381118282101715620003c157620003c162000382565b604052919050565b5f6001600160401b03821115620003e457620003e462000382565b5060051b60200190565b6001600160a01b038116811462000403575f80fd5b50565b80516200041381620003ee565b919050565b5f82601f83011262000428575f80fd5b81516020620004416200043b83620003c9565b62000396565b82815260059290921b8401810191818101908684111562000460575f80fd5b8286015b84811015620004885780516200047a81620003ee565b835291830191830162000464565b509695505050505050565b5f82601f830112620004a3575f80fd5b81516020620004b66200043b83620003c9565b82815260059290921b84018101918181019086841115620004d5575f80fd5b8286015b848110156200048857805160ff81168114620004f4575f8081fd5b8352918301918301620004d9565b5f82601f83011262000512575f80fd5b81516020620005256200043b83620003c9565b82815260059290921b8401810191818101908684111562000544575f80fd5b8286015b848110156200048857805162ffffff8116811462000565575f8081fd5b835291830191830162000548565b5f82601f83011262000583575f80fd5b81516001600160401b038111156200059f576200059f62000382565b6020620005b5601f8301601f1916820162000396565b8281528582848701011115620005c9575f80fd5b5f5b83811015620005e8578581018301518282018401528201620005cb565b505f928101909101919091529392505050565b5f805f805f805f805f806101408b8d03121562000616575f80fd5b8a516001600160401b03808211156200062d575f80fd5b6200063b8e838f0162000418565b9b5060208d015191508082111562000651575f80fd5b6200065f8e838f0162000418565b9a5060408d015191508082111562000675575f80fd5b620006838e838f0162000493565b995060608d015191508082111562000699575f80fd5b620006a78e838f0162000502565b9850620006b760808e0162000406565b9750620006c760a08e0162000406565b9650620006d760c08e0162000406565b9550620006e760e08e0162000406565b94506101008d0151915080821115620006fe575f80fd5b6200070c8e838f0162000573565b93506101208d015191508082111562000723575f80fd5b50620007328d828e0162000573565b9150509295989b9194979a5092959850565b600181811c908216806200075957607f821691505b6020821081036200077857634e487b7160e01b5f52602260045260245ffd5b50919050565b601f821115620007cb575f81815260208120601f850160051c81016020861015620007a65750805b601f850160051c820191505b81811015620007c757828155600101620007b2565b5050505b505050565b81516001600160401b03811115620007ec57620007ec62000382565b6200080481620007fd845462000744565b846200077e565b602080601f8311600181146200083a575f8415620008225750858301515b5f19600386901b1c1916600185901b178555620007c7565b5f85815260208120601f198616915b828110156200086a5788860151825594840194600190910190840162000849565b50858210156200088857878501515f19600388901b60f8161c191681555b5050505050600190811b01905550565b6130e480620008a65f395ff3fe6080604052600436106101f1575f3560e01c8063715018a6116101085780639dba25071161009d578063d42500a21161006d578063d42500a214610595578063d905777e146105b4578063dd62ed3e146105d3578063eb70cba414610617578063f2fde38b1461064a575f80fd5b80639dba250714610519578063a74edaf714610538578063a9059cbb14610557578063c63d75b614610576575f80fd5b80638da5cb5b116100d85780638da5cb5b146104b557806394bf804d146104d257806395d89b41146104f157806399530b0614610505575f80fd5b8063715018a61461044f5780637bde82f214610463578063837baf2c146104825780638b2ec28f14610496575f80fd5b8063260b79ac1161018957806343fe44801161015957806343fe44801461039d57806356e1887d146103bc5780635c199c09146103db57806363070d64146103fa57806370a082311461041b575f80fd5b8063260b79ac14610300578063313ce5671461033757806338d52e0f1461035d578063423792171461037e575f80fd5b8063157e0b97116101c4578063157e0b971461028d57806318160ddd146102ac5780631cff79cd146102c057806323b872dd146102e1575f80fd5b806301e1d114146101f557806306fdde031461021c578063095ea7b31461023d5780630f9c77c11461026c575b5f80fd5b348015610200575f80fd5b50610209610669565b6040519081526020015b60405180910390f35b348015610227575f80fd5b506102306107cf565b604051610213919061250a565b348015610248575f80fd5b5061025c610257366004612540565b61085f565b6040519015158152602001610213565b348015610277575f80fd5b5061028b61028636600461256a565b610878565b005b348015610298575f80fd5b506102096102a736600461265a565b610890565b3480156102b7575f80fd5b50600254610209565b6102d36102ce36600461269c565b61090f565b60405161021392919061271a565b3480156102ec575f80fd5b5061025c6102fb36600461273c565b6109d5565b34801561030b575f80fd5b5061031f61031a36600461277a565b6109fa565b6040516001600160a01b039091168152602001610213565b348015610342575f80fd5b5061034b610a22565b60405160ff9091168152602001610213565b348015610368575f80fd5b50610371610a34565b6040516102139190612791565b348015610389575f80fd5b5061028b610398366004612949565b610a93565b3480156103a8575f80fd5b5061034b6103b736600461277a565b610b4d565b3480156103c7575f80fd5b5061028b6103d636600461256a565b610b7e565b3480156103e6575f80fd5b5061028b6103f5366004612a30565b610b91565b348015610405575f80fd5b5061040e610d81565b6040516102139190612ad9565b348015610426575f80fd5b50610209610435366004612b10565b6001600160a01b03165f9081526020819052604090205490565b34801561045a575f80fd5b5061028b610e49565b34801561046e575f80fd5b5061020961047d366004612b2b565b610e5c565b34801561048d575f80fd5b5061040e6112dc565b3480156104a1575f80fd5b506102096104b0366004612b59565b61140e565b3480156104c0575f80fd5b50600f546001600160a01b031661031f565b3480156104dd575f80fd5b506102096104ec366004612b2b565b611531565b3480156104fc575f80fd5b5061023061188d565b348015610510575f80fd5b5061020961189c565b348015610524575f80fd5b50610230610533366004612ba5565b6118d5565b348015610543575f80fd5b50610209610552366004612be0565b61192c565b348015610562575f80fd5b5061025c610571366004612540565b6119ea565b348015610581575f80fd5b50610209610590366004612b10565b6119f7565b3480156105a0575f80fd5b5061040e6105af36600461277a565b611a0c565b3480156105bf575f80fd5b506102096105ce366004612b10565b611ba0565b3480156105de575f80fd5b506102096105ed366004612c2a565b6001600160a01b039182165f90815260016020908152604080832093909416825291909152205490565b348015610622575f80fd5b5061063661063136600461277a565b611bbd565b60405162ffffff9091168152602001610213565b348015610655575f80fd5b5061028b610664366004612b10565b611bf3565b5f805f5b6005548110156107c9575f6007828154811061068b5761068b612c56565b905f5260205f20015f9054906101000a90046001600160a01b03166001600160a01b03166357de26a46040518163ffffffff1660e01b81526004016040805180830381865afa1580156106e0573d5f803e3d5ffd5b505050506040513d601f19601f820116820180604052508101906107049190612c7d565b5090505f81601b0b1215610716575f80fd5b5f81601b0b90506006838154811061073057610730612c56565b905f5260205f2090602091828204019190069054906101000a900460ff16600a61075a9190612da9565b600a5f6005868154811061077057610770612c56565b5f9182526020808320909101546001600160a01b0316835282019290925260400190205461079e9083612db7565b6107a89190612dce565b6107b29085612ded565b9350505080806107c190612e00565b91505061066d565b50919050565b6060600380546107de90612e18565b80601f016020809104026020016040519081016040528092919081815260200182805461080a90612e18565b80156108555780601f1061082c57610100808354040283529160200191610855565b820191905f5260205f20905b81548152906001019060200180831161083857829003601f168201915b5050505050905090565b5f3361086c818585611c30565b60019150505b92915050565b610880611c3d565b61088b838383611c6a565b505050565b600d5460405163cdca175360e01b81525f916001600160a01b03169063cdca1753906108c29086908690600401612e4a565b5f604051808303815f875af11580156108dd573d5f803e3d5ffd5b505050506040513d5f823e601f3d908101601f191682016040526109049190810190612eca565b509195945050505050565b5f606061091a611c3d565b600f54600160a01b900460ff1661096a5760405162461bcd60e51b815260206004820152600f60248201526e139bdd08125b9a5d1a585b1a5e9959608a1b60448201526064015b60405180910390fd5b5f80866001600160a01b0316348787604051610987929190612f99565b5f6040518083038185875af1925050503d805f81146109c1576040519150601f19603f3d011682016040523d82523d5f602084013e6109c6565b606091505b50909890975095505050505050565b5f336109e2858285611d1c565b6109ed858585611d84565b60019150505b9392505050565b60058181548110610a09575f80fd5b5f918252602090912001546001600160a01b0316905081565b5f610a2f60086012612fa8565b905090565b6060600580548060200260200160405190810160405280929190818152602001828054801561085557602002820191905f5260205f20905b81546001600160a01b03168152600190910190602001808311610a6c575050505050905090565b610a9b611c3d565b8751610aae9060059060208b0190612313565b508651610ac29060079060208a0190612313565b50600880546001600160a01b0319166001600160a01b0386161790558551610af1906006906020890190612376565b50600c80546001600160a01b038086166001600160a01b031992831617909255600d8054858416908316179055600e8054928416929091169190911790558451610b4290600b906020880190612412565b505050505050505050565b60068181548110610b5c575f80fd5b905f5260205f209060209182820401919006915054906101000a900460ff1681565b610b86611c3d565b61088b838383611de1565b610b99611c3d565b600f54600160a01b900460ff1615610baf575f80fd5b5f5b8151811015610d5e57818181518110610bcc57610bcc612c56565b602002602001015160058281548110610be757610be7612c56565b5f918252602090912001546040516370a0823160e01b81523360048201526001600160a01b03909116906370a0823190602401602060405180830381865afa158015610c35573d5f803e3d5ffd5b505050506040513d601f19601f82011682018060405250810190610c599190612fc1565b1015610c915760405162461bcd60e51b81526020600482015260076024820152662130b61022b93960c91b6044820152606401610961565b610ce360058281548110610ca757610ca7612c56565b905f5260205f20015f9054906101000a90046001600160a01b03163330858581518110610cd657610cd6612c56565b6020026020010151611e85565b818181518110610cf557610cf5612c56565b6020026020010151600a5f60058481548110610d1357610d13612c56565b5f9182526020808320909101546001600160a01b0316835282019290925260400181208054909190610d46908490612ded565b90915550819050610d5681612e00565b915050610bb1565b50610d698383611eec565b5050600f805460ff60a01b1916600160a01b17905550565b6005546060905f8167ffffffffffffffff811115610da157610da16125a9565b604051908082528060200260200182016040528015610dca578160200160208202803683370190505b5090505f5b82811015610e4257600a5f60058381548110610ded57610ded612c56565b5f9182526020808320909101546001600160a01b031683528201929092526040019020548251839083908110610e2557610e25612c56565b602090810291909101015280610e3a81612e00565b915050610dcf565b5092915050565b610e51611c3d565b610e5a5f611f24565b565b5f80610e6783611ba0565b905080841115610e9057828482604051632e52afbb60e21b815260040161096193929190612fd8565b5f610e9a85611a0c565b90505f610ea78587611f75565b5f5b60028110156111bf5760058181548110610ec557610ec5612c56565b5f91825260209091200154600c5484516001600160a01b039283169263095ea7b3921690869085908110610efb57610efb612c56565b60200260200101516040518363ffffffff1660e01b8152600401610f349291906001600160a01b03929092168252602082015260400190565b6020604051808303815f875af1158015610f50573d5f803e3d5ffd5b505050506040513d601f19601f82011682018060405250810190610f749190612ff9565b505f610ff460058381548110610f8c57610f8c612c56565b5f91825260209091200154600b80546001600160a01b039092169185908110610fb757610fb7612c56565b905f5260205f2090600a91828204019190066003029054906101000a900462ffffff1660085f9054906101000a90046001600160a01b03166118d5565b90505f61101a8286858151811061100d5761100d612c56565b6020026020010151610890565b9050805f036110585760405162461bcd60e51b815260206004820152600a6024820152693837b7b61032b93937b960b11b6044820152606401610961565b5f6110ca6005858154811061106f5761106f612c56565b5f91825260209091200154600854600b80546001600160a01b039384169390921691889081106110a1576110a1612c56565b905f5260205f2090600a91828204019190066003029054906101000a900462ffffff168561140e565b90508181101561110b5760405162461bcd60e51b815260206004820152600c60248201526b3837b7b61032b93937b9101960a11b6044820152606401610961565b5f6111308488878151811061112257611122612c56565b60200260200101518561192c565b905061113c8187612ded565b955086858151811061115057611150612c56565b6020026020010151600a5f6005888154811061116e5761116e612c56565b5f9182526020808320909101546001600160a01b03168352820192909252604001812080549091906111a1908490613018565b925050819055505050505080806111b790612e00565b915050610ea9565b505f8111801561123757506008546040516370a0823160e01b815230600482015282916001600160a01b0316906370a0823190602401602060405180830381865afa158015611210573d5f803e3d5ffd5b505050506040513d601f19601f820116820180604052508101906112349190612fc1565b10155b1561125857600854611253906001600160a01b03168683611fa9565b61128f565b60405162461bcd60e51b815260206004820152600c60248201526b73776170206572726f72203160a01b6044820152606401610961565b60408051878152602081018390526001600160a01b038716917ff279e6a1f5e320cca91135676d9cb6e44ca8a08c0b88342bcdb1144f6511b568910160405180910390a295945050505050565b6005546060905f9067ffffffffffffffff8111156112fc576112fc6125a9565b604051908082528060200260200182016040528015611325578160200160208202803683370190505b5090505f5b6005548110156107c9575f6007828154811061134857611348612c56565b905f5260205f20015f9054906101000a90046001600160a01b03166001600160a01b03166357de26a46040518163ffffffff1660e01b81526004016040805180830381865afa15801561139d573d5f803e3d5ffd5b505050506040513d601f19601f820116820180604052508101906113c19190612c7d565b5090505f81601b0b12156113d3575f80fd5b5f81601b0b9050808484815181106113ed576113ed612c56565b6020026020010181815250505050808061140690612e00565b91505061132a565b600e54604051630b4c774160e11b81526001600160a01b038681166004830152858116602483015262ffffff851660448301525f928392911690631698ee8290606401602060405180830381865afa15801561146c573d5f803e3d5ffd5b505050506040513d601f19601f82011682018060405250810190611490919061302b565b90506001600160a01b0381166114a4575f91505b6040516370a0823160e01b81526001600160a01b0382811660048301525f91908716906370a0823190602401602060405180830381865afa1580156114eb573d5f803e3d5ffd5b505050506040513d601f19601f8201168201806040525081019061150f9190612fc1565b905083811061151c578092505b838111611527575f92505b5050949350505050565b5f8061153c836119f7565b9050808411156115655782848260405163284ff66760e01b815260040161096193929190612fd8565b5f61156e610a22565b61157990600a612da9565b6115839086612dce565b64e8d4a5100061159161189c565b61159b9190612dce565b6115a59190612db7565b6008549091506115c0906001600160a01b0316333084611e85565b600854600c5460405163095ea7b360e01b81526001600160a01b0391821660048201526024810184905291169063095ea7b3906044016020604051808303815f875af1158015611612573d5f803e3d5ffd5b505050506040513d601f19601f820116820180604052508101906116369190612ff9565b505f611643600283612dce565b1161164c575f80fd5b5f5b600281101561183657600854600b80545f926116cf926001600160a01b03909116918590811061168057611680612c56565b905f5260205f2090600a91828204019190066003029054906101000a900462ffffff16600585815481106116b6576116b6612c56565b5f918252602090912001546001600160a01b03166118d5565b90505f6116e1826102a7600287612dce565b9050805f036117215760405162461bcd60e51b815260206004820152600c60248201526b706f6f6c206572726f72203160a01b6044820152606401610961565b600854600580545f92611775926001600160a01b03909116918790811061174a5761174a612c56565b5f91825260209091200154600b80546001600160a01b0390921691889081106110a1576110a1612c56565b9050818110156117b65760405162461bcd60e51b815260206004820152600c60248201526b3837b7b61032b93937b9101960a11b6044820152606401610961565b5f6117cc846117c6600289612dce565b8561192c565b905080600a5f600588815481106117e5576117e5612c56565b5f9182526020808320909101546001600160a01b0316835282019290925260400181208054909190611818908490612ded565b9250508190555050505050808061182e90612e00565b91505061164e565b506118418486611eec565b60408051868152602081018390526001600160a01b038616917f90890809c654f11d6e72a28fa60149770a0d11ec6c92319d6ceb2bb0a4ea1a15910160405180910390a2949350505050565b6060600480546107de90612e18565b5f6118a660025490565b6118ae610a22565b6118b990600a612da9565b6118c1610669565b6118cb9190612db7565b610a2f9190612dce565b604051606084811b6bffffffffffffffffffffffff19908116602084015260e885901b6001600160e81b031916603484015283821b16603783015290604b0160405160208183030381529060405290509392505050565b5f821580611938575081155b15611941575f80fd5b83515f0361194d575f80fd5b6040805160808101825285815230602082015280820185905260608101849052600c54915163b858183f60e01b815290915f916001600160a01b039091169063b858183f906119a0908590600401613046565b6020604051808303815f875af11580156119bc573d5f803e3d5ffd5b505050506040513d601f19601f820116820180604052508101906119e09190612fc1565b9695505050505050565b5f3361086c818585611d84565b5f611a0160025490565b610872905f19613018565b6005546060905f9067ffffffffffffffff811115611a2c57611a2c6125a9565b604051908082528060200260200182016040528015611a55578160200160208202803683370190505b5090505f611a616112dc565b90505f600954611a6f61189c565b611a799190612dce565b90505f5b600554811015611b96575f838281518110611a9a57611a9a612c56565b602002602001015183670de0b6b3a7640000611ab69190612db7565b611ac09190612dce565b90505f611ace606483612dce565b611ad89083613018565b9050825f03611b3b57611ae9610a22565b611af490600a612da9565b88611b046402540be40084612dce565b611b0e9190612db7565b611b189190612dce565b868481518110611b2a57611b2a612c56565b602002602001018181525050611b81565b611b43610a22565b611b4e90600a612da9565b611b588983612db7565b611b629190612dce565b868481518110611b7457611b74612c56565b6020026020010181815250505b50508080611b8e90612e00565b915050611a7d565b5091949350505050565b6001600160a01b0381165f90815260208190526040812054610872565b600b8181548110611bcc575f80fd5b905f5260205f2090600a9182820401919006600302915054906101000a900462ffffff1681565b611bfb611c3d565b6001600160a01b038116611c2457604051631e4fbdf760e01b81525f6004820152602401610961565b611c2d81611f24565b50565b61088b8383836001611fda565b600f546001600160a01b03163314610e5a5760405163118cdaa760e01b8152336004820152602401610961565b6040516370a0823160e01b81526001600160a01b0382811660048301528391908516906370a0823190602401602060405180830381865afa158015611cb1573d5f803e3d5ffd5b505050506040513d601f19601f82011682018060405250810190611cd59190612fc1565b1015611cdf575f80fd5b611ceb83823085611e85565b6001600160a01b0383165f908152600a602052604081208054849290611d12908490612ded565b9091555050505050565b6001600160a01b038381165f908152600160209081526040808320938616835292905220545f198114611d7e5781811015611d7057828183604051637dc7a0d960e11b815260040161096193929190612fd8565b611d7e84848484035f611fda565b50505050565b6001600160a01b038316611dad57604051634b637e8f60e11b81525f6004820152602401610961565b6001600160a01b038216611dd65760405163ec442f0560e01b81525f6004820152602401610961565b61088b8383836120ac565b6040516370a0823160e01b815230600482015282906001600160a01b038516906370a0823190602401602060405180830381865afa158015611e25573d5f803e3d5ffd5b505050506040513d601f19601f82011682018060405250810190611e499190612fc1565b1015611e53575f80fd5b611e5e838284611fa9565b6001600160a01b0383165f908152600a602052604081208054849290611d12908490613018565b6040516001600160a01b038481166024830152838116604483015260648201839052611d7e9186918216906323b872dd906084015b604051602081830303815290604052915060e01b6020820180516001600160e01b0383818316178352505050506121bf565b6001600160a01b038216611f155760405163ec442f0560e01b81525f6004820152602401610961565b611f205f83836120ac565b5050565b600f80546001600160a01b038381166001600160a01b0319831681179093556040519116919082907f8be0079c531659141344cd1fd0a4f28419497f9722a3daafe3b4186f6b6457e0905f90a35050565b6001600160a01b038216611f9e57604051634b637e8f60e11b81525f6004820152602401610961565b611f20825f836120ac565b6040516001600160a01b0383811660248301526044820183905261088b91859182169063a9059cbb90606401611eba565b6001600160a01b0384166120035760405163e602df0560e01b81525f6004820152602401610961565b6001600160a01b03831661202c57604051634a1406b160e11b81525f6004820152602401610961565b6001600160a01b038085165f9081526001602090815260408083209387168352929052208290558015611d7e57826001600160a01b0316846001600160a01b03167f8c5be1e5ebec7d5bd14f71427d1e84f3dd0314c0f7b2291e5b200ac8c7c3b9258460405161209e91815260200190565b60405180910390a350505050565b6001600160a01b0383166120d6578060025f8282546120cb9190612ded565b909155506121339050565b6001600160a01b0383165f90815260208190526040902054818110156121155783818360405163391434e360e21b815260040161096193929190612fd8565b6001600160a01b0384165f9081526020819052604090209082900390555b6001600160a01b03821661214f5760028054829003905561216d565b6001600160a01b0382165f9081526020819052604090208054820190555b816001600160a01b0316836001600160a01b03167fddf252ad1be2c89b69c2b068fc378daa952ba7f163c4a11628f55a4df523b3ef836040516121b291815260200190565b60405180910390a3505050565b5f6121d36001600160a01b03841683612220565b905080515f141580156121f75750808060200190518101906121f59190612ff9565b155b1561088b57604051635274afe760e01b81526001600160a01b0384166004820152602401610961565b60606109f383835f845f80856001600160a01b031684866040516122449190613093565b5f6040518083038185875af1925050503d805f811461227e576040519150601f19603f3d011682016040523d82523d5f602084013e612283565b606091505b50915091506119e08683836060826122a35761229e826122ea565b6109f3565b81511580156122ba57506001600160a01b0384163b155b156122e357604051639996b31560e01b81526001600160a01b0385166004820152602401610961565b50806109f3565b8051156122fa5780518082602001fd5b604051630a12f52160e11b815260040160405180910390fd5b828054828255905f5260205f20908101928215612366579160200282015b8281111561236657825182546001600160a01b0319166001600160a01b03909116178255602090920191600190910190612331565b506123729291506124a9565b5090565b828054828255905f5260205f2090601f01602090048101928215612366579160200282015f5b838211156123d957835183826101000a81548160ff021916908360ff16021790555092602001926001016020815f0104928301926001030261239c565b80156124055782816101000a81549060ff02191690556001016020815f010492830192600103026123d9565b50506123729291506124a9565b828054828255905f5260205f2090600901600a90048101928215612366579160200282015f5b8382111561247a57835183826101000a81548162ffffff021916908362ffffff1602179055509260200192600301602081600201049283019260010302612438565b80156124055782816101000a81549062ffffff021916905560030160208160020104928301926001030261247a565b5b80821115612372575f81556001016124aa565b5f5b838110156124d75781810151838201526020016124bf565b50505f910152565b5f81518084526124f68160208601602086016124bd565b601f01601f19169290920160200192915050565b602081525f6109f360208301846124df565b6001600160a01b0381168114611c2d575f80fd5b803561253b8161251c565b919050565b5f8060408385031215612551575f80fd5b823561255c8161251c565b946020939093013593505050565b5f805f6060848603121561257c575f80fd5b83356125878161251c565b925060208401359150604084013561259e8161251c565b809150509250925092565b634e487b7160e01b5f52604160045260245ffd5b604051601f8201601f1916810167ffffffffffffffff811182821017156125e6576125e66125a9565b604052919050565b5f82601f8301126125fd575f80fd5b813567ffffffffffffffff811115612617576126176125a9565b61262a601f8201601f19166020016125bd565b81815284602083860101111561263e575f80fd5b816020850160208301375f918101602001919091529392505050565b5f806040838503121561266b575f80fd5b823567ffffffffffffffff811115612681575f80fd5b61268d858286016125ee565b95602094909401359450505050565b5f805f604084860312156126ae575f80fd5b83356126b98161251c565b9250602084013567ffffffffffffffff808211156126d5575f80fd5b818601915086601f8301126126e8575f80fd5b8135818111156126f6575f80fd5b876020828501011115612707575f80fd5b6020830194508093505050509250925092565b8215158152604060208201525f61273460408301846124df565b949350505050565b5f805f6060848603121561274e575f80fd5b83356127598161251c565b925060208401356127698161251c565b929592945050506040919091013590565b5f6020828403121561278a575f80fd5b5035919050565b602080825282518282018190525f9190848201906040850190845b818110156127d15783516001600160a01b0316835292840192918401916001016127ac565b50909695505050505050565b5f67ffffffffffffffff8211156127f6576127f66125a9565b5060051b60200190565b5f82601f83011261280f575f80fd5b8135602061282461281f836127dd565b6125bd565b82815260059290921b84018101918181019086841115612842575f80fd5b8286015b848110156128665780356128598161251c565b8352918301918301612846565b509695505050505050565b5f82601f830112612880575f80fd5b8135602061289061281f836127dd565b82815260059290921b840181019181810190868411156128ae575f80fd5b8286015b8481101561286657803560ff811681146128cb575f8081fd5b83529183019183016128b2565b803562ffffff8116811461253b575f80fd5b5f82601f8301126128f9575f80fd5b8135602061290961281f836127dd565b82815260059290921b84018101918181019086841115612927575f80fd5b8286015b848110156128665761293c816128d8565b835291830191830161292b565b5f805f805f805f80610100898b031215612961575f80fd5b883567ffffffffffffffff80821115612978575f80fd5b6129848c838d01612800565b995060208b0135915080821115612999575f80fd5b6129a58c838d01612800565b985060408b01359150808211156129ba575f80fd5b6129c68c838d01612871565b975060608b01359150808211156129db575f80fd5b506129e88b828c016128ea565b9550506129f760808a01612530565b9350612a0560a08a01612530565b9250612a1360c08a01612530565b9150612a2160e08a01612530565b90509295985092959890939650565b5f805f60608486031215612a42575f80fd5b8335612a4d8161251c565b92506020848101359250604085013567ffffffffffffffff811115612a70575f80fd5b8501601f81018713612a80575f80fd5b8035612a8e61281f826127dd565b81815260059190911b82018301908381019089831115612aac575f80fd5b928401925b82841015612aca57833582529284019290840190612ab1565b80955050505050509250925092565b602080825282518282018190525f9190848201906040850190845b818110156127d157835183529284019291840191600101612af4565b5f60208284031215612b20575f80fd5b81356109f38161251c565b5f8060408385031215612b3c575f80fd5b823591506020830135612b4e8161251c565b809150509250929050565b5f805f8060808587031215612b6c575f80fd5b8435612b778161251c565b93506020850135612b878161251c565b9250612b95604086016128d8565b9396929550929360600135925050565b5f805f60608486031215612bb7575f80fd5b8335612bc28161251c565b9250612bd0602085016128d8565b9150604084013561259e8161251c565b5f805f60608486031215612bf2575f80fd5b833567ffffffffffffffff811115612c08575f80fd5b612c14868287016125ee565b9660208601359650604090950135949350505050565b5f8060408385031215612c3b575f80fd5b8235612c468161251c565b91506020830135612b4e8161251c565b634e487b7160e01b5f52603260045260245ffd5b805163ffffffff8116811461253b575f80fd5b5f8060408385031215612c8e575f80fd5b825180601b0b8114612c9e575f80fd5b9150612cac60208401612c6a565b90509250929050565b634e487b7160e01b5f52601160045260245ffd5b600181815b80851115612d0357815f1904821115612ce957612ce9612cb5565b80851615612cf657918102915b93841c9390800290612cce565b509250929050565b5f82612d1957506001610872565b81612d2557505f610872565b8160018114612d3b5760028114612d4557612d61565b6001915050610872565b60ff841115612d5657612d56612cb5565b50506001821b610872565b5060208310610133831016604e8410600b8410161715612d84575081810a610872565b612d8e8383612cc9565b805f1904821115612da157612da1612cb5565b029392505050565b5f6109f360ff841683612d0b565b808202811582820484141761087257610872612cb5565b5f82612de857634e487b7160e01b5f52601260045260245ffd5b500490565b8082018082111561087257610872612cb5565b5f60018201612e1157612e11612cb5565b5060010190565b600181811c90821680612e2c57607f821691505b6020821081036107c957634e487b7160e01b5f52602260045260245ffd5b604081525f612e5c60408301856124df565b90508260208301529392505050565b5f82601f830112612e7a575f80fd5b81516020612e8a61281f836127dd565b82815260059290921b84018101918181019086841115612ea8575f80fd5b8286015b8481101561286657612ebd81612c6a565b8352918301918301612eac565b5f805f8060808587031215612edd575f80fd5b8451935060208086015167ffffffffffffffff80821115612efc575f80fd5b818801915088601f830112612f0f575f80fd5b8151612f1d61281f826127dd565b81815260059190911b8301840190848101908b831115612f3b575f80fd5b938501935b82851015612f62578451612f538161251c565b82529385019390850190612f40565b60408b01519098509450505080831115612f7a575f80fd5b5050612f8887828801612e6b565b606096909601519497939650505050565b818382375f9101908152919050565b60ff818116838216019081111561087257610872612cb5565b5f60208284031215612fd1575f80fd5b5051919050565b6001600160a01b039390931683526020830191909152604082015260600190565b5f60208284031215613009575f80fd5b815180151581146109f3575f80fd5b8181038181111561087257610872612cb5565b5f6020828403121561303b575f80fd5b81516109f38161251c565b602081525f82516080602084015261306160a08401826124df565b905060018060a01b03602085015116604084015260408401516060840152606084015160808401528091505092915050565b5f82516130a48184602087016124bd565b919091019291505056fea26469706673582212202fe8f34e8c0093273e7a08a8db57f701c3e02a877507d08307de86064f2da09d64736f6c63430008140033000000000000000000000000000000000000000000000000000000000000014000000000000000000000000000000000000000000000000000000000000001a00000000000000000000000000000000000000000000000000000000000000200000000000000000000000000000000000000000000000000000000000000026000000000000000000000000005d032ac25d322df992303dca074ee7392c117b9000000000000000000000000807f4e281b7a3b324825c64ca53c69f0b418de400000000000000000000000006aa54a43d7eef5b239a18eed3af4877f46522bca000000000000000000000000cb2436774c3e191c85056d248ef4260ce5f27a9d00000000000000000000000000000000000000000000000000000000000002c00000000000000000000000000000000000000000000000000000000000000300000000000000000000000000000000000000000000000000000000000000000200000000000000000000000003c7054bcb39f7b2e5b2c7acb37583e32d70cfa300000000000000000000000042000000000000000000000000000000000000060000000000000000000000000000000000000000000000000000000000000002000000000000000000000000041a131fa91ad61dd85262a42c04975986580d500000000000000000000000005b0cf2b36a65a6bb085d501b971e4c102b9cd47300000000000000000000000000000000000000000000000000000000000000020000000000000000000000000000000000000000000000000000000000000008000000000000000000000000000000000000000000000000000000000000001200000000000000000000000000000000000000000000000000000000000000020000000000000000000000000000000000000000000000000000000000000bb80000000000000000000000000000000000000000000000000000000000000bb800000000000000000000000000000000000000000000000000000000000000074254432d4554480000000000000000000000000000000000000000000000000000000000000000000000000000000000000000000000000000000000000000044245544800000000000000000000000000000000000000000000000000000000",
        "nonce": "0x22c6",
        "chainId": "0xed88"
      },
      "additionalContracts": [],
      "isFixedGasLimit": false
    },
    {
      "hash": "0xea6e791b6be0d9a9d3781e6e7254fe949140c9c5781883486e431b0e0e95e337",
      "transactionType": "CALL",
      "contractName": null,
      "contractAddress": "0x05d032ac25d322df992303dca074ee7392c117b9",
      "function": "approve(address,uint256)",
      "arguments": [
        "0xd61FD14aCeC329cABDc0B52D35E718086a558DF2",
        "115792089237316195423570985008687907853269984665640564039457584007913129639935"
      ],
      "transaction": {
        "from": "0xcda2fdb452ff4f5d7ba1c3d5dfcc9cb926a5eb7d",
        "to": "0x05d032ac25d322df992303dca074ee7392c117b9",
        "gas": "0x109f6",
        "value": "0x0",
        "input": "0x095ea7b3000000000000000000000000d61fd14acec329cabdc0b52d35e718086a558df2ffffffffffffffffffffffffffffffffffffffffffffffffffffffffffffffff",
        "nonce": "0x22c7",
        "chainId": "0xed88"
      },
      "additionalContracts": [],
      "isFixedGasLimit": false
    },
    {
      "hash": "0x8409dcee4d2da7f9f4a458ed2ce65dd0472e79a9059aa80fcef1094089cbb471",
      "transactionType": "CALL",
      "contractName": null,
      "contractAddress": "0x03c7054bcb39f7b2e5b2c7acb37583e32d70cfa3",
      "function": "approve(address,uint256)",
      "arguments": [
        "0xd61FD14aCeC329cABDc0B52D35E718086a558DF2",
        "115792089237316195423570985008687907853269984665640564039457584007913129639935"
      ],
      "transaction": {
        "from": "0xcda2fdb452ff4f5d7ba1c3d5dfcc9cb926a5eb7d",
        "to": "0x03c7054bcb39f7b2e5b2c7acb37583e32d70cfa3",
        "gas": "0x109f6",
        "value": "0x0",
        "input": "0x095ea7b3000000000000000000000000d61fd14acec329cabdc0b52d35e718086a558df2ffffffffffffffffffffffffffffffffffffffffffffffffffffffffffffffff",
        "nonce": "0x22c8",
        "chainId": "0xed88"
      },
      "additionalContracts": [],
      "isFixedGasLimit": false
    },
    {
      "hash": "0x5f669fd7dc43771c1afa4a0c053eb7057906fbe2e865d47d730faf3a38e13738",
      "transactionType": "CALL",
      "contractName": null,
      "contractAddress": "0x4200000000000000000000000000000000000006",
      "function": "approve(address,uint256)",
      "arguments": [
        "0xd61FD14aCeC329cABDc0B52D35E718086a558DF2",
        "115792089237316195423570985008687907853269984665640564039457584007913129639935"
      ],
      "transaction": {
        "from": "0xcda2fdb452ff4f5d7ba1c3d5dfcc9cb926a5eb7d",
        "to": "0x4200000000000000000000000000000000000006",
        "gas": "0xfa0a",
        "value": "0x0",
        "input": "0x095ea7b3000000000000000000000000d61fd14acec329cabdc0b52d35e718086a558df2ffffffffffffffffffffffffffffffffffffffffffffffffffffffffffffffff",
        "nonce": "0x22c9",
        "chainId": "0xed88"
      },
      "additionalContracts": [],
      "isFixedGasLimit": false
    },
    {
      "hash": "0xe41d79ed5f3f93512e8282f438155e0c439a47fca07232aad713d7b06c28444d",
      "transactionType": "CALL",
      "contractName": "BethVault",
      "contractAddress": "0xd61fd14acec329cabdc0b52d35e718086a558df2",
      "function": "initialize(address,uint256,uint256[])",
      "arguments": [
        "0xcdA2fDB452FF4F5D7Ba1C3d5dFCc9CB926A5eb7D",
        "100000000000000000000000000000",
        "[52894, 19143207579954600]"
      ],
      "transaction": {
        "from": "0xcda2fdb452ff4f5d7ba1c3d5dfcc9cb926a5eb7d",
        "to": "0xd61fd14acec329cabdc0b52d35e718086a558df2",
        "gas": "0x44ace",
        "value": "0x0",
        "input": "0x5c199c09000000000000000000000000cda2fdb452ff4f5d7ba1c3d5dfcc9cb926a5eb7d0000000000000000000000000000000000000001431e0fae6d7217caa000000000000000000000000000000000000000000000000000000000000000000000600000000000000000000000000000000000000000000000000000000000000002000000000000000000000000000000000000000000000000000000000000ce9e000000000000000000000000000000000000000000000000004402a557aa2da8",
        "nonce": "0x22ca",
        "chainId": "0xed88"
      },
      "additionalContracts": [],
      "isFixedGasLimit": false
    },
    {
      "hash": "0x23aaae520a56294321f63bbbbf373af10347d713db1010ffdd4d61fc93c05a68",
      "transactionType": "CALL",
      "contractName": "BethVault",
      "contractAddress": "0xd61fd14acec329cabdc0b52d35e718086a558df2",
      "function": "mint(uint256,address)",
      "arguments": [
        "1000000000000000000000000000",
        "0xcdA2fDB452FF4F5D7Ba1C3d5dFCc9CB926A5eb7D"
      ],
      "transaction": {
        "from": "0xcda2fdb452ff4f5d7ba1c3d5dfcc9cb926a5eb7d",
        "to": "0xd61fd14acec329cabdc0b52d35e718086a558df2",
        "gas": "0xa1573",
        "value": "0x0",
        "input": "0x94bf804d0000000000000000000000000000000000000000033b2e3c9fd0803ce8000000000000000000000000000000cda2fdb452ff4f5d7ba1c3d5dfcc9cb926a5eb7d",
        "nonce": "0x22cb",
        "chainId": "0xed88"
      },
      "additionalContracts": [],
      "isFixedGasLimit": false
    },
    {
      "hash": "0xb48076f33857966dc4480e0c7f24e04250314fc5c63c7aa10e64371d766c66fc",
      "transactionType": "CALL",
      "contractName": "BethVault",
      "contractAddress": "0xd61fd14acec329cabdc0b52d35e718086a558df2",
      "function": "redeem(uint256,address)",
      "arguments": [
        "1000000000000000000000000000",
        "0xcdA2fDB452FF4F5D7Ba1C3d5dFCc9CB926A5eb7D"
      ],
      "transaction": {
        "from": "0xcda2fdb452ff4f5d7ba1c3d5dfcc9cb926a5eb7d",
        "to": "0xd61fd14acec329cabdc0b52d35e718086a558df2",
        "gas": "0xa672a",
        "value": "0x0",
        "input": "0x7bde82f20000000000000000000000000000000000000000033b2e3c9fd0803ce8000000000000000000000000000000cda2fdb452ff4f5d7ba1c3d5dfcc9cb926a5eb7d",
        "nonce": "0x22cc",
        "chainId": "0xed88"
      },
      "additionalContracts": [],
      "isFixedGasLimit": false
    }
  ],
  "receipts": [
    {
      "status": "0x1",
      "cumulativeGasUsed": "0x31d0fe",
      "logs": [
        {
          "address": "0xd61fd14acec329cabdc0b52d35e718086a558df2",
          "topics": [
            "0x8be0079c531659141344cd1fd0a4f28419497f9722a3daafe3b4186f6b6457e0",
            "0x0000000000000000000000000000000000000000000000000000000000000000",
            "0x000000000000000000000000cda2fdb452ff4f5d7ba1c3d5dfcc9cb926a5eb7d"
          ],
          "data": "0x",
          "blockHash": "0xac72b800a3956cfc438e3e2888489e1baa4ead684f07e8dac1a21577087c3466",
          "blockNumber": "0xc8f36e",
          "transactionHash": "0x96762aa0ec3e64d1aed6a24216ff4645923d4c4a3fe41b587b8fad3bc5d7bafa",
          "transactionIndex": "0x1",
          "logIndex": "0x0",
          "removed": false
        }
      ],
      "logsBloom": "0x00000800000000000000000000000000000000000000000000800000000000000000000000000000000000000000000000000000000000000000000000000000000000000000000000000000040000000001000000000000000000000000000000000000020000000000000000000800000000000000800000000000000000400000000000000000000000000000000000000000000000000020000000000000000000000000000000000000004000000000000000004000000000000000000000000000000000000000000000000000000000000000000000000000000020000000000000000000000000000000000000000000000000000000000000000000",
      "type": "0x2",
      "transactionHash": "0x96762aa0ec3e64d1aed6a24216ff4645923d4c4a3fe41b587b8fad3bc5d7bafa",
      "transactionIndex": "0x1",
      "blockHash": "0xac72b800a3956cfc438e3e2888489e1baa4ead684f07e8dac1a21577087c3466",
      "blockNumber": "0xc8f36e",
      "gasUsed": "0x312583",
      "effectiveGasPrice": "0xfd",
      "from": "0xcda2fdb452ff4f5d7ba1c3d5dfcc9cb926a5eb7d",
      "to": null,
      "contractAddress": "0xd61fd14acec329cabdc0b52d35e718086a558df2",
      "l1BaseFeeScalar": "0x186a0",
      "l1BlobBaseFee": "0x69849e63d",
      "l1BlobBaseFeeScalar": "0x95506",
      "l1Fee": "0x922ba7732912",
      "l1GasPrice": "0x60a8e4ff",
      "l1GasUsed": "0x1f84f"
    },
    {
      "status": "0x1",
      "cumulativeGasUsed": "0x3286d9",
      "logs": [
        {
          "address": "0x05d032ac25d322df992303dca074ee7392c117b9",
          "topics": [
            "0x8c5be1e5ebec7d5bd14f71427d1e84f3dd0314c0f7b2291e5b200ac8c7c3b925",
            "0x000000000000000000000000cda2fdb452ff4f5d7ba1c3d5dfcc9cb926a5eb7d",
            "0x000000000000000000000000d61fd14acec329cabdc0b52d35e718086a558df2"
          ],
          "data": "0xffffffffffffffffffffffffffffffffffffffffffffffffffffffffffffffff",
          "blockHash": "0xac72b800a3956cfc438e3e2888489e1baa4ead684f07e8dac1a21577087c3466",
          "blockNumber": "0xc8f36e",
          "transactionHash": "0xea6e791b6be0d9a9d3781e6e7254fe949140c9c5781883486e431b0e0e95e337",
          "transactionIndex": "0x2",
          "logIndex": "0x1",
          "removed": false
        }
      ],
      "logsBloom": "0x00000000000000000000010000000000000000000000000000000000000000000000000020000000000000000000000000000000000000000000000000200000000000000000000000000000040000000000000000000000000000000000000000000000000000000000000000000000000000000000800000000000000000000000000800000000000000000000000000000000000020000000000000000000020000000000000000000000000000000080000000004000000000000000000000000000000000000000000000000000000000000000000100000000000000000010000000000000000000000000000000000000000000000000000000000000",
      "type": "0x2",
      "transactionHash": "0xea6e791b6be0d9a9d3781e6e7254fe949140c9c5781883486e431b0e0e95e337",
      "transactionIndex": "0x2",
      "blockHash": "0xac72b800a3956cfc438e3e2888489e1baa4ead684f07e8dac1a21577087c3466",
      "blockNumber": "0xc8f36e",
      "gasUsed": "0xb5db",
      "effectiveGasPrice": "0xfd",
      "from": "0xcda2fdb452ff4f5d7ba1c3d5dfcc9cb926a5eb7d",
      "to": "0x05d032ac25d322df992303dca074ee7392c117b9",
      "contractAddress": null,
      "l1BaseFeeScalar": "0x186a0",
      "l1BlobBaseFee": "0x69849e63d",
      "l1BlobBaseFeeScalar": "0x95506",
      "l1Fee": "0x1cfbf9b1605",
      "l1GasPrice": "0x60a8e4ff",
      "l1GasUsed": "0x640"
    },
    {
      "status": "0x1",
      "cumulativeGasUsed": "0x333cb4",
      "logs": [
        {
          "address": "0x03c7054bcb39f7b2e5b2c7acb37583e32d70cfa3",
          "topics": [
            "0x8c5be1e5ebec7d5bd14f71427d1e84f3dd0314c0f7b2291e5b200ac8c7c3b925",
            "0x000000000000000000000000cda2fdb452ff4f5d7ba1c3d5dfcc9cb926a5eb7d",
            "0x000000000000000000000000d61fd14acec329cabdc0b52d35e718086a558df2"
          ],
          "data": "0xffffffffffffffffffffffffffffffffffffffffffffffffffffffffffffffff",
          "blockHash": "0xac72b800a3956cfc438e3e2888489e1baa4ead684f07e8dac1a21577087c3466",
          "blockNumber": "0xc8f36e",
          "transactionHash": "0x8409dcee4d2da7f9f4a458ed2ce65dd0472e79a9059aa80fcef1094089cbb471",
          "transactionIndex": "0x3",
          "logIndex": "0x2",
          "removed": false
        }
      ],
      "logsBloom": "0x00000000000000000000000000000100000000000000000000000000000000000000000020000000000000000000000000000000000000000000000000200000000000000000000000000000040000000000000000000000000000000000000000000000000000000000000000000000000000000000800000000000000000000000000000000000000000000000000000000000000020000000400000000000020000000000000000000000000000000000000000004000000000000000000000000000000000000000000000000000002000000000000100000000000000000010000000000000000000000000000000000000000000000000000000000000",
      "type": "0x2",
      "transactionHash": "0x8409dcee4d2da7f9f4a458ed2ce65dd0472e79a9059aa80fcef1094089cbb471",
      "transactionIndex": "0x3",
      "blockHash": "0xac72b800a3956cfc438e3e2888489e1baa4ead684f07e8dac1a21577087c3466",
      "blockNumber": "0xc8f36e",
      "gasUsed": "0xb5db",
      "effectiveGasPrice": "0xfd",
      "from": "0xcda2fdb452ff4f5d7ba1c3d5dfcc9cb926a5eb7d",
      "to": "0x03c7054bcb39f7b2e5b2c7acb37583e32d70cfa3",
      "contractAddress": null,
      "l1BaseFeeScalar": "0x186a0",
      "l1BlobBaseFee": "0x69849e63d",
      "l1BlobBaseFeeScalar": "0x95506",
      "l1Fee": "0x1cfbf9b1605",
      "l1GasPrice": "0x60a8e4ff",
      "l1GasUsed": "0x640"
    },
    {
      "status": "0x1",
      "cumulativeGasUsed": "0x33f1bb",
      "logs": [
        {
          "address": "0x4200000000000000000000000000000000000006",
          "topics": [
            "0x8c5be1e5ebec7d5bd14f71427d1e84f3dd0314c0f7b2291e5b200ac8c7c3b925",
            "0x000000000000000000000000cda2fdb452ff4f5d7ba1c3d5dfcc9cb926a5eb7d",
            "0x000000000000000000000000d61fd14acec329cabdc0b52d35e718086a558df2"
          ],
          "data": "0xffffffffffffffffffffffffffffffffffffffffffffffffffffffffffffffff",
          "blockHash": "0xac72b800a3956cfc438e3e2888489e1baa4ead684f07e8dac1a21577087c3466",
          "blockNumber": "0xc8f36e",
          "transactionHash": "0x5f669fd7dc43771c1afa4a0c053eb7057906fbe2e865d47d730faf3a38e13738",
          "transactionIndex": "0x4",
          "logIndex": "0x3",
          "removed": false
        }
      ],
      "logsBloom": "0x00000000000000000000000000000000000000000000000000040000000000000000000020000000000000100000000000000000000000000000000000200000000000000000000000000000040000000000000000000000000000000000000000000000000000000000000000000000000000000000800000000000000000000000000000000000000000000000000000000000002020000000000000000000020000000000000000000000000000000000000000004000000000000000000000000000000000000000000000000000000000000000000100000000000000000010000000000000000000000000000000000000000000000000000000000000",
      "type": "0x2",
      "transactionHash": "0x5f669fd7dc43771c1afa4a0c053eb7057906fbe2e865d47d730faf3a38e13738",
      "transactionIndex": "0x4",
      "blockHash": "0xac72b800a3956cfc438e3e2888489e1baa4ead684f07e8dac1a21577087c3466",
      "blockNumber": "0xc8f36e",
      "gasUsed": "0xb507",
      "effectiveGasPrice": "0xfd",
      "from": "0xcda2fdb452ff4f5d7ba1c3d5dfcc9cb926a5eb7d",
      "to": "0x4200000000000000000000000000000000000006",
      "contractAddress": null,
      "l1BaseFeeScalar": "0x186a0",
      "l1BlobBaseFee": "0x69849e63d",
      "l1BlobBaseFeeScalar": "0x95506",
      "l1Fee": "0x1cfbf9b1605",
      "l1GasPrice": "0x60a8e4ff",
      "l1GasUsed": "0x640"
    },
    {
      "status": "0x1",
      "cumulativeGasUsed": "0x36e10d",
      "logs": [
        {
          "address": "0x03c7054bcb39f7b2e5b2c7acb37583e32d70cfa3",
          "topics": [
            "0xddf252ad1be2c89b69c2b068fc378daa952ba7f163c4a11628f55a4df523b3ef",
            "0x000000000000000000000000cda2fdb452ff4f5d7ba1c3d5dfcc9cb926a5eb7d",
            "0x000000000000000000000000d61fd14acec329cabdc0b52d35e718086a558df2"
          ],
          "data": "0x000000000000000000000000000000000000000000000000000000000000ce9e",
          "blockHash": "0xac72b800a3956cfc438e3e2888489e1baa4ead684f07e8dac1a21577087c3466",
          "blockNumber": "0xc8f36e",
          "transactionHash": "0xe41d79ed5f3f93512e8282f438155e0c439a47fca07232aad713d7b06c28444d",
          "transactionIndex": "0x5",
          "logIndex": "0x4",
          "removed": false
        },
        {
          "address": "0x4200000000000000000000000000000000000006",
          "topics": [
            "0xddf252ad1be2c89b69c2b068fc378daa952ba7f163c4a11628f55a4df523b3ef",
            "0x000000000000000000000000cda2fdb452ff4f5d7ba1c3d5dfcc9cb926a5eb7d",
            "0x000000000000000000000000d61fd14acec329cabdc0b52d35e718086a558df2"
          ],
          "data": "0x000000000000000000000000000000000000000000000000004402a557aa2da8",
          "blockHash": "0xac72b800a3956cfc438e3e2888489e1baa4ead684f07e8dac1a21577087c3466",
          "blockNumber": "0xc8f36e",
          "transactionHash": "0xe41d79ed5f3f93512e8282f438155e0c439a47fca07232aad713d7b06c28444d",
          "transactionIndex": "0x5",
          "logIndex": "0x5",
          "removed": false
        },
        {
          "address": "0xd61fd14acec329cabdc0b52d35e718086a558df2",
          "topics": [
            "0xddf252ad1be2c89b69c2b068fc378daa952ba7f163c4a11628f55a4df523b3ef",
            "0x0000000000000000000000000000000000000000000000000000000000000000",
            "0x000000000000000000000000cda2fdb452ff4f5d7ba1c3d5dfcc9cb926a5eb7d"
          ],
          "data": "0x0000000000000000000000000000000000000001431e0fae6d7217caa0000000",
          "blockHash": "0xac72b800a3956cfc438e3e2888489e1baa4ead684f07e8dac1a21577087c3466",
          "blockNumber": "0xc8f36e",
          "transactionHash": "0xe41d79ed5f3f93512e8282f438155e0c439a47fca07232aad713d7b06c28444d",
          "transactionIndex": "0x5",
          "logIndex": "0x6",
          "removed": false
        }
      ],
      "logsBloom": "0x00000800000000000000000000000100000000000000000000040000000000000000000020000000000000100000000000000000000000000000000000000000000000000000000000000008040000000000000000000000000000000000000000000000020000000000000000000800000000000000800000000010000000000000000000000000000000000000000000000000002020000020400000000000000000000000000000000000004000000000000000004000000000000000000000000002000000000000000000000000002000000000000100000000000020000000000000000000000000000000000000000000000000000000000000000000",
      "type": "0x2",
      "transactionHash": "0xe41d79ed5f3f93512e8282f438155e0c439a47fca07232aad713d7b06c28444d",
      "transactionIndex": "0x5",
      "blockHash": "0xac72b800a3956cfc438e3e2888489e1baa4ead684f07e8dac1a21577087c3466",
      "blockNumber": "0xc8f36e",
      "gasUsed": "0x2ef52",
      "effectiveGasPrice": "0xfd",
      "from": "0xcda2fdb452ff4f5d7ba1c3d5dfcc9cb926a5eb7d",
      "to": "0xd61fd14acec329cabdc0b52d35e718086a558df2",
      "contractAddress": null,
      "l1BaseFeeScalar": "0x186a0",
      "l1BlobBaseFee": "0x69849e63d",
      "l1BlobBaseFeeScalar": "0x95506",
      "l1Fee": "0x22734d14a8e",
      "l1GasPrice": "0x60a8e4ff",
      "l1GasUsed": "0x76d"
    },
    {
      "status": "0x1",
      "cumulativeGasUsed": "0x3e2dfa",
      "logs": [
        {
          "address": "0x05d032ac25d322df992303dca074ee7392c117b9",
          "topics": [
            "0xddf252ad1be2c89b69c2b068fc378daa952ba7f163c4a11628f55a4df523b3ef",
            "0x000000000000000000000000cda2fdb452ff4f5d7ba1c3d5dfcc9cb926a5eb7d",
            "0x000000000000000000000000d61fd14acec329cabdc0b52d35e718086a558df2"
          ],
          "data": "0x00000000000000000000000000000000000000000000000000000000000f97d6",
          "blockHash": "0xac72b800a3956cfc438e3e2888489e1baa4ead684f07e8dac1a21577087c3466",
          "blockNumber": "0xc8f36e",
          "transactionHash": "0x23aaae520a56294321f63bbbbf373af10347d713db1010ffdd4d61fc93c05a68",
          "transactionIndex": "0x6",
          "logIndex": "0x7",
          "removed": false
        },
        {
          "address": "0x05d032ac25d322df992303dca074ee7392c117b9",
          "topics": [
            "0x8c5be1e5ebec7d5bd14f71427d1e84f3dd0314c0f7b2291e5b200ac8c7c3b925",
            "0x000000000000000000000000d61fd14acec329cabdc0b52d35e718086a558df2",
            "0x000000000000000000000000807f4e281b7a3b324825c64ca53c69f0b418de40"
          ],
          "data": "0x00000000000000000000000000000000000000000000000000000000000f97d6",
          "blockHash": "0xac72b800a3956cfc438e3e2888489e1baa4ead684f07e8dac1a21577087c3466",
          "blockNumber": "0xc8f36e",
          "transactionHash": "0x23aaae520a56294321f63bbbbf373af10347d713db1010ffdd4d61fc93c05a68",
          "transactionIndex": "0x6",
          "logIndex": "0x8",
          "removed": false
        },
        {
          "address": "0x03c7054bcb39f7b2e5b2c7acb37583e32d70cfa3",
          "topics": [
            "0xddf252ad1be2c89b69c2b068fc378daa952ba7f163c4a11628f55a4df523b3ef",
            "0x0000000000000000000000006407fec527abad1aafdb9a3b5a2171800c21a2fe",
            "0x000000000000000000000000d61fd14acec329cabdc0b52d35e718086a558df2"
          ],
          "data": "0x000000000000000000000000000000000000000000000000000000000000020e",
          "blockHash": "0xac72b800a3956cfc438e3e2888489e1baa4ead684f07e8dac1a21577087c3466",
          "blockNumber": "0xc8f36e",
          "transactionHash": "0x23aaae520a56294321f63bbbbf373af10347d713db1010ffdd4d61fc93c05a68",
          "transactionIndex": "0x6",
          "logIndex": "0x9",
          "removed": false
        },
        {
          "address": "0x05d032ac25d322df992303dca074ee7392c117b9",
          "topics": [
            "0x8c5be1e5ebec7d5bd14f71427d1e84f3dd0314c0f7b2291e5b200ac8c7c3b925",
            "0x000000000000000000000000d61fd14acec329cabdc0b52d35e718086a558df2",
            "0x000000000000000000000000807f4e281b7a3b324825c64ca53c69f0b418de40"
          ],
          "data": "0x000000000000000000000000000000000000000000000000000000000007cbeb",
          "blockHash": "0xac72b800a3956cfc438e3e2888489e1baa4ead684f07e8dac1a21577087c3466",
          "blockNumber": "0xc8f36e",
          "transactionHash": "0x23aaae520a56294321f63bbbbf373af10347d713db1010ffdd4d61fc93c05a68",
          "transactionIndex": "0x6",
          "logIndex": "0xa",
          "removed": false
        },
        {
          "address": "0x05d032ac25d322df992303dca074ee7392c117b9",
          "topics": [
            "0xddf252ad1be2c89b69c2b068fc378daa952ba7f163c4a11628f55a4df523b3ef",
            "0x000000000000000000000000d61fd14acec329cabdc0b52d35e718086a558df2",
            "0x0000000000000000000000006407fec527abad1aafdb9a3b5a2171800c21a2fe"
          ],
          "data": "0x000000000000000000000000000000000000000000000000000000000007cbeb",
          "blockHash": "0xac72b800a3956cfc438e3e2888489e1baa4ead684f07e8dac1a21577087c3466",
          "blockNumber": "0xc8f36e",
          "transactionHash": "0x23aaae520a56294321f63bbbbf373af10347d713db1010ffdd4d61fc93c05a68",
          "transactionIndex": "0x6",
          "logIndex": "0xb",
          "removed": false
        },
        {
          "address": "0x6407fec527abad1aafdb9a3b5a2171800c21a2fe",
          "topics": [
            "0xc42079f94a6350d7e6235f29174924f928cc2ac818eb64fed8004e115fbcca67",
            "0x000000000000000000000000807f4e281b7a3b324825c64ca53c69f0b418de40",
            "0x000000000000000000000000d61fd14acec329cabdc0b52d35e718086a558df2"
          ],
          "data": "0xfffffffffffffffffffffffffffffffffffffffffffffffffffffffffffffdf2000000000000000000000000000000000000000000000000000000000007cbeb000000000000000000000000000000000000001f1cc8ae34ef4476f3774a9a85000000000000000000000000000000000000000000000000000000046fc5a4070000000000000000000000000000000000000000000000000000000000010c93",
          "blockHash": "0xac72b800a3956cfc438e3e2888489e1baa4ead684f07e8dac1a21577087c3466",
          "blockNumber": "0xc8f36e",
          "transactionHash": "0x23aaae520a56294321f63bbbbf373af10347d713db1010ffdd4d61fc93c05a68",
          "transactionIndex": "0x6",
          "logIndex": "0xc",
          "removed": false
        },
        {
          "address": "0x4200000000000000000000000000000000000006",
          "topics": [
            "0xddf252ad1be2c89b69c2b068fc378daa952ba7f163c4a11628f55a4df523b3ef",
            "0x0000000000000000000000009a3b17a2e2daf54ce80f2f4b2c8440902be715de",
            "0x000000000000000000000000d61fd14acec329cabdc0b52d35e718086a558df2"
          ],
          "data": "0x0000000000000000000000000000000000000000000000000000aeb00c1c4a6a",
          "blockHash": "0xac72b800a3956cfc438e3e2888489e1baa4ead684f07e8dac1a21577087c3466",
          "blockNumber": "0xc8f36e",
          "transactionHash": "0x23aaae520a56294321f63bbbbf373af10347d713db1010ffdd4d61fc93c05a68",
          "transactionIndex": "0x6",
          "logIndex": "0xd",
          "removed": false
        },
        {
          "address": "0x05d032ac25d322df992303dca074ee7392c117b9",
          "topics": [
            "0x8c5be1e5ebec7d5bd14f71427d1e84f3dd0314c0f7b2291e5b200ac8c7c3b925",
            "0x000000000000000000000000d61fd14acec329cabdc0b52d35e718086a558df2",
            "0x000000000000000000000000807f4e281b7a3b324825c64ca53c69f0b418de40"
          ],
          "data": "0x0000000000000000000000000000000000000000000000000000000000000000",
          "blockHash": "0xac72b800a3956cfc438e3e2888489e1baa4ead684f07e8dac1a21577087c3466",
          "blockNumber": "0xc8f36e",
          "transactionHash": "0x23aaae520a56294321f63bbbbf373af10347d713db1010ffdd4d61fc93c05a68",
          "transactionIndex": "0x6",
          "logIndex": "0xe",
          "removed": false
        },
        {
          "address": "0x05d032ac25d322df992303dca074ee7392c117b9",
          "topics": [
            "0xddf252ad1be2c89b69c2b068fc378daa952ba7f163c4a11628f55a4df523b3ef",
            "0x000000000000000000000000d61fd14acec329cabdc0b52d35e718086a558df2",
            "0x0000000000000000000000009a3b17a2e2daf54ce80f2f4b2c8440902be715de"
          ],
          "data": "0x000000000000000000000000000000000000000000000000000000000007cbeb",
          "blockHash": "0xac72b800a3956cfc438e3e2888489e1baa4ead684f07e8dac1a21577087c3466",
          "blockNumber": "0xc8f36e",
          "transactionHash": "0x23aaae520a56294321f63bbbbf373af10347d713db1010ffdd4d61fc93c05a68",
          "transactionIndex": "0x6",
          "logIndex": "0xf",
          "removed": false
        },
        {
          "address": "0x9a3b17a2e2daf54ce80f2f4b2c8440902be715de",
          "topics": [
            "0xc42079f94a6350d7e6235f29174924f928cc2ac818eb64fed8004e115fbcca67",
            "0x000000000000000000000000807f4e281b7a3b324825c64ca53c69f0b418de40",
            "0x000000000000000000000000d61fd14acec329cabdc0b52d35e718086a558df2"
          ],
          "data": "0x000000000000000000000000000000000000000000000000000000000007cbebffffffffffffffffffffffffffffffffffffffffffffffffffff514ff3e3b5960000000000000000000000000000000000004bd96713f659ad19ddc782162be200000000000000000000000000000000000000000000000000071c8f20592a200000000000000000000000000000000000000000000000000000000000030370",
          "blockHash": "0xac72b800a3956cfc438e3e2888489e1baa4ead684f07e8dac1a21577087c3466",
          "blockNumber": "0xc8f36e",
          "transactionHash": "0x23aaae520a56294321f63bbbbf373af10347d713db1010ffdd4d61fc93c05a68",
          "transactionIndex": "0x6",
          "logIndex": "0x10",
          "removed": false
        },
        {
          "address": "0xd61fd14acec329cabdc0b52d35e718086a558df2",
          "topics": [
            "0xddf252ad1be2c89b69c2b068fc378daa952ba7f163c4a11628f55a4df523b3ef",
            "0x0000000000000000000000000000000000000000000000000000000000000000",
            "0x000000000000000000000000cda2fdb452ff4f5d7ba1c3d5dfcc9cb926a5eb7d"
          ],
          "data": "0x0000000000000000000000000000000000000000033b2e3c9fd0803ce8000000",
          "blockHash": "0xac72b800a3956cfc438e3e2888489e1baa4ead684f07e8dac1a21577087c3466",
          "blockNumber": "0xc8f36e",
          "transactionHash": "0x23aaae520a56294321f63bbbbf373af10347d713db1010ffdd4d61fc93c05a68",
          "transactionIndex": "0x6",
          "logIndex": "0x11",
          "removed": false
        },
        {
          "address": "0xd61fd14acec329cabdc0b52d35e718086a558df2",
          "topics": [
            "0x90890809c654f11d6e72a28fa60149770a0d11ec6c92319d6ceb2bb0a4ea1a15",
            "0x000000000000000000000000cda2fdb452ff4f5d7ba1c3d5dfcc9cb926a5eb7d"
          ],
          "data": "0x0000000000000000000000000000000000000000033b2e3c9fd0803ce800000000000000000000000000000000000000000000000000000000000000000f97d6",
          "blockHash": "0xac72b800a3956cfc438e3e2888489e1baa4ead684f07e8dac1a21577087c3466",
          "blockNumber": "0xc8f36e",
          "transactionHash": "0x23aaae520a56294321f63bbbbf373af10347d713db1010ffdd4d61fc93c05a68",
          "transactionIndex": "0x6",
          "logIndex": "0x12",
          "removed": false
        }
      ],
      "logsBloom": "0x00000800000000000000010000000100000000000400000080040000000000000000000020000000000000100000000008000000000030000000000000200000000000000040000800000008040000000000000000000000000000000000000000000000020000000000000000000800000000000000800000802010000800000000000800000000000200000000000000000000022020000020400000000000020000000000000001000010004000000081000000004000000000000000000000000002000000000000000000000000002000000080000100000000000020000010000020020000000000000000000000000000400000000400080000000000",
      "type": "0x2",
      "transactionHash": "0x23aaae520a56294321f63bbbbf373af10347d713db1010ffdd4d61fc93c05a68",
      "transactionIndex": "0x6",
      "blockHash": "0xac72b800a3956cfc438e3e2888489e1baa4ead684f07e8dac1a21577087c3466",
      "blockNumber": "0xc8f36e",
      "gasUsed": "0x74ced",
      "effectiveGasPrice": "0xfd",
      "from": "0xcda2fdb452ff4f5d7ba1c3d5dfcc9cb926a5eb7d",
      "to": "0xd61fd14acec329cabdc0b52d35e718086a558df2",
      "contractAddress": null,
      "l1BaseFeeScalar": "0x186a0",
      "l1BlobBaseFee": "0x69849e63d",
      "l1BlobBaseFeeScalar": "0x95506",
      "l1Fee": "0x1cfbf9b1605",
      "l1GasPrice": "0x60a8e4ff",
      "l1GasUsed": "0x640"
    },
    {
      "status": "0x1",
      "cumulativeGasUsed": "0x45b610",
      "logs": [
        {
          "address": "0xd61fd14acec329cabdc0b52d35e718086a558df2",
          "topics": [
            "0xddf252ad1be2c89b69c2b068fc378daa952ba7f163c4a11628f55a4df523b3ef",
            "0x000000000000000000000000cda2fdb452ff4f5d7ba1c3d5dfcc9cb926a5eb7d",
            "0x0000000000000000000000000000000000000000000000000000000000000000"
          ],
          "data": "0x0000000000000000000000000000000000000000033b2e3c9fd0803ce8000000",
          "blockHash": "0xac72b800a3956cfc438e3e2888489e1baa4ead684f07e8dac1a21577087c3466",
          "blockNumber": "0xc8f36e",
          "transactionHash": "0xb48076f33857966dc4480e0c7f24e04250314fc5c63c7aa10e64371d766c66fc",
          "transactionIndex": "0x7",
          "logIndex": "0x13",
          "removed": false
        },
        {
          "address": "0x03c7054bcb39f7b2e5b2c7acb37583e32d70cfa3",
          "topics": [
            "0x8c5be1e5ebec7d5bd14f71427d1e84f3dd0314c0f7b2291e5b200ac8c7c3b925",
            "0x000000000000000000000000d61fd14acec329cabdc0b52d35e718086a558df2",
            "0x000000000000000000000000807f4e281b7a3b324825c64ca53c69f0b418de40"
          ],
          "data": "0x0000000000000000000000000000000000000000000000000000000000000208",
          "blockHash": "0xac72b800a3956cfc438e3e2888489e1baa4ead684f07e8dac1a21577087c3466",
          "blockNumber": "0xc8f36e",
          "transactionHash": "0xb48076f33857966dc4480e0c7f24e04250314fc5c63c7aa10e64371d766c66fc",
          "transactionIndex": "0x7",
          "logIndex": "0x14",
          "removed": false
        },
        {
          "address": "0x05d032ac25d322df992303dca074ee7392c117b9",
          "topics": [
            "0xddf252ad1be2c89b69c2b068fc378daa952ba7f163c4a11628f55a4df523b3ef",
            "0x0000000000000000000000006407fec527abad1aafdb9a3b5a2171800c21a2fe",
            "0x000000000000000000000000d61fd14acec329cabdc0b52d35e718086a558df2"
          ],
          "data": "0x000000000000000000000000000000000000000000000000000000000007a6a7",
          "blockHash": "0xac72b800a3956cfc438e3e2888489e1baa4ead684f07e8dac1a21577087c3466",
          "blockNumber": "0xc8f36e",
          "transactionHash": "0xb48076f33857966dc4480e0c7f24e04250314fc5c63c7aa10e64371d766c66fc",
          "transactionIndex": "0x7",
          "logIndex": "0x15",
          "removed": false
        },
        {
          "address": "0x03c7054bcb39f7b2e5b2c7acb37583e32d70cfa3",
          "topics": [
            "0x8c5be1e5ebec7d5bd14f71427d1e84f3dd0314c0f7b2291e5b200ac8c7c3b925",
            "0x000000000000000000000000d61fd14acec329cabdc0b52d35e718086a558df2",
            "0x000000000000000000000000807f4e281b7a3b324825c64ca53c69f0b418de40"
          ],
          "data": "0x0000000000000000000000000000000000000000000000000000000000000000",
          "blockHash": "0xac72b800a3956cfc438e3e2888489e1baa4ead684f07e8dac1a21577087c3466",
          "blockNumber": "0xc8f36e",
          "transactionHash": "0xb48076f33857966dc4480e0c7f24e04250314fc5c63c7aa10e64371d766c66fc",
          "transactionIndex": "0x7",
          "logIndex": "0x16",
          "removed": false
        },
        {
          "address": "0x03c7054bcb39f7b2e5b2c7acb37583e32d70cfa3",
          "topics": [
            "0xddf252ad1be2c89b69c2b068fc378daa952ba7f163c4a11628f55a4df523b3ef",
            "0x000000000000000000000000d61fd14acec329cabdc0b52d35e718086a558df2",
            "0x0000000000000000000000006407fec527abad1aafdb9a3b5a2171800c21a2fe"
          ],
          "data": "0x0000000000000000000000000000000000000000000000000000000000000208",
          "blockHash": "0xac72b800a3956cfc438e3e2888489e1baa4ead684f07e8dac1a21577087c3466",
          "blockNumber": "0xc8f36e",
          "transactionHash": "0xb48076f33857966dc4480e0c7f24e04250314fc5c63c7aa10e64371d766c66fc",
          "transactionIndex": "0x7",
          "logIndex": "0x17",
          "removed": false
        },
        {
          "address": "0x6407fec527abad1aafdb9a3b5a2171800c21a2fe",
          "topics": [
            "0xc42079f94a6350d7e6235f29174924f928cc2ac818eb64fed8004e115fbcca67",
            "0x000000000000000000000000807f4e281b7a3b324825c64ca53c69f0b418de40",
            "0x000000000000000000000000d61fd14acec329cabdc0b52d35e718086a558df2"
          ],
          "data": "0x0000000000000000000000000000000000000000000000000000000000000208fffffffffffffffffffffffffffffffffffffffffffffffffffffffffff85959000000000000000000000000000000000000001f1cc6f4bb4a4cc96f25794596000000000000000000000000000000000000000000000000000000046fc5a4070000000000000000000000000000000000000000000000000000000000010c93",
          "blockHash": "0xac72b800a3956cfc438e3e2888489e1baa4ead684f07e8dac1a21577087c3466",
          "blockNumber": "0xc8f36e",
          "transactionHash": "0xb48076f33857966dc4480e0c7f24e04250314fc5c63c7aa10e64371d766c66fc",
          "transactionIndex": "0x7",
          "logIndex": "0x18",
          "removed": false
        },
        {
          "address": "0x4200000000000000000000000000000000000006",
          "topics": [
            "0x8c5be1e5ebec7d5bd14f71427d1e84f3dd0314c0f7b2291e5b200ac8c7c3b925",
            "0x000000000000000000000000d61fd14acec329cabdc0b52d35e718086a558df2",
            "0x000000000000000000000000807f4e281b7a3b324825c64ca53c69f0b418de40"
          ],
          "data": "0x0000000000000000000000000000000000000000000000000000ad0e41b6d30a",
          "blockHash": "0xac72b800a3956cfc438e3e2888489e1baa4ead684f07e8dac1a21577087c3466",
          "blockNumber": "0xc8f36e",
          "transactionHash": "0xb48076f33857966dc4480e0c7f24e04250314fc5c63c7aa10e64371d766c66fc",
          "transactionIndex": "0x7",
          "logIndex": "0x19",
          "removed": false
        },
        {
          "address": "0x05d032ac25d322df992303dca074ee7392c117b9",
          "topics": [
            "0xddf252ad1be2c89b69c2b068fc378daa952ba7f163c4a11628f55a4df523b3ef",
            "0x0000000000000000000000009a3b17a2e2daf54ce80f2f4b2c8440902be715de",
            "0x000000000000000000000000d61fd14acec329cabdc0b52d35e718086a558df2"
          ],
          "data": "0x000000000000000000000000000000000000000000000000000000000007ad6c",
          "blockHash": "0xac72b800a3956cfc438e3e2888489e1baa4ead684f07e8dac1a21577087c3466",
          "blockNumber": "0xc8f36e",
          "transactionHash": "0xb48076f33857966dc4480e0c7f24e04250314fc5c63c7aa10e64371d766c66fc",
          "transactionIndex": "0x7",
          "logIndex": "0x1a",
          "removed": false
        },
        {
          "address": "0x4200000000000000000000000000000000000006",
          "topics": [
            "0xddf252ad1be2c89b69c2b068fc378daa952ba7f163c4a11628f55a4df523b3ef",
            "0x000000000000000000000000d61fd14acec329cabdc0b52d35e718086a558df2",
            "0x0000000000000000000000009a3b17a2e2daf54ce80f2f4b2c8440902be715de"
          ],
          "data": "0x0000000000000000000000000000000000000000000000000000ad0e41b6d30a",
          "blockHash": "0xac72b800a3956cfc438e3e2888489e1baa4ead684f07e8dac1a21577087c3466",
          "blockNumber": "0xc8f36e",
          "transactionHash": "0xb48076f33857966dc4480e0c7f24e04250314fc5c63c7aa10e64371d766c66fc",
          "transactionIndex": "0x7",
          "logIndex": "0x1b",
          "removed": false
        },
        {
          "address": "0x9a3b17a2e2daf54ce80f2f4b2c8440902be715de",
          "topics": [
            "0xc42079f94a6350d7e6235f29174924f928cc2ac818eb64fed8004e115fbcca67",
            "0x000000000000000000000000807f4e281b7a3b324825c64ca53c69f0b418de40",
            "0x000000000000000000000000d61fd14acec329cabdc0b52d35e718086a558df2"
          ],
          "data": "0xfffffffffffffffffffffffffffffffffffffffffffffffffffffffffff852940000000000000000000000000000000000000000000000000000ad0e41b6d30a0000000000000000000000000000000000004bd97f56e2d136a3feaf15c7704a00000000000000000000000000000000000000000000000000071c8f20592a200000000000000000000000000000000000000000000000000000000000030370",
          "blockHash": "0xac72b800a3956cfc438e3e2888489e1baa4ead684f07e8dac1a21577087c3466",
          "blockNumber": "0xc8f36e",
          "transactionHash": "0xb48076f33857966dc4480e0c7f24e04250314fc5c63c7aa10e64371d766c66fc",
          "transactionIndex": "0x7",
          "logIndex": "0x1c",
          "removed": false
        },
        {
          "address": "0x05d032ac25d322df992303dca074ee7392c117b9",
          "topics": [
            "0xddf252ad1be2c89b69c2b068fc378daa952ba7f163c4a11628f55a4df523b3ef",
            "0x000000000000000000000000d61fd14acec329cabdc0b52d35e718086a558df2",
            "0x000000000000000000000000cda2fdb452ff4f5d7ba1c3d5dfcc9cb926a5eb7d"
          ],
          "data": "0x00000000000000000000000000000000000000000000000000000000000f5413",
          "blockHash": "0xac72b800a3956cfc438e3e2888489e1baa4ead684f07e8dac1a21577087c3466",
          "blockNumber": "0xc8f36e",
          "transactionHash": "0xb48076f33857966dc4480e0c7f24e04250314fc5c63c7aa10e64371d766c66fc",
          "transactionIndex": "0x7",
          "logIndex": "0x1d",
          "removed": false
        },
        {
          "address": "0xd61fd14acec329cabdc0b52d35e718086a558df2",
          "topics": [
            "0xf279e6a1f5e320cca91135676d9cb6e44ca8a08c0b88342bcdb1144f6511b568",
            "0x000000000000000000000000cda2fdb452ff4f5d7ba1c3d5dfcc9cb926a5eb7d"
          ],
          "data": "0x0000000000000000000000000000000000000000033b2e3c9fd0803ce800000000000000000000000000000000000000000000000000000000000000000f5413",
          "blockHash": "0xac72b800a3956cfc438e3e2888489e1baa4ead684f07e8dac1a21577087c3466",
          "blockNumber": "0xc8f36e",
          "transactionHash": "0xb48076f33857966dc4480e0c7f24e04250314fc5c63c7aa10e64371d766c66fc",
          "transactionIndex": "0x7",
          "logIndex": "0x1e",
          "removed": false
        }
      ],
      "logsBloom": "0x00000800000000000000010000000100000000000000000080040000000000000000000020000000000000100000000000000000000030000000000000200000000000000040000800000008040000000000000000000000000000000000000000000000020000000000000000000800000000000000800000802010000800000000000800000000000200000000000000000000022020000020400000000810020000000000000001000010004000000081000000004000000000000000000000000002000000000000000000000000002000000080000100000000000020000010040020020000000000000000000000000000000000000400080000000000",
      "type": "0x2",
      "transactionHash": "0xb48076f33857966dc4480e0c7f24e04250314fc5c63c7aa10e64371d766c66fc",
      "transactionIndex": "0x7",
      "blockHash": "0xac72b800a3956cfc438e3e2888489e1baa4ead684f07e8dac1a21577087c3466",
      "blockNumber": "0xc8f36e",
      "gasUsed": "0x78816",
      "effectiveGasPrice": "0xfd",
      "from": "0xcda2fdb452ff4f5d7ba1c3d5dfcc9cb926a5eb7d",
      "to": "0xd61fd14acec329cabdc0b52d35e718086a558df2",
      "contractAddress": null,
      "l1BaseFeeScalar": "0x186a0",
      "l1BlobBaseFee": "0x69849e63d",
      "l1BlobBaseFeeScalar": "0x95506",
      "l1Fee": "0x1cfbf9b1605",
      "l1GasPrice": "0x60a8e4ff",
      "l1GasUsed": "0x640"
    }
  ],
  "libraries": [],
  "pending": [],
  "returns": {},
  "timestamp": 1739201046,
  "chain": 60808,
  "commit": "c03c0fa"
}