{
  "transactions": [
    {
      "hash": "0x4e9bf15af8d9f0d1bbee6b939ae62e04d9421aa8233a5eb27b36728d2194d7b4",
      "transactionType": "CREATE",
      "contractName": "Adjustor",
      "contractAddress": "0x00ddc09a9e2edfdd0ab035d6cfe7af295f6a1238",
      "function": null,
      "arguments": [
        "0x1Ff2fFada49646fB9b326EdF8A91446d3cf9a291"
      ],
      "transaction": {
        "from": "0xcda2fdb452ff4f5d7ba1c3d5dfcc9cb926a5eb7d",
        "gas": "0x39022",
        "value": "0x0",
        "input": "0x608060405234801561000f575f80fd5b5060405161026338038061026383398101604081905261002e91610052565b5f80546001600160a01b0319166001600160a01b039290921691909117905561007f565b5f60208284031215610062575f80fd5b81516001600160a01b0381168114610078575f80fd5b9392505050565b6101d78061008c5f395ff3fe608060405234801561000f575f80fd5b5060043610610029575f3560e01c806357de26a41461002d575b5f80fd5b610035610058565b60408051601b9390930b835263ffffffff90911660208301520160405180910390f35b5f805f805f9054906101000a90046001600160a01b03166001600160a01b031663feaf968c6040518163ffffffff1660e01b815260040160a060405180830381865afa1580156100aa573d5f803e3d5ffd5b505050506040513d601f19601f820116820180604052508101906100ce919061010c565b505050915050806402540be4006100e5919061016c565b93429350915050565b805169ffffffffffffffffffff81168114610107575f80fd5b919050565b5f805f805f60a08688031215610120575f80fd5b610129866100ee565b945060208601519350604086015192506060860151915061014c608087016100ee565b90509295509295909350565b634e487b7160e01b5f52601160045260245ffd5b8082025f8212600160ff1b8414161561018757610187610158565b818105831482151761019b5761019b610158565b9291505056fea2646970667358221220e2489cd7dcdc1f0e6dac8a8c66f834c69b46a651e830113790b438216806b78464736f6c634300081400330000000000000000000000001ff2ffada49646fb9b326edf8a91446d3cf9a291",
        "nonce": "0x2c46",
        "chainId": "0xed88"
      },
      "additionalContracts": [],
      "isFixedGasLimit": false
    },
    {
      "hash": "0x6933e2836f5b9d560052208aa0d32a4b78049cdd44a047e656e317f524c61cb7",
      "transactionType": "CREATE",
      "contractName": "Adjustor",
      "contractAddress": "0x83ebe3e2301534f2e514c25a99df5be552410b69",
      "function": null,
      "arguments": [
        "0x97CB85Eb5F892Dd02866672EAB137b3C34501b7b"
      ],
      "transaction": {
        "from": "0xcda2fdb452ff4f5d7ba1c3d5dfcc9cb926a5eb7d",
        "gas": "0x39022",
        "value": "0x0",
        "input": "0x608060405234801561000f575f80fd5b5060405161026338038061026383398101604081905261002e91610052565b5f80546001600160a01b0319166001600160a01b039290921691909117905561007f565b5f60208284031215610062575f80fd5b81516001600160a01b0381168114610078575f80fd5b9392505050565b6101d78061008c5f395ff3fe608060405234801561000f575f80fd5b5060043610610029575f3560e01c806357de26a41461002d575b5f80fd5b610035610058565b60408051601b9390930b835263ffffffff90911660208301520160405180910390f35b5f805f805f9054906101000a90046001600160a01b03166001600160a01b031663feaf968c6040518163ffffffff1660e01b815260040160a060405180830381865afa1580156100aa573d5f803e3d5ffd5b505050506040513d601f19601f820116820180604052508101906100ce919061010c565b505050915050806402540be4006100e5919061016c565b93429350915050565b805169ffffffffffffffffffff81168114610107575f80fd5b919050565b5f805f805f60a08688031215610120575f80fd5b610129866100ee565b945060208601519350604086015192506060860151915061014c608087016100ee565b90509295509295909350565b634e487b7160e01b5f52601160045260245ffd5b8082025f8212600160ff1b8414161561018757610187610158565b818105831482151761019b5761019b610158565b9291505056fea2646970667358221220e2489cd7dcdc1f0e6dac8a8c66f834c69b46a651e830113790b438216806b78464736f6c6343000814003300000000000000000000000097cb85eb5f892dd02866672eab137b3c34501b7b",
        "nonce": "0x2c47",
        "chainId": "0xed88"
      },
      "additionalContracts": [],
      "isFixedGasLimit": false
    },
    {
      "hash": "0x2a383243c5ae05832eea94a64fa220a81ebf79f4700c895720ec343b492bc665",
      "transactionType": "CALL",
      "contractName": null,
      "contractAddress": "0x79674078ad361d75ee04c73bccb5bbea4c55c618",
      "function": "changeStates(address[],address[],uint8[],uint24[],address,address,address,address)",
      "arguments": [
        "[0x03C7054BCB39f7b2e5B2c7AcB37583e32D70Cfa3, 0x4200000000000000000000000000000000000006]",
        "[0x00dDc09a9E2EDfDd0Ab035D6cfe7af295f6A1238, 0x83eBE3E2301534f2E514c25A99Df5BE552410B69]",
        "[8, 18]",
        "[3000, 3000]",
        "0x05D032ac25d322df992303dCa074EE7392C117b9",
        "0x807F4E281B7A3B324825C64ca53c69F0b418dE40",
        "0x6Aa54a43d7eEF5b239a18eed3Af4877f46522BCA",
        "0xcb2436774C3e191c85056d248EF4260ce5f27A9D"
      ],
      "transaction": {
        "from": "0xcda2fdb452ff4f5d7ba1c3d5dfcc9cb926a5eb7d",
        "to": "0x79674078ad361d75ee04c73bccb5bbea4c55c618",
        "gas": "0x1c886",
        "value": "0x0",
        "input": "0x423792170000000000000000000000000000000000000000000000000000000000000100000000000000000000000000000000000000000000000000000000000000016000000000000000000000000000000000000000000000000000000000000001c0000000000000000000000000000000000000000000000000000000000000022000000000000000000000000005d032ac25d322df992303dca074ee7392c117b9000000000000000000000000807f4e281b7a3b324825c64ca53c69f0b418de400000000000000000000000006aa54a43d7eef5b239a18eed3af4877f46522bca000000000000000000000000cb2436774c3e191c85056d248ef4260ce5f27a9d000000000000000000000000000000000000000000000000000000000000000200000000000000000000000003c7054bcb39f7b2e5b2c7acb37583e32d70cfa30000000000000000000000004200000000000000000000000000000000000006000000000000000000000000000000000000000000000000000000000000000200000000000000000000000000ddc09a9e2edfdd0ab035d6cfe7af295f6a123800000000000000000000000083ebe3e2301534f2e514c25a99df5be552410b6900000000000000000000000000000000000000000000000000000000000000020000000000000000000000000000000000000000000000000000000000000008000000000000000000000000000000000000000000000000000000000000001200000000000000000000000000000000000000000000000000000000000000020000000000000000000000000000000000000000000000000000000000000bb80000000000000000000000000000000000000000000000000000000000000bb8",
        "nonce": "0x2c48",
        "chainId": "0xed88"
      },
      "additionalContracts": [],
      "isFixedGasLimit": false
    }
  ],
  "receipts": [
    {
      "status": "0x1",
      "cumulativeGasUsed": "0x389a7",
      "logs": [],
      "logsBloom": "0x00000000000000000000000000000000000000000000000000000000000000000000000000000000000000000000000000000000000000000000000000000000000000000000000000000000000000000000000000000000000000000000000000000000000000000000000000000000000000000000000000000000000000000000000000000000000000000000000000000000000000000000000000000000000000000000000000000000000000000000000000000000000000000000000000000000000000000000000000000000000000000000000000000000000000000000000000000000000000000000000000000000000000000000000000000000",
      "type": "0x2",
      "transactionHash": "0x4e9bf15af8d9f0d1bbee6b939ae62e04d9421aa8233a5eb27b36728d2194d7b4",
      "transactionIndex": "0x1",
      "blockHash": "0xe19e165bdf6e5054ffa6cac19009d8180bb084941b4c8462da529ff5542314ab",
      "blockNumber": "0xda937d",
      "gasUsed": "0x2bda4",
      "effectiveGasPrice": "0xf433c",
      "from": "0xcda2fdb452ff4f5d7ba1c3d5dfcc9cb926a5eb7d",
      "to": null,
      "contractAddress": "0x00ddc09a9e2edfdd0ab035d6cfe7af295f6a1238",
      "l1BaseFeeScalar": "0x186a0",
      "l1BlobBaseFee": "0x1",
      "l1BlobBaseFeeScalar": "0x95506",
      "l1Fee": "0x687d6b6942",
      "l1GasPrice": "0x20209906",
      "l1GasUsed": "0x2086"
    },
    {
      "status": "0x1",
      "cumulativeGasUsed": "0x6474b",
      "logs": [],
      "logsBloom": "0x00000000000000000000000000000000000000000000000000000000000000000000000000000000000000000000000000000000000000000000000000000000000000000000000000000000000000000000000000000000000000000000000000000000000000000000000000000000000000000000000000000000000000000000000000000000000000000000000000000000000000000000000000000000000000000000000000000000000000000000000000000000000000000000000000000000000000000000000000000000000000000000000000000000000000000000000000000000000000000000000000000000000000000000000000000000",
      "type": "0x2",
      "transactionHash": "0x6933e2836f5b9d560052208aa0d32a4b78049cdd44a047e656e317f524c61cb7",
      "transactionIndex": "0x2",
      "blockHash": "0xe19e165bdf6e5054ffa6cac19009d8180bb084941b4c8462da529ff5542314ab",
      "blockNumber": "0xda937d",
      "gasUsed": "0x2bda4",
      "effectiveGasPrice": "0xf433c",
      "from": "0xcda2fdb452ff4f5d7ba1c3d5dfcc9cb926a5eb7d",
      "to": null,
      "contractAddress": "0x83ebe3e2301534f2e514c25a99df5be552410b69",
      "l1BaseFeeScalar": "0x186a0",
      "l1BlobBaseFee": "0x1",
      "l1BlobBaseFeeScalar": "0x95506",
      "l1Fee": "0x687d6b6942",
      "l1GasPrice": "0x20209906",
      "l1GasUsed": "0x2086"
    },
    {
      "status": "0x1",
      "cumulativeGasUsed": "0x791cf",
      "logs": [],
      "logsBloom": "0x00000000000000000000000000000000000000000000000000000000000000000000000000000000000000000000000000000000000000000000000000000000000000000000000000000000000000000000000000000000000000000000000000000000000000000000000000000000000000000000000000000000000000000000000000000000000000000000000000000000000000000000000000000000000000000000000000000000000000000000000000000000000000000000000000000000000000000000000000000000000000000000000000000000000000000000000000000000000000000000000000000000000000000000000000000000",
      "type": "0x2",
      "transactionHash": "0x2a383243c5ae05832eea94a64fa220a81ebf79f4700c895720ec343b492bc665",
      "transactionIndex": "0x3",
      "blockHash": "0xe19e165bdf6e5054ffa6cac19009d8180bb084941b4c8462da529ff5542314ab",
      "blockNumber": "0xda937d",
      "gasUsed": "0x14a84",
      "effectiveGasPrice": "0xf433c",
      "from": "0xcda2fdb452ff4f5d7ba1c3d5dfcc9cb926a5eb7d",
      "to": "0x79674078ad361d75ee04c73bccb5bbea4c55c618",
      "contractAddress": null,
      "l1BaseFeeScalar": "0x186a0",
      "l1BlobBaseFee": "0x1",
      "l1BlobBaseFeeScalar": "0x95506",
      "l1Fee": "0x3a21a2290b",
      "l1GasPrice": "0x20209906",
      "l1GasUsed": "0x1218"
    }
  ],
  "libraries": [],
  "pending": [],
  "returns": {},
  "timestamp": 1741511203,
  "chain": 60808,
  "commit": "c03c0fa"
}