{
  "transactions": [
    {
      "hash": "0xfc367095fb583bda241ba64ef29f9bb86ed6309239e7cb0935412fcd5fc930de",
      "transactionType": "CALL",
      "contractName": null,
      "contractAddress": "0xf9bcffb46e008ff75006a7c906976bdc6d89615d",
      "function": "setFee(uint256)",
      "arguments": [
        "500"
      ],
      "transaction": {
        "from": "0xcda2fdb452ff4f5d7ba1c3d5dfcc9cb926a5eb7d",
        "to": "0xf9bcffb46e008ff75006a7c906976bdc6d89615d",
        "gas": "0x9b21",
        "value": "0x0",
        "input": "0x69fe0e2d00000000000000000000000000000000000000000000000000000000000001f4",
        "nonce": "0x2c8c",
        "chainId": "0xed88"
      },
      "additionalContracts": [],
      "isFixedGasLimit": false
    },
    {
      "hash": "0x05de8f6d23c5742c049b909ffbe2054110a65b6088db8dbdb105efa6498ae6dc",
      "transactionType": "CALL",
      "contractName": null,
      "contractAddress": "0xf9bcffb46e008ff75006a7c906976bdc6d89615d",
      "function": "setSlippage(uint256)",
      "arguments": [
        "50"
      ],
      "transaction": {
        "from": "0xcda2fdb452ff4f5d7ba1c3d5dfcc9cb926a5eb7d",
        "to": "0xf9bcffb46e008ff75006a7c906976bdc6d89615d",
        "gas": "0x9af0",
        "value": "0x0",
        "input": "0xf0fa55a90000000000000000000000000000000000000000000000000000000000000032",
        "nonce": "0x2c8d",
        "chainId": "0xed88"
      },
      "additionalContracts": [],
      "isFixedGasLimit": false
    }
  ],
  "receipts": [
    {
      "status": "0x1",
      "cumulativeGasUsed": "0x11bbf",
      "logs": [],
      "logsBloom": "0x00000000000000000000000000000000000000000000000000000000000000000000000000000000000000000000000000000000000000000000000000000000000000000000000000000000000000000000000000000000000000000000000000000000000000000000000000000000000000000000000000000000000000000000000000000000000000000000000000000000000000000000000000000000000000000000000000000000000000000000000000000000000000000000000000000000000000000000000000000000000000000000000000000000000000000000000000000000000000000000000000000000000000000000000000000000",
      "type": "0x2",
      "transactionHash": "0xfc367095fb583bda241ba64ef29f9bb86ed6309239e7cb0935412fcd5fc930de",
      "transactionIndex": "0x1",
      "blockHash": "0xaf60594db1e487430ae250569ae7fad9a47fdf092c1d9f2bce706aedabb09979",
      "blockNumber": "0xf2b613",
      "gasUsed": "0x7050",
      "effectiveGasPrice": "0xfd",
      "from": "0xcda2fdb452ff4f5d7ba1c3d5dfcc9cb926a5eb7d",
      "to": "0xf9bcffb46e008ff75006a7c906976bdc6d89615d",
      "contractAddress": null,
      "l1BaseFeeScalar": "0x989680",
      "l1BlobBaseFee": "0x542851a",
      "l1BlobBaseFeeScalar": "0x95506",
      "l1Fee": "0x5d5bdfc86f1",
      "l1GasPrice": "0x17e13886",
      "l1GasUsed": "0x640"
    },
    {
      "status": "0x1",
      "cumulativeGasUsed": "0x18bec",
      "logs": [],
      "logsBloom": "0x00000000000000000000000000000000000000000000000000000000000000000000000000000000000000000000000000000000000000000000000000000000000000000000000000000000000000000000000000000000000000000000000000000000000000000000000000000000000000000000000000000000000000000000000000000000000000000000000000000000000000000000000000000000000000000000000000000000000000000000000000000000000000000000000000000000000000000000000000000000000000000000000000000000000000000000000000000000000000000000000000000000000000000000000000000000",
      "type": "0x2",
      "transactionHash": "0x05de8f6d23c5742c049b909ffbe2054110a65b6088db8dbdb105efa6498ae6dc",
      "transactionIndex": "0x2",
      "blockHash": "0xaf60594db1e487430ae250569ae7fad9a47fdf092c1d9f2bce706aedabb09979",
      "blockNumber": "0xf2b613",
      "gasUsed": "0x702d",
      "effectiveGasPrice": "0xfd",
      "from": "0xcda2fdb452ff4f5d7ba1c3d5dfcc9cb926a5eb7d",
      "to": "0xf9bcffb46e008ff75006a7c906976bdc6d89615d",
      "contractAddress": null,
      "l1BaseFeeScalar": "0x989680",
      "l1BlobBaseFee": "0x542851a",
      "l1BlobBaseFeeScalar": "0x95506",
      "l1Fee": "0x5d5bdfc86f1",
      "l1GasPrice": "0x17e13886",
      "l1GasUsed": "0x640"
    }
  ],
  "libraries": [],
  "pending": [],
  "returns": {},
  "timestamp": 1744674640,
  "chain": 60808,
  "commit": "76f5463"
}