{
  "transactions": [
    {
      "hash": "0x0f3c41160b4813ff1e635e9fadee6d774060e9d4f3b14ab24825a3d0542a97f1",
      "transactionType": "CALL",
      "contractName": null,
      "contractAddress": "0xcf821f1af225b69758eb997e148642a165383da1",
      "function": "burnShare(uint256)",
      "arguments": [
        "19924000000000000000000"
      ],
      "transaction": {
        "from": "0xcda2fdb452ff4f5d7ba1c3d5dfcc9cb926a5eb7d",
        "to": "0xcf821f1af225b69758eb997e148642a165383da1",
        "gas": "0xcf46",
        "value": "0x0",
        "input": "0x0ebc2d23000000000000000000000000000000000000000000000438150b561fb2d00000",
        "nonce": "0x1a3",
        "chainId": "0xaa36a7"
      },
      "additionalContracts": [],
      "isFixedGasLimit": false
    }
  ],
  "receipts": [
    {
      "status": "0x1",
      "cumulativeGasUsed": "0x1344d4e",
      "logs": [
        {
          "address": "0xcf821f1af225b69758eb997e148642a165383da1",
          "topics": [
            "0xddf252ad1be2c89b69c2b068fc378daa952ba7f163c4a11628f55a4df523b3ef",
            "0x000000000000000000000000cda2fdb452ff4f5d7ba1c3d5dfcc9cb926a5eb7d",
            "0x0000000000000000000000000000000000000000000000000000000000000000"
          ],
          "data": "0x000000000000000000000000000000000000000000000438150b561fb2d00000",
          "blockHash": "0x346a5a21e283356e68093eba89b497a461f5d9852d69b22ccc1dad4ac46986bf",
          "blockNumber": "0x745528",
          "transactionHash": "0x0f3c41160b4813ff1e635e9fadee6d774060e9d4f3b14ab24825a3d0542a97f1",
          "transactionIndex": "0x8a",
          "logIndex": "0x1ac",
          "removed": false
        }
      ],
      "logsBloom": "0x00000000000000000000000000040000000000010000000000000000000000000000000000000000000000000000000000000000000000000000000000000000000000000000000000000008040000000000000000000000000000000000000000000000020000000000000000000800000000000000800000000010000000000000000000000000000000000000000000000000000000000000000000000000000000000000000000000000000000000000000000004000000000000000000000000002000000000000000000000000000000000000000000200000000020000000000000000000000000000000000000000000000000000000000000000000",
      "type": "0x2",
      "transactionHash": "0x0f3c41160b4813ff1e635e9fadee6d774060e9d4f3b14ab24825a3d0542a97f1",
      "transactionIndex": "0x8a",
      "blockHash": "0x346a5a21e283356e68093eba89b497a461f5d9852d69b22ccc1dad4ac46986bf",
      "blockNumber": "0x745528",
      "gasUsed": "0x8dba",
      "effectiveGasPrice": "0x9af7c697",
      "from": "0xcda2fdb452ff4f5d7ba1c3d5dfcc9cb926a5eb7d",
      "to": "0xcf821f1af225b69758eb997e148642a165383da1",
      "contractAddress": null
    }
  ],
  "libraries": [],
  "pending": [],
  "returns": {},
  "timestamp": 1738496083,
  "chain": 11155111,
  "commit": "c03c0fa"
}