{
  "transactions": [
    {
      "hash": "0x854f273ac32603ca99dddcd4e6b5660ede7cd490ae3b4889730df4774184e12b",
      "transactionType": "CALL",
      "contractName": null,
      "contractAddress": "0xc959483dba39aa9e78757139af0e9a2edeb3f42d",
      "function": "mint(address,address,uint256)",
      "arguments": [
        "0x94a9D9AC8a22534E3FaCa9F4e7F2E2cf85d5E4C8",
        "0xcdA2fDB452FF4F5D7Ba1C3d5dFCc9CB926A5eb7D",
        "10000000000"
      ],
      "transaction": {
        "from": "0xcda2fdb452ff4f5d7ba1c3d5dfcc9cb926a5eb7d",
        "to": "0xc959483dba39aa9e78757139af0e9a2edeb3f42d",
        "gas": "0xf696",
        "value": "0x0",
        "input": "0xc6c3bbe600000000000000000000000094a9d9ac8a22534e3faca9f4e7f2e2cf85d5e4c8000000000000000000000000cda2fdb452ff4f5d7ba1c3d5dfcc9cb926a5eb7d00000000000000000000000000000000000000000000000000000002540be400",
        "nonce": "0x53",
        "chainId": "0xaa36a7"
      },
      "additionalContracts": [],
      "isFixedGasLimit": false
    },
    {
      "hash": "0xae3cbf36fc293a216a8534bf51129a7ef6b80134ced47dd8778b2c4ccc06c0b7",
      "transactionType": "CALL",
      "contractName": null,
      "contractAddress": "0xc959483dba39aa9e78757139af0e9a2edeb3f42d",
      "function": "mint(address,address,uint256)",
      "arguments": [
        "0x94a9D9AC8a22534E3FaCa9F4e7F2E2cf85d5E4C8",
        "0xcdA2fDB452FF4F5D7Ba1C3d5dFCc9CB926A5eb7D",
        "10000000000"
      ],
      "transaction": {
        "from": "0xcda2fdb452ff4f5d7ba1c3d5dfcc9cb926a5eb7d",
        "to": "0xc959483dba39aa9e78757139af0e9a2edeb3f42d",
        "gas": "0xf696",
        "value": "0x0",
        "input": "0xc6c3bbe600000000000000000000000094a9d9ac8a22534e3faca9f4e7f2e2cf85d5e4c8000000000000000000000000cda2fdb452ff4f5d7ba1c3d5dfcc9cb926a5eb7d00000000000000000000000000000000000000000000000000000002540be400",
        "nonce": "0x54",
        "chainId": "0xaa36a7"
      },
      "additionalContracts": [],
      "isFixedGasLimit": false
    },
    {
      "hash": "0xeac14916926279d299cb04e1b0e43823f3b6512fb96eedce14721026834f8822",
      "transactionType": "CALL",
      "contractName": null,
      "contractAddress": "0xc959483dba39aa9e78757139af0e9a2edeb3f42d",
      "function": "mint(address,address,uint256)",
      "arguments": [
        "0x94a9D9AC8a22534E3FaCa9F4e7F2E2cf85d5E4C8",
        "0xcdA2fDB452FF4F5D7Ba1C3d5dFCc9CB926A5eb7D",
        "10000000000"
      ],
      "transaction": {
        "from": "0xcda2fdb452ff4f5d7ba1c3d5dfcc9cb926a5eb7d",
        "to": "0xc959483dba39aa9e78757139af0e9a2edeb3f42d",
        "gas": "0xf696",
        "value": "0x0",
        "input": "0xc6c3bbe600000000000000000000000094a9d9ac8a22534e3faca9f4e7f2e2cf85d5e4c8000000000000000000000000cda2fdb452ff4f5d7ba1c3d5dfcc9cb926a5eb7d00000000000000000000000000000000000000000000000000000002540be400",
        "nonce": "0x55",
        "chainId": "0xaa36a7"
      },
      "additionalContracts": [],
      "isFixedGasLimit": false
    },
    {
      "hash": "0xed4b57ca26edb580aa1a35888081dde1a2b2101a419661d7a40f56868b3e2c1e",
      "transactionType": "CALL",
      "contractName": null,
      "contractAddress": "0xc959483dba39aa9e78757139af0e9a2edeb3f42d",
      "function": "mint(address,address,uint256)",
      "arguments": [
        "0x94a9D9AC8a22534E3FaCa9F4e7F2E2cf85d5E4C8",
        "0xcdA2fDB452FF4F5D7Ba1C3d5dFCc9CB926A5eb7D",
        "10000000000"
      ],
      "transaction": {
        "from": "0xcda2fdb452ff4f5d7ba1c3d5dfcc9cb926a5eb7d",
        "to": "0xc959483dba39aa9e78757139af0e9a2edeb3f42d",
        "gas": "0xf696",
        "value": "0x0",
        "input": "0xc6c3bbe600000000000000000000000094a9d9ac8a22534e3faca9f4e7f2e2cf85d5e4c8000000000000000000000000cda2fdb452ff4f5d7ba1c3d5dfcc9cb926a5eb7d00000000000000000000000000000000000000000000000000000002540be400",
        "nonce": "0x56",
        "chainId": "0xaa36a7"
      },
      "additionalContracts": [],
      "isFixedGasLimit": false
    },
    {
      "hash": "0x4bf58ce18ca26ce343d798270ec61d5517cfdc6a5165506f608ab2cbcf102778",
      "transactionType": "CALL",
      "contractName": null,
      "contractAddress": "0xc959483dba39aa9e78757139af0e9a2edeb3f42d",
      "function": "mint(address,address,uint256)",
      "arguments": [
        "0x94a9D9AC8a22534E3FaCa9F4e7F2E2cf85d5E4C8",
        "0xcdA2fDB452FF4F5D7Ba1C3d5dFCc9CB926A5eb7D",
        "10000000000"
      ],
      "transaction": {
        "from": "0xcda2fdb452ff4f5d7ba1c3d5dfcc9cb926a5eb7d",
        "to": "0xc959483dba39aa9e78757139af0e9a2edeb3f42d",
        "gas": "0xf696",
        "value": "0x0",
        "input": "0xc6c3bbe600000000000000000000000094a9d9ac8a22534e3faca9f4e7f2e2cf85d5e4c8000000000000000000000000cda2fdb452ff4f5d7ba1c3d5dfcc9cb926a5eb7d00000000000000000000000000000000000000000000000000000002540be400",
        "nonce": "0x57",
        "chainId": "0xaa36a7"
      },
      "additionalContracts": [],
      "isFixedGasLimit": false
    },
    {
      "hash": "0x9a810f47a315514332a653980162c01e5f609f5840015c54d7e8a024c91299d2",
      "transactionType": "CALL",
      "contractName": null,
      "contractAddress": "0xc959483dba39aa9e78757139af0e9a2edeb3f42d",
      "function": "mint(address,address,uint256)",
      "arguments": [
        "0x94a9D9AC8a22534E3FaCa9F4e7F2E2cf85d5E4C8",
        "0xcdA2fDB452FF4F5D7Ba1C3d5dFCc9CB926A5eb7D",
        "10000000000"
      ],
      "transaction": {
        "from": "0xcda2fdb452ff4f5d7ba1c3d5dfcc9cb926a5eb7d",
        "to": "0xc959483dba39aa9e78757139af0e9a2edeb3f42d",
        "gas": "0xf696",
        "value": "0x0",
        "input": "0xc6c3bbe600000000000000000000000094a9d9ac8a22534e3faca9f4e7f2e2cf85d5e4c8000000000000000000000000cda2fdb452ff4f5d7ba1c3d5dfcc9cb926a5eb7d00000000000000000000000000000000000000000000000000000002540be400",
        "nonce": "0x58",
        "chainId": "0xaa36a7"
      },
      "additionalContracts": [],
      "isFixedGasLimit": false
    },
    {
      "hash": "0x66926cabec3f5a72a151c56ad0b3eaf8b41d6c4a230c474e1e2b648f7a42159c",
      "transactionType": "CALL",
      "contractName": null,
      "contractAddress": "0xc959483dba39aa9e78757139af0e9a2edeb3f42d",
      "function": "mint(address,address,uint256)",
      "arguments": [
        "0x94a9D9AC8a22534E3FaCa9F4e7F2E2cf85d5E4C8",
        "0xcdA2fDB452FF4F5D7Ba1C3d5dFCc9CB926A5eb7D",
        "10000000000"
      ],
      "transaction": {
        "from": "0xcda2fdb452ff4f5d7ba1c3d5dfcc9cb926a5eb7d",
        "to": "0xc959483dba39aa9e78757139af0e9a2edeb3f42d",
        "gas": "0xf696",
        "value": "0x0",
        "input": "0xc6c3bbe600000000000000000000000094a9d9ac8a22534e3faca9f4e7f2e2cf85d5e4c8000000000000000000000000cda2fdb452ff4f5d7ba1c3d5dfcc9cb926a5eb7d00000000000000000000000000000000000000000000000000000002540be400",
        "nonce": "0x59",
        "chainId": "0xaa36a7"
      },
      "additionalContracts": [],
      "isFixedGasLimit": false
    },
    {
      "hash": "0xd75d877d832e799016345ad5156597b253ef895ccae212e9c95a5b81e261dbd6",
      "transactionType": "CALL",
      "contractName": null,
      "contractAddress": "0xc959483dba39aa9e78757139af0e9a2edeb3f42d",
      "function": "mint(address,address,uint256)",
      "arguments": [
        "0x94a9D9AC8a22534E3FaCa9F4e7F2E2cf85d5E4C8",
        "0xcdA2fDB452FF4F5D7Ba1C3d5dFCc9CB926A5eb7D",
        "10000000000"
      ],
      "transaction": {
        "from": "0xcda2fdb452ff4f5d7ba1c3d5dfcc9cb926a5eb7d",
        "to": "0xc959483dba39aa9e78757139af0e9a2edeb3f42d",
        "gas": "0xf696",
        "value": "0x0",
        "input": "0xc6c3bbe600000000000000000000000094a9d9ac8a22534e3faca9f4e7f2e2cf85d5e4c8000000000000000000000000cda2fdb452ff4f5d7ba1c3d5dfcc9cb926a5eb7d00000000000000000000000000000000000000000000000000000002540be400",
        "nonce": "0x5a",
        "chainId": "0xaa36a7"
      },
      "additionalContracts": [],
      "isFixedGasLimit": false
    },
    {
      "hash": "0xcc075837de4f01fd2ee86cbc5904fa52f1a57fe657c14a0e361fde11274d5ec5",
      "transactionType": "CALL",
      "contractName": null,
      "contractAddress": "0xc959483dba39aa9e78757139af0e9a2edeb3f42d",
      "function": "mint(address,address,uint256)",
      "arguments": [
        "0x94a9D9AC8a22534E3FaCa9F4e7F2E2cf85d5E4C8",
        "0xcdA2fDB452FF4F5D7Ba1C3d5dFCc9CB926A5eb7D",
        "10000000000"
      ],
      "transaction": {
        "from": "0xcda2fdb452ff4f5d7ba1c3d5dfcc9cb926a5eb7d",
        "to": "0xc959483dba39aa9e78757139af0e9a2edeb3f42d",
        "gas": "0xf696",
        "value": "0x0",
        "input": "0xc6c3bbe600000000000000000000000094a9d9ac8a22534e3faca9f4e7f2e2cf85d5e4c8000000000000000000000000cda2fdb452ff4f5d7ba1c3d5dfcc9cb926a5eb7d00000000000000000000000000000000000000000000000000000002540be400",
        "nonce": "0x5b",
        "chainId": "0xaa36a7"
      },
      "additionalContracts": [],
      "isFixedGasLimit": false
    },
    {
      "hash": "0x97102b50b1d1b0afd73487db3885c8bd29ddbf71f3b4c9d5860a2daf56af8bee",
      "transactionType": "CALL",
      "contractName": null,
      "contractAddress": "0xc959483dba39aa9e78757139af0e9a2edeb3f42d",
      "function": "mint(address,address,uint256)",
      "arguments": [
        "0x94a9D9AC8a22534E3FaCa9F4e7F2E2cf85d5E4C8",
        "0xcdA2fDB452FF4F5D7Ba1C3d5dFCc9CB926A5eb7D",
        "10000000000"
      ],
      "transaction": {
        "from": "0xcda2fdb452ff4f5d7ba1c3d5dfcc9cb926a5eb7d",
        "to": "0xc959483dba39aa9e78757139af0e9a2edeb3f42d",
        "gas": "0xf696",
        "value": "0x0",
        "input": "0xc6c3bbe600000000000000000000000094a9d9ac8a22534e3faca9f4e7f2e2cf85d5e4c8000000000000000000000000cda2fdb452ff4f5d7ba1c3d5dfcc9cb926a5eb7d00000000000000000000000000000000000000000000000000000002540be400",
        "nonce": "0x5c",
        "chainId": "0xaa36a7"
      },
      "additionalContracts": [],
      "isFixedGasLimit": false
    },
    {
      "hash": "0x1088ddd442aefc0302d34708601b96ff2dc8d8bf5a626b2d7d956ee932f3d28a",
      "transactionType": "CALL",
      "contractName": null,
      "contractAddress": "0xc959483dba39aa9e78757139af0e9a2edeb3f42d",
      "function": "mint(address,address,uint256)",
      "arguments": [
        "0x94a9D9AC8a22534E3FaCa9F4e7F2E2cf85d5E4C8",
        "0xcdA2fDB452FF4F5D7Ba1C3d5dFCc9CB926A5eb7D",
        "10000000000"
      ],
      "transaction": {
        "from": "0xcda2fdb452ff4f5d7ba1c3d5dfcc9cb926a5eb7d",
        "to": "0xc959483dba39aa9e78757139af0e9a2edeb3f42d",
        "gas": "0xf696",
        "value": "0x0",
        "input": "0xc6c3bbe600000000000000000000000094a9d9ac8a22534e3faca9f4e7f2e2cf85d5e4c8000000000000000000000000cda2fdb452ff4f5d7ba1c3d5dfcc9cb926a5eb7d00000000000000000000000000000000000000000000000000000002540be400",
        "nonce": "0x5d",
        "chainId": "0xaa36a7"
      },
      "additionalContracts": [],
      "isFixedGasLimit": false
    },
    {
      "hash": "0x5fa30a6af3a15d1136e5365adef8ae56397c4e60830678cea8bb36b5b7dc2e5e",
      "transactionType": "CALL",
      "contractName": null,
      "contractAddress": "0xc959483dba39aa9e78757139af0e9a2edeb3f42d",
      "function": "mint(address,address,uint256)",
      "arguments": [
        "0x94a9D9AC8a22534E3FaCa9F4e7F2E2cf85d5E4C8",
        "0xcdA2fDB452FF4F5D7Ba1C3d5dFCc9CB926A5eb7D",
        "10000000000"
      ],
      "transaction": {
        "from": "0xcda2fdb452ff4f5d7ba1c3d5dfcc9cb926a5eb7d",
        "to": "0xc959483dba39aa9e78757139af0e9a2edeb3f42d",
        "gas": "0xf696",
        "value": "0x0",
        "input": "0xc6c3bbe600000000000000000000000094a9d9ac8a22534e3faca9f4e7f2e2cf85d5e4c8000000000000000000000000cda2fdb452ff4f5d7ba1c3d5dfcc9cb926a5eb7d00000000000000000000000000000000000000000000000000000002540be400",
        "nonce": "0x5e",
        "chainId": "0xaa36a7"
      },
      "additionalContracts": [],
      "isFixedGasLimit": false
    },
    {
      "hash": "0xd9a3dbce8c1f63a8a18e3270831bb3a09997ff0810b2b616801a3febfda742dc",
      "transactionType": "CALL",
      "contractName": null,
      "contractAddress": "0xc959483dba39aa9e78757139af0e9a2edeb3f42d",
      "function": "mint(address,address,uint256)",
      "arguments": [
        "0x94a9D9AC8a22534E3FaCa9F4e7F2E2cf85d5E4C8",
        "0xcdA2fDB452FF4F5D7Ba1C3d5dFCc9CB926A5eb7D",
        "10000000000"
      ],
      "transaction": {
        "from": "0xcda2fdb452ff4f5d7ba1c3d5dfcc9cb926a5eb7d",
        "to": "0xc959483dba39aa9e78757139af0e9a2edeb3f42d",
        "gas": "0xf696",
        "value": "0x0",
        "input": "0xc6c3bbe600000000000000000000000094a9d9ac8a22534e3faca9f4e7f2e2cf85d5e4c8000000000000000000000000cda2fdb452ff4f5d7ba1c3d5dfcc9cb926a5eb7d00000000000000000000000000000000000000000000000000000002540be400",
        "nonce": "0x5f",
        "chainId": "0xaa36a7"
      },
      "additionalContracts": [],
      "isFixedGasLimit": false
    },
    {
      "hash": "0xa1ceb61875928db96892492d17b2343bdecb764f7816a32ddef7bc184ab70395",
      "transactionType": "CALL",
      "contractName": null,
      "contractAddress": "0xc959483dba39aa9e78757139af0e9a2edeb3f42d",
      "function": "mint(address,address,uint256)",
      "arguments": [
        "0x94a9D9AC8a22534E3FaCa9F4e7F2E2cf85d5E4C8",
        "0xcdA2fDB452FF4F5D7Ba1C3d5dFCc9CB926A5eb7D",
        "10000000000"
      ],
      "transaction": {
        "from": "0xcda2fdb452ff4f5d7ba1c3d5dfcc9cb926a5eb7d",
        "to": "0xc959483dba39aa9e78757139af0e9a2edeb3f42d",
        "gas": "0xf696",
        "value": "0x0",
        "input": "0xc6c3bbe600000000000000000000000094a9d9ac8a22534e3faca9f4e7f2e2cf85d5e4c8000000000000000000000000cda2fdb452ff4f5d7ba1c3d5dfcc9cb926a5eb7d00000000000000000000000000000000000000000000000000000002540be400",
        "nonce": "0x60",
        "chainId": "0xaa36a7"
      },
      "additionalContracts": [],
      "isFixedGasLimit": false
    },
    {
      "hash": "0xa16bee336fd6041b3467c3ede0233f2c8a870c0d61385ca80b80eabd22e64a60",
      "transactionType": "CALL",
      "contractName": null,
      "contractAddress": "0xc959483dba39aa9e78757139af0e9a2edeb3f42d",
      "function": "mint(address,address,uint256)",
      "arguments": [
        "0x94a9D9AC8a22534E3FaCa9F4e7F2E2cf85d5E4C8",
        "0xcdA2fDB452FF4F5D7Ba1C3d5dFCc9CB926A5eb7D",
        "10000000000"
      ],
      "transaction": {
        "from": "0xcda2fdb452ff4f5d7ba1c3d5dfcc9cb926a5eb7d",
        "to": "0xc959483dba39aa9e78757139af0e9a2edeb3f42d",
        "gas": "0xf696",
        "value": "0x0",
        "input": "0xc6c3bbe600000000000000000000000094a9d9ac8a22534e3faca9f4e7f2e2cf85d5e4c8000000000000000000000000cda2fdb452ff4f5d7ba1c3d5dfcc9cb926a5eb7d00000000000000000000000000000000000000000000000000000002540be400",
        "nonce": "0x61",
        "chainId": "0xaa36a7"
      },
      "additionalContracts": [],
      "isFixedGasLimit": false
    },
    {
      "hash": "0xe39ff97b2b9a57e1a0b57d90349424ff6f787dbf09614604a9590a7e5428e55b",
      "transactionType": "CALL",
      "contractName": null,
      "contractAddress": "0xc959483dba39aa9e78757139af0e9a2edeb3f42d",
      "function": "mint(address,address,uint256)",
      "arguments": [
        "0x94a9D9AC8a22534E3FaCa9F4e7F2E2cf85d5E4C8",
        "0xcdA2fDB452FF4F5D7Ba1C3d5dFCc9CB926A5eb7D",
        "10000000000"
      ],
      "transaction": {
        "from": "0xcda2fdb452ff4f5d7ba1c3d5dfcc9cb926a5eb7d",
        "to": "0xc959483dba39aa9e78757139af0e9a2edeb3f42d",
        "gas": "0xf696",
        "value": "0x0",
        "input": "0xc6c3bbe600000000000000000000000094a9d9ac8a22534e3faca9f4e7f2e2cf85d5e4c8000000000000000000000000cda2fdb452ff4f5d7ba1c3d5dfcc9cb926a5eb7d00000000000000000000000000000000000000000000000000000002540be400",
        "nonce": "0x62",
        "chainId": "0xaa36a7"
      },
      "additionalContracts": [],
      "isFixedGasLimit": false
    },
    {
      "hash": "0xca9c248d4fa1fa577e8489918eeab330f3b48b029c9af5e7727e7b2460147435",
      "transactionType": "CALL",
      "contractName": null,
      "contractAddress": "0xc959483dba39aa9e78757139af0e9a2edeb3f42d",
      "function": "mint(address,address,uint256)",
      "arguments": [
        "0x94a9D9AC8a22534E3FaCa9F4e7F2E2cf85d5E4C8",
        "0xcdA2fDB452FF4F5D7Ba1C3d5dFCc9CB926A5eb7D",
        "10000000000"
      ],
      "transaction": {
        "from": "0xcda2fdb452ff4f5d7ba1c3d5dfcc9cb926a5eb7d",
        "to": "0xc959483dba39aa9e78757139af0e9a2edeb3f42d",
        "gas": "0xf696",
        "value": "0x0",
        "input": "0xc6c3bbe600000000000000000000000094a9d9ac8a22534e3faca9f4e7f2e2cf85d5e4c8000000000000000000000000cda2fdb452ff4f5d7ba1c3d5dfcc9cb926a5eb7d00000000000000000000000000000000000000000000000000000002540be400",
        "nonce": "0x63",
        "chainId": "0xaa36a7"
      },
      "additionalContracts": [],
      "isFixedGasLimit": false
    },
    {
      "hash": "0x0883091e0a11ed91525b88b57ed1b7e1bb7c30465bc0017581f46e474015cb67",
      "transactionType": "CALL",
      "contractName": null,
      "contractAddress": "0xc959483dba39aa9e78757139af0e9a2edeb3f42d",
      "function": "mint(address,address,uint256)",
      "arguments": [
        "0x94a9D9AC8a22534E3FaCa9F4e7F2E2cf85d5E4C8",
        "0xcdA2fDB452FF4F5D7Ba1C3d5dFCc9CB926A5eb7D",
        "10000000000"
      ],
      "transaction": {
        "from": "0xcda2fdb452ff4f5d7ba1c3d5dfcc9cb926a5eb7d",
        "to": "0xc959483dba39aa9e78757139af0e9a2edeb3f42d",
        "gas": "0xf696",
        "value": "0x0",
        "input": "0xc6c3bbe600000000000000000000000094a9d9ac8a22534e3faca9f4e7f2e2cf85d5e4c8000000000000000000000000cda2fdb452ff4f5d7ba1c3d5dfcc9cb926a5eb7d00000000000000000000000000000000000000000000000000000002540be400",
        "nonce": "0x64",
        "chainId": "0xaa36a7"
      },
      "additionalContracts": [],
      "isFixedGasLimit": false
    },
    {
      "hash": "0xd45ee56ac44fea99d59dda984335066fb0dd915451d645584ee0a5e229f89f36",
      "transactionType": "CALL",
      "contractName": null,
      "contractAddress": "0xc959483dba39aa9e78757139af0e9a2edeb3f42d",
      "function": "mint(address,address,uint256)",
      "arguments": [
        "0x94a9D9AC8a22534E3FaCa9F4e7F2E2cf85d5E4C8",
        "0xcdA2fDB452FF4F5D7Ba1C3d5dFCc9CB926A5eb7D",
        "10000000000"
      ],
      "transaction": {
        "from": "0xcda2fdb452ff4f5d7ba1c3d5dfcc9cb926a5eb7d",
        "to": "0xc959483dba39aa9e78757139af0e9a2edeb3f42d",
        "gas": "0xf696",
        "value": "0x0",
        "input": "0xc6c3bbe600000000000000000000000094a9d9ac8a22534e3faca9f4e7f2e2cf85d5e4c8000000000000000000000000cda2fdb452ff4f5d7ba1c3d5dfcc9cb926a5eb7d00000000000000000000000000000000000000000000000000000002540be400",
        "nonce": "0x65",
        "chainId": "0xaa36a7"
      },
      "additionalContracts": [],
      "isFixedGasLimit": false
    },
    {
      "hash": "0x9ce02c747f977cafd6e1e0612ef5b6de00b6f63724833811f77b92e01769f2b9",
      "transactionType": "CALL",
      "contractName": null,
      "contractAddress": "0xc959483dba39aa9e78757139af0e9a2edeb3f42d",
      "function": "mint(address,address,uint256)",
      "arguments": [
        "0x94a9D9AC8a22534E3FaCa9F4e7F2E2cf85d5E4C8",
        "0xcdA2fDB452FF4F5D7Ba1C3d5dFCc9CB926A5eb7D",
        "10000000000"
      ],
      "transaction": {
        "from": "0xcda2fdb452ff4f5d7ba1c3d5dfcc9cb926a5eb7d",
        "to": "0xc959483dba39aa9e78757139af0e9a2edeb3f42d",
        "gas": "0xf696",
        "value": "0x0",
        "input": "0xc6c3bbe600000000000000000000000094a9d9ac8a22534e3faca9f4e7f2e2cf85d5e4c8000000000000000000000000cda2fdb452ff4f5d7ba1c3d5dfcc9cb926a5eb7d00000000000000000000000000000000000000000000000000000002540be400",
        "nonce": "0x66",
        "chainId": "0xaa36a7"
      },
      "additionalContracts": [],
      "isFixedGasLimit": false
    }
  ],
  "receipts": [
    {
      "status": "0x1",
      "cumulativeGasUsed": "0xbce976",
      "logs": [
        {
          "address": "0x94a9d9ac8a22534e3faca9f4e7f2e2cf85d5e4c8",
          "topics": [
            "0xddf252ad1be2c89b69c2b068fc378daa952ba7f163c4a11628f55a4df523b3ef",
            "0x0000000000000000000000000000000000000000000000000000000000000000",
            "0x000000000000000000000000cda2fdb452ff4f5d7ba1c3d5dfcc9cb926a5eb7d"
          ],
          "data": "0x00000000000000000000000000000000000000000000000000000002540be400",
          "blockHash": "0x3d01f33627515d43fb1a4f1b02b1737ff08b4ceb8700bc651ebd887f19eedb87",
          "blockNumber": "0x740045",
          "transactionHash": "0x854f273ac32603ca99dddcd4e6b5660ede7cd490ae3b4889730df4774184e12b",
          "transactionIndex": "0x6f",
          "logIndex": "0xaa",
          "removed": false
        }
      ],
      "logsBloom": "0x00000000000000000000000000000000000000000000000000000000000000000000000000000000000000000000000000000000000000000000000000000000000000000000000000000008040000000000000000000000000008000000000000000000020000000000000000000800000000000000800000000010000000000000000000000000000000000000000000000000000000000000000000000000000000000100000000004000000000000000000000004000000000000000000000000002000000000000000000000000000000000000000000000000000020000000000000000000000000000000000000000000000000000000000000000000",
      "type": "0x2",
      "transactionHash": "0x854f273ac32603ca99dddcd4e6b5660ede7cd490ae3b4889730df4774184e12b",
      "transactionIndex": "0x6f",
      "blockHash": "0x3d01f33627515d43fb1a4f1b02b1737ff08b4ceb8700bc651ebd887f19eedb87",
      "blockNumber": "0x740045",
      "gasUsed": "0xb287",
      "effectiveGasPrice": "0x64102a3f",
      "from": "0xcda2fdb452ff4f5d7ba1c3d5dfcc9cb926a5eb7d",
      "to": "0xc959483dba39aa9e78757139af0e9a2edeb3f42d",
      "contractAddress": null
    },
    {
      "status": "0x1",
      "cumulativeGasUsed": "0xbd9bfd",
      "logs": [
        {
          "address": "0x94a9d9ac8a22534e3faca9f4e7f2e2cf85d5e4c8",
          "topics": [
            "0xddf252ad1be2c89b69c2b068fc378daa952ba7f163c4a11628f55a4df523b3ef",
            "0x0000000000000000000000000000000000000000000000000000000000000000",
            "0x000000000000000000000000cda2fdb452ff4f5d7ba1c3d5dfcc9cb926a5eb7d"
          ],
          "data": "0x00000000000000000000000000000000000000000000000000000002540be400",
          "blockHash": "0x3d01f33627515d43fb1a4f1b02b1737ff08b4ceb8700bc651ebd887f19eedb87",
          "blockNumber": "0x740045",
          "transactionHash": "0xae3cbf36fc293a216a8534bf51129a7ef6b80134ced47dd8778b2c4ccc06c0b7",
          "transactionIndex": "0x70",
          "logIndex": "0xab",
          "removed": false
        }
      ],
      "logsBloom": "0x00000000000000000000000000000000000000000000000000000000000000000000000000000000000000000000000000000000000000000000000000000000000000000000000000000008040000000000000000000000000008000000000000000000020000000000000000000800000000000000800000000010000000000000000000000000000000000000000000000000000000000000000000000000000000000100000000004000000000000000000000004000000000000000000000000002000000000000000000000000000000000000000000000000000020000000000000000000000000000000000000000000000000000000000000000000",
      "type": "0x2",
      "transactionHash": "0xae3cbf36fc293a216a8534bf51129a7ef6b80134ced47dd8778b2c4ccc06c0b7",
      "transactionIndex": "0x70",
      "blockHash": "0x3d01f33627515d43fb1a4f1b02b1737ff08b4ceb8700bc651ebd887f19eedb87",
      "blockNumber": "0x740045",
      "gasUsed": "0xb287",
      "effectiveGasPrice": "0x64102a3f",
      "from": "0xcda2fdb452ff4f5d7ba1c3d5dfcc9cb926a5eb7d",
      "to": "0xc959483dba39aa9e78757139af0e9a2edeb3f42d",
      "contractAddress": null
    },
    {
      "status": "0x1",
      "cumulativeGasUsed": "0xbe4e84",
      "logs": [
        {
          "address": "0x94a9d9ac8a22534e3faca9f4e7f2e2cf85d5e4c8",
          "topics": [
            "0xddf252ad1be2c89b69c2b068fc378daa952ba7f163c4a11628f55a4df523b3ef",
            "0x0000000000000000000000000000000000000000000000000000000000000000",
            "0x000000000000000000000000cda2fdb452ff4f5d7ba1c3d5dfcc9cb926a5eb7d"
          ],
          "data": "0x00000000000000000000000000000000000000000000000000000002540be400",
          "blockHash": "0x3d01f33627515d43fb1a4f1b02b1737ff08b4ceb8700bc651ebd887f19eedb87",
          "blockNumber": "0x740045",
          "transactionHash": "0xeac14916926279d299cb04e1b0e43823f3b6512fb96eedce14721026834f8822",
          "transactionIndex": "0x71",
          "logIndex": "0xac",
          "removed": false
        }
      ],
      "logsBloom": "0x00000000000000000000000000000000000000000000000000000000000000000000000000000000000000000000000000000000000000000000000000000000000000000000000000000008040000000000000000000000000008000000000000000000020000000000000000000800000000000000800000000010000000000000000000000000000000000000000000000000000000000000000000000000000000000100000000004000000000000000000000004000000000000000000000000002000000000000000000000000000000000000000000000000000020000000000000000000000000000000000000000000000000000000000000000000",
      "type": "0x2",
      "transactionHash": "0xeac14916926279d299cb04e1b0e43823f3b6512fb96eedce14721026834f8822",
      "transactionIndex": "0x71",
      "blockHash": "0x3d01f33627515d43fb1a4f1b02b1737ff08b4ceb8700bc651ebd887f19eedb87",
      "blockNumber": "0x740045",
      "gasUsed": "0xb287",
      "effectiveGasPrice": "0x64102a3f",
      "from": "0xcda2fdb452ff4f5d7ba1c3d5dfcc9cb926a5eb7d",
      "to": "0xc959483dba39aa9e78757139af0e9a2edeb3f42d",
      "contractAddress": null
    },
    {
      "status": "0x1",
      "cumulativeGasUsed": "0xbf010b",
      "logs": [
        {
          "address": "0x94a9d9ac8a22534e3faca9f4e7f2e2cf85d5e4c8",
          "topics": [
            "0xddf252ad1be2c89b69c2b068fc378daa952ba7f163c4a11628f55a4df523b3ef",
            "0x0000000000000000000000000000000000000000000000000000000000000000",
            "0x000000000000000000000000cda2fdb452ff4f5d7ba1c3d5dfcc9cb926a5eb7d"
          ],
          "data": "0x00000000000000000000000000000000000000000000000000000002540be400",
          "blockHash": "0x3d01f33627515d43fb1a4f1b02b1737ff08b4ceb8700bc651ebd887f19eedb87",
          "blockNumber": "0x740045",
          "transactionHash": "0xed4b57ca26edb580aa1a35888081dde1a2b2101a419661d7a40f56868b3e2c1e",
          "transactionIndex": "0x72",
          "logIndex": "0xad",
          "removed": false
        }
      ],
      "logsBloom": "0x00000000000000000000000000000000000000000000000000000000000000000000000000000000000000000000000000000000000000000000000000000000000000000000000000000008040000000000000000000000000008000000000000000000020000000000000000000800000000000000800000000010000000000000000000000000000000000000000000000000000000000000000000000000000000000100000000004000000000000000000000004000000000000000000000000002000000000000000000000000000000000000000000000000000020000000000000000000000000000000000000000000000000000000000000000000",
      "type": "0x2",
      "transactionHash": "0xed4b57ca26edb580aa1a35888081dde1a2b2101a419661d7a40f56868b3e2c1e",
      "transactionIndex": "0x72",
      "blockHash": "0x3d01f33627515d43fb1a4f1b02b1737ff08b4ceb8700bc651ebd887f19eedb87",
      "blockNumber": "0x740045",
      "gasUsed": "0xb287",
      "effectiveGasPrice": "0x64102a3f",
      "from": "0xcda2fdb452ff4f5d7ba1c3d5dfcc9cb926a5eb7d",
      "to": "0xc959483dba39aa9e78757139af0e9a2edeb3f42d",
      "contractAddress": null
    },
    {
      "status": "0x1",
      "cumulativeGasUsed": "0xbfb392",
      "logs": [
        {
          "address": "0x94a9d9ac8a22534e3faca9f4e7f2e2cf85d5e4c8",
          "topics": [
            "0xddf252ad1be2c89b69c2b068fc378daa952ba7f163c4a11628f55a4df523b3ef",
            "0x0000000000000000000000000000000000000000000000000000000000000000",
            "0x000000000000000000000000cda2fdb452ff4f5d7ba1c3d5dfcc9cb926a5eb7d"
          ],
          "data": "0x00000000000000000000000000000000000000000000000000000002540be400",
          "blockHash": "0x3d01f33627515d43fb1a4f1b02b1737ff08b4ceb8700bc651ebd887f19eedb87",
          "blockNumber": "0x740045",
          "transactionHash": "0x4bf58ce18ca26ce343d798270ec61d5517cfdc6a5165506f608ab2cbcf102778",
          "transactionIndex": "0x73",
          "logIndex": "0xae",
          "removed": false
        }
      ],
      "logsBloom": "0x00000000000000000000000000000000000000000000000000000000000000000000000000000000000000000000000000000000000000000000000000000000000000000000000000000008040000000000000000000000000008000000000000000000020000000000000000000800000000000000800000000010000000000000000000000000000000000000000000000000000000000000000000000000000000000100000000004000000000000000000000004000000000000000000000000002000000000000000000000000000000000000000000000000000020000000000000000000000000000000000000000000000000000000000000000000",
      "type": "0x2",
      "transactionHash": "0x4bf58ce18ca26ce343d798270ec61d5517cfdc6a5165506f608ab2cbcf102778",
      "transactionIndex": "0x73",
      "blockHash": "0x3d01f33627515d43fb1a4f1b02b1737ff08b4ceb8700bc651ebd887f19eedb87",
      "blockNumber": "0x740045",
      "gasUsed": "0xb287",
      "effectiveGasPrice": "0x64102a3f",
      "from": "0xcda2fdb452ff4f5d7ba1c3d5dfcc9cb926a5eb7d",
      "to": "0xc959483dba39aa9e78757139af0e9a2edeb3f42d",
      "contractAddress": null
    },
    {
      "status": "0x1",
      "cumulativeGasUsed": "0xc06619",
      "logs": [
        {
          "address": "0x94a9d9ac8a22534e3faca9f4e7f2e2cf85d5e4c8",
          "topics": [
            "0xddf252ad1be2c89b69c2b068fc378daa952ba7f163c4a11628f55a4df523b3ef",
            "0x0000000000000000000000000000000000000000000000000000000000000000",
            "0x000000000000000000000000cda2fdb452ff4f5d7ba1c3d5dfcc9cb926a5eb7d"
          ],
          "data": "0x00000000000000000000000000000000000000000000000000000002540be400",
          "blockHash": "0x3d01f33627515d43fb1a4f1b02b1737ff08b4ceb8700bc651ebd887f19eedb87",
          "blockNumber": "0x740045",
          "transactionHash": "0x9a810f47a315514332a653980162c01e5f609f5840015c54d7e8a024c91299d2",
          "transactionIndex": "0x74",
          "logIndex": "0xaf",
          "removed": false
        }
      ],
      "logsBloom": "0x00000000000000000000000000000000000000000000000000000000000000000000000000000000000000000000000000000000000000000000000000000000000000000000000000000008040000000000000000000000000008000000000000000000020000000000000000000800000000000000800000000010000000000000000000000000000000000000000000000000000000000000000000000000000000000100000000004000000000000000000000004000000000000000000000000002000000000000000000000000000000000000000000000000000020000000000000000000000000000000000000000000000000000000000000000000",
      "type": "0x2",
      "transactionHash": "0x9a810f47a315514332a653980162c01e5f609f5840015c54d7e8a024c91299d2",
      "transactionIndex": "0x74",
      "blockHash": "0x3d01f33627515d43fb1a4f1b02b1737ff08b4ceb8700bc651ebd887f19eedb87",
      "blockNumber": "0x740045",
      "gasUsed": "0xb287",
      "effectiveGasPrice": "0x64102a3f",
      "from": "0xcda2fdb452ff4f5d7ba1c3d5dfcc9cb926a5eb7d",
      "to": "0xc959483dba39aa9e78757139af0e9a2edeb3f42d",
      "contractAddress": null
    },
    {
      "status": "0x1",
      "cumulativeGasUsed": "0xc118a0",
      "logs": [
        {
          "address": "0x94a9d9ac8a22534e3faca9f4e7f2e2cf85d5e4c8",
          "topics": [
            "0xddf252ad1be2c89b69c2b068fc378daa952ba7f163c4a11628f55a4df523b3ef",
            "0x0000000000000000000000000000000000000000000000000000000000000000",
            "0x000000000000000000000000cda2fdb452ff4f5d7ba1c3d5dfcc9cb926a5eb7d"
          ],
          "data": "0x00000000000000000000000000000000000000000000000000000002540be400",
          "blockHash": "0x3d01f33627515d43fb1a4f1b02b1737ff08b4ceb8700bc651ebd887f19eedb87",
          "blockNumber": "0x740045",
          "transactionHash": "0x66926cabec3f5a72a151c56ad0b3eaf8b41d6c4a230c474e1e2b648f7a42159c",
          "transactionIndex": "0x75",
          "logIndex": "0xb0",
          "removed": false
        }
      ],
      "logsBloom": "0x00000000000000000000000000000000000000000000000000000000000000000000000000000000000000000000000000000000000000000000000000000000000000000000000000000008040000000000000000000000000008000000000000000000020000000000000000000800000000000000800000000010000000000000000000000000000000000000000000000000000000000000000000000000000000000100000000004000000000000000000000004000000000000000000000000002000000000000000000000000000000000000000000000000000020000000000000000000000000000000000000000000000000000000000000000000",
      "type": "0x2",
      "transactionHash": "0x66926cabec3f5a72a151c56ad0b3eaf8b41d6c4a230c474e1e2b648f7a42159c",
      "transactionIndex": "0x75",
      "blockHash": "0x3d01f33627515d43fb1a4f1b02b1737ff08b4ceb8700bc651ebd887f19eedb87",
      "blockNumber": "0x740045",
      "gasUsed": "0xb287",
      "effectiveGasPrice": "0x64102a3f",
      "from": "0xcda2fdb452ff4f5d7ba1c3d5dfcc9cb926a5eb7d",
      "to": "0xc959483dba39aa9e78757139af0e9a2edeb3f42d",
      "contractAddress": null
    },
    {
      "status": "0x1",
      "cumulativeGasUsed": "0xc1cb27",
      "logs": [
        {
          "address": "0x94a9d9ac8a22534e3faca9f4e7f2e2cf85d5e4c8",
          "topics": [
            "0xddf252ad1be2c89b69c2b068fc378daa952ba7f163c4a11628f55a4df523b3ef",
            "0x0000000000000000000000000000000000000000000000000000000000000000",
            "0x000000000000000000000000cda2fdb452ff4f5d7ba1c3d5dfcc9cb926a5eb7d"
          ],
          "data": "0x00000000000000000000000000000000000000000000000000000002540be400",
          "blockHash": "0x3d01f33627515d43fb1a4f1b02b1737ff08b4ceb8700bc651ebd887f19eedb87",
          "blockNumber": "0x740045",
          "transactionHash": "0xd75d877d832e799016345ad5156597b253ef895ccae212e9c95a5b81e261dbd6",
          "transactionIndex": "0x76",
          "logIndex": "0xb1",
          "removed": false
        }
      ],
      "logsBloom": "0x00000000000000000000000000000000000000000000000000000000000000000000000000000000000000000000000000000000000000000000000000000000000000000000000000000008040000000000000000000000000008000000000000000000020000000000000000000800000000000000800000000010000000000000000000000000000000000000000000000000000000000000000000000000000000000100000000004000000000000000000000004000000000000000000000000002000000000000000000000000000000000000000000000000000020000000000000000000000000000000000000000000000000000000000000000000",
      "type": "0x2",
      "transactionHash": "0xd75d877d832e799016345ad5156597b253ef895ccae212e9c95a5b81e261dbd6",
      "transactionIndex": "0x76",
      "blockHash": "0x3d01f33627515d43fb1a4f1b02b1737ff08b4ceb8700bc651ebd887f19eedb87",
      "blockNumber": "0x740045",
      "gasUsed": "0xb287",
      "effectiveGasPrice": "0x64102a3f",
      "from": "0xcda2fdb452ff4f5d7ba1c3d5dfcc9cb926a5eb7d",
      "to": "0xc959483dba39aa9e78757139af0e9a2edeb3f42d",
      "contractAddress": null
    },
    {
      "status": "0x1",
      "cumulativeGasUsed": "0xc27dae",
      "logs": [
        {
          "address": "0x94a9d9ac8a22534e3faca9f4e7f2e2cf85d5e4c8",
          "topics": [
            "0xddf252ad1be2c89b69c2b068fc378daa952ba7f163c4a11628f55a4df523b3ef",
            "0x0000000000000000000000000000000000000000000000000000000000000000",
            "0x000000000000000000000000cda2fdb452ff4f5d7ba1c3d5dfcc9cb926a5eb7d"
          ],
          "data": "0x00000000000000000000000000000000000000000000000000000002540be400",
          "blockHash": "0x3d01f33627515d43fb1a4f1b02b1737ff08b4ceb8700bc651ebd887f19eedb87",
          "blockNumber": "0x740045",
          "transactionHash": "0xcc075837de4f01fd2ee86cbc5904fa52f1a57fe657c14a0e361fde11274d5ec5",
          "transactionIndex": "0x77",
          "logIndex": "0xb2",
          "removed": false
        }
      ],
      "logsBloom": "0x00000000000000000000000000000000000000000000000000000000000000000000000000000000000000000000000000000000000000000000000000000000000000000000000000000008040000000000000000000000000008000000000000000000020000000000000000000800000000000000800000000010000000000000000000000000000000000000000000000000000000000000000000000000000000000100000000004000000000000000000000004000000000000000000000000002000000000000000000000000000000000000000000000000000020000000000000000000000000000000000000000000000000000000000000000000",
      "type": "0x2",
      "transactionHash": "0xcc075837de4f01fd2ee86cbc5904fa52f1a57fe657c14a0e361fde11274d5ec5",
      "transactionIndex": "0x77",
      "blockHash": "0x3d01f33627515d43fb1a4f1b02b1737ff08b4ceb8700bc651ebd887f19eedb87",
      "blockNumber": "0x740045",
      "gasUsed": "0xb287",
      "effectiveGasPrice": "0x64102a3f",
      "from": "0xcda2fdb452ff4f5d7ba1c3d5dfcc9cb926a5eb7d",
      "to": "0xc959483dba39aa9e78757139af0e9a2edeb3f42d",
      "contractAddress": null
    },
    {
      "status": "0x1",
      "cumulativeGasUsed": "0xc33035",
      "logs": [
        {
          "address": "0x94a9d9ac8a22534e3faca9f4e7f2e2cf85d5e4c8",
          "topics": [
            "0xddf252ad1be2c89b69c2b068fc378daa952ba7f163c4a11628f55a4df523b3ef",
            "0x0000000000000000000000000000000000000000000000000000000000000000",
            "0x000000000000000000000000cda2fdb452ff4f5d7ba1c3d5dfcc9cb926a5eb7d"
          ],
          "data": "0x00000000000000000000000000000000000000000000000000000002540be400",
          "blockHash": "0x3d01f33627515d43fb1a4f1b02b1737ff08b4ceb8700bc651ebd887f19eedb87",
          "blockNumber": "0x740045",
          "transactionHash": "0x97102b50b1d1b0afd73487db3885c8bd29ddbf71f3b4c9d5860a2daf56af8bee",
          "transactionIndex": "0x78",
          "logIndex": "0xb3",
          "removed": false
        }
      ],
      "logsBloom": "0x00000000000000000000000000000000000000000000000000000000000000000000000000000000000000000000000000000000000000000000000000000000000000000000000000000008040000000000000000000000000008000000000000000000020000000000000000000800000000000000800000000010000000000000000000000000000000000000000000000000000000000000000000000000000000000100000000004000000000000000000000004000000000000000000000000002000000000000000000000000000000000000000000000000000020000000000000000000000000000000000000000000000000000000000000000000",
      "type": "0x2",
      "transactionHash": "0x97102b50b1d1b0afd73487db3885c8bd29ddbf71f3b4c9d5860a2daf56af8bee",
      "transactionIndex": "0x78",
      "blockHash": "0x3d01f33627515d43fb1a4f1b02b1737ff08b4ceb8700bc651ebd887f19eedb87",
      "blockNumber": "0x740045",
      "gasUsed": "0xb287",
      "effectiveGasPrice": "0x64102a3f",
      "from": "0xcda2fdb452ff4f5d7ba1c3d5dfcc9cb926a5eb7d",
      "to": "0xc959483dba39aa9e78757139af0e9a2edeb3f42d",
      "contractAddress": null
    },
    {
      "status": "0x1",
      "cumulativeGasUsed": "0xc3e2bc",
      "logs": [
        {
          "address": "0x94a9d9ac8a22534e3faca9f4e7f2e2cf85d5e4c8",
          "topics": [
            "0xddf252ad1be2c89b69c2b068fc378daa952ba7f163c4a11628f55a4df523b3ef",
            "0x0000000000000000000000000000000000000000000000000000000000000000",
            "0x000000000000000000000000cda2fdb452ff4f5d7ba1c3d5dfcc9cb926a5eb7d"
          ],
          "data": "0x00000000000000000000000000000000000000000000000000000002540be400",
          "blockHash": "0x3d01f33627515d43fb1a4f1b02b1737ff08b4ceb8700bc651ebd887f19eedb87",
          "blockNumber": "0x740045",
          "transactionHash": "0x1088ddd442aefc0302d34708601b96ff2dc8d8bf5a626b2d7d956ee932f3d28a",
          "transactionIndex": "0x79",
          "logIndex": "0xb4",
          "removed": false
        }
      ],
      "logsBloom": "0x00000000000000000000000000000000000000000000000000000000000000000000000000000000000000000000000000000000000000000000000000000000000000000000000000000008040000000000000000000000000008000000000000000000020000000000000000000800000000000000800000000010000000000000000000000000000000000000000000000000000000000000000000000000000000000100000000004000000000000000000000004000000000000000000000000002000000000000000000000000000000000000000000000000000020000000000000000000000000000000000000000000000000000000000000000000",
      "type": "0x2",
      "transactionHash": "0x1088ddd442aefc0302d34708601b96ff2dc8d8bf5a626b2d7d956ee932f3d28a",
      "transactionIndex": "0x79",
      "blockHash": "0x3d01f33627515d43fb1a4f1b02b1737ff08b4ceb8700bc651ebd887f19eedb87",
      "blockNumber": "0x740045",
      "gasUsed": "0xb287",
      "effectiveGasPrice": "0x64102a3f",
      "from": "0xcda2fdb452ff4f5d7ba1c3d5dfcc9cb926a5eb7d",
      "to": "0xc959483dba39aa9e78757139af0e9a2edeb3f42d",
      "contractAddress": null
    },
    {
      "status": "0x1",
      "cumulativeGasUsed": "0xc49543",
      "logs": [
        {
          "address": "0x94a9d9ac8a22534e3faca9f4e7f2e2cf85d5e4c8",
          "topics": [
            "0xddf252ad1be2c89b69c2b068fc378daa952ba7f163c4a11628f55a4df523b3ef",
            "0x0000000000000000000000000000000000000000000000000000000000000000",
            "0x000000000000000000000000cda2fdb452ff4f5d7ba1c3d5dfcc9cb926a5eb7d"
          ],
          "data": "0x00000000000000000000000000000000000000000000000000000002540be400",
          "blockHash": "0x3d01f33627515d43fb1a4f1b02b1737ff08b4ceb8700bc651ebd887f19eedb87",
          "blockNumber": "0x740045",
          "transactionHash": "0x5fa30a6af3a15d1136e5365adef8ae56397c4e60830678cea8bb36b5b7dc2e5e",
          "transactionIndex": "0x7a",
          "logIndex": "0xb5",
          "removed": false
        }
      ],
      "logsBloom": "0x00000000000000000000000000000000000000000000000000000000000000000000000000000000000000000000000000000000000000000000000000000000000000000000000000000008040000000000000000000000000008000000000000000000020000000000000000000800000000000000800000000010000000000000000000000000000000000000000000000000000000000000000000000000000000000100000000004000000000000000000000004000000000000000000000000002000000000000000000000000000000000000000000000000000020000000000000000000000000000000000000000000000000000000000000000000",
      "type": "0x2",
      "transactionHash": "0x5fa30a6af3a15d1136e5365adef8ae56397c4e60830678cea8bb36b5b7dc2e5e",
      "transactionIndex": "0x7a",
      "blockHash": "0x3d01f33627515d43fb1a4f1b02b1737ff08b4ceb8700bc651ebd887f19eedb87",
      "blockNumber": "0x740045",
      "gasUsed": "0xb287",
      "effectiveGasPrice": "0x64102a3f",
      "from": "0xcda2fdb452ff4f5d7ba1c3d5dfcc9cb926a5eb7d",
      "to": "0xc959483dba39aa9e78757139af0e9a2edeb3f42d",
      "contractAddress": null
    },
    {
      "status": "0x1",
      "cumulativeGasUsed": "0xc547ca",
      "logs": [
        {
          "address": "0x94a9d9ac8a22534e3faca9f4e7f2e2cf85d5e4c8",
          "topics": [
            "0xddf252ad1be2c89b69c2b068fc378daa952ba7f163c4a11628f55a4df523b3ef",
            "0x0000000000000000000000000000000000000000000000000000000000000000",
            "0x000000000000000000000000cda2fdb452ff4f5d7ba1c3d5dfcc9cb926a5eb7d"
          ],
          "data": "0x00000000000000000000000000000000000000000000000000000002540be400",
          "blockHash": "0x3d01f33627515d43fb1a4f1b02b1737ff08b4ceb8700bc651ebd887f19eedb87",
          "blockNumber": "0x740045",
          "transactionHash": "0xd9a3dbce8c1f63a8a18e3270831bb3a09997ff0810b2b616801a3febfda742dc",
          "transactionIndex": "0x7b",
          "logIndex": "0xb6",
          "removed": false
        }
      ],
      "logsBloom": "0x00000000000000000000000000000000000000000000000000000000000000000000000000000000000000000000000000000000000000000000000000000000000000000000000000000008040000000000000000000000000008000000000000000000020000000000000000000800000000000000800000000010000000000000000000000000000000000000000000000000000000000000000000000000000000000100000000004000000000000000000000004000000000000000000000000002000000000000000000000000000000000000000000000000000020000000000000000000000000000000000000000000000000000000000000000000",
      "type": "0x2",
      "transactionHash": "0xd9a3dbce8c1f63a8a18e3270831bb3a09997ff0810b2b616801a3febfda742dc",
      "transactionIndex": "0x7b",
      "blockHash": "0x3d01f33627515d43fb1a4f1b02b1737ff08b4ceb8700bc651ebd887f19eedb87",
      "blockNumber": "0x740045",
      "gasUsed": "0xb287",
      "effectiveGasPrice": "0x64102a3f",
      "from": "0xcda2fdb452ff4f5d7ba1c3d5dfcc9cb926a5eb7d",
      "to": "0xc959483dba39aa9e78757139af0e9a2edeb3f42d",
      "contractAddress": null
    },
    {
      "status": "0x1",
      "cumulativeGasUsed": "0xc5fa51",
      "logs": [
        {
          "address": "0x94a9d9ac8a22534e3faca9f4e7f2e2cf85d5e4c8",
          "topics": [
            "0xddf252ad1be2c89b69c2b068fc378daa952ba7f163c4a11628f55a4df523b3ef",
            "0x0000000000000000000000000000000000000000000000000000000000000000",
            "0x000000000000000000000000cda2fdb452ff4f5d7ba1c3d5dfcc9cb926a5eb7d"
          ],
          "data": "0x00000000000000000000000000000000000000000000000000000002540be400",
          "blockHash": "0x3d01f33627515d43fb1a4f1b02b1737ff08b4ceb8700bc651ebd887f19eedb87",
          "blockNumber": "0x740045",
          "transactionHash": "0xa1ceb61875928db96892492d17b2343bdecb764f7816a32ddef7bc184ab70395",
          "transactionIndex": "0x7c",
          "logIndex": "0xb7",
          "removed": false
        }
      ],
      "logsBloom": "0x00000000000000000000000000000000000000000000000000000000000000000000000000000000000000000000000000000000000000000000000000000000000000000000000000000008040000000000000000000000000008000000000000000000020000000000000000000800000000000000800000000010000000000000000000000000000000000000000000000000000000000000000000000000000000000100000000004000000000000000000000004000000000000000000000000002000000000000000000000000000000000000000000000000000020000000000000000000000000000000000000000000000000000000000000000000",
      "type": "0x2",
      "transactionHash": "0xa1ceb61875928db96892492d17b2343bdecb764f7816a32ddef7bc184ab70395",
      "transactionIndex": "0x7c",
      "blockHash": "0x3d01f33627515d43fb1a4f1b02b1737ff08b4ceb8700bc651ebd887f19eedb87",
      "blockNumber": "0x740045",
      "gasUsed": "0xb287",
      "effectiveGasPrice": "0x64102a3f",
      "from": "0xcda2fdb452ff4f5d7ba1c3d5dfcc9cb926a5eb7d",
      "to": "0xc959483dba39aa9e78757139af0e9a2edeb3f42d",
      "contractAddress": null
    },
    {
      "status": "0x1",
      "cumulativeGasUsed": "0xc6acd8",
      "logs": [
        {
          "address": "0x94a9d9ac8a22534e3faca9f4e7f2e2cf85d5e4c8",
          "topics": [
            "0xddf252ad1be2c89b69c2b068fc378daa952ba7f163c4a11628f55a4df523b3ef",
            "0x0000000000000000000000000000000000000000000000000000000000000000",
            "0x000000000000000000000000cda2fdb452ff4f5d7ba1c3d5dfcc9cb926a5eb7d"
          ],
          "data": "0x00000000000000000000000000000000000000000000000000000002540be400",
          "blockHash": "0x3d01f33627515d43fb1a4f1b02b1737ff08b4ceb8700bc651ebd887f19eedb87",
          "blockNumber": "0x740045",
          "transactionHash": "0xa16bee336fd6041b3467c3ede0233f2c8a870c0d61385ca80b80eabd22e64a60",
          "transactionIndex": "0x7d",
          "logIndex": "0xb8",
          "removed": false
        }
      ],
      "logsBloom": "0x00000000000000000000000000000000000000000000000000000000000000000000000000000000000000000000000000000000000000000000000000000000000000000000000000000008040000000000000000000000000008000000000000000000020000000000000000000800000000000000800000000010000000000000000000000000000000000000000000000000000000000000000000000000000000000100000000004000000000000000000000004000000000000000000000000002000000000000000000000000000000000000000000000000000020000000000000000000000000000000000000000000000000000000000000000000",
      "type": "0x2",
      "transactionHash": "0xa16bee336fd6041b3467c3ede0233f2c8a870c0d61385ca80b80eabd22e64a60",
      "transactionIndex": "0x7d",
      "blockHash": "0x3d01f33627515d43fb1a4f1b02b1737ff08b4ceb8700bc651ebd887f19eedb87",
      "blockNumber": "0x740045",
      "gasUsed": "0xb287",
      "effectiveGasPrice": "0x64102a3f",
      "from": "0xcda2fdb452ff4f5d7ba1c3d5dfcc9cb926a5eb7d",
      "to": "0xc959483dba39aa9e78757139af0e9a2edeb3f42d",
      "contractAddress": null
    },
    {
      "status": "0x1",
      "cumulativeGasUsed": "0xc75f5f",
      "logs": [
        {
          "address": "0x94a9d9ac8a22534e3faca9f4e7f2e2cf85d5e4c8",
          "topics": [
            "0xddf252ad1be2c89b69c2b068fc378daa952ba7f163c4a11628f55a4df523b3ef",
            "0x0000000000000000000000000000000000000000000000000000000000000000",
            "0x000000000000000000000000cda2fdb452ff4f5d7ba1c3d5dfcc9cb926a5eb7d"
          ],
          "data": "0x00000000000000000000000000000000000000000000000000000002540be400",
          "blockHash": "0x3d01f33627515d43fb1a4f1b02b1737ff08b4ceb8700bc651ebd887f19eedb87",
          "blockNumber": "0x740045",
          "transactionHash": "0xe39ff97b2b9a57e1a0b57d90349424ff6f787dbf09614604a9590a7e5428e55b",
          "transactionIndex": "0x7e",
          "logIndex": "0xb9",
          "removed": false
        }
      ],
      "logsBloom": "0x00000000000000000000000000000000000000000000000000000000000000000000000000000000000000000000000000000000000000000000000000000000000000000000000000000008040000000000000000000000000008000000000000000000020000000000000000000800000000000000800000000010000000000000000000000000000000000000000000000000000000000000000000000000000000000100000000004000000000000000000000004000000000000000000000000002000000000000000000000000000000000000000000000000000020000000000000000000000000000000000000000000000000000000000000000000",
      "type": "0x2",
      "transactionHash": "0xe39ff97b2b9a57e1a0b57d90349424ff6f787dbf09614604a9590a7e5428e55b",
      "transactionIndex": "0x7e",
      "blockHash": "0x3d01f33627515d43fb1a4f1b02b1737ff08b4ceb8700bc651ebd887f19eedb87",
      "blockNumber": "0x740045",
      "gasUsed": "0xb287",
      "effectiveGasPrice": "0x64102a3f",
      "from": "0xcda2fdb452ff4f5d7ba1c3d5dfcc9cb926a5eb7d",
      "to": "0xc959483dba39aa9e78757139af0e9a2edeb3f42d",
      "contractAddress": null
    },
    {
      "status": "0x1",
      "cumulativeGasUsed": "0xc811e6",
      "logs": [
        {
          "address": "0x94a9d9ac8a22534e3faca9f4e7f2e2cf85d5e4c8",
          "topics": [
            "0xddf252ad1be2c89b69c2b068fc378daa952ba7f163c4a11628f55a4df523b3ef",
            "0x0000000000000000000000000000000000000000000000000000000000000000",
            "0x000000000000000000000000cda2fdb452ff4f5d7ba1c3d5dfcc9cb926a5eb7d"
          ],
          "data": "0x00000000000000000000000000000000000000000000000000000002540be400",
          "blockHash": "0x3d01f33627515d43fb1a4f1b02b1737ff08b4ceb8700bc651ebd887f19eedb87",
          "blockNumber": "0x740045",
          "transactionHash": "0xca9c248d4fa1fa577e8489918eeab330f3b48b029c9af5e7727e7b2460147435",
          "transactionIndex": "0x7f",
          "logIndex": "0xba",
          "removed": false
        }
      ],
      "logsBloom": "0x00000000000000000000000000000000000000000000000000000000000000000000000000000000000000000000000000000000000000000000000000000000000000000000000000000008040000000000000000000000000008000000000000000000020000000000000000000800000000000000800000000010000000000000000000000000000000000000000000000000000000000000000000000000000000000100000000004000000000000000000000004000000000000000000000000002000000000000000000000000000000000000000000000000000020000000000000000000000000000000000000000000000000000000000000000000",
      "type": "0x2",
      "transactionHash": "0xca9c248d4fa1fa577e8489918eeab330f3b48b029c9af5e7727e7b2460147435",
      "transactionIndex": "0x7f",
      "blockHash": "0x3d01f33627515d43fb1a4f1b02b1737ff08b4ceb8700bc651ebd887f19eedb87",
      "blockNumber": "0x740045",
      "gasUsed": "0xb287",
      "effectiveGasPrice": "0x64102a3f",
      "from": "0xcda2fdb452ff4f5d7ba1c3d5dfcc9cb926a5eb7d",
      "to": "0xc959483dba39aa9e78757139af0e9a2edeb3f42d",
      "contractAddress": null
    },
    {
      "status": "0x1",
      "cumulativeGasUsed": "0xc8c46d",
      "logs": [
        {
          "address": "0x94a9d9ac8a22534e3faca9f4e7f2e2cf85d5e4c8",
          "topics": [
            "0xddf252ad1be2c89b69c2b068fc378daa952ba7f163c4a11628f55a4df523b3ef",
            "0x0000000000000000000000000000000000000000000000000000000000000000",
            "0x000000000000000000000000cda2fdb452ff4f5d7ba1c3d5dfcc9cb926a5eb7d"
          ],
          "data": "0x00000000000000000000000000000000000000000000000000000002540be400",
          "blockHash": "0x3d01f33627515d43fb1a4f1b02b1737ff08b4ceb8700bc651ebd887f19eedb87",
          "blockNumber": "0x740045",
          "transactionHash": "0x0883091e0a11ed91525b88b57ed1b7e1bb7c30465bc0017581f46e474015cb67",
          "transactionIndex": "0x80",
          "logIndex": "0xbb",
          "removed": false
        }
      ],
      "logsBloom": "0x00000000000000000000000000000000000000000000000000000000000000000000000000000000000000000000000000000000000000000000000000000000000000000000000000000008040000000000000000000000000008000000000000000000020000000000000000000800000000000000800000000010000000000000000000000000000000000000000000000000000000000000000000000000000000000100000000004000000000000000000000004000000000000000000000000002000000000000000000000000000000000000000000000000000020000000000000000000000000000000000000000000000000000000000000000000",
      "type": "0x2",
      "transactionHash": "0x0883091e0a11ed91525b88b57ed1b7e1bb7c30465bc0017581f46e474015cb67",
      "transactionIndex": "0x80",
      "blockHash": "0x3d01f33627515d43fb1a4f1b02b1737ff08b4ceb8700bc651ebd887f19eedb87",
      "blockNumber": "0x740045",
      "gasUsed": "0xb287",
      "effectiveGasPrice": "0x64102a3f",
      "from": "0xcda2fdb452ff4f5d7ba1c3d5dfcc9cb926a5eb7d",
      "to": "0xc959483dba39aa9e78757139af0e9a2edeb3f42d",
      "contractAddress": null
    },
    {
      "status": "0x1",
      "cumulativeGasUsed": "0xc976f4",
      "logs": [
        {
          "address": "0x94a9d9ac8a22534e3faca9f4e7f2e2cf85d5e4c8",
          "topics": [
            "0xddf252ad1be2c89b69c2b068fc378daa952ba7f163c4a11628f55a4df523b3ef",
            "0x0000000000000000000000000000000000000000000000000000000000000000",
            "0x000000000000000000000000cda2fdb452ff4f5d7ba1c3d5dfcc9cb926a5eb7d"
          ],
          "data": "0x00000000000000000000000000000000000000000000000000000002540be400",
          "blockHash": "0x3d01f33627515d43fb1a4f1b02b1737ff08b4ceb8700bc651ebd887f19eedb87",
          "blockNumber": "0x740045",
          "transactionHash": "0xd45ee56ac44fea99d59dda984335066fb0dd915451d645584ee0a5e229f89f36",
          "transactionIndex": "0x81",
          "logIndex": "0xbc",
          "removed": false
        }
      ],
      "logsBloom": "0x00000000000000000000000000000000000000000000000000000000000000000000000000000000000000000000000000000000000000000000000000000000000000000000000000000008040000000000000000000000000008000000000000000000020000000000000000000800000000000000800000000010000000000000000000000000000000000000000000000000000000000000000000000000000000000100000000004000000000000000000000004000000000000000000000000002000000000000000000000000000000000000000000000000000020000000000000000000000000000000000000000000000000000000000000000000",
      "type": "0x2",
      "transactionHash": "0xd45ee56ac44fea99d59dda984335066fb0dd915451d645584ee0a5e229f89f36",
      "transactionIndex": "0x81",
      "blockHash": "0x3d01f33627515d43fb1a4f1b02b1737ff08b4ceb8700bc651ebd887f19eedb87",
      "blockNumber": "0x740045",
      "gasUsed": "0xb287",
      "effectiveGasPrice": "0x64102a3f",
      "from": "0xcda2fdb452ff4f5d7ba1c3d5dfcc9cb926a5eb7d",
      "to": "0xc959483dba39aa9e78757139af0e9a2edeb3f42d",
      "contractAddress": null
    },
    {
      "status": "0x1",
      "cumulativeGasUsed": "0xca297b",
      "logs": [
        {
          "address": "0x94a9d9ac8a22534e3faca9f4e7f2e2cf85d5e4c8",
          "topics": [
            "0xddf252ad1be2c89b69c2b068fc378daa952ba7f163c4a11628f55a4df523b3ef",
            "0x0000000000000000000000000000000000000000000000000000000000000000",
            "0x000000000000000000000000cda2fdb452ff4f5d7ba1c3d5dfcc9cb926a5eb7d"
          ],
          "data": "0x00000000000000000000000000000000000000000000000000000002540be400",
          "blockHash": "0x3d01f33627515d43fb1a4f1b02b1737ff08b4ceb8700bc651ebd887f19eedb87",
          "blockNumber": "0x740045",
          "transactionHash": "0x9ce02c747f977cafd6e1e0612ef5b6de00b6f63724833811f77b92e01769f2b9",
          "transactionIndex": "0x82",
          "logIndex": "0xbd",
          "removed": false
        }
      ],
      "logsBloom": "0x00000000000000000000000000000000000000000000000000000000000000000000000000000000000000000000000000000000000000000000000000000000000000000000000000000008040000000000000000000000000008000000000000000000020000000000000000000800000000000000800000000010000000000000000000000000000000000000000000000000000000000000000000000000000000000100000000004000000000000000000000004000000000000000000000000002000000000000000000000000000000000000000000000000000020000000000000000000000000000000000000000000000000000000000000000000",
      "type": "0x2",
      "transactionHash": "0x9ce02c747f977cafd6e1e0612ef5b6de00b6f63724833811f77b92e01769f2b9",
      "transactionIndex": "0x82",
      "blockHash": "0x3d01f33627515d43fb1a4f1b02b1737ff08b4ceb8700bc651ebd887f19eedb87",
      "blockNumber": "0x740045",
      "gasUsed": "0xb287",
      "effectiveGasPrice": "0x64102a3f",
      "from": "0xcda2fdb452ff4f5d7ba1c3d5dfcc9cb926a5eb7d",
      "to": "0xc959483dba39aa9e78757139af0e9a2edeb3f42d",
      "contractAddress": null
    }
  ],
  "libraries": [],
  "pending": [],
  "returns": {},
  "timestamp": 1738229921,
  "chain": 11155111,
  "commit": "c03c0fa"
}