{
  "transactions": [
    {
      "hash": "0x3a24873e2ffefde307cfe414a5cf0947e6f2460378240b3d433d81afb6116374",
      "transactionType": "CALL",
      "contractName": null,
      "contractAddress": "0x5f44d7a840a27aced8532ced411e2f059366638c",
      "function": "burnShare(uint256)",
      "arguments": [
        "24887000000000000000000"
      ],
      "transaction": {
        "from": "0xcda2fdb452ff4f5d7ba1c3d5dfcc9cb926a5eb7d",
        "to": "0x5f44d7a840a27aced8532ced411e2f059366638c",
        "gas": "0xcf46",
        "value": "0x0",
        "input": "0x0ebc2d2300000000000000000000000000000000000000000000054520815305da7c0000",
        "nonce": "0x1a2",
        "chainId": "0xaa36a7"
      },
      "additionalContracts": [],
      "isFixedGasLimit": false
    }
  ],
  "receipts": [
    {
      "status": "0x1",
      "cumulativeGasUsed": "0xdd4f47",
      "logs": [
        {
          "address": "0x5f44d7a840a27aced8532ced411e2f059366638c",
          "topics": [
            "0xddf252ad1be2c89b69c2b068fc378daa952ba7f163c4a11628f55a4df523b3ef",
            "0x000000000000000000000000cda2fdb452ff4f5d7ba1c3d5dfcc9cb926a5eb7d",
            "0x0000000000000000000000000000000000000000000000000000000000000000"
          ],
          "data": "0x00000000000000000000000000000000000000000000054520815305da7c0000",
          "blockHash": "0xc19bf5e47e7804ab23e360c74e7ccccbac9be839d8673ed2700a6a6863334924",
          "blockNumber": "0x74550b",
          "transactionHash": "0x3a24873e2ffefde307cfe414a5cf0947e6f2460378240b3d433d81afb6116374",
          "transactionIndex": "0x7d",
          "logIndex": "0xf0",
          "removed": false
        }
      ],
      "logsBloom": "0x00000000000000000000000000000000000000000000000000000000000000000000000000000000000000000000000000000000000000000000000000000000000000000000100000000008040000000000000000000000000000000000000000000000020000000000000000000800000000000000800000000010000000000000000000000000000000000000000000000000000000000000000000000000000000000000000000000000000000000000000000004000000000000000000080000002000000000000000000000000000000000000000000000000000020000000000000000000000020000000000000000000000000000000000000000000",
      "type": "0x2",
      "transactionHash": "0x3a24873e2ffefde307cfe414a5cf0947e6f2460378240b3d433d81afb6116374",
      "transactionIndex": "0x7d",
      "blockHash": "0xc19bf5e47e7804ab23e360c74e7ccccbac9be839d8673ed2700a6a6863334924",
      "blockNumber": "0x74550b",
      "gasUsed": "0x8dba",
      "effectiveGasPrice": "0xc0482061",
      "from": "0xcda2fdb452ff4f5d7ba1c3d5dfcc9cb926a5eb7d",
      "to": "0x5f44d7a840a27aced8532ced411e2f059366638c",
      "contractAddress": null
    }
  ],
  "libraries": [],
  "pending": [],
  "returns": {},
  "timestamp": 1738495735,
  "chain": 11155111,
  "commit": "c03c0fa"
}