{
  "transactions": [
    {
      "hash": "0x7527958fa960d7c5df022add10c5d664b39ffb9a8817a89154fd7e2fe8ac3d46",
      "transactionType": "CALL",
      "contractName": null,
      "contractAddress": "0xc959483dba39aa9e78757139af0e9a2edeb3f42d",
      "function": "mint(address,address,uint256)",
      "arguments": [
        "0xaA8E23Fb1079EA71e0a56F48a2aA51851D8433D0",
        "0xcdA2fDB452FF4F5D7Ba1C3d5dFCc9CB926A5eb7D",
        "10000000000"
      ],
      "transaction": {
        "from": "0xcda2fdb452ff4f5d7ba1c3d5dfcc9cb926a5eb7d",
        "to": "0xc959483dba39aa9e78757139af0e9a2edeb3f42d",
        "gas": "0xf696",
        "value": "0x0",
        "input": "0xc6c3bbe6000000000000000000000000aa8e23fb1079ea71e0a56f48a2aa51851d8433d0000000000000000000000000cda2fdb452ff4f5d7ba1c3d5dfcc9cb926a5eb7d00000000000000000000000000000000000000000000000000000002540be400",
        "nonce": "0x67",
        "chainId": "0xaa36a7"
      },
      "additionalContracts": [],
      "isFixedGasLimit": false
    },
    {
      "hash": "0x3b36a3cb7970f94090401500cda3fabd6d2a66f419c52d2c31e4fdeee2a79891",
      "transactionType": "CALL",
      "contractName": null,
      "contractAddress": "0xc959483dba39aa9e78757139af0e9a2edeb3f42d",
      "function": "mint(address,address,uint256)",
      "arguments": [
        "0xaA8E23Fb1079EA71e0a56F48a2aA51851D8433D0",
        "0xcdA2fDB452FF4F5D7Ba1C3d5dFCc9CB926A5eb7D",
        "10000000000"
      ],
      "transaction": {
        "from": "0xcda2fdb452ff4f5d7ba1c3d5dfcc9cb926a5eb7d",
        "to": "0xc959483dba39aa9e78757139af0e9a2edeb3f42d",
        "gas": "0xf696",
        "value": "0x0",
        "input": "0xc6c3bbe6000000000000000000000000aa8e23fb1079ea71e0a56f48a2aa51851d8433d0000000000000000000000000cda2fdb452ff4f5d7ba1c3d5dfcc9cb926a5eb7d00000000000000000000000000000000000000000000000000000002540be400",
        "nonce": "0x68",
        "chainId": "0xaa36a7"
      },
      "additionalContracts": [],
      "isFixedGasLimit": false
    },
    {
      "hash": "0x0855187c3ae344fd229d196bcd9e3f1be6d481fface911ae8dedd7a30350b0e6",
      "transactionType": "CALL",
      "contractName": null,
      "contractAddress": "0xc959483dba39aa9e78757139af0e9a2edeb3f42d",
      "function": "mint(address,address,uint256)",
      "arguments": [
        "0xaA8E23Fb1079EA71e0a56F48a2aA51851D8433D0",
        "0xcdA2fDB452FF4F5D7Ba1C3d5dFCc9CB926A5eb7D",
        "10000000000"
      ],
      "transaction": {
        "from": "0xcda2fdb452ff4f5d7ba1c3d5dfcc9cb926a5eb7d",
        "to": "0xc959483dba39aa9e78757139af0e9a2edeb3f42d",
        "gas": "0xf696",
        "value": "0x0",
        "input": "0xc6c3bbe6000000000000000000000000aa8e23fb1079ea71e0a56f48a2aa51851d8433d0000000000000000000000000cda2fdb452ff4f5d7ba1c3d5dfcc9cb926a5eb7d00000000000000000000000000000000000000000000000000000002540be400",
        "nonce": "0x69",
        "chainId": "0xaa36a7"
      },
      "additionalContracts": [],
      "isFixedGasLimit": false
    },
    {
      "hash": "0x2bc1574520344587fa5372f3b7c43e1aae17feff0b241c97e0a7bc2d0c02086a",
      "transactionType": "CALL",
      "contractName": null,
      "contractAddress": "0xc959483dba39aa9e78757139af0e9a2edeb3f42d",
      "function": "mint(address,address,uint256)",
      "arguments": [
        "0xaA8E23Fb1079EA71e0a56F48a2aA51851D8433D0",
        "0xcdA2fDB452FF4F5D7Ba1C3d5dFCc9CB926A5eb7D",
        "10000000000"
      ],
      "transaction": {
        "from": "0xcda2fdb452ff4f5d7ba1c3d5dfcc9cb926a5eb7d",
        "to": "0xc959483dba39aa9e78757139af0e9a2edeb3f42d",
        "gas": "0xf696",
        "value": "0x0",
        "input": "0xc6c3bbe6000000000000000000000000aa8e23fb1079ea71e0a56f48a2aa51851d8433d0000000000000000000000000cda2fdb452ff4f5d7ba1c3d5dfcc9cb926a5eb7d00000000000000000000000000000000000000000000000000000002540be400",
        "nonce": "0x6a",
        "chainId": "0xaa36a7"
      },
      "additionalContracts": [],
      "isFixedGasLimit": false
    },
    {
      "hash": "0x97908b149cc697c11ff9913fb193643b7ebfb01d6879d65e11883abe6faeae69",
      "transactionType": "CALL",
      "contractName": null,
      "contractAddress": "0xc959483dba39aa9e78757139af0e9a2edeb3f42d",
      "function": "mint(address,address,uint256)",
      "arguments": [
        "0xaA8E23Fb1079EA71e0a56F48a2aA51851D8433D0",
        "0xcdA2fDB452FF4F5D7Ba1C3d5dFCc9CB926A5eb7D",
        "10000000000"
      ],
      "transaction": {
        "from": "0xcda2fdb452ff4f5d7ba1c3d5dfcc9cb926a5eb7d",
        "to": "0xc959483dba39aa9e78757139af0e9a2edeb3f42d",
        "gas": "0xf696",
        "value": "0x0",
        "input": "0xc6c3bbe6000000000000000000000000aa8e23fb1079ea71e0a56f48a2aa51851d8433d0000000000000000000000000cda2fdb452ff4f5d7ba1c3d5dfcc9cb926a5eb7d00000000000000000000000000000000000000000000000000000002540be400",
        "nonce": "0x6b",
        "chainId": "0xaa36a7"
      },
      "additionalContracts": [],
      "isFixedGasLimit": false
    },
    {
      "hash": "0x00afe3fce8d736d492fd07062420a035ed6338c95373a5ca593dd24a857a201f",
      "transactionType": "CALL",
      "contractName": null,
      "contractAddress": "0xc959483dba39aa9e78757139af0e9a2edeb3f42d",
      "function": "mint(address,address,uint256)",
      "arguments": [
        "0xaA8E23Fb1079EA71e0a56F48a2aA51851D8433D0",
        "0xcdA2fDB452FF4F5D7Ba1C3d5dFCc9CB926A5eb7D",
        "10000000000"
      ],
      "transaction": {
        "from": "0xcda2fdb452ff4f5d7ba1c3d5dfcc9cb926a5eb7d",
        "to": "0xc959483dba39aa9e78757139af0e9a2edeb3f42d",
        "gas": "0xf696",
        "value": "0x0",
        "input": "0xc6c3bbe6000000000000000000000000aa8e23fb1079ea71e0a56f48a2aa51851d8433d0000000000000000000000000cda2fdb452ff4f5d7ba1c3d5dfcc9cb926a5eb7d00000000000000000000000000000000000000000000000000000002540be400",
        "nonce": "0x6c",
        "chainId": "0xaa36a7"
      },
      "additionalContracts": [],
      "isFixedGasLimit": false
    },
    {
      "hash": "0xfc6c34349f5d74fb1093f10ca4b927d16d2847b162a73e1d0fbdfcb1f298ddf4",
      "transactionType": "CALL",
      "contractName": null,
      "contractAddress": "0xc959483dba39aa9e78757139af0e9a2edeb3f42d",
      "function": "mint(address,address,uint256)",
      "arguments": [
        "0xaA8E23Fb1079EA71e0a56F48a2aA51851D8433D0",
        "0xcdA2fDB452FF4F5D7Ba1C3d5dFCc9CB926A5eb7D",
        "10000000000"
      ],
      "transaction": {
        "from": "0xcda2fdb452ff4f5d7ba1c3d5dfcc9cb926a5eb7d",
        "to": "0xc959483dba39aa9e78757139af0e9a2edeb3f42d",
        "gas": "0xf696",
        "value": "0x0",
        "input": "0xc6c3bbe6000000000000000000000000aa8e23fb1079ea71e0a56f48a2aa51851d8433d0000000000000000000000000cda2fdb452ff4f5d7ba1c3d5dfcc9cb926a5eb7d00000000000000000000000000000000000000000000000000000002540be400",
        "nonce": "0x6d",
        "chainId": "0xaa36a7"
      },
      "additionalContracts": [],
      "isFixedGasLimit": false
    },
    {
      "hash": "0x9a217c7c06c2da1c7034aa949704060bd3f0aea23cd8dc68b9eec22c5d105462",
      "transactionType": "CALL",
      "contractName": null,
      "contractAddress": "0xc959483dba39aa9e78757139af0e9a2edeb3f42d",
      "function": "mint(address,address,uint256)",
      "arguments": [
        "0xaA8E23Fb1079EA71e0a56F48a2aA51851D8433D0",
        "0xcdA2fDB452FF4F5D7Ba1C3d5dFCc9CB926A5eb7D",
        "10000000000"
      ],
      "transaction": {
        "from": "0xcda2fdb452ff4f5d7ba1c3d5dfcc9cb926a5eb7d",
        "to": "0xc959483dba39aa9e78757139af0e9a2edeb3f42d",
        "gas": "0xf696",
        "value": "0x0",
        "input": "0xc6c3bbe6000000000000000000000000aa8e23fb1079ea71e0a56f48a2aa51851d8433d0000000000000000000000000cda2fdb452ff4f5d7ba1c3d5dfcc9cb926a5eb7d00000000000000000000000000000000000000000000000000000002540be400",
        "nonce": "0x6e",
        "chainId": "0xaa36a7"
      },
      "additionalContracts": [],
      "isFixedGasLimit": false
    },
    {
      "hash": "0xbe85c2f900e5eb122deae455f9f3bf099671ff7d4881cd12be2820fcd7caae16",
      "transactionType": "CALL",
      "contractName": null,
      "contractAddress": "0xc959483dba39aa9e78757139af0e9a2edeb3f42d",
      "function": "mint(address,address,uint256)",
      "arguments": [
        "0xaA8E23Fb1079EA71e0a56F48a2aA51851D8433D0",
        "0xcdA2fDB452FF4F5D7Ba1C3d5dFCc9CB926A5eb7D",
        "10000000000"
      ],
      "transaction": {
        "from": "0xcda2fdb452ff4f5d7ba1c3d5dfcc9cb926a5eb7d",
        "to": "0xc959483dba39aa9e78757139af0e9a2edeb3f42d",
        "gas": "0xf696",
        "value": "0x0",
        "input": "0xc6c3bbe6000000000000000000000000aa8e23fb1079ea71e0a56f48a2aa51851d8433d0000000000000000000000000cda2fdb452ff4f5d7ba1c3d5dfcc9cb926a5eb7d00000000000000000000000000000000000000000000000000000002540be400",
        "nonce": "0x6f",
        "chainId": "0xaa36a7"
      },
      "additionalContracts": [],
      "isFixedGasLimit": false
    },
    {
      "hash": "0x84c8c78ca41e34304ed2611a2e7ca2333ecb6032bf161953d52189ca1299adf5",
      "transactionType": "CALL",
      "contractName": null,
      "contractAddress": "0xc959483dba39aa9e78757139af0e9a2edeb3f42d",
      "function": "mint(address,address,uint256)",
      "arguments": [
        "0xaA8E23Fb1079EA71e0a56F48a2aA51851D8433D0",
        "0xcdA2fDB452FF4F5D7Ba1C3d5dFCc9CB926A5eb7D",
        "10000000000"
      ],
      "transaction": {
        "from": "0xcda2fdb452ff4f5d7ba1c3d5dfcc9cb926a5eb7d",
        "to": "0xc959483dba39aa9e78757139af0e9a2edeb3f42d",
        "gas": "0xf696",
        "value": "0x0",
        "input": "0xc6c3bbe6000000000000000000000000aa8e23fb1079ea71e0a56f48a2aa51851d8433d0000000000000000000000000cda2fdb452ff4f5d7ba1c3d5dfcc9cb926a5eb7d00000000000000000000000000000000000000000000000000000002540be400",
        "nonce": "0x70",
        "chainId": "0xaa36a7"
      },
      "additionalContracts": [],
      "isFixedGasLimit": false
    },
    {
      "hash": "0x9499c972107fd3b4c37bc37f59c5e3e43d42bf963bf7178d8bd0bfdf3304aee2",
      "transactionType": "CALL",
      "contractName": null,
      "contractAddress": "0xc959483dba39aa9e78757139af0e9a2edeb3f42d",
      "function": "mint(address,address,uint256)",
      "arguments": [
        "0xaA8E23Fb1079EA71e0a56F48a2aA51851D8433D0",
        "0xcdA2fDB452FF4F5D7Ba1C3d5dFCc9CB926A5eb7D",
        "10000000000"
      ],
      "transaction": {
        "from": "0xcda2fdb452ff4f5d7ba1c3d5dfcc9cb926a5eb7d",
        "to": "0xc959483dba39aa9e78757139af0e9a2edeb3f42d",
        "gas": "0xf696",
        "value": "0x0",
        "input": "0xc6c3bbe6000000000000000000000000aa8e23fb1079ea71e0a56f48a2aa51851d8433d0000000000000000000000000cda2fdb452ff4f5d7ba1c3d5dfcc9cb926a5eb7d00000000000000000000000000000000000000000000000000000002540be400",
        "nonce": "0x71",
        "chainId": "0xaa36a7"
      },
      "additionalContracts": [],
      "isFixedGasLimit": false
    },
    {
      "hash": "0x2c5f2c0d02cfed6de986528bfc2765b4f281c4d4a40d724bdde0d489712abb93",
      "transactionType": "CALL",
      "contractName": null,
      "contractAddress": "0xc959483dba39aa9e78757139af0e9a2edeb3f42d",
      "function": "mint(address,address,uint256)",
      "arguments": [
        "0xaA8E23Fb1079EA71e0a56F48a2aA51851D8433D0",
        "0xcdA2fDB452FF4F5D7Ba1C3d5dFCc9CB926A5eb7D",
        "10000000000"
      ],
      "transaction": {
        "from": "0xcda2fdb452ff4f5d7ba1c3d5dfcc9cb926a5eb7d",
        "to": "0xc959483dba39aa9e78757139af0e9a2edeb3f42d",
        "gas": "0xf696",
        "value": "0x0",
        "input": "0xc6c3bbe6000000000000000000000000aa8e23fb1079ea71e0a56f48a2aa51851d8433d0000000000000000000000000cda2fdb452ff4f5d7ba1c3d5dfcc9cb926a5eb7d00000000000000000000000000000000000000000000000000000002540be400",
        "nonce": "0x72",
        "chainId": "0xaa36a7"
      },
      "additionalContracts": [],
      "isFixedGasLimit": false
    },
    {
      "hash": "0x564d0cddc223ae6498b4f4f7d6d72bf3b86ea191a966f212fc8c644850767649",
      "transactionType": "CALL",
      "contractName": null,
      "contractAddress": "0xc959483dba39aa9e78757139af0e9a2edeb3f42d",
      "function": "mint(address,address,uint256)",
      "arguments": [
        "0xaA8E23Fb1079EA71e0a56F48a2aA51851D8433D0",
        "0xcdA2fDB452FF4F5D7Ba1C3d5dFCc9CB926A5eb7D",
        "10000000000"
      ],
      "transaction": {
        "from": "0xcda2fdb452ff4f5d7ba1c3d5dfcc9cb926a5eb7d",
        "to": "0xc959483dba39aa9e78757139af0e9a2edeb3f42d",
        "gas": "0xf696",
        "value": "0x0",
        "input": "0xc6c3bbe6000000000000000000000000aa8e23fb1079ea71e0a56f48a2aa51851d8433d0000000000000000000000000cda2fdb452ff4f5d7ba1c3d5dfcc9cb926a5eb7d00000000000000000000000000000000000000000000000000000002540be400",
        "nonce": "0x73",
        "chainId": "0xaa36a7"
      },
      "additionalContracts": [],
      "isFixedGasLimit": false
    },
    {
      "hash": "0x8d3733e644370c6356340da1a671419510eed2c5ea0a0b3a57fd066d54ab39d2",
      "transactionType": "CALL",
      "contractName": null,
      "contractAddress": "0xc959483dba39aa9e78757139af0e9a2edeb3f42d",
      "function": "mint(address,address,uint256)",
      "arguments": [
        "0xaA8E23Fb1079EA71e0a56F48a2aA51851D8433D0",
        "0xcdA2fDB452FF4F5D7Ba1C3d5dFCc9CB926A5eb7D",
        "10000000000"
      ],
      "transaction": {
        "from": "0xcda2fdb452ff4f5d7ba1c3d5dfcc9cb926a5eb7d",
        "to": "0xc959483dba39aa9e78757139af0e9a2edeb3f42d",
        "gas": "0xf696",
        "value": "0x0",
        "input": "0xc6c3bbe6000000000000000000000000aa8e23fb1079ea71e0a56f48a2aa51851d8433d0000000000000000000000000cda2fdb452ff4f5d7ba1c3d5dfcc9cb926a5eb7d00000000000000000000000000000000000000000000000000000002540be400",
        "nonce": "0x74",
        "chainId": "0xaa36a7"
      },
      "additionalContracts": [],
      "isFixedGasLimit": false
    },
    {
      "hash": "0xb2477d8a89eaa5ce67e5cf536ae4856e1128d7542a53172a8abca7d6ef98eaa6",
      "transactionType": "CALL",
      "contractName": null,
      "contractAddress": "0xc959483dba39aa9e78757139af0e9a2edeb3f42d",
      "function": "mint(address,address,uint256)",
      "arguments": [
        "0xaA8E23Fb1079EA71e0a56F48a2aA51851D8433D0",
        "0xcdA2fDB452FF4F5D7Ba1C3d5dFCc9CB926A5eb7D",
        "10000000000"
      ],
      "transaction": {
        "from": "0xcda2fdb452ff4f5d7ba1c3d5dfcc9cb926a5eb7d",
        "to": "0xc959483dba39aa9e78757139af0e9a2edeb3f42d",
        "gas": "0xf696",
        "value": "0x0",
        "input": "0xc6c3bbe6000000000000000000000000aa8e23fb1079ea71e0a56f48a2aa51851d8433d0000000000000000000000000cda2fdb452ff4f5d7ba1c3d5dfcc9cb926a5eb7d00000000000000000000000000000000000000000000000000000002540be400",
        "nonce": "0x75",
        "chainId": "0xaa36a7"
      },
      "additionalContracts": [],
      "isFixedGasLimit": false
    },
    {
      "hash": "0xb948d7e02223ce9bbffe9f57e968132ea46ad4ce95626446b84e48757135bfa6",
      "transactionType": "CALL",
      "contractName": null,
      "contractAddress": "0xc959483dba39aa9e78757139af0e9a2edeb3f42d",
      "function": "mint(address,address,uint256)",
      "arguments": [
        "0xaA8E23Fb1079EA71e0a56F48a2aA51851D8433D0",
        "0xcdA2fDB452FF4F5D7Ba1C3d5dFCc9CB926A5eb7D",
        "10000000000"
      ],
      "transaction": {
        "from": "0xcda2fdb452ff4f5d7ba1c3d5dfcc9cb926a5eb7d",
        "to": "0xc959483dba39aa9e78757139af0e9a2edeb3f42d",
        "gas": "0xf696",
        "value": "0x0",
        "input": "0xc6c3bbe6000000000000000000000000aa8e23fb1079ea71e0a56f48a2aa51851d8433d0000000000000000000000000cda2fdb452ff4f5d7ba1c3d5dfcc9cb926a5eb7d00000000000000000000000000000000000000000000000000000002540be400",
        "nonce": "0x76",
        "chainId": "0xaa36a7"
      },
      "additionalContracts": [],
      "isFixedGasLimit": false
    },
    {
      "hash": "0x937e5c716e83a83dd10b56b662232aebd5e8f4558978039297f7fd06cd271d6a",
      "transactionType": "CALL",
      "contractName": null,
      "contractAddress": "0xc959483dba39aa9e78757139af0e9a2edeb3f42d",
      "function": "mint(address,address,uint256)",
      "arguments": [
        "0xaA8E23Fb1079EA71e0a56F48a2aA51851D8433D0",
        "0xcdA2fDB452FF4F5D7Ba1C3d5dFCc9CB926A5eb7D",
        "10000000000"
      ],
      "transaction": {
        "from": "0xcda2fdb452ff4f5d7ba1c3d5dfcc9cb926a5eb7d",
        "to": "0xc959483dba39aa9e78757139af0e9a2edeb3f42d",
        "gas": "0xf696",
        "value": "0x0",
        "input": "0xc6c3bbe6000000000000000000000000aa8e23fb1079ea71e0a56f48a2aa51851d8433d0000000000000000000000000cda2fdb452ff4f5d7ba1c3d5dfcc9cb926a5eb7d00000000000000000000000000000000000000000000000000000002540be400",
        "nonce": "0x77",
        "chainId": "0xaa36a7"
      },
      "additionalContracts": [],
      "isFixedGasLimit": false
    },
    {
      "hash": "0xcd3555646a5816c51a75f3651e86a6e93795396557f684fbb9c4a086dd0dbee9",
      "transactionType": "CALL",
      "contractName": null,
      "contractAddress": "0xc959483dba39aa9e78757139af0e9a2edeb3f42d",
      "function": "mint(address,address,uint256)",
      "arguments": [
        "0xaA8E23Fb1079EA71e0a56F48a2aA51851D8433D0",
        "0xcdA2fDB452FF4F5D7Ba1C3d5dFCc9CB926A5eb7D",
        "10000000000"
      ],
      "transaction": {
        "from": "0xcda2fdb452ff4f5d7ba1c3d5dfcc9cb926a5eb7d",
        "to": "0xc959483dba39aa9e78757139af0e9a2edeb3f42d",
        "gas": "0xf696",
        "value": "0x0",
        "input": "0xc6c3bbe6000000000000000000000000aa8e23fb1079ea71e0a56f48a2aa51851d8433d0000000000000000000000000cda2fdb452ff4f5d7ba1c3d5dfcc9cb926a5eb7d00000000000000000000000000000000000000000000000000000002540be400",
        "nonce": "0x78",
        "chainId": "0xaa36a7"
      },
      "additionalContracts": [],
      "isFixedGasLimit": false
    },
    {
      "hash": "0xd898e8ebaecff4fb5091b746006ca376af4635a6ff98bb59c43b938f3021e029",
      "transactionType": "CALL",
      "contractName": null,
      "contractAddress": "0xc959483dba39aa9e78757139af0e9a2edeb3f42d",
      "function": "mint(address,address,uint256)",
      "arguments": [
        "0xaA8E23Fb1079EA71e0a56F48a2aA51851D8433D0",
        "0xcdA2fDB452FF4F5D7Ba1C3d5dFCc9CB926A5eb7D",
        "10000000000"
      ],
      "transaction": {
        "from": "0xcda2fdb452ff4f5d7ba1c3d5dfcc9cb926a5eb7d",
        "to": "0xc959483dba39aa9e78757139af0e9a2edeb3f42d",
        "gas": "0xf696",
        "value": "0x0",
        "input": "0xc6c3bbe6000000000000000000000000aa8e23fb1079ea71e0a56f48a2aa51851d8433d0000000000000000000000000cda2fdb452ff4f5d7ba1c3d5dfcc9cb926a5eb7d00000000000000000000000000000000000000000000000000000002540be400",
        "nonce": "0x79",
        "chainId": "0xaa36a7"
      },
      "additionalContracts": [],
      "isFixedGasLimit": false
    },
    {
      "hash": "0x583d736f4971b066e6f5ff791c9ffc88c39ae385d8e7971f4bea3abf6911bd00",
      "transactionType": "CALL",
      "contractName": null,
      "contractAddress": "0xc959483dba39aa9e78757139af0e9a2edeb3f42d",
      "function": "mint(address,address,uint256)",
      "arguments": [
        "0xaA8E23Fb1079EA71e0a56F48a2aA51851D8433D0",
        "0xcdA2fDB452FF4F5D7Ba1C3d5dFCc9CB926A5eb7D",
        "10000000000"
      ],
      "transaction": {
        "from": "0xcda2fdb452ff4f5d7ba1c3d5dfcc9cb926a5eb7d",
        "to": "0xc959483dba39aa9e78757139af0e9a2edeb3f42d",
        "gas": "0xf696",
        "value": "0x0",
        "input": "0xc6c3bbe6000000000000000000000000aa8e23fb1079ea71e0a56f48a2aa51851d8433d0000000000000000000000000cda2fdb452ff4f5d7ba1c3d5dfcc9cb926a5eb7d00000000000000000000000000000000000000000000000000000002540be400",
        "nonce": "0x7a",
        "chainId": "0xaa36a7"
      },
      "additionalContracts": [],
      "isFixedGasLimit": false
    },
    {
      "hash": "0x2079f91550377cde61ee902b509fc85c5aa2dcf2b0ee5ed684aebb2c01c61f23",
      "transactionType": "CALL",
      "contractName": null,
      "contractAddress": "0xc959483dba39aa9e78757139af0e9a2edeb3f42d",
      "function": "mint(address,address,uint256)",
      "arguments": [
        "0xaA8E23Fb1079EA71e0a56F48a2aA51851D8433D0",
        "0xcdA2fDB452FF4F5D7Ba1C3d5dFCc9CB926A5eb7D",
        "10000000000"
      ],
      "transaction": {
        "from": "0xcda2fdb452ff4f5d7ba1c3d5dfcc9cb926a5eb7d",
        "to": "0xc959483dba39aa9e78757139af0e9a2edeb3f42d",
        "gas": "0xf696",
        "value": "0x0",
        "input": "0xc6c3bbe6000000000000000000000000aa8e23fb1079ea71e0a56f48a2aa51851d8433d0000000000000000000000000cda2fdb452ff4f5d7ba1c3d5dfcc9cb926a5eb7d00000000000000000000000000000000000000000000000000000002540be400",
        "nonce": "0x7b",
        "chainId": "0xaa36a7"
      },
      "additionalContracts": [],
      "isFixedGasLimit": false
    },
    {
      "hash": "0x79b24df45736ad384048a75b84e78bc8002f3ac765861c8cd86ff948462a2f5d",
      "transactionType": "CALL",
      "contractName": null,
      "contractAddress": "0xc959483dba39aa9e78757139af0e9a2edeb3f42d",
      "function": "mint(address,address,uint256)",
      "arguments": [
        "0xaA8E23Fb1079EA71e0a56F48a2aA51851D8433D0",
        "0xcdA2fDB452FF4F5D7Ba1C3d5dFCc9CB926A5eb7D",
        "10000000000"
      ],
      "transaction": {
        "from": "0xcda2fdb452ff4f5d7ba1c3d5dfcc9cb926a5eb7d",
        "to": "0xc959483dba39aa9e78757139af0e9a2edeb3f42d",
        "gas": "0xf696",
        "value": "0x0",
        "input": "0xc6c3bbe6000000000000000000000000aa8e23fb1079ea71e0a56f48a2aa51851d8433d0000000000000000000000000cda2fdb452ff4f5d7ba1c3d5dfcc9cb926a5eb7d00000000000000000000000000000000000000000000000000000002540be400",
        "nonce": "0x7c",
        "chainId": "0xaa36a7"
      },
      "additionalContracts": [],
      "isFixedGasLimit": false
    },
    {
      "hash": "0x0ac5e09c7535384a6cd7172f95b817419af486ebbde26dd75b597d1b0ae6741b",
      "transactionType": "CALL",
      "contractName": null,
      "contractAddress": "0xc959483dba39aa9e78757139af0e9a2edeb3f42d",
      "function": "mint(address,address,uint256)",
      "arguments": [
        "0xaA8E23Fb1079EA71e0a56F48a2aA51851D8433D0",
        "0xcdA2fDB452FF4F5D7Ba1C3d5dFCc9CB926A5eb7D",
        "10000000000"
      ],
      "transaction": {
        "from": "0xcda2fdb452ff4f5d7ba1c3d5dfcc9cb926a5eb7d",
        "to": "0xc959483dba39aa9e78757139af0e9a2edeb3f42d",
        "gas": "0xf696",
        "value": "0x0",
        "input": "0xc6c3bbe6000000000000000000000000aa8e23fb1079ea71e0a56f48a2aa51851d8433d0000000000000000000000000cda2fdb452ff4f5d7ba1c3d5dfcc9cb926a5eb7d00000000000000000000000000000000000000000000000000000002540be400",
        "nonce": "0x7d",
        "chainId": "0xaa36a7"
      },
      "additionalContracts": [],
      "isFixedGasLimit": false
    },
    {
      "hash": "0xcafccbd03e3f2b701e9013470e016305bb2387fcf9b9052561fec5fab1a97f1f",
      "transactionType": "CALL",
      "contractName": null,
      "contractAddress": "0xc959483dba39aa9e78757139af0e9a2edeb3f42d",
      "function": "mint(address,address,uint256)",
      "arguments": [
        "0xaA8E23Fb1079EA71e0a56F48a2aA51851D8433D0",
        "0xcdA2fDB452FF4F5D7Ba1C3d5dFCc9CB926A5eb7D",
        "10000000000"
      ],
      "transaction": {
        "from": "0xcda2fdb452ff4f5d7ba1c3d5dfcc9cb926a5eb7d",
        "to": "0xc959483dba39aa9e78757139af0e9a2edeb3f42d",
        "gas": "0xf696",
        "value": "0x0",
        "input": "0xc6c3bbe6000000000000000000000000aa8e23fb1079ea71e0a56f48a2aa51851d8433d0000000000000000000000000cda2fdb452ff4f5d7ba1c3d5dfcc9cb926a5eb7d00000000000000000000000000000000000000000000000000000002540be400",
        "nonce": "0x7e",
        "chainId": "0xaa36a7"
      },
      "additionalContracts": [],
      "isFixedGasLimit": false
    },
    {
      "hash": "0x1d47c7cd70e7d2b0b5b8c0fd7c27d867d31f5c2e9f6151a3ceeb5a22e97b0ac6",
      "transactionType": "CALL",
      "contractName": null,
      "contractAddress": "0xc959483dba39aa9e78757139af0e9a2edeb3f42d",
      "function": "mint(address,address,uint256)",
      "arguments": [
        "0xaA8E23Fb1079EA71e0a56F48a2aA51851D8433D0",
        "0xcdA2fDB452FF4F5D7Ba1C3d5dFCc9CB926A5eb7D",
        "10000000000"
      ],
      "transaction": {
        "from": "0xcda2fdb452ff4f5d7ba1c3d5dfcc9cb926a5eb7d",
        "to": "0xc959483dba39aa9e78757139af0e9a2edeb3f42d",
        "gas": "0xf696",
        "value": "0x0",
        "input": "0xc6c3bbe6000000000000000000000000aa8e23fb1079ea71e0a56f48a2aa51851d8433d0000000000000000000000000cda2fdb452ff4f5d7ba1c3d5dfcc9cb926a5eb7d00000000000000000000000000000000000000000000000000000002540be400",
        "nonce": "0x7f",
        "chainId": "0xaa36a7"
      },
      "additionalContracts": [],
      "isFixedGasLimit": false
    },
    {
      "hash": "0x8a339dcf80fdc2933a1c24b8cc6417f23ba118d192f5fb87f8cd4c7f3caac12d",
      "transactionType": "CALL",
      "contractName": null,
      "contractAddress": "0xc959483dba39aa9e78757139af0e9a2edeb3f42d",
      "function": "mint(address,address,uint256)",
      "arguments": [
        "0xaA8E23Fb1079EA71e0a56F48a2aA51851D8433D0",
        "0xcdA2fDB452FF4F5D7Ba1C3d5dFCc9CB926A5eb7D",
        "10000000000"
      ],
      "transaction": {
        "from": "0xcda2fdb452ff4f5d7ba1c3d5dfcc9cb926a5eb7d",
        "to": "0xc959483dba39aa9e78757139af0e9a2edeb3f42d",
        "gas": "0xf696",
        "value": "0x0",
        "input": "0xc6c3bbe6000000000000000000000000aa8e23fb1079ea71e0a56f48a2aa51851d8433d0000000000000000000000000cda2fdb452ff4f5d7ba1c3d5dfcc9cb926a5eb7d00000000000000000000000000000000000000000000000000000002540be400",
        "nonce": "0x80",
        "chainId": "0xaa36a7"
      },
      "additionalContracts": [],
      "isFixedGasLimit": false
    },
    {
      "hash": "0x25b6f8ee7b93a4f434b460b6d94216de3bfb2c7701f93b03ae835780ef8e8302",
      "transactionType": "CALL",
      "contractName": null,
      "contractAddress": "0xc959483dba39aa9e78757139af0e9a2edeb3f42d",
      "function": "mint(address,address,uint256)",
      "arguments": [
        "0xaA8E23Fb1079EA71e0a56F48a2aA51851D8433D0",
        "0xcdA2fDB452FF4F5D7Ba1C3d5dFCc9CB926A5eb7D",
        "10000000000"
      ],
      "transaction": {
        "from": "0xcda2fdb452ff4f5d7ba1c3d5dfcc9cb926a5eb7d",
        "to": "0xc959483dba39aa9e78757139af0e9a2edeb3f42d",
        "gas": "0xf696",
        "value": "0x0",
        "input": "0xc6c3bbe6000000000000000000000000aa8e23fb1079ea71e0a56f48a2aa51851d8433d0000000000000000000000000cda2fdb452ff4f5d7ba1c3d5dfcc9cb926a5eb7d00000000000000000000000000000000000000000000000000000002540be400",
        "nonce": "0x81",
        "chainId": "0xaa36a7"
      },
      "additionalContracts": [],
      "isFixedGasLimit": false
    },
    {
      "hash": "0xd18fff3ca0febd5bd833424b3f2821291ebc7d788b6640303a313073ca774639",
      "transactionType": "CALL",
      "contractName": null,
      "contractAddress": "0xc959483dba39aa9e78757139af0e9a2edeb3f42d",
      "function": "mint(address,address,uint256)",
      "arguments": [
        "0xaA8E23Fb1079EA71e0a56F48a2aA51851D8433D0",
        "0xcdA2fDB452FF4F5D7Ba1C3d5dFCc9CB926A5eb7D",
        "10000000000"
      ],
      "transaction": {
        "from": "0xcda2fdb452ff4f5d7ba1c3d5dfcc9cb926a5eb7d",
        "to": "0xc959483dba39aa9e78757139af0e9a2edeb3f42d",
        "gas": "0xf696",
        "value": "0x0",
        "input": "0xc6c3bbe6000000000000000000000000aa8e23fb1079ea71e0a56f48a2aa51851d8433d0000000000000000000000000cda2fdb452ff4f5d7ba1c3d5dfcc9cb926a5eb7d00000000000000000000000000000000000000000000000000000002540be400",
        "nonce": "0x82",
        "chainId": "0xaa36a7"
      },
      "additionalContracts": [],
      "isFixedGasLimit": false
    },
    {
      "hash": "0xfbb7d299d35a4e80462e458ae18c5696413a70e7f329b8a4567ee076ce3d7000",
      "transactionType": "CALL",
      "contractName": null,
      "contractAddress": "0xc959483dba39aa9e78757139af0e9a2edeb3f42d",
      "function": "mint(address,address,uint256)",
      "arguments": [
        "0xaA8E23Fb1079EA71e0a56F48a2aA51851D8433D0",
        "0xcdA2fDB452FF4F5D7Ba1C3d5dFCc9CB926A5eb7D",
        "10000000000"
      ],
      "transaction": {
        "from": "0xcda2fdb452ff4f5d7ba1c3d5dfcc9cb926a5eb7d",
        "to": "0xc959483dba39aa9e78757139af0e9a2edeb3f42d",
        "gas": "0xf696",
        "value": "0x0",
        "input": "0xc6c3bbe6000000000000000000000000aa8e23fb1079ea71e0a56f48a2aa51851d8433d0000000000000000000000000cda2fdb452ff4f5d7ba1c3d5dfcc9cb926a5eb7d00000000000000000000000000000000000000000000000000000002540be400",
        "nonce": "0x83",
        "chainId": "0xaa36a7"
      },
      "additionalContracts": [],
      "isFixedGasLimit": false
    },
    {
      "hash": "0x4b0095a438ec9af8fb59b8829d94420e752755bab087dff8bdf17ffb1ea55452",
      "transactionType": "CALL",
      "contractName": null,
      "contractAddress": "0xc959483dba39aa9e78757139af0e9a2edeb3f42d",
      "function": "mint(address,address,uint256)",
      "arguments": [
        "0xaA8E23Fb1079EA71e0a56F48a2aA51851D8433D0",
        "0xcdA2fDB452FF4F5D7Ba1C3d5dFCc9CB926A5eb7D",
        "10000000000"
      ],
      "transaction": {
        "from": "0xcda2fdb452ff4f5d7ba1c3d5dfcc9cb926a5eb7d",
        "to": "0xc959483dba39aa9e78757139af0e9a2edeb3f42d",
        "gas": "0xf696",
        "value": "0x0",
        "input": "0xc6c3bbe6000000000000000000000000aa8e23fb1079ea71e0a56f48a2aa51851d8433d0000000000000000000000000cda2fdb452ff4f5d7ba1c3d5dfcc9cb926a5eb7d00000000000000000000000000000000000000000000000000000002540be400",
        "nonce": "0x84",
        "chainId": "0xaa36a7"
      },
      "additionalContracts": [],
      "isFixedGasLimit": false
    },
    {
      "hash": "0xda5fa449594a1e97cc55baefd1f920202f889da37a5d72ad3a93e16cc04267b3",
      "transactionType": "CALL",
      "contractName": null,
      "contractAddress": "0xc959483dba39aa9e78757139af0e9a2edeb3f42d",
      "function": "mint(address,address,uint256)",
      "arguments": [
        "0xaA8E23Fb1079EA71e0a56F48a2aA51851D8433D0",
        "0xcdA2fDB452FF4F5D7Ba1C3d5dFCc9CB926A5eb7D",
        "10000000000"
      ],
      "transaction": {
        "from": "0xcda2fdb452ff4f5d7ba1c3d5dfcc9cb926a5eb7d",
        "to": "0xc959483dba39aa9e78757139af0e9a2edeb3f42d",
        "gas": "0xf696",
        "value": "0x0",
        "input": "0xc6c3bbe6000000000000000000000000aa8e23fb1079ea71e0a56f48a2aa51851d8433d0000000000000000000000000cda2fdb452ff4f5d7ba1c3d5dfcc9cb926a5eb7d00000000000000000000000000000000000000000000000000000002540be400",
        "nonce": "0x85",
        "chainId": "0xaa36a7"
      },
      "additionalContracts": [],
      "isFixedGasLimit": false
    },
    {
      "hash": "0xcc1fb41b5c3d732c69f52852056605b6ec35490a04c4e764767c2950d6cfee03",
      "transactionType": "CALL",
      "contractName": null,
      "contractAddress": "0xc959483dba39aa9e78757139af0e9a2edeb3f42d",
      "function": "mint(address,address,uint256)",
      "arguments": [
        "0xaA8E23Fb1079EA71e0a56F48a2aA51851D8433D0",
        "0xcdA2fDB452FF4F5D7Ba1C3d5dFCc9CB926A5eb7D",
        "10000000000"
      ],
      "transaction": {
        "from": "0xcda2fdb452ff4f5d7ba1c3d5dfcc9cb926a5eb7d",
        "to": "0xc959483dba39aa9e78757139af0e9a2edeb3f42d",
        "gas": "0xf696",
        "value": "0x0",
        "input": "0xc6c3bbe6000000000000000000000000aa8e23fb1079ea71e0a56f48a2aa51851d8433d0000000000000000000000000cda2fdb452ff4f5d7ba1c3d5dfcc9cb926a5eb7d00000000000000000000000000000000000000000000000000000002540be400",
        "nonce": "0x86",
        "chainId": "0xaa36a7"
      },
      "additionalContracts": [],
      "isFixedGasLimit": false
    },
    {
      "hash": "0x25ff3d534beaa5401b1f63ccf8798082e50436d180c5132643462f01350b0a72",
      "transactionType": "CALL",
      "contractName": null,
      "contractAddress": "0xc959483dba39aa9e78757139af0e9a2edeb3f42d",
      "function": "mint(address,address,uint256)",
      "arguments": [
        "0xaA8E23Fb1079EA71e0a56F48a2aA51851D8433D0",
        "0xcdA2fDB452FF4F5D7Ba1C3d5dFCc9CB926A5eb7D",
        "10000000000"
      ],
      "transaction": {
        "from": "0xcda2fdb452ff4f5d7ba1c3d5dfcc9cb926a5eb7d",
        "to": "0xc959483dba39aa9e78757139af0e9a2edeb3f42d",
        "gas": "0xf696",
        "value": "0x0",
        "input": "0xc6c3bbe6000000000000000000000000aa8e23fb1079ea71e0a56f48a2aa51851d8433d0000000000000000000000000cda2fdb452ff4f5d7ba1c3d5dfcc9cb926a5eb7d00000000000000000000000000000000000000000000000000000002540be400",
        "nonce": "0x87",
        "chainId": "0xaa36a7"
      },
      "additionalContracts": [],
      "isFixedGasLimit": false
    },
    {
      "hash": "0x8abe2882f1f112aae14c3a3f4e8bece86dcdab8c47640024312beb5a516d48ac",
      "transactionType": "CALL",
      "contractName": null,
      "contractAddress": "0xc959483dba39aa9e78757139af0e9a2edeb3f42d",
      "function": "mint(address,address,uint256)",
      "arguments": [
        "0xaA8E23Fb1079EA71e0a56F48a2aA51851D8433D0",
        "0xcdA2fDB452FF4F5D7Ba1C3d5dFCc9CB926A5eb7D",
        "10000000000"
      ],
      "transaction": {
        "from": "0xcda2fdb452ff4f5d7ba1c3d5dfcc9cb926a5eb7d",
        "to": "0xc959483dba39aa9e78757139af0e9a2edeb3f42d",
        "gas": "0xf696",
        "value": "0x0",
        "input": "0xc6c3bbe6000000000000000000000000aa8e23fb1079ea71e0a56f48a2aa51851d8433d0000000000000000000000000cda2fdb452ff4f5d7ba1c3d5dfcc9cb926a5eb7d00000000000000000000000000000000000000000000000000000002540be400",
        "nonce": "0x88",
        "chainId": "0xaa36a7"
      },
      "additionalContracts": [],
      "isFixedGasLimit": false
    },
    {
      "hash": "0xe59aa589248d8a9d4d9ded53688be8198cd8068bb41d76f315812ce4f2313545",
      "transactionType": "CALL",
      "contractName": null,
      "contractAddress": "0xc959483dba39aa9e78757139af0e9a2edeb3f42d",
      "function": "mint(address,address,uint256)",
      "arguments": [
        "0xaA8E23Fb1079EA71e0a56F48a2aA51851D8433D0",
        "0xcdA2fDB452FF4F5D7Ba1C3d5dFCc9CB926A5eb7D",
        "10000000000"
      ],
      "transaction": {
        "from": "0xcda2fdb452ff4f5d7ba1c3d5dfcc9cb926a5eb7d",
        "to": "0xc959483dba39aa9e78757139af0e9a2edeb3f42d",
        "gas": "0xf696",
        "value": "0x0",
        "input": "0xc6c3bbe6000000000000000000000000aa8e23fb1079ea71e0a56f48a2aa51851d8433d0000000000000000000000000cda2fdb452ff4f5d7ba1c3d5dfcc9cb926a5eb7d00000000000000000000000000000000000000000000000000000002540be400",
        "nonce": "0x89",
        "chainId": "0xaa36a7"
      },
      "additionalContracts": [],
      "isFixedGasLimit": false
    },
    {
      "hash": "0x7e2c2c0ec512a80695ab5feae0ed222751476c0b7fdb2f8c90d59c1bfb3aa3d7",
      "transactionType": "CALL",
      "contractName": null,
      "contractAddress": "0xc959483dba39aa9e78757139af0e9a2edeb3f42d",
      "function": "mint(address,address,uint256)",
      "arguments": [
        "0xaA8E23Fb1079EA71e0a56F48a2aA51851D8433D0",
        "0xcdA2fDB452FF4F5D7Ba1C3d5dFCc9CB926A5eb7D",
        "10000000000"
      ],
      "transaction": {
        "from": "0xcda2fdb452ff4f5d7ba1c3d5dfcc9cb926a5eb7d",
        "to": "0xc959483dba39aa9e78757139af0e9a2edeb3f42d",
        "gas": "0xf696",
        "value": "0x0",
        "input": "0xc6c3bbe6000000000000000000000000aa8e23fb1079ea71e0a56f48a2aa51851d8433d0000000000000000000000000cda2fdb452ff4f5d7ba1c3d5dfcc9cb926a5eb7d00000000000000000000000000000000000000000000000000000002540be400",
        "nonce": "0x8a",
        "chainId": "0xaa36a7"
      },
      "additionalContracts": [],
      "isFixedGasLimit": false
    },
    {
      "hash": "0xe4052f215015c050f76d720afe3f1c09ebc48d82d88c566935e23232b9de1d97",
      "transactionType": "CALL",
      "contractName": null,
      "contractAddress": "0xc959483dba39aa9e78757139af0e9a2edeb3f42d",
      "function": "mint(address,address,uint256)",
      "arguments": [
        "0xaA8E23Fb1079EA71e0a56F48a2aA51851D8433D0",
        "0xcdA2fDB452FF4F5D7Ba1C3d5dFCc9CB926A5eb7D",
        "10000000000"
      ],
      "transaction": {
        "from": "0xcda2fdb452ff4f5d7ba1c3d5dfcc9cb926a5eb7d",
        "to": "0xc959483dba39aa9e78757139af0e9a2edeb3f42d",
        "gas": "0xf696",
        "value": "0x0",
        "input": "0xc6c3bbe6000000000000000000000000aa8e23fb1079ea71e0a56f48a2aa51851d8433d0000000000000000000000000cda2fdb452ff4f5d7ba1c3d5dfcc9cb926a5eb7d00000000000000000000000000000000000000000000000000000002540be400",
        "nonce": "0x8b",
        "chainId": "0xaa36a7"
      },
      "additionalContracts": [],
      "isFixedGasLimit": false
    },
    {
      "hash": "0x0244e76dd75facd43fa5b21158d470fed17606991d8f1fb18c154c2567478b67",
      "transactionType": "CALL",
      "contractName": null,
      "contractAddress": "0xc959483dba39aa9e78757139af0e9a2edeb3f42d",
      "function": "mint(address,address,uint256)",
      "arguments": [
        "0xaA8E23Fb1079EA71e0a56F48a2aA51851D8433D0",
        "0xcdA2fDB452FF4F5D7Ba1C3d5dFCc9CB926A5eb7D",
        "10000000000"
      ],
      "transaction": {
        "from": "0xcda2fdb452ff4f5d7ba1c3d5dfcc9cb926a5eb7d",
        "to": "0xc959483dba39aa9e78757139af0e9a2edeb3f42d",
        "gas": "0xf696",
        "value": "0x0",
        "input": "0xc6c3bbe6000000000000000000000000aa8e23fb1079ea71e0a56f48a2aa51851d8433d0000000000000000000000000cda2fdb452ff4f5d7ba1c3d5dfcc9cb926a5eb7d00000000000000000000000000000000000000000000000000000002540be400",
        "nonce": "0x8c",
        "chainId": "0xaa36a7"
      },
      "additionalContracts": [],
      "isFixedGasLimit": false
    },
    {
      "hash": "0x13f5cf1a3c4210565363ffb8fa03e893c56cc9d542bad14e4441449b00f2b7df",
      "transactionType": "CALL",
      "contractName": null,
      "contractAddress": "0xc959483dba39aa9e78757139af0e9a2edeb3f42d",
      "function": "mint(address,address,uint256)",
      "arguments": [
        "0xaA8E23Fb1079EA71e0a56F48a2aA51851D8433D0",
        "0xcdA2fDB452FF4F5D7Ba1C3d5dFCc9CB926A5eb7D",
        "10000000000"
      ],
      "transaction": {
        "from": "0xcda2fdb452ff4f5d7ba1c3d5dfcc9cb926a5eb7d",
        "to": "0xc959483dba39aa9e78757139af0e9a2edeb3f42d",
        "gas": "0xf696",
        "value": "0x0",
        "input": "0xc6c3bbe6000000000000000000000000aa8e23fb1079ea71e0a56f48a2aa51851d8433d0000000000000000000000000cda2fdb452ff4f5d7ba1c3d5dfcc9cb926a5eb7d00000000000000000000000000000000000000000000000000000002540be400",
        "nonce": "0x8d",
        "chainId": "0xaa36a7"
      },
      "additionalContracts": [],
      "isFixedGasLimit": false
    },
    {
      "hash": "0xc139a0986c995db070c88322a0654c7cc8f33d1448418d66c181c2af40959deb",
      "transactionType": "CALL",
      "contractName": null,
      "contractAddress": "0xc959483dba39aa9e78757139af0e9a2edeb3f42d",
      "function": "mint(address,address,uint256)",
      "arguments": [
        "0xaA8E23Fb1079EA71e0a56F48a2aA51851D8433D0",
        "0xcdA2fDB452FF4F5D7Ba1C3d5dFCc9CB926A5eb7D",
        "10000000000"
      ],
      "transaction": {
        "from": "0xcda2fdb452ff4f5d7ba1c3d5dfcc9cb926a5eb7d",
        "to": "0xc959483dba39aa9e78757139af0e9a2edeb3f42d",
        "gas": "0xf696",
        "value": "0x0",
        "input": "0xc6c3bbe6000000000000000000000000aa8e23fb1079ea71e0a56f48a2aa51851d8433d0000000000000000000000000cda2fdb452ff4f5d7ba1c3d5dfcc9cb926a5eb7d00000000000000000000000000000000000000000000000000000002540be400",
        "nonce": "0x8e",
        "chainId": "0xaa36a7"
      },
      "additionalContracts": [],
      "isFixedGasLimit": false
    }
  ],
  "receipts": [
    {
      "status": "0x1",
      "cumulativeGasUsed": "0xe0055f",
      "logs": [
        {
          "address": "0xaa8e23fb1079ea71e0a56f48a2aa51851d8433d0",
          "topics": [
            "0xddf252ad1be2c89b69c2b068fc378daa952ba7f163c4a11628f55a4df523b3ef",
            "0x0000000000000000000000000000000000000000000000000000000000000000",
            "0x000000000000000000000000cda2fdb452ff4f5d7ba1c3d5dfcc9cb926a5eb7d"
          ],
          "data": "0x00000000000000000000000000000000000000000000000000000002540be400",
          "blockHash": "0xf6d4555de33988e409fec4a5a669e3532621c37cd4cd7995fe0be3f0c2b628f3",
          "blockNumber": "0x740048",
          "transactionHash": "0x7527958fa960d7c5df022add10c5d664b39ffb9a8817a89154fd7e2fe8ac3d46",
          "transactionIndex": "0x69",
          "logIndex": "0xbe",
          "removed": false
        }
      ],
      "logsBloom": "0x00000000000000000000000000000000000000000000000000000000000000000000000000000000000000000000002000000000000000000000000000000000000000000000000000000008040000000000000000000000000000000000000004000000020000000000000000000800000000000000800000000010000000000000000000000000004000000000000000000000000000000000000000000000000000000000000000000000000000000000000000004000000000000000000000000002000000000000000000000000000000000000000000000000000020000000000000000000000000000000000000000000000000000000000000000000",
      "type": "0x2",
      "transactionHash": "0x7527958fa960d7c5df022add10c5d664b39ffb9a8817a89154fd7e2fe8ac3d46",
      "transactionIndex": "0x69",
      "blockHash": "0xf6d4555de33988e409fec4a5a669e3532621c37cd4cd7995fe0be3f0c2b628f3",
      "blockNumber": "0x740048",
      "gasUsed": "0xb287",
      "effectiveGasPrice": "0x662d2e3c",
      "from": "0xcda2fdb452ff4f5d7ba1c3d5dfcc9cb926a5eb7d",
      "to": "0xc959483dba39aa9e78757139af0e9a2edeb3f42d",
      "contractAddress": null
    },
    {
      "status": "0x1",
      "cumulativeGasUsed": "0x107816e",
      "logs": [
        {
          "address": "0xaa8e23fb1079ea71e0a56f48a2aa51851d8433d0",
          "topics": [
            "0xddf252ad1be2c89b69c2b068fc378daa952ba7f163c4a11628f55a4df523b3ef",
            "0x0000000000000000000000000000000000000000000000000000000000000000",
            "0x000000000000000000000000cda2fdb452ff4f5d7ba1c3d5dfcc9cb926a5eb7d"
          ],
          "data": "0x00000000000000000000000000000000000000000000000000000002540be400",
          "blockHash": "0xf6d4555de33988e409fec4a5a669e3532621c37cd4cd7995fe0be3f0c2b628f3",
          "blockNumber": "0x740048",
          "transactionHash": "0x3b36a3cb7970f94090401500cda3fabd6d2a66f419c52d2c31e4fdeee2a79891",
          "transactionIndex": "0x6b",
          "logIndex": "0xc0",
          "removed": false
        }
      ],
      "logsBloom": "0x00000000000000000000000000000000000000000000000000000000000000000000000000000000000000000000002000000000000000000000000000000000000000000000000000000008040000000000000000000000000000000000000004000000020000000000000000000800000000000000800000000010000000000000000000000000004000000000000000000000000000000000000000000000000000000000000000000000000000000000000000004000000000000000000000000002000000000000000000000000000000000000000000000000000020000000000000000000000000000000000000000000000000000000000000000000",
      "type": "0x2",
      "transactionHash": "0x3b36a3cb7970f94090401500cda3fabd6d2a66f419c52d2c31e4fdeee2a79891",
      "transactionIndex": "0x6b",
      "blockHash": "0xf6d4555de33988e409fec4a5a669e3532621c37cd4cd7995fe0be3f0c2b628f3",
      "blockNumber": "0x740048",
      "gasUsed": "0xb287",
      "effectiveGasPrice": "0x662d2e3c",
      "from": "0xcda2fdb452ff4f5d7ba1c3d5dfcc9cb926a5eb7d",
      "to": "0xc959483dba39aa9e78757139af0e9a2edeb3f42d",
      "contractAddress": null
    },
    {
      "status": "0x1",
      "cumulativeGasUsed": "0x10833f5",
      "logs": [
        {
          "address": "0xaa8e23fb1079ea71e0a56f48a2aa51851d8433d0",
          "topics": [
            "0xddf252ad1be2c89b69c2b068fc378daa952ba7f163c4a11628f55a4df523b3ef",
            "0x0000000000000000000000000000000000000000000000000000000000000000",
            "0x000000000000000000000000cda2fdb452ff4f5d7ba1c3d5dfcc9cb926a5eb7d"
          ],
          "data": "0x00000000000000000000000000000000000000000000000000000002540be400",
          "blockHash": "0xf6d4555de33988e409fec4a5a669e3532621c37cd4cd7995fe0be3f0c2b628f3",
          "blockNumber": "0x740048",
          "transactionHash": "0x0855187c3ae344fd229d196bcd9e3f1be6d481fface911ae8dedd7a30350b0e6",
          "transactionIndex": "0x6c",
          "logIndex": "0xc1",
          "removed": false
        }
      ],
      "logsBloom": "0x00000000000000000000000000000000000000000000000000000000000000000000000000000000000000000000002000000000000000000000000000000000000000000000000000000008040000000000000000000000000000000000000004000000020000000000000000000800000000000000800000000010000000000000000000000000004000000000000000000000000000000000000000000000000000000000000000000000000000000000000000004000000000000000000000000002000000000000000000000000000000000000000000000000000020000000000000000000000000000000000000000000000000000000000000000000",
      "type": "0x2",
      "transactionHash": "0x0855187c3ae344fd229d196bcd9e3f1be6d481fface911ae8dedd7a30350b0e6",
      "transactionIndex": "0x6c",
      "blockHash": "0xf6d4555de33988e409fec4a5a669e3532621c37cd4cd7995fe0be3f0c2b628f3",
      "blockNumber": "0x740048",
      "gasUsed": "0xb287",
      "effectiveGasPrice": "0x662d2e3c",
      "from": "0xcda2fdb452ff4f5d7ba1c3d5dfcc9cb926a5eb7d",
      "to": "0xc959483dba39aa9e78757139af0e9a2edeb3f42d",
      "contractAddress": null
    },
    {
      "status": "0x1",
      "cumulativeGasUsed": "0x108e67c",
      "logs": [
        {
          "address": "0xaa8e23fb1079ea71e0a56f48a2aa51851d8433d0",
          "topics": [
            "0xddf252ad1be2c89b69c2b068fc378daa952ba7f163c4a11628f55a4df523b3ef",
            "0x0000000000000000000000000000000000000000000000000000000000000000",
            "0x000000000000000000000000cda2fdb452ff4f5d7ba1c3d5dfcc9cb926a5eb7d"
          ],
          "data": "0x00000000000000000000000000000000000000000000000000000002540be400",
          "blockHash": "0xf6d4555de33988e409fec4a5a669e3532621c37cd4cd7995fe0be3f0c2b628f3",
          "blockNumber": "0x740048",
          "transactionHash": "0x2bc1574520344587fa5372f3b7c43e1aae17feff0b241c97e0a7bc2d0c02086a",
          "transactionIndex": "0x6d",
          "logIndex": "0xc2",
          "removed": false
        }
      ],
      "logsBloom": "0x00000000000000000000000000000000000000000000000000000000000000000000000000000000000000000000002000000000000000000000000000000000000000000000000000000008040000000000000000000000000000000000000004000000020000000000000000000800000000000000800000000010000000000000000000000000004000000000000000000000000000000000000000000000000000000000000000000000000000000000000000004000000000000000000000000002000000000000000000000000000000000000000000000000000020000000000000000000000000000000000000000000000000000000000000000000",
      "type": "0x2",
      "transactionHash": "0x2bc1574520344587fa5372f3b7c43e1aae17feff0b241c97e0a7bc2d0c02086a",
      "transactionIndex": "0x6d",
      "blockHash": "0xf6d4555de33988e409fec4a5a669e3532621c37cd4cd7995fe0be3f0c2b628f3",
      "blockNumber": "0x740048",
      "gasUsed": "0xb287",
      "effectiveGasPrice": "0x662d2e3c",
      "from": "0xcda2fdb452ff4f5d7ba1c3d5dfcc9cb926a5eb7d",
      "to": "0xc959483dba39aa9e78757139af0e9a2edeb3f42d",
      "contractAddress": null
    },
    {
      "status": "0x1",
      "cumulativeGasUsed": "0x1099903",
      "logs": [
        {
          "address": "0xaa8e23fb1079ea71e0a56f48a2aa51851d8433d0",
          "topics": [
            "0xddf252ad1be2c89b69c2b068fc378daa952ba7f163c4a11628f55a4df523b3ef",
            "0x0000000000000000000000000000000000000000000000000000000000000000",
            "0x000000000000000000000000cda2fdb452ff4f5d7ba1c3d5dfcc9cb926a5eb7d"
          ],
          "data": "0x00000000000000000000000000000000000000000000000000000002540be400",
          "blockHash": "0xf6d4555de33988e409fec4a5a669e3532621c37cd4cd7995fe0be3f0c2b628f3",
          "blockNumber": "0x740048",
          "transactionHash": "0x97908b149cc697c11ff9913fb193643b7ebfb01d6879d65e11883abe6faeae69",
          "transactionIndex": "0x6e",
          "logIndex": "0xc3",
          "removed": false
        }
      ],
      "logsBloom": "0x00000000000000000000000000000000000000000000000000000000000000000000000000000000000000000000002000000000000000000000000000000000000000000000000000000008040000000000000000000000000000000000000004000000020000000000000000000800000000000000800000000010000000000000000000000000004000000000000000000000000000000000000000000000000000000000000000000000000000000000000000004000000000000000000000000002000000000000000000000000000000000000000000000000000020000000000000000000000000000000000000000000000000000000000000000000",
      "type": "0x2",
      "transactionHash": "0x97908b149cc697c11ff9913fb193643b7ebfb01d6879d65e11883abe6faeae69",
      "transactionIndex": "0x6e",
      "blockHash": "0xf6d4555de33988e409fec4a5a669e3532621c37cd4cd7995fe0be3f0c2b628f3",
      "blockNumber": "0x740048",
      "gasUsed": "0xb287",
      "effectiveGasPrice": "0x662d2e3c",
      "from": "0xcda2fdb452ff4f5d7ba1c3d5dfcc9cb926a5eb7d",
      "to": "0xc959483dba39aa9e78757139af0e9a2edeb3f42d",
      "contractAddress": null
    },
    {
      "status": "0x1",
      "cumulativeGasUsed": "0x10a4b8a",
      "logs": [
        {
          "address": "0xaa8e23fb1079ea71e0a56f48a2aa51851d8433d0",
          "topics": [
            "0xddf252ad1be2c89b69c2b068fc378daa952ba7f163c4a11628f55a4df523b3ef",
            "0x0000000000000000000000000000000000000000000000000000000000000000",
            "0x000000000000000000000000cda2fdb452ff4f5d7ba1c3d5dfcc9cb926a5eb7d"
          ],
          "data": "0x00000000000000000000000000000000000000000000000000000002540be400",
          "blockHash": "0xf6d4555de33988e409fec4a5a669e3532621c37cd4cd7995fe0be3f0c2b628f3",
          "blockNumber": "0x740048",
          "transactionHash": "0x00afe3fce8d736d492fd07062420a035ed6338c95373a5ca593dd24a857a201f",
          "transactionIndex": "0x6f",
          "logIndex": "0xc4",
          "removed": false
        }
      ],
      "logsBloom": "0x00000000000000000000000000000000000000000000000000000000000000000000000000000000000000000000002000000000000000000000000000000000000000000000000000000008040000000000000000000000000000000000000004000000020000000000000000000800000000000000800000000010000000000000000000000000004000000000000000000000000000000000000000000000000000000000000000000000000000000000000000004000000000000000000000000002000000000000000000000000000000000000000000000000000020000000000000000000000000000000000000000000000000000000000000000000",
      "type": "0x2",
      "transactionHash": "0x00afe3fce8d736d492fd07062420a035ed6338c95373a5ca593dd24a857a201f",
      "transactionIndex": "0x6f",
      "blockHash": "0xf6d4555de33988e409fec4a5a669e3532621c37cd4cd7995fe0be3f0c2b628f3",
      "blockNumber": "0x740048",
      "gasUsed": "0xb287",
      "effectiveGasPrice": "0x662d2e3c",
      "from": "0xcda2fdb452ff4f5d7ba1c3d5dfcc9cb926a5eb7d",
      "to": "0xc959483dba39aa9e78757139af0e9a2edeb3f42d",
      "contractAddress": null
    },
    {
      "status": "0x1",
      "cumulativeGasUsed": "0x10ba221",
      "logs": [
        {
          "address": "0xaa8e23fb1079ea71e0a56f48a2aa51851d8433d0",
          "topics": [
            "0xddf252ad1be2c89b69c2b068fc378daa952ba7f163c4a11628f55a4df523b3ef",
            "0x0000000000000000000000000000000000000000000000000000000000000000",
            "0x000000000000000000000000cda2fdb452ff4f5d7ba1c3d5dfcc9cb926a5eb7d"
          ],
          "data": "0x00000000000000000000000000000000000000000000000000000002540be400",
          "blockHash": "0xf6d4555de33988e409fec4a5a669e3532621c37cd4cd7995fe0be3f0c2b628f3",
          "blockNumber": "0x740048",
          "transactionHash": "0xfc6c34349f5d74fb1093f10ca4b927d16d2847b162a73e1d0fbdfcb1f298ddf4",
          "transactionIndex": "0x72",
          "logIndex": "0xc5",
          "removed": false
        }
      ],
      "logsBloom": "0x00000000000000000000000000000000000000000000000000000000000000000000000000000000000000000000002000000000000000000000000000000000000000000000000000000008040000000000000000000000000000000000000004000000020000000000000000000800000000000000800000000010000000000000000000000000004000000000000000000000000000000000000000000000000000000000000000000000000000000000000000004000000000000000000000000002000000000000000000000000000000000000000000000000000020000000000000000000000000000000000000000000000000000000000000000000",
      "type": "0x2",
      "transactionHash": "0xfc6c34349f5d74fb1093f10ca4b927d16d2847b162a73e1d0fbdfcb1f298ddf4",
      "transactionIndex": "0x72",
      "blockHash": "0xf6d4555de33988e409fec4a5a669e3532621c37cd4cd7995fe0be3f0c2b628f3",
      "blockNumber": "0x740048",
      "gasUsed": "0xb287",
      "effectiveGasPrice": "0x662d2e3c",
      "from": "0xcda2fdb452ff4f5d7ba1c3d5dfcc9cb926a5eb7d",
      "to": "0xc959483dba39aa9e78757139af0e9a2edeb3f42d",
      "contractAddress": null
    },
    {
      "status": "0x1",
      "cumulativeGasUsed": "0x10c54a8",
      "logs": [
        {
          "address": "0xaa8e23fb1079ea71e0a56f48a2aa51851d8433d0",
          "topics": [
            "0xddf252ad1be2c89b69c2b068fc378daa952ba7f163c4a11628f55a4df523b3ef",
            "0x0000000000000000000000000000000000000000000000000000000000000000",
            "0x000000000000000000000000cda2fdb452ff4f5d7ba1c3d5dfcc9cb926a5eb7d"
          ],
          "data": "0x00000000000000000000000000000000000000000000000000000002540be400",
          "blockHash": "0xf6d4555de33988e409fec4a5a669e3532621c37cd4cd7995fe0be3f0c2b628f3",
          "blockNumber": "0x740048",
          "transactionHash": "0x9a217c7c06c2da1c7034aa949704060bd3f0aea23cd8dc68b9eec22c5d105462",
          "transactionIndex": "0x73",
          "logIndex": "0xc6",
          "removed": false
        }
      ],
      "logsBloom": "0x00000000000000000000000000000000000000000000000000000000000000000000000000000000000000000000002000000000000000000000000000000000000000000000000000000008040000000000000000000000000000000000000004000000020000000000000000000800000000000000800000000010000000000000000000000000004000000000000000000000000000000000000000000000000000000000000000000000000000000000000000004000000000000000000000000002000000000000000000000000000000000000000000000000000020000000000000000000000000000000000000000000000000000000000000000000",
      "type": "0x2",
      "transactionHash": "0x9a217c7c06c2da1c7034aa949704060bd3f0aea23cd8dc68b9eec22c5d105462",
      "transactionIndex": "0x73",
      "blockHash": "0xf6d4555de33988e409fec4a5a669e3532621c37cd4cd7995fe0be3f0c2b628f3",
      "blockNumber": "0x740048",
      "gasUsed": "0xb287",
      "effectiveGasPrice": "0x662d2e3c",
      "from": "0xcda2fdb452ff4f5d7ba1c3d5dfcc9cb926a5eb7d",
      "to": "0xc959483dba39aa9e78757139af0e9a2edeb3f42d",
      "contractAddress": null
    },
    {
      "status": "0x1",
      "cumulativeGasUsed": "0x10d072f",
      "logs": [
        {
          "address": "0xaa8e23fb1079ea71e0a56f48a2aa51851d8433d0",
          "topics": [
            "0xddf252ad1be2c89b69c2b068fc378daa952ba7f163c4a11628f55a4df523b3ef",
            "0x0000000000000000000000000000000000000000000000000000000000000000",
            "0x000000000000000000000000cda2fdb452ff4f5d7ba1c3d5dfcc9cb926a5eb7d"
          ],
          "data": "0x00000000000000000000000000000000000000000000000000000002540be400",
          "blockHash": "0xf6d4555de33988e409fec4a5a669e3532621c37cd4cd7995fe0be3f0c2b628f3",
          "blockNumber": "0x740048",
          "transactionHash": "0xbe85c2f900e5eb122deae455f9f3bf099671ff7d4881cd12be2820fcd7caae16",
          "transactionIndex": "0x74",
          "logIndex": "0xc7",
          "removed": false
        }
      ],
      "logsBloom": "0x00000000000000000000000000000000000000000000000000000000000000000000000000000000000000000000002000000000000000000000000000000000000000000000000000000008040000000000000000000000000000000000000004000000020000000000000000000800000000000000800000000010000000000000000000000000004000000000000000000000000000000000000000000000000000000000000000000000000000000000000000004000000000000000000000000002000000000000000000000000000000000000000000000000000020000000000000000000000000000000000000000000000000000000000000000000",
      "type": "0x2",
      "transactionHash": "0xbe85c2f900e5eb122deae455f9f3bf099671ff7d4881cd12be2820fcd7caae16",
      "transactionIndex": "0x74",
      "blockHash": "0xf6d4555de33988e409fec4a5a669e3532621c37cd4cd7995fe0be3f0c2b628f3",
      "blockNumber": "0x740048",
      "gasUsed": "0xb287",
      "effectiveGasPrice": "0x662d2e3c",
      "from": "0xcda2fdb452ff4f5d7ba1c3d5dfcc9cb926a5eb7d",
      "to": "0xc959483dba39aa9e78757139af0e9a2edeb3f42d",
      "contractAddress": null
    },
    {
      "status": "0x1",
      "cumulativeGasUsed": "0x10e0bbe",
      "logs": [
        {
          "address": "0xaa8e23fb1079ea71e0a56f48a2aa51851d8433d0",
          "topics": [
            "0xddf252ad1be2c89b69c2b068fc378daa952ba7f163c4a11628f55a4df523b3ef",
            "0x0000000000000000000000000000000000000000000000000000000000000000",
            "0x000000000000000000000000cda2fdb452ff4f5d7ba1c3d5dfcc9cb926a5eb7d"
          ],
          "data": "0x00000000000000000000000000000000000000000000000000000002540be400",
          "blockHash": "0xf6d4555de33988e409fec4a5a669e3532621c37cd4cd7995fe0be3f0c2b628f3",
          "blockNumber": "0x740048",
          "transactionHash": "0x84c8c78ca41e34304ed2611a2e7ca2333ecb6032bf161953d52189ca1299adf5",
          "transactionIndex": "0x76",
          "logIndex": "0xc8",
          "removed": false
        }
      ],
      "logsBloom": "0x00000000000000000000000000000000000000000000000000000000000000000000000000000000000000000000002000000000000000000000000000000000000000000000000000000008040000000000000000000000000000000000000004000000020000000000000000000800000000000000800000000010000000000000000000000000004000000000000000000000000000000000000000000000000000000000000000000000000000000000000000004000000000000000000000000002000000000000000000000000000000000000000000000000000020000000000000000000000000000000000000000000000000000000000000000000",
      "type": "0x2",
      "transactionHash": "0x84c8c78ca41e34304ed2611a2e7ca2333ecb6032bf161953d52189ca1299adf5",
      "transactionIndex": "0x76",
      "blockHash": "0xf6d4555de33988e409fec4a5a669e3532621c37cd4cd7995fe0be3f0c2b628f3",
      "blockNumber": "0x740048",
      "gasUsed": "0xb287",
      "effectiveGasPrice": "0x662d2e3c",
      "from": "0xcda2fdb452ff4f5d7ba1c3d5dfcc9cb926a5eb7d",
      "to": "0xc959483dba39aa9e78757139af0e9a2edeb3f42d",
      "contractAddress": null
    },
    {
      "status": "0x1",
      "cumulativeGasUsed": "0x10f3096",
      "logs": [
        {
          "address": "0xaa8e23fb1079ea71e0a56f48a2aa51851d8433d0",
          "topics": [
            "0xddf252ad1be2c89b69c2b068fc378daa952ba7f163c4a11628f55a4df523b3ef",
            "0x0000000000000000000000000000000000000000000000000000000000000000",
            "0x000000000000000000000000cda2fdb452ff4f5d7ba1c3d5dfcc9cb926a5eb7d"
          ],
          "data": "0x00000000000000000000000000000000000000000000000000000002540be400",
          "blockHash": "0xf6d4555de33988e409fec4a5a669e3532621c37cd4cd7995fe0be3f0c2b628f3",
          "blockNumber": "0x740048",
          "transactionHash": "0x9499c972107fd3b4c37bc37f59c5e3e43d42bf963bf7178d8bd0bfdf3304aee2",
          "transactionIndex": "0x78",
          "logIndex": "0xca",
          "removed": false
        }
      ],
      "logsBloom": "0x00000000000000000000000000000000000000000000000000000000000000000000000000000000000000000000002000000000000000000000000000000000000000000000000000000008040000000000000000000000000000000000000004000000020000000000000000000800000000000000800000000010000000000000000000000000004000000000000000000000000000000000000000000000000000000000000000000000000000000000000000004000000000000000000000000002000000000000000000000000000000000000000000000000000020000000000000000000000000000000000000000000000000000000000000000000",
      "type": "0x2",
      "transactionHash": "0x9499c972107fd3b4c37bc37f59c5e3e43d42bf963bf7178d8bd0bfdf3304aee2",
      "transactionIndex": "0x78",
      "blockHash": "0xf6d4555de33988e409fec4a5a669e3532621c37cd4cd7995fe0be3f0c2b628f3",
      "blockNumber": "0x740048",
      "gasUsed": "0xb287",
      "effectiveGasPrice": "0x662d2e3c",
      "from": "0xcda2fdb452ff4f5d7ba1c3d5dfcc9cb926a5eb7d",
      "to": "0xc959483dba39aa9e78757139af0e9a2edeb3f42d",
      "contractAddress": null
    },
    {
      "status": "0x1",
      "cumulativeGasUsed": "0x110556e",
      "logs": [
        {
          "address": "0xaa8e23fb1079ea71e0a56f48a2aa51851d8433d0",
          "topics": [
            "0xddf252ad1be2c89b69c2b068fc378daa952ba7f163c4a11628f55a4df523b3ef",
            "0x0000000000000000000000000000000000000000000000000000000000000000",
            "0x000000000000000000000000cda2fdb452ff4f5d7ba1c3d5dfcc9cb926a5eb7d"
          ],
          "data": "0x00000000000000000000000000000000000000000000000000000002540be400",
          "blockHash": "0xf6d4555de33988e409fec4a5a669e3532621c37cd4cd7995fe0be3f0c2b628f3",
          "blockNumber": "0x740048",
          "transactionHash": "0x2c5f2c0d02cfed6de986528bfc2765b4f281c4d4a40d724bdde0d489712abb93",
          "transactionIndex": "0x7a",
          "logIndex": "0xcc",
          "removed": false
        }
      ],
      "logsBloom": "0x00000000000000000000000000000000000000000000000000000000000000000000000000000000000000000000002000000000000000000000000000000000000000000000000000000008040000000000000000000000000000000000000004000000020000000000000000000800000000000000800000000010000000000000000000000000004000000000000000000000000000000000000000000000000000000000000000000000000000000000000000004000000000000000000000000002000000000000000000000000000000000000000000000000000020000000000000000000000000000000000000000000000000000000000000000000",
      "type": "0x2",
      "transactionHash": "0x2c5f2c0d02cfed6de986528bfc2765b4f281c4d4a40d724bdde0d489712abb93",
      "transactionIndex": "0x7a",
      "blockHash": "0xf6d4555de33988e409fec4a5a669e3532621c37cd4cd7995fe0be3f0c2b628f3",
      "blockNumber": "0x740048",
      "gasUsed": "0xb287",
      "effectiveGasPrice": "0x662d2e3c",
      "from": "0xcda2fdb452ff4f5d7ba1c3d5dfcc9cb926a5eb7d",
      "to": "0xc959483dba39aa9e78757139af0e9a2edeb3f42d",
      "contractAddress": null
    },
    {
      "status": "0x1",
      "cumulativeGasUsed": "0x11107f5",
      "logs": [
        {
          "address": "0xaa8e23fb1079ea71e0a56f48a2aa51851d8433d0",
          "topics": [
            "0xddf252ad1be2c89b69c2b068fc378daa952ba7f163c4a11628f55a4df523b3ef",
            "0x0000000000000000000000000000000000000000000000000000000000000000",
            "0x000000000000000000000000cda2fdb452ff4f5d7ba1c3d5dfcc9cb926a5eb7d"
          ],
          "data": "0x00000000000000000000000000000000000000000000000000000002540be400",
          "blockHash": "0xf6d4555de33988e409fec4a5a669e3532621c37cd4cd7995fe0be3f0c2b628f3",
          "blockNumber": "0x740048",
          "transactionHash": "0x564d0cddc223ae6498b4f4f7d6d72bf3b86ea191a966f212fc8c644850767649",
          "transactionIndex": "0x7b",
          "logIndex": "0xcd",
          "removed": false
        }
      ],
      "logsBloom": "0x00000000000000000000000000000000000000000000000000000000000000000000000000000000000000000000002000000000000000000000000000000000000000000000000000000008040000000000000000000000000000000000000004000000020000000000000000000800000000000000800000000010000000000000000000000000004000000000000000000000000000000000000000000000000000000000000000000000000000000000000000004000000000000000000000000002000000000000000000000000000000000000000000000000000020000000000000000000000000000000000000000000000000000000000000000000",
      "type": "0x2",
      "transactionHash": "0x564d0cddc223ae6498b4f4f7d6d72bf3b86ea191a966f212fc8c644850767649",
      "transactionIndex": "0x7b",
      "blockHash": "0xf6d4555de33988e409fec4a5a669e3532621c37cd4cd7995fe0be3f0c2b628f3",
      "blockNumber": "0x740048",
      "gasUsed": "0xb287",
      "effectiveGasPrice": "0x662d2e3c",
      "from": "0xcda2fdb452ff4f5d7ba1c3d5dfcc9cb926a5eb7d",
      "to": "0xc959483dba39aa9e78757139af0e9a2edeb3f42d",
      "contractAddress": null
    },
    {
      "status": "0x1",
      "cumulativeGasUsed": "0x111ba7c",
      "logs": [
        {
          "address": "0xaa8e23fb1079ea71e0a56f48a2aa51851d8433d0",
          "topics": [
            "0xddf252ad1be2c89b69c2b068fc378daa952ba7f163c4a11628f55a4df523b3ef",
            "0x0000000000000000000000000000000000000000000000000000000000000000",
            "0x000000000000000000000000cda2fdb452ff4f5d7ba1c3d5dfcc9cb926a5eb7d"
          ],
          "data": "0x00000000000000000000000000000000000000000000000000000002540be400",
          "blockHash": "0xf6d4555de33988e409fec4a5a669e3532621c37cd4cd7995fe0be3f0c2b628f3",
          "blockNumber": "0x740048",
          "transactionHash": "0x8d3733e644370c6356340da1a671419510eed2c5ea0a0b3a57fd066d54ab39d2",
          "transactionIndex": "0x7c",
          "logIndex": "0xce",
          "removed": false
        }
      ],
      "logsBloom": "0x00000000000000000000000000000000000000000000000000000000000000000000000000000000000000000000002000000000000000000000000000000000000000000000000000000008040000000000000000000000000000000000000004000000020000000000000000000800000000000000800000000010000000000000000000000000004000000000000000000000000000000000000000000000000000000000000000000000000000000000000000004000000000000000000000000002000000000000000000000000000000000000000000000000000020000000000000000000000000000000000000000000000000000000000000000000",
      "type": "0x2",
      "transactionHash": "0x8d3733e644370c6356340da1a671419510eed2c5ea0a0b3a57fd066d54ab39d2",
      "transactionIndex": "0x7c",
      "blockHash": "0xf6d4555de33988e409fec4a5a669e3532621c37cd4cd7995fe0be3f0c2b628f3",
      "blockNumber": "0x740048",
      "gasUsed": "0xb287",
      "effectiveGasPrice": "0x662d2e3c",
      "from": "0xcda2fdb452ff4f5d7ba1c3d5dfcc9cb926a5eb7d",
      "to": "0xc959483dba39aa9e78757139af0e9a2edeb3f42d",
      "contractAddress": null
    },
    {
      "status": "0x1",
      "cumulativeGasUsed": "0x1126d03",
      "logs": [
        {
          "address": "0xaa8e23fb1079ea71e0a56f48a2aa51851d8433d0",
          "topics": [
            "0xddf252ad1be2c89b69c2b068fc378daa952ba7f163c4a11628f55a4df523b3ef",
            "0x0000000000000000000000000000000000000000000000000000000000000000",
            "0x000000000000000000000000cda2fdb452ff4f5d7ba1c3d5dfcc9cb926a5eb7d"
          ],
          "data": "0x00000000000000000000000000000000000000000000000000000002540be400",
          "blockHash": "0xf6d4555de33988e409fec4a5a669e3532621c37cd4cd7995fe0be3f0c2b628f3",
          "blockNumber": "0x740048",
          "transactionHash": "0xb2477d8a89eaa5ce67e5cf536ae4856e1128d7542a53172a8abca7d6ef98eaa6",
          "transactionIndex": "0x7d",
          "logIndex": "0xcf",
          "removed": false
        }
      ],
      "logsBloom": "0x00000000000000000000000000000000000000000000000000000000000000000000000000000000000000000000002000000000000000000000000000000000000000000000000000000008040000000000000000000000000000000000000004000000020000000000000000000800000000000000800000000010000000000000000000000000004000000000000000000000000000000000000000000000000000000000000000000000000000000000000000004000000000000000000000000002000000000000000000000000000000000000000000000000000020000000000000000000000000000000000000000000000000000000000000000000",
      "type": "0x2",
      "transactionHash": "0xb2477d8a89eaa5ce67e5cf536ae4856e1128d7542a53172a8abca7d6ef98eaa6",
      "transactionIndex": "0x7d",
      "blockHash": "0xf6d4555de33988e409fec4a5a669e3532621c37cd4cd7995fe0be3f0c2b628f3",
      "blockNumber": "0x740048",
      "gasUsed": "0xb287",
      "effectiveGasPrice": "0x662d2e3c",
      "from": "0xcda2fdb452ff4f5d7ba1c3d5dfcc9cb926a5eb7d",
      "to": "0xc959483dba39aa9e78757139af0e9a2edeb3f42d",
      "contractAddress": null
    },
    {
      "status": "0x1",
      "cumulativeGasUsed": "0x116da0b",
      "logs": [
        {
          "address": "0xaa8e23fb1079ea71e0a56f48a2aa51851d8433d0",
          "topics": [
            "0xddf252ad1be2c89b69c2b068fc378daa952ba7f163c4a11628f55a4df523b3ef",
            "0x0000000000000000000000000000000000000000000000000000000000000000",
            "0x000000000000000000000000cda2fdb452ff4f5d7ba1c3d5dfcc9cb926a5eb7d"
          ],
          "data": "0x00000000000000000000000000000000000000000000000000000002540be400",
          "blockHash": "0xf6d4555de33988e409fec4a5a669e3532621c37cd4cd7995fe0be3f0c2b628f3",
          "blockNumber": "0x740048",
          "transactionHash": "0xb948d7e02223ce9bbffe9f57e968132ea46ad4ce95626446b84e48757135bfa6",
          "transactionIndex": "0x7f",
          "logIndex": "0xd4",
          "removed": false
        }
      ],
      "logsBloom": "0x00000000000000000000000000000000000000000000000000000000000000000000000000000000000000000000002000000000000000000000000000000000000000000000000000000008040000000000000000000000000000000000000004000000020000000000000000000800000000000000800000000010000000000000000000000000004000000000000000000000000000000000000000000000000000000000000000000000000000000000000000004000000000000000000000000002000000000000000000000000000000000000000000000000000020000000000000000000000000000000000000000000000000000000000000000000",
      "type": "0x2",
      "transactionHash": "0xb948d7e02223ce9bbffe9f57e968132ea46ad4ce95626446b84e48757135bfa6",
      "transactionIndex": "0x7f",
      "blockHash": "0xf6d4555de33988e409fec4a5a669e3532621c37cd4cd7995fe0be3f0c2b628f3",
      "blockNumber": "0x740048",
      "gasUsed": "0xb287",
      "effectiveGasPrice": "0x662d2e3c",
      "from": "0xcda2fdb452ff4f5d7ba1c3d5dfcc9cb926a5eb7d",
      "to": "0xc959483dba39aa9e78757139af0e9a2edeb3f42d",
      "contractAddress": null
    },
    {
      "status": "0x1",
      "cumulativeGasUsed": "0x118dfbc",
      "logs": [
        {
          "address": "0xaa8e23fb1079ea71e0a56f48a2aa51851d8433d0",
          "topics": [
            "0xddf252ad1be2c89b69c2b068fc378daa952ba7f163c4a11628f55a4df523b3ef",
            "0x0000000000000000000000000000000000000000000000000000000000000000",
            "0x000000000000000000000000cda2fdb452ff4f5d7ba1c3d5dfcc9cb926a5eb7d"
          ],
          "data": "0x00000000000000000000000000000000000000000000000000000002540be400",
          "blockHash": "0xf6d4555de33988e409fec4a5a669e3532621c37cd4cd7995fe0be3f0c2b628f3",
          "blockNumber": "0x740048",
          "transactionHash": "0x937e5c716e83a83dd10b56b662232aebd5e8f4558978039297f7fd06cd271d6a",
          "transactionIndex": "0x81",
          "logIndex": "0xd6",
          "removed": false
        }
      ],
      "logsBloom": "0x00000000000000000000000000000000000000000000000000000000000000000000000000000000000000000000002000000000000000000000000000000000000000000000000000000008040000000000000000000000000000000000000004000000020000000000000000000800000000000000800000000010000000000000000000000000004000000000000000000000000000000000000000000000000000000000000000000000000000000000000000004000000000000000000000000002000000000000000000000000000000000000000000000000000020000000000000000000000000000000000000000000000000000000000000000000",
      "type": "0x2",
      "transactionHash": "0x937e5c716e83a83dd10b56b662232aebd5e8f4558978039297f7fd06cd271d6a",
      "transactionIndex": "0x81",
      "blockHash": "0xf6d4555de33988e409fec4a5a669e3532621c37cd4cd7995fe0be3f0c2b628f3",
      "blockNumber": "0x740048",
      "gasUsed": "0xb287",
      "effectiveGasPrice": "0x662d2e3c",
      "from": "0xcda2fdb452ff4f5d7ba1c3d5dfcc9cb926a5eb7d",
      "to": "0xc959483dba39aa9e78757139af0e9a2edeb3f42d",
      "contractAddress": null
    },
    {
      "status": "0x1",
      "cumulativeGasUsed": "0x1199243",
      "logs": [
        {
          "address": "0xaa8e23fb1079ea71e0a56f48a2aa51851d8433d0",
          "topics": [
            "0xddf252ad1be2c89b69c2b068fc378daa952ba7f163c4a11628f55a4df523b3ef",
            "0x0000000000000000000000000000000000000000000000000000000000000000",
            "0x000000000000000000000000cda2fdb452ff4f5d7ba1c3d5dfcc9cb926a5eb7d"
          ],
          "data": "0x00000000000000000000000000000000000000000000000000000002540be400",
          "blockHash": "0xf6d4555de33988e409fec4a5a669e3532621c37cd4cd7995fe0be3f0c2b628f3",
          "blockNumber": "0x740048",
          "transactionHash": "0xcd3555646a5816c51a75f3651e86a6e93795396557f684fbb9c4a086dd0dbee9",
          "transactionIndex": "0x82",
          "logIndex": "0xd7",
          "removed": false
        }
      ],
      "logsBloom": "0x00000000000000000000000000000000000000000000000000000000000000000000000000000000000000000000002000000000000000000000000000000000000000000000000000000008040000000000000000000000000000000000000004000000020000000000000000000800000000000000800000000010000000000000000000000000004000000000000000000000000000000000000000000000000000000000000000000000000000000000000000004000000000000000000000000002000000000000000000000000000000000000000000000000000020000000000000000000000000000000000000000000000000000000000000000000",
      "type": "0x2",
      "transactionHash": "0xcd3555646a5816c51a75f3651e86a6e93795396557f684fbb9c4a086dd0dbee9",
      "transactionIndex": "0x82",
      "blockHash": "0xf6d4555de33988e409fec4a5a669e3532621c37cd4cd7995fe0be3f0c2b628f3",
      "blockNumber": "0x740048",
      "gasUsed": "0xb287",
      "effectiveGasPrice": "0x662d2e3c",
      "from": "0xcda2fdb452ff4f5d7ba1c3d5dfcc9cb926a5eb7d",
      "to": "0xc959483dba39aa9e78757139af0e9a2edeb3f42d",
      "contractAddress": null
    },
    {
      "status": "0x1",
      "cumulativeGasUsed": "0x11a44ca",
      "logs": [
        {
          "address": "0xaa8e23fb1079ea71e0a56f48a2aa51851d8433d0",
          "topics": [
            "0xddf252ad1be2c89b69c2b068fc378daa952ba7f163c4a11628f55a4df523b3ef",
            "0x0000000000000000000000000000000000000000000000000000000000000000",
            "0x000000000000000000000000cda2fdb452ff4f5d7ba1c3d5dfcc9cb926a5eb7d"
          ],
          "data": "0x00000000000000000000000000000000000000000000000000000002540be400",
          "blockHash": "0xf6d4555de33988e409fec4a5a669e3532621c37cd4cd7995fe0be3f0c2b628f3",
          "blockNumber": "0x740048",
          "transactionHash": "0xd898e8ebaecff4fb5091b746006ca376af4635a6ff98bb59c43b938f3021e029",
          "transactionIndex": "0x83",
          "logIndex": "0xd8",
          "removed": false
        }
      ],
      "logsBloom": "0x00000000000000000000000000000000000000000000000000000000000000000000000000000000000000000000002000000000000000000000000000000000000000000000000000000008040000000000000000000000000000000000000004000000020000000000000000000800000000000000800000000010000000000000000000000000004000000000000000000000000000000000000000000000000000000000000000000000000000000000000000004000000000000000000000000002000000000000000000000000000000000000000000000000000020000000000000000000000000000000000000000000000000000000000000000000",
      "type": "0x2",
      "transactionHash": "0xd898e8ebaecff4fb5091b746006ca376af4635a6ff98bb59c43b938f3021e029",
      "transactionIndex": "0x83",
      "blockHash": "0xf6d4555de33988e409fec4a5a669e3532621c37cd4cd7995fe0be3f0c2b628f3",
      "blockNumber": "0x740048",
      "gasUsed": "0xb287",
      "effectiveGasPrice": "0x662d2e3c",
      "from": "0xcda2fdb452ff4f5d7ba1c3d5dfcc9cb926a5eb7d",
      "to": "0xc959483dba39aa9e78757139af0e9a2edeb3f42d",
      "contractAddress": null
    },
    {
      "status": "0x1",
      "cumulativeGasUsed": "0x11af751",
      "logs": [
        {
          "address": "0xaa8e23fb1079ea71e0a56f48a2aa51851d8433d0",
          "topics": [
            "0xddf252ad1be2c89b69c2b068fc378daa952ba7f163c4a11628f55a4df523b3ef",
            "0x0000000000000000000000000000000000000000000000000000000000000000",
            "0x000000000000000000000000cda2fdb452ff4f5d7ba1c3d5dfcc9cb926a5eb7d"
          ],
          "data": "0x00000000000000000000000000000000000000000000000000000002540be400",
          "blockHash": "0xf6d4555de33988e409fec4a5a669e3532621c37cd4cd7995fe0be3f0c2b628f3",
          "blockNumber": "0x740048",
          "transactionHash": "0x583d736f4971b066e6f5ff791c9ffc88c39ae385d8e7971f4bea3abf6911bd00",
          "transactionIndex": "0x84",
          "logIndex": "0xd9",
          "removed": false
        }
      ],
      "logsBloom": "0x00000000000000000000000000000000000000000000000000000000000000000000000000000000000000000000002000000000000000000000000000000000000000000000000000000008040000000000000000000000000000000000000004000000020000000000000000000800000000000000800000000010000000000000000000000000004000000000000000000000000000000000000000000000000000000000000000000000000000000000000000004000000000000000000000000002000000000000000000000000000000000000000000000000000020000000000000000000000000000000000000000000000000000000000000000000",
      "type": "0x2",
      "transactionHash": "0x583d736f4971b066e6f5ff791c9ffc88c39ae385d8e7971f4bea3abf6911bd00",
      "transactionIndex": "0x84",
      "blockHash": "0xf6d4555de33988e409fec4a5a669e3532621c37cd4cd7995fe0be3f0c2b628f3",
      "blockNumber": "0x740048",
      "gasUsed": "0xb287",
      "effectiveGasPrice": "0x662d2e3c",
      "from": "0xcda2fdb452ff4f5d7ba1c3d5dfcc9cb926a5eb7d",
      "to": "0xc959483dba39aa9e78757139af0e9a2edeb3f42d",
      "contractAddress": null
    },
    {
      "status": "0x1",
      "cumulativeGasUsed": "0x11c5d90",
      "logs": [
        {
          "address": "0xaa8e23fb1079ea71e0a56f48a2aa51851d8433d0",
          "topics": [
            "0xddf252ad1be2c89b69c2b068fc378daa952ba7f163c4a11628f55a4df523b3ef",
            "0x0000000000000000000000000000000000000000000000000000000000000000",
            "0x000000000000000000000000cda2fdb452ff4f5d7ba1c3d5dfcc9cb926a5eb7d"
          ],
          "data": "0x00000000000000000000000000000000000000000000000000000002540be400",
          "blockHash": "0xf6d4555de33988e409fec4a5a669e3532621c37cd4cd7995fe0be3f0c2b628f3",
          "blockNumber": "0x740048",
          "transactionHash": "0x2079f91550377cde61ee902b509fc85c5aa2dcf2b0ee5ed684aebb2c01c61f23",
          "transactionIndex": "0x86",
          "logIndex": "0xdb",
          "removed": false
        }
      ],
      "logsBloom": "0x00000000000000000000000000000000000000000000000000000000000000000000000000000000000000000000002000000000000000000000000000000000000000000000000000000008040000000000000000000000000000000000000004000000020000000000000000000800000000000000800000000010000000000000000000000000004000000000000000000000000000000000000000000000000000000000000000000000000000000000000000004000000000000000000000000002000000000000000000000000000000000000000000000000000020000000000000000000000000000000000000000000000000000000000000000000",
      "type": "0x2",
      "transactionHash": "0x2079f91550377cde61ee902b509fc85c5aa2dcf2b0ee5ed684aebb2c01c61f23",
      "transactionIndex": "0x86",
      "blockHash": "0xf6d4555de33988e409fec4a5a669e3532621c37cd4cd7995fe0be3f0c2b628f3",
      "blockNumber": "0x740048",
      "gasUsed": "0xb287",
      "effectiveGasPrice": "0x662d2e3c",
      "from": "0xcda2fdb452ff4f5d7ba1c3d5dfcc9cb926a5eb7d",
      "to": "0xc959483dba39aa9e78757139af0e9a2edeb3f42d",
      "contractAddress": null
    },
    {
      "status": "0x1",
      "cumulativeGasUsed": "0x11d1017",
      "logs": [
        {
          "address": "0xaa8e23fb1079ea71e0a56f48a2aa51851d8433d0",
          "topics": [
            "0xddf252ad1be2c89b69c2b068fc378daa952ba7f163c4a11628f55a4df523b3ef",
            "0x0000000000000000000000000000000000000000000000000000000000000000",
            "0x000000000000000000000000cda2fdb452ff4f5d7ba1c3d5dfcc9cb926a5eb7d"
          ],
          "data": "0x00000000000000000000000000000000000000000000000000000002540be400",
          "blockHash": "0xf6d4555de33988e409fec4a5a669e3532621c37cd4cd7995fe0be3f0c2b628f3",
          "blockNumber": "0x740048",
          "transactionHash": "0x79b24df45736ad384048a75b84e78bc8002f3ac765861c8cd86ff948462a2f5d",
          "transactionIndex": "0x87",
          "logIndex": "0xdc",
          "removed": false
        }
      ],
      "logsBloom": "0x00000000000000000000000000000000000000000000000000000000000000000000000000000000000000000000002000000000000000000000000000000000000000000000000000000008040000000000000000000000000000000000000004000000020000000000000000000800000000000000800000000010000000000000000000000000004000000000000000000000000000000000000000000000000000000000000000000000000000000000000000004000000000000000000000000002000000000000000000000000000000000000000000000000000020000000000000000000000000000000000000000000000000000000000000000000",
      "type": "0x2",
      "transactionHash": "0x79b24df45736ad384048a75b84e78bc8002f3ac765861c8cd86ff948462a2f5d",
      "transactionIndex": "0x87",
      "blockHash": "0xf6d4555de33988e409fec4a5a669e3532621c37cd4cd7995fe0be3f0c2b628f3",
      "blockNumber": "0x740048",
      "gasUsed": "0xb287",
      "effectiveGasPrice": "0x662d2e3c",
      "from": "0xcda2fdb452ff4f5d7ba1c3d5dfcc9cb926a5eb7d",
      "to": "0xc959483dba39aa9e78757139af0e9a2edeb3f42d",
      "contractAddress": null
    },
    {
      "status": "0x1",
      "cumulativeGasUsed": "0x11dc29e",
      "logs": [
        {
          "address": "0xaa8e23fb1079ea71e0a56f48a2aa51851d8433d0",
          "topics": [
            "0xddf252ad1be2c89b69c2b068fc378daa952ba7f163c4a11628f55a4df523b3ef",
            "0x0000000000000000000000000000000000000000000000000000000000000000",
            "0x000000000000000000000000cda2fdb452ff4f5d7ba1c3d5dfcc9cb926a5eb7d"
          ],
          "data": "0x00000000000000000000000000000000000000000000000000000002540be400",
          "blockHash": "0xf6d4555de33988e409fec4a5a669e3532621c37cd4cd7995fe0be3f0c2b628f3",
          "blockNumber": "0x740048",
          "transactionHash": "0x0ac5e09c7535384a6cd7172f95b817419af486ebbde26dd75b597d1b0ae6741b",
          "transactionIndex": "0x88",
          "logIndex": "0xdd",
          "removed": false
        }
      ],
      "logsBloom": "0x00000000000000000000000000000000000000000000000000000000000000000000000000000000000000000000002000000000000000000000000000000000000000000000000000000008040000000000000000000000000000000000000004000000020000000000000000000800000000000000800000000010000000000000000000000000004000000000000000000000000000000000000000000000000000000000000000000000000000000000000000004000000000000000000000000002000000000000000000000000000000000000000000000000000020000000000000000000000000000000000000000000000000000000000000000000",
      "type": "0x2",
      "transactionHash": "0x0ac5e09c7535384a6cd7172f95b817419af486ebbde26dd75b597d1b0ae6741b",
      "transactionIndex": "0x88",
      "blockHash": "0xf6d4555de33988e409fec4a5a669e3532621c37cd4cd7995fe0be3f0c2b628f3",
      "blockNumber": "0x740048",
      "gasUsed": "0xb287",
      "effectiveGasPrice": "0x662d2e3c",
      "from": "0xcda2fdb452ff4f5d7ba1c3d5dfcc9cb926a5eb7d",
      "to": "0xc959483dba39aa9e78757139af0e9a2edeb3f42d",
      "contractAddress": null
    },
    {
      "status": "0x1",
      "cumulativeGasUsed": "0x11e7525",
      "logs": [
        {
          "address": "0xaa8e23fb1079ea71e0a56f48a2aa51851d8433d0",
          "topics": [
            "0xddf252ad1be2c89b69c2b068fc378daa952ba7f163c4a11628f55a4df523b3ef",
            "0x0000000000000000000000000000000000000000000000000000000000000000",
            "0x000000000000000000000000cda2fdb452ff4f5d7ba1c3d5dfcc9cb926a5eb7d"
          ],
          "data": "0x00000000000000000000000000000000000000000000000000000002540be400",
          "blockHash": "0xf6d4555de33988e409fec4a5a669e3532621c37cd4cd7995fe0be3f0c2b628f3",
          "blockNumber": "0x740048",
          "transactionHash": "0xcafccbd03e3f2b701e9013470e016305bb2387fcf9b9052561fec5fab1a97f1f",
          "transactionIndex": "0x89",
          "logIndex": "0xde",
          "removed": false
        }
      ],
      "logsBloom": "0x00000000000000000000000000000000000000000000000000000000000000000000000000000000000000000000002000000000000000000000000000000000000000000000000000000008040000000000000000000000000000000000000004000000020000000000000000000800000000000000800000000010000000000000000000000000004000000000000000000000000000000000000000000000000000000000000000000000000000000000000000004000000000000000000000000002000000000000000000000000000000000000000000000000000020000000000000000000000000000000000000000000000000000000000000000000",
      "type": "0x2",
      "transactionHash": "0xcafccbd03e3f2b701e9013470e016305bb2387fcf9b9052561fec5fab1a97f1f",
      "transactionIndex": "0x89",
      "blockHash": "0xf6d4555de33988e409fec4a5a669e3532621c37cd4cd7995fe0be3f0c2b628f3",
      "blockNumber": "0x740048",
      "gasUsed": "0xb287",
      "effectiveGasPrice": "0x662d2e3c",
      "from": "0xcda2fdb452ff4f5d7ba1c3d5dfcc9cb926a5eb7d",
      "to": "0xc959483dba39aa9e78757139af0e9a2edeb3f42d",
      "contractAddress": null
    },
    {
      "status": "0x1",
      "cumulativeGasUsed": "0x11f27ac",
      "logs": [
        {
          "address": "0xaa8e23fb1079ea71e0a56f48a2aa51851d8433d0",
          "topics": [
            "0xddf252ad1be2c89b69c2b068fc378daa952ba7f163c4a11628f55a4df523b3ef",
            "0x0000000000000000000000000000000000000000000000000000000000000000",
            "0x000000000000000000000000cda2fdb452ff4f5d7ba1c3d5dfcc9cb926a5eb7d"
          ],
          "data": "0x00000000000000000000000000000000000000000000000000000002540be400",
          "blockHash": "0xf6d4555de33988e409fec4a5a669e3532621c37cd4cd7995fe0be3f0c2b628f3",
          "blockNumber": "0x740048",
          "transactionHash": "0x1d47c7cd70e7d2b0b5b8c0fd7c27d867d31f5c2e9f6151a3ceeb5a22e97b0ac6",
          "transactionIndex": "0x8a",
          "logIndex": "0xdf",
          "removed": false
        }
      ],
      "logsBloom": "0x00000000000000000000000000000000000000000000000000000000000000000000000000000000000000000000002000000000000000000000000000000000000000000000000000000008040000000000000000000000000000000000000004000000020000000000000000000800000000000000800000000010000000000000000000000000004000000000000000000000000000000000000000000000000000000000000000000000000000000000000000004000000000000000000000000002000000000000000000000000000000000000000000000000000020000000000000000000000000000000000000000000000000000000000000000000",
      "type": "0x2",
      "transactionHash": "0x1d47c7cd70e7d2b0b5b8c0fd7c27d867d31f5c2e9f6151a3ceeb5a22e97b0ac6",
      "transactionIndex": "0x8a",
      "blockHash": "0xf6d4555de33988e409fec4a5a669e3532621c37cd4cd7995fe0be3f0c2b628f3",
      "blockNumber": "0x740048",
      "gasUsed": "0xb287",
      "effectiveGasPrice": "0x662d2e3c",
      "from": "0xcda2fdb452ff4f5d7ba1c3d5dfcc9cb926a5eb7d",
      "to": "0xc959483dba39aa9e78757139af0e9a2edeb3f42d",
      "contractAddress": null
    },
    {
      "status": "0x1",
      "cumulativeGasUsed": "0x11fda33",
      "logs": [
        {
          "address": "0xaa8e23fb1079ea71e0a56f48a2aa51851d8433d0",
          "topics": [
            "0xddf252ad1be2c89b69c2b068fc378daa952ba7f163c4a11628f55a4df523b3ef",
            "0x0000000000000000000000000000000000000000000000000000000000000000",
            "0x000000000000000000000000cda2fdb452ff4f5d7ba1c3d5dfcc9cb926a5eb7d"
          ],
          "data": "0x00000000000000000000000000000000000000000000000000000002540be400",
          "blockHash": "0xf6d4555de33988e409fec4a5a669e3532621c37cd4cd7995fe0be3f0c2b628f3",
          "blockNumber": "0x740048",
          "transactionHash": "0x8a339dcf80fdc2933a1c24b8cc6417f23ba118d192f5fb87f8cd4c7f3caac12d",
          "transactionIndex": "0x8b",
          "logIndex": "0xe0",
          "removed": false
        }
      ],
      "logsBloom": "0x00000000000000000000000000000000000000000000000000000000000000000000000000000000000000000000002000000000000000000000000000000000000000000000000000000008040000000000000000000000000000000000000004000000020000000000000000000800000000000000800000000010000000000000000000000000004000000000000000000000000000000000000000000000000000000000000000000000000000000000000000004000000000000000000000000002000000000000000000000000000000000000000000000000000020000000000000000000000000000000000000000000000000000000000000000000",
      "type": "0x2",
      "transactionHash": "0x8a339dcf80fdc2933a1c24b8cc6417f23ba118d192f5fb87f8cd4c7f3caac12d",
      "transactionIndex": "0x8b",
      "blockHash": "0xf6d4555de33988e409fec4a5a669e3532621c37cd4cd7995fe0be3f0c2b628f3",
      "blockNumber": "0x740048",
      "gasUsed": "0xb287",
      "effectiveGasPrice": "0x662d2e3c",
      "from": "0xcda2fdb452ff4f5d7ba1c3d5dfcc9cb926a5eb7d",
      "to": "0xc959483dba39aa9e78757139af0e9a2edeb3f42d",
      "contractAddress": null
    },
    {
      "status": "0x1",
      "cumulativeGasUsed": "0x1208cba",
      "logs": [
        {
          "address": "0xaa8e23fb1079ea71e0a56f48a2aa51851d8433d0",
          "topics": [
            "0xddf252ad1be2c89b69c2b068fc378daa952ba7f163c4a11628f55a4df523b3ef",
            "0x0000000000000000000000000000000000000000000000000000000000000000",
            "0x000000000000000000000000cda2fdb452ff4f5d7ba1c3d5dfcc9cb926a5eb7d"
          ],
          "data": "0x00000000000000000000000000000000000000000000000000000002540be400",
          "blockHash": "0xf6d4555de33988e409fec4a5a669e3532621c37cd4cd7995fe0be3f0c2b628f3",
          "blockNumber": "0x740048",
          "transactionHash": "0x25b6f8ee7b93a4f434b460b6d94216de3bfb2c7701f93b03ae835780ef8e8302",
          "transactionIndex": "0x8c",
          "logIndex": "0xe1",
          "removed": false
        }
      ],
      "logsBloom": "0x00000000000000000000000000000000000000000000000000000000000000000000000000000000000000000000002000000000000000000000000000000000000000000000000000000008040000000000000000000000000000000000000004000000020000000000000000000800000000000000800000000010000000000000000000000000004000000000000000000000000000000000000000000000000000000000000000000000000000000000000000004000000000000000000000000002000000000000000000000000000000000000000000000000000020000000000000000000000000000000000000000000000000000000000000000000",
      "type": "0x2",
      "transactionHash": "0x25b6f8ee7b93a4f434b460b6d94216de3bfb2c7701f93b03ae835780ef8e8302",
      "transactionIndex": "0x8c",
      "blockHash": "0xf6d4555de33988e409fec4a5a669e3532621c37cd4cd7995fe0be3f0c2b628f3",
      "blockNumber": "0x740048",
      "gasUsed": "0xb287",
      "effectiveGasPrice": "0x662d2e3c",
      "from": "0xcda2fdb452ff4f5d7ba1c3d5dfcc9cb926a5eb7d",
      "to": "0xc959483dba39aa9e78757139af0e9a2edeb3f42d",
      "contractAddress": null
    },
    {
      "status": "0x1",
      "cumulativeGasUsed": "0x1213f41",
      "logs": [
        {
          "address": "0xaa8e23fb1079ea71e0a56f48a2aa51851d8433d0",
          "topics": [
            "0xddf252ad1be2c89b69c2b068fc378daa952ba7f163c4a11628f55a4df523b3ef",
            "0x0000000000000000000000000000000000000000000000000000000000000000",
            "0x000000000000000000000000cda2fdb452ff4f5d7ba1c3d5dfcc9cb926a5eb7d"
          ],
          "data": "0x00000000000000000000000000000000000000000000000000000002540be400",
          "blockHash": "0xf6d4555de33988e409fec4a5a669e3532621c37cd4cd7995fe0be3f0c2b628f3",
          "blockNumber": "0x740048",
          "transactionHash": "0xd18fff3ca0febd5bd833424b3f2821291ebc7d788b6640303a313073ca774639",
          "transactionIndex": "0x8d",
          "logIndex": "0xe2",
          "removed": false
        }
      ],
      "logsBloom": "0x00000000000000000000000000000000000000000000000000000000000000000000000000000000000000000000002000000000000000000000000000000000000000000000000000000008040000000000000000000000000000000000000004000000020000000000000000000800000000000000800000000010000000000000000000000000004000000000000000000000000000000000000000000000000000000000000000000000000000000000000000004000000000000000000000000002000000000000000000000000000000000000000000000000000020000000000000000000000000000000000000000000000000000000000000000000",
      "type": "0x2",
      "transactionHash": "0xd18fff3ca0febd5bd833424b3f2821291ebc7d788b6640303a313073ca774639",
      "transactionIndex": "0x8d",
      "blockHash": "0xf6d4555de33988e409fec4a5a669e3532621c37cd4cd7995fe0be3f0c2b628f3",
      "blockNumber": "0x740048",
      "gasUsed": "0xb287",
      "effectiveGasPrice": "0x662d2e3c",
      "from": "0xcda2fdb452ff4f5d7ba1c3d5dfcc9cb926a5eb7d",
      "to": "0xc959483dba39aa9e78757139af0e9a2edeb3f42d",
      "contractAddress": null
    },
    {
      "status": "0x1",
      "cumulativeGasUsed": "0x121f1c8",
      "logs": [
        {
          "address": "0xaa8e23fb1079ea71e0a56f48a2aa51851d8433d0",
          "topics": [
            "0xddf252ad1be2c89b69c2b068fc378daa952ba7f163c4a11628f55a4df523b3ef",
            "0x0000000000000000000000000000000000000000000000000000000000000000",
            "0x000000000000000000000000cda2fdb452ff4f5d7ba1c3d5dfcc9cb926a5eb7d"
          ],
          "data": "0x00000000000000000000000000000000000000000000000000000002540be400",
          "blockHash": "0xf6d4555de33988e409fec4a5a669e3532621c37cd4cd7995fe0be3f0c2b628f3",
          "blockNumber": "0x740048",
          "transactionHash": "0xfbb7d299d35a4e80462e458ae18c5696413a70e7f329b8a4567ee076ce3d7000",
          "transactionIndex": "0x8e",
          "logIndex": "0xe3",
          "removed": false
        }
      ],
      "logsBloom": "0x00000000000000000000000000000000000000000000000000000000000000000000000000000000000000000000002000000000000000000000000000000000000000000000000000000008040000000000000000000000000000000000000004000000020000000000000000000800000000000000800000000010000000000000000000000000004000000000000000000000000000000000000000000000000000000000000000000000000000000000000000004000000000000000000000000002000000000000000000000000000000000000000000000000000020000000000000000000000000000000000000000000000000000000000000000000",
      "type": "0x2",
      "transactionHash": "0xfbb7d299d35a4e80462e458ae18c5696413a70e7f329b8a4567ee076ce3d7000",
      "transactionIndex": "0x8e",
      "blockHash": "0xf6d4555de33988e409fec4a5a669e3532621c37cd4cd7995fe0be3f0c2b628f3",
      "blockNumber": "0x740048",
      "gasUsed": "0xb287",
      "effectiveGasPrice": "0x662d2e3c",
      "from": "0xcda2fdb452ff4f5d7ba1c3d5dfcc9cb926a5eb7d",
      "to": "0xc959483dba39aa9e78757139af0e9a2edeb3f42d",
      "contractAddress": null
    },
    {
      "status": "0x1",
      "cumulativeGasUsed": "0x122a44f",
      "logs": [
        {
          "address": "0xaa8e23fb1079ea71e0a56f48a2aa51851d8433d0",
          "topics": [
            "0xddf252ad1be2c89b69c2b068fc378daa952ba7f163c4a11628f55a4df523b3ef",
            "0x0000000000000000000000000000000000000000000000000000000000000000",
            "0x000000000000000000000000cda2fdb452ff4f5d7ba1c3d5dfcc9cb926a5eb7d"
          ],
          "data": "0x00000000000000000000000000000000000000000000000000000002540be400",
          "blockHash": "0xf6d4555de33988e409fec4a5a669e3532621c37cd4cd7995fe0be3f0c2b628f3",
          "blockNumber": "0x740048",
          "transactionHash": "0x4b0095a438ec9af8fb59b8829d94420e752755bab087dff8bdf17ffb1ea55452",
          "transactionIndex": "0x8f",
          "logIndex": "0xe4",
          "removed": false
        }
      ],
      "logsBloom": "0x00000000000000000000000000000000000000000000000000000000000000000000000000000000000000000000002000000000000000000000000000000000000000000000000000000008040000000000000000000000000000000000000004000000020000000000000000000800000000000000800000000010000000000000000000000000004000000000000000000000000000000000000000000000000000000000000000000000000000000000000000004000000000000000000000000002000000000000000000000000000000000000000000000000000020000000000000000000000000000000000000000000000000000000000000000000",
      "type": "0x2",
      "transactionHash": "0x4b0095a438ec9af8fb59b8829d94420e752755bab087dff8bdf17ffb1ea55452",
      "transactionIndex": "0x8f",
      "blockHash": "0xf6d4555de33988e409fec4a5a669e3532621c37cd4cd7995fe0be3f0c2b628f3",
      "blockNumber": "0x740048",
      "gasUsed": "0xb287",
      "effectiveGasPrice": "0x662d2e3c",
      "from": "0xcda2fdb452ff4f5d7ba1c3d5dfcc9cb926a5eb7d",
      "to": "0xc959483dba39aa9e78757139af0e9a2edeb3f42d",
      "contractAddress": null
    },
    {
      "status": "0x1",
      "cumulativeGasUsed": "0x12356d6",
      "logs": [
        {
          "address": "0xaa8e23fb1079ea71e0a56f48a2aa51851d8433d0",
          "topics": [
            "0xddf252ad1be2c89b69c2b068fc378daa952ba7f163c4a11628f55a4df523b3ef",
            "0x0000000000000000000000000000000000000000000000000000000000000000",
            "0x000000000000000000000000cda2fdb452ff4f5d7ba1c3d5dfcc9cb926a5eb7d"
          ],
          "data": "0x00000000000000000000000000000000000000000000000000000002540be400",
          "blockHash": "0xf6d4555de33988e409fec4a5a669e3532621c37cd4cd7995fe0be3f0c2b628f3",
          "blockNumber": "0x740048",
          "transactionHash": "0xda5fa449594a1e97cc55baefd1f920202f889da37a5d72ad3a93e16cc04267b3",
          "transactionIndex": "0x90",
          "logIndex": "0xe5",
          "removed": false
        }
      ],
      "logsBloom": "0x00000000000000000000000000000000000000000000000000000000000000000000000000000000000000000000002000000000000000000000000000000000000000000000000000000008040000000000000000000000000000000000000004000000020000000000000000000800000000000000800000000010000000000000000000000000004000000000000000000000000000000000000000000000000000000000000000000000000000000000000000004000000000000000000000000002000000000000000000000000000000000000000000000000000020000000000000000000000000000000000000000000000000000000000000000000",
      "type": "0x2",
      "transactionHash": "0xda5fa449594a1e97cc55baefd1f920202f889da37a5d72ad3a93e16cc04267b3",
      "transactionIndex": "0x90",
      "blockHash": "0xf6d4555de33988e409fec4a5a669e3532621c37cd4cd7995fe0be3f0c2b628f3",
      "blockNumber": "0x740048",
      "gasUsed": "0xb287",
      "effectiveGasPrice": "0x662d2e3c",
      "from": "0xcda2fdb452ff4f5d7ba1c3d5dfcc9cb926a5eb7d",
      "to": "0xc959483dba39aa9e78757139af0e9a2edeb3f42d",
      "contractAddress": null
    },
    {
      "status": "0x1",
      "cumulativeGasUsed": "0x124095d",
      "logs": [
        {
          "address": "0xaa8e23fb1079ea71e0a56f48a2aa51851d8433d0",
          "topics": [
            "0xddf252ad1be2c89b69c2b068fc378daa952ba7f163c4a11628f55a4df523b3ef",
            "0x0000000000000000000000000000000000000000000000000000000000000000",
            "0x000000000000000000000000cda2fdb452ff4f5d7ba1c3d5dfcc9cb926a5eb7d"
          ],
          "data": "0x00000000000000000000000000000000000000000000000000000002540be400",
          "blockHash": "0xf6d4555de33988e409fec4a5a669e3532621c37cd4cd7995fe0be3f0c2b628f3",
          "blockNumber": "0x740048",
          "transactionHash": "0xcc1fb41b5c3d732c69f52852056605b6ec35490a04c4e764767c2950d6cfee03",
          "transactionIndex": "0x91",
          "logIndex": "0xe6",
          "removed": false
        }
      ],
      "logsBloom": "0x00000000000000000000000000000000000000000000000000000000000000000000000000000000000000000000002000000000000000000000000000000000000000000000000000000008040000000000000000000000000000000000000004000000020000000000000000000800000000000000800000000010000000000000000000000000004000000000000000000000000000000000000000000000000000000000000000000000000000000000000000004000000000000000000000000002000000000000000000000000000000000000000000000000000020000000000000000000000000000000000000000000000000000000000000000000",
      "type": "0x2",
      "transactionHash": "0xcc1fb41b5c3d732c69f52852056605b6ec35490a04c4e764767c2950d6cfee03",
      "transactionIndex": "0x91",
      "blockHash": "0xf6d4555de33988e409fec4a5a669e3532621c37cd4cd7995fe0be3f0c2b628f3",
      "blockNumber": "0x740048",
      "gasUsed": "0xb287",
      "effectiveGasPrice": "0x662d2e3c",
      "from": "0xcda2fdb452ff4f5d7ba1c3d5dfcc9cb926a5eb7d",
      "to": "0xc959483dba39aa9e78757139af0e9a2edeb3f42d",
      "contractAddress": null
    },
    {
      "status": "0x1",
      "cumulativeGasUsed": "0x124bbe4",
      "logs": [
        {
          "address": "0xaa8e23fb1079ea71e0a56f48a2aa51851d8433d0",
          "topics": [
            "0xddf252ad1be2c89b69c2b068fc378daa952ba7f163c4a11628f55a4df523b3ef",
            "0x0000000000000000000000000000000000000000000000000000000000000000",
            "0x000000000000000000000000cda2fdb452ff4f5d7ba1c3d5dfcc9cb926a5eb7d"
          ],
          "data": "0x00000000000000000000000000000000000000000000000000000002540be400",
          "blockHash": "0xf6d4555de33988e409fec4a5a669e3532621c37cd4cd7995fe0be3f0c2b628f3",
          "blockNumber": "0x740048",
          "transactionHash": "0x25ff3d534beaa5401b1f63ccf8798082e50436d180c5132643462f01350b0a72",
          "transactionIndex": "0x92",
          "logIndex": "0xe7",
          "removed": false
        }
      ],
      "logsBloom": "0x00000000000000000000000000000000000000000000000000000000000000000000000000000000000000000000002000000000000000000000000000000000000000000000000000000008040000000000000000000000000000000000000004000000020000000000000000000800000000000000800000000010000000000000000000000000004000000000000000000000000000000000000000000000000000000000000000000000000000000000000000004000000000000000000000000002000000000000000000000000000000000000000000000000000020000000000000000000000000000000000000000000000000000000000000000000",
      "type": "0x2",
      "transactionHash": "0x25ff3d534beaa5401b1f63ccf8798082e50436d180c5132643462f01350b0a72",
      "transactionIndex": "0x92",
      "blockHash": "0xf6d4555de33988e409fec4a5a669e3532621c37cd4cd7995fe0be3f0c2b628f3",
      "blockNumber": "0x740048",
      "gasUsed": "0xb287",
      "effectiveGasPrice": "0x662d2e3c",
      "from": "0xcda2fdb452ff4f5d7ba1c3d5dfcc9cb926a5eb7d",
      "to": "0xc959483dba39aa9e78757139af0e9a2edeb3f42d",
      "contractAddress": null
    },
    {
      "status": "0x1",
      "cumulativeGasUsed": "0x1256e6b",
      "logs": [
        {
          "address": "0xaa8e23fb1079ea71e0a56f48a2aa51851d8433d0",
          "topics": [
            "0xddf252ad1be2c89b69c2b068fc378daa952ba7f163c4a11628f55a4df523b3ef",
            "0x0000000000000000000000000000000000000000000000000000000000000000",
            "0x000000000000000000000000cda2fdb452ff4f5d7ba1c3d5dfcc9cb926a5eb7d"
          ],
          "data": "0x00000000000000000000000000000000000000000000000000000002540be400",
          "blockHash": "0xf6d4555de33988e409fec4a5a669e3532621c37cd4cd7995fe0be3f0c2b628f3",
          "blockNumber": "0x740048",
          "transactionHash": "0x8abe2882f1f112aae14c3a3f4e8bece86dcdab8c47640024312beb5a516d48ac",
          "transactionIndex": "0x93",
          "logIndex": "0xe8",
          "removed": false
        }
      ],
      "logsBloom": "0x00000000000000000000000000000000000000000000000000000000000000000000000000000000000000000000002000000000000000000000000000000000000000000000000000000008040000000000000000000000000000000000000004000000020000000000000000000800000000000000800000000010000000000000000000000000004000000000000000000000000000000000000000000000000000000000000000000000000000000000000000004000000000000000000000000002000000000000000000000000000000000000000000000000000020000000000000000000000000000000000000000000000000000000000000000000",
      "type": "0x2",
      "transactionHash": "0x8abe2882f1f112aae14c3a3f4e8bece86dcdab8c47640024312beb5a516d48ac",
      "transactionIndex": "0x93",
      "blockHash": "0xf6d4555de33988e409fec4a5a669e3532621c37cd4cd7995fe0be3f0c2b628f3",
      "blockNumber": "0x740048",
      "gasUsed": "0xb287",
      "effectiveGasPrice": "0x662d2e3c",
      "from": "0xcda2fdb452ff4f5d7ba1c3d5dfcc9cb926a5eb7d",
      "to": "0xc959483dba39aa9e78757139af0e9a2edeb3f42d",
      "contractAddress": null
    },
    {
      "status": "0x1",
      "cumulativeGasUsed": "0x12620f2",
      "logs": [
        {
          "address": "0xaa8e23fb1079ea71e0a56f48a2aa51851d8433d0",
          "topics": [
            "0xddf252ad1be2c89b69c2b068fc378daa952ba7f163c4a11628f55a4df523b3ef",
            "0x0000000000000000000000000000000000000000000000000000000000000000",
            "0x000000000000000000000000cda2fdb452ff4f5d7ba1c3d5dfcc9cb926a5eb7d"
          ],
          "data": "0x00000000000000000000000000000000000000000000000000000002540be400",
          "blockHash": "0xf6d4555de33988e409fec4a5a669e3532621c37cd4cd7995fe0be3f0c2b628f3",
          "blockNumber": "0x740048",
          "transactionHash": "0xe59aa589248d8a9d4d9ded53688be8198cd8068bb41d76f315812ce4f2313545",
          "transactionIndex": "0x94",
          "logIndex": "0xe9",
          "removed": false
        }
      ],
      "logsBloom": "0x00000000000000000000000000000000000000000000000000000000000000000000000000000000000000000000002000000000000000000000000000000000000000000000000000000008040000000000000000000000000000000000000004000000020000000000000000000800000000000000800000000010000000000000000000000000004000000000000000000000000000000000000000000000000000000000000000000000000000000000000000004000000000000000000000000002000000000000000000000000000000000000000000000000000020000000000000000000000000000000000000000000000000000000000000000000",
      "type": "0x2",
      "transactionHash": "0xe59aa589248d8a9d4d9ded53688be8198cd8068bb41d76f315812ce4f2313545",
      "transactionIndex": "0x94",
      "blockHash": "0xf6d4555de33988e409fec4a5a669e3532621c37cd4cd7995fe0be3f0c2b628f3",
      "blockNumber": "0x740048",
      "gasUsed": "0xb287",
      "effectiveGasPrice": "0x662d2e3c",
      "from": "0xcda2fdb452ff4f5d7ba1c3d5dfcc9cb926a5eb7d",
      "to": "0xc959483dba39aa9e78757139af0e9a2edeb3f42d",
      "contractAddress": null
    },
    {
      "status": "0x1",
      "cumulativeGasUsed": "0x126d379",
      "logs": [
        {
          "address": "0xaa8e23fb1079ea71e0a56f48a2aa51851d8433d0",
          "topics": [
            "0xddf252ad1be2c89b69c2b068fc378daa952ba7f163c4a11628f55a4df523b3ef",
            "0x0000000000000000000000000000000000000000000000000000000000000000",
            "0x000000000000000000000000cda2fdb452ff4f5d7ba1c3d5dfcc9cb926a5eb7d"
          ],
          "data": "0x00000000000000000000000000000000000000000000000000000002540be400",
          "blockHash": "0xf6d4555de33988e409fec4a5a669e3532621c37cd4cd7995fe0be3f0c2b628f3",
          "blockNumber": "0x740048",
          "transactionHash": "0x7e2c2c0ec512a80695ab5feae0ed222751476c0b7fdb2f8c90d59c1bfb3aa3d7",
          "transactionIndex": "0x95",
          "logIndex": "0xea",
          "removed": false
        }
      ],
      "logsBloom": "0x00000000000000000000000000000000000000000000000000000000000000000000000000000000000000000000002000000000000000000000000000000000000000000000000000000008040000000000000000000000000000000000000004000000020000000000000000000800000000000000800000000010000000000000000000000000004000000000000000000000000000000000000000000000000000000000000000000000000000000000000000004000000000000000000000000002000000000000000000000000000000000000000000000000000020000000000000000000000000000000000000000000000000000000000000000000",
      "type": "0x2",
      "transactionHash": "0x7e2c2c0ec512a80695ab5feae0ed222751476c0b7fdb2f8c90d59c1bfb3aa3d7",
      "transactionIndex": "0x95",
      "blockHash": "0xf6d4555de33988e409fec4a5a669e3532621c37cd4cd7995fe0be3f0c2b628f3",
      "blockNumber": "0x740048",
      "gasUsed": "0xb287",
      "effectiveGasPrice": "0x662d2e3c",
      "from": "0xcda2fdb452ff4f5d7ba1c3d5dfcc9cb926a5eb7d",
      "to": "0xc959483dba39aa9e78757139af0e9a2edeb3f42d",
      "contractAddress": null
    },
    {
      "status": "0x1",
      "cumulativeGasUsed": "0x1289c61",
      "logs": [
        {
          "address": "0xaa8e23fb1079ea71e0a56f48a2aa51851d8433d0",
          "topics": [
            "0xddf252ad1be2c89b69c2b068fc378daa952ba7f163c4a11628f55a4df523b3ef",
            "0x0000000000000000000000000000000000000000000000000000000000000000",
            "0x000000000000000000000000cda2fdb452ff4f5d7ba1c3d5dfcc9cb926a5eb7d"
          ],
          "data": "0x00000000000000000000000000000000000000000000000000000002540be400",
          "blockHash": "0xf6d4555de33988e409fec4a5a669e3532621c37cd4cd7995fe0be3f0c2b628f3",
          "blockNumber": "0x740048",
          "transactionHash": "0xe4052f215015c050f76d720afe3f1c09ebc48d82d88c566935e23232b9de1d97",
          "transactionIndex": "0x99",
          "logIndex": "0xec",
          "removed": false
        }
      ],
      "logsBloom": "0x00000000000000000000000000000000000000000000000000000000000000000000000000000000000000000000002000000000000000000000000000000000000000000000000000000008040000000000000000000000000000000000000004000000020000000000000000000800000000000000800000000010000000000000000000000000004000000000000000000000000000000000000000000000000000000000000000000000000000000000000000004000000000000000000000000002000000000000000000000000000000000000000000000000000020000000000000000000000000000000000000000000000000000000000000000000",
      "type": "0x2",
      "transactionHash": "0xe4052f215015c050f76d720afe3f1c09ebc48d82d88c566935e23232b9de1d97",
      "transactionIndex": "0x99",
      "blockHash": "0xf6d4555de33988e409fec4a5a669e3532621c37cd4cd7995fe0be3f0c2b628f3",
      "blockNumber": "0x740048",
      "gasUsed": "0xb287",
      "effectiveGasPrice": "0x662d2e3c",
      "from": "0xcda2fdb452ff4f5d7ba1c3d5dfcc9cb926a5eb7d",
      "to": "0xc959483dba39aa9e78757139af0e9a2edeb3f42d",
      "contractAddress": null
    },
    {
      "status": "0x1",
      "cumulativeGasUsed": "0x1294ee8",
      "logs": [
        {
          "address": "0xaa8e23fb1079ea71e0a56f48a2aa51851d8433d0",
          "topics": [
            "0xddf252ad1be2c89b69c2b068fc378daa952ba7f163c4a11628f55a4df523b3ef",
            "0x0000000000000000000000000000000000000000000000000000000000000000",
            "0x000000000000000000000000cda2fdb452ff4f5d7ba1c3d5dfcc9cb926a5eb7d"
          ],
          "data": "0x00000000000000000000000000000000000000000000000000000002540be400",
          "blockHash": "0xf6d4555de33988e409fec4a5a669e3532621c37cd4cd7995fe0be3f0c2b628f3",
          "blockNumber": "0x740048",
          "transactionHash": "0x0244e76dd75facd43fa5b21158d470fed17606991d8f1fb18c154c2567478b67",
          "transactionIndex": "0x9a",
          "logIndex": "0xed",
          "removed": false
        }
      ],
      "logsBloom": "0x00000000000000000000000000000000000000000000000000000000000000000000000000000000000000000000002000000000000000000000000000000000000000000000000000000008040000000000000000000000000000000000000004000000020000000000000000000800000000000000800000000010000000000000000000000000004000000000000000000000000000000000000000000000000000000000000000000000000000000000000000004000000000000000000000000002000000000000000000000000000000000000000000000000000020000000000000000000000000000000000000000000000000000000000000000000",
      "type": "0x2",
      "transactionHash": "0x0244e76dd75facd43fa5b21158d470fed17606991d8f1fb18c154c2567478b67",
      "transactionIndex": "0x9a",
      "blockHash": "0xf6d4555de33988e409fec4a5a669e3532621c37cd4cd7995fe0be3f0c2b628f3",
      "blockNumber": "0x740048",
      "gasUsed": "0xb287",
      "effectiveGasPrice": "0x662d2e3c",
      "from": "0xcda2fdb452ff4f5d7ba1c3d5dfcc9cb926a5eb7d",
      "to": "0xc959483dba39aa9e78757139af0e9a2edeb3f42d",
      "contractAddress": null
    },
    {
      "status": "0x1",
      "cumulativeGasUsed": "0x12a016f",
      "logs": [
        {
          "address": "0xaa8e23fb1079ea71e0a56f48a2aa51851d8433d0",
          "topics": [
            "0xddf252ad1be2c89b69c2b068fc378daa952ba7f163c4a11628f55a4df523b3ef",
            "0x0000000000000000000000000000000000000000000000000000000000000000",
            "0x000000000000000000000000cda2fdb452ff4f5d7ba1c3d5dfcc9cb926a5eb7d"
          ],
          "data": "0x00000000000000000000000000000000000000000000000000000002540be400",
          "blockHash": "0xf6d4555de33988e409fec4a5a669e3532621c37cd4cd7995fe0be3f0c2b628f3",
          "blockNumber": "0x740048",
          "transactionHash": "0x13f5cf1a3c4210565363ffb8fa03e893c56cc9d542bad14e4441449b00f2b7df",
          "transactionIndex": "0x9b",
          "logIndex": "0xee",
          "removed": false
        }
      ],
      "logsBloom": "0x00000000000000000000000000000000000000000000000000000000000000000000000000000000000000000000002000000000000000000000000000000000000000000000000000000008040000000000000000000000000000000000000004000000020000000000000000000800000000000000800000000010000000000000000000000000004000000000000000000000000000000000000000000000000000000000000000000000000000000000000000004000000000000000000000000002000000000000000000000000000000000000000000000000000020000000000000000000000000000000000000000000000000000000000000000000",
      "type": "0x2",
      "transactionHash": "0x13f5cf1a3c4210565363ffb8fa03e893c56cc9d542bad14e4441449b00f2b7df",
      "transactionIndex": "0x9b",
      "blockHash": "0xf6d4555de33988e409fec4a5a669e3532621c37cd4cd7995fe0be3f0c2b628f3",
      "blockNumber": "0x740048",
      "gasUsed": "0xb287",
      "effectiveGasPrice": "0x662d2e3c",
      "from": "0xcda2fdb452ff4f5d7ba1c3d5dfcc9cb926a5eb7d",
      "to": "0xc959483dba39aa9e78757139af0e9a2edeb3f42d",
      "contractAddress": null
    },
    {
      "status": "0x1",
      "cumulativeGasUsed": "0x12c0737",
      "logs": [
        {
          "address": "0xaa8e23fb1079ea71e0a56f48a2aa51851d8433d0",
          "topics": [
            "0xddf252ad1be2c89b69c2b068fc378daa952ba7f163c4a11628f55a4df523b3ef",
            "0x0000000000000000000000000000000000000000000000000000000000000000",
            "0x000000000000000000000000cda2fdb452ff4f5d7ba1c3d5dfcc9cb926a5eb7d"
          ],
          "data": "0x00000000000000000000000000000000000000000000000000000002540be400",
          "blockHash": "0xf6d4555de33988e409fec4a5a669e3532621c37cd4cd7995fe0be3f0c2b628f3",
          "blockNumber": "0x740048",
          "transactionHash": "0xc139a0986c995db070c88322a0654c7cc8f33d1448418d66c181c2af40959deb",
          "transactionIndex": "0x9d",
          "logIndex": "0xf0",
          "removed": false
        }
      ],
      "logsBloom": "0x00000000000000000000000000000000000000000000000000000000000000000000000000000000000000000000002000000000000000000000000000000000000000000000000000000008040000000000000000000000000000000000000004000000020000000000000000000800000000000000800000000010000000000000000000000000004000000000000000000000000000000000000000000000000000000000000000000000000000000000000000004000000000000000000000000002000000000000000000000000000000000000000000000000000020000000000000000000000000000000000000000000000000000000000000000000",
      "type": "0x2",
      "transactionHash": "0xc139a0986c995db070c88322a0654c7cc8f33d1448418d66c181c2af40959deb",
      "transactionIndex": "0x9d",
      "blockHash": "0xf6d4555de33988e409fec4a5a669e3532621c37cd4cd7995fe0be3f0c2b628f3",
      "blockNumber": "0x740048",
      "gasUsed": "0xb287",
      "effectiveGasPrice": "0x662d2e3c",
      "from": "0xcda2fdb452ff4f5d7ba1c3d5dfcc9cb926a5eb7d",
      "to": "0xc959483dba39aa9e78757139af0e9a2edeb3f42d",
      "contractAddress": null
    }
  ],
  "libraries": [],
  "pending": [],
  "returns": {},
  "timestamp": 1738229957,
  "chain": 11155111,
  "commit": "c03c0fa"
}