{
  "transactions": [
    {
      "hash": "0x3ac2533c15c2a121456adbe7f39974d73650ccd6331abb9046fbd004ccbdab2e",
      "transactionType": "CALL",
      "contractName": null,
      "contractAddress": "0xcf821f1af225b69758eb997e148642a165383da1",
      "function": "burnShare(uint256)",
      "arguments": [
        "100000000000000000000000"
      ],
      "transaction": {
        "from": "0xcda2fdb452ff4f5d7ba1c3d5dfcc9cb926a5eb7d",
        "to": "0xcf821f1af225b69758eb997e148642a165383da1",
        "gas": "0xcf46",
        "value": "0x0",
        "input": "0x0ebc2d2300000000000000000000000000000000000000000000152d02c7e14af6800000",
        "nonce": "0x1a4",
        "chainId": "0xaa36a7"
      },
      "additionalContracts": [],
      "isFixedGasLimit": false
    }
  ],
  "receipts": [
    {
      "status": "0x1",
      "cumulativeGasUsed": "0x12e14b3",
      "logs": [
        {
          "address": "0xcf821f1af225b69758eb997e148642a165383da1",
          "topics": [
            "0xddf252ad1be2c89b69c2b068fc378daa952ba7f163c4a11628f55a4df523b3ef",
            "0x000000000000000000000000cda2fdb452ff4f5d7ba1c3d5dfcc9cb926a5eb7d",
            "0x0000000000000000000000000000000000000000000000000000000000000000"
          ],
          "data": "0x00000000000000000000000000000000000000000000152d02c7e14af6800000",
          "blockHash": "0x86295267becbe3725f9779da7c6720a54af6d502d09fc4a8dd3b8f4e4547b085",
          "blockNumber": "0x745532",
          "transactionHash": "0x3ac2533c15c2a121456adbe7f39974d73650ccd6331abb9046fbd004ccbdab2e",
          "transactionIndex": "0x82",
          "logIndex": "0x17f",
          "removed": false
        }
      ],
      "logsBloom": "0x00000000000000000000000000040000000000010000000000000000000000000000000000000000000000000000000000000000000000000000000000000000000000000000000000000008040000000000000000000000000000000000000000000000020000000000000000000800000000000000800000000010000000000000000000000000000000000000000000000000000000000000000000000000000000000000000000000000000000000000000000004000000000000000000000000002000000000000000000000000000000000000000000200000000020000000000000000000000000000000000000000000000000000000000000000000",
      "type": "0x2",
      "transactionHash": "0x3ac2533c15c2a121456adbe7f39974d73650ccd6331abb9046fbd004ccbdab2e",
      "transactionIndex": "0x82",
      "blockHash": "0x86295267becbe3725f9779da7c6720a54af6d502d09fc4a8dd3b8f4e4547b085",
      "blockNumber": "0x745532",
      "gasUsed": "0x8dba",
      "effectiveGasPrice": "0x957238bb",
      "from": "0xcda2fdb452ff4f5d7ba1c3d5dfcc9cb926a5eb7d",
      "to": "0xcf821f1af225b69758eb997e148642a165383da1",
      "contractAddress": null
    }
  ],
  "libraries": [],
  "pending": [],
  "returns": {},
  "timestamp": 1738496200,
  "chain": 11155111,
  "commit": "c03c0fa"
}