{
  "transactions": [
    {
      "hash": "0xa62f4459a5e75f210a9c49c9b7d2816a39d7569e72b9a93ed997730a550ed653",
      "transactionType": "CALL",
      "contractName": null,
      "contractAddress": "0xc959483dba39aa9e78757139af0e9a2edeb3f42d",
      "function": "mint(address,address,uint256)",
      "arguments": [
        "0x94a9D9AC8a22534E3FaCa9F4e7F2E2cf85d5E4C8",
        "0xcdA2fDB452FF4F5D7Ba1C3d5dFCc9CB926A5eb7D",
        "10000000000"
      ],
      "transaction": {
        "from": "0xcda2fdb452ff4f5d7ba1c3d5dfcc9cb926a5eb7d",
        "to": "0xc959483dba39aa9e78757139af0e9a2edeb3f42d",
        "gas": "0xf696",
        "value": "0x0",
        "input": "0xc6c3bbe600000000000000000000000094a9d9ac8a22534e3faca9f4e7f2e2cf85d5e4c8000000000000000000000000cda2fdb452ff4f5d7ba1c3d5dfcc9cb926a5eb7d00000000000000000000000000000000000000000000000000000002540be400",
        "nonce": "0x3f",
        "chainId": "0xaa36a7"
      },
      "additionalContracts": [],
      "isFixedGasLimit": false
    },
    {
      "hash": "0x4c285ab1571d5701e3e05fc63d166eda02c870d4e324f2a59b2800f0b0ce2589",
      "transactionType": "CALL",
      "contractName": null,
      "contractAddress": "0xc959483dba39aa9e78757139af0e9a2edeb3f42d",
      "function": "mint(address,address,uint256)",
      "arguments": [
        "0x94a9D9AC8a22534E3FaCa9F4e7F2E2cf85d5E4C8",
        "0xcdA2fDB452FF4F5D7Ba1C3d5dFCc9CB926A5eb7D",
        "10000000000"
      ],
      "transaction": {
        "from": "0xcda2fdb452ff4f5d7ba1c3d5dfcc9cb926a5eb7d",
        "to": "0xc959483dba39aa9e78757139af0e9a2edeb3f42d",
        "gas": "0xf696",
        "value": "0x0",
        "input": "0xc6c3bbe600000000000000000000000094a9d9ac8a22534e3faca9f4e7f2e2cf85d5e4c8000000000000000000000000cda2fdb452ff4f5d7ba1c3d5dfcc9cb926a5eb7d00000000000000000000000000000000000000000000000000000002540be400",
        "nonce": "0x40",
        "chainId": "0xaa36a7"
      },
      "additionalContracts": [],
      "isFixedGasLimit": false
    },
    {
      "hash": "0x308adbd47b037ab3198e9efc62fcf5fe608eec12a258852fc1a6ba2c861dfa23",
      "transactionType": "CALL",
      "contractName": null,
      "contractAddress": "0xc959483dba39aa9e78757139af0e9a2edeb3f42d",
      "function": "mint(address,address,uint256)",
      "arguments": [
        "0x94a9D9AC8a22534E3FaCa9F4e7F2E2cf85d5E4C8",
        "0xcdA2fDB452FF4F5D7Ba1C3d5dFCc9CB926A5eb7D",
        "10000000000"
      ],
      "transaction": {
        "from": "0xcda2fdb452ff4f5d7ba1c3d5dfcc9cb926a5eb7d",
        "to": "0xc959483dba39aa9e78757139af0e9a2edeb3f42d",
        "gas": "0xf696",
        "value": "0x0",
        "input": "0xc6c3bbe600000000000000000000000094a9d9ac8a22534e3faca9f4e7f2e2cf85d5e4c8000000000000000000000000cda2fdb452ff4f5d7ba1c3d5dfcc9cb926a5eb7d00000000000000000000000000000000000000000000000000000002540be400",
        "nonce": "0x41",
        "chainId": "0xaa36a7"
      },
      "additionalContracts": [],
      "isFixedGasLimit": false
    },
    {
      "hash": "0x754028f8ca679070dc364302d55b698742cb77dfedc996325d18c0065aa29a06",
      "transactionType": "CALL",
      "contractName": null,
      "contractAddress": "0xc959483dba39aa9e78757139af0e9a2edeb3f42d",
      "function": "mint(address,address,uint256)",
      "arguments": [
        "0x94a9D9AC8a22534E3FaCa9F4e7F2E2cf85d5E4C8",
        "0xcdA2fDB452FF4F5D7Ba1C3d5dFCc9CB926A5eb7D",
        "10000000000"
      ],
      "transaction": {
        "from": "0xcda2fdb452ff4f5d7ba1c3d5dfcc9cb926a5eb7d",
        "to": "0xc959483dba39aa9e78757139af0e9a2edeb3f42d",
        "gas": "0xf696",
        "value": "0x0",
        "input": "0xc6c3bbe600000000000000000000000094a9d9ac8a22534e3faca9f4e7f2e2cf85d5e4c8000000000000000000000000cda2fdb452ff4f5d7ba1c3d5dfcc9cb926a5eb7d00000000000000000000000000000000000000000000000000000002540be400",
        "nonce": "0x42",
        "chainId": "0xaa36a7"
      },
      "additionalContracts": [],
      "isFixedGasLimit": false
    },
    {
      "hash": "0x9e583a2cea33eb160ff0580c95df44b3d11a3bbae0d77f56507f6f0fcbb2fa8a",
      "transactionType": "CALL",
      "contractName": null,
      "contractAddress": "0xc959483dba39aa9e78757139af0e9a2edeb3f42d",
      "function": "mint(address,address,uint256)",
      "arguments": [
        "0x94a9D9AC8a22534E3FaCa9F4e7F2E2cf85d5E4C8",
        "0xcdA2fDB452FF4F5D7Ba1C3d5dFCc9CB926A5eb7D",
        "10000000000"
      ],
      "transaction": {
        "from": "0xcda2fdb452ff4f5d7ba1c3d5dfcc9cb926a5eb7d",
        "to": "0xc959483dba39aa9e78757139af0e9a2edeb3f42d",
        "gas": "0xf696",
        "value": "0x0",
        "input": "0xc6c3bbe600000000000000000000000094a9d9ac8a22534e3faca9f4e7f2e2cf85d5e4c8000000000000000000000000cda2fdb452ff4f5d7ba1c3d5dfcc9cb926a5eb7d00000000000000000000000000000000000000000000000000000002540be400",
        "nonce": "0x43",
        "chainId": "0xaa36a7"
      },
      "additionalContracts": [],
      "isFixedGasLimit": false
    },
    {
      "hash": "0x808dc7a6cab88e15d2e624687c99914123ba5c646bfe3c39f675e68ea8d6fd60",
      "transactionType": "CALL",
      "contractName": null,
      "contractAddress": "0xc959483dba39aa9e78757139af0e9a2edeb3f42d",
      "function": "mint(address,address,uint256)",
      "arguments": [
        "0x94a9D9AC8a22534E3FaCa9F4e7F2E2cf85d5E4C8",
        "0xcdA2fDB452FF4F5D7Ba1C3d5dFCc9CB926A5eb7D",
        "10000000000"
      ],
      "transaction": {
        "from": "0xcda2fdb452ff4f5d7ba1c3d5dfcc9cb926a5eb7d",
        "to": "0xc959483dba39aa9e78757139af0e9a2edeb3f42d",
        "gas": "0xf696",
        "value": "0x0",
        "input": "0xc6c3bbe600000000000000000000000094a9d9ac8a22534e3faca9f4e7f2e2cf85d5e4c8000000000000000000000000cda2fdb452ff4f5d7ba1c3d5dfcc9cb926a5eb7d00000000000000000000000000000000000000000000000000000002540be400",
        "nonce": "0x44",
        "chainId": "0xaa36a7"
      },
      "additionalContracts": [],
      "isFixedGasLimit": false
    },
    {
      "hash": "0xfaba255da6a9cd1bc78f6f61528527d969fe800d20ca0241faa29b34ce2cd50b",
      "transactionType": "CALL",
      "contractName": null,
      "contractAddress": "0xc959483dba39aa9e78757139af0e9a2edeb3f42d",
      "function": "mint(address,address,uint256)",
      "arguments": [
        "0x94a9D9AC8a22534E3FaCa9F4e7F2E2cf85d5E4C8",
        "0xcdA2fDB452FF4F5D7Ba1C3d5dFCc9CB926A5eb7D",
        "10000000000"
      ],
      "transaction": {
        "from": "0xcda2fdb452ff4f5d7ba1c3d5dfcc9cb926a5eb7d",
        "to": "0xc959483dba39aa9e78757139af0e9a2edeb3f42d",
        "gas": "0xf696",
        "value": "0x0",
        "input": "0xc6c3bbe600000000000000000000000094a9d9ac8a22534e3faca9f4e7f2e2cf85d5e4c8000000000000000000000000cda2fdb452ff4f5d7ba1c3d5dfcc9cb926a5eb7d00000000000000000000000000000000000000000000000000000002540be400",
        "nonce": "0x45",
        "chainId": "0xaa36a7"
      },
      "additionalContracts": [],
      "isFixedGasLimit": false
    },
    {
      "hash": "0xb5f484ea170efdd53ea4fe33ec2639a39a2e49744fc10452021a9e7784724491",
      "transactionType": "CALL",
      "contractName": null,
      "contractAddress": "0xc959483dba39aa9e78757139af0e9a2edeb3f42d",
      "function": "mint(address,address,uint256)",
      "arguments": [
        "0x94a9D9AC8a22534E3FaCa9F4e7F2E2cf85d5E4C8",
        "0xcdA2fDB452FF4F5D7Ba1C3d5dFCc9CB926A5eb7D",
        "10000000000"
      ],
      "transaction": {
        "from": "0xcda2fdb452ff4f5d7ba1c3d5dfcc9cb926a5eb7d",
        "to": "0xc959483dba39aa9e78757139af0e9a2edeb3f42d",
        "gas": "0xf696",
        "value": "0x0",
        "input": "0xc6c3bbe600000000000000000000000094a9d9ac8a22534e3faca9f4e7f2e2cf85d5e4c8000000000000000000000000cda2fdb452ff4f5d7ba1c3d5dfcc9cb926a5eb7d00000000000000000000000000000000000000000000000000000002540be400",
        "nonce": "0x46",
        "chainId": "0xaa36a7"
      },
      "additionalContracts": [],
      "isFixedGasLimit": false
    },
    {
      "hash": "0xa7e56fe2ad5ff643a9a286df1ba9f6039ea3c35a16ccb308804018b275a83f78",
      "transactionType": "CALL",
      "contractName": null,
      "contractAddress": "0xc959483dba39aa9e78757139af0e9a2edeb3f42d",
      "function": "mint(address,address,uint256)",
      "arguments": [
        "0x94a9D9AC8a22534E3FaCa9F4e7F2E2cf85d5E4C8",
        "0xcdA2fDB452FF4F5D7Ba1C3d5dFCc9CB926A5eb7D",
        "10000000000"
      ],
      "transaction": {
        "from": "0xcda2fdb452ff4f5d7ba1c3d5dfcc9cb926a5eb7d",
        "to": "0xc959483dba39aa9e78757139af0e9a2edeb3f42d",
        "gas": "0xf696",
        "value": "0x0",
        "input": "0xc6c3bbe600000000000000000000000094a9d9ac8a22534e3faca9f4e7f2e2cf85d5e4c8000000000000000000000000cda2fdb452ff4f5d7ba1c3d5dfcc9cb926a5eb7d00000000000000000000000000000000000000000000000000000002540be400",
        "nonce": "0x47",
        "chainId": "0xaa36a7"
      },
      "additionalContracts": [],
      "isFixedGasLimit": false
    },
    {
      "hash": "0x975b88972334d54d8db4f61b0f349d84e26f65a25db9532bc089d09f91b0e00c",
      "transactionType": "CALL",
      "contractName": null,
      "contractAddress": "0xc959483dba39aa9e78757139af0e9a2edeb3f42d",
      "function": "mint(address,address,uint256)",
      "arguments": [
        "0x94a9D9AC8a22534E3FaCa9F4e7F2E2cf85d5E4C8",
        "0xcdA2fDB452FF4F5D7Ba1C3d5dFCc9CB926A5eb7D",
        "10000000000"
      ],
      "transaction": {
        "from": "0xcda2fdb452ff4f5d7ba1c3d5dfcc9cb926a5eb7d",
        "to": "0xc959483dba39aa9e78757139af0e9a2edeb3f42d",
        "gas": "0xf696",
        "value": "0x0",
        "input": "0xc6c3bbe600000000000000000000000094a9d9ac8a22534e3faca9f4e7f2e2cf85d5e4c8000000000000000000000000cda2fdb452ff4f5d7ba1c3d5dfcc9cb926a5eb7d00000000000000000000000000000000000000000000000000000002540be400",
        "nonce": "0x48",
        "chainId": "0xaa36a7"
      },
      "additionalContracts": [],
      "isFixedGasLimit": false
    },
    {
      "hash": "0xccc80a64e3763fd319bcf1a1d6ba83f4971f9d6cfa79b95e6d41441b2a396aa0",
      "transactionType": "CALL",
      "contractName": null,
      "contractAddress": "0xc959483dba39aa9e78757139af0e9a2edeb3f42d",
      "function": "mint(address,address,uint256)",
      "arguments": [
        "0x94a9D9AC8a22534E3FaCa9F4e7F2E2cf85d5E4C8",
        "0xcdA2fDB452FF4F5D7Ba1C3d5dFCc9CB926A5eb7D",
        "10000000000"
      ],
      "transaction": {
        "from": "0xcda2fdb452ff4f5d7ba1c3d5dfcc9cb926a5eb7d",
        "to": "0xc959483dba39aa9e78757139af0e9a2edeb3f42d",
        "gas": "0xf696",
        "value": "0x0",
        "input": "0xc6c3bbe600000000000000000000000094a9d9ac8a22534e3faca9f4e7f2e2cf85d5e4c8000000000000000000000000cda2fdb452ff4f5d7ba1c3d5dfcc9cb926a5eb7d00000000000000000000000000000000000000000000000000000002540be400",
        "nonce": "0x49",
        "chainId": "0xaa36a7"
      },
      "additionalContracts": [],
      "isFixedGasLimit": false
    },
    {
      "hash": "0xa02f48f3acb0b3e57558c48b2f2c7b9677870a24a84c029f82720337e47b8f85",
      "transactionType": "CALL",
      "contractName": null,
      "contractAddress": "0xc959483dba39aa9e78757139af0e9a2edeb3f42d",
      "function": "mint(address,address,uint256)",
      "arguments": [
        "0x94a9D9AC8a22534E3FaCa9F4e7F2E2cf85d5E4C8",
        "0xcdA2fDB452FF4F5D7Ba1C3d5dFCc9CB926A5eb7D",
        "10000000000"
      ],
      "transaction": {
        "from": "0xcda2fdb452ff4f5d7ba1c3d5dfcc9cb926a5eb7d",
        "to": "0xc959483dba39aa9e78757139af0e9a2edeb3f42d",
        "gas": "0xf696",
        "value": "0x0",
        "input": "0xc6c3bbe600000000000000000000000094a9d9ac8a22534e3faca9f4e7f2e2cf85d5e4c8000000000000000000000000cda2fdb452ff4f5d7ba1c3d5dfcc9cb926a5eb7d00000000000000000000000000000000000000000000000000000002540be400",
        "nonce": "0x4a",
        "chainId": "0xaa36a7"
      },
      "additionalContracts": [],
      "isFixedGasLimit": false
    },
    {
      "hash": "0x6962511468670c87c6a1ce62ff7cdf161f7902029ab884a1ad42f47f3e1c86b5",
      "transactionType": "CALL",
      "contractName": null,
      "contractAddress": "0xc959483dba39aa9e78757139af0e9a2edeb3f42d",
      "function": "mint(address,address,uint256)",
      "arguments": [
        "0x94a9D9AC8a22534E3FaCa9F4e7F2E2cf85d5E4C8",
        "0xcdA2fDB452FF4F5D7Ba1C3d5dFCc9CB926A5eb7D",
        "10000000000"
      ],
      "transaction": {
        "from": "0xcda2fdb452ff4f5d7ba1c3d5dfcc9cb926a5eb7d",
        "to": "0xc959483dba39aa9e78757139af0e9a2edeb3f42d",
        "gas": "0xf696",
        "value": "0x0",
        "input": "0xc6c3bbe600000000000000000000000094a9d9ac8a22534e3faca9f4e7f2e2cf85d5e4c8000000000000000000000000cda2fdb452ff4f5d7ba1c3d5dfcc9cb926a5eb7d00000000000000000000000000000000000000000000000000000002540be400",
        "nonce": "0x4b",
        "chainId": "0xaa36a7"
      },
      "additionalContracts": [],
      "isFixedGasLimit": false
    },
    {
      "hash": "0x9a62dd90600295d54ee237a75a5094974781a012eb0eb032ea0ed315737ceb0b",
      "transactionType": "CALL",
      "contractName": null,
      "contractAddress": "0xc959483dba39aa9e78757139af0e9a2edeb3f42d",
      "function": "mint(address,address,uint256)",
      "arguments": [
        "0x94a9D9AC8a22534E3FaCa9F4e7F2E2cf85d5E4C8",
        "0xcdA2fDB452FF4F5D7Ba1C3d5dFCc9CB926A5eb7D",
        "10000000000"
      ],
      "transaction": {
        "from": "0xcda2fdb452ff4f5d7ba1c3d5dfcc9cb926a5eb7d",
        "to": "0xc959483dba39aa9e78757139af0e9a2edeb3f42d",
        "gas": "0xf696",
        "value": "0x0",
        "input": "0xc6c3bbe600000000000000000000000094a9d9ac8a22534e3faca9f4e7f2e2cf85d5e4c8000000000000000000000000cda2fdb452ff4f5d7ba1c3d5dfcc9cb926a5eb7d00000000000000000000000000000000000000000000000000000002540be400",
        "nonce": "0x4c",
        "chainId": "0xaa36a7"
      },
      "additionalContracts": [],
      "isFixedGasLimit": false
    },
    {
      "hash": "0xb313dda9c1e510be78469046084e0bce1f11e1282aea910f456b02da2ed4613b",
      "transactionType": "CALL",
      "contractName": null,
      "contractAddress": "0xc959483dba39aa9e78757139af0e9a2edeb3f42d",
      "function": "mint(address,address,uint256)",
      "arguments": [
        "0x94a9D9AC8a22534E3FaCa9F4e7F2E2cf85d5E4C8",
        "0xcdA2fDB452FF4F5D7Ba1C3d5dFCc9CB926A5eb7D",
        "10000000000"
      ],
      "transaction": {
        "from": "0xcda2fdb452ff4f5d7ba1c3d5dfcc9cb926a5eb7d",
        "to": "0xc959483dba39aa9e78757139af0e9a2edeb3f42d",
        "gas": "0xf696",
        "value": "0x0",
        "input": "0xc6c3bbe600000000000000000000000094a9d9ac8a22534e3faca9f4e7f2e2cf85d5e4c8000000000000000000000000cda2fdb452ff4f5d7ba1c3d5dfcc9cb926a5eb7d00000000000000000000000000000000000000000000000000000002540be400",
        "nonce": "0x4d",
        "chainId": "0xaa36a7"
      },
      "additionalContracts": [],
      "isFixedGasLimit": false
    },
    {
      "hash": "0xb507718606d0b90dcc44b375ec7eec276bfa3153dbdce3264d65621dfb19c022",
      "transactionType": "CALL",
      "contractName": null,
      "contractAddress": "0xc959483dba39aa9e78757139af0e9a2edeb3f42d",
      "function": "mint(address,address,uint256)",
      "arguments": [
        "0x94a9D9AC8a22534E3FaCa9F4e7F2E2cf85d5E4C8",
        "0xcdA2fDB452FF4F5D7Ba1C3d5dFCc9CB926A5eb7D",
        "10000000000"
      ],
      "transaction": {
        "from": "0xcda2fdb452ff4f5d7ba1c3d5dfcc9cb926a5eb7d",
        "to": "0xc959483dba39aa9e78757139af0e9a2edeb3f42d",
        "gas": "0xf696",
        "value": "0x0",
        "input": "0xc6c3bbe600000000000000000000000094a9d9ac8a22534e3faca9f4e7f2e2cf85d5e4c8000000000000000000000000cda2fdb452ff4f5d7ba1c3d5dfcc9cb926a5eb7d00000000000000000000000000000000000000000000000000000002540be400",
        "nonce": "0x4e",
        "chainId": "0xaa36a7"
      },
      "additionalContracts": [],
      "isFixedGasLimit": false
    },
    {
      "hash": "0xcfce6248999ba8be7e66a929fd02c247e5d52960f617a21c1073278ed34367ca",
      "transactionType": "CALL",
      "contractName": null,
      "contractAddress": "0xc959483dba39aa9e78757139af0e9a2edeb3f42d",
      "function": "mint(address,address,uint256)",
      "arguments": [
        "0x94a9D9AC8a22534E3FaCa9F4e7F2E2cf85d5E4C8",
        "0xcdA2fDB452FF4F5D7Ba1C3d5dFCc9CB926A5eb7D",
        "10000000000"
      ],
      "transaction": {
        "from": "0xcda2fdb452ff4f5d7ba1c3d5dfcc9cb926a5eb7d",
        "to": "0xc959483dba39aa9e78757139af0e9a2edeb3f42d",
        "gas": "0xf696",
        "value": "0x0",
        "input": "0xc6c3bbe600000000000000000000000094a9d9ac8a22534e3faca9f4e7f2e2cf85d5e4c8000000000000000000000000cda2fdb452ff4f5d7ba1c3d5dfcc9cb926a5eb7d00000000000000000000000000000000000000000000000000000002540be400",
        "nonce": "0x4f",
        "chainId": "0xaa36a7"
      },
      "additionalContracts": [],
      "isFixedGasLimit": false
    },
    {
      "hash": "0xfb00b50fe9695a075efec5084283c1715348ccd5b5fe55f729eb413596835c8e",
      "transactionType": "CALL",
      "contractName": null,
      "contractAddress": "0xc959483dba39aa9e78757139af0e9a2edeb3f42d",
      "function": "mint(address,address,uint256)",
      "arguments": [
        "0x94a9D9AC8a22534E3FaCa9F4e7F2E2cf85d5E4C8",
        "0xcdA2fDB452FF4F5D7Ba1C3d5dFCc9CB926A5eb7D",
        "10000000000"
      ],
      "transaction": {
        "from": "0xcda2fdb452ff4f5d7ba1c3d5dfcc9cb926a5eb7d",
        "to": "0xc959483dba39aa9e78757139af0e9a2edeb3f42d",
        "gas": "0xf696",
        "value": "0x0",
        "input": "0xc6c3bbe600000000000000000000000094a9d9ac8a22534e3faca9f4e7f2e2cf85d5e4c8000000000000000000000000cda2fdb452ff4f5d7ba1c3d5dfcc9cb926a5eb7d00000000000000000000000000000000000000000000000000000002540be400",
        "nonce": "0x50",
        "chainId": "0xaa36a7"
      },
      "additionalContracts": [],
      "isFixedGasLimit": false
    },
    {
      "hash": "0x9d9f0a452c53468f95c51aad4c899e183bce6692aca5f9a37d23c73669641430",
      "transactionType": "CALL",
      "contractName": null,
      "contractAddress": "0xc959483dba39aa9e78757139af0e9a2edeb3f42d",
      "function": "mint(address,address,uint256)",
      "arguments": [
        "0x94a9D9AC8a22534E3FaCa9F4e7F2E2cf85d5E4C8",
        "0xcdA2fDB452FF4F5D7Ba1C3d5dFCc9CB926A5eb7D",
        "10000000000"
      ],
      "transaction": {
        "from": "0xcda2fdb452ff4f5d7ba1c3d5dfcc9cb926a5eb7d",
        "to": "0xc959483dba39aa9e78757139af0e9a2edeb3f42d",
        "gas": "0xf696",
        "value": "0x0",
        "input": "0xc6c3bbe600000000000000000000000094a9d9ac8a22534e3faca9f4e7f2e2cf85d5e4c8000000000000000000000000cda2fdb452ff4f5d7ba1c3d5dfcc9cb926a5eb7d00000000000000000000000000000000000000000000000000000002540be400",
        "nonce": "0x51",
        "chainId": "0xaa36a7"
      },
      "additionalContracts": [],
      "isFixedGasLimit": false
    },
    {
      "hash": "0x6cfb3abda6e31a6b82b2bcc15a5a38da1878962711914acbcd42e7f2b053fe46",
      "transactionType": "CALL",
      "contractName": null,
      "contractAddress": "0xc959483dba39aa9e78757139af0e9a2edeb3f42d",
      "function": "mint(address,address,uint256)",
      "arguments": [
        "0x94a9D9AC8a22534E3FaCa9F4e7F2E2cf85d5E4C8",
        "0xcdA2fDB452FF4F5D7Ba1C3d5dFCc9CB926A5eb7D",
        "10000000000"
      ],
      "transaction": {
        "from": "0xcda2fdb452ff4f5d7ba1c3d5dfcc9cb926a5eb7d",
        "to": "0xc959483dba39aa9e78757139af0e9a2edeb3f42d",
        "gas": "0xf696",
        "value": "0x0",
        "input": "0xc6c3bbe600000000000000000000000094a9d9ac8a22534e3faca9f4e7f2e2cf85d5e4c8000000000000000000000000cda2fdb452ff4f5d7ba1c3d5dfcc9cb926a5eb7d00000000000000000000000000000000000000000000000000000002540be400",
        "nonce": "0x52",
        "chainId": "0xaa36a7"
      },
      "additionalContracts": [],
      "isFixedGasLimit": false
    }
  ],
  "receipts": [
    {
      "status": "0x1",
      "cumulativeGasUsed": "0x771d9f",
      "logs": [
        {
          "address": "0x94a9d9ac8a22534e3faca9f4e7f2e2cf85d5e4c8",
          "topics": [
            "0xddf252ad1be2c89b69c2b068fc378daa952ba7f163c4a11628f55a4df523b3ef",
            "0x0000000000000000000000000000000000000000000000000000000000000000",
            "0x000000000000000000000000cda2fdb452ff4f5d7ba1c3d5dfcc9cb926a5eb7d"
          ],
          "data": "0x00000000000000000000000000000000000000000000000000000002540be400",
          "blockHash": "0xf9bc006a41a1473c3342726faf04b0c46cf5f72ae95c1b1b3a2aab73c9b42f47",
          "blockNumber": "0x740042",
          "transactionHash": "0xa62f4459a5e75f210a9c49c9b7d2816a39d7569e72b9a93ed997730a550ed653",
          "transactionIndex": "0x45",
          "logIndex": "0x72",
          "removed": false
        }
      ],
      "logsBloom": "0x00000000000000000000000000000000000000000000000000000000000000000000000000000000000000000000000000000000000000000000000000000000000000000000000000000008040000000000000000000000000008000000000000000000020000000000000000000800000000000000800000000010000000000000000000000000000000000000000000000000000000000000000000000000000000000100000000004000000000000000000000004000000000000000000000000002000000000000000000000000000000000000000000000000000020000000000000000000000000000000000000000000000000000000000000000000",
      "type": "0x2",
      "transactionHash": "0xa62f4459a5e75f210a9c49c9b7d2816a39d7569e72b9a93ed997730a550ed653",
      "transactionIndex": "0x45",
      "blockHash": "0xf9bc006a41a1473c3342726faf04b0c46cf5f72ae95c1b1b3a2aab73c9b42f47",
      "blockNumber": "0x740042",
      "gasUsed": "0xb287",
      "effectiveGasPrice": "0x59eec98c",
      "from": "0xcda2fdb452ff4f5d7ba1c3d5dfcc9cb926a5eb7d",
      "to": "0xc959483dba39aa9e78757139af0e9a2edeb3f42d",
      "contractAddress": null
    },
    {
      "status": "0x1",
      "cumulativeGasUsed": "0x77d026",
      "logs": [
        {
          "address": "0x94a9d9ac8a22534e3faca9f4e7f2e2cf85d5e4c8",
          "topics": [
            "0xddf252ad1be2c89b69c2b068fc378daa952ba7f163c4a11628f55a4df523b3ef",
            "0x0000000000000000000000000000000000000000000000000000000000000000",
            "0x000000000000000000000000cda2fdb452ff4f5d7ba1c3d5dfcc9cb926a5eb7d"
          ],
          "data": "0x00000000000000000000000000000000000000000000000000000002540be400",
          "blockHash": "0xf9bc006a41a1473c3342726faf04b0c46cf5f72ae95c1b1b3a2aab73c9b42f47",
          "blockNumber": "0x740042",
          "transactionHash": "0x4c285ab1571d5701e3e05fc63d166eda02c870d4e324f2a59b2800f0b0ce2589",
          "transactionIndex": "0x46",
          "logIndex": "0x73",
          "removed": false
        }
      ],
      "logsBloom": "0x00000000000000000000000000000000000000000000000000000000000000000000000000000000000000000000000000000000000000000000000000000000000000000000000000000008040000000000000000000000000008000000000000000000020000000000000000000800000000000000800000000010000000000000000000000000000000000000000000000000000000000000000000000000000000000100000000004000000000000000000000004000000000000000000000000002000000000000000000000000000000000000000000000000000020000000000000000000000000000000000000000000000000000000000000000000",
      "type": "0x2",
      "transactionHash": "0x4c285ab1571d5701e3e05fc63d166eda02c870d4e324f2a59b2800f0b0ce2589",
      "transactionIndex": "0x46",
      "blockHash": "0xf9bc006a41a1473c3342726faf04b0c46cf5f72ae95c1b1b3a2aab73c9b42f47",
      "blockNumber": "0x740042",
      "gasUsed": "0xb287",
      "effectiveGasPrice": "0x59eec98c",
      "from": "0xcda2fdb452ff4f5d7ba1c3d5dfcc9cb926a5eb7d",
      "to": "0xc959483dba39aa9e78757139af0e9a2edeb3f42d",
      "contractAddress": null
    },
    {
      "status": "0x1",
      "cumulativeGasUsed": "0x7882ad",
      "logs": [
        {
          "address": "0x94a9d9ac8a22534e3faca9f4e7f2e2cf85d5e4c8",
          "topics": [
            "0xddf252ad1be2c89b69c2b068fc378daa952ba7f163c4a11628f55a4df523b3ef",
            "0x0000000000000000000000000000000000000000000000000000000000000000",
            "0x000000000000000000000000cda2fdb452ff4f5d7ba1c3d5dfcc9cb926a5eb7d"
          ],
          "data": "0x00000000000000000000000000000000000000000000000000000002540be400",
          "blockHash": "0xf9bc006a41a1473c3342726faf04b0c46cf5f72ae95c1b1b3a2aab73c9b42f47",
          "blockNumber": "0x740042",
          "transactionHash": "0x308adbd47b037ab3198e9efc62fcf5fe608eec12a258852fc1a6ba2c861dfa23",
          "transactionIndex": "0x47",
          "logIndex": "0x74",
          "removed": false
        }
      ],
      "logsBloom": "0x00000000000000000000000000000000000000000000000000000000000000000000000000000000000000000000000000000000000000000000000000000000000000000000000000000008040000000000000000000000000008000000000000000000020000000000000000000800000000000000800000000010000000000000000000000000000000000000000000000000000000000000000000000000000000000100000000004000000000000000000000004000000000000000000000000002000000000000000000000000000000000000000000000000000020000000000000000000000000000000000000000000000000000000000000000000",
      "type": "0x2",
      "transactionHash": "0x308adbd47b037ab3198e9efc62fcf5fe608eec12a258852fc1a6ba2c861dfa23",
      "transactionIndex": "0x47",
      "blockHash": "0xf9bc006a41a1473c3342726faf04b0c46cf5f72ae95c1b1b3a2aab73c9b42f47",
      "blockNumber": "0x740042",
      "gasUsed": "0xb287",
      "effectiveGasPrice": "0x59eec98c",
      "from": "0xcda2fdb452ff4f5d7ba1c3d5dfcc9cb926a5eb7d",
      "to": "0xc959483dba39aa9e78757139af0e9a2edeb3f42d",
      "contractAddress": null
    },
    {
      "status": "0x1",
      "cumulativeGasUsed": "0x793534",
      "logs": [
        {
          "address": "0x94a9d9ac8a22534e3faca9f4e7f2e2cf85d5e4c8",
          "topics": [
            "0xddf252ad1be2c89b69c2b068fc378daa952ba7f163c4a11628f55a4df523b3ef",
            "0x0000000000000000000000000000000000000000000000000000000000000000",
            "0x000000000000000000000000cda2fdb452ff4f5d7ba1c3d5dfcc9cb926a5eb7d"
          ],
          "data": "0x00000000000000000000000000000000000000000000000000000002540be400",
          "blockHash": "0xf9bc006a41a1473c3342726faf04b0c46cf5f72ae95c1b1b3a2aab73c9b42f47",
          "blockNumber": "0x740042",
          "transactionHash": "0x754028f8ca679070dc364302d55b698742cb77dfedc996325d18c0065aa29a06",
          "transactionIndex": "0x48",
          "logIndex": "0x75",
          "removed": false
        }
      ],
      "logsBloom": "0x00000000000000000000000000000000000000000000000000000000000000000000000000000000000000000000000000000000000000000000000000000000000000000000000000000008040000000000000000000000000008000000000000000000020000000000000000000800000000000000800000000010000000000000000000000000000000000000000000000000000000000000000000000000000000000100000000004000000000000000000000004000000000000000000000000002000000000000000000000000000000000000000000000000000020000000000000000000000000000000000000000000000000000000000000000000",
      "type": "0x2",
      "transactionHash": "0x754028f8ca679070dc364302d55b698742cb77dfedc996325d18c0065aa29a06",
      "transactionIndex": "0x48",
      "blockHash": "0xf9bc006a41a1473c3342726faf04b0c46cf5f72ae95c1b1b3a2aab73c9b42f47",
      "blockNumber": "0x740042",
      "gasUsed": "0xb287",
      "effectiveGasPrice": "0x59eec98c",
      "from": "0xcda2fdb452ff4f5d7ba1c3d5dfcc9cb926a5eb7d",
      "to": "0xc959483dba39aa9e78757139af0e9a2edeb3f42d",
      "contractAddress": null
    },
    {
      "status": "0x1",
      "cumulativeGasUsed": "0x79e7bb",
      "logs": [
        {
          "address": "0x94a9d9ac8a22534e3faca9f4e7f2e2cf85d5e4c8",
          "topics": [
            "0xddf252ad1be2c89b69c2b068fc378daa952ba7f163c4a11628f55a4df523b3ef",
            "0x0000000000000000000000000000000000000000000000000000000000000000",
            "0x000000000000000000000000cda2fdb452ff4f5d7ba1c3d5dfcc9cb926a5eb7d"
          ],
          "data": "0x00000000000000000000000000000000000000000000000000000002540be400",
          "blockHash": "0xf9bc006a41a1473c3342726faf04b0c46cf5f72ae95c1b1b3a2aab73c9b42f47",
          "blockNumber": "0x740042",
          "transactionHash": "0x9e583a2cea33eb160ff0580c95df44b3d11a3bbae0d77f56507f6f0fcbb2fa8a",
          "transactionIndex": "0x49",
          "logIndex": "0x76",
          "removed": false
        }
      ],
      "logsBloom": "0x00000000000000000000000000000000000000000000000000000000000000000000000000000000000000000000000000000000000000000000000000000000000000000000000000000008040000000000000000000000000008000000000000000000020000000000000000000800000000000000800000000010000000000000000000000000000000000000000000000000000000000000000000000000000000000100000000004000000000000000000000004000000000000000000000000002000000000000000000000000000000000000000000000000000020000000000000000000000000000000000000000000000000000000000000000000",
      "type": "0x2",
      "transactionHash": "0x9e583a2cea33eb160ff0580c95df44b3d11a3bbae0d77f56507f6f0fcbb2fa8a",
      "transactionIndex": "0x49",
      "blockHash": "0xf9bc006a41a1473c3342726faf04b0c46cf5f72ae95c1b1b3a2aab73c9b42f47",
      "blockNumber": "0x740042",
      "gasUsed": "0xb287",
      "effectiveGasPrice": "0x59eec98c",
      "from": "0xcda2fdb452ff4f5d7ba1c3d5dfcc9cb926a5eb7d",
      "to": "0xc959483dba39aa9e78757139af0e9a2edeb3f42d",
      "contractAddress": null
    },
    {
      "status": "0x1",
      "cumulativeGasUsed": "0x7a9a42",
      "logs": [
        {
          "address": "0x94a9d9ac8a22534e3faca9f4e7f2e2cf85d5e4c8",
          "topics": [
            "0xddf252ad1be2c89b69c2b068fc378daa952ba7f163c4a11628f55a4df523b3ef",
            "0x0000000000000000000000000000000000000000000000000000000000000000",
            "0x000000000000000000000000cda2fdb452ff4f5d7ba1c3d5dfcc9cb926a5eb7d"
          ],
          "data": "0x00000000000000000000000000000000000000000000000000000002540be400",
          "blockHash": "0xf9bc006a41a1473c3342726faf04b0c46cf5f72ae95c1b1b3a2aab73c9b42f47",
          "blockNumber": "0x740042",
          "transactionHash": "0x808dc7a6cab88e15d2e624687c99914123ba5c646bfe3c39f675e68ea8d6fd60",
          "transactionIndex": "0x4a",
          "logIndex": "0x77",
          "removed": false
        }
      ],
      "logsBloom": "0x00000000000000000000000000000000000000000000000000000000000000000000000000000000000000000000000000000000000000000000000000000000000000000000000000000008040000000000000000000000000008000000000000000000020000000000000000000800000000000000800000000010000000000000000000000000000000000000000000000000000000000000000000000000000000000100000000004000000000000000000000004000000000000000000000000002000000000000000000000000000000000000000000000000000020000000000000000000000000000000000000000000000000000000000000000000",
      "type": "0x2",
      "transactionHash": "0x808dc7a6cab88e15d2e624687c99914123ba5c646bfe3c39f675e68ea8d6fd60",
      "transactionIndex": "0x4a",
      "blockHash": "0xf9bc006a41a1473c3342726faf04b0c46cf5f72ae95c1b1b3a2aab73c9b42f47",
      "blockNumber": "0x740042",
      "gasUsed": "0xb287",
      "effectiveGasPrice": "0x59eec98c",
      "from": "0xcda2fdb452ff4f5d7ba1c3d5dfcc9cb926a5eb7d",
      "to": "0xc959483dba39aa9e78757139af0e9a2edeb3f42d",
      "contractAddress": null
    },
    {
      "status": "0x1",
      "cumulativeGasUsed": "0x7b4cc9",
      "logs": [
        {
          "address": "0x94a9d9ac8a22534e3faca9f4e7f2e2cf85d5e4c8",
          "topics": [
            "0xddf252ad1be2c89b69c2b068fc378daa952ba7f163c4a11628f55a4df523b3ef",
            "0x0000000000000000000000000000000000000000000000000000000000000000",
            "0x000000000000000000000000cda2fdb452ff4f5d7ba1c3d5dfcc9cb926a5eb7d"
          ],
          "data": "0x00000000000000000000000000000000000000000000000000000002540be400",
          "blockHash": "0xf9bc006a41a1473c3342726faf04b0c46cf5f72ae95c1b1b3a2aab73c9b42f47",
          "blockNumber": "0x740042",
          "transactionHash": "0xfaba255da6a9cd1bc78f6f61528527d969fe800d20ca0241faa29b34ce2cd50b",
          "transactionIndex": "0x4b",
          "logIndex": "0x78",
          "removed": false
        }
      ],
      "logsBloom": "0x00000000000000000000000000000000000000000000000000000000000000000000000000000000000000000000000000000000000000000000000000000000000000000000000000000008040000000000000000000000000008000000000000000000020000000000000000000800000000000000800000000010000000000000000000000000000000000000000000000000000000000000000000000000000000000100000000004000000000000000000000004000000000000000000000000002000000000000000000000000000000000000000000000000000020000000000000000000000000000000000000000000000000000000000000000000",
      "type": "0x2",
      "transactionHash": "0xfaba255da6a9cd1bc78f6f61528527d969fe800d20ca0241faa29b34ce2cd50b",
      "transactionIndex": "0x4b",
      "blockHash": "0xf9bc006a41a1473c3342726faf04b0c46cf5f72ae95c1b1b3a2aab73c9b42f47",
      "blockNumber": "0x740042",
      "gasUsed": "0xb287",
      "effectiveGasPrice": "0x59eec98c",
      "from": "0xcda2fdb452ff4f5d7ba1c3d5dfcc9cb926a5eb7d",
      "to": "0xc959483dba39aa9e78757139af0e9a2edeb3f42d",
      "contractAddress": null
    },
    {
      "status": "0x1",
      "cumulativeGasUsed": "0x7bff50",
      "logs": [
        {
          "address": "0x94a9d9ac8a22534e3faca9f4e7f2e2cf85d5e4c8",
          "topics": [
            "0xddf252ad1be2c89b69c2b068fc378daa952ba7f163c4a11628f55a4df523b3ef",
            "0x0000000000000000000000000000000000000000000000000000000000000000",
            "0x000000000000000000000000cda2fdb452ff4f5d7ba1c3d5dfcc9cb926a5eb7d"
          ],
          "data": "0x00000000000000000000000000000000000000000000000000000002540be400",
          "blockHash": "0xf9bc006a41a1473c3342726faf04b0c46cf5f72ae95c1b1b3a2aab73c9b42f47",
          "blockNumber": "0x740042",
          "transactionHash": "0xb5f484ea170efdd53ea4fe33ec2639a39a2e49744fc10452021a9e7784724491",
          "transactionIndex": "0x4c",
          "logIndex": "0x79",
          "removed": false
        }
      ],
      "logsBloom": "0x00000000000000000000000000000000000000000000000000000000000000000000000000000000000000000000000000000000000000000000000000000000000000000000000000000008040000000000000000000000000008000000000000000000020000000000000000000800000000000000800000000010000000000000000000000000000000000000000000000000000000000000000000000000000000000100000000004000000000000000000000004000000000000000000000000002000000000000000000000000000000000000000000000000000020000000000000000000000000000000000000000000000000000000000000000000",
      "type": "0x2",
      "transactionHash": "0xb5f484ea170efdd53ea4fe33ec2639a39a2e49744fc10452021a9e7784724491",
      "transactionIndex": "0x4c",
      "blockHash": "0xf9bc006a41a1473c3342726faf04b0c46cf5f72ae95c1b1b3a2aab73c9b42f47",
      "blockNumber": "0x740042",
      "gasUsed": "0xb287",
      "effectiveGasPrice": "0x59eec98c",
      "from": "0xcda2fdb452ff4f5d7ba1c3d5dfcc9cb926a5eb7d",
      "to": "0xc959483dba39aa9e78757139af0e9a2edeb3f42d",
      "contractAddress": null
    },
    {
      "status": "0x1",
      "cumulativeGasUsed": "0x7cb1d7",
      "logs": [
        {
          "address": "0x94a9d9ac8a22534e3faca9f4e7f2e2cf85d5e4c8",
          "topics": [
            "0xddf252ad1be2c89b69c2b068fc378daa952ba7f163c4a11628f55a4df523b3ef",
            "0x0000000000000000000000000000000000000000000000000000000000000000",
            "0x000000000000000000000000cda2fdb452ff4f5d7ba1c3d5dfcc9cb926a5eb7d"
          ],
          "data": "0x00000000000000000000000000000000000000000000000000000002540be400",
          "blockHash": "0xf9bc006a41a1473c3342726faf04b0c46cf5f72ae95c1b1b3a2aab73c9b42f47",
          "blockNumber": "0x740042",
          "transactionHash": "0xa7e56fe2ad5ff643a9a286df1ba9f6039ea3c35a16ccb308804018b275a83f78",
          "transactionIndex": "0x4d",
          "logIndex": "0x7a",
          "removed": false
        }
      ],
      "logsBloom": "0x00000000000000000000000000000000000000000000000000000000000000000000000000000000000000000000000000000000000000000000000000000000000000000000000000000008040000000000000000000000000008000000000000000000020000000000000000000800000000000000800000000010000000000000000000000000000000000000000000000000000000000000000000000000000000000100000000004000000000000000000000004000000000000000000000000002000000000000000000000000000000000000000000000000000020000000000000000000000000000000000000000000000000000000000000000000",
      "type": "0x2",
      "transactionHash": "0xa7e56fe2ad5ff643a9a286df1ba9f6039ea3c35a16ccb308804018b275a83f78",
      "transactionIndex": "0x4d",
      "blockHash": "0xf9bc006a41a1473c3342726faf04b0c46cf5f72ae95c1b1b3a2aab73c9b42f47",
      "blockNumber": "0x740042",
      "gasUsed": "0xb287",
      "effectiveGasPrice": "0x59eec98c",
      "from": "0xcda2fdb452ff4f5d7ba1c3d5dfcc9cb926a5eb7d",
      "to": "0xc959483dba39aa9e78757139af0e9a2edeb3f42d",
      "contractAddress": null
    },
    {
      "status": "0x1",
      "cumulativeGasUsed": "0x7d645e",
      "logs": [
        {
          "address": "0x94a9d9ac8a22534e3faca9f4e7f2e2cf85d5e4c8",
          "topics": [
            "0xddf252ad1be2c89b69c2b068fc378daa952ba7f163c4a11628f55a4df523b3ef",
            "0x0000000000000000000000000000000000000000000000000000000000000000",
            "0x000000000000000000000000cda2fdb452ff4f5d7ba1c3d5dfcc9cb926a5eb7d"
          ],
          "data": "0x00000000000000000000000000000000000000000000000000000002540be400",
          "blockHash": "0xf9bc006a41a1473c3342726faf04b0c46cf5f72ae95c1b1b3a2aab73c9b42f47",
          "blockNumber": "0x740042",
          "transactionHash": "0x975b88972334d54d8db4f61b0f349d84e26f65a25db9532bc089d09f91b0e00c",
          "transactionIndex": "0x4e",
          "logIndex": "0x7b",
          "removed": false
        }
      ],
      "logsBloom": "0x00000000000000000000000000000000000000000000000000000000000000000000000000000000000000000000000000000000000000000000000000000000000000000000000000000008040000000000000000000000000008000000000000000000020000000000000000000800000000000000800000000010000000000000000000000000000000000000000000000000000000000000000000000000000000000100000000004000000000000000000000004000000000000000000000000002000000000000000000000000000000000000000000000000000020000000000000000000000000000000000000000000000000000000000000000000",
      "type": "0x2",
      "transactionHash": "0x975b88972334d54d8db4f61b0f349d84e26f65a25db9532bc089d09f91b0e00c",
      "transactionIndex": "0x4e",
      "blockHash": "0xf9bc006a41a1473c3342726faf04b0c46cf5f72ae95c1b1b3a2aab73c9b42f47",
      "blockNumber": "0x740042",
      "gasUsed": "0xb287",
      "effectiveGasPrice": "0x59eec98c",
      "from": "0xcda2fdb452ff4f5d7ba1c3d5dfcc9cb926a5eb7d",
      "to": "0xc959483dba39aa9e78757139af0e9a2edeb3f42d",
      "contractAddress": null
    },
    {
      "status": "0x1",
      "cumulativeGasUsed": "0x7e16e5",
      "logs": [
        {
          "address": "0x94a9d9ac8a22534e3faca9f4e7f2e2cf85d5e4c8",
          "topics": [
            "0xddf252ad1be2c89b69c2b068fc378daa952ba7f163c4a11628f55a4df523b3ef",
            "0x0000000000000000000000000000000000000000000000000000000000000000",
            "0x000000000000000000000000cda2fdb452ff4f5d7ba1c3d5dfcc9cb926a5eb7d"
          ],
          "data": "0x00000000000000000000000000000000000000000000000000000002540be400",
          "blockHash": "0xf9bc006a41a1473c3342726faf04b0c46cf5f72ae95c1b1b3a2aab73c9b42f47",
          "blockNumber": "0x740042",
          "transactionHash": "0xccc80a64e3763fd319bcf1a1d6ba83f4971f9d6cfa79b95e6d41441b2a396aa0",
          "transactionIndex": "0x4f",
          "logIndex": "0x7c",
          "removed": false
        }
      ],
      "logsBloom": "0x00000000000000000000000000000000000000000000000000000000000000000000000000000000000000000000000000000000000000000000000000000000000000000000000000000008040000000000000000000000000008000000000000000000020000000000000000000800000000000000800000000010000000000000000000000000000000000000000000000000000000000000000000000000000000000100000000004000000000000000000000004000000000000000000000000002000000000000000000000000000000000000000000000000000020000000000000000000000000000000000000000000000000000000000000000000",
      "type": "0x2",
      "transactionHash": "0xccc80a64e3763fd319bcf1a1d6ba83f4971f9d6cfa79b95e6d41441b2a396aa0",
      "transactionIndex": "0x4f",
      "blockHash": "0xf9bc006a41a1473c3342726faf04b0c46cf5f72ae95c1b1b3a2aab73c9b42f47",
      "blockNumber": "0x740042",
      "gasUsed": "0xb287",
      "effectiveGasPrice": "0x59eec98c",
      "from": "0xcda2fdb452ff4f5d7ba1c3d5dfcc9cb926a5eb7d",
      "to": "0xc959483dba39aa9e78757139af0e9a2edeb3f42d",
      "contractAddress": null
    },
    {
      "status": "0x1",
      "cumulativeGasUsed": "0x7ec96c",
      "logs": [
        {
          "address": "0x94a9d9ac8a22534e3faca9f4e7f2e2cf85d5e4c8",
          "topics": [
            "0xddf252ad1be2c89b69c2b068fc378daa952ba7f163c4a11628f55a4df523b3ef",
            "0x0000000000000000000000000000000000000000000000000000000000000000",
            "0x000000000000000000000000cda2fdb452ff4f5d7ba1c3d5dfcc9cb926a5eb7d"
          ],
          "data": "0x00000000000000000000000000000000000000000000000000000002540be400",
          "blockHash": "0xf9bc006a41a1473c3342726faf04b0c46cf5f72ae95c1b1b3a2aab73c9b42f47",
          "blockNumber": "0x740042",
          "transactionHash": "0xa02f48f3acb0b3e57558c48b2f2c7b9677870a24a84c029f82720337e47b8f85",
          "transactionIndex": "0x50",
          "logIndex": "0x7d",
          "removed": false
        }
      ],
      "logsBloom": "0x00000000000000000000000000000000000000000000000000000000000000000000000000000000000000000000000000000000000000000000000000000000000000000000000000000008040000000000000000000000000008000000000000000000020000000000000000000800000000000000800000000010000000000000000000000000000000000000000000000000000000000000000000000000000000000100000000004000000000000000000000004000000000000000000000000002000000000000000000000000000000000000000000000000000020000000000000000000000000000000000000000000000000000000000000000000",
      "type": "0x2",
      "transactionHash": "0xa02f48f3acb0b3e57558c48b2f2c7b9677870a24a84c029f82720337e47b8f85",
      "transactionIndex": "0x50",
      "blockHash": "0xf9bc006a41a1473c3342726faf04b0c46cf5f72ae95c1b1b3a2aab73c9b42f47",
      "blockNumber": "0x740042",
      "gasUsed": "0xb287",
      "effectiveGasPrice": "0x59eec98c",
      "from": "0xcda2fdb452ff4f5d7ba1c3d5dfcc9cb926a5eb7d",
      "to": "0xc959483dba39aa9e78757139af0e9a2edeb3f42d",
      "contractAddress": null
    },
    {
      "status": "0x1",
      "cumulativeGasUsed": "0x7f7bf3",
      "logs": [
        {
          "address": "0x94a9d9ac8a22534e3faca9f4e7f2e2cf85d5e4c8",
          "topics": [
            "0xddf252ad1be2c89b69c2b068fc378daa952ba7f163c4a11628f55a4df523b3ef",
            "0x0000000000000000000000000000000000000000000000000000000000000000",
            "0x000000000000000000000000cda2fdb452ff4f5d7ba1c3d5dfcc9cb926a5eb7d"
          ],
          "data": "0x00000000000000000000000000000000000000000000000000000002540be400",
          "blockHash": "0xf9bc006a41a1473c3342726faf04b0c46cf5f72ae95c1b1b3a2aab73c9b42f47",
          "blockNumber": "0x740042",
          "transactionHash": "0x6962511468670c87c6a1ce62ff7cdf161f7902029ab884a1ad42f47f3e1c86b5",
          "transactionIndex": "0x51",
          "logIndex": "0x7e",
          "removed": false
        }
      ],
      "logsBloom": "0x00000000000000000000000000000000000000000000000000000000000000000000000000000000000000000000000000000000000000000000000000000000000000000000000000000008040000000000000000000000000008000000000000000000020000000000000000000800000000000000800000000010000000000000000000000000000000000000000000000000000000000000000000000000000000000100000000004000000000000000000000004000000000000000000000000002000000000000000000000000000000000000000000000000000020000000000000000000000000000000000000000000000000000000000000000000",
      "type": "0x2",
      "transactionHash": "0x6962511468670c87c6a1ce62ff7cdf161f7902029ab884a1ad42f47f3e1c86b5",
      "transactionIndex": "0x51",
      "blockHash": "0xf9bc006a41a1473c3342726faf04b0c46cf5f72ae95c1b1b3a2aab73c9b42f47",
      "blockNumber": "0x740042",
      "gasUsed": "0xb287",
      "effectiveGasPrice": "0x59eec98c",
      "from": "0xcda2fdb452ff4f5d7ba1c3d5dfcc9cb926a5eb7d",
      "to": "0xc959483dba39aa9e78757139af0e9a2edeb3f42d",
      "contractAddress": null
    },
    {
      "status": "0x1",
      "cumulativeGasUsed": "0x802e7a",
      "logs": [
        {
          "address": "0x94a9d9ac8a22534e3faca9f4e7f2e2cf85d5e4c8",
          "topics": [
            "0xddf252ad1be2c89b69c2b068fc378daa952ba7f163c4a11628f55a4df523b3ef",
            "0x0000000000000000000000000000000000000000000000000000000000000000",
            "0x000000000000000000000000cda2fdb452ff4f5d7ba1c3d5dfcc9cb926a5eb7d"
          ],
          "data": "0x00000000000000000000000000000000000000000000000000000002540be400",
          "blockHash": "0xf9bc006a41a1473c3342726faf04b0c46cf5f72ae95c1b1b3a2aab73c9b42f47",
          "blockNumber": "0x740042",
          "transactionHash": "0x9a62dd90600295d54ee237a75a5094974781a012eb0eb032ea0ed315737ceb0b",
          "transactionIndex": "0x52",
          "logIndex": "0x7f",
          "removed": false
        }
      ],
      "logsBloom": "0x00000000000000000000000000000000000000000000000000000000000000000000000000000000000000000000000000000000000000000000000000000000000000000000000000000008040000000000000000000000000008000000000000000000020000000000000000000800000000000000800000000010000000000000000000000000000000000000000000000000000000000000000000000000000000000100000000004000000000000000000000004000000000000000000000000002000000000000000000000000000000000000000000000000000020000000000000000000000000000000000000000000000000000000000000000000",
      "type": "0x2",
      "transactionHash": "0x9a62dd90600295d54ee237a75a5094974781a012eb0eb032ea0ed315737ceb0b",
      "transactionIndex": "0x52",
      "blockHash": "0xf9bc006a41a1473c3342726faf04b0c46cf5f72ae95c1b1b3a2aab73c9b42f47",
      "blockNumber": "0x740042",
      "gasUsed": "0xb287",
      "effectiveGasPrice": "0x59eec98c",
      "from": "0xcda2fdb452ff4f5d7ba1c3d5dfcc9cb926a5eb7d",
      "to": "0xc959483dba39aa9e78757139af0e9a2edeb3f42d",
      "contractAddress": null
    },
    {
      "status": "0x1",
      "cumulativeGasUsed": "0x80e101",
      "logs": [
        {
          "address": "0x94a9d9ac8a22534e3faca9f4e7f2e2cf85d5e4c8",
          "topics": [
            "0xddf252ad1be2c89b69c2b068fc378daa952ba7f163c4a11628f55a4df523b3ef",
            "0x0000000000000000000000000000000000000000000000000000000000000000",
            "0x000000000000000000000000cda2fdb452ff4f5d7ba1c3d5dfcc9cb926a5eb7d"
          ],
          "data": "0x00000000000000000000000000000000000000000000000000000002540be400",
          "blockHash": "0xf9bc006a41a1473c3342726faf04b0c46cf5f72ae95c1b1b3a2aab73c9b42f47",
          "blockNumber": "0x740042",
          "transactionHash": "0xb313dda9c1e510be78469046084e0bce1f11e1282aea910f456b02da2ed4613b",
          "transactionIndex": "0x53",
          "logIndex": "0x80",
          "removed": false
        }
      ],
      "logsBloom": "0x00000000000000000000000000000000000000000000000000000000000000000000000000000000000000000000000000000000000000000000000000000000000000000000000000000008040000000000000000000000000008000000000000000000020000000000000000000800000000000000800000000010000000000000000000000000000000000000000000000000000000000000000000000000000000000100000000004000000000000000000000004000000000000000000000000002000000000000000000000000000000000000000000000000000020000000000000000000000000000000000000000000000000000000000000000000",
      "type": "0x2",
      "transactionHash": "0xb313dda9c1e510be78469046084e0bce1f11e1282aea910f456b02da2ed4613b",
      "transactionIndex": "0x53",
      "blockHash": "0xf9bc006a41a1473c3342726faf04b0c46cf5f72ae95c1b1b3a2aab73c9b42f47",
      "blockNumber": "0x740042",
      "gasUsed": "0xb287",
      "effectiveGasPrice": "0x59eec98c",
      "from": "0xcda2fdb452ff4f5d7ba1c3d5dfcc9cb926a5eb7d",
      "to": "0xc959483dba39aa9e78757139af0e9a2edeb3f42d",
      "contractAddress": null
    },
    {
      "status": "0x1",
      "cumulativeGasUsed": "0x819388",
      "logs": [
        {
          "address": "0x94a9d9ac8a22534e3faca9f4e7f2e2cf85d5e4c8",
          "topics": [
            "0xddf252ad1be2c89b69c2b068fc378daa952ba7f163c4a11628f55a4df523b3ef",
            "0x0000000000000000000000000000000000000000000000000000000000000000",
            "0x000000000000000000000000cda2fdb452ff4f5d7ba1c3d5dfcc9cb926a5eb7d"
          ],
          "data": "0x00000000000000000000000000000000000000000000000000000002540be400",
          "blockHash": "0xf9bc006a41a1473c3342726faf04b0c46cf5f72ae95c1b1b3a2aab73c9b42f47",
          "blockNumber": "0x740042",
          "transactionHash": "0xb507718606d0b90dcc44b375ec7eec276bfa3153dbdce3264d65621dfb19c022",
          "transactionIndex": "0x54",
          "logIndex": "0x81",
          "removed": false
        }
      ],
      "logsBloom": "0x00000000000000000000000000000000000000000000000000000000000000000000000000000000000000000000000000000000000000000000000000000000000000000000000000000008040000000000000000000000000008000000000000000000020000000000000000000800000000000000800000000010000000000000000000000000000000000000000000000000000000000000000000000000000000000100000000004000000000000000000000004000000000000000000000000002000000000000000000000000000000000000000000000000000020000000000000000000000000000000000000000000000000000000000000000000",
      "type": "0x2",
      "transactionHash": "0xb507718606d0b90dcc44b375ec7eec276bfa3153dbdce3264d65621dfb19c022",
      "transactionIndex": "0x54",
      "blockHash": "0xf9bc006a41a1473c3342726faf04b0c46cf5f72ae95c1b1b3a2aab73c9b42f47",
      "blockNumber": "0x740042",
      "gasUsed": "0xb287",
      "effectiveGasPrice": "0x59eec98c",
      "from": "0xcda2fdb452ff4f5d7ba1c3d5dfcc9cb926a5eb7d",
      "to": "0xc959483dba39aa9e78757139af0e9a2edeb3f42d",
      "contractAddress": null
    },
    {
      "status": "0x1",
      "cumulativeGasUsed": "0x13c96e5",
      "logs": [
        {
          "address": "0x94a9d9ac8a22534e3faca9f4e7f2e2cf85d5e4c8",
          "topics": [
            "0xddf252ad1be2c89b69c2b068fc378daa952ba7f163c4a11628f55a4df523b3ef",
            "0x0000000000000000000000000000000000000000000000000000000000000000",
            "0x000000000000000000000000cda2fdb452ff4f5d7ba1c3d5dfcc9cb926a5eb7d"
          ],
          "data": "0x00000000000000000000000000000000000000000000000000000002540be400",
          "blockHash": "0x9dfb4469a01a7fc476201ec6f2605bfb7b7eb3035f95e93c2d58b364e9f81a9e",
          "blockNumber": "0x740043",
          "transactionHash": "0xcfce6248999ba8be7e66a929fd02c247e5d52960f617a21c1073278ed34367ca",
          "transactionIndex": "0xc1",
          "logIndex": "0x13e",
          "removed": false
        }
      ],
      "logsBloom": "0x00000000000000000000000000000000000000000000000000000000000000000000000000000000000000000000000000000000000000000000000000000000000000000000000000000008040000000000000000000000000008000000000000000000020000000000000000000800000000000000800000000010000000000000000000000000000000000000000000000000000000000000000000000000000000000100000000004000000000000000000000004000000000000000000000000002000000000000000000000000000000000000000000000000000020000000000000000000000000000000000000000000000000000000000000000000",
      "type": "0x2",
      "transactionHash": "0xcfce6248999ba8be7e66a929fd02c247e5d52960f617a21c1073278ed34367ca",
      "transactionIndex": "0xc1",
      "blockHash": "0x9dfb4469a01a7fc476201ec6f2605bfb7b7eb3035f95e93c2d58b364e9f81a9e",
      "blockNumber": "0x740043",
      "gasUsed": "0xb287",
      "effectiveGasPrice": "0x57b93e2b",
      "from": "0xcda2fdb452ff4f5d7ba1c3d5dfcc9cb926a5eb7d",
      "to": "0xc959483dba39aa9e78757139af0e9a2edeb3f42d",
      "contractAddress": null
    },
    {
      "status": "0x1",
      "cumulativeGasUsed": "0x13d496c",
      "logs": [
        {
          "address": "0x94a9d9ac8a22534e3faca9f4e7f2e2cf85d5e4c8",
          "topics": [
            "0xddf252ad1be2c89b69c2b068fc378daa952ba7f163c4a11628f55a4df523b3ef",
            "0x0000000000000000000000000000000000000000000000000000000000000000",
            "0x000000000000000000000000cda2fdb452ff4f5d7ba1c3d5dfcc9cb926a5eb7d"
          ],
          "data": "0x00000000000000000000000000000000000000000000000000000002540be400",
          "blockHash": "0x9dfb4469a01a7fc476201ec6f2605bfb7b7eb3035f95e93c2d58b364e9f81a9e",
          "blockNumber": "0x740043",
          "transactionHash": "0xfb00b50fe9695a075efec5084283c1715348ccd5b5fe55f729eb413596835c8e",
          "transactionIndex": "0xc2",
          "logIndex": "0x13f",
          "removed": false
        }
      ],
      "logsBloom": "0x00000000000000000000000000000000000000000000000000000000000000000000000000000000000000000000000000000000000000000000000000000000000000000000000000000008040000000000000000000000000008000000000000000000020000000000000000000800000000000000800000000010000000000000000000000000000000000000000000000000000000000000000000000000000000000100000000004000000000000000000000004000000000000000000000000002000000000000000000000000000000000000000000000000000020000000000000000000000000000000000000000000000000000000000000000000",
      "type": "0x2",
      "transactionHash": "0xfb00b50fe9695a075efec5084283c1715348ccd5b5fe55f729eb413596835c8e",
      "transactionIndex": "0xc2",
      "blockHash": "0x9dfb4469a01a7fc476201ec6f2605bfb7b7eb3035f95e93c2d58b364e9f81a9e",
      "blockNumber": "0x740043",
      "gasUsed": "0xb287",
      "effectiveGasPrice": "0x57b93e2b",
      "from": "0xcda2fdb452ff4f5d7ba1c3d5dfcc9cb926a5eb7d",
      "to": "0xc959483dba39aa9e78757139af0e9a2edeb3f42d",
      "contractAddress": null
    },
    {
      "status": "0x1",
      "cumulativeGasUsed": "0x13dfbf3",
      "logs": [
        {
          "address": "0x94a9d9ac8a22534e3faca9f4e7f2e2cf85d5e4c8",
          "topics": [
            "0xddf252ad1be2c89b69c2b068fc378daa952ba7f163c4a11628f55a4df523b3ef",
            "0x0000000000000000000000000000000000000000000000000000000000000000",
            "0x000000000000000000000000cda2fdb452ff4f5d7ba1c3d5dfcc9cb926a5eb7d"
          ],
          "data": "0x00000000000000000000000000000000000000000000000000000002540be400",
          "blockHash": "0x9dfb4469a01a7fc476201ec6f2605bfb7b7eb3035f95e93c2d58b364e9f81a9e",
          "blockNumber": "0x740043",
          "transactionHash": "0x9d9f0a452c53468f95c51aad4c899e183bce6692aca5f9a37d23c73669641430",
          "transactionIndex": "0xc3",
          "logIndex": "0x140",
          "removed": false
        }
      ],
      "logsBloom": "0x00000000000000000000000000000000000000000000000000000000000000000000000000000000000000000000000000000000000000000000000000000000000000000000000000000008040000000000000000000000000008000000000000000000020000000000000000000800000000000000800000000010000000000000000000000000000000000000000000000000000000000000000000000000000000000100000000004000000000000000000000004000000000000000000000000002000000000000000000000000000000000000000000000000000020000000000000000000000000000000000000000000000000000000000000000000",
      "type": "0x2",
      "transactionHash": "0x9d9f0a452c53468f95c51aad4c899e183bce6692aca5f9a37d23c73669641430",
      "transactionIndex": "0xc3",
      "blockHash": "0x9dfb4469a01a7fc476201ec6f2605bfb7b7eb3035f95e93c2d58b364e9f81a9e",
      "blockNumber": "0x740043",
      "gasUsed": "0xb287",
      "effectiveGasPrice": "0x57b93e2b",
      "from": "0xcda2fdb452ff4f5d7ba1c3d5dfcc9cb926a5eb7d",
      "to": "0xc959483dba39aa9e78757139af0e9a2edeb3f42d",
      "contractAddress": null
    },
    {
      "status": "0x1",
      "cumulativeGasUsed": "0x13eae7a",
      "logs": [
        {
          "address": "0x94a9d9ac8a22534e3faca9f4e7f2e2cf85d5e4c8",
          "topics": [
            "0xddf252ad1be2c89b69c2b068fc378daa952ba7f163c4a11628f55a4df523b3ef",
            "0x0000000000000000000000000000000000000000000000000000000000000000",
            "0x000000000000000000000000cda2fdb452ff4f5d7ba1c3d5dfcc9cb926a5eb7d"
          ],
          "data": "0x00000000000000000000000000000000000000000000000000000002540be400",
          "blockHash": "0x9dfb4469a01a7fc476201ec6f2605bfb7b7eb3035f95e93c2d58b364e9f81a9e",
          "blockNumber": "0x740043",
          "transactionHash": "0x6cfb3abda6e31a6b82b2bcc15a5a38da1878962711914acbcd42e7f2b053fe46",
          "transactionIndex": "0xc4",
          "logIndex": "0x141",
          "removed": false
        }
      ],
      "logsBloom": "0x00000000000000000000000000000000000000000000000000000000000000000000000000000000000000000000000000000000000000000000000000000000000000000000000000000008040000000000000000000000000008000000000000000000020000000000000000000800000000000000800000000010000000000000000000000000000000000000000000000000000000000000000000000000000000000100000000004000000000000000000000004000000000000000000000000002000000000000000000000000000000000000000000000000000020000000000000000000000000000000000000000000000000000000000000000000",
      "type": "0x2",
      "transactionHash": "0x6cfb3abda6e31a6b82b2bcc15a5a38da1878962711914acbcd42e7f2b053fe46",
      "transactionIndex": "0xc4",
      "blockHash": "0x9dfb4469a01a7fc476201ec6f2605bfb7b7eb3035f95e93c2d58b364e9f81a9e",
      "blockNumber": "0x740043",
      "gasUsed": "0xb287",
      "effectiveGasPrice": "0x57b93e2b",
      "from": "0xcda2fdb452ff4f5d7ba1c3d5dfcc9cb926a5eb7d",
      "to": "0xc959483dba39aa9e78757139af0e9a2edeb3f42d",
      "contractAddress": null
    }
  ],
  "libraries": [],
  "pending": [],
  "returns": {},
  "timestamp": 1738229894,
  "chain": 11155111,
  "commit": "c03c0fa"
}