{
  "transactions": [
    {
      "hash": "0x00e443d10bceaf15ba024c11ac863a732fb84b82cd9385f0441ca374f166f694",
      "transactionType": "CALL",
      "contractName": null,
      "contractAddress": "0x5f44d7a840a27aced8532ced411e2f059366638c",
      "function": "burnShare(uint256)",
      "arguments": [
        "5000000000000000000000"
      ],
      "transaction": {
        "from": "0xcda2fdb452ff4f5d7ba1c3d5dfcc9cb926a5eb7d",
        "to": "0x5f44d7a840a27aced8532ced411e2f059366638c",
        "gas": "0xcf46",
        "value": "0x0",
        "input": "0x0ebc2d2300000000000000000000000000000000000000000000010f0cf064dd59200000",
        "nonce": "0x1a1",
        "chainId": "0xaa36a7"
      },
      "additionalContracts": [],
      "isFixedGasLimit": false
    }
  ],
  "receipts": [
    {
      "status": "0x1",
      "cumulativeGasUsed": "0x7b7d26",
      "logs": [
        {
          "address": "0x5f44d7a840a27aced8532ced411e2f059366638c",
          "topics": [
            "0xddf252ad1be2c89b69c2b068fc378daa952ba7f163c4a11628f55a4df523b3ef",
            "0x000000000000000000000000cda2fdb452ff4f5d7ba1c3d5dfcc9cb926a5eb7d",
            "0x0000000000000000000000000000000000000000000000000000000000000000"
          ],
          "data": "0x00000000000000000000000000000000000000000000010f0cf064dd59200000",
          "blockHash": "0x4524d98a9dae6f05f2438b8fdac66b68c65e9432b40e0b1d98def5cdb9ed252e",
          "blockNumber": "0x7454fa",
          "transactionHash": "0x00e443d10bceaf15ba024c11ac863a732fb84b82cd9385f0441ca374f166f694",
          "transactionIndex": "0x50",
          "logIndex": "0x8a",
          "removed": false
        }
      ],
      "logsBloom": "0x00000000000000000000000000000000000000000000000000000000000000000000000000000000000000000000000000000000000000000000000000000000000000000000100000000008040000000000000000000000000000000000000000000000020000000000000000000800000000000000800000000010000000000000000000000000000000000000000000000000000000000000000000000000000000000000000000000000000000000000000000004000000000000000000080000002000000000000000000000000000000000000000000000000000020000000000000000000000020000000000000000000000000000000000000000000",
      "type": "0x2",
      "transactionHash": "0x00e443d10bceaf15ba024c11ac863a732fb84b82cd9385f0441ca374f166f694",
      "transactionIndex": "0x50",
      "blockHash": "0x4524d98a9dae6f05f2438b8fdac66b68c65e9432b40e0b1d98def5cdb9ed252e",
      "blockNumber": "0x7454fa",
      "gasUsed": "0x8dba",
      "effectiveGasPrice": "0xc289ee41",
      "from": "0xcda2fdb452ff4f5d7ba1c3d5dfcc9cb926a5eb7d",
      "to": "0x5f44d7a840a27aced8532ced411e2f059366638c",
      "contractAddress": null
    }
  ],
  "libraries": [],
  "pending": [],
  "returns": {},
  "timestamp": 1738495528,
  "chain": 11155111,
  "commit": "c03c0fa"
}