{
  "transactions": [
    {
      "hash": "0xfdb70b9ab6f7476f1768f08fc30ba56974c62ea50e90e90107fc2ff4d1e116de",
      "transactionType": "CALL",
      "contractName": null,
      "contractAddress": "0x79dfbed14077b8f2421eece5707a17b161094e6a",
      "function": "wlMint(address)",
      "arguments": [
        "0x0000000000000000000000000000000000000000"
      ],
      "transaction": {
        "from": "0xcda2fdb452ff4f5d7ba1c3d5dfcc9cb926a5eb7d",
        "to": "0x79dfbed14077b8f2421eece5707a17b161094e6a",
        "gas": "0x3ddf7",
        "value": "0x0",
        "input": "0xc517b4a50000000000000000000000000000000000000000000000000000000000000000",
        "nonce": "0x1de0",
        "chainId": "0xed88"
      },
      "additionalContracts": [],
      "isFixedGasLimit": false
    },
    {
      "hash": "0x31b988cafcacd21f6dfe264f5877ce9ebc44482a656622e43115f98ad55d6c5e",
      "transactionType": "CALL",
      "contractName": null,
      "contractAddress": "0x79dfbed14077b8f2421eece5707a17b161094e6a",
      "function": "wlMint(address)",
      "arguments": [
        "0x0000000000000000000000000000000000000000"
      ],
      "transaction": {
        "from": "0xcda2fdb452ff4f5d7ba1c3d5dfcc9cb926a5eb7d",
        "to": "0x79dfbed14077b8f2421eece5707a17b161094e6a",
        "gas": "0x3ddf7",
        "value": "0x0",
        "input": "0xc517b4a50000000000000000000000000000000000000000000000000000000000000000",
        "nonce": "0x1de1",
        "chainId": "0xed88"
      },
      "additionalContracts": [],
      "isFixedGasLimit": false
    },
    {
      "hash": "0x4df76b830c2a5e8c66323a7df8df66839d0a2f6c2c9c67271f885b7693dbbf61",
      "transactionType": "CALL",
      "contractName": null,
      "contractAddress": "0x79dfbed14077b8f2421eece5707a17b161094e6a",
      "function": "wlMint(address)",
      "arguments": [
        "0x0000000000000000000000000000000000000000"
      ],
      "transaction": {
        "from": "0xcda2fdb452ff4f5d7ba1c3d5dfcc9cb926a5eb7d",
        "to": "0x79dfbed14077b8f2421eece5707a17b161094e6a",
        "gas": "0x3ddf7",
        "value": "0x0",
        "input": "0xc517b4a50000000000000000000000000000000000000000000000000000000000000000",
        "nonce": "0x1de2",
        "chainId": "0xed88"
      },
      "additionalContracts": [],
      "isFixedGasLimit": false
    },
    {
      "hash": "0x468f5effd7ca46fc21582ce1c1053ec396fccf3ba2ad220dd427e04503fd0361",
      "transactionType": "CALL",
      "contractName": null,
      "contractAddress": "0x79dfbed14077b8f2421eece5707a17b161094e6a",
      "function": "wlMint(address)",
      "arguments": [
        "0x0000000000000000000000000000000000000000"
      ],
      "transaction": {
        "from": "0xcda2fdb452ff4f5d7ba1c3d5dfcc9cb926a5eb7d",
        "to": "0x79dfbed14077b8f2421eece5707a17b161094e6a",
        "gas": "0x3ddf7",
        "value": "0x0",
        "input": "0xc517b4a50000000000000000000000000000000000000000000000000000000000000000",
        "nonce": "0x1de3",
        "chainId": "0xed88"
      },
      "additionalContracts": [],
      "isFixedGasLimit": false
    },
    {
      "hash": "0x243674a12c3953842f4ba1911bfa67a71d2585fd09754ee94696fdbd201fbe10",
      "transactionType": "CALL",
      "contractName": null,
      "contractAddress": "0x79dfbed14077b8f2421eece5707a17b161094e6a",
      "function": "wlMint(address)",
      "arguments": [
        "0x0000000000000000000000000000000000000000"
      ],
      "transaction": {
        "from": "0xcda2fdb452ff4f5d7ba1c3d5dfcc9cb926a5eb7d",
        "to": "0x79dfbed14077b8f2421eece5707a17b161094e6a",
        "gas": "0x3ddf7",
        "value": "0x0",
        "input": "0xc517b4a50000000000000000000000000000000000000000000000000000000000000000",
        "nonce": "0x1de4",
        "chainId": "0xed88"
      },
      "additionalContracts": [],
      "isFixedGasLimit": false
    },
    {
      "hash": "0x00b8e52f52a8a7f12bc39e2613244c2e2d1a0559e45d96bae7e31f75e6eaa81f",
      "transactionType": "CALL",
      "contractName": null,
      "contractAddress": "0x79dfbed14077b8f2421eece5707a17b161094e6a",
      "function": "wlMint(address)",
      "arguments": [
        "0x0000000000000000000000000000000000000000"
      ],
      "transaction": {
        "from": "0xcda2fdb452ff4f5d7ba1c3d5dfcc9cb926a5eb7d",
        "to": "0x79dfbed14077b8f2421eece5707a17b161094e6a",
        "gas": "0x3ddf7",
        "value": "0x0",
        "input": "0xc517b4a50000000000000000000000000000000000000000000000000000000000000000",
        "nonce": "0x1de5",
        "chainId": "0xed88"
      },
      "additionalContracts": [],
      "isFixedGasLimit": false
    },
    {
      "hash": "0x43bd543af7888a57cd2a27a5392e94d594750554fb7c4c03400129dfd63e1e84",
      "transactionType": "CALL",
      "contractName": null,
      "contractAddress": "0x79dfbed14077b8f2421eece5707a17b161094e6a",
      "function": "wlMint(address)",
      "arguments": [
        "0x0000000000000000000000000000000000000000"
      ],
      "transaction": {
        "from": "0xcda2fdb452ff4f5d7ba1c3d5dfcc9cb926a5eb7d",
        "to": "0x79dfbed14077b8f2421eece5707a17b161094e6a",
        "gas": "0x3ddf7",
        "value": "0x0",
        "input": "0xc517b4a50000000000000000000000000000000000000000000000000000000000000000",
        "nonce": "0x1de6",
        "chainId": "0xed88"
      },
      "additionalContracts": [],
      "isFixedGasLimit": false
    },
    {
      "hash": "0x02795d7507ec88b4f5fd41db492838757184ffaa0dc6adbe201619ecd068b906",
      "transactionType": "CALL",
      "contractName": null,
      "contractAddress": "0x79dfbed14077b8f2421eece5707a17b161094e6a",
      "function": "wlMint(address)",
      "arguments": [
        "0x0000000000000000000000000000000000000000"
      ],
      "transaction": {
        "from": "0xcda2fdb452ff4f5d7ba1c3d5dfcc9cb926a5eb7d",
        "to": "0x79dfbed14077b8f2421eece5707a17b161094e6a",
        "gas": "0x3ddf7",
        "value": "0x0",
        "input": "0xc517b4a50000000000000000000000000000000000000000000000000000000000000000",
        "nonce": "0x1de7",
        "chainId": "0xed88"
      },
      "additionalContracts": [],
      "isFixedGasLimit": false
    },
    {
      "hash": "0x0c5d432865b936cf37976c14cfcc7942353b66730d95964e359a411025518bef",
      "transactionType": "CALL",
      "contractName": null,
      "contractAddress": "0x79dfbed14077b8f2421eece5707a17b161094e6a",
      "function": "wlMint(address)",
      "arguments": [
        "0x0000000000000000000000000000000000000000"
      ],
      "transaction": {
        "from": "0xcda2fdb452ff4f5d7ba1c3d5dfcc9cb926a5eb7d",
        "to": "0x79dfbed14077b8f2421eece5707a17b161094e6a",
        "gas": "0x3ddf7",
        "value": "0x0",
        "input": "0xc517b4a50000000000000000000000000000000000000000000000000000000000000000",
        "nonce": "0x1de8",
        "chainId": "0xed88"
      },
      "additionalContracts": [],
      "isFixedGasLimit": false
    },
    {
      "hash": "0x25d46e93dad70944fc294517bdf0f5e70871ec4967622da97647c083b5cb9909",
      "transactionType": "CALL",
      "contractName": null,
      "contractAddress": "0x79dfbed14077b8f2421eece5707a17b161094e6a",
      "function": "wlMint(address)",
      "arguments": [
        "0x0000000000000000000000000000000000000000"
      ],
      "transaction": {
        "from": "0xcda2fdb452ff4f5d7ba1c3d5dfcc9cb926a5eb7d",
        "to": "0x79dfbed14077b8f2421eece5707a17b161094e6a",
        "gas": "0x3ddf7",
        "value": "0x0",
        "input": "0xc517b4a50000000000000000000000000000000000000000000000000000000000000000",
        "nonce": "0x1de9",
        "chainId": "0xed88"
      },
      "additionalContracts": [],
      "isFixedGasLimit": false
    },
    {
      "hash": "0xe8572339dc1f9be4f0d14e9eca92c6270f4ea57e7945270966a59d3f0976cc6a",
      "transactionType": "CALL",
      "contractName": null,
      "contractAddress": "0x79dfbed14077b8f2421eece5707a17b161094e6a",
      "function": "wlMint(address)",
      "arguments": [
        "0x0000000000000000000000000000000000000000"
      ],
      "transaction": {
        "from": "0xcda2fdb452ff4f5d7ba1c3d5dfcc9cb926a5eb7d",
        "to": "0x79dfbed14077b8f2421eece5707a17b161094e6a",
        "gas": "0x3ddf7",
        "value": "0x0",
        "input": "0xc517b4a50000000000000000000000000000000000000000000000000000000000000000",
        "nonce": "0x1dea",
        "chainId": "0xed88"
      },
      "additionalContracts": [],
      "isFixedGasLimit": false
    },
    {
      "hash": "0x1d58aac7497f294f8416b6af252a3c50c99e31ef278b14840a427b9087ed60ab",
      "transactionType": "CALL",
      "contractName": null,
      "contractAddress": "0x79dfbed14077b8f2421eece5707a17b161094e6a",
      "function": "wlMint(address)",
      "arguments": [
        "0x0000000000000000000000000000000000000000"
      ],
      "transaction": {
        "from": "0xcda2fdb452ff4f5d7ba1c3d5dfcc9cb926a5eb7d",
        "to": "0x79dfbed14077b8f2421eece5707a17b161094e6a",
        "gas": "0x3ddf7",
        "value": "0x0",
        "input": "0xc517b4a50000000000000000000000000000000000000000000000000000000000000000",
        "nonce": "0x1deb",
        "chainId": "0xed88"
      },
      "additionalContracts": [],
      "isFixedGasLimit": false
    },
    {
      "hash": "0x5c3bb9ab8bee3141e60029c13d91228f8b302165d5ae83007c4e82764bb8025c",
      "transactionType": "CALL",
      "contractName": null,
      "contractAddress": "0x79dfbed14077b8f2421eece5707a17b161094e6a",
      "function": "wlMint(address)",
      "arguments": [
        "0x0000000000000000000000000000000000000000"
      ],
      "transaction": {
        "from": "0xcda2fdb452ff4f5d7ba1c3d5dfcc9cb926a5eb7d",
        "to": "0x79dfbed14077b8f2421eece5707a17b161094e6a",
        "gas": "0x3ddf7",
        "value": "0x0",
        "input": "0xc517b4a50000000000000000000000000000000000000000000000000000000000000000",
        "nonce": "0x1dec",
        "chainId": "0xed88"
      },
      "additionalContracts": [],
      "isFixedGasLimit": false
    },
    {
      "hash": "0x6929a295efb9c185bd8dfa2e1be8608390c91582345d4c50557fa441bb95dea9",
      "transactionType": "CALL",
      "contractName": null,
      "contractAddress": "0x79dfbed14077b8f2421eece5707a17b161094e6a",
      "function": "wlMint(address)",
      "arguments": [
        "0x0000000000000000000000000000000000000000"
      ],
      "transaction": {
        "from": "0xcda2fdb452ff4f5d7ba1c3d5dfcc9cb926a5eb7d",
        "to": "0x79dfbed14077b8f2421eece5707a17b161094e6a",
        "gas": "0x3ddf7",
        "value": "0x0",
        "input": "0xc517b4a50000000000000000000000000000000000000000000000000000000000000000",
        "nonce": "0x1ded",
        "chainId": "0xed88"
      },
      "additionalContracts": [],
      "isFixedGasLimit": false
    },
    {
      "hash": "0x3c02810f8759c5563bbc60bb19985d1df50815c6146f116cc3641c04a33bce7c",
      "transactionType": "CALL",
      "contractName": null,
      "contractAddress": "0x79dfbed14077b8f2421eece5707a17b161094e6a",
      "function": "wlMint(address)",
      "arguments": [
        "0x0000000000000000000000000000000000000000"
      ],
      "transaction": {
        "from": "0xcda2fdb452ff4f5d7ba1c3d5dfcc9cb926a5eb7d",
        "to": "0x79dfbed14077b8f2421eece5707a17b161094e6a",
        "gas": "0x3ddf7",
        "value": "0x0",
        "input": "0xc517b4a50000000000000000000000000000000000000000000000000000000000000000",
        "nonce": "0x1dee",
        "chainId": "0xed88"
      },
      "additionalContracts": [],
      "isFixedGasLimit": false
    },
    {
      "hash": "0x745da4b88c2d415ed366fdffb7da391f58ed04b8807fd043a7ea8c6c973d9b60",
      "transactionType": "CALL",
      "contractName": null,
      "contractAddress": "0x79dfbed14077b8f2421eece5707a17b161094e6a",
      "function": "wlMint(address)",
      "arguments": [
        "0x0000000000000000000000000000000000000000"
      ],
      "transaction": {
        "from": "0xcda2fdb452ff4f5d7ba1c3d5dfcc9cb926a5eb7d",
        "to": "0x79dfbed14077b8f2421eece5707a17b161094e6a",
        "gas": "0x3ddf7",
        "value": "0x0",
        "input": "0xc517b4a50000000000000000000000000000000000000000000000000000000000000000",
        "nonce": "0x1def",
        "chainId": "0xed88"
      },
      "additionalContracts": [],
      "isFixedGasLimit": false
    },
    {
      "hash": "0xe342ac621715bca4a104f297e7abfe82e96462323ad9e13f0a4fa3b278dd5eb6",
      "transactionType": "CALL",
      "contractName": null,
      "contractAddress": "0x79dfbed14077b8f2421eece5707a17b161094e6a",
      "function": "wlMint(address)",
      "arguments": [
        "0x0000000000000000000000000000000000000000"
      ],
      "transaction": {
        "from": "0xcda2fdb452ff4f5d7ba1c3d5dfcc9cb926a5eb7d",
        "to": "0x79dfbed14077b8f2421eece5707a17b161094e6a",
        "gas": "0x3ddf7",
        "value": "0x0",
        "input": "0xc517b4a50000000000000000000000000000000000000000000000000000000000000000",
        "nonce": "0x1df0",
        "chainId": "0xed88"
      },
      "additionalContracts": [],
      "isFixedGasLimit": false
    },
    {
      "hash": "0x91e038746c42bd6df557c51495807f6759b821b7a18a6ce8acf667b36dce52dc",
      "transactionType": "CALL",
      "contractName": null,
      "contractAddress": "0x79dfbed14077b8f2421eece5707a17b161094e6a",
      "function": "wlMint(address)",
      "arguments": [
        "0x0000000000000000000000000000000000000000"
      ],
      "transaction": {
        "from": "0xcda2fdb452ff4f5d7ba1c3d5dfcc9cb926a5eb7d",
        "to": "0x79dfbed14077b8f2421eece5707a17b161094e6a",
        "gas": "0x3ddf7",
        "value": "0x0",
        "input": "0xc517b4a50000000000000000000000000000000000000000000000000000000000000000",
        "nonce": "0x1df1",
        "chainId": "0xed88"
      },
      "additionalContracts": [],
      "isFixedGasLimit": false
    },
    {
      "hash": "0xccb28a49afe87c7374e04710d0a93c5bf6d980141e7721c898c97933ae584a68",
      "transactionType": "CALL",
      "contractName": null,
      "contractAddress": "0x79dfbed14077b8f2421eece5707a17b161094e6a",
      "function": "wlMint(address)",
      "arguments": [
        "0x0000000000000000000000000000000000000000"
      ],
      "transaction": {
        "from": "0xcda2fdb452ff4f5d7ba1c3d5dfcc9cb926a5eb7d",
        "to": "0x79dfbed14077b8f2421eece5707a17b161094e6a",
        "gas": "0x3ddf7",
        "value": "0x0",
        "input": "0xc517b4a50000000000000000000000000000000000000000000000000000000000000000",
        "nonce": "0x1df2",
        "chainId": "0xed88"
      },
      "additionalContracts": [],
      "isFixedGasLimit": false
    },
    {
      "hash": "0x948fe72e99b14c8c21fa4b938bb31ef8b33e243ea2831958ac6696912a6d30d1",
      "transactionType": "CALL",
      "contractName": null,
      "contractAddress": "0x79dfbed14077b8f2421eece5707a17b161094e6a",
      "function": "wlMint(address)",
      "arguments": [
        "0x0000000000000000000000000000000000000000"
      ],
      "transaction": {
        "from": "0xcda2fdb452ff4f5d7ba1c3d5dfcc9cb926a5eb7d",
        "to": "0x79dfbed14077b8f2421eece5707a17b161094e6a",
        "gas": "0x3ddf7",
        "value": "0x0",
        "input": "0xc517b4a50000000000000000000000000000000000000000000000000000000000000000",
        "nonce": "0x1df3",
        "chainId": "0xed88"
      },
      "additionalContracts": [],
      "isFixedGasLimit": false
    },
    {
      "hash": "0x539b73076f3d92fdcff3f9a526c6834715265988615c6a4bda9d6c5b9a0ec3b3",
      "transactionType": "CALL",
      "contractName": null,
      "contractAddress": "0x79dfbed14077b8f2421eece5707a17b161094e6a",
      "function": "wlMint(address)",
      "arguments": [
        "0x0000000000000000000000000000000000000000"
      ],
      "transaction": {
        "from": "0xcda2fdb452ff4f5d7ba1c3d5dfcc9cb926a5eb7d",
        "to": "0x79dfbed14077b8f2421eece5707a17b161094e6a",
        "gas": "0x3ddf7",
        "value": "0x0",
        "input": "0xc517b4a50000000000000000000000000000000000000000000000000000000000000000",
        "nonce": "0x1df4",
        "chainId": "0xed88"
      },
      "additionalContracts": [],
      "isFixedGasLimit": false
    },
    {
      "hash": "0x10fdc92d3085e06d1250ee72acb2c50818982618e1f0e75389150d92e81148d2",
      "transactionType": "CALL",
      "contractName": null,
      "contractAddress": "0x79dfbed14077b8f2421eece5707a17b161094e6a",
      "function": "wlMint(address)",
      "arguments": [
        "0x0000000000000000000000000000000000000000"
      ],
      "transaction": {
        "from": "0xcda2fdb452ff4f5d7ba1c3d5dfcc9cb926a5eb7d",
        "to": "0x79dfbed14077b8f2421eece5707a17b161094e6a",
        "gas": "0x3ddf7",
        "value": "0x0",
        "input": "0xc517b4a50000000000000000000000000000000000000000000000000000000000000000",
        "nonce": "0x1df5",
        "chainId": "0xed88"
      },
      "additionalContracts": [],
      "isFixedGasLimit": false
    },
    {
      "hash": "0xf959d0513ab4547d78387def0ad5d8cca09e3ed6ae03840adb1597e501d3d42b",
      "transactionType": "CALL",
      "contractName": null,
      "contractAddress": "0x79dfbed14077b8f2421eece5707a17b161094e6a",
      "function": "wlMint(address)",
      "arguments": [
        "0x0000000000000000000000000000000000000000"
      ],
      "transaction": {
        "from": "0xcda2fdb452ff4f5d7ba1c3d5dfcc9cb926a5eb7d",
        "to": "0x79dfbed14077b8f2421eece5707a17b161094e6a",
        "gas": "0x3ddf7",
        "value": "0x0",
        "input": "0xc517b4a50000000000000000000000000000000000000000000000000000000000000000",
        "nonce": "0x1df6",
        "chainId": "0xed88"
      },
      "additionalContracts": [],
      "isFixedGasLimit": false
    },
    {
      "hash": "0x6565a486c9e073621c47d498955761896231a5b59dacbf73fc9424850749f2a0",
      "transactionType": "CALL",
      "contractName": null,
      "contractAddress": "0x79dfbed14077b8f2421eece5707a17b161094e6a",
      "function": "wlMint(address)",
      "arguments": [
        "0x0000000000000000000000000000000000000000"
      ],
      "transaction": {
        "from": "0xcda2fdb452ff4f5d7ba1c3d5dfcc9cb926a5eb7d",
        "to": "0x79dfbed14077b8f2421eece5707a17b161094e6a",
        "gas": "0x3ddf7",
        "value": "0x0",
        "input": "0xc517b4a50000000000000000000000000000000000000000000000000000000000000000",
        "nonce": "0x1df7",
        "chainId": "0xed88"
      },
      "additionalContracts": [],
      "isFixedGasLimit": false
    },
    {
      "hash": "0xd59275444e9f1dc8c361629620b3d7149405b0c33eb54756ab307167f068a73a",
      "transactionType": "CALL",
      "contractName": null,
      "contractAddress": "0x79dfbed14077b8f2421eece5707a17b161094e6a",
      "function": "wlMint(address)",
      "arguments": [
        "0x0000000000000000000000000000000000000000"
      ],
      "transaction": {
        "from": "0xcda2fdb452ff4f5d7ba1c3d5dfcc9cb926a5eb7d",
        "to": "0x79dfbed14077b8f2421eece5707a17b161094e6a",
        "gas": "0x3ddf7",
        "value": "0x0",
        "input": "0xc517b4a50000000000000000000000000000000000000000000000000000000000000000",
        "nonce": "0x1df8",
        "chainId": "0xed88"
      },
      "additionalContracts": [],
      "isFixedGasLimit": false
    },
    {
      "hash": "0x79f6e154d0ce26fd522df436d2a026e2b9993122a5cf1dc4fda247e1c8cee4fb",
      "transactionType": "CALL",
      "contractName": null,
      "contractAddress": "0x79dfbed14077b8f2421eece5707a17b161094e6a",
      "function": "wlMint(address)",
      "arguments": [
        "0x0000000000000000000000000000000000000000"
      ],
      "transaction": {
        "from": "0xcda2fdb452ff4f5d7ba1c3d5dfcc9cb926a5eb7d",
        "to": "0x79dfbed14077b8f2421eece5707a17b161094e6a",
        "gas": "0x3ddf7",
        "value": "0x0",
        "input": "0xc517b4a50000000000000000000000000000000000000000000000000000000000000000",
        "nonce": "0x1df9",
        "chainId": "0xed88"
      },
      "additionalContracts": [],
      "isFixedGasLimit": false
    },
    {
      "hash": "0xffead2ff0a718e9e40552c50ee452684e293d04410e21d34f148c9cd10569a5c",
      "transactionType": "CALL",
      "contractName": null,
      "contractAddress": "0x79dfbed14077b8f2421eece5707a17b161094e6a",
      "function": "wlMint(address)",
      "arguments": [
        "0x0000000000000000000000000000000000000000"
      ],
      "transaction": {
        "from": "0xcda2fdb452ff4f5d7ba1c3d5dfcc9cb926a5eb7d",
        "to": "0x79dfbed14077b8f2421eece5707a17b161094e6a",
        "gas": "0x3ddf7",
        "value": "0x0",
        "input": "0xc517b4a50000000000000000000000000000000000000000000000000000000000000000",
        "nonce": "0x1dfa",
        "chainId": "0xed88"
      },
      "additionalContracts": [],
      "isFixedGasLimit": false
    },
    {
      "hash": "0x2f3e52eeb380347d355e140b8c58ef7cb1a3ec5a293f46f7849ea94254c1ab93",
      "transactionType": "CALL",
      "contractName": null,
      "contractAddress": "0x79dfbed14077b8f2421eece5707a17b161094e6a",
      "function": "wlMint(address)",
      "arguments": [
        "0x0000000000000000000000000000000000000000"
      ],
      "transaction": {
        "from": "0xcda2fdb452ff4f5d7ba1c3d5dfcc9cb926a5eb7d",
        "to": "0x79dfbed14077b8f2421eece5707a17b161094e6a",
        "gas": "0x3ddf7",
        "value": "0x0",
        "input": "0xc517b4a50000000000000000000000000000000000000000000000000000000000000000",
        "nonce": "0x1dfb",
        "chainId": "0xed88"
      },
      "additionalContracts": [],
      "isFixedGasLimit": false
    },
    {
      "hash": "0x86a5a0311d1c283da9df1794b62949de4d86002719a524c2d0f413fd3e4e8218",
      "transactionType": "CALL",
      "contractName": null,
      "contractAddress": "0x79dfbed14077b8f2421eece5707a17b161094e6a",
      "function": "wlMint(address)",
      "arguments": [
        "0x0000000000000000000000000000000000000000"
      ],
      "transaction": {
        "from": "0xcda2fdb452ff4f5d7ba1c3d5dfcc9cb926a5eb7d",
        "to": "0x79dfbed14077b8f2421eece5707a17b161094e6a",
        "gas": "0x3ddf7",
        "value": "0x0",
        "input": "0xc517b4a50000000000000000000000000000000000000000000000000000000000000000",
        "nonce": "0x1dfc",
        "chainId": "0xed88"
      },
      "additionalContracts": [],
      "isFixedGasLimit": false
    },
    {
      "hash": "0x73864071145baf53dce405aad12106375d6d38a225de6b97ebbf2cbda995403a",
      "transactionType": "CALL",
      "contractName": null,
      "contractAddress": "0x79dfbed14077b8f2421eece5707a17b161094e6a",
      "function": "wlMint(address)",
      "arguments": [
        "0x0000000000000000000000000000000000000000"
      ],
      "transaction": {
        "from": "0xcda2fdb452ff4f5d7ba1c3d5dfcc9cb926a5eb7d",
        "to": "0x79dfbed14077b8f2421eece5707a17b161094e6a",
        "gas": "0x3ddf7",
        "value": "0x0",
        "input": "0xc517b4a50000000000000000000000000000000000000000000000000000000000000000",
        "nonce": "0x1dfd",
        "chainId": "0xed88"
      },
      "additionalContracts": [],
      "isFixedGasLimit": false
    }
  ],
  "receipts": [
    {
      "status": "0x1",
      "cumulativeGasUsed": "0x20207d",
      "logs": [
        {
          "address": "0x2e8af9c5922623058aa92a183b391e62cb6b2d12",
          "topics": [
            "0xddf252ad1be2c89b69c2b068fc378daa952ba7f163c4a11628f55a4df523b3ef",
            "0x0000000000000000000000000000000000000000000000000000000000000000",
            "0x000000000000000000000000cda2fdb452ff4f5d7ba1c3d5dfcc9cb926a5eb7d",
            "0x00000000000000000000000000000000000000000000000000000000000001d6"
          ],
          "data": "0x",
          "blockHash": "0x93ead7af092507f46fd4ba550a56a99118b505d80a16aca6f79b258fe8f6abf5",
          "blockNumber": "0x75127b",
          "transactionHash": "0xfdb70b9ab6f7476f1768f08fc30ba56974c62ea50e90e90107fc2ff4d1e116de",
          "transactionIndex": "0x3",
          "logIndex": "0x35",
          "removed": false
        },
        {
          "address": "0x2e8af9c5922623058aa92a183b391e62cb6b2d12",
          "topics": [
            "0xf8e1a15aba9398e019f0b49df1a4fde98ee17ae345cb5f6b5e2c27f5033e8ce7"
          ],
          "data": "0x00000000000000000000000000000000000000000000000000000000000001d6",
          "blockHash": "0x93ead7af092507f46fd4ba550a56a99118b505d80a16aca6f79b258fe8f6abf5",
          "blockNumber": "0x75127b",
          "transactionHash": "0xfdb70b9ab6f7476f1768f08fc30ba56974c62ea50e90e90107fc2ff4d1e116de",
          "transactionIndex": "0x3",
          "logIndex": "0x36",
          "removed": false
        }
      ],
      "logsBloom": "0x00000000000000000000000000000000000000020000000000000000001000000100000000000000000000000000000000000000000000000000000000000000000000000000000000000008040000000000000000000000000000000000000000000000020000000000000000000800002000000010800000000010000000000000000000000000000000000000000000000000000000000000000000000000000000000000000000000000000000002000000000004000000000000000008000000002000000000000000000000000000000000000000000000000000020000000000000000000200000000000000000000000100000000000000000000000",
      "type": "0x2",
      "transactionHash": "0xfdb70b9ab6f7476f1768f08fc30ba56974c62ea50e90e90107fc2ff4d1e116de",
      "transactionIndex": "0x3",
      "blockHash": "0x93ead7af092507f46fd4ba550a56a99118b505d80a16aca6f79b258fe8f6abf5",
      "blockNumber": "0x75127b",
      "gasUsed": "0x2ccb8",
      "effectiveGasPrice": "0xfd",
      "from": "0xcda2fdb452ff4f5d7ba1c3d5dfcc9cb926a5eb7d",
      "to": "0x79dfbed14077b8f2421eece5707a17b161094e6a",
      "contractAddress": null,
      "l1BaseFeeScalar": "0x186a0",
      "l1BlobBaseFee": "0x1",
      "l1BlobBaseFeeScalar": "0x95506",
      "l1Fee": "0x191afe7f33d",
      "l1GasPrice": "0x282b30cb8",
      "l1GasUsed": "0x640"
    },
    {
      "status": "0x1",
      "cumulativeGasUsed": "0x22ed35",
      "logs": [
        {
          "address": "0x2e8af9c5922623058aa92a183b391e62cb6b2d12",
          "topics": [
            "0xddf252ad1be2c89b69c2b068fc378daa952ba7f163c4a11628f55a4df523b3ef",
            "0x0000000000000000000000000000000000000000000000000000000000000000",
            "0x000000000000000000000000cda2fdb452ff4f5d7ba1c3d5dfcc9cb926a5eb7d",
            "0x00000000000000000000000000000000000000000000000000000000000001d7"
          ],
          "data": "0x",
          "blockHash": "0x93ead7af092507f46fd4ba550a56a99118b505d80a16aca6f79b258fe8f6abf5",
          "blockNumber": "0x75127b",
          "transactionHash": "0x31b988cafcacd21f6dfe264f5877ce9ebc44482a656622e43115f98ad55d6c5e",
          "transactionIndex": "0x4",
          "logIndex": "0x37",
          "removed": false
        },
        {
          "address": "0x2e8af9c5922623058aa92a183b391e62cb6b2d12",
          "topics": [
            "0xf8e1a15aba9398e019f0b49df1a4fde98ee17ae345cb5f6b5e2c27f5033e8ce7"
          ],
          "data": "0x00000000000000000000000000000000000000000000000000000000000001d7",
          "blockHash": "0x93ead7af092507f46fd4ba550a56a99118b505d80a16aca6f79b258fe8f6abf5",
          "blockNumber": "0x75127b",
          "transactionHash": "0x31b988cafcacd21f6dfe264f5877ce9ebc44482a656622e43115f98ad55d6c5e",
          "transactionIndex": "0x4",
          "logIndex": "0x38",
          "removed": false
        }
      ],
      "logsBloom": "0x00000000000000000000000000000000004000020000000000000000000000000000000000000000000000008000000000000000000000000000000000000000000000000000000000000008040000000000000000000000000000000000000000000000020000000000000000000800002000000000800000000010000000000000000000000000000000000000000000000000400000000000000000000000000000000000000000000000000000002000000000004000000000000000008000000002000000000000000000000000000000000000000000000000000020000000000000000000200000000000000000000000100000000000000000000000",
      "type": "0x2",
      "transactionHash": "0x31b988cafcacd21f6dfe264f5877ce9ebc44482a656622e43115f98ad55d6c5e",
      "transactionIndex": "0x4",
      "blockHash": "0x93ead7af092507f46fd4ba550a56a99118b505d80a16aca6f79b258fe8f6abf5",
      "blockNumber": "0x75127b",
      "gasUsed": "0x2ccb8",
      "effectiveGasPrice": "0xfd",
      "from": "0xcda2fdb452ff4f5d7ba1c3d5dfcc9cb926a5eb7d",
      "to": "0x79dfbed14077b8f2421eece5707a17b161094e6a",
      "contractAddress": null,
      "l1BaseFeeScalar": "0x186a0",
      "l1BlobBaseFee": "0x1",
      "l1BlobBaseFeeScalar": "0x95506",
      "l1Fee": "0x191afe7f33d",
      "l1GasPrice": "0x282b30cb8",
      "l1GasUsed": "0x640"
    },
    {
      "status": "0x1",
      "cumulativeGasUsed": "0x25b9ed",
      "logs": [
        {
          "address": "0x2e8af9c5922623058aa92a183b391e62cb6b2d12",
          "topics": [
            "0xddf252ad1be2c89b69c2b068fc378daa952ba7f163c4a11628f55a4df523b3ef",
            "0x0000000000000000000000000000000000000000000000000000000000000000",
            "0x000000000000000000000000cda2fdb452ff4f5d7ba1c3d5dfcc9cb926a5eb7d",
            "0x00000000000000000000000000000000000000000000000000000000000001d8"
          ],
          "data": "0x",
          "blockHash": "0x93ead7af092507f46fd4ba550a56a99118b505d80a16aca6f79b258fe8f6abf5",
          "blockNumber": "0x75127b",
          "transactionHash": "0x4df76b830c2a5e8c66323a7df8df66839d0a2f6c2c9c67271f885b7693dbbf61",
          "transactionIndex": "0x5",
          "logIndex": "0x39",
          "removed": false
        },
        {
          "address": "0x2e8af9c5922623058aa92a183b391e62cb6b2d12",
          "topics": [
            "0xf8e1a15aba9398e019f0b49df1a4fde98ee17ae345cb5f6b5e2c27f5033e8ce7"
          ],
          "data": "0x00000000000000000000000000000000000000000000000000000000000001d8",
          "blockHash": "0x93ead7af092507f46fd4ba550a56a99118b505d80a16aca6f79b258fe8f6abf5",
          "blockNumber": "0x75127b",
          "transactionHash": "0x4df76b830c2a5e8c66323a7df8df66839d0a2f6c2c9c67271f885b7693dbbf61",
          "transactionIndex": "0x5",
          "logIndex": "0x3a",
          "removed": false
        }
      ],
      "logsBloom": "0x00000000000000000000000000000000000000020000000000000000000000000000000000000000000000000000000000000000000000000000000000000000000000000000000000000008040000000000000000000000000000000000000000000000020000010000000000000800002000000000800000000010000000000000000000000000000400000000000000000010000000000000000000000000000000000000000000000000000000002000000000004000000000000000008000000002000000000000000000000000000000000000000000000000000020000000000000000000200000000000000000000000100000000000000000000000",
      "type": "0x2",
      "transactionHash": "0x4df76b830c2a5e8c66323a7df8df66839d0a2f6c2c9c67271f885b7693dbbf61",
      "transactionIndex": "0x5",
      "blockHash": "0x93ead7af092507f46fd4ba550a56a99118b505d80a16aca6f79b258fe8f6abf5",
      "blockNumber": "0x75127b",
      "gasUsed": "0x2ccb8",
      "effectiveGasPrice": "0xfd",
      "from": "0xcda2fdb452ff4f5d7ba1c3d5dfcc9cb926a5eb7d",
      "to": "0x79dfbed14077b8f2421eece5707a17b161094e6a",
      "contractAddress": null,
      "l1BaseFeeScalar": "0x186a0",
      "l1BlobBaseFee": "0x1",
      "l1BlobBaseFeeScalar": "0x95506",
      "l1Fee": "0x191afe7f33d",
      "l1GasPrice": "0x282b30cb8",
      "l1GasUsed": "0x640"
    },
    {
      "status": "0x1",
      "cumulativeGasUsed": "0x2886a5",
      "logs": [
        {
          "address": "0x2e8af9c5922623058aa92a183b391e62cb6b2d12",
          "topics": [
            "0xddf252ad1be2c89b69c2b068fc378daa952ba7f163c4a11628f55a4df523b3ef",
            "0x0000000000000000000000000000000000000000000000000000000000000000",
            "0x000000000000000000000000cda2fdb452ff4f5d7ba1c3d5dfcc9cb926a5eb7d",
            "0x00000000000000000000000000000000000000000000000000000000000001d9"
          ],
          "data": "0x",
          "blockHash": "0x93ead7af092507f46fd4ba550a56a99118b505d80a16aca6f79b258fe8f6abf5",
          "blockNumber": "0x75127b",
          "transactionHash": "0x468f5effd7ca46fc21582ce1c1053ec396fccf3ba2ad220dd427e04503fd0361",
          "transactionIndex": "0x6",
          "logIndex": "0x3b",
          "removed": false
        },
        {
          "address": "0x2e8af9c5922623058aa92a183b391e62cb6b2d12",
          "topics": [
            "0xf8e1a15aba9398e019f0b49df1a4fde98ee17ae345cb5f6b5e2c27f5033e8ce7"
          ],
          "data": "0x00000000000000000000000000000000000000000000000000000000000001d9",
          "blockHash": "0x93ead7af092507f46fd4ba550a56a99118b505d80a16aca6f79b258fe8f6abf5",
          "blockNumber": "0x75127b",
          "transactionHash": "0x468f5effd7ca46fc21582ce1c1053ec396fccf3ba2ad220dd427e04503fd0361",
          "transactionIndex": "0x6",
          "logIndex": "0x3c",
          "removed": false
        }
      ],
      "logsBloom": "0x00000000020000000000000000000000000000020000000000000000000000000000000000000000000000000000000000000000000000000000000000000000000000000000004000000008040000000000000000000000000000000000000000000000020000000000000000040800002000000000800000000010000000000000000000000000000000000000000000000000000000000000000000000000000000000000000000000000000000002000000000004000000000000000008000000002000000000000000000000000000000000000000000000000000020000000000000000000200000000000000000000000100000000000000000000000",
      "type": "0x2",
      "transactionHash": "0x468f5effd7ca46fc21582ce1c1053ec396fccf3ba2ad220dd427e04503fd0361",
      "transactionIndex": "0x6",
      "blockHash": "0x93ead7af092507f46fd4ba550a56a99118b505d80a16aca6f79b258fe8f6abf5",
      "blockNumber": "0x75127b",
      "gasUsed": "0x2ccb8",
      "effectiveGasPrice": "0xfd",
      "from": "0xcda2fdb452ff4f5d7ba1c3d5dfcc9cb926a5eb7d",
      "to": "0x79dfbed14077b8f2421eece5707a17b161094e6a",
      "contractAddress": null,
      "l1BaseFeeScalar": "0x186a0",
      "l1BlobBaseFee": "0x1",
      "l1BlobBaseFeeScalar": "0x95506",
      "l1Fee": "0x191afe7f33d",
      "l1GasPrice": "0x282b30cb8",
      "l1GasUsed": "0x640"
    },
    {
      "status": "0x1",
      "cumulativeGasUsed": "0x2b535d",
      "logs": [
        {
          "address": "0x2e8af9c5922623058aa92a183b391e62cb6b2d12",
          "topics": [
            "0xddf252ad1be2c89b69c2b068fc378daa952ba7f163c4a11628f55a4df523b3ef",
            "0x0000000000000000000000000000000000000000000000000000000000000000",
            "0x000000000000000000000000cda2fdb452ff4f5d7ba1c3d5dfcc9cb926a5eb7d",
            "0x00000000000000000000000000000000000000000000000000000000000001da"
          ],
          "data": "0x",
          "blockHash": "0x93ead7af092507f46fd4ba550a56a99118b505d80a16aca6f79b258fe8f6abf5",
          "blockNumber": "0x75127b",
          "transactionHash": "0x243674a12c3953842f4ba1911bfa67a71d2585fd09754ee94696fdbd201fbe10",
          "transactionIndex": "0x7",
          "logIndex": "0x3d",
          "removed": false
        },
        {
          "address": "0x2e8af9c5922623058aa92a183b391e62cb6b2d12",
          "topics": [
            "0xf8e1a15aba9398e019f0b49df1a4fde98ee17ae345cb5f6b5e2c27f5033e8ce7"
          ],
          "data": "0x00000000000000000000000000000000000000000000000000000000000001da",
          "blockHash": "0x93ead7af092507f46fd4ba550a56a99118b505d80a16aca6f79b258fe8f6abf5",
          "blockNumber": "0x75127b",
          "transactionHash": "0x243674a12c3953842f4ba1911bfa67a71d2585fd09754ee94696fdbd201fbe10",
          "transactionIndex": "0x7",
          "logIndex": "0x3e",
          "removed": false
        }
      ],
      "logsBloom": "0x00000000000000000000000000000000000000020000000000000000002000000000000000000000000000000000000000000000000000000000000000000000000000000001000000000008040000000000000000000000000000000000000000000000020000000000000000000800002000000000800000000010000000000000000000000000000000000000000000000000000000000040000000000000000000000000000000000000000000002000000000004000000000000000008000000002000000000000000000000000000000000000000000000000000020000000000000000000200000000000000000000000100000000000000000000000",
      "type": "0x2",
      "transactionHash": "0x243674a12c3953842f4ba1911bfa67a71d2585fd09754ee94696fdbd201fbe10",
      "transactionIndex": "0x7",
      "blockHash": "0x93ead7af092507f46fd4ba550a56a99118b505d80a16aca6f79b258fe8f6abf5",
      "blockNumber": "0x75127b",
      "gasUsed": "0x2ccb8",
      "effectiveGasPrice": "0xfd",
      "from": "0xcda2fdb452ff4f5d7ba1c3d5dfcc9cb926a5eb7d",
      "to": "0x79dfbed14077b8f2421eece5707a17b161094e6a",
      "contractAddress": null,
      "l1BaseFeeScalar": "0x186a0",
      "l1BlobBaseFee": "0x1",
      "l1BlobBaseFeeScalar": "0x95506",
      "l1Fee": "0x191afe7f33d",
      "l1GasPrice": "0x282b30cb8",
      "l1GasUsed": "0x640"
    },
    {
      "status": "0x1",
      "cumulativeGasUsed": "0x2e2015",
      "logs": [
        {
          "address": "0x2e8af9c5922623058aa92a183b391e62cb6b2d12",
          "topics": [
            "0xddf252ad1be2c89b69c2b068fc378daa952ba7f163c4a11628f55a4df523b3ef",
            "0x0000000000000000000000000000000000000000000000000000000000000000",
            "0x000000000000000000000000cda2fdb452ff4f5d7ba1c3d5dfcc9cb926a5eb7d",
            "0x00000000000000000000000000000000000000000000000000000000000001db"
          ],
          "data": "0x",
          "blockHash": "0x93ead7af092507f46fd4ba550a56a99118b505d80a16aca6f79b258fe8f6abf5",
          "blockNumber": "0x75127b",
          "transactionHash": "0x00b8e52f52a8a7f12bc39e2613244c2e2d1a0559e45d96bae7e31f75e6eaa81f",
          "transactionIndex": "0x8",
          "logIndex": "0x3f",
          "removed": false
        },
        {
          "address": "0x2e8af9c5922623058aa92a183b391e62cb6b2d12",
          "topics": [
            "0xf8e1a15aba9398e019f0b49df1a4fde98ee17ae345cb5f6b5e2c27f5033e8ce7"
          ],
          "data": "0x00000000000000000000000000000000000000000000000000000000000001db",
          "blockHash": "0x93ead7af092507f46fd4ba550a56a99118b505d80a16aca6f79b258fe8f6abf5",
          "blockNumber": "0x75127b",
          "transactionHash": "0x00b8e52f52a8a7f12bc39e2613244c2e2d1a0559e45d96bae7e31f75e6eaa81f",
          "transactionIndex": "0x8",
          "logIndex": "0x40",
          "removed": false
        }
      ],
      "logsBloom": "0x00000000000000000000000000000000000000020000000000000000000000000000000000000000000000000000000000000000000000000000000000000000000000000000000000000008040000000200000000000000000000000000000000000000020000000000000000000800002000000000800400000010000000000000000000000000000000000000000000000000000000000000000008000000000000000000000000000000000000002000000000004000000000000000008000000002000000000000000000000000000000000000000000000000000020000000000000000000200000000000000000000000100000000000000000000000",
      "type": "0x2",
      "transactionHash": "0x00b8e52f52a8a7f12bc39e2613244c2e2d1a0559e45d96bae7e31f75e6eaa81f",
      "transactionIndex": "0x8",
      "blockHash": "0x93ead7af092507f46fd4ba550a56a99118b505d80a16aca6f79b258fe8f6abf5",
      "blockNumber": "0x75127b",
      "gasUsed": "0x2ccb8",
      "effectiveGasPrice": "0xfd",
      "from": "0xcda2fdb452ff4f5d7ba1c3d5dfcc9cb926a5eb7d",
      "to": "0x79dfbed14077b8f2421eece5707a17b161094e6a",
      "contractAddress": null,
      "l1BaseFeeScalar": "0x186a0",
      "l1BlobBaseFee": "0x1",
      "l1BlobBaseFeeScalar": "0x95506",
      "l1Fee": "0x191afe7f33d",
      "l1GasPrice": "0x282b30cb8",
      "l1GasUsed": "0x640"
    },
    {
      "status": "0x1",
      "cumulativeGasUsed": "0x30eccd",
      "logs": [
        {
          "address": "0x2e8af9c5922623058aa92a183b391e62cb6b2d12",
          "topics": [
            "0xddf252ad1be2c89b69c2b068fc378daa952ba7f163c4a11628f55a4df523b3ef",
            "0x0000000000000000000000000000000000000000000000000000000000000000",
            "0x000000000000000000000000cda2fdb452ff4f5d7ba1c3d5dfcc9cb926a5eb7d",
            "0x00000000000000000000000000000000000000000000000000000000000001dc"
          ],
          "data": "0x",
          "blockHash": "0x93ead7af092507f46fd4ba550a56a99118b505d80a16aca6f79b258fe8f6abf5",
          "blockNumber": "0x75127b",
          "transactionHash": "0x43bd543af7888a57cd2a27a5392e94d594750554fb7c4c03400129dfd63e1e84",
          "transactionIndex": "0x9",
          "logIndex": "0x41",
          "removed": false
        },
        {
          "address": "0x2e8af9c5922623058aa92a183b391e62cb6b2d12",
          "topics": [
            "0xf8e1a15aba9398e019f0b49df1a4fde98ee17ae345cb5f6b5e2c27f5033e8ce7"
          ],
          "data": "0x00000000000000000000000000000000000000000000000000000000000001dc",
          "blockHash": "0x93ead7af092507f46fd4ba550a56a99118b505d80a16aca6f79b258fe8f6abf5",
          "blockNumber": "0x75127b",
          "transactionHash": "0x43bd543af7888a57cd2a27a5392e94d594750554fb7c4c03400129dfd63e1e84",
          "transactionIndex": "0x9",
          "logIndex": "0x42",
          "removed": false
        }
      ],
      "logsBloom": "0x00000008000000000000000000000000000000020000000000000010000000000000000000000000000000000000000000000000000000000000000000000000000000000000000000000008040000000000000000000000000000000080000000000000020000000000000000000800002000000000800000000010000000000000000000000000000000000000000000000000000000000000000000000000000000000000000000000000000000002000000000004000000000000000008000000002000000000000000000000000000000000000000000000000000020000000000000000000200000000000000000000000100000000000000000000000",
      "type": "0x2",
      "transactionHash": "0x43bd543af7888a57cd2a27a5392e94d594750554fb7c4c03400129dfd63e1e84",
      "transactionIndex": "0x9",
      "blockHash": "0x93ead7af092507f46fd4ba550a56a99118b505d80a16aca6f79b258fe8f6abf5",
      "blockNumber": "0x75127b",
      "gasUsed": "0x2ccb8",
      "effectiveGasPrice": "0xfd",
      "from": "0xcda2fdb452ff4f5d7ba1c3d5dfcc9cb926a5eb7d",
      "to": "0x79dfbed14077b8f2421eece5707a17b161094e6a",
      "contractAddress": null,
      "l1BaseFeeScalar": "0x186a0",
      "l1BlobBaseFee": "0x1",
      "l1BlobBaseFeeScalar": "0x95506",
      "l1Fee": "0x191afe7f33d",
      "l1GasPrice": "0x282b30cb8",
      "l1GasUsed": "0x640"
    },
    {
      "status": "0x1",
      "cumulativeGasUsed": "0x33b985",
      "logs": [
        {
          "address": "0x2e8af9c5922623058aa92a183b391e62cb6b2d12",
          "topics": [
            "0xddf252ad1be2c89b69c2b068fc378daa952ba7f163c4a11628f55a4df523b3ef",
            "0x0000000000000000000000000000000000000000000000000000000000000000",
            "0x000000000000000000000000cda2fdb452ff4f5d7ba1c3d5dfcc9cb926a5eb7d",
            "0x00000000000000000000000000000000000000000000000000000000000001dd"
          ],
          "data": "0x",
          "blockHash": "0x93ead7af092507f46fd4ba550a56a99118b505d80a16aca6f79b258fe8f6abf5",
          "blockNumber": "0x75127b",
          "transactionHash": "0x02795d7507ec88b4f5fd41db492838757184ffaa0dc6adbe201619ecd068b906",
          "transactionIndex": "0xa",
          "logIndex": "0x43",
          "removed": false
        },
        {
          "address": "0x2e8af9c5922623058aa92a183b391e62cb6b2d12",
          "topics": [
            "0xf8e1a15aba9398e019f0b49df1a4fde98ee17ae345cb5f6b5e2c27f5033e8ce7"
          ],
          "data": "0x00000000000000000000000000000000000000000000000000000000000001dd",
          "blockHash": "0x93ead7af092507f46fd4ba550a56a99118b505d80a16aca6f79b258fe8f6abf5",
          "blockNumber": "0x75127b",
          "transactionHash": "0x02795d7507ec88b4f5fd41db492838757184ffaa0dc6adbe201619ecd068b906",
          "transactionIndex": "0xa",
          "logIndex": "0x44",
          "removed": false
        }
      ],
      "logsBloom": "0x00000000000000000000000000000000000000020000000000000000000000000000000000000000000000000000000000000000000000000000000000000800000000000000000000000008040000000000004000000000000000000000000000000000020000000000000000000800002000000000800000000010000000000000000000000000000000000000000000000000000000000000000000000000000000000000000000000000000000002000002000004000000000000000008000000002000000000000000000000000000000000000000000000000000020000000000000000000200000000000000000000000100000000000000000000000",
      "type": "0x2",
      "transactionHash": "0x02795d7507ec88b4f5fd41db492838757184ffaa0dc6adbe201619ecd068b906",
      "transactionIndex": "0xa",
      "blockHash": "0x93ead7af092507f46fd4ba550a56a99118b505d80a16aca6f79b258fe8f6abf5",
      "blockNumber": "0x75127b",
      "gasUsed": "0x2ccb8",
      "effectiveGasPrice": "0xfd",
      "from": "0xcda2fdb452ff4f5d7ba1c3d5dfcc9cb926a5eb7d",
      "to": "0x79dfbed14077b8f2421eece5707a17b161094e6a",
      "contractAddress": null,
      "l1BaseFeeScalar": "0x186a0",
      "l1BlobBaseFee": "0x1",
      "l1BlobBaseFeeScalar": "0x95506",
      "l1Fee": "0x191afe7f33d",
      "l1GasPrice": "0x282b30cb8",
      "l1GasUsed": "0x640"
    },
    {
      "status": "0x1",
      "cumulativeGasUsed": "0x36863d",
      "logs": [
        {
          "address": "0x2e8af9c5922623058aa92a183b391e62cb6b2d12",
          "topics": [
            "0xddf252ad1be2c89b69c2b068fc378daa952ba7f163c4a11628f55a4df523b3ef",
            "0x0000000000000000000000000000000000000000000000000000000000000000",
            "0x000000000000000000000000cda2fdb452ff4f5d7ba1c3d5dfcc9cb926a5eb7d",
            "0x00000000000000000000000000000000000000000000000000000000000001de"
          ],
          "data": "0x",
          "blockHash": "0x93ead7af092507f46fd4ba550a56a99118b505d80a16aca6f79b258fe8f6abf5",
          "blockNumber": "0x75127b",
          "transactionHash": "0x0c5d432865b936cf37976c14cfcc7942353b66730d95964e359a411025518bef",
          "transactionIndex": "0xb",
          "logIndex": "0x45",
          "removed": false
        },
        {
          "address": "0x2e8af9c5922623058aa92a183b391e62cb6b2d12",
          "topics": [
            "0xf8e1a15aba9398e019f0b49df1a4fde98ee17ae345cb5f6b5e2c27f5033e8ce7"
          ],
          "data": "0x00000000000000000000000000000000000000000000000000000000000001de",
          "blockHash": "0x93ead7af092507f46fd4ba550a56a99118b505d80a16aca6f79b258fe8f6abf5",
          "blockNumber": "0x75127b",
          "transactionHash": "0x0c5d432865b936cf37976c14cfcc7942353b66730d95964e359a411025518bef",
          "transactionIndex": "0xb",
          "logIndex": "0x46",
          "removed": false
        }
      ],
      "logsBloom": "0x00000000400000000000000000000000000000020000000000000000000000000000000000000000000000000000000000000000000000000000000000000000000000000000000000000008040000000000000000000000000000000000000000000000060000000000000000000800002000000000800000000010000000000000000000040000000000000000000000000000000000000000000000000000000000000000000000000000000000002000000000004000000000000000008000000002000000000000000000000000000000000000000000000000000020000000000000000000200000000000000000000000100000000000000000000000",
      "type": "0x2",
      "transactionHash": "0x0c5d432865b936cf37976c14cfcc7942353b66730d95964e359a411025518bef",
      "transactionIndex": "0xb",
      "blockHash": "0x93ead7af092507f46fd4ba550a56a99118b505d80a16aca6f79b258fe8f6abf5",
      "blockNumber": "0x75127b",
      "gasUsed": "0x2ccb8",
      "effectiveGasPrice": "0xfd",
      "from": "0xcda2fdb452ff4f5d7ba1c3d5dfcc9cb926a5eb7d",
      "to": "0x79dfbed14077b8f2421eece5707a17b161094e6a",
      "contractAddress": null,
      "l1BaseFeeScalar": "0x186a0",
      "l1BlobBaseFee": "0x1",
      "l1BlobBaseFeeScalar": "0x95506",
      "l1Fee": "0x191afe7f33d",
      "l1GasPrice": "0x282b30cb8",
      "l1GasUsed": "0x640"
    },
    {
      "status": "0x1",
      "cumulativeGasUsed": "0x3952f5",
      "logs": [
        {
          "address": "0x2e8af9c5922623058aa92a183b391e62cb6b2d12",
          "topics": [
            "0xddf252ad1be2c89b69c2b068fc378daa952ba7f163c4a11628f55a4df523b3ef",
            "0x0000000000000000000000000000000000000000000000000000000000000000",
            "0x000000000000000000000000cda2fdb452ff4f5d7ba1c3d5dfcc9cb926a5eb7d",
            "0x00000000000000000000000000000000000000000000000000000000000001df"
          ],
          "data": "0x",
          "blockHash": "0x93ead7af092507f46fd4ba550a56a99118b505d80a16aca6f79b258fe8f6abf5",
          "blockNumber": "0x75127b",
          "transactionHash": "0x25d46e93dad70944fc294517bdf0f5e70871ec4967622da97647c083b5cb9909",
          "transactionIndex": "0xc",
          "logIndex": "0x47",
          "removed": false
        },
        {
          "address": "0x2e8af9c5922623058aa92a183b391e62cb6b2d12",
          "topics": [
            "0xf8e1a15aba9398e019f0b49df1a4fde98ee17ae345cb5f6b5e2c27f5033e8ce7"
          ],
          "data": "0x00000000000000000000000000000000000000000000000000000000000001df",
          "blockHash": "0x93ead7af092507f46fd4ba550a56a99118b505d80a16aca6f79b258fe8f6abf5",
          "blockNumber": "0x75127b",
          "transactionHash": "0x25d46e93dad70944fc294517bdf0f5e70871ec4967622da97647c083b5cb9909",
          "transactionIndex": "0xc",
          "logIndex": "0x48",
          "removed": false
        }
      ],
      "logsBloom": "0x00000000000000000000000000000000000000020000000000000000000000000000000000000000000000000000000000000000000000000000000000000000000000000000000000800008040000000000000000010000000000000000000000000000020000000000000000000800002000000000800000000010000000000000000000000000000000000000000000000000000000000000000000000000800000000000000000000000000000002000000000004000000000000000008000000002000000000000000000000000000000000000000000000000000020000000000000000000200000000000000000000000100000000000000000000000",
      "type": "0x2",
      "transactionHash": "0x25d46e93dad70944fc294517bdf0f5e70871ec4967622da97647c083b5cb9909",
      "transactionIndex": "0xc",
      "blockHash": "0x93ead7af092507f46fd4ba550a56a99118b505d80a16aca6f79b258fe8f6abf5",
      "blockNumber": "0x75127b",
      "gasUsed": "0x2ccb8",
      "effectiveGasPrice": "0xfd",
      "from": "0xcda2fdb452ff4f5d7ba1c3d5dfcc9cb926a5eb7d",
      "to": "0x79dfbed14077b8f2421eece5707a17b161094e6a",
      "contractAddress": null,
      "l1BaseFeeScalar": "0x186a0",
      "l1BlobBaseFee": "0x1",
      "l1BlobBaseFeeScalar": "0x95506",
      "l1Fee": "0x191afe7f33d",
      "l1GasPrice": "0x282b30cb8",
      "l1GasUsed": "0x640"
    },
    {
      "status": "0x1",
      "cumulativeGasUsed": "0x3c1fad",
      "logs": [
        {
          "address": "0x2e8af9c5922623058aa92a183b391e62cb6b2d12",
          "topics": [
            "0xddf252ad1be2c89b69c2b068fc378daa952ba7f163c4a11628f55a4df523b3ef",
            "0x0000000000000000000000000000000000000000000000000000000000000000",
            "0x000000000000000000000000cda2fdb452ff4f5d7ba1c3d5dfcc9cb926a5eb7d",
            "0x00000000000000000000000000000000000000000000000000000000000001e0"
          ],
          "data": "0x",
          "blockHash": "0x93ead7af092507f46fd4ba550a56a99118b505d80a16aca6f79b258fe8f6abf5",
          "blockNumber": "0x75127b",
          "transactionHash": "0xe8572339dc1f9be4f0d14e9eca92c6270f4ea57e7945270966a59d3f0976cc6a",
          "transactionIndex": "0xd",
          "logIndex": "0x49",
          "removed": false
        },
        {
          "address": "0x2e8af9c5922623058aa92a183b391e62cb6b2d12",
          "topics": [
            "0xf8e1a15aba9398e019f0b49df1a4fde98ee17ae345cb5f6b5e2c27f5033e8ce7"
          ],
          "data": "0x00000000000000000000000000000000000000000000000000000000000001e0",
          "blockHash": "0x93ead7af092507f46fd4ba550a56a99118b505d80a16aca6f79b258fe8f6abf5",
          "blockNumber": "0x75127b",
          "transactionHash": "0xe8572339dc1f9be4f0d14e9eca92c6270f4ea57e7945270966a59d3f0976cc6a",
          "transactionIndex": "0xd",
          "logIndex": "0x4a",
          "removed": false
        }
      ],
      "logsBloom": "0x00000000000000000000000000000000000000020000000000000000000000000000000000000000000000000000000000000000000000000000000000000000000000000000000000000008040000000000000000000000000000000000000000000000020000000000000000000800002000000000800000000010000000000000000000000000000000000000000000000000000000000000000000000000000000000000000000000000000000002000000000004000000000000000048000000002400000000000000000000000000000000000000000000000000020000000000000000000200000000000000000000000108000000000000000000000",
      "type": "0x2",
      "transactionHash": "0xe8572339dc1f9be4f0d14e9eca92c6270f4ea57e7945270966a59d3f0976cc6a",
      "transactionIndex": "0xd",
      "blockHash": "0x93ead7af092507f46fd4ba550a56a99118b505d80a16aca6f79b258fe8f6abf5",
      "blockNumber": "0x75127b",
      "gasUsed": "0x2ccb8",
      "effectiveGasPrice": "0xfd",
      "from": "0xcda2fdb452ff4f5d7ba1c3d5dfcc9cb926a5eb7d",
      "to": "0x79dfbed14077b8f2421eece5707a17b161094e6a",
      "contractAddress": null,
      "l1BaseFeeScalar": "0x186a0",
      "l1BlobBaseFee": "0x1",
      "l1BlobBaseFeeScalar": "0x95506",
      "l1Fee": "0x191afe7f33d",
      "l1GasPrice": "0x282b30cb8",
      "l1GasUsed": "0x640"
    },
    {
      "status": "0x1",
      "cumulativeGasUsed": "0x3eec65",
      "logs": [
        {
          "address": "0x2e8af9c5922623058aa92a183b391e62cb6b2d12",
          "topics": [
            "0xddf252ad1be2c89b69c2b068fc378daa952ba7f163c4a11628f55a4df523b3ef",
            "0x0000000000000000000000000000000000000000000000000000000000000000",
            "0x000000000000000000000000cda2fdb452ff4f5d7ba1c3d5dfcc9cb926a5eb7d",
            "0x00000000000000000000000000000000000000000000000000000000000001e1"
          ],
          "data": "0x",
          "blockHash": "0x93ead7af092507f46fd4ba550a56a99118b505d80a16aca6f79b258fe8f6abf5",
          "blockNumber": "0x75127b",
          "transactionHash": "0x1d58aac7497f294f8416b6af252a3c50c99e31ef278b14840a427b9087ed60ab",
          "transactionIndex": "0xe",
          "logIndex": "0x4b",
          "removed": false
        },
        {
          "address": "0x2e8af9c5922623058aa92a183b391e62cb6b2d12",
          "topics": [
            "0xf8e1a15aba9398e019f0b49df1a4fde98ee17ae345cb5f6b5e2c27f5033e8ce7"
          ],
          "data": "0x00000000000000000000000000000000000000000000000000000000000001e1",
          "blockHash": "0x93ead7af092507f46fd4ba550a56a99118b505d80a16aca6f79b258fe8f6abf5",
          "blockNumber": "0x75127b",
          "transactionHash": "0x1d58aac7497f294f8416b6af252a3c50c99e31ef278b14840a427b9087ed60ab",
          "transactionIndex": "0xe",
          "logIndex": "0x4c",
          "removed": false
        }
      ],
      "logsBloom": "0x00000000000000000000000000000000000000020000000000000000000000000000000080000000000000000000000000000000800000000000000000000000000000000000000000000008040000000000000000000000000000000000000000000000020000000002000000000800002000000000800000000010000000000000000000000000000000000000000000000000000000000000000000000000000000000000000000000000000000002000000000004000000000000000008000000002000000000000000000000000000000000000000000000000000020000000000000000000200000000000000000000000100000000000000000000000",
      "type": "0x2",
      "transactionHash": "0x1d58aac7497f294f8416b6af252a3c50c99e31ef278b14840a427b9087ed60ab",
      "transactionIndex": "0xe",
      "blockHash": "0x93ead7af092507f46fd4ba550a56a99118b505d80a16aca6f79b258fe8f6abf5",
      "blockNumber": "0x75127b",
      "gasUsed": "0x2ccb8",
      "effectiveGasPrice": "0xfd",
      "from": "0xcda2fdb452ff4f5d7ba1c3d5dfcc9cb926a5eb7d",
      "to": "0x79dfbed14077b8f2421eece5707a17b161094e6a",
      "contractAddress": null,
      "l1BaseFeeScalar": "0x186a0",
      "l1BlobBaseFee": "0x1",
      "l1BlobBaseFeeScalar": "0x95506",
      "l1Fee": "0x191afe7f33d",
      "l1GasPrice": "0x282b30cb8",
      "l1GasUsed": "0x640"
    },
    {
      "status": "0x1",
      "cumulativeGasUsed": "0x41b91d",
      "logs": [
        {
          "address": "0x2e8af9c5922623058aa92a183b391e62cb6b2d12",
          "topics": [
            "0xddf252ad1be2c89b69c2b068fc378daa952ba7f163c4a11628f55a4df523b3ef",
            "0x0000000000000000000000000000000000000000000000000000000000000000",
            "0x000000000000000000000000cda2fdb452ff4f5d7ba1c3d5dfcc9cb926a5eb7d",
            "0x00000000000000000000000000000000000000000000000000000000000001e2"
          ],
          "data": "0x",
          "blockHash": "0x93ead7af092507f46fd4ba550a56a99118b505d80a16aca6f79b258fe8f6abf5",
          "blockNumber": "0x75127b",
          "transactionHash": "0x5c3bb9ab8bee3141e60029c13d91228f8b302165d5ae83007c4e82764bb8025c",
          "transactionIndex": "0xf",
          "logIndex": "0x4d",
          "removed": false
        },
        {
          "address": "0x2e8af9c5922623058aa92a183b391e62cb6b2d12",
          "topics": [
            "0xf8e1a15aba9398e019f0b49df1a4fde98ee17ae345cb5f6b5e2c27f5033e8ce7"
          ],
          "data": "0x00000000000000000000000000000000000000000000000000000000000001e2",
          "blockHash": "0x93ead7af092507f46fd4ba550a56a99118b505d80a16aca6f79b258fe8f6abf5",
          "blockNumber": "0x75127b",
          "transactionHash": "0x5c3bb9ab8bee3141e60029c13d91228f8b302165d5ae83007c4e82764bb8025c",
          "transactionIndex": "0xf",
          "logIndex": "0x4e",
          "removed": false
        }
      ],
      "logsBloom": "0x00000000000000000000000000000000000000020000000000000000000000000000000000000000000000000000000000000000000000000000000000000000000000000000000000000008040000000000000000000200000000000000000000000000020000000000000000000800002000000000800000000010000000000000000000000000000000000000000000000000000000000000000000000000000000000000000000000000000000002000000000004000000000000000008000000002000000000000000000000000000000000000000000000000000020000000000000000000200000000100000000200000100000000000000000000000",
      "type": "0x2",
      "transactionHash": "0x5c3bb9ab8bee3141e60029c13d91228f8b302165d5ae83007c4e82764bb8025c",
      "transactionIndex": "0xf",
      "blockHash": "0x93ead7af092507f46fd4ba550a56a99118b505d80a16aca6f79b258fe8f6abf5",
      "blockNumber": "0x75127b",
      "gasUsed": "0x2ccb8",
      "effectiveGasPrice": "0xfd",
      "from": "0xcda2fdb452ff4f5d7ba1c3d5dfcc9cb926a5eb7d",
      "to": "0x79dfbed14077b8f2421eece5707a17b161094e6a",
      "contractAddress": null,
      "l1BaseFeeScalar": "0x186a0",
      "l1BlobBaseFee": "0x1",
      "l1BlobBaseFeeScalar": "0x95506",
      "l1Fee": "0x191afe7f33d",
      "l1GasPrice": "0x282b30cb8",
      "l1GasUsed": "0x640"
    },
    {
      "status": "0x1",
      "cumulativeGasUsed": "0x4485d5",
      "logs": [
        {
          "address": "0x2e8af9c5922623058aa92a183b391e62cb6b2d12",
          "topics": [
            "0xddf252ad1be2c89b69c2b068fc378daa952ba7f163c4a11628f55a4df523b3ef",
            "0x0000000000000000000000000000000000000000000000000000000000000000",
            "0x000000000000000000000000cda2fdb452ff4f5d7ba1c3d5dfcc9cb926a5eb7d",
            "0x00000000000000000000000000000000000000000000000000000000000001e3"
          ],
          "data": "0x",
          "blockHash": "0x93ead7af092507f46fd4ba550a56a99118b505d80a16aca6f79b258fe8f6abf5",
          "blockNumber": "0x75127b",
          "transactionHash": "0x6929a295efb9c185bd8dfa2e1be8608390c91582345d4c50557fa441bb95dea9",
          "transactionIndex": "0x10",
          "logIndex": "0x4f",
          "removed": false
        },
        {
          "address": "0x2e8af9c5922623058aa92a183b391e62cb6b2d12",
          "topics": [
            "0xf8e1a15aba9398e019f0b49df1a4fde98ee17ae345cb5f6b5e2c27f5033e8ce7"
          ],
          "data": "0x00000000000000000000000000000000000000000000000000000000000001e3",
          "blockHash": "0x93ead7af092507f46fd4ba550a56a99118b505d80a16aca6f79b258fe8f6abf5",
          "blockNumber": "0x75127b",
          "transactionHash": "0x6929a295efb9c185bd8dfa2e1be8608390c91582345d4c50557fa441bb95dea9",
          "transactionIndex": "0x10",
          "logIndex": "0x50",
          "removed": false
        }
      ],
      "logsBloom": "0x00000000000000000000000000000000008000020000000000000000000000000000000000000000000000000000000000000000000000000000000000000000000000000000000000000008040000000000000000000000000000000000000000000000020000000000000000000800002000000000800000000010000000000000000000000000000000000000000000000000000000000000000000000000002000000000000000000000000000002000000000004000000000000000008000000002000000000000000000000000000000000000000000000000000020000000000000000000200000000000000000000000100800000000000000000000",
      "type": "0x2",
      "transactionHash": "0x6929a295efb9c185bd8dfa2e1be8608390c91582345d4c50557fa441bb95dea9",
      "transactionIndex": "0x10",
      "blockHash": "0x93ead7af092507f46fd4ba550a56a99118b505d80a16aca6f79b258fe8f6abf5",
      "blockNumber": "0x75127b",
      "gasUsed": "0x2ccb8",
      "effectiveGasPrice": "0xfd",
      "from": "0xcda2fdb452ff4f5d7ba1c3d5dfcc9cb926a5eb7d",
      "to": "0x79dfbed14077b8f2421eece5707a17b161094e6a",
      "contractAddress": null,
      "l1BaseFeeScalar": "0x186a0",
      "l1BlobBaseFee": "0x1",
      "l1BlobBaseFeeScalar": "0x95506",
      "l1Fee": "0x191afe7f33d",
      "l1GasPrice": "0x282b30cb8",
      "l1GasUsed": "0x640"
    },
    {
      "status": "0x1",
      "cumulativeGasUsed": "0x47528d",
      "logs": [
        {
          "address": "0x2e8af9c5922623058aa92a183b391e62cb6b2d12",
          "topics": [
            "0xddf252ad1be2c89b69c2b068fc378daa952ba7f163c4a11628f55a4df523b3ef",
            "0x0000000000000000000000000000000000000000000000000000000000000000",
            "0x000000000000000000000000cda2fdb452ff4f5d7ba1c3d5dfcc9cb926a5eb7d",
            "0x00000000000000000000000000000000000000000000000000000000000001e4"
          ],
          "data": "0x",
          "blockHash": "0x93ead7af092507f46fd4ba550a56a99118b505d80a16aca6f79b258fe8f6abf5",
          "blockNumber": "0x75127b",
          "transactionHash": "0x3c02810f8759c5563bbc60bb19985d1df50815c6146f116cc3641c04a33bce7c",
          "transactionIndex": "0x11",
          "logIndex": "0x51",
          "removed": false
        },
        {
          "address": "0x2e8af9c5922623058aa92a183b391e62cb6b2d12",
          "topics": [
            "0xf8e1a15aba9398e019f0b49df1a4fde98ee17ae345cb5f6b5e2c27f5033e8ce7"
          ],
          "data": "0x00000000000000000000000000000000000000000000000000000000000001e4",
          "blockHash": "0x93ead7af092507f46fd4ba550a56a99118b505d80a16aca6f79b258fe8f6abf5",
          "blockNumber": "0x75127b",
          "transactionHash": "0x3c02810f8759c5563bbc60bb19985d1df50815c6146f116cc3641c04a33bce7c",
          "transactionIndex": "0x11",
          "logIndex": "0x52",
          "removed": false
        }
      ],
      "logsBloom": "0x00000000000000000000000000000000040000020000000000000000000000000000000000000000000000000000000000000000000000000000000000000000000000000000000000000008040000000000000000000000000000000000000000000000020000000000000000000800002000000000800000000010000000000000000000000000000000000000000000000000000000000000001000000000000000000000000000000000000000002000000000004000000000000000008000000002000000000000000000000000000000000000000000000000000020000000000000000000200000000000000000000000100000000004000000000000",
      "type": "0x2",
      "transactionHash": "0x3c02810f8759c5563bbc60bb19985d1df50815c6146f116cc3641c04a33bce7c",
      "transactionIndex": "0x11",
      "blockHash": "0x93ead7af092507f46fd4ba550a56a99118b505d80a16aca6f79b258fe8f6abf5",
      "blockNumber": "0x75127b",
      "gasUsed": "0x2ccb8",
      "effectiveGasPrice": "0xfd",
      "from": "0xcda2fdb452ff4f5d7ba1c3d5dfcc9cb926a5eb7d",
      "to": "0x79dfbed14077b8f2421eece5707a17b161094e6a",
      "contractAddress": null,
      "l1BaseFeeScalar": "0x186a0",
      "l1BlobBaseFee": "0x1",
      "l1BlobBaseFeeScalar": "0x95506",
      "l1Fee": "0x191afe7f33d",
      "l1GasPrice": "0x282b30cb8",
      "l1GasUsed": "0x640"
    },
    {
      "status": "0x1",
      "cumulativeGasUsed": "0x4a1f45",
      "logs": [
        {
          "address": "0x2e8af9c5922623058aa92a183b391e62cb6b2d12",
          "topics": [
            "0xddf252ad1be2c89b69c2b068fc378daa952ba7f163c4a11628f55a4df523b3ef",
            "0x0000000000000000000000000000000000000000000000000000000000000000",
            "0x000000000000000000000000cda2fdb452ff4f5d7ba1c3d5dfcc9cb926a5eb7d",
            "0x00000000000000000000000000000000000000000000000000000000000001e5"
          ],
          "data": "0x",
          "blockHash": "0x93ead7af092507f46fd4ba550a56a99118b505d80a16aca6f79b258fe8f6abf5",
          "blockNumber": "0x75127b",
          "transactionHash": "0x745da4b88c2d415ed366fdffb7da391f58ed04b8807fd043a7ea8c6c973d9b60",
          "transactionIndex": "0x12",
          "logIndex": "0x53",
          "removed": false
        },
        {
          "address": "0x2e8af9c5922623058aa92a183b391e62cb6b2d12",
          "topics": [
            "0xf8e1a15aba9398e019f0b49df1a4fde98ee17ae345cb5f6b5e2c27f5033e8ce7"
          ],
          "data": "0x00000000000000000000000000000000000000000000000000000000000001e5",
          "blockHash": "0x93ead7af092507f46fd4ba550a56a99118b505d80a16aca6f79b258fe8f6abf5",
          "blockNumber": "0x75127b",
          "transactionHash": "0x745da4b88c2d415ed366fdffb7da391f58ed04b8807fd043a7ea8c6c973d9b60",
          "transactionIndex": "0x12",
          "logIndex": "0x54",
          "removed": false
        }
      ],
      "logsBloom": "0x00000000000000000000000000000000000000020000000000000000000000000000000000000000000000000000000000000000000000000000100000000000020000000000000000000008040000000000000000000000000000000000000000000000020000000000000000000800002000000000800000000010000000000000000000000000000000000000000000000000000000000000000000000000000000000000000000000000000000002000000000004000000000000000008000000002000000000000000000000000000000000000000000000000000020000000000000000000200000000000000000000000100000000000000000001000",
      "type": "0x2",
      "transactionHash": "0x745da4b88c2d415ed366fdffb7da391f58ed04b8807fd043a7ea8c6c973d9b60",
      "transactionIndex": "0x12",
      "blockHash": "0x93ead7af092507f46fd4ba550a56a99118b505d80a16aca6f79b258fe8f6abf5",
      "blockNumber": "0x75127b",
      "gasUsed": "0x2ccb8",
      "effectiveGasPrice": "0xfd",
      "from": "0xcda2fdb452ff4f5d7ba1c3d5dfcc9cb926a5eb7d",
      "to": "0x79dfbed14077b8f2421eece5707a17b161094e6a",
      "contractAddress": null,
      "l1BaseFeeScalar": "0x186a0",
      "l1BlobBaseFee": "0x1",
      "l1BlobBaseFeeScalar": "0x95506",
      "l1Fee": "0x191afe7f33d",
      "l1GasPrice": "0x282b30cb8",
      "l1GasUsed": "0x640"
    },
    {
      "status": "0x1",
      "cumulativeGasUsed": "0x4cebfd",
      "logs": [
        {
          "address": "0x2e8af9c5922623058aa92a183b391e62cb6b2d12",
          "topics": [
            "0xddf252ad1be2c89b69c2b068fc378daa952ba7f163c4a11628f55a4df523b3ef",
            "0x0000000000000000000000000000000000000000000000000000000000000000",
            "0x000000000000000000000000cda2fdb452ff4f5d7ba1c3d5dfcc9cb926a5eb7d",
            "0x00000000000000000000000000000000000000000000000000000000000001e6"
          ],
          "data": "0x",
          "blockHash": "0x93ead7af092507f46fd4ba550a56a99118b505d80a16aca6f79b258fe8f6abf5",
          "blockNumber": "0x75127b",
          "transactionHash": "0xe342ac621715bca4a104f297e7abfe82e96462323ad9e13f0a4fa3b278dd5eb6",
          "transactionIndex": "0x13",
          "logIndex": "0x55",
          "removed": false
        },
        {
          "address": "0x2e8af9c5922623058aa92a183b391e62cb6b2d12",
          "topics": [
            "0xf8e1a15aba9398e019f0b49df1a4fde98ee17ae345cb5f6b5e2c27f5033e8ce7"
          ],
          "data": "0x00000000000000000000000000000000000000000000000000000000000001e6",
          "blockHash": "0x93ead7af092507f46fd4ba550a56a99118b505d80a16aca6f79b258fe8f6abf5",
          "blockNumber": "0x75127b",
          "transactionHash": "0xe342ac621715bca4a104f297e7abfe82e96462323ad9e13f0a4fa3b278dd5eb6",
          "transactionIndex": "0x13",
          "logIndex": "0x56",
          "removed": false
        }
      ],
      "logsBloom": "0x00000000000000000000000000000000000000020000000000000000000000000000004000000000000000000000000000000000000000000000000000000000000000000000000000000008040000000000000000000000000000000100000000000000020000000000001000000800002000000000800000000010000000000000000000000000000000000000000000000000000000000000000000000000000000000000000000000000000000002000000000004000000000000000008000000002000000000000000000000000000000000000000000000000000020000000000000000000200000000000000000000000100000000000000000000000",
      "type": "0x2",
      "transactionHash": "0xe342ac621715bca4a104f297e7abfe82e96462323ad9e13f0a4fa3b278dd5eb6",
      "transactionIndex": "0x13",
      "blockHash": "0x93ead7af092507f46fd4ba550a56a99118b505d80a16aca6f79b258fe8f6abf5",
      "blockNumber": "0x75127b",
      "gasUsed": "0x2ccb8",
      "effectiveGasPrice": "0xfd",
      "from": "0xcda2fdb452ff4f5d7ba1c3d5dfcc9cb926a5eb7d",
      "to": "0x79dfbed14077b8f2421eece5707a17b161094e6a",
      "contractAddress": null,
      "l1BaseFeeScalar": "0x186a0",
      "l1BlobBaseFee": "0x1",
      "l1BlobBaseFeeScalar": "0x95506",
      "l1Fee": "0x191afe7f33d",
      "l1GasPrice": "0x282b30cb8",
      "l1GasUsed": "0x640"
    },
    {
      "status": "0x1",
      "cumulativeGasUsed": "0x4fb8b5",
      "logs": [
        {
          "address": "0x2e8af9c5922623058aa92a183b391e62cb6b2d12",
          "topics": [
            "0xddf252ad1be2c89b69c2b068fc378daa952ba7f163c4a11628f55a4df523b3ef",
            "0x0000000000000000000000000000000000000000000000000000000000000000",
            "0x000000000000000000000000cda2fdb452ff4f5d7ba1c3d5dfcc9cb926a5eb7d",
            "0x00000000000000000000000000000000000000000000000000000000000001e7"
          ],
          "data": "0x",
          "blockHash": "0x93ead7af092507f46fd4ba550a56a99118b505d80a16aca6f79b258fe8f6abf5",
          "blockNumber": "0x75127b",
          "transactionHash": "0x91e038746c42bd6df557c51495807f6759b821b7a18a6ce8acf667b36dce52dc",
          "transactionIndex": "0x14",
          "logIndex": "0x57",
          "removed": false
        },
        {
          "address": "0x2e8af9c5922623058aa92a183b391e62cb6b2d12",
          "topics": [
            "0xf8e1a15aba9398e019f0b49df1a4fde98ee17ae345cb5f6b5e2c27f5033e8ce7"
          ],
          "data": "0x00000000000000000000000000000000000000000000000000000000000001e7",
          "blockHash": "0x93ead7af092507f46fd4ba550a56a99118b505d80a16aca6f79b258fe8f6abf5",
          "blockNumber": "0x75127b",
          "transactionHash": "0x91e038746c42bd6df557c51495807f6759b821b7a18a6ce8acf667b36dce52dc",
          "transactionIndex": "0x14",
          "logIndex": "0x58",
          "removed": false
        }
      ],
      "logsBloom": "0x00000000000000000000400000000000000000020000000000000000000040000000000000000000000000000000000800000000000000000000000000000000000000000000000000000008040000000000000000000000000000000000000000000000020000000000000000000800002000000000800000000010000000000000000000000000000000000000000000000000000000000000000000000000000000000000000000000000000000002000000000004000000000000000008000000002000000000000000000000000000000000000000000000000000020000000000000000000200000000000000000000000100000000000000000000000",
      "type": "0x2",
      "transactionHash": "0x91e038746c42bd6df557c51495807f6759b821b7a18a6ce8acf667b36dce52dc",
      "transactionIndex": "0x14",
      "blockHash": "0x93ead7af092507f46fd4ba550a56a99118b505d80a16aca6f79b258fe8f6abf5",
      "blockNumber": "0x75127b",
      "gasUsed": "0x2ccb8",
      "effectiveGasPrice": "0xfd",
      "from": "0xcda2fdb452ff4f5d7ba1c3d5dfcc9cb926a5eb7d",
      "to": "0x79dfbed14077b8f2421eece5707a17b161094e6a",
      "contractAddress": null,
      "l1BaseFeeScalar": "0x186a0",
      "l1BlobBaseFee": "0x1",
      "l1BlobBaseFeeScalar": "0x95506",
      "l1Fee": "0x191afe7f33d",
      "l1GasPrice": "0x282b30cb8",
      "l1GasUsed": "0x640"
    },
    {
      "status": "0x1",
      "cumulativeGasUsed": "0x52856d",
      "logs": [
        {
          "address": "0x2e8af9c5922623058aa92a183b391e62cb6b2d12",
          "topics": [
            "0xddf252ad1be2c89b69c2b068fc378daa952ba7f163c4a11628f55a4df523b3ef",
            "0x0000000000000000000000000000000000000000000000000000000000000000",
            "0x000000000000000000000000cda2fdb452ff4f5d7ba1c3d5dfcc9cb926a5eb7d",
            "0x00000000000000000000000000000000000000000000000000000000000001e8"
          ],
          "data": "0x",
          "blockHash": "0x93ead7af092507f46fd4ba550a56a99118b505d80a16aca6f79b258fe8f6abf5",
          "blockNumber": "0x75127b",
          "transactionHash": "0xccb28a49afe87c7374e04710d0a93c5bf6d980141e7721c898c97933ae584a68",
          "transactionIndex": "0x15",
          "logIndex": "0x59",
          "removed": false
        },
        {
          "address": "0x2e8af9c5922623058aa92a183b391e62cb6b2d12",
          "topics": [
            "0xf8e1a15aba9398e019f0b49df1a4fde98ee17ae345cb5f6b5e2c27f5033e8ce7"
          ],
          "data": "0x00000000000000000000000000000000000000000000000000000000000001e8",
          "blockHash": "0x93ead7af092507f46fd4ba550a56a99118b505d80a16aca6f79b258fe8f6abf5",
          "blockNumber": "0x75127b",
          "transactionHash": "0xccb28a49afe87c7374e04710d0a93c5bf6d980141e7721c898c97933ae584a68",
          "transactionIndex": "0x15",
          "logIndex": "0x5a",
          "removed": false
        }
      ],
      "logsBloom": "0x00080000000000000000000000000000000000020000000000000000000000000000000000000000000000000000000000000000000000000000000000000000000000000000000000000008040000000000000000000000000000000000000000000000020000000000000000000800002000000000800000008010000000000000000000000000000000000000000000000000000000000000000000000000000000000000000000000000000000002000002000004000000000000000008000000002000000000000000000000000000000000000000000000000000020000000000000000000200000000000000000000000100000000000000000000000",
      "type": "0x2",
      "transactionHash": "0xccb28a49afe87c7374e04710d0a93c5bf6d980141e7721c898c97933ae584a68",
      "transactionIndex": "0x15",
      "blockHash": "0x93ead7af092507f46fd4ba550a56a99118b505d80a16aca6f79b258fe8f6abf5",
      "blockNumber": "0x75127b",
      "gasUsed": "0x2ccb8",
      "effectiveGasPrice": "0xfd",
      "from": "0xcda2fdb452ff4f5d7ba1c3d5dfcc9cb926a5eb7d",
      "to": "0x79dfbed14077b8f2421eece5707a17b161094e6a",
      "contractAddress": null,
      "l1BaseFeeScalar": "0x186a0",
      "l1BlobBaseFee": "0x1",
      "l1BlobBaseFeeScalar": "0x95506",
      "l1Fee": "0x191afe7f33d",
      "l1GasPrice": "0x282b30cb8",
      "l1GasUsed": "0x640"
    },
    {
      "status": "0x1",
      "cumulativeGasUsed": "0x555225",
      "logs": [
        {
          "address": "0x2e8af9c5922623058aa92a183b391e62cb6b2d12",
          "topics": [
            "0xddf252ad1be2c89b69c2b068fc378daa952ba7f163c4a11628f55a4df523b3ef",
            "0x0000000000000000000000000000000000000000000000000000000000000000",
            "0x000000000000000000000000cda2fdb452ff4f5d7ba1c3d5dfcc9cb926a5eb7d",
            "0x00000000000000000000000000000000000000000000000000000000000001e9"
          ],
          "data": "0x",
          "blockHash": "0x93ead7af092507f46fd4ba550a56a99118b505d80a16aca6f79b258fe8f6abf5",
          "blockNumber": "0x75127b",
          "transactionHash": "0x948fe72e99b14c8c21fa4b938bb31ef8b33e243ea2831958ac6696912a6d30d1",
          "transactionIndex": "0x16",
          "logIndex": "0x5b",
          "removed": false
        },
        {
          "address": "0x2e8af9c5922623058aa92a183b391e62cb6b2d12",
          "topics": [
            "0xf8e1a15aba9398e019f0b49df1a4fde98ee17ae345cb5f6b5e2c27f5033e8ce7"
          ],
          "data": "0x00000000000000000000000000000000000000000000000000000000000001e9",
          "blockHash": "0x93ead7af092507f46fd4ba550a56a99118b505d80a16aca6f79b258fe8f6abf5",
          "blockNumber": "0x75127b",
          "transactionHash": "0x948fe72e99b14c8c21fa4b938bb31ef8b33e243ea2831958ac6696912a6d30d1",
          "transactionIndex": "0x16",
          "logIndex": "0x5c",
          "removed": false
        }
      ],
      "logsBloom": "0x00000000000000000000000000000000000000020000000000000000000000000000000000000000000000000000000000000000000000000000000000000000000000000000000000000008040000000000000000000000000000000000000000000000020000000000000000000800002000000000800000000010000000000000000000000000000000000000000000000000000000000000000000400000000000000000000000000000000000002000000000004000000000000000008000000002000000000000000000000040000000000000000000000200000020000000000000000000200000000000000000000000100000000000000000000000",
      "type": "0x2",
      "transactionHash": "0x948fe72e99b14c8c21fa4b938bb31ef8b33e243ea2831958ac6696912a6d30d1",
      "transactionIndex": "0x16",
      "blockHash": "0x93ead7af092507f46fd4ba550a56a99118b505d80a16aca6f79b258fe8f6abf5",
      "blockNumber": "0x75127b",
      "gasUsed": "0x2ccb8",
      "effectiveGasPrice": "0xfd",
      "from": "0xcda2fdb452ff4f5d7ba1c3d5dfcc9cb926a5eb7d",
      "to": "0x79dfbed14077b8f2421eece5707a17b161094e6a",
      "contractAddress": null,
      "l1BaseFeeScalar": "0x186a0",
      "l1BlobBaseFee": "0x1",
      "l1BlobBaseFeeScalar": "0x95506",
      "l1Fee": "0x191afe7f33d",
      "l1GasPrice": "0x282b30cb8",
      "l1GasUsed": "0x640"
    },
    {
      "status": "0x1",
      "cumulativeGasUsed": "0x79895",
      "logs": [
        {
          "address": "0x2e8af9c5922623058aa92a183b391e62cb6b2d12",
          "topics": [
            "0xddf252ad1be2c89b69c2b068fc378daa952ba7f163c4a11628f55a4df523b3ef",
            "0x0000000000000000000000000000000000000000000000000000000000000000",
            "0x000000000000000000000000cda2fdb452ff4f5d7ba1c3d5dfcc9cb926a5eb7d",
            "0x00000000000000000000000000000000000000000000000000000000000001ea"
          ],
          "data": "0x",
          "blockHash": "0x2291ed45e6f06b7e3a5fb1993c58bdd99f64374a2aacb719d0482a2cf0395e40",
          "blockNumber": "0x75127c",
          "transactionHash": "0x539b73076f3d92fdcff3f9a526c6834715265988615c6a4bda9d6c5b9a0ec3b3",
          "transactionIndex": "0x2",
          "logIndex": "0x9",
          "removed": false
        },
        {
          "address": "0x2e8af9c5922623058aa92a183b391e62cb6b2d12",
          "topics": [
            "0xf8e1a15aba9398e019f0b49df1a4fde98ee17ae345cb5f6b5e2c27f5033e8ce7"
          ],
          "data": "0x00000000000000000000000000000000000000000000000000000000000001ea",
          "blockHash": "0x2291ed45e6f06b7e3a5fb1993c58bdd99f64374a2aacb719d0482a2cf0395e40",
          "blockNumber": "0x75127c",
          "transactionHash": "0x539b73076f3d92fdcff3f9a526c6834715265988615c6a4bda9d6c5b9a0ec3b3",
          "transactionIndex": "0x2",
          "logIndex": "0xa",
          "removed": false
        }
      ],
      "logsBloom": "0x00000000000000000000000000000000040000020000000000000000000000000000000000000000000000000000000000000000000000000000000000000000000000000000000000000008040000000000000000000000000000000000000000000000020000000000000000000800002000000000800000000010000200000000000000000000000000000000000000000000000000000000000000000000000000000000000000000000000000002000000000004000000800000000008000000002000000000000000000000000000000000000000000000000000020000000000000000000200000000000000000000000100000000000000000000000",
      "type": "0x2",
      "transactionHash": "0x539b73076f3d92fdcff3f9a526c6834715265988615c6a4bda9d6c5b9a0ec3b3",
      "transactionIndex": "0x2",
      "blockHash": "0x2291ed45e6f06b7e3a5fb1993c58bdd99f64374a2aacb719d0482a2cf0395e40",
      "blockNumber": "0x75127c",
      "gasUsed": "0x2ccb8",
      "effectiveGasPrice": "0xfe",
      "from": "0xcda2fdb452ff4f5d7ba1c3d5dfcc9cb926a5eb7d",
      "to": "0x79dfbed14077b8f2421eece5707a17b161094e6a",
      "contractAddress": null,
      "l1BaseFeeScalar": "0x186a0",
      "l1BlobBaseFee": "0x1",
      "l1BlobBaseFeeScalar": "0x95506",
      "l1Fee": "0x191afe7f33d",
      "l1GasPrice": "0x282b30cb8",
      "l1GasUsed": "0x640"
    },
    {
      "status": "0x1",
      "cumulativeGasUsed": "0xa654d",
      "logs": [
        {
          "address": "0x2e8af9c5922623058aa92a183b391e62cb6b2d12",
          "topics": [
            "0xddf252ad1be2c89b69c2b068fc378daa952ba7f163c4a11628f55a4df523b3ef",
            "0x0000000000000000000000000000000000000000000000000000000000000000",
            "0x000000000000000000000000cda2fdb452ff4f5d7ba1c3d5dfcc9cb926a5eb7d",
            "0x00000000000000000000000000000000000000000000000000000000000001eb"
          ],
          "data": "0x",
          "blockHash": "0x2291ed45e6f06b7e3a5fb1993c58bdd99f64374a2aacb719d0482a2cf0395e40",
          "blockNumber": "0x75127c",
          "transactionHash": "0x10fdc92d3085e06d1250ee72acb2c50818982618e1f0e75389150d92e81148d2",
          "transactionIndex": "0x3",
          "logIndex": "0xb",
          "removed": false
        },
        {
          "address": "0x2e8af9c5922623058aa92a183b391e62cb6b2d12",
          "topics": [
            "0xf8e1a15aba9398e019f0b49df1a4fde98ee17ae345cb5f6b5e2c27f5033e8ce7"
          ],
          "data": "0x00000000000000000000000000000000000000000000000000000000000001eb",
          "blockHash": "0x2291ed45e6f06b7e3a5fb1993c58bdd99f64374a2aacb719d0482a2cf0395e40",
          "blockNumber": "0x75127c",
          "transactionHash": "0x10fdc92d3085e06d1250ee72acb2c50818982618e1f0e75389150d92e81148d2",
          "transactionIndex": "0x3",
          "logIndex": "0xc",
          "removed": false
        }
      ],
      "logsBloom": "0x00000000000000000000000000000000000000020000000000000000000000000000000000000000000000000000000000000000000000000000000000000000000000000000000000000008140000000000000000000000000000000000000000000000020000000000000000000800002000000000800000000010000000000000000000000000000000000000000000000000000010000000000000000000000000000000000000000000000000002000000000004000000000000000008000000002000000000000000000000000000000000000000000000000000020000000000000000000200004000000000000000000100000000000000000000000",
      "type": "0x2",
      "transactionHash": "0x10fdc92d3085e06d1250ee72acb2c50818982618e1f0e75389150d92e81148d2",
      "transactionIndex": "0x3",
      "blockHash": "0x2291ed45e6f06b7e3a5fb1993c58bdd99f64374a2aacb719d0482a2cf0395e40",
      "blockNumber": "0x75127c",
      "gasUsed": "0x2ccb8",
      "effectiveGasPrice": "0xfe",
      "from": "0xcda2fdb452ff4f5d7ba1c3d5dfcc9cb926a5eb7d",
      "to": "0x79dfbed14077b8f2421eece5707a17b161094e6a",
      "contractAddress": null,
      "l1BaseFeeScalar": "0x186a0",
      "l1BlobBaseFee": "0x1",
      "l1BlobBaseFeeScalar": "0x95506",
      "l1Fee": "0x191afe7f33d",
      "l1GasPrice": "0x282b30cb8",
      "l1GasUsed": "0x640"
    },
    {
      "status": "0x1",
      "cumulativeGasUsed": "0xd3205",
      "logs": [
        {
          "address": "0x2e8af9c5922623058aa92a183b391e62cb6b2d12",
          "topics": [
            "0xddf252ad1be2c89b69c2b068fc378daa952ba7f163c4a11628f55a4df523b3ef",
            "0x0000000000000000000000000000000000000000000000000000000000000000",
            "0x000000000000000000000000cda2fdb452ff4f5d7ba1c3d5dfcc9cb926a5eb7d",
            "0x00000000000000000000000000000000000000000000000000000000000001ec"
          ],
          "data": "0x",
          "blockHash": "0x2291ed45e6f06b7e3a5fb1993c58bdd99f64374a2aacb719d0482a2cf0395e40",
          "blockNumber": "0x75127c",
          "transactionHash": "0xf959d0513ab4547d78387def0ad5d8cca09e3ed6ae03840adb1597e501d3d42b",
          "transactionIndex": "0x4",
          "logIndex": "0xd",
          "removed": false
        },
        {
          "address": "0x2e8af9c5922623058aa92a183b391e62cb6b2d12",
          "topics": [
            "0xf8e1a15aba9398e019f0b49df1a4fde98ee17ae345cb5f6b5e2c27f5033e8ce7"
          ],
          "data": "0x00000000000000000000000000000000000000000000000000000000000001ec",
          "blockHash": "0x2291ed45e6f06b7e3a5fb1993c58bdd99f64374a2aacb719d0482a2cf0395e40",
          "blockNumber": "0x75127c",
          "transactionHash": "0xf959d0513ab4547d78387def0ad5d8cca09e3ed6ae03840adb1597e501d3d42b",
          "transactionIndex": "0x4",
          "logIndex": "0xe",
          "removed": false
        }
      ],
      "logsBloom": "0x00000000000000000000000000000000000000020000000000000400000000000000000800000000000000000000000000000000000000008000000000000000000000000000000000000008040000000000000000000000000000000000000000000000020000000000000000000800002000000000800000000010000000000000000000000000000000000000000000000000000000000000000000000000000000000000000000000000000000002000000000004000000000000000008000000002000000000000000000000000000000000000000000000000000020000000000000000000200000000000000000000000100000000000000000000000",
      "type": "0x2",
      "transactionHash": "0xf959d0513ab4547d78387def0ad5d8cca09e3ed6ae03840adb1597e501d3d42b",
      "transactionIndex": "0x4",
      "blockHash": "0x2291ed45e6f06b7e3a5fb1993c58bdd99f64374a2aacb719d0482a2cf0395e40",
      "blockNumber": "0x75127c",
      "gasUsed": "0x2ccb8",
      "effectiveGasPrice": "0xfe",
      "from": "0xcda2fdb452ff4f5d7ba1c3d5dfcc9cb926a5eb7d",
      "to": "0x79dfbed14077b8f2421eece5707a17b161094e6a",
      "contractAddress": null,
      "l1BaseFeeScalar": "0x186a0",
      "l1BlobBaseFee": "0x1",
      "l1BlobBaseFeeScalar": "0x95506",
      "l1Fee": "0x191afe7f33d",
      "l1GasPrice": "0x282b30cb8",
      "l1GasUsed": "0x640"
    },
    {
      "status": "0x1",
      "cumulativeGasUsed": "0xffebd",
      "logs": [
        {
          "address": "0x2e8af9c5922623058aa92a183b391e62cb6b2d12",
          "topics": [
            "0xddf252ad1be2c89b69c2b068fc378daa952ba7f163c4a11628f55a4df523b3ef",
            "0x0000000000000000000000000000000000000000000000000000000000000000",
            "0x000000000000000000000000cda2fdb452ff4f5d7ba1c3d5dfcc9cb926a5eb7d",
            "0x00000000000000000000000000000000000000000000000000000000000001ed"
          ],
          "data": "0x",
          "blockHash": "0x2291ed45e6f06b7e3a5fb1993c58bdd99f64374a2aacb719d0482a2cf0395e40",
          "blockNumber": "0x75127c",
          "transactionHash": "0x6565a486c9e073621c47d498955761896231a5b59dacbf73fc9424850749f2a0",
          "transactionIndex": "0x5",
          "logIndex": "0xf",
          "removed": false
        },
        {
          "address": "0x2e8af9c5922623058aa92a183b391e62cb6b2d12",
          "topics": [
            "0xf8e1a15aba9398e019f0b49df1a4fde98ee17ae345cb5f6b5e2c27f5033e8ce7"
          ],
          "data": "0x00000000000000000000000000000000000000000000000000000000000001ed",
          "blockHash": "0x2291ed45e6f06b7e3a5fb1993c58bdd99f64374a2aacb719d0482a2cf0395e40",
          "blockNumber": "0x75127c",
          "transactionHash": "0x6565a486c9e073621c47d498955761896231a5b59dacbf73fc9424850749f2a0",
          "transactionIndex": "0x5",
          "logIndex": "0x10",
          "removed": false
        }
      ],
      "logsBloom": "0x00000000000000000000000000000000000000020000000000000000000000000000000000080000000000000000000000000000000000000000000000000000000000000000000000000008040000000000000000000000000000000000000000000000020000000000000000000800002000000000800000000010000000000000000000000010000000000000000000000000000000000000000000000000000000000000000000000000000000002000000000004000000000000000008000000002000000000000000000000000000000000000000000000000000020000000000000000000200000000000001000000000100000000000000000000000",
      "type": "0x2",
      "transactionHash": "0x6565a486c9e073621c47d498955761896231a5b59dacbf73fc9424850749f2a0",
      "transactionIndex": "0x5",
      "blockHash": "0x2291ed45e6f06b7e3a5fb1993c58bdd99f64374a2aacb719d0482a2cf0395e40",
      "blockNumber": "0x75127c",
      "gasUsed": "0x2ccb8",
      "effectiveGasPrice": "0xfe",
      "from": "0xcda2fdb452ff4f5d7ba1c3d5dfcc9cb926a5eb7d",
      "to": "0x79dfbed14077b8f2421eece5707a17b161094e6a",
      "contractAddress": null,
      "l1BaseFeeScalar": "0x186a0",
      "l1BlobBaseFee": "0x1",
      "l1BlobBaseFeeScalar": "0x95506",
      "l1Fee": "0x191afe7f33d",
      "l1GasPrice": "0x282b30cb8",
      "l1GasUsed": "0x640"
    },
    {
      "status": "0x1",
      "cumulativeGasUsed": "0x12cb75",
      "logs": [
        {
          "address": "0x2e8af9c5922623058aa92a183b391e62cb6b2d12",
          "topics": [
            "0xddf252ad1be2c89b69c2b068fc378daa952ba7f163c4a11628f55a4df523b3ef",
            "0x0000000000000000000000000000000000000000000000000000000000000000",
            "0x000000000000000000000000cda2fdb452ff4f5d7ba1c3d5dfcc9cb926a5eb7d",
            "0x00000000000000000000000000000000000000000000000000000000000001ee"
          ],
          "data": "0x",
          "blockHash": "0x2291ed45e6f06b7e3a5fb1993c58bdd99f64374a2aacb719d0482a2cf0395e40",
          "blockNumber": "0x75127c",
          "transactionHash": "0xd59275444e9f1dc8c361629620b3d7149405b0c33eb54756ab307167f068a73a",
          "transactionIndex": "0x6",
          "logIndex": "0x11",
          "removed": false
        },
        {
          "address": "0x2e8af9c5922623058aa92a183b391e62cb6b2d12",
          "topics": [
            "0xf8e1a15aba9398e019f0b49df1a4fde98ee17ae345cb5f6b5e2c27f5033e8ce7"
          ],
          "data": "0x00000000000000000000000000000000000000000000000000000000000001ee",
          "blockHash": "0x2291ed45e6f06b7e3a5fb1993c58bdd99f64374a2aacb719d0482a2cf0395e40",
          "blockNumber": "0x75127c",
          "transactionHash": "0xd59275444e9f1dc8c361629620b3d7149405b0c33eb54756ab307167f068a73a",
          "transactionIndex": "0x6",
          "logIndex": "0x12",
          "removed": false
        }
      ],
      "logsBloom": "0x00000000000000000000000000000000000000020000000000010000000000000000000000000000000000000000000000000000000000000000000000000000000000000000000000000008040000000000000000000000000000000000000000000000020000000000000000000800002000000000800000000010000000100000000000000000000000000000000000000000000000000000000000000000000000000000000000000000000000002000000000004000000000000000008000000002000000000000000000000001000000000000000000000000000020000000000000000000200000000000000000000000100000000000000000000000",
      "type": "0x2",
      "transactionHash": "0xd59275444e9f1dc8c361629620b3d7149405b0c33eb54756ab307167f068a73a",
      "transactionIndex": "0x6",
      "blockHash": "0x2291ed45e6f06b7e3a5fb1993c58bdd99f64374a2aacb719d0482a2cf0395e40",
      "blockNumber": "0x75127c",
      "gasUsed": "0x2ccb8",
      "effectiveGasPrice": "0xfe",
      "from": "0xcda2fdb452ff4f5d7ba1c3d5dfcc9cb926a5eb7d",
      "to": "0x79dfbed14077b8f2421eece5707a17b161094e6a",
      "contractAddress": null,
      "l1BaseFeeScalar": "0x186a0",
      "l1BlobBaseFee": "0x1",
      "l1BlobBaseFeeScalar": "0x95506",
      "l1Fee": "0x191afe7f33d",
      "l1GasPrice": "0x282b30cb8",
      "l1GasUsed": "0x640"
    },
    {
      "status": "0x1",
      "cumulativeGasUsed": "0x15982d",
      "logs": [
        {
          "address": "0x2e8af9c5922623058aa92a183b391e62cb6b2d12",
          "topics": [
            "0xddf252ad1be2c89b69c2b068fc378daa952ba7f163c4a11628f55a4df523b3ef",
            "0x0000000000000000000000000000000000000000000000000000000000000000",
            "0x000000000000000000000000cda2fdb452ff4f5d7ba1c3d5dfcc9cb926a5eb7d",
            "0x00000000000000000000000000000000000000000000000000000000000001ef"
          ],
          "data": "0x",
          "blockHash": "0x2291ed45e6f06b7e3a5fb1993c58bdd99f64374a2aacb719d0482a2cf0395e40",
          "blockNumber": "0x75127c",
          "transactionHash": "0x79f6e154d0ce26fd522df436d2a026e2b9993122a5cf1dc4fda247e1c8cee4fb",
          "transactionIndex": "0x7",
          "logIndex": "0x13",
          "removed": false
        },
        {
          "address": "0x2e8af9c5922623058aa92a183b391e62cb6b2d12",
          "topics": [
            "0xf8e1a15aba9398e019f0b49df1a4fde98ee17ae345cb5f6b5e2c27f5033e8ce7"
          ],
          "data": "0x00000000000000000000000000000000000000000000000000000000000001ef",
          "blockHash": "0x2291ed45e6f06b7e3a5fb1993c58bdd99f64374a2aacb719d0482a2cf0395e40",
          "blockNumber": "0x75127c",
          "transactionHash": "0x79f6e154d0ce26fd522df436d2a026e2b9993122a5cf1dc4fda247e1c8cee4fb",
          "transactionIndex": "0x7",
          "logIndex": "0x14",
          "removed": false
        }
      ],
      "logsBloom": "0x00000000000000000000000000000000000000020000000000000000000000000000000000000000000000000000000000000000000000000000000000000000000000000000000000000008040000000000000000000000000000000000000000000000020080000000000000000800002000000000800000000010000000000000000000010000000000000000000000000000000000000000000000000000000000000000000000000000000000002000000000004000000000000000008000000002000000100000000000000000000000000000000000000000000020000000000000000000200000000000000000000000100000000000000000000000",
      "type": "0x2",
      "transactionHash": "0x79f6e154d0ce26fd522df436d2a026e2b9993122a5cf1dc4fda247e1c8cee4fb",
      "transactionIndex": "0x7",
      "blockHash": "0x2291ed45e6f06b7e3a5fb1993c58bdd99f64374a2aacb719d0482a2cf0395e40",
      "blockNumber": "0x75127c",
      "gasUsed": "0x2ccb8",
      "effectiveGasPrice": "0xfe",
      "from": "0xcda2fdb452ff4f5d7ba1c3d5dfcc9cb926a5eb7d",
      "to": "0x79dfbed14077b8f2421eece5707a17b161094e6a",
      "contractAddress": null,
      "l1BaseFeeScalar": "0x186a0",
      "l1BlobBaseFee": "0x1",
      "l1BlobBaseFeeScalar": "0x95506",
      "l1Fee": "0x191afe7f33d",
      "l1GasPrice": "0x282b30cb8",
      "l1GasUsed": "0x640"
    },
    {
      "status": "0x1",
      "cumulativeGasUsed": "0x1864e5",
      "logs": [
        {
          "address": "0x2e8af9c5922623058aa92a183b391e62cb6b2d12",
          "topics": [
            "0xddf252ad1be2c89b69c2b068fc378daa952ba7f163c4a11628f55a4df523b3ef",
            "0x0000000000000000000000000000000000000000000000000000000000000000",
            "0x000000000000000000000000cda2fdb452ff4f5d7ba1c3d5dfcc9cb926a5eb7d",
            "0x00000000000000000000000000000000000000000000000000000000000001f0"
          ],
          "data": "0x",
          "blockHash": "0x2291ed45e6f06b7e3a5fb1993c58bdd99f64374a2aacb719d0482a2cf0395e40",
          "blockNumber": "0x75127c",
          "transactionHash": "0xffead2ff0a718e9e40552c50ee452684e293d04410e21d34f148c9cd10569a5c",
          "transactionIndex": "0x8",
          "logIndex": "0x15",
          "removed": false
        },
        {
          "address": "0x2e8af9c5922623058aa92a183b391e62cb6b2d12",
          "topics": [
            "0xf8e1a15aba9398e019f0b49df1a4fde98ee17ae345cb5f6b5e2c27f5033e8ce7"
          ],
          "data": "0x00000000000000000000000000000000000000000000000000000000000001f0",
          "blockHash": "0x2291ed45e6f06b7e3a5fb1993c58bdd99f64374a2aacb719d0482a2cf0395e40",
          "blockNumber": "0x75127c",
          "transactionHash": "0xffead2ff0a718e9e40552c50ee452684e293d04410e21d34f148c9cd10569a5c",
          "transactionIndex": "0x8",
          "logIndex": "0x16",
          "removed": false
        }
      ],
      "logsBloom": "0x00000000000000000000000000000000000000020000000000000000000000000000000000000000000000000000000000000000000000000000000000000000000000000000000000000008040000000000000000000000000000000000000000002000020000000000000000000800002000000000800000000010000000000000000000000000000000000000000000000000000000000000000000000000000000000000000000000000000000002000000000004000000000000000008000000002000000000000000000000000000000000000000000000000000020000000000000000008200000000000000000800000100000000000000000000000",
      "type": "0x2",
      "transactionHash": "0xffead2ff0a718e9e40552c50ee452684e293d04410e21d34f148c9cd10569a5c",
      "transactionIndex": "0x8",
      "blockHash": "0x2291ed45e6f06b7e3a5fb1993c58bdd99f64374a2aacb719d0482a2cf0395e40",
      "blockNumber": "0x75127c",
      "gasUsed": "0x2ccb8",
      "effectiveGasPrice": "0xfe",
      "from": "0xcda2fdb452ff4f5d7ba1c3d5dfcc9cb926a5eb7d",
      "to": "0x79dfbed14077b8f2421eece5707a17b161094e6a",
      "contractAddress": null,
      "l1BaseFeeScalar": "0x186a0",
      "l1BlobBaseFee": "0x1",
      "l1BlobBaseFeeScalar": "0x95506",
      "l1Fee": "0x191afe7f33d",
      "l1GasPrice": "0x282b30cb8",
      "l1GasUsed": "0x640"
    },
    {
      "status": "0x1",
      "cumulativeGasUsed": "0x1b319d",
      "logs": [
        {
          "address": "0x2e8af9c5922623058aa92a183b391e62cb6b2d12",
          "topics": [
            "0xddf252ad1be2c89b69c2b068fc378daa952ba7f163c4a11628f55a4df523b3ef",
            "0x0000000000000000000000000000000000000000000000000000000000000000",
            "0x000000000000000000000000cda2fdb452ff4f5d7ba1c3d5dfcc9cb926a5eb7d",
            "0x00000000000000000000000000000000000000000000000000000000000001f1"
          ],
          "data": "0x",
          "blockHash": "0x2291ed45e6f06b7e3a5fb1993c58bdd99f64374a2aacb719d0482a2cf0395e40",
          "blockNumber": "0x75127c",
          "transactionHash": "0x2f3e52eeb380347d355e140b8c58ef7cb1a3ec5a293f46f7849ea94254c1ab93",
          "transactionIndex": "0x9",
          "logIndex": "0x17",
          "removed": false
        },
        {
          "address": "0x2e8af9c5922623058aa92a183b391e62cb6b2d12",
          "topics": [
            "0xf8e1a15aba9398e019f0b49df1a4fde98ee17ae345cb5f6b5e2c27f5033e8ce7"
          ],
          "data": "0x00000000000000000000000000000000000000000000000000000000000001f1",
          "blockHash": "0x2291ed45e6f06b7e3a5fb1993c58bdd99f64374a2aacb719d0482a2cf0395e40",
          "blockNumber": "0x75127c",
          "transactionHash": "0x2f3e52eeb380347d355e140b8c58ef7cb1a3ec5a293f46f7849ea94254c1ab93",
          "transactionIndex": "0x9",
          "logIndex": "0x18",
          "removed": false
        }
      ],
      "logsBloom": "0x00000000000000000000000000000000000000020000000000000000000000000000000000000000000000000000000000000000000000000000000000000000000000000000000000000008040000000000000000000000000000000000000000000000020000000000000000000800002000000000800000000010000000000000000000000000000000000000000000000000000000000000000000000000000000008000000000000000000000002000000000104000000000000000008000000002000000000000000000000000000000000000000000000000000020000000000000000000200000000000000000000000100004000000000000000000",
      "type": "0x2",
      "transactionHash": "0x2f3e52eeb380347d355e140b8c58ef7cb1a3ec5a293f46f7849ea94254c1ab93",
      "transactionIndex": "0x9",
      "blockHash": "0x2291ed45e6f06b7e3a5fb1993c58bdd99f64374a2aacb719d0482a2cf0395e40",
      "blockNumber": "0x75127c",
      "gasUsed": "0x2ccb8",
      "effectiveGasPrice": "0xfe",
      "from": "0xcda2fdb452ff4f5d7ba1c3d5dfcc9cb926a5eb7d",
      "to": "0x79dfbed14077b8f2421eece5707a17b161094e6a",
      "contractAddress": null,
      "l1BaseFeeScalar": "0x186a0",
      "l1BlobBaseFee": "0x1",
      "l1BlobBaseFeeScalar": "0x95506",
      "l1Fee": "0x191afe7f33d",
      "l1GasPrice": "0x282b30cb8",
      "l1GasUsed": "0x640"
    },
    {
      "status": "0x1",
      "cumulativeGasUsed": "0x1dfe55",
      "logs": [
        {
          "address": "0x2e8af9c5922623058aa92a183b391e62cb6b2d12",
          "topics": [
            "0xddf252ad1be2c89b69c2b068fc378daa952ba7f163c4a11628f55a4df523b3ef",
            "0x0000000000000000000000000000000000000000000000000000000000000000",
            "0x000000000000000000000000cda2fdb452ff4f5d7ba1c3d5dfcc9cb926a5eb7d",
            "0x00000000000000000000000000000000000000000000000000000000000001f2"
          ],
          "data": "0x",
          "blockHash": "0x2291ed45e6f06b7e3a5fb1993c58bdd99f64374a2aacb719d0482a2cf0395e40",
          "blockNumber": "0x75127c",
          "transactionHash": "0x86a5a0311d1c283da9df1794b62949de4d86002719a524c2d0f413fd3e4e8218",
          "transactionIndex": "0xa",
          "logIndex": "0x19",
          "removed": false
        },
        {
          "address": "0x2e8af9c5922623058aa92a183b391e62cb6b2d12",
          "topics": [
            "0xf8e1a15aba9398e019f0b49df1a4fde98ee17ae345cb5f6b5e2c27f5033e8ce7"
          ],
          "data": "0x00000000000000000000000000000000000000000000000000000000000001f2",
          "blockHash": "0x2291ed45e6f06b7e3a5fb1993c58bdd99f64374a2aacb719d0482a2cf0395e40",
          "blockNumber": "0x75127c",
          "transactionHash": "0x86a5a0311d1c283da9df1794b62949de4d86002719a524c2d0f413fd3e4e8218",
          "transactionIndex": "0xa",
          "logIndex": "0x1a",
          "removed": false
        }
      ],
      "logsBloom": "0x00000000000000000000000000000000000000020000000002000000000000000000000000000000000000000000000000000800000000000000000000000000000000000000000000000008040000000000000000000000000000000000000000000000020000000000000000000800002000000000800000000010000000000000000000000000000000000000000000000000000000000000000000000000000000000000000000000000000000002000000000004080000000000000008000000002000000000000000000000000000000000000000000000000000020000000000000000000200000000000000000000000100000000000000000000000",
      "type": "0x2",
      "transactionHash": "0x86a5a0311d1c283da9df1794b62949de4d86002719a524c2d0f413fd3e4e8218",
      "transactionIndex": "0xa",
      "blockHash": "0x2291ed45e6f06b7e3a5fb1993c58bdd99f64374a2aacb719d0482a2cf0395e40",
      "blockNumber": "0x75127c",
      "gasUsed": "0x2ccb8",
      "effectiveGasPrice": "0xfe",
      "from": "0xcda2fdb452ff4f5d7ba1c3d5dfcc9cb926a5eb7d",
      "to": "0x79dfbed14077b8f2421eece5707a17b161094e6a",
      "contractAddress": null,
      "l1BaseFeeScalar": "0x186a0",
      "l1BlobBaseFee": "0x1",
      "l1BlobBaseFeeScalar": "0x95506",
      "l1Fee": "0x191afe7f33d",
      "l1GasPrice": "0x282b30cb8",
      "l1GasUsed": "0x640"
    },
    {
      "status": "0x1",
      "cumulativeGasUsed": "0x20cb0d",
      "logs": [
        {
          "address": "0x2e8af9c5922623058aa92a183b391e62cb6b2d12",
          "topics": [
            "0xddf252ad1be2c89b69c2b068fc378daa952ba7f163c4a11628f55a4df523b3ef",
            "0x0000000000000000000000000000000000000000000000000000000000000000",
            "0x000000000000000000000000cda2fdb452ff4f5d7ba1c3d5dfcc9cb926a5eb7d",
            "0x00000000000000000000000000000000000000000000000000000000000001f3"
          ],
          "data": "0x",
          "blockHash": "0x2291ed45e6f06b7e3a5fb1993c58bdd99f64374a2aacb719d0482a2cf0395e40",
          "blockNumber": "0x75127c",
          "transactionHash": "0x73864071145baf53dce405aad12106375d6d38a225de6b97ebbf2cbda995403a",
          "transactionIndex": "0xb",
          "logIndex": "0x1b",
          "removed": false
        },
        {
          "address": "0x2e8af9c5922623058aa92a183b391e62cb6b2d12",
          "topics": [
            "0xf8e1a15aba9398e019f0b49df1a4fde98ee17ae345cb5f6b5e2c27f5033e8ce7"
          ],
          "data": "0x00000000000000000000000000000000000000000000000000000000000001f3",
          "blockHash": "0x2291ed45e6f06b7e3a5fb1993c58bdd99f64374a2aacb719d0482a2cf0395e40",
          "blockNumber": "0x75127c",
          "transactionHash": "0x73864071145baf53dce405aad12106375d6d38a225de6b97ebbf2cbda995403a",
          "transactionIndex": "0xb",
          "logIndex": "0x1c",
          "removed": false
        }
      ],
      "logsBloom": "0x00000000000000000000000000000000000000020000000000000000000000000000000000000000000000000000000000000000000000000000000000000000000000000000000000000008040000000000000000000000000000000000000000000000020000800000000000000800002000000000800000000010000400000000000000000000000000000000000000000000000000000000800000000000000000000000000000000000000000002000000000004000000000000000008000000002000000000000000000000000000000000000000000000000000020000000000000000000200000000000000000000000100000000000000000000000",
      "type": "0x2",
      "transactionHash": "0x73864071145baf53dce405aad12106375d6d38a225de6b97ebbf2cbda995403a",
      "transactionIndex": "0xb",
      "blockHash": "0x2291ed45e6f06b7e3a5fb1993c58bdd99f64374a2aacb719d0482a2cf0395e40",
      "blockNumber": "0x75127c",
      "gasUsed": "0x2ccb8",
      "effectiveGasPrice": "0xfe",
      "from": "0xcda2fdb452ff4f5d7ba1c3d5dfcc9cb926a5eb7d",
      "to": "0x79dfbed14077b8f2421eece5707a17b161094e6a",
      "contractAddress": null,
      "l1BaseFeeScalar": "0x186a0",
      "l1BlobBaseFee": "0x1",
      "l1BlobBaseFeeScalar": "0x95506",
      "l1Fee": "0x191afe7f33d",
      "l1GasPrice": "0x282b30cb8",
      "l1GasUsed": "0x640"
    }
  ],
  "libraries": [],
  "pending": [],
  "returns": {},
  "timestamp": 1728206880,
  "chain": 60808,
  "commit": "7d9679b"
}