{
  "transactions": [
    {
      "hash": "0xed4d8ddd5b457288d96ff2cef6a1e20cfab09726d5ae54096123cc206a09423f",
      "transactionType": "CALL",
      "contractName": null,
      "contractAddress": "0x4a0e0dfc66c8995708c3499559374a0a2e260a1e",
      "function": "setMaxWinners(uint256)",
      "arguments": [
        "1"
      ],
      "transaction": {
        "from": "0xcda2fdb452ff4f5d7ba1c3d5dfcc9cb926a5eb7d",
        "to": "0x4a0e0dfc66c8995708c3499559374a0a2e260a1e",
        "gas": "0x9adc",
        "value": "0x0",
        "input": "0xd17b18c40000000000000000000000000000000000000000000000000000000000000001",
        "nonce": "0x1bf5",
        "chainId": "0xed88"
      },
      "additionalContracts": [],
      "isFixedGasLimit": false
    },
    {
      "hash": "0x5ef7a68d632dd6a30627b0248206bcef7f204f2903082402ace6f21a3c0465c8",
      "transactionType": "CALL",
      "contractName": null,
      "contractAddress": "0x5393b1d1ba6058ceb42e012036161e30acd0825c",
      "function": "setMaxWinners(uint256)",
      "arguments": [
        "1"
      ],
      "transaction": {
        "from": "0xcda2fdb452ff4f5d7ba1c3d5dfcc9cb926a5eb7d",
        "to": "0x5393b1d1ba6058ceb42e012036161e30acd0825c",
        "gas": "0x9adc",
        "value": "0x0",
        "input": "0xd17b18c40000000000000000000000000000000000000000000000000000000000000001",
        "nonce": "0x1bf6",
        "chainId": "0xed88"
      },
      "additionalContracts": [],
      "isFixedGasLimit": false
    },
    {
      "hash": "0xf893fe31451bee1b03d2da4f027eae81391c3eb1d82812113d1382b356f4bb1b",
      "transactionType": "CALL",
      "contractName": null,
      "contractAddress": "0xf617a31a61e3d02ccef4ec11202d377edb2b84d7",
      "function": "setMaxWinners(uint256)",
      "arguments": [
        "1"
      ],
      "transaction": {
        "from": "0xcda2fdb452ff4f5d7ba1c3d5dfcc9cb926a5eb7d",
        "to": "0xf617a31a61e3d02ccef4ec11202d377edb2b84d7",
        "gas": "0x9adc",
        "value": "0x0",
        "input": "0xd17b18c40000000000000000000000000000000000000000000000000000000000000001",
        "nonce": "0x1bf7",
        "chainId": "0xed88"
      },
      "additionalContracts": [],
      "isFixedGasLimit": false
    },
    {
      "hash": "0xe80d68cde31d2f8d775a344a0291302a2898d2cabd8f37f930757316b501aa23",
      "transactionType": "CALL",
      "contractName": null,
      "contractAddress": "0x228d6b4c1da545422b05b2d8cc21a608e4619c93",
      "function": "setMaxWinners(uint256)",
      "arguments": [
        "1"
      ],
      "transaction": {
        "from": "0xcda2fdb452ff4f5d7ba1c3d5dfcc9cb926a5eb7d",
        "to": "0x228d6b4c1da545422b05b2d8cc21a608e4619c93",
        "gas": "0x9adc",
        "value": "0x0",
        "input": "0xd17b18c40000000000000000000000000000000000000000000000000000000000000001",
        "nonce": "0x1bf8",
        "chainId": "0xed88"
      },
      "additionalContracts": [],
      "isFixedGasLimit": false
    }
  ],
  "receipts": [
    {
      "status": "0x1",
      "cumulativeGasUsed": "0x16d66",
      "logs": [],
      "logsBloom": "0x00000000000000000000000000000000000000000000000000000000000000000000000000000000000000000000000000000000000000000000000000000000000000000000000000000000000000000000000000000000000000000000000000000000000000000000000000000000000000000000000000000000000000000000000000000000000000000000000000000000000000000000000000000000000000000000000000000000000000000000000000000000000000000000000000000000000000000000000000000000000000000000000000000000000000000000000000000000000000000000000000000000000000000000000000000000",
      "type": "0x2",
      "transactionHash": "0xed4d8ddd5b457288d96ff2cef6a1e20cfab09726d5ae54096123cc206a09423f",
      "transactionIndex": "0x2",
      "blockHash": "0x3e2ed57aa1cd8f353839f17c64c67674728b8838d9fba8d40109513a9e0fba98",
      "blockNumber": "0x743e1d",
      "gasUsed": "0x701f",
      "effectiveGasPrice": "0xfd",
      "from": "0xcda2fdb452ff4f5d7ba1c3d5dfcc9cb926a5eb7d",
      "to": "0x4a0e0dfc66c8995708c3499559374a0a2e260a1e",
      "contractAddress": null,
      "l1BaseFeeScalar": "0x186a0",
      "l1BlobBaseFee": "0x1",
      "l1BlobBaseFeeScalar": "0x95506",
      "l1Fee": "0x72f6c918dd",
      "l1GasPrice": "0xb7f141c1",
      "l1GasUsed": "0x640"
    },
    {
      "status": "0x1",
      "cumulativeGasUsed": "0x1dd85",
      "logs": [],
      "logsBloom": "0x00000000000000000000000000000000000000000000000000000000000000000000000000000000000000000000000000000000000000000000000000000000000000000000000000000000000000000000000000000000000000000000000000000000000000000000000000000000000000000000000000000000000000000000000000000000000000000000000000000000000000000000000000000000000000000000000000000000000000000000000000000000000000000000000000000000000000000000000000000000000000000000000000000000000000000000000000000000000000000000000000000000000000000000000000000000",
      "type": "0x2",
      "transactionHash": "0x5ef7a68d632dd6a30627b0248206bcef7f204f2903082402ace6f21a3c0465c8",
      "transactionIndex": "0x3",
      "blockHash": "0x3e2ed57aa1cd8f353839f17c64c67674728b8838d9fba8d40109513a9e0fba98",
      "blockNumber": "0x743e1d",
      "gasUsed": "0x701f",
      "effectiveGasPrice": "0xfd",
      "from": "0xcda2fdb452ff4f5d7ba1c3d5dfcc9cb926a5eb7d",
      "to": "0x5393b1d1ba6058ceb42e012036161e30acd0825c",
      "contractAddress": null,
      "l1BaseFeeScalar": "0x186a0",
      "l1BlobBaseFee": "0x1",
      "l1BlobBaseFeeScalar": "0x95506",
      "l1Fee": "0x72f6c918dd",
      "l1GasPrice": "0xb7f141c1",
      "l1GasUsed": "0x640"
    },
    {
      "status": "0x1",
      "cumulativeGasUsed": "0x24da4",
      "logs": [],
      "logsBloom": "0x00000000000000000000000000000000000000000000000000000000000000000000000000000000000000000000000000000000000000000000000000000000000000000000000000000000000000000000000000000000000000000000000000000000000000000000000000000000000000000000000000000000000000000000000000000000000000000000000000000000000000000000000000000000000000000000000000000000000000000000000000000000000000000000000000000000000000000000000000000000000000000000000000000000000000000000000000000000000000000000000000000000000000000000000000000000",
      "type": "0x2",
      "transactionHash": "0xf893fe31451bee1b03d2da4f027eae81391c3eb1d82812113d1382b356f4bb1b",
      "transactionIndex": "0x4",
      "blockHash": "0x3e2ed57aa1cd8f353839f17c64c67674728b8838d9fba8d40109513a9e0fba98",
      "blockNumber": "0x743e1d",
      "gasUsed": "0x701f",
      "effectiveGasPrice": "0xfd",
      "from": "0xcda2fdb452ff4f5d7ba1c3d5dfcc9cb926a5eb7d",
      "to": "0xf617a31a61e3d02ccef4ec11202d377edb2b84d7",
      "contractAddress": null,
      "l1BaseFeeScalar": "0x186a0",
      "l1BlobBaseFee": "0x1",
      "l1BlobBaseFeeScalar": "0x95506",
      "l1Fee": "0x72f6c918dd",
      "l1GasPrice": "0xb7f141c1",
      "l1GasUsed": "0x640"
    },
    {
      "status": "0x1",
      "cumulativeGasUsed": "0x2bdc3",
      "logs": [],
      "logsBloom": "0x00000000000000000000000000000000000000000000000000000000000000000000000000000000000000000000000000000000000000000000000000000000000000000000000000000000000000000000000000000000000000000000000000000000000000000000000000000000000000000000000000000000000000000000000000000000000000000000000000000000000000000000000000000000000000000000000000000000000000000000000000000000000000000000000000000000000000000000000000000000000000000000000000000000000000000000000000000000000000000000000000000000000000000000000000000000",
      "type": "0x2",
      "transactionHash": "0xe80d68cde31d2f8d775a344a0291302a2898d2cabd8f37f930757316b501aa23",
      "transactionIndex": "0x5",
      "blockHash": "0x3e2ed57aa1cd8f353839f17c64c67674728b8838d9fba8d40109513a9e0fba98",
      "blockNumber": "0x743e1d",
      "gasUsed": "0x701f",
      "effectiveGasPrice": "0xfd",
      "from": "0xcda2fdb452ff4f5d7ba1c3d5dfcc9cb926a5eb7d",
      "to": "0x228d6b4c1da545422b05b2d8cc21a608e4619c93",
      "contractAddress": null,
      "l1BaseFeeScalar": "0x186a0",
      "l1BlobBaseFee": "0x1",
      "l1BlobBaseFeeScalar": "0x95506",
      "l1Fee": "0x72f6c918dd",
      "l1GasPrice": "0xb7f141c1",
      "l1GasUsed": "0x640"
    }
  ],
  "libraries": [],
  "pending": [],
  "returns": {},
  "timestamp": 1728098146,
  "chain": 60808,
  "commit": "7d9679b"
}