{
  "transactions": [
    {
      "hash": "0x28b648bd4df13d7ad1e727ae6da7348c95dfaef294dcbcfc67dc17b409b55ec5",
      "transactionType": "CALL",
      "contractName": null,
      "contractAddress": "0x4a0e0dfc66c8995708c3499559374a0a2e260a1e",
      "function": "setMaxTicketPerUser(uint256)",
      "arguments": [
        "1"
      ],
      "transaction": {
        "from": "0xcda2fdb452ff4f5d7ba1c3d5dfcc9cb926a5eb7d",
        "to": "0x4a0e0dfc66c8995708c3499559374a0a2e260a1e",
        "gas": "0x9adf",
        "value": "0x0",
        "input": "0x82dd5a150000000000000000000000000000000000000000000000000000000000000001",
        "nonce": "0x1bfd",
        "chainId": "0xed88"
      },
      "additionalContracts": [],
      "isFixedGasLimit": false
    },
    {
      "hash": "0x9c816810f2bca7f19c33b1eed2ce137f70a393708f55762a56e3f8784cf68918",
      "transactionType": "CALL",
      "contractName": null,
      "contractAddress": "0x5393b1d1ba6058ceb42e012036161e30acd0825c",
      "function": "setMaxTicketPerUser(uint256)",
      "arguments": [
        "1"
      ],
      "transaction": {
        "from": "0xcda2fdb452ff4f5d7ba1c3d5dfcc9cb926a5eb7d",
        "to": "0x5393b1d1ba6058ceb42e012036161e30acd0825c",
        "gas": "0x9adf",
        "value": "0x0",
        "input": "0x82dd5a150000000000000000000000000000000000000000000000000000000000000001",
        "nonce": "0x1bfe",
        "chainId": "0xed88"
      },
      "additionalContracts": [],
      "isFixedGasLimit": false
    },
    {
      "hash": "0xe6558f4843652ff894fc3628027f7699a29f4309691280155efc1a3ee93957bf",
      "transactionType": "CALL",
      "contractName": null,
      "contractAddress": "0xf617a31a61e3d02ccef4ec11202d377edb2b84d7",
      "function": "setMaxTicketPerUser(uint256)",
      "arguments": [
        "1"
      ],
      "transaction": {
        "from": "0xcda2fdb452ff4f5d7ba1c3d5dfcc9cb926a5eb7d",
        "to": "0xf617a31a61e3d02ccef4ec11202d377edb2b84d7",
        "gas": "0x9adf",
        "value": "0x0",
        "input": "0x82dd5a150000000000000000000000000000000000000000000000000000000000000001",
        "nonce": "0x1bff",
        "chainId": "0xed88"
      },
      "additionalContracts": [],
      "isFixedGasLimit": false
    },
    {
      "hash": "0x146d3e591c0852e63eae6bf790fcac59504c4940bd28d71a47c0b9d4bafce3f5",
      "transactionType": "CALL",
      "contractName": null,
      "contractAddress": "0x228d6b4c1da545422b05b2d8cc21a608e4619c93",
      "function": "setMaxTicketPerUser(uint256)",
      "arguments": [
        "1"
      ],
      "transaction": {
        "from": "0xcda2fdb452ff4f5d7ba1c3d5dfcc9cb926a5eb7d",
        "to": "0x228d6b4c1da545422b05b2d8cc21a608e4619c93",
        "gas": "0x9adf",
        "value": "0x0",
        "input": "0x82dd5a150000000000000000000000000000000000000000000000000000000000000001",
        "nonce": "0x1c00",
        "chainId": "0xed88"
      },
      "additionalContracts": [],
      "isFixedGasLimit": false
    }
  ],
  "receipts": [
    {
      "status": "0x1",
      "cumulativeGasUsed": "0x11b5f",
      "logs": [],
      "logsBloom": "0x00000000000000000000000000000000000000000000000000000000000000000000000000000000000000000000000000000000000000000000000000000000000000000000000000000000000000000000000000000000000000000000000000000000000000000000000000000000000000000000000000000000000000000000000000000000000000000000000000000000000000000000000000000000000000000000000000000000000000000000000000000000000000000000000000000000000000000000000000000000000000000000000000000000000000000000000000000000000000000000000000000000000000000000000000000000",
      "type": "0x2",
      "transactionHash": "0x28b648bd4df13d7ad1e727ae6da7348c95dfaef294dcbcfc67dc17b409b55ec5",
      "transactionIndex": "0x1",
      "blockHash": "0x7333c62efb74ee169abc9f666fea0544c60d4c911e0e9a126884f7f66eefe1ca",
      "blockNumber": "0x743e7f",
      "gasUsed": "0x7020",
      "effectiveGasPrice": "0xfd",
      "from": "0xcda2fdb452ff4f5d7ba1c3d5dfcc9cb926a5eb7d",
      "to": "0x4a0e0dfc66c8995708c3499559374a0a2e260a1e",
      "contractAddress": null,
      "l1BaseFeeScalar": "0x186a0",
      "l1BlobBaseFee": "0x1",
      "l1BlobBaseFeeScalar": "0x95506",
      "l1Fee": "0x7bc0b33d3d",
      "l1GasPrice": "0xc6011ec8",
      "l1GasUsed": "0x640"
    },
    {
      "status": "0x1",
      "cumulativeGasUsed": "0x18b7f",
      "logs": [],
      "logsBloom": "0x00000000000000000000000000000000000000000000000000000000000000000000000000000000000000000000000000000000000000000000000000000000000000000000000000000000000000000000000000000000000000000000000000000000000000000000000000000000000000000000000000000000000000000000000000000000000000000000000000000000000000000000000000000000000000000000000000000000000000000000000000000000000000000000000000000000000000000000000000000000000000000000000000000000000000000000000000000000000000000000000000000000000000000000000000000000",
      "type": "0x2",
      "transactionHash": "0x9c816810f2bca7f19c33b1eed2ce137f70a393708f55762a56e3f8784cf68918",
      "transactionIndex": "0x2",
      "blockHash": "0x7333c62efb74ee169abc9f666fea0544c60d4c911e0e9a126884f7f66eefe1ca",
      "blockNumber": "0x743e7f",
      "gasUsed": "0x7020",
      "effectiveGasPrice": "0xfd",
      "from": "0xcda2fdb452ff4f5d7ba1c3d5dfcc9cb926a5eb7d",
      "to": "0x5393b1d1ba6058ceb42e012036161e30acd0825c",
      "contractAddress": null,
      "l1BaseFeeScalar": "0x186a0",
      "l1BlobBaseFee": "0x1",
      "l1BlobBaseFeeScalar": "0x95506",
      "l1Fee": "0x7bc0b33d3d",
      "l1GasPrice": "0xc6011ec8",
      "l1GasUsed": "0x640"
    },
    {
      "status": "0x1",
      "cumulativeGasUsed": "0x1fb9f",
      "logs": [],
      "logsBloom": "0x00000000000000000000000000000000000000000000000000000000000000000000000000000000000000000000000000000000000000000000000000000000000000000000000000000000000000000000000000000000000000000000000000000000000000000000000000000000000000000000000000000000000000000000000000000000000000000000000000000000000000000000000000000000000000000000000000000000000000000000000000000000000000000000000000000000000000000000000000000000000000000000000000000000000000000000000000000000000000000000000000000000000000000000000000000000",
      "type": "0x2",
      "transactionHash": "0xe6558f4843652ff894fc3628027f7699a29f4309691280155efc1a3ee93957bf",
      "transactionIndex": "0x3",
      "blockHash": "0x7333c62efb74ee169abc9f666fea0544c60d4c911e0e9a126884f7f66eefe1ca",
      "blockNumber": "0x743e7f",
      "gasUsed": "0x7020",
      "effectiveGasPrice": "0xfd",
      "from": "0xcda2fdb452ff4f5d7ba1c3d5dfcc9cb926a5eb7d",
      "to": "0xf617a31a61e3d02ccef4ec11202d377edb2b84d7",
      "contractAddress": null,
      "l1BaseFeeScalar": "0x186a0",
      "l1BlobBaseFee": "0x1",
      "l1BlobBaseFeeScalar": "0x95506",
      "l1Fee": "0x7bc0b33d3d",
      "l1GasPrice": "0xc6011ec8",
      "l1GasUsed": "0x640"
    },
    {
      "status": "0x1",
      "cumulativeGasUsed": "0x26bbf",
      "logs": [],
      "logsBloom": "0x00000000000000000000000000000000000000000000000000000000000000000000000000000000000000000000000000000000000000000000000000000000000000000000000000000000000000000000000000000000000000000000000000000000000000000000000000000000000000000000000000000000000000000000000000000000000000000000000000000000000000000000000000000000000000000000000000000000000000000000000000000000000000000000000000000000000000000000000000000000000000000000000000000000000000000000000000000000000000000000000000000000000000000000000000000000",
      "type": "0x2",
      "transactionHash": "0x146d3e591c0852e63eae6bf790fcac59504c4940bd28d71a47c0b9d4bafce3f5",
      "transactionIndex": "0x4",
      "blockHash": "0x7333c62efb74ee169abc9f666fea0544c60d4c911e0e9a126884f7f66eefe1ca",
      "blockNumber": "0x743e7f",
      "gasUsed": "0x7020",
      "effectiveGasPrice": "0xfd",
      "from": "0xcda2fdb452ff4f5d7ba1c3d5dfcc9cb926a5eb7d",
      "to": "0x228d6b4c1da545422b05b2d8cc21a608e4619c93",
      "contractAddress": null,
      "l1BaseFeeScalar": "0x186a0",
      "l1BlobBaseFee": "0x1",
      "l1BlobBaseFeeScalar": "0x95506",
      "l1Fee": "0x7bc0b33d3d",
      "l1GasPrice": "0xc6011ec8",
      "l1GasUsed": "0x640"
    }
  ],
  "libraries": [],
  "pending": [],
  "returns": {},
  "timestamp": 1728098342,
  "chain": 60808,
  "commit": "7d9679b"
}