{
  "transactions": [
    {
      "hash": "0xda1c21b697380feed7ef5869b1c30ae0cf387756a625a41fc578cd88be1fb798",
      "transactionType": "CALL",
      "contractName": null,
      "contractAddress": "0x79dfbed14077b8f2421eece5707a17b161094e6a",
      "function": "wlMint(address)",
      "arguments": [
        "0x0000000000000000000000000000000000000000"
      ],
      "transaction": {
        "from": "0xcda2fdb452ff4f5d7ba1c3d5dfcc9cb926a5eb7d",
        "to": "0x79dfbed14077b8f2421eece5707a17b161094e6a",
        "gas": "0x3ddf7",
        "value": "0x0",
        "input": "0xc517b4a50000000000000000000000000000000000000000000000000000000000000000",
        "nonce": "0x1eb2",
        "chainId": "0xed88"
      },
      "additionalContracts": [],
      "isFixedGasLimit": false
    },
    {
      "hash": "0x12bfe2a9bb3472874ebbfe27688f056573e71b6621dfb8765c6d1c711ee3bb93",
      "transactionType": "CALL",
      "contractName": null,
      "contractAddress": "0x79dfbed14077b8f2421eece5707a17b161094e6a",
      "function": "wlMint(address)",
      "arguments": [
        "0x0000000000000000000000000000000000000000"
      ],
      "transaction": {
        "from": "0xcda2fdb452ff4f5d7ba1c3d5dfcc9cb926a5eb7d",
        "to": "0x79dfbed14077b8f2421eece5707a17b161094e6a",
        "gas": "0x3ddf7",
        "value": "0x0",
        "input": "0xc517b4a50000000000000000000000000000000000000000000000000000000000000000",
        "nonce": "0x1eb3",
        "chainId": "0xed88"
      },
      "additionalContracts": [],
      "isFixedGasLimit": false
    },
    {
      "hash": "0x6410d29cd5e3a750eb58954efd2c6a5e034ea9ce4a94fd53ad9372615bd43cf8",
      "transactionType": "CALL",
      "contractName": null,
      "contractAddress": "0x79dfbed14077b8f2421eece5707a17b161094e6a",
      "function": "wlMint(address)",
      "arguments": [
        "0x0000000000000000000000000000000000000000"
      ],
      "transaction": {
        "from": "0xcda2fdb452ff4f5d7ba1c3d5dfcc9cb926a5eb7d",
        "to": "0x79dfbed14077b8f2421eece5707a17b161094e6a",
        "gas": "0x3ddf7",
        "value": "0x0",
        "input": "0xc517b4a50000000000000000000000000000000000000000000000000000000000000000",
        "nonce": "0x1eb4",
        "chainId": "0xed88"
      },
      "additionalContracts": [],
      "isFixedGasLimit": false
    },
    {
      "hash": "0x9c66aaf18f9ab000cbb999ef91d2783a4dbdaec1d7103ebb40e837e7d87c3c32",
      "transactionType": "CALL",
      "contractName": null,
      "contractAddress": "0x79dfbed14077b8f2421eece5707a17b161094e6a",
      "function": "wlMint(address)",
      "arguments": [
        "0x0000000000000000000000000000000000000000"
      ],
      "transaction": {
        "from": "0xcda2fdb452ff4f5d7ba1c3d5dfcc9cb926a5eb7d",
        "to": "0x79dfbed14077b8f2421eece5707a17b161094e6a",
        "gas": "0x3ddf7",
        "value": "0x0",
        "input": "0xc517b4a50000000000000000000000000000000000000000000000000000000000000000",
        "nonce": "0x1eb5",
        "chainId": "0xed88"
      },
      "additionalContracts": [],
      "isFixedGasLimit": false
    },
    {
      "hash": "0xb758758e5c712ceac7d2317286fa9c796cad272f5299a4da9f88e08e3d3f5cf7",
      "transactionType": "CALL",
      "contractName": null,
      "contractAddress": "0x79dfbed14077b8f2421eece5707a17b161094e6a",
      "function": "wlMint(address)",
      "arguments": [
        "0x0000000000000000000000000000000000000000"
      ],
      "transaction": {
        "from": "0xcda2fdb452ff4f5d7ba1c3d5dfcc9cb926a5eb7d",
        "to": "0x79dfbed14077b8f2421eece5707a17b161094e6a",
        "gas": "0x3ddf7",
        "value": "0x0",
        "input": "0xc517b4a50000000000000000000000000000000000000000000000000000000000000000",
        "nonce": "0x1eb6",
        "chainId": "0xed88"
      },
      "additionalContracts": [],
      "isFixedGasLimit": false
    },
    {
      "hash": "0x77017802346f4defb4157ed71d91b2813b8b2b3a14439782c59672e378ffe8d3",
      "transactionType": "CALL",
      "contractName": null,
      "contractAddress": "0x79dfbed14077b8f2421eece5707a17b161094e6a",
      "function": "wlMint(address)",
      "arguments": [
        "0x0000000000000000000000000000000000000000"
      ],
      "transaction": {
        "from": "0xcda2fdb452ff4f5d7ba1c3d5dfcc9cb926a5eb7d",
        "to": "0x79dfbed14077b8f2421eece5707a17b161094e6a",
        "gas": "0x3ddf7",
        "value": "0x0",
        "input": "0xc517b4a50000000000000000000000000000000000000000000000000000000000000000",
        "nonce": "0x1eb7",
        "chainId": "0xed88"
      },
      "additionalContracts": [],
      "isFixedGasLimit": false
    },
    {
      "hash": "0xac076ff042828644a43b5c7a2b7028ec1acb5b6ba71ded2e419a320fd926f0df",
      "transactionType": "CALL",
      "contractName": null,
      "contractAddress": "0x79dfbed14077b8f2421eece5707a17b161094e6a",
      "function": "wlMint(address)",
      "arguments": [
        "0x0000000000000000000000000000000000000000"
      ],
      "transaction": {
        "from": "0xcda2fdb452ff4f5d7ba1c3d5dfcc9cb926a5eb7d",
        "to": "0x79dfbed14077b8f2421eece5707a17b161094e6a",
        "gas": "0x3ddf7",
        "value": "0x0",
        "input": "0xc517b4a50000000000000000000000000000000000000000000000000000000000000000",
        "nonce": "0x1eb8",
        "chainId": "0xed88"
      },
      "additionalContracts": [],
      "isFixedGasLimit": false
    },
    {
      "hash": "0x5b242f6d278129f93c456093a4a8fd52c6f2e32c0ff4a16ca6c5f6bda05cf860",
      "transactionType": "CALL",
      "contractName": null,
      "contractAddress": "0x79dfbed14077b8f2421eece5707a17b161094e6a",
      "function": "wlMint(address)",
      "arguments": [
        "0x0000000000000000000000000000000000000000"
      ],
      "transaction": {
        "from": "0xcda2fdb452ff4f5d7ba1c3d5dfcc9cb926a5eb7d",
        "to": "0x79dfbed14077b8f2421eece5707a17b161094e6a",
        "gas": "0x3ddf7",
        "value": "0x0",
        "input": "0xc517b4a50000000000000000000000000000000000000000000000000000000000000000",
        "nonce": "0x1eb9",
        "chainId": "0xed88"
      },
      "additionalContracts": [],
      "isFixedGasLimit": false
    },
    {
      "hash": "0x0707faecd71cdca27df628c7b2feb3c75c4fa952708e328a8441e9138cbc20d2",
      "transactionType": "CALL",
      "contractName": null,
      "contractAddress": "0x79dfbed14077b8f2421eece5707a17b161094e6a",
      "function": "wlMint(address)",
      "arguments": [
        "0x0000000000000000000000000000000000000000"
      ],
      "transaction": {
        "from": "0xcda2fdb452ff4f5d7ba1c3d5dfcc9cb926a5eb7d",
        "to": "0x79dfbed14077b8f2421eece5707a17b161094e6a",
        "gas": "0x3ddf7",
        "value": "0x0",
        "input": "0xc517b4a50000000000000000000000000000000000000000000000000000000000000000",
        "nonce": "0x1eba",
        "chainId": "0xed88"
      },
      "additionalContracts": [],
      "isFixedGasLimit": false
    },
    {
      "hash": "0x60004477fb48d24d1c3580070d3e0acab11c55a6d9a0d03c96c082ac31b64e22",
      "transactionType": "CALL",
      "contractName": null,
      "contractAddress": "0x79dfbed14077b8f2421eece5707a17b161094e6a",
      "function": "wlMint(address)",
      "arguments": [
        "0x0000000000000000000000000000000000000000"
      ],
      "transaction": {
        "from": "0xcda2fdb452ff4f5d7ba1c3d5dfcc9cb926a5eb7d",
        "to": "0x79dfbed14077b8f2421eece5707a17b161094e6a",
        "gas": "0x3ddf7",
        "value": "0x0",
        "input": "0xc517b4a50000000000000000000000000000000000000000000000000000000000000000",
        "nonce": "0x1ebb",
        "chainId": "0xed88"
      },
      "additionalContracts": [],
      "isFixedGasLimit": false
    },
    {
      "hash": "0xd8272e08ecef4028a1c0b185349f558b5c1ff16716dc4a02e3b285a747eb5844",
      "transactionType": "CALL",
      "contractName": null,
      "contractAddress": "0x79dfbed14077b8f2421eece5707a17b161094e6a",
      "function": "wlMint(address)",
      "arguments": [
        "0x0000000000000000000000000000000000000000"
      ],
      "transaction": {
        "from": "0xcda2fdb452ff4f5d7ba1c3d5dfcc9cb926a5eb7d",
        "to": "0x79dfbed14077b8f2421eece5707a17b161094e6a",
        "gas": "0x3ddf7",
        "value": "0x0",
        "input": "0xc517b4a50000000000000000000000000000000000000000000000000000000000000000",
        "nonce": "0x1ebc",
        "chainId": "0xed88"
      },
      "additionalContracts": [],
      "isFixedGasLimit": false
    },
    {
      "hash": "0x84bb57ef254e10032f0317d25ce7b8297248b0c7ba840c29b9dee093674e674a",
      "transactionType": "CALL",
      "contractName": null,
      "contractAddress": "0x79dfbed14077b8f2421eece5707a17b161094e6a",
      "function": "wlMint(address)",
      "arguments": [
        "0x0000000000000000000000000000000000000000"
      ],
      "transaction": {
        "from": "0xcda2fdb452ff4f5d7ba1c3d5dfcc9cb926a5eb7d",
        "to": "0x79dfbed14077b8f2421eece5707a17b161094e6a",
        "gas": "0x3ddf7",
        "value": "0x0",
        "input": "0xc517b4a50000000000000000000000000000000000000000000000000000000000000000",
        "nonce": "0x1ebd",
        "chainId": "0xed88"
      },
      "additionalContracts": [],
      "isFixedGasLimit": false
    },
    {
      "hash": "0x749b37f4308dfa3a81f742b9a2235186267b3c4bbff0a46e10e530e066ad3536",
      "transactionType": "CALL",
      "contractName": null,
      "contractAddress": "0x79dfbed14077b8f2421eece5707a17b161094e6a",
      "function": "wlMint(address)",
      "arguments": [
        "0x0000000000000000000000000000000000000000"
      ],
      "transaction": {
        "from": "0xcda2fdb452ff4f5d7ba1c3d5dfcc9cb926a5eb7d",
        "to": "0x79dfbed14077b8f2421eece5707a17b161094e6a",
        "gas": "0x3ddf7",
        "value": "0x0",
        "input": "0xc517b4a50000000000000000000000000000000000000000000000000000000000000000",
        "nonce": "0x1ebe",
        "chainId": "0xed88"
      },
      "additionalContracts": [],
      "isFixedGasLimit": false
    },
    {
      "hash": "0xe18037c77a7da50560451db975826d7832166baf70cb2d1edb7f51b9b2c42c88",
      "transactionType": "CALL",
      "contractName": null,
      "contractAddress": "0x79dfbed14077b8f2421eece5707a17b161094e6a",
      "function": "wlMint(address)",
      "arguments": [
        "0x0000000000000000000000000000000000000000"
      ],
      "transaction": {
        "from": "0xcda2fdb452ff4f5d7ba1c3d5dfcc9cb926a5eb7d",
        "to": "0x79dfbed14077b8f2421eece5707a17b161094e6a",
        "gas": "0x3ddf7",
        "value": "0x0",
        "input": "0xc517b4a50000000000000000000000000000000000000000000000000000000000000000",
        "nonce": "0x1ebf",
        "chainId": "0xed88"
      },
      "additionalContracts": [],
      "isFixedGasLimit": false
    },
    {
      "hash": "0x753d13d89e60282dfed76614652bbd858e3ec006b13d443df49084c477b34596",
      "transactionType": "CALL",
      "contractName": null,
      "contractAddress": "0x79dfbed14077b8f2421eece5707a17b161094e6a",
      "function": "wlMint(address)",
      "arguments": [
        "0x0000000000000000000000000000000000000000"
      ],
      "transaction": {
        "from": "0xcda2fdb452ff4f5d7ba1c3d5dfcc9cb926a5eb7d",
        "to": "0x79dfbed14077b8f2421eece5707a17b161094e6a",
        "gas": "0x3ddf7",
        "value": "0x0",
        "input": "0xc517b4a50000000000000000000000000000000000000000000000000000000000000000",
        "nonce": "0x1ec0",
        "chainId": "0xed88"
      },
      "additionalContracts": [],
      "isFixedGasLimit": false
    },
    {
      "hash": "0x0b374e067fb235f33a51b6a6e2d3448c6428f3b1c1b70b65eaa07e979512ed22",
      "transactionType": "CALL",
      "contractName": null,
      "contractAddress": "0x79dfbed14077b8f2421eece5707a17b161094e6a",
      "function": "wlMint(address)",
      "arguments": [
        "0x0000000000000000000000000000000000000000"
      ],
      "transaction": {
        "from": "0xcda2fdb452ff4f5d7ba1c3d5dfcc9cb926a5eb7d",
        "to": "0x79dfbed14077b8f2421eece5707a17b161094e6a",
        "gas": "0x3ddf7",
        "value": "0x0",
        "input": "0xc517b4a50000000000000000000000000000000000000000000000000000000000000000",
        "nonce": "0x1ec1",
        "chainId": "0xed88"
      },
      "additionalContracts": [],
      "isFixedGasLimit": false
    },
    {
      "hash": "0x0dfb452e0b4a5055f1e9717468a5c8cb57ab2dbb7425f8302a1a05d7be4cdb2b",
      "transactionType": "CALL",
      "contractName": null,
      "contractAddress": "0x79dfbed14077b8f2421eece5707a17b161094e6a",
      "function": "wlMint(address)",
      "arguments": [
        "0x0000000000000000000000000000000000000000"
      ],
      "transaction": {
        "from": "0xcda2fdb452ff4f5d7ba1c3d5dfcc9cb926a5eb7d",
        "to": "0x79dfbed14077b8f2421eece5707a17b161094e6a",
        "gas": "0x3ddf7",
        "value": "0x0",
        "input": "0xc517b4a50000000000000000000000000000000000000000000000000000000000000000",
        "nonce": "0x1ec2",
        "chainId": "0xed88"
      },
      "additionalContracts": [],
      "isFixedGasLimit": false
    },
    {
      "hash": "0xcaf17a75858f6f7e488e287c2e92ffa6788e6d43fd33faad630d844c2024317b",
      "transactionType": "CALL",
      "contractName": null,
      "contractAddress": "0x79dfbed14077b8f2421eece5707a17b161094e6a",
      "function": "wlMint(address)",
      "arguments": [
        "0x0000000000000000000000000000000000000000"
      ],
      "transaction": {
        "from": "0xcda2fdb452ff4f5d7ba1c3d5dfcc9cb926a5eb7d",
        "to": "0x79dfbed14077b8f2421eece5707a17b161094e6a",
        "gas": "0x3ddf7",
        "value": "0x0",
        "input": "0xc517b4a50000000000000000000000000000000000000000000000000000000000000000",
        "nonce": "0x1ec3",
        "chainId": "0xed88"
      },
      "additionalContracts": [],
      "isFixedGasLimit": false
    },
    {
      "hash": "0x28824fdfd268b91d4d30d21e9521d8497497b590df84e06a6cbdd0bb9e3f9408",
      "transactionType": "CALL",
      "contractName": null,
      "contractAddress": "0x79dfbed14077b8f2421eece5707a17b161094e6a",
      "function": "wlMint(address)",
      "arguments": [
        "0x0000000000000000000000000000000000000000"
      ],
      "transaction": {
        "from": "0xcda2fdb452ff4f5d7ba1c3d5dfcc9cb926a5eb7d",
        "to": "0x79dfbed14077b8f2421eece5707a17b161094e6a",
        "gas": "0x3ddf7",
        "value": "0x0",
        "input": "0xc517b4a50000000000000000000000000000000000000000000000000000000000000000",
        "nonce": "0x1ec4",
        "chainId": "0xed88"
      },
      "additionalContracts": [],
      "isFixedGasLimit": false
    },
    {
      "hash": "0x95fb0e94f54a2d7b43f8b86a66ffff5b40cb17f00a7f5e861e5931b84de983f2",
      "transactionType": "CALL",
      "contractName": null,
      "contractAddress": "0x79dfbed14077b8f2421eece5707a17b161094e6a",
      "function": "wlMint(address)",
      "arguments": [
        "0x0000000000000000000000000000000000000000"
      ],
      "transaction": {
        "from": "0xcda2fdb452ff4f5d7ba1c3d5dfcc9cb926a5eb7d",
        "to": "0x79dfbed14077b8f2421eece5707a17b161094e6a",
        "gas": "0x3ddf7",
        "value": "0x0",
        "input": "0xc517b4a50000000000000000000000000000000000000000000000000000000000000000",
        "nonce": "0x1ec5",
        "chainId": "0xed88"
      },
      "additionalContracts": [],
      "isFixedGasLimit": false
    },
    {
      "hash": "0xa73ea74ebd897f61c21ce9af4ff1707d6f786b74a72caea107d38e63ba3c2771",
      "transactionType": "CALL",
      "contractName": null,
      "contractAddress": "0x79dfbed14077b8f2421eece5707a17b161094e6a",
      "function": "wlMint(address)",
      "arguments": [
        "0x0000000000000000000000000000000000000000"
      ],
      "transaction": {
        "from": "0xcda2fdb452ff4f5d7ba1c3d5dfcc9cb926a5eb7d",
        "to": "0x79dfbed14077b8f2421eece5707a17b161094e6a",
        "gas": "0x3ddf7",
        "value": "0x0",
        "input": "0xc517b4a50000000000000000000000000000000000000000000000000000000000000000",
        "nonce": "0x1ec6",
        "chainId": "0xed88"
      },
      "additionalContracts": [],
      "isFixedGasLimit": false
    },
    {
      "hash": "0x2776828f38a994989c0d2eab2374bf9142f89c4404ada71b9023d8fef91cf0cf",
      "transactionType": "CALL",
      "contractName": null,
      "contractAddress": "0x79dfbed14077b8f2421eece5707a17b161094e6a",
      "function": "wlMint(address)",
      "arguments": [
        "0x0000000000000000000000000000000000000000"
      ],
      "transaction": {
        "from": "0xcda2fdb452ff4f5d7ba1c3d5dfcc9cb926a5eb7d",
        "to": "0x79dfbed14077b8f2421eece5707a17b161094e6a",
        "gas": "0x3ddf7",
        "value": "0x0",
        "input": "0xc517b4a50000000000000000000000000000000000000000000000000000000000000000",
        "nonce": "0x1ec7",
        "chainId": "0xed88"
      },
      "additionalContracts": [],
      "isFixedGasLimit": false
    },
    {
      "hash": "0x26fc5ec7ef6bca812e77aefb5d1e2090e46c5054486bd5e50cfd008a107c7e30",
      "transactionType": "CALL",
      "contractName": null,
      "contractAddress": "0x79dfbed14077b8f2421eece5707a17b161094e6a",
      "function": "wlMint(address)",
      "arguments": [
        "0x0000000000000000000000000000000000000000"
      ],
      "transaction": {
        "from": "0xcda2fdb452ff4f5d7ba1c3d5dfcc9cb926a5eb7d",
        "to": "0x79dfbed14077b8f2421eece5707a17b161094e6a",
        "gas": "0x3ddf7",
        "value": "0x0",
        "input": "0xc517b4a50000000000000000000000000000000000000000000000000000000000000000",
        "nonce": "0x1ec8",
        "chainId": "0xed88"
      },
      "additionalContracts": [],
      "isFixedGasLimit": false
    },
    {
      "hash": "0x1c79aed2d9d842aa1c655633283a328968ee5e4ae6058d355ccc193b1487960e",
      "transactionType": "CALL",
      "contractName": null,
      "contractAddress": "0x79dfbed14077b8f2421eece5707a17b161094e6a",
      "function": "wlMint(address)",
      "arguments": [
        "0x0000000000000000000000000000000000000000"
      ],
      "transaction": {
        "from": "0xcda2fdb452ff4f5d7ba1c3d5dfcc9cb926a5eb7d",
        "to": "0x79dfbed14077b8f2421eece5707a17b161094e6a",
        "gas": "0x3ddf7",
        "value": "0x0",
        "input": "0xc517b4a50000000000000000000000000000000000000000000000000000000000000000",
        "nonce": "0x1ec9",
        "chainId": "0xed88"
      },
      "additionalContracts": [],
      "isFixedGasLimit": false
    },
    {
      "hash": "0xd45c11c67b19324663e7c82ab64aa9348139ff569cc2231d188933f915cd3959",
      "transactionType": "CALL",
      "contractName": null,
      "contractAddress": "0x79dfbed14077b8f2421eece5707a17b161094e6a",
      "function": "wlMint(address)",
      "arguments": [
        "0x0000000000000000000000000000000000000000"
      ],
      "transaction": {
        "from": "0xcda2fdb452ff4f5d7ba1c3d5dfcc9cb926a5eb7d",
        "to": "0x79dfbed14077b8f2421eece5707a17b161094e6a",
        "gas": "0x3ddf7",
        "value": "0x0",
        "input": "0xc517b4a50000000000000000000000000000000000000000000000000000000000000000",
        "nonce": "0x1eca",
        "chainId": "0xed88"
      },
      "additionalContracts": [],
      "isFixedGasLimit": false
    },
    {
      "hash": "0x9f01e0e188463b31eb8f551f272c36fa0b0be286cc370db542bb63e578fa8543",
      "transactionType": "CALL",
      "contractName": null,
      "contractAddress": "0x79dfbed14077b8f2421eece5707a17b161094e6a",
      "function": "wlMint(address)",
      "arguments": [
        "0x0000000000000000000000000000000000000000"
      ],
      "transaction": {
        "from": "0xcda2fdb452ff4f5d7ba1c3d5dfcc9cb926a5eb7d",
        "to": "0x79dfbed14077b8f2421eece5707a17b161094e6a",
        "gas": "0x3ddf7",
        "value": "0x0",
        "input": "0xc517b4a50000000000000000000000000000000000000000000000000000000000000000",
        "nonce": "0x1ecb",
        "chainId": "0xed88"
      },
      "additionalContracts": [],
      "isFixedGasLimit": false
    },
    {
      "hash": "0x3b800ab327ee120ccba09b09770daec901c9bd14b6cdcfdfa6960e69e2bf1ffc",
      "transactionType": "CALL",
      "contractName": null,
      "contractAddress": "0x79dfbed14077b8f2421eece5707a17b161094e6a",
      "function": "wlMint(address)",
      "arguments": [
        "0x0000000000000000000000000000000000000000"
      ],
      "transaction": {
        "from": "0xcda2fdb452ff4f5d7ba1c3d5dfcc9cb926a5eb7d",
        "to": "0x79dfbed14077b8f2421eece5707a17b161094e6a",
        "gas": "0x3ddf7",
        "value": "0x0",
        "input": "0xc517b4a50000000000000000000000000000000000000000000000000000000000000000",
        "nonce": "0x1ecc",
        "chainId": "0xed88"
      },
      "additionalContracts": [],
      "isFixedGasLimit": false
    },
    {
      "hash": "0x3a1e05372ba0b9f271d3e3e5df7ab9e0e88bd95227cc8c6b6d1b72b15ddae9fe",
      "transactionType": "CALL",
      "contractName": null,
      "contractAddress": "0x79dfbed14077b8f2421eece5707a17b161094e6a",
      "function": "wlMint(address)",
      "arguments": [
        "0x0000000000000000000000000000000000000000"
      ],
      "transaction": {
        "from": "0xcda2fdb452ff4f5d7ba1c3d5dfcc9cb926a5eb7d",
        "to": "0x79dfbed14077b8f2421eece5707a17b161094e6a",
        "gas": "0x3ddf7",
        "value": "0x0",
        "input": "0xc517b4a50000000000000000000000000000000000000000000000000000000000000000",
        "nonce": "0x1ecd",
        "chainId": "0xed88"
      },
      "additionalContracts": [],
      "isFixedGasLimit": false
    },
    {
      "hash": "0xc691c27590480e476c32ac55962b3d6ff46c787800fec35705c825a45e9597a3",
      "transactionType": "CALL",
      "contractName": null,
      "contractAddress": "0x79dfbed14077b8f2421eece5707a17b161094e6a",
      "function": "wlMint(address)",
      "arguments": [
        "0x0000000000000000000000000000000000000000"
      ],
      "transaction": {
        "from": "0xcda2fdb452ff4f5d7ba1c3d5dfcc9cb926a5eb7d",
        "to": "0x79dfbed14077b8f2421eece5707a17b161094e6a",
        "gas": "0x3ddf7",
        "value": "0x0",
        "input": "0xc517b4a50000000000000000000000000000000000000000000000000000000000000000",
        "nonce": "0x1ece",
        "chainId": "0xed88"
      },
      "additionalContracts": [],
      "isFixedGasLimit": false
    },
    {
      "hash": "0x628ee9cbe8137c26a4dd10ca86daf8f885cd571833cf95259d8d0f5d784e0c49",
      "transactionType": "CALL",
      "contractName": null,
      "contractAddress": "0x79dfbed14077b8f2421eece5707a17b161094e6a",
      "function": "wlMint(address)",
      "arguments": [
        "0x0000000000000000000000000000000000000000"
      ],
      "transaction": {
        "from": "0xcda2fdb452ff4f5d7ba1c3d5dfcc9cb926a5eb7d",
        "to": "0x79dfbed14077b8f2421eece5707a17b161094e6a",
        "gas": "0x3ddf7",
        "value": "0x0",
        "input": "0xc517b4a50000000000000000000000000000000000000000000000000000000000000000",
        "nonce": "0x1ecf",
        "chainId": "0xed88"
      },
      "additionalContracts": [],
      "isFixedGasLimit": false
    }
  ],
  "receipts": [
    {
      "status": "0x1",
      "cumulativeGasUsed": "0x3780f",
      "logs": [
        {
          "address": "0x2e8af9c5922623058aa92a183b391e62cb6b2d12",
          "topics": [
            "0xddf252ad1be2c89b69c2b068fc378daa952ba7f163c4a11628f55a4df523b3ef",
            "0x0000000000000000000000000000000000000000000000000000000000000000",
            "0x000000000000000000000000cda2fdb452ff4f5d7ba1c3d5dfcc9cb926a5eb7d",
            "0x00000000000000000000000000000000000000000000000000000000000002a8"
          ],
          "data": "0x",
          "blockHash": "0xc9eb31f41b800f25a7cb23dd9d0e24e08864b35dbc8a23139794e2f8b77c140a",
          "blockNumber": "0x7513b6",
          "transactionHash": "0xda1c21b697380feed7ef5869b1c30ae0cf387756a625a41fc578cd88be1fb798",
          "transactionIndex": "0x1",
          "logIndex": "0x0",
          "removed": false
        },
        {
          "address": "0x2e8af9c5922623058aa92a183b391e62cb6b2d12",
          "topics": [
            "0xf8e1a15aba9398e019f0b49df1a4fde98ee17ae345cb5f6b5e2c27f5033e8ce7"
          ],
          "data": "0x00000000000000000000000000000000000000000000000000000000000002a8",
          "blockHash": "0xc9eb31f41b800f25a7cb23dd9d0e24e08864b35dbc8a23139794e2f8b77c140a",
          "blockNumber": "0x7513b6",
          "transactionHash": "0xda1c21b697380feed7ef5869b1c30ae0cf387756a625a41fc578cd88be1fb798",
          "transactionIndex": "0x1",
          "logIndex": "0x1",
          "removed": false
        }
      ],
      "logsBloom": "0x00080000000000000000000000000000000000020000040000000000000000000000000000000000000000000000000000000000000000000000000000000000000000000000000000000008040000000000000000000000000000000000000000020000020000000000000000000800002000000000800000000010000000000000000000000000000000000000000000000000000000000000000000000000000000000000000000000000000000002000000000004000000000000000008000000002000000000000000000000000000000000000000000000000000020000000000000000000200000000000000000000000100000000000000000000000",
      "type": "0x2",
      "transactionHash": "0xda1c21b697380feed7ef5869b1c30ae0cf387756a625a41fc578cd88be1fb798",
      "transactionIndex": "0x1",
      "blockHash": "0xc9eb31f41b800f25a7cb23dd9d0e24e08864b35dbc8a23139794e2f8b77c140a",
      "blockNumber": "0x7513b6",
      "gasUsed": "0x2ccb8",
      "effectiveGasPrice": "0xfd",
      "from": "0xcda2fdb452ff4f5d7ba1c3d5dfcc9cb926a5eb7d",
      "to": "0x79dfbed14077b8f2421eece5707a17b161094e6a",
      "contractAddress": null,
      "l1BaseFeeScalar": "0x186a0",
      "l1BlobBaseFee": "0x1",
      "l1BlobBaseFeeScalar": "0x95506",
      "l1Fee": "0x1cc64fe36fd",
      "l1GasPrice": "0x2e0a196be",
      "l1GasUsed": "0x640"
    },
    {
      "status": "0x1",
      "cumulativeGasUsed": "0x645f6",
      "logs": [
        {
          "address": "0x2e8af9c5922623058aa92a183b391e62cb6b2d12",
          "topics": [
            "0xddf252ad1be2c89b69c2b068fc378daa952ba7f163c4a11628f55a4df523b3ef",
            "0x0000000000000000000000000000000000000000000000000000000000000000",
            "0x000000000000000000000000cda2fdb452ff4f5d7ba1c3d5dfcc9cb926a5eb7d",
            "0x00000000000000000000000000000000000000000000000000000000000002a9"
          ],
          "data": "0x",
          "blockHash": "0x89015141deb9ecd761882291b326262d9abb60e1432d6baa80fe0a3f9f987897",
          "blockNumber": "0x7513b7",
          "transactionHash": "0x12bfe2a9bb3472874ebbfe27688f056573e71b6621dfb8765c6d1c711ee3bb93",
          "transactionIndex": "0x2",
          "logIndex": "0x4",
          "removed": false
        },
        {
          "address": "0x2e8af9c5922623058aa92a183b391e62cb6b2d12",
          "topics": [
            "0xf8e1a15aba9398e019f0b49df1a4fde98ee17ae345cb5f6b5e2c27f5033e8ce7"
          ],
          "data": "0x00000000000000000000000000000000000000000000000000000000000002a9",
          "blockHash": "0x89015141deb9ecd761882291b326262d9abb60e1432d6baa80fe0a3f9f987897",
          "blockNumber": "0x7513b7",
          "transactionHash": "0x12bfe2a9bb3472874ebbfe27688f056573e71b6621dfb8765c6d1c711ee3bb93",
          "transactionIndex": "0x2",
          "logIndex": "0x5",
          "removed": false
        }
      ],
      "logsBloom": "0x00000000000000000000000000000000000000020000000000000000000000000000000000000000000000000000000000000000000000000000000000000000000000000000000000000008040000000000000000000000000000000000000000000000020000000000000000000800002000000000800000000010000008000000000000000000000000000000000000000000000000000000000000000000000000000000000000000000000000002000000000004000000000000000008000000002000000000000000000000000000000000000000000000000000020000000000000400000210000000000000000000000100000000000000000000000",
      "type": "0x2",
      "transactionHash": "0x12bfe2a9bb3472874ebbfe27688f056573e71b6621dfb8765c6d1c711ee3bb93",
      "transactionIndex": "0x2",
      "blockHash": "0x89015141deb9ecd761882291b326262d9abb60e1432d6baa80fe0a3f9f987897",
      "blockNumber": "0x7513b7",
      "gasUsed": "0x2ccb8",
      "effectiveGasPrice": "0xfd",
      "from": "0xcda2fdb452ff4f5d7ba1c3d5dfcc9cb926a5eb7d",
      "to": "0x79dfbed14077b8f2421eece5707a17b161094e6a",
      "contractAddress": null,
      "l1BaseFeeScalar": "0x186a0",
      "l1BlobBaseFee": "0x1",
      "l1BlobBaseFeeScalar": "0x95506",
      "l1Fee": "0x1c82e783cbd",
      "l1GasPrice": "0x2d9e3f394",
      "l1GasUsed": "0x640"
    },
    {
      "status": "0x1",
      "cumulativeGasUsed": "0x912ae",
      "logs": [
        {
          "address": "0x2e8af9c5922623058aa92a183b391e62cb6b2d12",
          "topics": [
            "0xddf252ad1be2c89b69c2b068fc378daa952ba7f163c4a11628f55a4df523b3ef",
            "0x0000000000000000000000000000000000000000000000000000000000000000",
            "0x000000000000000000000000cda2fdb452ff4f5d7ba1c3d5dfcc9cb926a5eb7d",
            "0x00000000000000000000000000000000000000000000000000000000000002aa"
          ],
          "data": "0x",
          "blockHash": "0x89015141deb9ecd761882291b326262d9abb60e1432d6baa80fe0a3f9f987897",
          "blockNumber": "0x7513b7",
          "transactionHash": "0x6410d29cd5e3a750eb58954efd2c6a5e034ea9ce4a94fd53ad9372615bd43cf8",
          "transactionIndex": "0x3",
          "logIndex": "0x6",
          "removed": false
        },
        {
          "address": "0x2e8af9c5922623058aa92a183b391e62cb6b2d12",
          "topics": [
            "0xf8e1a15aba9398e019f0b49df1a4fde98ee17ae345cb5f6b5e2c27f5033e8ce7"
          ],
          "data": "0x00000000000000000000000000000000000000000000000000000000000002aa",
          "blockHash": "0x89015141deb9ecd761882291b326262d9abb60e1432d6baa80fe0a3f9f987897",
          "blockNumber": "0x7513b7",
          "transactionHash": "0x6410d29cd5e3a750eb58954efd2c6a5e034ea9ce4a94fd53ad9372615bd43cf8",
          "transactionIndex": "0x3",
          "logIndex": "0x7",
          "removed": false
        }
      ],
      "logsBloom": "0x00000000000000000000000000000000000000020000000000000000000000000000000000000000000000000000000000000000000000000010000000000000000000000000000000000008040000000000000000000080000000000000000000000000020000000000000000000800002000000000800000000010000000000000000000000000000000000000000000000000000000000000000000000000000000000000000000000000000000002000000000004000000000000000008400000002000000000000000000000000000000000000000000000000000020000000000000000000200000000000000000000000100000000000000000000000",
      "type": "0x2",
      "transactionHash": "0x6410d29cd5e3a750eb58954efd2c6a5e034ea9ce4a94fd53ad9372615bd43cf8",
      "transactionIndex": "0x3",
      "blockHash": "0x89015141deb9ecd761882291b326262d9abb60e1432d6baa80fe0a3f9f987897",
      "blockNumber": "0x7513b7",
      "gasUsed": "0x2ccb8",
      "effectiveGasPrice": "0xfd",
      "from": "0xcda2fdb452ff4f5d7ba1c3d5dfcc9cb926a5eb7d",
      "to": "0x79dfbed14077b8f2421eece5707a17b161094e6a",
      "contractAddress": null,
      "l1BaseFeeScalar": "0x186a0",
      "l1BlobBaseFee": "0x1",
      "l1BlobBaseFeeScalar": "0x95506",
      "l1Fee": "0x1c82e783cbd",
      "l1GasPrice": "0x2d9e3f394",
      "l1GasUsed": "0x640"
    },
    {
      "status": "0x1",
      "cumulativeGasUsed": "0xbdf66",
      "logs": [
        {
          "address": "0x2e8af9c5922623058aa92a183b391e62cb6b2d12",
          "topics": [
            "0xddf252ad1be2c89b69c2b068fc378daa952ba7f163c4a11628f55a4df523b3ef",
            "0x0000000000000000000000000000000000000000000000000000000000000000",
            "0x000000000000000000000000cda2fdb452ff4f5d7ba1c3d5dfcc9cb926a5eb7d",
            "0x00000000000000000000000000000000000000000000000000000000000002ab"
          ],
          "data": "0x",
          "blockHash": "0x89015141deb9ecd761882291b326262d9abb60e1432d6baa80fe0a3f9f987897",
          "blockNumber": "0x7513b7",
          "transactionHash": "0x9c66aaf18f9ab000cbb999ef91d2783a4dbdaec1d7103ebb40e837e7d87c3c32",
          "transactionIndex": "0x4",
          "logIndex": "0x8",
          "removed": false
        },
        {
          "address": "0x2e8af9c5922623058aa92a183b391e62cb6b2d12",
          "topics": [
            "0xf8e1a15aba9398e019f0b49df1a4fde98ee17ae345cb5f6b5e2c27f5033e8ce7"
          ],
          "data": "0x00000000000000000000000000000000000000000000000000000000000002ab",
          "blockHash": "0x89015141deb9ecd761882291b326262d9abb60e1432d6baa80fe0a3f9f987897",
          "blockNumber": "0x7513b7",
          "transactionHash": "0x9c66aaf18f9ab000cbb999ef91d2783a4dbdaec1d7103ebb40e837e7d87c3c32",
          "transactionIndex": "0x4",
          "logIndex": "0x9",
          "removed": false
        }
      ],
      "logsBloom": "0x00000000000000000000000000000000000000020000000000000000000000000000000000000000000000000000000000000000000000000000000000000000000000000000000000000008040000000000000000000000000000000000000000000000020000000000000000000800002000000000800000000010000000000000000000000000000000000000000000000000000000000000000000000000000000000000000000000000000000002000000000004000000000000000008000000002000000000000000000004000000000000000000000000000004020000000000000000000200000000000000000000000100000000000000000400000",
      "type": "0x2",
      "transactionHash": "0x9c66aaf18f9ab000cbb999ef91d2783a4dbdaec1d7103ebb40e837e7d87c3c32",
      "transactionIndex": "0x4",
      "blockHash": "0x89015141deb9ecd761882291b326262d9abb60e1432d6baa80fe0a3f9f987897",
      "blockNumber": "0x7513b7",
      "gasUsed": "0x2ccb8",
      "effectiveGasPrice": "0xfd",
      "from": "0xcda2fdb452ff4f5d7ba1c3d5dfcc9cb926a5eb7d",
      "to": "0x79dfbed14077b8f2421eece5707a17b161094e6a",
      "contractAddress": null,
      "l1BaseFeeScalar": "0x186a0",
      "l1BlobBaseFee": "0x1",
      "l1BlobBaseFeeScalar": "0x95506",
      "l1Fee": "0x1c82e783cbd",
      "l1GasPrice": "0x2d9e3f394",
      "l1GasUsed": "0x640"
    },
    {
      "status": "0x1",
      "cumulativeGasUsed": "0xeac1e",
      "logs": [
        {
          "address": "0x2e8af9c5922623058aa92a183b391e62cb6b2d12",
          "topics": [
            "0xddf252ad1be2c89b69c2b068fc378daa952ba7f163c4a11628f55a4df523b3ef",
            "0x0000000000000000000000000000000000000000000000000000000000000000",
            "0x000000000000000000000000cda2fdb452ff4f5d7ba1c3d5dfcc9cb926a5eb7d",
            "0x00000000000000000000000000000000000000000000000000000000000002ac"
          ],
          "data": "0x",
          "blockHash": "0x89015141deb9ecd761882291b326262d9abb60e1432d6baa80fe0a3f9f987897",
          "blockNumber": "0x7513b7",
          "transactionHash": "0xb758758e5c712ceac7d2317286fa9c796cad272f5299a4da9f88e08e3d3f5cf7",
          "transactionIndex": "0x5",
          "logIndex": "0xa",
          "removed": false
        },
        {
          "address": "0x2e8af9c5922623058aa92a183b391e62cb6b2d12",
          "topics": [
            "0xf8e1a15aba9398e019f0b49df1a4fde98ee17ae345cb5f6b5e2c27f5033e8ce7"
          ],
          "data": "0x00000000000000000000000000000000000000000000000000000000000002ac",
          "blockHash": "0x89015141deb9ecd761882291b326262d9abb60e1432d6baa80fe0a3f9f987897",
          "blockNumber": "0x7513b7",
          "transactionHash": "0xb758758e5c712ceac7d2317286fa9c796cad272f5299a4da9f88e08e3d3f5cf7",
          "transactionIndex": "0x5",
          "logIndex": "0xb",
          "removed": false
        }
      ],
      "logsBloom": "0x00000000000004000000000000000000000000020000000000000000000000000000000000000000000000000000000000000000000000000000000000000000000000000000000000000008040000000000000000000000000000000000000000000000020000000000000000000800002000000000800000000010000000000000000000000000000000000000000000000000000000000000000000000000000000000000000000000000000000002000000000004000000000000000008000000002000000000000000000000000000000000000000000000000000020000000000000002000200000000000000000000000100000000000800000000000",
      "type": "0x2",
      "transactionHash": "0xb758758e5c712ceac7d2317286fa9c796cad272f5299a4da9f88e08e3d3f5cf7",
      "transactionIndex": "0x5",
      "blockHash": "0x89015141deb9ecd761882291b326262d9abb60e1432d6baa80fe0a3f9f987897",
      "blockNumber": "0x7513b7",
      "gasUsed": "0x2ccb8",
      "effectiveGasPrice": "0xfd",
      "from": "0xcda2fdb452ff4f5d7ba1c3d5dfcc9cb926a5eb7d",
      "to": "0x79dfbed14077b8f2421eece5707a17b161094e6a",
      "contractAddress": null,
      "l1BaseFeeScalar": "0x186a0",
      "l1BlobBaseFee": "0x1",
      "l1BlobBaseFeeScalar": "0x95506",
      "l1Fee": "0x1c82e783cbd",
      "l1GasPrice": "0x2d9e3f394",
      "l1GasUsed": "0x640"
    },
    {
      "status": "0x1",
      "cumulativeGasUsed": "0x1178d6",
      "logs": [
        {
          "address": "0x2e8af9c5922623058aa92a183b391e62cb6b2d12",
          "topics": [
            "0xddf252ad1be2c89b69c2b068fc378daa952ba7f163c4a11628f55a4df523b3ef",
            "0x0000000000000000000000000000000000000000000000000000000000000000",
            "0x000000000000000000000000cda2fdb452ff4f5d7ba1c3d5dfcc9cb926a5eb7d",
            "0x00000000000000000000000000000000000000000000000000000000000002ad"
          ],
          "data": "0x",
          "blockHash": "0x89015141deb9ecd761882291b326262d9abb60e1432d6baa80fe0a3f9f987897",
          "blockNumber": "0x7513b7",
          "transactionHash": "0x77017802346f4defb4157ed71d91b2813b8b2b3a14439782c59672e378ffe8d3",
          "transactionIndex": "0x6",
          "logIndex": "0xc",
          "removed": false
        },
        {
          "address": "0x2e8af9c5922623058aa92a183b391e62cb6b2d12",
          "topics": [
            "0xf8e1a15aba9398e019f0b49df1a4fde98ee17ae345cb5f6b5e2c27f5033e8ce7"
          ],
          "data": "0x00000000000000000000000000000000000000000000000000000000000002ad",
          "blockHash": "0x89015141deb9ecd761882291b326262d9abb60e1432d6baa80fe0a3f9f987897",
          "blockNumber": "0x7513b7",
          "transactionHash": "0x77017802346f4defb4157ed71d91b2813b8b2b3a14439782c59672e378ffe8d3",
          "transactionIndex": "0x6",
          "logIndex": "0xd",
          "removed": false
        }
      ],
      "logsBloom": "0x00000000000000000000000000000000000000020000000000000000000000000000000000000000000000000000000000000000000000000000000000000000000000000000000000000008040000000000000000000000000000000000000000000000820000000000000000000800002000000000800000000010000000000000000000000000000000000000000000000000000000000100000000000000000000000000000000000000000000002000000000004000000000000000008000000002000000000000000000000000000000000000000000000002000020000000000000000000200000000000000000000000100000000000000000000000",
      "type": "0x2",
      "transactionHash": "0x77017802346f4defb4157ed71d91b2813b8b2b3a14439782c59672e378ffe8d3",
      "transactionIndex": "0x6",
      "blockHash": "0x89015141deb9ecd761882291b326262d9abb60e1432d6baa80fe0a3f9f987897",
      "blockNumber": "0x7513b7",
      "gasUsed": "0x2ccb8",
      "effectiveGasPrice": "0xfd",
      "from": "0xcda2fdb452ff4f5d7ba1c3d5dfcc9cb926a5eb7d",
      "to": "0x79dfbed14077b8f2421eece5707a17b161094e6a",
      "contractAddress": null,
      "l1BaseFeeScalar": "0x186a0",
      "l1BlobBaseFee": "0x1",
      "l1BlobBaseFeeScalar": "0x95506",
      "l1Fee": "0x1c82e783cbd",
      "l1GasPrice": "0x2d9e3f394",
      "l1GasUsed": "0x640"
    },
    {
      "status": "0x1",
      "cumulativeGasUsed": "0x14458e",
      "logs": [
        {
          "address": "0x2e8af9c5922623058aa92a183b391e62cb6b2d12",
          "topics": [
            "0xddf252ad1be2c89b69c2b068fc378daa952ba7f163c4a11628f55a4df523b3ef",
            "0x0000000000000000000000000000000000000000000000000000000000000000",
            "0x000000000000000000000000cda2fdb452ff4f5d7ba1c3d5dfcc9cb926a5eb7d",
            "0x00000000000000000000000000000000000000000000000000000000000002ae"
          ],
          "data": "0x",
          "blockHash": "0x89015141deb9ecd761882291b326262d9abb60e1432d6baa80fe0a3f9f987897",
          "blockNumber": "0x7513b7",
          "transactionHash": "0xac076ff042828644a43b5c7a2b7028ec1acb5b6ba71ded2e419a320fd926f0df",
          "transactionIndex": "0x7",
          "logIndex": "0xe",
          "removed": false
        },
        {
          "address": "0x2e8af9c5922623058aa92a183b391e62cb6b2d12",
          "topics": [
            "0xf8e1a15aba9398e019f0b49df1a4fde98ee17ae345cb5f6b5e2c27f5033e8ce7"
          ],
          "data": "0x00000000000000000000000000000000000000000000000000000000000002ae",
          "blockHash": "0x89015141deb9ecd761882291b326262d9abb60e1432d6baa80fe0a3f9f987897",
          "blockNumber": "0x7513b7",
          "transactionHash": "0xac076ff042828644a43b5c7a2b7028ec1acb5b6ba71ded2e419a320fd926f0df",
          "transactionIndex": "0x7",
          "logIndex": "0xf",
          "removed": false
        }
      ],
      "logsBloom": "0x00000000000000000000000000000000000000020000000000000000000000000000000000000000000000000000000000000000000000000008000000000000000000000000000000000008040000000000000000000000000000000000000000000000020000000000000000200800002000000000800000000010004000000000000000000000000000000000000000000000000000000000000000000000000000000000000000000000000000002000000000004000000000000000008000000002000000000000000000000000000000000000000000000000000020000000000000000000200000000000000000000000100000000000000000000000",
      "type": "0x2",
      "transactionHash": "0xac076ff042828644a43b5c7a2b7028ec1acb5b6ba71ded2e419a320fd926f0df",
      "transactionIndex": "0x7",
      "blockHash": "0x89015141deb9ecd761882291b326262d9abb60e1432d6baa80fe0a3f9f987897",
      "blockNumber": "0x7513b7",
      "gasUsed": "0x2ccb8",
      "effectiveGasPrice": "0xfd",
      "from": "0xcda2fdb452ff4f5d7ba1c3d5dfcc9cb926a5eb7d",
      "to": "0x79dfbed14077b8f2421eece5707a17b161094e6a",
      "contractAddress": null,
      "l1BaseFeeScalar": "0x186a0",
      "l1BlobBaseFee": "0x1",
      "l1BlobBaseFeeScalar": "0x95506",
      "l1Fee": "0x1c82e783cbd",
      "l1GasPrice": "0x2d9e3f394",
      "l1GasUsed": "0x640"
    },
    {
      "status": "0x1",
      "cumulativeGasUsed": "0x171246",
      "logs": [
        {
          "address": "0x2e8af9c5922623058aa92a183b391e62cb6b2d12",
          "topics": [
            "0xddf252ad1be2c89b69c2b068fc378daa952ba7f163c4a11628f55a4df523b3ef",
            "0x0000000000000000000000000000000000000000000000000000000000000000",
            "0x000000000000000000000000cda2fdb452ff4f5d7ba1c3d5dfcc9cb926a5eb7d",
            "0x00000000000000000000000000000000000000000000000000000000000002af"
          ],
          "data": "0x",
          "blockHash": "0x89015141deb9ecd761882291b326262d9abb60e1432d6baa80fe0a3f9f987897",
          "blockNumber": "0x7513b7",
          "transactionHash": "0x5b242f6d278129f93c456093a4a8fd52c6f2e32c0ff4a16ca6c5f6bda05cf860",
          "transactionIndex": "0x8",
          "logIndex": "0x10",
          "removed": false
        },
        {
          "address": "0x2e8af9c5922623058aa92a183b391e62cb6b2d12",
          "topics": [
            "0xf8e1a15aba9398e019f0b49df1a4fde98ee17ae345cb5f6b5e2c27f5033e8ce7"
          ],
          "data": "0x00000000000000000000000000000000000000000000000000000000000002af",
          "blockHash": "0x89015141deb9ecd761882291b326262d9abb60e1432d6baa80fe0a3f9f987897",
          "blockNumber": "0x7513b7",
          "transactionHash": "0x5b242f6d278129f93c456093a4a8fd52c6f2e32c0ff4a16ca6c5f6bda05cf860",
          "transactionIndex": "0x8",
          "logIndex": "0x11",
          "removed": false
        }
      ],
      "logsBloom": "0x00000000000000000000000000000000000000020000000000000000000000000000000000000000000000000000000000000000000000000000000000000000000000000000000000000008040000000000000000000000000000000000000000000000020000000000000000000800082000000000800000000010000000000000000000000000000000000400000000000000000000000000000000000000000000000000000000000000000000002000000000004000000000000000008000000002000000200000000000000000000000000000000000000000000020000000000000000000200000000000000000000000100000000000000000000000",
      "type": "0x2",
      "transactionHash": "0x5b242f6d278129f93c456093a4a8fd52c6f2e32c0ff4a16ca6c5f6bda05cf860",
      "transactionIndex": "0x8",
      "blockHash": "0x89015141deb9ecd761882291b326262d9abb60e1432d6baa80fe0a3f9f987897",
      "blockNumber": "0x7513b7",
      "gasUsed": "0x2ccb8",
      "effectiveGasPrice": "0xfd",
      "from": "0xcda2fdb452ff4f5d7ba1c3d5dfcc9cb926a5eb7d",
      "to": "0x79dfbed14077b8f2421eece5707a17b161094e6a",
      "contractAddress": null,
      "l1BaseFeeScalar": "0x186a0",
      "l1BlobBaseFee": "0x1",
      "l1BlobBaseFeeScalar": "0x95506",
      "l1Fee": "0x1c82e783cbd",
      "l1GasPrice": "0x2d9e3f394",
      "l1GasUsed": "0x640"
    },
    {
      "status": "0x1",
      "cumulativeGasUsed": "0x19defe",
      "logs": [
        {
          "address": "0x2e8af9c5922623058aa92a183b391e62cb6b2d12",
          "topics": [
            "0xddf252ad1be2c89b69c2b068fc378daa952ba7f163c4a11628f55a4df523b3ef",
            "0x0000000000000000000000000000000000000000000000000000000000000000",
            "0x000000000000000000000000cda2fdb452ff4f5d7ba1c3d5dfcc9cb926a5eb7d",
            "0x00000000000000000000000000000000000000000000000000000000000002b0"
          ],
          "data": "0x",
          "blockHash": "0x89015141deb9ecd761882291b326262d9abb60e1432d6baa80fe0a3f9f987897",
          "blockNumber": "0x7513b7",
          "transactionHash": "0x0707faecd71cdca27df628c7b2feb3c75c4fa952708e328a8441e9138cbc20d2",
          "transactionIndex": "0x9",
          "logIndex": "0x12",
          "removed": false
        },
        {
          "address": "0x2e8af9c5922623058aa92a183b391e62cb6b2d12",
          "topics": [
            "0xf8e1a15aba9398e019f0b49df1a4fde98ee17ae345cb5f6b5e2c27f5033e8ce7"
          ],
          "data": "0x00000000000000000000000000000000000000000000000000000000000002b0",
          "blockHash": "0x89015141deb9ecd761882291b326262d9abb60e1432d6baa80fe0a3f9f987897",
          "blockNumber": "0x7513b7",
          "transactionHash": "0x0707faecd71cdca27df628c7b2feb3c75c4fa952708e328a8441e9138cbc20d2",
          "transactionIndex": "0x9",
          "logIndex": "0x13",
          "removed": false
        }
      ],
      "logsBloom": "0x00000000000000000000000000000010000000020000000000000000000000000000000000000000000000000000000000000000000000000000000000000000000000000000000000002008040000000000000000000000000000000000000000000000020000000000000000000800002000000000800000000010040000000000000000000000000000000000000000000000000000000000000000000000000000000000000000000000000000002000000000004000000000000000008000000002000000000000000000000000000000000000000000000000000020000000000000000000200000000000000000000000100000000000000000000000",
      "type": "0x2",
      "transactionHash": "0x0707faecd71cdca27df628c7b2feb3c75c4fa952708e328a8441e9138cbc20d2",
      "transactionIndex": "0x9",
      "blockHash": "0x89015141deb9ecd761882291b326262d9abb60e1432d6baa80fe0a3f9f987897",
      "blockNumber": "0x7513b7",
      "gasUsed": "0x2ccb8",
      "effectiveGasPrice": "0xfd",
      "from": "0xcda2fdb452ff4f5d7ba1c3d5dfcc9cb926a5eb7d",
      "to": "0x79dfbed14077b8f2421eece5707a17b161094e6a",
      "contractAddress": null,
      "l1BaseFeeScalar": "0x186a0",
      "l1BlobBaseFee": "0x1",
      "l1BlobBaseFeeScalar": "0x95506",
      "l1Fee": "0x1c82e783cbd",
      "l1GasPrice": "0x2d9e3f394",
      "l1GasUsed": "0x640"
    },
    {
      "status": "0x1",
      "cumulativeGasUsed": "0x1cabb6",
      "logs": [
        {
          "address": "0x2e8af9c5922623058aa92a183b391e62cb6b2d12",
          "topics": [
            "0xddf252ad1be2c89b69c2b068fc378daa952ba7f163c4a11628f55a4df523b3ef",
            "0x0000000000000000000000000000000000000000000000000000000000000000",
            "0x000000000000000000000000cda2fdb452ff4f5d7ba1c3d5dfcc9cb926a5eb7d",
            "0x00000000000000000000000000000000000000000000000000000000000002b1"
          ],
          "data": "0x",
          "blockHash": "0x89015141deb9ecd761882291b326262d9abb60e1432d6baa80fe0a3f9f987897",
          "blockNumber": "0x7513b7",
          "transactionHash": "0x60004477fb48d24d1c3580070d3e0acab11c55a6d9a0d03c96c082ac31b64e22",
          "transactionIndex": "0xa",
          "logIndex": "0x14",
          "removed": false
        },
        {
          "address": "0x2e8af9c5922623058aa92a183b391e62cb6b2d12",
          "topics": [
            "0xf8e1a15aba9398e019f0b49df1a4fde98ee17ae345cb5f6b5e2c27f5033e8ce7"
          ],
          "data": "0x00000000000000000000000000000000000000000000000000000000000002b1",
          "blockHash": "0x89015141deb9ecd761882291b326262d9abb60e1432d6baa80fe0a3f9f987897",
          "blockNumber": "0x7513b7",
          "transactionHash": "0x60004477fb48d24d1c3580070d3e0acab11c55a6d9a0d03c96c082ac31b64e22",
          "transactionIndex": "0xa",
          "logIndex": "0x15",
          "removed": false
        }
      ],
      "logsBloom": "0x00000000000000000000000000000000000000020000000000000000000000000000000000000000000000000000000000000000000000000000000000000000000000000008000000000008040000000000000000000000000000000000000000000000020000000000000000000800002000000000800000000010000000000000000000000000000000000000000000000000000000000000000000000000000040000000000000000000000000002000000000004000000000000000008000000002000000000000000000000000000000000000000000000000000020000000000000000000200000000000000000000000100000800000000000000000",
      "type": "0x2",
      "transactionHash": "0x60004477fb48d24d1c3580070d3e0acab11c55a6d9a0d03c96c082ac31b64e22",
      "transactionIndex": "0xa",
      "blockHash": "0x89015141deb9ecd761882291b326262d9abb60e1432d6baa80fe0a3f9f987897",
      "blockNumber": "0x7513b7",
      "gasUsed": "0x2ccb8",
      "effectiveGasPrice": "0xfd",
      "from": "0xcda2fdb452ff4f5d7ba1c3d5dfcc9cb926a5eb7d",
      "to": "0x79dfbed14077b8f2421eece5707a17b161094e6a",
      "contractAddress": null,
      "l1BaseFeeScalar": "0x186a0",
      "l1BlobBaseFee": "0x1",
      "l1BlobBaseFeeScalar": "0x95506",
      "l1Fee": "0x1c82e783cbd",
      "l1GasPrice": "0x2d9e3f394",
      "l1GasUsed": "0x640"
    },
    {
      "status": "0x1",
      "cumulativeGasUsed": "0x1f786e",
      "logs": [
        {
          "address": "0x2e8af9c5922623058aa92a183b391e62cb6b2d12",
          "topics": [
            "0xddf252ad1be2c89b69c2b068fc378daa952ba7f163c4a11628f55a4df523b3ef",
            "0x0000000000000000000000000000000000000000000000000000000000000000",
            "0x000000000000000000000000cda2fdb452ff4f5d7ba1c3d5dfcc9cb926a5eb7d",
            "0x00000000000000000000000000000000000000000000000000000000000002b2"
          ],
          "data": "0x",
          "blockHash": "0x89015141deb9ecd761882291b326262d9abb60e1432d6baa80fe0a3f9f987897",
          "blockNumber": "0x7513b7",
          "transactionHash": "0xd8272e08ecef4028a1c0b185349f558b5c1ff16716dc4a02e3b285a747eb5844",
          "transactionIndex": "0xb",
          "logIndex": "0x16",
          "removed": false
        },
        {
          "address": "0x2e8af9c5922623058aa92a183b391e62cb6b2d12",
          "topics": [
            "0xf8e1a15aba9398e019f0b49df1a4fde98ee17ae345cb5f6b5e2c27f5033e8ce7"
          ],
          "data": "0x00000000000000000000000000000000000000000000000000000000000002b2",
          "blockHash": "0x89015141deb9ecd761882291b326262d9abb60e1432d6baa80fe0a3f9f987897",
          "blockNumber": "0x7513b7",
          "transactionHash": "0xd8272e08ecef4028a1c0b185349f558b5c1ff16716dc4a02e3b285a747eb5844",
          "transactionIndex": "0xb",
          "logIndex": "0x17",
          "removed": false
        }
      ],
      "logsBloom": "0x00000000000000000000000000000000000000020000000000000000000000000000040000000000000000000000000000000000000000000000000000000000000000000000000000000008040000000000000000000000000000000000000000000000020000000000000000000800002000000000800000000010400000000000000000000000000000000000000000000000000000000000000000000000000000000000000000000000000000002000000000004000000000000000008000000002000000000000000000000000000000000000000000040000000020000000000000000000200000000000000000000000100000000000000000000000",
      "type": "0x2",
      "transactionHash": "0xd8272e08ecef4028a1c0b185349f558b5c1ff16716dc4a02e3b285a747eb5844",
      "transactionIndex": "0xb",
      "blockHash": "0x89015141deb9ecd761882291b326262d9abb60e1432d6baa80fe0a3f9f987897",
      "blockNumber": "0x7513b7",
      "gasUsed": "0x2ccb8",
      "effectiveGasPrice": "0xfd",
      "from": "0xcda2fdb452ff4f5d7ba1c3d5dfcc9cb926a5eb7d",
      "to": "0x79dfbed14077b8f2421eece5707a17b161094e6a",
      "contractAddress": null,
      "l1BaseFeeScalar": "0x186a0",
      "l1BlobBaseFee": "0x1",
      "l1BlobBaseFeeScalar": "0x95506",
      "l1Fee": "0x1c82e783cbd",
      "l1GasPrice": "0x2d9e3f394",
      "l1GasUsed": "0x640"
    },
    {
      "status": "0x1",
      "cumulativeGasUsed": "0x224526",
      "logs": [
        {
          "address": "0x2e8af9c5922623058aa92a183b391e62cb6b2d12",
          "topics": [
            "0xddf252ad1be2c89b69c2b068fc378daa952ba7f163c4a11628f55a4df523b3ef",
            "0x0000000000000000000000000000000000000000000000000000000000000000",
            "0x000000000000000000000000cda2fdb452ff4f5d7ba1c3d5dfcc9cb926a5eb7d",
            "0x00000000000000000000000000000000000000000000000000000000000002b3"
          ],
          "data": "0x",
          "blockHash": "0x89015141deb9ecd761882291b326262d9abb60e1432d6baa80fe0a3f9f987897",
          "blockNumber": "0x7513b7",
          "transactionHash": "0x84bb57ef254e10032f0317d25ce7b8297248b0c7ba840c29b9dee093674e674a",
          "transactionIndex": "0xc",
          "logIndex": "0x18",
          "removed": false
        },
        {
          "address": "0x2e8af9c5922623058aa92a183b391e62cb6b2d12",
          "topics": [
            "0xf8e1a15aba9398e019f0b49df1a4fde98ee17ae345cb5f6b5e2c27f5033e8ce7"
          ],
          "data": "0x00000000000000000000000000000000000000000000000000000000000002b3",
          "blockHash": "0x89015141deb9ecd761882291b326262d9abb60e1432d6baa80fe0a3f9f987897",
          "blockNumber": "0x7513b7",
          "transactionHash": "0x84bb57ef254e10032f0317d25ce7b8297248b0c7ba840c29b9dee093674e674a",
          "transactionIndex": "0xc",
          "logIndex": "0x19",
          "removed": false
        }
      ],
      "logsBloom": "0x00000000000000000000000000000000000000020000000000000000000000000000000000000000000000000000000000000000000000000000000000000000000000000000000000000008040000000000000000000000000000000002000000000000020000000000000000000800002000000000800000000010008000000000000000000000000000000000000000000000000000000000000000000000000000000000000000000000000001002000000000004000000000000000008000000002000000000000000000000000000000000000000000000000000020000000000000000000200000000000000000000000100000000000000000000000",
      "type": "0x2",
      "transactionHash": "0x84bb57ef254e10032f0317d25ce7b8297248b0c7ba840c29b9dee093674e674a",
      "transactionIndex": "0xc",
      "blockHash": "0x89015141deb9ecd761882291b326262d9abb60e1432d6baa80fe0a3f9f987897",
      "blockNumber": "0x7513b7",
      "gasUsed": "0x2ccb8",
      "effectiveGasPrice": "0xfd",
      "from": "0xcda2fdb452ff4f5d7ba1c3d5dfcc9cb926a5eb7d",
      "to": "0x79dfbed14077b8f2421eece5707a17b161094e6a",
      "contractAddress": null,
      "l1BaseFeeScalar": "0x186a0",
      "l1BlobBaseFee": "0x1",
      "l1BlobBaseFeeScalar": "0x95506",
      "l1Fee": "0x1c82e783cbd",
      "l1GasPrice": "0x2d9e3f394",
      "l1GasUsed": "0x640"
    },
    {
      "status": "0x1",
      "cumulativeGasUsed": "0x2511de",
      "logs": [
        {
          "address": "0x2e8af9c5922623058aa92a183b391e62cb6b2d12",
          "topics": [
            "0xddf252ad1be2c89b69c2b068fc378daa952ba7f163c4a11628f55a4df523b3ef",
            "0x0000000000000000000000000000000000000000000000000000000000000000",
            "0x000000000000000000000000cda2fdb452ff4f5d7ba1c3d5dfcc9cb926a5eb7d",
            "0x00000000000000000000000000000000000000000000000000000000000002b4"
          ],
          "data": "0x",
          "blockHash": "0x89015141deb9ecd761882291b326262d9abb60e1432d6baa80fe0a3f9f987897",
          "blockNumber": "0x7513b7",
          "transactionHash": "0x749b37f4308dfa3a81f742b9a2235186267b3c4bbff0a46e10e530e066ad3536",
          "transactionIndex": "0xd",
          "logIndex": "0x1a",
          "removed": false
        },
        {
          "address": "0x2e8af9c5922623058aa92a183b391e62cb6b2d12",
          "topics": [
            "0xf8e1a15aba9398e019f0b49df1a4fde98ee17ae345cb5f6b5e2c27f5033e8ce7"
          ],
          "data": "0x00000000000000000000000000000000000000000000000000000000000002b4",
          "blockHash": "0x89015141deb9ecd761882291b326262d9abb60e1432d6baa80fe0a3f9f987897",
          "blockNumber": "0x7513b7",
          "transactionHash": "0x749b37f4308dfa3a81f742b9a2235186267b3c4bbff0a46e10e530e066ad3536",
          "transactionIndex": "0xd",
          "logIndex": "0x1b",
          "removed": false
        }
      ],
      "logsBloom": "0x00000000002000000000000000000000000000020000000000000000000000000000000000000000000000000000000000000000000000000000000000000000000000000000000000000008040000000000000000000000000000000000000000000000020000000000000000000800002000000000800000000010000000000000000000000000000000000000000000000000000000000000000000000000000000000000000000000000000000002000000000004000000000000000008000000002000000000000000000000000000000000000000000008000200020000000000000000000200000000000000000000000100000000000000000000000",
      "type": "0x2",
      "transactionHash": "0x749b37f4308dfa3a81f742b9a2235186267b3c4bbff0a46e10e530e066ad3536",
      "transactionIndex": "0xd",
      "blockHash": "0x89015141deb9ecd761882291b326262d9abb60e1432d6baa80fe0a3f9f987897",
      "blockNumber": "0x7513b7",
      "gasUsed": "0x2ccb8",
      "effectiveGasPrice": "0xfd",
      "from": "0xcda2fdb452ff4f5d7ba1c3d5dfcc9cb926a5eb7d",
      "to": "0x79dfbed14077b8f2421eece5707a17b161094e6a",
      "contractAddress": null,
      "l1BaseFeeScalar": "0x186a0",
      "l1BlobBaseFee": "0x1",
      "l1BlobBaseFeeScalar": "0x95506",
      "l1Fee": "0x1c82e783cbd",
      "l1GasPrice": "0x2d9e3f394",
      "l1GasUsed": "0x640"
    },
    {
      "status": "0x1",
      "cumulativeGasUsed": "0x27de96",
      "logs": [
        {
          "address": "0x2e8af9c5922623058aa92a183b391e62cb6b2d12",
          "topics": [
            "0xddf252ad1be2c89b69c2b068fc378daa952ba7f163c4a11628f55a4df523b3ef",
            "0x0000000000000000000000000000000000000000000000000000000000000000",
            "0x000000000000000000000000cda2fdb452ff4f5d7ba1c3d5dfcc9cb926a5eb7d",
            "0x00000000000000000000000000000000000000000000000000000000000002b5"
          ],
          "data": "0x",
          "blockHash": "0x89015141deb9ecd761882291b326262d9abb60e1432d6baa80fe0a3f9f987897",
          "blockNumber": "0x7513b7",
          "transactionHash": "0xe18037c77a7da50560451db975826d7832166baf70cb2d1edb7f51b9b2c42c88",
          "transactionIndex": "0xe",
          "logIndex": "0x1c",
          "removed": false
        },
        {
          "address": "0x2e8af9c5922623058aa92a183b391e62cb6b2d12",
          "topics": [
            "0xf8e1a15aba9398e019f0b49df1a4fde98ee17ae345cb5f6b5e2c27f5033e8ce7"
          ],
          "data": "0x00000000000000000000000000000000000000000000000000000000000002b5",
          "blockHash": "0x89015141deb9ecd761882291b326262d9abb60e1432d6baa80fe0a3f9f987897",
          "blockNumber": "0x7513b7",
          "transactionHash": "0xe18037c77a7da50560451db975826d7832166baf70cb2d1edb7f51b9b2c42c88",
          "transactionIndex": "0xe",
          "logIndex": "0x1d",
          "removed": false
        }
      ],
      "logsBloom": "0x00000000000000000000000000000000800000020000000000000000000000000000000000000000000000000000000000000000000000000000000000000000000000000000000000000008040000000000000000000000000000000000000000000000020000000000000000000800002000000000800000000010000000000000000000000000000000000000000000000000000000000000000000000000000000000000000000000000000000002000000000004000000000000000008000000002000000000000000000000000000000000000000000000000000020000000000000004000200000000000000000000000100000000000000000000008",
      "type": "0x2",
      "transactionHash": "0xe18037c77a7da50560451db975826d7832166baf70cb2d1edb7f51b9b2c42c88",
      "transactionIndex": "0xe",
      "blockHash": "0x89015141deb9ecd761882291b326262d9abb60e1432d6baa80fe0a3f9f987897",
      "blockNumber": "0x7513b7",
      "gasUsed": "0x2ccb8",
      "effectiveGasPrice": "0xfd",
      "from": "0xcda2fdb452ff4f5d7ba1c3d5dfcc9cb926a5eb7d",
      "to": "0x79dfbed14077b8f2421eece5707a17b161094e6a",
      "contractAddress": null,
      "l1BaseFeeScalar": "0x186a0",
      "l1BlobBaseFee": "0x1",
      "l1BlobBaseFeeScalar": "0x95506",
      "l1Fee": "0x1c82e783cbd",
      "l1GasPrice": "0x2d9e3f394",
      "l1GasUsed": "0x640"
    },
    {
      "status": "0x1",
      "cumulativeGasUsed": "0x2aab4e",
      "logs": [
        {
          "address": "0x2e8af9c5922623058aa92a183b391e62cb6b2d12",
          "topics": [
            "0xddf252ad1be2c89b69c2b068fc378daa952ba7f163c4a11628f55a4df523b3ef",
            "0x0000000000000000000000000000000000000000000000000000000000000000",
            "0x000000000000000000000000cda2fdb452ff4f5d7ba1c3d5dfcc9cb926a5eb7d",
            "0x00000000000000000000000000000000000000000000000000000000000002b6"
          ],
          "data": "0x",
          "blockHash": "0x89015141deb9ecd761882291b326262d9abb60e1432d6baa80fe0a3f9f987897",
          "blockNumber": "0x7513b7",
          "transactionHash": "0x753d13d89e60282dfed76614652bbd858e3ec006b13d443df49084c477b34596",
          "transactionIndex": "0xf",
          "logIndex": "0x1e",
          "removed": false
        },
        {
          "address": "0x2e8af9c5922623058aa92a183b391e62cb6b2d12",
          "topics": [
            "0xf8e1a15aba9398e019f0b49df1a4fde98ee17ae345cb5f6b5e2c27f5033e8ce7"
          ],
          "data": "0x00000000000000000000000000000000000000000000000000000000000002b6",
          "blockHash": "0x89015141deb9ecd761882291b326262d9abb60e1432d6baa80fe0a3f9f987897",
          "blockNumber": "0x7513b7",
          "transactionHash": "0x753d13d89e60282dfed76614652bbd858e3ec006b13d443df49084c477b34596",
          "transactionIndex": "0xf",
          "logIndex": "0x1f",
          "removed": false
        }
      ],
      "logsBloom": "0x00000000000000000000000000000000000000020000000000000000000000000000000000000000000000000000000000000000000000000000000000000000000000000000000000000008040000000000000000000000000000000000000000000000020000000000000000000800002000000000800000000010000000000000000000000000000000000000000000000000000000000000000000000000000000000000000000000000000000002000000000004000000000000000008080000002000000000000000000000000000000000000000000000200000020000000080000000000200000000000000000000000100000000000000000000000",
      "type": "0x2",
      "transactionHash": "0x753d13d89e60282dfed76614652bbd858e3ec006b13d443df49084c477b34596",
      "transactionIndex": "0xf",
      "blockHash": "0x89015141deb9ecd761882291b326262d9abb60e1432d6baa80fe0a3f9f987897",
      "blockNumber": "0x7513b7",
      "gasUsed": "0x2ccb8",
      "effectiveGasPrice": "0xfd",
      "from": "0xcda2fdb452ff4f5d7ba1c3d5dfcc9cb926a5eb7d",
      "to": "0x79dfbed14077b8f2421eece5707a17b161094e6a",
      "contractAddress": null,
      "l1BaseFeeScalar": "0x186a0",
      "l1BlobBaseFee": "0x1",
      "l1BlobBaseFeeScalar": "0x95506",
      "l1Fee": "0x1c82e783cbd",
      "l1GasPrice": "0x2d9e3f394",
      "l1GasUsed": "0x640"
    },
    {
      "status": "0x1",
      "cumulativeGasUsed": "0x2d7806",
      "logs": [
        {
          "address": "0x2e8af9c5922623058aa92a183b391e62cb6b2d12",
          "topics": [
            "0xddf252ad1be2c89b69c2b068fc378daa952ba7f163c4a11628f55a4df523b3ef",
            "0x0000000000000000000000000000000000000000000000000000000000000000",
            "0x000000000000000000000000cda2fdb452ff4f5d7ba1c3d5dfcc9cb926a5eb7d",
            "0x00000000000000000000000000000000000000000000000000000000000002b7"
          ],
          "data": "0x",
          "blockHash": "0x89015141deb9ecd761882291b326262d9abb60e1432d6baa80fe0a3f9f987897",
          "blockNumber": "0x7513b7",
          "transactionHash": "0x0b374e067fb235f33a51b6a6e2d3448c6428f3b1c1b70b65eaa07e979512ed22",
          "transactionIndex": "0x10",
          "logIndex": "0x20",
          "removed": false
        },
        {
          "address": "0x2e8af9c5922623058aa92a183b391e62cb6b2d12",
          "topics": [
            "0xf8e1a15aba9398e019f0b49df1a4fde98ee17ae345cb5f6b5e2c27f5033e8ce7"
          ],
          "data": "0x00000000000000000000000000000000000000000000000000000000000002b7",
          "blockHash": "0x89015141deb9ecd761882291b326262d9abb60e1432d6baa80fe0a3f9f987897",
          "blockNumber": "0x7513b7",
          "transactionHash": "0x0b374e067fb235f33a51b6a6e2d3448c6428f3b1c1b70b65eaa07e979512ed22",
          "transactionIndex": "0x10",
          "logIndex": "0x21",
          "removed": false
        }
      ],
      "logsBloom": "0x00000000000000000000000000000000000000020000000000000000000000000000000000000000000000000000000000000000000000000000000000000000000000000000000000000008040000000000000000000000000000000000000000000000020000000000000000000800002000000000800000000010000000000000000000000000000000000000000000000000100000000000000000010000000000000000000000000000000000002000000000004000000000000000008000000002000000000000000000000000000000000000000000000000000020000000000000000000200000000000000000000000100000000000000000000040",
      "type": "0x2",
      "transactionHash": "0x0b374e067fb235f33a51b6a6e2d3448c6428f3b1c1b70b65eaa07e979512ed22",
      "transactionIndex": "0x10",
      "blockHash": "0x89015141deb9ecd761882291b326262d9abb60e1432d6baa80fe0a3f9f987897",
      "blockNumber": "0x7513b7",
      "gasUsed": "0x2ccb8",
      "effectiveGasPrice": "0xfd",
      "from": "0xcda2fdb452ff4f5d7ba1c3d5dfcc9cb926a5eb7d",
      "to": "0x79dfbed14077b8f2421eece5707a17b161094e6a",
      "contractAddress": null,
      "l1BaseFeeScalar": "0x186a0",
      "l1BlobBaseFee": "0x1",
      "l1BlobBaseFeeScalar": "0x95506",
      "l1Fee": "0x1c82e783cbd",
      "l1GasPrice": "0x2d9e3f394",
      "l1GasUsed": "0x640"
    },
    {
      "status": "0x1",
      "cumulativeGasUsed": "0x3044be",
      "logs": [
        {
          "address": "0x2e8af9c5922623058aa92a183b391e62cb6b2d12",
          "topics": [
            "0xddf252ad1be2c89b69c2b068fc378daa952ba7f163c4a11628f55a4df523b3ef",
            "0x0000000000000000000000000000000000000000000000000000000000000000",
            "0x000000000000000000000000cda2fdb452ff4f5d7ba1c3d5dfcc9cb926a5eb7d",
            "0x00000000000000000000000000000000000000000000000000000000000002b8"
          ],
          "data": "0x",
          "blockHash": "0x89015141deb9ecd761882291b326262d9abb60e1432d6baa80fe0a3f9f987897",
          "blockNumber": "0x7513b7",
          "transactionHash": "0x0dfb452e0b4a5055f1e9717468a5c8cb57ab2dbb7425f8302a1a05d7be4cdb2b",
          "transactionIndex": "0x11",
          "logIndex": "0x22",
          "removed": false
        },
        {
          "address": "0x2e8af9c5922623058aa92a183b391e62cb6b2d12",
          "topics": [
            "0xf8e1a15aba9398e019f0b49df1a4fde98ee17ae345cb5f6b5e2c27f5033e8ce7"
          ],
          "data": "0x00000000000000000000000000000000000000000000000000000000000002b8",
          "blockHash": "0x89015141deb9ecd761882291b326262d9abb60e1432d6baa80fe0a3f9f987897",
          "blockNumber": "0x7513b7",
          "transactionHash": "0x0dfb452e0b4a5055f1e9717468a5c8cb57ab2dbb7425f8302a1a05d7be4cdb2b",
          "transactionIndex": "0x11",
          "logIndex": "0x23",
          "removed": false
        }
      ],
      "logsBloom": "0x00000000000000000000000000000000000000020000000000000008000000000000000000000000000000000000000000000000000000000000000000400000000000000000000000000008040000000000000000000000000000000000000000000000020000000000000000000800002000000000800000000010000000000000000000000000000000000000000000000000000000000000000000000000000000000000000000000000000000002000400000004000000000000000008000000002000000000000000000000000000000000000000000000000000020000000000000000000200000000000000000000000100000000000000000000000",
      "type": "0x2",
      "transactionHash": "0x0dfb452e0b4a5055f1e9717468a5c8cb57ab2dbb7425f8302a1a05d7be4cdb2b",
      "transactionIndex": "0x11",
      "blockHash": "0x89015141deb9ecd761882291b326262d9abb60e1432d6baa80fe0a3f9f987897",
      "blockNumber": "0x7513b7",
      "gasUsed": "0x2ccb8",
      "effectiveGasPrice": "0xfd",
      "from": "0xcda2fdb452ff4f5d7ba1c3d5dfcc9cb926a5eb7d",
      "to": "0x79dfbed14077b8f2421eece5707a17b161094e6a",
      "contractAddress": null,
      "l1BaseFeeScalar": "0x186a0",
      "l1BlobBaseFee": "0x1",
      "l1BlobBaseFeeScalar": "0x95506",
      "l1Fee": "0x1c82e783cbd",
      "l1GasPrice": "0x2d9e3f394",
      "l1GasUsed": "0x640"
    },
    {
      "status": "0x1",
      "cumulativeGasUsed": "0x331176",
      "logs": [
        {
          "address": "0x2e8af9c5922623058aa92a183b391e62cb6b2d12",
          "topics": [
            "0xddf252ad1be2c89b69c2b068fc378daa952ba7f163c4a11628f55a4df523b3ef",
            "0x0000000000000000000000000000000000000000000000000000000000000000",
            "0x000000000000000000000000cda2fdb452ff4f5d7ba1c3d5dfcc9cb926a5eb7d",
            "0x00000000000000000000000000000000000000000000000000000000000002b9"
          ],
          "data": "0x",
          "blockHash": "0x89015141deb9ecd761882291b326262d9abb60e1432d6baa80fe0a3f9f987897",
          "blockNumber": "0x7513b7",
          "transactionHash": "0xcaf17a75858f6f7e488e287c2e92ffa6788e6d43fd33faad630d844c2024317b",
          "transactionIndex": "0x12",
          "logIndex": "0x24",
          "removed": false
        },
        {
          "address": "0x2e8af9c5922623058aa92a183b391e62cb6b2d12",
          "topics": [
            "0xf8e1a15aba9398e019f0b49df1a4fde98ee17ae345cb5f6b5e2c27f5033e8ce7"
          ],
          "data": "0x00000000000000000000000000000000000000000000000000000000000002b9",
          "blockHash": "0x89015141deb9ecd761882291b326262d9abb60e1432d6baa80fe0a3f9f987897",
          "blockNumber": "0x7513b7",
          "transactionHash": "0xcaf17a75858f6f7e488e287c2e92ffa6788e6d43fd33faad630d844c2024317b",
          "transactionIndex": "0x12",
          "logIndex": "0x25",
          "removed": false
        }
      ],
      "logsBloom": "0x00000000000000000000000000000000000000020000000000000000000000000000000000000000000000000000000000000000000000000000000000000000000000000000000000000008040000000000000000000000000000000000000000000000020000000000000000000800002000000000800000000010000000080000000000000000000000010000000000000000000000000000000000000000000000000000000000000000000000002000000000004000000000000000008000000002000200000000000000000000000000000000000000000000000020000000000000000000200000000000000000000000100000000000000000000000",
      "type": "0x2",
      "transactionHash": "0xcaf17a75858f6f7e488e287c2e92ffa6788e6d43fd33faad630d844c2024317b",
      "transactionIndex": "0x12",
      "blockHash": "0x89015141deb9ecd761882291b326262d9abb60e1432d6baa80fe0a3f9f987897",
      "blockNumber": "0x7513b7",
      "gasUsed": "0x2ccb8",
      "effectiveGasPrice": "0xfd",
      "from": "0xcda2fdb452ff4f5d7ba1c3d5dfcc9cb926a5eb7d",
      "to": "0x79dfbed14077b8f2421eece5707a17b161094e6a",
      "contractAddress": null,
      "l1BaseFeeScalar": "0x186a0",
      "l1BlobBaseFee": "0x1",
      "l1BlobBaseFeeScalar": "0x95506",
      "l1Fee": "0x1c82e783cbd",
      "l1GasPrice": "0x2d9e3f394",
      "l1GasUsed": "0x640"
    },
    {
      "status": "0x1",
      "cumulativeGasUsed": "0x35de2e",
      "logs": [
        {
          "address": "0x2e8af9c5922623058aa92a183b391e62cb6b2d12",
          "topics": [
            "0xddf252ad1be2c89b69c2b068fc378daa952ba7f163c4a11628f55a4df523b3ef",
            "0x0000000000000000000000000000000000000000000000000000000000000000",
            "0x000000000000000000000000cda2fdb452ff4f5d7ba1c3d5dfcc9cb926a5eb7d",
            "0x00000000000000000000000000000000000000000000000000000000000002ba"
          ],
          "data": "0x",
          "blockHash": "0x89015141deb9ecd761882291b326262d9abb60e1432d6baa80fe0a3f9f987897",
          "blockNumber": "0x7513b7",
          "transactionHash": "0x28824fdfd268b91d4d30d21e9521d8497497b590df84e06a6cbdd0bb9e3f9408",
          "transactionIndex": "0x13",
          "logIndex": "0x26",
          "removed": false
        },
        {
          "address": "0x2e8af9c5922623058aa92a183b391e62cb6b2d12",
          "topics": [
            "0xf8e1a15aba9398e019f0b49df1a4fde98ee17ae345cb5f6b5e2c27f5033e8ce7"
          ],
          "data": "0x00000000000000000000000000000000000000000000000000000000000002ba",
          "blockHash": "0x89015141deb9ecd761882291b326262d9abb60e1432d6baa80fe0a3f9f987897",
          "blockNumber": "0x7513b7",
          "transactionHash": "0x28824fdfd268b91d4d30d21e9521d8497497b590df84e06a6cbdd0bb9e3f9408",
          "transactionIndex": "0x13",
          "logIndex": "0x27",
          "removed": false
        }
      ],
      "logsBloom": "0x00000000000000000000000000000000000000020000000000000000000000000000000000000000000000000000000000000000000000000000000000000000000000000000000000000008040000000000000000000000000000000000000080000000020000000000000000000800002000000000800000000018000000000000000000000000000000000000000000000000000000000000000000000000000000000000000000000000000000002000000000004000000000000000008000000002000000000000000000000000000000000000000000000000000020000000000000000000200000000000000000000000180000000000000000000000",
      "type": "0x2",
      "transactionHash": "0x28824fdfd268b91d4d30d21e9521d8497497b590df84e06a6cbdd0bb9e3f9408",
      "transactionIndex": "0x13",
      "blockHash": "0x89015141deb9ecd761882291b326262d9abb60e1432d6baa80fe0a3f9f987897",
      "blockNumber": "0x7513b7",
      "gasUsed": "0x2ccb8",
      "effectiveGasPrice": "0xfd",
      "from": "0xcda2fdb452ff4f5d7ba1c3d5dfcc9cb926a5eb7d",
      "to": "0x79dfbed14077b8f2421eece5707a17b161094e6a",
      "contractAddress": null,
      "l1BaseFeeScalar": "0x186a0",
      "l1BlobBaseFee": "0x1",
      "l1BlobBaseFeeScalar": "0x95506",
      "l1Fee": "0x1c82e783cbd",
      "l1GasPrice": "0x2d9e3f394",
      "l1GasUsed": "0x640"
    },
    {
      "status": "0x1",
      "cumulativeGasUsed": "0x38aae6",
      "logs": [
        {
          "address": "0x2e8af9c5922623058aa92a183b391e62cb6b2d12",
          "topics": [
            "0xddf252ad1be2c89b69c2b068fc378daa952ba7f163c4a11628f55a4df523b3ef",
            "0x0000000000000000000000000000000000000000000000000000000000000000",
            "0x000000000000000000000000cda2fdb452ff4f5d7ba1c3d5dfcc9cb926a5eb7d",
            "0x00000000000000000000000000000000000000000000000000000000000002bb"
          ],
          "data": "0x",
          "blockHash": "0x89015141deb9ecd761882291b326262d9abb60e1432d6baa80fe0a3f9f987897",
          "blockNumber": "0x7513b7",
          "transactionHash": "0x95fb0e94f54a2d7b43f8b86a66ffff5b40cb17f00a7f5e861e5931b84de983f2",
          "transactionIndex": "0x14",
          "logIndex": "0x28",
          "removed": false
        },
        {
          "address": "0x2e8af9c5922623058aa92a183b391e62cb6b2d12",
          "topics": [
            "0xf8e1a15aba9398e019f0b49df1a4fde98ee17ae345cb5f6b5e2c27f5033e8ce7"
          ],
          "data": "0x00000000000000000000000000000000000000000000000000000000000002bb",
          "blockHash": "0x89015141deb9ecd761882291b326262d9abb60e1432d6baa80fe0a3f9f987897",
          "blockNumber": "0x7513b7",
          "transactionHash": "0x95fb0e94f54a2d7b43f8b86a66ffff5b40cb17f00a7f5e861e5931b84de983f2",
          "transactionIndex": "0x14",
          "logIndex": "0x29",
          "removed": false
        }
      ],
      "logsBloom": "0x00000800000000000000000000000000000000020000000000000000000000000000000000000000000000000000000000000000000000000000000000000000000000000000000000000008040000000000000000000000000000000000000000000000020000000000000000000800002000000000800000000010000000000000000000000000000000000000000000000000000000000000000000000000000000000000000000000002000000002000000000004000000000000000008000000002000000000000000000000000010000000000000000000000000020000000000000000000200000000000000000000000100000000000000000000000",
      "type": "0x2",
      "transactionHash": "0x95fb0e94f54a2d7b43f8b86a66ffff5b40cb17f00a7f5e861e5931b84de983f2",
      "transactionIndex": "0x14",
      "blockHash": "0x89015141deb9ecd761882291b326262d9abb60e1432d6baa80fe0a3f9f987897",
      "blockNumber": "0x7513b7",
      "gasUsed": "0x2ccb8",
      "effectiveGasPrice": "0xfd",
      "from": "0xcda2fdb452ff4f5d7ba1c3d5dfcc9cb926a5eb7d",
      "to": "0x79dfbed14077b8f2421eece5707a17b161094e6a",
      "contractAddress": null,
      "l1BaseFeeScalar": "0x186a0",
      "l1BlobBaseFee": "0x1",
      "l1BlobBaseFeeScalar": "0x95506",
      "l1Fee": "0x1c82e783cbd",
      "l1GasPrice": "0x2d9e3f394",
      "l1GasUsed": "0x640"
    },
    {
      "status": "0x1",
      "cumulativeGasUsed": "0x3b779e",
      "logs": [
        {
          "address": "0x2e8af9c5922623058aa92a183b391e62cb6b2d12",
          "topics": [
            "0xddf252ad1be2c89b69c2b068fc378daa952ba7f163c4a11628f55a4df523b3ef",
            "0x0000000000000000000000000000000000000000000000000000000000000000",
            "0x000000000000000000000000cda2fdb452ff4f5d7ba1c3d5dfcc9cb926a5eb7d",
            "0x00000000000000000000000000000000000000000000000000000000000002bc"
          ],
          "data": "0x",
          "blockHash": "0x89015141deb9ecd761882291b326262d9abb60e1432d6baa80fe0a3f9f987897",
          "blockNumber": "0x7513b7",
          "transactionHash": "0xa73ea74ebd897f61c21ce9af4ff1707d6f786b74a72caea107d38e63ba3c2771",
          "transactionIndex": "0x15",
          "logIndex": "0x2a",
          "removed": false
        },
        {
          "address": "0x2e8af9c5922623058aa92a183b391e62cb6b2d12",
          "topics": [
            "0xf8e1a15aba9398e019f0b49df1a4fde98ee17ae345cb5f6b5e2c27f5033e8ce7"
          ],
          "data": "0x00000000000000000000000000000000000000000000000000000000000002bc",
          "blockHash": "0x89015141deb9ecd761882291b326262d9abb60e1432d6baa80fe0a3f9f987897",
          "blockNumber": "0x7513b7",
          "transactionHash": "0xa73ea74ebd897f61c21ce9af4ff1707d6f786b74a72caea107d38e63ba3c2771",
          "transactionIndex": "0x15",
          "logIndex": "0x2b",
          "removed": false
        }
      ],
      "logsBloom": "0x00000000000000000000000000000000000000020000000000000000000000000000000000000000000000000000010000000000000000000000000000000000000000000000000000000008040000000000000000000000000000000000000000000000020000000000000000000800002000000000800000000010000000000000000000000000000000000000000000000000000000000000000000000000400000000000000000000000000000002000000000004000000000000000008000000402000000000000000000000000000000000000000000000000000020000000000000000000200000000000000000000000100000000000000000000000",
      "type": "0x2",
      "transactionHash": "0xa73ea74ebd897f61c21ce9af4ff1707d6f786b74a72caea107d38e63ba3c2771",
      "transactionIndex": "0x15",
      "blockHash": "0x89015141deb9ecd761882291b326262d9abb60e1432d6baa80fe0a3f9f987897",
      "blockNumber": "0x7513b7",
      "gasUsed": "0x2ccb8",
      "effectiveGasPrice": "0xfd",
      "from": "0xcda2fdb452ff4f5d7ba1c3d5dfcc9cb926a5eb7d",
      "to": "0x79dfbed14077b8f2421eece5707a17b161094e6a",
      "contractAddress": null,
      "l1BaseFeeScalar": "0x186a0",
      "l1BlobBaseFee": "0x1",
      "l1BlobBaseFeeScalar": "0x95506",
      "l1Fee": "0x1c82e783cbd",
      "l1GasPrice": "0x2d9e3f394",
      "l1GasUsed": "0x640"
    },
    {
      "status": "0x1",
      "cumulativeGasUsed": "0x3e4456",
      "logs": [
        {
          "address": "0x2e8af9c5922623058aa92a183b391e62cb6b2d12",
          "topics": [
            "0xddf252ad1be2c89b69c2b068fc378daa952ba7f163c4a11628f55a4df523b3ef",
            "0x0000000000000000000000000000000000000000000000000000000000000000",
            "0x000000000000000000000000cda2fdb452ff4f5d7ba1c3d5dfcc9cb926a5eb7d",
            "0x00000000000000000000000000000000000000000000000000000000000002bd"
          ],
          "data": "0x",
          "blockHash": "0x89015141deb9ecd761882291b326262d9abb60e1432d6baa80fe0a3f9f987897",
          "blockNumber": "0x7513b7",
          "transactionHash": "0x2776828f38a994989c0d2eab2374bf9142f89c4404ada71b9023d8fef91cf0cf",
          "transactionIndex": "0x16",
          "logIndex": "0x2c",
          "removed": false
        },
        {
          "address": "0x2e8af9c5922623058aa92a183b391e62cb6b2d12",
          "topics": [
            "0xf8e1a15aba9398e019f0b49df1a4fde98ee17ae345cb5f6b5e2c27f5033e8ce7"
          ],
          "data": "0x00000000000000000000000000000000000000000000000000000000000002bd",
          "blockHash": "0x89015141deb9ecd761882291b326262d9abb60e1432d6baa80fe0a3f9f987897",
          "blockNumber": "0x7513b7",
          "transactionHash": "0x2776828f38a994989c0d2eab2374bf9142f89c4404ada71b9023d8fef91cf0cf",
          "transactionIndex": "0x16",
          "logIndex": "0x2d",
          "removed": false
        }
      ],
      "logsBloom": "0x00000000000000000000000000000000000200020000000000000000000000000000000000000000000000000000000000000000000000000000000000000000000000000000000000000008040000000000000000000000000000000000000000000000020000000000000000000800002000000000800000000010000000000000000000000000000000000000000000000800000100000000000000000000000000000000000000000000000000002000000000004000000000000000008000000002000000000000000000000000000000000000000000000000000020000000000000000000200000000000000000000000100000000000000000000000",
      "type": "0x2",
      "transactionHash": "0x2776828f38a994989c0d2eab2374bf9142f89c4404ada71b9023d8fef91cf0cf",
      "transactionIndex": "0x16",
      "blockHash": "0x89015141deb9ecd761882291b326262d9abb60e1432d6baa80fe0a3f9f987897",
      "blockNumber": "0x7513b7",
      "gasUsed": "0x2ccb8",
      "effectiveGasPrice": "0xfd",
      "from": "0xcda2fdb452ff4f5d7ba1c3d5dfcc9cb926a5eb7d",
      "to": "0x79dfbed14077b8f2421eece5707a17b161094e6a",
      "contractAddress": null,
      "l1BaseFeeScalar": "0x186a0",
      "l1BlobBaseFee": "0x1",
      "l1BlobBaseFeeScalar": "0x95506",
      "l1Fee": "0x1c82e783cbd",
      "l1GasPrice": "0x2d9e3f394",
      "l1GasUsed": "0x640"
    },
    {
      "status": "0x1",
      "cumulativeGasUsed": "0x41110e",
      "logs": [
        {
          "address": "0x2e8af9c5922623058aa92a183b391e62cb6b2d12",
          "topics": [
            "0xddf252ad1be2c89b69c2b068fc378daa952ba7f163c4a11628f55a4df523b3ef",
            "0x0000000000000000000000000000000000000000000000000000000000000000",
            "0x000000000000000000000000cda2fdb452ff4f5d7ba1c3d5dfcc9cb926a5eb7d",
            "0x00000000000000000000000000000000000000000000000000000000000002be"
          ],
          "data": "0x",
          "blockHash": "0x89015141deb9ecd761882291b326262d9abb60e1432d6baa80fe0a3f9f987897",
          "blockNumber": "0x7513b7",
          "transactionHash": "0x26fc5ec7ef6bca812e77aefb5d1e2090e46c5054486bd5e50cfd008a107c7e30",
          "transactionIndex": "0x17",
          "logIndex": "0x2e",
          "removed": false
        },
        {
          "address": "0x2e8af9c5922623058aa92a183b391e62cb6b2d12",
          "topics": [
            "0xf8e1a15aba9398e019f0b49df1a4fde98ee17ae345cb5f6b5e2c27f5033e8ce7"
          ],
          "data": "0x00000000000000000000000000000000000000000000000000000000000002be",
          "blockHash": "0x89015141deb9ecd761882291b326262d9abb60e1432d6baa80fe0a3f9f987897",
          "blockNumber": "0x7513b7",
          "transactionHash": "0x26fc5ec7ef6bca812e77aefb5d1e2090e46c5054486bd5e50cfd008a107c7e30",
          "transactionIndex": "0x17",
          "logIndex": "0x2f",
          "removed": false
        }
      ],
      "logsBloom": "0x00000000000000000000000000000000000000020000000000000000000000000000000000000000000000000200000000000000000000000000000000000000000000000000000000000008040000000000000200000000000000000000000000000000020000000000000000000800002000000000800000000010000000000000000000000000000000000000000000000000000000000000000000000000000000000000000000000000000000002000000000004000000000000000008000000002000000000000000000000000000000000000000000000000000020000000100000000000200000000000000000000000100000000000000000000000",
      "type": "0x2",
      "transactionHash": "0x26fc5ec7ef6bca812e77aefb5d1e2090e46c5054486bd5e50cfd008a107c7e30",
      "transactionIndex": "0x17",
      "blockHash": "0x89015141deb9ecd761882291b326262d9abb60e1432d6baa80fe0a3f9f987897",
      "blockNumber": "0x7513b7",
      "gasUsed": "0x2ccb8",
      "effectiveGasPrice": "0xfd",
      "from": "0xcda2fdb452ff4f5d7ba1c3d5dfcc9cb926a5eb7d",
      "to": "0x79dfbed14077b8f2421eece5707a17b161094e6a",
      "contractAddress": null,
      "l1BaseFeeScalar": "0x186a0",
      "l1BlobBaseFee": "0x1",
      "l1BlobBaseFeeScalar": "0x95506",
      "l1Fee": "0x1c82e783cbd",
      "l1GasPrice": "0x2d9e3f394",
      "l1GasUsed": "0x640"
    },
    {
      "status": "0x1",
      "cumulativeGasUsed": "0x43ddc6",
      "logs": [
        {
          "address": "0x2e8af9c5922623058aa92a183b391e62cb6b2d12",
          "topics": [
            "0xddf252ad1be2c89b69c2b068fc378daa952ba7f163c4a11628f55a4df523b3ef",
            "0x0000000000000000000000000000000000000000000000000000000000000000",
            "0x000000000000000000000000cda2fdb452ff4f5d7ba1c3d5dfcc9cb926a5eb7d",
            "0x00000000000000000000000000000000000000000000000000000000000002bf"
          ],
          "data": "0x",
          "blockHash": "0x89015141deb9ecd761882291b326262d9abb60e1432d6baa80fe0a3f9f987897",
          "blockNumber": "0x7513b7",
          "transactionHash": "0x1c79aed2d9d842aa1c655633283a328968ee5e4ae6058d355ccc193b1487960e",
          "transactionIndex": "0x18",
          "logIndex": "0x30",
          "removed": false
        },
        {
          "address": "0x2e8af9c5922623058aa92a183b391e62cb6b2d12",
          "topics": [
            "0xf8e1a15aba9398e019f0b49df1a4fde98ee17ae345cb5f6b5e2c27f5033e8ce7"
          ],
          "data": "0x00000000000000000000000000000000000000000000000000000000000002bf",
          "blockHash": "0x89015141deb9ecd761882291b326262d9abb60e1432d6baa80fe0a3f9f987897",
          "blockNumber": "0x7513b7",
          "transactionHash": "0x1c79aed2d9d842aa1c655633283a328968ee5e4ae6058d355ccc193b1487960e",
          "transactionIndex": "0x18",
          "logIndex": "0x31",
          "removed": false
        }
      ],
      "logsBloom": "0x00000000000000000000000000000000000000020000000000000000000000000000000000000000000000000000000000000000000000000000000000000000000000000200000000000008040000000000000000000000000000000000000000000000020000000000000000000800002000000000800000000010000000000000004000000000000000000000000080000000000000000000000000000000000000000000000000000000000000002000000000004000000000000000008000000002000000000000000000000000000000000000000000000000000020000000000000000000200000000000000000000000100000000000000000000000",
      "type": "0x2",
      "transactionHash": "0x1c79aed2d9d842aa1c655633283a328968ee5e4ae6058d355ccc193b1487960e",
      "transactionIndex": "0x18",
      "blockHash": "0x89015141deb9ecd761882291b326262d9abb60e1432d6baa80fe0a3f9f987897",
      "blockNumber": "0x7513b7",
      "gasUsed": "0x2ccb8",
      "effectiveGasPrice": "0xfd",
      "from": "0xcda2fdb452ff4f5d7ba1c3d5dfcc9cb926a5eb7d",
      "to": "0x79dfbed14077b8f2421eece5707a17b161094e6a",
      "contractAddress": null,
      "l1BaseFeeScalar": "0x186a0",
      "l1BlobBaseFee": "0x1",
      "l1BlobBaseFeeScalar": "0x95506",
      "l1Fee": "0x1c82e783cbd",
      "l1GasPrice": "0x2d9e3f394",
      "l1GasUsed": "0x640"
    },
    {
      "status": "0x1",
      "cumulativeGasUsed": "0x46aa7e",
      "logs": [
        {
          "address": "0x2e8af9c5922623058aa92a183b391e62cb6b2d12",
          "topics": [
            "0xddf252ad1be2c89b69c2b068fc378daa952ba7f163c4a11628f55a4df523b3ef",
            "0x0000000000000000000000000000000000000000000000000000000000000000",
            "0x000000000000000000000000cda2fdb452ff4f5d7ba1c3d5dfcc9cb926a5eb7d",
            "0x00000000000000000000000000000000000000000000000000000000000002c0"
          ],
          "data": "0x",
          "blockHash": "0x89015141deb9ecd761882291b326262d9abb60e1432d6baa80fe0a3f9f987897",
          "blockNumber": "0x7513b7",
          "transactionHash": "0xd45c11c67b19324663e7c82ab64aa9348139ff569cc2231d188933f915cd3959",
          "transactionIndex": "0x19",
          "logIndex": "0x32",
          "removed": false
        },
        {
          "address": "0x2e8af9c5922623058aa92a183b391e62cb6b2d12",
          "topics": [
            "0xf8e1a15aba9398e019f0b49df1a4fde98ee17ae345cb5f6b5e2c27f5033e8ce7"
          ],
          "data": "0x00000000000000000000000000000000000000000000000000000000000002c0",
          "blockHash": "0x89015141deb9ecd761882291b326262d9abb60e1432d6baa80fe0a3f9f987897",
          "blockNumber": "0x7513b7",
          "transactionHash": "0xd45c11c67b19324663e7c82ab64aa9348139ff569cc2231d188933f915cd3959",
          "transactionIndex": "0x19",
          "logIndex": "0x33",
          "removed": false
        }
      ],
      "logsBloom": "0x00000000000000100000000000000000000000020000000000000000000000000000000000000000000000000000000000000000000000000000000000000000000000000000000000000008040000000000000000000000000000000000000000000000020000000000000000000800002000010000800000000010000000000000000000000000000000000000000000000000000000000000000000000000000000000000000000000000000000002000000000004000000000000000008000000002000000000000000000000000000080000000000000000000000020000000000000000000200000000000000000000000100000000000000000000000",
      "type": "0x2",
      "transactionHash": "0xd45c11c67b19324663e7c82ab64aa9348139ff569cc2231d188933f915cd3959",
      "transactionIndex": "0x19",
      "blockHash": "0x89015141deb9ecd761882291b326262d9abb60e1432d6baa80fe0a3f9f987897",
      "blockNumber": "0x7513b7",
      "gasUsed": "0x2ccb8",
      "effectiveGasPrice": "0xfd",
      "from": "0xcda2fdb452ff4f5d7ba1c3d5dfcc9cb926a5eb7d",
      "to": "0x79dfbed14077b8f2421eece5707a17b161094e6a",
      "contractAddress": null,
      "l1BaseFeeScalar": "0x186a0",
      "l1BlobBaseFee": "0x1",
      "l1BlobBaseFeeScalar": "0x95506",
      "l1Fee": "0x1c82e783cbd",
      "l1GasPrice": "0x2d9e3f394",
      "l1GasUsed": "0x640"
    },
    {
      "status": "0x1",
      "cumulativeGasUsed": "0x497736",
      "logs": [
        {
          "address": "0x2e8af9c5922623058aa92a183b391e62cb6b2d12",
          "topics": [
            "0xddf252ad1be2c89b69c2b068fc378daa952ba7f163c4a11628f55a4df523b3ef",
            "0x0000000000000000000000000000000000000000000000000000000000000000",
            "0x000000000000000000000000cda2fdb452ff4f5d7ba1c3d5dfcc9cb926a5eb7d",
            "0x00000000000000000000000000000000000000000000000000000000000002c1"
          ],
          "data": "0x",
          "blockHash": "0x89015141deb9ecd761882291b326262d9abb60e1432d6baa80fe0a3f9f987897",
          "blockNumber": "0x7513b7",
          "transactionHash": "0x9f01e0e188463b31eb8f551f272c36fa0b0be286cc370db542bb63e578fa8543",
          "transactionIndex": "0x1a",
          "logIndex": "0x34",
          "removed": false
        },
        {
          "address": "0x2e8af9c5922623058aa92a183b391e62cb6b2d12",
          "topics": [
            "0xf8e1a15aba9398e019f0b49df1a4fde98ee17ae345cb5f6b5e2c27f5033e8ce7"
          ],
          "data": "0x00000000000000000000000000000000000000000000000000000000000002c1",
          "blockHash": "0x89015141deb9ecd761882291b326262d9abb60e1432d6baa80fe0a3f9f987897",
          "blockNumber": "0x7513b7",
          "transactionHash": "0x9f01e0e188463b31eb8f551f272c36fa0b0be286cc370db542bb63e578fa8543",
          "transactionIndex": "0x1a",
          "logIndex": "0x35",
          "removed": false
        }
      ],
      "logsBloom": "0x00000000000000000000000000000000000000020000000000000000000000000000000000000000000000000100000000000000000000000000000000000000000000000000000000000008040000000000000000000000000000000000000000000000020000000000000000000800002000000000800000000010000000000000000000000000000000000000000000000000000000000000000000000000000000000000000000000000000000002000004000004000000000000000008000000002000000000000000000000000000000000000000000000000000020080000000000000000200000000000000000000000100000000000000000000000",
      "type": "0x2",
      "transactionHash": "0x9f01e0e188463b31eb8f551f272c36fa0b0be286cc370db542bb63e578fa8543",
      "transactionIndex": "0x1a",
      "blockHash": "0x89015141deb9ecd761882291b326262d9abb60e1432d6baa80fe0a3f9f987897",
      "blockNumber": "0x7513b7",
      "gasUsed": "0x2ccb8",
      "effectiveGasPrice": "0xfd",
      "from": "0xcda2fdb452ff4f5d7ba1c3d5dfcc9cb926a5eb7d",
      "to": "0x79dfbed14077b8f2421eece5707a17b161094e6a",
      "contractAddress": null,
      "l1BaseFeeScalar": "0x186a0",
      "l1BlobBaseFee": "0x1",
      "l1BlobBaseFeeScalar": "0x95506",
      "l1Fee": "0x1c82e783cbd",
      "l1GasPrice": "0x2d9e3f394",
      "l1GasUsed": "0x640"
    },
    {
      "status": "0x1",
      "cumulativeGasUsed": "0x4c43ee",
      "logs": [
        {
          "address": "0x2e8af9c5922623058aa92a183b391e62cb6b2d12",
          "topics": [
            "0xddf252ad1be2c89b69c2b068fc378daa952ba7f163c4a11628f55a4df523b3ef",
            "0x0000000000000000000000000000000000000000000000000000000000000000",
            "0x000000000000000000000000cda2fdb452ff4f5d7ba1c3d5dfcc9cb926a5eb7d",
            "0x00000000000000000000000000000000000000000000000000000000000002c2"
          ],
          "data": "0x",
          "blockHash": "0x89015141deb9ecd761882291b326262d9abb60e1432d6baa80fe0a3f9f987897",
          "blockNumber": "0x7513b7",
          "transactionHash": "0x3b800ab327ee120ccba09b09770daec901c9bd14b6cdcfdfa6960e69e2bf1ffc",
          "transactionIndex": "0x1b",
          "logIndex": "0x36",
          "removed": false
        },
        {
          "address": "0x2e8af9c5922623058aa92a183b391e62cb6b2d12",
          "topics": [
            "0xf8e1a15aba9398e019f0b49df1a4fde98ee17ae345cb5f6b5e2c27f5033e8ce7"
          ],
          "data": "0x00000000000000000000000000000000000000000000000000000000000002c2",
          "blockHash": "0x89015141deb9ecd761882291b326262d9abb60e1432d6baa80fe0a3f9f987897",
          "blockNumber": "0x7513b7",
          "transactionHash": "0x3b800ab327ee120ccba09b09770daec901c9bd14b6cdcfdfa6960e69e2bf1ffc",
          "transactionIndex": "0x1b",
          "logIndex": "0x37",
          "removed": false
        }
      ],
      "logsBloom": "0x00000000000000000000000000000000000000020000000000800000000000000000000000000000000000000000000000000000000000000000000000000000000000000000000000000008040000000000000000000000000000000000000000000000020000000000000000000800002000000000800000000010000000000000000000000000000000000100000000000000000000000000000000000000000000000000000000000000000000002000000000004000000000000000008000000002000000000000000000000200000000000000000000000000000020000000000000000000200000000000000000000000100000000000000000000000",
      "type": "0x2",
      "transactionHash": "0x3b800ab327ee120ccba09b09770daec901c9bd14b6cdcfdfa6960e69e2bf1ffc",
      "transactionIndex": "0x1b",
      "blockHash": "0x89015141deb9ecd761882291b326262d9abb60e1432d6baa80fe0a3f9f987897",
      "blockNumber": "0x7513b7",
      "gasUsed": "0x2ccb8",
      "effectiveGasPrice": "0xfd",
      "from": "0xcda2fdb452ff4f5d7ba1c3d5dfcc9cb926a5eb7d",
      "to": "0x79dfbed14077b8f2421eece5707a17b161094e6a",
      "contractAddress": null,
      "l1BaseFeeScalar": "0x186a0",
      "l1BlobBaseFee": "0x1",
      "l1BlobBaseFeeScalar": "0x95506",
      "l1Fee": "0x1c82e783cbd",
      "l1GasPrice": "0x2d9e3f394",
      "l1GasUsed": "0x640"
    },
    {
      "status": "0x1",
      "cumulativeGasUsed": "0x4f10a6",
      "logs": [
        {
          "address": "0x2e8af9c5922623058aa92a183b391e62cb6b2d12",
          "topics": [
            "0xddf252ad1be2c89b69c2b068fc378daa952ba7f163c4a11628f55a4df523b3ef",
            "0x0000000000000000000000000000000000000000000000000000000000000000",
            "0x000000000000000000000000cda2fdb452ff4f5d7ba1c3d5dfcc9cb926a5eb7d",
            "0x00000000000000000000000000000000000000000000000000000000000002c3"
          ],
          "data": "0x",
          "blockHash": "0x89015141deb9ecd761882291b326262d9abb60e1432d6baa80fe0a3f9f987897",
          "blockNumber": "0x7513b7",
          "transactionHash": "0x3a1e05372ba0b9f271d3e3e5df7ab9e0e88bd95227cc8c6b6d1b72b15ddae9fe",
          "transactionIndex": "0x1c",
          "logIndex": "0x38",
          "removed": false
        },
        {
          "address": "0x2e8af9c5922623058aa92a183b391e62cb6b2d12",
          "topics": [
            "0xf8e1a15aba9398e019f0b49df1a4fde98ee17ae345cb5f6b5e2c27f5033e8ce7"
          ],
          "data": "0x00000000000000000000000000000000000000000000000000000000000002c3",
          "blockHash": "0x89015141deb9ecd761882291b326262d9abb60e1432d6baa80fe0a3f9f987897",
          "blockNumber": "0x7513b7",
          "transactionHash": "0x3a1e05372ba0b9f271d3e3e5df7ab9e0e88bd95227cc8c6b6d1b72b15ddae9fe",
          "transactionIndex": "0x1c",
          "logIndex": "0x39",
          "removed": false
        }
      ],
      "logsBloom": "0x00000000000000000000000000000000000000020000000000000000000000000000000000000000000000000000000000000000000000000000000000000000000000000000000000000008040000000000000000000004000000000000000000000000020000000000000000000800002000000000800000000010000000000000000000000000000000000000000000000000000000000000000000000000000000000000000000000000000000002000000000004000000000000000008000000002000000000000000000000000000000001000000000000000000020000000000000000000200000000000000000002000100000000000000000000000",
      "type": "0x2",
      "transactionHash": "0x3a1e05372ba0b9f271d3e3e5df7ab9e0e88bd95227cc8c6b6d1b72b15ddae9fe",
      "transactionIndex": "0x1c",
      "blockHash": "0x89015141deb9ecd761882291b326262d9abb60e1432d6baa80fe0a3f9f987897",
      "blockNumber": "0x7513b7",
      "gasUsed": "0x2ccb8",
      "effectiveGasPrice": "0xfd",
      "from": "0xcda2fdb452ff4f5d7ba1c3d5dfcc9cb926a5eb7d",
      "to": "0x79dfbed14077b8f2421eece5707a17b161094e6a",
      "contractAddress": null,
      "l1BaseFeeScalar": "0x186a0",
      "l1BlobBaseFee": "0x1",
      "l1BlobBaseFeeScalar": "0x95506",
      "l1Fee": "0x1c82e783cbd",
      "l1GasPrice": "0x2d9e3f394",
      "l1GasUsed": "0x640"
    },
    {
      "status": "0x1",
      "cumulativeGasUsed": "0x51dd5e",
      "logs": [
        {
          "address": "0x2e8af9c5922623058aa92a183b391e62cb6b2d12",
          "topics": [
            "0xddf252ad1be2c89b69c2b068fc378daa952ba7f163c4a11628f55a4df523b3ef",
            "0x0000000000000000000000000000000000000000000000000000000000000000",
            "0x000000000000000000000000cda2fdb452ff4f5d7ba1c3d5dfcc9cb926a5eb7d",
            "0x00000000000000000000000000000000000000000000000000000000000002c4"
          ],
          "data": "0x",
          "blockHash": "0x89015141deb9ecd761882291b326262d9abb60e1432d6baa80fe0a3f9f987897",
          "blockNumber": "0x7513b7",
          "transactionHash": "0xc691c27590480e476c32ac55962b3d6ff46c787800fec35705c825a45e9597a3",
          "transactionIndex": "0x1d",
          "logIndex": "0x3a",
          "removed": false
        },
        {
          "address": "0x2e8af9c5922623058aa92a183b391e62cb6b2d12",
          "topics": [
            "0xf8e1a15aba9398e019f0b49df1a4fde98ee17ae345cb5f6b5e2c27f5033e8ce7"
          ],
          "data": "0x00000000000000000000000000000000000000000000000000000000000002c4",
          "blockHash": "0x89015141deb9ecd761882291b326262d9abb60e1432d6baa80fe0a3f9f987897",
          "blockNumber": "0x7513b7",
          "transactionHash": "0xc691c27590480e476c32ac55962b3d6ff46c787800fec35705c825a45e9597a3",
          "transactionIndex": "0x1d",
          "logIndex": "0x3b",
          "removed": false
        }
      ],
      "logsBloom": "0x00000000000000000000000000000000008000020000000000000000000000000000000000000000000000000000000000000000000000000000000000000000000000000000000000000008040010000000000000000000000000000000000000000000020000000000000000000800002000000000800000000010000000000000000000000000000000000000000000000000000000000000000000000000000000000000000000000000000000002000000000004000000000000000008000000002000000000000000000000000000000000000000000000000000020000000000000000000200000000000000080000000100000000000000000000000",
      "type": "0x2",
      "transactionHash": "0xc691c27590480e476c32ac55962b3d6ff46c787800fec35705c825a45e9597a3",
      "transactionIndex": "0x1d",
      "blockHash": "0x89015141deb9ecd761882291b326262d9abb60e1432d6baa80fe0a3f9f987897",
      "blockNumber": "0x7513b7",
      "gasUsed": "0x2ccb8",
      "effectiveGasPrice": "0xfd",
      "from": "0xcda2fdb452ff4f5d7ba1c3d5dfcc9cb926a5eb7d",
      "to": "0x79dfbed14077b8f2421eece5707a17b161094e6a",
      "contractAddress": null,
      "l1BaseFeeScalar": "0x186a0",
      "l1BlobBaseFee": "0x1",
      "l1BlobBaseFeeScalar": "0x95506",
      "l1Fee": "0x1c82e783cbd",
      "l1GasPrice": "0x2d9e3f394",
      "l1GasUsed": "0x640"
    },
    {
      "status": "0x1",
      "cumulativeGasUsed": "0x54aa16",
      "logs": [
        {
          "address": "0x2e8af9c5922623058aa92a183b391e62cb6b2d12",
          "topics": [
            "0xddf252ad1be2c89b69c2b068fc378daa952ba7f163c4a11628f55a4df523b3ef",
            "0x0000000000000000000000000000000000000000000000000000000000000000",
            "0x000000000000000000000000cda2fdb452ff4f5d7ba1c3d5dfcc9cb926a5eb7d",
            "0x00000000000000000000000000000000000000000000000000000000000002c5"
          ],
          "data": "0x",
          "blockHash": "0x89015141deb9ecd761882291b326262d9abb60e1432d6baa80fe0a3f9f987897",
          "blockNumber": "0x7513b7",
          "transactionHash": "0x628ee9cbe8137c26a4dd10ca86daf8f885cd571833cf95259d8d0f5d784e0c49",
          "transactionIndex": "0x1e",
          "logIndex": "0x3c",
          "removed": false
        },
        {
          "address": "0x2e8af9c5922623058aa92a183b391e62cb6b2d12",
          "topics": [
            "0xf8e1a15aba9398e019f0b49df1a4fde98ee17ae345cb5f6b5e2c27f5033e8ce7"
          ],
          "data": "0x00000000000000000000000000000000000000000000000000000000000002c5",
          "blockHash": "0x89015141deb9ecd761882291b326262d9abb60e1432d6baa80fe0a3f9f987897",
          "blockNumber": "0x7513b7",
          "transactionHash": "0x628ee9cbe8137c26a4dd10ca86daf8f885cd571833cf95259d8d0f5d784e0c49",
          "transactionIndex": "0x1e",
          "logIndex": "0x3d",
          "removed": false
        }
      ],
      "logsBloom": "0x00000000000000000000000000000000000000020000000000100000000000000000000000000000000000000000000000000000000000000000000000000000000000000000000000000008040000000000000000000000000000000000000000000000020000000000000000000800002000000000800000000010000000000000000000000000000000000000000000001000000000000000000000000000000000000000000001000000000000002000000000004000000000000000008000000002000000000000000000000000000000000000000000000000000020000000000000000000200000000000000000000000100000000000000000000000",
      "type": "0x2",
      "transactionHash": "0x628ee9cbe8137c26a4dd10ca86daf8f885cd571833cf95259d8d0f5d784e0c49",
      "transactionIndex": "0x1e",
      "blockHash": "0x89015141deb9ecd761882291b326262d9abb60e1432d6baa80fe0a3f9f987897",
      "blockNumber": "0x7513b7",
      "gasUsed": "0x2ccb8",
      "effectiveGasPrice": "0xfd",
      "from": "0xcda2fdb452ff4f5d7ba1c3d5dfcc9cb926a5eb7d",
      "to": "0x79dfbed14077b8f2421eece5707a17b161094e6a",
      "contractAddress": null,
      "l1BaseFeeScalar": "0x186a0",
      "l1BlobBaseFee": "0x1",
      "l1BlobBaseFeeScalar": "0x95506",
      "l1Fee": "0x1c82e783cbd",
      "l1GasPrice": "0x2d9e3f394",
      "l1GasUsed": "0x640"
    }
  ],
  "libraries": [],
  "pending": [],
  "returns": {},
  "timestamp": 1728207511,
  "chain": 60808,
  "commit": "7d9679b"
}