{
  "transactions": [
    {
      "hash": "0xeaca5079f9753114c873e79437e5300b0ed052b955f46553b1b88e3acf435756",
      "transactionType": "CALL",
      "contractName": null,
      "contractAddress": "0x79dfbed14077b8f2421eece5707a17b161094e6a",
      "function": "wlMint(address)",
      "arguments": [
        "0x0000000000000000000000000000000000000000"
      ],
      "transaction": {
        "from": "0xcda2fdb452ff4f5d7ba1c3d5dfcc9cb926a5eb7d",
        "to": "0x79dfbed14077b8f2421eece5707a17b161094e6a",
        "gas": "0x3ddf7",
        "value": "0x0",
        "input": "0xc517b4a50000000000000000000000000000000000000000000000000000000000000000",
        "nonce": "0x1da4",
        "chainId": "0xed88"
      },
      "additionalContracts": [],
      "isFixedGasLimit": false
    },
    {
      "hash": "0xad1a99adb65f1177d7512f3b30755236ae9e94deec7115e1e511b523b3b7452c",
      "transactionType": "CALL",
      "contractName": null,
      "contractAddress": "0x79dfbed14077b8f2421eece5707a17b161094e6a",
      "function": "wlMint(address)",
      "arguments": [
        "0x0000000000000000000000000000000000000000"
      ],
      "transaction": {
        "from": "0xcda2fdb452ff4f5d7ba1c3d5dfcc9cb926a5eb7d",
        "to": "0x79dfbed14077b8f2421eece5707a17b161094e6a",
        "gas": "0x3ddf7",
        "value": "0x0",
        "input": "0xc517b4a50000000000000000000000000000000000000000000000000000000000000000",
        "nonce": "0x1da5",
        "chainId": "0xed88"
      },
      "additionalContracts": [],
      "isFixedGasLimit": false
    },
    {
      "hash": "0x4555144358052d2e7a41cbadd76e01d30ca836d1488fcba2fb0724a6accc91ee",
      "transactionType": "CALL",
      "contractName": null,
      "contractAddress": "0x79dfbed14077b8f2421eece5707a17b161094e6a",
      "function": "wlMint(address)",
      "arguments": [
        "0x0000000000000000000000000000000000000000"
      ],
      "transaction": {
        "from": "0xcda2fdb452ff4f5d7ba1c3d5dfcc9cb926a5eb7d",
        "to": "0x79dfbed14077b8f2421eece5707a17b161094e6a",
        "gas": "0x3ddf7",
        "value": "0x0",
        "input": "0xc517b4a50000000000000000000000000000000000000000000000000000000000000000",
        "nonce": "0x1da6",
        "chainId": "0xed88"
      },
      "additionalContracts": [],
      "isFixedGasLimit": false
    },
    {
      "hash": "0x66505df55eb26fdd05972459ccb9358a531c09cacc3fda8aa177af70d790d0ed",
      "transactionType": "CALL",
      "contractName": null,
      "contractAddress": "0x79dfbed14077b8f2421eece5707a17b161094e6a",
      "function": "wlMint(address)",
      "arguments": [
        "0x0000000000000000000000000000000000000000"
      ],
      "transaction": {
        "from": "0xcda2fdb452ff4f5d7ba1c3d5dfcc9cb926a5eb7d",
        "to": "0x79dfbed14077b8f2421eece5707a17b161094e6a",
        "gas": "0x3ddf7",
        "value": "0x0",
        "input": "0xc517b4a50000000000000000000000000000000000000000000000000000000000000000",
        "nonce": "0x1da7",
        "chainId": "0xed88"
      },
      "additionalContracts": [],
      "isFixedGasLimit": false
    },
    {
      "hash": "0x96f52484625ba717c4c54d9486061b6252f31144742f614cc380bda330f9beaa",
      "transactionType": "CALL",
      "contractName": null,
      "contractAddress": "0x79dfbed14077b8f2421eece5707a17b161094e6a",
      "function": "wlMint(address)",
      "arguments": [
        "0x0000000000000000000000000000000000000000"
      ],
      "transaction": {
        "from": "0xcda2fdb452ff4f5d7ba1c3d5dfcc9cb926a5eb7d",
        "to": "0x79dfbed14077b8f2421eece5707a17b161094e6a",
        "gas": "0x3ddf7",
        "value": "0x0",
        "input": "0xc517b4a50000000000000000000000000000000000000000000000000000000000000000",
        "nonce": "0x1da8",
        "chainId": "0xed88"
      },
      "additionalContracts": [],
      "isFixedGasLimit": false
    },
    {
      "hash": "0x3cd91c47235740c7ed5e11125c5bfba8f5118be7c974564a7f375699360d8f45",
      "transactionType": "CALL",
      "contractName": null,
      "contractAddress": "0x79dfbed14077b8f2421eece5707a17b161094e6a",
      "function": "wlMint(address)",
      "arguments": [
        "0x0000000000000000000000000000000000000000"
      ],
      "transaction": {
        "from": "0xcda2fdb452ff4f5d7ba1c3d5dfcc9cb926a5eb7d",
        "to": "0x79dfbed14077b8f2421eece5707a17b161094e6a",
        "gas": "0x3ddf7",
        "value": "0x0",
        "input": "0xc517b4a50000000000000000000000000000000000000000000000000000000000000000",
        "nonce": "0x1da9",
        "chainId": "0xed88"
      },
      "additionalContracts": [],
      "isFixedGasLimit": false
    },
    {
      "hash": "0xe7f0c9ee59034774378fe5ad546f58d985c1854cdc21c0794566949eb22b9e50",
      "transactionType": "CALL",
      "contractName": null,
      "contractAddress": "0x79dfbed14077b8f2421eece5707a17b161094e6a",
      "function": "wlMint(address)",
      "arguments": [
        "0x0000000000000000000000000000000000000000"
      ],
      "transaction": {
        "from": "0xcda2fdb452ff4f5d7ba1c3d5dfcc9cb926a5eb7d",
        "to": "0x79dfbed14077b8f2421eece5707a17b161094e6a",
        "gas": "0x3ddf7",
        "value": "0x0",
        "input": "0xc517b4a50000000000000000000000000000000000000000000000000000000000000000",
        "nonce": "0x1daa",
        "chainId": "0xed88"
      },
      "additionalContracts": [],
      "isFixedGasLimit": false
    },
    {
      "hash": "0x5e599e81f540e24359e0630423dba255994d114c32a77858cfbcc8ad1d3f179a",
      "transactionType": "CALL",
      "contractName": null,
      "contractAddress": "0x79dfbed14077b8f2421eece5707a17b161094e6a",
      "function": "wlMint(address)",
      "arguments": [
        "0x0000000000000000000000000000000000000000"
      ],
      "transaction": {
        "from": "0xcda2fdb452ff4f5d7ba1c3d5dfcc9cb926a5eb7d",
        "to": "0x79dfbed14077b8f2421eece5707a17b161094e6a",
        "gas": "0x3ddf7",
        "value": "0x0",
        "input": "0xc517b4a50000000000000000000000000000000000000000000000000000000000000000",
        "nonce": "0x1dab",
        "chainId": "0xed88"
      },
      "additionalContracts": [],
      "isFixedGasLimit": false
    },
    {
      "hash": "0x431c317955ca601920731fb548443db5be9e604fc14fc28aec5348312ffdde8b",
      "transactionType": "CALL",
      "contractName": null,
      "contractAddress": "0x79dfbed14077b8f2421eece5707a17b161094e6a",
      "function": "wlMint(address)",
      "arguments": [
        "0x0000000000000000000000000000000000000000"
      ],
      "transaction": {
        "from": "0xcda2fdb452ff4f5d7ba1c3d5dfcc9cb926a5eb7d",
        "to": "0x79dfbed14077b8f2421eece5707a17b161094e6a",
        "gas": "0x3ddf7",
        "value": "0x0",
        "input": "0xc517b4a50000000000000000000000000000000000000000000000000000000000000000",
        "nonce": "0x1dac",
        "chainId": "0xed88"
      },
      "additionalContracts": [],
      "isFixedGasLimit": false
    },
    {
      "hash": "0x4c876024012a892ea53b9d32e9878b70bb5ee43ed7b53359b7d984b15dde9192",
      "transactionType": "CALL",
      "contractName": null,
      "contractAddress": "0x79dfbed14077b8f2421eece5707a17b161094e6a",
      "function": "wlMint(address)",
      "arguments": [
        "0x0000000000000000000000000000000000000000"
      ],
      "transaction": {
        "from": "0xcda2fdb452ff4f5d7ba1c3d5dfcc9cb926a5eb7d",
        "to": "0x79dfbed14077b8f2421eece5707a17b161094e6a",
        "gas": "0x3ddf7",
        "value": "0x0",
        "input": "0xc517b4a50000000000000000000000000000000000000000000000000000000000000000",
        "nonce": "0x1dad",
        "chainId": "0xed88"
      },
      "additionalContracts": [],
      "isFixedGasLimit": false
    },
    {
      "hash": "0xa85150f2ec110e515af758d79866feb08450024181c4f2aebf0097d953c6b2cc",
      "transactionType": "CALL",
      "contractName": null,
      "contractAddress": "0x79dfbed14077b8f2421eece5707a17b161094e6a",
      "function": "wlMint(address)",
      "arguments": [
        "0x0000000000000000000000000000000000000000"
      ],
      "transaction": {
        "from": "0xcda2fdb452ff4f5d7ba1c3d5dfcc9cb926a5eb7d",
        "to": "0x79dfbed14077b8f2421eece5707a17b161094e6a",
        "gas": "0x3ddf7",
        "value": "0x0",
        "input": "0xc517b4a50000000000000000000000000000000000000000000000000000000000000000",
        "nonce": "0x1dae",
        "chainId": "0xed88"
      },
      "additionalContracts": [],
      "isFixedGasLimit": false
    },
    {
      "hash": "0x8c52919633be8ed4a960ba23e9d190da9c33f12af5c9e50900daa562dd226fc9",
      "transactionType": "CALL",
      "contractName": null,
      "contractAddress": "0x79dfbed14077b8f2421eece5707a17b161094e6a",
      "function": "wlMint(address)",
      "arguments": [
        "0x0000000000000000000000000000000000000000"
      ],
      "transaction": {
        "from": "0xcda2fdb452ff4f5d7ba1c3d5dfcc9cb926a5eb7d",
        "to": "0x79dfbed14077b8f2421eece5707a17b161094e6a",
        "gas": "0x3ddf7",
        "value": "0x0",
        "input": "0xc517b4a50000000000000000000000000000000000000000000000000000000000000000",
        "nonce": "0x1daf",
        "chainId": "0xed88"
      },
      "additionalContracts": [],
      "isFixedGasLimit": false
    },
    {
      "hash": "0xa6eb03ae610cb2aa0941cf40880a4b8eea773469cc56951249373336ab0f2dde",
      "transactionType": "CALL",
      "contractName": null,
      "contractAddress": "0x79dfbed14077b8f2421eece5707a17b161094e6a",
      "function": "wlMint(address)",
      "arguments": [
        "0x0000000000000000000000000000000000000000"
      ],
      "transaction": {
        "from": "0xcda2fdb452ff4f5d7ba1c3d5dfcc9cb926a5eb7d",
        "to": "0x79dfbed14077b8f2421eece5707a17b161094e6a",
        "gas": "0x3ddf7",
        "value": "0x0",
        "input": "0xc517b4a50000000000000000000000000000000000000000000000000000000000000000",
        "nonce": "0x1db0",
        "chainId": "0xed88"
      },
      "additionalContracts": [],
      "isFixedGasLimit": false
    },
    {
      "hash": "0xb7c305a45bde19d04a9cf9d1a8c49dfc64aa615e749b72bb9e35c9dfd8abc6c2",
      "transactionType": "CALL",
      "contractName": null,
      "contractAddress": "0x79dfbed14077b8f2421eece5707a17b161094e6a",
      "function": "wlMint(address)",
      "arguments": [
        "0x0000000000000000000000000000000000000000"
      ],
      "transaction": {
        "from": "0xcda2fdb452ff4f5d7ba1c3d5dfcc9cb926a5eb7d",
        "to": "0x79dfbed14077b8f2421eece5707a17b161094e6a",
        "gas": "0x3ddf7",
        "value": "0x0",
        "input": "0xc517b4a50000000000000000000000000000000000000000000000000000000000000000",
        "nonce": "0x1db1",
        "chainId": "0xed88"
      },
      "additionalContracts": [],
      "isFixedGasLimit": false
    },
    {
      "hash": "0xe57c4f5c4afa2686d99dc81ed75ed214206b261130dad85e30ce7574d0e434fa",
      "transactionType": "CALL",
      "contractName": null,
      "contractAddress": "0x79dfbed14077b8f2421eece5707a17b161094e6a",
      "function": "wlMint(address)",
      "arguments": [
        "0x0000000000000000000000000000000000000000"
      ],
      "transaction": {
        "from": "0xcda2fdb452ff4f5d7ba1c3d5dfcc9cb926a5eb7d",
        "to": "0x79dfbed14077b8f2421eece5707a17b161094e6a",
        "gas": "0x3ddf7",
        "value": "0x0",
        "input": "0xc517b4a50000000000000000000000000000000000000000000000000000000000000000",
        "nonce": "0x1db2",
        "chainId": "0xed88"
      },
      "additionalContracts": [],
      "isFixedGasLimit": false
    },
    {
      "hash": "0x5b61169d88d6f72d8594cdb0c80b499c00d5e3bfc7b1ddb162bf50427059a723",
      "transactionType": "CALL",
      "contractName": null,
      "contractAddress": "0x79dfbed14077b8f2421eece5707a17b161094e6a",
      "function": "wlMint(address)",
      "arguments": [
        "0x0000000000000000000000000000000000000000"
      ],
      "transaction": {
        "from": "0xcda2fdb452ff4f5d7ba1c3d5dfcc9cb926a5eb7d",
        "to": "0x79dfbed14077b8f2421eece5707a17b161094e6a",
        "gas": "0x3ddf7",
        "value": "0x0",
        "input": "0xc517b4a50000000000000000000000000000000000000000000000000000000000000000",
        "nonce": "0x1db3",
        "chainId": "0xed88"
      },
      "additionalContracts": [],
      "isFixedGasLimit": false
    },
    {
      "hash": "0x3f561d46df1468b36be0db24be027ca0432469623e1d63e1b4a2193c4b7e5cf8",
      "transactionType": "CALL",
      "contractName": null,
      "contractAddress": "0x79dfbed14077b8f2421eece5707a17b161094e6a",
      "function": "wlMint(address)",
      "arguments": [
        "0x0000000000000000000000000000000000000000"
      ],
      "transaction": {
        "from": "0xcda2fdb452ff4f5d7ba1c3d5dfcc9cb926a5eb7d",
        "to": "0x79dfbed14077b8f2421eece5707a17b161094e6a",
        "gas": "0x3ddf7",
        "value": "0x0",
        "input": "0xc517b4a50000000000000000000000000000000000000000000000000000000000000000",
        "nonce": "0x1db4",
        "chainId": "0xed88"
      },
      "additionalContracts": [],
      "isFixedGasLimit": false
    },
    {
      "hash": "0xc2cdc4267198520c7141b1597f3d0f609286cdc52ac6f7b1464014e18083a1eb",
      "transactionType": "CALL",
      "contractName": null,
      "contractAddress": "0x79dfbed14077b8f2421eece5707a17b161094e6a",
      "function": "wlMint(address)",
      "arguments": [
        "0x0000000000000000000000000000000000000000"
      ],
      "transaction": {
        "from": "0xcda2fdb452ff4f5d7ba1c3d5dfcc9cb926a5eb7d",
        "to": "0x79dfbed14077b8f2421eece5707a17b161094e6a",
        "gas": "0x3ddf7",
        "value": "0x0",
        "input": "0xc517b4a50000000000000000000000000000000000000000000000000000000000000000",
        "nonce": "0x1db5",
        "chainId": "0xed88"
      },
      "additionalContracts": [],
      "isFixedGasLimit": false
    },
    {
      "hash": "0x9eac6c431a308e371e447c792578770cc961e895c19007428386ae5320ae9bd7",
      "transactionType": "CALL",
      "contractName": null,
      "contractAddress": "0x79dfbed14077b8f2421eece5707a17b161094e6a",
      "function": "wlMint(address)",
      "arguments": [
        "0x0000000000000000000000000000000000000000"
      ],
      "transaction": {
        "from": "0xcda2fdb452ff4f5d7ba1c3d5dfcc9cb926a5eb7d",
        "to": "0x79dfbed14077b8f2421eece5707a17b161094e6a",
        "gas": "0x3ddf7",
        "value": "0x0",
        "input": "0xc517b4a50000000000000000000000000000000000000000000000000000000000000000",
        "nonce": "0x1db6",
        "chainId": "0xed88"
      },
      "additionalContracts": [],
      "isFixedGasLimit": false
    },
    {
      "hash": "0x430c86e338abf3730cffe05a165d3f48e4043660007d9fd6af33ef8889d9d127",
      "transactionType": "CALL",
      "contractName": null,
      "contractAddress": "0x79dfbed14077b8f2421eece5707a17b161094e6a",
      "function": "wlMint(address)",
      "arguments": [
        "0x0000000000000000000000000000000000000000"
      ],
      "transaction": {
        "from": "0xcda2fdb452ff4f5d7ba1c3d5dfcc9cb926a5eb7d",
        "to": "0x79dfbed14077b8f2421eece5707a17b161094e6a",
        "gas": "0x3ddf7",
        "value": "0x0",
        "input": "0xc517b4a50000000000000000000000000000000000000000000000000000000000000000",
        "nonce": "0x1db7",
        "chainId": "0xed88"
      },
      "additionalContracts": [],
      "isFixedGasLimit": false
    },
    {
      "hash": "0xe1b5f8ff7d6d305d4a905fb0b54b099624731d843453a2dd6dc094c3403dcb38",
      "transactionType": "CALL",
      "contractName": null,
      "contractAddress": "0x79dfbed14077b8f2421eece5707a17b161094e6a",
      "function": "wlMint(address)",
      "arguments": [
        "0x0000000000000000000000000000000000000000"
      ],
      "transaction": {
        "from": "0xcda2fdb452ff4f5d7ba1c3d5dfcc9cb926a5eb7d",
        "to": "0x79dfbed14077b8f2421eece5707a17b161094e6a",
        "gas": "0x3ddf7",
        "value": "0x0",
        "input": "0xc517b4a50000000000000000000000000000000000000000000000000000000000000000",
        "nonce": "0x1db8",
        "chainId": "0xed88"
      },
      "additionalContracts": [],
      "isFixedGasLimit": false
    },
    {
      "hash": "0x8b74342eda5bf6b2fdedb23e617da4d6a21adcf29c86f518ad5d17cc6e4d1979",
      "transactionType": "CALL",
      "contractName": null,
      "contractAddress": "0x79dfbed14077b8f2421eece5707a17b161094e6a",
      "function": "wlMint(address)",
      "arguments": [
        "0x0000000000000000000000000000000000000000"
      ],
      "transaction": {
        "from": "0xcda2fdb452ff4f5d7ba1c3d5dfcc9cb926a5eb7d",
        "to": "0x79dfbed14077b8f2421eece5707a17b161094e6a",
        "gas": "0x3ddf7",
        "value": "0x0",
        "input": "0xc517b4a50000000000000000000000000000000000000000000000000000000000000000",
        "nonce": "0x1db9",
        "chainId": "0xed88"
      },
      "additionalContracts": [],
      "isFixedGasLimit": false
    },
    {
      "hash": "0x9294df7bcddc9c548386e8bd4aaf4fdb6c0bbaf7f551d105de2e808ccba52366",
      "transactionType": "CALL",
      "contractName": null,
      "contractAddress": "0x79dfbed14077b8f2421eece5707a17b161094e6a",
      "function": "wlMint(address)",
      "arguments": [
        "0x0000000000000000000000000000000000000000"
      ],
      "transaction": {
        "from": "0xcda2fdb452ff4f5d7ba1c3d5dfcc9cb926a5eb7d",
        "to": "0x79dfbed14077b8f2421eece5707a17b161094e6a",
        "gas": "0x3ddf7",
        "value": "0x0",
        "input": "0xc517b4a50000000000000000000000000000000000000000000000000000000000000000",
        "nonce": "0x1dba",
        "chainId": "0xed88"
      },
      "additionalContracts": [],
      "isFixedGasLimit": false
    },
    {
      "hash": "0xae3ef2cb9daf8a617b4644884c9f09b225b7450e577df1a0d12479c814b7108e",
      "transactionType": "CALL",
      "contractName": null,
      "contractAddress": "0x79dfbed14077b8f2421eece5707a17b161094e6a",
      "function": "wlMint(address)",
      "arguments": [
        "0x0000000000000000000000000000000000000000"
      ],
      "transaction": {
        "from": "0xcda2fdb452ff4f5d7ba1c3d5dfcc9cb926a5eb7d",
        "to": "0x79dfbed14077b8f2421eece5707a17b161094e6a",
        "gas": "0x3ddf7",
        "value": "0x0",
        "input": "0xc517b4a50000000000000000000000000000000000000000000000000000000000000000",
        "nonce": "0x1dbb",
        "chainId": "0xed88"
      },
      "additionalContracts": [],
      "isFixedGasLimit": false
    },
    {
      "hash": "0x9d49a4da71ea9d8e714f22da7fee25930dedcfd991207c0643d81c4ef0889b69",
      "transactionType": "CALL",
      "contractName": null,
      "contractAddress": "0x79dfbed14077b8f2421eece5707a17b161094e6a",
      "function": "wlMint(address)",
      "arguments": [
        "0x0000000000000000000000000000000000000000"
      ],
      "transaction": {
        "from": "0xcda2fdb452ff4f5d7ba1c3d5dfcc9cb926a5eb7d",
        "to": "0x79dfbed14077b8f2421eece5707a17b161094e6a",
        "gas": "0x3ddf7",
        "value": "0x0",
        "input": "0xc517b4a50000000000000000000000000000000000000000000000000000000000000000",
        "nonce": "0x1dbc",
        "chainId": "0xed88"
      },
      "additionalContracts": [],
      "isFixedGasLimit": false
    },
    {
      "hash": "0x2a6baebd8f90978597465aa47cbc24cd62bad3944c834361f92d60e1cfa10d76",
      "transactionType": "CALL",
      "contractName": null,
      "contractAddress": "0x79dfbed14077b8f2421eece5707a17b161094e6a",
      "function": "wlMint(address)",
      "arguments": [
        "0x0000000000000000000000000000000000000000"
      ],
      "transaction": {
        "from": "0xcda2fdb452ff4f5d7ba1c3d5dfcc9cb926a5eb7d",
        "to": "0x79dfbed14077b8f2421eece5707a17b161094e6a",
        "gas": "0x3ddf7",
        "value": "0x0",
        "input": "0xc517b4a50000000000000000000000000000000000000000000000000000000000000000",
        "nonce": "0x1dbd",
        "chainId": "0xed88"
      },
      "additionalContracts": [],
      "isFixedGasLimit": false
    },
    {
      "hash": "0xf351ee9c93bd10aaca7d9178e533c9e642ae73b00010483709fee752e4aa0a92",
      "transactionType": "CALL",
      "contractName": null,
      "contractAddress": "0x79dfbed14077b8f2421eece5707a17b161094e6a",
      "function": "wlMint(address)",
      "arguments": [
        "0x0000000000000000000000000000000000000000"
      ],
      "transaction": {
        "from": "0xcda2fdb452ff4f5d7ba1c3d5dfcc9cb926a5eb7d",
        "to": "0x79dfbed14077b8f2421eece5707a17b161094e6a",
        "gas": "0x3ddf7",
        "value": "0x0",
        "input": "0xc517b4a50000000000000000000000000000000000000000000000000000000000000000",
        "nonce": "0x1dbe",
        "chainId": "0xed88"
      },
      "additionalContracts": [],
      "isFixedGasLimit": false
    },
    {
      "hash": "0x2ab801613c2826b2a021c2a2db6dce9c13b562629471423cc419adb4fc2e7854",
      "transactionType": "CALL",
      "contractName": null,
      "contractAddress": "0x79dfbed14077b8f2421eece5707a17b161094e6a",
      "function": "wlMint(address)",
      "arguments": [
        "0x0000000000000000000000000000000000000000"
      ],
      "transaction": {
        "from": "0xcda2fdb452ff4f5d7ba1c3d5dfcc9cb926a5eb7d",
        "to": "0x79dfbed14077b8f2421eece5707a17b161094e6a",
        "gas": "0x3ddf7",
        "value": "0x0",
        "input": "0xc517b4a50000000000000000000000000000000000000000000000000000000000000000",
        "nonce": "0x1dbf",
        "chainId": "0xed88"
      },
      "additionalContracts": [],
      "isFixedGasLimit": false
    },
    {
      "hash": "0x0c2030539bcfccfaeb4c4548735ceba302361379e13303f6e6ba48ed1b772482",
      "transactionType": "CALL",
      "contractName": null,
      "contractAddress": "0x79dfbed14077b8f2421eece5707a17b161094e6a",
      "function": "wlMint(address)",
      "arguments": [
        "0x0000000000000000000000000000000000000000"
      ],
      "transaction": {
        "from": "0xcda2fdb452ff4f5d7ba1c3d5dfcc9cb926a5eb7d",
        "to": "0x79dfbed14077b8f2421eece5707a17b161094e6a",
        "gas": "0x3ddf7",
        "value": "0x0",
        "input": "0xc517b4a50000000000000000000000000000000000000000000000000000000000000000",
        "nonce": "0x1dc0",
        "chainId": "0xed88"
      },
      "additionalContracts": [],
      "isFixedGasLimit": false
    },
    {
      "hash": "0xcb86ee31aa6d6e45c3791a835d70e1b7377b7c9c828b599819815cc432ced83f",
      "transactionType": "CALL",
      "contractName": null,
      "contractAddress": "0x79dfbed14077b8f2421eece5707a17b161094e6a",
      "function": "wlMint(address)",
      "arguments": [
        "0x0000000000000000000000000000000000000000"
      ],
      "transaction": {
        "from": "0xcda2fdb452ff4f5d7ba1c3d5dfcc9cb926a5eb7d",
        "to": "0x79dfbed14077b8f2421eece5707a17b161094e6a",
        "gas": "0x3ddf7",
        "value": "0x0",
        "input": "0xc517b4a50000000000000000000000000000000000000000000000000000000000000000",
        "nonce": "0x1dc1",
        "chainId": "0xed88"
      },
      "additionalContracts": [],
      "isFixedGasLimit": false
    }
  ],
  "receipts": [
    {
      "status": "0x1",
      "cumulativeGasUsed": "0x37803",
      "logs": [
        {
          "address": "0x2e8af9c5922623058aa92a183b391e62cb6b2d12",
          "topics": [
            "0xddf252ad1be2c89b69c2b068fc378daa952ba7f163c4a11628f55a4df523b3ef",
            "0x0000000000000000000000000000000000000000000000000000000000000000",
            "0x000000000000000000000000cda2fdb452ff4f5d7ba1c3d5dfcc9cb926a5eb7d",
            "0x000000000000000000000000000000000000000000000000000000000000019a"
          ],
          "data": "0x",
          "blockHash": "0xb9086fb16c4bd098789b1cec01de819db16c7f8e169c04ff656cb978f6c8a883",
          "blockNumber": "0x750844",
          "transactionHash": "0xeaca5079f9753114c873e79437e5300b0ed052b955f46553b1b88e3acf435756",
          "transactionIndex": "0x1",
          "logIndex": "0x0",
          "removed": false
        },
        {
          "address": "0x2e8af9c5922623058aa92a183b391e62cb6b2d12",
          "topics": [
            "0xf8e1a15aba9398e019f0b49df1a4fde98ee17ae345cb5f6b5e2c27f5033e8ce7"
          ],
          "data": "0x000000000000000000000000000000000000000000000000000000000000019a",
          "blockHash": "0xb9086fb16c4bd098789b1cec01de819db16c7f8e169c04ff656cb978f6c8a883",
          "blockNumber": "0x750844",
          "transactionHash": "0xeaca5079f9753114c873e79437e5300b0ed052b955f46553b1b88e3acf435756",
          "transactionIndex": "0x1",
          "logIndex": "0x1",
          "removed": false
        }
      ],
      "logsBloom": "0x00000000000000000000000000000000000000020000000000000000000000000000000000000000000000000000000000000000000000000000000000000000000000000000000000000008040000000000000000000000000000000000000000000000060000000000000000000800002000000000800000000010000000000000000000000000000000000000000000000000000000000000000000000000000000000000000000000000000000002000000000004000000000000000008000000002000000000000000000100000000000000000000000000000000020000000000000000000200000000000000000000000100000000000000000008000",
      "type": "0x2",
      "transactionHash": "0xeaca5079f9753114c873e79437e5300b0ed052b955f46553b1b88e3acf435756",
      "transactionIndex": "0x1",
      "blockHash": "0xb9086fb16c4bd098789b1cec01de819db16c7f8e169c04ff656cb978f6c8a883",
      "blockNumber": "0x750844",
      "gasUsed": "0x2ccb8",
      "effectiveGasPrice": "0xfd",
      "from": "0xcda2fdb452ff4f5d7ba1c3d5dfcc9cb926a5eb7d",
      "to": "0x79dfbed14077b8f2421eece5707a17b161094e6a",
      "contractAddress": null,
      "l1BaseFeeScalar": "0x186a0",
      "l1BlobBaseFee": "0x1",
      "l1BlobBaseFeeScalar": "0x95506",
      "l1Fee": "0x9bee93c51d",
      "l1GasPrice": "0xf97db93b",
      "l1GasUsed": "0x640"
    },
    {
      "status": "0x1",
      "cumulativeGasUsed": "0x644bb",
      "logs": [
        {
          "address": "0x2e8af9c5922623058aa92a183b391e62cb6b2d12",
          "topics": [
            "0xddf252ad1be2c89b69c2b068fc378daa952ba7f163c4a11628f55a4df523b3ef",
            "0x0000000000000000000000000000000000000000000000000000000000000000",
            "0x000000000000000000000000cda2fdb452ff4f5d7ba1c3d5dfcc9cb926a5eb7d",
            "0x000000000000000000000000000000000000000000000000000000000000019b"
          ],
          "data": "0x",
          "blockHash": "0xb9086fb16c4bd098789b1cec01de819db16c7f8e169c04ff656cb978f6c8a883",
          "blockNumber": "0x750844",
          "transactionHash": "0xad1a99adb65f1177d7512f3b30755236ae9e94deec7115e1e511b523b3b7452c",
          "transactionIndex": "0x2",
          "logIndex": "0x2",
          "removed": false
        },
        {
          "address": "0x2e8af9c5922623058aa92a183b391e62cb6b2d12",
          "topics": [
            "0xf8e1a15aba9398e019f0b49df1a4fde98ee17ae345cb5f6b5e2c27f5033e8ce7"
          ],
          "data": "0x000000000000000000000000000000000000000000000000000000000000019b",
          "blockHash": "0xb9086fb16c4bd098789b1cec01de819db16c7f8e169c04ff656cb978f6c8a883",
          "blockNumber": "0x750844",
          "transactionHash": "0xad1a99adb65f1177d7512f3b30755236ae9e94deec7115e1e511b523b3b7452c",
          "transactionIndex": "0x2",
          "logIndex": "0x3",
          "removed": false
        }
      ],
      "logsBloom": "0x00000000000000000000000000000000000000020000000000000000000000000000000000000000000000000000000000000000000000000000000000000000000000000000000000000008040000000000000000000000000000000000000000000000020000000000400000000800002000000000800000000010000000000000000000000000000000000000000000000000000000000000100000000000000000000000200000000000000000002000000000004000000000000000008000000002000000000000000000000000000000000000000000000000000020000000000000000000200000000000000000000000100000000000000000000000",
      "type": "0x2",
      "transactionHash": "0xad1a99adb65f1177d7512f3b30755236ae9e94deec7115e1e511b523b3b7452c",
      "transactionIndex": "0x2",
      "blockHash": "0xb9086fb16c4bd098789b1cec01de819db16c7f8e169c04ff656cb978f6c8a883",
      "blockNumber": "0x750844",
      "gasUsed": "0x2ccb8",
      "effectiveGasPrice": "0xfd",
      "from": "0xcda2fdb452ff4f5d7ba1c3d5dfcc9cb926a5eb7d",
      "to": "0x79dfbed14077b8f2421eece5707a17b161094e6a",
      "contractAddress": null,
      "l1BaseFeeScalar": "0x186a0",
      "l1BlobBaseFee": "0x1",
      "l1BlobBaseFeeScalar": "0x95506",
      "l1Fee": "0x9bee93c51d",
      "l1GasPrice": "0xf97db93b",
      "l1GasUsed": "0x640"
    },
    {
      "status": "0x1",
      "cumulativeGasUsed": "0x398c7",
      "logs": [
        {
          "address": "0x2e8af9c5922623058aa92a183b391e62cb6b2d12",
          "topics": [
            "0xddf252ad1be2c89b69c2b068fc378daa952ba7f163c4a11628f55a4df523b3ef",
            "0x0000000000000000000000000000000000000000000000000000000000000000",
            "0x000000000000000000000000cda2fdb452ff4f5d7ba1c3d5dfcc9cb926a5eb7d",
            "0x000000000000000000000000000000000000000000000000000000000000019c"
          ],
          "data": "0x",
          "blockHash": "0xdc0faf83e4d7af3a542aafd6df520aa40cc933c6f6d58c9efa25b068b0146543",
          "blockNumber": "0x750845",
          "transactionHash": "0x4555144358052d2e7a41cbadd76e01d30ca836d1488fcba2fb0724a6accc91ee",
          "transactionIndex": "0x1",
          "logIndex": "0x0",
          "removed": false
        },
        {
          "address": "0x2e8af9c5922623058aa92a183b391e62cb6b2d12",
          "topics": [
            "0xf8e1a15aba9398e019f0b49df1a4fde98ee17ae345cb5f6b5e2c27f5033e8ce7"
          ],
          "data": "0x000000000000000000000000000000000000000000000000000000000000019c",
          "blockHash": "0xdc0faf83e4d7af3a542aafd6df520aa40cc933c6f6d58c9efa25b068b0146543",
          "blockNumber": "0x750845",
          "transactionHash": "0x4555144358052d2e7a41cbadd76e01d30ca836d1488fcba2fb0724a6accc91ee",
          "transactionIndex": "0x1",
          "logIndex": "0x1",
          "removed": false
        }
      ],
      "logsBloom": "0x00000000000800000000000000000000000000020000000000000000200000000000000000000000000000000000000000000000000000000000000000000000000000000080000000000008040000000000000000000000000000000000000000000000020000000000000000000800002000000000800000000010000000000000000000000000000000000000000000000000000000000000000000000000000000000000000000000000000000002000000000004000000000000000008000000002000000000000000000000000000000000000000000000000000020000000000000000000200000000000000000000000100000000000000000000000",
      "type": "0x2",
      "transactionHash": "0x4555144358052d2e7a41cbadd76e01d30ca836d1488fcba2fb0724a6accc91ee",
      "transactionIndex": "0x1",
      "blockHash": "0xdc0faf83e4d7af3a542aafd6df520aa40cc933c6f6d58c9efa25b068b0146543",
      "blockNumber": "0x750845",
      "gasUsed": "0x2ccb8",
      "effectiveGasPrice": "0xfd",
      "from": "0xcda2fdb452ff4f5d7ba1c3d5dfcc9cb926a5eb7d",
      "to": "0x79dfbed14077b8f2421eece5707a17b161094e6a",
      "contractAddress": null,
      "l1BaseFeeScalar": "0x186a0",
      "l1BlobBaseFee": "0x1",
      "l1BlobBaseFeeScalar": "0x95506",
      "l1Fee": "0x969007a93d",
      "l1GasPrice": "0xf0e672a8",
      "l1GasUsed": "0x640"
    },
    {
      "status": "0x1",
      "cumulativeGasUsed": "0x6657f",
      "logs": [
        {
          "address": "0x2e8af9c5922623058aa92a183b391e62cb6b2d12",
          "topics": [
            "0xddf252ad1be2c89b69c2b068fc378daa952ba7f163c4a11628f55a4df523b3ef",
            "0x0000000000000000000000000000000000000000000000000000000000000000",
            "0x000000000000000000000000cda2fdb452ff4f5d7ba1c3d5dfcc9cb926a5eb7d",
            "0x000000000000000000000000000000000000000000000000000000000000019d"
          ],
          "data": "0x",
          "blockHash": "0xdc0faf83e4d7af3a542aafd6df520aa40cc933c6f6d58c9efa25b068b0146543",
          "blockNumber": "0x750845",
          "transactionHash": "0x66505df55eb26fdd05972459ccb9358a531c09cacc3fda8aa177af70d790d0ed",
          "transactionIndex": "0x2",
          "logIndex": "0x2",
          "removed": false
        },
        {
          "address": "0x2e8af9c5922623058aa92a183b391e62cb6b2d12",
          "topics": [
            "0xf8e1a15aba9398e019f0b49df1a4fde98ee17ae345cb5f6b5e2c27f5033e8ce7"
          ],
          "data": "0x000000000000000000000000000000000000000000000000000000000000019d",
          "blockHash": "0xdc0faf83e4d7af3a542aafd6df520aa40cc933c6f6d58c9efa25b068b0146543",
          "blockNumber": "0x750845",
          "transactionHash": "0x66505df55eb26fdd05972459ccb9358a531c09cacc3fda8aa177af70d790d0ed",
          "transactionIndex": "0x2",
          "logIndex": "0x3",
          "removed": false
        }
      ],
      "logsBloom": "0x00000000000000000000000000000000000000020000000000000000000000000000000000000000000000000000000000000000000000000000000000000000000000000000000000000008040000000000000000000000000000000000000000000000020000000000000000000800002000000000800000000010000000000000000000000000010000000000000000000000400000000000000000000000000000000000000000000000000000002000000000004000000000000000008000000002000000000000000000000100000000000000000000000000000020000000000000000000200000000000000000000000100000000000000000000000",
      "type": "0x2",
      "transactionHash": "0x66505df55eb26fdd05972459ccb9358a531c09cacc3fda8aa177af70d790d0ed",
      "transactionIndex": "0x2",
      "blockHash": "0xdc0faf83e4d7af3a542aafd6df520aa40cc933c6f6d58c9efa25b068b0146543",
      "blockNumber": "0x750845",
      "gasUsed": "0x2ccb8",
      "effectiveGasPrice": "0xfd",
      "from": "0xcda2fdb452ff4f5d7ba1c3d5dfcc9cb926a5eb7d",
      "to": "0x79dfbed14077b8f2421eece5707a17b161094e6a",
      "contractAddress": null,
      "l1BaseFeeScalar": "0x186a0",
      "l1BlobBaseFee": "0x1",
      "l1BlobBaseFeeScalar": "0x95506",
      "l1Fee": "0x969007a93d",
      "l1GasPrice": "0xf0e672a8",
      "l1GasUsed": "0x640"
    },
    {
      "status": "0x1",
      "cumulativeGasUsed": "0x93237",
      "logs": [
        {
          "address": "0x2e8af9c5922623058aa92a183b391e62cb6b2d12",
          "topics": [
            "0xddf252ad1be2c89b69c2b068fc378daa952ba7f163c4a11628f55a4df523b3ef",
            "0x0000000000000000000000000000000000000000000000000000000000000000",
            "0x000000000000000000000000cda2fdb452ff4f5d7ba1c3d5dfcc9cb926a5eb7d",
            "0x000000000000000000000000000000000000000000000000000000000000019e"
          ],
          "data": "0x",
          "blockHash": "0xdc0faf83e4d7af3a542aafd6df520aa40cc933c6f6d58c9efa25b068b0146543",
          "blockNumber": "0x750845",
          "transactionHash": "0x96f52484625ba717c4c54d9486061b6252f31144742f614cc380bda330f9beaa",
          "transactionIndex": "0x3",
          "logIndex": "0x4",
          "removed": false
        },
        {
          "address": "0x2e8af9c5922623058aa92a183b391e62cb6b2d12",
          "topics": [
            "0xf8e1a15aba9398e019f0b49df1a4fde98ee17ae345cb5f6b5e2c27f5033e8ce7"
          ],
          "data": "0x000000000000000000000000000000000000000000000000000000000000019e",
          "blockHash": "0xdc0faf83e4d7af3a542aafd6df520aa40cc933c6f6d58c9efa25b068b0146543",
          "blockNumber": "0x750845",
          "transactionHash": "0x96f52484625ba717c4c54d9486061b6252f31144742f614cc380bda330f9beaa",
          "transactionIndex": "0x3",
          "logIndex": "0x5",
          "removed": false
        }
      ],
      "logsBloom": "0x00000000000000000000000000000000000000020000000000000000000000000000000000000000000000000000000000000000000000000000000000000000000000000000000000000008040000000000000000000000000000000000000000000000020000000000000000000800002000000000800200000010000000000000000000000000000000000000000000000000000000000000000000000000000000000000000000040000000000002000000000004000000000000000008000000002000000000000000000000004000000000000000000000000000020000000000000000000200000000000000000000000100000000000000000000000",
      "type": "0x2",
      "transactionHash": "0x96f52484625ba717c4c54d9486061b6252f31144742f614cc380bda330f9beaa",
      "transactionIndex": "0x3",
      "blockHash": "0xdc0faf83e4d7af3a542aafd6df520aa40cc933c6f6d58c9efa25b068b0146543",
      "blockNumber": "0x750845",
      "gasUsed": "0x2ccb8",
      "effectiveGasPrice": "0xfd",
      "from": "0xcda2fdb452ff4f5d7ba1c3d5dfcc9cb926a5eb7d",
      "to": "0x79dfbed14077b8f2421eece5707a17b161094e6a",
      "contractAddress": null,
      "l1BaseFeeScalar": "0x186a0",
      "l1BlobBaseFee": "0x1",
      "l1BlobBaseFeeScalar": "0x95506",
      "l1Fee": "0x969007a93d",
      "l1GasPrice": "0xf0e672a8",
      "l1GasUsed": "0x640"
    },
    {
      "status": "0x1",
      "cumulativeGasUsed": "0xbfeef",
      "logs": [
        {
          "address": "0x2e8af9c5922623058aa92a183b391e62cb6b2d12",
          "topics": [
            "0xddf252ad1be2c89b69c2b068fc378daa952ba7f163c4a11628f55a4df523b3ef",
            "0x0000000000000000000000000000000000000000000000000000000000000000",
            "0x000000000000000000000000cda2fdb452ff4f5d7ba1c3d5dfcc9cb926a5eb7d",
            "0x000000000000000000000000000000000000000000000000000000000000019f"
          ],
          "data": "0x",
          "blockHash": "0xdc0faf83e4d7af3a542aafd6df520aa40cc933c6f6d58c9efa25b068b0146543",
          "blockNumber": "0x750845",
          "transactionHash": "0x3cd91c47235740c7ed5e11125c5bfba8f5118be7c974564a7f375699360d8f45",
          "transactionIndex": "0x4",
          "logIndex": "0x6",
          "removed": false
        },
        {
          "address": "0x2e8af9c5922623058aa92a183b391e62cb6b2d12",
          "topics": [
            "0xf8e1a15aba9398e019f0b49df1a4fde98ee17ae345cb5f6b5e2c27f5033e8ce7"
          ],
          "data": "0x000000000000000000000000000000000000000000000000000000000000019f",
          "blockHash": "0xdc0faf83e4d7af3a542aafd6df520aa40cc933c6f6d58c9efa25b068b0146543",
          "blockNumber": "0x750845",
          "transactionHash": "0x3cd91c47235740c7ed5e11125c5bfba8f5118be7c974564a7f375699360d8f45",
          "transactionIndex": "0x4",
          "logIndex": "0x7",
          "removed": false
        }
      ],
      "logsBloom": "0x00000000000000000000000000000000000000020000000000000000000000000000000000000000000000000000000000000000000000000000000000000000000000000000000000000008040000000000000000000000000000000000000000000000020000000000000000000800002000000000800000000010000000000000000000000000000000000000000000000000000000000000000000000000000000000000000000000000000000002000000000004000000000000000008000000002000000000000000000000000002000000000000004000000000020001000000000000000200000000000000000000000100000000000000000000000",
      "type": "0x2",
      "transactionHash": "0x3cd91c47235740c7ed5e11125c5bfba8f5118be7c974564a7f375699360d8f45",
      "transactionIndex": "0x4",
      "blockHash": "0xdc0faf83e4d7af3a542aafd6df520aa40cc933c6f6d58c9efa25b068b0146543",
      "blockNumber": "0x750845",
      "gasUsed": "0x2ccb8",
      "effectiveGasPrice": "0xfd",
      "from": "0xcda2fdb452ff4f5d7ba1c3d5dfcc9cb926a5eb7d",
      "to": "0x79dfbed14077b8f2421eece5707a17b161094e6a",
      "contractAddress": null,
      "l1BaseFeeScalar": "0x186a0",
      "l1BlobBaseFee": "0x1",
      "l1BlobBaseFeeScalar": "0x95506",
      "l1Fee": "0x969007a93d",
      "l1GasPrice": "0xf0e672a8",
      "l1GasUsed": "0x640"
    },
    {
      "status": "0x1",
      "cumulativeGasUsed": "0xecba7",
      "logs": [
        {
          "address": "0x2e8af9c5922623058aa92a183b391e62cb6b2d12",
          "topics": [
            "0xddf252ad1be2c89b69c2b068fc378daa952ba7f163c4a11628f55a4df523b3ef",
            "0x0000000000000000000000000000000000000000000000000000000000000000",
            "0x000000000000000000000000cda2fdb452ff4f5d7ba1c3d5dfcc9cb926a5eb7d",
            "0x00000000000000000000000000000000000000000000000000000000000001a0"
          ],
          "data": "0x",
          "blockHash": "0xdc0faf83e4d7af3a542aafd6df520aa40cc933c6f6d58c9efa25b068b0146543",
          "blockNumber": "0x750845",
          "transactionHash": "0xe7f0c9ee59034774378fe5ad546f58d985c1854cdc21c0794566949eb22b9e50",
          "transactionIndex": "0x5",
          "logIndex": "0x8",
          "removed": false
        },
        {
          "address": "0x2e8af9c5922623058aa92a183b391e62cb6b2d12",
          "topics": [
            "0xf8e1a15aba9398e019f0b49df1a4fde98ee17ae345cb5f6b5e2c27f5033e8ce7"
          ],
          "data": "0x00000000000000000000000000000000000000000000000000000000000001a0",
          "blockHash": "0xdc0faf83e4d7af3a542aafd6df520aa40cc933c6f6d58c9efa25b068b0146543",
          "blockNumber": "0x750845",
          "transactionHash": "0xe7f0c9ee59034774378fe5ad546f58d985c1854cdc21c0794566949eb22b9e50",
          "transactionIndex": "0x5",
          "logIndex": "0x9",
          "removed": false
        }
      ],
      "logsBloom": "0x00000000000000000000000000000000000000020000000000000000000000000000000000000000000000000000000000000000000000000000000000008000000000000000000000000008040000000000000000000000000000000000000000000000020000000000000000000800002000000000800000000010000000000000000000000000000000000000000000000000000000000000000000000000000000000000000000000000000000002000000000004000000000000000008000000002000000000000000000000001000000000000040000000000000020000000000000000000200000000000000000000000100000000000000000000000",
      "type": "0x2",
      "transactionHash": "0xe7f0c9ee59034774378fe5ad546f58d985c1854cdc21c0794566949eb22b9e50",
      "transactionIndex": "0x5",
      "blockHash": "0xdc0faf83e4d7af3a542aafd6df520aa40cc933c6f6d58c9efa25b068b0146543",
      "blockNumber": "0x750845",
      "gasUsed": "0x2ccb8",
      "effectiveGasPrice": "0xfd",
      "from": "0xcda2fdb452ff4f5d7ba1c3d5dfcc9cb926a5eb7d",
      "to": "0x79dfbed14077b8f2421eece5707a17b161094e6a",
      "contractAddress": null,
      "l1BaseFeeScalar": "0x186a0",
      "l1BlobBaseFee": "0x1",
      "l1BlobBaseFeeScalar": "0x95506",
      "l1Fee": "0x969007a93d",
      "l1GasPrice": "0xf0e672a8",
      "l1GasUsed": "0x640"
    },
    {
      "status": "0x1",
      "cumulativeGasUsed": "0x11985f",
      "logs": [
        {
          "address": "0x2e8af9c5922623058aa92a183b391e62cb6b2d12",
          "topics": [
            "0xddf252ad1be2c89b69c2b068fc378daa952ba7f163c4a11628f55a4df523b3ef",
            "0x0000000000000000000000000000000000000000000000000000000000000000",
            "0x000000000000000000000000cda2fdb452ff4f5d7ba1c3d5dfcc9cb926a5eb7d",
            "0x00000000000000000000000000000000000000000000000000000000000001a1"
          ],
          "data": "0x",
          "blockHash": "0xdc0faf83e4d7af3a542aafd6df520aa40cc933c6f6d58c9efa25b068b0146543",
          "blockNumber": "0x750845",
          "transactionHash": "0x5e599e81f540e24359e0630423dba255994d114c32a77858cfbcc8ad1d3f179a",
          "transactionIndex": "0x6",
          "logIndex": "0xa",
          "removed": false
        },
        {
          "address": "0x2e8af9c5922623058aa92a183b391e62cb6b2d12",
          "topics": [
            "0xf8e1a15aba9398e019f0b49df1a4fde98ee17ae345cb5f6b5e2c27f5033e8ce7"
          ],
          "data": "0x00000000000000000000000000000000000000000000000000000000000001a1",
          "blockHash": "0xdc0faf83e4d7af3a542aafd6df520aa40cc933c6f6d58c9efa25b068b0146543",
          "blockNumber": "0x750845",
          "transactionHash": "0x5e599e81f540e24359e0630423dba255994d114c32a77858cfbcc8ad1d3f179a",
          "transactionIndex": "0x6",
          "logIndex": "0xb",
          "removed": false
        }
      ],
      "logsBloom": "0x00000000000000000000000000000000000000020000000000000000000000000000000000000000000000000000000000000000000000000000000000000000000000000000000000000008040000000000000000000000000000000000000000000000020000000000000000000800002000000000800000000010000000000000000400000000000000000000000800000000000000000000000000000000000000000000000000000000000000002000000000004000000000000000008000000002000000000000000000000000000000000000000000000000001020000000000000000000200000000000000000000000100000000000000000000000",
      "type": "0x2",
      "transactionHash": "0x5e599e81f540e24359e0630423dba255994d114c32a77858cfbcc8ad1d3f179a",
      "transactionIndex": "0x6",
      "blockHash": "0xdc0faf83e4d7af3a542aafd6df520aa40cc933c6f6d58c9efa25b068b0146543",
      "blockNumber": "0x750845",
      "gasUsed": "0x2ccb8",
      "effectiveGasPrice": "0xfd",
      "from": "0xcda2fdb452ff4f5d7ba1c3d5dfcc9cb926a5eb7d",
      "to": "0x79dfbed14077b8f2421eece5707a17b161094e6a",
      "contractAddress": null,
      "l1BaseFeeScalar": "0x186a0",
      "l1BlobBaseFee": "0x1",
      "l1BlobBaseFeeScalar": "0x95506",
      "l1Fee": "0x969007a93d",
      "l1GasPrice": "0xf0e672a8",
      "l1GasUsed": "0x640"
    },
    {
      "status": "0x1",
      "cumulativeGasUsed": "0x146517",
      "logs": [
        {
          "address": "0x2e8af9c5922623058aa92a183b391e62cb6b2d12",
          "topics": [
            "0xddf252ad1be2c89b69c2b068fc378daa952ba7f163c4a11628f55a4df523b3ef",
            "0x0000000000000000000000000000000000000000000000000000000000000000",
            "0x000000000000000000000000cda2fdb452ff4f5d7ba1c3d5dfcc9cb926a5eb7d",
            "0x00000000000000000000000000000000000000000000000000000000000001a2"
          ],
          "data": "0x",
          "blockHash": "0xdc0faf83e4d7af3a542aafd6df520aa40cc933c6f6d58c9efa25b068b0146543",
          "blockNumber": "0x750845",
          "transactionHash": "0x431c317955ca601920731fb548443db5be9e604fc14fc28aec5348312ffdde8b",
          "transactionIndex": "0x7",
          "logIndex": "0xc",
          "removed": false
        },
        {
          "address": "0x2e8af9c5922623058aa92a183b391e62cb6b2d12",
          "topics": [
            "0xf8e1a15aba9398e019f0b49df1a4fde98ee17ae345cb5f6b5e2c27f5033e8ce7"
          ],
          "data": "0x00000000000000000000000000000000000000000000000000000000000001a2",
          "blockHash": "0xdc0faf83e4d7af3a542aafd6df520aa40cc933c6f6d58c9efa25b068b0146543",
          "blockNumber": "0x750845",
          "transactionHash": "0x431c317955ca601920731fb548443db5be9e604fc14fc28aec5348312ffdde8b",
          "transactionIndex": "0x7",
          "logIndex": "0xd",
          "removed": false
        }
      ],
      "logsBloom": "0x00000000000000000000000000000000000000020000000000000000000020000020000000000000000000000000000000000000000000000000000000000000000000000000000000000008040000000000000000000000000000000000000000000000020000000000000000000800002000000000800000000010000000000000000000000000000000000000000008000000000000000000000000000000000000000000000000000000000000002000000000004000000000000000008000000002000000000000000000000000000000000000000000000000000020000000000000000000200000000000000000000000100000000000000000000000",
      "type": "0x2",
      "transactionHash": "0x431c317955ca601920731fb548443db5be9e604fc14fc28aec5348312ffdde8b",
      "transactionIndex": "0x7",
      "blockHash": "0xdc0faf83e4d7af3a542aafd6df520aa40cc933c6f6d58c9efa25b068b0146543",
      "blockNumber": "0x750845",
      "gasUsed": "0x2ccb8",
      "effectiveGasPrice": "0xfd",
      "from": "0xcda2fdb452ff4f5d7ba1c3d5dfcc9cb926a5eb7d",
      "to": "0x79dfbed14077b8f2421eece5707a17b161094e6a",
      "contractAddress": null,
      "l1BaseFeeScalar": "0x186a0",
      "l1BlobBaseFee": "0x1",
      "l1BlobBaseFeeScalar": "0x95506",
      "l1Fee": "0x969007a93d",
      "l1GasPrice": "0xf0e672a8",
      "l1GasUsed": "0x640"
    },
    {
      "status": "0x1",
      "cumulativeGasUsed": "0x1731cf",
      "logs": [
        {
          "address": "0x2e8af9c5922623058aa92a183b391e62cb6b2d12",
          "topics": [
            "0xddf252ad1be2c89b69c2b068fc378daa952ba7f163c4a11628f55a4df523b3ef",
            "0x0000000000000000000000000000000000000000000000000000000000000000",
            "0x000000000000000000000000cda2fdb452ff4f5d7ba1c3d5dfcc9cb926a5eb7d",
            "0x00000000000000000000000000000000000000000000000000000000000001a3"
          ],
          "data": "0x",
          "blockHash": "0xdc0faf83e4d7af3a542aafd6df520aa40cc933c6f6d58c9efa25b068b0146543",
          "blockNumber": "0x750845",
          "transactionHash": "0x4c876024012a892ea53b9d32e9878b70bb5ee43ed7b53359b7d984b15dde9192",
          "transactionIndex": "0x8",
          "logIndex": "0xe",
          "removed": false
        },
        {
          "address": "0x2e8af9c5922623058aa92a183b391e62cb6b2d12",
          "topics": [
            "0xf8e1a15aba9398e019f0b49df1a4fde98ee17ae345cb5f6b5e2c27f5033e8ce7"
          ],
          "data": "0x00000000000000000000000000000000000000000000000000000000000001a3",
          "blockHash": "0xdc0faf83e4d7af3a542aafd6df520aa40cc933c6f6d58c9efa25b068b0146543",
          "blockNumber": "0x750845",
          "transactionHash": "0x4c876024012a892ea53b9d32e9878b70bb5ee43ed7b53359b7d984b15dde9192",
          "transactionIndex": "0x8",
          "logIndex": "0xf",
          "removed": false
        }
      ],
      "logsBloom": "0x00000000000000040000000000000000000000020000000000000000000000000000000000000000000000000000000000000000000000000000000000000000000000000000000000000008040000000000000000000000000000000000000000000000020000000000000000000800002000000000800000000010000000000000000000000000000000000000000000000000000000000000000000000000000000000000000000000000000000002000000000004000000000000000008000000002000000000000000000000000000000000040000000000000000020000002000000000000200000000000000000000000100000000000000000000000",
      "type": "0x2",
      "transactionHash": "0x4c876024012a892ea53b9d32e9878b70bb5ee43ed7b53359b7d984b15dde9192",
      "transactionIndex": "0x8",
      "blockHash": "0xdc0faf83e4d7af3a542aafd6df520aa40cc933c6f6d58c9efa25b068b0146543",
      "blockNumber": "0x750845",
      "gasUsed": "0x2ccb8",
      "effectiveGasPrice": "0xfd",
      "from": "0xcda2fdb452ff4f5d7ba1c3d5dfcc9cb926a5eb7d",
      "to": "0x79dfbed14077b8f2421eece5707a17b161094e6a",
      "contractAddress": null,
      "l1BaseFeeScalar": "0x186a0",
      "l1BlobBaseFee": "0x1",
      "l1BlobBaseFeeScalar": "0x95506",
      "l1Fee": "0x969007a93d",
      "l1GasPrice": "0xf0e672a8",
      "l1GasUsed": "0x640"
    },
    {
      "status": "0x1",
      "cumulativeGasUsed": "0x19fe87",
      "logs": [
        {
          "address": "0x2e8af9c5922623058aa92a183b391e62cb6b2d12",
          "topics": [
            "0xddf252ad1be2c89b69c2b068fc378daa952ba7f163c4a11628f55a4df523b3ef",
            "0x0000000000000000000000000000000000000000000000000000000000000000",
            "0x000000000000000000000000cda2fdb452ff4f5d7ba1c3d5dfcc9cb926a5eb7d",
            "0x00000000000000000000000000000000000000000000000000000000000001a4"
          ],
          "data": "0x",
          "blockHash": "0xdc0faf83e4d7af3a542aafd6df520aa40cc933c6f6d58c9efa25b068b0146543",
          "blockNumber": "0x750845",
          "transactionHash": "0xa85150f2ec110e515af758d79866feb08450024181c4f2aebf0097d953c6b2cc",
          "transactionIndex": "0x9",
          "logIndex": "0x10",
          "removed": false
        },
        {
          "address": "0x2e8af9c5922623058aa92a183b391e62cb6b2d12",
          "topics": [
            "0xf8e1a15aba9398e019f0b49df1a4fde98ee17ae345cb5f6b5e2c27f5033e8ce7"
          ],
          "data": "0x00000000000000000000000000000000000000000000000000000000000001a4",
          "blockHash": "0xdc0faf83e4d7af3a542aafd6df520aa40cc933c6f6d58c9efa25b068b0146543",
          "blockNumber": "0x750845",
          "transactionHash": "0xa85150f2ec110e515af758d79866feb08450024181c4f2aebf0097d953c6b2cc",
          "transactionIndex": "0x9",
          "logIndex": "0x11",
          "removed": false
        }
      ],
      "logsBloom": "0x00000000000000000000000000000000000000020000000000000000000000000000000000000000000000000000000000000000000000000000000000000000000000000000000000000008040000000000000000000000000000000000000000000000020400000000008000000800002000000000800000000010000000000000000000000000000000000000000000000000040000000000000000000000000000000000000000000000000000002000000000004000000000000000008000000002000000000000000000000000000000000000000000000000000020000000000000000000200000000000000000000000100000000000000000000000",
      "type": "0x2",
      "transactionHash": "0xa85150f2ec110e515af758d79866feb08450024181c4f2aebf0097d953c6b2cc",
      "transactionIndex": "0x9",
      "blockHash": "0xdc0faf83e4d7af3a542aafd6df520aa40cc933c6f6d58c9efa25b068b0146543",
      "blockNumber": "0x750845",
      "gasUsed": "0x2ccb8",
      "effectiveGasPrice": "0xfd",
      "from": "0xcda2fdb452ff4f5d7ba1c3d5dfcc9cb926a5eb7d",
      "to": "0x79dfbed14077b8f2421eece5707a17b161094e6a",
      "contractAddress": null,
      "l1BaseFeeScalar": "0x186a0",
      "l1BlobBaseFee": "0x1",
      "l1BlobBaseFeeScalar": "0x95506",
      "l1Fee": "0x969007a93d",
      "l1GasPrice": "0xf0e672a8",
      "l1GasUsed": "0x640"
    },
    {
      "status": "0x1",
      "cumulativeGasUsed": "0x1ccb3f",
      "logs": [
        {
          "address": "0x2e8af9c5922623058aa92a183b391e62cb6b2d12",
          "topics": [
            "0xddf252ad1be2c89b69c2b068fc378daa952ba7f163c4a11628f55a4df523b3ef",
            "0x0000000000000000000000000000000000000000000000000000000000000000",
            "0x000000000000000000000000cda2fdb452ff4f5d7ba1c3d5dfcc9cb926a5eb7d",
            "0x00000000000000000000000000000000000000000000000000000000000001a5"
          ],
          "data": "0x",
          "blockHash": "0xdc0faf83e4d7af3a542aafd6df520aa40cc933c6f6d58c9efa25b068b0146543",
          "blockNumber": "0x750845",
          "transactionHash": "0x8c52919633be8ed4a960ba23e9d190da9c33f12af5c9e50900daa562dd226fc9",
          "transactionIndex": "0xa",
          "logIndex": "0x12",
          "removed": false
        },
        {
          "address": "0x2e8af9c5922623058aa92a183b391e62cb6b2d12",
          "topics": [
            "0xf8e1a15aba9398e019f0b49df1a4fde98ee17ae345cb5f6b5e2c27f5033e8ce7"
          ],
          "data": "0x00000000000000000000000000000000000000000000000000000000000001a5",
          "blockHash": "0xdc0faf83e4d7af3a542aafd6df520aa40cc933c6f6d58c9efa25b068b0146543",
          "blockNumber": "0x750845",
          "transactionHash": "0x8c52919633be8ed4a960ba23e9d190da9c33f12af5c9e50900daa562dd226fc9",
          "transactionIndex": "0xa",
          "logIndex": "0x13",
          "removed": false
        }
      ],
      "logsBloom": "0x00000000000000000000000000000000000000020000000000000000000000000000000000000000000000000001000000000000000000000000000000000000000000000000000000000008040000000000000000000000000000000000000000000000020001000000000000000800002000000000800000000010000000000000000000000000000000000000000000000000000000000000000000000000000000000000000000000000000000002000002000004000000000000000008000000002000000000000000000000000000000000000000000000000000020000000000000000000200000000000000000000000100000000000000000000000",
      "type": "0x2",
      "transactionHash": "0x8c52919633be8ed4a960ba23e9d190da9c33f12af5c9e50900daa562dd226fc9",
      "transactionIndex": "0xa",
      "blockHash": "0xdc0faf83e4d7af3a542aafd6df520aa40cc933c6f6d58c9efa25b068b0146543",
      "blockNumber": "0x750845",
      "gasUsed": "0x2ccb8",
      "effectiveGasPrice": "0xfd",
      "from": "0xcda2fdb452ff4f5d7ba1c3d5dfcc9cb926a5eb7d",
      "to": "0x79dfbed14077b8f2421eece5707a17b161094e6a",
      "contractAddress": null,
      "l1BaseFeeScalar": "0x186a0",
      "l1BlobBaseFee": "0x1",
      "l1BlobBaseFeeScalar": "0x95506",
      "l1Fee": "0x969007a93d",
      "l1GasPrice": "0xf0e672a8",
      "l1GasUsed": "0x640"
    },
    {
      "status": "0x1",
      "cumulativeGasUsed": "0x1f97f7",
      "logs": [
        {
          "address": "0x2e8af9c5922623058aa92a183b391e62cb6b2d12",
          "topics": [
            "0xddf252ad1be2c89b69c2b068fc378daa952ba7f163c4a11628f55a4df523b3ef",
            "0x0000000000000000000000000000000000000000000000000000000000000000",
            "0x000000000000000000000000cda2fdb452ff4f5d7ba1c3d5dfcc9cb926a5eb7d",
            "0x00000000000000000000000000000000000000000000000000000000000001a6"
          ],
          "data": "0x",
          "blockHash": "0xdc0faf83e4d7af3a542aafd6df520aa40cc933c6f6d58c9efa25b068b0146543",
          "blockNumber": "0x750845",
          "transactionHash": "0xa6eb03ae610cb2aa0941cf40880a4b8eea773469cc56951249373336ab0f2dde",
          "transactionIndex": "0xb",
          "logIndex": "0x14",
          "removed": false
        },
        {
          "address": "0x2e8af9c5922623058aa92a183b391e62cb6b2d12",
          "topics": [
            "0xf8e1a15aba9398e019f0b49df1a4fde98ee17ae345cb5f6b5e2c27f5033e8ce7"
          ],
          "data": "0x00000000000000000000000000000000000000000000000000000000000001a6",
          "blockHash": "0xdc0faf83e4d7af3a542aafd6df520aa40cc933c6f6d58c9efa25b068b0146543",
          "blockNumber": "0x750845",
          "transactionHash": "0xa6eb03ae610cb2aa0941cf40880a4b8eea773469cc56951249373336ab0f2dde",
          "transactionIndex": "0xb",
          "logIndex": "0x15",
          "removed": false
        }
      ],
      "logsBloom": "0x00000000000000000000000000000000002000020000000000000000000000000000000000000000000000000000000000000000000000000000000000000000000000000000000000000008040000000000000000000000000000000000000000000000020000000000000000000800002000000000800000000010000000000000000000000000000000000000000000000000000000000000000000000000000000000000000000000000000000002000000000004000000000000020008000000002000000000000000000000800000000000000000000000000000020000000000000000000200000000000000000000000100000000000000000000000",
      "type": "0x2",
      "transactionHash": "0xa6eb03ae610cb2aa0941cf40880a4b8eea773469cc56951249373336ab0f2dde",
      "transactionIndex": "0xb",
      "blockHash": "0xdc0faf83e4d7af3a542aafd6df520aa40cc933c6f6d58c9efa25b068b0146543",
      "blockNumber": "0x750845",
      "gasUsed": "0x2ccb8",
      "effectiveGasPrice": "0xfd",
      "from": "0xcda2fdb452ff4f5d7ba1c3d5dfcc9cb926a5eb7d",
      "to": "0x79dfbed14077b8f2421eece5707a17b161094e6a",
      "contractAddress": null,
      "l1BaseFeeScalar": "0x186a0",
      "l1BlobBaseFee": "0x1",
      "l1BlobBaseFeeScalar": "0x95506",
      "l1Fee": "0x969007a93d",
      "l1GasPrice": "0xf0e672a8",
      "l1GasUsed": "0x640"
    },
    {
      "status": "0x1",
      "cumulativeGasUsed": "0x2264af",
      "logs": [
        {
          "address": "0x2e8af9c5922623058aa92a183b391e62cb6b2d12",
          "topics": [
            "0xddf252ad1be2c89b69c2b068fc378daa952ba7f163c4a11628f55a4df523b3ef",
            "0x0000000000000000000000000000000000000000000000000000000000000000",
            "0x000000000000000000000000cda2fdb452ff4f5d7ba1c3d5dfcc9cb926a5eb7d",
            "0x00000000000000000000000000000000000000000000000000000000000001a7"
          ],
          "data": "0x",
          "blockHash": "0xdc0faf83e4d7af3a542aafd6df520aa40cc933c6f6d58c9efa25b068b0146543",
          "blockNumber": "0x750845",
          "transactionHash": "0xb7c305a45bde19d04a9cf9d1a8c49dfc64aa615e749b72bb9e35c9dfd8abc6c2",
          "transactionIndex": "0xc",
          "logIndex": "0x16",
          "removed": false
        },
        {
          "address": "0x2e8af9c5922623058aa92a183b391e62cb6b2d12",
          "topics": [
            "0xf8e1a15aba9398e019f0b49df1a4fde98ee17ae345cb5f6b5e2c27f5033e8ce7"
          ],
          "data": "0x00000000000000000000000000000000000000000000000000000000000001a7",
          "blockHash": "0xdc0faf83e4d7af3a542aafd6df520aa40cc933c6f6d58c9efa25b068b0146543",
          "blockNumber": "0x750845",
          "transactionHash": "0xb7c305a45bde19d04a9cf9d1a8c49dfc64aa615e749b72bb9e35c9dfd8abc6c2",
          "transactionIndex": "0xc",
          "logIndex": "0x17",
          "removed": false
        }
      ],
      "logsBloom": "0x00000000100000000000000000000000000000020000000000000000000000000000000000000000000000000000000000000000000000000000000000000000000000000000000000000008040000000000000000000000000000000000000000000000020000000000000000000800002000000000800000000410000000000000000000000000000000000000000000000000000000000000000000000000000000000000000000000000000000002000000000004000000000000000008000000002000200000000000000000000000000000000000000000000000020000000000000000000200000000000000000000000100000000000000000000000",
      "type": "0x2",
      "transactionHash": "0xb7c305a45bde19d04a9cf9d1a8c49dfc64aa615e749b72bb9e35c9dfd8abc6c2",
      "transactionIndex": "0xc",
      "blockHash": "0xdc0faf83e4d7af3a542aafd6df520aa40cc933c6f6d58c9efa25b068b0146543",
      "blockNumber": "0x750845",
      "gasUsed": "0x2ccb8",
      "effectiveGasPrice": "0xfd",
      "from": "0xcda2fdb452ff4f5d7ba1c3d5dfcc9cb926a5eb7d",
      "to": "0x79dfbed14077b8f2421eece5707a17b161094e6a",
      "contractAddress": null,
      "l1BaseFeeScalar": "0x186a0",
      "l1BlobBaseFee": "0x1",
      "l1BlobBaseFeeScalar": "0x95506",
      "l1Fee": "0x969007a93d",
      "l1GasPrice": "0xf0e672a8",
      "l1GasUsed": "0x640"
    },
    {
      "status": "0x1",
      "cumulativeGasUsed": "0x253167",
      "logs": [
        {
          "address": "0x2e8af9c5922623058aa92a183b391e62cb6b2d12",
          "topics": [
            "0xddf252ad1be2c89b69c2b068fc378daa952ba7f163c4a11628f55a4df523b3ef",
            "0x0000000000000000000000000000000000000000000000000000000000000000",
            "0x000000000000000000000000cda2fdb452ff4f5d7ba1c3d5dfcc9cb926a5eb7d",
            "0x00000000000000000000000000000000000000000000000000000000000001a8"
          ],
          "data": "0x",
          "blockHash": "0xdc0faf83e4d7af3a542aafd6df520aa40cc933c6f6d58c9efa25b068b0146543",
          "blockNumber": "0x750845",
          "transactionHash": "0xe57c4f5c4afa2686d99dc81ed75ed214206b261130dad85e30ce7574d0e434fa",
          "transactionIndex": "0xd",
          "logIndex": "0x18",
          "removed": false
        },
        {
          "address": "0x2e8af9c5922623058aa92a183b391e62cb6b2d12",
          "topics": [
            "0xf8e1a15aba9398e019f0b49df1a4fde98ee17ae345cb5f6b5e2c27f5033e8ce7"
          ],
          "data": "0x00000000000000000000000000000000000000000000000000000000000001a8",
          "blockHash": "0xdc0faf83e4d7af3a542aafd6df520aa40cc933c6f6d58c9efa25b068b0146543",
          "blockNumber": "0x750845",
          "transactionHash": "0xe57c4f5c4afa2686d99dc81ed75ed214206b261130dad85e30ce7574d0e434fa",
          "transactionIndex": "0xd",
          "logIndex": "0x19",
          "removed": false
        }
      ],
      "logsBloom": "0x00000000000000000000000000000000000000020000000000000000000000000000000000000000000000000000000000000000000000000000000000000000000000000000000000000008040000000000000000000000000000000000000000000000020000000000000000000800002000000000800000000010000000000000000000000000000000000000000000000000000000000000000000000000000000000100000000000000000000002000000000004000000000000000008000000002000000000080000000000000000000000000000000000000000020000000000200000000200000000000000000000000100000000000000000000000",
      "type": "0x2",
      "transactionHash": "0xe57c4f5c4afa2686d99dc81ed75ed214206b261130dad85e30ce7574d0e434fa",
      "transactionIndex": "0xd",
      "blockHash": "0xdc0faf83e4d7af3a542aafd6df520aa40cc933c6f6d58c9efa25b068b0146543",
      "blockNumber": "0x750845",
      "gasUsed": "0x2ccb8",
      "effectiveGasPrice": "0xfd",
      "from": "0xcda2fdb452ff4f5d7ba1c3d5dfcc9cb926a5eb7d",
      "to": "0x79dfbed14077b8f2421eece5707a17b161094e6a",
      "contractAddress": null,
      "l1BaseFeeScalar": "0x186a0",
      "l1BlobBaseFee": "0x1",
      "l1BlobBaseFeeScalar": "0x95506",
      "l1Fee": "0x969007a93d",
      "l1GasPrice": "0xf0e672a8",
      "l1GasUsed": "0x640"
    },
    {
      "status": "0x1",
      "cumulativeGasUsed": "0x27fe1f",
      "logs": [
        {
          "address": "0x2e8af9c5922623058aa92a183b391e62cb6b2d12",
          "topics": [
            "0xddf252ad1be2c89b69c2b068fc378daa952ba7f163c4a11628f55a4df523b3ef",
            "0x0000000000000000000000000000000000000000000000000000000000000000",
            "0x000000000000000000000000cda2fdb452ff4f5d7ba1c3d5dfcc9cb926a5eb7d",
            "0x00000000000000000000000000000000000000000000000000000000000001a9"
          ],
          "data": "0x",
          "blockHash": "0xdc0faf83e4d7af3a542aafd6df520aa40cc933c6f6d58c9efa25b068b0146543",
          "blockNumber": "0x750845",
          "transactionHash": "0x5b61169d88d6f72d8594cdb0c80b499c00d5e3bfc7b1ddb162bf50427059a723",
          "transactionIndex": "0xe",
          "logIndex": "0x1a",
          "removed": false
        },
        {
          "address": "0x2e8af9c5922623058aa92a183b391e62cb6b2d12",
          "topics": [
            "0xf8e1a15aba9398e019f0b49df1a4fde98ee17ae345cb5f6b5e2c27f5033e8ce7"
          ],
          "data": "0x00000000000000000000000000000000000000000000000000000000000001a9",
          "blockHash": "0xdc0faf83e4d7af3a542aafd6df520aa40cc933c6f6d58c9efa25b068b0146543",
          "blockNumber": "0x750845",
          "transactionHash": "0x5b61169d88d6f72d8594cdb0c80b499c00d5e3bfc7b1ddb162bf50427059a723",
          "transactionIndex": "0xe",
          "logIndex": "0x1b",
          "removed": false
        }
      ],
      "logsBloom": "0x00000000000000000000000004000000000000020000000000000000000000000000020000000000000000000000000000000000000000000000000000000000000000000000000000000008040000000000000000000000000000000000000000000000020000000000000000000800002000000000800000000010000000000000000000000000000000000000000001000000000000000000000000000000000000000000000000000000000000002000000000004000000000000000008000000002000000000000000000000000000000000000000000000000000020000000000000000000200000000000000000000000100000000000000000000000",
      "type": "0x2",
      "transactionHash": "0x5b61169d88d6f72d8594cdb0c80b499c00d5e3bfc7b1ddb162bf50427059a723",
      "transactionIndex": "0xe",
      "blockHash": "0xdc0faf83e4d7af3a542aafd6df520aa40cc933c6f6d58c9efa25b068b0146543",
      "blockNumber": "0x750845",
      "gasUsed": "0x2ccb8",
      "effectiveGasPrice": "0xfd",
      "from": "0xcda2fdb452ff4f5d7ba1c3d5dfcc9cb926a5eb7d",
      "to": "0x79dfbed14077b8f2421eece5707a17b161094e6a",
      "contractAddress": null,
      "l1BaseFeeScalar": "0x186a0",
      "l1BlobBaseFee": "0x1",
      "l1BlobBaseFeeScalar": "0x95506",
      "l1Fee": "0x969007a93d",
      "l1GasPrice": "0xf0e672a8",
      "l1GasUsed": "0x640"
    },
    {
      "status": "0x1",
      "cumulativeGasUsed": "0x2acad7",
      "logs": [
        {
          "address": "0x2e8af9c5922623058aa92a183b391e62cb6b2d12",
          "topics": [
            "0xddf252ad1be2c89b69c2b068fc378daa952ba7f163c4a11628f55a4df523b3ef",
            "0x0000000000000000000000000000000000000000000000000000000000000000",
            "0x000000000000000000000000cda2fdb452ff4f5d7ba1c3d5dfcc9cb926a5eb7d",
            "0x00000000000000000000000000000000000000000000000000000000000001aa"
          ],
          "data": "0x",
          "blockHash": "0xdc0faf83e4d7af3a542aafd6df520aa40cc933c6f6d58c9efa25b068b0146543",
          "blockNumber": "0x750845",
          "transactionHash": "0x3f561d46df1468b36be0db24be027ca0432469623e1d63e1b4a2193c4b7e5cf8",
          "transactionIndex": "0xf",
          "logIndex": "0x1c",
          "removed": false
        },
        {
          "address": "0x2e8af9c5922623058aa92a183b391e62cb6b2d12",
          "topics": [
            "0xf8e1a15aba9398e019f0b49df1a4fde98ee17ae345cb5f6b5e2c27f5033e8ce7"
          ],
          "data": "0x00000000000000000000000000000000000000000000000000000000000001aa",
          "blockHash": "0xdc0faf83e4d7af3a542aafd6df520aa40cc933c6f6d58c9efa25b068b0146543",
          "blockNumber": "0x750845",
          "transactionHash": "0x3f561d46df1468b36be0db24be027ca0432469623e1d63e1b4a2193c4b7e5cf8",
          "transactionIndex": "0xf",
          "logIndex": "0x1d",
          "removed": false
        }
      ],
      "logsBloom": "0x00000000000000000000000000000000000000020000000000000000000000000000000000000000000000000000000000000000000000000000000000000000000000000000000000000008040000000400000000000000000000000000000000000000020000000000000000000800002000000000800000000010000000000000000000000000000000000000000000000000000000000000000000000000000000000000000000000000000000002000000000004000000000000000008000000002000000000000000000000000000000000400000000000000000020000001000000000000200000000000000000000000100000000000000000000000",
      "type": "0x2",
      "transactionHash": "0x3f561d46df1468b36be0db24be027ca0432469623e1d63e1b4a2193c4b7e5cf8",
      "transactionIndex": "0xf",
      "blockHash": "0xdc0faf83e4d7af3a542aafd6df520aa40cc933c6f6d58c9efa25b068b0146543",
      "blockNumber": "0x750845",
      "gasUsed": "0x2ccb8",
      "effectiveGasPrice": "0xfd",
      "from": "0xcda2fdb452ff4f5d7ba1c3d5dfcc9cb926a5eb7d",
      "to": "0x79dfbed14077b8f2421eece5707a17b161094e6a",
      "contractAddress": null,
      "l1BaseFeeScalar": "0x186a0",
      "l1BlobBaseFee": "0x1",
      "l1BlobBaseFeeScalar": "0x95506",
      "l1Fee": "0x969007a93d",
      "l1GasPrice": "0xf0e672a8",
      "l1GasUsed": "0x640"
    },
    {
      "status": "0x1",
      "cumulativeGasUsed": "0x2d978f",
      "logs": [
        {
          "address": "0x2e8af9c5922623058aa92a183b391e62cb6b2d12",
          "topics": [
            "0xddf252ad1be2c89b69c2b068fc378daa952ba7f163c4a11628f55a4df523b3ef",
            "0x0000000000000000000000000000000000000000000000000000000000000000",
            "0x000000000000000000000000cda2fdb452ff4f5d7ba1c3d5dfcc9cb926a5eb7d",
            "0x00000000000000000000000000000000000000000000000000000000000001ab"
          ],
          "data": "0x",
          "blockHash": "0xdc0faf83e4d7af3a542aafd6df520aa40cc933c6f6d58c9efa25b068b0146543",
          "blockNumber": "0x750845",
          "transactionHash": "0xc2cdc4267198520c7141b1597f3d0f609286cdc52ac6f7b1464014e18083a1eb",
          "transactionIndex": "0x10",
          "logIndex": "0x1e",
          "removed": false
        },
        {
          "address": "0x2e8af9c5922623058aa92a183b391e62cb6b2d12",
          "topics": [
            "0xf8e1a15aba9398e019f0b49df1a4fde98ee17ae345cb5f6b5e2c27f5033e8ce7"
          ],
          "data": "0x00000000000000000000000000000000000000000000000000000000000001ab",
          "blockHash": "0xdc0faf83e4d7af3a542aafd6df520aa40cc933c6f6d58c9efa25b068b0146543",
          "blockNumber": "0x750845",
          "transactionHash": "0xc2cdc4267198520c7141b1597f3d0f609286cdc52ac6f7b1464014e18083a1eb",
          "transactionIndex": "0x10",
          "logIndex": "0x1f",
          "removed": false
        }
      ],
      "logsBloom": "0x00000000000000000000000000000000000000020000000000000000000000000000000000000000000000000000000000000000000000000000000000000000000000000000000000000008040000000000000000000000000000000000000000000000021000000000000000000800002000000000800000000010000000000000000000000000000000000000000000000000000000000000000000000000000000000000000000000000000080002000000000004000000000000000008000000002000000020000000000000000000000000000000000000000000020000000000000000000200000000000000000000000100000000000000000000000",
      "type": "0x2",
      "transactionHash": "0xc2cdc4267198520c7141b1597f3d0f609286cdc52ac6f7b1464014e18083a1eb",
      "transactionIndex": "0x10",
      "blockHash": "0xdc0faf83e4d7af3a542aafd6df520aa40cc933c6f6d58c9efa25b068b0146543",
      "blockNumber": "0x750845",
      "gasUsed": "0x2ccb8",
      "effectiveGasPrice": "0xfd",
      "from": "0xcda2fdb452ff4f5d7ba1c3d5dfcc9cb926a5eb7d",
      "to": "0x79dfbed14077b8f2421eece5707a17b161094e6a",
      "contractAddress": null,
      "l1BaseFeeScalar": "0x186a0",
      "l1BlobBaseFee": "0x1",
      "l1BlobBaseFeeScalar": "0x95506",
      "l1Fee": "0x969007a93d",
      "l1GasPrice": "0xf0e672a8",
      "l1GasUsed": "0x640"
    },
    {
      "status": "0x1",
      "cumulativeGasUsed": "0x306447",
      "logs": [
        {
          "address": "0x2e8af9c5922623058aa92a183b391e62cb6b2d12",
          "topics": [
            "0xddf252ad1be2c89b69c2b068fc378daa952ba7f163c4a11628f55a4df523b3ef",
            "0x0000000000000000000000000000000000000000000000000000000000000000",
            "0x000000000000000000000000cda2fdb452ff4f5d7ba1c3d5dfcc9cb926a5eb7d",
            "0x00000000000000000000000000000000000000000000000000000000000001ac"
          ],
          "data": "0x",
          "blockHash": "0xdc0faf83e4d7af3a542aafd6df520aa40cc933c6f6d58c9efa25b068b0146543",
          "blockNumber": "0x750845",
          "transactionHash": "0x9eac6c431a308e371e447c792578770cc961e895c19007428386ae5320ae9bd7",
          "transactionIndex": "0x11",
          "logIndex": "0x20",
          "removed": false
        },
        {
          "address": "0x2e8af9c5922623058aa92a183b391e62cb6b2d12",
          "topics": [
            "0xf8e1a15aba9398e019f0b49df1a4fde98ee17ae345cb5f6b5e2c27f5033e8ce7"
          ],
          "data": "0x00000000000000000000000000000000000000000000000000000000000001ac",
          "blockHash": "0xdc0faf83e4d7af3a542aafd6df520aa40cc933c6f6d58c9efa25b068b0146543",
          "blockNumber": "0x750845",
          "transactionHash": "0x9eac6c431a308e371e447c792578770cc961e895c19007428386ae5320ae9bd7",
          "transactionIndex": "0x11",
          "logIndex": "0x21",
          "removed": false
        }
      ],
      "logsBloom": "0x00000000000000000000000000000000000000020000000000000000000000000000000000000000000000000000000000000000000000000000000000000000000000000000000000000008040000000000000000000000000000000000000000000000020000000000000000000800002000000000800000000010000000000000000000000000000000000000000000000080000000000000000000000000000000000000000000000000000000002000000000004000000000000000008000000002000000000000000000000040000000000002000000000000000020000000000000000000200000000000000000000000100000000000000000000000",
      "type": "0x2",
      "transactionHash": "0x9eac6c431a308e371e447c792578770cc961e895c19007428386ae5320ae9bd7",
      "transactionIndex": "0x11",
      "blockHash": "0xdc0faf83e4d7af3a542aafd6df520aa40cc933c6f6d58c9efa25b068b0146543",
      "blockNumber": "0x750845",
      "gasUsed": "0x2ccb8",
      "effectiveGasPrice": "0xfd",
      "from": "0xcda2fdb452ff4f5d7ba1c3d5dfcc9cb926a5eb7d",
      "to": "0x79dfbed14077b8f2421eece5707a17b161094e6a",
      "contractAddress": null,
      "l1BaseFeeScalar": "0x186a0",
      "l1BlobBaseFee": "0x1",
      "l1BlobBaseFeeScalar": "0x95506",
      "l1Fee": "0x969007a93d",
      "l1GasPrice": "0xf0e672a8",
      "l1GasUsed": "0x640"
    },
    {
      "status": "0x1",
      "cumulativeGasUsed": "0x3330ff",
      "logs": [
        {
          "address": "0x2e8af9c5922623058aa92a183b391e62cb6b2d12",
          "topics": [
            "0xddf252ad1be2c89b69c2b068fc378daa952ba7f163c4a11628f55a4df523b3ef",
            "0x0000000000000000000000000000000000000000000000000000000000000000",
            "0x000000000000000000000000cda2fdb452ff4f5d7ba1c3d5dfcc9cb926a5eb7d",
            "0x00000000000000000000000000000000000000000000000000000000000001ad"
          ],
          "data": "0x",
          "blockHash": "0xdc0faf83e4d7af3a542aafd6df520aa40cc933c6f6d58c9efa25b068b0146543",
          "blockNumber": "0x750845",
          "transactionHash": "0x430c86e338abf3730cffe05a165d3f48e4043660007d9fd6af33ef8889d9d127",
          "transactionIndex": "0x12",
          "logIndex": "0x22",
          "removed": false
        },
        {
          "address": "0x2e8af9c5922623058aa92a183b391e62cb6b2d12",
          "topics": [
            "0xf8e1a15aba9398e019f0b49df1a4fde98ee17ae345cb5f6b5e2c27f5033e8ce7"
          ],
          "data": "0x00000000000000000000000000000000000000000000000000000000000001ad",
          "blockHash": "0xdc0faf83e4d7af3a542aafd6df520aa40cc933c6f6d58c9efa25b068b0146543",
          "blockNumber": "0x750845",
          "transactionHash": "0x430c86e338abf3730cffe05a165d3f48e4043660007d9fd6af33ef8889d9d127",
          "transactionIndex": "0x12",
          "logIndex": "0x23",
          "removed": false
        }
      ],
      "logsBloom": "0x00000000000000000000000000000000000000020000000000000000000000000000000000000010000000000000000000000000000000000000000000000000000000000000000000000008040000000000000000000000000000000000000000000000020000000000000000000808002000000000800000000010000000000000000000000000000000000000001000000000000000000000000000000000000000000000000000000000000000002000000000004000000000000000008000000002000000000000000000000000000000000000000000000000000020000000000000000000200000000000000000000000100000000000000000000000",
      "type": "0x2",
      "transactionHash": "0x430c86e338abf3730cffe05a165d3f48e4043660007d9fd6af33ef8889d9d127",
      "transactionIndex": "0x12",
      "blockHash": "0xdc0faf83e4d7af3a542aafd6df520aa40cc933c6f6d58c9efa25b068b0146543",
      "blockNumber": "0x750845",
      "gasUsed": "0x2ccb8",
      "effectiveGasPrice": "0xfd",
      "from": "0xcda2fdb452ff4f5d7ba1c3d5dfcc9cb926a5eb7d",
      "to": "0x79dfbed14077b8f2421eece5707a17b161094e6a",
      "contractAddress": null,
      "l1BaseFeeScalar": "0x186a0",
      "l1BlobBaseFee": "0x1",
      "l1BlobBaseFeeScalar": "0x95506",
      "l1Fee": "0x969007a93d",
      "l1GasPrice": "0xf0e672a8",
      "l1GasUsed": "0x640"
    },
    {
      "status": "0x1",
      "cumulativeGasUsed": "0x35fdb7",
      "logs": [
        {
          "address": "0x2e8af9c5922623058aa92a183b391e62cb6b2d12",
          "topics": [
            "0xddf252ad1be2c89b69c2b068fc378daa952ba7f163c4a11628f55a4df523b3ef",
            "0x0000000000000000000000000000000000000000000000000000000000000000",
            "0x000000000000000000000000cda2fdb452ff4f5d7ba1c3d5dfcc9cb926a5eb7d",
            "0x00000000000000000000000000000000000000000000000000000000000001ae"
          ],
          "data": "0x",
          "blockHash": "0xdc0faf83e4d7af3a542aafd6df520aa40cc933c6f6d58c9efa25b068b0146543",
          "blockNumber": "0x750845",
          "transactionHash": "0xe1b5f8ff7d6d305d4a905fb0b54b099624731d843453a2dd6dc094c3403dcb38",
          "transactionIndex": "0x13",
          "logIndex": "0x24",
          "removed": false
        },
        {
          "address": "0x2e8af9c5922623058aa92a183b391e62cb6b2d12",
          "topics": [
            "0xf8e1a15aba9398e019f0b49df1a4fde98ee17ae345cb5f6b5e2c27f5033e8ce7"
          ],
          "data": "0x00000000000000000000000000000000000000000000000000000000000001ae",
          "blockHash": "0xdc0faf83e4d7af3a542aafd6df520aa40cc933c6f6d58c9efa25b068b0146543",
          "blockNumber": "0x750845",
          "transactionHash": "0xe1b5f8ff7d6d305d4a905fb0b54b099624731d843453a2dd6dc094c3403dcb38",
          "transactionIndex": "0x13",
          "logIndex": "0x25",
          "removed": false
        }
      ],
      "logsBloom": "0x00000000000000000000000000000000000000020020000000000000000000000000000000000000000000000000000000000000000000000000000000000000000000000000000000000008040000000000000000000000000080000000000000000000020000000000000000000800002000000000800000000010000000000000000000000000000000000000000000000000000000000000000000000000000000000000000000000000000000002000000000004000000000000000008000000002000000000000000000000000000000000000000000000000000020000000000000000000200000000000000000000000500000000000000000000000",
      "type": "0x2",
      "transactionHash": "0xe1b5f8ff7d6d305d4a905fb0b54b099624731d843453a2dd6dc094c3403dcb38",
      "transactionIndex": "0x13",
      "blockHash": "0xdc0faf83e4d7af3a542aafd6df520aa40cc933c6f6d58c9efa25b068b0146543",
      "blockNumber": "0x750845",
      "gasUsed": "0x2ccb8",
      "effectiveGasPrice": "0xfd",
      "from": "0xcda2fdb452ff4f5d7ba1c3d5dfcc9cb926a5eb7d",
      "to": "0x79dfbed14077b8f2421eece5707a17b161094e6a",
      "contractAddress": null,
      "l1BaseFeeScalar": "0x186a0",
      "l1BlobBaseFee": "0x1",
      "l1BlobBaseFeeScalar": "0x95506",
      "l1Fee": "0x969007a93d",
      "l1GasPrice": "0xf0e672a8",
      "l1GasUsed": "0x640"
    },
    {
      "status": "0x1",
      "cumulativeGasUsed": "0x38ca6f",
      "logs": [
        {
          "address": "0x2e8af9c5922623058aa92a183b391e62cb6b2d12",
          "topics": [
            "0xddf252ad1be2c89b69c2b068fc378daa952ba7f163c4a11628f55a4df523b3ef",
            "0x0000000000000000000000000000000000000000000000000000000000000000",
            "0x000000000000000000000000cda2fdb452ff4f5d7ba1c3d5dfcc9cb926a5eb7d",
            "0x00000000000000000000000000000000000000000000000000000000000001af"
          ],
          "data": "0x",
          "blockHash": "0xdc0faf83e4d7af3a542aafd6df520aa40cc933c6f6d58c9efa25b068b0146543",
          "blockNumber": "0x750845",
          "transactionHash": "0x8b74342eda5bf6b2fdedb23e617da4d6a21adcf29c86f518ad5d17cc6e4d1979",
          "transactionIndex": "0x14",
          "logIndex": "0x26",
          "removed": false
        },
        {
          "address": "0x2e8af9c5922623058aa92a183b391e62cb6b2d12",
          "topics": [
            "0xf8e1a15aba9398e019f0b49df1a4fde98ee17ae345cb5f6b5e2c27f5033e8ce7"
          ],
          "data": "0x00000000000000000000000000000000000000000000000000000000000001af",
          "blockHash": "0xdc0faf83e4d7af3a542aafd6df520aa40cc933c6f6d58c9efa25b068b0146543",
          "blockNumber": "0x750845",
          "transactionHash": "0x8b74342eda5bf6b2fdedb23e617da4d6a21adcf29c86f518ad5d17cc6e4d1979",
          "transactionIndex": "0x14",
          "logIndex": "0x27",
          "removed": false
        }
      ],
      "logsBloom": "0x00000000000000000000000000000000000000020000000000000000000000000000000000020004000000000000000000000000000000000000000000000000000000000000000000000008040000000000000000000000000000000000000000000000020000000000000000000800002000000000800000000010000000000000000000000000000000000000000000000000000000000000000000000000000000000000000000000000000000002000000000004000000000000000009000000002000000000000000000000000000000000000000000000000000020000000000000000000200000000000000000000000100000000000000000000000",
      "type": "0x2",
      "transactionHash": "0x8b74342eda5bf6b2fdedb23e617da4d6a21adcf29c86f518ad5d17cc6e4d1979",
      "transactionIndex": "0x14",
      "blockHash": "0xdc0faf83e4d7af3a542aafd6df520aa40cc933c6f6d58c9efa25b068b0146543",
      "blockNumber": "0x750845",
      "gasUsed": "0x2ccb8",
      "effectiveGasPrice": "0xfd",
      "from": "0xcda2fdb452ff4f5d7ba1c3d5dfcc9cb926a5eb7d",
      "to": "0x79dfbed14077b8f2421eece5707a17b161094e6a",
      "contractAddress": null,
      "l1BaseFeeScalar": "0x186a0",
      "l1BlobBaseFee": "0x1",
      "l1BlobBaseFeeScalar": "0x95506",
      "l1Fee": "0x969007a93d",
      "l1GasPrice": "0xf0e672a8",
      "l1GasUsed": "0x640"
    },
    {
      "status": "0x1",
      "cumulativeGasUsed": "0x3b9727",
      "logs": [
        {
          "address": "0x2e8af9c5922623058aa92a183b391e62cb6b2d12",
          "topics": [
            "0xddf252ad1be2c89b69c2b068fc378daa952ba7f163c4a11628f55a4df523b3ef",
            "0x0000000000000000000000000000000000000000000000000000000000000000",
            "0x000000000000000000000000cda2fdb452ff4f5d7ba1c3d5dfcc9cb926a5eb7d",
            "0x00000000000000000000000000000000000000000000000000000000000001b0"
          ],
          "data": "0x",
          "blockHash": "0xdc0faf83e4d7af3a542aafd6df520aa40cc933c6f6d58c9efa25b068b0146543",
          "blockNumber": "0x750845",
          "transactionHash": "0x9294df7bcddc9c548386e8bd4aaf4fdb6c0bbaf7f551d105de2e808ccba52366",
          "transactionIndex": "0x15",
          "logIndex": "0x28",
          "removed": false
        },
        {
          "address": "0x2e8af9c5922623058aa92a183b391e62cb6b2d12",
          "topics": [
            "0xf8e1a15aba9398e019f0b49df1a4fde98ee17ae345cb5f6b5e2c27f5033e8ce7"
          ],
          "data": "0x00000000000000000000000000000000000000000000000000000000000001b0",
          "blockHash": "0xdc0faf83e4d7af3a542aafd6df520aa40cc933c6f6d58c9efa25b068b0146543",
          "blockNumber": "0x750845",
          "transactionHash": "0x9294df7bcddc9c548386e8bd4aaf4fdb6c0bbaf7f551d105de2e808ccba52366",
          "transactionIndex": "0x15",
          "logIndex": "0x29",
          "removed": false
        }
      ],
      "logsBloom": "0x00000000000000000000000000000000000000020000000000000000000000000000000000000000000000000000000000000000000000000000000000000000000000000000000000000008040000000000000000000000000000000000000000000000020000000000000000000800002000000000800000000010000000000000000000000000000000000000000000000000000000000000000000000000000000000000000000000000000000002000000000004000000400000000008000000002000000000000008000000000020000000000000000000000000020000000000000000000200000000000000000000000100000000000000000000000",
      "type": "0x2",
      "transactionHash": "0x9294df7bcddc9c548386e8bd4aaf4fdb6c0bbaf7f551d105de2e808ccba52366",
      "transactionIndex": "0x15",
      "blockHash": "0xdc0faf83e4d7af3a542aafd6df520aa40cc933c6f6d58c9efa25b068b0146543",
      "blockNumber": "0x750845",
      "gasUsed": "0x2ccb8",
      "effectiveGasPrice": "0xfd",
      "from": "0xcda2fdb452ff4f5d7ba1c3d5dfcc9cb926a5eb7d",
      "to": "0x79dfbed14077b8f2421eece5707a17b161094e6a",
      "contractAddress": null,
      "l1BaseFeeScalar": "0x186a0",
      "l1BlobBaseFee": "0x1",
      "l1BlobBaseFeeScalar": "0x95506",
      "l1Fee": "0x969007a93d",
      "l1GasPrice": "0xf0e672a8",
      "l1GasUsed": "0x640"
    },
    {
      "status": "0x1",
      "cumulativeGasUsed": "0x3e63df",
      "logs": [
        {
          "address": "0x2e8af9c5922623058aa92a183b391e62cb6b2d12",
          "topics": [
            "0xddf252ad1be2c89b69c2b068fc378daa952ba7f163c4a11628f55a4df523b3ef",
            "0x0000000000000000000000000000000000000000000000000000000000000000",
            "0x000000000000000000000000cda2fdb452ff4f5d7ba1c3d5dfcc9cb926a5eb7d",
            "0x00000000000000000000000000000000000000000000000000000000000001b1"
          ],
          "data": "0x",
          "blockHash": "0xdc0faf83e4d7af3a542aafd6df520aa40cc933c6f6d58c9efa25b068b0146543",
          "blockNumber": "0x750845",
          "transactionHash": "0xae3ef2cb9daf8a617b4644884c9f09b225b7450e577df1a0d12479c814b7108e",
          "transactionIndex": "0x16",
          "logIndex": "0x2a",
          "removed": false
        },
        {
          "address": "0x2e8af9c5922623058aa92a183b391e62cb6b2d12",
          "topics": [
            "0xf8e1a15aba9398e019f0b49df1a4fde98ee17ae345cb5f6b5e2c27f5033e8ce7"
          ],
          "data": "0x00000000000000000000000000000000000000000000000000000000000001b1",
          "blockHash": "0xdc0faf83e4d7af3a542aafd6df520aa40cc933c6f6d58c9efa25b068b0146543",
          "blockNumber": "0x750845",
          "transactionHash": "0xae3ef2cb9daf8a617b4644884c9f09b225b7450e577df1a0d12479c814b7108e",
          "transactionIndex": "0x16",
          "logIndex": "0x2b",
          "removed": false
        }
      ],
      "logsBloom": "0x00000000000000000000000000000000000000020000000000000000000000000000000000000000000000000000000800000000000000000000000000000000000000000000000000000008040000000000000000000000000000000000000000000000020000000000000000000800002000000000800000000010000800000000000000000000000000000000000000000000000000000000000000000000000000000000000000000000000000002000000000004000000000000000008000000002000000000000000000000000000000000000000000000000000020000000000000000000200000000000000000000000100000000000000000000000",
      "type": "0x2",
      "transactionHash": "0xae3ef2cb9daf8a617b4644884c9f09b225b7450e577df1a0d12479c814b7108e",
      "transactionIndex": "0x16",
      "blockHash": "0xdc0faf83e4d7af3a542aafd6df520aa40cc933c6f6d58c9efa25b068b0146543",
      "blockNumber": "0x750845",
      "gasUsed": "0x2ccb8",
      "effectiveGasPrice": "0xfd",
      "from": "0xcda2fdb452ff4f5d7ba1c3d5dfcc9cb926a5eb7d",
      "to": "0x79dfbed14077b8f2421eece5707a17b161094e6a",
      "contractAddress": null,
      "l1BaseFeeScalar": "0x186a0",
      "l1BlobBaseFee": "0x1",
      "l1BlobBaseFeeScalar": "0x95506",
      "l1Fee": "0x969007a93d",
      "l1GasPrice": "0xf0e672a8",
      "l1GasUsed": "0x640"
    },
    {
      "status": "0x1",
      "cumulativeGasUsed": "0x413097",
      "logs": [
        {
          "address": "0x2e8af9c5922623058aa92a183b391e62cb6b2d12",
          "topics": [
            "0xddf252ad1be2c89b69c2b068fc378daa952ba7f163c4a11628f55a4df523b3ef",
            "0x0000000000000000000000000000000000000000000000000000000000000000",
            "0x000000000000000000000000cda2fdb452ff4f5d7ba1c3d5dfcc9cb926a5eb7d",
            "0x00000000000000000000000000000000000000000000000000000000000001b2"
          ],
          "data": "0x",
          "blockHash": "0xdc0faf83e4d7af3a542aafd6df520aa40cc933c6f6d58c9efa25b068b0146543",
          "blockNumber": "0x750845",
          "transactionHash": "0x9d49a4da71ea9d8e714f22da7fee25930dedcfd991207c0643d81c4ef0889b69",
          "transactionIndex": "0x17",
          "logIndex": "0x2c",
          "removed": false
        },
        {
          "address": "0x2e8af9c5922623058aa92a183b391e62cb6b2d12",
          "topics": [
            "0xf8e1a15aba9398e019f0b49df1a4fde98ee17ae345cb5f6b5e2c27f5033e8ce7"
          ],
          "data": "0x00000000000000000000000000000000000000000000000000000000000001b2",
          "blockHash": "0xdc0faf83e4d7af3a542aafd6df520aa40cc933c6f6d58c9efa25b068b0146543",
          "blockNumber": "0x750845",
          "transactionHash": "0x9d49a4da71ea9d8e714f22da7fee25930dedcfd991207c0643d81c4ef0889b69",
          "transactionIndex": "0x17",
          "logIndex": "0x2d",
          "removed": false
        }
      ],
      "logsBloom": "0x00000000000000000000000000000000000000020000000000010000000000000000000000000000000000000000000000000000000000000000000000000000000000000000000000000008040000000000000000000000000000000000000000000000020000000000000000000800002000000000800000000010000000000000000000000000000000000000000000000000000000000000000000000000000000000000000000000040000000002000000000004000000000000004008000000002000000000000000000000000000000000000000000000000000020000000000000000000200000000000000000000000100000000000000000000000",
      "type": "0x2",
      "transactionHash": "0x9d49a4da71ea9d8e714f22da7fee25930dedcfd991207c0643d81c4ef0889b69",
      "transactionIndex": "0x17",
      "blockHash": "0xdc0faf83e4d7af3a542aafd6df520aa40cc933c6f6d58c9efa25b068b0146543",
      "blockNumber": "0x750845",
      "gasUsed": "0x2ccb8",
      "effectiveGasPrice": "0xfd",
      "from": "0xcda2fdb452ff4f5d7ba1c3d5dfcc9cb926a5eb7d",
      "to": "0x79dfbed14077b8f2421eece5707a17b161094e6a",
      "contractAddress": null,
      "l1BaseFeeScalar": "0x186a0",
      "l1BlobBaseFee": "0x1",
      "l1BlobBaseFeeScalar": "0x95506",
      "l1Fee": "0x969007a93d",
      "l1GasPrice": "0xf0e672a8",
      "l1GasUsed": "0x640"
    },
    {
      "status": "0x1",
      "cumulativeGasUsed": "0x43fd4f",
      "logs": [
        {
          "address": "0x2e8af9c5922623058aa92a183b391e62cb6b2d12",
          "topics": [
            "0xddf252ad1be2c89b69c2b068fc378daa952ba7f163c4a11628f55a4df523b3ef",
            "0x0000000000000000000000000000000000000000000000000000000000000000",
            "0x000000000000000000000000cda2fdb452ff4f5d7ba1c3d5dfcc9cb926a5eb7d",
            "0x00000000000000000000000000000000000000000000000000000000000001b3"
          ],
          "data": "0x",
          "blockHash": "0xdc0faf83e4d7af3a542aafd6df520aa40cc933c6f6d58c9efa25b068b0146543",
          "blockNumber": "0x750845",
          "transactionHash": "0x2a6baebd8f90978597465aa47cbc24cd62bad3944c834361f92d60e1cfa10d76",
          "transactionIndex": "0x18",
          "logIndex": "0x2e",
          "removed": false
        },
        {
          "address": "0x2e8af9c5922623058aa92a183b391e62cb6b2d12",
          "topics": [
            "0xf8e1a15aba9398e019f0b49df1a4fde98ee17ae345cb5f6b5e2c27f5033e8ce7"
          ],
          "data": "0x00000000000000000000000000000000000000000000000000000000000001b3",
          "blockHash": "0xdc0faf83e4d7af3a542aafd6df520aa40cc933c6f6d58c9efa25b068b0146543",
          "blockNumber": "0x750845",
          "transactionHash": "0x2a6baebd8f90978597465aa47cbc24cd62bad3944c834361f92d60e1cfa10d76",
          "transactionIndex": "0x18",
          "logIndex": "0x2f",
          "removed": false
        }
      ],
      "logsBloom": "0x00000000000000000000000000000000000000020000000000000000000000000000000000000000000000000000000000000000000000000000000000000000000000000000000000000008040000000000000040000000000000000000000000000000020000000000000000000800002000000200800000000010000000000000000000000010000000000000000000000000000000000000000000000000000000000000000000000000000000002000000000004000000000000000008000000002000000000000000000000000000000000000000000000000000020000000000000000000200000000000000000000000100000000000000000000000",
      "type": "0x2",
      "transactionHash": "0x2a6baebd8f90978597465aa47cbc24cd62bad3944c834361f92d60e1cfa10d76",
      "transactionIndex": "0x18",
      "blockHash": "0xdc0faf83e4d7af3a542aafd6df520aa40cc933c6f6d58c9efa25b068b0146543",
      "blockNumber": "0x750845",
      "gasUsed": "0x2ccb8",
      "effectiveGasPrice": "0xfd",
      "from": "0xcda2fdb452ff4f5d7ba1c3d5dfcc9cb926a5eb7d",
      "to": "0x79dfbed14077b8f2421eece5707a17b161094e6a",
      "contractAddress": null,
      "l1BaseFeeScalar": "0x186a0",
      "l1BlobBaseFee": "0x1",
      "l1BlobBaseFeeScalar": "0x95506",
      "l1Fee": "0x969007a93d",
      "l1GasPrice": "0xf0e672a8",
      "l1GasUsed": "0x640"
    },
    {
      "status": "0x1",
      "cumulativeGasUsed": "0x46ca07",
      "logs": [
        {
          "address": "0x2e8af9c5922623058aa92a183b391e62cb6b2d12",
          "topics": [
            "0xddf252ad1be2c89b69c2b068fc378daa952ba7f163c4a11628f55a4df523b3ef",
            "0x0000000000000000000000000000000000000000000000000000000000000000",
            "0x000000000000000000000000cda2fdb452ff4f5d7ba1c3d5dfcc9cb926a5eb7d",
            "0x00000000000000000000000000000000000000000000000000000000000001b4"
          ],
          "data": "0x",
          "blockHash": "0xdc0faf83e4d7af3a542aafd6df520aa40cc933c6f6d58c9efa25b068b0146543",
          "blockNumber": "0x750845",
          "transactionHash": "0xf351ee9c93bd10aaca7d9178e533c9e642ae73b00010483709fee752e4aa0a92",
          "transactionIndex": "0x19",
          "logIndex": "0x30",
          "removed": false
        },
        {
          "address": "0x2e8af9c5922623058aa92a183b391e62cb6b2d12",
          "topics": [
            "0xf8e1a15aba9398e019f0b49df1a4fde98ee17ae345cb5f6b5e2c27f5033e8ce7"
          ],
          "data": "0x00000000000000000000000000000000000000000000000000000000000001b4",
          "blockHash": "0xdc0faf83e4d7af3a542aafd6df520aa40cc933c6f6d58c9efa25b068b0146543",
          "blockNumber": "0x750845",
          "transactionHash": "0xf351ee9c93bd10aaca7d9178e533c9e642ae73b00010483709fee752e4aa0a92",
          "transactionIndex": "0x19",
          "logIndex": "0x31",
          "removed": false
        }
      ],
      "logsBloom": "0x00000000000000000000000000000000000000020000000000000000000000000000000000000000000000000000000000000000000000000000000000000000000000000000000000000008040000000000000000000000000000000000000000000000020000000000000000000a00002000000000800000000010000000000000000000800000000000000000000000800000000000000000000000000000000000000000000000000000000000002000000000004000000000000000008000000002000000000000000000000000000000000000000000000000000020000000000000000000200000000000000000000000100000000000000000000000",
      "type": "0x2",
      "transactionHash": "0xf351ee9c93bd10aaca7d9178e533c9e642ae73b00010483709fee752e4aa0a92",
      "transactionIndex": "0x19",
      "blockHash": "0xdc0faf83e4d7af3a542aafd6df520aa40cc933c6f6d58c9efa25b068b0146543",
      "blockNumber": "0x750845",
      "gasUsed": "0x2ccb8",
      "effectiveGasPrice": "0xfd",
      "from": "0xcda2fdb452ff4f5d7ba1c3d5dfcc9cb926a5eb7d",
      "to": "0x79dfbed14077b8f2421eece5707a17b161094e6a",
      "contractAddress": null,
      "l1BaseFeeScalar": "0x186a0",
      "l1BlobBaseFee": "0x1",
      "l1BlobBaseFeeScalar": "0x95506",
      "l1Fee": "0x969007a93d",
      "l1GasPrice": "0xf0e672a8",
      "l1GasUsed": "0x640"
    },
    {
      "status": "0x1",
      "cumulativeGasUsed": "0x4996bf",
      "logs": [
        {
          "address": "0x2e8af9c5922623058aa92a183b391e62cb6b2d12",
          "topics": [
            "0xddf252ad1be2c89b69c2b068fc378daa952ba7f163c4a11628f55a4df523b3ef",
            "0x0000000000000000000000000000000000000000000000000000000000000000",
            "0x000000000000000000000000cda2fdb452ff4f5d7ba1c3d5dfcc9cb926a5eb7d",
            "0x00000000000000000000000000000000000000000000000000000000000001b5"
          ],
          "data": "0x",
          "blockHash": "0xdc0faf83e4d7af3a542aafd6df520aa40cc933c6f6d58c9efa25b068b0146543",
          "blockNumber": "0x750845",
          "transactionHash": "0x2ab801613c2826b2a021c2a2db6dce9c13b562629471423cc419adb4fc2e7854",
          "transactionIndex": "0x1a",
          "logIndex": "0x32",
          "removed": false
        },
        {
          "address": "0x2e8af9c5922623058aa92a183b391e62cb6b2d12",
          "topics": [
            "0xf8e1a15aba9398e019f0b49df1a4fde98ee17ae345cb5f6b5e2c27f5033e8ce7"
          ],
          "data": "0x00000000000000000000000000000000000000000000000000000000000001b5",
          "blockHash": "0xdc0faf83e4d7af3a542aafd6df520aa40cc933c6f6d58c9efa25b068b0146543",
          "blockNumber": "0x750845",
          "transactionHash": "0x2ab801613c2826b2a021c2a2db6dce9c13b562629471423cc419adb4fc2e7854",
          "transactionIndex": "0x1a",
          "logIndex": "0x33",
          "removed": false
        }
      ],
      "logsBloom": "0x00000000000000000000000800000000000000020000000000000000000000000000000000000000000000000000000000000000000000000000000000000000000000000000000000000008040000000000000000000000000000000000000000000000020000000000000000000800002000000000800000000010000000000000000010000000000000000000000000000000000000000000000000000000000000000000000000000000000000002000000000004000000000000000008000000002000000000000000000000000000000000000000000000000000020000000000400000000200000000000000000000000100000000000000000000000",
      "type": "0x2",
      "transactionHash": "0x2ab801613c2826b2a021c2a2db6dce9c13b562629471423cc419adb4fc2e7854",
      "transactionIndex": "0x1a",
      "blockHash": "0xdc0faf83e4d7af3a542aafd6df520aa40cc933c6f6d58c9efa25b068b0146543",
      "blockNumber": "0x750845",
      "gasUsed": "0x2ccb8",
      "effectiveGasPrice": "0xfd",
      "from": "0xcda2fdb452ff4f5d7ba1c3d5dfcc9cb926a5eb7d",
      "to": "0x79dfbed14077b8f2421eece5707a17b161094e6a",
      "contractAddress": null,
      "l1BaseFeeScalar": "0x186a0",
      "l1BlobBaseFee": "0x1",
      "l1BlobBaseFeeScalar": "0x95506",
      "l1Fee": "0x969007a93d",
      "l1GasPrice": "0xf0e672a8",
      "l1GasUsed": "0x640"
    },
    {
      "status": "0x1",
      "cumulativeGasUsed": "0x4c6377",
      "logs": [
        {
          "address": "0x2e8af9c5922623058aa92a183b391e62cb6b2d12",
          "topics": [
            "0xddf252ad1be2c89b69c2b068fc378daa952ba7f163c4a11628f55a4df523b3ef",
            "0x0000000000000000000000000000000000000000000000000000000000000000",
            "0x000000000000000000000000cda2fdb452ff4f5d7ba1c3d5dfcc9cb926a5eb7d",
            "0x00000000000000000000000000000000000000000000000000000000000001b6"
          ],
          "data": "0x",
          "blockHash": "0xdc0faf83e4d7af3a542aafd6df520aa40cc933c6f6d58c9efa25b068b0146543",
          "blockNumber": "0x750845",
          "transactionHash": "0x0c2030539bcfccfaeb4c4548735ceba302361379e13303f6e6ba48ed1b772482",
          "transactionIndex": "0x1b",
          "logIndex": "0x34",
          "removed": false
        },
        {
          "address": "0x2e8af9c5922623058aa92a183b391e62cb6b2d12",
          "topics": [
            "0xf8e1a15aba9398e019f0b49df1a4fde98ee17ae345cb5f6b5e2c27f5033e8ce7"
          ],
          "data": "0x00000000000000000000000000000000000000000000000000000000000001b6",
          "blockHash": "0xdc0faf83e4d7af3a542aafd6df520aa40cc933c6f6d58c9efa25b068b0146543",
          "blockNumber": "0x750845",
          "transactionHash": "0x0c2030539bcfccfaeb4c4548735ceba302361379e13303f6e6ba48ed1b772482",
          "transactionIndex": "0x1b",
          "logIndex": "0x35",
          "removed": false
        }
      ],
      "logsBloom": "0x00000000000000000000000000000000000000020000000000000080000000000000000000000000000000000020000000000000000000000000000000000000000000000000000000000008040000000000000000000000000000000000000000000000020000000000000000000800002000000000800000000010000000000000000000000000000000000000000000000000000000000000000000000000000000000000000000000000000000002000000000004000000000000000008000000002000000000000000000000000000000000000000000000000000020000000000000000000200000000000080000000000100000000000000000000000",
      "type": "0x2",
      "transactionHash": "0x0c2030539bcfccfaeb4c4548735ceba302361379e13303f6e6ba48ed1b772482",
      "transactionIndex": "0x1b",
      "blockHash": "0xdc0faf83e4d7af3a542aafd6df520aa40cc933c6f6d58c9efa25b068b0146543",
      "blockNumber": "0x750845",
      "gasUsed": "0x2ccb8",
      "effectiveGasPrice": "0xfd",
      "from": "0xcda2fdb452ff4f5d7ba1c3d5dfcc9cb926a5eb7d",
      "to": "0x79dfbed14077b8f2421eece5707a17b161094e6a",
      "contractAddress": null,
      "l1BaseFeeScalar": "0x186a0",
      "l1BlobBaseFee": "0x1",
      "l1BlobBaseFeeScalar": "0x95506",
      "l1Fee": "0x969007a93d",
      "l1GasPrice": "0xf0e672a8",
      "l1GasUsed": "0x640"
    },
    {
      "status": "0x1",
      "cumulativeGasUsed": "0x4f302f",
      "logs": [
        {
          "address": "0x2e8af9c5922623058aa92a183b391e62cb6b2d12",
          "topics": [
            "0xddf252ad1be2c89b69c2b068fc378daa952ba7f163c4a11628f55a4df523b3ef",
            "0x0000000000000000000000000000000000000000000000000000000000000000",
            "0x000000000000000000000000cda2fdb452ff4f5d7ba1c3d5dfcc9cb926a5eb7d",
            "0x00000000000000000000000000000000000000000000000000000000000001b7"
          ],
          "data": "0x",
          "blockHash": "0xdc0faf83e4d7af3a542aafd6df520aa40cc933c6f6d58c9efa25b068b0146543",
          "blockNumber": "0x750845",
          "transactionHash": "0xcb86ee31aa6d6e45c3791a835d70e1b7377b7c9c828b599819815cc432ced83f",
          "transactionIndex": "0x1c",
          "logIndex": "0x36",
          "removed": false
        },
        {
          "address": "0x2e8af9c5922623058aa92a183b391e62cb6b2d12",
          "topics": [
            "0xf8e1a15aba9398e019f0b49df1a4fde98ee17ae345cb5f6b5e2c27f5033e8ce7"
          ],
          "data": "0x00000000000000000000000000000000000000000000000000000000000001b7",
          "blockHash": "0xdc0faf83e4d7af3a542aafd6df520aa40cc933c6f6d58c9efa25b068b0146543",
          "blockNumber": "0x750845",
          "transactionHash": "0xcb86ee31aa6d6e45c3791a835d70e1b7377b7c9c828b599819815cc432ced83f",
          "transactionIndex": "0x1c",
          "logIndex": "0x37",
          "removed": false
        }
      ],
      "logsBloom": "0x00000000000000000000000000000000000000020000000000000000000000000000000000000000000000000000000000400000000000000000000000000000000000000000000000000008040000000000000000000000000000000000000000000000020000000000000000000800022000000000800000000010000000000000000000000000000000000000000000000000000000000000000000000000000000000000000000000000000000002000000000004000000000000000008000000002000000008000000000000000000000000000000000000000000020000000000000000000200000000000000000000000100000000000000000000000",
      "type": "0x2",
      "transactionHash": "0xcb86ee31aa6d6e45c3791a835d70e1b7377b7c9c828b599819815cc432ced83f",
      "transactionIndex": "0x1c",
      "blockHash": "0xdc0faf83e4d7af3a542aafd6df520aa40cc933c6f6d58c9efa25b068b0146543",
      "blockNumber": "0x750845",
      "gasUsed": "0x2ccb8",
      "effectiveGasPrice": "0xfd",
      "from": "0xcda2fdb452ff4f5d7ba1c3d5dfcc9cb926a5eb7d",
      "to": "0x79dfbed14077b8f2421eece5707a17b161094e6a",
      "contractAddress": null,
      "l1BaseFeeScalar": "0x186a0",
      "l1BlobBaseFee": "0x1",
      "l1BlobBaseFeeScalar": "0x95506",
      "l1Fee": "0x969007a93d",
      "l1GasPrice": "0xf0e672a8",
      "l1GasUsed": "0x640"
    }
  ],
  "libraries": [],
  "pending": [],
  "returns": {},
  "timestamp": 1728201651,
  "chain": 60808,
  "commit": "7d9679b"
}