{
  "transactions": [
    {
      "hash": "0xc8936e64f033e768281e6616112b055eecc142bf1f8612b7cc4345b32952badf",
      "transactionType": "CALL",
      "contractName": null,
      "contractAddress": "0x79dfbed14077b8f2421eece5707a17b161094e6a",
      "function": "wlMint(address)",
      "arguments": [
        "0x0000000000000000000000000000000000000000"
      ],
      "transaction": {
        "from": "0xcda2fdb452ff4f5d7ba1c3d5dfcc9cb926a5eb7d",
        "to": "0x79dfbed14077b8f2421eece5707a17b161094e6a",
        "gas": "0x3ddf7",
        "value": "0x0",
        "input": "0xc517b4a50000000000000000000000000000000000000000000000000000000000000000",
        "nonce": "0x1cf0",
        "chainId": "0xed88"
      },
      "additionalContracts": [],
      "isFixedGasLimit": false
    },
    {
      "hash": "0xedf14ee8803861674bc9d2f103f9825554a5bd24f8c673f1fcc51d4fb332ac68",
      "transactionType": "CALL",
      "contractName": null,
      "contractAddress": "0x79dfbed14077b8f2421eece5707a17b161094e6a",
      "function": "wlMint(address)",
      "arguments": [
        "0x0000000000000000000000000000000000000000"
      ],
      "transaction": {
        "from": "0xcda2fdb452ff4f5d7ba1c3d5dfcc9cb926a5eb7d",
        "to": "0x79dfbed14077b8f2421eece5707a17b161094e6a",
        "gas": "0x3ddf7",
        "value": "0x0",
        "input": "0xc517b4a50000000000000000000000000000000000000000000000000000000000000000",
        "nonce": "0x1cf1",
        "chainId": "0xed88"
      },
      "additionalContracts": [],
      "isFixedGasLimit": false
    },
    {
      "hash": "0xb30dc83514d1af14d60a65b9b99b78342006c907b17878973adc1b7ff9b7b544",
      "transactionType": "CALL",
      "contractName": null,
      "contractAddress": "0x79dfbed14077b8f2421eece5707a17b161094e6a",
      "function": "wlMint(address)",
      "arguments": [
        "0x0000000000000000000000000000000000000000"
      ],
      "transaction": {
        "from": "0xcda2fdb452ff4f5d7ba1c3d5dfcc9cb926a5eb7d",
        "to": "0x79dfbed14077b8f2421eece5707a17b161094e6a",
        "gas": "0x3ddf7",
        "value": "0x0",
        "input": "0xc517b4a50000000000000000000000000000000000000000000000000000000000000000",
        "nonce": "0x1cf2",
        "chainId": "0xed88"
      },
      "additionalContracts": [],
      "isFixedGasLimit": false
    },
    {
      "hash": "0x41efabb0e7c1bf8ba190b3a73b8d012472e92be84fec319987fbde2fdbe91c20",
      "transactionType": "CALL",
      "contractName": null,
      "contractAddress": "0x79dfbed14077b8f2421eece5707a17b161094e6a",
      "function": "wlMint(address)",
      "arguments": [
        "0x0000000000000000000000000000000000000000"
      ],
      "transaction": {
        "from": "0xcda2fdb452ff4f5d7ba1c3d5dfcc9cb926a5eb7d",
        "to": "0x79dfbed14077b8f2421eece5707a17b161094e6a",
        "gas": "0x3ddf7",
        "value": "0x0",
        "input": "0xc517b4a50000000000000000000000000000000000000000000000000000000000000000",
        "nonce": "0x1cf3",
        "chainId": "0xed88"
      },
      "additionalContracts": [],
      "isFixedGasLimit": false
    },
    {
      "hash": "0xd1e9daeb81a569dd66975464ff5038390d8e0a34058f41af439778131af9feb9",
      "transactionType": "CALL",
      "contractName": null,
      "contractAddress": "0x79dfbed14077b8f2421eece5707a17b161094e6a",
      "function": "wlMint(address)",
      "arguments": [
        "0x0000000000000000000000000000000000000000"
      ],
      "transaction": {
        "from": "0xcda2fdb452ff4f5d7ba1c3d5dfcc9cb926a5eb7d",
        "to": "0x79dfbed14077b8f2421eece5707a17b161094e6a",
        "gas": "0x3ddf7",
        "value": "0x0",
        "input": "0xc517b4a50000000000000000000000000000000000000000000000000000000000000000",
        "nonce": "0x1cf4",
        "chainId": "0xed88"
      },
      "additionalContracts": [],
      "isFixedGasLimit": false
    },
    {
      "hash": "0x1a23faaf016ef09bd49886e5ef8b8150c48d54600a28c91e32441c84ea84214d",
      "transactionType": "CALL",
      "contractName": null,
      "contractAddress": "0x79dfbed14077b8f2421eece5707a17b161094e6a",
      "function": "wlMint(address)",
      "arguments": [
        "0x0000000000000000000000000000000000000000"
      ],
      "transaction": {
        "from": "0xcda2fdb452ff4f5d7ba1c3d5dfcc9cb926a5eb7d",
        "to": "0x79dfbed14077b8f2421eece5707a17b161094e6a",
        "gas": "0x3ddf7",
        "value": "0x0",
        "input": "0xc517b4a50000000000000000000000000000000000000000000000000000000000000000",
        "nonce": "0x1cf5",
        "chainId": "0xed88"
      },
      "additionalContracts": [],
      "isFixedGasLimit": false
    },
    {
      "hash": "0x32f0526515ac6e8842818b87b47d193fc455fabb733fee395905d23a77099bfc",
      "transactionType": "CALL",
      "contractName": null,
      "contractAddress": "0x79dfbed14077b8f2421eece5707a17b161094e6a",
      "function": "wlMint(address)",
      "arguments": [
        "0x0000000000000000000000000000000000000000"
      ],
      "transaction": {
        "from": "0xcda2fdb452ff4f5d7ba1c3d5dfcc9cb926a5eb7d",
        "to": "0x79dfbed14077b8f2421eece5707a17b161094e6a",
        "gas": "0x3ddf7",
        "value": "0x0",
        "input": "0xc517b4a50000000000000000000000000000000000000000000000000000000000000000",
        "nonce": "0x1cf6",
        "chainId": "0xed88"
      },
      "additionalContracts": [],
      "isFixedGasLimit": false
    },
    {
      "hash": "0xddf3775152ef4ea0bb8cf98e1a97c3b840c6a3e74275d995062d69f8bd84475f",
      "transactionType": "CALL",
      "contractName": null,
      "contractAddress": "0x79dfbed14077b8f2421eece5707a17b161094e6a",
      "function": "wlMint(address)",
      "arguments": [
        "0x0000000000000000000000000000000000000000"
      ],
      "transaction": {
        "from": "0xcda2fdb452ff4f5d7ba1c3d5dfcc9cb926a5eb7d",
        "to": "0x79dfbed14077b8f2421eece5707a17b161094e6a",
        "gas": "0x3ddf7",
        "value": "0x0",
        "input": "0xc517b4a50000000000000000000000000000000000000000000000000000000000000000",
        "nonce": "0x1cf7",
        "chainId": "0xed88"
      },
      "additionalContracts": [],
      "isFixedGasLimit": false
    },
    {
      "hash": "0x0b7d7366b6f83d24f0dccd2674dc6c032e0e1d7b4294fd099545a575128cd51d",
      "transactionType": "CALL",
      "contractName": null,
      "contractAddress": "0x79dfbed14077b8f2421eece5707a17b161094e6a",
      "function": "wlMint(address)",
      "arguments": [
        "0x0000000000000000000000000000000000000000"
      ],
      "transaction": {
        "from": "0xcda2fdb452ff4f5d7ba1c3d5dfcc9cb926a5eb7d",
        "to": "0x79dfbed14077b8f2421eece5707a17b161094e6a",
        "gas": "0x3ddf7",
        "value": "0x0",
        "input": "0xc517b4a50000000000000000000000000000000000000000000000000000000000000000",
        "nonce": "0x1cf8",
        "chainId": "0xed88"
      },
      "additionalContracts": [],
      "isFixedGasLimit": false
    },
    {
      "hash": "0x6c542ebec9dc94bca76b40649e96767be131fc1431cba10a92341091f66b98af",
      "transactionType": "CALL",
      "contractName": null,
      "contractAddress": "0x79dfbed14077b8f2421eece5707a17b161094e6a",
      "function": "wlMint(address)",
      "arguments": [
        "0x0000000000000000000000000000000000000000"
      ],
      "transaction": {
        "from": "0xcda2fdb452ff4f5d7ba1c3d5dfcc9cb926a5eb7d",
        "to": "0x79dfbed14077b8f2421eece5707a17b161094e6a",
        "gas": "0x3ddf7",
        "value": "0x0",
        "input": "0xc517b4a50000000000000000000000000000000000000000000000000000000000000000",
        "nonce": "0x1cf9",
        "chainId": "0xed88"
      },
      "additionalContracts": [],
      "isFixedGasLimit": false
    },
    {
      "hash": "0xe467a79a918c621d95546b18500292b43b9aca4e7c334146960d19d20c2779f0",
      "transactionType": "CALL",
      "contractName": null,
      "contractAddress": "0x79dfbed14077b8f2421eece5707a17b161094e6a",
      "function": "wlMint(address)",
      "arguments": [
        "0x0000000000000000000000000000000000000000"
      ],
      "transaction": {
        "from": "0xcda2fdb452ff4f5d7ba1c3d5dfcc9cb926a5eb7d",
        "to": "0x79dfbed14077b8f2421eece5707a17b161094e6a",
        "gas": "0x3ddf7",
        "value": "0x0",
        "input": "0xc517b4a50000000000000000000000000000000000000000000000000000000000000000",
        "nonce": "0x1cfa",
        "chainId": "0xed88"
      },
      "additionalContracts": [],
      "isFixedGasLimit": false
    },
    {
      "hash": "0x9e9d4443329514274cc49f6df887cc050d6f7d5a9604abbea033738bff4bb918",
      "transactionType": "CALL",
      "contractName": null,
      "contractAddress": "0x79dfbed14077b8f2421eece5707a17b161094e6a",
      "function": "wlMint(address)",
      "arguments": [
        "0x0000000000000000000000000000000000000000"
      ],
      "transaction": {
        "from": "0xcda2fdb452ff4f5d7ba1c3d5dfcc9cb926a5eb7d",
        "to": "0x79dfbed14077b8f2421eece5707a17b161094e6a",
        "gas": "0x3ddf7",
        "value": "0x0",
        "input": "0xc517b4a50000000000000000000000000000000000000000000000000000000000000000",
        "nonce": "0x1cfb",
        "chainId": "0xed88"
      },
      "additionalContracts": [],
      "isFixedGasLimit": false
    },
    {
      "hash": "0xa4aed749ad0258b7a31278c3b0ba24c9e537cb6ba1311fa17b3f70c083d287aa",
      "transactionType": "CALL",
      "contractName": null,
      "contractAddress": "0x79dfbed14077b8f2421eece5707a17b161094e6a",
      "function": "wlMint(address)",
      "arguments": [
        "0x0000000000000000000000000000000000000000"
      ],
      "transaction": {
        "from": "0xcda2fdb452ff4f5d7ba1c3d5dfcc9cb926a5eb7d",
        "to": "0x79dfbed14077b8f2421eece5707a17b161094e6a",
        "gas": "0x3ddf7",
        "value": "0x0",
        "input": "0xc517b4a50000000000000000000000000000000000000000000000000000000000000000",
        "nonce": "0x1cfc",
        "chainId": "0xed88"
      },
      "additionalContracts": [],
      "isFixedGasLimit": false
    },
    {
      "hash": "0x1f408745d0c8cfdf4f2b030d13ee23ed71a44233f2a2ebcb93904d180d29e99b",
      "transactionType": "CALL",
      "contractName": null,
      "contractAddress": "0x79dfbed14077b8f2421eece5707a17b161094e6a",
      "function": "wlMint(address)",
      "arguments": [
        "0x0000000000000000000000000000000000000000"
      ],
      "transaction": {
        "from": "0xcda2fdb452ff4f5d7ba1c3d5dfcc9cb926a5eb7d",
        "to": "0x79dfbed14077b8f2421eece5707a17b161094e6a",
        "gas": "0x3ddf7",
        "value": "0x0",
        "input": "0xc517b4a50000000000000000000000000000000000000000000000000000000000000000",
        "nonce": "0x1cfd",
        "chainId": "0xed88"
      },
      "additionalContracts": [],
      "isFixedGasLimit": false
    },
    {
      "hash": "0x42b0dd0ae354b7069590e003962ede4f378e2ddd301fc4dfa44e3cf58b1f6271",
      "transactionType": "CALL",
      "contractName": null,
      "contractAddress": "0x79dfbed14077b8f2421eece5707a17b161094e6a",
      "function": "wlMint(address)",
      "arguments": [
        "0x0000000000000000000000000000000000000000"
      ],
      "transaction": {
        "from": "0xcda2fdb452ff4f5d7ba1c3d5dfcc9cb926a5eb7d",
        "to": "0x79dfbed14077b8f2421eece5707a17b161094e6a",
        "gas": "0x3ddf7",
        "value": "0x0",
        "input": "0xc517b4a50000000000000000000000000000000000000000000000000000000000000000",
        "nonce": "0x1cfe",
        "chainId": "0xed88"
      },
      "additionalContracts": [],
      "isFixedGasLimit": false
    },
    {
      "hash": "0x3565db41dcef4a453b6a11014fad4ebe26b7553bee06239cedc6d4283099e563",
      "transactionType": "CALL",
      "contractName": null,
      "contractAddress": "0x79dfbed14077b8f2421eece5707a17b161094e6a",
      "function": "wlMint(address)",
      "arguments": [
        "0x0000000000000000000000000000000000000000"
      ],
      "transaction": {
        "from": "0xcda2fdb452ff4f5d7ba1c3d5dfcc9cb926a5eb7d",
        "to": "0x79dfbed14077b8f2421eece5707a17b161094e6a",
        "gas": "0x3ddf7",
        "value": "0x0",
        "input": "0xc517b4a50000000000000000000000000000000000000000000000000000000000000000",
        "nonce": "0x1cff",
        "chainId": "0xed88"
      },
      "additionalContracts": [],
      "isFixedGasLimit": false
    },
    {
      "hash": "0x33c26022843b8d625ad1a5f72a725173e1b3d5d3c3d7e12a54ffbe153875d77e",
      "transactionType": "CALL",
      "contractName": null,
      "contractAddress": "0x79dfbed14077b8f2421eece5707a17b161094e6a",
      "function": "wlMint(address)",
      "arguments": [
        "0x0000000000000000000000000000000000000000"
      ],
      "transaction": {
        "from": "0xcda2fdb452ff4f5d7ba1c3d5dfcc9cb926a5eb7d",
        "to": "0x79dfbed14077b8f2421eece5707a17b161094e6a",
        "gas": "0x3ddf7",
        "value": "0x0",
        "input": "0xc517b4a50000000000000000000000000000000000000000000000000000000000000000",
        "nonce": "0x1d00",
        "chainId": "0xed88"
      },
      "additionalContracts": [],
      "isFixedGasLimit": false
    },
    {
      "hash": "0xc60e0ac33e121765d37ca215fcd80f0cb706cee01617b9d710d627b361a7033e",
      "transactionType": "CALL",
      "contractName": null,
      "contractAddress": "0x79dfbed14077b8f2421eece5707a17b161094e6a",
      "function": "wlMint(address)",
      "arguments": [
        "0x0000000000000000000000000000000000000000"
      ],
      "transaction": {
        "from": "0xcda2fdb452ff4f5d7ba1c3d5dfcc9cb926a5eb7d",
        "to": "0x79dfbed14077b8f2421eece5707a17b161094e6a",
        "gas": "0x3ddf7",
        "value": "0x0",
        "input": "0xc517b4a50000000000000000000000000000000000000000000000000000000000000000",
        "nonce": "0x1d01",
        "chainId": "0xed88"
      },
      "additionalContracts": [],
      "isFixedGasLimit": false
    },
    {
      "hash": "0x65e7f0a6c93ab722d0338824ce31d9110d78aa804197f5d7f14277ba2d735e8c",
      "transactionType": "CALL",
      "contractName": null,
      "contractAddress": "0x79dfbed14077b8f2421eece5707a17b161094e6a",
      "function": "wlMint(address)",
      "arguments": [
        "0x0000000000000000000000000000000000000000"
      ],
      "transaction": {
        "from": "0xcda2fdb452ff4f5d7ba1c3d5dfcc9cb926a5eb7d",
        "to": "0x79dfbed14077b8f2421eece5707a17b161094e6a",
        "gas": "0x3ddf7",
        "value": "0x0",
        "input": "0xc517b4a50000000000000000000000000000000000000000000000000000000000000000",
        "nonce": "0x1d02",
        "chainId": "0xed88"
      },
      "additionalContracts": [],
      "isFixedGasLimit": false
    },
    {
      "hash": "0x9ff91cd7052635932e798fadc5d256b4f46ef8794dd52cb00876dc7c75ff0450",
      "transactionType": "CALL",
      "contractName": null,
      "contractAddress": "0x79dfbed14077b8f2421eece5707a17b161094e6a",
      "function": "wlMint(address)",
      "arguments": [
        "0x0000000000000000000000000000000000000000"
      ],
      "transaction": {
        "from": "0xcda2fdb452ff4f5d7ba1c3d5dfcc9cb926a5eb7d",
        "to": "0x79dfbed14077b8f2421eece5707a17b161094e6a",
        "gas": "0x3ddf7",
        "value": "0x0",
        "input": "0xc517b4a50000000000000000000000000000000000000000000000000000000000000000",
        "nonce": "0x1d03",
        "chainId": "0xed88"
      },
      "additionalContracts": [],
      "isFixedGasLimit": false
    },
    {
      "hash": "0x0fc7cba15fab21823ea410c784d57c51a9dd6020df84f48d6488ef0728c83a20",
      "transactionType": "CALL",
      "contractName": null,
      "contractAddress": "0x79dfbed14077b8f2421eece5707a17b161094e6a",
      "function": "wlMint(address)",
      "arguments": [
        "0x0000000000000000000000000000000000000000"
      ],
      "transaction": {
        "from": "0xcda2fdb452ff4f5d7ba1c3d5dfcc9cb926a5eb7d",
        "to": "0x79dfbed14077b8f2421eece5707a17b161094e6a",
        "gas": "0x3ddf7",
        "value": "0x0",
        "input": "0xc517b4a50000000000000000000000000000000000000000000000000000000000000000",
        "nonce": "0x1d04",
        "chainId": "0xed88"
      },
      "additionalContracts": [],
      "isFixedGasLimit": false
    },
    {
      "hash": "0xbedc831946443d1aab7a7ee111711e9be88f099b4cbac3db1e0a92999fdf7a70",
      "transactionType": "CALL",
      "contractName": null,
      "contractAddress": "0x79dfbed14077b8f2421eece5707a17b161094e6a",
      "function": "wlMint(address)",
      "arguments": [
        "0x0000000000000000000000000000000000000000"
      ],
      "transaction": {
        "from": "0xcda2fdb452ff4f5d7ba1c3d5dfcc9cb926a5eb7d",
        "to": "0x79dfbed14077b8f2421eece5707a17b161094e6a",
        "gas": "0x3ddf7",
        "value": "0x0",
        "input": "0xc517b4a50000000000000000000000000000000000000000000000000000000000000000",
        "nonce": "0x1d05",
        "chainId": "0xed88"
      },
      "additionalContracts": [],
      "isFixedGasLimit": false
    },
    {
      "hash": "0x8373ab1f398d36b734f6d13baf5b03b2bdd372c59e0da18ad6bf43cb04db41f8",
      "transactionType": "CALL",
      "contractName": null,
      "contractAddress": "0x79dfbed14077b8f2421eece5707a17b161094e6a",
      "function": "wlMint(address)",
      "arguments": [
        "0x0000000000000000000000000000000000000000"
      ],
      "transaction": {
        "from": "0xcda2fdb452ff4f5d7ba1c3d5dfcc9cb926a5eb7d",
        "to": "0x79dfbed14077b8f2421eece5707a17b161094e6a",
        "gas": "0x3ddf7",
        "value": "0x0",
        "input": "0xc517b4a50000000000000000000000000000000000000000000000000000000000000000",
        "nonce": "0x1d06",
        "chainId": "0xed88"
      },
      "additionalContracts": [],
      "isFixedGasLimit": false
    },
    {
      "hash": "0x173b46249ae715fb1d4ade303c4850ee0dd90bd7160b861df999628555339df1",
      "transactionType": "CALL",
      "contractName": null,
      "contractAddress": "0x79dfbed14077b8f2421eece5707a17b161094e6a",
      "function": "wlMint(address)",
      "arguments": [
        "0x0000000000000000000000000000000000000000"
      ],
      "transaction": {
        "from": "0xcda2fdb452ff4f5d7ba1c3d5dfcc9cb926a5eb7d",
        "to": "0x79dfbed14077b8f2421eece5707a17b161094e6a",
        "gas": "0x3ddf7",
        "value": "0x0",
        "input": "0xc517b4a50000000000000000000000000000000000000000000000000000000000000000",
        "nonce": "0x1d07",
        "chainId": "0xed88"
      },
      "additionalContracts": [],
      "isFixedGasLimit": false
    },
    {
      "hash": "0xd71654d9317f5438e474be34fbf555b00b47f2567fe8173caf163fe932b0fa65",
      "transactionType": "CALL",
      "contractName": null,
      "contractAddress": "0x79dfbed14077b8f2421eece5707a17b161094e6a",
      "function": "wlMint(address)",
      "arguments": [
        "0x0000000000000000000000000000000000000000"
      ],
      "transaction": {
        "from": "0xcda2fdb452ff4f5d7ba1c3d5dfcc9cb926a5eb7d",
        "to": "0x79dfbed14077b8f2421eece5707a17b161094e6a",
        "gas": "0x3ddf7",
        "value": "0x0",
        "input": "0xc517b4a50000000000000000000000000000000000000000000000000000000000000000",
        "nonce": "0x1d08",
        "chainId": "0xed88"
      },
      "additionalContracts": [],
      "isFixedGasLimit": false
    },
    {
      "hash": "0x86f17b8bf9278232e90800a81b447434ccf782e6eeb1b4142e1d7a4310c04572",
      "transactionType": "CALL",
      "contractName": null,
      "contractAddress": "0x79dfbed14077b8f2421eece5707a17b161094e6a",
      "function": "wlMint(address)",
      "arguments": [
        "0x0000000000000000000000000000000000000000"
      ],
      "transaction": {
        "from": "0xcda2fdb452ff4f5d7ba1c3d5dfcc9cb926a5eb7d",
        "to": "0x79dfbed14077b8f2421eece5707a17b161094e6a",
        "gas": "0x3ddf7",
        "value": "0x0",
        "input": "0xc517b4a50000000000000000000000000000000000000000000000000000000000000000",
        "nonce": "0x1d09",
        "chainId": "0xed88"
      },
      "additionalContracts": [],
      "isFixedGasLimit": false
    },
    {
      "hash": "0x45c4ae462cedcc80568df2ec4594e041e1240db645f7e6731e8a3a9db1c2f5ad",
      "transactionType": "CALL",
      "contractName": null,
      "contractAddress": "0x79dfbed14077b8f2421eece5707a17b161094e6a",
      "function": "wlMint(address)",
      "arguments": [
        "0x0000000000000000000000000000000000000000"
      ],
      "transaction": {
        "from": "0xcda2fdb452ff4f5d7ba1c3d5dfcc9cb926a5eb7d",
        "to": "0x79dfbed14077b8f2421eece5707a17b161094e6a",
        "gas": "0x3ddf7",
        "value": "0x0",
        "input": "0xc517b4a50000000000000000000000000000000000000000000000000000000000000000",
        "nonce": "0x1d0a",
        "chainId": "0xed88"
      },
      "additionalContracts": [],
      "isFixedGasLimit": false
    },
    {
      "hash": "0xb81d5f10cd30b08c017d9ea672eb91cf34b4977177863ee60dc08b9243da8c79",
      "transactionType": "CALL",
      "contractName": null,
      "contractAddress": "0x79dfbed14077b8f2421eece5707a17b161094e6a",
      "function": "wlMint(address)",
      "arguments": [
        "0x0000000000000000000000000000000000000000"
      ],
      "transaction": {
        "from": "0xcda2fdb452ff4f5d7ba1c3d5dfcc9cb926a5eb7d",
        "to": "0x79dfbed14077b8f2421eece5707a17b161094e6a",
        "gas": "0x3ddf7",
        "value": "0x0",
        "input": "0xc517b4a50000000000000000000000000000000000000000000000000000000000000000",
        "nonce": "0x1d0b",
        "chainId": "0xed88"
      },
      "additionalContracts": [],
      "isFixedGasLimit": false
    },
    {
      "hash": "0x4cfbe190c4f4f1d51594ed793cd931db3b7c68eb47676094aa563cc717f1ab1f",
      "transactionType": "CALL",
      "contractName": null,
      "contractAddress": "0x79dfbed14077b8f2421eece5707a17b161094e6a",
      "function": "wlMint(address)",
      "arguments": [
        "0x0000000000000000000000000000000000000000"
      ],
      "transaction": {
        "from": "0xcda2fdb452ff4f5d7ba1c3d5dfcc9cb926a5eb7d",
        "to": "0x79dfbed14077b8f2421eece5707a17b161094e6a",
        "gas": "0x3ddf7",
        "value": "0x0",
        "input": "0xc517b4a50000000000000000000000000000000000000000000000000000000000000000",
        "nonce": "0x1d0c",
        "chainId": "0xed88"
      },
      "additionalContracts": [],
      "isFixedGasLimit": false
    },
    {
      "hash": "0x9902e52b64645fe7c2f70aaa232898f101786ca779cf35a35354bc4541b01f91",
      "transactionType": "CALL",
      "contractName": null,
      "contractAddress": "0x79dfbed14077b8f2421eece5707a17b161094e6a",
      "function": "wlMint(address)",
      "arguments": [
        "0x0000000000000000000000000000000000000000"
      ],
      "transaction": {
        "from": "0xcda2fdb452ff4f5d7ba1c3d5dfcc9cb926a5eb7d",
        "to": "0x79dfbed14077b8f2421eece5707a17b161094e6a",
        "gas": "0x3ddf7",
        "value": "0x0",
        "input": "0xc517b4a50000000000000000000000000000000000000000000000000000000000000000",
        "nonce": "0x1d0d",
        "chainId": "0xed88"
      },
      "additionalContracts": [],
      "isFixedGasLimit": false
    }
  ],
  "receipts": [
    {
      "status": "0x1",
      "cumulativeGasUsed": "0x3ca0b",
      "logs": [
        {
          "address": "0x2e8af9c5922623058aa92a183b391e62cb6b2d12",
          "topics": [
            "0xddf252ad1be2c89b69c2b068fc378daa952ba7f163c4a11628f55a4df523b3ef",
            "0x0000000000000000000000000000000000000000000000000000000000000000",
            "0x000000000000000000000000cda2fdb452ff4f5d7ba1c3d5dfcc9cb926a5eb7d",
            "0x00000000000000000000000000000000000000000000000000000000000000e6"
          ],
          "data": "0x",
          "blockHash": "0x126d20d10b27458821d33d00afaa5bd4c7aff1a7fd3d5148fbd528556c711d19",
          "blockNumber": "0x7506f3",
          "transactionHash": "0xc8936e64f033e768281e6616112b055eecc142bf1f8612b7cc4345b32952badf",
          "transactionIndex": "0x2",
          "logIndex": "0x0",
          "removed": false
        },
        {
          "address": "0x2e8af9c5922623058aa92a183b391e62cb6b2d12",
          "topics": [
            "0xf8e1a15aba9398e019f0b49df1a4fde98ee17ae345cb5f6b5e2c27f5033e8ce7"
          ],
          "data": "0x00000000000000000000000000000000000000000000000000000000000000e6",
          "blockHash": "0x126d20d10b27458821d33d00afaa5bd4c7aff1a7fd3d5148fbd528556c711d19",
          "blockNumber": "0x7506f3",
          "transactionHash": "0xc8936e64f033e768281e6616112b055eecc142bf1f8612b7cc4345b32952badf",
          "transactionIndex": "0x2",
          "logIndex": "0x1",
          "removed": false
        }
      ],
      "logsBloom": "0x00000000000000000000000000000000000000020000000000000000000000000000000000000000000000000000000000000000000000000000000000000000000001000000000000000008040000000000000000000000000000000000000000000000020000000000000000000800002000000000800000000010000000000000000000000000000000000000000000000000000000800000000020000000000000000000000000000000000000002000000000004000000000000000008000000002000000000000000000000000000000000000000000000000000020000000000000000000200000000000000000000000100000000000000000000000",
      "type": "0x2",
      "transactionHash": "0xc8936e64f033e768281e6616112b055eecc142bf1f8612b7cc4345b32952badf",
      "transactionIndex": "0x2",
      "blockHash": "0x126d20d10b27458821d33d00afaa5bd4c7aff1a7fd3d5148fbd528556c711d19",
      "blockNumber": "0x7506f3",
      "gasUsed": "0x2ccb8",
      "effectiveGasPrice": "0xfd",
      "from": "0xcda2fdb452ff4f5d7ba1c3d5dfcc9cb926a5eb7d",
      "to": "0x79dfbed14077b8f2421eece5707a17b161094e6a",
      "contractAddress": null,
      "l1BaseFeeScalar": "0x186a0",
      "l1BlobBaseFee": "0x1",
      "l1BlobBaseFeeScalar": "0x95506",
      "l1Fee": "0x95de944ffd",
      "l1GasPrice": "0xefca86e6",
      "l1GasUsed": "0x640"
    },
    {
      "status": "0x1",
      "cumulativeGasUsed": "0x696c3",
      "logs": [
        {
          "address": "0x2e8af9c5922623058aa92a183b391e62cb6b2d12",
          "topics": [
            "0xddf252ad1be2c89b69c2b068fc378daa952ba7f163c4a11628f55a4df523b3ef",
            "0x0000000000000000000000000000000000000000000000000000000000000000",
            "0x000000000000000000000000cda2fdb452ff4f5d7ba1c3d5dfcc9cb926a5eb7d",
            "0x00000000000000000000000000000000000000000000000000000000000000e7"
          ],
          "data": "0x",
          "blockHash": "0x126d20d10b27458821d33d00afaa5bd4c7aff1a7fd3d5148fbd528556c711d19",
          "blockNumber": "0x7506f3",
          "transactionHash": "0xedf14ee8803861674bc9d2f103f9825554a5bd24f8c673f1fcc51d4fb332ac68",
          "transactionIndex": "0x3",
          "logIndex": "0x2",
          "removed": false
        },
        {
          "address": "0x2e8af9c5922623058aa92a183b391e62cb6b2d12",
          "topics": [
            "0xf8e1a15aba9398e019f0b49df1a4fde98ee17ae345cb5f6b5e2c27f5033e8ce7"
          ],
          "data": "0x00000000000000000000000000000000000000000000000000000000000000e7",
          "blockHash": "0x126d20d10b27458821d33d00afaa5bd4c7aff1a7fd3d5148fbd528556c711d19",
          "blockNumber": "0x7506f3",
          "transactionHash": "0xedf14ee8803861674bc9d2f103f9825554a5bd24f8c673f1fcc51d4fb332ac68",
          "transactionIndex": "0x3",
          "logIndex": "0x3",
          "removed": false
        }
      ],
      "logsBloom": "0x00000000000000000000000000000000000000020000000000000000000000000000000000000000000000000000000000000000000000000000000000000000000000000000000000000008040000000000000000000000000000000000000000000000020000000001000000000800002000000000800000000010000000000000000000000000000000000000000000000000001000000000000020000000000000000000000000000000000000002000000000004000000000000000008000000002000000000000000000000000000000000000000000000000000020000000000000000000200000000000000000000000100000000000000000000000",
      "type": "0x2",
      "transactionHash": "0xedf14ee8803861674bc9d2f103f9825554a5bd24f8c673f1fcc51d4fb332ac68",
      "transactionIndex": "0x3",
      "blockHash": "0x126d20d10b27458821d33d00afaa5bd4c7aff1a7fd3d5148fbd528556c711d19",
      "blockNumber": "0x7506f3",
      "gasUsed": "0x2ccb8",
      "effectiveGasPrice": "0xfd",
      "from": "0xcda2fdb452ff4f5d7ba1c3d5dfcc9cb926a5eb7d",
      "to": "0x79dfbed14077b8f2421eece5707a17b161094e6a",
      "contractAddress": null,
      "l1BaseFeeScalar": "0x186a0",
      "l1BlobBaseFee": "0x1",
      "l1BlobBaseFeeScalar": "0x95506",
      "l1Fee": "0x95de944ffd",
      "l1GasPrice": "0xefca86e6",
      "l1GasUsed": "0x640"
    },
    {
      "status": "0x1",
      "cumulativeGasUsed": "0x9637b",
      "logs": [
        {
          "address": "0x2e8af9c5922623058aa92a183b391e62cb6b2d12",
          "topics": [
            "0xddf252ad1be2c89b69c2b068fc378daa952ba7f163c4a11628f55a4df523b3ef",
            "0x0000000000000000000000000000000000000000000000000000000000000000",
            "0x000000000000000000000000cda2fdb452ff4f5d7ba1c3d5dfcc9cb926a5eb7d",
            "0x00000000000000000000000000000000000000000000000000000000000000e8"
          ],
          "data": "0x",
          "blockHash": "0x126d20d10b27458821d33d00afaa5bd4c7aff1a7fd3d5148fbd528556c711d19",
          "blockNumber": "0x7506f3",
          "transactionHash": "0xb30dc83514d1af14d60a65b9b99b78342006c907b17878973adc1b7ff9b7b544",
          "transactionIndex": "0x4",
          "logIndex": "0x4",
          "removed": false
        },
        {
          "address": "0x2e8af9c5922623058aa92a183b391e62cb6b2d12",
          "topics": [
            "0xf8e1a15aba9398e019f0b49df1a4fde98ee17ae345cb5f6b5e2c27f5033e8ce7"
          ],
          "data": "0x00000000000000000000000000000000000000000000000000000000000000e8",
          "blockHash": "0x126d20d10b27458821d33d00afaa5bd4c7aff1a7fd3d5148fbd528556c711d19",
          "blockNumber": "0x7506f3",
          "transactionHash": "0xb30dc83514d1af14d60a65b9b99b78342006c907b17878973adc1b7ff9b7b544",
          "transactionIndex": "0x4",
          "logIndex": "0x5",
          "removed": false
        }
      ],
      "logsBloom": "0x00000000000000000000000400000000000000020000000000000000000000000000000000000000000000000000000000000000000000000000000000000000000000000000000000000008040000000000000000000000000000000000000000000000020000000000000000000800002000000000800000000010000000000000000000000100000000000000000000000000000000000000000000000000000000000000000000000000000000002000000000004000000002000000008000000002000000000000000000000000000000000000000000000000000020000000000000000000200000000000000000000000100000000000000000000000",
      "type": "0x2",
      "transactionHash": "0xb30dc83514d1af14d60a65b9b99b78342006c907b17878973adc1b7ff9b7b544",
      "transactionIndex": "0x4",
      "blockHash": "0x126d20d10b27458821d33d00afaa5bd4c7aff1a7fd3d5148fbd528556c711d19",
      "blockNumber": "0x7506f3",
      "gasUsed": "0x2ccb8",
      "effectiveGasPrice": "0xfd",
      "from": "0xcda2fdb452ff4f5d7ba1c3d5dfcc9cb926a5eb7d",
      "to": "0x79dfbed14077b8f2421eece5707a17b161094e6a",
      "contractAddress": null,
      "l1BaseFeeScalar": "0x186a0",
      "l1BlobBaseFee": "0x1",
      "l1BlobBaseFeeScalar": "0x95506",
      "l1Fee": "0x95de944ffd",
      "l1GasPrice": "0xefca86e6",
      "l1GasUsed": "0x640"
    },
    {
      "status": "0x1",
      "cumulativeGasUsed": "0xc3033",
      "logs": [
        {
          "address": "0x2e8af9c5922623058aa92a183b391e62cb6b2d12",
          "topics": [
            "0xddf252ad1be2c89b69c2b068fc378daa952ba7f163c4a11628f55a4df523b3ef",
            "0x0000000000000000000000000000000000000000000000000000000000000000",
            "0x000000000000000000000000cda2fdb452ff4f5d7ba1c3d5dfcc9cb926a5eb7d",
            "0x00000000000000000000000000000000000000000000000000000000000000e9"
          ],
          "data": "0x",
          "blockHash": "0x126d20d10b27458821d33d00afaa5bd4c7aff1a7fd3d5148fbd528556c711d19",
          "blockNumber": "0x7506f3",
          "transactionHash": "0x41efabb0e7c1bf8ba190b3a73b8d012472e92be84fec319987fbde2fdbe91c20",
          "transactionIndex": "0x5",
          "logIndex": "0x6",
          "removed": false
        },
        {
          "address": "0x2e8af9c5922623058aa92a183b391e62cb6b2d12",
          "topics": [
            "0xf8e1a15aba9398e019f0b49df1a4fde98ee17ae345cb5f6b5e2c27f5033e8ce7"
          ],
          "data": "0x00000000000000000000000000000000000000000000000000000000000000e9",
          "blockHash": "0x126d20d10b27458821d33d00afaa5bd4c7aff1a7fd3d5148fbd528556c711d19",
          "blockNumber": "0x7506f3",
          "transactionHash": "0x41efabb0e7c1bf8ba190b3a73b8d012472e92be84fec319987fbde2fdbe91c20",
          "transactionIndex": "0x5",
          "logIndex": "0x7",
          "removed": false
        }
      ],
      "logsBloom": "0x00000000000000000000000000000000000000020000000000000000000000000000000000000000001000000000000000000000000000000000000000000000000000000000000000000008040000000000000000000000000000000000000000000000020000000000000000000800002000000000800000000010000000000000000000000000000000000000000000000000000000000000000000000000000000000000000000000000000000002000001000004000000000000000008000000002000000000000000000000000000000000000000000000000000020000000000000800000200000000000000000000000100000000000000000000000",
      "type": "0x2",
      "transactionHash": "0x41efabb0e7c1bf8ba190b3a73b8d012472e92be84fec319987fbde2fdbe91c20",
      "transactionIndex": "0x5",
      "blockHash": "0x126d20d10b27458821d33d00afaa5bd4c7aff1a7fd3d5148fbd528556c711d19",
      "blockNumber": "0x7506f3",
      "gasUsed": "0x2ccb8",
      "effectiveGasPrice": "0xfd",
      "from": "0xcda2fdb452ff4f5d7ba1c3d5dfcc9cb926a5eb7d",
      "to": "0x79dfbed14077b8f2421eece5707a17b161094e6a",
      "contractAddress": null,
      "l1BaseFeeScalar": "0x186a0",
      "l1BlobBaseFee": "0x1",
      "l1BlobBaseFeeScalar": "0x95506",
      "l1Fee": "0x95de944ffd",
      "l1GasPrice": "0xefca86e6",
      "l1GasUsed": "0x640"
    },
    {
      "status": "0x1",
      "cumulativeGasUsed": "0xefceb",
      "logs": [
        {
          "address": "0x2e8af9c5922623058aa92a183b391e62cb6b2d12",
          "topics": [
            "0xddf252ad1be2c89b69c2b068fc378daa952ba7f163c4a11628f55a4df523b3ef",
            "0x0000000000000000000000000000000000000000000000000000000000000000",
            "0x000000000000000000000000cda2fdb452ff4f5d7ba1c3d5dfcc9cb926a5eb7d",
            "0x00000000000000000000000000000000000000000000000000000000000000ea"
          ],
          "data": "0x",
          "blockHash": "0x126d20d10b27458821d33d00afaa5bd4c7aff1a7fd3d5148fbd528556c711d19",
          "blockNumber": "0x7506f3",
          "transactionHash": "0xd1e9daeb81a569dd66975464ff5038390d8e0a34058f41af439778131af9feb9",
          "transactionIndex": "0x6",
          "logIndex": "0x8",
          "removed": false
        },
        {
          "address": "0x2e8af9c5922623058aa92a183b391e62cb6b2d12",
          "topics": [
            "0xf8e1a15aba9398e019f0b49df1a4fde98ee17ae345cb5f6b5e2c27f5033e8ce7"
          ],
          "data": "0x00000000000000000000000000000000000000000000000000000000000000ea",
          "blockHash": "0x126d20d10b27458821d33d00afaa5bd4c7aff1a7fd3d5148fbd528556c711d19",
          "blockNumber": "0x7506f3",
          "transactionHash": "0xd1e9daeb81a569dd66975464ff5038390d8e0a34058f41af439778131af9feb9",
          "transactionIndex": "0x6",
          "logIndex": "0x9",
          "removed": false
        }
      ],
      "logsBloom": "0x00000000000000000000000000000000000000020000000000000000000000000000000000000000000000000000000000000000000000000000000000000000000000000000000000000008040000000000000000000000000000000000000000000000020000000000000000000800002000000000800000000010000000000000000000000000000000000000000000000000000000000000010000000000000000000000000000000000000000002000000000004000000000000000008000000002000001004000000000000000000000000000000000000000000020000000000000000000200000000000000000000000100000000000000000000000",
      "type": "0x2",
      "transactionHash": "0xd1e9daeb81a569dd66975464ff5038390d8e0a34058f41af439778131af9feb9",
      "transactionIndex": "0x6",
      "blockHash": "0x126d20d10b27458821d33d00afaa5bd4c7aff1a7fd3d5148fbd528556c711d19",
      "blockNumber": "0x7506f3",
      "gasUsed": "0x2ccb8",
      "effectiveGasPrice": "0xfd",
      "from": "0xcda2fdb452ff4f5d7ba1c3d5dfcc9cb926a5eb7d",
      "to": "0x79dfbed14077b8f2421eece5707a17b161094e6a",
      "contractAddress": null,
      "l1BaseFeeScalar": "0x186a0",
      "l1BlobBaseFee": "0x1",
      "l1BlobBaseFeeScalar": "0x95506",
      "l1Fee": "0x95de944ffd",
      "l1GasPrice": "0xefca86e6",
      "l1GasUsed": "0x640"
    },
    {
      "status": "0x1",
      "cumulativeGasUsed": "0x11c9a3",
      "logs": [
        {
          "address": "0x2e8af9c5922623058aa92a183b391e62cb6b2d12",
          "topics": [
            "0xddf252ad1be2c89b69c2b068fc378daa952ba7f163c4a11628f55a4df523b3ef",
            "0x0000000000000000000000000000000000000000000000000000000000000000",
            "0x000000000000000000000000cda2fdb452ff4f5d7ba1c3d5dfcc9cb926a5eb7d",
            "0x00000000000000000000000000000000000000000000000000000000000000eb"
          ],
          "data": "0x",
          "blockHash": "0x126d20d10b27458821d33d00afaa5bd4c7aff1a7fd3d5148fbd528556c711d19",
          "blockNumber": "0x7506f3",
          "transactionHash": "0x1a23faaf016ef09bd49886e5ef8b8150c48d54600a28c91e32441c84ea84214d",
          "transactionIndex": "0x7",
          "logIndex": "0xa",
          "removed": false
        },
        {
          "address": "0x2e8af9c5922623058aa92a183b391e62cb6b2d12",
          "topics": [
            "0xf8e1a15aba9398e019f0b49df1a4fde98ee17ae345cb5f6b5e2c27f5033e8ce7"
          ],
          "data": "0x00000000000000000000000000000000000000000000000000000000000000eb",
          "blockHash": "0x126d20d10b27458821d33d00afaa5bd4c7aff1a7fd3d5148fbd528556c711d19",
          "blockNumber": "0x7506f3",
          "transactionHash": "0x1a23faaf016ef09bd49886e5ef8b8150c48d54600a28c91e32441c84ea84214d",
          "transactionIndex": "0x7",
          "logIndex": "0xb",
          "removed": false
        }
      ],
      "logsBloom": "0x00000000000000000000000000000000000000020000000000000000000000000000000000000000000000000000000000000000000000000000000000000000000000000000000000000008050000000000000000000000000000000000000000000000020000000000000000000800002000000000804000000010000000000000000000000000000000000000000000000000000000000020000000000000000000000000000000000000000000002000000000004000000000000000008000000002000000000000000000000000000000000000000000000000000020000000000000000000200000000000000000000000100000000000000000000000",
      "type": "0x2",
      "transactionHash": "0x1a23faaf016ef09bd49886e5ef8b8150c48d54600a28c91e32441c84ea84214d",
      "transactionIndex": "0x7",
      "blockHash": "0x126d20d10b27458821d33d00afaa5bd4c7aff1a7fd3d5148fbd528556c711d19",
      "blockNumber": "0x7506f3",
      "gasUsed": "0x2ccb8",
      "effectiveGasPrice": "0xfd",
      "from": "0xcda2fdb452ff4f5d7ba1c3d5dfcc9cb926a5eb7d",
      "to": "0x79dfbed14077b8f2421eece5707a17b161094e6a",
      "contractAddress": null,
      "l1BaseFeeScalar": "0x186a0",
      "l1BlobBaseFee": "0x1",
      "l1BlobBaseFeeScalar": "0x95506",
      "l1Fee": "0x95de944ffd",
      "l1GasPrice": "0xefca86e6",
      "l1GasUsed": "0x640"
    },
    {
      "status": "0x1",
      "cumulativeGasUsed": "0x14965b",
      "logs": [
        {
          "address": "0x2e8af9c5922623058aa92a183b391e62cb6b2d12",
          "topics": [
            "0xddf252ad1be2c89b69c2b068fc378daa952ba7f163c4a11628f55a4df523b3ef",
            "0x0000000000000000000000000000000000000000000000000000000000000000",
            "0x000000000000000000000000cda2fdb452ff4f5d7ba1c3d5dfcc9cb926a5eb7d",
            "0x00000000000000000000000000000000000000000000000000000000000000ec"
          ],
          "data": "0x",
          "blockHash": "0x126d20d10b27458821d33d00afaa5bd4c7aff1a7fd3d5148fbd528556c711d19",
          "blockNumber": "0x7506f3",
          "transactionHash": "0x32f0526515ac6e8842818b87b47d193fc455fabb733fee395905d23a77099bfc",
          "transactionIndex": "0x8",
          "logIndex": "0xc",
          "removed": false
        },
        {
          "address": "0x2e8af9c5922623058aa92a183b391e62cb6b2d12",
          "topics": [
            "0xf8e1a15aba9398e019f0b49df1a4fde98ee17ae345cb5f6b5e2c27f5033e8ce7"
          ],
          "data": "0x00000000000000000000000000000000000000000000000000000000000000ec",
          "blockHash": "0x126d20d10b27458821d33d00afaa5bd4c7aff1a7fd3d5148fbd528556c711d19",
          "blockNumber": "0x7506f3",
          "transactionHash": "0x32f0526515ac6e8842818b87b47d193fc455fabb733fee395905d23a77099bfc",
          "transactionIndex": "0x8",
          "logIndex": "0xd",
          "removed": false
        }
      ],
      "logsBloom": "0x00000000800000000000000000000000000000020000040000000000000000000000000000000000000000000000000000000000000000000000000000000000000000000000000000000008040000000000000000000000000000000000000000000000020000000000000000000800002000000000800001000010000000000000000000000000000000000000000000000000000000000000000000000000000000000000000000000000000000002000000000004000000000000000008000000002000000000000000000000000000000000000000000000000000020000000000000000000200000000000000000000000100000000000000000000000",
      "type": "0x2",
      "transactionHash": "0x32f0526515ac6e8842818b87b47d193fc455fabb733fee395905d23a77099bfc",
      "transactionIndex": "0x8",
      "blockHash": "0x126d20d10b27458821d33d00afaa5bd4c7aff1a7fd3d5148fbd528556c711d19",
      "blockNumber": "0x7506f3",
      "gasUsed": "0x2ccb8",
      "effectiveGasPrice": "0xfd",
      "from": "0xcda2fdb452ff4f5d7ba1c3d5dfcc9cb926a5eb7d",
      "to": "0x79dfbed14077b8f2421eece5707a17b161094e6a",
      "contractAddress": null,
      "l1BaseFeeScalar": "0x186a0",
      "l1BlobBaseFee": "0x1",
      "l1BlobBaseFeeScalar": "0x95506",
      "l1Fee": "0x95de944ffd",
      "l1GasPrice": "0xefca86e6",
      "l1GasUsed": "0x640"
    },
    {
      "status": "0x1",
      "cumulativeGasUsed": "0x176313",
      "logs": [
        {
          "address": "0x2e8af9c5922623058aa92a183b391e62cb6b2d12",
          "topics": [
            "0xddf252ad1be2c89b69c2b068fc378daa952ba7f163c4a11628f55a4df523b3ef",
            "0x0000000000000000000000000000000000000000000000000000000000000000",
            "0x000000000000000000000000cda2fdb452ff4f5d7ba1c3d5dfcc9cb926a5eb7d",
            "0x00000000000000000000000000000000000000000000000000000000000000ed"
          ],
          "data": "0x",
          "blockHash": "0x126d20d10b27458821d33d00afaa5bd4c7aff1a7fd3d5148fbd528556c711d19",
          "blockNumber": "0x7506f3",
          "transactionHash": "0xddf3775152ef4ea0bb8cf98e1a97c3b840c6a3e74275d995062d69f8bd84475f",
          "transactionIndex": "0x9",
          "logIndex": "0xe",
          "removed": false
        },
        {
          "address": "0x2e8af9c5922623058aa92a183b391e62cb6b2d12",
          "topics": [
            "0xf8e1a15aba9398e019f0b49df1a4fde98ee17ae345cb5f6b5e2c27f5033e8ce7"
          ],
          "data": "0x00000000000000000000000000000000000000000000000000000000000000ed",
          "blockHash": "0x126d20d10b27458821d33d00afaa5bd4c7aff1a7fd3d5148fbd528556c711d19",
          "blockNumber": "0x7506f3",
          "transactionHash": "0xddf3775152ef4ea0bb8cf98e1a97c3b840c6a3e74275d995062d69f8bd84475f",
          "transactionIndex": "0x9",
          "logIndex": "0xf",
          "removed": false
        }
      ],
      "logsBloom": "0x00000000000000000000000000000000000000020000000000000000000000000000000000000000000000000000000000000000000000000000000000000000000000000000000000000008040000000000000000000000000000000000001000000000020000000000000000000800002000000000800000000010000000000000000000000000000000000000000000000000000000000000000000000000000000000004000000000000000000002000000000004000000000000000008000000002000000000000000000000000000000000000000000000000000020000000000000000000200000020000000000000000100000000000000000000000",
      "type": "0x2",
      "transactionHash": "0xddf3775152ef4ea0bb8cf98e1a97c3b840c6a3e74275d995062d69f8bd84475f",
      "transactionIndex": "0x9",
      "blockHash": "0x126d20d10b27458821d33d00afaa5bd4c7aff1a7fd3d5148fbd528556c711d19",
      "blockNumber": "0x7506f3",
      "gasUsed": "0x2ccb8",
      "effectiveGasPrice": "0xfd",
      "from": "0xcda2fdb452ff4f5d7ba1c3d5dfcc9cb926a5eb7d",
      "to": "0x79dfbed14077b8f2421eece5707a17b161094e6a",
      "contractAddress": null,
      "l1BaseFeeScalar": "0x186a0",
      "l1BlobBaseFee": "0x1",
      "l1BlobBaseFeeScalar": "0x95506",
      "l1Fee": "0x95de944ffd",
      "l1GasPrice": "0xefca86e6",
      "l1GasUsed": "0x640"
    },
    {
      "status": "0x1",
      "cumulativeGasUsed": "0x1a2fcb",
      "logs": [
        {
          "address": "0x2e8af9c5922623058aa92a183b391e62cb6b2d12",
          "topics": [
            "0xddf252ad1be2c89b69c2b068fc378daa952ba7f163c4a11628f55a4df523b3ef",
            "0x0000000000000000000000000000000000000000000000000000000000000000",
            "0x000000000000000000000000cda2fdb452ff4f5d7ba1c3d5dfcc9cb926a5eb7d",
            "0x00000000000000000000000000000000000000000000000000000000000000ee"
          ],
          "data": "0x",
          "blockHash": "0x126d20d10b27458821d33d00afaa5bd4c7aff1a7fd3d5148fbd528556c711d19",
          "blockNumber": "0x7506f3",
          "transactionHash": "0x0b7d7366b6f83d24f0dccd2674dc6c032e0e1d7b4294fd099545a575128cd51d",
          "transactionIndex": "0xa",
          "logIndex": "0x10",
          "removed": false
        },
        {
          "address": "0x2e8af9c5922623058aa92a183b391e62cb6b2d12",
          "topics": [
            "0xf8e1a15aba9398e019f0b49df1a4fde98ee17ae345cb5f6b5e2c27f5033e8ce7"
          ],
          "data": "0x00000000000000000000000000000000000000000000000000000000000000ee",
          "blockHash": "0x126d20d10b27458821d33d00afaa5bd4c7aff1a7fd3d5148fbd528556c711d19",
          "blockNumber": "0x7506f3",
          "transactionHash": "0x0b7d7366b6f83d24f0dccd2674dc6c032e0e1d7b4294fd099545a575128cd51d",
          "transactionIndex": "0xa",
          "logIndex": "0x11",
          "removed": false
        }
      ],
      "logsBloom": "0x00000000000000000000000000000000000000020000000000000000000000000000000000000000000000000000000000000000000000000000000000000000000000000000000000000048040000000000000000000000000000000000000000000000020000000000000000000810002000000000800000000010000000000000000000000000000000000000000000000000000000100000000000000000000000000000000000000000000000002000000000004000000000000000008000000002000000000000000000000000000000000000000000000000000020000000000000000000200000000000000000000000100000000000000000000000",
      "type": "0x2",
      "transactionHash": "0x0b7d7366b6f83d24f0dccd2674dc6c032e0e1d7b4294fd099545a575128cd51d",
      "transactionIndex": "0xa",
      "blockHash": "0x126d20d10b27458821d33d00afaa5bd4c7aff1a7fd3d5148fbd528556c711d19",
      "blockNumber": "0x7506f3",
      "gasUsed": "0x2ccb8",
      "effectiveGasPrice": "0xfd",
      "from": "0xcda2fdb452ff4f5d7ba1c3d5dfcc9cb926a5eb7d",
      "to": "0x79dfbed14077b8f2421eece5707a17b161094e6a",
      "contractAddress": null,
      "l1BaseFeeScalar": "0x186a0",
      "l1BlobBaseFee": "0x1",
      "l1BlobBaseFeeScalar": "0x95506",
      "l1Fee": "0x95de944ffd",
      "l1GasPrice": "0xefca86e6",
      "l1GasUsed": "0x640"
    },
    {
      "status": "0x1",
      "cumulativeGasUsed": "0x1cfc83",
      "logs": [
        {
          "address": "0x2e8af9c5922623058aa92a183b391e62cb6b2d12",
          "topics": [
            "0xddf252ad1be2c89b69c2b068fc378daa952ba7f163c4a11628f55a4df523b3ef",
            "0x0000000000000000000000000000000000000000000000000000000000000000",
            "0x000000000000000000000000cda2fdb452ff4f5d7ba1c3d5dfcc9cb926a5eb7d",
            "0x00000000000000000000000000000000000000000000000000000000000000ef"
          ],
          "data": "0x",
          "blockHash": "0x126d20d10b27458821d33d00afaa5bd4c7aff1a7fd3d5148fbd528556c711d19",
          "blockNumber": "0x7506f3",
          "transactionHash": "0x6c542ebec9dc94bca76b40649e96767be131fc1431cba10a92341091f66b98af",
          "transactionIndex": "0xb",
          "logIndex": "0x12",
          "removed": false
        },
        {
          "address": "0x2e8af9c5922623058aa92a183b391e62cb6b2d12",
          "topics": [
            "0xf8e1a15aba9398e019f0b49df1a4fde98ee17ae345cb5f6b5e2c27f5033e8ce7"
          ],
          "data": "0x00000000000000000000000000000000000000000000000000000000000000ef",
          "blockHash": "0x126d20d10b27458821d33d00afaa5bd4c7aff1a7fd3d5148fbd528556c711d19",
          "blockNumber": "0x7506f3",
          "transactionHash": "0x6c542ebec9dc94bca76b40649e96767be131fc1431cba10a92341091f66b98af",
          "transactionIndex": "0xb",
          "logIndex": "0x13",
          "removed": false
        }
      ],
      "logsBloom": "0x00000000000000000000000000000000000000020100000000000000000000000000000000000000000000000000000000000000000000000000000100000000000000000000000000000008040000000000000000000000000000000000200000000000020000000000000000000800002000000000800000000010000000000000000000000000000000000000000000000000000000000000000000000000000000000000000000000000000000002000000000004000000000000000008000000002000000000000000000000000000000000000000000000000000020000000000000000000200000000000000000000000100000000000000000000000",
      "type": "0x2",
      "transactionHash": "0x6c542ebec9dc94bca76b40649e96767be131fc1431cba10a92341091f66b98af",
      "transactionIndex": "0xb",
      "blockHash": "0x126d20d10b27458821d33d00afaa5bd4c7aff1a7fd3d5148fbd528556c711d19",
      "blockNumber": "0x7506f3",
      "gasUsed": "0x2ccb8",
      "effectiveGasPrice": "0xfd",
      "from": "0xcda2fdb452ff4f5d7ba1c3d5dfcc9cb926a5eb7d",
      "to": "0x79dfbed14077b8f2421eece5707a17b161094e6a",
      "contractAddress": null,
      "l1BaseFeeScalar": "0x186a0",
      "l1BlobBaseFee": "0x1",
      "l1BlobBaseFeeScalar": "0x95506",
      "l1Fee": "0x95de944ffd",
      "l1GasPrice": "0xefca86e6",
      "l1GasUsed": "0x640"
    },
    {
      "status": "0x1",
      "cumulativeGasUsed": "0x1fc93b",
      "logs": [
        {
          "address": "0x2e8af9c5922623058aa92a183b391e62cb6b2d12",
          "topics": [
            "0xddf252ad1be2c89b69c2b068fc378daa952ba7f163c4a11628f55a4df523b3ef",
            "0x0000000000000000000000000000000000000000000000000000000000000000",
            "0x000000000000000000000000cda2fdb452ff4f5d7ba1c3d5dfcc9cb926a5eb7d",
            "0x00000000000000000000000000000000000000000000000000000000000000f0"
          ],
          "data": "0x",
          "blockHash": "0x126d20d10b27458821d33d00afaa5bd4c7aff1a7fd3d5148fbd528556c711d19",
          "blockNumber": "0x7506f3",
          "transactionHash": "0xe467a79a918c621d95546b18500292b43b9aca4e7c334146960d19d20c2779f0",
          "transactionIndex": "0xc",
          "logIndex": "0x14",
          "removed": false
        },
        {
          "address": "0x2e8af9c5922623058aa92a183b391e62cb6b2d12",
          "topics": [
            "0xf8e1a15aba9398e019f0b49df1a4fde98ee17ae345cb5f6b5e2c27f5033e8ce7"
          ],
          "data": "0x00000000000000000000000000000000000000000000000000000000000000f0",
          "blockHash": "0x126d20d10b27458821d33d00afaa5bd4c7aff1a7fd3d5148fbd528556c711d19",
          "blockNumber": "0x7506f3",
          "transactionHash": "0xe467a79a918c621d95546b18500292b43b9aca4e7c334146960d19d20c2779f0",
          "transactionIndex": "0xc",
          "logIndex": "0x15",
          "removed": false
        }
      ],
      "logsBloom": "0x00000000000000000000000000000000000000020000000000000000000000000000000000000000000000000000000000000000000000000000000000000000000000000000000000000008040000000000000000000000000000001000000000000000020000000000000000000800002000000000800000000010000000000000000400000000000000000000000000000000000000000000000000000000000000000000000000000000000000002000000000004000000000000000008000000002000000000000000000000000000000000000000000000000000020000000000000000000200000000000000000000000100000000000000000100000",
      "type": "0x2",
      "transactionHash": "0xe467a79a918c621d95546b18500292b43b9aca4e7c334146960d19d20c2779f0",
      "transactionIndex": "0xc",
      "blockHash": "0x126d20d10b27458821d33d00afaa5bd4c7aff1a7fd3d5148fbd528556c711d19",
      "blockNumber": "0x7506f3",
      "gasUsed": "0x2ccb8",
      "effectiveGasPrice": "0xfd",
      "from": "0xcda2fdb452ff4f5d7ba1c3d5dfcc9cb926a5eb7d",
      "to": "0x79dfbed14077b8f2421eece5707a17b161094e6a",
      "contractAddress": null,
      "l1BaseFeeScalar": "0x186a0",
      "l1BlobBaseFee": "0x1",
      "l1BlobBaseFeeScalar": "0x95506",
      "l1Fee": "0x95de944ffd",
      "l1GasPrice": "0xefca86e6",
      "l1GasUsed": "0x640"
    },
    {
      "status": "0x1",
      "cumulativeGasUsed": "0x2295f3",
      "logs": [
        {
          "address": "0x2e8af9c5922623058aa92a183b391e62cb6b2d12",
          "topics": [
            "0xddf252ad1be2c89b69c2b068fc378daa952ba7f163c4a11628f55a4df523b3ef",
            "0x0000000000000000000000000000000000000000000000000000000000000000",
            "0x000000000000000000000000cda2fdb452ff4f5d7ba1c3d5dfcc9cb926a5eb7d",
            "0x00000000000000000000000000000000000000000000000000000000000000f1"
          ],
          "data": "0x",
          "blockHash": "0x126d20d10b27458821d33d00afaa5bd4c7aff1a7fd3d5148fbd528556c711d19",
          "blockNumber": "0x7506f3",
          "transactionHash": "0x9e9d4443329514274cc49f6df887cc050d6f7d5a9604abbea033738bff4bb918",
          "transactionIndex": "0xd",
          "logIndex": "0x16",
          "removed": false
        },
        {
          "address": "0x2e8af9c5922623058aa92a183b391e62cb6b2d12",
          "topics": [
            "0xf8e1a15aba9398e019f0b49df1a4fde98ee17ae345cb5f6b5e2c27f5033e8ce7"
          ],
          "data": "0x00000000000000000000000000000000000000000000000000000000000000f1",
          "blockHash": "0x126d20d10b27458821d33d00afaa5bd4c7aff1a7fd3d5148fbd528556c711d19",
          "blockNumber": "0x7506f3",
          "transactionHash": "0x9e9d4443329514274cc49f6df887cc050d6f7d5a9604abbea033738bff4bb918",
          "transactionIndex": "0xd",
          "logIndex": "0x17",
          "removed": false
        }
      ],
      "logsBloom": "0x00000000000000000000000000000000000000020000000000000000000000000000000000000000000000000000000000000000000040000000000000000000000000000000000000000008040000000000000000000000000000000000000000000000020000000000000000000800002000000000800000000010000000000000000000000000000000000000000000000000000000000000000000000000000000000000000000000000080000002000000000004000000000000000008000000002000000000000000000020000000000000000000000000000000020000000000000000000200000000000000000000000100000000000000000000000",
      "type": "0x2",
      "transactionHash": "0x9e9d4443329514274cc49f6df887cc050d6f7d5a9604abbea033738bff4bb918",
      "transactionIndex": "0xd",
      "blockHash": "0x126d20d10b27458821d33d00afaa5bd4c7aff1a7fd3d5148fbd528556c711d19",
      "blockNumber": "0x7506f3",
      "gasUsed": "0x2ccb8",
      "effectiveGasPrice": "0xfd",
      "from": "0xcda2fdb452ff4f5d7ba1c3d5dfcc9cb926a5eb7d",
      "to": "0x79dfbed14077b8f2421eece5707a17b161094e6a",
      "contractAddress": null,
      "l1BaseFeeScalar": "0x186a0",
      "l1BlobBaseFee": "0x1",
      "l1BlobBaseFeeScalar": "0x95506",
      "l1Fee": "0x95de944ffd",
      "l1GasPrice": "0xefca86e6",
      "l1GasUsed": "0x640"
    },
    {
      "status": "0x1",
      "cumulativeGasUsed": "0x2562ab",
      "logs": [
        {
          "address": "0x2e8af9c5922623058aa92a183b391e62cb6b2d12",
          "topics": [
            "0xddf252ad1be2c89b69c2b068fc378daa952ba7f163c4a11628f55a4df523b3ef",
            "0x0000000000000000000000000000000000000000000000000000000000000000",
            "0x000000000000000000000000cda2fdb452ff4f5d7ba1c3d5dfcc9cb926a5eb7d",
            "0x00000000000000000000000000000000000000000000000000000000000000f2"
          ],
          "data": "0x",
          "blockHash": "0x126d20d10b27458821d33d00afaa5bd4c7aff1a7fd3d5148fbd528556c711d19",
          "blockNumber": "0x7506f3",
          "transactionHash": "0xa4aed749ad0258b7a31278c3b0ba24c9e537cb6ba1311fa17b3f70c083d287aa",
          "transactionIndex": "0xe",
          "logIndex": "0x18",
          "removed": false
        },
        {
          "address": "0x2e8af9c5922623058aa92a183b391e62cb6b2d12",
          "topics": [
            "0xf8e1a15aba9398e019f0b49df1a4fde98ee17ae345cb5f6b5e2c27f5033e8ce7"
          ],
          "data": "0x00000000000000000000000000000000000000000000000000000000000000f2",
          "blockHash": "0x126d20d10b27458821d33d00afaa5bd4c7aff1a7fd3d5148fbd528556c711d19",
          "blockNumber": "0x7506f3",
          "transactionHash": "0xa4aed749ad0258b7a31278c3b0ba24c9e537cb6ba1311fa17b3f70c083d287aa",
          "transactionIndex": "0xe",
          "logIndex": "0x19",
          "removed": false
        }
      ],
      "logsBloom": "0x00000000000000000000000000000000000000020000000000000000000000000000000000000000000000000000000000000000000000000000000000000000000000000000000000000008040000000000000000000000000000000000000000000000020000000000000000000800002000000000800000000010000000000000000000800000000000000000000000000000000000000000000000000000100000000000000000000000000000002000000000004000000000000000008000000002000000000000000000000000000000000000000000000000000020000000000000000000200000000000008000000000100000000000000000000000",
      "type": "0x2",
      "transactionHash": "0xa4aed749ad0258b7a31278c3b0ba24c9e537cb6ba1311fa17b3f70c083d287aa",
      "transactionIndex": "0xe",
      "blockHash": "0x126d20d10b27458821d33d00afaa5bd4c7aff1a7fd3d5148fbd528556c711d19",
      "blockNumber": "0x7506f3",
      "gasUsed": "0x2ccb8",
      "effectiveGasPrice": "0xfd",
      "from": "0xcda2fdb452ff4f5d7ba1c3d5dfcc9cb926a5eb7d",
      "to": "0x79dfbed14077b8f2421eece5707a17b161094e6a",
      "contractAddress": null,
      "l1BaseFeeScalar": "0x186a0",
      "l1BlobBaseFee": "0x1",
      "l1BlobBaseFeeScalar": "0x95506",
      "l1Fee": "0x95de944ffd",
      "l1GasPrice": "0xefca86e6",
      "l1GasUsed": "0x640"
    },
    {
      "status": "0x1",
      "cumulativeGasUsed": "0x282f63",
      "logs": [
        {
          "address": "0x2e8af9c5922623058aa92a183b391e62cb6b2d12",
          "topics": [
            "0xddf252ad1be2c89b69c2b068fc378daa952ba7f163c4a11628f55a4df523b3ef",
            "0x0000000000000000000000000000000000000000000000000000000000000000",
            "0x000000000000000000000000cda2fdb452ff4f5d7ba1c3d5dfcc9cb926a5eb7d",
            "0x00000000000000000000000000000000000000000000000000000000000000f3"
          ],
          "data": "0x",
          "blockHash": "0x126d20d10b27458821d33d00afaa5bd4c7aff1a7fd3d5148fbd528556c711d19",
          "blockNumber": "0x7506f3",
          "transactionHash": "0x1f408745d0c8cfdf4f2b030d13ee23ed71a44233f2a2ebcb93904d180d29e99b",
          "transactionIndex": "0xf",
          "logIndex": "0x1a",
          "removed": false
        },
        {
          "address": "0x2e8af9c5922623058aa92a183b391e62cb6b2d12",
          "topics": [
            "0xf8e1a15aba9398e019f0b49df1a4fde98ee17ae345cb5f6b5e2c27f5033e8ce7"
          ],
          "data": "0x00000000000000000000000000000000000000000000000000000000000000f3",
          "blockHash": "0x126d20d10b27458821d33d00afaa5bd4c7aff1a7fd3d5148fbd528556c711d19",
          "blockNumber": "0x7506f3",
          "transactionHash": "0x1f408745d0c8cfdf4f2b030d13ee23ed71a44233f2a2ebcb93904d180d29e99b",
          "transactionIndex": "0xf",
          "logIndex": "0x1b",
          "removed": false
        }
      ],
      "logsBloom": "0x00000000000000000000000000000000000000020020000000000000000000000000000000000000000000000000000000000000000000000000000000000000000000000000000000000008040000000000000000000000000000000000000000000000020000000000000000000800002000000000800000000010000000000000000000000000000000000000000100000000000000000000000000000000000000000000000000000000000000002008000000004000000000000000008000000002000000000000000000000000000000000000000000000000000020000000000000000000200000000000000000000000100000000000000000000000",
      "type": "0x2",
      "transactionHash": "0x1f408745d0c8cfdf4f2b030d13ee23ed71a44233f2a2ebcb93904d180d29e99b",
      "transactionIndex": "0xf",
      "blockHash": "0x126d20d10b27458821d33d00afaa5bd4c7aff1a7fd3d5148fbd528556c711d19",
      "blockNumber": "0x7506f3",
      "gasUsed": "0x2ccb8",
      "effectiveGasPrice": "0xfd",
      "from": "0xcda2fdb452ff4f5d7ba1c3d5dfcc9cb926a5eb7d",
      "to": "0x79dfbed14077b8f2421eece5707a17b161094e6a",
      "contractAddress": null,
      "l1BaseFeeScalar": "0x186a0",
      "l1BlobBaseFee": "0x1",
      "l1BlobBaseFeeScalar": "0x95506",
      "l1Fee": "0x95de944ffd",
      "l1GasPrice": "0xefca86e6",
      "l1GasUsed": "0x640"
    },
    {
      "status": "0x1",
      "cumulativeGasUsed": "0x2afc1b",
      "logs": [
        {
          "address": "0x2e8af9c5922623058aa92a183b391e62cb6b2d12",
          "topics": [
            "0xddf252ad1be2c89b69c2b068fc378daa952ba7f163c4a11628f55a4df523b3ef",
            "0x0000000000000000000000000000000000000000000000000000000000000000",
            "0x000000000000000000000000cda2fdb452ff4f5d7ba1c3d5dfcc9cb926a5eb7d",
            "0x00000000000000000000000000000000000000000000000000000000000000f4"
          ],
          "data": "0x",
          "blockHash": "0x126d20d10b27458821d33d00afaa5bd4c7aff1a7fd3d5148fbd528556c711d19",
          "blockNumber": "0x7506f3",
          "transactionHash": "0x42b0dd0ae354b7069590e003962ede4f378e2ddd301fc4dfa44e3cf58b1f6271",
          "transactionIndex": "0x10",
          "logIndex": "0x1c",
          "removed": false
        },
        {
          "address": "0x2e8af9c5922623058aa92a183b391e62cb6b2d12",
          "topics": [
            "0xf8e1a15aba9398e019f0b49df1a4fde98ee17ae345cb5f6b5e2c27f5033e8ce7"
          ],
          "data": "0x00000000000000000000000000000000000000000000000000000000000000f4",
          "blockHash": "0x126d20d10b27458821d33d00afaa5bd4c7aff1a7fd3d5148fbd528556c711d19",
          "blockNumber": "0x7506f3",
          "transactionHash": "0x42b0dd0ae354b7069590e003962ede4f378e2ddd301fc4dfa44e3cf58b1f6271",
          "transactionIndex": "0x10",
          "logIndex": "0x1d",
          "removed": false
        }
      ],
      "logsBloom": "0x00000000000000000000000000000000000000020000008000000008000000000000000000000000000000000000000000000000000000000000000000000000000000000000000000000008040000000000000000000000000000000000000000000000020000000000000000000800002004000000800000000010000000000000000000000000000000000000000000000000000000000000000000000000000000000000000000000000000000002000000000004000000000000000008000000002000000000000000000000000000000000000000000000000000020000000000000000000200000000000000000000000100000000000000000000000",
      "type": "0x2",
      "transactionHash": "0x42b0dd0ae354b7069590e003962ede4f378e2ddd301fc4dfa44e3cf58b1f6271",
      "transactionIndex": "0x10",
      "blockHash": "0x126d20d10b27458821d33d00afaa5bd4c7aff1a7fd3d5148fbd528556c711d19",
      "blockNumber": "0x7506f3",
      "gasUsed": "0x2ccb8",
      "effectiveGasPrice": "0xfd",
      "from": "0xcda2fdb452ff4f5d7ba1c3d5dfcc9cb926a5eb7d",
      "to": "0x79dfbed14077b8f2421eece5707a17b161094e6a",
      "contractAddress": null,
      "l1BaseFeeScalar": "0x186a0",
      "l1BlobBaseFee": "0x1",
      "l1BlobBaseFeeScalar": "0x95506",
      "l1Fee": "0x95de944ffd",
      "l1GasPrice": "0xefca86e6",
      "l1GasUsed": "0x640"
    },
    {
      "status": "0x1",
      "cumulativeGasUsed": "0x2dc8d3",
      "logs": [
        {
          "address": "0x2e8af9c5922623058aa92a183b391e62cb6b2d12",
          "topics": [
            "0xddf252ad1be2c89b69c2b068fc378daa952ba7f163c4a11628f55a4df523b3ef",
            "0x0000000000000000000000000000000000000000000000000000000000000000",
            "0x000000000000000000000000cda2fdb452ff4f5d7ba1c3d5dfcc9cb926a5eb7d",
            "0x00000000000000000000000000000000000000000000000000000000000000f5"
          ],
          "data": "0x",
          "blockHash": "0x126d20d10b27458821d33d00afaa5bd4c7aff1a7fd3d5148fbd528556c711d19",
          "blockNumber": "0x7506f3",
          "transactionHash": "0x3565db41dcef4a453b6a11014fad4ebe26b7553bee06239cedc6d4283099e563",
          "transactionIndex": "0x11",
          "logIndex": "0x1e",
          "removed": false
        },
        {
          "address": "0x2e8af9c5922623058aa92a183b391e62cb6b2d12",
          "topics": [
            "0xf8e1a15aba9398e019f0b49df1a4fde98ee17ae345cb5f6b5e2c27f5033e8ce7"
          ],
          "data": "0x00000000000000000000000000000000000000000000000000000000000000f5",
          "blockHash": "0x126d20d10b27458821d33d00afaa5bd4c7aff1a7fd3d5148fbd528556c711d19",
          "blockNumber": "0x7506f3",
          "transactionHash": "0x3565db41dcef4a453b6a11014fad4ebe26b7553bee06239cedc6d4283099e563",
          "transactionIndex": "0x11",
          "logIndex": "0x1f",
          "removed": false
        }
      ],
      "logsBloom": "0x00000000000000000001000000000000000000020000000000000000000000000000000000000000000000000000000000000000001000000000000000000000000000000000000000000008040000000000000000000000000000000000000000000000020000000000000000000800002000000000800000000010000000000000000000000000000000000000000000000000000000000000000000000000000000000000000000000000000000002000000000004000000000000000008000000002000000000000000000000000000000080000000000000000000020000000000000000000200000000000000000000000100000000000000000000000",
      "type": "0x2",
      "transactionHash": "0x3565db41dcef4a453b6a11014fad4ebe26b7553bee06239cedc6d4283099e563",
      "transactionIndex": "0x11",
      "blockHash": "0x126d20d10b27458821d33d00afaa5bd4c7aff1a7fd3d5148fbd528556c711d19",
      "blockNumber": "0x7506f3",
      "gasUsed": "0x2ccb8",
      "effectiveGasPrice": "0xfd",
      "from": "0xcda2fdb452ff4f5d7ba1c3d5dfcc9cb926a5eb7d",
      "to": "0x79dfbed14077b8f2421eece5707a17b161094e6a",
      "contractAddress": null,
      "l1BaseFeeScalar": "0x186a0",
      "l1BlobBaseFee": "0x1",
      "l1BlobBaseFeeScalar": "0x95506",
      "l1Fee": "0x95de944ffd",
      "l1GasPrice": "0xefca86e6",
      "l1GasUsed": "0x640"
    },
    {
      "status": "0x1",
      "cumulativeGasUsed": "0x30958b",
      "logs": [
        {
          "address": "0x2e8af9c5922623058aa92a183b391e62cb6b2d12",
          "topics": [
            "0xddf252ad1be2c89b69c2b068fc378daa952ba7f163c4a11628f55a4df523b3ef",
            "0x0000000000000000000000000000000000000000000000000000000000000000",
            "0x000000000000000000000000cda2fdb452ff4f5d7ba1c3d5dfcc9cb926a5eb7d",
            "0x00000000000000000000000000000000000000000000000000000000000000f6"
          ],
          "data": "0x",
          "blockHash": "0x126d20d10b27458821d33d00afaa5bd4c7aff1a7fd3d5148fbd528556c711d19",
          "blockNumber": "0x7506f3",
          "transactionHash": "0x33c26022843b8d625ad1a5f72a725173e1b3d5d3c3d7e12a54ffbe153875d77e",
          "transactionIndex": "0x12",
          "logIndex": "0x20",
          "removed": false
        },
        {
          "address": "0x2e8af9c5922623058aa92a183b391e62cb6b2d12",
          "topics": [
            "0xf8e1a15aba9398e019f0b49df1a4fde98ee17ae345cb5f6b5e2c27f5033e8ce7"
          ],
          "data": "0x00000000000000000000000000000000000000000000000000000000000000f6",
          "blockHash": "0x126d20d10b27458821d33d00afaa5bd4c7aff1a7fd3d5148fbd528556c711d19",
          "blockNumber": "0x7506f3",
          "transactionHash": "0x33c26022843b8d625ad1a5f72a725173e1b3d5d3c3d7e12a54ffbe153875d77e",
          "transactionIndex": "0x12",
          "logIndex": "0x21",
          "removed": false
        }
      ],
      "logsBloom": "0x00000000000000000000000000000800000000020000000000000000000000000000000000000000000000000000000000000000000000000000000000000000008000000000000000000008040000000000000000000000000000000000000004000000020000000000000000000800002000000000800000000010000000000000000000000000000000000000000000000000000000000000000000000000000000000000000000000000000000002000000000004000000000000000008000000002000000000000000000000000000000000000000000000000000020000000000000000000200000000000000000000000100000000000000000000000",
      "type": "0x2",
      "transactionHash": "0x33c26022843b8d625ad1a5f72a725173e1b3d5d3c3d7e12a54ffbe153875d77e",
      "transactionIndex": "0x12",
      "blockHash": "0x126d20d10b27458821d33d00afaa5bd4c7aff1a7fd3d5148fbd528556c711d19",
      "blockNumber": "0x7506f3",
      "gasUsed": "0x2ccb8",
      "effectiveGasPrice": "0xfd",
      "from": "0xcda2fdb452ff4f5d7ba1c3d5dfcc9cb926a5eb7d",
      "to": "0x79dfbed14077b8f2421eece5707a17b161094e6a",
      "contractAddress": null,
      "l1BaseFeeScalar": "0x186a0",
      "l1BlobBaseFee": "0x1",
      "l1BlobBaseFeeScalar": "0x95506",
      "l1Fee": "0x95de944ffd",
      "l1GasPrice": "0xefca86e6",
      "l1GasUsed": "0x640"
    },
    {
      "status": "0x1",
      "cumulativeGasUsed": "0x336243",
      "logs": [
        {
          "address": "0x2e8af9c5922623058aa92a183b391e62cb6b2d12",
          "topics": [
            "0xddf252ad1be2c89b69c2b068fc378daa952ba7f163c4a11628f55a4df523b3ef",
            "0x0000000000000000000000000000000000000000000000000000000000000000",
            "0x000000000000000000000000cda2fdb452ff4f5d7ba1c3d5dfcc9cb926a5eb7d",
            "0x00000000000000000000000000000000000000000000000000000000000000f7"
          ],
          "data": "0x",
          "blockHash": "0x126d20d10b27458821d33d00afaa5bd4c7aff1a7fd3d5148fbd528556c711d19",
          "blockNumber": "0x7506f3",
          "transactionHash": "0xc60e0ac33e121765d37ca215fcd80f0cb706cee01617b9d710d627b361a7033e",
          "transactionIndex": "0x13",
          "logIndex": "0x22",
          "removed": false
        },
        {
          "address": "0x2e8af9c5922623058aa92a183b391e62cb6b2d12",
          "topics": [
            "0xf8e1a15aba9398e019f0b49df1a4fde98ee17ae345cb5f6b5e2c27f5033e8ce7"
          ],
          "data": "0x00000000000000000000000000000000000000000000000000000000000000f7",
          "blockHash": "0x126d20d10b27458821d33d00afaa5bd4c7aff1a7fd3d5148fbd528556c711d19",
          "blockNumber": "0x7506f3",
          "transactionHash": "0xc60e0ac33e121765d37ca215fcd80f0cb706cee01617b9d710d627b361a7033e",
          "transactionIndex": "0x13",
          "logIndex": "0x23",
          "removed": false
        }
      ],
      "logsBloom": "0x00000000000000000000000000000000000000020000000000000000000000000000002000000000400000000000000000000000000000000000000000000000000000000000000000000008040000000000000000000000000000000000000000000000020000000000000000000800002000000000800000000010000000000000000000000000000000000000000000000000000000000000000000000000000000000000000000000000000000002000000000004000000000000000008000000002000000000000000000100000000000000000000000000000000020000000000000000000200000000000000000000000100000000000000000000000",
      "type": "0x2",
      "transactionHash": "0xc60e0ac33e121765d37ca215fcd80f0cb706cee01617b9d710d627b361a7033e",
      "transactionIndex": "0x13",
      "blockHash": "0x126d20d10b27458821d33d00afaa5bd4c7aff1a7fd3d5148fbd528556c711d19",
      "blockNumber": "0x7506f3",
      "gasUsed": "0x2ccb8",
      "effectiveGasPrice": "0xfd",
      "from": "0xcda2fdb452ff4f5d7ba1c3d5dfcc9cb926a5eb7d",
      "to": "0x79dfbed14077b8f2421eece5707a17b161094e6a",
      "contractAddress": null,
      "l1BaseFeeScalar": "0x186a0",
      "l1BlobBaseFee": "0x1",
      "l1BlobBaseFeeScalar": "0x95506",
      "l1Fee": "0x95de944ffd",
      "l1GasPrice": "0xefca86e6",
      "l1GasUsed": "0x640"
    },
    {
      "status": "0x1",
      "cumulativeGasUsed": "0x362efb",
      "logs": [
        {
          "address": "0x2e8af9c5922623058aa92a183b391e62cb6b2d12",
          "topics": [
            "0xddf252ad1be2c89b69c2b068fc378daa952ba7f163c4a11628f55a4df523b3ef",
            "0x0000000000000000000000000000000000000000000000000000000000000000",
            "0x000000000000000000000000cda2fdb452ff4f5d7ba1c3d5dfcc9cb926a5eb7d",
            "0x00000000000000000000000000000000000000000000000000000000000000f8"
          ],
          "data": "0x",
          "blockHash": "0x126d20d10b27458821d33d00afaa5bd4c7aff1a7fd3d5148fbd528556c711d19",
          "blockNumber": "0x7506f3",
          "transactionHash": "0x65e7f0a6c93ab722d0338824ce31d9110d78aa804197f5d7f14277ba2d735e8c",
          "transactionIndex": "0x14",
          "logIndex": "0x24",
          "removed": false
        },
        {
          "address": "0x2e8af9c5922623058aa92a183b391e62cb6b2d12",
          "topics": [
            "0xf8e1a15aba9398e019f0b49df1a4fde98ee17ae345cb5f6b5e2c27f5033e8ce7"
          ],
          "data": "0x00000000000000000000000000000000000000000000000000000000000000f8",
          "blockHash": "0x126d20d10b27458821d33d00afaa5bd4c7aff1a7fd3d5148fbd528556c711d19",
          "blockNumber": "0x7506f3",
          "transactionHash": "0x65e7f0a6c93ab722d0338824ce31d9110d78aa804197f5d7f14277ba2d735e8c",
          "transactionIndex": "0x14",
          "logIndex": "0x25",
          "removed": false
        }
      ],
      "logsBloom": "0x00000000000000000000000000000000000000020000000000000000000000000000000000000000000000000000000000000000000000000000000000000000000000000000000000000008040000000000000000000000000000000000000000000000020000000000000000000800002000000000800000000010000000000000000000000000000000000000000000000000000000000000000000000000000000000000000000000000000000002000000000004000000000000000008000000002000000000000000000000000000000000000000000000009000020000000000000000000200000000000000000000000100000000000800000000000",
      "type": "0x2",
      "transactionHash": "0x65e7f0a6c93ab722d0338824ce31d9110d78aa804197f5d7f14277ba2d735e8c",
      "transactionIndex": "0x14",
      "blockHash": "0x126d20d10b27458821d33d00afaa5bd4c7aff1a7fd3d5148fbd528556c711d19",
      "blockNumber": "0x7506f3",
      "gasUsed": "0x2ccb8",
      "effectiveGasPrice": "0xfd",
      "from": "0xcda2fdb452ff4f5d7ba1c3d5dfcc9cb926a5eb7d",
      "to": "0x79dfbed14077b8f2421eece5707a17b161094e6a",
      "contractAddress": null,
      "l1BaseFeeScalar": "0x186a0",
      "l1BlobBaseFee": "0x1",
      "l1BlobBaseFeeScalar": "0x95506",
      "l1Fee": "0x95de944ffd",
      "l1GasPrice": "0xefca86e6",
      "l1GasUsed": "0x640"
    },
    {
      "status": "0x1",
      "cumulativeGasUsed": "0x38fbb3",
      "logs": [
        {
          "address": "0x2e8af9c5922623058aa92a183b391e62cb6b2d12",
          "topics": [
            "0xddf252ad1be2c89b69c2b068fc378daa952ba7f163c4a11628f55a4df523b3ef",
            "0x0000000000000000000000000000000000000000000000000000000000000000",
            "0x000000000000000000000000cda2fdb452ff4f5d7ba1c3d5dfcc9cb926a5eb7d",
            "0x00000000000000000000000000000000000000000000000000000000000000f9"
          ],
          "data": "0x",
          "blockHash": "0x126d20d10b27458821d33d00afaa5bd4c7aff1a7fd3d5148fbd528556c711d19",
          "blockNumber": "0x7506f3",
          "transactionHash": "0x9ff91cd7052635932e798fadc5d256b4f46ef8794dd52cb00876dc7c75ff0450",
          "transactionIndex": "0x15",
          "logIndex": "0x26",
          "removed": false
        },
        {
          "address": "0x2e8af9c5922623058aa92a183b391e62cb6b2d12",
          "topics": [
            "0xf8e1a15aba9398e019f0b49df1a4fde98ee17ae345cb5f6b5e2c27f5033e8ce7"
          ],
          "data": "0x00000000000000000000000000000000000000000000000000000000000000f9",
          "blockHash": "0x126d20d10b27458821d33d00afaa5bd4c7aff1a7fd3d5148fbd528556c711d19",
          "blockNumber": "0x7506f3",
          "transactionHash": "0x9ff91cd7052635932e798fadc5d256b4f46ef8794dd52cb00876dc7c75ff0450",
          "transactionIndex": "0x15",
          "logIndex": "0x27",
          "removed": false
        }
      ],
      "logsBloom": "0x00000000000000000000000000000000000000020000000000000000000000000000000000000000000000000000100000000000000000000000000000000000000000000000000000000008040000000000000000000000000000000000000000000000020000000000000000000800002000000000800000000010000000000000000000000000000000000000000000000000000000000000000000000000000000000000000000000000000000002000000000004000000000000000008000000002000000000000000000000000000000400000000000000800000020000000000000000000200000000000000000000000100000000000000000000000",
      "type": "0x2",
      "transactionHash": "0x9ff91cd7052635932e798fadc5d256b4f46ef8794dd52cb00876dc7c75ff0450",
      "transactionIndex": "0x15",
      "blockHash": "0x126d20d10b27458821d33d00afaa5bd4c7aff1a7fd3d5148fbd528556c711d19",
      "blockNumber": "0x7506f3",
      "gasUsed": "0x2ccb8",
      "effectiveGasPrice": "0xfd",
      "from": "0xcda2fdb452ff4f5d7ba1c3d5dfcc9cb926a5eb7d",
      "to": "0x79dfbed14077b8f2421eece5707a17b161094e6a",
      "contractAddress": null,
      "l1BaseFeeScalar": "0x186a0",
      "l1BlobBaseFee": "0x1",
      "l1BlobBaseFeeScalar": "0x95506",
      "l1Fee": "0x95de944ffd",
      "l1GasPrice": "0xefca86e6",
      "l1GasUsed": "0x640"
    },
    {
      "status": "0x1",
      "cumulativeGasUsed": "0x3bc86b",
      "logs": [
        {
          "address": "0x2e8af9c5922623058aa92a183b391e62cb6b2d12",
          "topics": [
            "0xddf252ad1be2c89b69c2b068fc378daa952ba7f163c4a11628f55a4df523b3ef",
            "0x0000000000000000000000000000000000000000000000000000000000000000",
            "0x000000000000000000000000cda2fdb452ff4f5d7ba1c3d5dfcc9cb926a5eb7d",
            "0x00000000000000000000000000000000000000000000000000000000000000fa"
          ],
          "data": "0x",
          "blockHash": "0x126d20d10b27458821d33d00afaa5bd4c7aff1a7fd3d5148fbd528556c711d19",
          "blockNumber": "0x7506f3",
          "transactionHash": "0x0fc7cba15fab21823ea410c784d57c51a9dd6020df84f48d6488ef0728c83a20",
          "transactionIndex": "0x16",
          "logIndex": "0x28",
          "removed": false
        },
        {
          "address": "0x2e8af9c5922623058aa92a183b391e62cb6b2d12",
          "topics": [
            "0xf8e1a15aba9398e019f0b49df1a4fde98ee17ae345cb5f6b5e2c27f5033e8ce7"
          ],
          "data": "0x00000000000000000000000000000000000000000000000000000000000000fa",
          "blockHash": "0x126d20d10b27458821d33d00afaa5bd4c7aff1a7fd3d5148fbd528556c711d19",
          "blockNumber": "0x7506f3",
          "transactionHash": "0x0fc7cba15fab21823ea410c784d57c51a9dd6020df84f48d6488ef0728c83a20",
          "transactionIndex": "0x16",
          "logIndex": "0x29",
          "removed": false
        }
      ],
      "logsBloom": "0x00080000000000000000008000000000000000020000000000000000000000000000000000000000000000000000000000000000000000000000000000000000000000000000000000000008040000000000000000000000000000000000000000000000020000000000000000000800002000000000800000000010000000000000000000000000000000000000000000000000000000000000000000000000000000000000000000000000000000002000000000004000000000000000008000000002000000000000000000000000000000000000000000000000000020000000000000000000200000000000000000000000100080000000000000000000",
      "type": "0x2",
      "transactionHash": "0x0fc7cba15fab21823ea410c784d57c51a9dd6020df84f48d6488ef0728c83a20",
      "transactionIndex": "0x16",
      "blockHash": "0x126d20d10b27458821d33d00afaa5bd4c7aff1a7fd3d5148fbd528556c711d19",
      "blockNumber": "0x7506f3",
      "gasUsed": "0x2ccb8",
      "effectiveGasPrice": "0xfd",
      "from": "0xcda2fdb452ff4f5d7ba1c3d5dfcc9cb926a5eb7d",
      "to": "0x79dfbed14077b8f2421eece5707a17b161094e6a",
      "contractAddress": null,
      "l1BaseFeeScalar": "0x186a0",
      "l1BlobBaseFee": "0x1",
      "l1BlobBaseFeeScalar": "0x95506",
      "l1Fee": "0x95de944ffd",
      "l1GasPrice": "0xefca86e6",
      "l1GasUsed": "0x640"
    },
    {
      "status": "0x1",
      "cumulativeGasUsed": "0x3e9523",
      "logs": [
        {
          "address": "0x2e8af9c5922623058aa92a183b391e62cb6b2d12",
          "topics": [
            "0xddf252ad1be2c89b69c2b068fc378daa952ba7f163c4a11628f55a4df523b3ef",
            "0x0000000000000000000000000000000000000000000000000000000000000000",
            "0x000000000000000000000000cda2fdb452ff4f5d7ba1c3d5dfcc9cb926a5eb7d",
            "0x00000000000000000000000000000000000000000000000000000000000000fb"
          ],
          "data": "0x",
          "blockHash": "0x126d20d10b27458821d33d00afaa5bd4c7aff1a7fd3d5148fbd528556c711d19",
          "blockNumber": "0x7506f3",
          "transactionHash": "0xbedc831946443d1aab7a7ee111711e9be88f099b4cbac3db1e0a92999fdf7a70",
          "transactionIndex": "0x17",
          "logIndex": "0x2a",
          "removed": false
        },
        {
          "address": "0x2e8af9c5922623058aa92a183b391e62cb6b2d12",
          "topics": [
            "0xf8e1a15aba9398e019f0b49df1a4fde98ee17ae345cb5f6b5e2c27f5033e8ce7"
          ],
          "data": "0x00000000000000000000000000000000000000000000000000000000000000fb",
          "blockHash": "0x126d20d10b27458821d33d00afaa5bd4c7aff1a7fd3d5148fbd528556c711d19",
          "blockNumber": "0x7506f3",
          "transactionHash": "0xbedc831946443d1aab7a7ee111711e9be88f099b4cbac3db1e0a92999fdf7a70",
          "transactionIndex": "0x17",
          "logIndex": "0x2b",
          "removed": false
        }
      ],
      "logsBloom": "0x00000000000000000080000000000000000000020000000000000800000000000000000000000000000000000000000000040000000000000000000000000000000000000000000000000008040000000000000000000000000000000000000000000000020000000000000000000800002000000000800000000010000000000000000000000000000000000000000000000000000000000000000000000000000000000000000000000000000000002000000000004000000000000000008000000002000000000000000000000000000000000000000000000000000020000000000000000000200000000000000000000000100000000000000000000000",
      "type": "0x2",
      "transactionHash": "0xbedc831946443d1aab7a7ee111711e9be88f099b4cbac3db1e0a92999fdf7a70",
      "transactionIndex": "0x17",
      "blockHash": "0x126d20d10b27458821d33d00afaa5bd4c7aff1a7fd3d5148fbd528556c711d19",
      "blockNumber": "0x7506f3",
      "gasUsed": "0x2ccb8",
      "effectiveGasPrice": "0xfd",
      "from": "0xcda2fdb452ff4f5d7ba1c3d5dfcc9cb926a5eb7d",
      "to": "0x79dfbed14077b8f2421eece5707a17b161094e6a",
      "contractAddress": null,
      "l1BaseFeeScalar": "0x186a0",
      "l1BlobBaseFee": "0x1",
      "l1BlobBaseFeeScalar": "0x95506",
      "l1Fee": "0x95de944ffd",
      "l1GasPrice": "0xefca86e6",
      "l1GasUsed": "0x640"
    },
    {
      "status": "0x1",
      "cumulativeGasUsed": "0x7d462",
      "logs": [
        {
          "address": "0x2e8af9c5922623058aa92a183b391e62cb6b2d12",
          "topics": [
            "0xddf252ad1be2c89b69c2b068fc378daa952ba7f163c4a11628f55a4df523b3ef",
            "0x0000000000000000000000000000000000000000000000000000000000000000",
            "0x000000000000000000000000cda2fdb452ff4f5d7ba1c3d5dfcc9cb926a5eb7d",
            "0x00000000000000000000000000000000000000000000000000000000000000fc"
          ],
          "data": "0x",
          "blockHash": "0x1c102787de7096055e25546399c13b4cc9c4132bd249e166fe83aadc3795c31e",
          "blockNumber": "0x7506f4",
          "transactionHash": "0x8373ab1f398d36b734f6d13baf5b03b2bdd372c59e0da18ad6bf43cb04db41f8",
          "transactionIndex": "0x3",
          "logIndex": "0x5",
          "removed": false
        },
        {
          "address": "0x2e8af9c5922623058aa92a183b391e62cb6b2d12",
          "topics": [
            "0xf8e1a15aba9398e019f0b49df1a4fde98ee17ae345cb5f6b5e2c27f5033e8ce7"
          ],
          "data": "0x00000000000000000000000000000000000000000000000000000000000000fc",
          "blockHash": "0x1c102787de7096055e25546399c13b4cc9c4132bd249e166fe83aadc3795c31e",
          "blockNumber": "0x7506f4",
          "transactionHash": "0x8373ab1f398d36b734f6d13baf5b03b2bdd372c59e0da18ad6bf43cb04db41f8",
          "transactionIndex": "0x3",
          "logIndex": "0x6",
          "removed": false
        }
      ],
      "logsBloom": "0x00000000000000000000000000000000000000020000000000000000800000000000000000000000000000000000008000000000000000000000000000000000000000000000000000000008040000000000000000000000000000000100000000000000020000000000000000000800002000000000800000000010000000000000000000000000000000000000000000000000000000000000000000000000000000000000000000000000000000002000000000004000000000000000008000000002000000000000000000000000000000000000000000000000000020000000000000000000200000000000000000000000100000000000000000000000",
      "type": "0x2",
      "transactionHash": "0x8373ab1f398d36b734f6d13baf5b03b2bdd372c59e0da18ad6bf43cb04db41f8",
      "transactionIndex": "0x3",
      "blockHash": "0x1c102787de7096055e25546399c13b4cc9c4132bd249e166fe83aadc3795c31e",
      "blockNumber": "0x7506f4",
      "gasUsed": "0x2ccb8",
      "effectiveGasPrice": "0xfd",
      "from": "0xcda2fdb452ff4f5d7ba1c3d5dfcc9cb926a5eb7d",
      "to": "0x79dfbed14077b8f2421eece5707a17b161094e6a",
      "contractAddress": null,
      "l1BaseFeeScalar": "0x186a0",
      "l1BlobBaseFee": "0x1",
      "l1BlobBaseFeeScalar": "0x95506",
      "l1Fee": "0x8b71da693d",
      "l1GasPrice": "0xdf1c90a8",
      "l1GasUsed": "0x640"
    },
    {
      "status": "0x1",
      "cumulativeGasUsed": "0xaa11a",
      "logs": [
        {
          "address": "0x2e8af9c5922623058aa92a183b391e62cb6b2d12",
          "topics": [
            "0xddf252ad1be2c89b69c2b068fc378daa952ba7f163c4a11628f55a4df523b3ef",
            "0x0000000000000000000000000000000000000000000000000000000000000000",
            "0x000000000000000000000000cda2fdb452ff4f5d7ba1c3d5dfcc9cb926a5eb7d",
            "0x00000000000000000000000000000000000000000000000000000000000000fd"
          ],
          "data": "0x",
          "blockHash": "0x1c102787de7096055e25546399c13b4cc9c4132bd249e166fe83aadc3795c31e",
          "blockNumber": "0x7506f4",
          "transactionHash": "0x173b46249ae715fb1d4ade303c4850ee0dd90bd7160b861df999628555339df1",
          "transactionIndex": "0x4",
          "logIndex": "0x7",
          "removed": false
        },
        {
          "address": "0x2e8af9c5922623058aa92a183b391e62cb6b2d12",
          "topics": [
            "0xf8e1a15aba9398e019f0b49df1a4fde98ee17ae345cb5f6b5e2c27f5033e8ce7"
          ],
          "data": "0x00000000000000000000000000000000000000000000000000000000000000fd",
          "blockHash": "0x1c102787de7096055e25546399c13b4cc9c4132bd249e166fe83aadc3795c31e",
          "blockNumber": "0x7506f4",
          "transactionHash": "0x173b46249ae715fb1d4ade303c4850ee0dd90bd7160b861df999628555339df1",
          "transactionIndex": "0x4",
          "logIndex": "0x8",
          "removed": false
        }
      ],
      "logsBloom": "0x00000000400000000000000000000000000000020000000000000000000000000000000000000000000000000000000000000000000000000000000000000000000000000000000000000008040000000000000000000000000000000000000000000000020000000000000000000800002020000000800000000010000000000000000000000000000000000000000000000000000000400000000000000000000000000000000000000000000000002000000000004000000000000000008000000002000000000000000000000000000000000000000000000000000020000000000000000000200000000000000000000000100000000000000000000000",
      "type": "0x2",
      "transactionHash": "0x173b46249ae715fb1d4ade303c4850ee0dd90bd7160b861df999628555339df1",
      "transactionIndex": "0x4",
      "blockHash": "0x1c102787de7096055e25546399c13b4cc9c4132bd249e166fe83aadc3795c31e",
      "blockNumber": "0x7506f4",
      "gasUsed": "0x2ccb8",
      "effectiveGasPrice": "0xfd",
      "from": "0xcda2fdb452ff4f5d7ba1c3d5dfcc9cb926a5eb7d",
      "to": "0x79dfbed14077b8f2421eece5707a17b161094e6a",
      "contractAddress": null,
      "l1BaseFeeScalar": "0x186a0",
      "l1BlobBaseFee": "0x1",
      "l1BlobBaseFeeScalar": "0x95506",
      "l1Fee": "0x8b71da693d",
      "l1GasPrice": "0xdf1c90a8",
      "l1GasUsed": "0x640"
    },
    {
      "status": "0x1",
      "cumulativeGasUsed": "0xd6dd2",
      "logs": [
        {
          "address": "0x2e8af9c5922623058aa92a183b391e62cb6b2d12",
          "topics": [
            "0xddf252ad1be2c89b69c2b068fc378daa952ba7f163c4a11628f55a4df523b3ef",
            "0x0000000000000000000000000000000000000000000000000000000000000000",
            "0x000000000000000000000000cda2fdb452ff4f5d7ba1c3d5dfcc9cb926a5eb7d",
            "0x00000000000000000000000000000000000000000000000000000000000000fe"
          ],
          "data": "0x",
          "blockHash": "0x1c102787de7096055e25546399c13b4cc9c4132bd249e166fe83aadc3795c31e",
          "blockNumber": "0x7506f4",
          "transactionHash": "0xd71654d9317f5438e474be34fbf555b00b47f2567fe8173caf163fe932b0fa65",
          "transactionIndex": "0x5",
          "logIndex": "0x9",
          "removed": false
        },
        {
          "address": "0x2e8af9c5922623058aa92a183b391e62cb6b2d12",
          "topics": [
            "0xf8e1a15aba9398e019f0b49df1a4fde98ee17ae345cb5f6b5e2c27f5033e8ce7"
          ],
          "data": "0x00000000000000000000000000000000000000000000000000000000000000fe",
          "blockHash": "0x1c102787de7096055e25546399c13b4cc9c4132bd249e166fe83aadc3795c31e",
          "blockNumber": "0x7506f4",
          "transactionHash": "0xd71654d9317f5438e474be34fbf555b00b47f2567fe8173caf163fe932b0fa65",
          "transactionIndex": "0x5",
          "logIndex": "0xa",
          "removed": false
        }
      ],
      "logsBloom": "0x00000000000000000000000000000000000000020000000000000000000000000000000000000002000000000000000000000000000000000000000000000000010000000000000000000008040000000000000000000000000000000000000000000000020000000000000000000800002000000000800000000010000000800000000000000000000000000000000000000000000000000000000000000000000000000000000000000000000000002000000000004000000000000000008000000002000000000000000000000000000000000000000000000000000020000000000000000000200000000000000000000000100000000000000000000000",
      "type": "0x2",
      "transactionHash": "0xd71654d9317f5438e474be34fbf555b00b47f2567fe8173caf163fe932b0fa65",
      "transactionIndex": "0x5",
      "blockHash": "0x1c102787de7096055e25546399c13b4cc9c4132bd249e166fe83aadc3795c31e",
      "blockNumber": "0x7506f4",
      "gasUsed": "0x2ccb8",
      "effectiveGasPrice": "0xfd",
      "from": "0xcda2fdb452ff4f5d7ba1c3d5dfcc9cb926a5eb7d",
      "to": "0x79dfbed14077b8f2421eece5707a17b161094e6a",
      "contractAddress": null,
      "l1BaseFeeScalar": "0x186a0",
      "l1BlobBaseFee": "0x1",
      "l1BlobBaseFeeScalar": "0x95506",
      "l1Fee": "0x8b71da693d",
      "l1GasPrice": "0xdf1c90a8",
      "l1GasUsed": "0x640"
    },
    {
      "status": "0x1",
      "cumulativeGasUsed": "0x103a8a",
      "logs": [
        {
          "address": "0x2e8af9c5922623058aa92a183b391e62cb6b2d12",
          "topics": [
            "0xddf252ad1be2c89b69c2b068fc378daa952ba7f163c4a11628f55a4df523b3ef",
            "0x0000000000000000000000000000000000000000000000000000000000000000",
            "0x000000000000000000000000cda2fdb452ff4f5d7ba1c3d5dfcc9cb926a5eb7d",
            "0x00000000000000000000000000000000000000000000000000000000000000ff"
          ],
          "data": "0x",
          "blockHash": "0x1c102787de7096055e25546399c13b4cc9c4132bd249e166fe83aadc3795c31e",
          "blockNumber": "0x7506f4",
          "transactionHash": "0x86f17b8bf9278232e90800a81b447434ccf782e6eeb1b4142e1d7a4310c04572",
          "transactionIndex": "0x6",
          "logIndex": "0xb",
          "removed": false
        },
        {
          "address": "0x2e8af9c5922623058aa92a183b391e62cb6b2d12",
          "topics": [
            "0xf8e1a15aba9398e019f0b49df1a4fde98ee17ae345cb5f6b5e2c27f5033e8ce7"
          ],
          "data": "0x00000000000000000000000000000000000000000000000000000000000000ff",
          "blockHash": "0x1c102787de7096055e25546399c13b4cc9c4132bd249e166fe83aadc3795c31e",
          "blockNumber": "0x7506f4",
          "transactionHash": "0x86f17b8bf9278232e90800a81b447434ccf782e6eeb1b4142e1d7a4310c04572",
          "transactionIndex": "0x6",
          "logIndex": "0xc",
          "removed": false
        }
      ],
      "logsBloom": "0x00000000000000000000000000000000000000020000000000000000000000000000000000000000000000000000000000000000000000000000000000000000000000000000000000000008040000000000000000000000000000000000000010000000020000000000000000000800002000000000800000000010000000000000000000000000000000000000000000000000000000000000000000000000000000000000000000008000000000002000000000004000000000000000008000000002000000000000000000000000000000000000000000000000000020000000000000000000200000000000400000000000100000000000000000000000",
      "type": "0x2",
      "transactionHash": "0x86f17b8bf9278232e90800a81b447434ccf782e6eeb1b4142e1d7a4310c04572",
      "transactionIndex": "0x6",
      "blockHash": "0x1c102787de7096055e25546399c13b4cc9c4132bd249e166fe83aadc3795c31e",
      "blockNumber": "0x7506f4",
      "gasUsed": "0x2ccb8",
      "effectiveGasPrice": "0xfd",
      "from": "0xcda2fdb452ff4f5d7ba1c3d5dfcc9cb926a5eb7d",
      "to": "0x79dfbed14077b8f2421eece5707a17b161094e6a",
      "contractAddress": null,
      "l1BaseFeeScalar": "0x186a0",
      "l1BlobBaseFee": "0x1",
      "l1BlobBaseFeeScalar": "0x95506",
      "l1Fee": "0x8b71da693d",
      "l1GasPrice": "0xdf1c90a8",
      "l1GasUsed": "0x640"
    },
    {
      "status": "0x1",
      "cumulativeGasUsed": "0x130742",
      "logs": [
        {
          "address": "0x2e8af9c5922623058aa92a183b391e62cb6b2d12",
          "topics": [
            "0xddf252ad1be2c89b69c2b068fc378daa952ba7f163c4a11628f55a4df523b3ef",
            "0x0000000000000000000000000000000000000000000000000000000000000000",
            "0x000000000000000000000000cda2fdb452ff4f5d7ba1c3d5dfcc9cb926a5eb7d",
            "0x0000000000000000000000000000000000000000000000000000000000000100"
          ],
          "data": "0x",
          "blockHash": "0x1c102787de7096055e25546399c13b4cc9c4132bd249e166fe83aadc3795c31e",
          "blockNumber": "0x7506f4",
          "transactionHash": "0x45c4ae462cedcc80568df2ec4594e041e1240db645f7e6731e8a3a9db1c2f5ad",
          "transactionIndex": "0x7",
          "logIndex": "0xd",
          "removed": false
        },
        {
          "address": "0x2e8af9c5922623058aa92a183b391e62cb6b2d12",
          "topics": [
            "0xf8e1a15aba9398e019f0b49df1a4fde98ee17ae345cb5f6b5e2c27f5033e8ce7"
          ],
          "data": "0x0000000000000000000000000000000000000000000000000000000000000100",
          "blockHash": "0x1c102787de7096055e25546399c13b4cc9c4132bd249e166fe83aadc3795c31e",
          "blockNumber": "0x7506f4",
          "transactionHash": "0x45c4ae462cedcc80568df2ec4594e041e1240db645f7e6731e8a3a9db1c2f5ad",
          "transactionIndex": "0x7",
          "logIndex": "0xe",
          "removed": false
        }
      ],
      "logsBloom": "0x00000000000000000000000000000000000000020000000000000000000000000000000000000000000000000000000000000000000000010000000000000000000000010000000000000008040000000000000000000000000000000000000000000000020000000000000000000800002000000000800000000010000000000000000000000000000000000000000000000000000000000000000000000000000000000000000000000000000000002000000000004000000000000000008000000002000000000000000000000000000000000000000000000000000020000000000000000000220000000000000000000000100000000000000000000000",
      "type": "0x2",
      "transactionHash": "0x45c4ae462cedcc80568df2ec4594e041e1240db645f7e6731e8a3a9db1c2f5ad",
      "transactionIndex": "0x7",
      "blockHash": "0x1c102787de7096055e25546399c13b4cc9c4132bd249e166fe83aadc3795c31e",
      "blockNumber": "0x7506f4",
      "gasUsed": "0x2ccb8",
      "effectiveGasPrice": "0xfd",
      "from": "0xcda2fdb452ff4f5d7ba1c3d5dfcc9cb926a5eb7d",
      "to": "0x79dfbed14077b8f2421eece5707a17b161094e6a",
      "contractAddress": null,
      "l1BaseFeeScalar": "0x186a0",
      "l1BlobBaseFee": "0x1",
      "l1BlobBaseFeeScalar": "0x95506",
      "l1Fee": "0x8b71da693d",
      "l1GasPrice": "0xdf1c90a8",
      "l1GasUsed": "0x640"
    },
    {
      "status": "0x1",
      "cumulativeGasUsed": "0x15d3fa",
      "logs": [
        {
          "address": "0x2e8af9c5922623058aa92a183b391e62cb6b2d12",
          "topics": [
            "0xddf252ad1be2c89b69c2b068fc378daa952ba7f163c4a11628f55a4df523b3ef",
            "0x0000000000000000000000000000000000000000000000000000000000000000",
            "0x000000000000000000000000cda2fdb452ff4f5d7ba1c3d5dfcc9cb926a5eb7d",
            "0x0000000000000000000000000000000000000000000000000000000000000101"
          ],
          "data": "0x",
          "blockHash": "0x1c102787de7096055e25546399c13b4cc9c4132bd249e166fe83aadc3795c31e",
          "blockNumber": "0x7506f4",
          "transactionHash": "0xb81d5f10cd30b08c017d9ea672eb91cf34b4977177863ee60dc08b9243da8c79",
          "transactionIndex": "0x8",
          "logIndex": "0xf",
          "removed": false
        },
        {
          "address": "0x2e8af9c5922623058aa92a183b391e62cb6b2d12",
          "topics": [
            "0xf8e1a15aba9398e019f0b49df1a4fde98ee17ae345cb5f6b5e2c27f5033e8ce7"
          ],
          "data": "0x0000000000000000000000000000000000000000000000000000000000000101",
          "blockHash": "0x1c102787de7096055e25546399c13b4cc9c4132bd249e166fe83aadc3795c31e",
          "blockNumber": "0x7506f4",
          "transactionHash": "0xb81d5f10cd30b08c017d9ea672eb91cf34b4977177863ee60dc08b9243da8c79",
          "transactionIndex": "0x8",
          "logIndex": "0x10",
          "removed": false
        }
      ],
      "logsBloom": "0x00000000000000000000000000000000000000020000000000000000000000000000000000000000000000000000000000000000000000000000000000000000000000000000000000000008040000000000000000000000000000000000000000000000020000000000000000000800002000000000800000000010000000000000000000004000000000000000000000000000000000000000000001000000000000000000000000000000000000002000000000004000000000000000008000000002000000000000000000000000000000000000000000000000000020000000000000000000200000004000000000000000100000000000000000000000",
      "type": "0x2",
      "transactionHash": "0xb81d5f10cd30b08c017d9ea672eb91cf34b4977177863ee60dc08b9243da8c79",
      "transactionIndex": "0x8",
      "blockHash": "0x1c102787de7096055e25546399c13b4cc9c4132bd249e166fe83aadc3795c31e",
      "blockNumber": "0x7506f4",
      "gasUsed": "0x2ccb8",
      "effectiveGasPrice": "0xfd",
      "from": "0xcda2fdb452ff4f5d7ba1c3d5dfcc9cb926a5eb7d",
      "to": "0x79dfbed14077b8f2421eece5707a17b161094e6a",
      "contractAddress": null,
      "l1BaseFeeScalar": "0x186a0",
      "l1BlobBaseFee": "0x1",
      "l1BlobBaseFeeScalar": "0x95506",
      "l1Fee": "0x8b71da693d",
      "l1GasPrice": "0xdf1c90a8",
      "l1GasUsed": "0x640"
    },
    {
      "status": "0x1",
      "cumulativeGasUsed": "0x18a0b2",
      "logs": [
        {
          "address": "0x2e8af9c5922623058aa92a183b391e62cb6b2d12",
          "topics": [
            "0xddf252ad1be2c89b69c2b068fc378daa952ba7f163c4a11628f55a4df523b3ef",
            "0x0000000000000000000000000000000000000000000000000000000000000000",
            "0x000000000000000000000000cda2fdb452ff4f5d7ba1c3d5dfcc9cb926a5eb7d",
            "0x0000000000000000000000000000000000000000000000000000000000000102"
          ],
          "data": "0x",
          "blockHash": "0x1c102787de7096055e25546399c13b4cc9c4132bd249e166fe83aadc3795c31e",
          "blockNumber": "0x7506f4",
          "transactionHash": "0x4cfbe190c4f4f1d51594ed793cd931db3b7c68eb47676094aa563cc717f1ab1f",
          "transactionIndex": "0x9",
          "logIndex": "0x11",
          "removed": false
        },
        {
          "address": "0x2e8af9c5922623058aa92a183b391e62cb6b2d12",
          "topics": [
            "0xf8e1a15aba9398e019f0b49df1a4fde98ee17ae345cb5f6b5e2c27f5033e8ce7"
          ],
          "data": "0x0000000000000000000000000000000000000000000000000000000000000102",
          "blockHash": "0x1c102787de7096055e25546399c13b4cc9c4132bd249e166fe83aadc3795c31e",
          "blockNumber": "0x7506f4",
          "transactionHash": "0x4cfbe190c4f4f1d51594ed793cd931db3b7c68eb47676094aa563cc717f1ab1f",
          "transactionIndex": "0x9",
          "logIndex": "0x12",
          "removed": false
        }
      ],
      "logsBloom": "0x00000000000000000000000000000000000000020000000000000000000000000000000000000000000000000000000000000000000000000000000000000000000000000000000000000008040000000000000000000000000000000000000000000000020000000000000000000800002000000000800000000010000000000000000000000000200000000000000000000000000000000000000000000000000000000000000000000000000000002000040000004000000000000000008000000002000000000000000000010000000000000000000000000000000020000000000000000000200000000000000000000000100000000000000000000000",
      "type": "0x2",
      "transactionHash": "0x4cfbe190c4f4f1d51594ed793cd931db3b7c68eb47676094aa563cc717f1ab1f",
      "transactionIndex": "0x9",
      "blockHash": "0x1c102787de7096055e25546399c13b4cc9c4132bd249e166fe83aadc3795c31e",
      "blockNumber": "0x7506f4",
      "gasUsed": "0x2ccb8",
      "effectiveGasPrice": "0xfd",
      "from": "0xcda2fdb452ff4f5d7ba1c3d5dfcc9cb926a5eb7d",
      "to": "0x79dfbed14077b8f2421eece5707a17b161094e6a",
      "contractAddress": null,
      "l1BaseFeeScalar": "0x186a0",
      "l1BlobBaseFee": "0x1",
      "l1BlobBaseFeeScalar": "0x95506",
      "l1Fee": "0x8b71da693d",
      "l1GasPrice": "0xdf1c90a8",
      "l1GasUsed": "0x640"
    },
    {
      "status": "0x1",
      "cumulativeGasUsed": "0x1b6d6a",
      "logs": [
        {
          "address": "0x2e8af9c5922623058aa92a183b391e62cb6b2d12",
          "topics": [
            "0xddf252ad1be2c89b69c2b068fc378daa952ba7f163c4a11628f55a4df523b3ef",
            "0x0000000000000000000000000000000000000000000000000000000000000000",
            "0x000000000000000000000000cda2fdb452ff4f5d7ba1c3d5dfcc9cb926a5eb7d",
            "0x0000000000000000000000000000000000000000000000000000000000000103"
          ],
          "data": "0x",
          "blockHash": "0x1c102787de7096055e25546399c13b4cc9c4132bd249e166fe83aadc3795c31e",
          "blockNumber": "0x7506f4",
          "transactionHash": "0x9902e52b64645fe7c2f70aaa232898f101786ca779cf35a35354bc4541b01f91",
          "transactionIndex": "0xa",
          "logIndex": "0x13",
          "removed": false
        },
        {
          "address": "0x2e8af9c5922623058aa92a183b391e62cb6b2d12",
          "topics": [
            "0xf8e1a15aba9398e019f0b49df1a4fde98ee17ae345cb5f6b5e2c27f5033e8ce7"
          ],
          "data": "0x0000000000000000000000000000000000000000000000000000000000000103",
          "blockHash": "0x1c102787de7096055e25546399c13b4cc9c4132bd249e166fe83aadc3795c31e",
          "blockNumber": "0x7506f4",
          "transactionHash": "0x9902e52b64645fe7c2f70aaa232898f101786ca779cf35a35354bc4541b01f91",
          "transactionIndex": "0xa",
          "logIndex": "0x14",
          "removed": false
        }
      ],
      "logsBloom": "0x00000000000000000000080000000000000000020000000000000000000000000000000000000000000000000000000000000000000000000000000000000000000000000000000000000008040000000000000000000000000000000000000000000000020000000000040000000800002000000000800000000010000000000000000000000000000000000000000000000000000000000000000000000000000000000000000400000000000000002000000000004000000000000000008000000002000000000000000000000000000000000000000000000000000020000000000000000000200000000000000000000000100000000000000000000000",
      "type": "0x2",
      "transactionHash": "0x9902e52b64645fe7c2f70aaa232898f101786ca779cf35a35354bc4541b01f91",
      "transactionIndex": "0xa",
      "blockHash": "0x1c102787de7096055e25546399c13b4cc9c4132bd249e166fe83aadc3795c31e",
      "blockNumber": "0x7506f4",
      "gasUsed": "0x2ccb8",
      "effectiveGasPrice": "0xfd",
      "from": "0xcda2fdb452ff4f5d7ba1c3d5dfcc9cb926a5eb7d",
      "to": "0x79dfbed14077b8f2421eece5707a17b161094e6a",
      "contractAddress": null,
      "l1BaseFeeScalar": "0x186a0",
      "l1BlobBaseFee": "0x1",
      "l1BlobBaseFeeScalar": "0x95506",
      "l1Fee": "0x8b71da693d",
      "l1GasPrice": "0xdf1c90a8",
      "l1GasUsed": "0x640"
    }
  ],
  "libraries": [],
  "pending": [],
  "returns": {},
  "timestamp": 1728200975,
  "chain": 60808,
  "commit": "7d9679b"
}