{
  "transactions": [
    {
      "hash": "0x4c7caba40ab3668598edca368731ba9c7ade212316cad635a2c22c056f1022dd",
      "transactionType": "CALL",
      "contractName": null,
      "contractAddress": "0x79dfbed14077b8f2421eece5707a17b161094e6a",
      "function": "wlMint(address)",
      "arguments": [
        "0x0000000000000000000000000000000000000000"
      ],
      "transaction": {
        "from": "0xcda2fdb452ff4f5d7ba1c3d5dfcc9cb926a5eb7d",
        "to": "0x79dfbed14077b8f2421eece5707a17b161094e6a",
        "gas": "0x3ddf7",
        "value": "0x0",
        "input": "0xc517b4a50000000000000000000000000000000000000000000000000000000000000000",
        "nonce": "0x1d2c",
        "chainId": "0xed88"
      },
      "additionalContracts": [],
      "isFixedGasLimit": false
    },
    {
      "hash": "0xe89e66b256083e98c5440aef1f4e34dbcc6402b63ea2c940c51d19dbae954cf8",
      "transactionType": "CALL",
      "contractName": null,
      "contractAddress": "0x79dfbed14077b8f2421eece5707a17b161094e6a",
      "function": "wlMint(address)",
      "arguments": [
        "0x0000000000000000000000000000000000000000"
      ],
      "transaction": {
        "from": "0xcda2fdb452ff4f5d7ba1c3d5dfcc9cb926a5eb7d",
        "to": "0x79dfbed14077b8f2421eece5707a17b161094e6a",
        "gas": "0x3ddf7",
        "value": "0x0",
        "input": "0xc517b4a50000000000000000000000000000000000000000000000000000000000000000",
        "nonce": "0x1d2d",
        "chainId": "0xed88"
      },
      "additionalContracts": [],
      "isFixedGasLimit": false
    },
    {
      "hash": "0x8accb64b19b4e67e3145404e1a2633c8cf3fdd26cd11c887cce1edc375d5cd1d",
      "transactionType": "CALL",
      "contractName": null,
      "contractAddress": "0x79dfbed14077b8f2421eece5707a17b161094e6a",
      "function": "wlMint(address)",
      "arguments": [
        "0x0000000000000000000000000000000000000000"
      ],
      "transaction": {
        "from": "0xcda2fdb452ff4f5d7ba1c3d5dfcc9cb926a5eb7d",
        "to": "0x79dfbed14077b8f2421eece5707a17b161094e6a",
        "gas": "0x3ddf7",
        "value": "0x0",
        "input": "0xc517b4a50000000000000000000000000000000000000000000000000000000000000000",
        "nonce": "0x1d2e",
        "chainId": "0xed88"
      },
      "additionalContracts": [],
      "isFixedGasLimit": false
    },
    {
      "hash": "0xfb9faea74c863d448195f806a21abf43777dd582efd70c779cbd49bbf7715f2e",
      "transactionType": "CALL",
      "contractName": null,
      "contractAddress": "0x79dfbed14077b8f2421eece5707a17b161094e6a",
      "function": "wlMint(address)",
      "arguments": [
        "0x0000000000000000000000000000000000000000"
      ],
      "transaction": {
        "from": "0xcda2fdb452ff4f5d7ba1c3d5dfcc9cb926a5eb7d",
        "to": "0x79dfbed14077b8f2421eece5707a17b161094e6a",
        "gas": "0x3ddf7",
        "value": "0x0",
        "input": "0xc517b4a50000000000000000000000000000000000000000000000000000000000000000",
        "nonce": "0x1d2f",
        "chainId": "0xed88"
      },
      "additionalContracts": [],
      "isFixedGasLimit": false
    },
    {
      "hash": "0x7c574e2a932585e260a301633d4c21e06763e257306c78e4177b34a6c1f72fc9",
      "transactionType": "CALL",
      "contractName": null,
      "contractAddress": "0x79dfbed14077b8f2421eece5707a17b161094e6a",
      "function": "wlMint(address)",
      "arguments": [
        "0x0000000000000000000000000000000000000000"
      ],
      "transaction": {
        "from": "0xcda2fdb452ff4f5d7ba1c3d5dfcc9cb926a5eb7d",
        "to": "0x79dfbed14077b8f2421eece5707a17b161094e6a",
        "gas": "0x3ddf7",
        "value": "0x0",
        "input": "0xc517b4a50000000000000000000000000000000000000000000000000000000000000000",
        "nonce": "0x1d30",
        "chainId": "0xed88"
      },
      "additionalContracts": [],
      "isFixedGasLimit": false
    },
    {
      "hash": "0x22e83d479c7077fe06cea96a20c4e116103b3b21c99f423e9826a18742dfe12c",
      "transactionType": "CALL",
      "contractName": null,
      "contractAddress": "0x79dfbed14077b8f2421eece5707a17b161094e6a",
      "function": "wlMint(address)",
      "arguments": [
        "0x0000000000000000000000000000000000000000"
      ],
      "transaction": {
        "from": "0xcda2fdb452ff4f5d7ba1c3d5dfcc9cb926a5eb7d",
        "to": "0x79dfbed14077b8f2421eece5707a17b161094e6a",
        "gas": "0x3ddf7",
        "value": "0x0",
        "input": "0xc517b4a50000000000000000000000000000000000000000000000000000000000000000",
        "nonce": "0x1d31",
        "chainId": "0xed88"
      },
      "additionalContracts": [],
      "isFixedGasLimit": false
    },
    {
      "hash": "0x22fc6c7bf34ddf57f9f5bbbe3536dea63b32be6a653fb7f35c2c89e18bc8e63b",
      "transactionType": "CALL",
      "contractName": null,
      "contractAddress": "0x79dfbed14077b8f2421eece5707a17b161094e6a",
      "function": "wlMint(address)",
      "arguments": [
        "0x0000000000000000000000000000000000000000"
      ],
      "transaction": {
        "from": "0xcda2fdb452ff4f5d7ba1c3d5dfcc9cb926a5eb7d",
        "to": "0x79dfbed14077b8f2421eece5707a17b161094e6a",
        "gas": "0x3ddf7",
        "value": "0x0",
        "input": "0xc517b4a50000000000000000000000000000000000000000000000000000000000000000",
        "nonce": "0x1d32",
        "chainId": "0xed88"
      },
      "additionalContracts": [],
      "isFixedGasLimit": false
    },
    {
      "hash": "0x96283c729d8fc99b9f81effbb58d7414efa7ec6f935ebf398150726dd6a6097f",
      "transactionType": "CALL",
      "contractName": null,
      "contractAddress": "0x79dfbed14077b8f2421eece5707a17b161094e6a",
      "function": "wlMint(address)",
      "arguments": [
        "0x0000000000000000000000000000000000000000"
      ],
      "transaction": {
        "from": "0xcda2fdb452ff4f5d7ba1c3d5dfcc9cb926a5eb7d",
        "to": "0x79dfbed14077b8f2421eece5707a17b161094e6a",
        "gas": "0x3ddf7",
        "value": "0x0",
        "input": "0xc517b4a50000000000000000000000000000000000000000000000000000000000000000",
        "nonce": "0x1d33",
        "chainId": "0xed88"
      },
      "additionalContracts": [],
      "isFixedGasLimit": false
    },
    {
      "hash": "0xf77324c0edeb2ead2ea71b3f405b2193bac96aafcafa520d5b9df2ca27d8cffc",
      "transactionType": "CALL",
      "contractName": null,
      "contractAddress": "0x79dfbed14077b8f2421eece5707a17b161094e6a",
      "function": "wlMint(address)",
      "arguments": [
        "0x0000000000000000000000000000000000000000"
      ],
      "transaction": {
        "from": "0xcda2fdb452ff4f5d7ba1c3d5dfcc9cb926a5eb7d",
        "to": "0x79dfbed14077b8f2421eece5707a17b161094e6a",
        "gas": "0x3ddf7",
        "value": "0x0",
        "input": "0xc517b4a50000000000000000000000000000000000000000000000000000000000000000",
        "nonce": "0x1d34",
        "chainId": "0xed88"
      },
      "additionalContracts": [],
      "isFixedGasLimit": false
    },
    {
      "hash": "0x0039171eb7bdb6e18201ab5cab2b21b0056f193728be70ea74d82264bf6f3888",
      "transactionType": "CALL",
      "contractName": null,
      "contractAddress": "0x79dfbed14077b8f2421eece5707a17b161094e6a",
      "function": "wlMint(address)",
      "arguments": [
        "0x0000000000000000000000000000000000000000"
      ],
      "transaction": {
        "from": "0xcda2fdb452ff4f5d7ba1c3d5dfcc9cb926a5eb7d",
        "to": "0x79dfbed14077b8f2421eece5707a17b161094e6a",
        "gas": "0x3ddf7",
        "value": "0x0",
        "input": "0xc517b4a50000000000000000000000000000000000000000000000000000000000000000",
        "nonce": "0x1d35",
        "chainId": "0xed88"
      },
      "additionalContracts": [],
      "isFixedGasLimit": false
    },
    {
      "hash": "0x520b093e2649287c30a4053e21cb005e0c58a86b53a8ee6e0864a25a3b353f91",
      "transactionType": "CALL",
      "contractName": null,
      "contractAddress": "0x79dfbed14077b8f2421eece5707a17b161094e6a",
      "function": "wlMint(address)",
      "arguments": [
        "0x0000000000000000000000000000000000000000"
      ],
      "transaction": {
        "from": "0xcda2fdb452ff4f5d7ba1c3d5dfcc9cb926a5eb7d",
        "to": "0x79dfbed14077b8f2421eece5707a17b161094e6a",
        "gas": "0x3ddf7",
        "value": "0x0",
        "input": "0xc517b4a50000000000000000000000000000000000000000000000000000000000000000",
        "nonce": "0x1d36",
        "chainId": "0xed88"
      },
      "additionalContracts": [],
      "isFixedGasLimit": false
    },
    {
      "hash": "0x2942080fa13dd18f6dd3d1158e9be363cd83f92f29ea9ef300aee7cc2f5f3af3",
      "transactionType": "CALL",
      "contractName": null,
      "contractAddress": "0x79dfbed14077b8f2421eece5707a17b161094e6a",
      "function": "wlMint(address)",
      "arguments": [
        "0x0000000000000000000000000000000000000000"
      ],
      "transaction": {
        "from": "0xcda2fdb452ff4f5d7ba1c3d5dfcc9cb926a5eb7d",
        "to": "0x79dfbed14077b8f2421eece5707a17b161094e6a",
        "gas": "0x3ddf7",
        "value": "0x0",
        "input": "0xc517b4a50000000000000000000000000000000000000000000000000000000000000000",
        "nonce": "0x1d37",
        "chainId": "0xed88"
      },
      "additionalContracts": [],
      "isFixedGasLimit": false
    },
    {
      "hash": "0x875ba291e427365075d54e4d1aa93537112e2f0e12299b422c63d3991a80afcc",
      "transactionType": "CALL",
      "contractName": null,
      "contractAddress": "0x79dfbed14077b8f2421eece5707a17b161094e6a",
      "function": "wlMint(address)",
      "arguments": [
        "0x0000000000000000000000000000000000000000"
      ],
      "transaction": {
        "from": "0xcda2fdb452ff4f5d7ba1c3d5dfcc9cb926a5eb7d",
        "to": "0x79dfbed14077b8f2421eece5707a17b161094e6a",
        "gas": "0x3ddf7",
        "value": "0x0",
        "input": "0xc517b4a50000000000000000000000000000000000000000000000000000000000000000",
        "nonce": "0x1d38",
        "chainId": "0xed88"
      },
      "additionalContracts": [],
      "isFixedGasLimit": false
    },
    {
      "hash": "0x83887aac458e4c6265d48371df40c04bf7227495a64e9a14f1d0cdfbd60a3987",
      "transactionType": "CALL",
      "contractName": null,
      "contractAddress": "0x79dfbed14077b8f2421eece5707a17b161094e6a",
      "function": "wlMint(address)",
      "arguments": [
        "0x0000000000000000000000000000000000000000"
      ],
      "transaction": {
        "from": "0xcda2fdb452ff4f5d7ba1c3d5dfcc9cb926a5eb7d",
        "to": "0x79dfbed14077b8f2421eece5707a17b161094e6a",
        "gas": "0x3ddf7",
        "value": "0x0",
        "input": "0xc517b4a50000000000000000000000000000000000000000000000000000000000000000",
        "nonce": "0x1d39",
        "chainId": "0xed88"
      },
      "additionalContracts": [],
      "isFixedGasLimit": false
    },
    {
      "hash": "0x3777ce9f94e5c9f56f2182d3e2324a0a66d808c5165ed0553097d845eaedb47f",
      "transactionType": "CALL",
      "contractName": null,
      "contractAddress": "0x79dfbed14077b8f2421eece5707a17b161094e6a",
      "function": "wlMint(address)",
      "arguments": [
        "0x0000000000000000000000000000000000000000"
      ],
      "transaction": {
        "from": "0xcda2fdb452ff4f5d7ba1c3d5dfcc9cb926a5eb7d",
        "to": "0x79dfbed14077b8f2421eece5707a17b161094e6a",
        "gas": "0x3ddf7",
        "value": "0x0",
        "input": "0xc517b4a50000000000000000000000000000000000000000000000000000000000000000",
        "nonce": "0x1d3a",
        "chainId": "0xed88"
      },
      "additionalContracts": [],
      "isFixedGasLimit": false
    },
    {
      "hash": "0xedb59d3c21c0e4948f14f8c2ac5587cff50b21d72ad2f95790e9147b2b9ff914",
      "transactionType": "CALL",
      "contractName": null,
      "contractAddress": "0x79dfbed14077b8f2421eece5707a17b161094e6a",
      "function": "wlMint(address)",
      "arguments": [
        "0x0000000000000000000000000000000000000000"
      ],
      "transaction": {
        "from": "0xcda2fdb452ff4f5d7ba1c3d5dfcc9cb926a5eb7d",
        "to": "0x79dfbed14077b8f2421eece5707a17b161094e6a",
        "gas": "0x3ddf7",
        "value": "0x0",
        "input": "0xc517b4a50000000000000000000000000000000000000000000000000000000000000000",
        "nonce": "0x1d3b",
        "chainId": "0xed88"
      },
      "additionalContracts": [],
      "isFixedGasLimit": false
    },
    {
      "hash": "0x6988a2334cbddf96ee2b1f0f8d27688b79e7a74b6c804ffa811cc5141bd551cd",
      "transactionType": "CALL",
      "contractName": null,
      "contractAddress": "0x79dfbed14077b8f2421eece5707a17b161094e6a",
      "function": "wlMint(address)",
      "arguments": [
        "0x0000000000000000000000000000000000000000"
      ],
      "transaction": {
        "from": "0xcda2fdb452ff4f5d7ba1c3d5dfcc9cb926a5eb7d",
        "to": "0x79dfbed14077b8f2421eece5707a17b161094e6a",
        "gas": "0x3ddf7",
        "value": "0x0",
        "input": "0xc517b4a50000000000000000000000000000000000000000000000000000000000000000",
        "nonce": "0x1d3c",
        "chainId": "0xed88"
      },
      "additionalContracts": [],
      "isFixedGasLimit": false
    },
    {
      "hash": "0x6f8c187412dd7968361f1e84a034532e8c4b839dfc82a073eb84f47b9c185ed6",
      "transactionType": "CALL",
      "contractName": null,
      "contractAddress": "0x79dfbed14077b8f2421eece5707a17b161094e6a",
      "function": "wlMint(address)",
      "arguments": [
        "0x0000000000000000000000000000000000000000"
      ],
      "transaction": {
        "from": "0xcda2fdb452ff4f5d7ba1c3d5dfcc9cb926a5eb7d",
        "to": "0x79dfbed14077b8f2421eece5707a17b161094e6a",
        "gas": "0x3ddf7",
        "value": "0x0",
        "input": "0xc517b4a50000000000000000000000000000000000000000000000000000000000000000",
        "nonce": "0x1d3d",
        "chainId": "0xed88"
      },
      "additionalContracts": [],
      "isFixedGasLimit": false
    },
    {
      "hash": "0x9a7b09939c92ddca5ca3d1d3ca2dbd0298571ac68bf396837f302131533fb63b",
      "transactionType": "CALL",
      "contractName": null,
      "contractAddress": "0x79dfbed14077b8f2421eece5707a17b161094e6a",
      "function": "wlMint(address)",
      "arguments": [
        "0x0000000000000000000000000000000000000000"
      ],
      "transaction": {
        "from": "0xcda2fdb452ff4f5d7ba1c3d5dfcc9cb926a5eb7d",
        "to": "0x79dfbed14077b8f2421eece5707a17b161094e6a",
        "gas": "0x3ddf7",
        "value": "0x0",
        "input": "0xc517b4a50000000000000000000000000000000000000000000000000000000000000000",
        "nonce": "0x1d3e",
        "chainId": "0xed88"
      },
      "additionalContracts": [],
      "isFixedGasLimit": false
    },
    {
      "hash": "0xd392a3353fff41d8524dc7d0d58a005aa1877865ecec96e694e92a2d5f92e636",
      "transactionType": "CALL",
      "contractName": null,
      "contractAddress": "0x79dfbed14077b8f2421eece5707a17b161094e6a",
      "function": "wlMint(address)",
      "arguments": [
        "0x0000000000000000000000000000000000000000"
      ],
      "transaction": {
        "from": "0xcda2fdb452ff4f5d7ba1c3d5dfcc9cb926a5eb7d",
        "to": "0x79dfbed14077b8f2421eece5707a17b161094e6a",
        "gas": "0x3ddf7",
        "value": "0x0",
        "input": "0xc517b4a50000000000000000000000000000000000000000000000000000000000000000",
        "nonce": "0x1d3f",
        "chainId": "0xed88"
      },
      "additionalContracts": [],
      "isFixedGasLimit": false
    },
    {
      "hash": "0x9b0cec317c853a485df5432c1059a1ff3514414a4c462a7d795ecdfb1f9aa1a6",
      "transactionType": "CALL",
      "contractName": null,
      "contractAddress": "0x79dfbed14077b8f2421eece5707a17b161094e6a",
      "function": "wlMint(address)",
      "arguments": [
        "0x0000000000000000000000000000000000000000"
      ],
      "transaction": {
        "from": "0xcda2fdb452ff4f5d7ba1c3d5dfcc9cb926a5eb7d",
        "to": "0x79dfbed14077b8f2421eece5707a17b161094e6a",
        "gas": "0x3ddf7",
        "value": "0x0",
        "input": "0xc517b4a50000000000000000000000000000000000000000000000000000000000000000",
        "nonce": "0x1d40",
        "chainId": "0xed88"
      },
      "additionalContracts": [],
      "isFixedGasLimit": false
    },
    {
      "hash": "0x91cc6c0519699e818188296f7d835be01ee40ef647f3c7ea56029b7268368548",
      "transactionType": "CALL",
      "contractName": null,
      "contractAddress": "0x79dfbed14077b8f2421eece5707a17b161094e6a",
      "function": "wlMint(address)",
      "arguments": [
        "0x0000000000000000000000000000000000000000"
      ],
      "transaction": {
        "from": "0xcda2fdb452ff4f5d7ba1c3d5dfcc9cb926a5eb7d",
        "to": "0x79dfbed14077b8f2421eece5707a17b161094e6a",
        "gas": "0x3ddf7",
        "value": "0x0",
        "input": "0xc517b4a50000000000000000000000000000000000000000000000000000000000000000",
        "nonce": "0x1d41",
        "chainId": "0xed88"
      },
      "additionalContracts": [],
      "isFixedGasLimit": false
    },
    {
      "hash": "0xf98c60d4d4355c9aee31df9fe281fce59fca05b5d906ce229a0363074481174d",
      "transactionType": "CALL",
      "contractName": null,
      "contractAddress": "0x79dfbed14077b8f2421eece5707a17b161094e6a",
      "function": "wlMint(address)",
      "arguments": [
        "0x0000000000000000000000000000000000000000"
      ],
      "transaction": {
        "from": "0xcda2fdb452ff4f5d7ba1c3d5dfcc9cb926a5eb7d",
        "to": "0x79dfbed14077b8f2421eece5707a17b161094e6a",
        "gas": "0x3ddf7",
        "value": "0x0",
        "input": "0xc517b4a50000000000000000000000000000000000000000000000000000000000000000",
        "nonce": "0x1d42",
        "chainId": "0xed88"
      },
      "additionalContracts": [],
      "isFixedGasLimit": false
    },
    {
      "hash": "0x3d802507ab525df811bbcbecb182247c642860dd6cbe56cfeabe5776527c588d",
      "transactionType": "CALL",
      "contractName": null,
      "contractAddress": "0x79dfbed14077b8f2421eece5707a17b161094e6a",
      "function": "wlMint(address)",
      "arguments": [
        "0x0000000000000000000000000000000000000000"
      ],
      "transaction": {
        "from": "0xcda2fdb452ff4f5d7ba1c3d5dfcc9cb926a5eb7d",
        "to": "0x79dfbed14077b8f2421eece5707a17b161094e6a",
        "gas": "0x3ddf7",
        "value": "0x0",
        "input": "0xc517b4a50000000000000000000000000000000000000000000000000000000000000000",
        "nonce": "0x1d43",
        "chainId": "0xed88"
      },
      "additionalContracts": [],
      "isFixedGasLimit": false
    },
    {
      "hash": "0xaa32c1ebd0a56a945c39d72929b99718c9343ec39d3533271f15d23dcfade8eb",
      "transactionType": "CALL",
      "contractName": null,
      "contractAddress": "0x79dfbed14077b8f2421eece5707a17b161094e6a",
      "function": "wlMint(address)",
      "arguments": [
        "0x0000000000000000000000000000000000000000"
      ],
      "transaction": {
        "from": "0xcda2fdb452ff4f5d7ba1c3d5dfcc9cb926a5eb7d",
        "to": "0x79dfbed14077b8f2421eece5707a17b161094e6a",
        "gas": "0x3ddf7",
        "value": "0x0",
        "input": "0xc517b4a50000000000000000000000000000000000000000000000000000000000000000",
        "nonce": "0x1d44",
        "chainId": "0xed88"
      },
      "additionalContracts": [],
      "isFixedGasLimit": false
    },
    {
      "hash": "0x9dc0b60b7576abb8e2091aeb395e9bc711c53d73b5f1915b675a10eeb80d0ec8",
      "transactionType": "CALL",
      "contractName": null,
      "contractAddress": "0x79dfbed14077b8f2421eece5707a17b161094e6a",
      "function": "wlMint(address)",
      "arguments": [
        "0x0000000000000000000000000000000000000000"
      ],
      "transaction": {
        "from": "0xcda2fdb452ff4f5d7ba1c3d5dfcc9cb926a5eb7d",
        "to": "0x79dfbed14077b8f2421eece5707a17b161094e6a",
        "gas": "0x3ddf7",
        "value": "0x0",
        "input": "0xc517b4a50000000000000000000000000000000000000000000000000000000000000000",
        "nonce": "0x1d45",
        "chainId": "0xed88"
      },
      "additionalContracts": [],
      "isFixedGasLimit": false
    },
    {
      "hash": "0xfa5eea9606b67fa3a14ea268696fb5bf8e9ff385d62d1633e72c33b0dbcacbb7",
      "transactionType": "CALL",
      "contractName": null,
      "contractAddress": "0x79dfbed14077b8f2421eece5707a17b161094e6a",
      "function": "wlMint(address)",
      "arguments": [
        "0x0000000000000000000000000000000000000000"
      ],
      "transaction": {
        "from": "0xcda2fdb452ff4f5d7ba1c3d5dfcc9cb926a5eb7d",
        "to": "0x79dfbed14077b8f2421eece5707a17b161094e6a",
        "gas": "0x3ddf7",
        "value": "0x0",
        "input": "0xc517b4a50000000000000000000000000000000000000000000000000000000000000000",
        "nonce": "0x1d46",
        "chainId": "0xed88"
      },
      "additionalContracts": [],
      "isFixedGasLimit": false
    },
    {
      "hash": "0x98d5497de190d308e3966cddf87db89fd10c5923173db3b257f2940815648ab2",
      "transactionType": "CALL",
      "contractName": null,
      "contractAddress": "0x79dfbed14077b8f2421eece5707a17b161094e6a",
      "function": "wlMint(address)",
      "arguments": [
        "0x0000000000000000000000000000000000000000"
      ],
      "transaction": {
        "from": "0xcda2fdb452ff4f5d7ba1c3d5dfcc9cb926a5eb7d",
        "to": "0x79dfbed14077b8f2421eece5707a17b161094e6a",
        "gas": "0x3ddf7",
        "value": "0x0",
        "input": "0xc517b4a50000000000000000000000000000000000000000000000000000000000000000",
        "nonce": "0x1d47",
        "chainId": "0xed88"
      },
      "additionalContracts": [],
      "isFixedGasLimit": false
    },
    {
      "hash": "0xe55937260dbff5287c209982386b1db1793e0d5d4c2b5994b2ffba0e0f42ccc0",
      "transactionType": "CALL",
      "contractName": null,
      "contractAddress": "0x79dfbed14077b8f2421eece5707a17b161094e6a",
      "function": "wlMint(address)",
      "arguments": [
        "0x0000000000000000000000000000000000000000"
      ],
      "transaction": {
        "from": "0xcda2fdb452ff4f5d7ba1c3d5dfcc9cb926a5eb7d",
        "to": "0x79dfbed14077b8f2421eece5707a17b161094e6a",
        "gas": "0x3ddf7",
        "value": "0x0",
        "input": "0xc517b4a50000000000000000000000000000000000000000000000000000000000000000",
        "nonce": "0x1d48",
        "chainId": "0xed88"
      },
      "additionalContracts": [],
      "isFixedGasLimit": false
    },
    {
      "hash": "0x9081cafde2af3982d3f6ef3dd1b45c1302d94f45eb1f5b1a1ee0b2b1b3da4404",
      "transactionType": "CALL",
      "contractName": null,
      "contractAddress": "0x79dfbed14077b8f2421eece5707a17b161094e6a",
      "function": "wlMint(address)",
      "arguments": [
        "0x0000000000000000000000000000000000000000"
      ],
      "transaction": {
        "from": "0xcda2fdb452ff4f5d7ba1c3d5dfcc9cb926a5eb7d",
        "to": "0x79dfbed14077b8f2421eece5707a17b161094e6a",
        "gas": "0x3ddf7",
        "value": "0x0",
        "input": "0xc517b4a50000000000000000000000000000000000000000000000000000000000000000",
        "nonce": "0x1d49",
        "chainId": "0xed88"
      },
      "additionalContracts": [],
      "isFixedGasLimit": false
    }
  ],
  "receipts": [
    {
      "status": "0x1",
      "cumulativeGasUsed": "0x377f7",
      "logs": [
        {
          "address": "0x2e8af9c5922623058aa92a183b391e62cb6b2d12",
          "topics": [
            "0xddf252ad1be2c89b69c2b068fc378daa952ba7f163c4a11628f55a4df523b3ef",
            "0x0000000000000000000000000000000000000000000000000000000000000000",
            "0x000000000000000000000000cda2fdb452ff4f5d7ba1c3d5dfcc9cb926a5eb7d",
            "0x0000000000000000000000000000000000000000000000000000000000000122"
          ],
          "data": "0x",
          "blockHash": "0x7a074169ef4e761775b6d70c2d5d71eccae46544ba80a5ccd3f45f52f28fc1a2",
          "blockNumber": "0x750732",
          "transactionHash": "0x4c7caba40ab3668598edca368731ba9c7ade212316cad635a2c22c056f1022dd",
          "transactionIndex": "0x1",
          "logIndex": "0x0",
          "removed": false
        },
        {
          "address": "0x2e8af9c5922623058aa92a183b391e62cb6b2d12",
          "topics": [
            "0xf8e1a15aba9398e019f0b49df1a4fde98ee17ae345cb5f6b5e2c27f5033e8ce7"
          ],
          "data": "0x0000000000000000000000000000000000000000000000000000000000000122",
          "blockHash": "0x7a074169ef4e761775b6d70c2d5d71eccae46544ba80a5ccd3f45f52f28fc1a2",
          "blockNumber": "0x750732",
          "transactionHash": "0x4c7caba40ab3668598edca368731ba9c7ade212316cad635a2c22c056f1022dd",
          "transactionIndex": "0x1",
          "logIndex": "0x1",
          "removed": false
        }
      ],
      "logsBloom": "0x00000000000000000000000000000000000000020000000000000000000000000000000000000000000000000000000000000000000000000000000000000000000000000000000000000008040000000000000000000000000000000000000000000000020000000000000000000800002000000000800000000010000000000000000000000000000000000000000000000000000000000000000008000000000000000000000000200000001000002000000000004000000000000000008000000002000000000000000000000000000000000000000000000000000020000000000000000000200000000000000000000000100000000000000000000000",
      "type": "0x2",
      "transactionHash": "0x4c7caba40ab3668598edca368731ba9c7ade212316cad635a2c22c056f1022dd",
      "transactionIndex": "0x1",
      "blockHash": "0x7a074169ef4e761775b6d70c2d5d71eccae46544ba80a5ccd3f45f52f28fc1a2",
      "blockNumber": "0x750732",
      "gasUsed": "0x2ccb8",
      "effectiveGasPrice": "0xfe",
      "from": "0xcda2fdb452ff4f5d7ba1c3d5dfcc9cb926a5eb7d",
      "to": "0x79dfbed14077b8f2421eece5707a17b161094e6a",
      "contractAddress": null,
      "l1BaseFeeScalar": "0x186a0",
      "l1BlobBaseFee": "0x1",
      "l1BlobBaseFeeScalar": "0x95506",
      "l1Fee": "0x925b315bbd",
      "l1GasPrice": "0xea2b822c",
      "l1GasUsed": "0x640"
    },
    {
      "status": "0x1",
      "cumulativeGasUsed": "0x644af",
      "logs": [
        {
          "address": "0x2e8af9c5922623058aa92a183b391e62cb6b2d12",
          "topics": [
            "0xddf252ad1be2c89b69c2b068fc378daa952ba7f163c4a11628f55a4df523b3ef",
            "0x0000000000000000000000000000000000000000000000000000000000000000",
            "0x000000000000000000000000cda2fdb452ff4f5d7ba1c3d5dfcc9cb926a5eb7d",
            "0x0000000000000000000000000000000000000000000000000000000000000123"
          ],
          "data": "0x",
          "blockHash": "0x7a074169ef4e761775b6d70c2d5d71eccae46544ba80a5ccd3f45f52f28fc1a2",
          "blockNumber": "0x750732",
          "transactionHash": "0xe89e66b256083e98c5440aef1f4e34dbcc6402b63ea2c940c51d19dbae954cf8",
          "transactionIndex": "0x2",
          "logIndex": "0x2",
          "removed": false
        },
        {
          "address": "0x2e8af9c5922623058aa92a183b391e62cb6b2d12",
          "topics": [
            "0xf8e1a15aba9398e019f0b49df1a4fde98ee17ae345cb5f6b5e2c27f5033e8ce7"
          ],
          "data": "0x0000000000000000000000000000000000000000000000000000000000000123",
          "blockHash": "0x7a074169ef4e761775b6d70c2d5d71eccae46544ba80a5ccd3f45f52f28fc1a2",
          "blockNumber": "0x750732",
          "transactionHash": "0xe89e66b256083e98c5440aef1f4e34dbcc6402b63ea2c940c51d19dbae954cf8",
          "transactionIndex": "0x2",
          "logIndex": "0x3",
          "removed": false
        }
      ],
      "logsBloom": "0x00000000000000000000000000000000000000020000000000000000000000080000000000000000000000000000000000000000000000000800000000000000000000000000000000000008040000000000000000000000000000000000000000000000020000000000000000000800002000000000800000000010000000000000000000000000000000000000000000000000200000000000000000000000000000000000000000000000000000002000000000004000000000000000008000000002000000000000000000000000000000000000000000000000000020000000000000000000200000000000000000000000100000000000000000000000",
      "type": "0x2",
      "transactionHash": "0xe89e66b256083e98c5440aef1f4e34dbcc6402b63ea2c940c51d19dbae954cf8",
      "transactionIndex": "0x2",
      "blockHash": "0x7a074169ef4e761775b6d70c2d5d71eccae46544ba80a5ccd3f45f52f28fc1a2",
      "blockNumber": "0x750732",
      "gasUsed": "0x2ccb8",
      "effectiveGasPrice": "0xfe",
      "from": "0xcda2fdb452ff4f5d7ba1c3d5dfcc9cb926a5eb7d",
      "to": "0x79dfbed14077b8f2421eece5707a17b161094e6a",
      "contractAddress": null,
      "l1BaseFeeScalar": "0x186a0",
      "l1BlobBaseFee": "0x1",
      "l1BlobBaseFeeScalar": "0x95506",
      "l1Fee": "0x925b315bbd",
      "l1GasPrice": "0xea2b822c",
      "l1GasUsed": "0x640"
    },
    {
      "status": "0x1",
      "cumulativeGasUsed": "0x91167",
      "logs": [
        {
          "address": "0x2e8af9c5922623058aa92a183b391e62cb6b2d12",
          "topics": [
            "0xddf252ad1be2c89b69c2b068fc378daa952ba7f163c4a11628f55a4df523b3ef",
            "0x0000000000000000000000000000000000000000000000000000000000000000",
            "0x000000000000000000000000cda2fdb452ff4f5d7ba1c3d5dfcc9cb926a5eb7d",
            "0x0000000000000000000000000000000000000000000000000000000000000124"
          ],
          "data": "0x",
          "blockHash": "0x7a074169ef4e761775b6d70c2d5d71eccae46544ba80a5ccd3f45f52f28fc1a2",
          "blockNumber": "0x750732",
          "transactionHash": "0x8accb64b19b4e67e3145404e1a2633c8cf3fdd26cd11c887cce1edc375d5cd1d",
          "transactionIndex": "0x3",
          "logIndex": "0x4",
          "removed": false
        },
        {
          "address": "0x2e8af9c5922623058aa92a183b391e62cb6b2d12",
          "topics": [
            "0xf8e1a15aba9398e019f0b49df1a4fde98ee17ae345cb5f6b5e2c27f5033e8ce7"
          ],
          "data": "0x0000000000000000000000000000000000000000000000000000000000000124",
          "blockHash": "0x7a074169ef4e761775b6d70c2d5d71eccae46544ba80a5ccd3f45f52f28fc1a2",
          "blockNumber": "0x750732",
          "transactionHash": "0x8accb64b19b4e67e3145404e1a2633c8cf3fdd26cd11c887cce1edc375d5cd1d",
          "transactionIndex": "0x3",
          "logIndex": "0x5",
          "removed": false
        }
      ],
      "logsBloom": "0x00000000000000000000000000000000000000020000000000000000000000000000000000000000000000000000000000000000000000000000000000000000000000000000000000000008040000000000000000000000000000000000000000000000020000000000000020000800002000000000800000000010000000000000000000000000000000000002000000000000000000000000000000000000000000000000000000000000000000002000000000004000000000000000008000000002000010000000000000000000000000000000000000000000000020000000000000000000200000000000000000000000100000000000000000000000",
      "type": "0x2",
      "transactionHash": "0x8accb64b19b4e67e3145404e1a2633c8cf3fdd26cd11c887cce1edc375d5cd1d",
      "transactionIndex": "0x3",
      "blockHash": "0x7a074169ef4e761775b6d70c2d5d71eccae46544ba80a5ccd3f45f52f28fc1a2",
      "blockNumber": "0x750732",
      "gasUsed": "0x2ccb8",
      "effectiveGasPrice": "0xfe",
      "from": "0xcda2fdb452ff4f5d7ba1c3d5dfcc9cb926a5eb7d",
      "to": "0x79dfbed14077b8f2421eece5707a17b161094e6a",
      "contractAddress": null,
      "l1BaseFeeScalar": "0x186a0",
      "l1BlobBaseFee": "0x1",
      "l1BlobBaseFeeScalar": "0x95506",
      "l1Fee": "0x925b315bbd",
      "l1GasPrice": "0xea2b822c",
      "l1GasUsed": "0x640"
    },
    {
      "status": "0x1",
      "cumulativeGasUsed": "0xbde1f",
      "logs": [
        {
          "address": "0x2e8af9c5922623058aa92a183b391e62cb6b2d12",
          "topics": [
            "0xddf252ad1be2c89b69c2b068fc378daa952ba7f163c4a11628f55a4df523b3ef",
            "0x0000000000000000000000000000000000000000000000000000000000000000",
            "0x000000000000000000000000cda2fdb452ff4f5d7ba1c3d5dfcc9cb926a5eb7d",
            "0x0000000000000000000000000000000000000000000000000000000000000125"
          ],
          "data": "0x",
          "blockHash": "0x7a074169ef4e761775b6d70c2d5d71eccae46544ba80a5ccd3f45f52f28fc1a2",
          "blockNumber": "0x750732",
          "transactionHash": "0xfb9faea74c863d448195f806a21abf43777dd582efd70c779cbd49bbf7715f2e",
          "transactionIndex": "0x4",
          "logIndex": "0x6",
          "removed": false
        },
        {
          "address": "0x2e8af9c5922623058aa92a183b391e62cb6b2d12",
          "topics": [
            "0xf8e1a15aba9398e019f0b49df1a4fde98ee17ae345cb5f6b5e2c27f5033e8ce7"
          ],
          "data": "0x0000000000000000000000000000000000000000000000000000000000000125",
          "blockHash": "0x7a074169ef4e761775b6d70c2d5d71eccae46544ba80a5ccd3f45f52f28fc1a2",
          "blockNumber": "0x750732",
          "transactionHash": "0xfb9faea74c863d448195f806a21abf43777dd582efd70c779cbd49bbf7715f2e",
          "transactionIndex": "0x4",
          "logIndex": "0x7",
          "removed": false
        }
      ],
      "logsBloom": "0x00000000000000000000000000000000000000020000000000000000000000000000000000000000000080000000000000000000000000000000000000000000000000000000000000000008040000000001000000000000000000000000000000000000020000000000000000000800002000000000800000000010000000000000000000000000000000000000000000000000000000000000000000000000000000000000000000000000000000002800000000004000000000000000008000000002000000000000000000000000000000000000000000000000000020000000000000000000200000000000000000000000100000000000000000000000",
      "type": "0x2",
      "transactionHash": "0xfb9faea74c863d448195f806a21abf43777dd582efd70c779cbd49bbf7715f2e",
      "transactionIndex": "0x4",
      "blockHash": "0x7a074169ef4e761775b6d70c2d5d71eccae46544ba80a5ccd3f45f52f28fc1a2",
      "blockNumber": "0x750732",
      "gasUsed": "0x2ccb8",
      "effectiveGasPrice": "0xfe",
      "from": "0xcda2fdb452ff4f5d7ba1c3d5dfcc9cb926a5eb7d",
      "to": "0x79dfbed14077b8f2421eece5707a17b161094e6a",
      "contractAddress": null,
      "l1BaseFeeScalar": "0x186a0",
      "l1BlobBaseFee": "0x1",
      "l1BlobBaseFeeScalar": "0x95506",
      "l1Fee": "0x925b315bbd",
      "l1GasPrice": "0xea2b822c",
      "l1GasUsed": "0x640"
    },
    {
      "status": "0x1",
      "cumulativeGasUsed": "0xeaad7",
      "logs": [
        {
          "address": "0x2e8af9c5922623058aa92a183b391e62cb6b2d12",
          "topics": [
            "0xddf252ad1be2c89b69c2b068fc378daa952ba7f163c4a11628f55a4df523b3ef",
            "0x0000000000000000000000000000000000000000000000000000000000000000",
            "0x000000000000000000000000cda2fdb452ff4f5d7ba1c3d5dfcc9cb926a5eb7d",
            "0x0000000000000000000000000000000000000000000000000000000000000126"
          ],
          "data": "0x",
          "blockHash": "0x7a074169ef4e761775b6d70c2d5d71eccae46544ba80a5ccd3f45f52f28fc1a2",
          "blockNumber": "0x750732",
          "transactionHash": "0x7c574e2a932585e260a301633d4c21e06763e257306c78e4177b34a6c1f72fc9",
          "transactionIndex": "0x5",
          "logIndex": "0x8",
          "removed": false
        },
        {
          "address": "0x2e8af9c5922623058aa92a183b391e62cb6b2d12",
          "topics": [
            "0xf8e1a15aba9398e019f0b49df1a4fde98ee17ae345cb5f6b5e2c27f5033e8ce7"
          ],
          "data": "0x0000000000000000000000000000000000000000000000000000000000000126",
          "blockHash": "0x7a074169ef4e761775b6d70c2d5d71eccae46544ba80a5ccd3f45f52f28fc1a2",
          "blockNumber": "0x750732",
          "transactionHash": "0x7c574e2a932585e260a301633d4c21e06763e257306c78e4177b34a6c1f72fc9",
          "transactionIndex": "0x5",
          "logIndex": "0x9",
          "removed": false
        }
      ],
      "logsBloom": "0x00000000000000000000000000000000000000020000000000000000000000000000000000000000000000000000000000000000000000000000000000000000000000000000000000000008040000000000000000000000000000000000000000000000020000040000000000000800002000000000800000000010000000000000000000000000000000000000000000000000000000000000000000000000000000000000000000000000000000002000000000004000000000000000008000000002020000000000000000000000000000000000000020000000000020000000000000000000200000000000000000000000100000000000000000000000",
      "type": "0x2",
      "transactionHash": "0x7c574e2a932585e260a301633d4c21e06763e257306c78e4177b34a6c1f72fc9",
      "transactionIndex": "0x5",
      "blockHash": "0x7a074169ef4e761775b6d70c2d5d71eccae46544ba80a5ccd3f45f52f28fc1a2",
      "blockNumber": "0x750732",
      "gasUsed": "0x2ccb8",
      "effectiveGasPrice": "0xfe",
      "from": "0xcda2fdb452ff4f5d7ba1c3d5dfcc9cb926a5eb7d",
      "to": "0x79dfbed14077b8f2421eece5707a17b161094e6a",
      "contractAddress": null,
      "l1BaseFeeScalar": "0x186a0",
      "l1BlobBaseFee": "0x1",
      "l1BlobBaseFeeScalar": "0x95506",
      "l1Fee": "0x925b315bbd",
      "l1GasPrice": "0xea2b822c",
      "l1GasUsed": "0x640"
    },
    {
      "status": "0x1",
      "cumulativeGasUsed": "0x11778f",
      "logs": [
        {
          "address": "0x2e8af9c5922623058aa92a183b391e62cb6b2d12",
          "topics": [
            "0xddf252ad1be2c89b69c2b068fc378daa952ba7f163c4a11628f55a4df523b3ef",
            "0x0000000000000000000000000000000000000000000000000000000000000000",
            "0x000000000000000000000000cda2fdb452ff4f5d7ba1c3d5dfcc9cb926a5eb7d",
            "0x0000000000000000000000000000000000000000000000000000000000000127"
          ],
          "data": "0x",
          "blockHash": "0x7a074169ef4e761775b6d70c2d5d71eccae46544ba80a5ccd3f45f52f28fc1a2",
          "blockNumber": "0x750732",
          "transactionHash": "0x22e83d479c7077fe06cea96a20c4e116103b3b21c99f423e9826a18742dfe12c",
          "transactionIndex": "0x6",
          "logIndex": "0xa",
          "removed": false
        },
        {
          "address": "0x2e8af9c5922623058aa92a183b391e62cb6b2d12",
          "topics": [
            "0xf8e1a15aba9398e019f0b49df1a4fde98ee17ae345cb5f6b5e2c27f5033e8ce7"
          ],
          "data": "0x0000000000000000000000000000000000000000000000000000000000000127",
          "blockHash": "0x7a074169ef4e761775b6d70c2d5d71eccae46544ba80a5ccd3f45f52f28fc1a2",
          "blockNumber": "0x750732",
          "transactionHash": "0x22e83d479c7077fe06cea96a20c4e116103b3b21c99f423e9826a18742dfe12c",
          "transactionIndex": "0x6",
          "logIndex": "0xb",
          "removed": false
        }
      ],
      "logsBloom": "0x00000000000000000000000000000000000000020000000000000000000000000000000000000000000000000000000000000000000000000000000000000000000000000000000000000008040000000000000000000000000000000000000000000000020000000000000000000800002000000000800000000010000000000000000200000000000000000000000000000000000000000000000000000000000000000000000000000000000000002000000000004000000000000000008000000002000000000100000000000000000000000000000000000000000020000000000000000000200000000040000000000000100000000000000000000000",
      "type": "0x2",
      "transactionHash": "0x22e83d479c7077fe06cea96a20c4e116103b3b21c99f423e9826a18742dfe12c",
      "transactionIndex": "0x6",
      "blockHash": "0x7a074169ef4e761775b6d70c2d5d71eccae46544ba80a5ccd3f45f52f28fc1a2",
      "blockNumber": "0x750732",
      "gasUsed": "0x2ccb8",
      "effectiveGasPrice": "0xfe",
      "from": "0xcda2fdb452ff4f5d7ba1c3d5dfcc9cb926a5eb7d",
      "to": "0x79dfbed14077b8f2421eece5707a17b161094e6a",
      "contractAddress": null,
      "l1BaseFeeScalar": "0x186a0",
      "l1BlobBaseFee": "0x1",
      "l1BlobBaseFeeScalar": "0x95506",
      "l1Fee": "0x925b315bbd",
      "l1GasPrice": "0xea2b822c",
      "l1GasUsed": "0x640"
    },
    {
      "status": "0x1",
      "cumulativeGasUsed": "0x144447",
      "logs": [
        {
          "address": "0x2e8af9c5922623058aa92a183b391e62cb6b2d12",
          "topics": [
            "0xddf252ad1be2c89b69c2b068fc378daa952ba7f163c4a11628f55a4df523b3ef",
            "0x0000000000000000000000000000000000000000000000000000000000000000",
            "0x000000000000000000000000cda2fdb452ff4f5d7ba1c3d5dfcc9cb926a5eb7d",
            "0x0000000000000000000000000000000000000000000000000000000000000128"
          ],
          "data": "0x",
          "blockHash": "0x7a074169ef4e761775b6d70c2d5d71eccae46544ba80a5ccd3f45f52f28fc1a2",
          "blockNumber": "0x750732",
          "transactionHash": "0x22fc6c7bf34ddf57f9f5bbbe3536dea63b32be6a653fb7f35c2c89e18bc8e63b",
          "transactionIndex": "0x7",
          "logIndex": "0xc",
          "removed": false
        },
        {
          "address": "0x2e8af9c5922623058aa92a183b391e62cb6b2d12",
          "topics": [
            "0xf8e1a15aba9398e019f0b49df1a4fde98ee17ae345cb5f6b5e2c27f5033e8ce7"
          ],
          "data": "0x0000000000000000000000000000000000000000000000000000000000000128",
          "blockHash": "0x7a074169ef4e761775b6d70c2d5d71eccae46544ba80a5ccd3f45f52f28fc1a2",
          "blockNumber": "0x750732",
          "transactionHash": "0x22fc6c7bf34ddf57f9f5bbbe3536dea63b32be6a653fb7f35c2c89e18bc8e63b",
          "transactionIndex": "0x7",
          "logIndex": "0xd",
          "removed": false
        }
      ],
      "logsBloom": "0x00000000000000000000000000000000000002020000000000000000000000000000000000000000000000000000000000000000000000000000000000000000000000000000000000000008040000000000000000000000000000000000000000000000020000000000000000000800002000000000800000000010000000000000000000000000000000000000000000000000000000000000000000000000000000000000000000000000000000002000000004004000000000000000008000000002000000000000000000000000000000000000000000000000000020400000000000000000200000000000000000000000100000000000000000000000",
      "type": "0x2",
      "transactionHash": "0x22fc6c7bf34ddf57f9f5bbbe3536dea63b32be6a653fb7f35c2c89e18bc8e63b",
      "transactionIndex": "0x7",
      "blockHash": "0x7a074169ef4e761775b6d70c2d5d71eccae46544ba80a5ccd3f45f52f28fc1a2",
      "blockNumber": "0x750732",
      "gasUsed": "0x2ccb8",
      "effectiveGasPrice": "0xfe",
      "from": "0xcda2fdb452ff4f5d7ba1c3d5dfcc9cb926a5eb7d",
      "to": "0x79dfbed14077b8f2421eece5707a17b161094e6a",
      "contractAddress": null,
      "l1BaseFeeScalar": "0x186a0",
      "l1BlobBaseFee": "0x1",
      "l1BlobBaseFeeScalar": "0x95506",
      "l1Fee": "0x925b315bbd",
      "l1GasPrice": "0xea2b822c",
      "l1GasUsed": "0x640"
    },
    {
      "status": "0x1",
      "cumulativeGasUsed": "0x1710ff",
      "logs": [
        {
          "address": "0x2e8af9c5922623058aa92a183b391e62cb6b2d12",
          "topics": [
            "0xddf252ad1be2c89b69c2b068fc378daa952ba7f163c4a11628f55a4df523b3ef",
            "0x0000000000000000000000000000000000000000000000000000000000000000",
            "0x000000000000000000000000cda2fdb452ff4f5d7ba1c3d5dfcc9cb926a5eb7d",
            "0x0000000000000000000000000000000000000000000000000000000000000129"
          ],
          "data": "0x",
          "blockHash": "0x7a074169ef4e761775b6d70c2d5d71eccae46544ba80a5ccd3f45f52f28fc1a2",
          "blockNumber": "0x750732",
          "transactionHash": "0x96283c729d8fc99b9f81effbb58d7414efa7ec6f935ebf398150726dd6a6097f",
          "transactionIndex": "0x8",
          "logIndex": "0xe",
          "removed": false
        },
        {
          "address": "0x2e8af9c5922623058aa92a183b391e62cb6b2d12",
          "topics": [
            "0xf8e1a15aba9398e019f0b49df1a4fde98ee17ae345cb5f6b5e2c27f5033e8ce7"
          ],
          "data": "0x0000000000000000000000000000000000000000000000000000000000000129",
          "blockHash": "0x7a074169ef4e761775b6d70c2d5d71eccae46544ba80a5ccd3f45f52f28fc1a2",
          "blockNumber": "0x750732",
          "transactionHash": "0x96283c729d8fc99b9f81effbb58d7414efa7ec6f935ebf398150726dd6a6097f",
          "transactionIndex": "0x8",
          "logIndex": "0xf",
          "removed": false
        }
      ],
      "logsBloom": "0x0000000000000000000000000000000000000002000000000000000000000000000000000000000000000000000000000000000000000000000000000000000000000000000001000000000804000000000000000000000000000000000000000000000002000000000000000000080000200000000080000000001000000000000000000000000000000000000000000000000000000000000000000000000000000000000000000000000000000000200000000000400000000000000000c000000002000000000000000000000000000000000000000000000000000020000800000000000000200000000000000000000000100000000000000000000000",
      "type": "0x2",
      "transactionHash": "0x96283c729d8fc99b9f81effbb58d7414efa7ec6f935ebf398150726dd6a6097f",
      "transactionIndex": "0x8",
      "blockHash": "0x7a074169ef4e761775b6d70c2d5d71eccae46544ba80a5ccd3f45f52f28fc1a2",
      "blockNumber": "0x750732",
      "gasUsed": "0x2ccb8",
      "effectiveGasPrice": "0xfe",
      "from": "0xcda2fdb452ff4f5d7ba1c3d5dfcc9cb926a5eb7d",
      "to": "0x79dfbed14077b8f2421eece5707a17b161094e6a",
      "contractAddress": null,
      "l1BaseFeeScalar": "0x186a0",
      "l1BlobBaseFee": "0x1",
      "l1BlobBaseFeeScalar": "0x95506",
      "l1Fee": "0x925b315bbd",
      "l1GasPrice": "0xea2b822c",
      "l1GasUsed": "0x640"
    },
    {
      "status": "0x1",
      "cumulativeGasUsed": "0x19ddb7",
      "logs": [
        {
          "address": "0x2e8af9c5922623058aa92a183b391e62cb6b2d12",
          "topics": [
            "0xddf252ad1be2c89b69c2b068fc378daa952ba7f163c4a11628f55a4df523b3ef",
            "0x0000000000000000000000000000000000000000000000000000000000000000",
            "0x000000000000000000000000cda2fdb452ff4f5d7ba1c3d5dfcc9cb926a5eb7d",
            "0x000000000000000000000000000000000000000000000000000000000000012a"
          ],
          "data": "0x",
          "blockHash": "0x7a074169ef4e761775b6d70c2d5d71eccae46544ba80a5ccd3f45f52f28fc1a2",
          "blockNumber": "0x750732",
          "transactionHash": "0xf77324c0edeb2ead2ea71b3f405b2193bac96aafcafa520d5b9df2ca27d8cffc",
          "transactionIndex": "0x9",
          "logIndex": "0x10",
          "removed": false
        },
        {
          "address": "0x2e8af9c5922623058aa92a183b391e62cb6b2d12",
          "topics": [
            "0xf8e1a15aba9398e019f0b49df1a4fde98ee17ae345cb5f6b5e2c27f5033e8ce7"
          ],
          "data": "0x000000000000000000000000000000000000000000000000000000000000012a",
          "blockHash": "0x7a074169ef4e761775b6d70c2d5d71eccae46544ba80a5ccd3f45f52f28fc1a2",
          "blockNumber": "0x750732",
          "transactionHash": "0xf77324c0edeb2ead2ea71b3f405b2193bac96aafcafa520d5b9df2ca27d8cffc",
          "transactionIndex": "0x9",
          "logIndex": "0x11",
          "removed": false
        }
      ],
      "logsBloom": "0x00000000000000000000000000000000000000020000000000000000000000000000000000000000000000000000000000000000200000000000000000000000000800000000000000000008040000000000000000000000000000000000000000000000020000000000000000000800002000000000800000000010000000000000000000000000000000000000000000000000000000000000000000000000000000000000000000000000000000002000000000004000000000000000008000000002000000000000000000000000000000000000000000000000000060000000000000000000200000000000000000000000100000000000000000000000",
      "type": "0x2",
      "transactionHash": "0xf77324c0edeb2ead2ea71b3f405b2193bac96aafcafa520d5b9df2ca27d8cffc",
      "transactionIndex": "0x9",
      "blockHash": "0x7a074169ef4e761775b6d70c2d5d71eccae46544ba80a5ccd3f45f52f28fc1a2",
      "blockNumber": "0x750732",
      "gasUsed": "0x2ccb8",
      "effectiveGasPrice": "0xfe",
      "from": "0xcda2fdb452ff4f5d7ba1c3d5dfcc9cb926a5eb7d",
      "to": "0x79dfbed14077b8f2421eece5707a17b161094e6a",
      "contractAddress": null,
      "l1BaseFeeScalar": "0x186a0",
      "l1BlobBaseFee": "0x1",
      "l1BlobBaseFeeScalar": "0x95506",
      "l1Fee": "0x925b315bbd",
      "l1GasPrice": "0xea2b822c",
      "l1GasUsed": "0x640"
    },
    {
      "status": "0x1",
      "cumulativeGasUsed": "0x1caa6f",
      "logs": [
        {
          "address": "0x2e8af9c5922623058aa92a183b391e62cb6b2d12",
          "topics": [
            "0xddf252ad1be2c89b69c2b068fc378daa952ba7f163c4a11628f55a4df523b3ef",
            "0x0000000000000000000000000000000000000000000000000000000000000000",
            "0x000000000000000000000000cda2fdb452ff4f5d7ba1c3d5dfcc9cb926a5eb7d",
            "0x000000000000000000000000000000000000000000000000000000000000012b"
          ],
          "data": "0x",
          "blockHash": "0x7a074169ef4e761775b6d70c2d5d71eccae46544ba80a5ccd3f45f52f28fc1a2",
          "blockNumber": "0x750732",
          "transactionHash": "0x0039171eb7bdb6e18201ab5cab2b21b0056f193728be70ea74d82264bf6f3888",
          "transactionIndex": "0xa",
          "logIndex": "0x12",
          "removed": false
        },
        {
          "address": "0x2e8af9c5922623058aa92a183b391e62cb6b2d12",
          "topics": [
            "0xf8e1a15aba9398e019f0b49df1a4fde98ee17ae345cb5f6b5e2c27f5033e8ce7"
          ],
          "data": "0x000000000000000000000000000000000000000000000000000000000000012b",
          "blockHash": "0x7a074169ef4e761775b6d70c2d5d71eccae46544ba80a5ccd3f45f52f28fc1a2",
          "blockNumber": "0x750732",
          "transactionHash": "0x0039171eb7bdb6e18201ab5cab2b21b0056f193728be70ea74d82264bf6f3888",
          "transactionIndex": "0xa",
          "logIndex": "0x13",
          "removed": false
        }
      ],
      "logsBloom": "0x00000000000000000000000000000000000000020000000000000000000000000000004000000000000000000000000000000000000000000000000000000000000000000000000000000008040000000000000000000000000000000000000000000000020000000000000000000800002000000000800000000010000000000000000000000000000000000000000000000000000000000000000000000000000000000000001000000000000000002000000000004000000000000000008000000002000000000000000000040000000000000000000000000000000020000000000000000000200000000000000000000000100000000000000000000000",
      "type": "0x2",
      "transactionHash": "0x0039171eb7bdb6e18201ab5cab2b21b0056f193728be70ea74d82264bf6f3888",
      "transactionIndex": "0xa",
      "blockHash": "0x7a074169ef4e761775b6d70c2d5d71eccae46544ba80a5ccd3f45f52f28fc1a2",
      "blockNumber": "0x750732",
      "gasUsed": "0x2ccb8",
      "effectiveGasPrice": "0xfe",
      "from": "0xcda2fdb452ff4f5d7ba1c3d5dfcc9cb926a5eb7d",
      "to": "0x79dfbed14077b8f2421eece5707a17b161094e6a",
      "contractAddress": null,
      "l1BaseFeeScalar": "0x186a0",
      "l1BlobBaseFee": "0x1",
      "l1BlobBaseFeeScalar": "0x95506",
      "l1Fee": "0x925b315bbd",
      "l1GasPrice": "0xea2b822c",
      "l1GasUsed": "0x640"
    },
    {
      "status": "0x1",
      "cumulativeGasUsed": "0x1f7727",
      "logs": [
        {
          "address": "0x2e8af9c5922623058aa92a183b391e62cb6b2d12",
          "topics": [
            "0xddf252ad1be2c89b69c2b068fc378daa952ba7f163c4a11628f55a4df523b3ef",
            "0x0000000000000000000000000000000000000000000000000000000000000000",
            "0x000000000000000000000000cda2fdb452ff4f5d7ba1c3d5dfcc9cb926a5eb7d",
            "0x000000000000000000000000000000000000000000000000000000000000012c"
          ],
          "data": "0x",
          "blockHash": "0x7a074169ef4e761775b6d70c2d5d71eccae46544ba80a5ccd3f45f52f28fc1a2",
          "blockNumber": "0x750732",
          "transactionHash": "0x520b093e2649287c30a4053e21cb005e0c58a86b53a8ee6e0864a25a3b353f91",
          "transactionIndex": "0xb",
          "logIndex": "0x14",
          "removed": false
        },
        {
          "address": "0x2e8af9c5922623058aa92a183b391e62cb6b2d12",
          "topics": [
            "0xf8e1a15aba9398e019f0b49df1a4fde98ee17ae345cb5f6b5e2c27f5033e8ce7"
          ],
          "data": "0x000000000000000000000000000000000000000000000000000000000000012c",
          "blockHash": "0x7a074169ef4e761775b6d70c2d5d71eccae46544ba80a5ccd3f45f52f28fc1a2",
          "blockNumber": "0x750732",
          "transactionHash": "0x520b093e2649287c30a4053e21cb005e0c58a86b53a8ee6e0864a25a3b353f91",
          "transactionIndex": "0xb",
          "logIndex": "0x15",
          "removed": false
        }
      ],
      "logsBloom": "0x00040000000000000000000000000000000000021000000000000000000000000000000000000000000000000000000000000000000000000000000000000000000000000000000000000008040000000000000000000000000000000000000000000000020000000000000000000800002000000000800000000010000000000000000000000000000000000000000000000000000000000000000000000000000000000000000000000000000000002000000000004000000000000000008000000002000000000000000000000000000000000000000000000000000020000000000000000000200000000000080000000000100000000000000000000000",
      "type": "0x2",
      "transactionHash": "0x520b093e2649287c30a4053e21cb005e0c58a86b53a8ee6e0864a25a3b353f91",
      "transactionIndex": "0xb",
      "blockHash": "0x7a074169ef4e761775b6d70c2d5d71eccae46544ba80a5ccd3f45f52f28fc1a2",
      "blockNumber": "0x750732",
      "gasUsed": "0x2ccb8",
      "effectiveGasPrice": "0xfe",
      "from": "0xcda2fdb452ff4f5d7ba1c3d5dfcc9cb926a5eb7d",
      "to": "0x79dfbed14077b8f2421eece5707a17b161094e6a",
      "contractAddress": null,
      "l1BaseFeeScalar": "0x186a0",
      "l1BlobBaseFee": "0x1",
      "l1BlobBaseFeeScalar": "0x95506",
      "l1Fee": "0x925b315bbd",
      "l1GasPrice": "0xea2b822c",
      "l1GasUsed": "0x640"
    },
    {
      "status": "0x1",
      "cumulativeGasUsed": "0x377f7",
      "logs": [
        {
          "address": "0x2e8af9c5922623058aa92a183b391e62cb6b2d12",
          "topics": [
            "0xddf252ad1be2c89b69c2b068fc378daa952ba7f163c4a11628f55a4df523b3ef",
            "0x0000000000000000000000000000000000000000000000000000000000000000",
            "0x000000000000000000000000cda2fdb452ff4f5d7ba1c3d5dfcc9cb926a5eb7d",
            "0x000000000000000000000000000000000000000000000000000000000000012d"
          ],
          "data": "0x",
          "blockHash": "0x36ba020228bda110a7fdf205dec43805f9d8cac68e2aec9ec312321d61b52d6d",
          "blockNumber": "0x750733",
          "transactionHash": "0x2942080fa13dd18f6dd3d1158e9be363cd83f92f29ea9ef300aee7cc2f5f3af3",
          "transactionIndex": "0x1",
          "logIndex": "0x0",
          "removed": false
        },
        {
          "address": "0x2e8af9c5922623058aa92a183b391e62cb6b2d12",
          "topics": [
            "0xf8e1a15aba9398e019f0b49df1a4fde98ee17ae345cb5f6b5e2c27f5033e8ce7"
          ],
          "data": "0x000000000000000000000000000000000000000000000000000000000000012d",
          "blockHash": "0x36ba020228bda110a7fdf205dec43805f9d8cac68e2aec9ec312321d61b52d6d",
          "blockNumber": "0x750733",
          "transactionHash": "0x2942080fa13dd18f6dd3d1158e9be363cd83f92f29ea9ef300aee7cc2f5f3af3",
          "transactionIndex": "0x1",
          "logIndex": "0x1",
          "removed": false
        }
      ],
      "logsBloom": "0x00000000000000000000000000000000000000020000000000000000000000000000000000000000000000000000000000000000000000000000000000000000000000000000000000000008040000000000000000000000000000000000000000000000020000000000000000000800002000000000800000000010000000000000000000000000000000000000000000000000000000000000000000000000000000100000000000000000000000002000000000014000000000000000008000000002000000000000000000000000000000000000000004000000000020000000000000000000200000000000000000000000100000000000000000000000",
      "type": "0x2",
      "transactionHash": "0x2942080fa13dd18f6dd3d1158e9be363cd83f92f29ea9ef300aee7cc2f5f3af3",
      "transactionIndex": "0x1",
      "blockHash": "0x36ba020228bda110a7fdf205dec43805f9d8cac68e2aec9ec312321d61b52d6d",
      "blockNumber": "0x750733",
      "gasUsed": "0x2ccb8",
      "effectiveGasPrice": "0xfe",
      "from": "0xcda2fdb452ff4f5d7ba1c3d5dfcc9cb926a5eb7d",
      "to": "0x79dfbed14077b8f2421eece5707a17b161094e6a",
      "contractAddress": null,
      "l1BaseFeeScalar": "0x186a0",
      "l1BlobBaseFee": "0x1",
      "l1BlobBaseFeeScalar": "0x95506",
      "l1Fee": "0x925b315bbd",
      "l1GasPrice": "0xea2b822c",
      "l1GasUsed": "0x640"
    },
    {
      "status": "0x1",
      "cumulativeGasUsed": "0x644af",
      "logs": [
        {
          "address": "0x2e8af9c5922623058aa92a183b391e62cb6b2d12",
          "topics": [
            "0xddf252ad1be2c89b69c2b068fc378daa952ba7f163c4a11628f55a4df523b3ef",
            "0x0000000000000000000000000000000000000000000000000000000000000000",
            "0x000000000000000000000000cda2fdb452ff4f5d7ba1c3d5dfcc9cb926a5eb7d",
            "0x000000000000000000000000000000000000000000000000000000000000012e"
          ],
          "data": "0x",
          "blockHash": "0x36ba020228bda110a7fdf205dec43805f9d8cac68e2aec9ec312321d61b52d6d",
          "blockNumber": "0x750733",
          "transactionHash": "0x875ba291e427365075d54e4d1aa93537112e2f0e12299b422c63d3991a80afcc",
          "transactionIndex": "0x2",
          "logIndex": "0x2",
          "removed": false
        },
        {
          "address": "0x2e8af9c5922623058aa92a183b391e62cb6b2d12",
          "topics": [
            "0xf8e1a15aba9398e019f0b49df1a4fde98ee17ae345cb5f6b5e2c27f5033e8ce7"
          ],
          "data": "0x000000000000000000000000000000000000000000000000000000000000012e",
          "blockHash": "0x36ba020228bda110a7fdf205dec43805f9d8cac68e2aec9ec312321d61b52d6d",
          "blockNumber": "0x750733",
          "transactionHash": "0x875ba291e427365075d54e4d1aa93537112e2f0e12299b422c63d3991a80afcc",
          "transactionIndex": "0x2",
          "logIndex": "0x3",
          "removed": false
        }
      ],
      "logsBloom": "0x00000000000000000000000000000000000000020000000000000000000000000000000000000000000000000000000000000000000000000000000000000000000000000000000000000408840000000000000000000000000000000000200000000000020000000000000000000800002000000000800000000010000000000000000000000000000000000000000000000000000000000000000000000000000000000000000000000000000000002000000000004000000000000000008000000002000000000000000000000000000000000000000000000000000020000000000000000000200000000000000000000000100000000000000000000000",
      "type": "0x2",
      "transactionHash": "0x875ba291e427365075d54e4d1aa93537112e2f0e12299b422c63d3991a80afcc",
      "transactionIndex": "0x2",
      "blockHash": "0x36ba020228bda110a7fdf205dec43805f9d8cac68e2aec9ec312321d61b52d6d",
      "blockNumber": "0x750733",
      "gasUsed": "0x2ccb8",
      "effectiveGasPrice": "0xfe",
      "from": "0xcda2fdb452ff4f5d7ba1c3d5dfcc9cb926a5eb7d",
      "to": "0x79dfbed14077b8f2421eece5707a17b161094e6a",
      "contractAddress": null,
      "l1BaseFeeScalar": "0x186a0",
      "l1BlobBaseFee": "0x1",
      "l1BlobBaseFeeScalar": "0x95506",
      "l1Fee": "0x925b315bbd",
      "l1GasPrice": "0xea2b822c",
      "l1GasUsed": "0x640"
    },
    {
      "status": "0x1",
      "cumulativeGasUsed": "0x91167",
      "logs": [
        {
          "address": "0x2e8af9c5922623058aa92a183b391e62cb6b2d12",
          "topics": [
            "0xddf252ad1be2c89b69c2b068fc378daa952ba7f163c4a11628f55a4df523b3ef",
            "0x0000000000000000000000000000000000000000000000000000000000000000",
            "0x000000000000000000000000cda2fdb452ff4f5d7ba1c3d5dfcc9cb926a5eb7d",
            "0x000000000000000000000000000000000000000000000000000000000000012f"
          ],
          "data": "0x",
          "blockHash": "0x36ba020228bda110a7fdf205dec43805f9d8cac68e2aec9ec312321d61b52d6d",
          "blockNumber": "0x750733",
          "transactionHash": "0x83887aac458e4c6265d48371df40c04bf7227495a64e9a14f1d0cdfbd60a3987",
          "transactionIndex": "0x3",
          "logIndex": "0x4",
          "removed": false
        },
        {
          "address": "0x2e8af9c5922623058aa92a183b391e62cb6b2d12",
          "topics": [
            "0xf8e1a15aba9398e019f0b49df1a4fde98ee17ae345cb5f6b5e2c27f5033e8ce7"
          ],
          "data": "0x000000000000000000000000000000000000000000000000000000000000012f",
          "blockHash": "0x36ba020228bda110a7fdf205dec43805f9d8cac68e2aec9ec312321d61b52d6d",
          "blockNumber": "0x750733",
          "transactionHash": "0x83887aac458e4c6265d48371df40c04bf7227495a64e9a14f1d0cdfbd60a3987",
          "transactionIndex": "0x3",
          "logIndex": "0x5",
          "removed": false
        }
      ],
      "logsBloom": "0x00000000000000000000000000000000000000020000000000000000000000000000000000000000000000000000000000000000000000000000000000000000000000000000000000002008040000000000000000000000000000000000000000000000020000000000000000000800002000000000800000000010000000000000000000000000000000000000000000000000000000000000200000000000000000000000000000000000000000002000000000004000000000000000008000000022000000000000000000000000000000000000000000000000000020000000000000000000200000000000000000000000100000000000000000000000",
      "type": "0x2",
      "transactionHash": "0x83887aac458e4c6265d48371df40c04bf7227495a64e9a14f1d0cdfbd60a3987",
      "transactionIndex": "0x3",
      "blockHash": "0x36ba020228bda110a7fdf205dec43805f9d8cac68e2aec9ec312321d61b52d6d",
      "blockNumber": "0x750733",
      "gasUsed": "0x2ccb8",
      "effectiveGasPrice": "0xfe",
      "from": "0xcda2fdb452ff4f5d7ba1c3d5dfcc9cb926a5eb7d",
      "to": "0x79dfbed14077b8f2421eece5707a17b161094e6a",
      "contractAddress": null,
      "l1BaseFeeScalar": "0x186a0",
      "l1BlobBaseFee": "0x1",
      "l1BlobBaseFeeScalar": "0x95506",
      "l1Fee": "0x925b315bbd",
      "l1GasPrice": "0xea2b822c",
      "l1GasUsed": "0x640"
    },
    {
      "status": "0x1",
      "cumulativeGasUsed": "0xbde1f",
      "logs": [
        {
          "address": "0x2e8af9c5922623058aa92a183b391e62cb6b2d12",
          "topics": [
            "0xddf252ad1be2c89b69c2b068fc378daa952ba7f163c4a11628f55a4df523b3ef",
            "0x0000000000000000000000000000000000000000000000000000000000000000",
            "0x000000000000000000000000cda2fdb452ff4f5d7ba1c3d5dfcc9cb926a5eb7d",
            "0x0000000000000000000000000000000000000000000000000000000000000130"
          ],
          "data": "0x",
          "blockHash": "0x36ba020228bda110a7fdf205dec43805f9d8cac68e2aec9ec312321d61b52d6d",
          "blockNumber": "0x750733",
          "transactionHash": "0x3777ce9f94e5c9f56f2182d3e2324a0a66d808c5165ed0553097d845eaedb47f",
          "transactionIndex": "0x4",
          "logIndex": "0x6",
          "removed": false
        },
        {
          "address": "0x2e8af9c5922623058aa92a183b391e62cb6b2d12",
          "topics": [
            "0xf8e1a15aba9398e019f0b49df1a4fde98ee17ae345cb5f6b5e2c27f5033e8ce7"
          ],
          "data": "0x0000000000000000000000000000000000000000000000000000000000000130",
          "blockHash": "0x36ba020228bda110a7fdf205dec43805f9d8cac68e2aec9ec312321d61b52d6d",
          "blockNumber": "0x750733",
          "transactionHash": "0x3777ce9f94e5c9f56f2182d3e2324a0a66d808c5165ed0553097d845eaedb47f",
          "transactionIndex": "0x4",
          "logIndex": "0x7",
          "removed": false
        }
      ],
      "logsBloom": "0x00000000000000000000040000000000000000030000000000000000000000000000000000000000000000000000000000000000000000000000000000000100000000000000000000000008040000000000000000000000000000000000000000000000020000000000000000000800002000000000800000000010000000000000000000000000000000000000000000000000000000000000000000000000000000000000000000000000000000002000000000004000000000000000008000000002000000000000000000000000000000000000000000000000000020000000000000000000200000000000000000000000100000000000000000000000",
      "type": "0x2",
      "transactionHash": "0x3777ce9f94e5c9f56f2182d3e2324a0a66d808c5165ed0553097d845eaedb47f",
      "transactionIndex": "0x4",
      "blockHash": "0x36ba020228bda110a7fdf205dec43805f9d8cac68e2aec9ec312321d61b52d6d",
      "blockNumber": "0x750733",
      "gasUsed": "0x2ccb8",
      "effectiveGasPrice": "0xfe",
      "from": "0xcda2fdb452ff4f5d7ba1c3d5dfcc9cb926a5eb7d",
      "to": "0x79dfbed14077b8f2421eece5707a17b161094e6a",
      "contractAddress": null,
      "l1BaseFeeScalar": "0x186a0",
      "l1BlobBaseFee": "0x1",
      "l1BlobBaseFeeScalar": "0x95506",
      "l1Fee": "0x925b315bbd",
      "l1GasPrice": "0xea2b822c",
      "l1GasUsed": "0x640"
    },
    {
      "status": "0x1",
      "cumulativeGasUsed": "0xeaad7",
      "logs": [
        {
          "address": "0x2e8af9c5922623058aa92a183b391e62cb6b2d12",
          "topics": [
            "0xddf252ad1be2c89b69c2b068fc378daa952ba7f163c4a11628f55a4df523b3ef",
            "0x0000000000000000000000000000000000000000000000000000000000000000",
            "0x000000000000000000000000cda2fdb452ff4f5d7ba1c3d5dfcc9cb926a5eb7d",
            "0x0000000000000000000000000000000000000000000000000000000000000131"
          ],
          "data": "0x",
          "blockHash": "0x36ba020228bda110a7fdf205dec43805f9d8cac68e2aec9ec312321d61b52d6d",
          "blockNumber": "0x750733",
          "transactionHash": "0xedb59d3c21c0e4948f14f8c2ac5587cff50b21d72ad2f95790e9147b2b9ff914",
          "transactionIndex": "0x5",
          "logIndex": "0x8",
          "removed": false
        },
        {
          "address": "0x2e8af9c5922623058aa92a183b391e62cb6b2d12",
          "topics": [
            "0xf8e1a15aba9398e019f0b49df1a4fde98ee17ae345cb5f6b5e2c27f5033e8ce7"
          ],
          "data": "0x0000000000000000000000000000000000000000000000000000000000000131",
          "blockHash": "0x36ba020228bda110a7fdf205dec43805f9d8cac68e2aec9ec312321d61b52d6d",
          "blockNumber": "0x750733",
          "transactionHash": "0xedb59d3c21c0e4948f14f8c2ac5587cff50b21d72ad2f95790e9147b2b9ff914",
          "transactionIndex": "0x5",
          "logIndex": "0x9",
          "removed": false
        }
      ],
      "logsBloom": "0x000000000000000000000000000000000000000200000000000000000000000000000000000000000000000000000000000000000000000000000000000000000000000000000000000000080500000000000000000000000000000000000000000000000a0000000000000000000800002000000000800000000010000000000000000000000000000000000000000000000000000000000000000000000000000000000040000000000000000000002000000000004000000000000000008000000002000000000000000000000000000000000000000000000000000020000000000000000000200000000000000000000000100000000000000000000000",
      "type": "0x2",
      "transactionHash": "0xedb59d3c21c0e4948f14f8c2ac5587cff50b21d72ad2f95790e9147b2b9ff914",
      "transactionIndex": "0x5",
      "blockHash": "0x36ba020228bda110a7fdf205dec43805f9d8cac68e2aec9ec312321d61b52d6d",
      "blockNumber": "0x750733",
      "gasUsed": "0x2ccb8",
      "effectiveGasPrice": "0xfe",
      "from": "0xcda2fdb452ff4f5d7ba1c3d5dfcc9cb926a5eb7d",
      "to": "0x79dfbed14077b8f2421eece5707a17b161094e6a",
      "contractAddress": null,
      "l1BaseFeeScalar": "0x186a0",
      "l1BlobBaseFee": "0x1",
      "l1BlobBaseFeeScalar": "0x95506",
      "l1Fee": "0x925b315bbd",
      "l1GasPrice": "0xea2b822c",
      "l1GasUsed": "0x640"
    },
    {
      "status": "0x1",
      "cumulativeGasUsed": "0x11778f",
      "logs": [
        {
          "address": "0x2e8af9c5922623058aa92a183b391e62cb6b2d12",
          "topics": [
            "0xddf252ad1be2c89b69c2b068fc378daa952ba7f163c4a11628f55a4df523b3ef",
            "0x0000000000000000000000000000000000000000000000000000000000000000",
            "0x000000000000000000000000cda2fdb452ff4f5d7ba1c3d5dfcc9cb926a5eb7d",
            "0x0000000000000000000000000000000000000000000000000000000000000132"
          ],
          "data": "0x",
          "blockHash": "0x36ba020228bda110a7fdf205dec43805f9d8cac68e2aec9ec312321d61b52d6d",
          "blockNumber": "0x750733",
          "transactionHash": "0x6988a2334cbddf96ee2b1f0f8d27688b79e7a74b6c804ffa811cc5141bd551cd",
          "transactionIndex": "0x6",
          "logIndex": "0xa",
          "removed": false
        },
        {
          "address": "0x2e8af9c5922623058aa92a183b391e62cb6b2d12",
          "topics": [
            "0xf8e1a15aba9398e019f0b49df1a4fde98ee17ae345cb5f6b5e2c27f5033e8ce7"
          ],
          "data": "0x0000000000000000000000000000000000000000000000000000000000000132",
          "blockHash": "0x36ba020228bda110a7fdf205dec43805f9d8cac68e2aec9ec312321d61b52d6d",
          "blockNumber": "0x750733",
          "transactionHash": "0x6988a2334cbddf96ee2b1f0f8d27688b79e7a74b6c804ffa811cc5141bd551cd",
          "transactionIndex": "0x6",
          "logIndex": "0xb",
          "removed": false
        }
      ],
      "logsBloom": "0x00000000001000000000000000000000000000020000000000000000000000000000000000000000000000000000000000000000000000000000000000000000000000000000000000000008040000000000000000000000080000000000000000000000020000000000000000000800002000000000800000000010000000000000000000000000000000000000000000000000000000000000000000000000000000000000000000000000000000002000000000004000000000000400008000000002000000000000000000000000000000000000000000000000000020000000000000000000200000000000000000000000100000000000000000000000",
      "type": "0x2",
      "transactionHash": "0x6988a2334cbddf96ee2b1f0f8d27688b79e7a74b6c804ffa811cc5141bd551cd",
      "transactionIndex": "0x6",
      "blockHash": "0x36ba020228bda110a7fdf205dec43805f9d8cac68e2aec9ec312321d61b52d6d",
      "blockNumber": "0x750733",
      "gasUsed": "0x2ccb8",
      "effectiveGasPrice": "0xfe",
      "from": "0xcda2fdb452ff4f5d7ba1c3d5dfcc9cb926a5eb7d",
      "to": "0x79dfbed14077b8f2421eece5707a17b161094e6a",
      "contractAddress": null,
      "l1BaseFeeScalar": "0x186a0",
      "l1BlobBaseFee": "0x1",
      "l1BlobBaseFeeScalar": "0x95506",
      "l1Fee": "0x925b315bbd",
      "l1GasPrice": "0xea2b822c",
      "l1GasUsed": "0x640"
    },
    {
      "status": "0x1",
      "cumulativeGasUsed": "0x144447",
      "logs": [
        {
          "address": "0x2e8af9c5922623058aa92a183b391e62cb6b2d12",
          "topics": [
            "0xddf252ad1be2c89b69c2b068fc378daa952ba7f163c4a11628f55a4df523b3ef",
            "0x0000000000000000000000000000000000000000000000000000000000000000",
            "0x000000000000000000000000cda2fdb452ff4f5d7ba1c3d5dfcc9cb926a5eb7d",
            "0x0000000000000000000000000000000000000000000000000000000000000133"
          ],
          "data": "0x",
          "blockHash": "0x36ba020228bda110a7fdf205dec43805f9d8cac68e2aec9ec312321d61b52d6d",
          "blockNumber": "0x750733",
          "transactionHash": "0x6f8c187412dd7968361f1e84a034532e8c4b839dfc82a073eb84f47b9c185ed6",
          "transactionIndex": "0x7",
          "logIndex": "0xc",
          "removed": false
        },
        {
          "address": "0x2e8af9c5922623058aa92a183b391e62cb6b2d12",
          "topics": [
            "0xf8e1a15aba9398e019f0b49df1a4fde98ee17ae345cb5f6b5e2c27f5033e8ce7"
          ],
          "data": "0x0000000000000000000000000000000000000000000000000000000000000133",
          "blockHash": "0x36ba020228bda110a7fdf205dec43805f9d8cac68e2aec9ec312321d61b52d6d",
          "blockNumber": "0x750733",
          "transactionHash": "0x6f8c187412dd7968361f1e84a034532e8c4b839dfc82a073eb84f47b9c185ed6",
          "transactionIndex": "0x7",
          "logIndex": "0xd",
          "removed": false
        }
      ],
      "logsBloom": "0x00000000000000000200000000000000000000020000000000000000000000000000000000000000000000000000000000000000000000000000000000000000000000000000000000000008040000000000000000000000000400000000000000000000020000000000000000000800002000000000800000000010000000000000000000000000000000000000000000000000000000000000000000000000000002000000000000000000000000002000000000004000000000000000008000000002000000000000000000000000000000000000000000000000000020000000000000000000200000000000000000000000100000000000000000000000",
      "type": "0x2",
      "transactionHash": "0x6f8c187412dd7968361f1e84a034532e8c4b839dfc82a073eb84f47b9c185ed6",
      "transactionIndex": "0x7",
      "blockHash": "0x36ba020228bda110a7fdf205dec43805f9d8cac68e2aec9ec312321d61b52d6d",
      "blockNumber": "0x750733",
      "gasUsed": "0x2ccb8",
      "effectiveGasPrice": "0xfe",
      "from": "0xcda2fdb452ff4f5d7ba1c3d5dfcc9cb926a5eb7d",
      "to": "0x79dfbed14077b8f2421eece5707a17b161094e6a",
      "contractAddress": null,
      "l1BaseFeeScalar": "0x186a0",
      "l1BlobBaseFee": "0x1",
      "l1BlobBaseFeeScalar": "0x95506",
      "l1Fee": "0x925b315bbd",
      "l1GasPrice": "0xea2b822c",
      "l1GasUsed": "0x640"
    },
    {
      "status": "0x1",
      "cumulativeGasUsed": "0x1710ff",
      "logs": [
        {
          "address": "0x2e8af9c5922623058aa92a183b391e62cb6b2d12",
          "topics": [
            "0xddf252ad1be2c89b69c2b068fc378daa952ba7f163c4a11628f55a4df523b3ef",
            "0x0000000000000000000000000000000000000000000000000000000000000000",
            "0x000000000000000000000000cda2fdb452ff4f5d7ba1c3d5dfcc9cb926a5eb7d",
            "0x0000000000000000000000000000000000000000000000000000000000000134"
          ],
          "data": "0x",
          "blockHash": "0x36ba020228bda110a7fdf205dec43805f9d8cac68e2aec9ec312321d61b52d6d",
          "blockNumber": "0x750733",
          "transactionHash": "0x9a7b09939c92ddca5ca3d1d3ca2dbd0298571ac68bf396837f302131533fb63b",
          "transactionIndex": "0x8",
          "logIndex": "0xe",
          "removed": false
        },
        {
          "address": "0x2e8af9c5922623058aa92a183b391e62cb6b2d12",
          "topics": [
            "0xf8e1a15aba9398e019f0b49df1a4fde98ee17ae345cb5f6b5e2c27f5033e8ce7"
          ],
          "data": "0x0000000000000000000000000000000000000000000000000000000000000134",
          "blockHash": "0x36ba020228bda110a7fdf205dec43805f9d8cac68e2aec9ec312321d61b52d6d",
          "blockNumber": "0x750733",
          "transactionHash": "0x9a7b09939c92ddca5ca3d1d3ca2dbd0298571ac68bf396837f302131533fb63b",
          "transactionIndex": "0x8",
          "logIndex": "0xf",
          "removed": false
        }
      ],
      "logsBloom": "0x00000000000000000000000000000000000000020000000000000000000000000000000000000000000000000000000000000000000000000000000000000000000000000000000000000008040000000000000000000000000000000000000000000000020000000000000000000800002000000000800000000010000000000000000000000000000000000000000000000000000000000000000000000000000000000000000000000000000000002000020000004000000000000000008000000002000000200000000000000000000000000000000000000000000020004000000000000000200000000000000000000000100000000000000000000000",
      "type": "0x2",
      "transactionHash": "0x9a7b09939c92ddca5ca3d1d3ca2dbd0298571ac68bf396837f302131533fb63b",
      "transactionIndex": "0x8",
      "blockHash": "0x36ba020228bda110a7fdf205dec43805f9d8cac68e2aec9ec312321d61b52d6d",
      "blockNumber": "0x750733",
      "gasUsed": "0x2ccb8",
      "effectiveGasPrice": "0xfe",
      "from": "0xcda2fdb452ff4f5d7ba1c3d5dfcc9cb926a5eb7d",
      "to": "0x79dfbed14077b8f2421eece5707a17b161094e6a",
      "contractAddress": null,
      "l1BaseFeeScalar": "0x186a0",
      "l1BlobBaseFee": "0x1",
      "l1BlobBaseFeeScalar": "0x95506",
      "l1Fee": "0x925b315bbd",
      "l1GasPrice": "0xea2b822c",
      "l1GasUsed": "0x640"
    },
    {
      "status": "0x1",
      "cumulativeGasUsed": "0x19ddb7",
      "logs": [
        {
          "address": "0x2e8af9c5922623058aa92a183b391e62cb6b2d12",
          "topics": [
            "0xddf252ad1be2c89b69c2b068fc378daa952ba7f163c4a11628f55a4df523b3ef",
            "0x0000000000000000000000000000000000000000000000000000000000000000",
            "0x000000000000000000000000cda2fdb452ff4f5d7ba1c3d5dfcc9cb926a5eb7d",
            "0x0000000000000000000000000000000000000000000000000000000000000135"
          ],
          "data": "0x",
          "blockHash": "0x36ba020228bda110a7fdf205dec43805f9d8cac68e2aec9ec312321d61b52d6d",
          "blockNumber": "0x750733",
          "transactionHash": "0xd392a3353fff41d8524dc7d0d58a005aa1877865ecec96e694e92a2d5f92e636",
          "transactionIndex": "0x9",
          "logIndex": "0x10",
          "removed": false
        },
        {
          "address": "0x2e8af9c5922623058aa92a183b391e62cb6b2d12",
          "topics": [
            "0xf8e1a15aba9398e019f0b49df1a4fde98ee17ae345cb5f6b5e2c27f5033e8ce7"
          ],
          "data": "0x0000000000000000000000000000000000000000000000000000000000000135",
          "blockHash": "0x36ba020228bda110a7fdf205dec43805f9d8cac68e2aec9ec312321d61b52d6d",
          "blockNumber": "0x750733",
          "transactionHash": "0xd392a3353fff41d8524dc7d0d58a005aa1877865ecec96e694e92a2d5f92e636",
          "transactionIndex": "0x9",
          "logIndex": "0x11",
          "removed": false
        }
      ],
      "logsBloom": "0x00000000000000000000000000000000000000020000000000800000000000000000000000000000000000000000000000000000000000000000000000000000000000000000000000000008040000000000000000000000000000000000000000000000020000000000000000000800002000000000800000000010000000000000000000000000000000000000000000000000000000000000000000000000000000000000000000000000000000006000000000004000000000000000008000000002000000000000000000000000000000000000000000000000000020000000000800000000200000000000000000000000100000000000000000000000",
      "type": "0x2",
      "transactionHash": "0xd392a3353fff41d8524dc7d0d58a005aa1877865ecec96e694e92a2d5f92e636",
      "transactionIndex": "0x9",
      "blockHash": "0x36ba020228bda110a7fdf205dec43805f9d8cac68e2aec9ec312321d61b52d6d",
      "blockNumber": "0x750733",
      "gasUsed": "0x2ccb8",
      "effectiveGasPrice": "0xfe",
      "from": "0xcda2fdb452ff4f5d7ba1c3d5dfcc9cb926a5eb7d",
      "to": "0x79dfbed14077b8f2421eece5707a17b161094e6a",
      "contractAddress": null,
      "l1BaseFeeScalar": "0x186a0",
      "l1BlobBaseFee": "0x1",
      "l1BlobBaseFeeScalar": "0x95506",
      "l1Fee": "0x925b315bbd",
      "l1GasPrice": "0xea2b822c",
      "l1GasUsed": "0x640"
    },
    {
      "status": "0x1",
      "cumulativeGasUsed": "0x1caa6f",
      "logs": [
        {
          "address": "0x2e8af9c5922623058aa92a183b391e62cb6b2d12",
          "topics": [
            "0xddf252ad1be2c89b69c2b068fc378daa952ba7f163c4a11628f55a4df523b3ef",
            "0x0000000000000000000000000000000000000000000000000000000000000000",
            "0x000000000000000000000000cda2fdb452ff4f5d7ba1c3d5dfcc9cb926a5eb7d",
            "0x0000000000000000000000000000000000000000000000000000000000000136"
          ],
          "data": "0x",
          "blockHash": "0x36ba020228bda110a7fdf205dec43805f9d8cac68e2aec9ec312321d61b52d6d",
          "blockNumber": "0x750733",
          "transactionHash": "0x9b0cec317c853a485df5432c1059a1ff3514414a4c462a7d795ecdfb1f9aa1a6",
          "transactionIndex": "0xa",
          "logIndex": "0x12",
          "removed": false
        },
        {
          "address": "0x2e8af9c5922623058aa92a183b391e62cb6b2d12",
          "topics": [
            "0xf8e1a15aba9398e019f0b49df1a4fde98ee17ae345cb5f6b5e2c27f5033e8ce7"
          ],
          "data": "0x0000000000000000000000000000000000000000000000000000000000000136",
          "blockHash": "0x36ba020228bda110a7fdf205dec43805f9d8cac68e2aec9ec312321d61b52d6d",
          "blockNumber": "0x750733",
          "transactionHash": "0x9b0cec317c853a485df5432c1059a1ff3514414a4c462a7d795ecdfb1f9aa1a6",
          "transactionIndex": "0xa",
          "logIndex": "0x13",
          "removed": false
        }
      ],
      "logsBloom": "0x00000000000000000000000000000000000000020000000000000000000000000000000000000000000000000000000000000000000000000000000000000000000000000000000000080008040000000000000000000000000000000008000000000000020000000000000000000800002000000000800000000010000000000000000000000000000000000000000000000000000000000000000000000000000000000000000000000000000000002000000000004000000000000000008000000002040000000000000000000000000000000000000000000000000020000000000000000000200000000000000000000000100000000000000000000000",
      "type": "0x2",
      "transactionHash": "0x9b0cec317c853a485df5432c1059a1ff3514414a4c462a7d795ecdfb1f9aa1a6",
      "transactionIndex": "0xa",
      "blockHash": "0x36ba020228bda110a7fdf205dec43805f9d8cac68e2aec9ec312321d61b52d6d",
      "blockNumber": "0x750733",
      "gasUsed": "0x2ccb8",
      "effectiveGasPrice": "0xfe",
      "from": "0xcda2fdb452ff4f5d7ba1c3d5dfcc9cb926a5eb7d",
      "to": "0x79dfbed14077b8f2421eece5707a17b161094e6a",
      "contractAddress": null,
      "l1BaseFeeScalar": "0x186a0",
      "l1BlobBaseFee": "0x1",
      "l1BlobBaseFeeScalar": "0x95506",
      "l1Fee": "0x925b315bbd",
      "l1GasPrice": "0xea2b822c",
      "l1GasUsed": "0x640"
    },
    {
      "status": "0x1",
      "cumulativeGasUsed": "0x1f7727",
      "logs": [
        {
          "address": "0x2e8af9c5922623058aa92a183b391e62cb6b2d12",
          "topics": [
            "0xddf252ad1be2c89b69c2b068fc378daa952ba7f163c4a11628f55a4df523b3ef",
            "0x0000000000000000000000000000000000000000000000000000000000000000",
            "0x000000000000000000000000cda2fdb452ff4f5d7ba1c3d5dfcc9cb926a5eb7d",
            "0x0000000000000000000000000000000000000000000000000000000000000137"
          ],
          "data": "0x",
          "blockHash": "0x36ba020228bda110a7fdf205dec43805f9d8cac68e2aec9ec312321d61b52d6d",
          "blockNumber": "0x750733",
          "transactionHash": "0x91cc6c0519699e818188296f7d835be01ee40ef647f3c7ea56029b7268368548",
          "transactionIndex": "0xb",
          "logIndex": "0x14",
          "removed": false
        },
        {
          "address": "0x2e8af9c5922623058aa92a183b391e62cb6b2d12",
          "topics": [
            "0xf8e1a15aba9398e019f0b49df1a4fde98ee17ae345cb5f6b5e2c27f5033e8ce7"
          ],
          "data": "0x0000000000000000000000000000000000000000000000000000000000000137",
          "blockHash": "0x36ba020228bda110a7fdf205dec43805f9d8cac68e2aec9ec312321d61b52d6d",
          "blockNumber": "0x750733",
          "transactionHash": "0x91cc6c0519699e818188296f7d835be01ee40ef647f3c7ea56029b7268368548",
          "transactionIndex": "0xb",
          "logIndex": "0x15",
          "removed": false
        }
      ],
      "logsBloom": "0x00000000000000000000000000000000000000020000000000000000000000000000000000000000000000000000000000000000000000000000000000000000000000000000000000000008040000000000000000000000000000000000000000000000020000000000000000000800002000000000800000000010000000000000000010000000000000000000000000000002000000000000000000000000000000000000000000000000000000002000000000004000000000000000008000000002000000000000000000000000000000000000000000000000000020000000000000000000200000000000000000000000100008000000000000000000",
      "type": "0x2",
      "transactionHash": "0x91cc6c0519699e818188296f7d835be01ee40ef647f3c7ea56029b7268368548",
      "transactionIndex": "0xb",
      "blockHash": "0x36ba020228bda110a7fdf205dec43805f9d8cac68e2aec9ec312321d61b52d6d",
      "blockNumber": "0x750733",
      "gasUsed": "0x2ccb8",
      "effectiveGasPrice": "0xfe",
      "from": "0xcda2fdb452ff4f5d7ba1c3d5dfcc9cb926a5eb7d",
      "to": "0x79dfbed14077b8f2421eece5707a17b161094e6a",
      "contractAddress": null,
      "l1BaseFeeScalar": "0x186a0",
      "l1BlobBaseFee": "0x1",
      "l1BlobBaseFeeScalar": "0x95506",
      "l1Fee": "0x925b315bbd",
      "l1GasPrice": "0xea2b822c",
      "l1GasUsed": "0x640"
    },
    {
      "status": "0x1",
      "cumulativeGasUsed": "0x2243df",
      "logs": [
        {
          "address": "0x2e8af9c5922623058aa92a183b391e62cb6b2d12",
          "topics": [
            "0xddf252ad1be2c89b69c2b068fc378daa952ba7f163c4a11628f55a4df523b3ef",
            "0x0000000000000000000000000000000000000000000000000000000000000000",
            "0x000000000000000000000000cda2fdb452ff4f5d7ba1c3d5dfcc9cb926a5eb7d",
            "0x0000000000000000000000000000000000000000000000000000000000000138"
          ],
          "data": "0x",
          "blockHash": "0x36ba020228bda110a7fdf205dec43805f9d8cac68e2aec9ec312321d61b52d6d",
          "blockNumber": "0x750733",
          "transactionHash": "0xf98c60d4d4355c9aee31df9fe281fce59fca05b5d906ce229a0363074481174d",
          "transactionIndex": "0xc",
          "logIndex": "0x16",
          "removed": false
        },
        {
          "address": "0x2e8af9c5922623058aa92a183b391e62cb6b2d12",
          "topics": [
            "0xf8e1a15aba9398e019f0b49df1a4fde98ee17ae345cb5f6b5e2c27f5033e8ce7"
          ],
          "data": "0x0000000000000000000000000000000000000000000000000000000000000138",
          "blockHash": "0x36ba020228bda110a7fdf205dec43805f9d8cac68e2aec9ec312321d61b52d6d",
          "blockNumber": "0x750733",
          "transactionHash": "0xf98c60d4d4355c9aee31df9fe281fce59fca05b5d906ce229a0363074481174d",
          "transactionIndex": "0xc",
          "logIndex": "0x17",
          "removed": false
        }
      ],
      "logsBloom": "0x00000000000000000000000004000000000000020000000000000000000000000000000000000000000000000000000000000000000000000000000000000000000000000000000000000008040000000000000000000000000000000000000000000000020000000000000000000801002000000000800000000010000000000000000010000000000000000000000000000000000000000000000000000000000000000000000000000000000000002000000000004000000000000000008000000002000000000000000000000000000000000000000000000000000020000000000000000000200000000000000000000000100000000000000000000000",
      "type": "0x2",
      "transactionHash": "0xf98c60d4d4355c9aee31df9fe281fce59fca05b5d906ce229a0363074481174d",
      "transactionIndex": "0xc",
      "blockHash": "0x36ba020228bda110a7fdf205dec43805f9d8cac68e2aec9ec312321d61b52d6d",
      "blockNumber": "0x750733",
      "gasUsed": "0x2ccb8",
      "effectiveGasPrice": "0xfe",
      "from": "0xcda2fdb452ff4f5d7ba1c3d5dfcc9cb926a5eb7d",
      "to": "0x79dfbed14077b8f2421eece5707a17b161094e6a",
      "contractAddress": null,
      "l1BaseFeeScalar": "0x186a0",
      "l1BlobBaseFee": "0x1",
      "l1BlobBaseFeeScalar": "0x95506",
      "l1Fee": "0x925b315bbd",
      "l1GasPrice": "0xea2b822c",
      "l1GasUsed": "0x640"
    },
    {
      "status": "0x1",
      "cumulativeGasUsed": "0x251097",
      "logs": [
        {
          "address": "0x2e8af9c5922623058aa92a183b391e62cb6b2d12",
          "topics": [
            "0xddf252ad1be2c89b69c2b068fc378daa952ba7f163c4a11628f55a4df523b3ef",
            "0x0000000000000000000000000000000000000000000000000000000000000000",
            "0x000000000000000000000000cda2fdb452ff4f5d7ba1c3d5dfcc9cb926a5eb7d",
            "0x0000000000000000000000000000000000000000000000000000000000000139"
          ],
          "data": "0x",
          "blockHash": "0x36ba020228bda110a7fdf205dec43805f9d8cac68e2aec9ec312321d61b52d6d",
          "blockNumber": "0x750733",
          "transactionHash": "0x3d802507ab525df811bbcbecb182247c642860dd6cbe56cfeabe5776527c588d",
          "transactionIndex": "0xd",
          "logIndex": "0x18",
          "removed": false
        },
        {
          "address": "0x2e8af9c5922623058aa92a183b391e62cb6b2d12",
          "topics": [
            "0xf8e1a15aba9398e019f0b49df1a4fde98ee17ae345cb5f6b5e2c27f5033e8ce7"
          ],
          "data": "0x0000000000000000000000000000000000000000000000000000000000000139",
          "blockHash": "0x36ba020228bda110a7fdf205dec43805f9d8cac68e2aec9ec312321d61b52d6d",
          "blockNumber": "0x750733",
          "transactionHash": "0x3d802507ab525df811bbcbecb182247c642860dd6cbe56cfeabe5776527c588d",
          "transactionIndex": "0xd",
          "logIndex": "0x19",
          "removed": false
        }
      ],
      "logsBloom": "0x00000000000000000000000000000000000000020000000000000000000000000000000000000000000000000000000000000000000000000000000000000000000000000000000000000008040000000000200000000000000000000000000000000000020000000000000000000800002000000000800000000010000000000000000000000000000000000000000000000000000000000000000000000000000000000040000000000000000000002000000000004000000000000000008000000002000000000000000000000000000000000000000000000000000020000000000000000000200000000000000000020000100000000000000000000000",
      "type": "0x2",
      "transactionHash": "0x3d802507ab525df811bbcbecb182247c642860dd6cbe56cfeabe5776527c588d",
      "transactionIndex": "0xd",
      "blockHash": "0x36ba020228bda110a7fdf205dec43805f9d8cac68e2aec9ec312321d61b52d6d",
      "blockNumber": "0x750733",
      "gasUsed": "0x2ccb8",
      "effectiveGasPrice": "0xfe",
      "from": "0xcda2fdb452ff4f5d7ba1c3d5dfcc9cb926a5eb7d",
      "to": "0x79dfbed14077b8f2421eece5707a17b161094e6a",
      "contractAddress": null,
      "l1BaseFeeScalar": "0x186a0",
      "l1BlobBaseFee": "0x1",
      "l1BlobBaseFeeScalar": "0x95506",
      "l1Fee": "0x925b315bbd",
      "l1GasPrice": "0xea2b822c",
      "l1GasUsed": "0x640"
    },
    {
      "status": "0x1",
      "cumulativeGasUsed": "0x27dd4f",
      "logs": [
        {
          "address": "0x2e8af9c5922623058aa92a183b391e62cb6b2d12",
          "topics": [
            "0xddf252ad1be2c89b69c2b068fc378daa952ba7f163c4a11628f55a4df523b3ef",
            "0x0000000000000000000000000000000000000000000000000000000000000000",
            "0x000000000000000000000000cda2fdb452ff4f5d7ba1c3d5dfcc9cb926a5eb7d",
            "0x000000000000000000000000000000000000000000000000000000000000013a"
          ],
          "data": "0x",
          "blockHash": "0x36ba020228bda110a7fdf205dec43805f9d8cac68e2aec9ec312321d61b52d6d",
          "blockNumber": "0x750733",
          "transactionHash": "0xaa32c1ebd0a56a945c39d72929b99718c9343ec39d3533271f15d23dcfade8eb",
          "transactionIndex": "0xe",
          "logIndex": "0x1a",
          "removed": false
        },
        {
          "address": "0x2e8af9c5922623058aa92a183b391e62cb6b2d12",
          "topics": [
            "0xf8e1a15aba9398e019f0b49df1a4fde98ee17ae345cb5f6b5e2c27f5033e8ce7"
          ],
          "data": "0x000000000000000000000000000000000000000000000000000000000000013a",
          "blockHash": "0x36ba020228bda110a7fdf205dec43805f9d8cac68e2aec9ec312321d61b52d6d",
          "blockNumber": "0x750733",
          "transactionHash": "0xaa32c1ebd0a56a945c39d72929b99718c9343ec39d3533271f15d23dcfade8eb",
          "transactionIndex": "0xe",
          "logIndex": "0x1b",
          "removed": false
        }
      ],
      "logsBloom": "0x00000000000000000000000000000000800000020000000000000000000000000000000000000000000000000000000000000000000000000000000000000000000000000000000000000008040000000000000000000000000000000000000000000000020000080000000000000800002000000000800000000010000000000000000000000000000000000000000000000000000000000000000000000000000000000000000000000000000000002000000000004000000000000000008000000002000000000000000000000000000000000000000000000000000020000000000000000000200000000000000000000800100000000000000000000000",
      "type": "0x2",
      "transactionHash": "0xaa32c1ebd0a56a945c39d72929b99718c9343ec39d3533271f15d23dcfade8eb",
      "transactionIndex": "0xe",
      "blockHash": "0x36ba020228bda110a7fdf205dec43805f9d8cac68e2aec9ec312321d61b52d6d",
      "blockNumber": "0x750733",
      "gasUsed": "0x2ccb8",
      "effectiveGasPrice": "0xfe",
      "from": "0xcda2fdb452ff4f5d7ba1c3d5dfcc9cb926a5eb7d",
      "to": "0x79dfbed14077b8f2421eece5707a17b161094e6a",
      "contractAddress": null,
      "l1BaseFeeScalar": "0x186a0",
      "l1BlobBaseFee": "0x1",
      "l1BlobBaseFeeScalar": "0x95506",
      "l1Fee": "0x925b315bbd",
      "l1GasPrice": "0xea2b822c",
      "l1GasUsed": "0x640"
    },
    {
      "status": "0x1",
      "cumulativeGasUsed": "0x2aaa07",
      "logs": [
        {
          "address": "0x2e8af9c5922623058aa92a183b391e62cb6b2d12",
          "topics": [
            "0xddf252ad1be2c89b69c2b068fc378daa952ba7f163c4a11628f55a4df523b3ef",
            "0x0000000000000000000000000000000000000000000000000000000000000000",
            "0x000000000000000000000000cda2fdb452ff4f5d7ba1c3d5dfcc9cb926a5eb7d",
            "0x000000000000000000000000000000000000000000000000000000000000013b"
          ],
          "data": "0x",
          "blockHash": "0x36ba020228bda110a7fdf205dec43805f9d8cac68e2aec9ec312321d61b52d6d",
          "blockNumber": "0x750733",
          "transactionHash": "0x9dc0b60b7576abb8e2091aeb395e9bc711c53d73b5f1915b675a10eeb80d0ec8",
          "transactionIndex": "0xf",
          "logIndex": "0x1c",
          "removed": false
        },
        {
          "address": "0x2e8af9c5922623058aa92a183b391e62cb6b2d12",
          "topics": [
            "0xf8e1a15aba9398e019f0b49df1a4fde98ee17ae345cb5f6b5e2c27f5033e8ce7"
          ],
          "data": "0x000000000000000000000000000000000000000000000000000000000000013b",
          "blockHash": "0x36ba020228bda110a7fdf205dec43805f9d8cac68e2aec9ec312321d61b52d6d",
          "blockNumber": "0x750733",
          "transactionHash": "0x9dc0b60b7576abb8e2091aeb395e9bc711c53d73b5f1915b675a10eeb80d0ec8",
          "transactionIndex": "0xf",
          "logIndex": "0x1d",
          "removed": false
        }
      ],
      "logsBloom": "0x00000000000000000000000000000000000000020000000000002000000000000000000000000000000000000000000000000000000000000000000000000000000000000000000000000008040000000000000000000000000000000000000000000000020000000000000000000800002000000000800000000010000000000000000000000000000000000000000000000000000000000000000000000000000000000000000000000000000000002000000000004000000000000000008000000002000000000000080000000000000000000000000000000000000020000000000800000000200000000000000000000000100000000000000000000000",
      "type": "0x2",
      "transactionHash": "0x9dc0b60b7576abb8e2091aeb395e9bc711c53d73b5f1915b675a10eeb80d0ec8",
      "transactionIndex": "0xf",
      "blockHash": "0x36ba020228bda110a7fdf205dec43805f9d8cac68e2aec9ec312321d61b52d6d",
      "blockNumber": "0x750733",
      "gasUsed": "0x2ccb8",
      "effectiveGasPrice": "0xfe",
      "from": "0xcda2fdb452ff4f5d7ba1c3d5dfcc9cb926a5eb7d",
      "to": "0x79dfbed14077b8f2421eece5707a17b161094e6a",
      "contractAddress": null,
      "l1BaseFeeScalar": "0x186a0",
      "l1BlobBaseFee": "0x1",
      "l1BlobBaseFeeScalar": "0x95506",
      "l1Fee": "0x925b315bbd",
      "l1GasPrice": "0xea2b822c",
      "l1GasUsed": "0x640"
    },
    {
      "status": "0x1",
      "cumulativeGasUsed": "0x2d76bf",
      "logs": [
        {
          "address": "0x2e8af9c5922623058aa92a183b391e62cb6b2d12",
          "topics": [
            "0xddf252ad1be2c89b69c2b068fc378daa952ba7f163c4a11628f55a4df523b3ef",
            "0x0000000000000000000000000000000000000000000000000000000000000000",
            "0x000000000000000000000000cda2fdb452ff4f5d7ba1c3d5dfcc9cb926a5eb7d",
            "0x000000000000000000000000000000000000000000000000000000000000013c"
          ],
          "data": "0x",
          "blockHash": "0x36ba020228bda110a7fdf205dec43805f9d8cac68e2aec9ec312321d61b52d6d",
          "blockNumber": "0x750733",
          "transactionHash": "0xfa5eea9606b67fa3a14ea268696fb5bf8e9ff385d62d1633e72c33b0dbcacbb7",
          "transactionIndex": "0x10",
          "logIndex": "0x1e",
          "removed": false
        },
        {
          "address": "0x2e8af9c5922623058aa92a183b391e62cb6b2d12",
          "topics": [
            "0xf8e1a15aba9398e019f0b49df1a4fde98ee17ae345cb5f6b5e2c27f5033e8ce7"
          ],
          "data": "0x000000000000000000000000000000000000000000000000000000000000013c",
          "blockHash": "0x36ba020228bda110a7fdf205dec43805f9d8cac68e2aec9ec312321d61b52d6d",
          "blockNumber": "0x750733",
          "transactionHash": "0xfa5eea9606b67fa3a14ea268696fb5bf8e9ff385d62d1633e72c33b0dbcacbb7",
          "transactionIndex": "0x10",
          "logIndex": "0x1f",
          "removed": false
        }
      ],
      "logsBloom": "0x00000000000000000000000000000000000000020000000000000000000000000000000000000000000000000000000000000000000000000200000000000000000000000000000000000008040000000000000010000000000000000000000000000000020000000000000000000800002000000000800000000010000000000000000000000000000000000000000000000000000000000000000000000000000000000000000000000000000000002000000000004000000000000000008000000002000000000000000000000000000000000000000000000000008020000000000000000000200000000000000000000000100000000000000000000000",
      "type": "0x2",
      "transactionHash": "0xfa5eea9606b67fa3a14ea268696fb5bf8e9ff385d62d1633e72c33b0dbcacbb7",
      "transactionIndex": "0x10",
      "blockHash": "0x36ba020228bda110a7fdf205dec43805f9d8cac68e2aec9ec312321d61b52d6d",
      "blockNumber": "0x750733",
      "gasUsed": "0x2ccb8",
      "effectiveGasPrice": "0xfe",
      "from": "0xcda2fdb452ff4f5d7ba1c3d5dfcc9cb926a5eb7d",
      "to": "0x79dfbed14077b8f2421eece5707a17b161094e6a",
      "contractAddress": null,
      "l1BaseFeeScalar": "0x186a0",
      "l1BlobBaseFee": "0x1",
      "l1BlobBaseFeeScalar": "0x95506",
      "l1Fee": "0x925b315bbd",
      "l1GasPrice": "0xea2b822c",
      "l1GasUsed": "0x640"
    },
    {
      "status": "0x1",
      "cumulativeGasUsed": "0x304377",
      "logs": [
        {
          "address": "0x2e8af9c5922623058aa92a183b391e62cb6b2d12",
          "topics": [
            "0xddf252ad1be2c89b69c2b068fc378daa952ba7f163c4a11628f55a4df523b3ef",
            "0x0000000000000000000000000000000000000000000000000000000000000000",
            "0x000000000000000000000000cda2fdb452ff4f5d7ba1c3d5dfcc9cb926a5eb7d",
            "0x000000000000000000000000000000000000000000000000000000000000013d"
          ],
          "data": "0x",
          "blockHash": "0x36ba020228bda110a7fdf205dec43805f9d8cac68e2aec9ec312321d61b52d6d",
          "blockNumber": "0x750733",
          "transactionHash": "0x98d5497de190d308e3966cddf87db89fd10c5923173db3b257f2940815648ab2",
          "transactionIndex": "0x11",
          "logIndex": "0x20",
          "removed": false
        },
        {
          "address": "0x2e8af9c5922623058aa92a183b391e62cb6b2d12",
          "topics": [
            "0xf8e1a15aba9398e019f0b49df1a4fde98ee17ae345cb5f6b5e2c27f5033e8ce7"
          ],
          "data": "0x000000000000000000000000000000000000000000000000000000000000013d",
          "blockHash": "0x36ba020228bda110a7fdf205dec43805f9d8cac68e2aec9ec312321d61b52d6d",
          "blockNumber": "0x750733",
          "transactionHash": "0x98d5497de190d308e3966cddf87db89fd10c5923173db3b257f2940815648ab2",
          "transactionIndex": "0x11",
          "logIndex": "0x21",
          "removed": false
        }
      ],
      "logsBloom": "0x00000040000000000000000000000000000000020000000000000000000000000000000000000000000000000000000000000000000000000000000000000000000000000000000000000008040000000000000000000000000000000000000000000000020000000000000000000800002000000000800000000010000000000000000000000000000000000000000000000000000000000000000000000000000000000000000000000800000000002000000000004000000000000000008000000002000000000000000000000000000000000000000000000000004020000000000000000000200000000000000000000000100000000000000000000000",
      "type": "0x2",
      "transactionHash": "0x98d5497de190d308e3966cddf87db89fd10c5923173db3b257f2940815648ab2",
      "transactionIndex": "0x11",
      "blockHash": "0x36ba020228bda110a7fdf205dec43805f9d8cac68e2aec9ec312321d61b52d6d",
      "blockNumber": "0x750733",
      "gasUsed": "0x2ccb8",
      "effectiveGasPrice": "0xfe",
      "from": "0xcda2fdb452ff4f5d7ba1c3d5dfcc9cb926a5eb7d",
      "to": "0x79dfbed14077b8f2421eece5707a17b161094e6a",
      "contractAddress": null,
      "l1BaseFeeScalar": "0x186a0",
      "l1BlobBaseFee": "0x1",
      "l1BlobBaseFeeScalar": "0x95506",
      "l1Fee": "0x925b315bbd",
      "l1GasPrice": "0xea2b822c",
      "l1GasUsed": "0x640"
    },
    {
      "status": "0x1",
      "cumulativeGasUsed": "0x33102f",
      "logs": [
        {
          "address": "0x2e8af9c5922623058aa92a183b391e62cb6b2d12",
          "topics": [
            "0xddf252ad1be2c89b69c2b068fc378daa952ba7f163c4a11628f55a4df523b3ef",
            "0x0000000000000000000000000000000000000000000000000000000000000000",
            "0x000000000000000000000000cda2fdb452ff4f5d7ba1c3d5dfcc9cb926a5eb7d",
            "0x000000000000000000000000000000000000000000000000000000000000013e"
          ],
          "data": "0x",
          "blockHash": "0x36ba020228bda110a7fdf205dec43805f9d8cac68e2aec9ec312321d61b52d6d",
          "blockNumber": "0x750733",
          "transactionHash": "0xe55937260dbff5287c209982386b1db1793e0d5d4c2b5994b2ffba0e0f42ccc0",
          "transactionIndex": "0x12",
          "logIndex": "0x22",
          "removed": false
        },
        {
          "address": "0x2e8af9c5922623058aa92a183b391e62cb6b2d12",
          "topics": [
            "0xf8e1a15aba9398e019f0b49df1a4fde98ee17ae345cb5f6b5e2c27f5033e8ce7"
          ],
          "data": "0x000000000000000000000000000000000000000000000000000000000000013e",
          "blockHash": "0x36ba020228bda110a7fdf205dec43805f9d8cac68e2aec9ec312321d61b52d6d",
          "blockNumber": "0x750733",
          "transactionHash": "0xe55937260dbff5287c209982386b1db1793e0d5d4c2b5994b2ffba0e0f42ccc0",
          "transactionIndex": "0x12",
          "logIndex": "0x23",
          "removed": false
        }
      ],
      "logsBloom": "0x00000000000000000000000000000000000000020000000000000000000000000000000000000000000000000000000000000000000000000000000000000000000000000000000000000008040000000000000000000000000000000000000000000000020000000000000000000800002000000000800000000010000000000000000000000004000000000000000000000000000000000000000000000000000000000000000000000000000000002000000000004000000000000000008000000002000000000000000000000000000000000000000000000000000020008000000000000000200000000040000000000000100000000000000000000000",
      "type": "0x2",
      "transactionHash": "0xe55937260dbff5287c209982386b1db1793e0d5d4c2b5994b2ffba0e0f42ccc0",
      "transactionIndex": "0x12",
      "blockHash": "0x36ba020228bda110a7fdf205dec43805f9d8cac68e2aec9ec312321d61b52d6d",
      "blockNumber": "0x750733",
      "gasUsed": "0x2ccb8",
      "effectiveGasPrice": "0xfe",
      "from": "0xcda2fdb452ff4f5d7ba1c3d5dfcc9cb926a5eb7d",
      "to": "0x79dfbed14077b8f2421eece5707a17b161094e6a",
      "contractAddress": null,
      "l1BaseFeeScalar": "0x186a0",
      "l1BlobBaseFee": "0x1",
      "l1BlobBaseFeeScalar": "0x95506",
      "l1Fee": "0x925b315bbd",
      "l1GasPrice": "0xea2b822c",
      "l1GasUsed": "0x640"
    },
    {
      "status": "0x1",
      "cumulativeGasUsed": "0x35dce7",
      "logs": [
        {
          "address": "0x2e8af9c5922623058aa92a183b391e62cb6b2d12",
          "topics": [
            "0xddf252ad1be2c89b69c2b068fc378daa952ba7f163c4a11628f55a4df523b3ef",
            "0x0000000000000000000000000000000000000000000000000000000000000000",
            "0x000000000000000000000000cda2fdb452ff4f5d7ba1c3d5dfcc9cb926a5eb7d",
            "0x000000000000000000000000000000000000000000000000000000000000013f"
          ],
          "data": "0x",
          "blockHash": "0x36ba020228bda110a7fdf205dec43805f9d8cac68e2aec9ec312321d61b52d6d",
          "blockNumber": "0x750733",
          "transactionHash": "0x9081cafde2af3982d3f6ef3dd1b45c1302d94f45eb1f5b1a1ee0b2b1b3da4404",
          "transactionIndex": "0x13",
          "logIndex": "0x24",
          "removed": false
        },
        {
          "address": "0x2e8af9c5922623058aa92a183b391e62cb6b2d12",
          "topics": [
            "0xf8e1a15aba9398e019f0b49df1a4fde98ee17ae345cb5f6b5e2c27f5033e8ce7"
          ],
          "data": "0x000000000000000000000000000000000000000000000000000000000000013f",
          "blockHash": "0x36ba020228bda110a7fdf205dec43805f9d8cac68e2aec9ec312321d61b52d6d",
          "blockNumber": "0x750733",
          "transactionHash": "0x9081cafde2af3982d3f6ef3dd1b45c1302d94f45eb1f5b1a1ee0b2b1b3da4404",
          "transactionIndex": "0x13",
          "logIndex": "0x25",
          "removed": false
        }
      ],
      "logsBloom": "0x00000000000000040000000000000000000000020000000000000000000000000000000000000000000000000000000000000000000000000000000000000000000000000000000000000008040000000000000000000000000000000000000000000000020000000000000000000800002000000000800000000010000000000000000000000000000000000000000000000000000000000000000000000000000000000000400000000000000000002000000000004000000000000000008000000002000000000000000000000000000000000008000000000000000020000000000000000000200000000000000000000000100000000000000000000000",
      "type": "0x2",
      "transactionHash": "0x9081cafde2af3982d3f6ef3dd1b45c1302d94f45eb1f5b1a1ee0b2b1b3da4404",
      "transactionIndex": "0x13",
      "blockHash": "0x36ba020228bda110a7fdf205dec43805f9d8cac68e2aec9ec312321d61b52d6d",
      "blockNumber": "0x750733",
      "gasUsed": "0x2ccb8",
      "effectiveGasPrice": "0xfe",
      "from": "0xcda2fdb452ff4f5d7ba1c3d5dfcc9cb926a5eb7d",
      "to": "0x79dfbed14077b8f2421eece5707a17b161094e6a",
      "contractAddress": null,
      "l1BaseFeeScalar": "0x186a0",
      "l1BlobBaseFee": "0x1",
      "l1BlobBaseFeeScalar": "0x95506",
      "l1Fee": "0x925b315bbd",
      "l1GasPrice": "0xea2b822c",
      "l1GasUsed": "0x640"
    }
  ],
  "libraries": [],
  "pending": [],
  "returns": {},
  "timestamp": 1728201102,
  "chain": 60808,
  "commit": "7d9679b"
}