{
  "transactions": [
    {
      "hash": "0x34aece906f80c3e72082967a2bf71c8600b0b71e85bdf6e0313a69359add3109",
      "transactionType": "CALL",
      "contractName": null,
      "contractAddress": "0x79dfbed14077b8f2421eece5707a17b161094e6a",
      "function": "wlMint(address)",
      "arguments": [
        "0x0000000000000000000000000000000000000000"
      ],
      "transaction": {
        "from": "0xcda2fdb452ff4f5d7ba1c3d5dfcc9cb926a5eb7d",
        "to": "0x79dfbed14077b8f2421eece5707a17b161094e6a",
        "gas": "0x3ddf7",
        "value": "0x0",
        "input": "0xc517b4a50000000000000000000000000000000000000000000000000000000000000000",
        "nonce": "0x1d86",
        "chainId": "0xed88"
      },
      "additionalContracts": [],
      "isFixedGasLimit": false
    },
    {
      "hash": "0xbe98ce52950a50e412256a2a7e506aa11a55dd5f4a95119c2305d28da1730245",
      "transactionType": "CALL",
      "contractName": null,
      "contractAddress": "0x79dfbed14077b8f2421eece5707a17b161094e6a",
      "function": "wlMint(address)",
      "arguments": [
        "0x0000000000000000000000000000000000000000"
      ],
      "transaction": {
        "from": "0xcda2fdb452ff4f5d7ba1c3d5dfcc9cb926a5eb7d",
        "to": "0x79dfbed14077b8f2421eece5707a17b161094e6a",
        "gas": "0x3ddf7",
        "value": "0x0",
        "input": "0xc517b4a50000000000000000000000000000000000000000000000000000000000000000",
        "nonce": "0x1d87",
        "chainId": "0xed88"
      },
      "additionalContracts": [],
      "isFixedGasLimit": false
    },
    {
      "hash": "0x2e008297707bcc8bcfa322ce1f5a643b6b563fdd6300ea32b0c77b0609c40316",
      "transactionType": "CALL",
      "contractName": null,
      "contractAddress": "0x79dfbed14077b8f2421eece5707a17b161094e6a",
      "function": "wlMint(address)",
      "arguments": [
        "0x0000000000000000000000000000000000000000"
      ],
      "transaction": {
        "from": "0xcda2fdb452ff4f5d7ba1c3d5dfcc9cb926a5eb7d",
        "to": "0x79dfbed14077b8f2421eece5707a17b161094e6a",
        "gas": "0x3ddf7",
        "value": "0x0",
        "input": "0xc517b4a50000000000000000000000000000000000000000000000000000000000000000",
        "nonce": "0x1d88",
        "chainId": "0xed88"
      },
      "additionalContracts": [],
      "isFixedGasLimit": false
    },
    {
      "hash": "0x06389be828a43a83c097b7d88e242040a89abb4574cfdb150c418d3aa3abd689",
      "transactionType": "CALL",
      "contractName": null,
      "contractAddress": "0x79dfbed14077b8f2421eece5707a17b161094e6a",
      "function": "wlMint(address)",
      "arguments": [
        "0x0000000000000000000000000000000000000000"
      ],
      "transaction": {
        "from": "0xcda2fdb452ff4f5d7ba1c3d5dfcc9cb926a5eb7d",
        "to": "0x79dfbed14077b8f2421eece5707a17b161094e6a",
        "gas": "0x3ddf7",
        "value": "0x0",
        "input": "0xc517b4a50000000000000000000000000000000000000000000000000000000000000000",
        "nonce": "0x1d89",
        "chainId": "0xed88"
      },
      "additionalContracts": [],
      "isFixedGasLimit": false
    },
    {
      "hash": "0x2a76e08277e1933ff80ead471d150d6b8da3b0aecdab8cbec03d5f78bb1b57b0",
      "transactionType": "CALL",
      "contractName": null,
      "contractAddress": "0x79dfbed14077b8f2421eece5707a17b161094e6a",
      "function": "wlMint(address)",
      "arguments": [
        "0x0000000000000000000000000000000000000000"
      ],
      "transaction": {
        "from": "0xcda2fdb452ff4f5d7ba1c3d5dfcc9cb926a5eb7d",
        "to": "0x79dfbed14077b8f2421eece5707a17b161094e6a",
        "gas": "0x3ddf7",
        "value": "0x0",
        "input": "0xc517b4a50000000000000000000000000000000000000000000000000000000000000000",
        "nonce": "0x1d8a",
        "chainId": "0xed88"
      },
      "additionalContracts": [],
      "isFixedGasLimit": false
    },
    {
      "hash": "0x70f6635675f907f0903102729c2d35a4bc68762c65e21f12d83b24ea90e6406b",
      "transactionType": "CALL",
      "contractName": null,
      "contractAddress": "0x79dfbed14077b8f2421eece5707a17b161094e6a",
      "function": "wlMint(address)",
      "arguments": [
        "0x0000000000000000000000000000000000000000"
      ],
      "transaction": {
        "from": "0xcda2fdb452ff4f5d7ba1c3d5dfcc9cb926a5eb7d",
        "to": "0x79dfbed14077b8f2421eece5707a17b161094e6a",
        "gas": "0x3ddf7",
        "value": "0x0",
        "input": "0xc517b4a50000000000000000000000000000000000000000000000000000000000000000",
        "nonce": "0x1d8b",
        "chainId": "0xed88"
      },
      "additionalContracts": [],
      "isFixedGasLimit": false
    },
    {
      "hash": "0xf48408da29c252480dbecc457db1efe79a3e65a9d780aa243822750573b39dc9",
      "transactionType": "CALL",
      "contractName": null,
      "contractAddress": "0x79dfbed14077b8f2421eece5707a17b161094e6a",
      "function": "wlMint(address)",
      "arguments": [
        "0x0000000000000000000000000000000000000000"
      ],
      "transaction": {
        "from": "0xcda2fdb452ff4f5d7ba1c3d5dfcc9cb926a5eb7d",
        "to": "0x79dfbed14077b8f2421eece5707a17b161094e6a",
        "gas": "0x3ddf7",
        "value": "0x0",
        "input": "0xc517b4a50000000000000000000000000000000000000000000000000000000000000000",
        "nonce": "0x1d8c",
        "chainId": "0xed88"
      },
      "additionalContracts": [],
      "isFixedGasLimit": false
    },
    {
      "hash": "0xe8bfef832e948621e0b0ebf53ed66ca421ad16107dde8f497c575b49689f9051",
      "transactionType": "CALL",
      "contractName": null,
      "contractAddress": "0x79dfbed14077b8f2421eece5707a17b161094e6a",
      "function": "wlMint(address)",
      "arguments": [
        "0x0000000000000000000000000000000000000000"
      ],
      "transaction": {
        "from": "0xcda2fdb452ff4f5d7ba1c3d5dfcc9cb926a5eb7d",
        "to": "0x79dfbed14077b8f2421eece5707a17b161094e6a",
        "gas": "0x3ddf7",
        "value": "0x0",
        "input": "0xc517b4a50000000000000000000000000000000000000000000000000000000000000000",
        "nonce": "0x1d8d",
        "chainId": "0xed88"
      },
      "additionalContracts": [],
      "isFixedGasLimit": false
    },
    {
      "hash": "0x6e7b65bc18a199c612280d6ec59a1a4771ab706d7f0a073ae8e53654d99a9f13",
      "transactionType": "CALL",
      "contractName": null,
      "contractAddress": "0x79dfbed14077b8f2421eece5707a17b161094e6a",
      "function": "wlMint(address)",
      "arguments": [
        "0x0000000000000000000000000000000000000000"
      ],
      "transaction": {
        "from": "0xcda2fdb452ff4f5d7ba1c3d5dfcc9cb926a5eb7d",
        "to": "0x79dfbed14077b8f2421eece5707a17b161094e6a",
        "gas": "0x3ddf7",
        "value": "0x0",
        "input": "0xc517b4a50000000000000000000000000000000000000000000000000000000000000000",
        "nonce": "0x1d8e",
        "chainId": "0xed88"
      },
      "additionalContracts": [],
      "isFixedGasLimit": false
    },
    {
      "hash": "0xae02f185fa7e83c6086077c09387350f224b560c045f69f540c3c90c781eabb9",
      "transactionType": "CALL",
      "contractName": null,
      "contractAddress": "0x79dfbed14077b8f2421eece5707a17b161094e6a",
      "function": "wlMint(address)",
      "arguments": [
        "0x0000000000000000000000000000000000000000"
      ],
      "transaction": {
        "from": "0xcda2fdb452ff4f5d7ba1c3d5dfcc9cb926a5eb7d",
        "to": "0x79dfbed14077b8f2421eece5707a17b161094e6a",
        "gas": "0x3ddf7",
        "value": "0x0",
        "input": "0xc517b4a50000000000000000000000000000000000000000000000000000000000000000",
        "nonce": "0x1d8f",
        "chainId": "0xed88"
      },
      "additionalContracts": [],
      "isFixedGasLimit": false
    },
    {
      "hash": "0x1b70b2c363ffad5443fd58fddb8234dc20a9030c95a6af5437caa679236255d3",
      "transactionType": "CALL",
      "contractName": null,
      "contractAddress": "0x79dfbed14077b8f2421eece5707a17b161094e6a",
      "function": "wlMint(address)",
      "arguments": [
        "0x0000000000000000000000000000000000000000"
      ],
      "transaction": {
        "from": "0xcda2fdb452ff4f5d7ba1c3d5dfcc9cb926a5eb7d",
        "to": "0x79dfbed14077b8f2421eece5707a17b161094e6a",
        "gas": "0x3ddf7",
        "value": "0x0",
        "input": "0xc517b4a50000000000000000000000000000000000000000000000000000000000000000",
        "nonce": "0x1d90",
        "chainId": "0xed88"
      },
      "additionalContracts": [],
      "isFixedGasLimit": false
    },
    {
      "hash": "0x98b9b8e91c4719678cd884bfdead30c342507f3dcd341f44757e41cda5710671",
      "transactionType": "CALL",
      "contractName": null,
      "contractAddress": "0x79dfbed14077b8f2421eece5707a17b161094e6a",
      "function": "wlMint(address)",
      "arguments": [
        "0x0000000000000000000000000000000000000000"
      ],
      "transaction": {
        "from": "0xcda2fdb452ff4f5d7ba1c3d5dfcc9cb926a5eb7d",
        "to": "0x79dfbed14077b8f2421eece5707a17b161094e6a",
        "gas": "0x3ddf7",
        "value": "0x0",
        "input": "0xc517b4a50000000000000000000000000000000000000000000000000000000000000000",
        "nonce": "0x1d91",
        "chainId": "0xed88"
      },
      "additionalContracts": [],
      "isFixedGasLimit": false
    },
    {
      "hash": "0x282b2c6a4842b1b19d45a3b6b41916824666f075de8c8c5d7fb3e56802020666",
      "transactionType": "CALL",
      "contractName": null,
      "contractAddress": "0x79dfbed14077b8f2421eece5707a17b161094e6a",
      "function": "wlMint(address)",
      "arguments": [
        "0x0000000000000000000000000000000000000000"
      ],
      "transaction": {
        "from": "0xcda2fdb452ff4f5d7ba1c3d5dfcc9cb926a5eb7d",
        "to": "0x79dfbed14077b8f2421eece5707a17b161094e6a",
        "gas": "0x3ddf7",
        "value": "0x0",
        "input": "0xc517b4a50000000000000000000000000000000000000000000000000000000000000000",
        "nonce": "0x1d92",
        "chainId": "0xed88"
      },
      "additionalContracts": [],
      "isFixedGasLimit": false
    },
    {
      "hash": "0x8404383d96e78fde012d0feec8e97ca6a31d958762f3d4048b359840c3e08240",
      "transactionType": "CALL",
      "contractName": null,
      "contractAddress": "0x79dfbed14077b8f2421eece5707a17b161094e6a",
      "function": "wlMint(address)",
      "arguments": [
        "0x0000000000000000000000000000000000000000"
      ],
      "transaction": {
        "from": "0xcda2fdb452ff4f5d7ba1c3d5dfcc9cb926a5eb7d",
        "to": "0x79dfbed14077b8f2421eece5707a17b161094e6a",
        "gas": "0x3ddf7",
        "value": "0x0",
        "input": "0xc517b4a50000000000000000000000000000000000000000000000000000000000000000",
        "nonce": "0x1d93",
        "chainId": "0xed88"
      },
      "additionalContracts": [],
      "isFixedGasLimit": false
    },
    {
      "hash": "0x766b17c8515a425922538a4ca49c73adb42cd9030dc09e724e7489cc32fbe377",
      "transactionType": "CALL",
      "contractName": null,
      "contractAddress": "0x79dfbed14077b8f2421eece5707a17b161094e6a",
      "function": "wlMint(address)",
      "arguments": [
        "0x0000000000000000000000000000000000000000"
      ],
      "transaction": {
        "from": "0xcda2fdb452ff4f5d7ba1c3d5dfcc9cb926a5eb7d",
        "to": "0x79dfbed14077b8f2421eece5707a17b161094e6a",
        "gas": "0x3ddf7",
        "value": "0x0",
        "input": "0xc517b4a50000000000000000000000000000000000000000000000000000000000000000",
        "nonce": "0x1d94",
        "chainId": "0xed88"
      },
      "additionalContracts": [],
      "isFixedGasLimit": false
    },
    {
      "hash": "0x4773d3de90bf72b49c6c8e2799726f91aebbd38574e6a065bc2d019f5ef3a45c",
      "transactionType": "CALL",
      "contractName": null,
      "contractAddress": "0x79dfbed14077b8f2421eece5707a17b161094e6a",
      "function": "wlMint(address)",
      "arguments": [
        "0x0000000000000000000000000000000000000000"
      ],
      "transaction": {
        "from": "0xcda2fdb452ff4f5d7ba1c3d5dfcc9cb926a5eb7d",
        "to": "0x79dfbed14077b8f2421eece5707a17b161094e6a",
        "gas": "0x3ddf7",
        "value": "0x0",
        "input": "0xc517b4a50000000000000000000000000000000000000000000000000000000000000000",
        "nonce": "0x1d95",
        "chainId": "0xed88"
      },
      "additionalContracts": [],
      "isFixedGasLimit": false
    },
    {
      "hash": "0x1038b18d9c3f4479cc3939f0298083d34509c340c3609bc07659e19f87893066",
      "transactionType": "CALL",
      "contractName": null,
      "contractAddress": "0x79dfbed14077b8f2421eece5707a17b161094e6a",
      "function": "wlMint(address)",
      "arguments": [
        "0x0000000000000000000000000000000000000000"
      ],
      "transaction": {
        "from": "0xcda2fdb452ff4f5d7ba1c3d5dfcc9cb926a5eb7d",
        "to": "0x79dfbed14077b8f2421eece5707a17b161094e6a",
        "gas": "0x3ddf7",
        "value": "0x0",
        "input": "0xc517b4a50000000000000000000000000000000000000000000000000000000000000000",
        "nonce": "0x1d96",
        "chainId": "0xed88"
      },
      "additionalContracts": [],
      "isFixedGasLimit": false
    },
    {
      "hash": "0x56e917329326d2876c1a5e6eb2c867abe04aa9b3a216366ec7f05273b4ada25b",
      "transactionType": "CALL",
      "contractName": null,
      "contractAddress": "0x79dfbed14077b8f2421eece5707a17b161094e6a",
      "function": "wlMint(address)",
      "arguments": [
        "0x0000000000000000000000000000000000000000"
      ],
      "transaction": {
        "from": "0xcda2fdb452ff4f5d7ba1c3d5dfcc9cb926a5eb7d",
        "to": "0x79dfbed14077b8f2421eece5707a17b161094e6a",
        "gas": "0x3ddf7",
        "value": "0x0",
        "input": "0xc517b4a50000000000000000000000000000000000000000000000000000000000000000",
        "nonce": "0x1d97",
        "chainId": "0xed88"
      },
      "additionalContracts": [],
      "isFixedGasLimit": false
    },
    {
      "hash": "0x7727ba2482dc0d5e5587ca2a407655560ebfd451c230b19724a60a522b4145a1",
      "transactionType": "CALL",
      "contractName": null,
      "contractAddress": "0x79dfbed14077b8f2421eece5707a17b161094e6a",
      "function": "wlMint(address)",
      "arguments": [
        "0x0000000000000000000000000000000000000000"
      ],
      "transaction": {
        "from": "0xcda2fdb452ff4f5d7ba1c3d5dfcc9cb926a5eb7d",
        "to": "0x79dfbed14077b8f2421eece5707a17b161094e6a",
        "gas": "0x3ddf7",
        "value": "0x0",
        "input": "0xc517b4a50000000000000000000000000000000000000000000000000000000000000000",
        "nonce": "0x1d98",
        "chainId": "0xed88"
      },
      "additionalContracts": [],
      "isFixedGasLimit": false
    },
    {
      "hash": "0xd5fe29382feb34fa6243ddc9754edfbf0edb7cb5e7019ac71a06e135625bea29",
      "transactionType": "CALL",
      "contractName": null,
      "contractAddress": "0x79dfbed14077b8f2421eece5707a17b161094e6a",
      "function": "wlMint(address)",
      "arguments": [
        "0x0000000000000000000000000000000000000000"
      ],
      "transaction": {
        "from": "0xcda2fdb452ff4f5d7ba1c3d5dfcc9cb926a5eb7d",
        "to": "0x79dfbed14077b8f2421eece5707a17b161094e6a",
        "gas": "0x3ddf7",
        "value": "0x0",
        "input": "0xc517b4a50000000000000000000000000000000000000000000000000000000000000000",
        "nonce": "0x1d99",
        "chainId": "0xed88"
      },
      "additionalContracts": [],
      "isFixedGasLimit": false
    },
    {
      "hash": "0x392fd88ae3619b0dd6250ff0487e104a410e6158e16326f1817e3b9489226b28",
      "transactionType": "CALL",
      "contractName": null,
      "contractAddress": "0x79dfbed14077b8f2421eece5707a17b161094e6a",
      "function": "wlMint(address)",
      "arguments": [
        "0x0000000000000000000000000000000000000000"
      ],
      "transaction": {
        "from": "0xcda2fdb452ff4f5d7ba1c3d5dfcc9cb926a5eb7d",
        "to": "0x79dfbed14077b8f2421eece5707a17b161094e6a",
        "gas": "0x3ddf7",
        "value": "0x0",
        "input": "0xc517b4a50000000000000000000000000000000000000000000000000000000000000000",
        "nonce": "0x1d9a",
        "chainId": "0xed88"
      },
      "additionalContracts": [],
      "isFixedGasLimit": false
    },
    {
      "hash": "0xe3d3235d7e4c0cf6a37916ddfabef9add597603b47905f4d703f8f1a7a6210fd",
      "transactionType": "CALL",
      "contractName": null,
      "contractAddress": "0x79dfbed14077b8f2421eece5707a17b161094e6a",
      "function": "wlMint(address)",
      "arguments": [
        "0x0000000000000000000000000000000000000000"
      ],
      "transaction": {
        "from": "0xcda2fdb452ff4f5d7ba1c3d5dfcc9cb926a5eb7d",
        "to": "0x79dfbed14077b8f2421eece5707a17b161094e6a",
        "gas": "0x3ddf7",
        "value": "0x0",
        "input": "0xc517b4a50000000000000000000000000000000000000000000000000000000000000000",
        "nonce": "0x1d9b",
        "chainId": "0xed88"
      },
      "additionalContracts": [],
      "isFixedGasLimit": false
    },
    {
      "hash": "0xb5b7b43d98d04e9acd7b516ef7c95cf1a4ad276f67e23665866aafc776967efa",
      "transactionType": "CALL",
      "contractName": null,
      "contractAddress": "0x79dfbed14077b8f2421eece5707a17b161094e6a",
      "function": "wlMint(address)",
      "arguments": [
        "0x0000000000000000000000000000000000000000"
      ],
      "transaction": {
        "from": "0xcda2fdb452ff4f5d7ba1c3d5dfcc9cb926a5eb7d",
        "to": "0x79dfbed14077b8f2421eece5707a17b161094e6a",
        "gas": "0x3ddf7",
        "value": "0x0",
        "input": "0xc517b4a50000000000000000000000000000000000000000000000000000000000000000",
        "nonce": "0x1d9c",
        "chainId": "0xed88"
      },
      "additionalContracts": [],
      "isFixedGasLimit": false
    },
    {
      "hash": "0x01f9632454c62912c1aec8bc8b9029aa1839772a144d6c560b6a6817207a1779",
      "transactionType": "CALL",
      "contractName": null,
      "contractAddress": "0x79dfbed14077b8f2421eece5707a17b161094e6a",
      "function": "wlMint(address)",
      "arguments": [
        "0x0000000000000000000000000000000000000000"
      ],
      "transaction": {
        "from": "0xcda2fdb452ff4f5d7ba1c3d5dfcc9cb926a5eb7d",
        "to": "0x79dfbed14077b8f2421eece5707a17b161094e6a",
        "gas": "0x3ddf7",
        "value": "0x0",
        "input": "0xc517b4a50000000000000000000000000000000000000000000000000000000000000000",
        "nonce": "0x1d9d",
        "chainId": "0xed88"
      },
      "additionalContracts": [],
      "isFixedGasLimit": false
    },
    {
      "hash": "0xe24caeba2b922c5956e0012af7bd71dd01d8684d674f114336ba40a8bc87c04a",
      "transactionType": "CALL",
      "contractName": null,
      "contractAddress": "0x79dfbed14077b8f2421eece5707a17b161094e6a",
      "function": "wlMint(address)",
      "arguments": [
        "0x0000000000000000000000000000000000000000"
      ],
      "transaction": {
        "from": "0xcda2fdb452ff4f5d7ba1c3d5dfcc9cb926a5eb7d",
        "to": "0x79dfbed14077b8f2421eece5707a17b161094e6a",
        "gas": "0x3ddf7",
        "value": "0x0",
        "input": "0xc517b4a50000000000000000000000000000000000000000000000000000000000000000",
        "nonce": "0x1d9e",
        "chainId": "0xed88"
      },
      "additionalContracts": [],
      "isFixedGasLimit": false
    },
    {
      "hash": "0xa3d2f88c6b3d64337e68a8887c0bdf97ed3edea5125f95a528aa4e1b72a9d45d",
      "transactionType": "CALL",
      "contractName": null,
      "contractAddress": "0x79dfbed14077b8f2421eece5707a17b161094e6a",
      "function": "wlMint(address)",
      "arguments": [
        "0x0000000000000000000000000000000000000000"
      ],
      "transaction": {
        "from": "0xcda2fdb452ff4f5d7ba1c3d5dfcc9cb926a5eb7d",
        "to": "0x79dfbed14077b8f2421eece5707a17b161094e6a",
        "gas": "0x3ddf7",
        "value": "0x0",
        "input": "0xc517b4a50000000000000000000000000000000000000000000000000000000000000000",
        "nonce": "0x1d9f",
        "chainId": "0xed88"
      },
      "additionalContracts": [],
      "isFixedGasLimit": false
    },
    {
      "hash": "0x479fe7f8f41f0b5af4fe6054033166304284dd096bc4de0b9e2da6e90583b08b",
      "transactionType": "CALL",
      "contractName": null,
      "contractAddress": "0x79dfbed14077b8f2421eece5707a17b161094e6a",
      "function": "wlMint(address)",
      "arguments": [
        "0x0000000000000000000000000000000000000000"
      ],
      "transaction": {
        "from": "0xcda2fdb452ff4f5d7ba1c3d5dfcc9cb926a5eb7d",
        "to": "0x79dfbed14077b8f2421eece5707a17b161094e6a",
        "gas": "0x3ddf7",
        "value": "0x0",
        "input": "0xc517b4a50000000000000000000000000000000000000000000000000000000000000000",
        "nonce": "0x1da0",
        "chainId": "0xed88"
      },
      "additionalContracts": [],
      "isFixedGasLimit": false
    },
    {
      "hash": "0x92ca29350e279257da027c604f09a291fc9713e88bd4274d85d3c48670f85fd4",
      "transactionType": "CALL",
      "contractName": null,
      "contractAddress": "0x79dfbed14077b8f2421eece5707a17b161094e6a",
      "function": "wlMint(address)",
      "arguments": [
        "0x0000000000000000000000000000000000000000"
      ],
      "transaction": {
        "from": "0xcda2fdb452ff4f5d7ba1c3d5dfcc9cb926a5eb7d",
        "to": "0x79dfbed14077b8f2421eece5707a17b161094e6a",
        "gas": "0x3ddf7",
        "value": "0x0",
        "input": "0xc517b4a50000000000000000000000000000000000000000000000000000000000000000",
        "nonce": "0x1da1",
        "chainId": "0xed88"
      },
      "additionalContracts": [],
      "isFixedGasLimit": false
    },
    {
      "hash": "0x68ce84c6603daea2807fa8fa15d297f18d0e7bdfa0e1a8cc1329b49eba230227",
      "transactionType": "CALL",
      "contractName": null,
      "contractAddress": "0x79dfbed14077b8f2421eece5707a17b161094e6a",
      "function": "wlMint(address)",
      "arguments": [
        "0x0000000000000000000000000000000000000000"
      ],
      "transaction": {
        "from": "0xcda2fdb452ff4f5d7ba1c3d5dfcc9cb926a5eb7d",
        "to": "0x79dfbed14077b8f2421eece5707a17b161094e6a",
        "gas": "0x3ddf7",
        "value": "0x0",
        "input": "0xc517b4a50000000000000000000000000000000000000000000000000000000000000000",
        "nonce": "0x1da2",
        "chainId": "0xed88"
      },
      "additionalContracts": [],
      "isFixedGasLimit": false
    },
    {
      "hash": "0xc96b7e021900b09f7fe2e893c562eb705a9ebaddae07edb7e83d829b3f5e4ddd",
      "transactionType": "CALL",
      "contractName": null,
      "contractAddress": "0x79dfbed14077b8f2421eece5707a17b161094e6a",
      "function": "wlMint(address)",
      "arguments": [
        "0x0000000000000000000000000000000000000000"
      ],
      "transaction": {
        "from": "0xcda2fdb452ff4f5d7ba1c3d5dfcc9cb926a5eb7d",
        "to": "0x79dfbed14077b8f2421eece5707a17b161094e6a",
        "gas": "0x3ddf7",
        "value": "0x0",
        "input": "0xc517b4a50000000000000000000000000000000000000000000000000000000000000000",
        "nonce": "0x1da3",
        "chainId": "0xed88"
      },
      "additionalContracts": [],
      "isFixedGasLimit": false
    }
  ],
  "receipts": [
    {
      "status": "0x1",
      "cumulativeGasUsed": "0x37803",
      "logs": [
        {
          "address": "0x2e8af9c5922623058aa92a183b391e62cb6b2d12",
          "topics": [
            "0xddf252ad1be2c89b69c2b068fc378daa952ba7f163c4a11628f55a4df523b3ef",
            "0x0000000000000000000000000000000000000000000000000000000000000000",
            "0x000000000000000000000000cda2fdb452ff4f5d7ba1c3d5dfcc9cb926a5eb7d",
            "0x000000000000000000000000000000000000000000000000000000000000017c"
          ],
          "data": "0x",
          "blockHash": "0xfce7d43a8bc4664ab2dad7cd84d51c014f1ae0b0ba093b641a40dc688e15bd62",
          "blockNumber": "0x7507e4",
          "transactionHash": "0x34aece906f80c3e72082967a2bf71c8600b0b71e85bdf6e0313a69359add3109",
          "transactionIndex": "0x1",
          "logIndex": "0x0",
          "removed": false
        },
        {
          "address": "0x2e8af9c5922623058aa92a183b391e62cb6b2d12",
          "topics": [
            "0xf8e1a15aba9398e019f0b49df1a4fde98ee17ae345cb5f6b5e2c27f5033e8ce7"
          ],
          "data": "0x000000000000000000000000000000000000000000000000000000000000017c",
          "blockHash": "0xfce7d43a8bc4664ab2dad7cd84d51c014f1ae0b0ba093b641a40dc688e15bd62",
          "blockNumber": "0x7507e4",
          "transactionHash": "0x34aece906f80c3e72082967a2bf71c8600b0b71e85bdf6e0313a69359add3109",
          "transactionIndex": "0x1",
          "logIndex": "0x1",
          "removed": false
        }
      ],
      "logsBloom": "0x00000000000000000000000000000000000000020000000000000000000000000000000000000000000000000000000000000000000000000000000000000000000000000000000000000008040000000000000000000000000000000000000000000000020000000000000000000800002000000000800000000010000000000000000000000000000000000000000000000000000000200000000000000000000100000000000000000000000000002000000000004000000000000000008000000002000000000000000000000000000000000000000000000000002020000000000000000000200000000000000000000000100000000000000000000000",
      "type": "0x2",
      "transactionHash": "0x34aece906f80c3e72082967a2bf71c8600b0b71e85bdf6e0313a69359add3109",
      "transactionIndex": "0x1",
      "blockHash": "0xfce7d43a8bc4664ab2dad7cd84d51c014f1ae0b0ba093b641a40dc688e15bd62",
      "blockNumber": "0x7507e4",
      "gasUsed": "0x2ccb8",
      "effectiveGasPrice": "0xfd",
      "from": "0xcda2fdb452ff4f5d7ba1c3d5dfcc9cb926a5eb7d",
      "to": "0x79dfbed14077b8f2421eece5707a17b161094e6a",
      "contractAddress": null,
      "l1BaseFeeScalar": "0x186a0",
      "l1BlobBaseFee": "0x1",
      "l1BlobBaseFeeScalar": "0x95506",
      "l1Fee": "0x8fde4cf75d",
      "l1GasPrice": "0xe6307b25",
      "l1GasUsed": "0x640"
    },
    {
      "status": "0x1",
      "cumulativeGasUsed": "0x644bb",
      "logs": [
        {
          "address": "0x2e8af9c5922623058aa92a183b391e62cb6b2d12",
          "topics": [
            "0xddf252ad1be2c89b69c2b068fc378daa952ba7f163c4a11628f55a4df523b3ef",
            "0x0000000000000000000000000000000000000000000000000000000000000000",
            "0x000000000000000000000000cda2fdb452ff4f5d7ba1c3d5dfcc9cb926a5eb7d",
            "0x000000000000000000000000000000000000000000000000000000000000017d"
          ],
          "data": "0x",
          "blockHash": "0xfce7d43a8bc4664ab2dad7cd84d51c014f1ae0b0ba093b641a40dc688e15bd62",
          "blockNumber": "0x7507e4",
          "transactionHash": "0xbe98ce52950a50e412256a2a7e506aa11a55dd5f4a95119c2305d28da1730245",
          "transactionIndex": "0x2",
          "logIndex": "0x2",
          "removed": false
        },
        {
          "address": "0x2e8af9c5922623058aa92a183b391e62cb6b2d12",
          "topics": [
            "0xf8e1a15aba9398e019f0b49df1a4fde98ee17ae345cb5f6b5e2c27f5033e8ce7"
          ],
          "data": "0x000000000000000000000000000000000000000000000000000000000000017d",
          "blockHash": "0xfce7d43a8bc4664ab2dad7cd84d51c014f1ae0b0ba093b641a40dc688e15bd62",
          "blockNumber": "0x7507e4",
          "transactionHash": "0xbe98ce52950a50e412256a2a7e506aa11a55dd5f4a95119c2305d28da1730245",
          "transactionIndex": "0x2",
          "logIndex": "0x3",
          "removed": false
        }
      ],
      "logsBloom": "0x00000000000000000000000000000000000000020000000000000400000000000000000000000000000000000000000000000000000000000000000000000000000000000000000000000008040000000000000000000000000000000000000000000000020000000000000000000800002000010000800000000410000000000000000000000000000000000000000000000000000000000000000000000000000000000000000000000000000000002000000000004000000000000000008000000002000000000000000000000000000000000000000000000000000020000000000000000000200000000000000000000000100000000000000000000000",
      "type": "0x2",
      "transactionHash": "0xbe98ce52950a50e412256a2a7e506aa11a55dd5f4a95119c2305d28da1730245",
      "transactionIndex": "0x2",
      "blockHash": "0xfce7d43a8bc4664ab2dad7cd84d51c014f1ae0b0ba093b641a40dc688e15bd62",
      "blockNumber": "0x7507e4",
      "gasUsed": "0x2ccb8",
      "effectiveGasPrice": "0xfd",
      "from": "0xcda2fdb452ff4f5d7ba1c3d5dfcc9cb926a5eb7d",
      "to": "0x79dfbed14077b8f2421eece5707a17b161094e6a",
      "contractAddress": null,
      "l1BaseFeeScalar": "0x186a0",
      "l1BlobBaseFee": "0x1",
      "l1BlobBaseFeeScalar": "0x95506",
      "l1Fee": "0x8fde4cf75d",
      "l1GasPrice": "0xe6307b25",
      "l1GasUsed": "0x640"
    },
    {
      "status": "0x1",
      "cumulativeGasUsed": "0x91173",
      "logs": [
        {
          "address": "0x2e8af9c5922623058aa92a183b391e62cb6b2d12",
          "topics": [
            "0xddf252ad1be2c89b69c2b068fc378daa952ba7f163c4a11628f55a4df523b3ef",
            "0x0000000000000000000000000000000000000000000000000000000000000000",
            "0x000000000000000000000000cda2fdb452ff4f5d7ba1c3d5dfcc9cb926a5eb7d",
            "0x000000000000000000000000000000000000000000000000000000000000017e"
          ],
          "data": "0x",
          "blockHash": "0xfce7d43a8bc4664ab2dad7cd84d51c014f1ae0b0ba093b641a40dc688e15bd62",
          "blockNumber": "0x7507e4",
          "transactionHash": "0x2e008297707bcc8bcfa322ce1f5a643b6b563fdd6300ea32b0c77b0609c40316",
          "transactionIndex": "0x3",
          "logIndex": "0x4",
          "removed": false
        },
        {
          "address": "0x2e8af9c5922623058aa92a183b391e62cb6b2d12",
          "topics": [
            "0xf8e1a15aba9398e019f0b49df1a4fde98ee17ae345cb5f6b5e2c27f5033e8ce7"
          ],
          "data": "0x000000000000000000000000000000000000000000000000000000000000017e",
          "blockHash": "0xfce7d43a8bc4664ab2dad7cd84d51c014f1ae0b0ba093b641a40dc688e15bd62",
          "blockNumber": "0x7507e4",
          "transactionHash": "0x2e008297707bcc8bcfa322ce1f5a643b6b563fdd6300ea32b0c77b0609c40316",
          "transactionIndex": "0x3",
          "logIndex": "0x5",
          "removed": false
        }
      ],
      "logsBloom": "0x0000000000000000000000000000000000000002000000000000000000000000000000040000000000000000000000000000000000000000000000000000000000000000000000000000000804000000000000000000000000000000000000000000000002000000000000000000080000200000000080000000001000000000000000000000000000000000000000000000000000000000000000000000000000000000000000000000000000000000200000000000400000000000000000a000000002000000000000000000000000000000000000000000020000000020000000000000000000200000000000000000000000100000000000000000000000",
      "type": "0x2",
      "transactionHash": "0x2e008297707bcc8bcfa322ce1f5a643b6b563fdd6300ea32b0c77b0609c40316",
      "transactionIndex": "0x3",
      "blockHash": "0xfce7d43a8bc4664ab2dad7cd84d51c014f1ae0b0ba093b641a40dc688e15bd62",
      "blockNumber": "0x7507e4",
      "gasUsed": "0x2ccb8",
      "effectiveGasPrice": "0xfd",
      "from": "0xcda2fdb452ff4f5d7ba1c3d5dfcc9cb926a5eb7d",
      "to": "0x79dfbed14077b8f2421eece5707a17b161094e6a",
      "contractAddress": null,
      "l1BaseFeeScalar": "0x186a0",
      "l1BlobBaseFee": "0x1",
      "l1BlobBaseFeeScalar": "0x95506",
      "l1Fee": "0x8fde4cf75d",
      "l1GasPrice": "0xe6307b25",
      "l1GasUsed": "0x640"
    },
    {
      "status": "0x1",
      "cumulativeGasUsed": "0xbde2b",
      "logs": [
        {
          "address": "0x2e8af9c5922623058aa92a183b391e62cb6b2d12",
          "topics": [
            "0xddf252ad1be2c89b69c2b068fc378daa952ba7f163c4a11628f55a4df523b3ef",
            "0x0000000000000000000000000000000000000000000000000000000000000000",
            "0x000000000000000000000000cda2fdb452ff4f5d7ba1c3d5dfcc9cb926a5eb7d",
            "0x000000000000000000000000000000000000000000000000000000000000017f"
          ],
          "data": "0x",
          "blockHash": "0xfce7d43a8bc4664ab2dad7cd84d51c014f1ae0b0ba093b641a40dc688e15bd62",
          "blockNumber": "0x7507e4",
          "transactionHash": "0x06389be828a43a83c097b7d88e242040a89abb4574cfdb150c418d3aa3abd689",
          "transactionIndex": "0x4",
          "logIndex": "0x6",
          "removed": false
        },
        {
          "address": "0x2e8af9c5922623058aa92a183b391e62cb6b2d12",
          "topics": [
            "0xf8e1a15aba9398e019f0b49df1a4fde98ee17ae345cb5f6b5e2c27f5033e8ce7"
          ],
          "data": "0x000000000000000000000000000000000000000000000000000000000000017f",
          "blockHash": "0xfce7d43a8bc4664ab2dad7cd84d51c014f1ae0b0ba093b641a40dc688e15bd62",
          "blockNumber": "0x7507e4",
          "transactionHash": "0x06389be828a43a83c097b7d88e242040a89abb4574cfdb150c418d3aa3abd689",
          "transactionIndex": "0x4",
          "logIndex": "0x7",
          "removed": false
        }
      ],
      "logsBloom": "0x00000000000000000000000000000000000000020000000000000000000000000000000000000000000000000000000000000000000000000000000000000000000000000000000000000008040000020000000000000000000000000000000000000000020040000000000000000800002000000000800000000010000000000000000000000000000000000000000000000000000000000000000000000000000000000000000000000000000000002000000000004000000000000000008000000002000000000000000000000000000000000000000000000000000020000000000000000000200000000000000000000000100000000001000000000000",
      "type": "0x2",
      "transactionHash": "0x06389be828a43a83c097b7d88e242040a89abb4574cfdb150c418d3aa3abd689",
      "transactionIndex": "0x4",
      "blockHash": "0xfce7d43a8bc4664ab2dad7cd84d51c014f1ae0b0ba093b641a40dc688e15bd62",
      "blockNumber": "0x7507e4",
      "gasUsed": "0x2ccb8",
      "effectiveGasPrice": "0xfd",
      "from": "0xcda2fdb452ff4f5d7ba1c3d5dfcc9cb926a5eb7d",
      "to": "0x79dfbed14077b8f2421eece5707a17b161094e6a",
      "contractAddress": null,
      "l1BaseFeeScalar": "0x186a0",
      "l1BlobBaseFee": "0x1",
      "l1BlobBaseFeeScalar": "0x95506",
      "l1Fee": "0x8fde4cf75d",
      "l1GasPrice": "0xe6307b25",
      "l1GasUsed": "0x640"
    },
    {
      "status": "0x1",
      "cumulativeGasUsed": "0xeaae3",
      "logs": [
        {
          "address": "0x2e8af9c5922623058aa92a183b391e62cb6b2d12",
          "topics": [
            "0xddf252ad1be2c89b69c2b068fc378daa952ba7f163c4a11628f55a4df523b3ef",
            "0x0000000000000000000000000000000000000000000000000000000000000000",
            "0x000000000000000000000000cda2fdb452ff4f5d7ba1c3d5dfcc9cb926a5eb7d",
            "0x0000000000000000000000000000000000000000000000000000000000000180"
          ],
          "data": "0x",
          "blockHash": "0xfce7d43a8bc4664ab2dad7cd84d51c014f1ae0b0ba093b641a40dc688e15bd62",
          "blockNumber": "0x7507e4",
          "transactionHash": "0x2a76e08277e1933ff80ead471d150d6b8da3b0aecdab8cbec03d5f78bb1b57b0",
          "transactionIndex": "0x5",
          "logIndex": "0x8",
          "removed": false
        },
        {
          "address": "0x2e8af9c5922623058aa92a183b391e62cb6b2d12",
          "topics": [
            "0xf8e1a15aba9398e019f0b49df1a4fde98ee17ae345cb5f6b5e2c27f5033e8ce7"
          ],
          "data": "0x0000000000000000000000000000000000000000000000000000000000000180",
          "blockHash": "0xfce7d43a8bc4664ab2dad7cd84d51c014f1ae0b0ba093b641a40dc688e15bd62",
          "blockNumber": "0x7507e4",
          "transactionHash": "0x2a76e08277e1933ff80ead471d150d6b8da3b0aecdab8cbec03d5f78bb1b57b0",
          "transactionIndex": "0x5",
          "logIndex": "0x9",
          "removed": false
        }
      ],
      "logsBloom": "0x00000000000000000000000000000000020000020000000000000000000000000000000000000000000000000000000000000000000000000000000000000040000000000000000000000008040000000000000000000000000000000000000000000000020000000000000000000800002000000000800000000010000000000000000000000000000000000000000000000000000000000000000000000000000000000000000000000000000000002000000000004000000000000000008000000002000000000000000000000000000000200000000000000000000020000000000000000000200000000000000000000000100000000000000000000000",
      "type": "0x2",
      "transactionHash": "0x2a76e08277e1933ff80ead471d150d6b8da3b0aecdab8cbec03d5f78bb1b57b0",
      "transactionIndex": "0x5",
      "blockHash": "0xfce7d43a8bc4664ab2dad7cd84d51c014f1ae0b0ba093b641a40dc688e15bd62",
      "blockNumber": "0x7507e4",
      "gasUsed": "0x2ccb8",
      "effectiveGasPrice": "0xfd",
      "from": "0xcda2fdb452ff4f5d7ba1c3d5dfcc9cb926a5eb7d",
      "to": "0x79dfbed14077b8f2421eece5707a17b161094e6a",
      "contractAddress": null,
      "l1BaseFeeScalar": "0x186a0",
      "l1BlobBaseFee": "0x1",
      "l1BlobBaseFeeScalar": "0x95506",
      "l1Fee": "0x8fde4cf75d",
      "l1GasPrice": "0xe6307b25",
      "l1GasUsed": "0x640"
    },
    {
      "status": "0x1",
      "cumulativeGasUsed": "0x11779b",
      "logs": [
        {
          "address": "0x2e8af9c5922623058aa92a183b391e62cb6b2d12",
          "topics": [
            "0xddf252ad1be2c89b69c2b068fc378daa952ba7f163c4a11628f55a4df523b3ef",
            "0x0000000000000000000000000000000000000000000000000000000000000000",
            "0x000000000000000000000000cda2fdb452ff4f5d7ba1c3d5dfcc9cb926a5eb7d",
            "0x0000000000000000000000000000000000000000000000000000000000000181"
          ],
          "data": "0x",
          "blockHash": "0xfce7d43a8bc4664ab2dad7cd84d51c014f1ae0b0ba093b641a40dc688e15bd62",
          "blockNumber": "0x7507e4",
          "transactionHash": "0x70f6635675f907f0903102729c2d35a4bc68762c65e21f12d83b24ea90e6406b",
          "transactionIndex": "0x6",
          "logIndex": "0xa",
          "removed": false
        },
        {
          "address": "0x2e8af9c5922623058aa92a183b391e62cb6b2d12",
          "topics": [
            "0xf8e1a15aba9398e019f0b49df1a4fde98ee17ae345cb5f6b5e2c27f5033e8ce7"
          ],
          "data": "0x0000000000000000000000000000000000000000000000000000000000000181",
          "blockHash": "0xfce7d43a8bc4664ab2dad7cd84d51c014f1ae0b0ba093b641a40dc688e15bd62",
          "blockNumber": "0x7507e4",
          "transactionHash": "0x70f6635675f907f0903102729c2d35a4bc68762c65e21f12d83b24ea90e6406b",
          "transactionIndex": "0x6",
          "logIndex": "0xb",
          "removed": false
        }
      ],
      "logsBloom": "0x00000000000000000000000000000000000000020000000000000000000000000000000000000000000000000000000000000000000000000000000000000000000000000000000000000008040000000000000000000000000000000000000000000000020000000000000000000800002000000000800000000010000000000000000000000000000000000000000001000000000000000000000000000000000000000000000000000000000000002000000004004000200000000000008000000002000000000000000000000000000000000000000000000000000020000000000000000000200000000000000000000000100000000000000000000000",
      "type": "0x2",
      "transactionHash": "0x70f6635675f907f0903102729c2d35a4bc68762c65e21f12d83b24ea90e6406b",
      "transactionIndex": "0x6",
      "blockHash": "0xfce7d43a8bc4664ab2dad7cd84d51c014f1ae0b0ba093b641a40dc688e15bd62",
      "blockNumber": "0x7507e4",
      "gasUsed": "0x2ccb8",
      "effectiveGasPrice": "0xfd",
      "from": "0xcda2fdb452ff4f5d7ba1c3d5dfcc9cb926a5eb7d",
      "to": "0x79dfbed14077b8f2421eece5707a17b161094e6a",
      "contractAddress": null,
      "l1BaseFeeScalar": "0x186a0",
      "l1BlobBaseFee": "0x1",
      "l1BlobBaseFeeScalar": "0x95506",
      "l1Fee": "0x8fde4cf75d",
      "l1GasPrice": "0xe6307b25",
      "l1GasUsed": "0x640"
    },
    {
      "status": "0x1",
      "cumulativeGasUsed": "0x144453",
      "logs": [
        {
          "address": "0x2e8af9c5922623058aa92a183b391e62cb6b2d12",
          "topics": [
            "0xddf252ad1be2c89b69c2b068fc378daa952ba7f163c4a11628f55a4df523b3ef",
            "0x0000000000000000000000000000000000000000000000000000000000000000",
            "0x000000000000000000000000cda2fdb452ff4f5d7ba1c3d5dfcc9cb926a5eb7d",
            "0x0000000000000000000000000000000000000000000000000000000000000182"
          ],
          "data": "0x",
          "blockHash": "0xfce7d43a8bc4664ab2dad7cd84d51c014f1ae0b0ba093b641a40dc688e15bd62",
          "blockNumber": "0x7507e4",
          "transactionHash": "0xf48408da29c252480dbecc457db1efe79a3e65a9d780aa243822750573b39dc9",
          "transactionIndex": "0x7",
          "logIndex": "0xc",
          "removed": false
        },
        {
          "address": "0x2e8af9c5922623058aa92a183b391e62cb6b2d12",
          "topics": [
            "0xf8e1a15aba9398e019f0b49df1a4fde98ee17ae345cb5f6b5e2c27f5033e8ce7"
          ],
          "data": "0x0000000000000000000000000000000000000000000000000000000000000182",
          "blockHash": "0xfce7d43a8bc4664ab2dad7cd84d51c014f1ae0b0ba093b641a40dc688e15bd62",
          "blockNumber": "0x7507e4",
          "transactionHash": "0xf48408da29c252480dbecc457db1efe79a3e65a9d780aa243822750573b39dc9",
          "transactionIndex": "0x7",
          "logIndex": "0xd",
          "removed": false
        }
      ],
      "logsBloom": "0x00000000000000000000000000000000000000020000000000000000000000000000000000000000000000000004000000000000000000000000000000000000000000000000000000000008040000000000000000000000000000000000000000000000020000000000000000000800002000000000800000000012000000000000000000004000000000000000000000000000000000000000000000000000000000000000000000000000000000002000000000004000000000000000008000000002000000000000000000000000000000000000000000000000000020000000000000000000200000000000000000000000100000000000000000000000",
      "type": "0x2",
      "transactionHash": "0xf48408da29c252480dbecc457db1efe79a3e65a9d780aa243822750573b39dc9",
      "transactionIndex": "0x7",
      "blockHash": "0xfce7d43a8bc4664ab2dad7cd84d51c014f1ae0b0ba093b641a40dc688e15bd62",
      "blockNumber": "0x7507e4",
      "gasUsed": "0x2ccb8",
      "effectiveGasPrice": "0xfd",
      "from": "0xcda2fdb452ff4f5d7ba1c3d5dfcc9cb926a5eb7d",
      "to": "0x79dfbed14077b8f2421eece5707a17b161094e6a",
      "contractAddress": null,
      "l1BaseFeeScalar": "0x186a0",
      "l1BlobBaseFee": "0x1",
      "l1BlobBaseFeeScalar": "0x95506",
      "l1Fee": "0x8fde4cf75d",
      "l1GasPrice": "0xe6307b25",
      "l1GasUsed": "0x640"
    },
    {
      "status": "0x1",
      "cumulativeGasUsed": "0x17110b",
      "logs": [
        {
          "address": "0x2e8af9c5922623058aa92a183b391e62cb6b2d12",
          "topics": [
            "0xddf252ad1be2c89b69c2b068fc378daa952ba7f163c4a11628f55a4df523b3ef",
            "0x0000000000000000000000000000000000000000000000000000000000000000",
            "0x000000000000000000000000cda2fdb452ff4f5d7ba1c3d5dfcc9cb926a5eb7d",
            "0x0000000000000000000000000000000000000000000000000000000000000183"
          ],
          "data": "0x",
          "blockHash": "0xfce7d43a8bc4664ab2dad7cd84d51c014f1ae0b0ba093b641a40dc688e15bd62",
          "blockNumber": "0x7507e4",
          "transactionHash": "0xe8bfef832e948621e0b0ebf53ed66ca421ad16107dde8f497c575b49689f9051",
          "transactionIndex": "0x8",
          "logIndex": "0xe",
          "removed": false
        },
        {
          "address": "0x2e8af9c5922623058aa92a183b391e62cb6b2d12",
          "topics": [
            "0xf8e1a15aba9398e019f0b49df1a4fde98ee17ae345cb5f6b5e2c27f5033e8ce7"
          ],
          "data": "0x0000000000000000000000000000000000000000000000000000000000000183",
          "blockHash": "0xfce7d43a8bc4664ab2dad7cd84d51c014f1ae0b0ba093b641a40dc688e15bd62",
          "blockNumber": "0x7507e4",
          "transactionHash": "0xe8bfef832e948621e0b0ebf53ed66ca421ad16107dde8f497c575b49689f9051",
          "transactionIndex": "0x8",
          "logIndex": "0xf",
          "removed": false
        }
      ],
      "logsBloom": "0x00000000000000000000000000000000000000020000000000000000000000000000000000000000000000000000000000000000000000000000000000000000000000000000000000000008040000000000000000000000000000000000000000000000020000000000000000000800002000000000800000000010000000000000000000000000000000000000000000000000000000000000000000000000000000000008000000000040000000002000000000004000000000000000008000000002000000000000000000000008000000000000000000000000000020000000000000000000200000000000000000000000100000000000000000000000",
      "type": "0x2",
      "transactionHash": "0xe8bfef832e948621e0b0ebf53ed66ca421ad16107dde8f497c575b49689f9051",
      "transactionIndex": "0x8",
      "blockHash": "0xfce7d43a8bc4664ab2dad7cd84d51c014f1ae0b0ba093b641a40dc688e15bd62",
      "blockNumber": "0x7507e4",
      "gasUsed": "0x2ccb8",
      "effectiveGasPrice": "0xfd",
      "from": "0xcda2fdb452ff4f5d7ba1c3d5dfcc9cb926a5eb7d",
      "to": "0x79dfbed14077b8f2421eece5707a17b161094e6a",
      "contractAddress": null,
      "l1BaseFeeScalar": "0x186a0",
      "l1BlobBaseFee": "0x1",
      "l1BlobBaseFeeScalar": "0x95506",
      "l1Fee": "0x8fde4cf75d",
      "l1GasPrice": "0xe6307b25",
      "l1GasUsed": "0x640"
    },
    {
      "status": "0x1",
      "cumulativeGasUsed": "0x19ddc3",
      "logs": [
        {
          "address": "0x2e8af9c5922623058aa92a183b391e62cb6b2d12",
          "topics": [
            "0xddf252ad1be2c89b69c2b068fc378daa952ba7f163c4a11628f55a4df523b3ef",
            "0x0000000000000000000000000000000000000000000000000000000000000000",
            "0x000000000000000000000000cda2fdb452ff4f5d7ba1c3d5dfcc9cb926a5eb7d",
            "0x0000000000000000000000000000000000000000000000000000000000000184"
          ],
          "data": "0x",
          "blockHash": "0xfce7d43a8bc4664ab2dad7cd84d51c014f1ae0b0ba093b641a40dc688e15bd62",
          "blockNumber": "0x7507e4",
          "transactionHash": "0x6e7b65bc18a199c612280d6ec59a1a4771ab706d7f0a073ae8e53654d99a9f13",
          "transactionIndex": "0x9",
          "logIndex": "0x10",
          "removed": false
        },
        {
          "address": "0x2e8af9c5922623058aa92a183b391e62cb6b2d12",
          "topics": [
            "0xf8e1a15aba9398e019f0b49df1a4fde98ee17ae345cb5f6b5e2c27f5033e8ce7"
          ],
          "data": "0x0000000000000000000000000000000000000000000000000000000000000184",
          "blockHash": "0xfce7d43a8bc4664ab2dad7cd84d51c014f1ae0b0ba093b641a40dc688e15bd62",
          "blockNumber": "0x7507e4",
          "transactionHash": "0x6e7b65bc18a199c612280d6ec59a1a4771ab706d7f0a073ae8e53654d99a9f13",
          "transactionIndex": "0x9",
          "logIndex": "0x11",
          "removed": false
        }
      ],
      "logsBloom": "0x00000000000000000000000000000000000000020000000000000000000000000000000000000000000000000000000000000000000000000000000000000000000000000000000000000008040000000000000000000000000000000000000000000000020000000000000000000800002000000000a00000000010000000000000000000000000000000000000000000000000000000000000000000000000000000000000000000000000000000002000000000004000000000000000008000000002000000000000000080000000000000000000000000000000000020000000000000000000200000000000000000000000100080000000000000000000",
      "type": "0x2",
      "transactionHash": "0x6e7b65bc18a199c612280d6ec59a1a4771ab706d7f0a073ae8e53654d99a9f13",
      "transactionIndex": "0x9",
      "blockHash": "0xfce7d43a8bc4664ab2dad7cd84d51c014f1ae0b0ba093b641a40dc688e15bd62",
      "blockNumber": "0x7507e4",
      "gasUsed": "0x2ccb8",
      "effectiveGasPrice": "0xfd",
      "from": "0xcda2fdb452ff4f5d7ba1c3d5dfcc9cb926a5eb7d",
      "to": "0x79dfbed14077b8f2421eece5707a17b161094e6a",
      "contractAddress": null,
      "l1BaseFeeScalar": "0x186a0",
      "l1BlobBaseFee": "0x1",
      "l1BlobBaseFeeScalar": "0x95506",
      "l1Fee": "0x8fde4cf75d",
      "l1GasPrice": "0xe6307b25",
      "l1GasUsed": "0x640"
    },
    {
      "status": "0x1",
      "cumulativeGasUsed": "0x1caa7b",
      "logs": [
        {
          "address": "0x2e8af9c5922623058aa92a183b391e62cb6b2d12",
          "topics": [
            "0xddf252ad1be2c89b69c2b068fc378daa952ba7f163c4a11628f55a4df523b3ef",
            "0x0000000000000000000000000000000000000000000000000000000000000000",
            "0x000000000000000000000000cda2fdb452ff4f5d7ba1c3d5dfcc9cb926a5eb7d",
            "0x0000000000000000000000000000000000000000000000000000000000000185"
          ],
          "data": "0x",
          "blockHash": "0xfce7d43a8bc4664ab2dad7cd84d51c014f1ae0b0ba093b641a40dc688e15bd62",
          "blockNumber": "0x7507e4",
          "transactionHash": "0xae02f185fa7e83c6086077c09387350f224b560c045f69f540c3c90c781eabb9",
          "transactionIndex": "0xa",
          "logIndex": "0x12",
          "removed": false
        },
        {
          "address": "0x2e8af9c5922623058aa92a183b391e62cb6b2d12",
          "topics": [
            "0xf8e1a15aba9398e019f0b49df1a4fde98ee17ae345cb5f6b5e2c27f5033e8ce7"
          ],
          "data": "0x0000000000000000000000000000000000000000000000000000000000000185",
          "blockHash": "0xfce7d43a8bc4664ab2dad7cd84d51c014f1ae0b0ba093b641a40dc688e15bd62",
          "blockNumber": "0x7507e4",
          "transactionHash": "0xae02f185fa7e83c6086077c09387350f224b560c045f69f540c3c90c781eabb9",
          "transactionIndex": "0xa",
          "logIndex": "0x13",
          "removed": false
        }
      ],
      "logsBloom": "0x80000000000000000000000000000000000000020000001000000010000000000000000000000000000000000000000000000000000000000000000000000000000000000000000000000008040000000000000000000000000000000000000000000000020000000000000000000800002000000000800000000010000000000000000000000000000000000000000000000000000000000000000000000000000000000000000000000000000000002000000000004000000000000000008000000002000000000000000000000000000000000000000000000000000020000000000000000000200000000000000000000000100000000000000000000000",
      "type": "0x2",
      "transactionHash": "0xae02f185fa7e83c6086077c09387350f224b560c045f69f540c3c90c781eabb9",
      "transactionIndex": "0xa",
      "blockHash": "0xfce7d43a8bc4664ab2dad7cd84d51c014f1ae0b0ba093b641a40dc688e15bd62",
      "blockNumber": "0x7507e4",
      "gasUsed": "0x2ccb8",
      "effectiveGasPrice": "0xfd",
      "from": "0xcda2fdb452ff4f5d7ba1c3d5dfcc9cb926a5eb7d",
      "to": "0x79dfbed14077b8f2421eece5707a17b161094e6a",
      "contractAddress": null,
      "l1BaseFeeScalar": "0x186a0",
      "l1BlobBaseFee": "0x1",
      "l1BlobBaseFeeScalar": "0x95506",
      "l1Fee": "0x8fde4cf75d",
      "l1GasPrice": "0xe6307b25",
      "l1GasUsed": "0x640"
    },
    {
      "status": "0x1",
      "cumulativeGasUsed": "0x1f7733",
      "logs": [
        {
          "address": "0x2e8af9c5922623058aa92a183b391e62cb6b2d12",
          "topics": [
            "0xddf252ad1be2c89b69c2b068fc378daa952ba7f163c4a11628f55a4df523b3ef",
            "0x0000000000000000000000000000000000000000000000000000000000000000",
            "0x000000000000000000000000cda2fdb452ff4f5d7ba1c3d5dfcc9cb926a5eb7d",
            "0x0000000000000000000000000000000000000000000000000000000000000186"
          ],
          "data": "0x",
          "blockHash": "0xfce7d43a8bc4664ab2dad7cd84d51c014f1ae0b0ba093b641a40dc688e15bd62",
          "blockNumber": "0x7507e4",
          "transactionHash": "0x1b70b2c363ffad5443fd58fddb8234dc20a9030c95a6af5437caa679236255d3",
          "transactionIndex": "0xb",
          "logIndex": "0x14",
          "removed": false
        },
        {
          "address": "0x2e8af9c5922623058aa92a183b391e62cb6b2d12",
          "topics": [
            "0xf8e1a15aba9398e019f0b49df1a4fde98ee17ae345cb5f6b5e2c27f5033e8ce7"
          ],
          "data": "0x0000000000000000000000000000000000000000000000000000000000000186",
          "blockHash": "0xfce7d43a8bc4664ab2dad7cd84d51c014f1ae0b0ba093b641a40dc688e15bd62",
          "blockNumber": "0x7507e4",
          "transactionHash": "0x1b70b2c363ffad5443fd58fddb8234dc20a9030c95a6af5437caa679236255d3",
          "transactionIndex": "0xb",
          "logIndex": "0x15",
          "removed": false
        }
      ],
      "logsBloom": "0x00000000000000000000000000000000000000020000000000000000000000000000000000000000000000000000000000000000000000000000000000000000000000400000000000000008040000000000000000000000000000000000000000000000020000004000000000000800002000000000800000000010000000000000000000000000000000000000000000000000000000000000000000000000000004000000000000000000000000002000000000004000000000000000008000000002000000000000000000000000000000000000000000000000000020000000000000000000200000000000000000000000100000000000000000000000",
      "type": "0x2",
      "transactionHash": "0x1b70b2c363ffad5443fd58fddb8234dc20a9030c95a6af5437caa679236255d3",
      "transactionIndex": "0xb",
      "blockHash": "0xfce7d43a8bc4664ab2dad7cd84d51c014f1ae0b0ba093b641a40dc688e15bd62",
      "blockNumber": "0x7507e4",
      "gasUsed": "0x2ccb8",
      "effectiveGasPrice": "0xfd",
      "from": "0xcda2fdb452ff4f5d7ba1c3d5dfcc9cb926a5eb7d",
      "to": "0x79dfbed14077b8f2421eece5707a17b161094e6a",
      "contractAddress": null,
      "l1BaseFeeScalar": "0x186a0",
      "l1BlobBaseFee": "0x1",
      "l1BlobBaseFeeScalar": "0x95506",
      "l1Fee": "0x8fde4cf75d",
      "l1GasPrice": "0xe6307b25",
      "l1GasUsed": "0x640"
    },
    {
      "status": "0x1",
      "cumulativeGasUsed": "0x5c656",
      "logs": [
        {
          "address": "0x2e8af9c5922623058aa92a183b391e62cb6b2d12",
          "topics": [
            "0xddf252ad1be2c89b69c2b068fc378daa952ba7f163c4a11628f55a4df523b3ef",
            "0x0000000000000000000000000000000000000000000000000000000000000000",
            "0x000000000000000000000000cda2fdb452ff4f5d7ba1c3d5dfcc9cb926a5eb7d",
            "0x0000000000000000000000000000000000000000000000000000000000000187"
          ],
          "data": "0x",
          "blockHash": "0x3394793cec41f3a726bbc75d6f2d40e568c1bd1bf7441f7ab5e93f659a4e385a",
          "blockNumber": "0x7507e5",
          "transactionHash": "0x98b9b8e91c4719678cd884bfdead30c342507f3dcd341f44757e41cda5710671",
          "transactionIndex": "0x2",
          "logIndex": "0x5",
          "removed": false
        },
        {
          "address": "0x2e8af9c5922623058aa92a183b391e62cb6b2d12",
          "topics": [
            "0xf8e1a15aba9398e019f0b49df1a4fde98ee17ae345cb5f6b5e2c27f5033e8ce7"
          ],
          "data": "0x0000000000000000000000000000000000000000000000000000000000000187",
          "blockHash": "0x3394793cec41f3a726bbc75d6f2d40e568c1bd1bf7441f7ab5e93f659a4e385a",
          "blockNumber": "0x7507e5",
          "transactionHash": "0x98b9b8e91c4719678cd884bfdead30c342507f3dcd341f44757e41cda5710671",
          "transactionIndex": "0x2",
          "logIndex": "0x6",
          "removed": false
        }
      ],
      "logsBloom": "0x00000000000000000000000000000000000000020000000000000000000000000000000000000000000000000000000000000000000000000000000000000000000000000000000000000008040000000000000000000000000000000000000000000000020000000000000000000800002020000000800000000010000000000000000000000400000000000000000000000000000000000000000000000000000000000000000000000000000000002000000000004000000000000000008000000002000000000000000000001000000000000000000000000000000020000000000000000000200000000000000000000000100000000000000000000000",
      "type": "0x2",
      "transactionHash": "0x98b9b8e91c4719678cd884bfdead30c342507f3dcd341f44757e41cda5710671",
      "transactionIndex": "0x2",
      "blockHash": "0x3394793cec41f3a726bbc75d6f2d40e568c1bd1bf7441f7ab5e93f659a4e385a",
      "blockNumber": "0x7507e5",
      "gasUsed": "0x2ccb8",
      "effectiveGasPrice": "0xfd",
      "from": "0xcda2fdb452ff4f5d7ba1c3d5dfcc9cb926a5eb7d",
      "to": "0x79dfbed14077b8f2421eece5707a17b161094e6a",
      "contractAddress": null,
      "l1BaseFeeScalar": "0x186a0",
      "l1BlobBaseFee": "0x1",
      "l1BlobBaseFeeScalar": "0x95506",
      "l1Fee": "0x8fde4cf75d",
      "l1GasPrice": "0xe6307b25",
      "l1GasUsed": "0x640"
    },
    {
      "status": "0x1",
      "cumulativeGasUsed": "0x8930e",
      "logs": [
        {
          "address": "0x2e8af9c5922623058aa92a183b391e62cb6b2d12",
          "topics": [
            "0xddf252ad1be2c89b69c2b068fc378daa952ba7f163c4a11628f55a4df523b3ef",
            "0x0000000000000000000000000000000000000000000000000000000000000000",
            "0x000000000000000000000000cda2fdb452ff4f5d7ba1c3d5dfcc9cb926a5eb7d",
            "0x0000000000000000000000000000000000000000000000000000000000000188"
          ],
          "data": "0x",
          "blockHash": "0x3394793cec41f3a726bbc75d6f2d40e568c1bd1bf7441f7ab5e93f659a4e385a",
          "blockNumber": "0x7507e5",
          "transactionHash": "0x282b2c6a4842b1b19d45a3b6b41916824666f075de8c8c5d7fb3e56802020666",
          "transactionIndex": "0x3",
          "logIndex": "0x7",
          "removed": false
        },
        {
          "address": "0x2e8af9c5922623058aa92a183b391e62cb6b2d12",
          "topics": [
            "0xf8e1a15aba9398e019f0b49df1a4fde98ee17ae345cb5f6b5e2c27f5033e8ce7"
          ],
          "data": "0x0000000000000000000000000000000000000000000000000000000000000188",
          "blockHash": "0x3394793cec41f3a726bbc75d6f2d40e568c1bd1bf7441f7ab5e93f659a4e385a",
          "blockNumber": "0x7507e5",
          "transactionHash": "0x282b2c6a4842b1b19d45a3b6b41916824666f075de8c8c5d7fb3e56802020666",
          "transactionIndex": "0x3",
          "logIndex": "0x8",
          "removed": false
        }
      ],
      "logsBloom": "0x00000000000000000000000004000000000000020000000000000000000000000000000000000000004000000000000000000000000000000000000000000000000000000000000000000008040000000000000000000000000000000000000000200000020000000000000000000800002000000000800000000010000000000000000000000000000000000000000000000000000000000000000000000000000000000000000000000000000000002000000000004000000000000000008000000002000000000000000000000000000000000000000000000000000020000000000000000000200000000000000000000000100000000000000000000000",
      "type": "0x2",
      "transactionHash": "0x282b2c6a4842b1b19d45a3b6b41916824666f075de8c8c5d7fb3e56802020666",
      "transactionIndex": "0x3",
      "blockHash": "0x3394793cec41f3a726bbc75d6f2d40e568c1bd1bf7441f7ab5e93f659a4e385a",
      "blockNumber": "0x7507e5",
      "gasUsed": "0x2ccb8",
      "effectiveGasPrice": "0xfd",
      "from": "0xcda2fdb452ff4f5d7ba1c3d5dfcc9cb926a5eb7d",
      "to": "0x79dfbed14077b8f2421eece5707a17b161094e6a",
      "contractAddress": null,
      "l1BaseFeeScalar": "0x186a0",
      "l1BlobBaseFee": "0x1",
      "l1BlobBaseFeeScalar": "0x95506",
      "l1Fee": "0x8fde4cf75d",
      "l1GasPrice": "0xe6307b25",
      "l1GasUsed": "0x640"
    },
    {
      "status": "0x1",
      "cumulativeGasUsed": "0xb5fc6",
      "logs": [
        {
          "address": "0x2e8af9c5922623058aa92a183b391e62cb6b2d12",
          "topics": [
            "0xddf252ad1be2c89b69c2b068fc378daa952ba7f163c4a11628f55a4df523b3ef",
            "0x0000000000000000000000000000000000000000000000000000000000000000",
            "0x000000000000000000000000cda2fdb452ff4f5d7ba1c3d5dfcc9cb926a5eb7d",
            "0x0000000000000000000000000000000000000000000000000000000000000189"
          ],
          "data": "0x",
          "blockHash": "0x3394793cec41f3a726bbc75d6f2d40e568c1bd1bf7441f7ab5e93f659a4e385a",
          "blockNumber": "0x7507e5",
          "transactionHash": "0x8404383d96e78fde012d0feec8e97ca6a31d958762f3d4048b359840c3e08240",
          "transactionIndex": "0x4",
          "logIndex": "0x9",
          "removed": false
        },
        {
          "address": "0x2e8af9c5922623058aa92a183b391e62cb6b2d12",
          "topics": [
            "0xf8e1a15aba9398e019f0b49df1a4fde98ee17ae345cb5f6b5e2c27f5033e8ce7"
          ],
          "data": "0x0000000000000000000000000000000000000000000000000000000000000189",
          "blockHash": "0x3394793cec41f3a726bbc75d6f2d40e568c1bd1bf7441f7ab5e93f659a4e385a",
          "blockNumber": "0x7507e5",
          "transactionHash": "0x8404383d96e78fde012d0feec8e97ca6a31d958762f3d4048b359840c3e08240",
          "transactionIndex": "0x4",
          "logIndex": "0xa",
          "removed": false
        }
      ],
      "logsBloom": "0x00000000000000100000000000000000000000020000000000000000000000000000000000000000000000000000000000000000000000000000000000000000000000000000000000000008040000002000000000000000000000000000000000000000020000000000000000000800002000000000800000000010000000000000000000000000000000000000000000000000000000000000000000000000000000000000000000000000000008002000000000004000000000000000008000000002000000000000000000000000000000000000000000000000000020000000000000000000200000000000000000000000100000000000000000000000",
      "type": "0x2",
      "transactionHash": "0x8404383d96e78fde012d0feec8e97ca6a31d958762f3d4048b359840c3e08240",
      "transactionIndex": "0x4",
      "blockHash": "0x3394793cec41f3a726bbc75d6f2d40e568c1bd1bf7441f7ab5e93f659a4e385a",
      "blockNumber": "0x7507e5",
      "gasUsed": "0x2ccb8",
      "effectiveGasPrice": "0xfd",
      "from": "0xcda2fdb452ff4f5d7ba1c3d5dfcc9cb926a5eb7d",
      "to": "0x79dfbed14077b8f2421eece5707a17b161094e6a",
      "contractAddress": null,
      "l1BaseFeeScalar": "0x186a0",
      "l1BlobBaseFee": "0x1",
      "l1BlobBaseFeeScalar": "0x95506",
      "l1Fee": "0x8fde4cf75d",
      "l1GasPrice": "0xe6307b25",
      "l1GasUsed": "0x640"
    },
    {
      "status": "0x1",
      "cumulativeGasUsed": "0xe2c7e",
      "logs": [
        {
          "address": "0x2e8af9c5922623058aa92a183b391e62cb6b2d12",
          "topics": [
            "0xddf252ad1be2c89b69c2b068fc378daa952ba7f163c4a11628f55a4df523b3ef",
            "0x0000000000000000000000000000000000000000000000000000000000000000",
            "0x000000000000000000000000cda2fdb452ff4f5d7ba1c3d5dfcc9cb926a5eb7d",
            "0x000000000000000000000000000000000000000000000000000000000000018a"
          ],
          "data": "0x",
          "blockHash": "0x3394793cec41f3a726bbc75d6f2d40e568c1bd1bf7441f7ab5e93f659a4e385a",
          "blockNumber": "0x7507e5",
          "transactionHash": "0x766b17c8515a425922538a4ca49c73adb42cd9030dc09e724e7489cc32fbe377",
          "transactionIndex": "0x5",
          "logIndex": "0xb",
          "removed": false
        },
        {
          "address": "0x2e8af9c5922623058aa92a183b391e62cb6b2d12",
          "topics": [
            "0xf8e1a15aba9398e019f0b49df1a4fde98ee17ae345cb5f6b5e2c27f5033e8ce7"
          ],
          "data": "0x000000000000000000000000000000000000000000000000000000000000018a",
          "blockHash": "0x3394793cec41f3a726bbc75d6f2d40e568c1bd1bf7441f7ab5e93f659a4e385a",
          "blockNumber": "0x7507e5",
          "transactionHash": "0x766b17c8515a425922538a4ca49c73adb42cd9030dc09e724e7489cc32fbe377",
          "transactionIndex": "0x5",
          "logIndex": "0xc",
          "removed": false
        }
      ],
      "logsBloom": "0x00000000000000000000000000000000000000020000000000000000000000000000000000000000000000000000000000000000000000000000000000000000000000000000000000000008040000000000000000000000000000000000000000000000020000000000000000000800002000000000800000000010000000000000000200000000000000000000000000000000000000000000000000000000000002000000000000000000000000002000000000004000000000000000008200000002000000000000000000000000000000000000000000000000000020000000000000000000200000000000000000000000100000000000000000000000",
      "type": "0x2",
      "transactionHash": "0x766b17c8515a425922538a4ca49c73adb42cd9030dc09e724e7489cc32fbe377",
      "transactionIndex": "0x5",
      "blockHash": "0x3394793cec41f3a726bbc75d6f2d40e568c1bd1bf7441f7ab5e93f659a4e385a",
      "blockNumber": "0x7507e5",
      "gasUsed": "0x2ccb8",
      "effectiveGasPrice": "0xfd",
      "from": "0xcda2fdb452ff4f5d7ba1c3d5dfcc9cb926a5eb7d",
      "to": "0x79dfbed14077b8f2421eece5707a17b161094e6a",
      "contractAddress": null,
      "l1BaseFeeScalar": "0x186a0",
      "l1BlobBaseFee": "0x1",
      "l1BlobBaseFeeScalar": "0x95506",
      "l1Fee": "0x8fde4cf75d",
      "l1GasPrice": "0xe6307b25",
      "l1GasUsed": "0x640"
    },
    {
      "status": "0x1",
      "cumulativeGasUsed": "0x10f936",
      "logs": [
        {
          "address": "0x2e8af9c5922623058aa92a183b391e62cb6b2d12",
          "topics": [
            "0xddf252ad1be2c89b69c2b068fc378daa952ba7f163c4a11628f55a4df523b3ef",
            "0x0000000000000000000000000000000000000000000000000000000000000000",
            "0x000000000000000000000000cda2fdb452ff4f5d7ba1c3d5dfcc9cb926a5eb7d",
            "0x000000000000000000000000000000000000000000000000000000000000018b"
          ],
          "data": "0x",
          "blockHash": "0x3394793cec41f3a726bbc75d6f2d40e568c1bd1bf7441f7ab5e93f659a4e385a",
          "blockNumber": "0x7507e5",
          "transactionHash": "0x4773d3de90bf72b49c6c8e2799726f91aebbd38574e6a065bc2d019f5ef3a45c",
          "transactionIndex": "0x6",
          "logIndex": "0xd",
          "removed": false
        },
        {
          "address": "0x2e8af9c5922623058aa92a183b391e62cb6b2d12",
          "topics": [
            "0xf8e1a15aba9398e019f0b49df1a4fde98ee17ae345cb5f6b5e2c27f5033e8ce7"
          ],
          "data": "0x000000000000000000000000000000000000000000000000000000000000018b",
          "blockHash": "0x3394793cec41f3a726bbc75d6f2d40e568c1bd1bf7441f7ab5e93f659a4e385a",
          "blockNumber": "0x7507e5",
          "transactionHash": "0x4773d3de90bf72b49c6c8e2799726f91aebbd38574e6a065bc2d019f5ef3a45c",
          "transactionIndex": "0x6",
          "logIndex": "0xe",
          "removed": false
        }
      ],
      "logsBloom": "0x00000000000000000000000000000000000000020000000000000000000000000000000000000000000000000000000000000000000000000000000000000000000000000000000000000008040000000000000000000000000000000000000000000000020000000010000000000800002000000000800000000010000000000000000000000000000000000000000000000000000000000000000000000000000000000000000000000000000000002000000000004000000000000000008000000002000000000000080000000000000000000000000000000000000020000000000000000000200000000000000000000000100000000000000000010000",
      "type": "0x2",
      "transactionHash": "0x4773d3de90bf72b49c6c8e2799726f91aebbd38574e6a065bc2d019f5ef3a45c",
      "transactionIndex": "0x6",
      "blockHash": "0x3394793cec41f3a726bbc75d6f2d40e568c1bd1bf7441f7ab5e93f659a4e385a",
      "blockNumber": "0x7507e5",
      "gasUsed": "0x2ccb8",
      "effectiveGasPrice": "0xfd",
      "from": "0xcda2fdb452ff4f5d7ba1c3d5dfcc9cb926a5eb7d",
      "to": "0x79dfbed14077b8f2421eece5707a17b161094e6a",
      "contractAddress": null,
      "l1BaseFeeScalar": "0x186a0",
      "l1BlobBaseFee": "0x1",
      "l1BlobBaseFeeScalar": "0x95506",
      "l1Fee": "0x8fde4cf75d",
      "l1GasPrice": "0xe6307b25",
      "l1GasUsed": "0x640"
    },
    {
      "status": "0x1",
      "cumulativeGasUsed": "0x13c5ee",
      "logs": [
        {
          "address": "0x2e8af9c5922623058aa92a183b391e62cb6b2d12",
          "topics": [
            "0xddf252ad1be2c89b69c2b068fc378daa952ba7f163c4a11628f55a4df523b3ef",
            "0x0000000000000000000000000000000000000000000000000000000000000000",
            "0x000000000000000000000000cda2fdb452ff4f5d7ba1c3d5dfcc9cb926a5eb7d",
            "0x000000000000000000000000000000000000000000000000000000000000018c"
          ],
          "data": "0x",
          "blockHash": "0x3394793cec41f3a726bbc75d6f2d40e568c1bd1bf7441f7ab5e93f659a4e385a",
          "blockNumber": "0x7507e5",
          "transactionHash": "0x1038b18d9c3f4479cc3939f0298083d34509c340c3609bc07659e19f87893066",
          "transactionIndex": "0x7",
          "logIndex": "0xf",
          "removed": false
        },
        {
          "address": "0x2e8af9c5922623058aa92a183b391e62cb6b2d12",
          "topics": [
            "0xf8e1a15aba9398e019f0b49df1a4fde98ee17ae345cb5f6b5e2c27f5033e8ce7"
          ],
          "data": "0x000000000000000000000000000000000000000000000000000000000000018c",
          "blockHash": "0x3394793cec41f3a726bbc75d6f2d40e568c1bd1bf7441f7ab5e93f659a4e385a",
          "blockNumber": "0x7507e5",
          "transactionHash": "0x1038b18d9c3f4479cc3939f0298083d34509c340c3609bc07659e19f87893066",
          "transactionIndex": "0x7",
          "logIndex": "0x10",
          "removed": false
        }
      ],
      "logsBloom": "0x02000000000000000000000000000000000000020200000000000000000000000000000000000000000000000000000000000000000000000000000000000000000000000000000000000008040000000000000000000000000000000000000000000000020000000000000000000800002000000000800000000010000000000000000000000000000000000000000000000000000000000000000000000000000000000000000000000000000000002000000000004000000000000000008040000002000000000000000000000000000000000000000000000000000020000000000000000000200000000000000000000000100000000000000000000000",
      "type": "0x2",
      "transactionHash": "0x1038b18d9c3f4479cc3939f0298083d34509c340c3609bc07659e19f87893066",
      "transactionIndex": "0x7",
      "blockHash": "0x3394793cec41f3a726bbc75d6f2d40e568c1bd1bf7441f7ab5e93f659a4e385a",
      "blockNumber": "0x7507e5",
      "gasUsed": "0x2ccb8",
      "effectiveGasPrice": "0xfd",
      "from": "0xcda2fdb452ff4f5d7ba1c3d5dfcc9cb926a5eb7d",
      "to": "0x79dfbed14077b8f2421eece5707a17b161094e6a",
      "contractAddress": null,
      "l1BaseFeeScalar": "0x186a0",
      "l1BlobBaseFee": "0x1",
      "l1BlobBaseFeeScalar": "0x95506",
      "l1Fee": "0x8fde4cf75d",
      "l1GasPrice": "0xe6307b25",
      "l1GasUsed": "0x640"
    },
    {
      "status": "0x1",
      "cumulativeGasUsed": "0x1692a6",
      "logs": [
        {
          "address": "0x2e8af9c5922623058aa92a183b391e62cb6b2d12",
          "topics": [
            "0xddf252ad1be2c89b69c2b068fc378daa952ba7f163c4a11628f55a4df523b3ef",
            "0x0000000000000000000000000000000000000000000000000000000000000000",
            "0x000000000000000000000000cda2fdb452ff4f5d7ba1c3d5dfcc9cb926a5eb7d",
            "0x000000000000000000000000000000000000000000000000000000000000018d"
          ],
          "data": "0x",
          "blockHash": "0x3394793cec41f3a726bbc75d6f2d40e568c1bd1bf7441f7ab5e93f659a4e385a",
          "blockNumber": "0x7507e5",
          "transactionHash": "0x56e917329326d2876c1a5e6eb2c867abe04aa9b3a216366ec7f05273b4ada25b",
          "transactionIndex": "0x8",
          "logIndex": "0x11",
          "removed": false
        },
        {
          "address": "0x2e8af9c5922623058aa92a183b391e62cb6b2d12",
          "topics": [
            "0xf8e1a15aba9398e019f0b49df1a4fde98ee17ae345cb5f6b5e2c27f5033e8ce7"
          ],
          "data": "0x000000000000000000000000000000000000000000000000000000000000018d",
          "blockHash": "0x3394793cec41f3a726bbc75d6f2d40e568c1bd1bf7441f7ab5e93f659a4e385a",
          "blockNumber": "0x7507e5",
          "transactionHash": "0x56e917329326d2876c1a5e6eb2c867abe04aa9b3a216366ec7f05273b4ada25b",
          "transactionIndex": "0x8",
          "logIndex": "0x12",
          "removed": false
        }
      ],
      "logsBloom": "0x00000000000000000000000000000000000000020000000000000000000000000000000000000000000000000000000000000000000000000000000000000000000000000000000000000008040000000000000000000000000000000000000000000000020000000000000000000800002000080000800000000010000000000000000000000000000000000000000000000000000000000000000000000000000000000000000000008000000000002000000000004000000000000000008000000002000000000000000000000000000000000002000000000000000020000000000000000000200000000000000000000000100000000000000000000000",
      "type": "0x2",
      "transactionHash": "0x56e917329326d2876c1a5e6eb2c867abe04aa9b3a216366ec7f05273b4ada25b",
      "transactionIndex": "0x8",
      "blockHash": "0x3394793cec41f3a726bbc75d6f2d40e568c1bd1bf7441f7ab5e93f659a4e385a",
      "blockNumber": "0x7507e5",
      "gasUsed": "0x2ccb8",
      "effectiveGasPrice": "0xfd",
      "from": "0xcda2fdb452ff4f5d7ba1c3d5dfcc9cb926a5eb7d",
      "to": "0x79dfbed14077b8f2421eece5707a17b161094e6a",
      "contractAddress": null,
      "l1BaseFeeScalar": "0x186a0",
      "l1BlobBaseFee": "0x1",
      "l1BlobBaseFeeScalar": "0x95506",
      "l1Fee": "0x8fde4cf75d",
      "l1GasPrice": "0xe6307b25",
      "l1GasUsed": "0x640"
    },
    {
      "status": "0x1",
      "cumulativeGasUsed": "0x195f5e",
      "logs": [
        {
          "address": "0x2e8af9c5922623058aa92a183b391e62cb6b2d12",
          "topics": [
            "0xddf252ad1be2c89b69c2b068fc378daa952ba7f163c4a11628f55a4df523b3ef",
            "0x0000000000000000000000000000000000000000000000000000000000000000",
            "0x000000000000000000000000cda2fdb452ff4f5d7ba1c3d5dfcc9cb926a5eb7d",
            "0x000000000000000000000000000000000000000000000000000000000000018e"
          ],
          "data": "0x",
          "blockHash": "0x3394793cec41f3a726bbc75d6f2d40e568c1bd1bf7441f7ab5e93f659a4e385a",
          "blockNumber": "0x7507e5",
          "transactionHash": "0x7727ba2482dc0d5e5587ca2a407655560ebfd451c230b19724a60a522b4145a1",
          "transactionIndex": "0x9",
          "logIndex": "0x13",
          "removed": false
        },
        {
          "address": "0x2e8af9c5922623058aa92a183b391e62cb6b2d12",
          "topics": [
            "0xf8e1a15aba9398e019f0b49df1a4fde98ee17ae345cb5f6b5e2c27f5033e8ce7"
          ],
          "data": "0x000000000000000000000000000000000000000000000000000000000000018e",
          "blockHash": "0x3394793cec41f3a726bbc75d6f2d40e568c1bd1bf7441f7ab5e93f659a4e385a",
          "blockNumber": "0x7507e5",
          "transactionHash": "0x7727ba2482dc0d5e5587ca2a407655560ebfd451c230b19724a60a522b4145a1",
          "transactionIndex": "0x9",
          "logIndex": "0x14",
          "removed": false
        }
      ],
      "logsBloom": "0x00000000000000000000000000000000000000020000000000000000000000000000000000000000001000000000000000000000000000000000000000000000000000000000000000000008040000000000000000000000000000000000000000000000220000000000000000000800002000000000800000000010000000000000000000000000000000000000000000000000000000000000000000000000000000000000000000000000000000002000000000004000000000000000008000000002000000000000000000000000000000000000000000000000000020000000080000000000200000000000000000000000100000000000000000000000",
      "type": "0x2",
      "transactionHash": "0x7727ba2482dc0d5e5587ca2a407655560ebfd451c230b19724a60a522b4145a1",
      "transactionIndex": "0x9",
      "blockHash": "0x3394793cec41f3a726bbc75d6f2d40e568c1bd1bf7441f7ab5e93f659a4e385a",
      "blockNumber": "0x7507e5",
      "gasUsed": "0x2ccb8",
      "effectiveGasPrice": "0xfd",
      "from": "0xcda2fdb452ff4f5d7ba1c3d5dfcc9cb926a5eb7d",
      "to": "0x79dfbed14077b8f2421eece5707a17b161094e6a",
      "contractAddress": null,
      "l1BaseFeeScalar": "0x186a0",
      "l1BlobBaseFee": "0x1",
      "l1BlobBaseFeeScalar": "0x95506",
      "l1Fee": "0x8fde4cf75d",
      "l1GasPrice": "0xe6307b25",
      "l1GasUsed": "0x640"
    },
    {
      "status": "0x1",
      "cumulativeGasUsed": "0x1c2c16",
      "logs": [
        {
          "address": "0x2e8af9c5922623058aa92a183b391e62cb6b2d12",
          "topics": [
            "0xddf252ad1be2c89b69c2b068fc378daa952ba7f163c4a11628f55a4df523b3ef",
            "0x0000000000000000000000000000000000000000000000000000000000000000",
            "0x000000000000000000000000cda2fdb452ff4f5d7ba1c3d5dfcc9cb926a5eb7d",
            "0x000000000000000000000000000000000000000000000000000000000000018f"
          ],
          "data": "0x",
          "blockHash": "0x3394793cec41f3a726bbc75d6f2d40e568c1bd1bf7441f7ab5e93f659a4e385a",
          "blockNumber": "0x7507e5",
          "transactionHash": "0xd5fe29382feb34fa6243ddc9754edfbf0edb7cb5e7019ac71a06e135625bea29",
          "transactionIndex": "0xa",
          "logIndex": "0x15",
          "removed": false
        },
        {
          "address": "0x2e8af9c5922623058aa92a183b391e62cb6b2d12",
          "topics": [
            "0xf8e1a15aba9398e019f0b49df1a4fde98ee17ae345cb5f6b5e2c27f5033e8ce7"
          ],
          "data": "0x000000000000000000000000000000000000000000000000000000000000018f",
          "blockHash": "0x3394793cec41f3a726bbc75d6f2d40e568c1bd1bf7441f7ab5e93f659a4e385a",
          "blockNumber": "0x7507e5",
          "transactionHash": "0xd5fe29382feb34fa6243ddc9754edfbf0edb7cb5e7019ac71a06e135625bea29",
          "transactionIndex": "0xa",
          "logIndex": "0x16",
          "removed": false
        }
      ],
      "logsBloom": "0x00080000000000000000000000000000000000020000000000000000000000000000000000000000000000000000000000000000000000000000000000000000000000000000000000000008040000000000000000000000000000000000000000000000020000000000000000000800002000000000800000000010000000201000000000000000000000000000000000000000000000000000000000000000000000000000000000000000000000002000000000004000000000000000008000000002000000000000000000000000000000000000000000000000000020000000000000000000200000000000000000000000100000000000000000000000",
      "type": "0x2",
      "transactionHash": "0xd5fe29382feb34fa6243ddc9754edfbf0edb7cb5e7019ac71a06e135625bea29",
      "transactionIndex": "0xa",
      "blockHash": "0x3394793cec41f3a726bbc75d6f2d40e568c1bd1bf7441f7ab5e93f659a4e385a",
      "blockNumber": "0x7507e5",
      "gasUsed": "0x2ccb8",
      "effectiveGasPrice": "0xfd",
      "from": "0xcda2fdb452ff4f5d7ba1c3d5dfcc9cb926a5eb7d",
      "to": "0x79dfbed14077b8f2421eece5707a17b161094e6a",
      "contractAddress": null,
      "l1BaseFeeScalar": "0x186a0",
      "l1BlobBaseFee": "0x1",
      "l1BlobBaseFeeScalar": "0x95506",
      "l1Fee": "0x8fde4cf75d",
      "l1GasPrice": "0xe6307b25",
      "l1GasUsed": "0x640"
    },
    {
      "status": "0x1",
      "cumulativeGasUsed": "0x1ef8ce",
      "logs": [
        {
          "address": "0x2e8af9c5922623058aa92a183b391e62cb6b2d12",
          "topics": [
            "0xddf252ad1be2c89b69c2b068fc378daa952ba7f163c4a11628f55a4df523b3ef",
            "0x0000000000000000000000000000000000000000000000000000000000000000",
            "0x000000000000000000000000cda2fdb452ff4f5d7ba1c3d5dfcc9cb926a5eb7d",
            "0x0000000000000000000000000000000000000000000000000000000000000190"
          ],
          "data": "0x",
          "blockHash": "0x3394793cec41f3a726bbc75d6f2d40e568c1bd1bf7441f7ab5e93f659a4e385a",
          "blockNumber": "0x7507e5",
          "transactionHash": "0x392fd88ae3619b0dd6250ff0487e104a410e6158e16326f1817e3b9489226b28",
          "transactionIndex": "0xb",
          "logIndex": "0x17",
          "removed": false
        },
        {
          "address": "0x2e8af9c5922623058aa92a183b391e62cb6b2d12",
          "topics": [
            "0xf8e1a15aba9398e019f0b49df1a4fde98ee17ae345cb5f6b5e2c27f5033e8ce7"
          ],
          "data": "0x0000000000000000000000000000000000000000000000000000000000000190",
          "blockHash": "0x3394793cec41f3a726bbc75d6f2d40e568c1bd1bf7441f7ab5e93f659a4e385a",
          "blockNumber": "0x7507e5",
          "transactionHash": "0x392fd88ae3619b0dd6250ff0487e104a410e6158e16326f1817e3b9489226b28",
          "transactionIndex": "0xb",
          "logIndex": "0x18",
          "removed": false
        }
      ],
      "logsBloom": "0x00000000000000000000000000000000000000020000000000000000000000000000000000000200000000000000000000000000000000000000000000000000000000000000000000000008040000000000000010000000000000000000000000000000020000000000000000000800002000000000800000000010000000000000000000000000000004000000000000000000000000000000000000000000000000000000000000000000000000002000000000004000000000000000008000000002000000000000000000000000000000000000000000000000000020000000000000000000200000000000000000000000100000000000000000000000",
      "type": "0x2",
      "transactionHash": "0x392fd88ae3619b0dd6250ff0487e104a410e6158e16326f1817e3b9489226b28",
      "transactionIndex": "0xb",
      "blockHash": "0x3394793cec41f3a726bbc75d6f2d40e568c1bd1bf7441f7ab5e93f659a4e385a",
      "blockNumber": "0x7507e5",
      "gasUsed": "0x2ccb8",
      "effectiveGasPrice": "0xfd",
      "from": "0xcda2fdb452ff4f5d7ba1c3d5dfcc9cb926a5eb7d",
      "to": "0x79dfbed14077b8f2421eece5707a17b161094e6a",
      "contractAddress": null,
      "l1BaseFeeScalar": "0x186a0",
      "l1BlobBaseFee": "0x1",
      "l1BlobBaseFeeScalar": "0x95506",
      "l1Fee": "0x8fde4cf75d",
      "l1GasPrice": "0xe6307b25",
      "l1GasUsed": "0x640"
    },
    {
      "status": "0x1",
      "cumulativeGasUsed": "0x21c586",
      "logs": [
        {
          "address": "0x2e8af9c5922623058aa92a183b391e62cb6b2d12",
          "topics": [
            "0xddf252ad1be2c89b69c2b068fc378daa952ba7f163c4a11628f55a4df523b3ef",
            "0x0000000000000000000000000000000000000000000000000000000000000000",
            "0x000000000000000000000000cda2fdb452ff4f5d7ba1c3d5dfcc9cb926a5eb7d",
            "0x0000000000000000000000000000000000000000000000000000000000000191"
          ],
          "data": "0x",
          "blockHash": "0x3394793cec41f3a726bbc75d6f2d40e568c1bd1bf7441f7ab5e93f659a4e385a",
          "blockNumber": "0x7507e5",
          "transactionHash": "0xe3d3235d7e4c0cf6a37916ddfabef9add597603b47905f4d703f8f1a7a6210fd",
          "transactionIndex": "0xc",
          "logIndex": "0x19",
          "removed": false
        },
        {
          "address": "0x2e8af9c5922623058aa92a183b391e62cb6b2d12",
          "topics": [
            "0xf8e1a15aba9398e019f0b49df1a4fde98ee17ae345cb5f6b5e2c27f5033e8ce7"
          ],
          "data": "0x0000000000000000000000000000000000000000000000000000000000000191",
          "blockHash": "0x3394793cec41f3a726bbc75d6f2d40e568c1bd1bf7441f7ab5e93f659a4e385a",
          "blockNumber": "0x7507e5",
          "transactionHash": "0xe3d3235d7e4c0cf6a37916ddfabef9add597603b47905f4d703f8f1a7a6210fd",
          "transactionIndex": "0xc",
          "logIndex": "0x1a",
          "removed": false
        }
      ],
      "logsBloom": "0x00100000000000000000000000000000000000020000000000000000000000000000000000000000000000000000000000000000000000000000000000000000004000000000000000000008040000000000000000000000000000000000000000000000020000000000000000000800002000000000800000000010000000000000000000000000000000000000000000000000000004000000000000000000000000000000000000000000000000002000000000004000000000000000008000000002000000000000000000000000000000000000000000000000000020000000000000000000200000000000000000000000100000000000000000000000",
      "type": "0x2",
      "transactionHash": "0xe3d3235d7e4c0cf6a37916ddfabef9add597603b47905f4d703f8f1a7a6210fd",
      "transactionIndex": "0xc",
      "blockHash": "0x3394793cec41f3a726bbc75d6f2d40e568c1bd1bf7441f7ab5e93f659a4e385a",
      "blockNumber": "0x7507e5",
      "gasUsed": "0x2ccb8",
      "effectiveGasPrice": "0xfd",
      "from": "0xcda2fdb452ff4f5d7ba1c3d5dfcc9cb926a5eb7d",
      "to": "0x79dfbed14077b8f2421eece5707a17b161094e6a",
      "contractAddress": null,
      "l1BaseFeeScalar": "0x186a0",
      "l1BlobBaseFee": "0x1",
      "l1BlobBaseFeeScalar": "0x95506",
      "l1Fee": "0x8fde4cf75d",
      "l1GasPrice": "0xe6307b25",
      "l1GasUsed": "0x640"
    },
    {
      "status": "0x1",
      "cumulativeGasUsed": "0x24923e",
      "logs": [
        {
          "address": "0x2e8af9c5922623058aa92a183b391e62cb6b2d12",
          "topics": [
            "0xddf252ad1be2c89b69c2b068fc378daa952ba7f163c4a11628f55a4df523b3ef",
            "0x0000000000000000000000000000000000000000000000000000000000000000",
            "0x000000000000000000000000cda2fdb452ff4f5d7ba1c3d5dfcc9cb926a5eb7d",
            "0x0000000000000000000000000000000000000000000000000000000000000192"
          ],
          "data": "0x",
          "blockHash": "0x3394793cec41f3a726bbc75d6f2d40e568c1bd1bf7441f7ab5e93f659a4e385a",
          "blockNumber": "0x7507e5",
          "transactionHash": "0xb5b7b43d98d04e9acd7b516ef7c95cf1a4ad276f67e23665866aafc776967efa",
          "transactionIndex": "0xd",
          "logIndex": "0x1b",
          "removed": false
        },
        {
          "address": "0x2e8af9c5922623058aa92a183b391e62cb6b2d12",
          "topics": [
            "0xf8e1a15aba9398e019f0b49df1a4fde98ee17ae345cb5f6b5e2c27f5033e8ce7"
          ],
          "data": "0x0000000000000000000000000000000000000000000000000000000000000192",
          "blockHash": "0x3394793cec41f3a726bbc75d6f2d40e568c1bd1bf7441f7ab5e93f659a4e385a",
          "blockNumber": "0x7507e5",
          "transactionHash": "0xb5b7b43d98d04e9acd7b516ef7c95cf1a4ad276f67e23665866aafc776967efa",
          "transactionIndex": "0xd",
          "logIndex": "0x1c",
          "removed": false
        }
      ],
      "logsBloom": "0x00000000000000000000000000000000000000020000000000000000000000000000000000000000000000000000000000000000000000000000000000000000000000000000000000000008060000000000000000000000000000000000000010000000020000000000000000000800002000000000800000000010000000000000000000000000000000000000000000000000000000000000000000000000000000000000000000000000000000002000000000004000000000000000008000000002020000000000000000000000000000000000000000000000000020000000000000000000200000000000000000000000100000000000000000000000",
      "type": "0x2",
      "transactionHash": "0xb5b7b43d98d04e9acd7b516ef7c95cf1a4ad276f67e23665866aafc776967efa",
      "transactionIndex": "0xd",
      "blockHash": "0x3394793cec41f3a726bbc75d6f2d40e568c1bd1bf7441f7ab5e93f659a4e385a",
      "blockNumber": "0x7507e5",
      "gasUsed": "0x2ccb8",
      "effectiveGasPrice": "0xfd",
      "from": "0xcda2fdb452ff4f5d7ba1c3d5dfcc9cb926a5eb7d",
      "to": "0x79dfbed14077b8f2421eece5707a17b161094e6a",
      "contractAddress": null,
      "l1BaseFeeScalar": "0x186a0",
      "l1BlobBaseFee": "0x1",
      "l1BlobBaseFeeScalar": "0x95506",
      "l1Fee": "0x8fde4cf75d",
      "l1GasPrice": "0xe6307b25",
      "l1GasUsed": "0x640"
    },
    {
      "status": "0x1",
      "cumulativeGasUsed": "0x275ef6",
      "logs": [
        {
          "address": "0x2e8af9c5922623058aa92a183b391e62cb6b2d12",
          "topics": [
            "0xddf252ad1be2c89b69c2b068fc378daa952ba7f163c4a11628f55a4df523b3ef",
            "0x0000000000000000000000000000000000000000000000000000000000000000",
            "0x000000000000000000000000cda2fdb452ff4f5d7ba1c3d5dfcc9cb926a5eb7d",
            "0x0000000000000000000000000000000000000000000000000000000000000193"
          ],
          "data": "0x",
          "blockHash": "0x3394793cec41f3a726bbc75d6f2d40e568c1bd1bf7441f7ab5e93f659a4e385a",
          "blockNumber": "0x7507e5",
          "transactionHash": "0x01f9632454c62912c1aec8bc8b9029aa1839772a144d6c560b6a6817207a1779",
          "transactionIndex": "0xe",
          "logIndex": "0x1d",
          "removed": false
        },
        {
          "address": "0x2e8af9c5922623058aa92a183b391e62cb6b2d12",
          "topics": [
            "0xf8e1a15aba9398e019f0b49df1a4fde98ee17ae345cb5f6b5e2c27f5033e8ce7"
          ],
          "data": "0x0000000000000000000000000000000000000000000000000000000000000193",
          "blockHash": "0x3394793cec41f3a726bbc75d6f2d40e568c1bd1bf7441f7ab5e93f659a4e385a",
          "blockNumber": "0x7507e5",
          "transactionHash": "0x01f9632454c62912c1aec8bc8b9029aa1839772a144d6c560b6a6817207a1779",
          "transactionIndex": "0xe",
          "logIndex": "0x1e",
          "removed": false
        }
      ],
      "logsBloom": "0x00000000000000000000000000000000000000020000000000000000000000000000000000000000000000000000000000000000000000000000000000000000000000000000000000000008040000000000000000000000000000000000000000000000020000000000000002000c00002000000000800000000010000000000000000000000000000000000000000000000000000000000000000000000000000000000000000000000000000000002000000000004000000000000000008000000002000000000000000000000000000000000000000000000000000020000000000000000000200000000000000000000000100000000000000080000000",
      "type": "0x2",
      "transactionHash": "0x01f9632454c62912c1aec8bc8b9029aa1839772a144d6c560b6a6817207a1779",
      "transactionIndex": "0xe",
      "blockHash": "0x3394793cec41f3a726bbc75d6f2d40e568c1bd1bf7441f7ab5e93f659a4e385a",
      "blockNumber": "0x7507e5",
      "gasUsed": "0x2ccb8",
      "effectiveGasPrice": "0xfd",
      "from": "0xcda2fdb452ff4f5d7ba1c3d5dfcc9cb926a5eb7d",
      "to": "0x79dfbed14077b8f2421eece5707a17b161094e6a",
      "contractAddress": null,
      "l1BaseFeeScalar": "0x186a0",
      "l1BlobBaseFee": "0x1",
      "l1BlobBaseFeeScalar": "0x95506",
      "l1Fee": "0x8fde4cf75d",
      "l1GasPrice": "0xe6307b25",
      "l1GasUsed": "0x640"
    },
    {
      "status": "0x1",
      "cumulativeGasUsed": "0x2a2bae",
      "logs": [
        {
          "address": "0x2e8af9c5922623058aa92a183b391e62cb6b2d12",
          "topics": [
            "0xddf252ad1be2c89b69c2b068fc378daa952ba7f163c4a11628f55a4df523b3ef",
            "0x0000000000000000000000000000000000000000000000000000000000000000",
            "0x000000000000000000000000cda2fdb452ff4f5d7ba1c3d5dfcc9cb926a5eb7d",
            "0x0000000000000000000000000000000000000000000000000000000000000194"
          ],
          "data": "0x",
          "blockHash": "0x3394793cec41f3a726bbc75d6f2d40e568c1bd1bf7441f7ab5e93f659a4e385a",
          "blockNumber": "0x7507e5",
          "transactionHash": "0xe24caeba2b922c5956e0012af7bd71dd01d8684d674f114336ba40a8bc87c04a",
          "transactionIndex": "0xf",
          "logIndex": "0x1f",
          "removed": false
        },
        {
          "address": "0x2e8af9c5922623058aa92a183b391e62cb6b2d12",
          "topics": [
            "0xf8e1a15aba9398e019f0b49df1a4fde98ee17ae345cb5f6b5e2c27f5033e8ce7"
          ],
          "data": "0x0000000000000000000000000000000000000000000000000000000000000194",
          "blockHash": "0x3394793cec41f3a726bbc75d6f2d40e568c1bd1bf7441f7ab5e93f659a4e385a",
          "blockNumber": "0x7507e5",
          "transactionHash": "0xe24caeba2b922c5956e0012af7bd71dd01d8684d674f114336ba40a8bc87c04a",
          "transactionIndex": "0xf",
          "logIndex": "0x20",
          "removed": false
        }
      ],
      "logsBloom": "0x00000000000000000002000000000000000000020000000000000000000000000002000000000000000000000000000000000000000000000000000000000000000000000000000000000008040000000000000000000000000000000000000000000000020000000000000000000800042000000000800000000010000000000000000000000000000000000000000000000000000000000000000000000000000000000000000000000000000000002000000000004000000000000000008000000002000000000000000000000000000000000000000000000000000020000000000000000000200000000000000000000000100000000000000000000000",
      "type": "0x2",
      "transactionHash": "0xe24caeba2b922c5956e0012af7bd71dd01d8684d674f114336ba40a8bc87c04a",
      "transactionIndex": "0xf",
      "blockHash": "0x3394793cec41f3a726bbc75d6f2d40e568c1bd1bf7441f7ab5e93f659a4e385a",
      "blockNumber": "0x7507e5",
      "gasUsed": "0x2ccb8",
      "effectiveGasPrice": "0xfd",
      "from": "0xcda2fdb452ff4f5d7ba1c3d5dfcc9cb926a5eb7d",
      "to": "0x79dfbed14077b8f2421eece5707a17b161094e6a",
      "contractAddress": null,
      "l1BaseFeeScalar": "0x186a0",
      "l1BlobBaseFee": "0x1",
      "l1BlobBaseFeeScalar": "0x95506",
      "l1Fee": "0x8fde4cf75d",
      "l1GasPrice": "0xe6307b25",
      "l1GasUsed": "0x640"
    },
    {
      "status": "0x1",
      "cumulativeGasUsed": "0x2cf866",
      "logs": [
        {
          "address": "0x2e8af9c5922623058aa92a183b391e62cb6b2d12",
          "topics": [
            "0xddf252ad1be2c89b69c2b068fc378daa952ba7f163c4a11628f55a4df523b3ef",
            "0x0000000000000000000000000000000000000000000000000000000000000000",
            "0x000000000000000000000000cda2fdb452ff4f5d7ba1c3d5dfcc9cb926a5eb7d",
            "0x0000000000000000000000000000000000000000000000000000000000000195"
          ],
          "data": "0x",
          "blockHash": "0x3394793cec41f3a726bbc75d6f2d40e568c1bd1bf7441f7ab5e93f659a4e385a",
          "blockNumber": "0x7507e5",
          "transactionHash": "0xa3d2f88c6b3d64337e68a8887c0bdf97ed3edea5125f95a528aa4e1b72a9d45d",
          "transactionIndex": "0x10",
          "logIndex": "0x21",
          "removed": false
        },
        {
          "address": "0x2e8af9c5922623058aa92a183b391e62cb6b2d12",
          "topics": [
            "0xf8e1a15aba9398e019f0b49df1a4fde98ee17ae345cb5f6b5e2c27f5033e8ce7"
          ],
          "data": "0x0000000000000000000000000000000000000000000000000000000000000195",
          "blockHash": "0x3394793cec41f3a726bbc75d6f2d40e568c1bd1bf7441f7ab5e93f659a4e385a",
          "blockNumber": "0x7507e5",
          "transactionHash": "0xa3d2f88c6b3d64337e68a8887c0bdf97ed3edea5125f95a528aa4e1b72a9d45d",
          "transactionIndex": "0x10",
          "logIndex": "0x22",
          "removed": false
        }
      ],
      "logsBloom": "0x00000000000000000000000000000000000000020000000000000000000000000000000000000000000000000000000000000000000000000000000008000000000000000000040000000008040000000000000000000000000000000000000000000000020000000000000000000800002000000000800000000010000000080000000000000000000000000000000000000000000000000000000000000000000000000000000000000000000000002000000000004000000000000000008000000002000000000000000000000000000000000000000000000000000020000000000000000000200000000000000000000000100000000000000000000000",
      "type": "0x2",
      "transactionHash": "0xa3d2f88c6b3d64337e68a8887c0bdf97ed3edea5125f95a528aa4e1b72a9d45d",
      "transactionIndex": "0x10",
      "blockHash": "0x3394793cec41f3a726bbc75d6f2d40e568c1bd1bf7441f7ab5e93f659a4e385a",
      "blockNumber": "0x7507e5",
      "gasUsed": "0x2ccb8",
      "effectiveGasPrice": "0xfd",
      "from": "0xcda2fdb452ff4f5d7ba1c3d5dfcc9cb926a5eb7d",
      "to": "0x79dfbed14077b8f2421eece5707a17b161094e6a",
      "contractAddress": null,
      "l1BaseFeeScalar": "0x186a0",
      "l1BlobBaseFee": "0x1",
      "l1BlobBaseFeeScalar": "0x95506",
      "l1Fee": "0x8fde4cf75d",
      "l1GasPrice": "0xe6307b25",
      "l1GasUsed": "0x640"
    },
    {
      "status": "0x1",
      "cumulativeGasUsed": "0x2fc51e",
      "logs": [
        {
          "address": "0x2e8af9c5922623058aa92a183b391e62cb6b2d12",
          "topics": [
            "0xddf252ad1be2c89b69c2b068fc378daa952ba7f163c4a11628f55a4df523b3ef",
            "0x0000000000000000000000000000000000000000000000000000000000000000",
            "0x000000000000000000000000cda2fdb452ff4f5d7ba1c3d5dfcc9cb926a5eb7d",
            "0x0000000000000000000000000000000000000000000000000000000000000196"
          ],
          "data": "0x",
          "blockHash": "0x3394793cec41f3a726bbc75d6f2d40e568c1bd1bf7441f7ab5e93f659a4e385a",
          "blockNumber": "0x7507e5",
          "transactionHash": "0x479fe7f8f41f0b5af4fe6054033166304284dd096bc4de0b9e2da6e90583b08b",
          "transactionIndex": "0x11",
          "logIndex": "0x23",
          "removed": false
        },
        {
          "address": "0x2e8af9c5922623058aa92a183b391e62cb6b2d12",
          "topics": [
            "0xf8e1a15aba9398e019f0b49df1a4fde98ee17ae345cb5f6b5e2c27f5033e8ce7"
          ],
          "data": "0x0000000000000000000000000000000000000000000000000000000000000196",
          "blockHash": "0x3394793cec41f3a726bbc75d6f2d40e568c1bd1bf7441f7ab5e93f659a4e385a",
          "blockNumber": "0x7507e5",
          "transactionHash": "0x479fe7f8f41f0b5af4fe6054033166304284dd096bc4de0b9e2da6e90583b08b",
          "transactionIndex": "0x11",
          "logIndex": "0x24",
          "removed": false
        }
      ],
      "logsBloom": "0x00000000000000000000000000000000000000020000000000000000000000000000000000000000000000000000000000000000000000000000000000000000000000000000000000000009040000000000000000000000000000000000000000000000020000000000000000000800002000000000800000000010000000000000000000000000000000000000000000000000000000000000000000000000000000000000000000000000000080002000000000004800000000000000008000000002000000000000000000000000000000000000000000000000000020000000000000000000200000000000000000000000100000000000000000000000",
      "type": "0x2",
      "transactionHash": "0x479fe7f8f41f0b5af4fe6054033166304284dd096bc4de0b9e2da6e90583b08b",
      "transactionIndex": "0x11",
      "blockHash": "0x3394793cec41f3a726bbc75d6f2d40e568c1bd1bf7441f7ab5e93f659a4e385a",
      "blockNumber": "0x7507e5",
      "gasUsed": "0x2ccb8",
      "effectiveGasPrice": "0xfd",
      "from": "0xcda2fdb452ff4f5d7ba1c3d5dfcc9cb926a5eb7d",
      "to": "0x79dfbed14077b8f2421eece5707a17b161094e6a",
      "contractAddress": null,
      "l1BaseFeeScalar": "0x186a0",
      "l1BlobBaseFee": "0x1",
      "l1BlobBaseFeeScalar": "0x95506",
      "l1Fee": "0x8fde4cf75d",
      "l1GasPrice": "0xe6307b25",
      "l1GasUsed": "0x640"
    },
    {
      "status": "0x1",
      "cumulativeGasUsed": "0x3291d6",
      "logs": [
        {
          "address": "0x2e8af9c5922623058aa92a183b391e62cb6b2d12",
          "topics": [
            "0xddf252ad1be2c89b69c2b068fc378daa952ba7f163c4a11628f55a4df523b3ef",
            "0x0000000000000000000000000000000000000000000000000000000000000000",
            "0x000000000000000000000000cda2fdb452ff4f5d7ba1c3d5dfcc9cb926a5eb7d",
            "0x0000000000000000000000000000000000000000000000000000000000000197"
          ],
          "data": "0x",
          "blockHash": "0x3394793cec41f3a726bbc75d6f2d40e568c1bd1bf7441f7ab5e93f659a4e385a",
          "blockNumber": "0x7507e5",
          "transactionHash": "0x92ca29350e279257da027c604f09a291fc9713e88bd4274d85d3c48670f85fd4",
          "transactionIndex": "0x12",
          "logIndex": "0x25",
          "removed": false
        },
        {
          "address": "0x2e8af9c5922623058aa92a183b391e62cb6b2d12",
          "topics": [
            "0xf8e1a15aba9398e019f0b49df1a4fde98ee17ae345cb5f6b5e2c27f5033e8ce7"
          ],
          "data": "0x0000000000000000000000000000000000000000000000000000000000000197",
          "blockHash": "0x3394793cec41f3a726bbc75d6f2d40e568c1bd1bf7441f7ab5e93f659a4e385a",
          "blockNumber": "0x7507e5",
          "transactionHash": "0x92ca29350e279257da027c604f09a291fc9713e88bd4274d85d3c48670f85fd4",
          "transactionIndex": "0x12",
          "logIndex": "0x26",
          "removed": false
        }
      ],
      "logsBloom": "0x00000000000000000000000000000000000000020000000000000000000000000000000000000000000000100008000000000000000000000000000000000000000000000000000000000008040000000000000000000000000000000000000000000000020000000000000000000800002000000000800000000010000000000000000000000000000000000000000000000000000040000000000000000000000000000000000000000000000000002000000000004000000000000000008000000002000000000000000000000000000000000000000000000000000020000000000000000000200000000000000000000000100000000000000000000000",
      "type": "0x2",
      "transactionHash": "0x92ca29350e279257da027c604f09a291fc9713e88bd4274d85d3c48670f85fd4",
      "transactionIndex": "0x12",
      "blockHash": "0x3394793cec41f3a726bbc75d6f2d40e568c1bd1bf7441f7ab5e93f659a4e385a",
      "blockNumber": "0x7507e5",
      "gasUsed": "0x2ccb8",
      "effectiveGasPrice": "0xfd",
      "from": "0xcda2fdb452ff4f5d7ba1c3d5dfcc9cb926a5eb7d",
      "to": "0x79dfbed14077b8f2421eece5707a17b161094e6a",
      "contractAddress": null,
      "l1BaseFeeScalar": "0x186a0",
      "l1BlobBaseFee": "0x1",
      "l1BlobBaseFeeScalar": "0x95506",
      "l1Fee": "0x8fde4cf75d",
      "l1GasPrice": "0xe6307b25",
      "l1GasUsed": "0x640"
    },
    {
      "status": "0x1",
      "cumulativeGasUsed": "0x355e8e",
      "logs": [
        {
          "address": "0x2e8af9c5922623058aa92a183b391e62cb6b2d12",
          "topics": [
            "0xddf252ad1be2c89b69c2b068fc378daa952ba7f163c4a11628f55a4df523b3ef",
            "0x0000000000000000000000000000000000000000000000000000000000000000",
            "0x000000000000000000000000cda2fdb452ff4f5d7ba1c3d5dfcc9cb926a5eb7d",
            "0x0000000000000000000000000000000000000000000000000000000000000198"
          ],
          "data": "0x",
          "blockHash": "0x3394793cec41f3a726bbc75d6f2d40e568c1bd1bf7441f7ab5e93f659a4e385a",
          "blockNumber": "0x7507e5",
          "transactionHash": "0x68ce84c6603daea2807fa8fa15d297f18d0e7bdfa0e1a8cc1329b49eba230227",
          "transactionIndex": "0x13",
          "logIndex": "0x27",
          "removed": false
        },
        {
          "address": "0x2e8af9c5922623058aa92a183b391e62cb6b2d12",
          "topics": [
            "0xf8e1a15aba9398e019f0b49df1a4fde98ee17ae345cb5f6b5e2c27f5033e8ce7"
          ],
          "data": "0x0000000000000000000000000000000000000000000000000000000000000198",
          "blockHash": "0x3394793cec41f3a726bbc75d6f2d40e568c1bd1bf7441f7ab5e93f659a4e385a",
          "blockNumber": "0x7507e5",
          "transactionHash": "0x68ce84c6603daea2807fa8fa15d297f18d0e7bdfa0e1a8cc1329b49eba230227",
          "transactionIndex": "0x13",
          "logIndex": "0x28",
          "removed": false
        }
      ],
      "logsBloom": "0x00000000000000000000000000000000000000020008004000000000000000000000000000000000000000000000000000000000000000000000000000000000000000000000000000000008040000000000000000000000000000000000000000000000020000000000000000000800002000000000800000000010000000000000000000000000000000000080000000000000000000000000000000000000000000000000000000000000000000002000000000004000000000000000008000000002000000000000000000000000000000000000000000000000000020000000000000000000200000000000000000000000100000000000000000000000",
      "type": "0x2",
      "transactionHash": "0x68ce84c6603daea2807fa8fa15d297f18d0e7bdfa0e1a8cc1329b49eba230227",
      "transactionIndex": "0x13",
      "blockHash": "0x3394793cec41f3a726bbc75d6f2d40e568c1bd1bf7441f7ab5e93f659a4e385a",
      "blockNumber": "0x7507e5",
      "gasUsed": "0x2ccb8",
      "effectiveGasPrice": "0xfd",
      "from": "0xcda2fdb452ff4f5d7ba1c3d5dfcc9cb926a5eb7d",
      "to": "0x79dfbed14077b8f2421eece5707a17b161094e6a",
      "contractAddress": null,
      "l1BaseFeeScalar": "0x186a0",
      "l1BlobBaseFee": "0x1",
      "l1BlobBaseFeeScalar": "0x95506",
      "l1Fee": "0x8fde4cf75d",
      "l1GasPrice": "0xe6307b25",
      "l1GasUsed": "0x640"
    },
    {
      "status": "0x1",
      "cumulativeGasUsed": "0x382b46",
      "logs": [
        {
          "address": "0x2e8af9c5922623058aa92a183b391e62cb6b2d12",
          "topics": [
            "0xddf252ad1be2c89b69c2b068fc378daa952ba7f163c4a11628f55a4df523b3ef",
            "0x0000000000000000000000000000000000000000000000000000000000000000",
            "0x000000000000000000000000cda2fdb452ff4f5d7ba1c3d5dfcc9cb926a5eb7d",
            "0x0000000000000000000000000000000000000000000000000000000000000199"
          ],
          "data": "0x",
          "blockHash": "0x3394793cec41f3a726bbc75d6f2d40e568c1bd1bf7441f7ab5e93f659a4e385a",
          "blockNumber": "0x7507e5",
          "transactionHash": "0xc96b7e021900b09f7fe2e893c562eb705a9ebaddae07edb7e83d829b3f5e4ddd",
          "transactionIndex": "0x14",
          "logIndex": "0x29",
          "removed": false
        },
        {
          "address": "0x2e8af9c5922623058aa92a183b391e62cb6b2d12",
          "topics": [
            "0xf8e1a15aba9398e019f0b49df1a4fde98ee17ae345cb5f6b5e2c27f5033e8ce7"
          ],
          "data": "0x0000000000000000000000000000000000000000000000000000000000000199",
          "blockHash": "0x3394793cec41f3a726bbc75d6f2d40e568c1bd1bf7441f7ab5e93f659a4e385a",
          "blockNumber": "0x7507e5",
          "transactionHash": "0xc96b7e021900b09f7fe2e893c562eb705a9ebaddae07edb7e83d829b3f5e4ddd",
          "transactionIndex": "0x14",
          "logIndex": "0x2a",
          "removed": false
        }
      ],
      "logsBloom": "0x00000000000000000000000000000000000000020000000000000000000000000000000000000000000000000000000000000000000000000000000000000200000000000000000000000008040000000000000000000000000000000000000000008000020000000000000000000800002000000000800000000010000000000000000000000000000000000000000000000000000000000000000000000000000000000000000000800000000000002000000000004000000000000000008000000002000000000000000000000000000000000000000000000000000020000000000000000000200000000000000000000000100000000000000000000000",
      "type": "0x2",
      "transactionHash": "0xc96b7e021900b09f7fe2e893c562eb705a9ebaddae07edb7e83d829b3f5e4ddd",
      "transactionIndex": "0x14",
      "blockHash": "0x3394793cec41f3a726bbc75d6f2d40e568c1bd1bf7441f7ab5e93f659a4e385a",
      "blockNumber": "0x7507e5",
      "gasUsed": "0x2ccb8",
      "effectiveGasPrice": "0xfd",
      "from": "0xcda2fdb452ff4f5d7ba1c3d5dfcc9cb926a5eb7d",
      "to": "0x79dfbed14077b8f2421eece5707a17b161094e6a",
      "contractAddress": null,
      "l1BaseFeeScalar": "0x186a0",
      "l1BlobBaseFee": "0x1",
      "l1BlobBaseFeeScalar": "0x95506",
      "l1Fee": "0x8fde4cf75d",
      "l1GasPrice": "0xe6307b25",
      "l1GasUsed": "0x640"
    }
  ],
  "libraries": [],
  "pending": [],
  "returns": {},
  "timestamp": 1728201459,
  "chain": 60808,
  "commit": "7d9679b"
}