{
  "transactions": [
    {
      "hash": "0xce971a2d37e93fe1dd94d3ada32369ac2b1b6c5be6485183ed759bc0c6e68f3f",
      "transactionType": "CALL",
      "contractName": null,
      "contractAddress": "0xc5d16a63ac69591bdc10912ee49ab5faa3fec5ea",
      "function": "enableTransfers(bool)",
      "arguments": [
        "true"
      ],
      "transaction": {
        "from": "0xcda2fdb452ff4f5d7ba1c3d5dfcc9cb926a5eb7d",
        "to": "0xc5d16a63ac69591bdc10912ee49ab5faa3fec5ea",
        "gas": "0xa4cf",
        "value": "0x0",
        "input": "0xf41e60c50000000000000000000000000000000000000000000000000000000000000001",
        "nonce": "0x1bd4",
        "chainId": "0xed88"
      },
      "additionalContracts": [],
      "isFixedGasLimit": false
    }
  ],
  "receipts": [
    {
      "status": "0x1",
      "cumulativeGasUsed": "0x147bc",
      "logs": [],
      "logsBloom": "0x00000000000000000000000000000000000000000000000000000000000000000000000000000000000000000000000000000000000000000000000000000000000000000000000000000000000000000000000000000000000000000000000000000000000000000000000000000000000000000000000000000000000000000000000000000000000000000000000000000000000000000000000000000000000000000000000000000000000000000000000000000000000000000000000000000000000000000000000000000000000000000000000000000000000000000000000000000000000000000000000000000000000000000000000000000000",
      "type": "0x2",
      "transactionHash": "0xce971a2d37e93fe1dd94d3ada32369ac2b1b6c5be6485183ed759bc0c6e68f3f",
      "transactionIndex": "0x1",
      "blockHash": "0x205d3605f096d2cd203c58df9198844400b33c6021940970fc98f336f020bc5a",
      "blockNumber": "0x72037c",
      "gasUsed": "0x70b1",
      "effectiveGasPrice": "0xfd",
      "from": "0xcda2fdb452ff4f5d7ba1c3d5dfcc9cb926a5eb7d",
      "to": "0xc5d16a63ac69591bdc10912ee49ab5faa3fec5ea",
      "contractAddress": null,
      "l1BaseFeeScalar": "0x186a0",
      "l1BlobBaseFee": "0x2",
      "l1BlobBaseFeeScalar": "0x95506",
      "l1Fee": "0x401a945adba",
      "l1GasPrice": "0x6690ed5e2",
      "l1GasUsed": "0x640"
    }
  ],
  "libraries": [],
  "pending": [],
  "returns": {},
  "timestamp": 1727805984,
  "chain": 60808,
  "commit": "7d9679b"
}