{
  "transactions": [
    {
      "hash": "0x59c6576d45a76edfe169d1a4fbe9ed10b27ea969f950884a4ce87de0730f4b3a",
      "transactionType": "CREATE",
      "contractName": "Sp_IcyExecutioner",
      "contractAddress": "0xCD14F844b2252acd557cd7AE1C915FA12f9254af",
      "function": null,
      "arguments": null,
      "transaction": {
        "type": "0x02",
        "from": "0xcda2fdb452ff4f5d7ba1c3d5dfcc9cb926a5eb7d",
        "gas": "0xf2dda",
        "value": "0x0",
        "data": "0x60a060405260056002908155600355600660805234801561001f57600080fd5b50338061004657604051631e4fbdf760e01b81526000600482015260240160405180910390fd5b61004f81610055565b506100a5565b600080546001600160a01b038381166001600160a01b0319831681178455604051919092169283917f8be0079c531659141344cd1fd0a4f28419497f9722a3daafe3b4186f6b6457e09190a35050565b608051610b9e6100c060003960006101bd0152610b9e6000f3fe60806040526004361061007b5760003560e01c80638da5cb5b1161004e5780638da5cb5b146100f6578063bcb493991461011e578063f2fde38b1461013e578063feb812af1461015e57600080fd5b806316d03993146100805780631b3ed722146100a9578063715018a6146100bf5780637430286f146100d6575b600080fd5b34801561008c57600080fd5b5061009660025481565b6040519081526020015b60405180910390f35b3480156100b557600080fd5b5061009660035481565b3480156100cb57600080fd5b506100d4610171565b005b3480156100e257600080fd5b506100d46100f1366004610884565b610185565b34801561010257600080fd5b506000546040516001600160a01b0390911681526020016100a0565b34801561012a57600080fd5b506100d46101393660046108e1565b6101b3565b34801561014a57600080fd5b506100d46101593660046109c8565b6102ae565b6100d461016c3660046109e5565b6102f1565b610179610726565b6101836000610753565b565b61018d610726565b60008211801561019f57506000600354115b6101a857600080fd5b600291909155600355565b6101bb610726565b7f000000000000000000000000000000000000000000000000000000000000000060ff168351106101eb57600080fd5b60005b83518160ff16101561027e576000848260ff168151811061021157610211610a85565b6020908102919091010151600480546001810182556000919091527f8a35acfbc15ff81a39ae7d344fd709f28e8600b4aa8c65c6b64bfe7fe36bd19b0180546001600160a01b0319166001600160a01b03909216919091179055508061027681610ab1565b9150506101ee565b50600180546001600160a01b039384166001600160a01b0319918216179091556005805492909316911617905550565b6102b6610726565b6001600160a01b0381166102e557604051631e4fbdf760e01b8152600060048201526024015b60405180910390fd5b6102ee81610753565b50565b6001600160a01b0385161580159061030857508215155b61031157600080fd5b6001600160a01b03821615610486576040516323b872dd60e01b8152336004820152306024820152604481018290526001600160a01b038316906323b872dd906064016020604051808303816000875af1158015610373573d6000803e3d6000fd5b505050506040513d601f19601f820116820180604052508101906103979190610ad0565b50604051636eb1769f60e11b81523060048201526001600160a01b03868116602483015282919084169063dd62ed3e90604401602060405180830381865afa1580156103e7573d6000803e3d6000fd5b505050506040513d601f19601f8201168201806040525081019061040b9190610af2565b10156104865760405163095ea7b360e01b81526001600160a01b0386811660048301526024820183905283169063095ea7b3906044016020604051808303816000875af1158015610460573d6000803e3d6000fd5b505050506040513d601f19601f820116820180604052508101906104849190610ad0565b505b6000856001600160a01b03163486866040516104a3929190610b0b565b60006040518083038185875af1925050503d80600081146104e0576040519150601f19603f3d011682016040523d82523d6000602084013e6104e5565b606091505b5050905080801561050057506001546001600160a01b031615155b156106fc576000610510336107a3565b60015460405163507cd30f60e01b8152336004820152602481018390529192506001600160a01b03169063507cd30f906044016020604051808303816000875af1158015610562573d6000803e3d6000fd5b505050506040513d601f19601f820116820180604052508101906105869190610ad0565b5060055460405163f4a8b19760e01b81523360048201526000916001600160a01b03169063f4a8b19790602401602060405180830381865afa1580156105d0573d6000803e3d6000fd5b505050506040513d601f19601f820116820180604052508101906105f49190610b1b565b90506001600160a01b038116158015906106775750600154604051630a2edb5560e21b81526001600160a01b038381166004830152909116906328bb6d5490602401602060405180830381865afa158015610653573d6000803e3d6000fd5b505050506040513d601f19601f820116820180604052508101906106779190610ad0565b156106f55760015460405163507cd30f60e01b81526001600160a01b038381166004830152602482018590529091169063507cd30f906044016020604051808303816000875af11580156106cf573d6000803e3d6000fd5b505050506040513d601f19601f820116820180604052508101906106f39190610ad0565b505b505061071e565b60405162461bcd60e51b815260206004820152600060248201526044016102dc565b505050505050565b6000546001600160a01b031633146101835760405163118cdaa760e01b81523360048201526024016102dc565b600080546001600160a01b038381166001600160a01b0319831681178455604051919092169283917f8be0079c531659141344cd1fd0a4f28419497f9722a3daafe3b4186f6b6457e09190a35050565b60008060005b60045460ff821610156108615760048160ff16815481106107cc576107cc610a85565b6000918252602090912001546040516370a0823160e01b81526001600160a01b038681166004830152909116906370a0823190602401602060405180830381865afa15801561081f573d6000803e3d6000fd5b505050506040513d601f19601f820116820180604052508101906108439190610af2565b61084d9083610b38565b91508061085981610ab1565b9150506107a9565b50806003546108709190610b51565b60025461087d9190610b38565b9392505050565b6000806040838503121561089757600080fd5b50508035926020909101359150565b634e487b7160e01b600052604160045260246000fd5b6001600160a01b03811681146102ee57600080fd5b80356108dc816108bc565b919050565b6000806000606084860312156108f657600080fd5b833567ffffffffffffffff8082111561090e57600080fd5b818601915086601f83011261092257600080fd5b8135602082821115610936576109366108a6565b8160051b604051601f19603f8301168101818110868211171561095b5761095b6108a6565b60405292835281830193508481018201928a84111561097957600080fd5b948201945b8386101561099e5761098f866108d1565b8552948201949382019361097e565b97506109ad90508882016108d1565b9550505050506109bf604085016108d1565b90509250925092565b6000602082840312156109da57600080fd5b813561087d816108bc565b6000806000806000608086880312156109fd57600080fd5b8535610a08816108bc565b9450602086013567ffffffffffffffff80821115610a2557600080fd5b818801915088601f830112610a3957600080fd5b813581811115610a4857600080fd5b896020828501011115610a5a57600080fd5b6020830196508095505050506040860135610a74816108bc565b949793965091946060013592915050565b634e487b7160e01b600052603260045260246000fd5b634e487b7160e01b600052601160045260246000fd5b600060ff821660ff8103610ac757610ac7610a9b565b60010192915050565b600060208284031215610ae257600080fd5b8151801515811461087d57600080fd5b600060208284031215610b0457600080fd5b5051919050565b8183823760009101908152919050565b600060208284031215610b2d57600080fd5b815161087d816108bc565b80820180821115610b4b57610b4b610a9b565b92915050565b8082028115828204841417610b4b57610b4b610a9b56fea2646970667358221220943a1c4692f5534fdafb56494a9ed5a83e21b3d2ca488137867ef3c92c89a2f864736f6c63430008140033",
        "nonce": "0x1a4",
        "accessList": []
      },
      "additionalContracts": [],
      "isFixedGasLimit": false
    },
    {
      "hash": "0x1557634263781784b9402df52f52ffee765b89c36571694022e0f2213ca856a5",
      "transactionType": "CALL",
      "contractName": null,
      "contractAddress": "0xCA9c5943Dd7d0fE1E6A0Cf12F2eA65d310A3b2AA",
      "function": null,
      "arguments": null,
      "transaction": {
        "type": "0x02",
        "from": "0xcda2fdb452ff4f5d7ba1c3d5dfcc9cb926a5eb7d",
        "to": "0xca9c5943dd7d0fe1e6a0cf12f2ea65d310a3b2aa",
        "gas": "0x8ec5",
        "value": "0x0",
        "data": "0xdfba52c70000000000000000000000003d80dcbcebd458cbdbe5e8c73beff16ef5e6a70b0000000000000000000000000000000000000000000000000000000000000000",
        "nonce": "0x1a5",
        "accessList": []
      },
      "additionalContracts": [],
      "isFixedGasLimit": false
    },
    {
      "hash": "0x2b08254104903e28a3f564c636cec123f99674876c1bc7974b4b11427042d45f",
      "transactionType": "CALL",
      "contractName": null,
      "contractAddress": "0xCA9c5943Dd7d0fE1E6A0Cf12F2eA65d310A3b2AA",
      "function": null,
      "arguments": null,
      "transaction": {
        "type": "0x02",
        "from": "0xcda2fdb452ff4f5d7ba1c3d5dfcc9cb926a5eb7d",
        "to": "0xca9c5943dd7d0fe1e6a0cf12f2ea65d310a3b2aa",
        "gas": "0x83fb",
        "value": "0x0",
        "data": "0xdfba52c70000000000000000000000000f021e3506fa2cfeca67d7aa23a4e42909685bbf0000000000000000000000000000000000000000000000000000000000000000",
        "nonce": "0x1a6",
        "accessList": []
      },
      "additionalContracts": [],
      "isFixedGasLimit": false
    },
    {
      "hash": "0xbf9313c7d7d079b47ca335d4d16f6ee446496fe31b795bdf25ceb0e0101d7941",
      "transactionType": "CALL",
      "contractName": null,
      "contractAddress": "0xCA9c5943Dd7d0fE1E6A0Cf12F2eA65d310A3b2AA",
      "function": null,
      "arguments": null,
      "transaction": {
        "type": "0x02",
        "from": "0xcda2fdb452ff4f5d7ba1c3d5dfcc9cb926a5eb7d",
        "to": "0xca9c5943dd7d0fe1e6a0cf12f2ea65d310a3b2aa",
        "gas": "0xfa35",
        "value": "0x0",
        "data": "0xdfba52c7000000000000000000000000cd14f844b2252acd557cd7ae1c915fa12f9254af0000000000000000000000000000000000000000000000000000000000000001",
        "nonce": "0x1a7",
        "accessList": []
      },
      "additionalContracts": [],
      "isFixedGasLimit": false
    },
    {
      "hash": "0x5d2c11a58a40ec5fef8572aaa6f729a98d96289aca313d1319f10eb327015260",
      "transactionType": "CALL",
      "contractName": "Sp_IcyExecutioner",
      "contractAddress": "0xCD14F844b2252acd557cd7AE1C915FA12f9254af",
      "function": "initializeCa(address[],address,address)",
      "arguments": [
        "[0x3eFC90a28685d320F6916b76D8C679da67cc23DC]",
        "0xCA9c5943Dd7d0fE1E6A0Cf12F2eA65d310A3b2AA",
        "0x87273dD5f8Ece675aCB151649f97dD4da529E34A"
      ],
      "transaction": {
        "type": "0x02",
        "from": "0xcda2fdb452ff4f5d7ba1c3d5dfcc9cb926a5eb7d",
        "to": "0xcd14f844b2252acd557cd7ae1c915fa12f9254af",
        "gas": "0x269bf",
        "value": "0x0",
        "data": "0xbcb493990000000000000000000000000000000000000000000000000000000000000060000000000000000000000000ca9c5943dd7d0fe1e6a0cf12f2ea65d310a3b2aa00000000000000000000000087273dd5f8ece675acb151649f97dd4da529e34a00000000000000000000000000000000000000000000000000000000000000010000000000000000000000003efc90a28685d320f6916b76d8c679da67cc23dc",
        "nonce": "0x1a8",
        "accessList": []
      },
      "additionalContracts": [],
      "isFixedGasLimit": false
    }
  ],
  "receipts": [
    {
      "transactionHash": "0x59c6576d45a76edfe169d1a4fbe9ed10b27ea969f950884a4ce87de0730f4b3a",
      "transactionIndex": "0x2",
      "blockHash": "0xf9fa3442a255d2780158a8d0d888c6b2e123a3d4c407038215e6d9b20ca8ce9c",
      "blockNumber": "0x2b3238",
      "from": "0xcdA2fDB452FF4F5D7Ba1C3d5dFCc9CB926A5eb7D",
      "to": null,
      "cumulativeGasUsed": "0xf1955",
      "gasUsed": "0xbade4",
      "contractAddress": "0xCD14F844b2252acd557cd7AE1C915FA12f9254af",
      "logs": [
        {
          "address": "0xCD14F844b2252acd557cd7AE1C915FA12f9254af",
          "topics": [
            "0x8be0079c531659141344cd1fd0a4f28419497f9722a3daafe3b4186f6b6457e0",
            "0x0000000000000000000000000000000000000000000000000000000000000000",
            "0x000000000000000000000000cda2fdb452ff4f5d7ba1c3d5dfcc9cb926a5eb7d"
          ],
          "data": "0x",
          "blockHash": "0xf9fa3442a255d2780158a8d0d888c6b2e123a3d4c407038215e6d9b20ca8ce9c",
          "blockNumber": "0x2b3238",
          "transactionHash": "0x59c6576d45a76edfe169d1a4fbe9ed10b27ea969f950884a4ce87de0730f4b3a",
          "transactionIndex": "0x2",
          "logIndex": "0x3",
          "removed": false
        }
      ],
      "status": "0x1",
      "logsBloom": "0x00000000000000000000000000000000000000000000000000800000000000000000000000000000000000000000000000000000000000000000000000000000000000000000000000000000040000000001000000000000000000000000000000000000020000000000000000000800000000000000800000000000000000400000000000000000000000000000000000000000000000000002000000000000001000000000000000000000000000000000000000004000000000000000000000000000000000000000000000000000000000000000000000000000000020000000000000000000000002000000000000000000000000000000000000000000",
      "type": "0x2",
      "effectiveGasPrice": "0xfd"
    },
    {
      "transactionHash": "0x1557634263781784b9402df52f52ffee765b89c36571694022e0f2213ca856a5",
      "transactionIndex": "0x3",
      "blockHash": "0xf9fa3442a255d2780158a8d0d888c6b2e123a3d4c407038215e6d9b20ca8ce9c",
      "blockNumber": "0x2b3238",
      "from": "0xcdA2fDB452FF4F5D7Ba1C3d5dFCc9CB926A5eb7D",
      "to": "0xCA9c5943Dd7d0fE1E6A0Cf12F2eA65d310A3b2AA",
      "cumulativeGasUsed": "0xf80b3",
      "gasUsed": "0x675e",
      "contractAddress": null,
      "logs": [],
      "status": "0x1",
      "logsBloom": "0x00000000000000000000000000000000000000000000000000000000000000000000000000000000000000000000000000000000000000000000000000000000000000000000000000000000000000000000000000000000000000000000000000000000000000000000000000000000000000000000000000000000000000000000000000000000000000000000000000000000000000000000000000000000000000000000000000000000000000000000000000000000000000000000000000000000000000000000000000000000000000000000000000000000000000000000000000000000000000000000000000000000000000000000000000000000",
      "type": "0x2",
      "effectiveGasPrice": "0xfd"
    },
    {
      "transactionHash": "0x2b08254104903e28a3f564c636cec123f99674876c1bc7974b4b11427042d45f",
      "transactionIndex": "0x4",
      "blockHash": "0xf9fa3442a255d2780158a8d0d888c6b2e123a3d4c407038215e6d9b20ca8ce9c",
      "blockNumber": "0x2b3238",
      "from": "0xcdA2fDB452FF4F5D7Ba1C3d5dFCc9CB926A5eb7D",
      "to": "0xCA9c5943Dd7d0fE1E6A0Cf12F2eA65d310A3b2AA",
      "cumulativeGasUsed": "0xfe041",
      "gasUsed": "0x5f8e",
      "contractAddress": null,
      "logs": [],
      "status": "0x1",
      "logsBloom": "0x00000000000000000000000000000000000000000000000000000000000000000000000000000000000000000000000000000000000000000000000000000000000000000000000000000000000000000000000000000000000000000000000000000000000000000000000000000000000000000000000000000000000000000000000000000000000000000000000000000000000000000000000000000000000000000000000000000000000000000000000000000000000000000000000000000000000000000000000000000000000000000000000000000000000000000000000000000000000000000000000000000000000000000000000000000000",
      "type": "0x2",
      "effectiveGasPrice": "0xfd"
    },
    {
      "transactionHash": "0xbf9313c7d7d079b47ca335d4d16f6ee446496fe31b795bdf25ceb0e0101d7941",
      "transactionIndex": "0x5",
      "blockHash": "0xf9fa3442a255d2780158a8d0d888c6b2e123a3d4c407038215e6d9b20ca8ce9c",
      "blockNumber": "0x2b3238",
      "from": "0xcdA2fDB452FF4F5D7Ba1C3d5dFCc9CB926A5eb7D",
      "to": "0xCA9c5943Dd7d0fE1E6A0Cf12F2eA65d310A3b2AA",
      "cumulativeGasUsed": "0x109567",
      "gasUsed": "0xb526",
      "contractAddress": null,
      "logs": [],
      "status": "0x1",
      "logsBloom": "0x00000000000000000000000000000000000000000000000000000000000000000000000000000000000000000000000000000000000000000000000000000000000000000000000000000000000000000000000000000000000000000000000000000000000000000000000000000000000000000000000000000000000000000000000000000000000000000000000000000000000000000000000000000000000000000000000000000000000000000000000000000000000000000000000000000000000000000000000000000000000000000000000000000000000000000000000000000000000000000000000000000000000000000000000000000000",
      "type": "0x2",
      "effectiveGasPrice": "0xfd"
    },
    {
      "transactionHash": "0x5d2c11a58a40ec5fef8572aaa6f729a98d96289aca313d1319f10eb327015260",
      "transactionIndex": "0x6",
      "blockHash": "0xf9fa3442a255d2780158a8d0d888c6b2e123a3d4c407038215e6d9b20ca8ce9c",
      "blockNumber": "0x2b3238",
      "from": "0xcdA2fDB452FF4F5D7Ba1C3d5dFCc9CB926A5eb7D",
      "to": "0xCD14F844b2252acd557cd7AE1C915FA12f9254af",
      "cumulativeGasUsed": "0x1254a5",
      "gasUsed": "0x1bf3e",
      "contractAddress": null,
      "logs": [],
      "status": "0x1",
      "logsBloom": "0x00000000000000000000000000000000000000000000000000000000000000000000000000000000000000000000000000000000000000000000000000000000000000000000000000000000000000000000000000000000000000000000000000000000000000000000000000000000000000000000000000000000000000000000000000000000000000000000000000000000000000000000000000000000000000000000000000000000000000000000000000000000000000000000000000000000000000000000000000000000000000000000000000000000000000000000000000000000000000000000000000000000000000000000000000000000",
      "type": "0x2",
      "effectiveGasPrice": "0xfd"
    }
  ],
  "libraries": [],
  "pending": [],
  "returns": {},
  "timestamp": 1718418560,
  "chain": 60808,
  "multi": false,
  "commit": "7d9679b"
}