{
  "transactions": [
    {
      "hash": "0x6f2d3292e70e81ee787128910dcf3fc2ccc718c260ec97f5ada78a6194561e2a",
      "transactionType": "CALL",
      "contractName": null,
      "contractAddress": "0x79dfbed14077b8f2421eece5707a17b161094e6a",
      "function": "wlMint(address)",
      "arguments": [
        "0x0000000000000000000000000000000000000000"
      ],
      "transaction": {
        "from": "0xcda2fdb452ff4f5d7ba1c3d5dfcc9cb926a5eb7d",
        "to": "0x79dfbed14077b8f2421eece5707a17b161094e6a",
        "gas": "0x3ddf7",
        "value": "0x0",
        "input": "0xc517b4a50000000000000000000000000000000000000000000000000000000000000000",
        "nonce": "0x1d0e",
        "chainId": "0xed88"
      },
      "additionalContracts": [],
      "isFixedGasLimit": false
    },
    {
      "hash": "0x14a85c17af7442794cda6ec1ac3b9e44f819d187dad7e1fb185baa09a9f3bdf6",
      "transactionType": "CALL",
      "contractName": null,
      "contractAddress": "0x79dfbed14077b8f2421eece5707a17b161094e6a",
      "function": "wlMint(address)",
      "arguments": [
        "0x0000000000000000000000000000000000000000"
      ],
      "transaction": {
        "from": "0xcda2fdb452ff4f5d7ba1c3d5dfcc9cb926a5eb7d",
        "to": "0x79dfbed14077b8f2421eece5707a17b161094e6a",
        "gas": "0x3ddf7",
        "value": "0x0",
        "input": "0xc517b4a50000000000000000000000000000000000000000000000000000000000000000",
        "nonce": "0x1d0f",
        "chainId": "0xed88"
      },
      "additionalContracts": [],
      "isFixedGasLimit": false
    },
    {
      "hash": "0xdc11fd3d34420a3d813240ea2470252fffa0a390819aa9334f91eebde38ae51e",
      "transactionType": "CALL",
      "contractName": null,
      "contractAddress": "0x79dfbed14077b8f2421eece5707a17b161094e6a",
      "function": "wlMint(address)",
      "arguments": [
        "0x0000000000000000000000000000000000000000"
      ],
      "transaction": {
        "from": "0xcda2fdb452ff4f5d7ba1c3d5dfcc9cb926a5eb7d",
        "to": "0x79dfbed14077b8f2421eece5707a17b161094e6a",
        "gas": "0x3ddf7",
        "value": "0x0",
        "input": "0xc517b4a50000000000000000000000000000000000000000000000000000000000000000",
        "nonce": "0x1d10",
        "chainId": "0xed88"
      },
      "additionalContracts": [],
      "isFixedGasLimit": false
    },
    {
      "hash": "0xb924536e382490a06cd3e12472a880b5f22b1524026fb4e0929d826f1f2d2fc5",
      "transactionType": "CALL",
      "contractName": null,
      "contractAddress": "0x79dfbed14077b8f2421eece5707a17b161094e6a",
      "function": "wlMint(address)",
      "arguments": [
        "0x0000000000000000000000000000000000000000"
      ],
      "transaction": {
        "from": "0xcda2fdb452ff4f5d7ba1c3d5dfcc9cb926a5eb7d",
        "to": "0x79dfbed14077b8f2421eece5707a17b161094e6a",
        "gas": "0x3ddf7",
        "value": "0x0",
        "input": "0xc517b4a50000000000000000000000000000000000000000000000000000000000000000",
        "nonce": "0x1d11",
        "chainId": "0xed88"
      },
      "additionalContracts": [],
      "isFixedGasLimit": false
    },
    {
      "hash": "0xafe8f225aed450ac3e62c233f21f675856dc6f46d764583af816234088e4d4fc",
      "transactionType": "CALL",
      "contractName": null,
      "contractAddress": "0x79dfbed14077b8f2421eece5707a17b161094e6a",
      "function": "wlMint(address)",
      "arguments": [
        "0x0000000000000000000000000000000000000000"
      ],
      "transaction": {
        "from": "0xcda2fdb452ff4f5d7ba1c3d5dfcc9cb926a5eb7d",
        "to": "0x79dfbed14077b8f2421eece5707a17b161094e6a",
        "gas": "0x3ddf7",
        "value": "0x0",
        "input": "0xc517b4a50000000000000000000000000000000000000000000000000000000000000000",
        "nonce": "0x1d12",
        "chainId": "0xed88"
      },
      "additionalContracts": [],
      "isFixedGasLimit": false
    },
    {
      "hash": "0x436cc3d553e0457bfc0ba2e62b5372ae7e9f6fbdecc2795cd523cdb4007f8738",
      "transactionType": "CALL",
      "contractName": null,
      "contractAddress": "0x79dfbed14077b8f2421eece5707a17b161094e6a",
      "function": "wlMint(address)",
      "arguments": [
        "0x0000000000000000000000000000000000000000"
      ],
      "transaction": {
        "from": "0xcda2fdb452ff4f5d7ba1c3d5dfcc9cb926a5eb7d",
        "to": "0x79dfbed14077b8f2421eece5707a17b161094e6a",
        "gas": "0x3ddf7",
        "value": "0x0",
        "input": "0xc517b4a50000000000000000000000000000000000000000000000000000000000000000",
        "nonce": "0x1d13",
        "chainId": "0xed88"
      },
      "additionalContracts": [],
      "isFixedGasLimit": false
    },
    {
      "hash": "0xb8ffc01e9d34670298b33b7d1a2de457f8537a127bc9ff82feafa16850b4714b",
      "transactionType": "CALL",
      "contractName": null,
      "contractAddress": "0x79dfbed14077b8f2421eece5707a17b161094e6a",
      "function": "wlMint(address)",
      "arguments": [
        "0x0000000000000000000000000000000000000000"
      ],
      "transaction": {
        "from": "0xcda2fdb452ff4f5d7ba1c3d5dfcc9cb926a5eb7d",
        "to": "0x79dfbed14077b8f2421eece5707a17b161094e6a",
        "gas": "0x3ddf7",
        "value": "0x0",
        "input": "0xc517b4a50000000000000000000000000000000000000000000000000000000000000000",
        "nonce": "0x1d14",
        "chainId": "0xed88"
      },
      "additionalContracts": [],
      "isFixedGasLimit": false
    },
    {
      "hash": "0x01a107467065cfbf770d67af675fa82c456d785cb0f1fb7589dff4d3dd59da64",
      "transactionType": "CALL",
      "contractName": null,
      "contractAddress": "0x79dfbed14077b8f2421eece5707a17b161094e6a",
      "function": "wlMint(address)",
      "arguments": [
        "0x0000000000000000000000000000000000000000"
      ],
      "transaction": {
        "from": "0xcda2fdb452ff4f5d7ba1c3d5dfcc9cb926a5eb7d",
        "to": "0x79dfbed14077b8f2421eece5707a17b161094e6a",
        "gas": "0x3ddf7",
        "value": "0x0",
        "input": "0xc517b4a50000000000000000000000000000000000000000000000000000000000000000",
        "nonce": "0x1d15",
        "chainId": "0xed88"
      },
      "additionalContracts": [],
      "isFixedGasLimit": false
    },
    {
      "hash": "0xc3061fcb3e60239e30c15501b7faa60c749330493f8dcb5b8c4b8dd9e88aa629",
      "transactionType": "CALL",
      "contractName": null,
      "contractAddress": "0x79dfbed14077b8f2421eece5707a17b161094e6a",
      "function": "wlMint(address)",
      "arguments": [
        "0x0000000000000000000000000000000000000000"
      ],
      "transaction": {
        "from": "0xcda2fdb452ff4f5d7ba1c3d5dfcc9cb926a5eb7d",
        "to": "0x79dfbed14077b8f2421eece5707a17b161094e6a",
        "gas": "0x3ddf7",
        "value": "0x0",
        "input": "0xc517b4a50000000000000000000000000000000000000000000000000000000000000000",
        "nonce": "0x1d16",
        "chainId": "0xed88"
      },
      "additionalContracts": [],
      "isFixedGasLimit": false
    },
    {
      "hash": "0x196754a9402a7c330eec52f7aa08799896aa07fa674e5faf1b364bb07a88cb31",
      "transactionType": "CALL",
      "contractName": null,
      "contractAddress": "0x79dfbed14077b8f2421eece5707a17b161094e6a",
      "function": "wlMint(address)",
      "arguments": [
        "0x0000000000000000000000000000000000000000"
      ],
      "transaction": {
        "from": "0xcda2fdb452ff4f5d7ba1c3d5dfcc9cb926a5eb7d",
        "to": "0x79dfbed14077b8f2421eece5707a17b161094e6a",
        "gas": "0x3ddf7",
        "value": "0x0",
        "input": "0xc517b4a50000000000000000000000000000000000000000000000000000000000000000",
        "nonce": "0x1d17",
        "chainId": "0xed88"
      },
      "additionalContracts": [],
      "isFixedGasLimit": false
    },
    {
      "hash": "0x2f29553b096d6f0dfb093c6ced86ec89d6bb9e9f794077a5f8f117443bd5c674",
      "transactionType": "CALL",
      "contractName": null,
      "contractAddress": "0x79dfbed14077b8f2421eece5707a17b161094e6a",
      "function": "wlMint(address)",
      "arguments": [
        "0x0000000000000000000000000000000000000000"
      ],
      "transaction": {
        "from": "0xcda2fdb452ff4f5d7ba1c3d5dfcc9cb926a5eb7d",
        "to": "0x79dfbed14077b8f2421eece5707a17b161094e6a",
        "gas": "0x3ddf7",
        "value": "0x0",
        "input": "0xc517b4a50000000000000000000000000000000000000000000000000000000000000000",
        "nonce": "0x1d18",
        "chainId": "0xed88"
      },
      "additionalContracts": [],
      "isFixedGasLimit": false
    },
    {
      "hash": "0xb3c18054e5cc6bd45fadd54ae2452c947c79dd8921230cba759e0606b8229898",
      "transactionType": "CALL",
      "contractName": null,
      "contractAddress": "0x79dfbed14077b8f2421eece5707a17b161094e6a",
      "function": "wlMint(address)",
      "arguments": [
        "0x0000000000000000000000000000000000000000"
      ],
      "transaction": {
        "from": "0xcda2fdb452ff4f5d7ba1c3d5dfcc9cb926a5eb7d",
        "to": "0x79dfbed14077b8f2421eece5707a17b161094e6a",
        "gas": "0x3ddf7",
        "value": "0x0",
        "input": "0xc517b4a50000000000000000000000000000000000000000000000000000000000000000",
        "nonce": "0x1d19",
        "chainId": "0xed88"
      },
      "additionalContracts": [],
      "isFixedGasLimit": false
    },
    {
      "hash": "0x30f19ed2aab094533854d5c812e4de4efaa379cc3ce19e22bdca38bf3f0667f1",
      "transactionType": "CALL",
      "contractName": null,
      "contractAddress": "0x79dfbed14077b8f2421eece5707a17b161094e6a",
      "function": "wlMint(address)",
      "arguments": [
        "0x0000000000000000000000000000000000000000"
      ],
      "transaction": {
        "from": "0xcda2fdb452ff4f5d7ba1c3d5dfcc9cb926a5eb7d",
        "to": "0x79dfbed14077b8f2421eece5707a17b161094e6a",
        "gas": "0x3ddf7",
        "value": "0x0",
        "input": "0xc517b4a50000000000000000000000000000000000000000000000000000000000000000",
        "nonce": "0x1d1a",
        "chainId": "0xed88"
      },
      "additionalContracts": [],
      "isFixedGasLimit": false
    },
    {
      "hash": "0xcde7900d1d55de9e2ddac16d928648473077a99e27b20b5c27c361c3e0f0e20e",
      "transactionType": "CALL",
      "contractName": null,
      "contractAddress": "0x79dfbed14077b8f2421eece5707a17b161094e6a",
      "function": "wlMint(address)",
      "arguments": [
        "0x0000000000000000000000000000000000000000"
      ],
      "transaction": {
        "from": "0xcda2fdb452ff4f5d7ba1c3d5dfcc9cb926a5eb7d",
        "to": "0x79dfbed14077b8f2421eece5707a17b161094e6a",
        "gas": "0x3ddf7",
        "value": "0x0",
        "input": "0xc517b4a50000000000000000000000000000000000000000000000000000000000000000",
        "nonce": "0x1d1b",
        "chainId": "0xed88"
      },
      "additionalContracts": [],
      "isFixedGasLimit": false
    },
    {
      "hash": "0x4f7732417837dd1f17df74bd8ba937b0fd11b5264fa8dc1b5ddfbcc6bd744a7a",
      "transactionType": "CALL",
      "contractName": null,
      "contractAddress": "0x79dfbed14077b8f2421eece5707a17b161094e6a",
      "function": "wlMint(address)",
      "arguments": [
        "0x0000000000000000000000000000000000000000"
      ],
      "transaction": {
        "from": "0xcda2fdb452ff4f5d7ba1c3d5dfcc9cb926a5eb7d",
        "to": "0x79dfbed14077b8f2421eece5707a17b161094e6a",
        "gas": "0x3ddf7",
        "value": "0x0",
        "input": "0xc517b4a50000000000000000000000000000000000000000000000000000000000000000",
        "nonce": "0x1d1c",
        "chainId": "0xed88"
      },
      "additionalContracts": [],
      "isFixedGasLimit": false
    },
    {
      "hash": "0xa69c4750708df367207a59ed8f7ae2ae3a40eb763a104337cff7b2546dfc1664",
      "transactionType": "CALL",
      "contractName": null,
      "contractAddress": "0x79dfbed14077b8f2421eece5707a17b161094e6a",
      "function": "wlMint(address)",
      "arguments": [
        "0x0000000000000000000000000000000000000000"
      ],
      "transaction": {
        "from": "0xcda2fdb452ff4f5d7ba1c3d5dfcc9cb926a5eb7d",
        "to": "0x79dfbed14077b8f2421eece5707a17b161094e6a",
        "gas": "0x3ddf7",
        "value": "0x0",
        "input": "0xc517b4a50000000000000000000000000000000000000000000000000000000000000000",
        "nonce": "0x1d1d",
        "chainId": "0xed88"
      },
      "additionalContracts": [],
      "isFixedGasLimit": false
    },
    {
      "hash": "0x2275f49a26feb64a9b57263fc8712b52b77fff8aaadd8126be4af1973a560aaa",
      "transactionType": "CALL",
      "contractName": null,
      "contractAddress": "0x79dfbed14077b8f2421eece5707a17b161094e6a",
      "function": "wlMint(address)",
      "arguments": [
        "0x0000000000000000000000000000000000000000"
      ],
      "transaction": {
        "from": "0xcda2fdb452ff4f5d7ba1c3d5dfcc9cb926a5eb7d",
        "to": "0x79dfbed14077b8f2421eece5707a17b161094e6a",
        "gas": "0x3ddf7",
        "value": "0x0",
        "input": "0xc517b4a50000000000000000000000000000000000000000000000000000000000000000",
        "nonce": "0x1d1e",
        "chainId": "0xed88"
      },
      "additionalContracts": [],
      "isFixedGasLimit": false
    },
    {
      "hash": "0x0ed2b3dc548a61324769786034d6e19a3e9cca78bcb93f54252fdf6ef1636d6e",
      "transactionType": "CALL",
      "contractName": null,
      "contractAddress": "0x79dfbed14077b8f2421eece5707a17b161094e6a",
      "function": "wlMint(address)",
      "arguments": [
        "0x0000000000000000000000000000000000000000"
      ],
      "transaction": {
        "from": "0xcda2fdb452ff4f5d7ba1c3d5dfcc9cb926a5eb7d",
        "to": "0x79dfbed14077b8f2421eece5707a17b161094e6a",
        "gas": "0x3ddf7",
        "value": "0x0",
        "input": "0xc517b4a50000000000000000000000000000000000000000000000000000000000000000",
        "nonce": "0x1d1f",
        "chainId": "0xed88"
      },
      "additionalContracts": [],
      "isFixedGasLimit": false
    },
    {
      "hash": "0x6dedc64d51f4edd29a5f24021f5249c6afbb9a367f2d7f7e6bd140c48d7b6864",
      "transactionType": "CALL",
      "contractName": null,
      "contractAddress": "0x79dfbed14077b8f2421eece5707a17b161094e6a",
      "function": "wlMint(address)",
      "arguments": [
        "0x0000000000000000000000000000000000000000"
      ],
      "transaction": {
        "from": "0xcda2fdb452ff4f5d7ba1c3d5dfcc9cb926a5eb7d",
        "to": "0x79dfbed14077b8f2421eece5707a17b161094e6a",
        "gas": "0x3ddf7",
        "value": "0x0",
        "input": "0xc517b4a50000000000000000000000000000000000000000000000000000000000000000",
        "nonce": "0x1d20",
        "chainId": "0xed88"
      },
      "additionalContracts": [],
      "isFixedGasLimit": false
    },
    {
      "hash": "0xd8671533b35feb5048585cf0a2c1a13f337969fe2231f57730b21bbc04087bb1",
      "transactionType": "CALL",
      "contractName": null,
      "contractAddress": "0x79dfbed14077b8f2421eece5707a17b161094e6a",
      "function": "wlMint(address)",
      "arguments": [
        "0x0000000000000000000000000000000000000000"
      ],
      "transaction": {
        "from": "0xcda2fdb452ff4f5d7ba1c3d5dfcc9cb926a5eb7d",
        "to": "0x79dfbed14077b8f2421eece5707a17b161094e6a",
        "gas": "0x3ddf7",
        "value": "0x0",
        "input": "0xc517b4a50000000000000000000000000000000000000000000000000000000000000000",
        "nonce": "0x1d21",
        "chainId": "0xed88"
      },
      "additionalContracts": [],
      "isFixedGasLimit": false
    },
    {
      "hash": "0xe1a4965eecd3f73e7566c4822cf91da721019b473f7724d2278bf185a9b0df0e",
      "transactionType": "CALL",
      "contractName": null,
      "contractAddress": "0x79dfbed14077b8f2421eece5707a17b161094e6a",
      "function": "wlMint(address)",
      "arguments": [
        "0x0000000000000000000000000000000000000000"
      ],
      "transaction": {
        "from": "0xcda2fdb452ff4f5d7ba1c3d5dfcc9cb926a5eb7d",
        "to": "0x79dfbed14077b8f2421eece5707a17b161094e6a",
        "gas": "0x3ddf7",
        "value": "0x0",
        "input": "0xc517b4a50000000000000000000000000000000000000000000000000000000000000000",
        "nonce": "0x1d22",
        "chainId": "0xed88"
      },
      "additionalContracts": [],
      "isFixedGasLimit": false
    },
    {
      "hash": "0x54013f41b3c068d4d720aa27c0fa4e7091d7e91f18311f6fee1c56f594dce731",
      "transactionType": "CALL",
      "contractName": null,
      "contractAddress": "0x79dfbed14077b8f2421eece5707a17b161094e6a",
      "function": "wlMint(address)",
      "arguments": [
        "0x0000000000000000000000000000000000000000"
      ],
      "transaction": {
        "from": "0xcda2fdb452ff4f5d7ba1c3d5dfcc9cb926a5eb7d",
        "to": "0x79dfbed14077b8f2421eece5707a17b161094e6a",
        "gas": "0x3ddf7",
        "value": "0x0",
        "input": "0xc517b4a50000000000000000000000000000000000000000000000000000000000000000",
        "nonce": "0x1d23",
        "chainId": "0xed88"
      },
      "additionalContracts": [],
      "isFixedGasLimit": false
    },
    {
      "hash": "0x499979c5eb9b1e142372e0282c84f0fed770f488954b1f9f94aa2c7ee155ae0f",
      "transactionType": "CALL",
      "contractName": null,
      "contractAddress": "0x79dfbed14077b8f2421eece5707a17b161094e6a",
      "function": "wlMint(address)",
      "arguments": [
        "0x0000000000000000000000000000000000000000"
      ],
      "transaction": {
        "from": "0xcda2fdb452ff4f5d7ba1c3d5dfcc9cb926a5eb7d",
        "to": "0x79dfbed14077b8f2421eece5707a17b161094e6a",
        "gas": "0x3ddf7",
        "value": "0x0",
        "input": "0xc517b4a50000000000000000000000000000000000000000000000000000000000000000",
        "nonce": "0x1d24",
        "chainId": "0xed88"
      },
      "additionalContracts": [],
      "isFixedGasLimit": false
    },
    {
      "hash": "0x63d65222e010299031dd8dc2e850cd45a0183577a1600ffaa8f8a43f4bf21fa1",
      "transactionType": "CALL",
      "contractName": null,
      "contractAddress": "0x79dfbed14077b8f2421eece5707a17b161094e6a",
      "function": "wlMint(address)",
      "arguments": [
        "0x0000000000000000000000000000000000000000"
      ],
      "transaction": {
        "from": "0xcda2fdb452ff4f5d7ba1c3d5dfcc9cb926a5eb7d",
        "to": "0x79dfbed14077b8f2421eece5707a17b161094e6a",
        "gas": "0x3ddf7",
        "value": "0x0",
        "input": "0xc517b4a50000000000000000000000000000000000000000000000000000000000000000",
        "nonce": "0x1d25",
        "chainId": "0xed88"
      },
      "additionalContracts": [],
      "isFixedGasLimit": false
    },
    {
      "hash": "0x62aa74fb8a6491527591f7d3479a696bb870610e78e0c82aef2bda92e92525b9",
      "transactionType": "CALL",
      "contractName": null,
      "contractAddress": "0x79dfbed14077b8f2421eece5707a17b161094e6a",
      "function": "wlMint(address)",
      "arguments": [
        "0x0000000000000000000000000000000000000000"
      ],
      "transaction": {
        "from": "0xcda2fdb452ff4f5d7ba1c3d5dfcc9cb926a5eb7d",
        "to": "0x79dfbed14077b8f2421eece5707a17b161094e6a",
        "gas": "0x3ddf7",
        "value": "0x0",
        "input": "0xc517b4a50000000000000000000000000000000000000000000000000000000000000000",
        "nonce": "0x1d26",
        "chainId": "0xed88"
      },
      "additionalContracts": [],
      "isFixedGasLimit": false
    },
    {
      "hash": "0x131c8c592c7d31011c93e74a0593ca2cd3840577836d175bfb0f3a28fa6fc396",
      "transactionType": "CALL",
      "contractName": null,
      "contractAddress": "0x79dfbed14077b8f2421eece5707a17b161094e6a",
      "function": "wlMint(address)",
      "arguments": [
        "0x0000000000000000000000000000000000000000"
      ],
      "transaction": {
        "from": "0xcda2fdb452ff4f5d7ba1c3d5dfcc9cb926a5eb7d",
        "to": "0x79dfbed14077b8f2421eece5707a17b161094e6a",
        "gas": "0x3ddf7",
        "value": "0x0",
        "input": "0xc517b4a50000000000000000000000000000000000000000000000000000000000000000",
        "nonce": "0x1d27",
        "chainId": "0xed88"
      },
      "additionalContracts": [],
      "isFixedGasLimit": false
    },
    {
      "hash": "0xbb862663c9bc0b39c5a58e0f666b32f394b28faf7f6c27680aab8d04f4827757",
      "transactionType": "CALL",
      "contractName": null,
      "contractAddress": "0x79dfbed14077b8f2421eece5707a17b161094e6a",
      "function": "wlMint(address)",
      "arguments": [
        "0x0000000000000000000000000000000000000000"
      ],
      "transaction": {
        "from": "0xcda2fdb452ff4f5d7ba1c3d5dfcc9cb926a5eb7d",
        "to": "0x79dfbed14077b8f2421eece5707a17b161094e6a",
        "gas": "0x3ddf7",
        "value": "0x0",
        "input": "0xc517b4a50000000000000000000000000000000000000000000000000000000000000000",
        "nonce": "0x1d28",
        "chainId": "0xed88"
      },
      "additionalContracts": [],
      "isFixedGasLimit": false
    },
    {
      "hash": "0xb7add773bc424d6d737d0d286b42ac9c0ba3a12417525de93e97b874968882a6",
      "transactionType": "CALL",
      "contractName": null,
      "contractAddress": "0x79dfbed14077b8f2421eece5707a17b161094e6a",
      "function": "wlMint(address)",
      "arguments": [
        "0x0000000000000000000000000000000000000000"
      ],
      "transaction": {
        "from": "0xcda2fdb452ff4f5d7ba1c3d5dfcc9cb926a5eb7d",
        "to": "0x79dfbed14077b8f2421eece5707a17b161094e6a",
        "gas": "0x3ddf7",
        "value": "0x0",
        "input": "0xc517b4a50000000000000000000000000000000000000000000000000000000000000000",
        "nonce": "0x1d29",
        "chainId": "0xed88"
      },
      "additionalContracts": [],
      "isFixedGasLimit": false
    },
    {
      "hash": "0x7491bc63523edd66836fc1d356b84906cd11b2562ec7d2bf76466e4d19f58761",
      "transactionType": "CALL",
      "contractName": null,
      "contractAddress": "0x79dfbed14077b8f2421eece5707a17b161094e6a",
      "function": "wlMint(address)",
      "arguments": [
        "0x0000000000000000000000000000000000000000"
      ],
      "transaction": {
        "from": "0xcda2fdb452ff4f5d7ba1c3d5dfcc9cb926a5eb7d",
        "to": "0x79dfbed14077b8f2421eece5707a17b161094e6a",
        "gas": "0x3ddf7",
        "value": "0x0",
        "input": "0xc517b4a50000000000000000000000000000000000000000000000000000000000000000",
        "nonce": "0x1d2a",
        "chainId": "0xed88"
      },
      "additionalContracts": [],
      "isFixedGasLimit": false
    },
    {
      "hash": "0x9a62c721bfd77132114aeb74fe03c260bcf8f6ade65fb743925a673353f1bdfa",
      "transactionType": "CALL",
      "contractName": null,
      "contractAddress": "0x79dfbed14077b8f2421eece5707a17b161094e6a",
      "function": "wlMint(address)",
      "arguments": [
        "0x0000000000000000000000000000000000000000"
      ],
      "transaction": {
        "from": "0xcda2fdb452ff4f5d7ba1c3d5dfcc9cb926a5eb7d",
        "to": "0x79dfbed14077b8f2421eece5707a17b161094e6a",
        "gas": "0x3ddf7",
        "value": "0x0",
        "input": "0xc517b4a50000000000000000000000000000000000000000000000000000000000000000",
        "nonce": "0x1d2b",
        "chainId": "0xed88"
      },
      "additionalContracts": [],
      "isFixedGasLimit": false
    }
  ],
  "receipts": [
    {
      "status": "0x1",
      "cumulativeGasUsed": "0x377f7",
      "logs": [
        {
          "address": "0x2e8af9c5922623058aa92a183b391e62cb6b2d12",
          "topics": [
            "0xddf252ad1be2c89b69c2b068fc378daa952ba7f163c4a11628f55a4df523b3ef",
            "0x0000000000000000000000000000000000000000000000000000000000000000",
            "0x000000000000000000000000cda2fdb452ff4f5d7ba1c3d5dfcc9cb926a5eb7d",
            "0x0000000000000000000000000000000000000000000000000000000000000104"
          ],
          "data": "0x",
          "blockHash": "0x62b2834f444e569900dfc2d084f2ce52994cfbbb305ff065a847a14fc9b4207f",
          "blockNumber": "0x75071b",
          "transactionHash": "0x6f2d3292e70e81ee787128910dcf3fc2ccc718c260ec97f5ada78a6194561e2a",
          "transactionIndex": "0x1",
          "logIndex": "0x0",
          "removed": false
        },
        {
          "address": "0x2e8af9c5922623058aa92a183b391e62cb6b2d12",
          "topics": [
            "0xf8e1a15aba9398e019f0b49df1a4fde98ee17ae345cb5f6b5e2c27f5033e8ce7"
          ],
          "data": "0x0000000000000000000000000000000000000000000000000000000000000104",
          "blockHash": "0x62b2834f444e569900dfc2d084f2ce52994cfbbb305ff065a847a14fc9b4207f",
          "blockNumber": "0x75071b",
          "transactionHash": "0x6f2d3292e70e81ee787128910dcf3fc2ccc718c260ec97f5ada78a6194561e2a",
          "transactionIndex": "0x1",
          "logIndex": "0x1",
          "removed": false
        }
      ],
      "logsBloom": "0x00000000000000000000000000000000000000020000000000000000000000000000000000000000000000000000000000000000000000000000000000000004000000000000000000000008040000000000000000000000000000000000000000000000020000000000000000000800002000000000800000000010000008000000000000000000000000000000000000000000000000000000000000000000000000000000000000000000000000002000000000004000000000000000008000000002000000000000000000000000000000000000000000000000000020000400000000000000200000000000000000000000100000000000000000000000",
      "type": "0x2",
      "transactionHash": "0x6f2d3292e70e81ee787128910dcf3fc2ccc718c260ec97f5ada78a6194561e2a",
      "transactionIndex": "0x1",
      "blockHash": "0x62b2834f444e569900dfc2d084f2ce52994cfbbb305ff065a847a14fc9b4207f",
      "blockNumber": "0x75071b",
      "gasUsed": "0x2ccb8",
      "effectiveGasPrice": "0xfd",
      "from": "0xcda2fdb452ff4f5d7ba1c3d5dfcc9cb926a5eb7d",
      "to": "0x79dfbed14077b8f2421eece5707a17b161094e6a",
      "contractAddress": null,
      "l1BaseFeeScalar": "0x186a0",
      "l1BlobBaseFee": "0x1",
      "l1BlobBaseFeeScalar": "0x95506",
      "l1Fee": "0x97f92001fd",
      "l1GasPrice": "0xf3283336",
      "l1GasUsed": "0x640"
    },
    {
      "status": "0x1",
      "cumulativeGasUsed": "0x644af",
      "logs": [
        {
          "address": "0x2e8af9c5922623058aa92a183b391e62cb6b2d12",
          "topics": [
            "0xddf252ad1be2c89b69c2b068fc378daa952ba7f163c4a11628f55a4df523b3ef",
            "0x0000000000000000000000000000000000000000000000000000000000000000",
            "0x000000000000000000000000cda2fdb452ff4f5d7ba1c3d5dfcc9cb926a5eb7d",
            "0x0000000000000000000000000000000000000000000000000000000000000105"
          ],
          "data": "0x",
          "blockHash": "0x62b2834f444e569900dfc2d084f2ce52994cfbbb305ff065a847a14fc9b4207f",
          "blockNumber": "0x75071b",
          "transactionHash": "0x14a85c17af7442794cda6ec1ac3b9e44f819d187dad7e1fb185baa09a9f3bdf6",
          "transactionIndex": "0x2",
          "logIndex": "0x2",
          "removed": false
        },
        {
          "address": "0x2e8af9c5922623058aa92a183b391e62cb6b2d12",
          "topics": [
            "0xf8e1a15aba9398e019f0b49df1a4fde98ee17ae345cb5f6b5e2c27f5033e8ce7"
          ],
          "data": "0x0000000000000000000000000000000000000000000000000000000000000105",
          "blockHash": "0x62b2834f444e569900dfc2d084f2ce52994cfbbb305ff065a847a14fc9b4207f",
          "blockNumber": "0x75071b",
          "transactionHash": "0x14a85c17af7442794cda6ec1ac3b9e44f819d187dad7e1fb185baa09a9f3bdf6",
          "transactionIndex": "0x2",
          "logIndex": "0x3",
          "removed": false
        }
      ],
      "logsBloom": "0x00000000000000000000000000000000000000020000000000000000000000000000000000000000000000000000000000000000000000000000000000000000000000000000000000000008040000000000000000000000000000000000000000000000020000000000000000000800002000040000800000000010000000000000000000000100000000000000000000000000000000000000000000000000000000000000000000000000000000002000000000004000000000000000008000000002000000000000000000000000000000000000000000000000000020001000000000000000200000000000000000000000100000000000000000000000",
      "type": "0x2",
      "transactionHash": "0x14a85c17af7442794cda6ec1ac3b9e44f819d187dad7e1fb185baa09a9f3bdf6",
      "transactionIndex": "0x2",
      "blockHash": "0x62b2834f444e569900dfc2d084f2ce52994cfbbb305ff065a847a14fc9b4207f",
      "blockNumber": "0x75071b",
      "gasUsed": "0x2ccb8",
      "effectiveGasPrice": "0xfd",
      "from": "0xcda2fdb452ff4f5d7ba1c3d5dfcc9cb926a5eb7d",
      "to": "0x79dfbed14077b8f2421eece5707a17b161094e6a",
      "contractAddress": null,
      "l1BaseFeeScalar": "0x186a0",
      "l1BlobBaseFee": "0x1",
      "l1BlobBaseFeeScalar": "0x95506",
      "l1Fee": "0x97f92001fd",
      "l1GasPrice": "0xf3283336",
      "l1GasUsed": "0x640"
    },
    {
      "status": "0x1",
      "cumulativeGasUsed": "0x91167",
      "logs": [
        {
          "address": "0x2e8af9c5922623058aa92a183b391e62cb6b2d12",
          "topics": [
            "0xddf252ad1be2c89b69c2b068fc378daa952ba7f163c4a11628f55a4df523b3ef",
            "0x0000000000000000000000000000000000000000000000000000000000000000",
            "0x000000000000000000000000cda2fdb452ff4f5d7ba1c3d5dfcc9cb926a5eb7d",
            "0x0000000000000000000000000000000000000000000000000000000000000106"
          ],
          "data": "0x",
          "blockHash": "0x62b2834f444e569900dfc2d084f2ce52994cfbbb305ff065a847a14fc9b4207f",
          "blockNumber": "0x75071b",
          "transactionHash": "0xdc11fd3d34420a3d813240ea2470252fffa0a390819aa9334f91eebde38ae51e",
          "transactionIndex": "0x3",
          "logIndex": "0x4",
          "removed": false
        },
        {
          "address": "0x2e8af9c5922623058aa92a183b391e62cb6b2d12",
          "topics": [
            "0xf8e1a15aba9398e019f0b49df1a4fde98ee17ae345cb5f6b5e2c27f5033e8ce7"
          ],
          "data": "0x0000000000000000000000000000000000000000000000000000000000000106",
          "blockHash": "0x62b2834f444e569900dfc2d084f2ce52994cfbbb305ff065a847a14fc9b4207f",
          "blockNumber": "0x75071b",
          "transactionHash": "0xdc11fd3d34420a3d813240ea2470252fffa0a390819aa9334f91eebde38ae51e",
          "transactionIndex": "0x3",
          "logIndex": "0x5",
          "removed": false
        }
      ],
      "logsBloom": "0x00000000000040000000000000000000000000020000000000000000000000000000000000000000000000000000000000000000000000000000000000000000000000000000000000000008040000000000000000000000000000000000000000000000020000000000000000000800002000000000800000000010000000000000000000000000000000000000000000000000000000000000000000000000000000000000000000000000000200002000000000004000000000000000008000008002000000000000000000000000000000000000000000000000000020000000000000000000200000000000000000000000100000000000000000000000",
      "type": "0x2",
      "transactionHash": "0xdc11fd3d34420a3d813240ea2470252fffa0a390819aa9334f91eebde38ae51e",
      "transactionIndex": "0x3",
      "blockHash": "0x62b2834f444e569900dfc2d084f2ce52994cfbbb305ff065a847a14fc9b4207f",
      "blockNumber": "0x75071b",
      "gasUsed": "0x2ccb8",
      "effectiveGasPrice": "0xfd",
      "from": "0xcda2fdb452ff4f5d7ba1c3d5dfcc9cb926a5eb7d",
      "to": "0x79dfbed14077b8f2421eece5707a17b161094e6a",
      "contractAddress": null,
      "l1BaseFeeScalar": "0x186a0",
      "l1BlobBaseFee": "0x1",
      "l1BlobBaseFeeScalar": "0x95506",
      "l1Fee": "0x97f92001fd",
      "l1GasPrice": "0xf3283336",
      "l1GasUsed": "0x640"
    },
    {
      "status": "0x1",
      "cumulativeGasUsed": "0xbde1f",
      "logs": [
        {
          "address": "0x2e8af9c5922623058aa92a183b391e62cb6b2d12",
          "topics": [
            "0xddf252ad1be2c89b69c2b068fc378daa952ba7f163c4a11628f55a4df523b3ef",
            "0x0000000000000000000000000000000000000000000000000000000000000000",
            "0x000000000000000000000000cda2fdb452ff4f5d7ba1c3d5dfcc9cb926a5eb7d",
            "0x0000000000000000000000000000000000000000000000000000000000000107"
          ],
          "data": "0x",
          "blockHash": "0x62b2834f444e569900dfc2d084f2ce52994cfbbb305ff065a847a14fc9b4207f",
          "blockNumber": "0x75071b",
          "transactionHash": "0xb924536e382490a06cd3e12472a880b5f22b1524026fb4e0929d826f1f2d2fc5",
          "transactionIndex": "0x4",
          "logIndex": "0x6",
          "removed": false
        },
        {
          "address": "0x2e8af9c5922623058aa92a183b391e62cb6b2d12",
          "topics": [
            "0xf8e1a15aba9398e019f0b49df1a4fde98ee17ae345cb5f6b5e2c27f5033e8ce7"
          ],
          "data": "0x0000000000000000000000000000000000000000000000000000000000000107",
          "blockHash": "0x62b2834f444e569900dfc2d084f2ce52994cfbbb305ff065a847a14fc9b4207f",
          "blockNumber": "0x75071b",
          "transactionHash": "0xb924536e382490a06cd3e12472a880b5f22b1524026fb4e0929d826f1f2d2fc5",
          "transactionIndex": "0x4",
          "logIndex": "0x7",
          "removed": false
        }
      ],
      "logsBloom": "0x00000000000000100000000000000000000000020000000000000000000000000000000000000000000000000000000000000000000000000000000000000000000000000000000000000008040000000000000000000000000000000000000000000000020000000000000000000800002000008000800000000010000000000000000000000000000000000000000000000000000000000000000000000000000000000000000000000000000000002000000000004000000000000000008000000002000000000000000000000000000000000000000000000000000020000000000000000000200000000000400000000000100000000000000000000000",
      "type": "0x2",
      "transactionHash": "0xb924536e382490a06cd3e12472a880b5f22b1524026fb4e0929d826f1f2d2fc5",
      "transactionIndex": "0x4",
      "blockHash": "0x62b2834f444e569900dfc2d084f2ce52994cfbbb305ff065a847a14fc9b4207f",
      "blockNumber": "0x75071b",
      "gasUsed": "0x2ccb8",
      "effectiveGasPrice": "0xfd",
      "from": "0xcda2fdb452ff4f5d7ba1c3d5dfcc9cb926a5eb7d",
      "to": "0x79dfbed14077b8f2421eece5707a17b161094e6a",
      "contractAddress": null,
      "l1BaseFeeScalar": "0x186a0",
      "l1BlobBaseFee": "0x1",
      "l1BlobBaseFeeScalar": "0x95506",
      "l1Fee": "0x97f92001fd",
      "l1GasPrice": "0xf3283336",
      "l1GasUsed": "0x640"
    },
    {
      "status": "0x1",
      "cumulativeGasUsed": "0xeaad7",
      "logs": [
        {
          "address": "0x2e8af9c5922623058aa92a183b391e62cb6b2d12",
          "topics": [
            "0xddf252ad1be2c89b69c2b068fc378daa952ba7f163c4a11628f55a4df523b3ef",
            "0x0000000000000000000000000000000000000000000000000000000000000000",
            "0x000000000000000000000000cda2fdb452ff4f5d7ba1c3d5dfcc9cb926a5eb7d",
            "0x0000000000000000000000000000000000000000000000000000000000000108"
          ],
          "data": "0x",
          "blockHash": "0x62b2834f444e569900dfc2d084f2ce52994cfbbb305ff065a847a14fc9b4207f",
          "blockNumber": "0x75071b",
          "transactionHash": "0xafe8f225aed450ac3e62c233f21f675856dc6f46d764583af816234088e4d4fc",
          "transactionIndex": "0x5",
          "logIndex": "0x8",
          "removed": false
        },
        {
          "address": "0x2e8af9c5922623058aa92a183b391e62cb6b2d12",
          "topics": [
            "0xf8e1a15aba9398e019f0b49df1a4fde98ee17ae345cb5f6b5e2c27f5033e8ce7"
          ],
          "data": "0x0000000000000000000000000000000000000000000000000000000000000108",
          "blockHash": "0x62b2834f444e569900dfc2d084f2ce52994cfbbb305ff065a847a14fc9b4207f",
          "blockNumber": "0x75071b",
          "transactionHash": "0xafe8f225aed450ac3e62c233f21f675856dc6f46d764583af816234088e4d4fc",
          "transactionIndex": "0x5",
          "logIndex": "0x9",
          "removed": false
        }
      ],
      "logsBloom": "0x00000000000000004000000000000000000000020000000000000000000000000000000000000000000000000000000000000000000000000000000000000000000000000000000000000008040000000000000000000008000000000000000000000000020000000000000000000800002000000000800000000010000000000000000000000000000000000000000000000000000000000000000000000000000000000000000000000000000000002000000000004000000000000000008000000002000000000000200000000000000000000000000000000000000020000000000000000000200000000000000000000000100000000000000000000000",
      "type": "0x2",
      "transactionHash": "0xafe8f225aed450ac3e62c233f21f675856dc6f46d764583af816234088e4d4fc",
      "transactionIndex": "0x5",
      "blockHash": "0x62b2834f444e569900dfc2d084f2ce52994cfbbb305ff065a847a14fc9b4207f",
      "blockNumber": "0x75071b",
      "gasUsed": "0x2ccb8",
      "effectiveGasPrice": "0xfd",
      "from": "0xcda2fdb452ff4f5d7ba1c3d5dfcc9cb926a5eb7d",
      "to": "0x79dfbed14077b8f2421eece5707a17b161094e6a",
      "contractAddress": null,
      "l1BaseFeeScalar": "0x186a0",
      "l1BlobBaseFee": "0x1",
      "l1BlobBaseFeeScalar": "0x95506",
      "l1Fee": "0x97f92001fd",
      "l1GasPrice": "0xf3283336",
      "l1GasUsed": "0x640"
    },
    {
      "status": "0x1",
      "cumulativeGasUsed": "0x11778f",
      "logs": [
        {
          "address": "0x2e8af9c5922623058aa92a183b391e62cb6b2d12",
          "topics": [
            "0xddf252ad1be2c89b69c2b068fc378daa952ba7f163c4a11628f55a4df523b3ef",
            "0x0000000000000000000000000000000000000000000000000000000000000000",
            "0x000000000000000000000000cda2fdb452ff4f5d7ba1c3d5dfcc9cb926a5eb7d",
            "0x0000000000000000000000000000000000000000000000000000000000000109"
          ],
          "data": "0x",
          "blockHash": "0x62b2834f444e569900dfc2d084f2ce52994cfbbb305ff065a847a14fc9b4207f",
          "blockNumber": "0x75071b",
          "transactionHash": "0x436cc3d553e0457bfc0ba2e62b5372ae7e9f6fbdecc2795cd523cdb4007f8738",
          "transactionIndex": "0x6",
          "logIndex": "0xa",
          "removed": false
        },
        {
          "address": "0x2e8af9c5922623058aa92a183b391e62cb6b2d12",
          "topics": [
            "0xf8e1a15aba9398e019f0b49df1a4fde98ee17ae345cb5f6b5e2c27f5033e8ce7"
          ],
          "data": "0x0000000000000000000000000000000000000000000000000000000000000109",
          "blockHash": "0x62b2834f444e569900dfc2d084f2ce52994cfbbb305ff065a847a14fc9b4207f",
          "blockNumber": "0x75071b",
          "transactionHash": "0x436cc3d553e0457bfc0ba2e62b5372ae7e9f6fbdecc2795cd523cdb4007f8738",
          "transactionIndex": "0x6",
          "logIndex": "0xb",
          "removed": false
        }
      ],
      "logsBloom": "0x00100000000000000000000000000000000000020000000000000000000000000000000000000000000000000000000000000000000000000000000000000000000000000000000000000008040000000000000000008000000000001000000000000000020000000000000000000800002000000000800000000010000000000000000000000000000000000000000000000000000000000000000000000000000000000000000000000000000000002000000000004000000000000000008000000002000000000000000000000000000000000000000000000000000020000000000000000000200000000000000000000000100000000000000000000000",
      "type": "0x2",
      "transactionHash": "0x436cc3d553e0457bfc0ba2e62b5372ae7e9f6fbdecc2795cd523cdb4007f8738",
      "transactionIndex": "0x6",
      "blockHash": "0x62b2834f444e569900dfc2d084f2ce52994cfbbb305ff065a847a14fc9b4207f",
      "blockNumber": "0x75071b",
      "gasUsed": "0x2ccb8",
      "effectiveGasPrice": "0xfd",
      "from": "0xcda2fdb452ff4f5d7ba1c3d5dfcc9cb926a5eb7d",
      "to": "0x79dfbed14077b8f2421eece5707a17b161094e6a",
      "contractAddress": null,
      "l1BaseFeeScalar": "0x186a0",
      "l1BlobBaseFee": "0x1",
      "l1BlobBaseFeeScalar": "0x95506",
      "l1Fee": "0x97f92001fd",
      "l1GasPrice": "0xf3283336",
      "l1GasUsed": "0x640"
    },
    {
      "status": "0x1",
      "cumulativeGasUsed": "0x144447",
      "logs": [
        {
          "address": "0x2e8af9c5922623058aa92a183b391e62cb6b2d12",
          "topics": [
            "0xddf252ad1be2c89b69c2b068fc378daa952ba7f163c4a11628f55a4df523b3ef",
            "0x0000000000000000000000000000000000000000000000000000000000000000",
            "0x000000000000000000000000cda2fdb452ff4f5d7ba1c3d5dfcc9cb926a5eb7d",
            "0x000000000000000000000000000000000000000000000000000000000000010a"
          ],
          "data": "0x",
          "blockHash": "0x62b2834f444e569900dfc2d084f2ce52994cfbbb305ff065a847a14fc9b4207f",
          "blockNumber": "0x75071b",
          "transactionHash": "0xb8ffc01e9d34670298b33b7d1a2de457f8537a127bc9ff82feafa16850b4714b",
          "transactionIndex": "0x7",
          "logIndex": "0xc",
          "removed": false
        },
        {
          "address": "0x2e8af9c5922623058aa92a183b391e62cb6b2d12",
          "topics": [
            "0xf8e1a15aba9398e019f0b49df1a4fde98ee17ae345cb5f6b5e2c27f5033e8ce7"
          ],
          "data": "0x000000000000000000000000000000000000000000000000000000000000010a",
          "blockHash": "0x62b2834f444e569900dfc2d084f2ce52994cfbbb305ff065a847a14fc9b4207f",
          "blockNumber": "0x75071b",
          "transactionHash": "0xb8ffc01e9d34670298b33b7d1a2de457f8537a127bc9ff82feafa16850b4714b",
          "transactionIndex": "0x7",
          "logIndex": "0xd",
          "removed": false
        }
      ],
      "logsBloom": "0x00000000000000000000000000000000000000120000000000000000000000000000000000000000000000000000000000000000000000000000000000000000000000000000000000000008040001200000000000000000000000000000000000000000020000000000000000000800002000000000800000000010000000000000000000000000000000000000000000000000000000000000000000000000000000000000000000000000000000002000000000004000000000000000008000000002000000000000000000000000000000000000000000000000000020000000000000000000200000000000000000000000100000000000000000000000",
      "type": "0x2",
      "transactionHash": "0xb8ffc01e9d34670298b33b7d1a2de457f8537a127bc9ff82feafa16850b4714b",
      "transactionIndex": "0x7",
      "blockHash": "0x62b2834f444e569900dfc2d084f2ce52994cfbbb305ff065a847a14fc9b4207f",
      "blockNumber": "0x75071b",
      "gasUsed": "0x2ccb8",
      "effectiveGasPrice": "0xfd",
      "from": "0xcda2fdb452ff4f5d7ba1c3d5dfcc9cb926a5eb7d",
      "to": "0x79dfbed14077b8f2421eece5707a17b161094e6a",
      "contractAddress": null,
      "l1BaseFeeScalar": "0x186a0",
      "l1BlobBaseFee": "0x1",
      "l1BlobBaseFeeScalar": "0x95506",
      "l1Fee": "0x97f92001fd",
      "l1GasPrice": "0xf3283336",
      "l1GasUsed": "0x640"
    },
    {
      "status": "0x1",
      "cumulativeGasUsed": "0x1710ff",
      "logs": [
        {
          "address": "0x2e8af9c5922623058aa92a183b391e62cb6b2d12",
          "topics": [
            "0xddf252ad1be2c89b69c2b068fc378daa952ba7f163c4a11628f55a4df523b3ef",
            "0x0000000000000000000000000000000000000000000000000000000000000000",
            "0x000000000000000000000000cda2fdb452ff4f5d7ba1c3d5dfcc9cb926a5eb7d",
            "0x000000000000000000000000000000000000000000000000000000000000010b"
          ],
          "data": "0x",
          "blockHash": "0x62b2834f444e569900dfc2d084f2ce52994cfbbb305ff065a847a14fc9b4207f",
          "blockNumber": "0x75071b",
          "transactionHash": "0x01a107467065cfbf770d67af675fa82c456d785cb0f1fb7589dff4d3dd59da64",
          "transactionIndex": "0x8",
          "logIndex": "0xe",
          "removed": false
        },
        {
          "address": "0x2e8af9c5922623058aa92a183b391e62cb6b2d12",
          "topics": [
            "0xf8e1a15aba9398e019f0b49df1a4fde98ee17ae345cb5f6b5e2c27f5033e8ce7"
          ],
          "data": "0x000000000000000000000000000000000000000000000000000000000000010b",
          "blockHash": "0x62b2834f444e569900dfc2d084f2ce52994cfbbb305ff065a847a14fc9b4207f",
          "blockNumber": "0x75071b",
          "transactionHash": "0x01a107467065cfbf770d67af675fa82c456d785cb0f1fb7589dff4d3dd59da64",
          "transactionIndex": "0x8",
          "logIndex": "0xf",
          "removed": false
        }
      ],
      "logsBloom": "0x00000000000000000000000000000000000000020000000000000000000000000000000000000000000000000000000000000000000000000000000000000000000000000000000000000088040000000000000000000000000000000000000000000000020000000000000100000800002000000000800000000010000000000000000000000000000000000000000000000000200000000000000000000000000000000000000000000000000000002000000000004000000000000000008000000002000000000000000000000000000000000000000000000000000020000000000000000000200000000000000000000000100000000000000000000000",
      "type": "0x2",
      "transactionHash": "0x01a107467065cfbf770d67af675fa82c456d785cb0f1fb7589dff4d3dd59da64",
      "transactionIndex": "0x8",
      "blockHash": "0x62b2834f444e569900dfc2d084f2ce52994cfbbb305ff065a847a14fc9b4207f",
      "blockNumber": "0x75071b",
      "gasUsed": "0x2ccb8",
      "effectiveGasPrice": "0xfd",
      "from": "0xcda2fdb452ff4f5d7ba1c3d5dfcc9cb926a5eb7d",
      "to": "0x79dfbed14077b8f2421eece5707a17b161094e6a",
      "contractAddress": null,
      "l1BaseFeeScalar": "0x186a0",
      "l1BlobBaseFee": "0x1",
      "l1BlobBaseFeeScalar": "0x95506",
      "l1Fee": "0x97f92001fd",
      "l1GasPrice": "0xf3283336",
      "l1GasUsed": "0x640"
    },
    {
      "status": "0x1",
      "cumulativeGasUsed": "0x19ddb7",
      "logs": [
        {
          "address": "0x2e8af9c5922623058aa92a183b391e62cb6b2d12",
          "topics": [
            "0xddf252ad1be2c89b69c2b068fc378daa952ba7f163c4a11628f55a4df523b3ef",
            "0x0000000000000000000000000000000000000000000000000000000000000000",
            "0x000000000000000000000000cda2fdb452ff4f5d7ba1c3d5dfcc9cb926a5eb7d",
            "0x000000000000000000000000000000000000000000000000000000000000010c"
          ],
          "data": "0x",
          "blockHash": "0x62b2834f444e569900dfc2d084f2ce52994cfbbb305ff065a847a14fc9b4207f",
          "blockNumber": "0x75071b",
          "transactionHash": "0xc3061fcb3e60239e30c15501b7faa60c749330493f8dcb5b8c4b8dd9e88aa629",
          "transactionIndex": "0x9",
          "logIndex": "0x10",
          "removed": false
        },
        {
          "address": "0x2e8af9c5922623058aa92a183b391e62cb6b2d12",
          "topics": [
            "0xf8e1a15aba9398e019f0b49df1a4fde98ee17ae345cb5f6b5e2c27f5033e8ce7"
          ],
          "data": "0x000000000000000000000000000000000000000000000000000000000000010c",
          "blockHash": "0x62b2834f444e569900dfc2d084f2ce52994cfbbb305ff065a847a14fc9b4207f",
          "blockNumber": "0x75071b",
          "transactionHash": "0xc3061fcb3e60239e30c15501b7faa60c749330493f8dcb5b8c4b8dd9e88aa629",
          "transactionIndex": "0x9",
          "logIndex": "0x11",
          "removed": false
        }
      ],
      "logsBloom": "0x00000000000000000001000000000000000000020000000000000000000000000000000000000000000000000000000000000000000000000000000000000000000000000000000000000008040000000000000000000000000000000000000000000000020000000000000000000800002000000000800000000010000000000000000000000000001000000000000000000000000000000000000000000000020000000000000000000000000000002000000000004000000000000000008000000002000000000000000000000000000000000000000000000000000020000000000000000000200000000000000000000000100000000000000000000000",
      "type": "0x2",
      "transactionHash": "0xc3061fcb3e60239e30c15501b7faa60c749330493f8dcb5b8c4b8dd9e88aa629",
      "transactionIndex": "0x9",
      "blockHash": "0x62b2834f444e569900dfc2d084f2ce52994cfbbb305ff065a847a14fc9b4207f",
      "blockNumber": "0x75071b",
      "gasUsed": "0x2ccb8",
      "effectiveGasPrice": "0xfd",
      "from": "0xcda2fdb452ff4f5d7ba1c3d5dfcc9cb926a5eb7d",
      "to": "0x79dfbed14077b8f2421eece5707a17b161094e6a",
      "contractAddress": null,
      "l1BaseFeeScalar": "0x186a0",
      "l1BlobBaseFee": "0x1",
      "l1BlobBaseFeeScalar": "0x95506",
      "l1Fee": "0x97f92001fd",
      "l1GasPrice": "0xf3283336",
      "l1GasUsed": "0x640"
    },
    {
      "status": "0x1",
      "cumulativeGasUsed": "0x1caa6f",
      "logs": [
        {
          "address": "0x2e8af9c5922623058aa92a183b391e62cb6b2d12",
          "topics": [
            "0xddf252ad1be2c89b69c2b068fc378daa952ba7f163c4a11628f55a4df523b3ef",
            "0x0000000000000000000000000000000000000000000000000000000000000000",
            "0x000000000000000000000000cda2fdb452ff4f5d7ba1c3d5dfcc9cb926a5eb7d",
            "0x000000000000000000000000000000000000000000000000000000000000010d"
          ],
          "data": "0x",
          "blockHash": "0x62b2834f444e569900dfc2d084f2ce52994cfbbb305ff065a847a14fc9b4207f",
          "blockNumber": "0x75071b",
          "transactionHash": "0x196754a9402a7c330eec52f7aa08799896aa07fa674e5faf1b364bb07a88cb31",
          "transactionIndex": "0xa",
          "logIndex": "0x12",
          "removed": false
        },
        {
          "address": "0x2e8af9c5922623058aa92a183b391e62cb6b2d12",
          "topics": [
            "0xf8e1a15aba9398e019f0b49df1a4fde98ee17ae345cb5f6b5e2c27f5033e8ce7"
          ],
          "data": "0x000000000000000000000000000000000000000000000000000000000000010d",
          "blockHash": "0x62b2834f444e569900dfc2d084f2ce52994cfbbb305ff065a847a14fc9b4207f",
          "blockNumber": "0x75071b",
          "transactionHash": "0x196754a9402a7c330eec52f7aa08799896aa07fa674e5faf1b364bb07a88cb31",
          "transactionIndex": "0xa",
          "logIndex": "0x13",
          "removed": false
        }
      ],
      "logsBloom": "0x00000000000000000000000000000000000000020000000000000000000000000000000000000000000000000000000000000000000000000000000000000000000000000000000000000008040000000000000000000000000000000000000000000000020000000000000000000800002000000000800000000010000000000000000000000000000000000000000020000000000000000000000000000000000000000000000000000800000000002000000000004000000000000000008000000002000000000000000000000000000000000000000000000000080020000000000000000000200000000000000000000000100000000000000000000000",
      "type": "0x2",
      "transactionHash": "0x196754a9402a7c330eec52f7aa08799896aa07fa674e5faf1b364bb07a88cb31",
      "transactionIndex": "0xa",
      "blockHash": "0x62b2834f444e569900dfc2d084f2ce52994cfbbb305ff065a847a14fc9b4207f",
      "blockNumber": "0x75071b",
      "gasUsed": "0x2ccb8",
      "effectiveGasPrice": "0xfd",
      "from": "0xcda2fdb452ff4f5d7ba1c3d5dfcc9cb926a5eb7d",
      "to": "0x79dfbed14077b8f2421eece5707a17b161094e6a",
      "contractAddress": null,
      "l1BaseFeeScalar": "0x186a0",
      "l1BlobBaseFee": "0x1",
      "l1BlobBaseFeeScalar": "0x95506",
      "l1Fee": "0x97f92001fd",
      "l1GasPrice": "0xf3283336",
      "l1GasUsed": "0x640"
    },
    {
      "status": "0x1",
      "cumulativeGasUsed": "0x1f7727",
      "logs": [
        {
          "address": "0x2e8af9c5922623058aa92a183b391e62cb6b2d12",
          "topics": [
            "0xddf252ad1be2c89b69c2b068fc378daa952ba7f163c4a11628f55a4df523b3ef",
            "0x0000000000000000000000000000000000000000000000000000000000000000",
            "0x000000000000000000000000cda2fdb452ff4f5d7ba1c3d5dfcc9cb926a5eb7d",
            "0x000000000000000000000000000000000000000000000000000000000000010e"
          ],
          "data": "0x",
          "blockHash": "0x62b2834f444e569900dfc2d084f2ce52994cfbbb305ff065a847a14fc9b4207f",
          "blockNumber": "0x75071b",
          "transactionHash": "0x2f29553b096d6f0dfb093c6ced86ec89d6bb9e9f794077a5f8f117443bd5c674",
          "transactionIndex": "0xb",
          "logIndex": "0x14",
          "removed": false
        },
        {
          "address": "0x2e8af9c5922623058aa92a183b391e62cb6b2d12",
          "topics": [
            "0xf8e1a15aba9398e019f0b49df1a4fde98ee17ae345cb5f6b5e2c27f5033e8ce7"
          ],
          "data": "0x000000000000000000000000000000000000000000000000000000000000010e",
          "blockHash": "0x62b2834f444e569900dfc2d084f2ce52994cfbbb305ff065a847a14fc9b4207f",
          "blockNumber": "0x75071b",
          "transactionHash": "0x2f29553b096d6f0dfb093c6ced86ec89d6bb9e9f794077a5f8f117443bd5c674",
          "transactionIndex": "0xb",
          "logIndex": "0x15",
          "removed": false
        }
      ],
      "logsBloom": "0x00000000000000000000000000000020000000020000000000000000000000000000000000000000000000000000000000000000000000000000000000000000000000000000000000000008040000000000000000000000000000000000000000000000020000000000000000000800002800000000800000000010000000000000000000000000000000000000000000000000000000000000000000000000000000000000000000000000000000002000000000004000000020000000008000000002000000000000000000000000000000000000000000000000000020000000000000000000200000000000000000000000100000000000000000000000",
      "type": "0x2",
      "transactionHash": "0x2f29553b096d6f0dfb093c6ced86ec89d6bb9e9f794077a5f8f117443bd5c674",
      "transactionIndex": "0xb",
      "blockHash": "0x62b2834f444e569900dfc2d084f2ce52994cfbbb305ff065a847a14fc9b4207f",
      "blockNumber": "0x75071b",
      "gasUsed": "0x2ccb8",
      "effectiveGasPrice": "0xfd",
      "from": "0xcda2fdb452ff4f5d7ba1c3d5dfcc9cb926a5eb7d",
      "to": "0x79dfbed14077b8f2421eece5707a17b161094e6a",
      "contractAddress": null,
      "l1BaseFeeScalar": "0x186a0",
      "l1BlobBaseFee": "0x1",
      "l1BlobBaseFeeScalar": "0x95506",
      "l1Fee": "0x97f92001fd",
      "l1GasPrice": "0xf3283336",
      "l1GasUsed": "0x640"
    },
    {
      "status": "0x1",
      "cumulativeGasUsed": "0x2243df",
      "logs": [
        {
          "address": "0x2e8af9c5922623058aa92a183b391e62cb6b2d12",
          "topics": [
            "0xddf252ad1be2c89b69c2b068fc378daa952ba7f163c4a11628f55a4df523b3ef",
            "0x0000000000000000000000000000000000000000000000000000000000000000",
            "0x000000000000000000000000cda2fdb452ff4f5d7ba1c3d5dfcc9cb926a5eb7d",
            "0x000000000000000000000000000000000000000000000000000000000000010f"
          ],
          "data": "0x",
          "blockHash": "0x62b2834f444e569900dfc2d084f2ce52994cfbbb305ff065a847a14fc9b4207f",
          "blockNumber": "0x75071b",
          "transactionHash": "0xb3c18054e5cc6bd45fadd54ae2452c947c79dd8921230cba759e0606b8229898",
          "transactionIndex": "0xc",
          "logIndex": "0x16",
          "removed": false
        },
        {
          "address": "0x2e8af9c5922623058aa92a183b391e62cb6b2d12",
          "topics": [
            "0xf8e1a15aba9398e019f0b49df1a4fde98ee17ae345cb5f6b5e2c27f5033e8ce7"
          ],
          "data": "0x000000000000000000000000000000000000000000000000000000000000010f",
          "blockHash": "0x62b2834f444e569900dfc2d084f2ce52994cfbbb305ff065a847a14fc9b4207f",
          "blockNumber": "0x75071b",
          "transactionHash": "0xb3c18054e5cc6bd45fadd54ae2452c947c79dd8921230cba759e0606b8229898",
          "transactionIndex": "0xc",
          "logIndex": "0x17",
          "removed": false
        }
      ],
      "logsBloom": "0x00000000000000000000000000008000000000020000000000000000000000000000000000000000000000000000000000000000000000000000000000000000000000000000000000000008040000000000000000000000000000000000000000000000020000000000000000000800002000000000800000000010000000000000000000000000000000000000000000000000000000000000000000000000000000000000000000000000000000002000000002004000000000000000008000000002000000004000000000000000000000000000000000000000000020000000000000000000200000000000000000000000100000000000000000000000",
      "type": "0x2",
      "transactionHash": "0xb3c18054e5cc6bd45fadd54ae2452c947c79dd8921230cba759e0606b8229898",
      "transactionIndex": "0xc",
      "blockHash": "0x62b2834f444e569900dfc2d084f2ce52994cfbbb305ff065a847a14fc9b4207f",
      "blockNumber": "0x75071b",
      "gasUsed": "0x2ccb8",
      "effectiveGasPrice": "0xfd",
      "from": "0xcda2fdb452ff4f5d7ba1c3d5dfcc9cb926a5eb7d",
      "to": "0x79dfbed14077b8f2421eece5707a17b161094e6a",
      "contractAddress": null,
      "l1BaseFeeScalar": "0x186a0",
      "l1BlobBaseFee": "0x1",
      "l1BlobBaseFeeScalar": "0x95506",
      "l1Fee": "0x97f92001fd",
      "l1GasPrice": "0xf3283336",
      "l1GasUsed": "0x640"
    },
    {
      "status": "0x1",
      "cumulativeGasUsed": "0x251097",
      "logs": [
        {
          "address": "0x2e8af9c5922623058aa92a183b391e62cb6b2d12",
          "topics": [
            "0xddf252ad1be2c89b69c2b068fc378daa952ba7f163c4a11628f55a4df523b3ef",
            "0x0000000000000000000000000000000000000000000000000000000000000000",
            "0x000000000000000000000000cda2fdb452ff4f5d7ba1c3d5dfcc9cb926a5eb7d",
            "0x0000000000000000000000000000000000000000000000000000000000000110"
          ],
          "data": "0x",
          "blockHash": "0x62b2834f444e569900dfc2d084f2ce52994cfbbb305ff065a847a14fc9b4207f",
          "blockNumber": "0x75071b",
          "transactionHash": "0x30f19ed2aab094533854d5c812e4de4efaa379cc3ce19e22bdca38bf3f0667f1",
          "transactionIndex": "0xd",
          "logIndex": "0x18",
          "removed": false
        },
        {
          "address": "0x2e8af9c5922623058aa92a183b391e62cb6b2d12",
          "topics": [
            "0xf8e1a15aba9398e019f0b49df1a4fde98ee17ae345cb5f6b5e2c27f5033e8ce7"
          ],
          "data": "0x0000000000000000000000000000000000000000000000000000000000000110",
          "blockHash": "0x62b2834f444e569900dfc2d084f2ce52994cfbbb305ff065a847a14fc9b4207f",
          "blockNumber": "0x75071b",
          "transactionHash": "0x30f19ed2aab094533854d5c812e4de4efaa379cc3ce19e22bdca38bf3f0667f1",
          "transactionIndex": "0xd",
          "logIndex": "0x19",
          "removed": false
        }
      ],
      "logsBloom": "0x00000000000000000000000000000000000000020000000000000000000000000000000000000000000000000000000000000000000000000000000000100000000000000000000000000008040000000000000000000000000000000000000000100000020000000000000000000800002000000000800000000010000000000000000000000000000000000000000000000000000000000000000000000000000000000000000000000000000000002000000000004000000000000000008000000002000000000000000000040000000000000000000000000000000020000000000000000000200000000000000000000000100000000000000000000000",
      "type": "0x2",
      "transactionHash": "0x30f19ed2aab094533854d5c812e4de4efaa379cc3ce19e22bdca38bf3f0667f1",
      "transactionIndex": "0xd",
      "blockHash": "0x62b2834f444e569900dfc2d084f2ce52994cfbbb305ff065a847a14fc9b4207f",
      "blockNumber": "0x75071b",
      "gasUsed": "0x2ccb8",
      "effectiveGasPrice": "0xfd",
      "from": "0xcda2fdb452ff4f5d7ba1c3d5dfcc9cb926a5eb7d",
      "to": "0x79dfbed14077b8f2421eece5707a17b161094e6a",
      "contractAddress": null,
      "l1BaseFeeScalar": "0x186a0",
      "l1BlobBaseFee": "0x1",
      "l1BlobBaseFeeScalar": "0x95506",
      "l1Fee": "0x97f92001fd",
      "l1GasPrice": "0xf3283336",
      "l1GasUsed": "0x640"
    },
    {
      "status": "0x1",
      "cumulativeGasUsed": "0x27dd4f",
      "logs": [
        {
          "address": "0x2e8af9c5922623058aa92a183b391e62cb6b2d12",
          "topics": [
            "0xddf252ad1be2c89b69c2b068fc378daa952ba7f163c4a11628f55a4df523b3ef",
            "0x0000000000000000000000000000000000000000000000000000000000000000",
            "0x000000000000000000000000cda2fdb452ff4f5d7ba1c3d5dfcc9cb926a5eb7d",
            "0x0000000000000000000000000000000000000000000000000000000000000111"
          ],
          "data": "0x",
          "blockHash": "0x62b2834f444e569900dfc2d084f2ce52994cfbbb305ff065a847a14fc9b4207f",
          "blockNumber": "0x75071b",
          "transactionHash": "0xcde7900d1d55de9e2ddac16d928648473077a99e27b20b5c27c361c3e0f0e20e",
          "transactionIndex": "0xe",
          "logIndex": "0x1a",
          "removed": false
        },
        {
          "address": "0x2e8af9c5922623058aa92a183b391e62cb6b2d12",
          "topics": [
            "0xf8e1a15aba9398e019f0b49df1a4fde98ee17ae345cb5f6b5e2c27f5033e8ce7"
          ],
          "data": "0x0000000000000000000000000000000000000000000000000000000000000111",
          "blockHash": "0x62b2834f444e569900dfc2d084f2ce52994cfbbb305ff065a847a14fc9b4207f",
          "blockNumber": "0x75071b",
          "transactionHash": "0xcde7900d1d55de9e2ddac16d928648473077a99e27b20b5c27c361c3e0f0e20e",
          "transactionIndex": "0xe",
          "logIndex": "0x1b",
          "removed": false
        }
      ],
      "logsBloom": "0x00000000000000000000000000000000000000020000000000000000000000000000000000000000000000000000000000100000000000000000000000000000000000000004000000000008040000000000000000000000000000000000000000000000020000000000000000000800002000000000800000000010000000000000000000000000000000000000000000000000000000000000000000000000000000000000000080000000000000002000000000004000000000000000008000000002000000000000000000000000000000000000000000000000000020000000000000000000200000000000000000000000100000000000000000000000",
      "type": "0x2",
      "transactionHash": "0xcde7900d1d55de9e2ddac16d928648473077a99e27b20b5c27c361c3e0f0e20e",
      "transactionIndex": "0xe",
      "blockHash": "0x62b2834f444e569900dfc2d084f2ce52994cfbbb305ff065a847a14fc9b4207f",
      "blockNumber": "0x75071b",
      "gasUsed": "0x2ccb8",
      "effectiveGasPrice": "0xfd",
      "from": "0xcda2fdb452ff4f5d7ba1c3d5dfcc9cb926a5eb7d",
      "to": "0x79dfbed14077b8f2421eece5707a17b161094e6a",
      "contractAddress": null,
      "l1BaseFeeScalar": "0x186a0",
      "l1BlobBaseFee": "0x1",
      "l1BlobBaseFeeScalar": "0x95506",
      "l1Fee": "0x97f92001fd",
      "l1GasPrice": "0xf3283336",
      "l1GasUsed": "0x640"
    },
    {
      "status": "0x1",
      "cumulativeGasUsed": "0x2aaa07",
      "logs": [
        {
          "address": "0x2e8af9c5922623058aa92a183b391e62cb6b2d12",
          "topics": [
            "0xddf252ad1be2c89b69c2b068fc378daa952ba7f163c4a11628f55a4df523b3ef",
            "0x0000000000000000000000000000000000000000000000000000000000000000",
            "0x000000000000000000000000cda2fdb452ff4f5d7ba1c3d5dfcc9cb926a5eb7d",
            "0x0000000000000000000000000000000000000000000000000000000000000112"
          ],
          "data": "0x",
          "blockHash": "0x62b2834f444e569900dfc2d084f2ce52994cfbbb305ff065a847a14fc9b4207f",
          "blockNumber": "0x75071b",
          "transactionHash": "0x4f7732417837dd1f17df74bd8ba937b0fd11b5264fa8dc1b5ddfbcc6bd744a7a",
          "transactionIndex": "0xf",
          "logIndex": "0x1c",
          "removed": false
        },
        {
          "address": "0x2e8af9c5922623058aa92a183b391e62cb6b2d12",
          "topics": [
            "0xf8e1a15aba9398e019f0b49df1a4fde98ee17ae345cb5f6b5e2c27f5033e8ce7"
          ],
          "data": "0x0000000000000000000000000000000000000000000000000000000000000112",
          "blockHash": "0x62b2834f444e569900dfc2d084f2ce52994cfbbb305ff065a847a14fc9b4207f",
          "blockNumber": "0x75071b",
          "transactionHash": "0x4f7732417837dd1f17df74bd8ba937b0fd11b5264fa8dc1b5ddfbcc6bd744a7a",
          "transactionIndex": "0xf",
          "logIndex": "0x1d",
          "removed": false
        }
      ],
      "logsBloom": "0x00000000000000000000000000000000000000020000000000000000000000000000000000000000000000000000000000000000000000000000000000000000000000000000000000000008040000000000000000000000000000800000000000000000020000000000000000000800002000000000800000000010000000000000000000000000000000000000000000000000000000000000000000000000000000000000000000000000000000002000000000004000000000000000008000000002000000000000000000000000000000000000000000000000000020040000000000000000200000000000000000000000100000000000000000200000",
      "type": "0x2",
      "transactionHash": "0x4f7732417837dd1f17df74bd8ba937b0fd11b5264fa8dc1b5ddfbcc6bd744a7a",
      "transactionIndex": "0xf",
      "blockHash": "0x62b2834f444e569900dfc2d084f2ce52994cfbbb305ff065a847a14fc9b4207f",
      "blockNumber": "0x75071b",
      "gasUsed": "0x2ccb8",
      "effectiveGasPrice": "0xfd",
      "from": "0xcda2fdb452ff4f5d7ba1c3d5dfcc9cb926a5eb7d",
      "to": "0x79dfbed14077b8f2421eece5707a17b161094e6a",
      "contractAddress": null,
      "l1BaseFeeScalar": "0x186a0",
      "l1BlobBaseFee": "0x1",
      "l1BlobBaseFeeScalar": "0x95506",
      "l1Fee": "0x97f92001fd",
      "l1GasPrice": "0xf3283336",
      "l1GasUsed": "0x640"
    },
    {
      "status": "0x1",
      "cumulativeGasUsed": "0x2d76bf",
      "logs": [
        {
          "address": "0x2e8af9c5922623058aa92a183b391e62cb6b2d12",
          "topics": [
            "0xddf252ad1be2c89b69c2b068fc378daa952ba7f163c4a11628f55a4df523b3ef",
            "0x0000000000000000000000000000000000000000000000000000000000000000",
            "0x000000000000000000000000cda2fdb452ff4f5d7ba1c3d5dfcc9cb926a5eb7d",
            "0x0000000000000000000000000000000000000000000000000000000000000113"
          ],
          "data": "0x",
          "blockHash": "0x62b2834f444e569900dfc2d084f2ce52994cfbbb305ff065a847a14fc9b4207f",
          "blockNumber": "0x75071b",
          "transactionHash": "0xa69c4750708df367207a59ed8f7ae2ae3a40eb763a104337cff7b2546dfc1664",
          "transactionIndex": "0x10",
          "logIndex": "0x1e",
          "removed": false
        },
        {
          "address": "0x2e8af9c5922623058aa92a183b391e62cb6b2d12",
          "topics": [
            "0xf8e1a15aba9398e019f0b49df1a4fde98ee17ae345cb5f6b5e2c27f5033e8ce7"
          ],
          "data": "0x0000000000000000000000000000000000000000000000000000000000000113",
          "blockHash": "0x62b2834f444e569900dfc2d084f2ce52994cfbbb305ff065a847a14fc9b4207f",
          "blockNumber": "0x75071b",
          "transactionHash": "0xa69c4750708df367207a59ed8f7ae2ae3a40eb763a104337cff7b2546dfc1664",
          "transactionIndex": "0x10",
          "logIndex": "0x1f",
          "removed": false
        }
      ],
      "logsBloom": "0x00000000000000000000000000000000010000020000000000000000000000000000000000000000000000000000000000000000000000000000000000000000000000000000000000000008040000000000000000000000000000000000000000000000020000000000000000004800002000000000800000000010000000000000000000000000000000000000000000000000000000000000000000000000010000000000000000000000000000002000000000004000000000000000008000000002000000000000000000000000000000000000000000000000000020000000000000000000200000000000000000000000100000000000000000000000",
      "type": "0x2",
      "transactionHash": "0xa69c4750708df367207a59ed8f7ae2ae3a40eb763a104337cff7b2546dfc1664",
      "transactionIndex": "0x10",
      "blockHash": "0x62b2834f444e569900dfc2d084f2ce52994cfbbb305ff065a847a14fc9b4207f",
      "blockNumber": "0x75071b",
      "gasUsed": "0x2ccb8",
      "effectiveGasPrice": "0xfd",
      "from": "0xcda2fdb452ff4f5d7ba1c3d5dfcc9cb926a5eb7d",
      "to": "0x79dfbed14077b8f2421eece5707a17b161094e6a",
      "contractAddress": null,
      "l1BaseFeeScalar": "0x186a0",
      "l1BlobBaseFee": "0x1",
      "l1BlobBaseFeeScalar": "0x95506",
      "l1Fee": "0x97f92001fd",
      "l1GasPrice": "0xf3283336",
      "l1GasUsed": "0x640"
    },
    {
      "status": "0x1",
      "cumulativeGasUsed": "0x304377",
      "logs": [
        {
          "address": "0x2e8af9c5922623058aa92a183b391e62cb6b2d12",
          "topics": [
            "0xddf252ad1be2c89b69c2b068fc378daa952ba7f163c4a11628f55a4df523b3ef",
            "0x0000000000000000000000000000000000000000000000000000000000000000",
            "0x000000000000000000000000cda2fdb452ff4f5d7ba1c3d5dfcc9cb926a5eb7d",
            "0x0000000000000000000000000000000000000000000000000000000000000114"
          ],
          "data": "0x",
          "blockHash": "0x62b2834f444e569900dfc2d084f2ce52994cfbbb305ff065a847a14fc9b4207f",
          "blockNumber": "0x75071b",
          "transactionHash": "0x2275f49a26feb64a9b57263fc8712b52b77fff8aaadd8126be4af1973a560aaa",
          "transactionIndex": "0x11",
          "logIndex": "0x20",
          "removed": false
        },
        {
          "address": "0x2e8af9c5922623058aa92a183b391e62cb6b2d12",
          "topics": [
            "0xf8e1a15aba9398e019f0b49df1a4fde98ee17ae345cb5f6b5e2c27f5033e8ce7"
          ],
          "data": "0x0000000000000000000000000000000000000000000000000000000000000114",
          "blockHash": "0x62b2834f444e569900dfc2d084f2ce52994cfbbb305ff065a847a14fc9b4207f",
          "blockNumber": "0x75071b",
          "transactionHash": "0x2275f49a26feb64a9b57263fc8712b52b77fff8aaadd8126be4af1973a560aaa",
          "transactionIndex": "0x11",
          "logIndex": "0x21",
          "removed": false
        }
      ],
      "logsBloom": "0x0000000000000000000000000000000000000002000000000000000000000000000000000000000000100000000000000000000000000000000000000000000000000000000000000000000804000000000000000000000000000000000000000000000002000000000000000000080000200000000080000000001000000000000000000000100000000000000000000000000000000000000000000000000000000000000000000000000000000000a000000000004000000000000000008000000002000000000000000000000000000000000000000000000000000020000000000000000000200000000000000000000000100000000000000000000000",
      "type": "0x2",
      "transactionHash": "0x2275f49a26feb64a9b57263fc8712b52b77fff8aaadd8126be4af1973a560aaa",
      "transactionIndex": "0x11",
      "blockHash": "0x62b2834f444e569900dfc2d084f2ce52994cfbbb305ff065a847a14fc9b4207f",
      "blockNumber": "0x75071b",
      "gasUsed": "0x2ccb8",
      "effectiveGasPrice": "0xfd",
      "from": "0xcda2fdb452ff4f5d7ba1c3d5dfcc9cb926a5eb7d",
      "to": "0x79dfbed14077b8f2421eece5707a17b161094e6a",
      "contractAddress": null,
      "l1BaseFeeScalar": "0x186a0",
      "l1BlobBaseFee": "0x1",
      "l1BlobBaseFeeScalar": "0x95506",
      "l1Fee": "0x97f92001fd",
      "l1GasPrice": "0xf3283336",
      "l1GasUsed": "0x640"
    },
    {
      "status": "0x1",
      "cumulativeGasUsed": "0x58be5",
      "logs": [
        {
          "address": "0x2e8af9c5922623058aa92a183b391e62cb6b2d12",
          "topics": [
            "0xddf252ad1be2c89b69c2b068fc378daa952ba7f163c4a11628f55a4df523b3ef",
            "0x0000000000000000000000000000000000000000000000000000000000000000",
            "0x000000000000000000000000cda2fdb452ff4f5d7ba1c3d5dfcc9cb926a5eb7d",
            "0x0000000000000000000000000000000000000000000000000000000000000115"
          ],
          "data": "0x",
          "blockHash": "0xeac8ae3314d71849f1873a261613cbb170ac701bceb716ec6c524aa965a2e478",
          "blockNumber": "0x75071c",
          "transactionHash": "0x0ed2b3dc548a61324769786034d6e19a3e9cca78bcb93f54252fdf6ef1636d6e",
          "transactionIndex": "0x2",
          "logIndex": "0x3",
          "removed": false
        },
        {
          "address": "0x2e8af9c5922623058aa92a183b391e62cb6b2d12",
          "topics": [
            "0xf8e1a15aba9398e019f0b49df1a4fde98ee17ae345cb5f6b5e2c27f5033e8ce7"
          ],
          "data": "0x0000000000000000000000000000000000000000000000000000000000000115",
          "blockHash": "0xeac8ae3314d71849f1873a261613cbb170ac701bceb716ec6c524aa965a2e478",
          "blockNumber": "0x75071c",
          "transactionHash": "0x0ed2b3dc548a61324769786034d6e19a3e9cca78bcb93f54252fdf6ef1636d6e",
          "transactionIndex": "0x2",
          "logIndex": "0x4",
          "removed": false
        }
      ],
      "logsBloom": "0x00000000000000000000000000000100000000020000000000000000000000000000010000000000000000000000000000000000000000000000000000000000000000000000000000000008040000000000000000000000000000000000000000000000020000000000000000000800002000000000800000000010000000000000000000000000000000010000000000000000000000000000000000000000000000000000000000000000000000002000000000004000000000000000008000000002000000000000000000000000000000000000000000000000000020000000000000000000200000000000000000000000100000000000000000000000",
      "type": "0x2",
      "transactionHash": "0x0ed2b3dc548a61324769786034d6e19a3e9cca78bcb93f54252fdf6ef1636d6e",
      "transactionIndex": "0x2",
      "blockHash": "0xeac8ae3314d71849f1873a261613cbb170ac701bceb716ec6c524aa965a2e478",
      "blockNumber": "0x75071c",
      "gasUsed": "0x2ccb8",
      "effectiveGasPrice": "0xfd",
      "from": "0xcda2fdb452ff4f5d7ba1c3d5dfcc9cb926a5eb7d",
      "to": "0x79dfbed14077b8f2421eece5707a17b161094e6a",
      "contractAddress": null,
      "l1BaseFeeScalar": "0x186a0",
      "l1BlobBaseFee": "0x1",
      "l1BlobBaseFeeScalar": "0x95506",
      "l1Fee": "0x97f92001fd",
      "l1GasPrice": "0xf3283336",
      "l1GasUsed": "0x640"
    },
    {
      "status": "0x1",
      "cumulativeGasUsed": "0x8589d",
      "logs": [
        {
          "address": "0x2e8af9c5922623058aa92a183b391e62cb6b2d12",
          "topics": [
            "0xddf252ad1be2c89b69c2b068fc378daa952ba7f163c4a11628f55a4df523b3ef",
            "0x0000000000000000000000000000000000000000000000000000000000000000",
            "0x000000000000000000000000cda2fdb452ff4f5d7ba1c3d5dfcc9cb926a5eb7d",
            "0x0000000000000000000000000000000000000000000000000000000000000116"
          ],
          "data": "0x",
          "blockHash": "0xeac8ae3314d71849f1873a261613cbb170ac701bceb716ec6c524aa965a2e478",
          "blockNumber": "0x75071c",
          "transactionHash": "0x6dedc64d51f4edd29a5f24021f5249c6afbb9a367f2d7f7e6bd140c48d7b6864",
          "transactionIndex": "0x3",
          "logIndex": "0x5",
          "removed": false
        },
        {
          "address": "0x2e8af9c5922623058aa92a183b391e62cb6b2d12",
          "topics": [
            "0xf8e1a15aba9398e019f0b49df1a4fde98ee17ae345cb5f6b5e2c27f5033e8ce7"
          ],
          "data": "0x0000000000000000000000000000000000000000000000000000000000000116",
          "blockHash": "0xeac8ae3314d71849f1873a261613cbb170ac701bceb716ec6c524aa965a2e478",
          "blockNumber": "0x75071c",
          "transactionHash": "0x6dedc64d51f4edd29a5f24021f5249c6afbb9a367f2d7f7e6bd140c48d7b6864",
          "transactionIndex": "0x3",
          "logIndex": "0x6",
          "removed": false
        }
      ],
      "logsBloom": "0x00000000000000000000000000000000000000020100000000000000000000000000000000000000000000000000000000000000000000000000000000000000000000000000000000000008040000000000000000000000000000000000000000000000020000000000000000000800002000000000800000000010000000008000000000000000000000000000000000000000000000000000000000000000000000000000000000000000000000002000000000004000000000000000008000000002000000000000000000000000000000000000000000000000000020000000000000000000200000000000000000000000100004000000000000000000",
      "type": "0x2",
      "transactionHash": "0x6dedc64d51f4edd29a5f24021f5249c6afbb9a367f2d7f7e6bd140c48d7b6864",
      "transactionIndex": "0x3",
      "blockHash": "0xeac8ae3314d71849f1873a261613cbb170ac701bceb716ec6c524aa965a2e478",
      "blockNumber": "0x75071c",
      "gasUsed": "0x2ccb8",
      "effectiveGasPrice": "0xfd",
      "from": "0xcda2fdb452ff4f5d7ba1c3d5dfcc9cb926a5eb7d",
      "to": "0x79dfbed14077b8f2421eece5707a17b161094e6a",
      "contractAddress": null,
      "l1BaseFeeScalar": "0x186a0",
      "l1BlobBaseFee": "0x1",
      "l1BlobBaseFeeScalar": "0x95506",
      "l1Fee": "0x97f92001fd",
      "l1GasPrice": "0xf3283336",
      "l1GasUsed": "0x640"
    },
    {
      "status": "0x1",
      "cumulativeGasUsed": "0xb2555",
      "logs": [
        {
          "address": "0x2e8af9c5922623058aa92a183b391e62cb6b2d12",
          "topics": [
            "0xddf252ad1be2c89b69c2b068fc378daa952ba7f163c4a11628f55a4df523b3ef",
            "0x0000000000000000000000000000000000000000000000000000000000000000",
            "0x000000000000000000000000cda2fdb452ff4f5d7ba1c3d5dfcc9cb926a5eb7d",
            "0x0000000000000000000000000000000000000000000000000000000000000117"
          ],
          "data": "0x",
          "blockHash": "0xeac8ae3314d71849f1873a261613cbb170ac701bceb716ec6c524aa965a2e478",
          "blockNumber": "0x75071c",
          "transactionHash": "0xd8671533b35feb5048585cf0a2c1a13f337969fe2231f57730b21bbc04087bb1",
          "transactionIndex": "0x4",
          "logIndex": "0x7",
          "removed": false
        },
        {
          "address": "0x2e8af9c5922623058aa92a183b391e62cb6b2d12",
          "topics": [
            "0xf8e1a15aba9398e019f0b49df1a4fde98ee17ae345cb5f6b5e2c27f5033e8ce7"
          ],
          "data": "0x0000000000000000000000000000000000000000000000000000000000000117",
          "blockHash": "0xeac8ae3314d71849f1873a261613cbb170ac701bceb716ec6c524aa965a2e478",
          "blockNumber": "0x75071c",
          "transactionHash": "0xd8671533b35feb5048585cf0a2c1a13f337969fe2231f57730b21bbc04087bb1",
          "transactionIndex": "0x4",
          "logIndex": "0x8",
          "removed": false
        }
      ],
      "logsBloom": "0x00000000000000000000000000000000000000020000000000000000000000000000000000000100000000000000000000000000000000000000000000000000001000000000000000000008040000000000000000000000000000000000000000000000020000000000000000000800002000000000800000000010000000008000000000000000000000000000000000000000000000000000000000000000000000000000000000000000000000002000000000004000000000000000008000000002000000000000000000000000000000000000000000000000000020000000000000000000200000000000000000000000100000000000000000000000",
      "type": "0x2",
      "transactionHash": "0xd8671533b35feb5048585cf0a2c1a13f337969fe2231f57730b21bbc04087bb1",
      "transactionIndex": "0x4",
      "blockHash": "0xeac8ae3314d71849f1873a261613cbb170ac701bceb716ec6c524aa965a2e478",
      "blockNumber": "0x75071c",
      "gasUsed": "0x2ccb8",
      "effectiveGasPrice": "0xfd",
      "from": "0xcda2fdb452ff4f5d7ba1c3d5dfcc9cb926a5eb7d",
      "to": "0x79dfbed14077b8f2421eece5707a17b161094e6a",
      "contractAddress": null,
      "l1BaseFeeScalar": "0x186a0",
      "l1BlobBaseFee": "0x1",
      "l1BlobBaseFeeScalar": "0x95506",
      "l1Fee": "0x97f92001fd",
      "l1GasPrice": "0xf3283336",
      "l1GasUsed": "0x640"
    },
    {
      "status": "0x1",
      "cumulativeGasUsed": "0xdf20d",
      "logs": [
        {
          "address": "0x2e8af9c5922623058aa92a183b391e62cb6b2d12",
          "topics": [
            "0xddf252ad1be2c89b69c2b068fc378daa952ba7f163c4a11628f55a4df523b3ef",
            "0x0000000000000000000000000000000000000000000000000000000000000000",
            "0x000000000000000000000000cda2fdb452ff4f5d7ba1c3d5dfcc9cb926a5eb7d",
            "0x0000000000000000000000000000000000000000000000000000000000000118"
          ],
          "data": "0x",
          "blockHash": "0xeac8ae3314d71849f1873a261613cbb170ac701bceb716ec6c524aa965a2e478",
          "blockNumber": "0x75071c",
          "transactionHash": "0xe1a4965eecd3f73e7566c4822cf91da721019b473f7724d2278bf185a9b0df0e",
          "transactionIndex": "0x5",
          "logIndex": "0x9",
          "removed": false
        },
        {
          "address": "0x2e8af9c5922623058aa92a183b391e62cb6b2d12",
          "topics": [
            "0xf8e1a15aba9398e019f0b49df1a4fde98ee17ae345cb5f6b5e2c27f5033e8ce7"
          ],
          "data": "0x0000000000000000000000000000000000000000000000000000000000000118",
          "blockHash": "0xeac8ae3314d71849f1873a261613cbb170ac701bceb716ec6c524aa965a2e478",
          "blockNumber": "0x75071c",
          "transactionHash": "0xe1a4965eecd3f73e7566c4822cf91da721019b473f7724d2278bf185a9b0df0e",
          "transactionIndex": "0x5",
          "logIndex": "0xa",
          "removed": false
        }
      ],
      "logsBloom": "0x00000000000010000000000000000000000000020000000000000000000000000000000000000000000400000000000000000000000000000000000000000000000000000000000000000008040000000000000000000000000000000000000000000000020000000000000000000800002000000000800000000010000000000000000000000000000000000000000000000000000000000000000000000000000000000000000000000000000000002000000000004000000000000000008000000002000000000000000000000000000000000000000000000000000020000000008000000000200000000000000000000000100000000000000000000000",
      "type": "0x2",
      "transactionHash": "0xe1a4965eecd3f73e7566c4822cf91da721019b473f7724d2278bf185a9b0df0e",
      "transactionIndex": "0x5",
      "blockHash": "0xeac8ae3314d71849f1873a261613cbb170ac701bceb716ec6c524aa965a2e478",
      "blockNumber": "0x75071c",
      "gasUsed": "0x2ccb8",
      "effectiveGasPrice": "0xfd",
      "from": "0xcda2fdb452ff4f5d7ba1c3d5dfcc9cb926a5eb7d",
      "to": "0x79dfbed14077b8f2421eece5707a17b161094e6a",
      "contractAddress": null,
      "l1BaseFeeScalar": "0x186a0",
      "l1BlobBaseFee": "0x1",
      "l1BlobBaseFeeScalar": "0x95506",
      "l1Fee": "0x97f92001fd",
      "l1GasPrice": "0xf3283336",
      "l1GasUsed": "0x640"
    },
    {
      "status": "0x1",
      "cumulativeGasUsed": "0x10bec5",
      "logs": [
        {
          "address": "0x2e8af9c5922623058aa92a183b391e62cb6b2d12",
          "topics": [
            "0xddf252ad1be2c89b69c2b068fc378daa952ba7f163c4a11628f55a4df523b3ef",
            "0x0000000000000000000000000000000000000000000000000000000000000000",
            "0x000000000000000000000000cda2fdb452ff4f5d7ba1c3d5dfcc9cb926a5eb7d",
            "0x0000000000000000000000000000000000000000000000000000000000000119"
          ],
          "data": "0x",
          "blockHash": "0xeac8ae3314d71849f1873a261613cbb170ac701bceb716ec6c524aa965a2e478",
          "blockNumber": "0x75071c",
          "transactionHash": "0x54013f41b3c068d4d720aa27c0fa4e7091d7e91f18311f6fee1c56f594dce731",
          "transactionIndex": "0x6",
          "logIndex": "0xb",
          "removed": false
        },
        {
          "address": "0x2e8af9c5922623058aa92a183b391e62cb6b2d12",
          "topics": [
            "0xf8e1a15aba9398e019f0b49df1a4fde98ee17ae345cb5f6b5e2c27f5033e8ce7"
          ],
          "data": "0x0000000000000000000000000000000000000000000000000000000000000119",
          "blockHash": "0xeac8ae3314d71849f1873a261613cbb170ac701bceb716ec6c524aa965a2e478",
          "blockNumber": "0x75071c",
          "transactionHash": "0x54013f41b3c068d4d720aa27c0fa4e7091d7e91f18311f6fee1c56f594dce731",
          "transactionIndex": "0x6",
          "logIndex": "0xc",
          "removed": false
        }
      ],
      "logsBloom": "0x00000000000000000000000000000000000000020000000000000000000000000000000000000000000000000000000000000000000000000000000000000000000000000000000000000008040000000000000000000000000000000000000000000000020000000000000000000800002000000000800000000010000000000000000000000000000000000000000000000000000000000000000000000000000000000000000000000000000000002000000000804000000000001000008000000002000000000000000000000000000000000000000000000020000020000000000000000000200000000000000000000000100000000000000000000000",
      "type": "0x2",
      "transactionHash": "0x54013f41b3c068d4d720aa27c0fa4e7091d7e91f18311f6fee1c56f594dce731",
      "transactionIndex": "0x6",
      "blockHash": "0xeac8ae3314d71849f1873a261613cbb170ac701bceb716ec6c524aa965a2e478",
      "blockNumber": "0x75071c",
      "gasUsed": "0x2ccb8",
      "effectiveGasPrice": "0xfd",
      "from": "0xcda2fdb452ff4f5d7ba1c3d5dfcc9cb926a5eb7d",
      "to": "0x79dfbed14077b8f2421eece5707a17b161094e6a",
      "contractAddress": null,
      "l1BaseFeeScalar": "0x186a0",
      "l1BlobBaseFee": "0x1",
      "l1BlobBaseFeeScalar": "0x95506",
      "l1Fee": "0x97f92001fd",
      "l1GasPrice": "0xf3283336",
      "l1GasUsed": "0x640"
    },
    {
      "status": "0x1",
      "cumulativeGasUsed": "0x138b7d",
      "logs": [
        {
          "address": "0x2e8af9c5922623058aa92a183b391e62cb6b2d12",
          "topics": [
            "0xddf252ad1be2c89b69c2b068fc378daa952ba7f163c4a11628f55a4df523b3ef",
            "0x0000000000000000000000000000000000000000000000000000000000000000",
            "0x000000000000000000000000cda2fdb452ff4f5d7ba1c3d5dfcc9cb926a5eb7d",
            "0x000000000000000000000000000000000000000000000000000000000000011a"
          ],
          "data": "0x",
          "blockHash": "0xeac8ae3314d71849f1873a261613cbb170ac701bceb716ec6c524aa965a2e478",
          "blockNumber": "0x75071c",
          "transactionHash": "0x499979c5eb9b1e142372e0282c84f0fed770f488954b1f9f94aa2c7ee155ae0f",
          "transactionIndex": "0x7",
          "logIndex": "0xd",
          "removed": false
        },
        {
          "address": "0x2e8af9c5922623058aa92a183b391e62cb6b2d12",
          "topics": [
            "0xf8e1a15aba9398e019f0b49df1a4fde98ee17ae345cb5f6b5e2c27f5033e8ce7"
          ],
          "data": "0x000000000000000000000000000000000000000000000000000000000000011a",
          "blockHash": "0xeac8ae3314d71849f1873a261613cbb170ac701bceb716ec6c524aa965a2e478",
          "blockNumber": "0x75071c",
          "transactionHash": "0x499979c5eb9b1e142372e0282c84f0fed770f488954b1f9f94aa2c7ee155ae0f",
          "transactionIndex": "0x7",
          "logIndex": "0xe",
          "removed": false
        }
      ],
      "logsBloom": "0x00000000000002000000000000000000000000020000000000000000000000000000000000000000000000000000000000000000000000000040000000000000000000000000000000000008040000000000000000000000000000000000000000000000020000000000000000000800002000000000800000000010000000000000000000000000000000000000000000000000000000000000000000000000000000000000000000000000000000002000000000004000000000000000008000000002000000000000000000000000000000000000000080000000000020000000000000000000200000000000000000000000100000000000000000000000",
      "type": "0x2",
      "transactionHash": "0x499979c5eb9b1e142372e0282c84f0fed770f488954b1f9f94aa2c7ee155ae0f",
      "transactionIndex": "0x7",
      "blockHash": "0xeac8ae3314d71849f1873a261613cbb170ac701bceb716ec6c524aa965a2e478",
      "blockNumber": "0x75071c",
      "gasUsed": "0x2ccb8",
      "effectiveGasPrice": "0xfd",
      "from": "0xcda2fdb452ff4f5d7ba1c3d5dfcc9cb926a5eb7d",
      "to": "0x79dfbed14077b8f2421eece5707a17b161094e6a",
      "contractAddress": null,
      "l1BaseFeeScalar": "0x186a0",
      "l1BlobBaseFee": "0x1",
      "l1BlobBaseFeeScalar": "0x95506",
      "l1Fee": "0x97f92001fd",
      "l1GasPrice": "0xf3283336",
      "l1GasUsed": "0x640"
    },
    {
      "status": "0x1",
      "cumulativeGasUsed": "0x165835",
      "logs": [
        {
          "address": "0x2e8af9c5922623058aa92a183b391e62cb6b2d12",
          "topics": [
            "0xddf252ad1be2c89b69c2b068fc378daa952ba7f163c4a11628f55a4df523b3ef",
            "0x0000000000000000000000000000000000000000000000000000000000000000",
            "0x000000000000000000000000cda2fdb452ff4f5d7ba1c3d5dfcc9cb926a5eb7d",
            "0x000000000000000000000000000000000000000000000000000000000000011b"
          ],
          "data": "0x",
          "blockHash": "0xeac8ae3314d71849f1873a261613cbb170ac701bceb716ec6c524aa965a2e478",
          "blockNumber": "0x75071c",
          "transactionHash": "0x63d65222e010299031dd8dc2e850cd45a0183577a1600ffaa8f8a43f4bf21fa1",
          "transactionIndex": "0x8",
          "logIndex": "0xf",
          "removed": false
        },
        {
          "address": "0x2e8af9c5922623058aa92a183b391e62cb6b2d12",
          "topics": [
            "0xf8e1a15aba9398e019f0b49df1a4fde98ee17ae345cb5f6b5e2c27f5033e8ce7"
          ],
          "data": "0x000000000000000000000000000000000000000000000000000000000000011b",
          "blockHash": "0xeac8ae3314d71849f1873a261613cbb170ac701bceb716ec6c524aa965a2e478",
          "blockNumber": "0x75071c",
          "transactionHash": "0x63d65222e010299031dd8dc2e850cd45a0183577a1600ffaa8f8a43f4bf21fa1",
          "transactionIndex": "0x8",
          "logIndex": "0x10",
          "removed": false
        }
      ],
      "logsBloom": "0x00000000000000000000000000000000000000020000000000000000000000000000000000000000000000000000000000000000000000000000000000000004000000000000000000000008040000000000000000000000000000000000000000000000020000000000000008000800002000000000800000000010000000000000000000000000000000000000000000000000000000000000000000000000000000000000000000000000000000102000000000004000000000000000008000000002000000000000000000000000000000000000000000000000000020000000000000000000200000000000000000000000100000000000000000000000",
      "type": "0x2",
      "transactionHash": "0x63d65222e010299031dd8dc2e850cd45a0183577a1600ffaa8f8a43f4bf21fa1",
      "transactionIndex": "0x8",
      "blockHash": "0xeac8ae3314d71849f1873a261613cbb170ac701bceb716ec6c524aa965a2e478",
      "blockNumber": "0x75071c",
      "gasUsed": "0x2ccb8",
      "effectiveGasPrice": "0xfd",
      "from": "0xcda2fdb452ff4f5d7ba1c3d5dfcc9cb926a5eb7d",
      "to": "0x79dfbed14077b8f2421eece5707a17b161094e6a",
      "contractAddress": null,
      "l1BaseFeeScalar": "0x186a0",
      "l1BlobBaseFee": "0x1",
      "l1BlobBaseFeeScalar": "0x95506",
      "l1Fee": "0x97f92001fd",
      "l1GasPrice": "0xf3283336",
      "l1GasUsed": "0x640"
    },
    {
      "status": "0x1",
      "cumulativeGasUsed": "0x1924ed",
      "logs": [
        {
          "address": "0x2e8af9c5922623058aa92a183b391e62cb6b2d12",
          "topics": [
            "0xddf252ad1be2c89b69c2b068fc378daa952ba7f163c4a11628f55a4df523b3ef",
            "0x0000000000000000000000000000000000000000000000000000000000000000",
            "0x000000000000000000000000cda2fdb452ff4f5d7ba1c3d5dfcc9cb926a5eb7d",
            "0x000000000000000000000000000000000000000000000000000000000000011c"
          ],
          "data": "0x",
          "blockHash": "0xeac8ae3314d71849f1873a261613cbb170ac701bceb716ec6c524aa965a2e478",
          "blockNumber": "0x75071c",
          "transactionHash": "0x62aa74fb8a6491527591f7d3479a696bb870610e78e0c82aef2bda92e92525b9",
          "transactionIndex": "0x9",
          "logIndex": "0x11",
          "removed": false
        },
        {
          "address": "0x2e8af9c5922623058aa92a183b391e62cb6b2d12",
          "topics": [
            "0xf8e1a15aba9398e019f0b49df1a4fde98ee17ae345cb5f6b5e2c27f5033e8ce7"
          ],
          "data": "0x000000000000000000000000000000000000000000000000000000000000011c",
          "blockHash": "0xeac8ae3314d71849f1873a261613cbb170ac701bceb716ec6c524aa965a2e478",
          "blockNumber": "0x75071c",
          "transactionHash": "0x62aa74fb8a6491527591f7d3479a696bb870610e78e0c82aef2bda92e92525b9",
          "transactionIndex": "0x9",
          "logIndex": "0x12",
          "removed": false
        }
      ],
      "logsBloom": "0x00000000000000000000000000000000000000020000000000000000000000000000000000000000000000000000000000000000000000000000000000000000000000000100000000000008040000000000000000000000000000000000000000000000020000000000000000000800002000000000800000000010000000000000000000000000000000000000000000000000000000000000000000000000000000000000000000000000000000002000000000004020000200000000008000000002000000000000000000000000000000000000000000000000000020000000000000000000200000000000000000000000100000000000000000000000",
      "type": "0x2",
      "transactionHash": "0x62aa74fb8a6491527591f7d3479a696bb870610e78e0c82aef2bda92e92525b9",
      "transactionIndex": "0x9",
      "blockHash": "0xeac8ae3314d71849f1873a261613cbb170ac701bceb716ec6c524aa965a2e478",
      "blockNumber": "0x75071c",
      "gasUsed": "0x2ccb8",
      "effectiveGasPrice": "0xfd",
      "from": "0xcda2fdb452ff4f5d7ba1c3d5dfcc9cb926a5eb7d",
      "to": "0x79dfbed14077b8f2421eece5707a17b161094e6a",
      "contractAddress": null,
      "l1BaseFeeScalar": "0x186a0",
      "l1BlobBaseFee": "0x1",
      "l1BlobBaseFeeScalar": "0x95506",
      "l1Fee": "0x97f92001fd",
      "l1GasPrice": "0xf3283336",
      "l1GasUsed": "0x640"
    },
    {
      "status": "0x1",
      "cumulativeGasUsed": "0x1bf1a5",
      "logs": [
        {
          "address": "0x2e8af9c5922623058aa92a183b391e62cb6b2d12",
          "topics": [
            "0xddf252ad1be2c89b69c2b068fc378daa952ba7f163c4a11628f55a4df523b3ef",
            "0x0000000000000000000000000000000000000000000000000000000000000000",
            "0x000000000000000000000000cda2fdb452ff4f5d7ba1c3d5dfcc9cb926a5eb7d",
            "0x000000000000000000000000000000000000000000000000000000000000011d"
          ],
          "data": "0x",
          "blockHash": "0xeac8ae3314d71849f1873a261613cbb170ac701bceb716ec6c524aa965a2e478",
          "blockNumber": "0x75071c",
          "transactionHash": "0x131c8c592c7d31011c93e74a0593ca2cd3840577836d175bfb0f3a28fa6fc396",
          "transactionIndex": "0xa",
          "logIndex": "0x13",
          "removed": false
        },
        {
          "address": "0x2e8af9c5922623058aa92a183b391e62cb6b2d12",
          "topics": [
            "0xf8e1a15aba9398e019f0b49df1a4fde98ee17ae345cb5f6b5e2c27f5033e8ce7"
          ],
          "data": "0x000000000000000000000000000000000000000000000000000000000000011d",
          "blockHash": "0xeac8ae3314d71849f1873a261613cbb170ac701bceb716ec6c524aa965a2e478",
          "blockNumber": "0x75071c",
          "transactionHash": "0x131c8c592c7d31011c93e74a0593ca2cd3840577836d175bfb0f3a28fa6fc396",
          "transactionIndex": "0xa",
          "logIndex": "0x14",
          "removed": false
        }
      ],
      "logsBloom": "0x00000000000000000000000000000000000000020000000000000000000000000000000000000000000000000000000000000000000000000000000000000000000000000000000000000008040000000000000000000000000000000000000000000000020000000000000000000800002000000000800000000010010000000010000000000000000000000000000000000000000000000000000000000000000000000000000000000000000000002000000000004000000000000000008000000002000000000000000000000000000000000000000000000000000021000000000000000000200000000000000000000000100000000000000000000000",
      "type": "0x2",
      "transactionHash": "0x131c8c592c7d31011c93e74a0593ca2cd3840577836d175bfb0f3a28fa6fc396",
      "transactionIndex": "0xa",
      "blockHash": "0xeac8ae3314d71849f1873a261613cbb170ac701bceb716ec6c524aa965a2e478",
      "blockNumber": "0x75071c",
      "gasUsed": "0x2ccb8",
      "effectiveGasPrice": "0xfd",
      "from": "0xcda2fdb452ff4f5d7ba1c3d5dfcc9cb926a5eb7d",
      "to": "0x79dfbed14077b8f2421eece5707a17b161094e6a",
      "contractAddress": null,
      "l1BaseFeeScalar": "0x186a0",
      "l1BlobBaseFee": "0x1",
      "l1BlobBaseFeeScalar": "0x95506",
      "l1Fee": "0x97f92001fd",
      "l1GasPrice": "0xf3283336",
      "l1GasUsed": "0x640"
    },
    {
      "status": "0x1",
      "cumulativeGasUsed": "0x1ebe5d",
      "logs": [
        {
          "address": "0x2e8af9c5922623058aa92a183b391e62cb6b2d12",
          "topics": [
            "0xddf252ad1be2c89b69c2b068fc378daa952ba7f163c4a11628f55a4df523b3ef",
            "0x0000000000000000000000000000000000000000000000000000000000000000",
            "0x000000000000000000000000cda2fdb452ff4f5d7ba1c3d5dfcc9cb926a5eb7d",
            "0x000000000000000000000000000000000000000000000000000000000000011e"
          ],
          "data": "0x",
          "blockHash": "0xeac8ae3314d71849f1873a261613cbb170ac701bceb716ec6c524aa965a2e478",
          "blockNumber": "0x75071c",
          "transactionHash": "0xbb862663c9bc0b39c5a58e0f666b32f394b28faf7f6c27680aab8d04f4827757",
          "transactionIndex": "0xb",
          "logIndex": "0x15",
          "removed": false
        },
        {
          "address": "0x2e8af9c5922623058aa92a183b391e62cb6b2d12",
          "topics": [
            "0xf8e1a15aba9398e019f0b49df1a4fde98ee17ae345cb5f6b5e2c27f5033e8ce7"
          ],
          "data": "0x000000000000000000000000000000000000000000000000000000000000011e",
          "blockHash": "0xeac8ae3314d71849f1873a261613cbb170ac701bceb716ec6c524aa965a2e478",
          "blockNumber": "0x75071c",
          "transactionHash": "0xbb862663c9bc0b39c5a58e0f666b32f394b28faf7f6c27680aab8d04f4827757",
          "transactionIndex": "0xb",
          "logIndex": "0x16",
          "removed": false
        }
      ],
      "logsBloom": "0x00000000000000000000000000000000000000020000000000000000000000000000000000000000100000000000000000000000000000000000000000000000000000000000000000000008040000000000000000000000000000000000000000000000020000000000000000000800002000000000800000000010000000000000000000000200000000000000000000000000000000000000000000000000040000000000000000000000000000002000000000004000000000000000008000000002000000000000000000000000000000000000000000000000000020000000000000000000200000000000000000000000100000000000000000000000",
      "type": "0x2",
      "transactionHash": "0xbb862663c9bc0b39c5a58e0f666b32f394b28faf7f6c27680aab8d04f4827757",
      "transactionIndex": "0xb",
      "blockHash": "0xeac8ae3314d71849f1873a261613cbb170ac701bceb716ec6c524aa965a2e478",
      "blockNumber": "0x75071c",
      "gasUsed": "0x2ccb8",
      "effectiveGasPrice": "0xfd",
      "from": "0xcda2fdb452ff4f5d7ba1c3d5dfcc9cb926a5eb7d",
      "to": "0x79dfbed14077b8f2421eece5707a17b161094e6a",
      "contractAddress": null,
      "l1BaseFeeScalar": "0x186a0",
      "l1BlobBaseFee": "0x1",
      "l1BlobBaseFeeScalar": "0x95506",
      "l1Fee": "0x97f92001fd",
      "l1GasPrice": "0xf3283336",
      "l1GasUsed": "0x640"
    },
    {
      "status": "0x1",
      "cumulativeGasUsed": "0x218b15",
      "logs": [
        {
          "address": "0x2e8af9c5922623058aa92a183b391e62cb6b2d12",
          "topics": [
            "0xddf252ad1be2c89b69c2b068fc378daa952ba7f163c4a11628f55a4df523b3ef",
            "0x0000000000000000000000000000000000000000000000000000000000000000",
            "0x000000000000000000000000cda2fdb452ff4f5d7ba1c3d5dfcc9cb926a5eb7d",
            "0x000000000000000000000000000000000000000000000000000000000000011f"
          ],
          "data": "0x",
          "blockHash": "0xeac8ae3314d71849f1873a261613cbb170ac701bceb716ec6c524aa965a2e478",
          "blockNumber": "0x75071c",
          "transactionHash": "0xb7add773bc424d6d737d0d286b42ac9c0ba3a12417525de93e97b874968882a6",
          "transactionIndex": "0xc",
          "logIndex": "0x17",
          "removed": false
        },
        {
          "address": "0x2e8af9c5922623058aa92a183b391e62cb6b2d12",
          "topics": [
            "0xf8e1a15aba9398e019f0b49df1a4fde98ee17ae345cb5f6b5e2c27f5033e8ce7"
          ],
          "data": "0x000000000000000000000000000000000000000000000000000000000000011f",
          "blockHash": "0xeac8ae3314d71849f1873a261613cbb170ac701bceb716ec6c524aa965a2e478",
          "blockNumber": "0x75071c",
          "transactionHash": "0xb7add773bc424d6d737d0d286b42ac9c0ba3a12417525de93e97b874968882a6",
          "transactionIndex": "0xc",
          "logIndex": "0x18",
          "removed": false
        }
      ],
      "logsBloom": "0x00000000000000000000000000000000000000020000000000000000000000000000000000000000000000000000000040000000000000000000000000000000000000000000000000000008040000000000000000000000000000000000000000000000020000000000000000000800002000000000800000000010000000000000000000000000000000000000000080000000000000000000000000000000000000000000000000000000000000002000000000004000000000000000008000000002000000000000000000000000000000000000000000000000000020000000000000000000200000000000001000000000100000000000000000000000",
      "type": "0x2",
      "transactionHash": "0xb7add773bc424d6d737d0d286b42ac9c0ba3a12417525de93e97b874968882a6",
      "transactionIndex": "0xc",
      "blockHash": "0xeac8ae3314d71849f1873a261613cbb170ac701bceb716ec6c524aa965a2e478",
      "blockNumber": "0x75071c",
      "gasUsed": "0x2ccb8",
      "effectiveGasPrice": "0xfd",
      "from": "0xcda2fdb452ff4f5d7ba1c3d5dfcc9cb926a5eb7d",
      "to": "0x79dfbed14077b8f2421eece5707a17b161094e6a",
      "contractAddress": null,
      "l1BaseFeeScalar": "0x186a0",
      "l1BlobBaseFee": "0x1",
      "l1BlobBaseFeeScalar": "0x95506",
      "l1Fee": "0x97f92001fd",
      "l1GasPrice": "0xf3283336",
      "l1GasUsed": "0x640"
    },
    {
      "status": "0x1",
      "cumulativeGasUsed": "0x2457cd",
      "logs": [
        {
          "address": "0x2e8af9c5922623058aa92a183b391e62cb6b2d12",
          "topics": [
            "0xddf252ad1be2c89b69c2b068fc378daa952ba7f163c4a11628f55a4df523b3ef",
            "0x0000000000000000000000000000000000000000000000000000000000000000",
            "0x000000000000000000000000cda2fdb452ff4f5d7ba1c3d5dfcc9cb926a5eb7d",
            "0x0000000000000000000000000000000000000000000000000000000000000120"
          ],
          "data": "0x",
          "blockHash": "0xeac8ae3314d71849f1873a261613cbb170ac701bceb716ec6c524aa965a2e478",
          "blockNumber": "0x75071c",
          "transactionHash": "0x7491bc63523edd66836fc1d356b84906cd11b2562ec7d2bf76466e4d19f58761",
          "transactionIndex": "0xd",
          "logIndex": "0x19",
          "removed": false
        },
        {
          "address": "0x2e8af9c5922623058aa92a183b391e62cb6b2d12",
          "topics": [
            "0xf8e1a15aba9398e019f0b49df1a4fde98ee17ae345cb5f6b5e2c27f5033e8ce7"
          ],
          "data": "0x0000000000000000000000000000000000000000000000000000000000000120",
          "blockHash": "0xeac8ae3314d71849f1873a261613cbb170ac701bceb716ec6c524aa965a2e478",
          "blockNumber": "0x75071c",
          "transactionHash": "0x7491bc63523edd66836fc1d356b84906cd11b2562ec7d2bf76466e4d19f58761",
          "transactionIndex": "0xd",
          "logIndex": "0x1a",
          "removed": false
        }
      ],
      "logsBloom": "0x00000000000000000000000000000000000000020000000000000000000000000000000000000000000000000000000000000000000000000000000000000000000000000000000000000008040000000000000000000000000000000000000000000000020000000000000000000800002000000000800000000010000000000000000000400000000000000000000000000000000000000000000000000000000000000000000000000000000000002000000000004000400000000000008000000102000000000000000000000000000000000000000000000000000020000000000000000000200000000000000000000000100000000000000000000000",
      "type": "0x2",
      "transactionHash": "0x7491bc63523edd66836fc1d356b84906cd11b2562ec7d2bf76466e4d19f58761",
      "transactionIndex": "0xd",
      "blockHash": "0xeac8ae3314d71849f1873a261613cbb170ac701bceb716ec6c524aa965a2e478",
      "blockNumber": "0x75071c",
      "gasUsed": "0x2ccb8",
      "effectiveGasPrice": "0xfd",
      "from": "0xcda2fdb452ff4f5d7ba1c3d5dfcc9cb926a5eb7d",
      "to": "0x79dfbed14077b8f2421eece5707a17b161094e6a",
      "contractAddress": null,
      "l1BaseFeeScalar": "0x186a0",
      "l1BlobBaseFee": "0x1",
      "l1BlobBaseFeeScalar": "0x95506",
      "l1Fee": "0x97f92001fd",
      "l1GasPrice": "0xf3283336",
      "l1GasUsed": "0x640"
    },
    {
      "status": "0x1",
      "cumulativeGasUsed": "0x272485",
      "logs": [
        {
          "address": "0x2e8af9c5922623058aa92a183b391e62cb6b2d12",
          "topics": [
            "0xddf252ad1be2c89b69c2b068fc378daa952ba7f163c4a11628f55a4df523b3ef",
            "0x0000000000000000000000000000000000000000000000000000000000000000",
            "0x000000000000000000000000cda2fdb452ff4f5d7ba1c3d5dfcc9cb926a5eb7d",
            "0x0000000000000000000000000000000000000000000000000000000000000121"
          ],
          "data": "0x",
          "blockHash": "0xeac8ae3314d71849f1873a261613cbb170ac701bceb716ec6c524aa965a2e478",
          "blockNumber": "0x75071c",
          "transactionHash": "0x9a62c721bfd77132114aeb74fe03c260bcf8f6ade65fb743925a673353f1bdfa",
          "transactionIndex": "0xe",
          "logIndex": "0x1b",
          "removed": false
        },
        {
          "address": "0x2e8af9c5922623058aa92a183b391e62cb6b2d12",
          "topics": [
            "0xf8e1a15aba9398e019f0b49df1a4fde98ee17ae345cb5f6b5e2c27f5033e8ce7"
          ],
          "data": "0x0000000000000000000000000000000000000000000000000000000000000121",
          "blockHash": "0xeac8ae3314d71849f1873a261613cbb170ac701bceb716ec6c524aa965a2e478",
          "blockNumber": "0x75071c",
          "transactionHash": "0x9a62c721bfd77132114aeb74fe03c260bcf8f6ade65fb743925a673353f1bdfa",
          "transactionIndex": "0xe",
          "logIndex": "0x1c",
          "removed": false
        }
      ],
      "logsBloom": "0x00000000000000000000000000000000000000020000000000000000000000000000000000000000000000000000000000000000000000000000000000000000000000000000000000000008040000000000000000000000000000000000000000000000020000000000000000000800002000000000800000400010000000000000000001000000000000000000000000000000000000000000000000000080000000000000000000000000000000002000000000004000000000000000008000000002000000000000000000000000000000000000000000000000000020000000000000000000200000000000000000000000100000000000000000000000",
      "type": "0x2",
      "transactionHash": "0x9a62c721bfd77132114aeb74fe03c260bcf8f6ade65fb743925a673353f1bdfa",
      "transactionIndex": "0xe",
      "blockHash": "0xeac8ae3314d71849f1873a261613cbb170ac701bceb716ec6c524aa965a2e478",
      "blockNumber": "0x75071c",
      "gasUsed": "0x2ccb8",
      "effectiveGasPrice": "0xfd",
      "from": "0xcda2fdb452ff4f5d7ba1c3d5dfcc9cb926a5eb7d",
      "to": "0x79dfbed14077b8f2421eece5707a17b161094e6a",
      "contractAddress": null,
      "l1BaseFeeScalar": "0x186a0",
      "l1BlobBaseFee": "0x1",
      "l1BlobBaseFeeScalar": "0x95506",
      "l1Fee": "0x97f92001fd",
      "l1GasPrice": "0xf3283336",
      "l1GasUsed": "0x640"
    }
  ],
  "libraries": [],
  "pending": [],
  "returns": {},
  "timestamp": 1728201054,
  "chain": 60808,
  "commit": "7d9679b"
}