{
  "transactions": [
    {
      "hash": "0x2160e6aa7cbe2a010b5422d83a815db5b030f75bde7ff11593de3e14be5c96cf",
      "transactionType": "CREATE",
      "contractName": "Sp_IcyExecutioner",
      "contractAddress": "0xA2fcF8bEC9e0A2C5Aa945c2889E87E51C40B0918",
      "function": null,
      "arguments": null,
      "transaction": {
        "type": "0x02",
        "from": "0xcda2fdb452ff4f5d7ba1c3d5dfcc9cb926a5eb7d",
        "gas": "0xca3bd",
        "value": "0x0",
        "data": "0x60a060405260056002908155600355600660805234801561001f57600080fd5b50338061004657604051631e4fbdf760e01b81526000600482015260240160405180910390fd5b61004f81610055565b506100a5565b600080546001600160a01b038381166001600160a01b0319831681178455604051919092169283917f8be0079c531659141344cd1fd0a4f28419497f9722a3daafe3b4186f6b6457e09190a35050565b60805161094d6100c06000396000610103015261094d6000f3fe60806040526004361061004a5760003560e01c8063715018a61461004f5780638da5cb5b14610066578063bcb4939914610092578063f2fde38b146100b2578063feb812af146100d2575b600080fd5b34801561005b57600080fd5b506100646100e5565b005b34801561007257600080fd5b50600054604080516001600160a01b039092168252519081900360200190f35b34801561009e57600080fd5b506100646100ad366004610690565b6100f9565b3480156100be57600080fd5b506100646100cd366004610777565b6101f4565b6100646100e0366004610794565b610237565b6100ed6104f7565b6100f76000610524565b565b6101016104f7565b7f000000000000000000000000000000000000000000000000000000000000000060ff1683511061013157600080fd5b60005b83518160ff1610156101c4576000848260ff168151811061015757610157610834565b6020908102919091010151600480546001810182556000919091527f8a35acfbc15ff81a39ae7d344fd709f28e8600b4aa8c65c6b64bfe7fe36bd19b0180546001600160a01b0319166001600160a01b0390921691909117905550806101bc81610860565b915050610134565b50600180546001600160a01b039384166001600160a01b0319918216179091556005805492909316911617905550565b6101fc6104f7565b6001600160a01b03811661022b57604051631e4fbdf760e01b8152600060048201526024015b60405180910390fd5b61023481610524565b50565b6001600160a01b0385161580159061024e57508215155b61025757600080fd5b6000856001600160a01b031634868660405161027492919061087f565b60006040518083038185875af1925050503d80600081146102b1576040519150601f19603f3d011682016040523d82523d6000602084013e6102b6565b606091505b505090508080156102d157506001546001600160a01b031615155b156104cd5760006102e133610574565b60015460405163507cd30f60e01b8152336004820152602481018390529192506001600160a01b03169063507cd30f906044016020604051808303816000875af1158015610333573d6000803e3d6000fd5b505050506040513d601f19601f82011682018060405250810190610357919061088f565b5060055460405163f4a8b19760e01b81523360048201526000916001600160a01b03169063f4a8b19790602401602060405180830381865afa1580156103a1573d6000803e3d6000fd5b505050506040513d601f19601f820116820180604052508101906103c591906108b1565b90506001600160a01b038116158015906104485750600154604051630a2edb5560e21b81526001600160a01b038381166004830152909116906328bb6d5490602401602060405180830381865afa158015610424573d6000803e3d6000fd5b505050506040513d601f19601f82011682018060405250810190610448919061088f565b156104c65760015460405163507cd30f60e01b81526001600160a01b038381166004830152602482018590529091169063507cd30f906044016020604051808303816000875af11580156104a0573d6000803e3d6000fd5b505050506040513d601f19601f820116820180604052508101906104c4919061088f565b505b50506104ef565b60405162461bcd60e51b81526020600482015260006024820152604401610222565b505050505050565b6000546001600160a01b031633146100f75760405163118cdaa760e01b8152336004820152602401610222565b600080546001600160a01b038381166001600160a01b0319831681178455604051919092169283917f8be0079c531659141344cd1fd0a4f28419497f9722a3daafe3b4186f6b6457e09190a35050565b60008060005b60045460ff821610156106325760048160ff168154811061059d5761059d610834565b6000918252602090912001546040516370a0823160e01b81526001600160a01b038681166004830152909116906370a0823190602401602060405180830381865afa1580156105f0573d6000803e3d6000fd5b505050506040513d601f19601f8201168201806040525081019061061491906108ce565b61061e90836108e7565b91508061062a81610860565b91505061057a565b50806003546106419190610900565b60025461064e91906108e7565b9392505050565b634e487b7160e01b600052604160045260246000fd5b6001600160a01b038116811461023457600080fd5b803561068b8161066b565b919050565b6000806000606084860312156106a557600080fd5b833567ffffffffffffffff808211156106bd57600080fd5b818601915086601f8301126106d157600080fd5b81356020828211156106e5576106e5610655565b8160051b604051601f19603f8301168101818110868211171561070a5761070a610655565b60405292835281830193508481018201928a84111561072857600080fd5b948201945b8386101561074d5761073e86610680565b8552948201949382019361072d565b975061075c9050888201610680565b95505050505061076e60408501610680565b90509250925092565b60006020828403121561078957600080fd5b813561064e8161066b565b6000806000806000608086880312156107ac57600080fd5b85356107b78161066b565b9450602086013567ffffffffffffffff808211156107d457600080fd5b818801915088601f8301126107e857600080fd5b8135818111156107f757600080fd5b89602082850101111561080957600080fd5b60208301965080955050505060408601356108238161066b565b949793965091946060013592915050565b634e487b7160e01b600052603260045260246000fd5b634e487b7160e01b600052601160045260246000fd5b600060ff821660ff81036108765761087661084a565b60010192915050565b8183823760009101908152919050565b6000602082840312156108a157600080fd5b8151801515811461064e57600080fd5b6000602082840312156108c357600080fd5b815161064e8161066b565b6000602082840312156108e057600080fd5b5051919050565b808201808211156108fa576108fa61084a565b92915050565b80820281158282048414176108fa576108fa61084a56fea2646970667358221220a893771eaaf4e46ac72b1671aaa7fad261c7431274cc5555c71ea0c34214866164736f6c63430008140033",
        "nonce": "0x196",
        "accessList": []
      },
      "additionalContracts": [],
      "isFixedGasLimit": false
    },
    {
      "hash": "0xcf5b610b9f26898a7c4870c251b589b980bdeed3504a13718a80bc0a9b7c2a94",
      "transactionType": "CALL",
      "contractName": null,
      "contractAddress": "0xCA9c5943Dd7d0fE1E6A0Cf12F2eA65d310A3b2AA",
      "function": null,
      "arguments": null,
      "transaction": {
        "type": "0x02",
        "from": "0xcda2fdb452ff4f5d7ba1c3d5dfcc9cb926a5eb7d",
        "to": "0xca9c5943dd7d0fe1e6a0cf12f2ea65d310a3b2aa",
        "gas": "0xfa35",
        "value": "0x0",
        "data": "0xdfba52c7000000000000000000000000a2fcf8bec9e0a2c5aa945c2889e87e51c40b09180000000000000000000000000000000000000000000000000000000000000001",
        "nonce": "0x197",
        "accessList": []
      },
      "additionalContracts": [],
      "isFixedGasLimit": false
    },
    {
      "hash": "0x6e5fa723feef4113c1d33b89929e5c8d685eca254487ffc00e21c0df00561747",
      "transactionType": "CALL",
      "contractName": "Sp_IcyExecutioner",
      "contractAddress": "0xA2fcF8bEC9e0A2C5Aa945c2889E87E51C40B0918",
      "function": "initializeCa(address[],address,address)",
      "arguments": [
        "[0x3eFC90a28685d320F6916b76D8C679da67cc23DC]",
        "0xCA9c5943Dd7d0fE1E6A0Cf12F2eA65d310A3b2AA",
        "0x87273dD5f8Ece675aCB151649f97dD4da529E34A"
      ],
      "transaction": {
        "type": "0x02",
        "from": "0xcda2fdb452ff4f5d7ba1c3d5dfcc9cb926a5eb7d",
        "to": "0xa2fcf8bec9e0a2c5aa945c2889e87e51c40b0918",
        "gas": "0x269bf",
        "value": "0x0",
        "data": "0xbcb493990000000000000000000000000000000000000000000000000000000000000060000000000000000000000000ca9c5943dd7d0fe1e6a0cf12f2ea65d310a3b2aa00000000000000000000000087273dd5f8ece675acb151649f97dd4da529e34a00000000000000000000000000000000000000000000000000000000000000010000000000000000000000003efc90a28685d320f6916b76d8c679da67cc23dc",
        "nonce": "0x198",
        "accessList": []
      },
      "additionalContracts": [],
      "isFixedGasLimit": false
    }
  ],
  "receipts": [
    {
      "transactionHash": "0x2160e6aa7cbe2a010b5422d83a815db5b030f75bde7ff11593de3e14be5c96cf",
      "transactionIndex": "0x2",
      "blockHash": "0x956118a0bc80d658595f764a57ad8b568a565087c7b06c60116f9bf416e61983",
      "blockNumber": "0x2b2044",
      "from": "0xcdA2fDB452FF4F5D7Ba1C3d5dFCc9CB926A5eb7D",
      "to": null,
      "cumulativeGasUsed": "0xab6e5",
      "gasUsed": "0x9b9aa",
      "contractAddress": "0xA2fcF8bEC9e0A2C5Aa945c2889E87E51C40B0918",
      "logs": [
        {
          "address": "0xA2fcF8bEC9e0A2C5Aa945c2889E87E51C40B0918",
          "topics": [
            "0x8be0079c531659141344cd1fd0a4f28419497f9722a3daafe3b4186f6b6457e0",
            "0x0000000000000000000000000000000000000000000000000000000000000000",
            "0x000000000000000000000000cda2fdb452ff4f5d7ba1c3d5dfcc9cb926a5eb7d"
          ],
          "data": "0x",
          "blockHash": "0x956118a0bc80d658595f764a57ad8b568a565087c7b06c60116f9bf416e61983",
          "blockNumber": "0x2b2044",
          "transactionHash": "0x2160e6aa7cbe2a010b5422d83a815db5b030f75bde7ff11593de3e14be5c96cf",
          "transactionIndex": "0x2",
          "logIndex": "0x0",
          "removed": false
        }
      ],
      "status": "0x1",
      "logsBloom": "0x00000000000000000000000000000000000000800000000000800000000000000000000000000000000000000000000000000000000000000000000000000000000000000000000000000000040000000001000000000000000000000000000000000000020000000000000000000800000000000000800000000000000000400000000000000000040000000000000000000000000000000000000000000000100000000000000000000000000000000000000000004000000000000000000000000000000000000000000000000000000000000000000000000000000020000000000000000000000000000000000000000000000000000000000000000000",
      "type": "0x2",
      "effectiveGasPrice": "0xfd"
    },
    {
      "transactionHash": "0xcf5b610b9f26898a7c4870c251b589b980bdeed3504a13718a80bc0a9b7c2a94",
      "transactionIndex": "0x3",
      "blockHash": "0x956118a0bc80d658595f764a57ad8b568a565087c7b06c60116f9bf416e61983",
      "blockNumber": "0x2b2044",
      "from": "0xcdA2fDB452FF4F5D7Ba1C3d5dFCc9CB926A5eb7D",
      "to": "0xCA9c5943Dd7d0fE1E6A0Cf12F2eA65d310A3b2AA",
      "cumulativeGasUsed": "0xb6c0b",
      "gasUsed": "0xb526",
      "contractAddress": null,
      "logs": [],
      "status": "0x1",
      "logsBloom": "0x00000000000000000000000000000000000000000000000000000000000000000000000000000000000000000000000000000000000000000000000000000000000000000000000000000000000000000000000000000000000000000000000000000000000000000000000000000000000000000000000000000000000000000000000000000000000000000000000000000000000000000000000000000000000000000000000000000000000000000000000000000000000000000000000000000000000000000000000000000000000000000000000000000000000000000000000000000000000000000000000000000000000000000000000000000000",
      "type": "0x2",
      "effectiveGasPrice": "0xfd"
    },
    {
      "transactionHash": "0x6e5fa723feef4113c1d33b89929e5c8d685eca254487ffc00e21c0df00561747",
      "transactionIndex": "0x4",
      "blockHash": "0x956118a0bc80d658595f764a57ad8b568a565087c7b06c60116f9bf416e61983",
      "blockNumber": "0x2b2044",
      "from": "0xcdA2fDB452FF4F5D7Ba1C3d5dFCc9CB926A5eb7D",
      "to": "0xA2fcF8bEC9e0A2C5Aa945c2889E87E51C40B0918",
      "cumulativeGasUsed": "0xd2b49",
      "gasUsed": "0x1bf3e",
      "contractAddress": null,
      "logs": [],
      "status": "0x1",
      "logsBloom": "0x00000000000000000000000000000000000000000000000000000000000000000000000000000000000000000000000000000000000000000000000000000000000000000000000000000000000000000000000000000000000000000000000000000000000000000000000000000000000000000000000000000000000000000000000000000000000000000000000000000000000000000000000000000000000000000000000000000000000000000000000000000000000000000000000000000000000000000000000000000000000000000000000000000000000000000000000000000000000000000000000000000000000000000000000000000000",
      "type": "0x2",
      "effectiveGasPrice": "0xfd"
    }
  ],
  "libraries": [],
  "pending": [],
  "returns": {},
  "timestamp": 1718430886,
  "chain": 60808,
  "multi": false,
  "commit": "7d9679b"
}