{
  "transactions": [
    {
      "hash": "0xac5ba60b4095e3e161fc025621c016b674b200417d1d8bb0b23c5192b66a3365",
      "transactionType": "CALL",
      "contractName": null,
      "contractAddress": "0x79dfbed14077b8f2421eece5707a17b161094e6a",
      "function": "wlMint(address)",
      "arguments": [
        "0x0000000000000000000000000000000000000000"
      ],
      "transaction": {
        "from": "0xcda2fdb452ff4f5d7ba1c3d5dfcc9cb926a5eb7d",
        "to": "0x79dfbed14077b8f2421eece5707a17b161094e6a",
        "gas": "0x3ddf7",
        "value": "0x0",
        "input": "0xc517b4a50000000000000000000000000000000000000000000000000000000000000000",
        "nonce": "0x1e3a",
        "chainId": "0xed88"
      },
      "additionalContracts": [],
      "isFixedGasLimit": false
    },
    {
      "hash": "0xee0d32a5410b33bbf4a6142eeee0b96802bf189149f0a4812326b83f459cfdf6",
      "transactionType": "CALL",
      "contractName": null,
      "contractAddress": "0x79dfbed14077b8f2421eece5707a17b161094e6a",
      "function": "wlMint(address)",
      "arguments": [
        "0x0000000000000000000000000000000000000000"
      ],
      "transaction": {
        "from": "0xcda2fdb452ff4f5d7ba1c3d5dfcc9cb926a5eb7d",
        "to": "0x79dfbed14077b8f2421eece5707a17b161094e6a",
        "gas": "0x3ddf7",
        "value": "0x0",
        "input": "0xc517b4a50000000000000000000000000000000000000000000000000000000000000000",
        "nonce": "0x1e3b",
        "chainId": "0xed88"
      },
      "additionalContracts": [],
      "isFixedGasLimit": false
    },
    {
      "hash": "0x5a840331de0ea08f6f256ab8dd4d7932c6b841a6ce49231de60ff448a9c82fcc",
      "transactionType": "CALL",
      "contractName": null,
      "contractAddress": "0x79dfbed14077b8f2421eece5707a17b161094e6a",
      "function": "wlMint(address)",
      "arguments": [
        "0x0000000000000000000000000000000000000000"
      ],
      "transaction": {
        "from": "0xcda2fdb452ff4f5d7ba1c3d5dfcc9cb926a5eb7d",
        "to": "0x79dfbed14077b8f2421eece5707a17b161094e6a",
        "gas": "0x3ddf7",
        "value": "0x0",
        "input": "0xc517b4a50000000000000000000000000000000000000000000000000000000000000000",
        "nonce": "0x1e3c",
        "chainId": "0xed88"
      },
      "additionalContracts": [],
      "isFixedGasLimit": false
    },
    {
      "hash": "0xf936e37104f1ad7d9c36204f939a4af86052ba3a4efd4bb719e81a3f0bf32d61",
      "transactionType": "CALL",
      "contractName": null,
      "contractAddress": "0x79dfbed14077b8f2421eece5707a17b161094e6a",
      "function": "wlMint(address)",
      "arguments": [
        "0x0000000000000000000000000000000000000000"
      ],
      "transaction": {
        "from": "0xcda2fdb452ff4f5d7ba1c3d5dfcc9cb926a5eb7d",
        "to": "0x79dfbed14077b8f2421eece5707a17b161094e6a",
        "gas": "0x3ddf7",
        "value": "0x0",
        "input": "0xc517b4a50000000000000000000000000000000000000000000000000000000000000000",
        "nonce": "0x1e3d",
        "chainId": "0xed88"
      },
      "additionalContracts": [],
      "isFixedGasLimit": false
    },
    {
      "hash": "0x4836f6ff5b16386c9cddc222d05c731f9ccbaad8c00902a07b1796ae9122a3b9",
      "transactionType": "CALL",
      "contractName": null,
      "contractAddress": "0x79dfbed14077b8f2421eece5707a17b161094e6a",
      "function": "wlMint(address)",
      "arguments": [
        "0x0000000000000000000000000000000000000000"
      ],
      "transaction": {
        "from": "0xcda2fdb452ff4f5d7ba1c3d5dfcc9cb926a5eb7d",
        "to": "0x79dfbed14077b8f2421eece5707a17b161094e6a",
        "gas": "0x3ddf7",
        "value": "0x0",
        "input": "0xc517b4a50000000000000000000000000000000000000000000000000000000000000000",
        "nonce": "0x1e3e",
        "chainId": "0xed88"
      },
      "additionalContracts": [],
      "isFixedGasLimit": false
    },
    {
      "hash": "0x6c5d5925fb28ddac3e4c988e99676b4016271bf3a1da5d1718d2f8ee193e54c4",
      "transactionType": "CALL",
      "contractName": null,
      "contractAddress": "0x79dfbed14077b8f2421eece5707a17b161094e6a",
      "function": "wlMint(address)",
      "arguments": [
        "0x0000000000000000000000000000000000000000"
      ],
      "transaction": {
        "from": "0xcda2fdb452ff4f5d7ba1c3d5dfcc9cb926a5eb7d",
        "to": "0x79dfbed14077b8f2421eece5707a17b161094e6a",
        "gas": "0x3ddf7",
        "value": "0x0",
        "input": "0xc517b4a50000000000000000000000000000000000000000000000000000000000000000",
        "nonce": "0x1e3f",
        "chainId": "0xed88"
      },
      "additionalContracts": [],
      "isFixedGasLimit": false
    },
    {
      "hash": "0x8f1cc6ab7513741f40d65c0fa2043f916eb23c66f1e7b5669878aaf6d0fef769",
      "transactionType": "CALL",
      "contractName": null,
      "contractAddress": "0x79dfbed14077b8f2421eece5707a17b161094e6a",
      "function": "wlMint(address)",
      "arguments": [
        "0x0000000000000000000000000000000000000000"
      ],
      "transaction": {
        "from": "0xcda2fdb452ff4f5d7ba1c3d5dfcc9cb926a5eb7d",
        "to": "0x79dfbed14077b8f2421eece5707a17b161094e6a",
        "gas": "0x3ddf7",
        "value": "0x0",
        "input": "0xc517b4a50000000000000000000000000000000000000000000000000000000000000000",
        "nonce": "0x1e40",
        "chainId": "0xed88"
      },
      "additionalContracts": [],
      "isFixedGasLimit": false
    },
    {
      "hash": "0x8a34b20534a4dc1f717ca5062422e2ef4184a4915d76886db4b8a6ab550b1056",
      "transactionType": "CALL",
      "contractName": null,
      "contractAddress": "0x79dfbed14077b8f2421eece5707a17b161094e6a",
      "function": "wlMint(address)",
      "arguments": [
        "0x0000000000000000000000000000000000000000"
      ],
      "transaction": {
        "from": "0xcda2fdb452ff4f5d7ba1c3d5dfcc9cb926a5eb7d",
        "to": "0x79dfbed14077b8f2421eece5707a17b161094e6a",
        "gas": "0x3ddf7",
        "value": "0x0",
        "input": "0xc517b4a50000000000000000000000000000000000000000000000000000000000000000",
        "nonce": "0x1e41",
        "chainId": "0xed88"
      },
      "additionalContracts": [],
      "isFixedGasLimit": false
    },
    {
      "hash": "0x9f469e28eb03da7c6f8635ee4c4bf0302fc4ffa92866855d7a0b0d7c1221874b",
      "transactionType": "CALL",
      "contractName": null,
      "contractAddress": "0x79dfbed14077b8f2421eece5707a17b161094e6a",
      "function": "wlMint(address)",
      "arguments": [
        "0x0000000000000000000000000000000000000000"
      ],
      "transaction": {
        "from": "0xcda2fdb452ff4f5d7ba1c3d5dfcc9cb926a5eb7d",
        "to": "0x79dfbed14077b8f2421eece5707a17b161094e6a",
        "gas": "0x3ddf7",
        "value": "0x0",
        "input": "0xc517b4a50000000000000000000000000000000000000000000000000000000000000000",
        "nonce": "0x1e42",
        "chainId": "0xed88"
      },
      "additionalContracts": [],
      "isFixedGasLimit": false
    },
    {
      "hash": "0xccab3d33c2495aac0b34848587258493f9c1cbbd4978c6fd6098d8d8769fb128",
      "transactionType": "CALL",
      "contractName": null,
      "contractAddress": "0x79dfbed14077b8f2421eece5707a17b161094e6a",
      "function": "wlMint(address)",
      "arguments": [
        "0x0000000000000000000000000000000000000000"
      ],
      "transaction": {
        "from": "0xcda2fdb452ff4f5d7ba1c3d5dfcc9cb926a5eb7d",
        "to": "0x79dfbed14077b8f2421eece5707a17b161094e6a",
        "gas": "0x3ddf7",
        "value": "0x0",
        "input": "0xc517b4a50000000000000000000000000000000000000000000000000000000000000000",
        "nonce": "0x1e43",
        "chainId": "0xed88"
      },
      "additionalContracts": [],
      "isFixedGasLimit": false
    },
    {
      "hash": "0x1fdd5be2557c7120fab3775bf13f47c2e7e3a604d7b260a9d9024d163a24cba3",
      "transactionType": "CALL",
      "contractName": null,
      "contractAddress": "0x79dfbed14077b8f2421eece5707a17b161094e6a",
      "function": "wlMint(address)",
      "arguments": [
        "0x0000000000000000000000000000000000000000"
      ],
      "transaction": {
        "from": "0xcda2fdb452ff4f5d7ba1c3d5dfcc9cb926a5eb7d",
        "to": "0x79dfbed14077b8f2421eece5707a17b161094e6a",
        "gas": "0x3ddf7",
        "value": "0x0",
        "input": "0xc517b4a50000000000000000000000000000000000000000000000000000000000000000",
        "nonce": "0x1e44",
        "chainId": "0xed88"
      },
      "additionalContracts": [],
      "isFixedGasLimit": false
    },
    {
      "hash": "0x18f038efae825fd439006b8ed89ba56396b7946e58d4964c2a87977b67b5d291",
      "transactionType": "CALL",
      "contractName": null,
      "contractAddress": "0x79dfbed14077b8f2421eece5707a17b161094e6a",
      "function": "wlMint(address)",
      "arguments": [
        "0x0000000000000000000000000000000000000000"
      ],
      "transaction": {
        "from": "0xcda2fdb452ff4f5d7ba1c3d5dfcc9cb926a5eb7d",
        "to": "0x79dfbed14077b8f2421eece5707a17b161094e6a",
        "gas": "0x3ddf7",
        "value": "0x0",
        "input": "0xc517b4a50000000000000000000000000000000000000000000000000000000000000000",
        "nonce": "0x1e45",
        "chainId": "0xed88"
      },
      "additionalContracts": [],
      "isFixedGasLimit": false
    },
    {
      "hash": "0x376210b7e25b7d4180132858908ca450badd41881dde8313ca04442c8ff92124",
      "transactionType": "CALL",
      "contractName": null,
      "contractAddress": "0x79dfbed14077b8f2421eece5707a17b161094e6a",
      "function": "wlMint(address)",
      "arguments": [
        "0x0000000000000000000000000000000000000000"
      ],
      "transaction": {
        "from": "0xcda2fdb452ff4f5d7ba1c3d5dfcc9cb926a5eb7d",
        "to": "0x79dfbed14077b8f2421eece5707a17b161094e6a",
        "gas": "0x3ddf7",
        "value": "0x0",
        "input": "0xc517b4a50000000000000000000000000000000000000000000000000000000000000000",
        "nonce": "0x1e46",
        "chainId": "0xed88"
      },
      "additionalContracts": [],
      "isFixedGasLimit": false
    },
    {
      "hash": "0xc4a08fbdc78f2c72c1f3f36d32a2ab599493bfae5554fd1f462c40ac62cf644f",
      "transactionType": "CALL",
      "contractName": null,
      "contractAddress": "0x79dfbed14077b8f2421eece5707a17b161094e6a",
      "function": "wlMint(address)",
      "arguments": [
        "0x0000000000000000000000000000000000000000"
      ],
      "transaction": {
        "from": "0xcda2fdb452ff4f5d7ba1c3d5dfcc9cb926a5eb7d",
        "to": "0x79dfbed14077b8f2421eece5707a17b161094e6a",
        "gas": "0x3ddf7",
        "value": "0x0",
        "input": "0xc517b4a50000000000000000000000000000000000000000000000000000000000000000",
        "nonce": "0x1e47",
        "chainId": "0xed88"
      },
      "additionalContracts": [],
      "isFixedGasLimit": false
    },
    {
      "hash": "0x82ebf4cab9a86b3b489ca825201bc3b42b38145c915e35269d18c98e681ec0db",
      "transactionType": "CALL",
      "contractName": null,
      "contractAddress": "0x79dfbed14077b8f2421eece5707a17b161094e6a",
      "function": "wlMint(address)",
      "arguments": [
        "0x0000000000000000000000000000000000000000"
      ],
      "transaction": {
        "from": "0xcda2fdb452ff4f5d7ba1c3d5dfcc9cb926a5eb7d",
        "to": "0x79dfbed14077b8f2421eece5707a17b161094e6a",
        "gas": "0x3ddf7",
        "value": "0x0",
        "input": "0xc517b4a50000000000000000000000000000000000000000000000000000000000000000",
        "nonce": "0x1e48",
        "chainId": "0xed88"
      },
      "additionalContracts": [],
      "isFixedGasLimit": false
    },
    {
      "hash": "0x9027de7ee92df9a20fbab53f99732169610792dd83921012cceb48274e3cfcb5",
      "transactionType": "CALL",
      "contractName": null,
      "contractAddress": "0x79dfbed14077b8f2421eece5707a17b161094e6a",
      "function": "wlMint(address)",
      "arguments": [
        "0x0000000000000000000000000000000000000000"
      ],
      "transaction": {
        "from": "0xcda2fdb452ff4f5d7ba1c3d5dfcc9cb926a5eb7d",
        "to": "0x79dfbed14077b8f2421eece5707a17b161094e6a",
        "gas": "0x3ddf7",
        "value": "0x0",
        "input": "0xc517b4a50000000000000000000000000000000000000000000000000000000000000000",
        "nonce": "0x1e49",
        "chainId": "0xed88"
      },
      "additionalContracts": [],
      "isFixedGasLimit": false
    },
    {
      "hash": "0x1f4856953af584a245652c92fc54a9a20923cb78bbc69038d8d698e2772d1b5b",
      "transactionType": "CALL",
      "contractName": null,
      "contractAddress": "0x79dfbed14077b8f2421eece5707a17b161094e6a",
      "function": "wlMint(address)",
      "arguments": [
        "0x0000000000000000000000000000000000000000"
      ],
      "transaction": {
        "from": "0xcda2fdb452ff4f5d7ba1c3d5dfcc9cb926a5eb7d",
        "to": "0x79dfbed14077b8f2421eece5707a17b161094e6a",
        "gas": "0x3ddf7",
        "value": "0x0",
        "input": "0xc517b4a50000000000000000000000000000000000000000000000000000000000000000",
        "nonce": "0x1e4a",
        "chainId": "0xed88"
      },
      "additionalContracts": [],
      "isFixedGasLimit": false
    },
    {
      "hash": "0xa2269bd8254fec982b06cb067ab70c2ed1b2d0ddfab943012f6c0d98a7150989",
      "transactionType": "CALL",
      "contractName": null,
      "contractAddress": "0x79dfbed14077b8f2421eece5707a17b161094e6a",
      "function": "wlMint(address)",
      "arguments": [
        "0x0000000000000000000000000000000000000000"
      ],
      "transaction": {
        "from": "0xcda2fdb452ff4f5d7ba1c3d5dfcc9cb926a5eb7d",
        "to": "0x79dfbed14077b8f2421eece5707a17b161094e6a",
        "gas": "0x3ddf7",
        "value": "0x0",
        "input": "0xc517b4a50000000000000000000000000000000000000000000000000000000000000000",
        "nonce": "0x1e4b",
        "chainId": "0xed88"
      },
      "additionalContracts": [],
      "isFixedGasLimit": false
    },
    {
      "hash": "0x1df2e42e8c1eeca9f9e45846f34aa9b694e2764f71a65716edcfd4fc30f3588f",
      "transactionType": "CALL",
      "contractName": null,
      "contractAddress": "0x79dfbed14077b8f2421eece5707a17b161094e6a",
      "function": "wlMint(address)",
      "arguments": [
        "0x0000000000000000000000000000000000000000"
      ],
      "transaction": {
        "from": "0xcda2fdb452ff4f5d7ba1c3d5dfcc9cb926a5eb7d",
        "to": "0x79dfbed14077b8f2421eece5707a17b161094e6a",
        "gas": "0x3ddf7",
        "value": "0x0",
        "input": "0xc517b4a50000000000000000000000000000000000000000000000000000000000000000",
        "nonce": "0x1e4c",
        "chainId": "0xed88"
      },
      "additionalContracts": [],
      "isFixedGasLimit": false
    },
    {
      "hash": "0x50d41892f5da91162ced3465407f1d215d6ed06b1f4fa1b353dd9a863082a835",
      "transactionType": "CALL",
      "contractName": null,
      "contractAddress": "0x79dfbed14077b8f2421eece5707a17b161094e6a",
      "function": "wlMint(address)",
      "arguments": [
        "0x0000000000000000000000000000000000000000"
      ],
      "transaction": {
        "from": "0xcda2fdb452ff4f5d7ba1c3d5dfcc9cb926a5eb7d",
        "to": "0x79dfbed14077b8f2421eece5707a17b161094e6a",
        "gas": "0x3ddf7",
        "value": "0x0",
        "input": "0xc517b4a50000000000000000000000000000000000000000000000000000000000000000",
        "nonce": "0x1e4d",
        "chainId": "0xed88"
      },
      "additionalContracts": [],
      "isFixedGasLimit": false
    },
    {
      "hash": "0xb6c9244944062285d9b8056149cbfa4605a21445802f9d9ef7aeccab4a1e173e",
      "transactionType": "CALL",
      "contractName": null,
      "contractAddress": "0x79dfbed14077b8f2421eece5707a17b161094e6a",
      "function": "wlMint(address)",
      "arguments": [
        "0x0000000000000000000000000000000000000000"
      ],
      "transaction": {
        "from": "0xcda2fdb452ff4f5d7ba1c3d5dfcc9cb926a5eb7d",
        "to": "0x79dfbed14077b8f2421eece5707a17b161094e6a",
        "gas": "0x3ddf7",
        "value": "0x0",
        "input": "0xc517b4a50000000000000000000000000000000000000000000000000000000000000000",
        "nonce": "0x1e4e",
        "chainId": "0xed88"
      },
      "additionalContracts": [],
      "isFixedGasLimit": false
    },
    {
      "hash": "0xbdfce02648040905df6bb973c6317535210672aaa5fbcc7f36c096ea81e44bfb",
      "transactionType": "CALL",
      "contractName": null,
      "contractAddress": "0x79dfbed14077b8f2421eece5707a17b161094e6a",
      "function": "wlMint(address)",
      "arguments": [
        "0x0000000000000000000000000000000000000000"
      ],
      "transaction": {
        "from": "0xcda2fdb452ff4f5d7ba1c3d5dfcc9cb926a5eb7d",
        "to": "0x79dfbed14077b8f2421eece5707a17b161094e6a",
        "gas": "0x3ddf7",
        "value": "0x0",
        "input": "0xc517b4a50000000000000000000000000000000000000000000000000000000000000000",
        "nonce": "0x1e4f",
        "chainId": "0xed88"
      },
      "additionalContracts": [],
      "isFixedGasLimit": false
    },
    {
      "hash": "0xec503691b9fbd84d167cb910e857b4b14e543922e2dc299e24052c5264ba9c0c",
      "transactionType": "CALL",
      "contractName": null,
      "contractAddress": "0x79dfbed14077b8f2421eece5707a17b161094e6a",
      "function": "wlMint(address)",
      "arguments": [
        "0x0000000000000000000000000000000000000000"
      ],
      "transaction": {
        "from": "0xcda2fdb452ff4f5d7ba1c3d5dfcc9cb926a5eb7d",
        "to": "0x79dfbed14077b8f2421eece5707a17b161094e6a",
        "gas": "0x3ddf7",
        "value": "0x0",
        "input": "0xc517b4a50000000000000000000000000000000000000000000000000000000000000000",
        "nonce": "0x1e50",
        "chainId": "0xed88"
      },
      "additionalContracts": [],
      "isFixedGasLimit": false
    },
    {
      "hash": "0x1c28bf79c2cb6b1275e1acffaddcb295ae9c95f8b41e9a39dd8a7bd6d068dea6",
      "transactionType": "CALL",
      "contractName": null,
      "contractAddress": "0x79dfbed14077b8f2421eece5707a17b161094e6a",
      "function": "wlMint(address)",
      "arguments": [
        "0x0000000000000000000000000000000000000000"
      ],
      "transaction": {
        "from": "0xcda2fdb452ff4f5d7ba1c3d5dfcc9cb926a5eb7d",
        "to": "0x79dfbed14077b8f2421eece5707a17b161094e6a",
        "gas": "0x3ddf7",
        "value": "0x0",
        "input": "0xc517b4a50000000000000000000000000000000000000000000000000000000000000000",
        "nonce": "0x1e51",
        "chainId": "0xed88"
      },
      "additionalContracts": [],
      "isFixedGasLimit": false
    },
    {
      "hash": "0xfecfbabe2640ec097a1376d4d7f5e3575f2cfd5aa76ac9ad42451801221b6593",
      "transactionType": "CALL",
      "contractName": null,
      "contractAddress": "0x79dfbed14077b8f2421eece5707a17b161094e6a",
      "function": "wlMint(address)",
      "arguments": [
        "0x0000000000000000000000000000000000000000"
      ],
      "transaction": {
        "from": "0xcda2fdb452ff4f5d7ba1c3d5dfcc9cb926a5eb7d",
        "to": "0x79dfbed14077b8f2421eece5707a17b161094e6a",
        "gas": "0x3ddf7",
        "value": "0x0",
        "input": "0xc517b4a50000000000000000000000000000000000000000000000000000000000000000",
        "nonce": "0x1e52",
        "chainId": "0xed88"
      },
      "additionalContracts": [],
      "isFixedGasLimit": false
    },
    {
      "hash": "0xe600e40f3f4e4006d3c6486659e298af1d0c959a7cd364c275f912c92cdf1444",
      "transactionType": "CALL",
      "contractName": null,
      "contractAddress": "0x79dfbed14077b8f2421eece5707a17b161094e6a",
      "function": "wlMint(address)",
      "arguments": [
        "0x0000000000000000000000000000000000000000"
      ],
      "transaction": {
        "from": "0xcda2fdb452ff4f5d7ba1c3d5dfcc9cb926a5eb7d",
        "to": "0x79dfbed14077b8f2421eece5707a17b161094e6a",
        "gas": "0x3ddf7",
        "value": "0x0",
        "input": "0xc517b4a50000000000000000000000000000000000000000000000000000000000000000",
        "nonce": "0x1e53",
        "chainId": "0xed88"
      },
      "additionalContracts": [],
      "isFixedGasLimit": false
    },
    {
      "hash": "0xa0492718e995c102fda8e020506cf874239e1270eef00a8443cf83b1d6530e97",
      "transactionType": "CALL",
      "contractName": null,
      "contractAddress": "0x79dfbed14077b8f2421eece5707a17b161094e6a",
      "function": "wlMint(address)",
      "arguments": [
        "0x0000000000000000000000000000000000000000"
      ],
      "transaction": {
        "from": "0xcda2fdb452ff4f5d7ba1c3d5dfcc9cb926a5eb7d",
        "to": "0x79dfbed14077b8f2421eece5707a17b161094e6a",
        "gas": "0x3ddf7",
        "value": "0x0",
        "input": "0xc517b4a50000000000000000000000000000000000000000000000000000000000000000",
        "nonce": "0x1e54",
        "chainId": "0xed88"
      },
      "additionalContracts": [],
      "isFixedGasLimit": false
    },
    {
      "hash": "0xace2abfbe308125a2668981495c505b3b8f049ecb7211ee9db021a15c77ca7de",
      "transactionType": "CALL",
      "contractName": null,
      "contractAddress": "0x79dfbed14077b8f2421eece5707a17b161094e6a",
      "function": "wlMint(address)",
      "arguments": [
        "0x0000000000000000000000000000000000000000"
      ],
      "transaction": {
        "from": "0xcda2fdb452ff4f5d7ba1c3d5dfcc9cb926a5eb7d",
        "to": "0x79dfbed14077b8f2421eece5707a17b161094e6a",
        "gas": "0x3ddf7",
        "value": "0x0",
        "input": "0xc517b4a50000000000000000000000000000000000000000000000000000000000000000",
        "nonce": "0x1e55",
        "chainId": "0xed88"
      },
      "additionalContracts": [],
      "isFixedGasLimit": false
    },
    {
      "hash": "0x0ebaddd2340d418ee157a01d2ee0fe79f0cb61a4c11f533d9c9a76aec10118aa",
      "transactionType": "CALL",
      "contractName": null,
      "contractAddress": "0x79dfbed14077b8f2421eece5707a17b161094e6a",
      "function": "wlMint(address)",
      "arguments": [
        "0x0000000000000000000000000000000000000000"
      ],
      "transaction": {
        "from": "0xcda2fdb452ff4f5d7ba1c3d5dfcc9cb926a5eb7d",
        "to": "0x79dfbed14077b8f2421eece5707a17b161094e6a",
        "gas": "0x3ddf7",
        "value": "0x0",
        "input": "0xc517b4a50000000000000000000000000000000000000000000000000000000000000000",
        "nonce": "0x1e56",
        "chainId": "0xed88"
      },
      "additionalContracts": [],
      "isFixedGasLimit": false
    },
    {
      "hash": "0x5df26db876645ddbe6bffbc7edeb0d652b648c75ec30493f4bfe863a64844aec",
      "transactionType": "CALL",
      "contractName": null,
      "contractAddress": "0x79dfbed14077b8f2421eece5707a17b161094e6a",
      "function": "wlMint(address)",
      "arguments": [
        "0x0000000000000000000000000000000000000000"
      ],
      "transaction": {
        "from": "0xcda2fdb452ff4f5d7ba1c3d5dfcc9cb926a5eb7d",
        "to": "0x79dfbed14077b8f2421eece5707a17b161094e6a",
        "gas": "0x3ddf7",
        "value": "0x0",
        "input": "0xc517b4a50000000000000000000000000000000000000000000000000000000000000000",
        "nonce": "0x1e57",
        "chainId": "0xed88"
      },
      "additionalContracts": [],
      "isFixedGasLimit": false
    }
  ],
  "receipts": [
    {
      "status": "0x1",
      "cumulativeGasUsed": "0x40c80",
      "logs": [
        {
          "address": "0x2e8af9c5922623058aa92a183b391e62cb6b2d12",
          "topics": [
            "0xddf252ad1be2c89b69c2b068fc378daa952ba7f163c4a11628f55a4df523b3ef",
            "0x0000000000000000000000000000000000000000000000000000000000000000",
            "0x000000000000000000000000cda2fdb452ff4f5d7ba1c3d5dfcc9cb926a5eb7d",
            "0x0000000000000000000000000000000000000000000000000000000000000230"
          ],
          "data": "0x",
          "blockHash": "0x585b808094e08d071375407c9c69c2fcaa9f7210ca58a9d6b60ccf95231ed91b",
          "blockNumber": "0x7512c3",
          "transactionHash": "0xac5ba60b4095e3e161fc025621c016b674b200417d1d8bb0b23c5192b66a3365",
          "transactionIndex": "0x2",
          "logIndex": "0x0",
          "removed": false
        },
        {
          "address": "0x2e8af9c5922623058aa92a183b391e62cb6b2d12",
          "topics": [
            "0xf8e1a15aba9398e019f0b49df1a4fde98ee17ae345cb5f6b5e2c27f5033e8ce7"
          ],
          "data": "0x0000000000000000000000000000000000000000000000000000000000000230",
          "blockHash": "0x585b808094e08d071375407c9c69c2fcaa9f7210ca58a9d6b60ccf95231ed91b",
          "blockNumber": "0x7512c3",
          "transactionHash": "0xac5ba60b4095e3e161fc025621c016b674b200417d1d8bb0b23c5192b66a3365",
          "transactionIndex": "0x2",
          "logIndex": "0x1",
          "removed": false
        }
      ],
      "logsBloom": "0x00000000000000000000000000000000000000020000000000000000000000000000000000000000000000000000000000000000000000000000000000000000000000000000000000000008040000000000000000000000000000000000000000000000020000040000000000000800002000000000800000000010000000000000000000000000000000000000000000000000000000100000000000000000000000000000000000000000000000002000000000004000000000000000008000000002000000000000000000000000000000000000000000000000000020000000000000000000200000800000000000000000100000000000000000000000",
      "type": "0x2",
      "transactionHash": "0xac5ba60b4095e3e161fc025621c016b674b200417d1d8bb0b23c5192b66a3365",
      "transactionIndex": "0x2",
      "blockHash": "0x585b808094e08d071375407c9c69c2fcaa9f7210ca58a9d6b60ccf95231ed91b",
      "blockNumber": "0x7512c3",
      "gasUsed": "0x2ccb8",
      "effectiveGasPrice": "0xfd",
      "from": "0xcda2fdb452ff4f5d7ba1c3d5dfcc9cb926a5eb7d",
      "to": "0x79dfbed14077b8f2421eece5707a17b161094e6a",
      "contractAddress": null,
      "l1BaseFeeScalar": "0x186a0",
      "l1BlobBaseFee": "0x1",
      "l1BlobBaseFeeScalar": "0x95506",
      "l1Fee": "0x18a8dad663d",
      "l1GasPrice": "0x277491570",
      "l1GasUsed": "0x640"
    },
    {
      "status": "0x1",
      "cumulativeGasUsed": "0x6d938",
      "logs": [
        {
          "address": "0x2e8af9c5922623058aa92a183b391e62cb6b2d12",
          "topics": [
            "0xddf252ad1be2c89b69c2b068fc378daa952ba7f163c4a11628f55a4df523b3ef",
            "0x0000000000000000000000000000000000000000000000000000000000000000",
            "0x000000000000000000000000cda2fdb452ff4f5d7ba1c3d5dfcc9cb926a5eb7d",
            "0x0000000000000000000000000000000000000000000000000000000000000231"
          ],
          "data": "0x",
          "blockHash": "0x585b808094e08d071375407c9c69c2fcaa9f7210ca58a9d6b60ccf95231ed91b",
          "blockNumber": "0x7512c3",
          "transactionHash": "0xee0d32a5410b33bbf4a6142eeee0b96802bf189149f0a4812326b83f459cfdf6",
          "transactionIndex": "0x3",
          "logIndex": "0x2",
          "removed": false
        },
        {
          "address": "0x2e8af9c5922623058aa92a183b391e62cb6b2d12",
          "topics": [
            "0xf8e1a15aba9398e019f0b49df1a4fde98ee17ae345cb5f6b5e2c27f5033e8ce7"
          ],
          "data": "0x0000000000000000000000000000000000000000000000000000000000000231",
          "blockHash": "0x585b808094e08d071375407c9c69c2fcaa9f7210ca58a9d6b60ccf95231ed91b",
          "blockNumber": "0x7512c3",
          "transactionHash": "0xee0d32a5410b33bbf4a6142eeee0b96802bf189149f0a4812326b83f459cfdf6",
          "transactionIndex": "0x3",
          "logIndex": "0x3",
          "removed": false
        }
      ],
      "logsBloom": "0x00000000000000000000000000000000000000020000000000000000000000000000000000000000000000000000000000000000002000000000000000000000000000000000000000000008040000002000000000000000000000000000000000000000020000000000000000000800002000000000800000000010000000000000000000000000000000000000000000000000000000000000000000000000000000000000000200000000000000002000000000004000000000000000008000000002000000000000000000000000000000000000000000000000000020000000000000000000200000000000000000000000100000000000000000000000",
      "type": "0x2",
      "transactionHash": "0xee0d32a5410b33bbf4a6142eeee0b96802bf189149f0a4812326b83f459cfdf6",
      "transactionIndex": "0x3",
      "blockHash": "0x585b808094e08d071375407c9c69c2fcaa9f7210ca58a9d6b60ccf95231ed91b",
      "blockNumber": "0x7512c3",
      "gasUsed": "0x2ccb8",
      "effectiveGasPrice": "0xfd",
      "from": "0xcda2fdb452ff4f5d7ba1c3d5dfcc9cb926a5eb7d",
      "to": "0x79dfbed14077b8f2421eece5707a17b161094e6a",
      "contractAddress": null,
      "l1BaseFeeScalar": "0x186a0",
      "l1BlobBaseFee": "0x1",
      "l1BlobBaseFeeScalar": "0x95506",
      "l1Fee": "0x18a8dad663d",
      "l1GasPrice": "0x277491570",
      "l1GasUsed": "0x640"
    },
    {
      "status": "0x1",
      "cumulativeGasUsed": "0x3780f",
      "logs": [
        {
          "address": "0x2e8af9c5922623058aa92a183b391e62cb6b2d12",
          "topics": [
            "0xddf252ad1be2c89b69c2b068fc378daa952ba7f163c4a11628f55a4df523b3ef",
            "0x0000000000000000000000000000000000000000000000000000000000000000",
            "0x000000000000000000000000cda2fdb452ff4f5d7ba1c3d5dfcc9cb926a5eb7d",
            "0x0000000000000000000000000000000000000000000000000000000000000232"
          ],
          "data": "0x",
          "blockHash": "0x8b27523836c01a7108728a39d238d4c5a00ea5b821666fa0e5e5a41d478b1768",
          "blockNumber": "0x7512c4",
          "transactionHash": "0x5a840331de0ea08f6f256ab8dd4d7932c6b841a6ce49231de60ff448a9c82fcc",
          "transactionIndex": "0x1",
          "logIndex": "0x0",
          "removed": false
        },
        {
          "address": "0x2e8af9c5922623058aa92a183b391e62cb6b2d12",
          "topics": [
            "0xf8e1a15aba9398e019f0b49df1a4fde98ee17ae345cb5f6b5e2c27f5033e8ce7"
          ],
          "data": "0x0000000000000000000000000000000000000000000000000000000000000232",
          "blockHash": "0x8b27523836c01a7108728a39d238d4c5a00ea5b821666fa0e5e5a41d478b1768",
          "blockNumber": "0x7512c4",
          "transactionHash": "0x5a840331de0ea08f6f256ab8dd4d7932c6b841a6ce49231de60ff448a9c82fcc",
          "transactionIndex": "0x1",
          "logIndex": "0x1",
          "removed": false
        }
      ],
      "logsBloom": "0x20000000000000000000000000000004000000020000000000000000000000000000000000000000000000000000000000000000000000000000000000000000000000000000000000000008040000000000000000000000000000000000000000000000020000000000000000000800002000000000800000004010000000000000000000000000000000000000000000000000000000000000000000000000000000000000000000000000000000002000000000004000000000000000008000000002000000000000000000000000000000000000000000000000000020000000000000000000200000000000000000000000100000000000000000000000",
      "type": "0x2",
      "transactionHash": "0x5a840331de0ea08f6f256ab8dd4d7932c6b841a6ce49231de60ff448a9c82fcc",
      "transactionIndex": "0x1",
      "blockHash": "0x8b27523836c01a7108728a39d238d4c5a00ea5b821666fa0e5e5a41d478b1768",
      "blockNumber": "0x7512c4",
      "gasUsed": "0x2ccb8",
      "effectiveGasPrice": "0xfd",
      "from": "0xcda2fdb452ff4f5d7ba1c3d5dfcc9cb926a5eb7d",
      "to": "0x79dfbed14077b8f2421eece5707a17b161094e6a",
      "contractAddress": null,
      "l1BaseFeeScalar": "0x186a0",
      "l1BlobBaseFee": "0x1",
      "l1BlobBaseFeeScalar": "0x95506",
      "l1Fee": "0x18a8dad663d",
      "l1GasPrice": "0x277491570",
      "l1GasUsed": "0x640"
    },
    {
      "status": "0x1",
      "cumulativeGasUsed": "0x644c7",
      "logs": [
        {
          "address": "0x2e8af9c5922623058aa92a183b391e62cb6b2d12",
          "topics": [
            "0xddf252ad1be2c89b69c2b068fc378daa952ba7f163c4a11628f55a4df523b3ef",
            "0x0000000000000000000000000000000000000000000000000000000000000000",
            "0x000000000000000000000000cda2fdb452ff4f5d7ba1c3d5dfcc9cb926a5eb7d",
            "0x0000000000000000000000000000000000000000000000000000000000000233"
          ],
          "data": "0x",
          "blockHash": "0x8b27523836c01a7108728a39d238d4c5a00ea5b821666fa0e5e5a41d478b1768",
          "blockNumber": "0x7512c4",
          "transactionHash": "0xf936e37104f1ad7d9c36204f939a4af86052ba3a4efd4bb719e81a3f0bf32d61",
          "transactionIndex": "0x2",
          "logIndex": "0x2",
          "removed": false
        },
        {
          "address": "0x2e8af9c5922623058aa92a183b391e62cb6b2d12",
          "topics": [
            "0xf8e1a15aba9398e019f0b49df1a4fde98ee17ae345cb5f6b5e2c27f5033e8ce7"
          ],
          "data": "0x0000000000000000000000000000000000000000000000000000000000000233",
          "blockHash": "0x8b27523836c01a7108728a39d238d4c5a00ea5b821666fa0e5e5a41d478b1768",
          "blockNumber": "0x7512c4",
          "transactionHash": "0xf936e37104f1ad7d9c36204f939a4af86052ba3a4efd4bb719e81a3f0bf32d61",
          "transactionIndex": "0x2",
          "logIndex": "0x3",
          "removed": false
        }
      ],
      "logsBloom": "0x00000000000000000000000100000000000000020000000000000000000000000000000000000000000000000000000000000000000000000000000000001000000000000000000000000008040000000000000000000000000000000000000000000000020000000000000000000800002000000000800000000010000000000000000000000000000000000000000000000000000000000000000000000000000000000000000000000000000000002008000000004000000000000000008000000002000000000000000000000000000000000000000000000000000020000000000000000000200000000000000000000000100000000000000000000000",
      "type": "0x2",
      "transactionHash": "0xf936e37104f1ad7d9c36204f939a4af86052ba3a4efd4bb719e81a3f0bf32d61",
      "transactionIndex": "0x2",
      "blockHash": "0x8b27523836c01a7108728a39d238d4c5a00ea5b821666fa0e5e5a41d478b1768",
      "blockNumber": "0x7512c4",
      "gasUsed": "0x2ccb8",
      "effectiveGasPrice": "0xfd",
      "from": "0xcda2fdb452ff4f5d7ba1c3d5dfcc9cb926a5eb7d",
      "to": "0x79dfbed14077b8f2421eece5707a17b161094e6a",
      "contractAddress": null,
      "l1BaseFeeScalar": "0x186a0",
      "l1BlobBaseFee": "0x1",
      "l1BlobBaseFeeScalar": "0x95506",
      "l1Fee": "0x18a8dad663d",
      "l1GasPrice": "0x277491570",
      "l1GasUsed": "0x640"
    },
    {
      "status": "0x1",
      "cumulativeGasUsed": "0x9117f",
      "logs": [
        {
          "address": "0x2e8af9c5922623058aa92a183b391e62cb6b2d12",
          "topics": [
            "0xddf252ad1be2c89b69c2b068fc378daa952ba7f163c4a11628f55a4df523b3ef",
            "0x0000000000000000000000000000000000000000000000000000000000000000",
            "0x000000000000000000000000cda2fdb452ff4f5d7ba1c3d5dfcc9cb926a5eb7d",
            "0x0000000000000000000000000000000000000000000000000000000000000234"
          ],
          "data": "0x",
          "blockHash": "0x8b27523836c01a7108728a39d238d4c5a00ea5b821666fa0e5e5a41d478b1768",
          "blockNumber": "0x7512c4",
          "transactionHash": "0x4836f6ff5b16386c9cddc222d05c731f9ccbaad8c00902a07b1796ae9122a3b9",
          "transactionIndex": "0x3",
          "logIndex": "0x4",
          "removed": false
        },
        {
          "address": "0x2e8af9c5922623058aa92a183b391e62cb6b2d12",
          "topics": [
            "0xf8e1a15aba9398e019f0b49df1a4fde98ee17ae345cb5f6b5e2c27f5033e8ce7"
          ],
          "data": "0x0000000000000000000000000000000000000000000000000000000000000234",
          "blockHash": "0x8b27523836c01a7108728a39d238d4c5a00ea5b821666fa0e5e5a41d478b1768",
          "blockNumber": "0x7512c4",
          "transactionHash": "0x4836f6ff5b16386c9cddc222d05c731f9ccbaad8c00902a07b1796ae9122a3b9",
          "transactionIndex": "0x3",
          "logIndex": "0x5",
          "removed": false
        }
      ],
      "logsBloom": "0x00000000040000000000000000000000000000020000000000000000000000000000000000000000000000000000000000000000000000000000000000000000000000000000000000000008040000000000000000000000000000000000000000000000020000000000000000000800002000000000800000000010000000000000000000000000000000000000000000000000000000000000000000000000000000000000000000000000000000002000000000004000000000000000008000000002000000000000000000000000000000000000000000000000000020000000010000000000200000000000000000000000100000010000000000000000",
      "type": "0x2",
      "transactionHash": "0x4836f6ff5b16386c9cddc222d05c731f9ccbaad8c00902a07b1796ae9122a3b9",
      "transactionIndex": "0x3",
      "blockHash": "0x8b27523836c01a7108728a39d238d4c5a00ea5b821666fa0e5e5a41d478b1768",
      "blockNumber": "0x7512c4",
      "gasUsed": "0x2ccb8",
      "effectiveGasPrice": "0xfd",
      "from": "0xcda2fdb452ff4f5d7ba1c3d5dfcc9cb926a5eb7d",
      "to": "0x79dfbed14077b8f2421eece5707a17b161094e6a",
      "contractAddress": null,
      "l1BaseFeeScalar": "0x186a0",
      "l1BlobBaseFee": "0x1",
      "l1BlobBaseFeeScalar": "0x95506",
      "l1Fee": "0x18a8dad663d",
      "l1GasPrice": "0x277491570",
      "l1GasUsed": "0x640"
    },
    {
      "status": "0x1",
      "cumulativeGasUsed": "0xbde37",
      "logs": [
        {
          "address": "0x2e8af9c5922623058aa92a183b391e62cb6b2d12",
          "topics": [
            "0xddf252ad1be2c89b69c2b068fc378daa952ba7f163c4a11628f55a4df523b3ef",
            "0x0000000000000000000000000000000000000000000000000000000000000000",
            "0x000000000000000000000000cda2fdb452ff4f5d7ba1c3d5dfcc9cb926a5eb7d",
            "0x0000000000000000000000000000000000000000000000000000000000000235"
          ],
          "data": "0x",
          "blockHash": "0x8b27523836c01a7108728a39d238d4c5a00ea5b821666fa0e5e5a41d478b1768",
          "blockNumber": "0x7512c4",
          "transactionHash": "0x6c5d5925fb28ddac3e4c988e99676b4016271bf3a1da5d1718d2f8ee193e54c4",
          "transactionIndex": "0x4",
          "logIndex": "0x6",
          "removed": false
        },
        {
          "address": "0x2e8af9c5922623058aa92a183b391e62cb6b2d12",
          "topics": [
            "0xf8e1a15aba9398e019f0b49df1a4fde98ee17ae345cb5f6b5e2c27f5033e8ce7"
          ],
          "data": "0x0000000000000000000000000000000000000000000000000000000000000235",
          "blockHash": "0x8b27523836c01a7108728a39d238d4c5a00ea5b821666fa0e5e5a41d478b1768",
          "blockNumber": "0x7512c4",
          "transactionHash": "0x6c5d5925fb28ddac3e4c988e99676b4016271bf3a1da5d1718d2f8ee193e54c4",
          "transactionIndex": "0x4",
          "logIndex": "0x7",
          "removed": false
        }
      ],
      "logsBloom": "0x00000000000000000000000100000000000000020000000000000000000000000000000000000000000000000000000000100000000000000000000000000000000000000000000000000008040000000000000000000000000000000000000000000000030000000000000000000800002000000000800000000010000000000000000000000000000000000000000000000000000000000000000000000000000000000000000000000000000000002000000000004000000000000000008000000002000000000000000000000000000000000000000000000000000020000000000000000000200000000000000000000000100000000000000000000000",
      "type": "0x2",
      "transactionHash": "0x6c5d5925fb28ddac3e4c988e99676b4016271bf3a1da5d1718d2f8ee193e54c4",
      "transactionIndex": "0x4",
      "blockHash": "0x8b27523836c01a7108728a39d238d4c5a00ea5b821666fa0e5e5a41d478b1768",
      "blockNumber": "0x7512c4",
      "gasUsed": "0x2ccb8",
      "effectiveGasPrice": "0xfd",
      "from": "0xcda2fdb452ff4f5d7ba1c3d5dfcc9cb926a5eb7d",
      "to": "0x79dfbed14077b8f2421eece5707a17b161094e6a",
      "contractAddress": null,
      "l1BaseFeeScalar": "0x186a0",
      "l1BlobBaseFee": "0x1",
      "l1BlobBaseFeeScalar": "0x95506",
      "l1Fee": "0x18a8dad663d",
      "l1GasPrice": "0x277491570",
      "l1GasUsed": "0x640"
    },
    {
      "status": "0x1",
      "cumulativeGasUsed": "0xeaaef",
      "logs": [
        {
          "address": "0x2e8af9c5922623058aa92a183b391e62cb6b2d12",
          "topics": [
            "0xddf252ad1be2c89b69c2b068fc378daa952ba7f163c4a11628f55a4df523b3ef",
            "0x0000000000000000000000000000000000000000000000000000000000000000",
            "0x000000000000000000000000cda2fdb452ff4f5d7ba1c3d5dfcc9cb926a5eb7d",
            "0x0000000000000000000000000000000000000000000000000000000000000236"
          ],
          "data": "0x",
          "blockHash": "0x8b27523836c01a7108728a39d238d4c5a00ea5b821666fa0e5e5a41d478b1768",
          "blockNumber": "0x7512c4",
          "transactionHash": "0x8f1cc6ab7513741f40d65c0fa2043f916eb23c66f1e7b5669878aaf6d0fef769",
          "transactionIndex": "0x5",
          "logIndex": "0x8",
          "removed": false
        },
        {
          "address": "0x2e8af9c5922623058aa92a183b391e62cb6b2d12",
          "topics": [
            "0xf8e1a15aba9398e019f0b49df1a4fde98ee17ae345cb5f6b5e2c27f5033e8ce7"
          ],
          "data": "0x0000000000000000000000000000000000000000000000000000000000000236",
          "blockHash": "0x8b27523836c01a7108728a39d238d4c5a00ea5b821666fa0e5e5a41d478b1768",
          "blockNumber": "0x7512c4",
          "transactionHash": "0x8f1cc6ab7513741f40d65c0fa2043f916eb23c66f1e7b5669878aaf6d0fef769",
          "transactionIndex": "0x5",
          "logIndex": "0x9",
          "removed": false
        }
      ],
      "logsBloom": "0x00000000000000008000000000000000000000020000000000000000000000000000000000000000000000000000000000000000000000000000000000000000000000000000200000000008040000200000000000000000000000000000000000000000020000000000000000000800002000000000800000000010000000000000000000000000000000000000000000000000000000000000000000000000000000000000000000000000000000002000000000004000000000000000008000000002000000000000000000000000000000000000000000000000000020000000000000000000200000000000000000000000100000000000000000000000",
      "type": "0x2",
      "transactionHash": "0x8f1cc6ab7513741f40d65c0fa2043f916eb23c66f1e7b5669878aaf6d0fef769",
      "transactionIndex": "0x5",
      "blockHash": "0x8b27523836c01a7108728a39d238d4c5a00ea5b821666fa0e5e5a41d478b1768",
      "blockNumber": "0x7512c4",
      "gasUsed": "0x2ccb8",
      "effectiveGasPrice": "0xfd",
      "from": "0xcda2fdb452ff4f5d7ba1c3d5dfcc9cb926a5eb7d",
      "to": "0x79dfbed14077b8f2421eece5707a17b161094e6a",
      "contractAddress": null,
      "l1BaseFeeScalar": "0x186a0",
      "l1BlobBaseFee": "0x1",
      "l1BlobBaseFeeScalar": "0x95506",
      "l1Fee": "0x18a8dad663d",
      "l1GasPrice": "0x277491570",
      "l1GasUsed": "0x640"
    },
    {
      "status": "0x1",
      "cumulativeGasUsed": "0x1177a7",
      "logs": [
        {
          "address": "0x2e8af9c5922623058aa92a183b391e62cb6b2d12",
          "topics": [
            "0xddf252ad1be2c89b69c2b068fc378daa952ba7f163c4a11628f55a4df523b3ef",
            "0x0000000000000000000000000000000000000000000000000000000000000000",
            "0x000000000000000000000000cda2fdb452ff4f5d7ba1c3d5dfcc9cb926a5eb7d",
            "0x0000000000000000000000000000000000000000000000000000000000000237"
          ],
          "data": "0x",
          "blockHash": "0x8b27523836c01a7108728a39d238d4c5a00ea5b821666fa0e5e5a41d478b1768",
          "blockNumber": "0x7512c4",
          "transactionHash": "0x8a34b20534a4dc1f717ca5062422e2ef4184a4915d76886db4b8a6ab550b1056",
          "transactionIndex": "0x6",
          "logIndex": "0xa",
          "removed": false
        },
        {
          "address": "0x2e8af9c5922623058aa92a183b391e62cb6b2d12",
          "topics": [
            "0xf8e1a15aba9398e019f0b49df1a4fde98ee17ae345cb5f6b5e2c27f5033e8ce7"
          ],
          "data": "0x0000000000000000000000000000000000000000000000000000000000000237",
          "blockHash": "0x8b27523836c01a7108728a39d238d4c5a00ea5b821666fa0e5e5a41d478b1768",
          "blockNumber": "0x7512c4",
          "transactionHash": "0x8a34b20534a4dc1f717ca5062422e2ef4184a4915d76886db4b8a6ab550b1056",
          "transactionIndex": "0x6",
          "logIndex": "0xb",
          "removed": false
        }
      ],
      "logsBloom": "0x00000000000001000000000000000000000000020000000000000000000000000000000000000000000000000000000000000000000000000000000000000000000000000000000000000008040000000000000000000000000000000000000000000000020000000000000000000800002000000000800000000010000000000000000000000000000000000000000000000200000000000000000000000000000000000000000000000000000000002000000000004000000000000000008000000002000000000000000000000000000000000000000000000000000020000000000000000000200000000000000000080000100000000000000000000000",
      "type": "0x2",
      "transactionHash": "0x8a34b20534a4dc1f717ca5062422e2ef4184a4915d76886db4b8a6ab550b1056",
      "transactionIndex": "0x6",
      "blockHash": "0x8b27523836c01a7108728a39d238d4c5a00ea5b821666fa0e5e5a41d478b1768",
      "blockNumber": "0x7512c4",
      "gasUsed": "0x2ccb8",
      "effectiveGasPrice": "0xfd",
      "from": "0xcda2fdb452ff4f5d7ba1c3d5dfcc9cb926a5eb7d",
      "to": "0x79dfbed14077b8f2421eece5707a17b161094e6a",
      "contractAddress": null,
      "l1BaseFeeScalar": "0x186a0",
      "l1BlobBaseFee": "0x1",
      "l1BlobBaseFeeScalar": "0x95506",
      "l1Fee": "0x18a8dad663d",
      "l1GasPrice": "0x277491570",
      "l1GasUsed": "0x640"
    },
    {
      "status": "0x1",
      "cumulativeGasUsed": "0x14445f",
      "logs": [
        {
          "address": "0x2e8af9c5922623058aa92a183b391e62cb6b2d12",
          "topics": [
            "0xddf252ad1be2c89b69c2b068fc378daa952ba7f163c4a11628f55a4df523b3ef",
            "0x0000000000000000000000000000000000000000000000000000000000000000",
            "0x000000000000000000000000cda2fdb452ff4f5d7ba1c3d5dfcc9cb926a5eb7d",
            "0x0000000000000000000000000000000000000000000000000000000000000238"
          ],
          "data": "0x",
          "blockHash": "0x8b27523836c01a7108728a39d238d4c5a00ea5b821666fa0e5e5a41d478b1768",
          "blockNumber": "0x7512c4",
          "transactionHash": "0x9f469e28eb03da7c6f8635ee4c4bf0302fc4ffa92866855d7a0b0d7c1221874b",
          "transactionIndex": "0x7",
          "logIndex": "0xc",
          "removed": false
        },
        {
          "address": "0x2e8af9c5922623058aa92a183b391e62cb6b2d12",
          "topics": [
            "0xf8e1a15aba9398e019f0b49df1a4fde98ee17ae345cb5f6b5e2c27f5033e8ce7"
          ],
          "data": "0x0000000000000000000000000000000000000000000000000000000000000238",
          "blockHash": "0x8b27523836c01a7108728a39d238d4c5a00ea5b821666fa0e5e5a41d478b1768",
          "blockNumber": "0x7512c4",
          "transactionHash": "0x9f469e28eb03da7c6f8635ee4c4bf0302fc4ffa92866855d7a0b0d7c1221874b",
          "transactionIndex": "0x7",
          "logIndex": "0xd",
          "removed": false
        }
      ],
      "logsBloom": "0x00000000000000000000000000000000000000020000000000000000000000000000000000400000000000000000000000000000000000000000000000000000000000000000000000000008040000000000000000000000000000000000000000000000020000000000000000000800002000000000800000000210000000000000000000000000000000000000000000000000000000000000000000000000000000000000000000000000000000102000000000004000000000000000008000000002000000000000000000000000000000000000000000000000000020000000000000000000200000000000000000000000100000000000000000000000",
      "type": "0x2",
      "transactionHash": "0x9f469e28eb03da7c6f8635ee4c4bf0302fc4ffa92866855d7a0b0d7c1221874b",
      "transactionIndex": "0x7",
      "blockHash": "0x8b27523836c01a7108728a39d238d4c5a00ea5b821666fa0e5e5a41d478b1768",
      "blockNumber": "0x7512c4",
      "gasUsed": "0x2ccb8",
      "effectiveGasPrice": "0xfd",
      "from": "0xcda2fdb452ff4f5d7ba1c3d5dfcc9cb926a5eb7d",
      "to": "0x79dfbed14077b8f2421eece5707a17b161094e6a",
      "contractAddress": null,
      "l1BaseFeeScalar": "0x186a0",
      "l1BlobBaseFee": "0x1",
      "l1BlobBaseFeeScalar": "0x95506",
      "l1Fee": "0x18a8dad663d",
      "l1GasPrice": "0x277491570",
      "l1GasUsed": "0x640"
    },
    {
      "status": "0x1",
      "cumulativeGasUsed": "0x171117",
      "logs": [
        {
          "address": "0x2e8af9c5922623058aa92a183b391e62cb6b2d12",
          "topics": [
            "0xddf252ad1be2c89b69c2b068fc378daa952ba7f163c4a11628f55a4df523b3ef",
            "0x0000000000000000000000000000000000000000000000000000000000000000",
            "0x000000000000000000000000cda2fdb452ff4f5d7ba1c3d5dfcc9cb926a5eb7d",
            "0x0000000000000000000000000000000000000000000000000000000000000239"
          ],
          "data": "0x",
          "blockHash": "0x8b27523836c01a7108728a39d238d4c5a00ea5b821666fa0e5e5a41d478b1768",
          "blockNumber": "0x7512c4",
          "transactionHash": "0xccab3d33c2495aac0b34848587258493f9c1cbbd4978c6fd6098d8d8769fb128",
          "transactionIndex": "0x8",
          "logIndex": "0xe",
          "removed": false
        },
        {
          "address": "0x2e8af9c5922623058aa92a183b391e62cb6b2d12",
          "topics": [
            "0xf8e1a15aba9398e019f0b49df1a4fde98ee17ae345cb5f6b5e2c27f5033e8ce7"
          ],
          "data": "0x0000000000000000000000000000000000000000000000000000000000000239",
          "blockHash": "0x8b27523836c01a7108728a39d238d4c5a00ea5b821666fa0e5e5a41d478b1768",
          "blockNumber": "0x7512c4",
          "transactionHash": "0xccab3d33c2495aac0b34848587258493f9c1cbbd4978c6fd6098d8d8769fb128",
          "transactionIndex": "0x8",
          "logIndex": "0xf",
          "removed": false
        }
      ],
      "logsBloom": "0x00000000000000000000000000000000000000020000000000000000000000000000000000000000100000000000000000000000000001000000000000000000000000000000000000000008040000000000000000000000000000000000000000000000020000000000000000000800002000000000800000000010000000000000000000000000000000000000000000000000000000000000000000000000000000000000000000000000000000002000000000004000000000000000008000000002000000000000000000000000000000000000000000000000000020000000000000000000200000000000000000000000100000000000000040000000",
      "type": "0x2",
      "transactionHash": "0xccab3d33c2495aac0b34848587258493f9c1cbbd4978c6fd6098d8d8769fb128",
      "transactionIndex": "0x8",
      "blockHash": "0x8b27523836c01a7108728a39d238d4c5a00ea5b821666fa0e5e5a41d478b1768",
      "blockNumber": "0x7512c4",
      "gasUsed": "0x2ccb8",
      "effectiveGasPrice": "0xfd",
      "from": "0xcda2fdb452ff4f5d7ba1c3d5dfcc9cb926a5eb7d",
      "to": "0x79dfbed14077b8f2421eece5707a17b161094e6a",
      "contractAddress": null,
      "l1BaseFeeScalar": "0x186a0",
      "l1BlobBaseFee": "0x1",
      "l1BlobBaseFeeScalar": "0x95506",
      "l1Fee": "0x18a8dad663d",
      "l1GasPrice": "0x277491570",
      "l1GasUsed": "0x640"
    },
    {
      "status": "0x1",
      "cumulativeGasUsed": "0x55936",
      "logs": [
        {
          "address": "0x2e8af9c5922623058aa92a183b391e62cb6b2d12",
          "topics": [
            "0xddf252ad1be2c89b69c2b068fc378daa952ba7f163c4a11628f55a4df523b3ef",
            "0x0000000000000000000000000000000000000000000000000000000000000000",
            "0x000000000000000000000000cda2fdb452ff4f5d7ba1c3d5dfcc9cb926a5eb7d",
            "0x000000000000000000000000000000000000000000000000000000000000023a"
          ],
          "data": "0x",
          "blockHash": "0xac84929c2e0db876d2603bf12926446ca3e62aa0e891bf113f84cad03ffec350",
          "blockNumber": "0x7512c5",
          "transactionHash": "0x1fdd5be2557c7120fab3775bf13f47c2e7e3a604d7b260a9d9024d163a24cba3",
          "transactionIndex": "0x2",
          "logIndex": "0x4",
          "removed": false
        },
        {
          "address": "0x2e8af9c5922623058aa92a183b391e62cb6b2d12",
          "topics": [
            "0xf8e1a15aba9398e019f0b49df1a4fde98ee17ae345cb5f6b5e2c27f5033e8ce7"
          ],
          "data": "0x000000000000000000000000000000000000000000000000000000000000023a",
          "blockHash": "0xac84929c2e0db876d2603bf12926446ca3e62aa0e891bf113f84cad03ffec350",
          "blockNumber": "0x7512c5",
          "transactionHash": "0x1fdd5be2557c7120fab3775bf13f47c2e7e3a604d7b260a9d9024d163a24cba3",
          "transactionIndex": "0x2",
          "logIndex": "0x5",
          "removed": false
        }
      ],
      "logsBloom": "0x00000000000000000000000000000000000000020000000080000000000000000000000000000000000000000000000000000000000000000000000000000000000000000000000000000008040000000000000000000000000000000000000000000000020000000000000000000800002000000000800000000010000000000000000000000000000000000000000000000000000000000000000000000000000000000000000000000000000000002000000000004000000000000000008000000002000000000001000000000000000000000000000000000000000020000000000000000000200000000000000000000000100000000000000020000000",
      "type": "0x2",
      "transactionHash": "0x1fdd5be2557c7120fab3775bf13f47c2e7e3a604d7b260a9d9024d163a24cba3",
      "transactionIndex": "0x2",
      "blockHash": "0xac84929c2e0db876d2603bf12926446ca3e62aa0e891bf113f84cad03ffec350",
      "blockNumber": "0x7512c5",
      "gasUsed": "0x2ccb8",
      "effectiveGasPrice": "0xfd",
      "from": "0xcda2fdb452ff4f5d7ba1c3d5dfcc9cb926a5eb7d",
      "to": "0x79dfbed14077b8f2421eece5707a17b161094e6a",
      "contractAddress": null,
      "l1BaseFeeScalar": "0x186a0",
      "l1BlobBaseFee": "0x1",
      "l1BlobBaseFeeScalar": "0x95506",
      "l1Fee": "0x18a8dad663d",
      "l1GasPrice": "0x277491570",
      "l1GasUsed": "0x640"
    },
    {
      "status": "0x1",
      "cumulativeGasUsed": "0x825ee",
      "logs": [
        {
          "address": "0x2e8af9c5922623058aa92a183b391e62cb6b2d12",
          "topics": [
            "0xddf252ad1be2c89b69c2b068fc378daa952ba7f163c4a11628f55a4df523b3ef",
            "0x0000000000000000000000000000000000000000000000000000000000000000",
            "0x000000000000000000000000cda2fdb452ff4f5d7ba1c3d5dfcc9cb926a5eb7d",
            "0x000000000000000000000000000000000000000000000000000000000000023b"
          ],
          "data": "0x",
          "blockHash": "0xac84929c2e0db876d2603bf12926446ca3e62aa0e891bf113f84cad03ffec350",
          "blockNumber": "0x7512c5",
          "transactionHash": "0x18f038efae825fd439006b8ed89ba56396b7946e58d4964c2a87977b67b5d291",
          "transactionIndex": "0x3",
          "logIndex": "0x6",
          "removed": false
        },
        {
          "address": "0x2e8af9c5922623058aa92a183b391e62cb6b2d12",
          "topics": [
            "0xf8e1a15aba9398e019f0b49df1a4fde98ee17ae345cb5f6b5e2c27f5033e8ce7"
          ],
          "data": "0x000000000000000000000000000000000000000000000000000000000000023b",
          "blockHash": "0xac84929c2e0db876d2603bf12926446ca3e62aa0e891bf113f84cad03ffec350",
          "blockNumber": "0x7512c5",
          "transactionHash": "0x18f038efae825fd439006b8ed89ba56396b7946e58d4964c2a87977b67b5d291",
          "transactionIndex": "0x3",
          "logIndex": "0x7",
          "removed": false
        }
      ],
      "logsBloom": "0x00000000000000000000000000000000000000020000000000000000000000000000000000000000000000000000000000000000000000000000000000000001000000000000000000000008040000000000000000000000000000000000000000000000020000000000000000000800002000000000800000000010000000000000000000000000000000000000000000000000000000000000000000000000000000000000000000000000000000002000000000004000002000000000008000000002000000000000000000000000000000000000000000000000000020000000000000000000220000000000000000000000100000000000000000000000",
      "type": "0x2",
      "transactionHash": "0x18f038efae825fd439006b8ed89ba56396b7946e58d4964c2a87977b67b5d291",
      "transactionIndex": "0x3",
      "blockHash": "0xac84929c2e0db876d2603bf12926446ca3e62aa0e891bf113f84cad03ffec350",
      "blockNumber": "0x7512c5",
      "gasUsed": "0x2ccb8",
      "effectiveGasPrice": "0xfd",
      "from": "0xcda2fdb452ff4f5d7ba1c3d5dfcc9cb926a5eb7d",
      "to": "0x79dfbed14077b8f2421eece5707a17b161094e6a",
      "contractAddress": null,
      "l1BaseFeeScalar": "0x186a0",
      "l1BlobBaseFee": "0x1",
      "l1BlobBaseFeeScalar": "0x95506",
      "l1Fee": "0x18a8dad663d",
      "l1GasPrice": "0x277491570",
      "l1GasUsed": "0x640"
    },
    {
      "status": "0x1",
      "cumulativeGasUsed": "0xaf2a6",
      "logs": [
        {
          "address": "0x2e8af9c5922623058aa92a183b391e62cb6b2d12",
          "topics": [
            "0xddf252ad1be2c89b69c2b068fc378daa952ba7f163c4a11628f55a4df523b3ef",
            "0x0000000000000000000000000000000000000000000000000000000000000000",
            "0x000000000000000000000000cda2fdb452ff4f5d7ba1c3d5dfcc9cb926a5eb7d",
            "0x000000000000000000000000000000000000000000000000000000000000023c"
          ],
          "data": "0x",
          "blockHash": "0xac84929c2e0db876d2603bf12926446ca3e62aa0e891bf113f84cad03ffec350",
          "blockNumber": "0x7512c5",
          "transactionHash": "0x376210b7e25b7d4180132858908ca450badd41881dde8313ca04442c8ff92124",
          "transactionIndex": "0x4",
          "logIndex": "0x8",
          "removed": false
        },
        {
          "address": "0x2e8af9c5922623058aa92a183b391e62cb6b2d12",
          "topics": [
            "0xf8e1a15aba9398e019f0b49df1a4fde98ee17ae345cb5f6b5e2c27f5033e8ce7"
          ],
          "data": "0x000000000000000000000000000000000000000000000000000000000000023c",
          "blockHash": "0xac84929c2e0db876d2603bf12926446ca3e62aa0e891bf113f84cad03ffec350",
          "blockNumber": "0x7512c5",
          "transactionHash": "0x376210b7e25b7d4180132858908ca450badd41881dde8313ca04442c8ff92124",
          "transactionIndex": "0x4",
          "logIndex": "0x9",
          "removed": false
        }
      ],
      "logsBloom": "0x00000000000000000000000000000000000000020000000000000000000000000000000000000000000000000000000000000000000000000000000000000000000000000000000000000008040000000000000000000000000000000000000000000000020000000000000000000800002000000000800000000010000000000000000000000000000000000000000000000000000000000000000000000000000000000000000000000000000000002000000000004000000000000000008000000002000000000000000000000000000000000000000000200000000028000000000000000000200000000010000000000000100000000000000000000000",
      "type": "0x2",
      "transactionHash": "0x376210b7e25b7d4180132858908ca450badd41881dde8313ca04442c8ff92124",
      "transactionIndex": "0x4",
      "blockHash": "0xac84929c2e0db876d2603bf12926446ca3e62aa0e891bf113f84cad03ffec350",
      "blockNumber": "0x7512c5",
      "gasUsed": "0x2ccb8",
      "effectiveGasPrice": "0xfd",
      "from": "0xcda2fdb452ff4f5d7ba1c3d5dfcc9cb926a5eb7d",
      "to": "0x79dfbed14077b8f2421eece5707a17b161094e6a",
      "contractAddress": null,
      "l1BaseFeeScalar": "0x186a0",
      "l1BlobBaseFee": "0x1",
      "l1BlobBaseFeeScalar": "0x95506",
      "l1Fee": "0x18a8dad663d",
      "l1GasPrice": "0x277491570",
      "l1GasUsed": "0x640"
    },
    {
      "status": "0x1",
      "cumulativeGasUsed": "0xdbf5e",
      "logs": [
        {
          "address": "0x2e8af9c5922623058aa92a183b391e62cb6b2d12",
          "topics": [
            "0xddf252ad1be2c89b69c2b068fc378daa952ba7f163c4a11628f55a4df523b3ef",
            "0x0000000000000000000000000000000000000000000000000000000000000000",
            "0x000000000000000000000000cda2fdb452ff4f5d7ba1c3d5dfcc9cb926a5eb7d",
            "0x000000000000000000000000000000000000000000000000000000000000023d"
          ],
          "data": "0x",
          "blockHash": "0xac84929c2e0db876d2603bf12926446ca3e62aa0e891bf113f84cad03ffec350",
          "blockNumber": "0x7512c5",
          "transactionHash": "0xc4a08fbdc78f2c72c1f3f36d32a2ab599493bfae5554fd1f462c40ac62cf644f",
          "transactionIndex": "0x5",
          "logIndex": "0xa",
          "removed": false
        },
        {
          "address": "0x2e8af9c5922623058aa92a183b391e62cb6b2d12",
          "topics": [
            "0xf8e1a15aba9398e019f0b49df1a4fde98ee17ae345cb5f6b5e2c27f5033e8ce7"
          ],
          "data": "0x000000000000000000000000000000000000000000000000000000000000023d",
          "blockHash": "0xac84929c2e0db876d2603bf12926446ca3e62aa0e891bf113f84cad03ffec350",
          "blockNumber": "0x7512c5",
          "transactionHash": "0xc4a08fbdc78f2c72c1f3f36d32a2ab599493bfae5554fd1f462c40ac62cf644f",
          "transactionIndex": "0x5",
          "logIndex": "0xb",
          "removed": false
        }
      ],
      "logsBloom": "0x00000000000000000000000000000000000000020000000000000000000000000000000000000000000000000000000000000000000000000000000000000000000000000000000000000008040000001000000000000000000000000000000000000000020000000000000000000800002000000000800000000010000000000000000000000000000000000000000000000000000000000000080000000000000000000000100000000000000000002000000000004000000000000000008000000002000000000000000000000000000000000000000000000000000020000000000000000000200000000000000000000000100000000000000000000000",
      "type": "0x2",
      "transactionHash": "0xc4a08fbdc78f2c72c1f3f36d32a2ab599493bfae5554fd1f462c40ac62cf644f",
      "transactionIndex": "0x5",
      "blockHash": "0xac84929c2e0db876d2603bf12926446ca3e62aa0e891bf113f84cad03ffec350",
      "blockNumber": "0x7512c5",
      "gasUsed": "0x2ccb8",
      "effectiveGasPrice": "0xfd",
      "from": "0xcda2fdb452ff4f5d7ba1c3d5dfcc9cb926a5eb7d",
      "to": "0x79dfbed14077b8f2421eece5707a17b161094e6a",
      "contractAddress": null,
      "l1BaseFeeScalar": "0x186a0",
      "l1BlobBaseFee": "0x1",
      "l1BlobBaseFeeScalar": "0x95506",
      "l1Fee": "0x18a8dad663d",
      "l1GasPrice": "0x277491570",
      "l1GasUsed": "0x640"
    },
    {
      "status": "0x1",
      "cumulativeGasUsed": "0x108c16",
      "logs": [
        {
          "address": "0x2e8af9c5922623058aa92a183b391e62cb6b2d12",
          "topics": [
            "0xddf252ad1be2c89b69c2b068fc378daa952ba7f163c4a11628f55a4df523b3ef",
            "0x0000000000000000000000000000000000000000000000000000000000000000",
            "0x000000000000000000000000cda2fdb452ff4f5d7ba1c3d5dfcc9cb926a5eb7d",
            "0x000000000000000000000000000000000000000000000000000000000000023e"
          ],
          "data": "0x",
          "blockHash": "0xac84929c2e0db876d2603bf12926446ca3e62aa0e891bf113f84cad03ffec350",
          "blockNumber": "0x7512c5",
          "transactionHash": "0x82ebf4cab9a86b3b489ca825201bc3b42b38145c915e35269d18c98e681ec0db",
          "transactionIndex": "0x6",
          "logIndex": "0xc",
          "removed": false
        },
        {
          "address": "0x2e8af9c5922623058aa92a183b391e62cb6b2d12",
          "topics": [
            "0xf8e1a15aba9398e019f0b49df1a4fde98ee17ae345cb5f6b5e2c27f5033e8ce7"
          ],
          "data": "0x000000000000000000000000000000000000000000000000000000000000023e",
          "blockHash": "0xac84929c2e0db876d2603bf12926446ca3e62aa0e891bf113f84cad03ffec350",
          "blockNumber": "0x7512c5",
          "transactionHash": "0x82ebf4cab9a86b3b489ca825201bc3b42b38145c915e35269d18c98e681ec0db",
          "transactionIndex": "0x6",
          "logIndex": "0xd",
          "removed": false
        }
      ],
      "logsBloom": "0x00000000000000000000000000000000000000020000000000000000000000000000000000000000000000000000000000000000000000000000000000000000000000000000000000000008040000000000000000000000000000000000000000000000020000000000000100000800002000000000800000000010000000000000000000000000000000000000000000000000000000000000000000000000000000000008000000000000000000002000000000004000000000000000008000000002000000000000000000000000000400000000000000000000000020000000000000000000200000000000000000000000100000000000000000000000",
      "type": "0x2",
      "transactionHash": "0x82ebf4cab9a86b3b489ca825201bc3b42b38145c915e35269d18c98e681ec0db",
      "transactionIndex": "0x6",
      "blockHash": "0xac84929c2e0db876d2603bf12926446ca3e62aa0e891bf113f84cad03ffec350",
      "blockNumber": "0x7512c5",
      "gasUsed": "0x2ccb8",
      "effectiveGasPrice": "0xfd",
      "from": "0xcda2fdb452ff4f5d7ba1c3d5dfcc9cb926a5eb7d",
      "to": "0x79dfbed14077b8f2421eece5707a17b161094e6a",
      "contractAddress": null,
      "l1BaseFeeScalar": "0x186a0",
      "l1BlobBaseFee": "0x1",
      "l1BlobBaseFeeScalar": "0x95506",
      "l1Fee": "0x18a8dad663d",
      "l1GasPrice": "0x277491570",
      "l1GasUsed": "0x640"
    },
    {
      "status": "0x1",
      "cumulativeGasUsed": "0x1358ce",
      "logs": [
        {
          "address": "0x2e8af9c5922623058aa92a183b391e62cb6b2d12",
          "topics": [
            "0xddf252ad1be2c89b69c2b068fc378daa952ba7f163c4a11628f55a4df523b3ef",
            "0x0000000000000000000000000000000000000000000000000000000000000000",
            "0x000000000000000000000000cda2fdb452ff4f5d7ba1c3d5dfcc9cb926a5eb7d",
            "0x000000000000000000000000000000000000000000000000000000000000023f"
          ],
          "data": "0x",
          "blockHash": "0xac84929c2e0db876d2603bf12926446ca3e62aa0e891bf113f84cad03ffec350",
          "blockNumber": "0x7512c5",
          "transactionHash": "0x9027de7ee92df9a20fbab53f99732169610792dd83921012cceb48274e3cfcb5",
          "transactionIndex": "0x7",
          "logIndex": "0xe",
          "removed": false
        },
        {
          "address": "0x2e8af9c5922623058aa92a183b391e62cb6b2d12",
          "topics": [
            "0xf8e1a15aba9398e019f0b49df1a4fde98ee17ae345cb5f6b5e2c27f5033e8ce7"
          ],
          "data": "0x000000000000000000000000000000000000000000000000000000000000023f",
          "blockHash": "0xac84929c2e0db876d2603bf12926446ca3e62aa0e891bf113f84cad03ffec350",
          "blockNumber": "0x7512c5",
          "transactionHash": "0x9027de7ee92df9a20fbab53f99732169610792dd83921012cceb48274e3cfcb5",
          "transactionIndex": "0x7",
          "logIndex": "0xf",
          "removed": false
        }
      ],
      "logsBloom": "0x00000000000000000000000000000000000000020000000000000000000000000010000000000000000000000000000000000000000000000000000000000000000000000000000000000008040000000000000000000000000000000000000000000000020000000000000000000800002000000000800000000010000000000000000000000000000000000000000000000000000000000000000000000000000000000000000000000000000000002000000000004000000000000000008000000002000000000000000000000000000000000000000000000000000020000000000000400000200000080000000000000000100000000000000000000000",
      "type": "0x2",
      "transactionHash": "0x9027de7ee92df9a20fbab53f99732169610792dd83921012cceb48274e3cfcb5",
      "transactionIndex": "0x7",
      "blockHash": "0xac84929c2e0db876d2603bf12926446ca3e62aa0e891bf113f84cad03ffec350",
      "blockNumber": "0x7512c5",
      "gasUsed": "0x2ccb8",
      "effectiveGasPrice": "0xfd",
      "from": "0xcda2fdb452ff4f5d7ba1c3d5dfcc9cb926a5eb7d",
      "to": "0x79dfbed14077b8f2421eece5707a17b161094e6a",
      "contractAddress": null,
      "l1BaseFeeScalar": "0x186a0",
      "l1BlobBaseFee": "0x1",
      "l1BlobBaseFeeScalar": "0x95506",
      "l1Fee": "0x18a8dad663d",
      "l1GasPrice": "0x277491570",
      "l1GasUsed": "0x640"
    },
    {
      "status": "0x1",
      "cumulativeGasUsed": "0x162586",
      "logs": [
        {
          "address": "0x2e8af9c5922623058aa92a183b391e62cb6b2d12",
          "topics": [
            "0xddf252ad1be2c89b69c2b068fc378daa952ba7f163c4a11628f55a4df523b3ef",
            "0x0000000000000000000000000000000000000000000000000000000000000000",
            "0x000000000000000000000000cda2fdb452ff4f5d7ba1c3d5dfcc9cb926a5eb7d",
            "0x0000000000000000000000000000000000000000000000000000000000000240"
          ],
          "data": "0x",
          "blockHash": "0xac84929c2e0db876d2603bf12926446ca3e62aa0e891bf113f84cad03ffec350",
          "blockNumber": "0x7512c5",
          "transactionHash": "0x1f4856953af584a245652c92fc54a9a20923cb78bbc69038d8d698e2772d1b5b",
          "transactionIndex": "0x8",
          "logIndex": "0x10",
          "removed": false
        },
        {
          "address": "0x2e8af9c5922623058aa92a183b391e62cb6b2d12",
          "topics": [
            "0xf8e1a15aba9398e019f0b49df1a4fde98ee17ae345cb5f6b5e2c27f5033e8ce7"
          ],
          "data": "0x0000000000000000000000000000000000000000000000000000000000000240",
          "blockHash": "0xac84929c2e0db876d2603bf12926446ca3e62aa0e891bf113f84cad03ffec350",
          "blockNumber": "0x7512c5",
          "transactionHash": "0x1f4856953af584a245652c92fc54a9a20923cb78bbc69038d8d698e2772d1b5b",
          "transactionIndex": "0x8",
          "logIndex": "0x11",
          "removed": false
        }
      ],
      "logsBloom": "0x00000000000000000000008000000000000000020000000000000000000000000000000000000000000000000000000000000000000000000000000000000000000000000000000000000008040000000000000000400000000000000000000000000000020000000000000000000800002000000000800000000010000000000000000000000000000000000000000000000000000000000000000000000000000000000000000000000000000000002000000000004000000000000000008000000002000000000000000000000000000200000000000000000000000020000000000000000000200000000000000000000000100000000000000000000000",
      "type": "0x2",
      "transactionHash": "0x1f4856953af584a245652c92fc54a9a20923cb78bbc69038d8d698e2772d1b5b",
      "transactionIndex": "0x8",
      "blockHash": "0xac84929c2e0db876d2603bf12926446ca3e62aa0e891bf113f84cad03ffec350",
      "blockNumber": "0x7512c5",
      "gasUsed": "0x2ccb8",
      "effectiveGasPrice": "0xfd",
      "from": "0xcda2fdb452ff4f5d7ba1c3d5dfcc9cb926a5eb7d",
      "to": "0x79dfbed14077b8f2421eece5707a17b161094e6a",
      "contractAddress": null,
      "l1BaseFeeScalar": "0x186a0",
      "l1BlobBaseFee": "0x1",
      "l1BlobBaseFeeScalar": "0x95506",
      "l1Fee": "0x18a8dad663d",
      "l1GasPrice": "0x277491570",
      "l1GasUsed": "0x640"
    },
    {
      "status": "0x1",
      "cumulativeGasUsed": "0x18f23e",
      "logs": [
        {
          "address": "0x2e8af9c5922623058aa92a183b391e62cb6b2d12",
          "topics": [
            "0xddf252ad1be2c89b69c2b068fc378daa952ba7f163c4a11628f55a4df523b3ef",
            "0x0000000000000000000000000000000000000000000000000000000000000000",
            "0x000000000000000000000000cda2fdb452ff4f5d7ba1c3d5dfcc9cb926a5eb7d",
            "0x0000000000000000000000000000000000000000000000000000000000000241"
          ],
          "data": "0x",
          "blockHash": "0xac84929c2e0db876d2603bf12926446ca3e62aa0e891bf113f84cad03ffec350",
          "blockNumber": "0x7512c5",
          "transactionHash": "0xa2269bd8254fec982b06cb067ab70c2ed1b2d0ddfab943012f6c0d98a7150989",
          "transactionIndex": "0x9",
          "logIndex": "0x12",
          "removed": false
        },
        {
          "address": "0x2e8af9c5922623058aa92a183b391e62cb6b2d12",
          "topics": [
            "0xf8e1a15aba9398e019f0b49df1a4fde98ee17ae345cb5f6b5e2c27f5033e8ce7"
          ],
          "data": "0x0000000000000000000000000000000000000000000000000000000000000241",
          "blockHash": "0xac84929c2e0db876d2603bf12926446ca3e62aa0e891bf113f84cad03ffec350",
          "blockNumber": "0x7512c5",
          "transactionHash": "0xa2269bd8254fec982b06cb067ab70c2ed1b2d0ddfab943012f6c0d98a7150989",
          "transactionIndex": "0x9",
          "logIndex": "0x13",
          "removed": false
        }
      ],
      "logsBloom": "0x00000000000000000000000000000000000000020000000000000000000000000010000000000000000000000000000000000000000000000000000000000000000000000000000000000208040000000000000000000000000000000000000000000000020000000000000000000800002000000000800000000010000000000000000000000000000000000000000000000000000000000000000000000200000000000000000000000000000000002000000000004000000000000000008000000002000000000000000000000000000000000000000000000000000020000000000000000000200000000000000000000000100000000000000000000000",
      "type": "0x2",
      "transactionHash": "0xa2269bd8254fec982b06cb067ab70c2ed1b2d0ddfab943012f6c0d98a7150989",
      "transactionIndex": "0x9",
      "blockHash": "0xac84929c2e0db876d2603bf12926446ca3e62aa0e891bf113f84cad03ffec350",
      "blockNumber": "0x7512c5",
      "gasUsed": "0x2ccb8",
      "effectiveGasPrice": "0xfd",
      "from": "0xcda2fdb452ff4f5d7ba1c3d5dfcc9cb926a5eb7d",
      "to": "0x79dfbed14077b8f2421eece5707a17b161094e6a",
      "contractAddress": null,
      "l1BaseFeeScalar": "0x186a0",
      "l1BlobBaseFee": "0x1",
      "l1BlobBaseFeeScalar": "0x95506",
      "l1Fee": "0x18a8dad663d",
      "l1GasPrice": "0x277491570",
      "l1GasUsed": "0x640"
    },
    {
      "status": "0x1",
      "cumulativeGasUsed": "0x1bbef6",
      "logs": [
        {
          "address": "0x2e8af9c5922623058aa92a183b391e62cb6b2d12",
          "topics": [
            "0xddf252ad1be2c89b69c2b068fc378daa952ba7f163c4a11628f55a4df523b3ef",
            "0x0000000000000000000000000000000000000000000000000000000000000000",
            "0x000000000000000000000000cda2fdb452ff4f5d7ba1c3d5dfcc9cb926a5eb7d",
            "0x0000000000000000000000000000000000000000000000000000000000000242"
          ],
          "data": "0x",
          "blockHash": "0xac84929c2e0db876d2603bf12926446ca3e62aa0e891bf113f84cad03ffec350",
          "blockNumber": "0x7512c5",
          "transactionHash": "0x1df2e42e8c1eeca9f9e45846f34aa9b694e2764f71a65716edcfd4fc30f3588f",
          "transactionIndex": "0xa",
          "logIndex": "0x14",
          "removed": false
        },
        {
          "address": "0x2e8af9c5922623058aa92a183b391e62cb6b2d12",
          "topics": [
            "0xf8e1a15aba9398e019f0b49df1a4fde98ee17ae345cb5f6b5e2c27f5033e8ce7"
          ],
          "data": "0x0000000000000000000000000000000000000000000000000000000000000242",
          "blockHash": "0xac84929c2e0db876d2603bf12926446ca3e62aa0e891bf113f84cad03ffec350",
          "blockNumber": "0x7512c5",
          "transactionHash": "0x1df2e42e8c1eeca9f9e45846f34aa9b694e2764f71a65716edcfd4fc30f3588f",
          "transactionIndex": "0xa",
          "logIndex": "0x15",
          "removed": false
        }
      ],
      "logsBloom": "0x000000000000000000000000000000000000000204000000000000000000000000000000000000000000000000000000000000000000000000000000000000000000000000000000000000080400000000000000000000000000000000000000000000000a0000000000000000000800002000000000800000000010000000000000000000000000000000000000000000000000000000000000000000000000000000000000000000000000000000002000000000004000000000000000008000000002000000000000000000000000000000000000000000000000000020000000000000000080200000000000000000000000100000000000000000000000",
      "type": "0x2",
      "transactionHash": "0x1df2e42e8c1eeca9f9e45846f34aa9b694e2764f71a65716edcfd4fc30f3588f",
      "transactionIndex": "0xa",
      "blockHash": "0xac84929c2e0db876d2603bf12926446ca3e62aa0e891bf113f84cad03ffec350",
      "blockNumber": "0x7512c5",
      "gasUsed": "0x2ccb8",
      "effectiveGasPrice": "0xfd",
      "from": "0xcda2fdb452ff4f5d7ba1c3d5dfcc9cb926a5eb7d",
      "to": "0x79dfbed14077b8f2421eece5707a17b161094e6a",
      "contractAddress": null,
      "l1BaseFeeScalar": "0x186a0",
      "l1BlobBaseFee": "0x1",
      "l1BlobBaseFeeScalar": "0x95506",
      "l1Fee": "0x18a8dad663d",
      "l1GasPrice": "0x277491570",
      "l1GasUsed": "0x640"
    },
    {
      "status": "0x1",
      "cumulativeGasUsed": "0x1e8bae",
      "logs": [
        {
          "address": "0x2e8af9c5922623058aa92a183b391e62cb6b2d12",
          "topics": [
            "0xddf252ad1be2c89b69c2b068fc378daa952ba7f163c4a11628f55a4df523b3ef",
            "0x0000000000000000000000000000000000000000000000000000000000000000",
            "0x000000000000000000000000cda2fdb452ff4f5d7ba1c3d5dfcc9cb926a5eb7d",
            "0x0000000000000000000000000000000000000000000000000000000000000243"
          ],
          "data": "0x",
          "blockHash": "0xac84929c2e0db876d2603bf12926446ca3e62aa0e891bf113f84cad03ffec350",
          "blockNumber": "0x7512c5",
          "transactionHash": "0x50d41892f5da91162ced3465407f1d215d6ed06b1f4fa1b353dd9a863082a835",
          "transactionIndex": "0xb",
          "logIndex": "0x16",
          "removed": false
        },
        {
          "address": "0x2e8af9c5922623058aa92a183b391e62cb6b2d12",
          "topics": [
            "0xf8e1a15aba9398e019f0b49df1a4fde98ee17ae345cb5f6b5e2c27f5033e8ce7"
          ],
          "data": "0x0000000000000000000000000000000000000000000000000000000000000243",
          "blockHash": "0xac84929c2e0db876d2603bf12926446ca3e62aa0e891bf113f84cad03ffec350",
          "blockNumber": "0x7512c5",
          "transactionHash": "0x50d41892f5da91162ced3465407f1d215d6ed06b1f4fa1b353dd9a863082a835",
          "transactionIndex": "0xb",
          "logIndex": "0x17",
          "removed": false
        }
      ],
      "logsBloom": "0x00000000000000000000000000000000000000020000000000000000000000000000000000000000000000000000000000000000000000000000000000000000000000000000000000000008040000000000000000000000000000000000000000000000820000000000000000000800002000000000800000000010000000000000000000000000000000000000000000000000000008000000000000000000000000000000000000000000000000002000000000004000000000000000008000000002000000004000000000000000000000000000000000000000000020000000000000000000200000000000000000000000100000000000000000000000",
      "type": "0x2",
      "transactionHash": "0x50d41892f5da91162ced3465407f1d215d6ed06b1f4fa1b353dd9a863082a835",
      "transactionIndex": "0xb",
      "blockHash": "0xac84929c2e0db876d2603bf12926446ca3e62aa0e891bf113f84cad03ffec350",
      "blockNumber": "0x7512c5",
      "gasUsed": "0x2ccb8",
      "effectiveGasPrice": "0xfd",
      "from": "0xcda2fdb452ff4f5d7ba1c3d5dfcc9cb926a5eb7d",
      "to": "0x79dfbed14077b8f2421eece5707a17b161094e6a",
      "contractAddress": null,
      "l1BaseFeeScalar": "0x186a0",
      "l1BlobBaseFee": "0x1",
      "l1BlobBaseFeeScalar": "0x95506",
      "l1Fee": "0x18a8dad663d",
      "l1GasPrice": "0x277491570",
      "l1GasUsed": "0x640"
    },
    {
      "status": "0x1",
      "cumulativeGasUsed": "0x215866",
      "logs": [
        {
          "address": "0x2e8af9c5922623058aa92a183b391e62cb6b2d12",
          "topics": [
            "0xddf252ad1be2c89b69c2b068fc378daa952ba7f163c4a11628f55a4df523b3ef",
            "0x0000000000000000000000000000000000000000000000000000000000000000",
            "0x000000000000000000000000cda2fdb452ff4f5d7ba1c3d5dfcc9cb926a5eb7d",
            "0x0000000000000000000000000000000000000000000000000000000000000244"
          ],
          "data": "0x",
          "blockHash": "0xac84929c2e0db876d2603bf12926446ca3e62aa0e891bf113f84cad03ffec350",
          "blockNumber": "0x7512c5",
          "transactionHash": "0xb6c9244944062285d9b8056149cbfa4605a21445802f9d9ef7aeccab4a1e173e",
          "transactionIndex": "0xc",
          "logIndex": "0x18",
          "removed": false
        },
        {
          "address": "0x2e8af9c5922623058aa92a183b391e62cb6b2d12",
          "topics": [
            "0xf8e1a15aba9398e019f0b49df1a4fde98ee17ae345cb5f6b5e2c27f5033e8ce7"
          ],
          "data": "0x0000000000000000000000000000000000000000000000000000000000000244",
          "blockHash": "0xac84929c2e0db876d2603bf12926446ca3e62aa0e891bf113f84cad03ffec350",
          "blockNumber": "0x7512c5",
          "transactionHash": "0xb6c9244944062285d9b8056149cbfa4605a21445802f9d9ef7aeccab4a1e173e",
          "transactionIndex": "0xc",
          "logIndex": "0x19",
          "removed": false
        }
      ],
      "logsBloom": "0x00000000000000000000000000000000000000020080000000000000000000000000000000000000000000000000000000000000000000000000000000000000000000000000000000000008040000000000000000000000000000000000000000000000020000000000000000000800002000000000800000000010000000000000000000000000000000000000000000000000000000000000000000000000000000000000000000000000000000002000000000004000000000000000008000000002000000000000000000000000000000000000000020000000000020000000000000000000200000000000000000040000100000000000000000000000",
      "type": "0x2",
      "transactionHash": "0xb6c9244944062285d9b8056149cbfa4605a21445802f9d9ef7aeccab4a1e173e",
      "transactionIndex": "0xc",
      "blockHash": "0xac84929c2e0db876d2603bf12926446ca3e62aa0e891bf113f84cad03ffec350",
      "blockNumber": "0x7512c5",
      "gasUsed": "0x2ccb8",
      "effectiveGasPrice": "0xfd",
      "from": "0xcda2fdb452ff4f5d7ba1c3d5dfcc9cb926a5eb7d",
      "to": "0x79dfbed14077b8f2421eece5707a17b161094e6a",
      "contractAddress": null,
      "l1BaseFeeScalar": "0x186a0",
      "l1BlobBaseFee": "0x1",
      "l1BlobBaseFeeScalar": "0x95506",
      "l1Fee": "0x18a8dad663d",
      "l1GasPrice": "0x277491570",
      "l1GasUsed": "0x640"
    },
    {
      "status": "0x1",
      "cumulativeGasUsed": "0x24251e",
      "logs": [
        {
          "address": "0x2e8af9c5922623058aa92a183b391e62cb6b2d12",
          "topics": [
            "0xddf252ad1be2c89b69c2b068fc378daa952ba7f163c4a11628f55a4df523b3ef",
            "0x0000000000000000000000000000000000000000000000000000000000000000",
            "0x000000000000000000000000cda2fdb452ff4f5d7ba1c3d5dfcc9cb926a5eb7d",
            "0x0000000000000000000000000000000000000000000000000000000000000245"
          ],
          "data": "0x",
          "blockHash": "0xac84929c2e0db876d2603bf12926446ca3e62aa0e891bf113f84cad03ffec350",
          "blockNumber": "0x7512c5",
          "transactionHash": "0xbdfce02648040905df6bb973c6317535210672aaa5fbcc7f36c096ea81e44bfb",
          "transactionIndex": "0xd",
          "logIndex": "0x1a",
          "removed": false
        },
        {
          "address": "0x2e8af9c5922623058aa92a183b391e62cb6b2d12",
          "topics": [
            "0xf8e1a15aba9398e019f0b49df1a4fde98ee17ae345cb5f6b5e2c27f5033e8ce7"
          ],
          "data": "0x0000000000000000000000000000000000000000000000000000000000000245",
          "blockHash": "0xac84929c2e0db876d2603bf12926446ca3e62aa0e891bf113f84cad03ffec350",
          "blockNumber": "0x7512c5",
          "transactionHash": "0xbdfce02648040905df6bb973c6317535210672aaa5fbcc7f36c096ea81e44bfb",
          "transactionIndex": "0xd",
          "logIndex": "0x1b",
          "removed": false
        }
      ],
      "logsBloom": "0x00000000000000000000000000000000000000020000000000000000000000000000000000000000000000000000000000000000000000000000000000000000000000000000000000000008040000000000000000000000000000000000000000000100020000000000000000000800002000000000800000000010000000000000000000000000000000000000000000000000000000000000000000000000000000000000000000000000000000002000000000004000000000000000008000000002000000000000000000000000000000000000000000000000000020000000000000200000200000000000000002000000100000000000000000000000",
      "type": "0x2",
      "transactionHash": "0xbdfce02648040905df6bb973c6317535210672aaa5fbcc7f36c096ea81e44bfb",
      "transactionIndex": "0xd",
      "blockHash": "0xac84929c2e0db876d2603bf12926446ca3e62aa0e891bf113f84cad03ffec350",
      "blockNumber": "0x7512c5",
      "gasUsed": "0x2ccb8",
      "effectiveGasPrice": "0xfd",
      "from": "0xcda2fdb452ff4f5d7ba1c3d5dfcc9cb926a5eb7d",
      "to": "0x79dfbed14077b8f2421eece5707a17b161094e6a",
      "contractAddress": null,
      "l1BaseFeeScalar": "0x186a0",
      "l1BlobBaseFee": "0x1",
      "l1BlobBaseFeeScalar": "0x95506",
      "l1Fee": "0x18a8dad663d",
      "l1GasPrice": "0x277491570",
      "l1GasUsed": "0x640"
    },
    {
      "status": "0x1",
      "cumulativeGasUsed": "0x27a7b1",
      "logs": [
        {
          "address": "0x2e8af9c5922623058aa92a183b391e62cb6b2d12",
          "topics": [
            "0xddf252ad1be2c89b69c2b068fc378daa952ba7f163c4a11628f55a4df523b3ef",
            "0x0000000000000000000000000000000000000000000000000000000000000000",
            "0x000000000000000000000000cda2fdb452ff4f5d7ba1c3d5dfcc9cb926a5eb7d",
            "0x0000000000000000000000000000000000000000000000000000000000000246"
          ],
          "data": "0x",
          "blockHash": "0xac84929c2e0db876d2603bf12926446ca3e62aa0e891bf113f84cad03ffec350",
          "blockNumber": "0x7512c5",
          "transactionHash": "0xec503691b9fbd84d167cb910e857b4b14e543922e2dc299e24052c5264ba9c0c",
          "transactionIndex": "0xf",
          "logIndex": "0x1d",
          "removed": false
        },
        {
          "address": "0x2e8af9c5922623058aa92a183b391e62cb6b2d12",
          "topics": [
            "0xf8e1a15aba9398e019f0b49df1a4fde98ee17ae345cb5f6b5e2c27f5033e8ce7"
          ],
          "data": "0x0000000000000000000000000000000000000000000000000000000000000246",
          "blockHash": "0xac84929c2e0db876d2603bf12926446ca3e62aa0e891bf113f84cad03ffec350",
          "blockNumber": "0x7512c5",
          "transactionHash": "0xec503691b9fbd84d167cb910e857b4b14e543922e2dc299e24052c5264ba9c0c",
          "transactionIndex": "0xf",
          "logIndex": "0x1e",
          "removed": false
        }
      ],
      "logsBloom": "0x00000000000000000000000000000000000000020000000000000000000000000000000000000000000000000000000000000000000000000000000000000000000000000000000000000008040008000000000000000000000000000000000000000000020000000000000000000800002000000000800000000010000000000000000000000000000000000000000000000000000000000000000000000000000000000000000000000000000000002000000000004000000000000000008000000002000000000000000000008000000000000000000001000000000020000000000000000000200000000000000000000000100000000000000000000000",
      "type": "0x2",
      "transactionHash": "0xec503691b9fbd84d167cb910e857b4b14e543922e2dc299e24052c5264ba9c0c",
      "transactionIndex": "0xf",
      "blockHash": "0xac84929c2e0db876d2603bf12926446ca3e62aa0e891bf113f84cad03ffec350",
      "blockNumber": "0x7512c5",
      "gasUsed": "0x2ccb8",
      "effectiveGasPrice": "0xfd",
      "from": "0xcda2fdb452ff4f5d7ba1c3d5dfcc9cb926a5eb7d",
      "to": "0x79dfbed14077b8f2421eece5707a17b161094e6a",
      "contractAddress": null,
      "l1BaseFeeScalar": "0x186a0",
      "l1BlobBaseFee": "0x1",
      "l1BlobBaseFeeScalar": "0x95506",
      "l1Fee": "0x18a8dad663d",
      "l1GasPrice": "0x277491570",
      "l1GasUsed": "0x640"
    },
    {
      "status": "0x1",
      "cumulativeGasUsed": "0x2a7469",
      "logs": [
        {
          "address": "0x2e8af9c5922623058aa92a183b391e62cb6b2d12",
          "topics": [
            "0xddf252ad1be2c89b69c2b068fc378daa952ba7f163c4a11628f55a4df523b3ef",
            "0x0000000000000000000000000000000000000000000000000000000000000000",
            "0x000000000000000000000000cda2fdb452ff4f5d7ba1c3d5dfcc9cb926a5eb7d",
            "0x0000000000000000000000000000000000000000000000000000000000000247"
          ],
          "data": "0x",
          "blockHash": "0xac84929c2e0db876d2603bf12926446ca3e62aa0e891bf113f84cad03ffec350",
          "blockNumber": "0x7512c5",
          "transactionHash": "0x1c28bf79c2cb6b1275e1acffaddcb295ae9c95f8b41e9a39dd8a7bd6d068dea6",
          "transactionIndex": "0x10",
          "logIndex": "0x1f",
          "removed": false
        },
        {
          "address": "0x2e8af9c5922623058aa92a183b391e62cb6b2d12",
          "topics": [
            "0xf8e1a15aba9398e019f0b49df1a4fde98ee17ae345cb5f6b5e2c27f5033e8ce7"
          ],
          "data": "0x0000000000000000000000000000000000000000000000000000000000000247",
          "blockHash": "0xac84929c2e0db876d2603bf12926446ca3e62aa0e891bf113f84cad03ffec350",
          "blockNumber": "0x7512c5",
          "transactionHash": "0x1c28bf79c2cb6b1275e1acffaddcb295ae9c95f8b41e9a39dd8a7bd6d068dea6",
          "transactionIndex": "0x10",
          "logIndex": "0x20",
          "removed": false
        }
      ],
      "logsBloom": "0x00000000000000000000000000000000000000020000000000000000000000000000000000100000000000000000000000000000000000000000000000000000000000000000000000000008040000000000000000000000000000000000000000000000020000000000000000000800002000000000800000000010000000000000000000000000000000000000000000000000000000000000000000000000000000000000000000000000000000002000400000004000000000000000008000000002000000000000000000000000000000000000000000000000000020000000000000000000200000000000000000000000100000000000000020000000",
      "type": "0x2",
      "transactionHash": "0x1c28bf79c2cb6b1275e1acffaddcb295ae9c95f8b41e9a39dd8a7bd6d068dea6",
      "transactionIndex": "0x10",
      "blockHash": "0xac84929c2e0db876d2603bf12926446ca3e62aa0e891bf113f84cad03ffec350",
      "blockNumber": "0x7512c5",
      "gasUsed": "0x2ccb8",
      "effectiveGasPrice": "0xfd",
      "from": "0xcda2fdb452ff4f5d7ba1c3d5dfcc9cb926a5eb7d",
      "to": "0x79dfbed14077b8f2421eece5707a17b161094e6a",
      "contractAddress": null,
      "l1BaseFeeScalar": "0x186a0",
      "l1BlobBaseFee": "0x1",
      "l1BlobBaseFeeScalar": "0x95506",
      "l1Fee": "0x18a8dad663d",
      "l1GasPrice": "0x277491570",
      "l1GasUsed": "0x640"
    },
    {
      "status": "0x1",
      "cumulativeGasUsed": "0x2d4121",
      "logs": [
        {
          "address": "0x2e8af9c5922623058aa92a183b391e62cb6b2d12",
          "topics": [
            "0xddf252ad1be2c89b69c2b068fc378daa952ba7f163c4a11628f55a4df523b3ef",
            "0x0000000000000000000000000000000000000000000000000000000000000000",
            "0x000000000000000000000000cda2fdb452ff4f5d7ba1c3d5dfcc9cb926a5eb7d",
            "0x0000000000000000000000000000000000000000000000000000000000000248"
          ],
          "data": "0x",
          "blockHash": "0xac84929c2e0db876d2603bf12926446ca3e62aa0e891bf113f84cad03ffec350",
          "blockNumber": "0x7512c5",
          "transactionHash": "0xfecfbabe2640ec097a1376d4d7f5e3575f2cfd5aa76ac9ad42451801221b6593",
          "transactionIndex": "0x11",
          "logIndex": "0x21",
          "removed": false
        },
        {
          "address": "0x2e8af9c5922623058aa92a183b391e62cb6b2d12",
          "topics": [
            "0xf8e1a15aba9398e019f0b49df1a4fde98ee17ae345cb5f6b5e2c27f5033e8ce7"
          ],
          "data": "0x0000000000000000000000000000000000000000000000000000000000000248",
          "blockHash": "0xac84929c2e0db876d2603bf12926446ca3e62aa0e891bf113f84cad03ffec350",
          "blockNumber": "0x7512c5",
          "transactionHash": "0xfecfbabe2640ec097a1376d4d7f5e3575f2cfd5aa76ac9ad42451801221b6593",
          "transactionIndex": "0x11",
          "logIndex": "0x22",
          "removed": false
        }
      ],
      "logsBloom": "0x00000000000000000000000000000000000000020000000000000000000000000000000004000000000000200000000000000000000000000000000000000000000000000000000000000008040000000000000000000000002000000000000000000000020000000000000000000800002000000000800000000010000000000000000000000000000000000000000000000000000000000000000000000000000000000000000000000000000000002000000000004000000000000000008000000002000000000000000000000000000000000000000000000000000020000000000000000000200000000000000000000000100000000000000000000000",
      "type": "0x2",
      "transactionHash": "0xfecfbabe2640ec097a1376d4d7f5e3575f2cfd5aa76ac9ad42451801221b6593",
      "transactionIndex": "0x11",
      "blockHash": "0xac84929c2e0db876d2603bf12926446ca3e62aa0e891bf113f84cad03ffec350",
      "blockNumber": "0x7512c5",
      "gasUsed": "0x2ccb8",
      "effectiveGasPrice": "0xfd",
      "from": "0xcda2fdb452ff4f5d7ba1c3d5dfcc9cb926a5eb7d",
      "to": "0x79dfbed14077b8f2421eece5707a17b161094e6a",
      "contractAddress": null,
      "l1BaseFeeScalar": "0x186a0",
      "l1BlobBaseFee": "0x1",
      "l1BlobBaseFeeScalar": "0x95506",
      "l1Fee": "0x18a8dad663d",
      "l1GasPrice": "0x277491570",
      "l1GasUsed": "0x640"
    },
    {
      "status": "0x1",
      "cumulativeGasUsed": "0x300dd9",
      "logs": [
        {
          "address": "0x2e8af9c5922623058aa92a183b391e62cb6b2d12",
          "topics": [
            "0xddf252ad1be2c89b69c2b068fc378daa952ba7f163c4a11628f55a4df523b3ef",
            "0x0000000000000000000000000000000000000000000000000000000000000000",
            "0x000000000000000000000000cda2fdb452ff4f5d7ba1c3d5dfcc9cb926a5eb7d",
            "0x0000000000000000000000000000000000000000000000000000000000000249"
          ],
          "data": "0x",
          "blockHash": "0xac84929c2e0db876d2603bf12926446ca3e62aa0e891bf113f84cad03ffec350",
          "blockNumber": "0x7512c5",
          "transactionHash": "0xe600e40f3f4e4006d3c6486659e298af1d0c959a7cd364c275f912c92cdf1444",
          "transactionIndex": "0x12",
          "logIndex": "0x23",
          "removed": false
        },
        {
          "address": "0x2e8af9c5922623058aa92a183b391e62cb6b2d12",
          "topics": [
            "0xf8e1a15aba9398e019f0b49df1a4fde98ee17ae345cb5f6b5e2c27f5033e8ce7"
          ],
          "data": "0x0000000000000000000000000000000000000000000000000000000000000249",
          "blockHash": "0xac84929c2e0db876d2603bf12926446ca3e62aa0e891bf113f84cad03ffec350",
          "blockNumber": "0x7512c5",
          "transactionHash": "0xe600e40f3f4e4006d3c6486659e298af1d0c959a7cd364c275f912c92cdf1444",
          "transactionIndex": "0x12",
          "logIndex": "0x24",
          "removed": false
        }
      ],
      "logsBloom": "0x00000000000000000000000000000000000000020000000000000000000000000000000000000000000000000000000000000000000000000000000000000000000000000000000000000008040000000000000000000000000000000000200000000000020000000000000000000800002000000000800000000010000000000000000000000000000000000000000000000000000000000000000000000000000000000000000000000000000000002000080000004000000000000000008000000002000000000000000000000000000000000000000000000000000020000000000000000000200000000000000000000000100000000000000000000000",
      "type": "0x2",
      "transactionHash": "0xe600e40f3f4e4006d3c6486659e298af1d0c959a7cd364c275f912c92cdf1444",
      "transactionIndex": "0x12",
      "blockHash": "0xac84929c2e0db876d2603bf12926446ca3e62aa0e891bf113f84cad03ffec350",
      "blockNumber": "0x7512c5",
      "gasUsed": "0x2ccb8",
      "effectiveGasPrice": "0xfd",
      "from": "0xcda2fdb452ff4f5d7ba1c3d5dfcc9cb926a5eb7d",
      "to": "0x79dfbed14077b8f2421eece5707a17b161094e6a",
      "contractAddress": null,
      "l1BaseFeeScalar": "0x186a0",
      "l1BlobBaseFee": "0x1",
      "l1BlobBaseFeeScalar": "0x95506",
      "l1Fee": "0x18a8dad663d",
      "l1GasPrice": "0x277491570",
      "l1GasUsed": "0x640"
    },
    {
      "status": "0x1",
      "cumulativeGasUsed": "0x32da91",
      "logs": [
        {
          "address": "0x2e8af9c5922623058aa92a183b391e62cb6b2d12",
          "topics": [
            "0xddf252ad1be2c89b69c2b068fc378daa952ba7f163c4a11628f55a4df523b3ef",
            "0x0000000000000000000000000000000000000000000000000000000000000000",
            "0x000000000000000000000000cda2fdb452ff4f5d7ba1c3d5dfcc9cb926a5eb7d",
            "0x000000000000000000000000000000000000000000000000000000000000024a"
          ],
          "data": "0x",
          "blockHash": "0xac84929c2e0db876d2603bf12926446ca3e62aa0e891bf113f84cad03ffec350",
          "blockNumber": "0x7512c5",
          "transactionHash": "0xa0492718e995c102fda8e020506cf874239e1270eef00a8443cf83b1d6530e97",
          "transactionIndex": "0x13",
          "logIndex": "0x25",
          "removed": false
        },
        {
          "address": "0x2e8af9c5922623058aa92a183b391e62cb6b2d12",
          "topics": [
            "0xf8e1a15aba9398e019f0b49df1a4fde98ee17ae345cb5f6b5e2c27f5033e8ce7"
          ],
          "data": "0x000000000000000000000000000000000000000000000000000000000000024a",
          "blockHash": "0xac84929c2e0db876d2603bf12926446ca3e62aa0e891bf113f84cad03ffec350",
          "blockNumber": "0x7512c5",
          "transactionHash": "0xa0492718e995c102fda8e020506cf874239e1270eef00a8443cf83b1d6530e97",
          "transactionIndex": "0x13",
          "logIndex": "0x26",
          "removed": false
        }
      ],
      "logsBloom": "0x00000000000000000000000000000000000000020000000000000000000000000000000000000000000000000000000000000002000000000000000000000000000000000000000000000008040000000000000000000000000000000000000000000000020000000000000000000800002000000000800000000010000000000008000000000000000000000000000000000000000000000000000000000004000000000000000000000000000000002000000000004000000000000000008000000002000000000000000000000000000000000000000000000000000020000000000000000000200000000000000000000000100000000000000000000000",
      "type": "0x2",
      "transactionHash": "0xa0492718e995c102fda8e020506cf874239e1270eef00a8443cf83b1d6530e97",
      "transactionIndex": "0x13",
      "blockHash": "0xac84929c2e0db876d2603bf12926446ca3e62aa0e891bf113f84cad03ffec350",
      "blockNumber": "0x7512c5",
      "gasUsed": "0x2ccb8",
      "effectiveGasPrice": "0xfd",
      "from": "0xcda2fdb452ff4f5d7ba1c3d5dfcc9cb926a5eb7d",
      "to": "0x79dfbed14077b8f2421eece5707a17b161094e6a",
      "contractAddress": null,
      "l1BaseFeeScalar": "0x186a0",
      "l1BlobBaseFee": "0x1",
      "l1BlobBaseFeeScalar": "0x95506",
      "l1Fee": "0x18a8dad663d",
      "l1GasPrice": "0x277491570",
      "l1GasUsed": "0x640"
    },
    {
      "status": "0x1",
      "cumulativeGasUsed": "0x35a749",
      "logs": [
        {
          "address": "0x2e8af9c5922623058aa92a183b391e62cb6b2d12",
          "topics": [
            "0xddf252ad1be2c89b69c2b068fc378daa952ba7f163c4a11628f55a4df523b3ef",
            "0x0000000000000000000000000000000000000000000000000000000000000000",
            "0x000000000000000000000000cda2fdb452ff4f5d7ba1c3d5dfcc9cb926a5eb7d",
            "0x000000000000000000000000000000000000000000000000000000000000024b"
          ],
          "data": "0x",
          "blockHash": "0xac84929c2e0db876d2603bf12926446ca3e62aa0e891bf113f84cad03ffec350",
          "blockNumber": "0x7512c5",
          "transactionHash": "0xace2abfbe308125a2668981495c505b3b8f049ecb7211ee9db021a15c77ca7de",
          "transactionIndex": "0x14",
          "logIndex": "0x27",
          "removed": false
        },
        {
          "address": "0x2e8af9c5922623058aa92a183b391e62cb6b2d12",
          "topics": [
            "0xf8e1a15aba9398e019f0b49df1a4fde98ee17ae345cb5f6b5e2c27f5033e8ce7"
          ],
          "data": "0x000000000000000000000000000000000000000000000000000000000000024b",
          "blockHash": "0xac84929c2e0db876d2603bf12926446ca3e62aa0e891bf113f84cad03ffec350",
          "blockNumber": "0x7512c5",
          "transactionHash": "0xace2abfbe308125a2668981495c505b3b8f049ecb7211ee9db021a15c77ca7de",
          "transactionIndex": "0x14",
          "logIndex": "0x28",
          "removed": false
        }
      ],
      "logsBloom": "0x00000000000000000000000000000000000000020000000000000000000000000000000000000000000000000000000000000000000000000000000000000000000000000000000000000008040000000000000000000000000000000000000000000000020000000000000000000800002000000000800000000010000000000000000000000100000000000000000000000000000000000000000000000000000080000000000000000000000000002000000000004000000000000000008000000002000000000000000000000000000000000000000000020000000020000000000000000000200000000000000000000000100000000000000000000000",
      "type": "0x2",
      "transactionHash": "0xace2abfbe308125a2668981495c505b3b8f049ecb7211ee9db021a15c77ca7de",
      "transactionIndex": "0x14",
      "blockHash": "0xac84929c2e0db876d2603bf12926446ca3e62aa0e891bf113f84cad03ffec350",
      "blockNumber": "0x7512c5",
      "gasUsed": "0x2ccb8",
      "effectiveGasPrice": "0xfd",
      "from": "0xcda2fdb452ff4f5d7ba1c3d5dfcc9cb926a5eb7d",
      "to": "0x79dfbed14077b8f2421eece5707a17b161094e6a",
      "contractAddress": null,
      "l1BaseFeeScalar": "0x186a0",
      "l1BlobBaseFee": "0x1",
      "l1BlobBaseFeeScalar": "0x95506",
      "l1Fee": "0x18a8dad663d",
      "l1GasPrice": "0x277491570",
      "l1GasUsed": "0x640"
    },
    {
      "status": "0x1",
      "cumulativeGasUsed": "0x387401",
      "logs": [
        {
          "address": "0x2e8af9c5922623058aa92a183b391e62cb6b2d12",
          "topics": [
            "0xddf252ad1be2c89b69c2b068fc378daa952ba7f163c4a11628f55a4df523b3ef",
            "0x0000000000000000000000000000000000000000000000000000000000000000",
            "0x000000000000000000000000cda2fdb452ff4f5d7ba1c3d5dfcc9cb926a5eb7d",
            "0x000000000000000000000000000000000000000000000000000000000000024c"
          ],
          "data": "0x",
          "blockHash": "0xac84929c2e0db876d2603bf12926446ca3e62aa0e891bf113f84cad03ffec350",
          "blockNumber": "0x7512c5",
          "transactionHash": "0x0ebaddd2340d418ee157a01d2ee0fe79f0cb61a4c11f533d9c9a76aec10118aa",
          "transactionIndex": "0x15",
          "logIndex": "0x29",
          "removed": false
        },
        {
          "address": "0x2e8af9c5922623058aa92a183b391e62cb6b2d12",
          "topics": [
            "0xf8e1a15aba9398e019f0b49df1a4fde98ee17ae345cb5f6b5e2c27f5033e8ce7"
          ],
          "data": "0x000000000000000000000000000000000000000000000000000000000000024c",
          "blockHash": "0xac84929c2e0db876d2603bf12926446ca3e62aa0e891bf113f84cad03ffec350",
          "blockNumber": "0x7512c5",
          "transactionHash": "0x0ebaddd2340d418ee157a01d2ee0fe79f0cb61a4c11f533d9c9a76aec10118aa",
          "transactionIndex": "0x15",
          "logIndex": "0x2a",
          "removed": false
        }
      ],
      "logsBloom": "0x00000000000000000000000000000000000000020000000000000000000000000000000000000000000000000000000000000000000000000000000000000000000000000000000000000008040000000000000000000000000000000000000000000000020000200000000000000800002000100000800000000010000000000000000000000000000000000000000000000000000000000000000000000000000000000000000000000000000000002000000000004000000000000000008000000002000000000000000000000000000000000000000000000000000020000000000000000000200000000000000000800000100000000000000000000000",
      "type": "0x2",
      "transactionHash": "0x0ebaddd2340d418ee157a01d2ee0fe79f0cb61a4c11f533d9c9a76aec10118aa",
      "transactionIndex": "0x15",
      "blockHash": "0xac84929c2e0db876d2603bf12926446ca3e62aa0e891bf113f84cad03ffec350",
      "blockNumber": "0x7512c5",
      "gasUsed": "0x2ccb8",
      "effectiveGasPrice": "0xfd",
      "from": "0xcda2fdb452ff4f5d7ba1c3d5dfcc9cb926a5eb7d",
      "to": "0x79dfbed14077b8f2421eece5707a17b161094e6a",
      "contractAddress": null,
      "l1BaseFeeScalar": "0x186a0",
      "l1BlobBaseFee": "0x1",
      "l1BlobBaseFeeScalar": "0x95506",
      "l1Fee": "0x18a8dad663d",
      "l1GasPrice": "0x277491570",
      "l1GasUsed": "0x640"
    },
    {
      "status": "0x1",
      "cumulativeGasUsed": "0x3b40b9",
      "logs": [
        {
          "address": "0x2e8af9c5922623058aa92a183b391e62cb6b2d12",
          "topics": [
            "0xddf252ad1be2c89b69c2b068fc378daa952ba7f163c4a11628f55a4df523b3ef",
            "0x0000000000000000000000000000000000000000000000000000000000000000",
            "0x000000000000000000000000cda2fdb452ff4f5d7ba1c3d5dfcc9cb926a5eb7d",
            "0x000000000000000000000000000000000000000000000000000000000000024d"
          ],
          "data": "0x",
          "blockHash": "0xac84929c2e0db876d2603bf12926446ca3e62aa0e891bf113f84cad03ffec350",
          "blockNumber": "0x7512c5",
          "transactionHash": "0x5df26db876645ddbe6bffbc7edeb0d652b648c75ec30493f4bfe863a64844aec",
          "transactionIndex": "0x16",
          "logIndex": "0x2b",
          "removed": false
        },
        {
          "address": "0x2e8af9c5922623058aa92a183b391e62cb6b2d12",
          "topics": [
            "0xf8e1a15aba9398e019f0b49df1a4fde98ee17ae345cb5f6b5e2c27f5033e8ce7"
          ],
          "data": "0x000000000000000000000000000000000000000000000000000000000000024d",
          "blockHash": "0xac84929c2e0db876d2603bf12926446ca3e62aa0e891bf113f84cad03ffec350",
          "blockNumber": "0x7512c5",
          "transactionHash": "0x5df26db876645ddbe6bffbc7edeb0d652b648c75ec30493f4bfe863a64844aec",
          "transactionIndex": "0x16",
          "logIndex": "0x2c",
          "removed": false
        }
      ],
      "logsBloom": "0x00000000000000000000000001000000000000020000000000000000000000000000020000000000000000000000000000000000000000000000000000000000000000000000000000000008040000000000000000000000000000000000000000000000020000000020000000000800002000000000800000000010000000000000000000000000000000000000000000000000000000000000000000000000000000000000000000000000000000002000000000004000000000000000008000000002000000000000000000000000000000000000000000000000000020000000000000000000200000000000000000000000100000000000000000000000",
      "type": "0x2",
      "transactionHash": "0x5df26db876645ddbe6bffbc7edeb0d652b648c75ec30493f4bfe863a64844aec",
      "transactionIndex": "0x16",
      "blockHash": "0xac84929c2e0db876d2603bf12926446ca3e62aa0e891bf113f84cad03ffec350",
      "blockNumber": "0x7512c5",
      "gasUsed": "0x2ccb8",
      "effectiveGasPrice": "0xfd",
      "from": "0xcda2fdb452ff4f5d7ba1c3d5dfcc9cb926a5eb7d",
      "to": "0x79dfbed14077b8f2421eece5707a17b161094e6a",
      "contractAddress": null,
      "l1BaseFeeScalar": "0x186a0",
      "l1BlobBaseFee": "0x1",
      "l1BlobBaseFeeScalar": "0x95506",
      "l1Fee": "0x18a8dad663d",
      "l1GasPrice": "0x277491570",
      "l1GasUsed": "0x640"
    }
  ],
  "libraries": [],
  "pending": [],
  "returns": {},
  "timestamp": 1728207027,
  "chain": 60808,
  "commit": "7d9679b"
}