{
  "transactions": [
    {
      "hash": "0x1c040a30cdf81e897af6c6109cf3e7a742f7bc7beb87d2ab243d5f1f05a956bb",
      "transactionType": "CALL",
      "contractName": null,
      "contractAddress": "0x79dfbed14077b8f2421eece5707a17b161094e6a",
      "function": "wlMint(address)",
      "arguments": [
        "0x0000000000000000000000000000000000000000"
      ],
      "transaction": {
        "from": "0xcda2fdb452ff4f5d7ba1c3d5dfcc9cb926a5eb7d",
        "to": "0x79dfbed14077b8f2421eece5707a17b161094e6a",
        "gas": "0x3ddf7",
        "value": "0x0",
        "input": "0xc517b4a50000000000000000000000000000000000000000000000000000000000000000",
        "nonce": "0x1e58",
        "chainId": "0xed88"
      },
      "additionalContracts": [],
      "isFixedGasLimit": false
    },
    {
      "hash": "0x50d7bda67cad6c41ec2f3dc3885003e9c1399a3f5641986118f5991bb1a6d2d2",
      "transactionType": "CALL",
      "contractName": null,
      "contractAddress": "0x79dfbed14077b8f2421eece5707a17b161094e6a",
      "function": "wlMint(address)",
      "arguments": [
        "0x0000000000000000000000000000000000000000"
      ],
      "transaction": {
        "from": "0xcda2fdb452ff4f5d7ba1c3d5dfcc9cb926a5eb7d",
        "to": "0x79dfbed14077b8f2421eece5707a17b161094e6a",
        "gas": "0x3ddf7",
        "value": "0x0",
        "input": "0xc517b4a50000000000000000000000000000000000000000000000000000000000000000",
        "nonce": "0x1e59",
        "chainId": "0xed88"
      },
      "additionalContracts": [],
      "isFixedGasLimit": false
    },
    {
      "hash": "0x97c1e8168871fda8ac0463ebf35973b20035a672c26e90c0fdf088b88fc4ec9c",
      "transactionType": "CALL",
      "contractName": null,
      "contractAddress": "0x79dfbed14077b8f2421eece5707a17b161094e6a",
      "function": "wlMint(address)",
      "arguments": [
        "0x0000000000000000000000000000000000000000"
      ],
      "transaction": {
        "from": "0xcda2fdb452ff4f5d7ba1c3d5dfcc9cb926a5eb7d",
        "to": "0x79dfbed14077b8f2421eece5707a17b161094e6a",
        "gas": "0x3ddf7",
        "value": "0x0",
        "input": "0xc517b4a50000000000000000000000000000000000000000000000000000000000000000",
        "nonce": "0x1e5a",
        "chainId": "0xed88"
      },
      "additionalContracts": [],
      "isFixedGasLimit": false
    },
    {
      "hash": "0x0ebaec809f58d2f233fae185a9edacd78842cb205047135cc4e3baef1a8cd847",
      "transactionType": "CALL",
      "contractName": null,
      "contractAddress": "0x79dfbed14077b8f2421eece5707a17b161094e6a",
      "function": "wlMint(address)",
      "arguments": [
        "0x0000000000000000000000000000000000000000"
      ],
      "transaction": {
        "from": "0xcda2fdb452ff4f5d7ba1c3d5dfcc9cb926a5eb7d",
        "to": "0x79dfbed14077b8f2421eece5707a17b161094e6a",
        "gas": "0x3ddf7",
        "value": "0x0",
        "input": "0xc517b4a50000000000000000000000000000000000000000000000000000000000000000",
        "nonce": "0x1e5b",
        "chainId": "0xed88"
      },
      "additionalContracts": [],
      "isFixedGasLimit": false
    },
    {
      "hash": "0xb1b339284f8c3b1d3087077c59344e3d18ca7b7acdf144a06122b34d0301c2e4",
      "transactionType": "CALL",
      "contractName": null,
      "contractAddress": "0x79dfbed14077b8f2421eece5707a17b161094e6a",
      "function": "wlMint(address)",
      "arguments": [
        "0x0000000000000000000000000000000000000000"
      ],
      "transaction": {
        "from": "0xcda2fdb452ff4f5d7ba1c3d5dfcc9cb926a5eb7d",
        "to": "0x79dfbed14077b8f2421eece5707a17b161094e6a",
        "gas": "0x3ddf7",
        "value": "0x0",
        "input": "0xc517b4a50000000000000000000000000000000000000000000000000000000000000000",
        "nonce": "0x1e5c",
        "chainId": "0xed88"
      },
      "additionalContracts": [],
      "isFixedGasLimit": false
    },
    {
      "hash": "0x27edaadad488c2c9d1100895361c02ca34c0bdaa74a359fd175ed407e1d34ee1",
      "transactionType": "CALL",
      "contractName": null,
      "contractAddress": "0x79dfbed14077b8f2421eece5707a17b161094e6a",
      "function": "wlMint(address)",
      "arguments": [
        "0x0000000000000000000000000000000000000000"
      ],
      "transaction": {
        "from": "0xcda2fdb452ff4f5d7ba1c3d5dfcc9cb926a5eb7d",
        "to": "0x79dfbed14077b8f2421eece5707a17b161094e6a",
        "gas": "0x3ddf7",
        "value": "0x0",
        "input": "0xc517b4a50000000000000000000000000000000000000000000000000000000000000000",
        "nonce": "0x1e5d",
        "chainId": "0xed88"
      },
      "additionalContracts": [],
      "isFixedGasLimit": false
    },
    {
      "hash": "0xfae2858a9c8be3aeb04de2658fa18bf3e3b0a6bb84e50844c2840353b3f7064e",
      "transactionType": "CALL",
      "contractName": null,
      "contractAddress": "0x79dfbed14077b8f2421eece5707a17b161094e6a",
      "function": "wlMint(address)",
      "arguments": [
        "0x0000000000000000000000000000000000000000"
      ],
      "transaction": {
        "from": "0xcda2fdb452ff4f5d7ba1c3d5dfcc9cb926a5eb7d",
        "to": "0x79dfbed14077b8f2421eece5707a17b161094e6a",
        "gas": "0x3ddf7",
        "value": "0x0",
        "input": "0xc517b4a50000000000000000000000000000000000000000000000000000000000000000",
        "nonce": "0x1e5e",
        "chainId": "0xed88"
      },
      "additionalContracts": [],
      "isFixedGasLimit": false
    },
    {
      "hash": "0x53a59021afff6fe231485a5db3acbff9dd0d83ecb0dc1c5dc1519b5fd5bf0781",
      "transactionType": "CALL",
      "contractName": null,
      "contractAddress": "0x79dfbed14077b8f2421eece5707a17b161094e6a",
      "function": "wlMint(address)",
      "arguments": [
        "0x0000000000000000000000000000000000000000"
      ],
      "transaction": {
        "from": "0xcda2fdb452ff4f5d7ba1c3d5dfcc9cb926a5eb7d",
        "to": "0x79dfbed14077b8f2421eece5707a17b161094e6a",
        "gas": "0x3ddf7",
        "value": "0x0",
        "input": "0xc517b4a50000000000000000000000000000000000000000000000000000000000000000",
        "nonce": "0x1e5f",
        "chainId": "0xed88"
      },
      "additionalContracts": [],
      "isFixedGasLimit": false
    },
    {
      "hash": "0xfbb87311c49837fe832e49f9ad1291265b9d98c4d6c0522a8394f227f63f9b4c",
      "transactionType": "CALL",
      "contractName": null,
      "contractAddress": "0x79dfbed14077b8f2421eece5707a17b161094e6a",
      "function": "wlMint(address)",
      "arguments": [
        "0x0000000000000000000000000000000000000000"
      ],
      "transaction": {
        "from": "0xcda2fdb452ff4f5d7ba1c3d5dfcc9cb926a5eb7d",
        "to": "0x79dfbed14077b8f2421eece5707a17b161094e6a",
        "gas": "0x3ddf7",
        "value": "0x0",
        "input": "0xc517b4a50000000000000000000000000000000000000000000000000000000000000000",
        "nonce": "0x1e60",
        "chainId": "0xed88"
      },
      "additionalContracts": [],
      "isFixedGasLimit": false
    },
    {
      "hash": "0x241a915b4fd18130ee1387f4bdb193f7bfb4178e0cc3ff4763d22d58a9ddff9d",
      "transactionType": "CALL",
      "contractName": null,
      "contractAddress": "0x79dfbed14077b8f2421eece5707a17b161094e6a",
      "function": "wlMint(address)",
      "arguments": [
        "0x0000000000000000000000000000000000000000"
      ],
      "transaction": {
        "from": "0xcda2fdb452ff4f5d7ba1c3d5dfcc9cb926a5eb7d",
        "to": "0x79dfbed14077b8f2421eece5707a17b161094e6a",
        "gas": "0x3ddf7",
        "value": "0x0",
        "input": "0xc517b4a50000000000000000000000000000000000000000000000000000000000000000",
        "nonce": "0x1e61",
        "chainId": "0xed88"
      },
      "additionalContracts": [],
      "isFixedGasLimit": false
    },
    {
      "hash": "0xb5b2482792c2dfa5cc7e969738264b164aa822b3891b4d3544c49e14ab6eca78",
      "transactionType": "CALL",
      "contractName": null,
      "contractAddress": "0x79dfbed14077b8f2421eece5707a17b161094e6a",
      "function": "wlMint(address)",
      "arguments": [
        "0x0000000000000000000000000000000000000000"
      ],
      "transaction": {
        "from": "0xcda2fdb452ff4f5d7ba1c3d5dfcc9cb926a5eb7d",
        "to": "0x79dfbed14077b8f2421eece5707a17b161094e6a",
        "gas": "0x3ddf7",
        "value": "0x0",
        "input": "0xc517b4a50000000000000000000000000000000000000000000000000000000000000000",
        "nonce": "0x1e62",
        "chainId": "0xed88"
      },
      "additionalContracts": [],
      "isFixedGasLimit": false
    },
    {
      "hash": "0xb70d62ed04ce195122eae8f94e9b83f5da7d800bebbaed102f56fd436b1b066e",
      "transactionType": "CALL",
      "contractName": null,
      "contractAddress": "0x79dfbed14077b8f2421eece5707a17b161094e6a",
      "function": "wlMint(address)",
      "arguments": [
        "0x0000000000000000000000000000000000000000"
      ],
      "transaction": {
        "from": "0xcda2fdb452ff4f5d7ba1c3d5dfcc9cb926a5eb7d",
        "to": "0x79dfbed14077b8f2421eece5707a17b161094e6a",
        "gas": "0x3ddf7",
        "value": "0x0",
        "input": "0xc517b4a50000000000000000000000000000000000000000000000000000000000000000",
        "nonce": "0x1e63",
        "chainId": "0xed88"
      },
      "additionalContracts": [],
      "isFixedGasLimit": false
    },
    {
      "hash": "0x366a2ccff9d129d087e6a1cf7b51367c00c86fce5c0eeb18bf844a5c15207e68",
      "transactionType": "CALL",
      "contractName": null,
      "contractAddress": "0x79dfbed14077b8f2421eece5707a17b161094e6a",
      "function": "wlMint(address)",
      "arguments": [
        "0x0000000000000000000000000000000000000000"
      ],
      "transaction": {
        "from": "0xcda2fdb452ff4f5d7ba1c3d5dfcc9cb926a5eb7d",
        "to": "0x79dfbed14077b8f2421eece5707a17b161094e6a",
        "gas": "0x3ddf7",
        "value": "0x0",
        "input": "0xc517b4a50000000000000000000000000000000000000000000000000000000000000000",
        "nonce": "0x1e64",
        "chainId": "0xed88"
      },
      "additionalContracts": [],
      "isFixedGasLimit": false
    },
    {
      "hash": "0xc21d100a1c8ffc785ef73fa8fef2831ff860f714d09c9d690f0664f8cf0ffd6d",
      "transactionType": "CALL",
      "contractName": null,
      "contractAddress": "0x79dfbed14077b8f2421eece5707a17b161094e6a",
      "function": "wlMint(address)",
      "arguments": [
        "0x0000000000000000000000000000000000000000"
      ],
      "transaction": {
        "from": "0xcda2fdb452ff4f5d7ba1c3d5dfcc9cb926a5eb7d",
        "to": "0x79dfbed14077b8f2421eece5707a17b161094e6a",
        "gas": "0x3ddf7",
        "value": "0x0",
        "input": "0xc517b4a50000000000000000000000000000000000000000000000000000000000000000",
        "nonce": "0x1e65",
        "chainId": "0xed88"
      },
      "additionalContracts": [],
      "isFixedGasLimit": false
    },
    {
      "hash": "0xe06aeddf87c3f0974884acd3b425c064472cdb41a5d8567daad31e5d34a8b7a0",
      "transactionType": "CALL",
      "contractName": null,
      "contractAddress": "0x79dfbed14077b8f2421eece5707a17b161094e6a",
      "function": "wlMint(address)",
      "arguments": [
        "0x0000000000000000000000000000000000000000"
      ],
      "transaction": {
        "from": "0xcda2fdb452ff4f5d7ba1c3d5dfcc9cb926a5eb7d",
        "to": "0x79dfbed14077b8f2421eece5707a17b161094e6a",
        "gas": "0x3ddf7",
        "value": "0x0",
        "input": "0xc517b4a50000000000000000000000000000000000000000000000000000000000000000",
        "nonce": "0x1e66",
        "chainId": "0xed88"
      },
      "additionalContracts": [],
      "isFixedGasLimit": false
    },
    {
      "hash": "0x7a006dc5257c4450e3dfe3b36bf96f548344f8097a6d2658e491a53d65b4bfae",
      "transactionType": "CALL",
      "contractName": null,
      "contractAddress": "0x79dfbed14077b8f2421eece5707a17b161094e6a",
      "function": "wlMint(address)",
      "arguments": [
        "0x0000000000000000000000000000000000000000"
      ],
      "transaction": {
        "from": "0xcda2fdb452ff4f5d7ba1c3d5dfcc9cb926a5eb7d",
        "to": "0x79dfbed14077b8f2421eece5707a17b161094e6a",
        "gas": "0x3ddf7",
        "value": "0x0",
        "input": "0xc517b4a50000000000000000000000000000000000000000000000000000000000000000",
        "nonce": "0x1e67",
        "chainId": "0xed88"
      },
      "additionalContracts": [],
      "isFixedGasLimit": false
    },
    {
      "hash": "0x1d7533972af4d3b06d834041e89081db50e6b7651afce3eedee0cfe545f2d0cf",
      "transactionType": "CALL",
      "contractName": null,
      "contractAddress": "0x79dfbed14077b8f2421eece5707a17b161094e6a",
      "function": "wlMint(address)",
      "arguments": [
        "0x0000000000000000000000000000000000000000"
      ],
      "transaction": {
        "from": "0xcda2fdb452ff4f5d7ba1c3d5dfcc9cb926a5eb7d",
        "to": "0x79dfbed14077b8f2421eece5707a17b161094e6a",
        "gas": "0x3ddf7",
        "value": "0x0",
        "input": "0xc517b4a50000000000000000000000000000000000000000000000000000000000000000",
        "nonce": "0x1e68",
        "chainId": "0xed88"
      },
      "additionalContracts": [],
      "isFixedGasLimit": false
    },
    {
      "hash": "0x8794dd52514a0da53b95e229ae2d1e07001281b6afcf48af77aebb5f3abf1c34",
      "transactionType": "CALL",
      "contractName": null,
      "contractAddress": "0x79dfbed14077b8f2421eece5707a17b161094e6a",
      "function": "wlMint(address)",
      "arguments": [
        "0x0000000000000000000000000000000000000000"
      ],
      "transaction": {
        "from": "0xcda2fdb452ff4f5d7ba1c3d5dfcc9cb926a5eb7d",
        "to": "0x79dfbed14077b8f2421eece5707a17b161094e6a",
        "gas": "0x3ddf7",
        "value": "0x0",
        "input": "0xc517b4a50000000000000000000000000000000000000000000000000000000000000000",
        "nonce": "0x1e69",
        "chainId": "0xed88"
      },
      "additionalContracts": [],
      "isFixedGasLimit": false
    },
    {
      "hash": "0x83f1f42a089b49837cfaa17bee6c30fe2cb87035e6d3b3c96f896d9980102f88",
      "transactionType": "CALL",
      "contractName": null,
      "contractAddress": "0x79dfbed14077b8f2421eece5707a17b161094e6a",
      "function": "wlMint(address)",
      "arguments": [
        "0x0000000000000000000000000000000000000000"
      ],
      "transaction": {
        "from": "0xcda2fdb452ff4f5d7ba1c3d5dfcc9cb926a5eb7d",
        "to": "0x79dfbed14077b8f2421eece5707a17b161094e6a",
        "gas": "0x3ddf7",
        "value": "0x0",
        "input": "0xc517b4a50000000000000000000000000000000000000000000000000000000000000000",
        "nonce": "0x1e6a",
        "chainId": "0xed88"
      },
      "additionalContracts": [],
      "isFixedGasLimit": false
    },
    {
      "hash": "0xea1288af3e6cd80673e2f447a61e14a77b32a933953da52ab2a4a44397a54bde",
      "transactionType": "CALL",
      "contractName": null,
      "contractAddress": "0x79dfbed14077b8f2421eece5707a17b161094e6a",
      "function": "wlMint(address)",
      "arguments": [
        "0x0000000000000000000000000000000000000000"
      ],
      "transaction": {
        "from": "0xcda2fdb452ff4f5d7ba1c3d5dfcc9cb926a5eb7d",
        "to": "0x79dfbed14077b8f2421eece5707a17b161094e6a",
        "gas": "0x3ddf7",
        "value": "0x0",
        "input": "0xc517b4a50000000000000000000000000000000000000000000000000000000000000000",
        "nonce": "0x1e6b",
        "chainId": "0xed88"
      },
      "additionalContracts": [],
      "isFixedGasLimit": false
    },
    {
      "hash": "0xd6b50c04afd7de3690a3e54eba42ecfe5656b59dc3e67dbfbd4131b29801d491",
      "transactionType": "CALL",
      "contractName": null,
      "contractAddress": "0x79dfbed14077b8f2421eece5707a17b161094e6a",
      "function": "wlMint(address)",
      "arguments": [
        "0x0000000000000000000000000000000000000000"
      ],
      "transaction": {
        "from": "0xcda2fdb452ff4f5d7ba1c3d5dfcc9cb926a5eb7d",
        "to": "0x79dfbed14077b8f2421eece5707a17b161094e6a",
        "gas": "0x3ddf7",
        "value": "0x0",
        "input": "0xc517b4a50000000000000000000000000000000000000000000000000000000000000000",
        "nonce": "0x1e6c",
        "chainId": "0xed88"
      },
      "additionalContracts": [],
      "isFixedGasLimit": false
    },
    {
      "hash": "0x87293914420456bf30e569d06c96ff705821565753727d4edc7ce82103fb199d",
      "transactionType": "CALL",
      "contractName": null,
      "contractAddress": "0x79dfbed14077b8f2421eece5707a17b161094e6a",
      "function": "wlMint(address)",
      "arguments": [
        "0x0000000000000000000000000000000000000000"
      ],
      "transaction": {
        "from": "0xcda2fdb452ff4f5d7ba1c3d5dfcc9cb926a5eb7d",
        "to": "0x79dfbed14077b8f2421eece5707a17b161094e6a",
        "gas": "0x3ddf7",
        "value": "0x0",
        "input": "0xc517b4a50000000000000000000000000000000000000000000000000000000000000000",
        "nonce": "0x1e6d",
        "chainId": "0xed88"
      },
      "additionalContracts": [],
      "isFixedGasLimit": false
    },
    {
      "hash": "0x142bb15010b01b035c2398a6735e52eba26d1c425fb14468676d315c75264457",
      "transactionType": "CALL",
      "contractName": null,
      "contractAddress": "0x79dfbed14077b8f2421eece5707a17b161094e6a",
      "function": "wlMint(address)",
      "arguments": [
        "0x0000000000000000000000000000000000000000"
      ],
      "transaction": {
        "from": "0xcda2fdb452ff4f5d7ba1c3d5dfcc9cb926a5eb7d",
        "to": "0x79dfbed14077b8f2421eece5707a17b161094e6a",
        "gas": "0x3ddf7",
        "value": "0x0",
        "input": "0xc517b4a50000000000000000000000000000000000000000000000000000000000000000",
        "nonce": "0x1e6e",
        "chainId": "0xed88"
      },
      "additionalContracts": [],
      "isFixedGasLimit": false
    },
    {
      "hash": "0x1d09da5fcd38dc60a5a70fb508479c1ba938480276784e79476115386870bf31",
      "transactionType": "CALL",
      "contractName": null,
      "contractAddress": "0x79dfbed14077b8f2421eece5707a17b161094e6a",
      "function": "wlMint(address)",
      "arguments": [
        "0x0000000000000000000000000000000000000000"
      ],
      "transaction": {
        "from": "0xcda2fdb452ff4f5d7ba1c3d5dfcc9cb926a5eb7d",
        "to": "0x79dfbed14077b8f2421eece5707a17b161094e6a",
        "gas": "0x3ddf7",
        "value": "0x0",
        "input": "0xc517b4a50000000000000000000000000000000000000000000000000000000000000000",
        "nonce": "0x1e6f",
        "chainId": "0xed88"
      },
      "additionalContracts": [],
      "isFixedGasLimit": false
    },
    {
      "hash": "0xe4f91ffd4a647400a4155d052a5d830b555b3f949c956ef04a9ca2ec2bdd60b1",
      "transactionType": "CALL",
      "contractName": null,
      "contractAddress": "0x79dfbed14077b8f2421eece5707a17b161094e6a",
      "function": "wlMint(address)",
      "arguments": [
        "0x0000000000000000000000000000000000000000"
      ],
      "transaction": {
        "from": "0xcda2fdb452ff4f5d7ba1c3d5dfcc9cb926a5eb7d",
        "to": "0x79dfbed14077b8f2421eece5707a17b161094e6a",
        "gas": "0x3ddf7",
        "value": "0x0",
        "input": "0xc517b4a50000000000000000000000000000000000000000000000000000000000000000",
        "nonce": "0x1e70",
        "chainId": "0xed88"
      },
      "additionalContracts": [],
      "isFixedGasLimit": false
    },
    {
      "hash": "0x2bea9567e93e00b55f6010bd625ec2a3978b2e5fbacedf68d42e3474b289a8d5",
      "transactionType": "CALL",
      "contractName": null,
      "contractAddress": "0x79dfbed14077b8f2421eece5707a17b161094e6a",
      "function": "wlMint(address)",
      "arguments": [
        "0x0000000000000000000000000000000000000000"
      ],
      "transaction": {
        "from": "0xcda2fdb452ff4f5d7ba1c3d5dfcc9cb926a5eb7d",
        "to": "0x79dfbed14077b8f2421eece5707a17b161094e6a",
        "gas": "0x3ddf7",
        "value": "0x0",
        "input": "0xc517b4a50000000000000000000000000000000000000000000000000000000000000000",
        "nonce": "0x1e71",
        "chainId": "0xed88"
      },
      "additionalContracts": [],
      "isFixedGasLimit": false
    },
    {
      "hash": "0x2426867c1959aa030b348c542f077741c352c66b9ed0a232f789bd60ba19ed9a",
      "transactionType": "CALL",
      "contractName": null,
      "contractAddress": "0x79dfbed14077b8f2421eece5707a17b161094e6a",
      "function": "wlMint(address)",
      "arguments": [
        "0x0000000000000000000000000000000000000000"
      ],
      "transaction": {
        "from": "0xcda2fdb452ff4f5d7ba1c3d5dfcc9cb926a5eb7d",
        "to": "0x79dfbed14077b8f2421eece5707a17b161094e6a",
        "gas": "0x3ddf7",
        "value": "0x0",
        "input": "0xc517b4a50000000000000000000000000000000000000000000000000000000000000000",
        "nonce": "0x1e72",
        "chainId": "0xed88"
      },
      "additionalContracts": [],
      "isFixedGasLimit": false
    },
    {
      "hash": "0x2e4ab12c230de166b7f3f50988159414b82f238c44289ac625faf084ca04118f",
      "transactionType": "CALL",
      "contractName": null,
      "contractAddress": "0x79dfbed14077b8f2421eece5707a17b161094e6a",
      "function": "wlMint(address)",
      "arguments": [
        "0x0000000000000000000000000000000000000000"
      ],
      "transaction": {
        "from": "0xcda2fdb452ff4f5d7ba1c3d5dfcc9cb926a5eb7d",
        "to": "0x79dfbed14077b8f2421eece5707a17b161094e6a",
        "gas": "0x3ddf7",
        "value": "0x0",
        "input": "0xc517b4a50000000000000000000000000000000000000000000000000000000000000000",
        "nonce": "0x1e73",
        "chainId": "0xed88"
      },
      "additionalContracts": [],
      "isFixedGasLimit": false
    },
    {
      "hash": "0x0887dbb30428ce43e0a7d6135442ac4fda3bae78b181e5fc1de6b05855149b74",
      "transactionType": "CALL",
      "contractName": null,
      "contractAddress": "0x79dfbed14077b8f2421eece5707a17b161094e6a",
      "function": "wlMint(address)",
      "arguments": [
        "0x0000000000000000000000000000000000000000"
      ],
      "transaction": {
        "from": "0xcda2fdb452ff4f5d7ba1c3d5dfcc9cb926a5eb7d",
        "to": "0x79dfbed14077b8f2421eece5707a17b161094e6a",
        "gas": "0x3ddf7",
        "value": "0x0",
        "input": "0xc517b4a50000000000000000000000000000000000000000000000000000000000000000",
        "nonce": "0x1e74",
        "chainId": "0xed88"
      },
      "additionalContracts": [],
      "isFixedGasLimit": false
    },
    {
      "hash": "0x78f7b3e520378b6128329baa94fa5dd29c5e590ec17639b29544a38e37815759",
      "transactionType": "CALL",
      "contractName": null,
      "contractAddress": "0x79dfbed14077b8f2421eece5707a17b161094e6a",
      "function": "wlMint(address)",
      "arguments": [
        "0x0000000000000000000000000000000000000000"
      ],
      "transaction": {
        "from": "0xcda2fdb452ff4f5d7ba1c3d5dfcc9cb926a5eb7d",
        "to": "0x79dfbed14077b8f2421eece5707a17b161094e6a",
        "gas": "0x3ddf7",
        "value": "0x0",
        "input": "0xc517b4a50000000000000000000000000000000000000000000000000000000000000000",
        "nonce": "0x1e75",
        "chainId": "0xed88"
      },
      "additionalContracts": [],
      "isFixedGasLimit": false
    }
  ],
  "receipts": [
    {
      "status": "0x1",
      "cumulativeGasUsed": "0x3780f",
      "logs": [
        {
          "address": "0x2e8af9c5922623058aa92a183b391e62cb6b2d12",
          "topics": [
            "0xddf252ad1be2c89b69c2b068fc378daa952ba7f163c4a11628f55a4df523b3ef",
            "0x0000000000000000000000000000000000000000000000000000000000000000",
            "0x000000000000000000000000cda2fdb452ff4f5d7ba1c3d5dfcc9cb926a5eb7d",
            "0x000000000000000000000000000000000000000000000000000000000000024e"
          ],
          "data": "0x",
          "blockHash": "0x726b7039d9cab609cb436a55acc63885cbd13d93a5bf5c79bc5676b5eade4134",
          "blockNumber": "0x7512db",
          "transactionHash": "0x1c040a30cdf81e897af6c6109cf3e7a742f7bc7beb87d2ab243d5f1f05a956bb",
          "transactionIndex": "0x1",
          "logIndex": "0x0",
          "removed": false
        },
        {
          "address": "0x2e8af9c5922623058aa92a183b391e62cb6b2d12",
          "topics": [
            "0xf8e1a15aba9398e019f0b49df1a4fde98ee17ae345cb5f6b5e2c27f5033e8ce7"
          ],
          "data": "0x000000000000000000000000000000000000000000000000000000000000024e",
          "blockHash": "0x726b7039d9cab609cb436a55acc63885cbd13d93a5bf5c79bc5676b5eade4134",
          "blockNumber": "0x7512db",
          "transactionHash": "0x1c040a30cdf81e897af6c6109cf3e7a742f7bc7beb87d2ab243d5f1f05a956bb",
          "transactionIndex": "0x1",
          "logIndex": "0x1",
          "removed": false
        }
      ],
      "logsBloom": "0x00000000000000000000000000000010000000020000000000000000000000000000000000000000000000000000000000000000000000000000000000000000000000000000000000000008040000000000000000000000000000000000000000000000020000000000000000000800002000000000800000000010000000000000000000000000000000000000000000000000000000000000000000000000000000000000000000000000000000002000000000004000000000000000008000000002000000000000000000000000000000800000000000000000000020000000000000000000200000002000000000000000100000000000000000000000",
      "type": "0x2",
      "transactionHash": "0x1c040a30cdf81e897af6c6109cf3e7a742f7bc7beb87d2ab243d5f1f05a956bb",
      "transactionIndex": "0x1",
      "blockHash": "0x726b7039d9cab609cb436a55acc63885cbd13d93a5bf5c79bc5676b5eade4134",
      "blockNumber": "0x7512db",
      "gasUsed": "0x2ccb8",
      "effectiveGasPrice": "0xfd",
      "from": "0xcda2fdb452ff4f5d7ba1c3d5dfcc9cb926a5eb7d",
      "to": "0x79dfbed14077b8f2421eece5707a17b161094e6a",
      "contractAddress": null,
      "l1BaseFeeScalar": "0x186a0",
      "l1BlobBaseFee": "0x1",
      "l1BlobBaseFeeScalar": "0x95506",
      "l1Fee": "0x187d734343d",
      "l1GasPrice": "0x272f1ed20",
      "l1GasUsed": "0x640"
    },
    {
      "status": "0x1",
      "cumulativeGasUsed": "0x644c7",
      "logs": [
        {
          "address": "0x2e8af9c5922623058aa92a183b391e62cb6b2d12",
          "topics": [
            "0xddf252ad1be2c89b69c2b068fc378daa952ba7f163c4a11628f55a4df523b3ef",
            "0x0000000000000000000000000000000000000000000000000000000000000000",
            "0x000000000000000000000000cda2fdb452ff4f5d7ba1c3d5dfcc9cb926a5eb7d",
            "0x000000000000000000000000000000000000000000000000000000000000024f"
          ],
          "data": "0x",
          "blockHash": "0x726b7039d9cab609cb436a55acc63885cbd13d93a5bf5c79bc5676b5eade4134",
          "blockNumber": "0x7512db",
          "transactionHash": "0x50d7bda67cad6c41ec2f3dc3885003e9c1399a3f5641986118f5991bb1a6d2d2",
          "transactionIndex": "0x2",
          "logIndex": "0x2",
          "removed": false
        },
        {
          "address": "0x2e8af9c5922623058aa92a183b391e62cb6b2d12",
          "topics": [
            "0xf8e1a15aba9398e019f0b49df1a4fde98ee17ae345cb5f6b5e2c27f5033e8ce7"
          ],
          "data": "0x000000000000000000000000000000000000000000000000000000000000024f",
          "blockHash": "0x726b7039d9cab609cb436a55acc63885cbd13d93a5bf5c79bc5676b5eade4134",
          "blockNumber": "0x7512db",
          "transactionHash": "0x50d7bda67cad6c41ec2f3dc3885003e9c1399a3f5641986118f5991bb1a6d2d2",
          "transactionIndex": "0x2",
          "logIndex": "0x3",
          "removed": false
        }
      ],
      "logsBloom": "0x00000000000000000000000000000000000000020000000000000000000000000000000000000000000000000000000000000000000000000000000000000000000000000000000000000008040000000000000000000000000000000000000000000000020000000000000000000800002000000000800000000010000000000000000000000000000000000000000000000000000000000000000000000000000000000000000000000000000000002000004000004000000000001000008000000002000000000000000002000000000000000000000000000000000020000000000000000000200000000000000000000000100000000000000000000000",
      "type": "0x2",
      "transactionHash": "0x50d7bda67cad6c41ec2f3dc3885003e9c1399a3f5641986118f5991bb1a6d2d2",
      "transactionIndex": "0x2",
      "blockHash": "0x726b7039d9cab609cb436a55acc63885cbd13d93a5bf5c79bc5676b5eade4134",
      "blockNumber": "0x7512db",
      "gasUsed": "0x2ccb8",
      "effectiveGasPrice": "0xfd",
      "from": "0xcda2fdb452ff4f5d7ba1c3d5dfcc9cb926a5eb7d",
      "to": "0x79dfbed14077b8f2421eece5707a17b161094e6a",
      "contractAddress": null,
      "l1BaseFeeScalar": "0x186a0",
      "l1BlobBaseFee": "0x1",
      "l1BlobBaseFeeScalar": "0x95506",
      "l1Fee": "0x187d734343d",
      "l1GasPrice": "0x272f1ed20",
      "l1GasUsed": "0x640"
    },
    {
      "status": "0x1",
      "cumulativeGasUsed": "0x9117f",
      "logs": [
        {
          "address": "0x2e8af9c5922623058aa92a183b391e62cb6b2d12",
          "topics": [
            "0xddf252ad1be2c89b69c2b068fc378daa952ba7f163c4a11628f55a4df523b3ef",
            "0x0000000000000000000000000000000000000000000000000000000000000000",
            "0x000000000000000000000000cda2fdb452ff4f5d7ba1c3d5dfcc9cb926a5eb7d",
            "0x0000000000000000000000000000000000000000000000000000000000000250"
          ],
          "data": "0x",
          "blockHash": "0x726b7039d9cab609cb436a55acc63885cbd13d93a5bf5c79bc5676b5eade4134",
          "blockNumber": "0x7512db",
          "transactionHash": "0x97c1e8168871fda8ac0463ebf35973b20035a672c26e90c0fdf088b88fc4ec9c",
          "transactionIndex": "0x3",
          "logIndex": "0x4",
          "removed": false
        },
        {
          "address": "0x2e8af9c5922623058aa92a183b391e62cb6b2d12",
          "topics": [
            "0xf8e1a15aba9398e019f0b49df1a4fde98ee17ae345cb5f6b5e2c27f5033e8ce7"
          ],
          "data": "0x0000000000000000000000000000000000000000000000000000000000000250",
          "blockHash": "0x726b7039d9cab609cb436a55acc63885cbd13d93a5bf5c79bc5676b5eade4134",
          "blockNumber": "0x7512db",
          "transactionHash": "0x97c1e8168871fda8ac0463ebf35973b20035a672c26e90c0fdf088b88fc4ec9c",
          "transactionIndex": "0x3",
          "logIndex": "0x5",
          "removed": false
        }
      ],
      "logsBloom": "0x00000000000000000000000000000000000000020000000000000000000000000000000000000000000000000000000000000000000000000000000000000000000000000000000000000008040000000000000000000000000000000000000000000000020000000000000000000800002000000000800000000010000000000000000004000000000000000000000000000000000000000000000000000000000000000000000000000000000000002000000000004000000000000000008000000002000000002000080000000000000000000000000000000000000020000000000000000000200000000000000000000000100000000000000000000000",
      "type": "0x2",
      "transactionHash": "0x97c1e8168871fda8ac0463ebf35973b20035a672c26e90c0fdf088b88fc4ec9c",
      "transactionIndex": "0x3",
      "blockHash": "0x726b7039d9cab609cb436a55acc63885cbd13d93a5bf5c79bc5676b5eade4134",
      "blockNumber": "0x7512db",
      "gasUsed": "0x2ccb8",
      "effectiveGasPrice": "0xfd",
      "from": "0xcda2fdb452ff4f5d7ba1c3d5dfcc9cb926a5eb7d",
      "to": "0x79dfbed14077b8f2421eece5707a17b161094e6a",
      "contractAddress": null,
      "l1BaseFeeScalar": "0x186a0",
      "l1BlobBaseFee": "0x1",
      "l1BlobBaseFeeScalar": "0x95506",
      "l1Fee": "0x187d734343d",
      "l1GasPrice": "0x272f1ed20",
      "l1GasUsed": "0x640"
    },
    {
      "status": "0x1",
      "cumulativeGasUsed": "0xbde37",
      "logs": [
        {
          "address": "0x2e8af9c5922623058aa92a183b391e62cb6b2d12",
          "topics": [
            "0xddf252ad1be2c89b69c2b068fc378daa952ba7f163c4a11628f55a4df523b3ef",
            "0x0000000000000000000000000000000000000000000000000000000000000000",
            "0x000000000000000000000000cda2fdb452ff4f5d7ba1c3d5dfcc9cb926a5eb7d",
            "0x0000000000000000000000000000000000000000000000000000000000000251"
          ],
          "data": "0x",
          "blockHash": "0x726b7039d9cab609cb436a55acc63885cbd13d93a5bf5c79bc5676b5eade4134",
          "blockNumber": "0x7512db",
          "transactionHash": "0x0ebaec809f58d2f233fae185a9edacd78842cb205047135cc4e3baef1a8cd847",
          "transactionIndex": "0x4",
          "logIndex": "0x6",
          "removed": false
        },
        {
          "address": "0x2e8af9c5922623058aa92a183b391e62cb6b2d12",
          "topics": [
            "0xf8e1a15aba9398e019f0b49df1a4fde98ee17ae345cb5f6b5e2c27f5033e8ce7"
          ],
          "data": "0x0000000000000000000000000000000000000000000000000000000000000251",
          "blockHash": "0x726b7039d9cab609cb436a55acc63885cbd13d93a5bf5c79bc5676b5eade4134",
          "blockNumber": "0x7512db",
          "transactionHash": "0x0ebaec809f58d2f233fae185a9edacd78842cb205047135cc4e3baef1a8cd847",
          "transactionIndex": "0x4",
          "logIndex": "0x7",
          "removed": false
        }
      ],
      "logsBloom": "0x00000000000000000000000000000000000000020000000000000000000000000000000000000000000000000000000000400000000000000000000000000000000000000000000000000008040000000000000000000000000000000000000000000000020000000000000000000800002800000000800000000010000000000000000000000000000000100000000000000000000000000000000000000000000000000000000000000000000000002000000000004000000000000000008000000002000000000000000000000000000000000000000000000000000020000000000000000000200000000000000000000000100000000000000000000000",
      "type": "0x2",
      "transactionHash": "0x0ebaec809f58d2f233fae185a9edacd78842cb205047135cc4e3baef1a8cd847",
      "transactionIndex": "0x4",
      "blockHash": "0x726b7039d9cab609cb436a55acc63885cbd13d93a5bf5c79bc5676b5eade4134",
      "blockNumber": "0x7512db",
      "gasUsed": "0x2ccb8",
      "effectiveGasPrice": "0xfd",
      "from": "0xcda2fdb452ff4f5d7ba1c3d5dfcc9cb926a5eb7d",
      "to": "0x79dfbed14077b8f2421eece5707a17b161094e6a",
      "contractAddress": null,
      "l1BaseFeeScalar": "0x186a0",
      "l1BlobBaseFee": "0x1",
      "l1BlobBaseFeeScalar": "0x95506",
      "l1Fee": "0x187d734343d",
      "l1GasPrice": "0x272f1ed20",
      "l1GasUsed": "0x640"
    },
    {
      "status": "0x1",
      "cumulativeGasUsed": "0xeaaef",
      "logs": [
        {
          "address": "0x2e8af9c5922623058aa92a183b391e62cb6b2d12",
          "topics": [
            "0xddf252ad1be2c89b69c2b068fc378daa952ba7f163c4a11628f55a4df523b3ef",
            "0x0000000000000000000000000000000000000000000000000000000000000000",
            "0x000000000000000000000000cda2fdb452ff4f5d7ba1c3d5dfcc9cb926a5eb7d",
            "0x0000000000000000000000000000000000000000000000000000000000000252"
          ],
          "data": "0x",
          "blockHash": "0x726b7039d9cab609cb436a55acc63885cbd13d93a5bf5c79bc5676b5eade4134",
          "blockNumber": "0x7512db",
          "transactionHash": "0xb1b339284f8c3b1d3087077c59344e3d18ca7b7acdf144a06122b34d0301c2e4",
          "transactionIndex": "0x5",
          "logIndex": "0x8",
          "removed": false
        },
        {
          "address": "0x2e8af9c5922623058aa92a183b391e62cb6b2d12",
          "topics": [
            "0xf8e1a15aba9398e019f0b49df1a4fde98ee17ae345cb5f6b5e2c27f5033e8ce7"
          ],
          "data": "0x0000000000000000000000000000000000000000000000000000000000000252",
          "blockHash": "0x726b7039d9cab609cb436a55acc63885cbd13d93a5bf5c79bc5676b5eade4134",
          "blockNumber": "0x7512db",
          "transactionHash": "0xb1b339284f8c3b1d3087077c59344e3d18ca7b7acdf144a06122b34d0301c2e4",
          "transactionIndex": "0x5",
          "logIndex": "0x9",
          "removed": false
        }
      ],
      "logsBloom": "0x00000000000000000000000000000000000000020000000000000000000000000000000000000000000000000000000000000000000000000000000000000000000000000000000000000008040000000000000000000000000000000000000000000000020000000000000000000800002000000000800000000010000000000000000000000000000000000000000000000000000000000000000000000000000000000000000000000000000000002000000000004000000000000000008000000002000002000004000000000002000000000000000000000000000020000000000000000000200000000000000000000000100000000000000000000000",
      "type": "0x2",
      "transactionHash": "0xb1b339284f8c3b1d3087077c59344e3d18ca7b7acdf144a06122b34d0301c2e4",
      "transactionIndex": "0x5",
      "blockHash": "0x726b7039d9cab609cb436a55acc63885cbd13d93a5bf5c79bc5676b5eade4134",
      "blockNumber": "0x7512db",
      "gasUsed": "0x2ccb8",
      "effectiveGasPrice": "0xfd",
      "from": "0xcda2fdb452ff4f5d7ba1c3d5dfcc9cb926a5eb7d",
      "to": "0x79dfbed14077b8f2421eece5707a17b161094e6a",
      "contractAddress": null,
      "l1BaseFeeScalar": "0x186a0",
      "l1BlobBaseFee": "0x1",
      "l1BlobBaseFeeScalar": "0x95506",
      "l1Fee": "0x187d734343d",
      "l1GasPrice": "0x272f1ed20",
      "l1GasUsed": "0x640"
    },
    {
      "status": "0x1",
      "cumulativeGasUsed": "0x1177a7",
      "logs": [
        {
          "address": "0x2e8af9c5922623058aa92a183b391e62cb6b2d12",
          "topics": [
            "0xddf252ad1be2c89b69c2b068fc378daa952ba7f163c4a11628f55a4df523b3ef",
            "0x0000000000000000000000000000000000000000000000000000000000000000",
            "0x000000000000000000000000cda2fdb452ff4f5d7ba1c3d5dfcc9cb926a5eb7d",
            "0x0000000000000000000000000000000000000000000000000000000000000253"
          ],
          "data": "0x",
          "blockHash": "0x726b7039d9cab609cb436a55acc63885cbd13d93a5bf5c79bc5676b5eade4134",
          "blockNumber": "0x7512db",
          "transactionHash": "0x27edaadad488c2c9d1100895361c02ca34c0bdaa74a359fd175ed407e1d34ee1",
          "transactionIndex": "0x6",
          "logIndex": "0xa",
          "removed": false
        },
        {
          "address": "0x2e8af9c5922623058aa92a183b391e62cb6b2d12",
          "topics": [
            "0xf8e1a15aba9398e019f0b49df1a4fde98ee17ae345cb5f6b5e2c27f5033e8ce7"
          ],
          "data": "0x0000000000000000000000000000000000000000000000000000000000000253",
          "blockHash": "0x726b7039d9cab609cb436a55acc63885cbd13d93a5bf5c79bc5676b5eade4134",
          "blockNumber": "0x7512db",
          "transactionHash": "0x27edaadad488c2c9d1100895361c02ca34c0bdaa74a359fd175ed407e1d34ee1",
          "transactionIndex": "0x6",
          "logIndex": "0xb",
          "removed": false
        }
      ],
      "logsBloom": "0x00000000000000000000000000000000000000020000000000000000000000000000000000000000000000000000000000000000000000000000000000000000000000000000000000000008040000000000000000000000000000000000000000000000020000000000000100000800002000000000800000000010000000000000008000000000000000000000000000000000000000000000000000000000000000000000000000000000000000002000000000004000000010000000008000000002000000000000000000000000000000000000000000000000000020000000000000000000200000000000000000000000100000000000000000000000",
      "type": "0x2",
      "transactionHash": "0x27edaadad488c2c9d1100895361c02ca34c0bdaa74a359fd175ed407e1d34ee1",
      "transactionIndex": "0x6",
      "blockHash": "0x726b7039d9cab609cb436a55acc63885cbd13d93a5bf5c79bc5676b5eade4134",
      "blockNumber": "0x7512db",
      "gasUsed": "0x2ccb8",
      "effectiveGasPrice": "0xfd",
      "from": "0xcda2fdb452ff4f5d7ba1c3d5dfcc9cb926a5eb7d",
      "to": "0x79dfbed14077b8f2421eece5707a17b161094e6a",
      "contractAddress": null,
      "l1BaseFeeScalar": "0x186a0",
      "l1BlobBaseFee": "0x1",
      "l1BlobBaseFeeScalar": "0x95506",
      "l1Fee": "0x187d734343d",
      "l1GasPrice": "0x272f1ed20",
      "l1GasUsed": "0x640"
    },
    {
      "status": "0x1",
      "cumulativeGasUsed": "0x14445f",
      "logs": [
        {
          "address": "0x2e8af9c5922623058aa92a183b391e62cb6b2d12",
          "topics": [
            "0xddf252ad1be2c89b69c2b068fc378daa952ba7f163c4a11628f55a4df523b3ef",
            "0x0000000000000000000000000000000000000000000000000000000000000000",
            "0x000000000000000000000000cda2fdb452ff4f5d7ba1c3d5dfcc9cb926a5eb7d",
            "0x0000000000000000000000000000000000000000000000000000000000000254"
          ],
          "data": "0x",
          "blockHash": "0x726b7039d9cab609cb436a55acc63885cbd13d93a5bf5c79bc5676b5eade4134",
          "blockNumber": "0x7512db",
          "transactionHash": "0xfae2858a9c8be3aeb04de2658fa18bf3e3b0a6bb84e50844c2840353b3f7064e",
          "transactionIndex": "0x7",
          "logIndex": "0xc",
          "removed": false
        },
        {
          "address": "0x2e8af9c5922623058aa92a183b391e62cb6b2d12",
          "topics": [
            "0xf8e1a15aba9398e019f0b49df1a4fde98ee17ae345cb5f6b5e2c27f5033e8ce7"
          ],
          "data": "0x0000000000000000000000000000000000000000000000000000000000000254",
          "blockHash": "0x726b7039d9cab609cb436a55acc63885cbd13d93a5bf5c79bc5676b5eade4134",
          "blockNumber": "0x7512db",
          "transactionHash": "0xfae2858a9c8be3aeb04de2658fa18bf3e3b0a6bb84e50844c2840353b3f7064e",
          "transactionIndex": "0x7",
          "logIndex": "0xd",
          "removed": false
        }
      ],
      "logsBloom": "0x00000000000000000000000000000000000000020000000000000000000000000000000000000000020000000000000000000000000000000000000000000000000000000000000000000008040000000000000000000000000000000000000000000000020000000000000000000800002000000000800000000010000000000000000000000000000000000000000000000000000000000000000000000000000000000000000000000000000000002000000000004000000000000000008000000002000000000000000000000000000010000000000000000000000020000000000000000000200000000000000000000000100000002000000000000000",
      "type": "0x2",
      "transactionHash": "0xfae2858a9c8be3aeb04de2658fa18bf3e3b0a6bb84e50844c2840353b3f7064e",
      "transactionIndex": "0x7",
      "blockHash": "0x726b7039d9cab609cb436a55acc63885cbd13d93a5bf5c79bc5676b5eade4134",
      "blockNumber": "0x7512db",
      "gasUsed": "0x2ccb8",
      "effectiveGasPrice": "0xfd",
      "from": "0xcda2fdb452ff4f5d7ba1c3d5dfcc9cb926a5eb7d",
      "to": "0x79dfbed14077b8f2421eece5707a17b161094e6a",
      "contractAddress": null,
      "l1BaseFeeScalar": "0x186a0",
      "l1BlobBaseFee": "0x1",
      "l1BlobBaseFeeScalar": "0x95506",
      "l1Fee": "0x187d734343d",
      "l1GasPrice": "0x272f1ed20",
      "l1GasUsed": "0x640"
    },
    {
      "status": "0x1",
      "cumulativeGasUsed": "0x171117",
      "logs": [
        {
          "address": "0x2e8af9c5922623058aa92a183b391e62cb6b2d12",
          "topics": [
            "0xddf252ad1be2c89b69c2b068fc378daa952ba7f163c4a11628f55a4df523b3ef",
            "0x0000000000000000000000000000000000000000000000000000000000000000",
            "0x000000000000000000000000cda2fdb452ff4f5d7ba1c3d5dfcc9cb926a5eb7d",
            "0x0000000000000000000000000000000000000000000000000000000000000255"
          ],
          "data": "0x",
          "blockHash": "0x726b7039d9cab609cb436a55acc63885cbd13d93a5bf5c79bc5676b5eade4134",
          "blockNumber": "0x7512db",
          "transactionHash": "0x53a59021afff6fe231485a5db3acbff9dd0d83ecb0dc1c5dc1519b5fd5bf0781",
          "transactionIndex": "0x8",
          "logIndex": "0xe",
          "removed": false
        },
        {
          "address": "0x2e8af9c5922623058aa92a183b391e62cb6b2d12",
          "topics": [
            "0xf8e1a15aba9398e019f0b49df1a4fde98ee17ae345cb5f6b5e2c27f5033e8ce7"
          ],
          "data": "0x0000000000000000000000000000000000000000000000000000000000000255",
          "blockHash": "0x726b7039d9cab609cb436a55acc63885cbd13d93a5bf5c79bc5676b5eade4134",
          "blockNumber": "0x7512db",
          "transactionHash": "0x53a59021afff6fe231485a5db3acbff9dd0d83ecb0dc1c5dc1519b5fd5bf0781",
          "transactionIndex": "0x8",
          "logIndex": "0xf",
          "removed": false
        }
      ],
      "logsBloom": "0x00000000000000000000000000000000000000020000000000000000000000000000000000000000000000000000000000000000000000000000000000000000000000000000000000000008040000000000000000000000000000000000000000000000020000000000000000000800002000000000800000000010000000000000000000000000000000000000000000000000000000000000000000000000000000000000000000000000000000002000000000004000000000000000008000020002000000000000000000000000000000000000000000000002000020000000000000000000200000000010000000000000100000000000000000000000",
      "type": "0x2",
      "transactionHash": "0x53a59021afff6fe231485a5db3acbff9dd0d83ecb0dc1c5dc1519b5fd5bf0781",
      "transactionIndex": "0x8",
      "blockHash": "0x726b7039d9cab609cb436a55acc63885cbd13d93a5bf5c79bc5676b5eade4134",
      "blockNumber": "0x7512db",
      "gasUsed": "0x2ccb8",
      "effectiveGasPrice": "0xfd",
      "from": "0xcda2fdb452ff4f5d7ba1c3d5dfcc9cb926a5eb7d",
      "to": "0x79dfbed14077b8f2421eece5707a17b161094e6a",
      "contractAddress": null,
      "l1BaseFeeScalar": "0x186a0",
      "l1BlobBaseFee": "0x1",
      "l1BlobBaseFeeScalar": "0x95506",
      "l1Fee": "0x187d734343d",
      "l1GasPrice": "0x272f1ed20",
      "l1GasUsed": "0x640"
    },
    {
      "status": "0x1",
      "cumulativeGasUsed": "0x19ddcf",
      "logs": [
        {
          "address": "0x2e8af9c5922623058aa92a183b391e62cb6b2d12",
          "topics": [
            "0xddf252ad1be2c89b69c2b068fc378daa952ba7f163c4a11628f55a4df523b3ef",
            "0x0000000000000000000000000000000000000000000000000000000000000000",
            "0x000000000000000000000000cda2fdb452ff4f5d7ba1c3d5dfcc9cb926a5eb7d",
            "0x0000000000000000000000000000000000000000000000000000000000000256"
          ],
          "data": "0x",
          "blockHash": "0x726b7039d9cab609cb436a55acc63885cbd13d93a5bf5c79bc5676b5eade4134",
          "blockNumber": "0x7512db",
          "transactionHash": "0xfbb87311c49837fe832e49f9ad1291265b9d98c4d6c0522a8394f227f63f9b4c",
          "transactionIndex": "0x9",
          "logIndex": "0x10",
          "removed": false
        },
        {
          "address": "0x2e8af9c5922623058aa92a183b391e62cb6b2d12",
          "topics": [
            "0xf8e1a15aba9398e019f0b49df1a4fde98ee17ae345cb5f6b5e2c27f5033e8ce7"
          ],
          "data": "0x0000000000000000000000000000000000000000000000000000000000000256",
          "blockHash": "0x726b7039d9cab609cb436a55acc63885cbd13d93a5bf5c79bc5676b5eade4134",
          "blockNumber": "0x7512db",
          "transactionHash": "0xfbb87311c49837fe832e49f9ad1291265b9d98c4d6c0522a8394f227f63f9b4c",
          "transactionIndex": "0x9",
          "logIndex": "0x11",
          "removed": false
        }
      ],
      "logsBloom": "0x00000000000000000000000000000000000000020000000000000000000000000000000000000000000000000000000000000000000000000000000000000000000000000000000000000008040000000000000000000000000000000000000000000000020000000000000000000800002000000000800000000010000000000000000000000000000000000000000000000000000000000000000000000000000000000000000000000000000000002000000000004000000000000000008000000002000000000004000000000000000000000000000000000000000020000000000000000000200000000000000000400000100000000000000000010000",
      "type": "0x2",
      "transactionHash": "0xfbb87311c49837fe832e49f9ad1291265b9d98c4d6c0522a8394f227f63f9b4c",
      "transactionIndex": "0x9",
      "blockHash": "0x726b7039d9cab609cb436a55acc63885cbd13d93a5bf5c79bc5676b5eade4134",
      "blockNumber": "0x7512db",
      "gasUsed": "0x2ccb8",
      "effectiveGasPrice": "0xfd",
      "from": "0xcda2fdb452ff4f5d7ba1c3d5dfcc9cb926a5eb7d",
      "to": "0x79dfbed14077b8f2421eece5707a17b161094e6a",
      "contractAddress": null,
      "l1BaseFeeScalar": "0x186a0",
      "l1BlobBaseFee": "0x1",
      "l1BlobBaseFeeScalar": "0x95506",
      "l1Fee": "0x187d734343d",
      "l1GasPrice": "0x272f1ed20",
      "l1GasUsed": "0x640"
    },
    {
      "status": "0x1",
      "cumulativeGasUsed": "0x1caa87",
      "logs": [
        {
          "address": "0x2e8af9c5922623058aa92a183b391e62cb6b2d12",
          "topics": [
            "0xddf252ad1be2c89b69c2b068fc378daa952ba7f163c4a11628f55a4df523b3ef",
            "0x0000000000000000000000000000000000000000000000000000000000000000",
            "0x000000000000000000000000cda2fdb452ff4f5d7ba1c3d5dfcc9cb926a5eb7d",
            "0x0000000000000000000000000000000000000000000000000000000000000257"
          ],
          "data": "0x",
          "blockHash": "0x726b7039d9cab609cb436a55acc63885cbd13d93a5bf5c79bc5676b5eade4134",
          "blockNumber": "0x7512db",
          "transactionHash": "0x241a915b4fd18130ee1387f4bdb193f7bfb4178e0cc3ff4763d22d58a9ddff9d",
          "transactionIndex": "0xa",
          "logIndex": "0x12",
          "removed": false
        },
        {
          "address": "0x2e8af9c5922623058aa92a183b391e62cb6b2d12",
          "topics": [
            "0xf8e1a15aba9398e019f0b49df1a4fde98ee17ae345cb5f6b5e2c27f5033e8ce7"
          ],
          "data": "0x0000000000000000000000000000000000000000000000000000000000000257",
          "blockHash": "0x726b7039d9cab609cb436a55acc63885cbd13d93a5bf5c79bc5676b5eade4134",
          "blockNumber": "0x7512db",
          "transactionHash": "0x241a915b4fd18130ee1387f4bdb193f7bfb4178e0cc3ff4763d22d58a9ddff9d",
          "transactionIndex": "0xa",
          "logIndex": "0x13",
          "removed": false
        }
      ],
      "logsBloom": "0x00000000000000000000000000000000000000020000000000000000000000000000000000000000000000000000000000000000000000000000000000000000000000000000000000000008040000000000000000000000000000000000000000000000020000000000000000000800002000000010800000000010000000000000000000000040000000000000000000000000000000000000000000000000000000000000000000100000000000002000000000004000000000000000008000000002000000000000000000000000000000000000000000000000000020000000000000000000200000000000000000000000100000000000000000000000",
      "type": "0x2",
      "transactionHash": "0x241a915b4fd18130ee1387f4bdb193f7bfb4178e0cc3ff4763d22d58a9ddff9d",
      "transactionIndex": "0xa",
      "blockHash": "0x726b7039d9cab609cb436a55acc63885cbd13d93a5bf5c79bc5676b5eade4134",
      "blockNumber": "0x7512db",
      "gasUsed": "0x2ccb8",
      "effectiveGasPrice": "0xfd",
      "from": "0xcda2fdb452ff4f5d7ba1c3d5dfcc9cb926a5eb7d",
      "to": "0x79dfbed14077b8f2421eece5707a17b161094e6a",
      "contractAddress": null,
      "l1BaseFeeScalar": "0x186a0",
      "l1BlobBaseFee": "0x1",
      "l1BlobBaseFeeScalar": "0x95506",
      "l1Fee": "0x187d734343d",
      "l1GasPrice": "0x272f1ed20",
      "l1GasUsed": "0x640"
    },
    {
      "status": "0x1",
      "cumulativeGasUsed": "0x1f773f",
      "logs": [
        {
          "address": "0x2e8af9c5922623058aa92a183b391e62cb6b2d12",
          "topics": [
            "0xddf252ad1be2c89b69c2b068fc378daa952ba7f163c4a11628f55a4df523b3ef",
            "0x0000000000000000000000000000000000000000000000000000000000000000",
            "0x000000000000000000000000cda2fdb452ff4f5d7ba1c3d5dfcc9cb926a5eb7d",
            "0x0000000000000000000000000000000000000000000000000000000000000258"
          ],
          "data": "0x",
          "blockHash": "0x726b7039d9cab609cb436a55acc63885cbd13d93a5bf5c79bc5676b5eade4134",
          "blockNumber": "0x7512db",
          "transactionHash": "0xb5b2482792c2dfa5cc7e969738264b164aa822b3891b4d3544c49e14ab6eca78",
          "transactionIndex": "0xb",
          "logIndex": "0x14",
          "removed": false
        },
        {
          "address": "0x2e8af9c5922623058aa92a183b391e62cb6b2d12",
          "topics": [
            "0xf8e1a15aba9398e019f0b49df1a4fde98ee17ae345cb5f6b5e2c27f5033e8ce7"
          ],
          "data": "0x0000000000000000000000000000000000000000000000000000000000000258",
          "blockHash": "0x726b7039d9cab609cb436a55acc63885cbd13d93a5bf5c79bc5676b5eade4134",
          "blockNumber": "0x7512db",
          "transactionHash": "0xb5b2482792c2dfa5cc7e969738264b164aa822b3891b4d3544c49e14ab6eca78",
          "transactionIndex": "0xb",
          "logIndex": "0x15",
          "removed": false
        }
      ],
      "logsBloom": "0x00000000000000000000000000000000000000020000000000000000000000000000000000000000000000000000000000000000000000000000000000000000000000000000000000000008040000000000000000000000000000000000000000000000020000000000002000000800002000000002800000000010000000000000000000000000000000000000000000000000000000000000000000000000000000000000000000000000000000002000000000004000000000000000008000000002000000000000000000000000000000000000000000000000000020000000000000000000200001000000000000000000100000000000000000000000",
      "type": "0x2",
      "transactionHash": "0xb5b2482792c2dfa5cc7e969738264b164aa822b3891b4d3544c49e14ab6eca78",
      "transactionIndex": "0xb",
      "blockHash": "0x726b7039d9cab609cb436a55acc63885cbd13d93a5bf5c79bc5676b5eade4134",
      "blockNumber": "0x7512db",
      "gasUsed": "0x2ccb8",
      "effectiveGasPrice": "0xfd",
      "from": "0xcda2fdb452ff4f5d7ba1c3d5dfcc9cb926a5eb7d",
      "to": "0x79dfbed14077b8f2421eece5707a17b161094e6a",
      "contractAddress": null,
      "l1BaseFeeScalar": "0x186a0",
      "l1BlobBaseFee": "0x1",
      "l1BlobBaseFeeScalar": "0x95506",
      "l1Fee": "0x187d734343d",
      "l1GasPrice": "0x272f1ed20",
      "l1GasUsed": "0x640"
    },
    {
      "status": "0x1",
      "cumulativeGasUsed": "0x2243f7",
      "logs": [
        {
          "address": "0x2e8af9c5922623058aa92a183b391e62cb6b2d12",
          "topics": [
            "0xddf252ad1be2c89b69c2b068fc378daa952ba7f163c4a11628f55a4df523b3ef",
            "0x0000000000000000000000000000000000000000000000000000000000000000",
            "0x000000000000000000000000cda2fdb452ff4f5d7ba1c3d5dfcc9cb926a5eb7d",
            "0x0000000000000000000000000000000000000000000000000000000000000259"
          ],
          "data": "0x",
          "blockHash": "0x726b7039d9cab609cb436a55acc63885cbd13d93a5bf5c79bc5676b5eade4134",
          "blockNumber": "0x7512db",
          "transactionHash": "0xb70d62ed04ce195122eae8f94e9b83f5da7d800bebbaed102f56fd436b1b066e",
          "transactionIndex": "0xc",
          "logIndex": "0x16",
          "removed": false
        },
        {
          "address": "0x2e8af9c5922623058aa92a183b391e62cb6b2d12",
          "topics": [
            "0xf8e1a15aba9398e019f0b49df1a4fde98ee17ae345cb5f6b5e2c27f5033e8ce7"
          ],
          "data": "0x0000000000000000000000000000000000000000000000000000000000000259",
          "blockHash": "0x726b7039d9cab609cb436a55acc63885cbd13d93a5bf5c79bc5676b5eade4134",
          "blockNumber": "0x7512db",
          "transactionHash": "0xb70d62ed04ce195122eae8f94e9b83f5da7d800bebbaed102f56fd436b1b066e",
          "transactionIndex": "0xc",
          "logIndex": "0x17",
          "removed": false
        }
      ],
      "logsBloom": "0x00000000000000010000000000000000000000020000000000000000000000000000000000000000000000000000000000000000000000000000000000000000000000000000000000000008040000000000000000000000000000000000000000000000020000000000000000000800002000000000800002000010000000000000000000000000000000000000000000000000000000000000000000000000000000000000000000000000000000002000000000004000000000000000008000000002000000000000000000000000000000000000080000000000000020000000000000000000200000000000000000000000100000000000000000000000",
      "type": "0x2",
      "transactionHash": "0xb70d62ed04ce195122eae8f94e9b83f5da7d800bebbaed102f56fd436b1b066e",
      "transactionIndex": "0xc",
      "blockHash": "0x726b7039d9cab609cb436a55acc63885cbd13d93a5bf5c79bc5676b5eade4134",
      "blockNumber": "0x7512db",
      "gasUsed": "0x2ccb8",
      "effectiveGasPrice": "0xfd",
      "from": "0xcda2fdb452ff4f5d7ba1c3d5dfcc9cb926a5eb7d",
      "to": "0x79dfbed14077b8f2421eece5707a17b161094e6a",
      "contractAddress": null,
      "l1BaseFeeScalar": "0x186a0",
      "l1BlobBaseFee": "0x1",
      "l1BlobBaseFeeScalar": "0x95506",
      "l1Fee": "0x187d734343d",
      "l1GasPrice": "0x272f1ed20",
      "l1GasUsed": "0x640"
    },
    {
      "status": "0x1",
      "cumulativeGasUsed": "0x2510af",
      "logs": [
        {
          "address": "0x2e8af9c5922623058aa92a183b391e62cb6b2d12",
          "topics": [
            "0xddf252ad1be2c89b69c2b068fc378daa952ba7f163c4a11628f55a4df523b3ef",
            "0x0000000000000000000000000000000000000000000000000000000000000000",
            "0x000000000000000000000000cda2fdb452ff4f5d7ba1c3d5dfcc9cb926a5eb7d",
            "0x000000000000000000000000000000000000000000000000000000000000025a"
          ],
          "data": "0x",
          "blockHash": "0x726b7039d9cab609cb436a55acc63885cbd13d93a5bf5c79bc5676b5eade4134",
          "blockNumber": "0x7512db",
          "transactionHash": "0x366a2ccff9d129d087e6a1cf7b51367c00c86fce5c0eeb18bf844a5c15207e68",
          "transactionIndex": "0xd",
          "logIndex": "0x18",
          "removed": false
        },
        {
          "address": "0x2e8af9c5922623058aa92a183b391e62cb6b2d12",
          "topics": [
            "0xf8e1a15aba9398e019f0b49df1a4fde98ee17ae345cb5f6b5e2c27f5033e8ce7"
          ],
          "data": "0x000000000000000000000000000000000000000000000000000000000000025a",
          "blockHash": "0x726b7039d9cab609cb436a55acc63885cbd13d93a5bf5c79bc5676b5eade4134",
          "blockNumber": "0x7512db",
          "transactionHash": "0x366a2ccff9d129d087e6a1cf7b51367c00c86fce5c0eeb18bf844a5c15207e68",
          "transactionIndex": "0xd",
          "logIndex": "0x19",
          "removed": false
        }
      ],
      "logsBloom": "0x00000080000000000000000000000000000000020000000000000000000000000000000000000000000000200000000000000000000000000000000000000004000000000000000000000008040000000000000000000000000000000000000000000000020000000000000000000800002000000000800000000010000000000000000000000000000000000000000000000000000000000000000000000000000000000000000000000000000000002000000000004000000000000000008000000002000000000000000000000000000000000000000000000000000020000000000000000000200000000000000000000000100000000000000000000000",
      "type": "0x2",
      "transactionHash": "0x366a2ccff9d129d087e6a1cf7b51367c00c86fce5c0eeb18bf844a5c15207e68",
      "transactionIndex": "0xd",
      "blockHash": "0x726b7039d9cab609cb436a55acc63885cbd13d93a5bf5c79bc5676b5eade4134",
      "blockNumber": "0x7512db",
      "gasUsed": "0x2ccb8",
      "effectiveGasPrice": "0xfd",
      "from": "0xcda2fdb452ff4f5d7ba1c3d5dfcc9cb926a5eb7d",
      "to": "0x79dfbed14077b8f2421eece5707a17b161094e6a",
      "contractAddress": null,
      "l1BaseFeeScalar": "0x186a0",
      "l1BlobBaseFee": "0x1",
      "l1BlobBaseFeeScalar": "0x95506",
      "l1Fee": "0x187d734343d",
      "l1GasPrice": "0x272f1ed20",
      "l1GasUsed": "0x640"
    },
    {
      "status": "0x1",
      "cumulativeGasUsed": "0x27dd67",
      "logs": [
        {
          "address": "0x2e8af9c5922623058aa92a183b391e62cb6b2d12",
          "topics": [
            "0xddf252ad1be2c89b69c2b068fc378daa952ba7f163c4a11628f55a4df523b3ef",
            "0x0000000000000000000000000000000000000000000000000000000000000000",
            "0x000000000000000000000000cda2fdb452ff4f5d7ba1c3d5dfcc9cb926a5eb7d",
            "0x000000000000000000000000000000000000000000000000000000000000025b"
          ],
          "data": "0x",
          "blockHash": "0x726b7039d9cab609cb436a55acc63885cbd13d93a5bf5c79bc5676b5eade4134",
          "blockNumber": "0x7512db",
          "transactionHash": "0xc21d100a1c8ffc785ef73fa8fef2831ff860f714d09c9d690f0664f8cf0ffd6d",
          "transactionIndex": "0xe",
          "logIndex": "0x1a",
          "removed": false
        },
        {
          "address": "0x2e8af9c5922623058aa92a183b391e62cb6b2d12",
          "topics": [
            "0xf8e1a15aba9398e019f0b49df1a4fde98ee17ae345cb5f6b5e2c27f5033e8ce7"
          ],
          "data": "0x000000000000000000000000000000000000000000000000000000000000025b",
          "blockHash": "0x726b7039d9cab609cb436a55acc63885cbd13d93a5bf5c79bc5676b5eade4134",
          "blockNumber": "0x7512db",
          "transactionHash": "0xc21d100a1c8ffc785ef73fa8fef2831ff860f714d09c9d690f0664f8cf0ffd6d",
          "transactionIndex": "0xe",
          "logIndex": "0x1b",
          "removed": false
        }
      ],
      "logsBloom": "0x00000000000000000000000000000000000000020000000000004000000000000000000000000000000000000000000000000000000000000000000000000000000000000000000000000008040000000000000000000000000000000000000000000000020000000000000000000800002000000000800000000010000000000000000000000000000000000000000000000000000000000000000000000000000000000000000000000000000000002001000000004000000000000000008000000002000000000000000000000000000000000000000000000000000020000000000000000000200000000000000000000000100800000000000000000000",
      "type": "0x2",
      "transactionHash": "0xc21d100a1c8ffc785ef73fa8fef2831ff860f714d09c9d690f0664f8cf0ffd6d",
      "transactionIndex": "0xe",
      "blockHash": "0x726b7039d9cab609cb436a55acc63885cbd13d93a5bf5c79bc5676b5eade4134",
      "blockNumber": "0x7512db",
      "gasUsed": "0x2ccb8",
      "effectiveGasPrice": "0xfd",
      "from": "0xcda2fdb452ff4f5d7ba1c3d5dfcc9cb926a5eb7d",
      "to": "0x79dfbed14077b8f2421eece5707a17b161094e6a",
      "contractAddress": null,
      "l1BaseFeeScalar": "0x186a0",
      "l1BlobBaseFee": "0x1",
      "l1BlobBaseFeeScalar": "0x95506",
      "l1Fee": "0x187d734343d",
      "l1GasPrice": "0x272f1ed20",
      "l1GasUsed": "0x640"
    },
    {
      "status": "0x1",
      "cumulativeGasUsed": "0x2aaa1f",
      "logs": [
        {
          "address": "0x2e8af9c5922623058aa92a183b391e62cb6b2d12",
          "topics": [
            "0xddf252ad1be2c89b69c2b068fc378daa952ba7f163c4a11628f55a4df523b3ef",
            "0x0000000000000000000000000000000000000000000000000000000000000000",
            "0x000000000000000000000000cda2fdb452ff4f5d7ba1c3d5dfcc9cb926a5eb7d",
            "0x000000000000000000000000000000000000000000000000000000000000025c"
          ],
          "data": "0x",
          "blockHash": "0x726b7039d9cab609cb436a55acc63885cbd13d93a5bf5c79bc5676b5eade4134",
          "blockNumber": "0x7512db",
          "transactionHash": "0xe06aeddf87c3f0974884acd3b425c064472cdb41a5d8567daad31e5d34a8b7a0",
          "transactionIndex": "0xf",
          "logIndex": "0x1c",
          "removed": false
        },
        {
          "address": "0x2e8af9c5922623058aa92a183b391e62cb6b2d12",
          "topics": [
            "0xf8e1a15aba9398e019f0b49df1a4fde98ee17ae345cb5f6b5e2c27f5033e8ce7"
          ],
          "data": "0x000000000000000000000000000000000000000000000000000000000000025c",
          "blockHash": "0x726b7039d9cab609cb436a55acc63885cbd13d93a5bf5c79bc5676b5eade4134",
          "blockNumber": "0x7512db",
          "transactionHash": "0xe06aeddf87c3f0974884acd3b425c064472cdb41a5d8567daad31e5d34a8b7a0",
          "transactionIndex": "0xf",
          "logIndex": "0x1d",
          "removed": false
        }
      ],
      "logsBloom": "0x00000000000000000000000000000000000000020000000000000000000000000000000000000000000000000000000000000000000000000000000000000000000000000000000000000008040000000000000000000000000000000000000000000000020000000000000000000800002000000000800000000010000000000000008000000000000000000000000000000000000000000000000000000000000000000000000000000000000000202000000000004000000000000000008000000002000000000000000000000000000000000000000000000000000020000000000000000000200000000000002000000000100000000000000000000000",
      "type": "0x2",
      "transactionHash": "0xe06aeddf87c3f0974884acd3b425c064472cdb41a5d8567daad31e5d34a8b7a0",
      "transactionIndex": "0xf",
      "blockHash": "0x726b7039d9cab609cb436a55acc63885cbd13d93a5bf5c79bc5676b5eade4134",
      "blockNumber": "0x7512db",
      "gasUsed": "0x2ccb8",
      "effectiveGasPrice": "0xfd",
      "from": "0xcda2fdb452ff4f5d7ba1c3d5dfcc9cb926a5eb7d",
      "to": "0x79dfbed14077b8f2421eece5707a17b161094e6a",
      "contractAddress": null,
      "l1BaseFeeScalar": "0x186a0",
      "l1BlobBaseFee": "0x1",
      "l1BlobBaseFeeScalar": "0x95506",
      "l1Fee": "0x187d734343d",
      "l1GasPrice": "0x272f1ed20",
      "l1GasUsed": "0x640"
    },
    {
      "status": "0x1",
      "cumulativeGasUsed": "0x2d76d7",
      "logs": [
        {
          "address": "0x2e8af9c5922623058aa92a183b391e62cb6b2d12",
          "topics": [
            "0xddf252ad1be2c89b69c2b068fc378daa952ba7f163c4a11628f55a4df523b3ef",
            "0x0000000000000000000000000000000000000000000000000000000000000000",
            "0x000000000000000000000000cda2fdb452ff4f5d7ba1c3d5dfcc9cb926a5eb7d",
            "0x000000000000000000000000000000000000000000000000000000000000025d"
          ],
          "data": "0x",
          "blockHash": "0x726b7039d9cab609cb436a55acc63885cbd13d93a5bf5c79bc5676b5eade4134",
          "blockNumber": "0x7512db",
          "transactionHash": "0x7a006dc5257c4450e3dfe3b36bf96f548344f8097a6d2658e491a53d65b4bfae",
          "transactionIndex": "0x10",
          "logIndex": "0x1e",
          "removed": false
        },
        {
          "address": "0x2e8af9c5922623058aa92a183b391e62cb6b2d12",
          "topics": [
            "0xf8e1a15aba9398e019f0b49df1a4fde98ee17ae345cb5f6b5e2c27f5033e8ce7"
          ],
          "data": "0x000000000000000000000000000000000000000000000000000000000000025d",
          "blockHash": "0x726b7039d9cab609cb436a55acc63885cbd13d93a5bf5c79bc5676b5eade4134",
          "blockNumber": "0x7512db",
          "transactionHash": "0x7a006dc5257c4450e3dfe3b36bf96f548344f8097a6d2658e491a53d65b4bfae",
          "transactionIndex": "0x10",
          "logIndex": "0x1f",
          "removed": false
        }
      ],
      "logsBloom": "0x00000000000000000001000000000000000000020000000000000000000000000000000000000000000000000000000000000000004000000000000000000000000000000800000000000008040000000000000000000000000000000000000000000000020000000000000000000800002000000000800000000010000000000000000000000000000000000000000000000000000000000000000000000000000000000000000000000000000000002000000000004000000000000000008000000002000000000000000000000000000000000000000000000000000020000000000000000000200000000000000000000000100000000000000000000000",
      "type": "0x2",
      "transactionHash": "0x7a006dc5257c4450e3dfe3b36bf96f548344f8097a6d2658e491a53d65b4bfae",
      "transactionIndex": "0x10",
      "blockHash": "0x726b7039d9cab609cb436a55acc63885cbd13d93a5bf5c79bc5676b5eade4134",
      "blockNumber": "0x7512db",
      "gasUsed": "0x2ccb8",
      "effectiveGasPrice": "0xfd",
      "from": "0xcda2fdb452ff4f5d7ba1c3d5dfcc9cb926a5eb7d",
      "to": "0x79dfbed14077b8f2421eece5707a17b161094e6a",
      "contractAddress": null,
      "l1BaseFeeScalar": "0x186a0",
      "l1BlobBaseFee": "0x1",
      "l1BlobBaseFeeScalar": "0x95506",
      "l1Fee": "0x187d734343d",
      "l1GasPrice": "0x272f1ed20",
      "l1GasUsed": "0x640"
    },
    {
      "status": "0x1",
      "cumulativeGasUsed": "0x30438f",
      "logs": [
        {
          "address": "0x2e8af9c5922623058aa92a183b391e62cb6b2d12",
          "topics": [
            "0xddf252ad1be2c89b69c2b068fc378daa952ba7f163c4a11628f55a4df523b3ef",
            "0x0000000000000000000000000000000000000000000000000000000000000000",
            "0x000000000000000000000000cda2fdb452ff4f5d7ba1c3d5dfcc9cb926a5eb7d",
            "0x000000000000000000000000000000000000000000000000000000000000025e"
          ],
          "data": "0x",
          "blockHash": "0x726b7039d9cab609cb436a55acc63885cbd13d93a5bf5c79bc5676b5eade4134",
          "blockNumber": "0x7512db",
          "transactionHash": "0x1d7533972af4d3b06d834041e89081db50e6b7651afce3eedee0cfe545f2d0cf",
          "transactionIndex": "0x11",
          "logIndex": "0x20",
          "removed": false
        },
        {
          "address": "0x2e8af9c5922623058aa92a183b391e62cb6b2d12",
          "topics": [
            "0xf8e1a15aba9398e019f0b49df1a4fde98ee17ae345cb5f6b5e2c27f5033e8ce7"
          ],
          "data": "0x000000000000000000000000000000000000000000000000000000000000025e",
          "blockHash": "0x726b7039d9cab609cb436a55acc63885cbd13d93a5bf5c79bc5676b5eade4134",
          "blockNumber": "0x7512db",
          "transactionHash": "0x1d7533972af4d3b06d834041e89081db50e6b7651afce3eedee0cfe545f2d0cf",
          "transactionIndex": "0x11",
          "logIndex": "0x21",
          "removed": false
        }
      ],
      "logsBloom": "0x00000000000000000000000000000000000000020000000000000200000000000000000040000000000000000000000000000000000000000000000000000000000000000000000000000008040000000000000000000000000000000000000000000000020000000000000000000800002000000000800000000010000000000000000000000000000000000000000000000000000000000000000000000000000000000000000000000000000000002000000000004000000000000000008000000002000000000000000000000000000000000000000000000000000020000000000000000000200000000001000000000000100000000000000000000000",
      "type": "0x2",
      "transactionHash": "0x1d7533972af4d3b06d834041e89081db50e6b7651afce3eedee0cfe545f2d0cf",
      "transactionIndex": "0x11",
      "blockHash": "0x726b7039d9cab609cb436a55acc63885cbd13d93a5bf5c79bc5676b5eade4134",
      "blockNumber": "0x7512db",
      "gasUsed": "0x2ccb8",
      "effectiveGasPrice": "0xfd",
      "from": "0xcda2fdb452ff4f5d7ba1c3d5dfcc9cb926a5eb7d",
      "to": "0x79dfbed14077b8f2421eece5707a17b161094e6a",
      "contractAddress": null,
      "l1BaseFeeScalar": "0x186a0",
      "l1BlobBaseFee": "0x1",
      "l1BlobBaseFeeScalar": "0x95506",
      "l1Fee": "0x187d734343d",
      "l1GasPrice": "0x272f1ed20",
      "l1GasUsed": "0x640"
    },
    {
      "status": "0x1",
      "cumulativeGasUsed": "0x331047",
      "logs": [
        {
          "address": "0x2e8af9c5922623058aa92a183b391e62cb6b2d12",
          "topics": [
            "0xddf252ad1be2c89b69c2b068fc378daa952ba7f163c4a11628f55a4df523b3ef",
            "0x0000000000000000000000000000000000000000000000000000000000000000",
            "0x000000000000000000000000cda2fdb452ff4f5d7ba1c3d5dfcc9cb926a5eb7d",
            "0x000000000000000000000000000000000000000000000000000000000000025f"
          ],
          "data": "0x",
          "blockHash": "0x726b7039d9cab609cb436a55acc63885cbd13d93a5bf5c79bc5676b5eade4134",
          "blockNumber": "0x7512db",
          "transactionHash": "0x8794dd52514a0da53b95e229ae2d1e07001281b6afcf48af77aebb5f3abf1c34",
          "transactionIndex": "0x12",
          "logIndex": "0x22",
          "removed": false
        },
        {
          "address": "0x2e8af9c5922623058aa92a183b391e62cb6b2d12",
          "topics": [
            "0xf8e1a15aba9398e019f0b49df1a4fde98ee17ae345cb5f6b5e2c27f5033e8ce7"
          ],
          "data": "0x000000000000000000000000000000000000000000000000000000000000025f",
          "blockHash": "0x726b7039d9cab609cb436a55acc63885cbd13d93a5bf5c79bc5676b5eade4134",
          "blockNumber": "0x7512db",
          "transactionHash": "0x8794dd52514a0da53b95e229ae2d1e07001281b6afcf48af77aebb5f3abf1c34",
          "transactionIndex": "0x12",
          "logIndex": "0x23",
          "removed": false
        }
      ],
      "logsBloom": "0x00000000000000000000000000000000000000020000000000000000000000000000000000000000000000000000000000000000000000000000000080000000000000000000000000000008040000000000000000000000000000000000000000000000020000000000000000000800002000000000800000000010000000000000000000000000000000000000000000000000000000000000000000000000000000000000000000000000000000002000000000004000000000000000008000000002000000000000000000000000000000000000000000000000000020000000000000000000200000000000000000000000100000404000000000000000",
      "type": "0x2",
      "transactionHash": "0x8794dd52514a0da53b95e229ae2d1e07001281b6afcf48af77aebb5f3abf1c34",
      "transactionIndex": "0x12",
      "blockHash": "0x726b7039d9cab609cb436a55acc63885cbd13d93a5bf5c79bc5676b5eade4134",
      "blockNumber": "0x7512db",
      "gasUsed": "0x2ccb8",
      "effectiveGasPrice": "0xfd",
      "from": "0xcda2fdb452ff4f5d7ba1c3d5dfcc9cb926a5eb7d",
      "to": "0x79dfbed14077b8f2421eece5707a17b161094e6a",
      "contractAddress": null,
      "l1BaseFeeScalar": "0x186a0",
      "l1BlobBaseFee": "0x1",
      "l1BlobBaseFeeScalar": "0x95506",
      "l1Fee": "0x187d734343d",
      "l1GasPrice": "0x272f1ed20",
      "l1GasUsed": "0x640"
    },
    {
      "status": "0x1",
      "cumulativeGasUsed": "0x35dcff",
      "logs": [
        {
          "address": "0x2e8af9c5922623058aa92a183b391e62cb6b2d12",
          "topics": [
            "0xddf252ad1be2c89b69c2b068fc378daa952ba7f163c4a11628f55a4df523b3ef",
            "0x0000000000000000000000000000000000000000000000000000000000000000",
            "0x000000000000000000000000cda2fdb452ff4f5d7ba1c3d5dfcc9cb926a5eb7d",
            "0x0000000000000000000000000000000000000000000000000000000000000260"
          ],
          "data": "0x",
          "blockHash": "0x726b7039d9cab609cb436a55acc63885cbd13d93a5bf5c79bc5676b5eade4134",
          "blockNumber": "0x7512db",
          "transactionHash": "0x83f1f42a089b49837cfaa17bee6c30fe2cb87035e6d3b3c96f896d9980102f88",
          "transactionIndex": "0x13",
          "logIndex": "0x24",
          "removed": false
        },
        {
          "address": "0x2e8af9c5922623058aa92a183b391e62cb6b2d12",
          "topics": [
            "0xf8e1a15aba9398e019f0b49df1a4fde98ee17ae345cb5f6b5e2c27f5033e8ce7"
          ],
          "data": "0x0000000000000000000000000000000000000000000000000000000000000260",
          "blockHash": "0x726b7039d9cab609cb436a55acc63885cbd13d93a5bf5c79bc5676b5eade4134",
          "blockNumber": "0x7512db",
          "transactionHash": "0x83f1f42a089b49837cfaa17bee6c30fe2cb87035e6d3b3c96f896d9980102f88",
          "transactionIndex": "0x13",
          "logIndex": "0x25",
          "removed": false
        }
      ],
      "logsBloom": "0x00000000000000000000000000000000000000020000000000000000000000000000000000000000000000000000000000000080000000000000000000000000000000000000000000000008040000000000000000000000000800000000000000000000020000000000000000000800002000000000800000000010000000000000000000000000000000000000000000000000000000000000000000000000000000000000000000000000000000002000000000004000000000000000008000000002000000000000000000000000000008000000000000000000000020000000000000000000200000000000000000000000100000000000000000000000",
      "type": "0x2",
      "transactionHash": "0x83f1f42a089b49837cfaa17bee6c30fe2cb87035e6d3b3c96f896d9980102f88",
      "transactionIndex": "0x13",
      "blockHash": "0x726b7039d9cab609cb436a55acc63885cbd13d93a5bf5c79bc5676b5eade4134",
      "blockNumber": "0x7512db",
      "gasUsed": "0x2ccb8",
      "effectiveGasPrice": "0xfd",
      "from": "0xcda2fdb452ff4f5d7ba1c3d5dfcc9cb926a5eb7d",
      "to": "0x79dfbed14077b8f2421eece5707a17b161094e6a",
      "contractAddress": null,
      "l1BaseFeeScalar": "0x186a0",
      "l1BlobBaseFee": "0x1",
      "l1BlobBaseFeeScalar": "0x95506",
      "l1Fee": "0x187d734343d",
      "l1GasPrice": "0x272f1ed20",
      "l1GasUsed": "0x640"
    },
    {
      "status": "0x1",
      "cumulativeGasUsed": "0x38a9b7",
      "logs": [
        {
          "address": "0x2e8af9c5922623058aa92a183b391e62cb6b2d12",
          "topics": [
            "0xddf252ad1be2c89b69c2b068fc378daa952ba7f163c4a11628f55a4df523b3ef",
            "0x0000000000000000000000000000000000000000000000000000000000000000",
            "0x000000000000000000000000cda2fdb452ff4f5d7ba1c3d5dfcc9cb926a5eb7d",
            "0x0000000000000000000000000000000000000000000000000000000000000261"
          ],
          "data": "0x",
          "blockHash": "0x726b7039d9cab609cb436a55acc63885cbd13d93a5bf5c79bc5676b5eade4134",
          "blockNumber": "0x7512db",
          "transactionHash": "0xea1288af3e6cd80673e2f447a61e14a77b32a933953da52ab2a4a44397a54bde",
          "transactionIndex": "0x14",
          "logIndex": "0x26",
          "removed": false
        },
        {
          "address": "0x2e8af9c5922623058aa92a183b391e62cb6b2d12",
          "topics": [
            "0xf8e1a15aba9398e019f0b49df1a4fde98ee17ae345cb5f6b5e2c27f5033e8ce7"
          ],
          "data": "0x0000000000000000000000000000000000000000000000000000000000000261",
          "blockHash": "0x726b7039d9cab609cb436a55acc63885cbd13d93a5bf5c79bc5676b5eade4134",
          "blockNumber": "0x7512db",
          "transactionHash": "0xea1288af3e6cd80673e2f447a61e14a77b32a933953da52ab2a4a44397a54bde",
          "transactionIndex": "0x14",
          "logIndex": "0x27",
          "removed": false
        }
      ],
      "logsBloom": "0x00000000000000000000000000000000000000020000000000000000000000000000000000000000000000000000000000000000000000000000000000000000000000000000000000000008040000000000000000000000000000000000000000000000020000000000000000000800002000000000800001000010000000000000000000000000000000000000000000000000000000000000100000000000000000800000000000000000000000002000000000004000000000000000008000000002000000000000000000000000000000000000000000000000000020000000000000000000200000000000000000000000100000000000000000000000",
      "type": "0x2",
      "transactionHash": "0xea1288af3e6cd80673e2f447a61e14a77b32a933953da52ab2a4a44397a54bde",
      "transactionIndex": "0x14",
      "blockHash": "0x726b7039d9cab609cb436a55acc63885cbd13d93a5bf5c79bc5676b5eade4134",
      "blockNumber": "0x7512db",
      "gasUsed": "0x2ccb8",
      "effectiveGasPrice": "0xfd",
      "from": "0xcda2fdb452ff4f5d7ba1c3d5dfcc9cb926a5eb7d",
      "to": "0x79dfbed14077b8f2421eece5707a17b161094e6a",
      "contractAddress": null,
      "l1BaseFeeScalar": "0x186a0",
      "l1BlobBaseFee": "0x1",
      "l1BlobBaseFeeScalar": "0x95506",
      "l1Fee": "0x187d734343d",
      "l1GasPrice": "0x272f1ed20",
      "l1GasUsed": "0x640"
    },
    {
      "status": "0x1",
      "cumulativeGasUsed": "0x3b766f",
      "logs": [
        {
          "address": "0x2e8af9c5922623058aa92a183b391e62cb6b2d12",
          "topics": [
            "0xddf252ad1be2c89b69c2b068fc378daa952ba7f163c4a11628f55a4df523b3ef",
            "0x0000000000000000000000000000000000000000000000000000000000000000",
            "0x000000000000000000000000cda2fdb452ff4f5d7ba1c3d5dfcc9cb926a5eb7d",
            "0x0000000000000000000000000000000000000000000000000000000000000262"
          ],
          "data": "0x",
          "blockHash": "0x726b7039d9cab609cb436a55acc63885cbd13d93a5bf5c79bc5676b5eade4134",
          "blockNumber": "0x7512db",
          "transactionHash": "0xd6b50c04afd7de3690a3e54eba42ecfe5656b59dc3e67dbfbd4131b29801d491",
          "transactionIndex": "0x15",
          "logIndex": "0x28",
          "removed": false
        },
        {
          "address": "0x2e8af9c5922623058aa92a183b391e62cb6b2d12",
          "topics": [
            "0xf8e1a15aba9398e019f0b49df1a4fde98ee17ae345cb5f6b5e2c27f5033e8ce7"
          ],
          "data": "0x0000000000000000000000000000000000000000000000000000000000000262",
          "blockHash": "0x726b7039d9cab609cb436a55acc63885cbd13d93a5bf5c79bc5676b5eade4134",
          "blockNumber": "0x7512db",
          "transactionHash": "0xd6b50c04afd7de3690a3e54eba42ecfe5656b59dc3e67dbfbd4131b29801d491",
          "transactionIndex": "0x15",
          "logIndex": "0x29",
          "removed": false
        }
      ],
      "logsBloom": "0x00000000000000000000000000000000000000020000000000000000000000000000000000000000000000000000000000000000000000000000000100000000000000000000000000000008040000000000000000000000000000000000000000000000020000000000000000000800002000000000800000000010000000000000010000000000000000000000080000000000000000000000000000000000000000000000000000000000000000002000000000004000000000000000008000000002000000000000000000000000000000000000000000000000000020000000000000000000200000000000000000000000100000000000000000000000",
      "type": "0x2",
      "transactionHash": "0xd6b50c04afd7de3690a3e54eba42ecfe5656b59dc3e67dbfbd4131b29801d491",
      "transactionIndex": "0x15",
      "blockHash": "0x726b7039d9cab609cb436a55acc63885cbd13d93a5bf5c79bc5676b5eade4134",
      "blockNumber": "0x7512db",
      "gasUsed": "0x2ccb8",
      "effectiveGasPrice": "0xfd",
      "from": "0xcda2fdb452ff4f5d7ba1c3d5dfcc9cb926a5eb7d",
      "to": "0x79dfbed14077b8f2421eece5707a17b161094e6a",
      "contractAddress": null,
      "l1BaseFeeScalar": "0x186a0",
      "l1BlobBaseFee": "0x1",
      "l1BlobBaseFeeScalar": "0x95506",
      "l1Fee": "0x187d734343d",
      "l1GasPrice": "0x272f1ed20",
      "l1GasUsed": "0x640"
    },
    {
      "status": "0x1",
      "cumulativeGasUsed": "0x3e4327",
      "logs": [
        {
          "address": "0x2e8af9c5922623058aa92a183b391e62cb6b2d12",
          "topics": [
            "0xddf252ad1be2c89b69c2b068fc378daa952ba7f163c4a11628f55a4df523b3ef",
            "0x0000000000000000000000000000000000000000000000000000000000000000",
            "0x000000000000000000000000cda2fdb452ff4f5d7ba1c3d5dfcc9cb926a5eb7d",
            "0x0000000000000000000000000000000000000000000000000000000000000263"
          ],
          "data": "0x",
          "blockHash": "0x726b7039d9cab609cb436a55acc63885cbd13d93a5bf5c79bc5676b5eade4134",
          "blockNumber": "0x7512db",
          "transactionHash": "0x87293914420456bf30e569d06c96ff705821565753727d4edc7ce82103fb199d",
          "transactionIndex": "0x16",
          "logIndex": "0x2a",
          "removed": false
        },
        {
          "address": "0x2e8af9c5922623058aa92a183b391e62cb6b2d12",
          "topics": [
            "0xf8e1a15aba9398e019f0b49df1a4fde98ee17ae345cb5f6b5e2c27f5033e8ce7"
          ],
          "data": "0x0000000000000000000000000000000000000000000000000000000000000263",
          "blockHash": "0x726b7039d9cab609cb436a55acc63885cbd13d93a5bf5c79bc5676b5eade4134",
          "blockNumber": "0x7512db",
          "transactionHash": "0x87293914420456bf30e569d06c96ff705821565753727d4edc7ce82103fb199d",
          "transactionIndex": "0x16",
          "logIndex": "0x2b",
          "removed": false
        }
      ],
      "logsBloom": "0x00000000000000000000000000000000000000020000000000000800000000000000000000000000000000000000000000000000000000000000000000000000000000000000000000002008040000000000000000000000000000000000000000000000020000000000000000000800002000000000800000000010000000000000000000000000000000000000000000000000000000000000000000000000000000000000010000000000000000002000000000004000000000000000008000000002000000000000000000000000000000000000000000000000000020000000000000000000200000000000000000000000100000000000000000000000",
      "type": "0x2",
      "transactionHash": "0x87293914420456bf30e569d06c96ff705821565753727d4edc7ce82103fb199d",
      "transactionIndex": "0x16",
      "blockHash": "0x726b7039d9cab609cb436a55acc63885cbd13d93a5bf5c79bc5676b5eade4134",
      "blockNumber": "0x7512db",
      "gasUsed": "0x2ccb8",
      "effectiveGasPrice": "0xfd",
      "from": "0xcda2fdb452ff4f5d7ba1c3d5dfcc9cb926a5eb7d",
      "to": "0x79dfbed14077b8f2421eece5707a17b161094e6a",
      "contractAddress": null,
      "l1BaseFeeScalar": "0x186a0",
      "l1BlobBaseFee": "0x1",
      "l1BlobBaseFeeScalar": "0x95506",
      "l1Fee": "0x187d734343d",
      "l1GasPrice": "0x272f1ed20",
      "l1GasUsed": "0x640"
    },
    {
      "status": "0x1",
      "cumulativeGasUsed": "0x410fdf",
      "logs": [
        {
          "address": "0x2e8af9c5922623058aa92a183b391e62cb6b2d12",
          "topics": [
            "0xddf252ad1be2c89b69c2b068fc378daa952ba7f163c4a11628f55a4df523b3ef",
            "0x0000000000000000000000000000000000000000000000000000000000000000",
            "0x000000000000000000000000cda2fdb452ff4f5d7ba1c3d5dfcc9cb926a5eb7d",
            "0x0000000000000000000000000000000000000000000000000000000000000264"
          ],
          "data": "0x",
          "blockHash": "0x726b7039d9cab609cb436a55acc63885cbd13d93a5bf5c79bc5676b5eade4134",
          "blockNumber": "0x7512db",
          "transactionHash": "0x142bb15010b01b035c2398a6735e52eba26d1c425fb14468676d315c75264457",
          "transactionIndex": "0x17",
          "logIndex": "0x2c",
          "removed": false
        },
        {
          "address": "0x2e8af9c5922623058aa92a183b391e62cb6b2d12",
          "topics": [
            "0xf8e1a15aba9398e019f0b49df1a4fde98ee17ae345cb5f6b5e2c27f5033e8ce7"
          ],
          "data": "0x0000000000000000000000000000000000000000000000000000000000000264",
          "blockHash": "0x726b7039d9cab609cb436a55acc63885cbd13d93a5bf5c79bc5676b5eade4134",
          "blockNumber": "0x7512db",
          "transactionHash": "0x142bb15010b01b035c2398a6735e52eba26d1c425fb14468676d315c75264457",
          "transactionIndex": "0x17",
          "logIndex": "0x2d",
          "removed": false
        }
      ],
      "logsBloom": "0x00000000000000000000000000000000000000020000000000000000000000000000000000000000000000000000000000000000000000000000000000000000000000000000000000000008040000000000000000000000000000000000000000000000020000000000000000000800002000000000800000000010000000000000000000001000000000000000000000000000000000000010000000000000000000000000000000000000000000002000000000004000000000000000008000000002000000000000000000000000002000000000000000000000000020000000000000000000200000000000000000000000100000000000000000000000",
      "type": "0x2",
      "transactionHash": "0x142bb15010b01b035c2398a6735e52eba26d1c425fb14468676d315c75264457",
      "transactionIndex": "0x17",
      "blockHash": "0x726b7039d9cab609cb436a55acc63885cbd13d93a5bf5c79bc5676b5eade4134",
      "blockNumber": "0x7512db",
      "gasUsed": "0x2ccb8",
      "effectiveGasPrice": "0xfd",
      "from": "0xcda2fdb452ff4f5d7ba1c3d5dfcc9cb926a5eb7d",
      "to": "0x79dfbed14077b8f2421eece5707a17b161094e6a",
      "contractAddress": null,
      "l1BaseFeeScalar": "0x186a0",
      "l1BlobBaseFee": "0x1",
      "l1BlobBaseFeeScalar": "0x95506",
      "l1Fee": "0x187d734343d",
      "l1GasPrice": "0x272f1ed20",
      "l1GasUsed": "0x640"
    },
    {
      "status": "0x1",
      "cumulativeGasUsed": "0x43dc97",
      "logs": [
        {
          "address": "0x2e8af9c5922623058aa92a183b391e62cb6b2d12",
          "topics": [
            "0xddf252ad1be2c89b69c2b068fc378daa952ba7f163c4a11628f55a4df523b3ef",
            "0x0000000000000000000000000000000000000000000000000000000000000000",
            "0x000000000000000000000000cda2fdb452ff4f5d7ba1c3d5dfcc9cb926a5eb7d",
            "0x0000000000000000000000000000000000000000000000000000000000000265"
          ],
          "data": "0x",
          "blockHash": "0x726b7039d9cab609cb436a55acc63885cbd13d93a5bf5c79bc5676b5eade4134",
          "blockNumber": "0x7512db",
          "transactionHash": "0x1d09da5fcd38dc60a5a70fb508479c1ba938480276784e79476115386870bf31",
          "transactionIndex": "0x18",
          "logIndex": "0x2e",
          "removed": false
        },
        {
          "address": "0x2e8af9c5922623058aa92a183b391e62cb6b2d12",
          "topics": [
            "0xf8e1a15aba9398e019f0b49df1a4fde98ee17ae345cb5f6b5e2c27f5033e8ce7"
          ],
          "data": "0x0000000000000000000000000000000000000000000000000000000000000265",
          "blockHash": "0x726b7039d9cab609cb436a55acc63885cbd13d93a5bf5c79bc5676b5eade4134",
          "blockNumber": "0x7512db",
          "transactionHash": "0x1d09da5fcd38dc60a5a70fb508479c1ba938480276784e79476115386870bf31",
          "transactionIndex": "0x18",
          "logIndex": "0x2f",
          "removed": false
        }
      ],
      "logsBloom": "0x00000000000000000000000000000004000000020000000000000000000000000000000000000000000000000000000000000000000000000000000000000000000000000000000000000008040000000000008000000000000000000000000000000000020000000000000000000800002000000000800000000010000000000000000000000000000000000000000000000000000000000000000000000000000000000000000000000001000000002000000000004000000000000000008000000002000000000000000000000000000000000000000000000000000020000000000000000000200000000000000000000000100000000000000000000000",
      "type": "0x2",
      "transactionHash": "0x1d09da5fcd38dc60a5a70fb508479c1ba938480276784e79476115386870bf31",
      "transactionIndex": "0x18",
      "blockHash": "0x726b7039d9cab609cb436a55acc63885cbd13d93a5bf5c79bc5676b5eade4134",
      "blockNumber": "0x7512db",
      "gasUsed": "0x2ccb8",
      "effectiveGasPrice": "0xfd",
      "from": "0xcda2fdb452ff4f5d7ba1c3d5dfcc9cb926a5eb7d",
      "to": "0x79dfbed14077b8f2421eece5707a17b161094e6a",
      "contractAddress": null,
      "l1BaseFeeScalar": "0x186a0",
      "l1BlobBaseFee": "0x1",
      "l1BlobBaseFeeScalar": "0x95506",
      "l1Fee": "0x187d734343d",
      "l1GasPrice": "0x272f1ed20",
      "l1GasUsed": "0x640"
    },
    {
      "status": "0x1",
      "cumulativeGasUsed": "0x46a94f",
      "logs": [
        {
          "address": "0x2e8af9c5922623058aa92a183b391e62cb6b2d12",
          "topics": [
            "0xddf252ad1be2c89b69c2b068fc378daa952ba7f163c4a11628f55a4df523b3ef",
            "0x0000000000000000000000000000000000000000000000000000000000000000",
            "0x000000000000000000000000cda2fdb452ff4f5d7ba1c3d5dfcc9cb926a5eb7d",
            "0x0000000000000000000000000000000000000000000000000000000000000266"
          ],
          "data": "0x",
          "blockHash": "0x726b7039d9cab609cb436a55acc63885cbd13d93a5bf5c79bc5676b5eade4134",
          "blockNumber": "0x7512db",
          "transactionHash": "0xe4f91ffd4a647400a4155d052a5d830b555b3f949c956ef04a9ca2ec2bdd60b1",
          "transactionIndex": "0x19",
          "logIndex": "0x30",
          "removed": false
        },
        {
          "address": "0x2e8af9c5922623058aa92a183b391e62cb6b2d12",
          "topics": [
            "0xf8e1a15aba9398e019f0b49df1a4fde98ee17ae345cb5f6b5e2c27f5033e8ce7"
          ],
          "data": "0x0000000000000000000000000000000000000000000000000000000000000266",
          "blockHash": "0x726b7039d9cab609cb436a55acc63885cbd13d93a5bf5c79bc5676b5eade4134",
          "blockNumber": "0x7512db",
          "transactionHash": "0xe4f91ffd4a647400a4155d052a5d830b555b3f949c956ef04a9ca2ec2bdd60b1",
          "transactionIndex": "0x19",
          "logIndex": "0x31",
          "removed": false
        }
      ],
      "logsBloom": "0x00000000000000000000000000000000000001020000000000000000000000000000000000000000000000000000000000000000000000000000000000000000000000000000000000000008040000000000000000000000000000000000000000000000020000000100000000000800002000000000800000000010000000000000000000000000000000000000000000000000000000000000000000000000000000000000000000000000000000002000000000004000000000200000008000000002000000000000000000000000000000000000000000000000000020000000000000000000200000000000000000000000100000000000000000000000",
      "type": "0x2",
      "transactionHash": "0xe4f91ffd4a647400a4155d052a5d830b555b3f949c956ef04a9ca2ec2bdd60b1",
      "transactionIndex": "0x19",
      "blockHash": "0x726b7039d9cab609cb436a55acc63885cbd13d93a5bf5c79bc5676b5eade4134",
      "blockNumber": "0x7512db",
      "gasUsed": "0x2ccb8",
      "effectiveGasPrice": "0xfd",
      "from": "0xcda2fdb452ff4f5d7ba1c3d5dfcc9cb926a5eb7d",
      "to": "0x79dfbed14077b8f2421eece5707a17b161094e6a",
      "contractAddress": null,
      "l1BaseFeeScalar": "0x186a0",
      "l1BlobBaseFee": "0x1",
      "l1BlobBaseFeeScalar": "0x95506",
      "l1Fee": "0x187d734343d",
      "l1GasPrice": "0x272f1ed20",
      "l1GasUsed": "0x640"
    },
    {
      "status": "0x1",
      "cumulativeGasUsed": "0x497607",
      "logs": [
        {
          "address": "0x2e8af9c5922623058aa92a183b391e62cb6b2d12",
          "topics": [
            "0xddf252ad1be2c89b69c2b068fc378daa952ba7f163c4a11628f55a4df523b3ef",
            "0x0000000000000000000000000000000000000000000000000000000000000000",
            "0x000000000000000000000000cda2fdb452ff4f5d7ba1c3d5dfcc9cb926a5eb7d",
            "0x0000000000000000000000000000000000000000000000000000000000000267"
          ],
          "data": "0x",
          "blockHash": "0x726b7039d9cab609cb436a55acc63885cbd13d93a5bf5c79bc5676b5eade4134",
          "blockNumber": "0x7512db",
          "transactionHash": "0x2bea9567e93e00b55f6010bd625ec2a3978b2e5fbacedf68d42e3474b289a8d5",
          "transactionIndex": "0x1a",
          "logIndex": "0x32",
          "removed": false
        },
        {
          "address": "0x2e8af9c5922623058aa92a183b391e62cb6b2d12",
          "topics": [
            "0xf8e1a15aba9398e019f0b49df1a4fde98ee17ae345cb5f6b5e2c27f5033e8ce7"
          ],
          "data": "0x0000000000000000000000000000000000000000000000000000000000000267",
          "blockHash": "0x726b7039d9cab609cb436a55acc63885cbd13d93a5bf5c79bc5676b5eade4134",
          "blockNumber": "0x7512db",
          "transactionHash": "0x2bea9567e93e00b55f6010bd625ec2a3978b2e5fbacedf68d42e3474b289a8d5",
          "transactionIndex": "0x1a",
          "logIndex": "0x33",
          "removed": false
        }
      ],
      "logsBloom": "0x00000080000000000000000000000000000000020000000000000000000000000000000000000000000000000000000000000000000000000000000000000000000000000000000000000008040000000000000000000000000000000000000000000000020000000000000000000800002000000000800000000010000000000000000000000000000000000000000000000000000000000000000000000100000000000000000000000000000000002000000000004000000000000000008000000002000000000000000000000000800000000000000000000000000020000000000000000000200000000000000000000000100000000000000000000000",
      "type": "0x2",
      "transactionHash": "0x2bea9567e93e00b55f6010bd625ec2a3978b2e5fbacedf68d42e3474b289a8d5",
      "transactionIndex": "0x1a",
      "blockHash": "0x726b7039d9cab609cb436a55acc63885cbd13d93a5bf5c79bc5676b5eade4134",
      "blockNumber": "0x7512db",
      "gasUsed": "0x2ccb8",
      "effectiveGasPrice": "0xfd",
      "from": "0xcda2fdb452ff4f5d7ba1c3d5dfcc9cb926a5eb7d",
      "to": "0x79dfbed14077b8f2421eece5707a17b161094e6a",
      "contractAddress": null,
      "l1BaseFeeScalar": "0x186a0",
      "l1BlobBaseFee": "0x1",
      "l1BlobBaseFeeScalar": "0x95506",
      "l1Fee": "0x187d734343d",
      "l1GasPrice": "0x272f1ed20",
      "l1GasUsed": "0x640"
    },
    {
      "status": "0x1",
      "cumulativeGasUsed": "0x4c42bf",
      "logs": [
        {
          "address": "0x2e8af9c5922623058aa92a183b391e62cb6b2d12",
          "topics": [
            "0xddf252ad1be2c89b69c2b068fc378daa952ba7f163c4a11628f55a4df523b3ef",
            "0x0000000000000000000000000000000000000000000000000000000000000000",
            "0x000000000000000000000000cda2fdb452ff4f5d7ba1c3d5dfcc9cb926a5eb7d",
            "0x0000000000000000000000000000000000000000000000000000000000000268"
          ],
          "data": "0x",
          "blockHash": "0x726b7039d9cab609cb436a55acc63885cbd13d93a5bf5c79bc5676b5eade4134",
          "blockNumber": "0x7512db",
          "transactionHash": "0x2426867c1959aa030b348c542f077741c352c66b9ed0a232f789bd60ba19ed9a",
          "transactionIndex": "0x1b",
          "logIndex": "0x34",
          "removed": false
        },
        {
          "address": "0x2e8af9c5922623058aa92a183b391e62cb6b2d12",
          "topics": [
            "0xf8e1a15aba9398e019f0b49df1a4fde98ee17ae345cb5f6b5e2c27f5033e8ce7"
          ],
          "data": "0x0000000000000000000000000000000000000000000000000000000000000268",
          "blockHash": "0x726b7039d9cab609cb436a55acc63885cbd13d93a5bf5c79bc5676b5eade4134",
          "blockNumber": "0x7512db",
          "transactionHash": "0x2426867c1959aa030b348c542f077741c352c66b9ed0a232f789bd60ba19ed9a",
          "transactionIndex": "0x1b",
          "logIndex": "0x35",
          "removed": false
        }
      ],
      "logsBloom": "0x00000000000000000000000000000000000000020000000000000000004000000000000000000000000000000000000000000000000000000000000000000000000000000000000000000008040000000000000000000000000000000000000000000000020000000000000000000800002000000000800000000010000000800000000000000000000000000000000000000000000000000000000000000008000000000000000000000000000000002000000000004000000000000000008000000002000000000000000000000000000000000000000000000000000020000000000000000000200000000000000000000000100000000000000000000000",
      "type": "0x2",
      "transactionHash": "0x2426867c1959aa030b348c542f077741c352c66b9ed0a232f789bd60ba19ed9a",
      "transactionIndex": "0x1b",
      "blockHash": "0x726b7039d9cab609cb436a55acc63885cbd13d93a5bf5c79bc5676b5eade4134",
      "blockNumber": "0x7512db",
      "gasUsed": "0x2ccb8",
      "effectiveGasPrice": "0xfd",
      "from": "0xcda2fdb452ff4f5d7ba1c3d5dfcc9cb926a5eb7d",
      "to": "0x79dfbed14077b8f2421eece5707a17b161094e6a",
      "contractAddress": null,
      "l1BaseFeeScalar": "0x186a0",
      "l1BlobBaseFee": "0x1",
      "l1BlobBaseFeeScalar": "0x95506",
      "l1Fee": "0x187d734343d",
      "l1GasPrice": "0x272f1ed20",
      "l1GasUsed": "0x640"
    },
    {
      "status": "0x1",
      "cumulativeGasUsed": "0x4f0f77",
      "logs": [
        {
          "address": "0x2e8af9c5922623058aa92a183b391e62cb6b2d12",
          "topics": [
            "0xddf252ad1be2c89b69c2b068fc378daa952ba7f163c4a11628f55a4df523b3ef",
            "0x0000000000000000000000000000000000000000000000000000000000000000",
            "0x000000000000000000000000cda2fdb452ff4f5d7ba1c3d5dfcc9cb926a5eb7d",
            "0x0000000000000000000000000000000000000000000000000000000000000269"
          ],
          "data": "0x",
          "blockHash": "0x726b7039d9cab609cb436a55acc63885cbd13d93a5bf5c79bc5676b5eade4134",
          "blockNumber": "0x7512db",
          "transactionHash": "0x2e4ab12c230de166b7f3f50988159414b82f238c44289ac625faf084ca04118f",
          "transactionIndex": "0x1c",
          "logIndex": "0x36",
          "removed": false
        },
        {
          "address": "0x2e8af9c5922623058aa92a183b391e62cb6b2d12",
          "topics": [
            "0xf8e1a15aba9398e019f0b49df1a4fde98ee17ae345cb5f6b5e2c27f5033e8ce7"
          ],
          "data": "0x0000000000000000000000000000000000000000000000000000000000000269",
          "blockHash": "0x726b7039d9cab609cb436a55acc63885cbd13d93a5bf5c79bc5676b5eade4134",
          "blockNumber": "0x7512db",
          "transactionHash": "0x2e4ab12c230de166b7f3f50988159414b82f238c44289ac625faf084ca04118f",
          "transactionIndex": "0x1c",
          "logIndex": "0x37",
          "removed": false
        }
      ],
      "logsBloom": "0x00000000000000000000000000000000000000020000000000000000000000000000000000000000000000000000000000000000010000000000000000000000000000000000000000008008040000000000000000000000000000000000000000000000020000000000000000000800002000000000800000000010000000000000000000000000000000000000000000000000000000000000000000000000000000000000000000000000000000002000000000004000000000000000008000000002008000000000000000000000000000000000000000000000000020000000000000000000200000000000000000000000100000000000000000000000",
      "type": "0x2",
      "transactionHash": "0x2e4ab12c230de166b7f3f50988159414b82f238c44289ac625faf084ca04118f",
      "transactionIndex": "0x1c",
      "blockHash": "0x726b7039d9cab609cb436a55acc63885cbd13d93a5bf5c79bc5676b5eade4134",
      "blockNumber": "0x7512db",
      "gasUsed": "0x2ccb8",
      "effectiveGasPrice": "0xfd",
      "from": "0xcda2fdb452ff4f5d7ba1c3d5dfcc9cb926a5eb7d",
      "to": "0x79dfbed14077b8f2421eece5707a17b161094e6a",
      "contractAddress": null,
      "l1BaseFeeScalar": "0x186a0",
      "l1BlobBaseFee": "0x1",
      "l1BlobBaseFeeScalar": "0x95506",
      "l1Fee": "0x187d734343d",
      "l1GasPrice": "0x272f1ed20",
      "l1GasUsed": "0x640"
    },
    {
      "status": "0x1",
      "cumulativeGasUsed": "0x51dc2f",
      "logs": [
        {
          "address": "0x2e8af9c5922623058aa92a183b391e62cb6b2d12",
          "topics": [
            "0xddf252ad1be2c89b69c2b068fc378daa952ba7f163c4a11628f55a4df523b3ef",
            "0x0000000000000000000000000000000000000000000000000000000000000000",
            "0x000000000000000000000000cda2fdb452ff4f5d7ba1c3d5dfcc9cb926a5eb7d",
            "0x000000000000000000000000000000000000000000000000000000000000026a"
          ],
          "data": "0x",
          "blockHash": "0x726b7039d9cab609cb436a55acc63885cbd13d93a5bf5c79bc5676b5eade4134",
          "blockNumber": "0x7512db",
          "transactionHash": "0x0887dbb30428ce43e0a7d6135442ac4fda3bae78b181e5fc1de6b05855149b74",
          "transactionIndex": "0x1d",
          "logIndex": "0x38",
          "removed": false
        },
        {
          "address": "0x2e8af9c5922623058aa92a183b391e62cb6b2d12",
          "topics": [
            "0xf8e1a15aba9398e019f0b49df1a4fde98ee17ae345cb5f6b5e2c27f5033e8ce7"
          ],
          "data": "0x000000000000000000000000000000000000000000000000000000000000026a",
          "blockHash": "0x726b7039d9cab609cb436a55acc63885cbd13d93a5bf5c79bc5676b5eade4134",
          "blockNumber": "0x7512db",
          "transactionHash": "0x0887dbb30428ce43e0a7d6135442ac4fda3bae78b181e5fc1de6b05855149b74",
          "transactionIndex": "0x1d",
          "logIndex": "0x39",
          "removed": false
        }
      ],
      "logsBloom": "0x00000000000000000000000000000000000000020000000000000000000000000000000000000000000040000000000000000000000000800000000000000000000000000000000000000008040000000000000000000000000000000000000000000000020000000000000000000800002000000000800000000010000000000000000040000000000000000000000000000000000000000000000000000000000000000000000000000000000000002000000000004000000000000000008000000002000000000000000000000000000000000000000000000000000020000000000000000000200000000000000000000000100000000000000000000000",
      "type": "0x2",
      "transactionHash": "0x0887dbb30428ce43e0a7d6135442ac4fda3bae78b181e5fc1de6b05855149b74",
      "transactionIndex": "0x1d",
      "blockHash": "0x726b7039d9cab609cb436a55acc63885cbd13d93a5bf5c79bc5676b5eade4134",
      "blockNumber": "0x7512db",
      "gasUsed": "0x2ccb8",
      "effectiveGasPrice": "0xfd",
      "from": "0xcda2fdb452ff4f5d7ba1c3d5dfcc9cb926a5eb7d",
      "to": "0x79dfbed14077b8f2421eece5707a17b161094e6a",
      "contractAddress": null,
      "l1BaseFeeScalar": "0x186a0",
      "l1BlobBaseFee": "0x1",
      "l1BlobBaseFeeScalar": "0x95506",
      "l1Fee": "0x187d734343d",
      "l1GasPrice": "0x272f1ed20",
      "l1GasUsed": "0x640"
    },
    {
      "status": "0x1",
      "cumulativeGasUsed": "0x3ca17",
      "logs": [
        {
          "address": "0x2e8af9c5922623058aa92a183b391e62cb6b2d12",
          "topics": [
            "0xddf252ad1be2c89b69c2b068fc378daa952ba7f163c4a11628f55a4df523b3ef",
            "0x0000000000000000000000000000000000000000000000000000000000000000",
            "0x000000000000000000000000cda2fdb452ff4f5d7ba1c3d5dfcc9cb926a5eb7d",
            "0x000000000000000000000000000000000000000000000000000000000000026b"
          ],
          "data": "0x",
          "blockHash": "0x1c7ce6a71f0bde175cc3dddb2dcf91c023b1eb767ec3331d09de7110faf2d17d",
          "blockNumber": "0x7512dc",
          "transactionHash": "0x78f7b3e520378b6128329baa94fa5dd29c5e590ec17639b29544a38e37815759",
          "transactionIndex": "0x2",
          "logIndex": "0x0",
          "removed": false
        },
        {
          "address": "0x2e8af9c5922623058aa92a183b391e62cb6b2d12",
          "topics": [
            "0xf8e1a15aba9398e019f0b49df1a4fde98ee17ae345cb5f6b5e2c27f5033e8ce7"
          ],
          "data": "0x000000000000000000000000000000000000000000000000000000000000026b",
          "blockHash": "0x1c7ce6a71f0bde175cc3dddb2dcf91c023b1eb767ec3331d09de7110faf2d17d",
          "blockNumber": "0x7512dc",
          "transactionHash": "0x78f7b3e520378b6128329baa94fa5dd29c5e590ec17639b29544a38e37815759",
          "transactionIndex": "0x2",
          "logIndex": "0x1",
          "removed": false
        }
      ],
      "logsBloom": "0x00000000000000000000000000000000000040020000000010000000000000000000000000000000000000000000000000000000000000000000000000000000000000000000000000000008040000000000000000000000000000000000000000000000020000000000000000000800002000000000800000000010000000000000000000000000000000000000000000000000000000000000000000000000000000000000000000000000000000002000000000004000000000000000008000000002001000000000000000000000000000000000000000000000000020000000000000000000200000000000000000000000100000000000000000000000",
      "type": "0x2",
      "transactionHash": "0x78f7b3e520378b6128329baa94fa5dd29c5e590ec17639b29544a38e37815759",
      "transactionIndex": "0x2",
      "blockHash": "0x1c7ce6a71f0bde175cc3dddb2dcf91c023b1eb767ec3331d09de7110faf2d17d",
      "blockNumber": "0x7512dc",
      "gasUsed": "0x2ccb8",
      "effectiveGasPrice": "0xfe",
      "from": "0xcda2fdb452ff4f5d7ba1c3d5dfcc9cb926a5eb7d",
      "to": "0x79dfbed14077b8f2421eece5707a17b161094e6a",
      "contractAddress": null,
      "l1BaseFeeScalar": "0x186a0",
      "l1BlobBaseFee": "0x1",
      "l1BlobBaseFeeScalar": "0x95506",
      "l1Fee": "0x187d734343d",
      "l1GasPrice": "0x272f1ed20",
      "l1GasUsed": "0x640"
    }
  ],
  "libraries": [],
  "pending": [],
  "returns": {},
  "timestamp": 1728207071,
  "chain": 60808,
  "commit": "7d9679b"
}