{
  "transactions": [
    {
      "hash": "0x29f6a35b295192845a4fe865fd92435e274ef1cfdde2c61eb64ebe3618677339",
      "transactionType": "CALL",
      "contractName": null,
      "contractAddress": "0x79dfbed14077b8f2421eece5707a17b161094e6a",
      "function": "wlMint(address)",
      "arguments": [
        "0x0000000000000000000000000000000000000000"
      ],
      "transaction": {
        "from": "0xcda2fdb452ff4f5d7ba1c3d5dfcc9cb926a5eb7d",
        "to": "0x79dfbed14077b8f2421eece5707a17b161094e6a",
        "gas": "0x3ddf7",
        "value": "0x0",
        "input": "0xc517b4a50000000000000000000000000000000000000000000000000000000000000000",
        "nonce": "0x1cd2",
        "chainId": "0xed88"
      },
      "additionalContracts": [],
      "isFixedGasLimit": false
    },
    {
      "hash": "0xce6d8df4ac2df1c7986718702b9e4b71a5e16a262f2a6ffb6575a0ee49175a72",
      "transactionType": "CALL",
      "contractName": null,
      "contractAddress": "0x79dfbed14077b8f2421eece5707a17b161094e6a",
      "function": "wlMint(address)",
      "arguments": [
        "0x0000000000000000000000000000000000000000"
      ],
      "transaction": {
        "from": "0xcda2fdb452ff4f5d7ba1c3d5dfcc9cb926a5eb7d",
        "to": "0x79dfbed14077b8f2421eece5707a17b161094e6a",
        "gas": "0x3ddf7",
        "value": "0x0",
        "input": "0xc517b4a50000000000000000000000000000000000000000000000000000000000000000",
        "nonce": "0x1cd3",
        "chainId": "0xed88"
      },
      "additionalContracts": [],
      "isFixedGasLimit": false
    },
    {
      "hash": "0xab0e46be0063771a939c422efbc0ce812f123cf2f1772f36610f66531021f1d0",
      "transactionType": "CALL",
      "contractName": null,
      "contractAddress": "0x79dfbed14077b8f2421eece5707a17b161094e6a",
      "function": "wlMint(address)",
      "arguments": [
        "0x0000000000000000000000000000000000000000"
      ],
      "transaction": {
        "from": "0xcda2fdb452ff4f5d7ba1c3d5dfcc9cb926a5eb7d",
        "to": "0x79dfbed14077b8f2421eece5707a17b161094e6a",
        "gas": "0x3ddf7",
        "value": "0x0",
        "input": "0xc517b4a50000000000000000000000000000000000000000000000000000000000000000",
        "nonce": "0x1cd4",
        "chainId": "0xed88"
      },
      "additionalContracts": [],
      "isFixedGasLimit": false
    },
    {
      "hash": "0x2da3933032fadae2acb7086cd1b401fa3ffd86c7a7117f8ce29f4eca0cd6fa2f",
      "transactionType": "CALL",
      "contractName": null,
      "contractAddress": "0x79dfbed14077b8f2421eece5707a17b161094e6a",
      "function": "wlMint(address)",
      "arguments": [
        "0x0000000000000000000000000000000000000000"
      ],
      "transaction": {
        "from": "0xcda2fdb452ff4f5d7ba1c3d5dfcc9cb926a5eb7d",
        "to": "0x79dfbed14077b8f2421eece5707a17b161094e6a",
        "gas": "0x3ddf7",
        "value": "0x0",
        "input": "0xc517b4a50000000000000000000000000000000000000000000000000000000000000000",
        "nonce": "0x1cd5",
        "chainId": "0xed88"
      },
      "additionalContracts": [],
      "isFixedGasLimit": false
    },
    {
      "hash": "0x49ac9776e19222727797776fc41051d574f30c0378038252da75c7ce16a9803f",
      "transactionType": "CALL",
      "contractName": null,
      "contractAddress": "0x79dfbed14077b8f2421eece5707a17b161094e6a",
      "function": "wlMint(address)",
      "arguments": [
        "0x0000000000000000000000000000000000000000"
      ],
      "transaction": {
        "from": "0xcda2fdb452ff4f5d7ba1c3d5dfcc9cb926a5eb7d",
        "to": "0x79dfbed14077b8f2421eece5707a17b161094e6a",
        "gas": "0x3ddf7",
        "value": "0x0",
        "input": "0xc517b4a50000000000000000000000000000000000000000000000000000000000000000",
        "nonce": "0x1cd6",
        "chainId": "0xed88"
      },
      "additionalContracts": [],
      "isFixedGasLimit": false
    },
    {
      "hash": "0x048ba4eb1083839aa3299d19d70d89985f2ca25783dcc966f5dcee71c3e8a0a6",
      "transactionType": "CALL",
      "contractName": null,
      "contractAddress": "0x79dfbed14077b8f2421eece5707a17b161094e6a",
      "function": "wlMint(address)",
      "arguments": [
        "0x0000000000000000000000000000000000000000"
      ],
      "transaction": {
        "from": "0xcda2fdb452ff4f5d7ba1c3d5dfcc9cb926a5eb7d",
        "to": "0x79dfbed14077b8f2421eece5707a17b161094e6a",
        "gas": "0x3ddf7",
        "value": "0x0",
        "input": "0xc517b4a50000000000000000000000000000000000000000000000000000000000000000",
        "nonce": "0x1cd7",
        "chainId": "0xed88"
      },
      "additionalContracts": [],
      "isFixedGasLimit": false
    },
    {
      "hash": "0x8a98b3ec8663f3c6479156b288b5a86752f9666d72d6fbd4d01918b8b5645104",
      "transactionType": "CALL",
      "contractName": null,
      "contractAddress": "0x79dfbed14077b8f2421eece5707a17b161094e6a",
      "function": "wlMint(address)",
      "arguments": [
        "0x0000000000000000000000000000000000000000"
      ],
      "transaction": {
        "from": "0xcda2fdb452ff4f5d7ba1c3d5dfcc9cb926a5eb7d",
        "to": "0x79dfbed14077b8f2421eece5707a17b161094e6a",
        "gas": "0x3ddf7",
        "value": "0x0",
        "input": "0xc517b4a50000000000000000000000000000000000000000000000000000000000000000",
        "nonce": "0x1cd8",
        "chainId": "0xed88"
      },
      "additionalContracts": [],
      "isFixedGasLimit": false
    },
    {
      "hash": "0x3aaeddda48cea0f329653cbfd721601351777f9ad883c68706642675cea0d280",
      "transactionType": "CALL",
      "contractName": null,
      "contractAddress": "0x79dfbed14077b8f2421eece5707a17b161094e6a",
      "function": "wlMint(address)",
      "arguments": [
        "0x0000000000000000000000000000000000000000"
      ],
      "transaction": {
        "from": "0xcda2fdb452ff4f5d7ba1c3d5dfcc9cb926a5eb7d",
        "to": "0x79dfbed14077b8f2421eece5707a17b161094e6a",
        "gas": "0x3ddf7",
        "value": "0x0",
        "input": "0xc517b4a50000000000000000000000000000000000000000000000000000000000000000",
        "nonce": "0x1cd9",
        "chainId": "0xed88"
      },
      "additionalContracts": [],
      "isFixedGasLimit": false
    },
    {
      "hash": "0x30df996bed15f688bd0f756c29afd7a5e36546172d0b6967d4a59a2d77db6ee6",
      "transactionType": "CALL",
      "contractName": null,
      "contractAddress": "0x79dfbed14077b8f2421eece5707a17b161094e6a",
      "function": "wlMint(address)",
      "arguments": [
        "0x0000000000000000000000000000000000000000"
      ],
      "transaction": {
        "from": "0xcda2fdb452ff4f5d7ba1c3d5dfcc9cb926a5eb7d",
        "to": "0x79dfbed14077b8f2421eece5707a17b161094e6a",
        "gas": "0x3ddf7",
        "value": "0x0",
        "input": "0xc517b4a50000000000000000000000000000000000000000000000000000000000000000",
        "nonce": "0x1cda",
        "chainId": "0xed88"
      },
      "additionalContracts": [],
      "isFixedGasLimit": false
    },
    {
      "hash": "0xab12e34114f237832f839a327a52ba1a469428174b166aad2e7e6d4bdd0fe144",
      "transactionType": "CALL",
      "contractName": null,
      "contractAddress": "0x79dfbed14077b8f2421eece5707a17b161094e6a",
      "function": "wlMint(address)",
      "arguments": [
        "0x0000000000000000000000000000000000000000"
      ],
      "transaction": {
        "from": "0xcda2fdb452ff4f5d7ba1c3d5dfcc9cb926a5eb7d",
        "to": "0x79dfbed14077b8f2421eece5707a17b161094e6a",
        "gas": "0x3ddf7",
        "value": "0x0",
        "input": "0xc517b4a50000000000000000000000000000000000000000000000000000000000000000",
        "nonce": "0x1cdb",
        "chainId": "0xed88"
      },
      "additionalContracts": [],
      "isFixedGasLimit": false
    },
    {
      "hash": "0xd3062a07328c9850889a3abd17a1b3603a07a052fcc4d6b2b36321c34b6b3719",
      "transactionType": "CALL",
      "contractName": null,
      "contractAddress": "0x79dfbed14077b8f2421eece5707a17b161094e6a",
      "function": "wlMint(address)",
      "arguments": [
        "0x0000000000000000000000000000000000000000"
      ],
      "transaction": {
        "from": "0xcda2fdb452ff4f5d7ba1c3d5dfcc9cb926a5eb7d",
        "to": "0x79dfbed14077b8f2421eece5707a17b161094e6a",
        "gas": "0x3ddf7",
        "value": "0x0",
        "input": "0xc517b4a50000000000000000000000000000000000000000000000000000000000000000",
        "nonce": "0x1cdc",
        "chainId": "0xed88"
      },
      "additionalContracts": [],
      "isFixedGasLimit": false
    },
    {
      "hash": "0x664c076919809e8b0e0ea4635d3df3c5e2a3bcbdd2c34391016b9dc7bd280c8e",
      "transactionType": "CALL",
      "contractName": null,
      "contractAddress": "0x79dfbed14077b8f2421eece5707a17b161094e6a",
      "function": "wlMint(address)",
      "arguments": [
        "0x0000000000000000000000000000000000000000"
      ],
      "transaction": {
        "from": "0xcda2fdb452ff4f5d7ba1c3d5dfcc9cb926a5eb7d",
        "to": "0x79dfbed14077b8f2421eece5707a17b161094e6a",
        "gas": "0x3ddf7",
        "value": "0x0",
        "input": "0xc517b4a50000000000000000000000000000000000000000000000000000000000000000",
        "nonce": "0x1cdd",
        "chainId": "0xed88"
      },
      "additionalContracts": [],
      "isFixedGasLimit": false
    },
    {
      "hash": "0xef12a8fc0787c041135abb0ac58ebba5b42bd036d8130b5cd26df39facfbd6ac",
      "transactionType": "CALL",
      "contractName": null,
      "contractAddress": "0x79dfbed14077b8f2421eece5707a17b161094e6a",
      "function": "wlMint(address)",
      "arguments": [
        "0x0000000000000000000000000000000000000000"
      ],
      "transaction": {
        "from": "0xcda2fdb452ff4f5d7ba1c3d5dfcc9cb926a5eb7d",
        "to": "0x79dfbed14077b8f2421eece5707a17b161094e6a",
        "gas": "0x3ddf7",
        "value": "0x0",
        "input": "0xc517b4a50000000000000000000000000000000000000000000000000000000000000000",
        "nonce": "0x1cde",
        "chainId": "0xed88"
      },
      "additionalContracts": [],
      "isFixedGasLimit": false
    },
    {
      "hash": "0xd758171cf927a02e083a88021346f0d7d100834bae2c8daca7e5f3ea6c9e0868",
      "transactionType": "CALL",
      "contractName": null,
      "contractAddress": "0x79dfbed14077b8f2421eece5707a17b161094e6a",
      "function": "wlMint(address)",
      "arguments": [
        "0x0000000000000000000000000000000000000000"
      ],
      "transaction": {
        "from": "0xcda2fdb452ff4f5d7ba1c3d5dfcc9cb926a5eb7d",
        "to": "0x79dfbed14077b8f2421eece5707a17b161094e6a",
        "gas": "0x3ddf7",
        "value": "0x0",
        "input": "0xc517b4a50000000000000000000000000000000000000000000000000000000000000000",
        "nonce": "0x1cdf",
        "chainId": "0xed88"
      },
      "additionalContracts": [],
      "isFixedGasLimit": false
    },
    {
      "hash": "0x4f5cac52595f7f4bad1ce43b221adb55b001ea50109b8e61333b1c651ff285f1",
      "transactionType": "CALL",
      "contractName": null,
      "contractAddress": "0x79dfbed14077b8f2421eece5707a17b161094e6a",
      "function": "wlMint(address)",
      "arguments": [
        "0x0000000000000000000000000000000000000000"
      ],
      "transaction": {
        "from": "0xcda2fdb452ff4f5d7ba1c3d5dfcc9cb926a5eb7d",
        "to": "0x79dfbed14077b8f2421eece5707a17b161094e6a",
        "gas": "0x3ddf7",
        "value": "0x0",
        "input": "0xc517b4a50000000000000000000000000000000000000000000000000000000000000000",
        "nonce": "0x1ce0",
        "chainId": "0xed88"
      },
      "additionalContracts": [],
      "isFixedGasLimit": false
    },
    {
      "hash": "0xdf93854149556b41ae0dea4f1ebb76354091903f4b939a171e0552bed78cd0a0",
      "transactionType": "CALL",
      "contractName": null,
      "contractAddress": "0x79dfbed14077b8f2421eece5707a17b161094e6a",
      "function": "wlMint(address)",
      "arguments": [
        "0x0000000000000000000000000000000000000000"
      ],
      "transaction": {
        "from": "0xcda2fdb452ff4f5d7ba1c3d5dfcc9cb926a5eb7d",
        "to": "0x79dfbed14077b8f2421eece5707a17b161094e6a",
        "gas": "0x3ddf7",
        "value": "0x0",
        "input": "0xc517b4a50000000000000000000000000000000000000000000000000000000000000000",
        "nonce": "0x1ce1",
        "chainId": "0xed88"
      },
      "additionalContracts": [],
      "isFixedGasLimit": false
    },
    {
      "hash": "0x433ac94123370087986391769d7b8247b495c0d0295d855ee6a7b19fa4cfba9b",
      "transactionType": "CALL",
      "contractName": null,
      "contractAddress": "0x79dfbed14077b8f2421eece5707a17b161094e6a",
      "function": "wlMint(address)",
      "arguments": [
        "0x0000000000000000000000000000000000000000"
      ],
      "transaction": {
        "from": "0xcda2fdb452ff4f5d7ba1c3d5dfcc9cb926a5eb7d",
        "to": "0x79dfbed14077b8f2421eece5707a17b161094e6a",
        "gas": "0x3ddf7",
        "value": "0x0",
        "input": "0xc517b4a50000000000000000000000000000000000000000000000000000000000000000",
        "nonce": "0x1ce2",
        "chainId": "0xed88"
      },
      "additionalContracts": [],
      "isFixedGasLimit": false
    },
    {
      "hash": "0x51d009ac0f09406708f8d3676a8fa7c7e40df722e55fbb8c0ecc4390f8fc4323",
      "transactionType": "CALL",
      "contractName": null,
      "contractAddress": "0x79dfbed14077b8f2421eece5707a17b161094e6a",
      "function": "wlMint(address)",
      "arguments": [
        "0x0000000000000000000000000000000000000000"
      ],
      "transaction": {
        "from": "0xcda2fdb452ff4f5d7ba1c3d5dfcc9cb926a5eb7d",
        "to": "0x79dfbed14077b8f2421eece5707a17b161094e6a",
        "gas": "0x3ddf7",
        "value": "0x0",
        "input": "0xc517b4a50000000000000000000000000000000000000000000000000000000000000000",
        "nonce": "0x1ce3",
        "chainId": "0xed88"
      },
      "additionalContracts": [],
      "isFixedGasLimit": false
    },
    {
      "hash": "0xb166084c9068345a4880b3a1f6b4a23c16fe413f9824c2e9e0cc0b4c2b933bfd",
      "transactionType": "CALL",
      "contractName": null,
      "contractAddress": "0x79dfbed14077b8f2421eece5707a17b161094e6a",
      "function": "wlMint(address)",
      "arguments": [
        "0x0000000000000000000000000000000000000000"
      ],
      "transaction": {
        "from": "0xcda2fdb452ff4f5d7ba1c3d5dfcc9cb926a5eb7d",
        "to": "0x79dfbed14077b8f2421eece5707a17b161094e6a",
        "gas": "0x3ddf7",
        "value": "0x0",
        "input": "0xc517b4a50000000000000000000000000000000000000000000000000000000000000000",
        "nonce": "0x1ce4",
        "chainId": "0xed88"
      },
      "additionalContracts": [],
      "isFixedGasLimit": false
    },
    {
      "hash": "0xe29cc91ef670267ab78607837330b0bb2304437e293928cfb4563afe0607c3d0",
      "transactionType": "CALL",
      "contractName": null,
      "contractAddress": "0x79dfbed14077b8f2421eece5707a17b161094e6a",
      "function": "wlMint(address)",
      "arguments": [
        "0x0000000000000000000000000000000000000000"
      ],
      "transaction": {
        "from": "0xcda2fdb452ff4f5d7ba1c3d5dfcc9cb926a5eb7d",
        "to": "0x79dfbed14077b8f2421eece5707a17b161094e6a",
        "gas": "0x3ddf7",
        "value": "0x0",
        "input": "0xc517b4a50000000000000000000000000000000000000000000000000000000000000000",
        "nonce": "0x1ce5",
        "chainId": "0xed88"
      },
      "additionalContracts": [],
      "isFixedGasLimit": false
    },
    {
      "hash": "0xd94f33d0118f6c4dbe94d03d87b9196302da3a0d17c0cd3f525d80dd2efb5fd4",
      "transactionType": "CALL",
      "contractName": null,
      "contractAddress": "0x79dfbed14077b8f2421eece5707a17b161094e6a",
      "function": "wlMint(address)",
      "arguments": [
        "0x0000000000000000000000000000000000000000"
      ],
      "transaction": {
        "from": "0xcda2fdb452ff4f5d7ba1c3d5dfcc9cb926a5eb7d",
        "to": "0x79dfbed14077b8f2421eece5707a17b161094e6a",
        "gas": "0x3ddf7",
        "value": "0x0",
        "input": "0xc517b4a50000000000000000000000000000000000000000000000000000000000000000",
        "nonce": "0x1ce6",
        "chainId": "0xed88"
      },
      "additionalContracts": [],
      "isFixedGasLimit": false
    },
    {
      "hash": "0x81a418584c71f8eb2ac33eb0bafa68dffaeaf1d3594f641d3e4b5529538126d2",
      "transactionType": "CALL",
      "contractName": null,
      "contractAddress": "0x79dfbed14077b8f2421eece5707a17b161094e6a",
      "function": "wlMint(address)",
      "arguments": [
        "0x0000000000000000000000000000000000000000"
      ],
      "transaction": {
        "from": "0xcda2fdb452ff4f5d7ba1c3d5dfcc9cb926a5eb7d",
        "to": "0x79dfbed14077b8f2421eece5707a17b161094e6a",
        "gas": "0x3ddf7",
        "value": "0x0",
        "input": "0xc517b4a50000000000000000000000000000000000000000000000000000000000000000",
        "nonce": "0x1ce7",
        "chainId": "0xed88"
      },
      "additionalContracts": [],
      "isFixedGasLimit": false
    },
    {
      "hash": "0x67a4b1ff93153d7fdae401959c4498bc0838e2161d4e780f205beaa846276280",
      "transactionType": "CALL",
      "contractName": null,
      "contractAddress": "0x79dfbed14077b8f2421eece5707a17b161094e6a",
      "function": "wlMint(address)",
      "arguments": [
        "0x0000000000000000000000000000000000000000"
      ],
      "transaction": {
        "from": "0xcda2fdb452ff4f5d7ba1c3d5dfcc9cb926a5eb7d",
        "to": "0x79dfbed14077b8f2421eece5707a17b161094e6a",
        "gas": "0x3ddf7",
        "value": "0x0",
        "input": "0xc517b4a50000000000000000000000000000000000000000000000000000000000000000",
        "nonce": "0x1ce8",
        "chainId": "0xed88"
      },
      "additionalContracts": [],
      "isFixedGasLimit": false
    },
    {
      "hash": "0x68deaa120aa68a1d26e5066cb6f5e8b5c0b703332341f0d731070519acb6922f",
      "transactionType": "CALL",
      "contractName": null,
      "contractAddress": "0x79dfbed14077b8f2421eece5707a17b161094e6a",
      "function": "wlMint(address)",
      "arguments": [
        "0x0000000000000000000000000000000000000000"
      ],
      "transaction": {
        "from": "0xcda2fdb452ff4f5d7ba1c3d5dfcc9cb926a5eb7d",
        "to": "0x79dfbed14077b8f2421eece5707a17b161094e6a",
        "gas": "0x3ddf7",
        "value": "0x0",
        "input": "0xc517b4a50000000000000000000000000000000000000000000000000000000000000000",
        "nonce": "0x1ce9",
        "chainId": "0xed88"
      },
      "additionalContracts": [],
      "isFixedGasLimit": false
    },
    {
      "hash": "0xcc1407d9599366041c5a0fcb3e28996d1f31ba1f17c79a6cdc0ebc2163f5657d",
      "transactionType": "CALL",
      "contractName": null,
      "contractAddress": "0x79dfbed14077b8f2421eece5707a17b161094e6a",
      "function": "wlMint(address)",
      "arguments": [
        "0x0000000000000000000000000000000000000000"
      ],
      "transaction": {
        "from": "0xcda2fdb452ff4f5d7ba1c3d5dfcc9cb926a5eb7d",
        "to": "0x79dfbed14077b8f2421eece5707a17b161094e6a",
        "gas": "0x3ddf7",
        "value": "0x0",
        "input": "0xc517b4a50000000000000000000000000000000000000000000000000000000000000000",
        "nonce": "0x1cea",
        "chainId": "0xed88"
      },
      "additionalContracts": [],
      "isFixedGasLimit": false
    },
    {
      "hash": "0x9a69da71e564f3cfb196be8b52356a77c6df647f2b7ce9b73a3477d5d6ee2b25",
      "transactionType": "CALL",
      "contractName": null,
      "contractAddress": "0x79dfbed14077b8f2421eece5707a17b161094e6a",
      "function": "wlMint(address)",
      "arguments": [
        "0x0000000000000000000000000000000000000000"
      ],
      "transaction": {
        "from": "0xcda2fdb452ff4f5d7ba1c3d5dfcc9cb926a5eb7d",
        "to": "0x79dfbed14077b8f2421eece5707a17b161094e6a",
        "gas": "0x3ddf7",
        "value": "0x0",
        "input": "0xc517b4a50000000000000000000000000000000000000000000000000000000000000000",
        "nonce": "0x1ceb",
        "chainId": "0xed88"
      },
      "additionalContracts": [],
      "isFixedGasLimit": false
    },
    {
      "hash": "0xe87227eace68a6df566a32981345d9ee15d451f947cbdbe5f46816aeec926c6f",
      "transactionType": "CALL",
      "contractName": null,
      "contractAddress": "0x79dfbed14077b8f2421eece5707a17b161094e6a",
      "function": "wlMint(address)",
      "arguments": [
        "0x0000000000000000000000000000000000000000"
      ],
      "transaction": {
        "from": "0xcda2fdb452ff4f5d7ba1c3d5dfcc9cb926a5eb7d",
        "to": "0x79dfbed14077b8f2421eece5707a17b161094e6a",
        "gas": "0x3ddf7",
        "value": "0x0",
        "input": "0xc517b4a50000000000000000000000000000000000000000000000000000000000000000",
        "nonce": "0x1cec",
        "chainId": "0xed88"
      },
      "additionalContracts": [],
      "isFixedGasLimit": false
    },
    {
      "hash": "0xe1f763e16074f181680243cdadbf47a85dd1efe825c31257411d12d2cb456098",
      "transactionType": "CALL",
      "contractName": null,
      "contractAddress": "0x79dfbed14077b8f2421eece5707a17b161094e6a",
      "function": "wlMint(address)",
      "arguments": [
        "0x0000000000000000000000000000000000000000"
      ],
      "transaction": {
        "from": "0xcda2fdb452ff4f5d7ba1c3d5dfcc9cb926a5eb7d",
        "to": "0x79dfbed14077b8f2421eece5707a17b161094e6a",
        "gas": "0x3ddf7",
        "value": "0x0",
        "input": "0xc517b4a50000000000000000000000000000000000000000000000000000000000000000",
        "nonce": "0x1ced",
        "chainId": "0xed88"
      },
      "additionalContracts": [],
      "isFixedGasLimit": false
    },
    {
      "hash": "0xa53f761c472ec5c1f2d16f9cd86de0c9d3710537ee94f24c3d91a82219a63cea",
      "transactionType": "CALL",
      "contractName": null,
      "contractAddress": "0x79dfbed14077b8f2421eece5707a17b161094e6a",
      "function": "wlMint(address)",
      "arguments": [
        "0x0000000000000000000000000000000000000000"
      ],
      "transaction": {
        "from": "0xcda2fdb452ff4f5d7ba1c3d5dfcc9cb926a5eb7d",
        "to": "0x79dfbed14077b8f2421eece5707a17b161094e6a",
        "gas": "0x3ddf7",
        "value": "0x0",
        "input": "0xc517b4a50000000000000000000000000000000000000000000000000000000000000000",
        "nonce": "0x1cee",
        "chainId": "0xed88"
      },
      "additionalContracts": [],
      "isFixedGasLimit": false
    },
    {
      "hash": "0x621c54dfaa8fe5a1689d03213956993bad051d9fe5802e291812b2154920d465",
      "transactionType": "CALL",
      "contractName": null,
      "contractAddress": "0x79dfbed14077b8f2421eece5707a17b161094e6a",
      "function": "wlMint(address)",
      "arguments": [
        "0x0000000000000000000000000000000000000000"
      ],
      "transaction": {
        "from": "0xcda2fdb452ff4f5d7ba1c3d5dfcc9cb926a5eb7d",
        "to": "0x79dfbed14077b8f2421eece5707a17b161094e6a",
        "gas": "0x3ddf7",
        "value": "0x0",
        "input": "0xc517b4a50000000000000000000000000000000000000000000000000000000000000000",
        "nonce": "0x1cef",
        "chainId": "0xed88"
      },
      "additionalContracts": [],
      "isFixedGasLimit": false
    }
  ],
  "receipts": [
    {
      "status": "0x1",
      "cumulativeGasUsed": "0x37803",
      "logs": [
        {
          "address": "0x2e8af9c5922623058aa92a183b391e62cb6b2d12",
          "topics": [
            "0xddf252ad1be2c89b69c2b068fc378daa952ba7f163c4a11628f55a4df523b3ef",
            "0x0000000000000000000000000000000000000000000000000000000000000000",
            "0x000000000000000000000000cda2fdb452ff4f5d7ba1c3d5dfcc9cb926a5eb7d",
            "0x00000000000000000000000000000000000000000000000000000000000000c8"
          ],
          "data": "0x",
          "blockHash": "0x97e5f458f1cdd96f5330d6975e2fb1e2e7fe67c423c562ab562fdb5a8b4ec190",
          "blockNumber": "0x7506d9",
          "transactionHash": "0x29f6a35b295192845a4fe865fd92435e274ef1cfdde2c61eb64ebe3618677339",
          "transactionIndex": "0x1",
          "logIndex": "0x0",
          "removed": false
        },
        {
          "address": "0x2e8af9c5922623058aa92a183b391e62cb6b2d12",
          "topics": [
            "0xf8e1a15aba9398e019f0b49df1a4fde98ee17ae345cb5f6b5e2c27f5033e8ce7"
          ],
          "data": "0x00000000000000000000000000000000000000000000000000000000000000c8",
          "blockHash": "0x97e5f458f1cdd96f5330d6975e2fb1e2e7fe67c423c562ab562fdb5a8b4ec190",
          "blockNumber": "0x7506d9",
          "transactionHash": "0x29f6a35b295192845a4fe865fd92435e274ef1cfdde2c61eb64ebe3618677339",
          "transactionIndex": "0x1",
          "logIndex": "0x1",
          "removed": false
        }
      ],
      "logsBloom": "0x00000000000000000000000000000020000000020000000000000000800000000000000000000000000000000000000000000000000000000000000000000000000000000000000000000008040000000000000000000000000000000000000000000000020000000000000000000800002080000000800000000010000000000000000000000000000000000000000000000000000000000000000000000000000000000000000000000000000000002000000000004000000000000000008000000002000000000000000000000000000000000000000000000000000020000000000000000000200000000000000000000000100000000000000000000000",
      "type": "0x2",
      "transactionHash": "0x29f6a35b295192845a4fe865fd92435e274ef1cfdde2c61eb64ebe3618677339",
      "transactionIndex": "0x1",
      "blockHash": "0x97e5f458f1cdd96f5330d6975e2fb1e2e7fe67c423c562ab562fdb5a8b4ec190",
      "blockNumber": "0x7506d9",
      "gasUsed": "0x2ccb8",
      "effectiveGasPrice": "0xfd",
      "from": "0xcda2fdb452ff4f5d7ba1c3d5dfcc9cb926a5eb7d",
      "to": "0x79dfbed14077b8f2421eece5707a17b161094e6a",
      "contractAddress": null,
      "l1BaseFeeScalar": "0x186a0",
      "l1BlobBaseFee": "0x1",
      "l1BlobBaseFeeScalar": "0x95506",
      "l1Fee": "0x9fbaa33d9d",
      "l1GasPrice": "0xff91052f",
      "l1GasUsed": "0x640"
    },
    {
      "status": "0x1",
      "cumulativeGasUsed": "0x37803",
      "logs": [
        {
          "address": "0x2e8af9c5922623058aa92a183b391e62cb6b2d12",
          "topics": [
            "0xddf252ad1be2c89b69c2b068fc378daa952ba7f163c4a11628f55a4df523b3ef",
            "0x0000000000000000000000000000000000000000000000000000000000000000",
            "0x000000000000000000000000cda2fdb452ff4f5d7ba1c3d5dfcc9cb926a5eb7d",
            "0x00000000000000000000000000000000000000000000000000000000000000c9"
          ],
          "data": "0x",
          "blockHash": "0x36e71c14e42a611e44672a7897fb2e93945d7551bcad6ac92322d80eed8185fb",
          "blockNumber": "0x7506da",
          "transactionHash": "0xce6d8df4ac2df1c7986718702b9e4b71a5e16a262f2a6ffb6575a0ee49175a72",
          "transactionIndex": "0x1",
          "logIndex": "0x0",
          "removed": false
        },
        {
          "address": "0x2e8af9c5922623058aa92a183b391e62cb6b2d12",
          "topics": [
            "0xf8e1a15aba9398e019f0b49df1a4fde98ee17ae345cb5f6b5e2c27f5033e8ce7"
          ],
          "data": "0x00000000000000000000000000000000000000000000000000000000000000c9",
          "blockHash": "0x36e71c14e42a611e44672a7897fb2e93945d7551bcad6ac92322d80eed8185fb",
          "blockNumber": "0x7506da",
          "transactionHash": "0xce6d8df4ac2df1c7986718702b9e4b71a5e16a262f2a6ffb6575a0ee49175a72",
          "transactionIndex": "0x1",
          "logIndex": "0x1",
          "removed": false
        }
      ],
      "logsBloom": "0x00000000000000000000000000000000000000020000000000000000002000000000000000000000400000000000000000000000000000000000000000000000000000000000000000000008040000000000000000000000000000000000000000000000020000000000000000000800002000004000800000000010000000000000000000000000000000000000000000000000000000000000000000000000000000000000000000000000000000002000000000004000000000000000008000000002000000000000000000000000000000000000000000000000000020000000000000000000200000000000000000000000100000000000000000000000",
      "type": "0x2",
      "transactionHash": "0xce6d8df4ac2df1c7986718702b9e4b71a5e16a262f2a6ffb6575a0ee49175a72",
      "transactionIndex": "0x1",
      "blockHash": "0x36e71c14e42a611e44672a7897fb2e93945d7551bcad6ac92322d80eed8185fb",
      "blockNumber": "0x7506da",
      "gasUsed": "0x2ccb8",
      "effectiveGasPrice": "0xfd",
      "from": "0xcda2fdb452ff4f5d7ba1c3d5dfcc9cb926a5eb7d",
      "to": "0x79dfbed14077b8f2421eece5707a17b161094e6a",
      "contractAddress": null,
      "l1BaseFeeScalar": "0x186a0",
      "l1BlobBaseFee": "0x1",
      "l1BlobBaseFeeScalar": "0x95506",
      "l1Fee": "0x9fbaa33d9d",
      "l1GasPrice": "0xff91052f",
      "l1GasUsed": "0x640"
    },
    {
      "status": "0x1",
      "cumulativeGasUsed": "0x644bb",
      "logs": [
        {
          "address": "0x2e8af9c5922623058aa92a183b391e62cb6b2d12",
          "topics": [
            "0xddf252ad1be2c89b69c2b068fc378daa952ba7f163c4a11628f55a4df523b3ef",
            "0x0000000000000000000000000000000000000000000000000000000000000000",
            "0x000000000000000000000000cda2fdb452ff4f5d7ba1c3d5dfcc9cb926a5eb7d",
            "0x00000000000000000000000000000000000000000000000000000000000000ca"
          ],
          "data": "0x",
          "blockHash": "0x36e71c14e42a611e44672a7897fb2e93945d7551bcad6ac92322d80eed8185fb",
          "blockNumber": "0x7506da",
          "transactionHash": "0xab0e46be0063771a939c422efbc0ce812f123cf2f1772f36610f66531021f1d0",
          "transactionIndex": "0x2",
          "logIndex": "0x2",
          "removed": false
        },
        {
          "address": "0x2e8af9c5922623058aa92a183b391e62cb6b2d12",
          "topics": [
            "0xf8e1a15aba9398e019f0b49df1a4fde98ee17ae345cb5f6b5e2c27f5033e8ce7"
          ],
          "data": "0x00000000000000000000000000000000000000000000000000000000000000ca",
          "blockHash": "0x36e71c14e42a611e44672a7897fb2e93945d7551bcad6ac92322d80eed8185fb",
          "blockNumber": "0x7506da",
          "transactionHash": "0xab0e46be0063771a939c422efbc0ce812f123cf2f1772f36610f66531021f1d0",
          "transactionIndex": "0x2",
          "logIndex": "0x3",
          "removed": false
        }
      ],
      "logsBloom": "0x00000000000000000000000000000000000000020000800000000000000000000000000000000000000000000000000000100000000000000000000000000000000000000000000000000008040000000000000000000000000000000000000000000000020000000000000000000800002000000000800000000010000000000000000000000000000000000000000000000000000000000000000000000000000000000080000000000000000000002000000000004000000000000000008000000002000000000000000000000000000000000000000000000000000020000000000000000000200000000000000000000000100000000000000000000000",
      "type": "0x2",
      "transactionHash": "0xab0e46be0063771a939c422efbc0ce812f123cf2f1772f36610f66531021f1d0",
      "transactionIndex": "0x2",
      "blockHash": "0x36e71c14e42a611e44672a7897fb2e93945d7551bcad6ac92322d80eed8185fb",
      "blockNumber": "0x7506da",
      "gasUsed": "0x2ccb8",
      "effectiveGasPrice": "0xfd",
      "from": "0xcda2fdb452ff4f5d7ba1c3d5dfcc9cb926a5eb7d",
      "to": "0x79dfbed14077b8f2421eece5707a17b161094e6a",
      "contractAddress": null,
      "l1BaseFeeScalar": "0x186a0",
      "l1BlobBaseFee": "0x1",
      "l1BlobBaseFeeScalar": "0x95506",
      "l1Fee": "0x9fbaa33d9d",
      "l1GasPrice": "0xff91052f",
      "l1GasUsed": "0x640"
    },
    {
      "status": "0x1",
      "cumulativeGasUsed": "0x91173",
      "logs": [
        {
          "address": "0x2e8af9c5922623058aa92a183b391e62cb6b2d12",
          "topics": [
            "0xddf252ad1be2c89b69c2b068fc378daa952ba7f163c4a11628f55a4df523b3ef",
            "0x0000000000000000000000000000000000000000000000000000000000000000",
            "0x000000000000000000000000cda2fdb452ff4f5d7ba1c3d5dfcc9cb926a5eb7d",
            "0x00000000000000000000000000000000000000000000000000000000000000cb"
          ],
          "data": "0x",
          "blockHash": "0x36e71c14e42a611e44672a7897fb2e93945d7551bcad6ac92322d80eed8185fb",
          "blockNumber": "0x7506da",
          "transactionHash": "0x2da3933032fadae2acb7086cd1b401fa3ffd86c7a7117f8ce29f4eca0cd6fa2f",
          "transactionIndex": "0x3",
          "logIndex": "0x4",
          "removed": false
        },
        {
          "address": "0x2e8af9c5922623058aa92a183b391e62cb6b2d12",
          "topics": [
            "0xf8e1a15aba9398e019f0b49df1a4fde98ee17ae345cb5f6b5e2c27f5033e8ce7"
          ],
          "data": "0x00000000000000000000000000000000000000000000000000000000000000cb",
          "blockHash": "0x36e71c14e42a611e44672a7897fb2e93945d7551bcad6ac92322d80eed8185fb",
          "blockNumber": "0x7506da",
          "transactionHash": "0x2da3933032fadae2acb7086cd1b401fa3ffd86c7a7117f8ce29f4eca0cd6fa2f",
          "transactionIndex": "0x3",
          "logIndex": "0x5",
          "removed": false
        }
      ],
      "logsBloom": "0x00000000000040000000000000000000000000020000000000000000000000000000000000000000000000000000000000000000000000000000000000000000000000000000000000000008040000000000000000000000000000000000000000000000020000000000000000000800002000000000800000000010000000000000000000000000000000000000000000002000000000000000080000000000000000000000000000000000000000002000000000004000000000000000008000000002000000000000000000000000000000000000000000000000000020000000000000000000200000000000000000000000100000000000000000000000",
      "type": "0x2",
      "transactionHash": "0x2da3933032fadae2acb7086cd1b401fa3ffd86c7a7117f8ce29f4eca0cd6fa2f",
      "transactionIndex": "0x3",
      "blockHash": "0x36e71c14e42a611e44672a7897fb2e93945d7551bcad6ac92322d80eed8185fb",
      "blockNumber": "0x7506da",
      "gasUsed": "0x2ccb8",
      "effectiveGasPrice": "0xfd",
      "from": "0xcda2fdb452ff4f5d7ba1c3d5dfcc9cb926a5eb7d",
      "to": "0x79dfbed14077b8f2421eece5707a17b161094e6a",
      "contractAddress": null,
      "l1BaseFeeScalar": "0x186a0",
      "l1BlobBaseFee": "0x1",
      "l1BlobBaseFeeScalar": "0x95506",
      "l1Fee": "0x9fbaa33d9d",
      "l1GasPrice": "0xff91052f",
      "l1GasUsed": "0x640"
    },
    {
      "status": "0x1",
      "cumulativeGasUsed": "0xbde2b",
      "logs": [
        {
          "address": "0x2e8af9c5922623058aa92a183b391e62cb6b2d12",
          "topics": [
            "0xddf252ad1be2c89b69c2b068fc378daa952ba7f163c4a11628f55a4df523b3ef",
            "0x0000000000000000000000000000000000000000000000000000000000000000",
            "0x000000000000000000000000cda2fdb452ff4f5d7ba1c3d5dfcc9cb926a5eb7d",
            "0x00000000000000000000000000000000000000000000000000000000000000cc"
          ],
          "data": "0x",
          "blockHash": "0x36e71c14e42a611e44672a7897fb2e93945d7551bcad6ac92322d80eed8185fb",
          "blockNumber": "0x7506da",
          "transactionHash": "0x49ac9776e19222727797776fc41051d574f30c0378038252da75c7ce16a9803f",
          "transactionIndex": "0x4",
          "logIndex": "0x6",
          "removed": false
        },
        {
          "address": "0x2e8af9c5922623058aa92a183b391e62cb6b2d12",
          "topics": [
            "0xf8e1a15aba9398e019f0b49df1a4fde98ee17ae345cb5f6b5e2c27f5033e8ce7"
          ],
          "data": "0x00000000000000000000000000000000000000000000000000000000000000cc",
          "blockHash": "0x36e71c14e42a611e44672a7897fb2e93945d7551bcad6ac92322d80eed8185fb",
          "blockNumber": "0x7506da",
          "transactionHash": "0x49ac9776e19222727797776fc41051d574f30c0378038252da75c7ce16a9803f",
          "transactionIndex": "0x4",
          "logIndex": "0x7",
          "removed": false
        }
      ],
      "logsBloom": "0x00000000000000000000000000000000000000020000000000000000020000000000000000000000000000000000000000000000000000000000000000000000000000000000000000000008040000000000000000000000000000000000000000000000020000000000000000000800002000000000800000000010000000000000000000000000000000000000000000000000000000000000000000000000000000000000000000000000000000002000000000004000000100000000008000000012000000000000000000000000000000000000000000000000000020000000000000000000200000000000000000000000100000000000000000000000",
      "type": "0x2",
      "transactionHash": "0x49ac9776e19222727797776fc41051d574f30c0378038252da75c7ce16a9803f",
      "transactionIndex": "0x4",
      "blockHash": "0x36e71c14e42a611e44672a7897fb2e93945d7551bcad6ac92322d80eed8185fb",
      "blockNumber": "0x7506da",
      "gasUsed": "0x2ccb8",
      "effectiveGasPrice": "0xfd",
      "from": "0xcda2fdb452ff4f5d7ba1c3d5dfcc9cb926a5eb7d",
      "to": "0x79dfbed14077b8f2421eece5707a17b161094e6a",
      "contractAddress": null,
      "l1BaseFeeScalar": "0x186a0",
      "l1BlobBaseFee": "0x1",
      "l1BlobBaseFeeScalar": "0x95506",
      "l1Fee": "0x9fbaa33d9d",
      "l1GasPrice": "0xff91052f",
      "l1GasUsed": "0x640"
    },
    {
      "status": "0x1",
      "cumulativeGasUsed": "0xeaae3",
      "logs": [
        {
          "address": "0x2e8af9c5922623058aa92a183b391e62cb6b2d12",
          "topics": [
            "0xddf252ad1be2c89b69c2b068fc378daa952ba7f163c4a11628f55a4df523b3ef",
            "0x0000000000000000000000000000000000000000000000000000000000000000",
            "0x000000000000000000000000cda2fdb452ff4f5d7ba1c3d5dfcc9cb926a5eb7d",
            "0x00000000000000000000000000000000000000000000000000000000000000cd"
          ],
          "data": "0x",
          "blockHash": "0x36e71c14e42a611e44672a7897fb2e93945d7551bcad6ac92322d80eed8185fb",
          "blockNumber": "0x7506da",
          "transactionHash": "0x048ba4eb1083839aa3299d19d70d89985f2ca25783dcc966f5dcee71c3e8a0a6",
          "transactionIndex": "0x5",
          "logIndex": "0x8",
          "removed": false
        },
        {
          "address": "0x2e8af9c5922623058aa92a183b391e62cb6b2d12",
          "topics": [
            "0xf8e1a15aba9398e019f0b49df1a4fde98ee17ae345cb5f6b5e2c27f5033e8ce7"
          ],
          "data": "0x00000000000000000000000000000000000000000000000000000000000000cd",
          "blockHash": "0x36e71c14e42a611e44672a7897fb2e93945d7551bcad6ac92322d80eed8185fb",
          "blockNumber": "0x7506da",
          "transactionHash": "0x048ba4eb1083839aa3299d19d70d89985f2ca25783dcc966f5dcee71c3e8a0a6",
          "transactionIndex": "0x5",
          "logIndex": "0x9",
          "removed": false
        }
      ],
      "logsBloom": "0x00000000000000000000000000000000000000020000000000000000000000000000000000000000000000000000000000000000000000000000000000000000000000000000000000000008040000000000000000000000000000000000000000000000020000000000000000000800002000000000800000000010000000000000000000000000000000000080000000000000000010000000000000000000000000000000000000000000000000002000000000004000000000000000008000000002000000100000000000000000000000000000000000000000000020000000000000000000200000000000000000000000100000000000000000000000",
      "type": "0x2",
      "transactionHash": "0x048ba4eb1083839aa3299d19d70d89985f2ca25783dcc966f5dcee71c3e8a0a6",
      "transactionIndex": "0x5",
      "blockHash": "0x36e71c14e42a611e44672a7897fb2e93945d7551bcad6ac92322d80eed8185fb",
      "blockNumber": "0x7506da",
      "gasUsed": "0x2ccb8",
      "effectiveGasPrice": "0xfd",
      "from": "0xcda2fdb452ff4f5d7ba1c3d5dfcc9cb926a5eb7d",
      "to": "0x79dfbed14077b8f2421eece5707a17b161094e6a",
      "contractAddress": null,
      "l1BaseFeeScalar": "0x186a0",
      "l1BlobBaseFee": "0x1",
      "l1BlobBaseFeeScalar": "0x95506",
      "l1Fee": "0x9fbaa33d9d",
      "l1GasPrice": "0xff91052f",
      "l1GasUsed": "0x640"
    },
    {
      "status": "0x1",
      "cumulativeGasUsed": "0x11779b",
      "logs": [
        {
          "address": "0x2e8af9c5922623058aa92a183b391e62cb6b2d12",
          "topics": [
            "0xddf252ad1be2c89b69c2b068fc378daa952ba7f163c4a11628f55a4df523b3ef",
            "0x0000000000000000000000000000000000000000000000000000000000000000",
            "0x000000000000000000000000cda2fdb452ff4f5d7ba1c3d5dfcc9cb926a5eb7d",
            "0x00000000000000000000000000000000000000000000000000000000000000ce"
          ],
          "data": "0x",
          "blockHash": "0x36e71c14e42a611e44672a7897fb2e93945d7551bcad6ac92322d80eed8185fb",
          "blockNumber": "0x7506da",
          "transactionHash": "0x8a98b3ec8663f3c6479156b288b5a86752f9666d72d6fbd4d01918b8b5645104",
          "transactionIndex": "0x6",
          "logIndex": "0xa",
          "removed": false
        },
        {
          "address": "0x2e8af9c5922623058aa92a183b391e62cb6b2d12",
          "topics": [
            "0xf8e1a15aba9398e019f0b49df1a4fde98ee17ae345cb5f6b5e2c27f5033e8ce7"
          ],
          "data": "0x00000000000000000000000000000000000000000000000000000000000000ce",
          "blockHash": "0x36e71c14e42a611e44672a7897fb2e93945d7551bcad6ac92322d80eed8185fb",
          "blockNumber": "0x7506da",
          "transactionHash": "0x8a98b3ec8663f3c6479156b288b5a86752f9666d72d6fbd4d01918b8b5645104",
          "transactionIndex": "0x6",
          "logIndex": "0xb",
          "removed": false
        }
      ],
      "logsBloom": "0x00000000000000000000000000000000000000020000000000000000000000000100000000000000000000000000000000000000000000000000000000000000000000000000000000000008040000000000000000000000000000000000000000000000020000000000000000000800002000000000800000000010000000000000000000000000000000000000000000001000000000000000000000000000000000000000000000000000000000002000000000004000000000000000008000000002000000800000000000000000000000000000000000000000000020000000000000000000200000000000000000000000100000000000000000000000",
      "type": "0x2",
      "transactionHash": "0x8a98b3ec8663f3c6479156b288b5a86752f9666d72d6fbd4d01918b8b5645104",
      "transactionIndex": "0x6",
      "blockHash": "0x36e71c14e42a611e44672a7897fb2e93945d7551bcad6ac92322d80eed8185fb",
      "blockNumber": "0x7506da",
      "gasUsed": "0x2ccb8",
      "effectiveGasPrice": "0xfd",
      "from": "0xcda2fdb452ff4f5d7ba1c3d5dfcc9cb926a5eb7d",
      "to": "0x79dfbed14077b8f2421eece5707a17b161094e6a",
      "contractAddress": null,
      "l1BaseFeeScalar": "0x186a0",
      "l1BlobBaseFee": "0x1",
      "l1BlobBaseFeeScalar": "0x95506",
      "l1Fee": "0x9fbaa33d9d",
      "l1GasPrice": "0xff91052f",
      "l1GasUsed": "0x640"
    },
    {
      "status": "0x1",
      "cumulativeGasUsed": "0x144453",
      "logs": [
        {
          "address": "0x2e8af9c5922623058aa92a183b391e62cb6b2d12",
          "topics": [
            "0xddf252ad1be2c89b69c2b068fc378daa952ba7f163c4a11628f55a4df523b3ef",
            "0x0000000000000000000000000000000000000000000000000000000000000000",
            "0x000000000000000000000000cda2fdb452ff4f5d7ba1c3d5dfcc9cb926a5eb7d",
            "0x00000000000000000000000000000000000000000000000000000000000000cf"
          ],
          "data": "0x",
          "blockHash": "0x36e71c14e42a611e44672a7897fb2e93945d7551bcad6ac92322d80eed8185fb",
          "blockNumber": "0x7506da",
          "transactionHash": "0x3aaeddda48cea0f329653cbfd721601351777f9ad883c68706642675cea0d280",
          "transactionIndex": "0x7",
          "logIndex": "0xc",
          "removed": false
        },
        {
          "address": "0x2e8af9c5922623058aa92a183b391e62cb6b2d12",
          "topics": [
            "0xf8e1a15aba9398e019f0b49df1a4fde98ee17ae345cb5f6b5e2c27f5033e8ce7"
          ],
          "data": "0x00000000000000000000000000000000000000000000000000000000000000cf",
          "blockHash": "0x36e71c14e42a611e44672a7897fb2e93945d7551bcad6ac92322d80eed8185fb",
          "blockNumber": "0x7506da",
          "transactionHash": "0x3aaeddda48cea0f329653cbfd721601351777f9ad883c68706642675cea0d280",
          "transactionIndex": "0x7",
          "logIndex": "0xd",
          "removed": false
        }
      ],
      "logsBloom": "0x00000000000000000000000000000000000000020000000000000000000000000000000000000000000000000000000000000000000000000000000000000000000000000000000000000008040000000000000000000000000000000000000000000000020000000100000000000800002000000000800000000010000000000000000000000000000000000000000000000000000000000000000000000000000000000000800000000000000000002000000000004000000000000000008000000002000000000000000000000000000000000010000000000000000020000000000000000000200000000000000000000000100000000000000000000000",
      "type": "0x2",
      "transactionHash": "0x3aaeddda48cea0f329653cbfd721601351777f9ad883c68706642675cea0d280",
      "transactionIndex": "0x7",
      "blockHash": "0x36e71c14e42a611e44672a7897fb2e93945d7551bcad6ac92322d80eed8185fb",
      "blockNumber": "0x7506da",
      "gasUsed": "0x2ccb8",
      "effectiveGasPrice": "0xfd",
      "from": "0xcda2fdb452ff4f5d7ba1c3d5dfcc9cb926a5eb7d",
      "to": "0x79dfbed14077b8f2421eece5707a17b161094e6a",
      "contractAddress": null,
      "l1BaseFeeScalar": "0x186a0",
      "l1BlobBaseFee": "0x1",
      "l1BlobBaseFeeScalar": "0x95506",
      "l1Fee": "0x9fbaa33d9d",
      "l1GasPrice": "0xff91052f",
      "l1GasUsed": "0x640"
    },
    {
      "status": "0x1",
      "cumulativeGasUsed": "0x17110b",
      "logs": [
        {
          "address": "0x2e8af9c5922623058aa92a183b391e62cb6b2d12",
          "topics": [
            "0xddf252ad1be2c89b69c2b068fc378daa952ba7f163c4a11628f55a4df523b3ef",
            "0x0000000000000000000000000000000000000000000000000000000000000000",
            "0x000000000000000000000000cda2fdb452ff4f5d7ba1c3d5dfcc9cb926a5eb7d",
            "0x00000000000000000000000000000000000000000000000000000000000000d0"
          ],
          "data": "0x",
          "blockHash": "0x36e71c14e42a611e44672a7897fb2e93945d7551bcad6ac92322d80eed8185fb",
          "blockNumber": "0x7506da",
          "transactionHash": "0x30df996bed15f688bd0f756c29afd7a5e36546172d0b6967d4a59a2d77db6ee6",
          "transactionIndex": "0x8",
          "logIndex": "0xe",
          "removed": false
        },
        {
          "address": "0x2e8af9c5922623058aa92a183b391e62cb6b2d12",
          "topics": [
            "0xf8e1a15aba9398e019f0b49df1a4fde98ee17ae345cb5f6b5e2c27f5033e8ce7"
          ],
          "data": "0x00000000000000000000000000000000000000000000000000000000000000d0",
          "blockHash": "0x36e71c14e42a611e44672a7897fb2e93945d7551bcad6ac92322d80eed8185fb",
          "blockNumber": "0x7506da",
          "transactionHash": "0x30df996bed15f688bd0f756c29afd7a5e36546172d0b6967d4a59a2d77db6ee6",
          "transactionIndex": "0x8",
          "logIndex": "0xf",
          "removed": false
        }
      ],
      "logsBloom": "0x00000000000000000000000000000000000000020000000000000000000000000000000000000000000000000000000000000000000000000000000000000000000000000000000000000008040000000000040000000000000000000000000000000000020001000000000000000800002000000000800000000010000000000000000000000000000000000000000000000000000000000000000000000000000000000000000000000000000000002000000000004000000000000000008000000002000000000000000000000000000000000000000000000000000020000000000000000000200000002000000000000000100000000000000000000000",
      "type": "0x2",
      "transactionHash": "0x30df996bed15f688bd0f756c29afd7a5e36546172d0b6967d4a59a2d77db6ee6",
      "transactionIndex": "0x8",
      "blockHash": "0x36e71c14e42a611e44672a7897fb2e93945d7551bcad6ac92322d80eed8185fb",
      "blockNumber": "0x7506da",
      "gasUsed": "0x2ccb8",
      "effectiveGasPrice": "0xfd",
      "from": "0xcda2fdb452ff4f5d7ba1c3d5dfcc9cb926a5eb7d",
      "to": "0x79dfbed14077b8f2421eece5707a17b161094e6a",
      "contractAddress": null,
      "l1BaseFeeScalar": "0x186a0",
      "l1BlobBaseFee": "0x1",
      "l1BlobBaseFeeScalar": "0x95506",
      "l1Fee": "0x9fbaa33d9d",
      "l1GasPrice": "0xff91052f",
      "l1GasUsed": "0x640"
    },
    {
      "status": "0x1",
      "cumulativeGasUsed": "0x19ddc3",
      "logs": [
        {
          "address": "0x2e8af9c5922623058aa92a183b391e62cb6b2d12",
          "topics": [
            "0xddf252ad1be2c89b69c2b068fc378daa952ba7f163c4a11628f55a4df523b3ef",
            "0x0000000000000000000000000000000000000000000000000000000000000000",
            "0x000000000000000000000000cda2fdb452ff4f5d7ba1c3d5dfcc9cb926a5eb7d",
            "0x00000000000000000000000000000000000000000000000000000000000000d1"
          ],
          "data": "0x",
          "blockHash": "0x36e71c14e42a611e44672a7897fb2e93945d7551bcad6ac92322d80eed8185fb",
          "blockNumber": "0x7506da",
          "transactionHash": "0xab12e34114f237832f839a327a52ba1a469428174b166aad2e7e6d4bdd0fe144",
          "transactionIndex": "0x9",
          "logIndex": "0x10",
          "removed": false
        },
        {
          "address": "0x2e8af9c5922623058aa92a183b391e62cb6b2d12",
          "topics": [
            "0xf8e1a15aba9398e019f0b49df1a4fde98ee17ae345cb5f6b5e2c27f5033e8ce7"
          ],
          "data": "0x00000000000000000000000000000000000000000000000000000000000000d1",
          "blockHash": "0x36e71c14e42a611e44672a7897fb2e93945d7551bcad6ac92322d80eed8185fb",
          "blockNumber": "0x7506da",
          "transactionHash": "0xab12e34114f237832f839a327a52ba1a469428174b166aad2e7e6d4bdd0fe144",
          "transactionIndex": "0x9",
          "logIndex": "0x11",
          "removed": false
        }
      ],
      "logsBloom": "0x00000000000000000000000000000000000000020000000000000000000000000000000000000000000000000000000000000000000000000000000000000000000000000000000000000008040000000000000000000000000000000000000000000000020000000000000000000800002000000000800000000010000000000000000000000000000000000000000000000000000000000000000000080000000000000100000000000000000000002000000000004000000000000000008000000002000000000000000000000000000000008000000000000000000020000000000000000000200000000000000000000000100000000000000000000000",
      "type": "0x2",
      "transactionHash": "0xab12e34114f237832f839a327a52ba1a469428174b166aad2e7e6d4bdd0fe144",
      "transactionIndex": "0x9",
      "blockHash": "0x36e71c14e42a611e44672a7897fb2e93945d7551bcad6ac92322d80eed8185fb",
      "blockNumber": "0x7506da",
      "gasUsed": "0x2ccb8",
      "effectiveGasPrice": "0xfd",
      "from": "0xcda2fdb452ff4f5d7ba1c3d5dfcc9cb926a5eb7d",
      "to": "0x79dfbed14077b8f2421eece5707a17b161094e6a",
      "contractAddress": null,
      "l1BaseFeeScalar": "0x186a0",
      "l1BlobBaseFee": "0x1",
      "l1BlobBaseFeeScalar": "0x95506",
      "l1Fee": "0x9fbaa33d9d",
      "l1GasPrice": "0xff91052f",
      "l1GasUsed": "0x640"
    },
    {
      "status": "0x1",
      "cumulativeGasUsed": "0x1caa7b",
      "logs": [
        {
          "address": "0x2e8af9c5922623058aa92a183b391e62cb6b2d12",
          "topics": [
            "0xddf252ad1be2c89b69c2b068fc378daa952ba7f163c4a11628f55a4df523b3ef",
            "0x0000000000000000000000000000000000000000000000000000000000000000",
            "0x000000000000000000000000cda2fdb452ff4f5d7ba1c3d5dfcc9cb926a5eb7d",
            "0x00000000000000000000000000000000000000000000000000000000000000d2"
          ],
          "data": "0x",
          "blockHash": "0x36e71c14e42a611e44672a7897fb2e93945d7551bcad6ac92322d80eed8185fb",
          "blockNumber": "0x7506da",
          "transactionHash": "0xd3062a07328c9850889a3abd17a1b3603a07a052fcc4d6b2b36321c34b6b3719",
          "transactionIndex": "0xa",
          "logIndex": "0x12",
          "removed": false
        },
        {
          "address": "0x2e8af9c5922623058aa92a183b391e62cb6b2d12",
          "topics": [
            "0xf8e1a15aba9398e019f0b49df1a4fde98ee17ae345cb5f6b5e2c27f5033e8ce7"
          ],
          "data": "0x00000000000000000000000000000000000000000000000000000000000000d2",
          "blockHash": "0x36e71c14e42a611e44672a7897fb2e93945d7551bcad6ac92322d80eed8185fb",
          "blockNumber": "0x7506da",
          "transactionHash": "0xd3062a07328c9850889a3abd17a1b3603a07a052fcc4d6b2b36321c34b6b3719",
          "transactionIndex": "0xa",
          "logIndex": "0x13",
          "removed": false
        }
      ],
      "logsBloom": "0x00000000000000000000000000000000000000020000000000000000000000000000000000000000000000000000000000000000000000000000000000010000000000000000000000000008040000000000000000000000000000000000000000000000020000000000000000000800002000000000800000000010000000000000000000000000000000000000000000000000000000000000000000000000000000000000000000000000000000002000000000004000000000000200008000000002000000000000000000000000000000000000000000000000000020000000000000000000200000000000000000000000100000000040000000000000",
      "type": "0x2",
      "transactionHash": "0xd3062a07328c9850889a3abd17a1b3603a07a052fcc4d6b2b36321c34b6b3719",
      "transactionIndex": "0xa",
      "blockHash": "0x36e71c14e42a611e44672a7897fb2e93945d7551bcad6ac92322d80eed8185fb",
      "blockNumber": "0x7506da",
      "gasUsed": "0x2ccb8",
      "effectiveGasPrice": "0xfd",
      "from": "0xcda2fdb452ff4f5d7ba1c3d5dfcc9cb926a5eb7d",
      "to": "0x79dfbed14077b8f2421eece5707a17b161094e6a",
      "contractAddress": null,
      "l1BaseFeeScalar": "0x186a0",
      "l1BlobBaseFee": "0x1",
      "l1BlobBaseFeeScalar": "0x95506",
      "l1Fee": "0x9fbaa33d9d",
      "l1GasPrice": "0xff91052f",
      "l1GasUsed": "0x640"
    },
    {
      "status": "0x1",
      "cumulativeGasUsed": "0x1f7733",
      "logs": [
        {
          "address": "0x2e8af9c5922623058aa92a183b391e62cb6b2d12",
          "topics": [
            "0xddf252ad1be2c89b69c2b068fc378daa952ba7f163c4a11628f55a4df523b3ef",
            "0x0000000000000000000000000000000000000000000000000000000000000000",
            "0x000000000000000000000000cda2fdb452ff4f5d7ba1c3d5dfcc9cb926a5eb7d",
            "0x00000000000000000000000000000000000000000000000000000000000000d3"
          ],
          "data": "0x",
          "blockHash": "0x36e71c14e42a611e44672a7897fb2e93945d7551bcad6ac92322d80eed8185fb",
          "blockNumber": "0x7506da",
          "transactionHash": "0x664c076919809e8b0e0ea4635d3df3c5e2a3bcbdd2c34391016b9dc7bd280c8e",
          "transactionIndex": "0xb",
          "logIndex": "0x14",
          "removed": false
        },
        {
          "address": "0x2e8af9c5922623058aa92a183b391e62cb6b2d12",
          "topics": [
            "0xf8e1a15aba9398e019f0b49df1a4fde98ee17ae345cb5f6b5e2c27f5033e8ce7"
          ],
          "data": "0x00000000000000000000000000000000000000000000000000000000000000d3",
          "blockHash": "0x36e71c14e42a611e44672a7897fb2e93945d7551bcad6ac92322d80eed8185fb",
          "blockNumber": "0x7506da",
          "transactionHash": "0x664c076919809e8b0e0ea4635d3df3c5e2a3bcbdd2c34391016b9dc7bd280c8e",
          "transactionIndex": "0xb",
          "logIndex": "0x15",
          "removed": false
        }
      ],
      "logsBloom": "0x00000000000000000004000000000000000000020000000000000000000000000000000000000000020000000000000000000000000000000000000000000000000000000000000000000008040000000000000000000000000000000000000000000000020000000000000000000800002000000000800000000010000000000000000000000000000000000000000000000000000000000000000000000000000000000000000000000000000000002000000000004000000000000000008000000002000000000000000000000000000000001000000000000000000020000000000000000000200000000000000000000000100000000000000000000000",
      "type": "0x2",
      "transactionHash": "0x664c076919809e8b0e0ea4635d3df3c5e2a3bcbdd2c34391016b9dc7bd280c8e",
      "transactionIndex": "0xb",
      "blockHash": "0x36e71c14e42a611e44672a7897fb2e93945d7551bcad6ac92322d80eed8185fb",
      "blockNumber": "0x7506da",
      "gasUsed": "0x2ccb8",
      "effectiveGasPrice": "0xfd",
      "from": "0xcda2fdb452ff4f5d7ba1c3d5dfcc9cb926a5eb7d",
      "to": "0x79dfbed14077b8f2421eece5707a17b161094e6a",
      "contractAddress": null,
      "l1BaseFeeScalar": "0x186a0",
      "l1BlobBaseFee": "0x1",
      "l1BlobBaseFeeScalar": "0x95506",
      "l1Fee": "0x9fbaa33d9d",
      "l1GasPrice": "0xff91052f",
      "l1GasUsed": "0x640"
    },
    {
      "status": "0x1",
      "cumulativeGasUsed": "0x2243eb",
      "logs": [
        {
          "address": "0x2e8af9c5922623058aa92a183b391e62cb6b2d12",
          "topics": [
            "0xddf252ad1be2c89b69c2b068fc378daa952ba7f163c4a11628f55a4df523b3ef",
            "0x0000000000000000000000000000000000000000000000000000000000000000",
            "0x000000000000000000000000cda2fdb452ff4f5d7ba1c3d5dfcc9cb926a5eb7d",
            "0x00000000000000000000000000000000000000000000000000000000000000d4"
          ],
          "data": "0x",
          "blockHash": "0x36e71c14e42a611e44672a7897fb2e93945d7551bcad6ac92322d80eed8185fb",
          "blockNumber": "0x7506da",
          "transactionHash": "0xef12a8fc0787c041135abb0ac58ebba5b42bd036d8130b5cd26df39facfbd6ac",
          "transactionIndex": "0xc",
          "logIndex": "0x16",
          "removed": false
        },
        {
          "address": "0x2e8af9c5922623058aa92a183b391e62cb6b2d12",
          "topics": [
            "0xf8e1a15aba9398e019f0b49df1a4fde98ee17ae345cb5f6b5e2c27f5033e8ce7"
          ],
          "data": "0x00000000000000000000000000000000000000000000000000000000000000d4",
          "blockHash": "0x36e71c14e42a611e44672a7897fb2e93945d7551bcad6ac92322d80eed8185fb",
          "blockNumber": "0x7506da",
          "transactionHash": "0xef12a8fc0787c041135abb0ac58ebba5b42bd036d8130b5cd26df39facfbd6ac",
          "transactionIndex": "0xc",
          "logIndex": "0x17",
          "removed": false
        }
      ],
      "logsBloom": "0x00000000000000000000000000000001000000020000000000000000000000000000000000000000000200000000000000000000000000000000000000000000000000000000000000000008040000000000000000000000000000000000000000000000020000000000000000000800002000000000800000000010000000000000000000000000000000000000000000000000000000000000000000000000000000000000000000000000000000002000200000004000000000000000008000000002000000000000000000000000000000000000000000000000000020000000000000000000200000000000000000000000100000000000000000000000",
      "type": "0x2",
      "transactionHash": "0xef12a8fc0787c041135abb0ac58ebba5b42bd036d8130b5cd26df39facfbd6ac",
      "transactionIndex": "0xc",
      "blockHash": "0x36e71c14e42a611e44672a7897fb2e93945d7551bcad6ac92322d80eed8185fb",
      "blockNumber": "0x7506da",
      "gasUsed": "0x2ccb8",
      "effectiveGasPrice": "0xfd",
      "from": "0xcda2fdb452ff4f5d7ba1c3d5dfcc9cb926a5eb7d",
      "to": "0x79dfbed14077b8f2421eece5707a17b161094e6a",
      "contractAddress": null,
      "l1BaseFeeScalar": "0x186a0",
      "l1BlobBaseFee": "0x1",
      "l1BlobBaseFeeScalar": "0x95506",
      "l1Fee": "0x9fbaa33d9d",
      "l1GasPrice": "0xff91052f",
      "l1GasUsed": "0x640"
    },
    {
      "status": "0x1",
      "cumulativeGasUsed": "0x2510a3",
      "logs": [
        {
          "address": "0x2e8af9c5922623058aa92a183b391e62cb6b2d12",
          "topics": [
            "0xddf252ad1be2c89b69c2b068fc378daa952ba7f163c4a11628f55a4df523b3ef",
            "0x0000000000000000000000000000000000000000000000000000000000000000",
            "0x000000000000000000000000cda2fdb452ff4f5d7ba1c3d5dfcc9cb926a5eb7d",
            "0x00000000000000000000000000000000000000000000000000000000000000d5"
          ],
          "data": "0x",
          "blockHash": "0x36e71c14e42a611e44672a7897fb2e93945d7551bcad6ac92322d80eed8185fb",
          "blockNumber": "0x7506da",
          "transactionHash": "0xd758171cf927a02e083a88021346f0d7d100834bae2c8daca7e5f3ea6c9e0868",
          "transactionIndex": "0xd",
          "logIndex": "0x18",
          "removed": false
        },
        {
          "address": "0x2e8af9c5922623058aa92a183b391e62cb6b2d12",
          "topics": [
            "0xf8e1a15aba9398e019f0b49df1a4fde98ee17ae345cb5f6b5e2c27f5033e8ce7"
          ],
          "data": "0x00000000000000000000000000000000000000000000000000000000000000d5",
          "blockHash": "0x36e71c14e42a611e44672a7897fb2e93945d7551bcad6ac92322d80eed8185fb",
          "blockNumber": "0x7506da",
          "transactionHash": "0xd758171cf927a02e083a88021346f0d7d100834bae2c8daca7e5f3ea6c9e0868",
          "transactionIndex": "0xd",
          "logIndex": "0x19",
          "removed": false
        }
      ],
      "logsBloom": "0x00000000000000000000000000000000000000020000000000000000000000000000000000000000000000000000000000000000000000000000000000000000000002000000000000000008040000000000000000000000000000000000000000000000020000000000000000000800002000000000800000000010000000000000000000000000000000000000000000000000000000000000000000000000000000000000000000000000000000002000000000004000000000000000008000000002000000000000000000000020000000000000000000000000000020000000000000000000200000000800000000000000100000000000000000000000",
      "type": "0x2",
      "transactionHash": "0xd758171cf927a02e083a88021346f0d7d100834bae2c8daca7e5f3ea6c9e0868",
      "transactionIndex": "0xd",
      "blockHash": "0x36e71c14e42a611e44672a7897fb2e93945d7551bcad6ac92322d80eed8185fb",
      "blockNumber": "0x7506da",
      "gasUsed": "0x2ccb8",
      "effectiveGasPrice": "0xfd",
      "from": "0xcda2fdb452ff4f5d7ba1c3d5dfcc9cb926a5eb7d",
      "to": "0x79dfbed14077b8f2421eece5707a17b161094e6a",
      "contractAddress": null,
      "l1BaseFeeScalar": "0x186a0",
      "l1BlobBaseFee": "0x1",
      "l1BlobBaseFeeScalar": "0x95506",
      "l1Fee": "0x9fbaa33d9d",
      "l1GasPrice": "0xff91052f",
      "l1GasUsed": "0x640"
    },
    {
      "status": "0x1",
      "cumulativeGasUsed": "0x27dd5b",
      "logs": [
        {
          "address": "0x2e8af9c5922623058aa92a183b391e62cb6b2d12",
          "topics": [
            "0xddf252ad1be2c89b69c2b068fc378daa952ba7f163c4a11628f55a4df523b3ef",
            "0x0000000000000000000000000000000000000000000000000000000000000000",
            "0x000000000000000000000000cda2fdb452ff4f5d7ba1c3d5dfcc9cb926a5eb7d",
            "0x00000000000000000000000000000000000000000000000000000000000000d6"
          ],
          "data": "0x",
          "blockHash": "0x36e71c14e42a611e44672a7897fb2e93945d7551bcad6ac92322d80eed8185fb",
          "blockNumber": "0x7506da",
          "transactionHash": "0x4f5cac52595f7f4bad1ce43b221adb55b001ea50109b8e61333b1c651ff285f1",
          "transactionIndex": "0xe",
          "logIndex": "0x1a",
          "removed": false
        },
        {
          "address": "0x2e8af9c5922623058aa92a183b391e62cb6b2d12",
          "topics": [
            "0xf8e1a15aba9398e019f0b49df1a4fde98ee17ae345cb5f6b5e2c27f5033e8ce7"
          ],
          "data": "0x00000000000000000000000000000000000000000000000000000000000000d6",
          "blockHash": "0x36e71c14e42a611e44672a7897fb2e93945d7551bcad6ac92322d80eed8185fb",
          "blockNumber": "0x7506da",
          "transactionHash": "0x4f5cac52595f7f4bad1ce43b221adb55b001ea50109b8e61333b1c651ff285f1",
          "transactionIndex": "0xe",
          "logIndex": "0x1b",
          "removed": false
        }
      ],
      "logsBloom": "0x00000000000000000000000000000000000000820000000000000000000000000000000000008000000000000000000000000000000000000000000000000000000000000000000000000008040000000000000000000000000000000000000000000000020000000000000000000800002000000000800000000010000000000000000000000000000000000000000000000000000000000000000000000000000000000000000000000000000000002000000000004000000000000000008000000002000000000000000000000000000000000000000000000000000020000000000000000000200000000000000000000000100000008000000000000000",
      "type": "0x2",
      "transactionHash": "0x4f5cac52595f7f4bad1ce43b221adb55b001ea50109b8e61333b1c651ff285f1",
      "transactionIndex": "0xe",
      "blockHash": "0x36e71c14e42a611e44672a7897fb2e93945d7551bcad6ac92322d80eed8185fb",
      "blockNumber": "0x7506da",
      "gasUsed": "0x2ccb8",
      "effectiveGasPrice": "0xfd",
      "from": "0xcda2fdb452ff4f5d7ba1c3d5dfcc9cb926a5eb7d",
      "to": "0x79dfbed14077b8f2421eece5707a17b161094e6a",
      "contractAddress": null,
      "l1BaseFeeScalar": "0x186a0",
      "l1BlobBaseFee": "0x1",
      "l1BlobBaseFeeScalar": "0x95506",
      "l1Fee": "0x9fbaa33d9d",
      "l1GasPrice": "0xff91052f",
      "l1GasUsed": "0x640"
    },
    {
      "status": "0x1",
      "cumulativeGasUsed": "0x2aaa13",
      "logs": [
        {
          "address": "0x2e8af9c5922623058aa92a183b391e62cb6b2d12",
          "topics": [
            "0xddf252ad1be2c89b69c2b068fc378daa952ba7f163c4a11628f55a4df523b3ef",
            "0x0000000000000000000000000000000000000000000000000000000000000000",
            "0x000000000000000000000000cda2fdb452ff4f5d7ba1c3d5dfcc9cb926a5eb7d",
            "0x00000000000000000000000000000000000000000000000000000000000000d7"
          ],
          "data": "0x",
          "blockHash": "0x36e71c14e42a611e44672a7897fb2e93945d7551bcad6ac92322d80eed8185fb",
          "blockNumber": "0x7506da",
          "transactionHash": "0xdf93854149556b41ae0dea4f1ebb76354091903f4b939a171e0552bed78cd0a0",
          "transactionIndex": "0xf",
          "logIndex": "0x1c",
          "removed": false
        },
        {
          "address": "0x2e8af9c5922623058aa92a183b391e62cb6b2d12",
          "topics": [
            "0xf8e1a15aba9398e019f0b49df1a4fde98ee17ae345cb5f6b5e2c27f5033e8ce7"
          ],
          "data": "0x00000000000000000000000000000000000000000000000000000000000000d7",
          "blockHash": "0x36e71c14e42a611e44672a7897fb2e93945d7551bcad6ac92322d80eed8185fb",
          "blockNumber": "0x7506da",
          "transactionHash": "0xdf93854149556b41ae0dea4f1ebb76354091903f4b939a171e0552bed78cd0a0",
          "transactionIndex": "0xf",
          "logIndex": "0x1d",
          "removed": false
        }
      ],
      "logsBloom": "0x00000000000000000000000000000000000000020000000000000000000000000000000000000000000000000000000000000000000000000000000000000000000000000000000000000008040000000000000000000000000000000000000000000000020000000000000000000800002000000000800000000010000000000000000000000000000000000000000000000000000000000000000000000000000000000000000000000000001000002000200000004000000000000000008200000002000000000000000000000000000000000000000000000000000020000000000000000000200000000000000000000000100000000000000000000000",
      "type": "0x2",
      "transactionHash": "0xdf93854149556b41ae0dea4f1ebb76354091903f4b939a171e0552bed78cd0a0",
      "transactionIndex": "0xf",
      "blockHash": "0x36e71c14e42a611e44672a7897fb2e93945d7551bcad6ac92322d80eed8185fb",
      "blockNumber": "0x7506da",
      "gasUsed": "0x2ccb8",
      "effectiveGasPrice": "0xfd",
      "from": "0xcda2fdb452ff4f5d7ba1c3d5dfcc9cb926a5eb7d",
      "to": "0x79dfbed14077b8f2421eece5707a17b161094e6a",
      "contractAddress": null,
      "l1BaseFeeScalar": "0x186a0",
      "l1BlobBaseFee": "0x1",
      "l1BlobBaseFeeScalar": "0x95506",
      "l1Fee": "0x9fbaa33d9d",
      "l1GasPrice": "0xff91052f",
      "l1GasUsed": "0x640"
    },
    {
      "status": "0x1",
      "cumulativeGasUsed": "0x2d76cb",
      "logs": [
        {
          "address": "0x2e8af9c5922623058aa92a183b391e62cb6b2d12",
          "topics": [
            "0xddf252ad1be2c89b69c2b068fc378daa952ba7f163c4a11628f55a4df523b3ef",
            "0x0000000000000000000000000000000000000000000000000000000000000000",
            "0x000000000000000000000000cda2fdb452ff4f5d7ba1c3d5dfcc9cb926a5eb7d",
            "0x00000000000000000000000000000000000000000000000000000000000000d8"
          ],
          "data": "0x",
          "blockHash": "0x36e71c14e42a611e44672a7897fb2e93945d7551bcad6ac92322d80eed8185fb",
          "blockNumber": "0x7506da",
          "transactionHash": "0x433ac94123370087986391769d7b8247b495c0d0295d855ee6a7b19fa4cfba9b",
          "transactionIndex": "0x10",
          "logIndex": "0x1e",
          "removed": false
        },
        {
          "address": "0x2e8af9c5922623058aa92a183b391e62cb6b2d12",
          "topics": [
            "0xf8e1a15aba9398e019f0b49df1a4fde98ee17ae345cb5f6b5e2c27f5033e8ce7"
          ],
          "data": "0x00000000000000000000000000000000000000000000000000000000000000d8",
          "blockHash": "0x36e71c14e42a611e44672a7897fb2e93945d7551bcad6ac92322d80eed8185fb",
          "blockNumber": "0x7506da",
          "transactionHash": "0x433ac94123370087986391769d7b8247b495c0d0295d855ee6a7b19fa4cfba9b",
          "transactionIndex": "0x10",
          "logIndex": "0x1f",
          "removed": false
        }
      ],
      "logsBloom": "0x00000000000000000000000000000000000000020000000000000000000000000000000000000000000000000000000000000000000000000000000002000000000000000000000000000008060000000000000000000000000000000000000000000000020000000000000000000800002000000000800000000010000000000000000000000000000000000000000000000000000000000000000100000000000000000000000000000000000000002000000000004000000000000000008000000002000000000000000000000000000000000000000000000000000020000000000000000000200000000000000000000000100000000000000000000000",
      "type": "0x2",
      "transactionHash": "0x433ac94123370087986391769d7b8247b495c0d0295d855ee6a7b19fa4cfba9b",
      "transactionIndex": "0x10",
      "blockHash": "0x36e71c14e42a611e44672a7897fb2e93945d7551bcad6ac92322d80eed8185fb",
      "blockNumber": "0x7506da",
      "gasUsed": "0x2ccb8",
      "effectiveGasPrice": "0xfd",
      "from": "0xcda2fdb452ff4f5d7ba1c3d5dfcc9cb926a5eb7d",
      "to": "0x79dfbed14077b8f2421eece5707a17b161094e6a",
      "contractAddress": null,
      "l1BaseFeeScalar": "0x186a0",
      "l1BlobBaseFee": "0x1",
      "l1BlobBaseFeeScalar": "0x95506",
      "l1Fee": "0x9fbaa33d9d",
      "l1GasPrice": "0xff91052f",
      "l1GasUsed": "0x640"
    },
    {
      "status": "0x1",
      "cumulativeGasUsed": "0x304383",
      "logs": [
        {
          "address": "0x2e8af9c5922623058aa92a183b391e62cb6b2d12",
          "topics": [
            "0xddf252ad1be2c89b69c2b068fc378daa952ba7f163c4a11628f55a4df523b3ef",
            "0x0000000000000000000000000000000000000000000000000000000000000000",
            "0x000000000000000000000000cda2fdb452ff4f5d7ba1c3d5dfcc9cb926a5eb7d",
            "0x00000000000000000000000000000000000000000000000000000000000000d9"
          ],
          "data": "0x",
          "blockHash": "0x36e71c14e42a611e44672a7897fb2e93945d7551bcad6ac92322d80eed8185fb",
          "blockNumber": "0x7506da",
          "transactionHash": "0x51d009ac0f09406708f8d3676a8fa7c7e40df722e55fbb8c0ecc4390f8fc4323",
          "transactionIndex": "0x11",
          "logIndex": "0x20",
          "removed": false
        },
        {
          "address": "0x2e8af9c5922623058aa92a183b391e62cb6b2d12",
          "topics": [
            "0xf8e1a15aba9398e019f0b49df1a4fde98ee17ae345cb5f6b5e2c27f5033e8ce7"
          ],
          "data": "0x00000000000000000000000000000000000000000000000000000000000000d9",
          "blockHash": "0x36e71c14e42a611e44672a7897fb2e93945d7551bcad6ac92322d80eed8185fb",
          "blockNumber": "0x7506da",
          "transactionHash": "0x51d009ac0f09406708f8d3676a8fa7c7e40df722e55fbb8c0ecc4390f8fc4323",
          "transactionIndex": "0x11",
          "logIndex": "0x21",
          "removed": false
        }
      ],
      "logsBloom": "0x00000000000000000000000000000000000000020000000000000000000000000000000020000000000000000000000000000000000000000000000000000000000000000000000000000008040000000000000000000000000000000000000000000000020000000000000000000800002000800000800000000010000000000000000000000000000000000000000000000000000000000000000000000000200000000000000000000000000000002000000000004000000000000000008000000002000000000000000000000000000000000000000000000000000020000000000000000000200000000000000000000000100000000000000000000000",
      "type": "0x2",
      "transactionHash": "0x51d009ac0f09406708f8d3676a8fa7c7e40df722e55fbb8c0ecc4390f8fc4323",
      "transactionIndex": "0x11",
      "blockHash": "0x36e71c14e42a611e44672a7897fb2e93945d7551bcad6ac92322d80eed8185fb",
      "blockNumber": "0x7506da",
      "gasUsed": "0x2ccb8",
      "effectiveGasPrice": "0xfd",
      "from": "0xcda2fdb452ff4f5d7ba1c3d5dfcc9cb926a5eb7d",
      "to": "0x79dfbed14077b8f2421eece5707a17b161094e6a",
      "contractAddress": null,
      "l1BaseFeeScalar": "0x186a0",
      "l1BlobBaseFee": "0x1",
      "l1BlobBaseFeeScalar": "0x95506",
      "l1Fee": "0x9fbaa33d9d",
      "l1GasPrice": "0xff91052f",
      "l1GasUsed": "0x640"
    },
    {
      "status": "0x1",
      "cumulativeGasUsed": "0x33103b",
      "logs": [
        {
          "address": "0x2e8af9c5922623058aa92a183b391e62cb6b2d12",
          "topics": [
            "0xddf252ad1be2c89b69c2b068fc378daa952ba7f163c4a11628f55a4df523b3ef",
            "0x0000000000000000000000000000000000000000000000000000000000000000",
            "0x000000000000000000000000cda2fdb452ff4f5d7ba1c3d5dfcc9cb926a5eb7d",
            "0x00000000000000000000000000000000000000000000000000000000000000da"
          ],
          "data": "0x",
          "blockHash": "0x36e71c14e42a611e44672a7897fb2e93945d7551bcad6ac92322d80eed8185fb",
          "blockNumber": "0x7506da",
          "transactionHash": "0xb166084c9068345a4880b3a1f6b4a23c16fe413f9824c2e9e0cc0b4c2b933bfd",
          "transactionIndex": "0x12",
          "logIndex": "0x22",
          "removed": false
        },
        {
          "address": "0x2e8af9c5922623058aa92a183b391e62cb6b2d12",
          "topics": [
            "0xf8e1a15aba9398e019f0b49df1a4fde98ee17ae345cb5f6b5e2c27f5033e8ce7"
          ],
          "data": "0x00000000000000000000000000000000000000000000000000000000000000da",
          "blockHash": "0x36e71c14e42a611e44672a7897fb2e93945d7551bcad6ac92322d80eed8185fb",
          "blockNumber": "0x7506da",
          "transactionHash": "0xb166084c9068345a4880b3a1f6b4a23c16fe413f9824c2e9e0cc0b4c2b933bfd",
          "transactionIndex": "0x12",
          "logIndex": "0x23",
          "removed": false
        }
      ],
      "logsBloom": "0x00000000000000080000000000000000000000020000000000000000000000000000000000000000000000000000000000000000000000000000000000000000000000000000000000000008040000000000000000000000000000000000000000000000020000000000000000000800002000000000800000000010000000000000000000400000000000000000000000000000000000000000000000000000000000000000000000000000000000002000000000004000000000000000008000000002000000000000000000000000000000000000000000000000000020000000000000000000200000000000000000000008100000000000000000000000",
      "type": "0x2",
      "transactionHash": "0xb166084c9068345a4880b3a1f6b4a23c16fe413f9824c2e9e0cc0b4c2b933bfd",
      "transactionIndex": "0x12",
      "blockHash": "0x36e71c14e42a611e44672a7897fb2e93945d7551bcad6ac92322d80eed8185fb",
      "blockNumber": "0x7506da",
      "gasUsed": "0x2ccb8",
      "effectiveGasPrice": "0xfd",
      "from": "0xcda2fdb452ff4f5d7ba1c3d5dfcc9cb926a5eb7d",
      "to": "0x79dfbed14077b8f2421eece5707a17b161094e6a",
      "contractAddress": null,
      "l1BaseFeeScalar": "0x186a0",
      "l1BlobBaseFee": "0x1",
      "l1BlobBaseFeeScalar": "0x95506",
      "l1Fee": "0x9fbaa33d9d",
      "l1GasPrice": "0xff91052f",
      "l1GasUsed": "0x640"
    },
    {
      "status": "0x1",
      "cumulativeGasUsed": "0x35dcf3",
      "logs": [
        {
          "address": "0x2e8af9c5922623058aa92a183b391e62cb6b2d12",
          "topics": [
            "0xddf252ad1be2c89b69c2b068fc378daa952ba7f163c4a11628f55a4df523b3ef",
            "0x0000000000000000000000000000000000000000000000000000000000000000",
            "0x000000000000000000000000cda2fdb452ff4f5d7ba1c3d5dfcc9cb926a5eb7d",
            "0x00000000000000000000000000000000000000000000000000000000000000db"
          ],
          "data": "0x",
          "blockHash": "0x36e71c14e42a611e44672a7897fb2e93945d7551bcad6ac92322d80eed8185fb",
          "blockNumber": "0x7506da",
          "transactionHash": "0xe29cc91ef670267ab78607837330b0bb2304437e293928cfb4563afe0607c3d0",
          "transactionIndex": "0x13",
          "logIndex": "0x24",
          "removed": false
        },
        {
          "address": "0x2e8af9c5922623058aa92a183b391e62cb6b2d12",
          "topics": [
            "0xf8e1a15aba9398e019f0b49df1a4fde98ee17ae345cb5f6b5e2c27f5033e8ce7"
          ],
          "data": "0x00000000000000000000000000000000000000000000000000000000000000db",
          "blockHash": "0x36e71c14e42a611e44672a7897fb2e93945d7551bcad6ac92322d80eed8185fb",
          "blockNumber": "0x7506da",
          "transactionHash": "0xe29cc91ef670267ab78607837330b0bb2304437e293928cfb4563afe0607c3d0",
          "transactionIndex": "0x13",
          "logIndex": "0x25",
          "removed": false
        }
      ],
      "logsBloom": "0x00000000000000000000000000000000000000020000000000000000000000000000000000000000000000000000000000000000000000000000000000000000000000000000000000000008040000000000000000000000000000000000000000000000020000000000000000000800002200000000800000000010000020000000000000000000000000000000000000000000000000000000000000000000000000000100000000000000000000002000000000004000000000000000008000000002000000000000000000000000000000000000000000000000000020000000000000000000200000000000000000000000100000000000000000000000",
      "type": "0x2",
      "transactionHash": "0xe29cc91ef670267ab78607837330b0bb2304437e293928cfb4563afe0607c3d0",
      "transactionIndex": "0x13",
      "blockHash": "0x36e71c14e42a611e44672a7897fb2e93945d7551bcad6ac92322d80eed8185fb",
      "blockNumber": "0x7506da",
      "gasUsed": "0x2ccb8",
      "effectiveGasPrice": "0xfd",
      "from": "0xcda2fdb452ff4f5d7ba1c3d5dfcc9cb926a5eb7d",
      "to": "0x79dfbed14077b8f2421eece5707a17b161094e6a",
      "contractAddress": null,
      "l1BaseFeeScalar": "0x186a0",
      "l1BlobBaseFee": "0x1",
      "l1BlobBaseFeeScalar": "0x95506",
      "l1Fee": "0x9fbaa33d9d",
      "l1GasPrice": "0xff91052f",
      "l1GasUsed": "0x640"
    },
    {
      "status": "0x1",
      "cumulativeGasUsed": "0x38a9ab",
      "logs": [
        {
          "address": "0x2e8af9c5922623058aa92a183b391e62cb6b2d12",
          "topics": [
            "0xddf252ad1be2c89b69c2b068fc378daa952ba7f163c4a11628f55a4df523b3ef",
            "0x0000000000000000000000000000000000000000000000000000000000000000",
            "0x000000000000000000000000cda2fdb452ff4f5d7ba1c3d5dfcc9cb926a5eb7d",
            "0x00000000000000000000000000000000000000000000000000000000000000dc"
          ],
          "data": "0x",
          "blockHash": "0x36e71c14e42a611e44672a7897fb2e93945d7551bcad6ac92322d80eed8185fb",
          "blockNumber": "0x7506da",
          "transactionHash": "0xd94f33d0118f6c4dbe94d03d87b9196302da3a0d17c0cd3f525d80dd2efb5fd4",
          "transactionIndex": "0x14",
          "logIndex": "0x26",
          "removed": false
        },
        {
          "address": "0x2e8af9c5922623058aa92a183b391e62cb6b2d12",
          "topics": [
            "0xf8e1a15aba9398e019f0b49df1a4fde98ee17ae345cb5f6b5e2c27f5033e8ce7"
          ],
          "data": "0x00000000000000000000000000000000000000000000000000000000000000dc",
          "blockHash": "0x36e71c14e42a611e44672a7897fb2e93945d7551bcad6ac92322d80eed8185fb",
          "blockNumber": "0x7506da",
          "transactionHash": "0xd94f33d0118f6c4dbe94d03d87b9196302da3a0d17c0cd3f525d80dd2efb5fd4",
          "transactionIndex": "0x14",
          "logIndex": "0x27",
          "removed": false
        }
      ],
      "logsBloom": "0x00000000000000000000000000000000000000020000000000000000000000000000000000000000000000000000000000000000000000000000000000000000000000000000000000000008040000000000000000000004000000000000000000000000020000000000000000000800002000000000800000000010000000000000000000000000000000000000000000000000000000000000000000000000000000000000000000000000000000002000000000004000000000000000008000000002000000000000000000000000000000040000000000000000000020000000000000000000200000000100000000000000100000000000000000000000",
      "type": "0x2",
      "transactionHash": "0xd94f33d0118f6c4dbe94d03d87b9196302da3a0d17c0cd3f525d80dd2efb5fd4",
      "transactionIndex": "0x14",
      "blockHash": "0x36e71c14e42a611e44672a7897fb2e93945d7551bcad6ac92322d80eed8185fb",
      "blockNumber": "0x7506da",
      "gasUsed": "0x2ccb8",
      "effectiveGasPrice": "0xfd",
      "from": "0xcda2fdb452ff4f5d7ba1c3d5dfcc9cb926a5eb7d",
      "to": "0x79dfbed14077b8f2421eece5707a17b161094e6a",
      "contractAddress": null,
      "l1BaseFeeScalar": "0x186a0",
      "l1BlobBaseFee": "0x1",
      "l1BlobBaseFeeScalar": "0x95506",
      "l1Fee": "0x9fbaa33d9d",
      "l1GasPrice": "0xff91052f",
      "l1GasUsed": "0x640"
    },
    {
      "status": "0x1",
      "cumulativeGasUsed": "0x3b7663",
      "logs": [
        {
          "address": "0x2e8af9c5922623058aa92a183b391e62cb6b2d12",
          "topics": [
            "0xddf252ad1be2c89b69c2b068fc378daa952ba7f163c4a11628f55a4df523b3ef",
            "0x0000000000000000000000000000000000000000000000000000000000000000",
            "0x000000000000000000000000cda2fdb452ff4f5d7ba1c3d5dfcc9cb926a5eb7d",
            "0x00000000000000000000000000000000000000000000000000000000000000dd"
          ],
          "data": "0x",
          "blockHash": "0x36e71c14e42a611e44672a7897fb2e93945d7551bcad6ac92322d80eed8185fb",
          "blockNumber": "0x7506da",
          "transactionHash": "0x81a418584c71f8eb2ac33eb0bafa68dffaeaf1d3594f641d3e4b5529538126d2",
          "transactionIndex": "0x15",
          "logIndex": "0x28",
          "removed": false
        },
        {
          "address": "0x2e8af9c5922623058aa92a183b391e62cb6b2d12",
          "topics": [
            "0xf8e1a15aba9398e019f0b49df1a4fde98ee17ae345cb5f6b5e2c27f5033e8ce7"
          ],
          "data": "0x00000000000000000000000000000000000000000000000000000000000000dd",
          "blockHash": "0x36e71c14e42a611e44672a7897fb2e93945d7551bcad6ac92322d80eed8185fb",
          "blockNumber": "0x7506da",
          "transactionHash": "0x81a418584c71f8eb2ac33eb0bafa68dffaeaf1d3594f641d3e4b5529538126d2",
          "transactionIndex": "0x15",
          "logIndex": "0x29",
          "removed": false
        }
      ],
      "logsBloom": "0x00000000000000000000000000000000000000020000000000000000000000000000000000000000000000000000000000000000000000000000000000000000000000000000000000000008040000000000000000000000000000000000000000000000020000000000000000000800002000000001800000000010000000000100000000000000000000008000000000000000000000000000000000000000000000000000000000000000000000002000000000004000000000000000008000000002000000000000000000000000000000000000000000000000000020000000000000000000200000000000000000000000100000000000000000000000",
      "type": "0x2",
      "transactionHash": "0x81a418584c71f8eb2ac33eb0bafa68dffaeaf1d3594f641d3e4b5529538126d2",
      "transactionIndex": "0x15",
      "blockHash": "0x36e71c14e42a611e44672a7897fb2e93945d7551bcad6ac92322d80eed8185fb",
      "blockNumber": "0x7506da",
      "gasUsed": "0x2ccb8",
      "effectiveGasPrice": "0xfd",
      "from": "0xcda2fdb452ff4f5d7ba1c3d5dfcc9cb926a5eb7d",
      "to": "0x79dfbed14077b8f2421eece5707a17b161094e6a",
      "contractAddress": null,
      "l1BaseFeeScalar": "0x186a0",
      "l1BlobBaseFee": "0x1",
      "l1BlobBaseFeeScalar": "0x95506",
      "l1Fee": "0x9fbaa33d9d",
      "l1GasPrice": "0xff91052f",
      "l1GasUsed": "0x640"
    },
    {
      "status": "0x1",
      "cumulativeGasUsed": "0x3e431b",
      "logs": [
        {
          "address": "0x2e8af9c5922623058aa92a183b391e62cb6b2d12",
          "topics": [
            "0xddf252ad1be2c89b69c2b068fc378daa952ba7f163c4a11628f55a4df523b3ef",
            "0x0000000000000000000000000000000000000000000000000000000000000000",
            "0x000000000000000000000000cda2fdb452ff4f5d7ba1c3d5dfcc9cb926a5eb7d",
            "0x00000000000000000000000000000000000000000000000000000000000000de"
          ],
          "data": "0x",
          "blockHash": "0x36e71c14e42a611e44672a7897fb2e93945d7551bcad6ac92322d80eed8185fb",
          "blockNumber": "0x7506da",
          "transactionHash": "0x67a4b1ff93153d7fdae401959c4498bc0838e2161d4e780f205beaa846276280",
          "transactionIndex": "0x16",
          "logIndex": "0x2a",
          "removed": false
        },
        {
          "address": "0x2e8af9c5922623058aa92a183b391e62cb6b2d12",
          "topics": [
            "0xf8e1a15aba9398e019f0b49df1a4fde98ee17ae345cb5f6b5e2c27f5033e8ce7"
          ],
          "data": "0x00000000000000000000000000000000000000000000000000000000000000de",
          "blockHash": "0x36e71c14e42a611e44672a7897fb2e93945d7551bcad6ac92322d80eed8185fb",
          "blockNumber": "0x7506da",
          "transactionHash": "0x67a4b1ff93153d7fdae401959c4498bc0838e2161d4e780f205beaa846276280",
          "transactionIndex": "0x16",
          "logIndex": "0x2b",
          "removed": false
        }
      ],
      "logsBloom": "0x00000000000000000000000000000000000000020000000000000000000000000000000000000000000000000000000000000000000000000000000002000000000000000000000000000008040000000000000000000000000000000000000000000000020000000000000000000800002000000000800000000010000000000000000000000000000000000000000000000000000000000000000000001000000001000000000000000000000000002000000000004000000000000000008000000002000000000000000000000000000000000000000000000000000020000000000000000000200000000000000000000000100000000000000000000000",
      "type": "0x2",
      "transactionHash": "0x67a4b1ff93153d7fdae401959c4498bc0838e2161d4e780f205beaa846276280",
      "transactionIndex": "0x16",
      "blockHash": "0x36e71c14e42a611e44672a7897fb2e93945d7551bcad6ac92322d80eed8185fb",
      "blockNumber": "0x7506da",
      "gasUsed": "0x2ccb8",
      "effectiveGasPrice": "0xfd",
      "from": "0xcda2fdb452ff4f5d7ba1c3d5dfcc9cb926a5eb7d",
      "to": "0x79dfbed14077b8f2421eece5707a17b161094e6a",
      "contractAddress": null,
      "l1BaseFeeScalar": "0x186a0",
      "l1BlobBaseFee": "0x1",
      "l1BlobBaseFeeScalar": "0x95506",
      "l1Fee": "0x9fbaa33d9d",
      "l1GasPrice": "0xff91052f",
      "l1GasUsed": "0x640"
    },
    {
      "status": "0x1",
      "cumulativeGasUsed": "0x410fd3",
      "logs": [
        {
          "address": "0x2e8af9c5922623058aa92a183b391e62cb6b2d12",
          "topics": [
            "0xddf252ad1be2c89b69c2b068fc378daa952ba7f163c4a11628f55a4df523b3ef",
            "0x0000000000000000000000000000000000000000000000000000000000000000",
            "0x000000000000000000000000cda2fdb452ff4f5d7ba1c3d5dfcc9cb926a5eb7d",
            "0x00000000000000000000000000000000000000000000000000000000000000df"
          ],
          "data": "0x",
          "blockHash": "0x36e71c14e42a611e44672a7897fb2e93945d7551bcad6ac92322d80eed8185fb",
          "blockNumber": "0x7506da",
          "transactionHash": "0x68deaa120aa68a1d26e5066cb6f5e8b5c0b703332341f0d731070519acb6922f",
          "transactionIndex": "0x17",
          "logIndex": "0x2c",
          "removed": false
        },
        {
          "address": "0x2e8af9c5922623058aa92a183b391e62cb6b2d12",
          "topics": [
            "0xf8e1a15aba9398e019f0b49df1a4fde98ee17ae345cb5f6b5e2c27f5033e8ce7"
          ],
          "data": "0x00000000000000000000000000000000000000000000000000000000000000df",
          "blockHash": "0x36e71c14e42a611e44672a7897fb2e93945d7551bcad6ac92322d80eed8185fb",
          "blockNumber": "0x7506da",
          "transactionHash": "0x68deaa120aa68a1d26e5066cb6f5e8b5c0b703332341f0d731070519acb6922f",
          "transactionIndex": "0x17",
          "logIndex": "0x2d",
          "removed": false
        }
      ],
      "logsBloom": "0x00000000000000000000000000000000000000020000000000000000000000000000000000000000000000000000000000000000000000000000000000000000000000080000000000000008040000000000000000000000000000000000000000000000020000000000000000008800002000000000800000000010000000000000000000000000000000000000000000000000000000000000000000000000000000000000000000000000000000002000000000004000000000000000008000000002000000000000000000000000000000000000000000000000000020000000000000000000200000000000000000000001100000000000000000000000",
      "type": "0x2",
      "transactionHash": "0x68deaa120aa68a1d26e5066cb6f5e8b5c0b703332341f0d731070519acb6922f",
      "transactionIndex": "0x17",
      "blockHash": "0x36e71c14e42a611e44672a7897fb2e93945d7551bcad6ac92322d80eed8185fb",
      "blockNumber": "0x7506da",
      "gasUsed": "0x2ccb8",
      "effectiveGasPrice": "0xfd",
      "from": "0xcda2fdb452ff4f5d7ba1c3d5dfcc9cb926a5eb7d",
      "to": "0x79dfbed14077b8f2421eece5707a17b161094e6a",
      "contractAddress": null,
      "l1BaseFeeScalar": "0x186a0",
      "l1BlobBaseFee": "0x1",
      "l1BlobBaseFeeScalar": "0x95506",
      "l1Fee": "0x9fbaa33d9d",
      "l1GasPrice": "0xff91052f",
      "l1GasUsed": "0x640"
    },
    {
      "status": "0x1",
      "cumulativeGasUsed": "0x43dc8b",
      "logs": [
        {
          "address": "0x2e8af9c5922623058aa92a183b391e62cb6b2d12",
          "topics": [
            "0xddf252ad1be2c89b69c2b068fc378daa952ba7f163c4a11628f55a4df523b3ef",
            "0x0000000000000000000000000000000000000000000000000000000000000000",
            "0x000000000000000000000000cda2fdb452ff4f5d7ba1c3d5dfcc9cb926a5eb7d",
            "0x00000000000000000000000000000000000000000000000000000000000000e0"
          ],
          "data": "0x",
          "blockHash": "0x36e71c14e42a611e44672a7897fb2e93945d7551bcad6ac92322d80eed8185fb",
          "blockNumber": "0x7506da",
          "transactionHash": "0xcc1407d9599366041c5a0fcb3e28996d1f31ba1f17c79a6cdc0ebc2163f5657d",
          "transactionIndex": "0x18",
          "logIndex": "0x2e",
          "removed": false
        },
        {
          "address": "0x2e8af9c5922623058aa92a183b391e62cb6b2d12",
          "topics": [
            "0xf8e1a15aba9398e019f0b49df1a4fde98ee17ae345cb5f6b5e2c27f5033e8ce7"
          ],
          "data": "0x00000000000000000000000000000000000000000000000000000000000000e0",
          "blockHash": "0x36e71c14e42a611e44672a7897fb2e93945d7551bcad6ac92322d80eed8185fb",
          "blockNumber": "0x7506da",
          "transactionHash": "0xcc1407d9599366041c5a0fcb3e28996d1f31ba1f17c79a6cdc0ebc2163f5657d",
          "transactionIndex": "0x18",
          "logIndex": "0x2f",
          "removed": false
        }
      ],
      "logsBloom": "0x00000000000000000000000000000000000000020000000000000000000000000000000000000000000000000000000000000000000000000000000000000000000000000000000000000008040000000000000000000000000000000000000000000000020000000000000000000800002000000000800000000010000000000000400000000000000000000000000000000000000000080000000000000000000000000000000000000000000000002000000400004000000000000000008000000002000000000000000000000000000000000000000000000000000020000000000000000000200000000000000000000000100000000000000000000000",
      "type": "0x2",
      "transactionHash": "0xcc1407d9599366041c5a0fcb3e28996d1f31ba1f17c79a6cdc0ebc2163f5657d",
      "transactionIndex": "0x18",
      "blockHash": "0x36e71c14e42a611e44672a7897fb2e93945d7551bcad6ac92322d80eed8185fb",
      "blockNumber": "0x7506da",
      "gasUsed": "0x2ccb8",
      "effectiveGasPrice": "0xfd",
      "from": "0xcda2fdb452ff4f5d7ba1c3d5dfcc9cb926a5eb7d",
      "to": "0x79dfbed14077b8f2421eece5707a17b161094e6a",
      "contractAddress": null,
      "l1BaseFeeScalar": "0x186a0",
      "l1BlobBaseFee": "0x1",
      "l1BlobBaseFeeScalar": "0x95506",
      "l1Fee": "0x9fbaa33d9d",
      "l1GasPrice": "0xff91052f",
      "l1GasUsed": "0x640"
    },
    {
      "status": "0x1",
      "cumulativeGasUsed": "0x46a943",
      "logs": [
        {
          "address": "0x2e8af9c5922623058aa92a183b391e62cb6b2d12",
          "topics": [
            "0xddf252ad1be2c89b69c2b068fc378daa952ba7f163c4a11628f55a4df523b3ef",
            "0x0000000000000000000000000000000000000000000000000000000000000000",
            "0x000000000000000000000000cda2fdb452ff4f5d7ba1c3d5dfcc9cb926a5eb7d",
            "0x00000000000000000000000000000000000000000000000000000000000000e1"
          ],
          "data": "0x",
          "blockHash": "0x36e71c14e42a611e44672a7897fb2e93945d7551bcad6ac92322d80eed8185fb",
          "blockNumber": "0x7506da",
          "transactionHash": "0x9a69da71e564f3cfb196be8b52356a77c6df647f2b7ce9b73a3477d5d6ee2b25",
          "transactionIndex": "0x19",
          "logIndex": "0x30",
          "removed": false
        },
        {
          "address": "0x2e8af9c5922623058aa92a183b391e62cb6b2d12",
          "topics": [
            "0xf8e1a15aba9398e019f0b49df1a4fde98ee17ae345cb5f6b5e2c27f5033e8ce7"
          ],
          "data": "0x00000000000000000000000000000000000000000000000000000000000000e1",
          "blockHash": "0x36e71c14e42a611e44672a7897fb2e93945d7551bcad6ac92322d80eed8185fb",
          "blockNumber": "0x7506da",
          "transactionHash": "0x9a69da71e564f3cfb196be8b52356a77c6df647f2b7ce9b73a3477d5d6ee2b25",
          "transactionIndex": "0x19",
          "logIndex": "0x31",
          "removed": false
        }
      ],
      "logsBloom": "0x00000000000000000000010000000000000000020000000000000000000000002000000000000000000000000000000000000000000000000000000000000000000000000000000000000008040000000000000000000000000000000000000080000000020000000000000000000800002000000000800000000010000000000000000000000000000000000000000000000000000000000000000000000000000000000000000000000000000000002000000000004000000000000000008000000002000000000000000000000000000000000000000000000000000020000000000000000000200000000000000000000000100000000000000000000000",
      "type": "0x2",
      "transactionHash": "0x9a69da71e564f3cfb196be8b52356a77c6df647f2b7ce9b73a3477d5d6ee2b25",
      "transactionIndex": "0x19",
      "blockHash": "0x36e71c14e42a611e44672a7897fb2e93945d7551bcad6ac92322d80eed8185fb",
      "blockNumber": "0x7506da",
      "gasUsed": "0x2ccb8",
      "effectiveGasPrice": "0xfd",
      "from": "0xcda2fdb452ff4f5d7ba1c3d5dfcc9cb926a5eb7d",
      "to": "0x79dfbed14077b8f2421eece5707a17b161094e6a",
      "contractAddress": null,
      "l1BaseFeeScalar": "0x186a0",
      "l1BlobBaseFee": "0x1",
      "l1BlobBaseFeeScalar": "0x95506",
      "l1Fee": "0x9fbaa33d9d",
      "l1GasPrice": "0xff91052f",
      "l1GasUsed": "0x640"
    },
    {
      "status": "0x1",
      "cumulativeGasUsed": "0x4975fb",
      "logs": [
        {
          "address": "0x2e8af9c5922623058aa92a183b391e62cb6b2d12",
          "topics": [
            "0xddf252ad1be2c89b69c2b068fc378daa952ba7f163c4a11628f55a4df523b3ef",
            "0x0000000000000000000000000000000000000000000000000000000000000000",
            "0x000000000000000000000000cda2fdb452ff4f5d7ba1c3d5dfcc9cb926a5eb7d",
            "0x00000000000000000000000000000000000000000000000000000000000000e2"
          ],
          "data": "0x",
          "blockHash": "0x36e71c14e42a611e44672a7897fb2e93945d7551bcad6ac92322d80eed8185fb",
          "blockNumber": "0x7506da",
          "transactionHash": "0xe87227eace68a6df566a32981345d9ee15d451f947cbdbe5f46816aeec926c6f",
          "transactionIndex": "0x1a",
          "logIndex": "0x32",
          "removed": false
        },
        {
          "address": "0x2e8af9c5922623058aa92a183b391e62cb6b2d12",
          "topics": [
            "0xf8e1a15aba9398e019f0b49df1a4fde98ee17ae345cb5f6b5e2c27f5033e8ce7"
          ],
          "data": "0x00000000000000000000000000000000000000000000000000000000000000e2",
          "blockHash": "0x36e71c14e42a611e44672a7897fb2e93945d7551bcad6ac92322d80eed8185fb",
          "blockNumber": "0x7506da",
          "transactionHash": "0xe87227eace68a6df566a32981345d9ee15d451f947cbdbe5f46816aeec926c6f",
          "transactionIndex": "0x1a",
          "logIndex": "0x33",
          "removed": false
        }
      ],
      "logsBloom": "0x00000000000000000000000000000000000000020000000000000000000000000000000000000000000000400000000000000000000000000000000000000000000000000000000000000008040000000200000000000000000000000000000000000000020000000000000000000800002000000000800000000010000000000000000000000000000000000000000000000000000000000000000000000000000000000000000000000000000000002000000000004000000000000000008000000002000000000000000000000000000000000000000000001000000020000000000000000000200000000000000000000000100000000000000000000000",
      "type": "0x2",
      "transactionHash": "0xe87227eace68a6df566a32981345d9ee15d451f947cbdbe5f46816aeec926c6f",
      "transactionIndex": "0x1a",
      "blockHash": "0x36e71c14e42a611e44672a7897fb2e93945d7551bcad6ac92322d80eed8185fb",
      "blockNumber": "0x7506da",
      "gasUsed": "0x2ccb8",
      "effectiveGasPrice": "0xfd",
      "from": "0xcda2fdb452ff4f5d7ba1c3d5dfcc9cb926a5eb7d",
      "to": "0x79dfbed14077b8f2421eece5707a17b161094e6a",
      "contractAddress": null,
      "l1BaseFeeScalar": "0x186a0",
      "l1BlobBaseFee": "0x1",
      "l1BlobBaseFeeScalar": "0x95506",
      "l1Fee": "0x9fbaa33d9d",
      "l1GasPrice": "0xff91052f",
      "l1GasUsed": "0x640"
    },
    {
      "status": "0x1",
      "cumulativeGasUsed": "0x4c42b3",
      "logs": [
        {
          "address": "0x2e8af9c5922623058aa92a183b391e62cb6b2d12",
          "topics": [
            "0xddf252ad1be2c89b69c2b068fc378daa952ba7f163c4a11628f55a4df523b3ef",
            "0x0000000000000000000000000000000000000000000000000000000000000000",
            "0x000000000000000000000000cda2fdb452ff4f5d7ba1c3d5dfcc9cb926a5eb7d",
            "0x00000000000000000000000000000000000000000000000000000000000000e3"
          ],
          "data": "0x",
          "blockHash": "0x36e71c14e42a611e44672a7897fb2e93945d7551bcad6ac92322d80eed8185fb",
          "blockNumber": "0x7506da",
          "transactionHash": "0xe1f763e16074f181680243cdadbf47a85dd1efe825c31257411d12d2cb456098",
          "transactionIndex": "0x1b",
          "logIndex": "0x34",
          "removed": false
        },
        {
          "address": "0x2e8af9c5922623058aa92a183b391e62cb6b2d12",
          "topics": [
            "0xf8e1a15aba9398e019f0b49df1a4fde98ee17ae345cb5f6b5e2c27f5033e8ce7"
          ],
          "data": "0x00000000000000000000000000000000000000000000000000000000000000e3",
          "blockHash": "0x36e71c14e42a611e44672a7897fb2e93945d7551bcad6ac92322d80eed8185fb",
          "blockNumber": "0x7506da",
          "transactionHash": "0xe1f763e16074f181680243cdadbf47a85dd1efe825c31257411d12d2cb456098",
          "transactionIndex": "0x1b",
          "logIndex": "0x35",
          "removed": false
        }
      ],
      "logsBloom": "0x02400000000000000000000000000000000000020000000000000000000000000000000000000000000000000000000000000000000000000000000000000000000000000000000000000008040000000000000000000000000000000000000000000000020000000000000000000800002000000000800000000010000000000000000000000000000000000010000000000000000000000000000000000000000000000000000000000000000000002000000000004000000000000000008000000002000000000000000000000000000000000000000000000000000020000000000000000000200000000000000000000000100000000000000000000000",
      "type": "0x2",
      "transactionHash": "0xe1f763e16074f181680243cdadbf47a85dd1efe825c31257411d12d2cb456098",
      "transactionIndex": "0x1b",
      "blockHash": "0x36e71c14e42a611e44672a7897fb2e93945d7551bcad6ac92322d80eed8185fb",
      "blockNumber": "0x7506da",
      "gasUsed": "0x2ccb8",
      "effectiveGasPrice": "0xfd",
      "from": "0xcda2fdb452ff4f5d7ba1c3d5dfcc9cb926a5eb7d",
      "to": "0x79dfbed14077b8f2421eece5707a17b161094e6a",
      "contractAddress": null,
      "l1BaseFeeScalar": "0x186a0",
      "l1BlobBaseFee": "0x1",
      "l1BlobBaseFeeScalar": "0x95506",
      "l1Fee": "0x9fbaa33d9d",
      "l1GasPrice": "0xff91052f",
      "l1GasUsed": "0x640"
    },
    {
      "status": "0x1",
      "cumulativeGasUsed": "0x4f0f6b",
      "logs": [
        {
          "address": "0x2e8af9c5922623058aa92a183b391e62cb6b2d12",
          "topics": [
            "0xddf252ad1be2c89b69c2b068fc378daa952ba7f163c4a11628f55a4df523b3ef",
            "0x0000000000000000000000000000000000000000000000000000000000000000",
            "0x000000000000000000000000cda2fdb452ff4f5d7ba1c3d5dfcc9cb926a5eb7d",
            "0x00000000000000000000000000000000000000000000000000000000000000e4"
          ],
          "data": "0x",
          "blockHash": "0x36e71c14e42a611e44672a7897fb2e93945d7551bcad6ac92322d80eed8185fb",
          "blockNumber": "0x7506da",
          "transactionHash": "0xa53f761c472ec5c1f2d16f9cd86de0c9d3710537ee94f24c3d91a82219a63cea",
          "transactionIndex": "0x1c",
          "logIndex": "0x36",
          "removed": false
        },
        {
          "address": "0x2e8af9c5922623058aa92a183b391e62cb6b2d12",
          "topics": [
            "0xf8e1a15aba9398e019f0b49df1a4fde98ee17ae345cb5f6b5e2c27f5033e8ce7"
          ],
          "data": "0x00000000000000000000000000000000000000000000000000000000000000e4",
          "blockHash": "0x36e71c14e42a611e44672a7897fb2e93945d7551bcad6ac92322d80eed8185fb",
          "blockNumber": "0x7506da",
          "transactionHash": "0xa53f761c472ec5c1f2d16f9cd86de0c9d3710537ee94f24c3d91a82219a63cea",
          "transactionIndex": "0x1c",
          "logIndex": "0x37",
          "removed": false
        }
      ],
      "logsBloom": "0x00000000000000000000000000000000000000020000000000000000000000000000000000000000000000000000000000000000000000000000000000000000000000000000000000000008040000000000000000000000000000000000000000000010020000000000000000000800002000000000800000000010000000000000000000000000000000000000000000000000000000000000000000000000000000000000000000000000000000002000000000004000000000000000008000000002000000000000000000000000000000000000000000040000000020000000000000000000280000000000000000000000100000000000000000000000",
      "type": "0x2",
      "transactionHash": "0xa53f761c472ec5c1f2d16f9cd86de0c9d3710537ee94f24c3d91a82219a63cea",
      "transactionIndex": "0x1c",
      "blockHash": "0x36e71c14e42a611e44672a7897fb2e93945d7551bcad6ac92322d80eed8185fb",
      "blockNumber": "0x7506da",
      "gasUsed": "0x2ccb8",
      "effectiveGasPrice": "0xfd",
      "from": "0xcda2fdb452ff4f5d7ba1c3d5dfcc9cb926a5eb7d",
      "to": "0x79dfbed14077b8f2421eece5707a17b161094e6a",
      "contractAddress": null,
      "l1BaseFeeScalar": "0x186a0",
      "l1BlobBaseFee": "0x1",
      "l1BlobBaseFeeScalar": "0x95506",
      "l1Fee": "0x9fbaa33d9d",
      "l1GasPrice": "0xff91052f",
      "l1GasUsed": "0x640"
    },
    {
      "status": "0x1",
      "cumulativeGasUsed": "0x51dc23",
      "logs": [
        {
          "address": "0x2e8af9c5922623058aa92a183b391e62cb6b2d12",
          "topics": [
            "0xddf252ad1be2c89b69c2b068fc378daa952ba7f163c4a11628f55a4df523b3ef",
            "0x0000000000000000000000000000000000000000000000000000000000000000",
            "0x000000000000000000000000cda2fdb452ff4f5d7ba1c3d5dfcc9cb926a5eb7d",
            "0x00000000000000000000000000000000000000000000000000000000000000e5"
          ],
          "data": "0x",
          "blockHash": "0x36e71c14e42a611e44672a7897fb2e93945d7551bcad6ac92322d80eed8185fb",
          "blockNumber": "0x7506da",
          "transactionHash": "0x621c54dfaa8fe5a1689d03213956993bad051d9fe5802e291812b2154920d465",
          "transactionIndex": "0x1d",
          "logIndex": "0x38",
          "removed": false
        },
        {
          "address": "0x2e8af9c5922623058aa92a183b391e62cb6b2d12",
          "topics": [
            "0xf8e1a15aba9398e019f0b49df1a4fde98ee17ae345cb5f6b5e2c27f5033e8ce7"
          ],
          "data": "0x00000000000000000000000000000000000000000000000000000000000000e5",
          "blockHash": "0x36e71c14e42a611e44672a7897fb2e93945d7551bcad6ac92322d80eed8185fb",
          "blockNumber": "0x7506da",
          "transactionHash": "0x621c54dfaa8fe5a1689d03213956993bad051d9fe5802e291812b2154920d465",
          "transactionIndex": "0x1d",
          "logIndex": "0x39",
          "removed": false
        }
      ],
      "logsBloom": "0x00000000000002000000000000000000000000020000000000000000000000000000000000000000000000000000000000000000000000000000002000000000000000000000000000000008040000000000000000000000000000000000000000000000020000000000000000000800002000000000800000000010000000000000000000000000000000000000000000000000000000000000000000000000000000000000000000000000000000002000000000004000000000000000008000000002000000000000000000000000000000000000000000000000000020000000000000000000210000000000000000000000100000000000000000000000",
      "type": "0x2",
      "transactionHash": "0x621c54dfaa8fe5a1689d03213956993bad051d9fe5802e291812b2154920d465",
      "transactionIndex": "0x1d",
      "blockHash": "0x36e71c14e42a611e44672a7897fb2e93945d7551bcad6ac92322d80eed8185fb",
      "blockNumber": "0x7506da",
      "gasUsed": "0x2ccb8",
      "effectiveGasPrice": "0xfd",
      "from": "0xcda2fdb452ff4f5d7ba1c3d5dfcc9cb926a5eb7d",
      "to": "0x79dfbed14077b8f2421eece5707a17b161094e6a",
      "contractAddress": null,
      "l1BaseFeeScalar": "0x186a0",
      "l1BlobBaseFee": "0x1",
      "l1BlobBaseFeeScalar": "0x95506",
      "l1Fee": "0x9fbaa33d9d",
      "l1GasPrice": "0xff91052f",
      "l1GasUsed": "0x640"
    }
  ],
  "libraries": [],
  "pending": [],
  "returns": {},
  "timestamp": 1728200925,
  "chain": 60808,
  "commit": "7d9679b"
}