{
  "transactions": [
    {
      "hash": "0x9937a19824d009d92e0b00d46c2ba35cc65403ad8f27baa7c72049dfe26fb505",
      "transactionType": "CALL",
      "contractName": null,
      "contractAddress": "0x6e921afbedf8cacc77e3ae4ab144b972550b6bd8",
      "function": "addManager(address,bool)",
      "arguments": [
        "0x37F3D89B76281Ca7FAc7A4e03a6E5281Bf706496",
        "true"
      ],
      "transaction": {
        "from": "0xcda2fdb452ff4f5d7ba1c3d5dfcc9cb926a5eb7d",
        "to": "0x6e921afbedf8cacc77e3ae4ab144b972550b6bd8",
        "gas": "0xfa9c",
        "value": "0x0",
        "input": "0xcec26e5100000000000000000000000037f3d89b76281ca7fac7a4e03a6e5281bf7064960000000000000000000000000000000000000000000000000000000000000001",
        "nonce": "0x1be8",
        "chainId": "0xed88"
      },
      "additionalContracts": [],
      "isFixedGasLimit": false
    },
    {
      "hash": "0x9f5ff2e6509416165faa0c7ff526722eeca8519fccd5d251524f071b4a987943",
      "transactionType": "CALL",
      "contractName": null,
      "contractAddress": "0x6e921afbedf8cacc77e3ae4ab144b972550b6bd8",
      "function": "setMaxTicketPerRound(uint256)",
      "arguments": [
        "10"
      ],
      "transaction": {
        "from": "0xcda2fdb452ff4f5d7ba1c3d5dfcc9cb926a5eb7d",
        "to": "0x6e921afbedf8cacc77e3ae4ab144b972550b6bd8",
        "gas": "0xa3dc",
        "value": "0x0",
        "input": "0x31f0b272000000000000000000000000000000000000000000000000000000000000000a",
        "nonce": "0x1be9",
        "chainId": "0xed88"
      },
      "additionalContracts": [],
      "isFixedGasLimit": false
    },
    {
      "hash": "0xa1571822785af25ce9a72da2961526ea04b463ade6e8efbac605834abbb6a4d4",
      "transactionType": "CALL",
      "contractName": null,
      "contractAddress": "0x6e921afbedf8cacc77e3ae4ab144b972550b6bd8",
      "function": "setHouseFee(uint256)",
      "arguments": [
        "0"
      ],
      "transaction": {
        "from": "0xcda2fdb452ff4f5d7ba1c3d5dfcc9cb926a5eb7d",
        "to": "0x6e921afbedf8cacc77e3ae4ab144b972550b6bd8",
        "gas": "0x88e4",
        "value": "0x0",
        "input": "0x5a09f2f40000000000000000000000000000000000000000000000000000000000000000",
        "nonce": "0x1bea",
        "chainId": "0xed88"
      },
      "additionalContracts": [],
      "isFixedGasLimit": false
    },
    {
      "hash": "0x7380074cfa115ef3f57a0f999ca83326c37f0b2a273f753973457512a92b3a92",
      "transactionType": "CALL",
      "contractName": null,
      "contractAddress": "0x6e921afbedf8cacc77e3ae4ab144b972550b6bd8",
      "function": "setRpConfig(uint256,uint256,bool)",
      "arguments": [
        "0",
        "0",
        "false"
      ],
      "transaction": {
        "from": "0xcda2fdb452ff4f5d7ba1c3d5dfcc9cb926a5eb7d",
        "to": "0x6e921afbedf8cacc77e3ae4ab144b972550b6bd8",
        "gas": "0xa8eb",
        "value": "0x0",
        "input": "0x89a02b41000000000000000000000000000000000000000000000000000000000000000000000000000000000000000000000000000000000000000000000000000000000000000000000000000000000000000000000000000000000000000000000000",
        "nonce": "0x1beb",
        "chainId": "0xed88"
      },
      "additionalContracts": [],
      "isFixedGasLimit": false
    },
    {
      "hash": "0x94d9e086f2a1c33aa190e21805edf3cf31b6cbd825ebbece838e49404ccac676",
      "transactionType": "CALL",
      "contractName": null,
      "contractAddress": "0x6e921afbedf8cacc77e3ae4ab144b972550b6bd8",
      "function": "setMaxWinners(uint256)",
      "arguments": [
        "5"
      ],
      "transaction": {
        "from": "0xcda2fdb452ff4f5d7ba1c3d5dfcc9cb926a5eb7d",
        "to": "0x6e921afbedf8cacc77e3ae4ab144b972550b6bd8",
        "gas": "0x9adc",
        "value": "0x0",
        "input": "0xd17b18c40000000000000000000000000000000000000000000000000000000000000005",
        "nonce": "0x1bec",
        "chainId": "0xed88"
      },
      "additionalContracts": [],
      "isFixedGasLimit": false
    },
    {
      "hash": "0x4ac3b36dc0399c48a975540fe674f5ed42306b59d7932eda23ab48e69493e61c",
      "transactionType": "CALL",
      "contractName": null,
      "contractAddress": "0x4a0e0dfc66c8995708c3499559374a0a2e260a1e",
      "function": "addManager(address,bool)",
      "arguments": [
        "0x37F3D89B76281Ca7FAc7A4e03a6E5281Bf706496",
        "true"
      ],
      "transaction": {
        "from": "0xcda2fdb452ff4f5d7ba1c3d5dfcc9cb926a5eb7d",
        "to": "0x4a0e0dfc66c8995708c3499559374a0a2e260a1e",
        "gas": "0xfa9c",
        "value": "0x0",
        "input": "0xcec26e5100000000000000000000000037f3d89b76281ca7fac7a4e03a6e5281bf7064960000000000000000000000000000000000000000000000000000000000000001",
        "nonce": "0x1bed",
        "chainId": "0xed88"
      },
      "additionalContracts": [],
      "isFixedGasLimit": false
    },
    {
      "hash": "0x64c604a6fd238b2131eb06c012be8a187064aef723ccb905abf299eab1562700",
      "transactionType": "CALL",
      "contractName": null,
      "contractAddress": "0x5393b1d1ba6058ceb42e012036161e30acd0825c",
      "function": "addManager(address,bool)",
      "arguments": [
        "0x37F3D89B76281Ca7FAc7A4e03a6E5281Bf706496",
        "true"
      ],
      "transaction": {
        "from": "0xcda2fdb452ff4f5d7ba1c3d5dfcc9cb926a5eb7d",
        "to": "0x5393b1d1ba6058ceb42e012036161e30acd0825c",
        "gas": "0xfa9c",
        "value": "0x0",
        "input": "0xcec26e5100000000000000000000000037f3d89b76281ca7fac7a4e03a6e5281bf7064960000000000000000000000000000000000000000000000000000000000000001",
        "nonce": "0x1bee",
        "chainId": "0xed88"
      },
      "additionalContracts": [],
      "isFixedGasLimit": false
    },
    {
      "hash": "0x2bf160ae6f6e3e95c677c9600d9ac6c36f0343896d959a42dd2b55b4fb99a7fb",
      "transactionType": "CALL",
      "contractName": null,
      "contractAddress": "0x228d6b4c1da545422b05b2d8cc21a608e4619c93",
      "function": "addManager(address,bool)",
      "arguments": [
        "0x37F3D89B76281Ca7FAc7A4e03a6E5281Bf706496",
        "true"
      ],
      "transaction": {
        "from": "0xcda2fdb452ff4f5d7ba1c3d5dfcc9cb926a5eb7d",
        "to": "0x228d6b4c1da545422b05b2d8cc21a608e4619c93",
        "gas": "0xfa9c",
        "value": "0x0",
        "input": "0xcec26e5100000000000000000000000037f3d89b76281ca7fac7a4e03a6e5281bf7064960000000000000000000000000000000000000000000000000000000000000001",
        "nonce": "0x1bef",
        "chainId": "0xed88"
      },
      "additionalContracts": [],
      "isFixedGasLimit": false
    },
    {
      "hash": "0x72631d1525c7e9e1f42915f2413e0a7ef38c7b69d7c0f5679598250cc9d6abb0",
      "transactionType": "CALL",
      "contractName": null,
      "contractAddress": "0xf617a31a61e3d02ccef4ec11202d377edb2b84d7",
      "function": "addManager(address,bool)",
      "arguments": [
        "0x37F3D89B76281Ca7FAc7A4e03a6E5281Bf706496",
        "true"
      ],
      "transaction": {
        "from": "0xcda2fdb452ff4f5d7ba1c3d5dfcc9cb926a5eb7d",
        "to": "0xf617a31a61e3d02ccef4ec11202d377edb2b84d7",
        "gas": "0xfa9c",
        "value": "0x0",
        "input": "0xcec26e5100000000000000000000000037f3d89b76281ca7fac7a4e03a6e5281bf7064960000000000000000000000000000000000000000000000000000000000000001",
        "nonce": "0x1bf0",
        "chainId": "0xed88"
      },
      "additionalContracts": [],
      "isFixedGasLimit": false
    }
  ],
  "receipts": [
    {
      "status": "0x1",
      "cumulativeGasUsed": "0x2bd2a",
      "logs": [],
      "logsBloom": "0x00000000000000000000000000000000000000000000000000000000000000000000000000000000000000000000000000000000000000000000000000000000000000000000000000000000000000000000000000000000000000000000000000000000000000000000000000000000000000000000000000000000000000000000000000000000000000000000000000000000000000000000000000000000000000000000000000000000000000000000000000000000000000000000000000000000000000000000000000000000000000000000000000000000000000000000000000000000000000000000000000000000000000000000000000000000",
      "type": "0x2",
      "transactionHash": "0x9937a19824d009d92e0b00d46c2ba35cc65403ad8f27baa7c72049dfe26fb505",
      "transactionIndex": "0x2",
      "blockHash": "0xc08e5b2bc2c83ea4b90f839dc664a8ddea959496791ae6116b8f3319945571dc",
      "blockNumber": "0x731cab",
      "gasUsed": "0xb570",
      "effectiveGasPrice": "0xfd",
      "from": "0xcda2fdb452ff4f5d7ba1c3d5dfcc9cb926a5eb7d",
      "to": "0x6e921afbedf8cacc77e3ae4ab144b972550b6bd8",
      "contractAddress": null,
      "l1BaseFeeScalar": "0x186a0",
      "l1BlobBaseFee": "0x1",
      "l1BlobBaseFeeScalar": "0x95506",
      "l1Fee": "0xa6b3beb57d",
      "l1GasPrice": "0x10ab93122",
      "l1GasUsed": "0x640"
    },
    {
      "status": "0x1",
      "cumulativeGasUsed": "0x32d35",
      "logs": [],
      "logsBloom": "0x00000000000000000000000000000000000000000000000000000000000000000000000000000000000000000000000000000000000000000000000000000000000000000000000000000000000000000000000000000000000000000000000000000000000000000000000000000000000000000000000000000000000000000000000000000000000000000000000000000000000000000000000000000000000000000000000000000000000000000000000000000000000000000000000000000000000000000000000000000000000000000000000000000000000000000000000000000000000000000000000000000000000000000000000000000000",
      "type": "0x2",
      "transactionHash": "0x9f5ff2e6509416165faa0c7ff526722eeca8519fccd5d251524f071b4a987943",
      "transactionIndex": "0x3",
      "blockHash": "0xc08e5b2bc2c83ea4b90f839dc664a8ddea959496791ae6116b8f3319945571dc",
      "blockNumber": "0x731cab",
      "gasUsed": "0x700b",
      "effectiveGasPrice": "0xfd",
      "from": "0xcda2fdb452ff4f5d7ba1c3d5dfcc9cb926a5eb7d",
      "to": "0x6e921afbedf8cacc77e3ae4ab144b972550b6bd8",
      "contractAddress": null,
      "l1BaseFeeScalar": "0x186a0",
      "l1BlobBaseFee": "0x1",
      "l1BlobBaseFeeScalar": "0x95506",
      "l1Fee": "0xa6b3beb57d",
      "l1GasPrice": "0x10ab93122",
      "l1GasUsed": "0x640"
    },
    {
      "status": "0x1",
      "cumulativeGasUsed": "0x38acf",
      "logs": [],
      "logsBloom": "0x00000000000000000000000000000000000000000000000000000000000000000000000000000000000000000000000000000000000000000000000000000000000000000000000000000000000000000000000000000000000000000000000000000000000000000000000000000000000000000000000000000000000000000000000000000000000000000000000000000000000000000000000000000000000000000000000000000000000000000000000000000000000000000000000000000000000000000000000000000000000000000000000000000000000000000000000000000000000000000000000000000000000000000000000000000000",
      "type": "0x2",
      "transactionHash": "0xa1571822785af25ce9a72da2961526ea04b463ade6e8efbac605834abbb6a4d4",
      "transactionIndex": "0x4",
      "blockHash": "0xc08e5b2bc2c83ea4b90f839dc664a8ddea959496791ae6116b8f3319945571dc",
      "blockNumber": "0x731cab",
      "gasUsed": "0x5d9a",
      "effectiveGasPrice": "0xfd",
      "from": "0xcda2fdb452ff4f5d7ba1c3d5dfcc9cb926a5eb7d",
      "to": "0x6e921afbedf8cacc77e3ae4ab144b972550b6bd8",
      "contractAddress": null,
      "l1BaseFeeScalar": "0x186a0",
      "l1BlobBaseFee": "0x1",
      "l1BlobBaseFeeScalar": "0x95506",
      "l1Fee": "0xa6b3beb57d",
      "l1GasPrice": "0x10ab93122",
      "l1GasUsed": "0x640"
    },
    {
      "status": "0x1",
      "cumulativeGasUsed": "0x4051b",
      "logs": [],
      "logsBloom": "0x00000000000000000000000000000000000000000000000000000000000000000000000000000000000000000000000000000000000000000000000000000000000000000000000000000000000000000000000000000000000000000000000000000000000000000000000000000000000000000000000000000000000000000000000000000000000000000000000000000000000000000000000000000000000000000000000000000000000000000000000000000000000000000000000000000000000000000000000000000000000000000000000000000000000000000000000000000000000000000000000000000000000000000000000000000000",
      "type": "0x2",
      "transactionHash": "0x7380074cfa115ef3f57a0f999ca83326c37f0b2a273f753973457512a92b3a92",
      "transactionIndex": "0x5",
      "blockHash": "0xc08e5b2bc2c83ea4b90f839dc664a8ddea959496791ae6116b8f3319945571dc",
      "blockNumber": "0x731cab",
      "gasUsed": "0x7a4c",
      "effectiveGasPrice": "0xfd",
      "from": "0xcda2fdb452ff4f5d7ba1c3d5dfcc9cb926a5eb7d",
      "to": "0x6e921afbedf8cacc77e3ae4ab144b972550b6bd8",
      "contractAddress": null,
      "l1BaseFeeScalar": "0x186a0",
      "l1BlobBaseFee": "0x1",
      "l1BlobBaseFeeScalar": "0x95506",
      "l1Fee": "0xa6b3beb57d",
      "l1GasPrice": "0x10ab93122",
      "l1GasUsed": "0x640"
    },
    {
      "status": "0x1",
      "cumulativeGasUsed": "0x4753a",
      "logs": [],
      "logsBloom": "0x00000000000000000000000000000000000000000000000000000000000000000000000000000000000000000000000000000000000000000000000000000000000000000000000000000000000000000000000000000000000000000000000000000000000000000000000000000000000000000000000000000000000000000000000000000000000000000000000000000000000000000000000000000000000000000000000000000000000000000000000000000000000000000000000000000000000000000000000000000000000000000000000000000000000000000000000000000000000000000000000000000000000000000000000000000000",
      "type": "0x2",
      "transactionHash": "0x94d9e086f2a1c33aa190e21805edf3cf31b6cbd825ebbece838e49404ccac676",
      "transactionIndex": "0x6",
      "blockHash": "0xc08e5b2bc2c83ea4b90f839dc664a8ddea959496791ae6116b8f3319945571dc",
      "blockNumber": "0x731cab",
      "gasUsed": "0x701f",
      "effectiveGasPrice": "0xfd",
      "from": "0xcda2fdb452ff4f5d7ba1c3d5dfcc9cb926a5eb7d",
      "to": "0x6e921afbedf8cacc77e3ae4ab144b972550b6bd8",
      "contractAddress": null,
      "l1BaseFeeScalar": "0x186a0",
      "l1BlobBaseFee": "0x1",
      "l1BlobBaseFeeScalar": "0x95506",
      "l1Fee": "0xa6b3beb57d",
      "l1GasPrice": "0x10ab93122",
      "l1GasUsed": "0x640"
    },
    {
      "status": "0x1",
      "cumulativeGasUsed": "0x52aaa",
      "logs": [],
      "logsBloom": "0x00000000000000000000000000000000000000000000000000000000000000000000000000000000000000000000000000000000000000000000000000000000000000000000000000000000000000000000000000000000000000000000000000000000000000000000000000000000000000000000000000000000000000000000000000000000000000000000000000000000000000000000000000000000000000000000000000000000000000000000000000000000000000000000000000000000000000000000000000000000000000000000000000000000000000000000000000000000000000000000000000000000000000000000000000000000",
      "type": "0x2",
      "transactionHash": "0x4ac3b36dc0399c48a975540fe674f5ed42306b59d7932eda23ab48e69493e61c",
      "transactionIndex": "0x7",
      "blockHash": "0xc08e5b2bc2c83ea4b90f839dc664a8ddea959496791ae6116b8f3319945571dc",
      "blockNumber": "0x731cab",
      "gasUsed": "0xb570",
      "effectiveGasPrice": "0xfd",
      "from": "0xcda2fdb452ff4f5d7ba1c3d5dfcc9cb926a5eb7d",
      "to": "0x4a0e0dfc66c8995708c3499559374a0a2e260a1e",
      "contractAddress": null,
      "l1BaseFeeScalar": "0x186a0",
      "l1BlobBaseFee": "0x1",
      "l1BlobBaseFeeScalar": "0x95506",
      "l1Fee": "0xa6b3beb57d",
      "l1GasPrice": "0x10ab93122",
      "l1GasUsed": "0x640"
    },
    {
      "status": "0x1",
      "cumulativeGasUsed": "0x5e01a",
      "logs": [],
      "logsBloom": "0x00000000000000000000000000000000000000000000000000000000000000000000000000000000000000000000000000000000000000000000000000000000000000000000000000000000000000000000000000000000000000000000000000000000000000000000000000000000000000000000000000000000000000000000000000000000000000000000000000000000000000000000000000000000000000000000000000000000000000000000000000000000000000000000000000000000000000000000000000000000000000000000000000000000000000000000000000000000000000000000000000000000000000000000000000000000",
      "type": "0x2",
      "transactionHash": "0x64c604a6fd238b2131eb06c012be8a187064aef723ccb905abf299eab1562700",
      "transactionIndex": "0x8",
      "blockHash": "0xc08e5b2bc2c83ea4b90f839dc664a8ddea959496791ae6116b8f3319945571dc",
      "blockNumber": "0x731cab",
      "gasUsed": "0xb570",
      "effectiveGasPrice": "0xfd",
      "from": "0xcda2fdb452ff4f5d7ba1c3d5dfcc9cb926a5eb7d",
      "to": "0x5393b1d1ba6058ceb42e012036161e30acd0825c",
      "contractAddress": null,
      "l1BaseFeeScalar": "0x186a0",
      "l1BlobBaseFee": "0x1",
      "l1BlobBaseFeeScalar": "0x95506",
      "l1Fee": "0xa6b3beb57d",
      "l1GasPrice": "0x10ab93122",
      "l1GasUsed": "0x640"
    },
    {
      "status": "0x1",
      "cumulativeGasUsed": "0x6958a",
      "logs": [],
      "logsBloom": "0x00000000000000000000000000000000000000000000000000000000000000000000000000000000000000000000000000000000000000000000000000000000000000000000000000000000000000000000000000000000000000000000000000000000000000000000000000000000000000000000000000000000000000000000000000000000000000000000000000000000000000000000000000000000000000000000000000000000000000000000000000000000000000000000000000000000000000000000000000000000000000000000000000000000000000000000000000000000000000000000000000000000000000000000000000000000",
      "type": "0x2",
      "transactionHash": "0x2bf160ae6f6e3e95c677c9600d9ac6c36f0343896d959a42dd2b55b4fb99a7fb",
      "transactionIndex": "0x9",
      "blockHash": "0xc08e5b2bc2c83ea4b90f839dc664a8ddea959496791ae6116b8f3319945571dc",
      "blockNumber": "0x731cab",
      "gasUsed": "0xb570",
      "effectiveGasPrice": "0xfd",
      "from": "0xcda2fdb452ff4f5d7ba1c3d5dfcc9cb926a5eb7d",
      "to": "0x228d6b4c1da545422b05b2d8cc21a608e4619c93",
      "contractAddress": null,
      "l1BaseFeeScalar": "0x186a0",
      "l1BlobBaseFee": "0x1",
      "l1BlobBaseFeeScalar": "0x95506",
      "l1Fee": "0xa6b3beb57d",
      "l1GasPrice": "0x10ab93122",
      "l1GasUsed": "0x640"
    },
    {
      "status": "0x1",
      "cumulativeGasUsed": "0x74afa",
      "logs": [],
      "logsBloom": "0x00000000000000000000000000000000000000000000000000000000000000000000000000000000000000000000000000000000000000000000000000000000000000000000000000000000000000000000000000000000000000000000000000000000000000000000000000000000000000000000000000000000000000000000000000000000000000000000000000000000000000000000000000000000000000000000000000000000000000000000000000000000000000000000000000000000000000000000000000000000000000000000000000000000000000000000000000000000000000000000000000000000000000000000000000000000",
      "type": "0x2",
      "transactionHash": "0x72631d1525c7e9e1f42915f2413e0a7ef38c7b69d7c0f5679598250cc9d6abb0",
      "transactionIndex": "0xa",
      "blockHash": "0xc08e5b2bc2c83ea4b90f839dc664a8ddea959496791ae6116b8f3319945571dc",
      "blockNumber": "0x731cab",
      "gasUsed": "0xb570",
      "effectiveGasPrice": "0xfd",
      "from": "0xcda2fdb452ff4f5d7ba1c3d5dfcc9cb926a5eb7d",
      "to": "0xf617a31a61e3d02ccef4ec11202d377edb2b84d7",
      "contractAddress": null,
      "l1BaseFeeScalar": "0x186a0",
      "l1BlobBaseFee": "0x1",
      "l1BlobBaseFeeScalar": "0x95506",
      "l1Fee": "0xa6b3beb57d",
      "l1GasPrice": "0x10ab93122",
      "l1GasUsed": "0x640"
    }
  ],
  "libraries": [],
  "pending": [],
  "returns": {},
  "timestamp": 1727949950,
  "chain": 60808,
  "commit": "7d9679b"
}