{
  "transactions": [
    {
      "hash": "0x27a24788197d1cc946d7508d4a665eb56661c497253fca86441e84ff2c37fdc9",
      "transactionType": "CALL",
      "contractName": null,
      "contractAddress": "0x79dfbed14077b8f2421eece5707a17b161094e6a",
      "function": "wlMint(address)",
      "arguments": [
        "0x0000000000000000000000000000000000000000"
      ],
      "transaction": {
        "from": "0xcda2fdb452ff4f5d7ba1c3d5dfcc9cb926a5eb7d",
        "to": "0x79dfbed14077b8f2421eece5707a17b161094e6a",
        "gas": "0x3ddf7",
        "value": "0x0",
        "input": "0xc517b4a50000000000000000000000000000000000000000000000000000000000000000",
        "nonce": "0x1dc2",
        "chainId": "0xed88"
      },
      "additionalContracts": [],
      "isFixedGasLimit": false
    },
    {
      "hash": "0x7e893a5a5ff8dd93c5ef4841fd2d91ddba219311fda9611014bf777bccddbb11",
      "transactionType": "CALL",
      "contractName": null,
      "contractAddress": "0x79dfbed14077b8f2421eece5707a17b161094e6a",
      "function": "wlMint(address)",
      "arguments": [
        "0x0000000000000000000000000000000000000000"
      ],
      "transaction": {
        "from": "0xcda2fdb452ff4f5d7ba1c3d5dfcc9cb926a5eb7d",
        "to": "0x79dfbed14077b8f2421eece5707a17b161094e6a",
        "gas": "0x3ddf7",
        "value": "0x0",
        "input": "0xc517b4a50000000000000000000000000000000000000000000000000000000000000000",
        "nonce": "0x1dc3",
        "chainId": "0xed88"
      },
      "additionalContracts": [],
      "isFixedGasLimit": false
    },
    {
      "hash": "0xd0f970df2ae1bb909a6b32714e99bcfc5c386a172ffd616047e58cf5ca915489",
      "transactionType": "CALL",
      "contractName": null,
      "contractAddress": "0x79dfbed14077b8f2421eece5707a17b161094e6a",
      "function": "wlMint(address)",
      "arguments": [
        "0x0000000000000000000000000000000000000000"
      ],
      "transaction": {
        "from": "0xcda2fdb452ff4f5d7ba1c3d5dfcc9cb926a5eb7d",
        "to": "0x79dfbed14077b8f2421eece5707a17b161094e6a",
        "gas": "0x3ddf7",
        "value": "0x0",
        "input": "0xc517b4a50000000000000000000000000000000000000000000000000000000000000000",
        "nonce": "0x1dc4",
        "chainId": "0xed88"
      },
      "additionalContracts": [],
      "isFixedGasLimit": false
    },
    {
      "hash": "0xeda9b8e826482e1891f039b3c48efc295bfd8ddf1aabd959453b751d43736461",
      "transactionType": "CALL",
      "contractName": null,
      "contractAddress": "0x79dfbed14077b8f2421eece5707a17b161094e6a",
      "function": "wlMint(address)",
      "arguments": [
        "0x0000000000000000000000000000000000000000"
      ],
      "transaction": {
        "from": "0xcda2fdb452ff4f5d7ba1c3d5dfcc9cb926a5eb7d",
        "to": "0x79dfbed14077b8f2421eece5707a17b161094e6a",
        "gas": "0x3ddf7",
        "value": "0x0",
        "input": "0xc517b4a50000000000000000000000000000000000000000000000000000000000000000",
        "nonce": "0x1dc5",
        "chainId": "0xed88"
      },
      "additionalContracts": [],
      "isFixedGasLimit": false
    },
    {
      "hash": "0xc90e830483ead0539f444b2a14ffa99c9b6bd1db1eeb0b3c35bce3b7e4613ec8",
      "transactionType": "CALL",
      "contractName": null,
      "contractAddress": "0x79dfbed14077b8f2421eece5707a17b161094e6a",
      "function": "wlMint(address)",
      "arguments": [
        "0x0000000000000000000000000000000000000000"
      ],
      "transaction": {
        "from": "0xcda2fdb452ff4f5d7ba1c3d5dfcc9cb926a5eb7d",
        "to": "0x79dfbed14077b8f2421eece5707a17b161094e6a",
        "gas": "0x3ddf7",
        "value": "0x0",
        "input": "0xc517b4a50000000000000000000000000000000000000000000000000000000000000000",
        "nonce": "0x1dc6",
        "chainId": "0xed88"
      },
      "additionalContracts": [],
      "isFixedGasLimit": false
    },
    {
      "hash": "0x44ad3edaabf0de856d4d781de65db896a2da3ae946ece676a8f557a8a8c414ed",
      "transactionType": "CALL",
      "contractName": null,
      "contractAddress": "0x79dfbed14077b8f2421eece5707a17b161094e6a",
      "function": "wlMint(address)",
      "arguments": [
        "0x0000000000000000000000000000000000000000"
      ],
      "transaction": {
        "from": "0xcda2fdb452ff4f5d7ba1c3d5dfcc9cb926a5eb7d",
        "to": "0x79dfbed14077b8f2421eece5707a17b161094e6a",
        "gas": "0x3ddf7",
        "value": "0x0",
        "input": "0xc517b4a50000000000000000000000000000000000000000000000000000000000000000",
        "nonce": "0x1dc7",
        "chainId": "0xed88"
      },
      "additionalContracts": [],
      "isFixedGasLimit": false
    },
    {
      "hash": "0xe50e675cafa1cb17595146c1fd9ec33b261bb1cc9968003f3c4f132e0c047598",
      "transactionType": "CALL",
      "contractName": null,
      "contractAddress": "0x79dfbed14077b8f2421eece5707a17b161094e6a",
      "function": "wlMint(address)",
      "arguments": [
        "0x0000000000000000000000000000000000000000"
      ],
      "transaction": {
        "from": "0xcda2fdb452ff4f5d7ba1c3d5dfcc9cb926a5eb7d",
        "to": "0x79dfbed14077b8f2421eece5707a17b161094e6a",
        "gas": "0x3ddf7",
        "value": "0x0",
        "input": "0xc517b4a50000000000000000000000000000000000000000000000000000000000000000",
        "nonce": "0x1dc8",
        "chainId": "0xed88"
      },
      "additionalContracts": [],
      "isFixedGasLimit": false
    },
    {
      "hash": "0xe104bba8f6c725e35bb9daa45f989f0cda6114d591e0d3d3e158a8747a28a602",
      "transactionType": "CALL",
      "contractName": null,
      "contractAddress": "0x79dfbed14077b8f2421eece5707a17b161094e6a",
      "function": "wlMint(address)",
      "arguments": [
        "0x0000000000000000000000000000000000000000"
      ],
      "transaction": {
        "from": "0xcda2fdb452ff4f5d7ba1c3d5dfcc9cb926a5eb7d",
        "to": "0x79dfbed14077b8f2421eece5707a17b161094e6a",
        "gas": "0x3ddf7",
        "value": "0x0",
        "input": "0xc517b4a50000000000000000000000000000000000000000000000000000000000000000",
        "nonce": "0x1dc9",
        "chainId": "0xed88"
      },
      "additionalContracts": [],
      "isFixedGasLimit": false
    },
    {
      "hash": "0x63c820984207f6d2c30f18f8c4a6a992c5040652345f398deda9ccc1f232437f",
      "transactionType": "CALL",
      "contractName": null,
      "contractAddress": "0x79dfbed14077b8f2421eece5707a17b161094e6a",
      "function": "wlMint(address)",
      "arguments": [
        "0x0000000000000000000000000000000000000000"
      ],
      "transaction": {
        "from": "0xcda2fdb452ff4f5d7ba1c3d5dfcc9cb926a5eb7d",
        "to": "0x79dfbed14077b8f2421eece5707a17b161094e6a",
        "gas": "0x3ddf7",
        "value": "0x0",
        "input": "0xc517b4a50000000000000000000000000000000000000000000000000000000000000000",
        "nonce": "0x1dca",
        "chainId": "0xed88"
      },
      "additionalContracts": [],
      "isFixedGasLimit": false
    },
    {
      "hash": "0x0236c9432e3ebf67a60b94509df8ddd4c793f013f298f3915b0a8094fa3172f4",
      "transactionType": "CALL",
      "contractName": null,
      "contractAddress": "0x79dfbed14077b8f2421eece5707a17b161094e6a",
      "function": "wlMint(address)",
      "arguments": [
        "0x0000000000000000000000000000000000000000"
      ],
      "transaction": {
        "from": "0xcda2fdb452ff4f5d7ba1c3d5dfcc9cb926a5eb7d",
        "to": "0x79dfbed14077b8f2421eece5707a17b161094e6a",
        "gas": "0x3ddf7",
        "value": "0x0",
        "input": "0xc517b4a50000000000000000000000000000000000000000000000000000000000000000",
        "nonce": "0x1dcb",
        "chainId": "0xed88"
      },
      "additionalContracts": [],
      "isFixedGasLimit": false
    },
    {
      "hash": "0xc262e0bb9ac111ce4d79f5d1835243d08b25287cbff04734b9753c699e48f61b",
      "transactionType": "CALL",
      "contractName": null,
      "contractAddress": "0x79dfbed14077b8f2421eece5707a17b161094e6a",
      "function": "wlMint(address)",
      "arguments": [
        "0x0000000000000000000000000000000000000000"
      ],
      "transaction": {
        "from": "0xcda2fdb452ff4f5d7ba1c3d5dfcc9cb926a5eb7d",
        "to": "0x79dfbed14077b8f2421eece5707a17b161094e6a",
        "gas": "0x3ddf7",
        "value": "0x0",
        "input": "0xc517b4a50000000000000000000000000000000000000000000000000000000000000000",
        "nonce": "0x1dcc",
        "chainId": "0xed88"
      },
      "additionalContracts": [],
      "isFixedGasLimit": false
    },
    {
      "hash": "0x7632bed9b30397d28b68351a55ac5dbd77e6c10805d3c66115fa5b165eeffa9f",
      "transactionType": "CALL",
      "contractName": null,
      "contractAddress": "0x79dfbed14077b8f2421eece5707a17b161094e6a",
      "function": "wlMint(address)",
      "arguments": [
        "0x0000000000000000000000000000000000000000"
      ],
      "transaction": {
        "from": "0xcda2fdb452ff4f5d7ba1c3d5dfcc9cb926a5eb7d",
        "to": "0x79dfbed14077b8f2421eece5707a17b161094e6a",
        "gas": "0x3ddf7",
        "value": "0x0",
        "input": "0xc517b4a50000000000000000000000000000000000000000000000000000000000000000",
        "nonce": "0x1dcd",
        "chainId": "0xed88"
      },
      "additionalContracts": [],
      "isFixedGasLimit": false
    },
    {
      "hash": "0x5706552703f62955b21c559b62a0cf15c651a93f66379686bb43359352bfd22e",
      "transactionType": "CALL",
      "contractName": null,
      "contractAddress": "0x79dfbed14077b8f2421eece5707a17b161094e6a",
      "function": "wlMint(address)",
      "arguments": [
        "0x0000000000000000000000000000000000000000"
      ],
      "transaction": {
        "from": "0xcda2fdb452ff4f5d7ba1c3d5dfcc9cb926a5eb7d",
        "to": "0x79dfbed14077b8f2421eece5707a17b161094e6a",
        "gas": "0x3ddf7",
        "value": "0x0",
        "input": "0xc517b4a50000000000000000000000000000000000000000000000000000000000000000",
        "nonce": "0x1dce",
        "chainId": "0xed88"
      },
      "additionalContracts": [],
      "isFixedGasLimit": false
    },
    {
      "hash": "0x34cb8c80bc4a14fa5aa67ed993f53d4c551bf0c032ceac61fbda569a8576e9be",
      "transactionType": "CALL",
      "contractName": null,
      "contractAddress": "0x79dfbed14077b8f2421eece5707a17b161094e6a",
      "function": "wlMint(address)",
      "arguments": [
        "0x0000000000000000000000000000000000000000"
      ],
      "transaction": {
        "from": "0xcda2fdb452ff4f5d7ba1c3d5dfcc9cb926a5eb7d",
        "to": "0x79dfbed14077b8f2421eece5707a17b161094e6a",
        "gas": "0x3ddf7",
        "value": "0x0",
        "input": "0xc517b4a50000000000000000000000000000000000000000000000000000000000000000",
        "nonce": "0x1dcf",
        "chainId": "0xed88"
      },
      "additionalContracts": [],
      "isFixedGasLimit": false
    },
    {
      "hash": "0x8b835a77ec429a46f73546eec319c5622cb7bff2180eed124365beaa04e9d712",
      "transactionType": "CALL",
      "contractName": null,
      "contractAddress": "0x79dfbed14077b8f2421eece5707a17b161094e6a",
      "function": "wlMint(address)",
      "arguments": [
        "0x0000000000000000000000000000000000000000"
      ],
      "transaction": {
        "from": "0xcda2fdb452ff4f5d7ba1c3d5dfcc9cb926a5eb7d",
        "to": "0x79dfbed14077b8f2421eece5707a17b161094e6a",
        "gas": "0x3ddf7",
        "value": "0x0",
        "input": "0xc517b4a50000000000000000000000000000000000000000000000000000000000000000",
        "nonce": "0x1dd0",
        "chainId": "0xed88"
      },
      "additionalContracts": [],
      "isFixedGasLimit": false
    },
    {
      "hash": "0xecd4c24ecded4b4ddb11e6d9f29ba79b84d2dc473bbdba2906dc3480e09c1936",
      "transactionType": "CALL",
      "contractName": null,
      "contractAddress": "0x79dfbed14077b8f2421eece5707a17b161094e6a",
      "function": "wlMint(address)",
      "arguments": [
        "0x0000000000000000000000000000000000000000"
      ],
      "transaction": {
        "from": "0xcda2fdb452ff4f5d7ba1c3d5dfcc9cb926a5eb7d",
        "to": "0x79dfbed14077b8f2421eece5707a17b161094e6a",
        "gas": "0x3ddf7",
        "value": "0x0",
        "input": "0xc517b4a50000000000000000000000000000000000000000000000000000000000000000",
        "nonce": "0x1dd1",
        "chainId": "0xed88"
      },
      "additionalContracts": [],
      "isFixedGasLimit": false
    },
    {
      "hash": "0xbf62402ed350757e595579a6c0d6f9c0191b7ec1cbd79eb2bea09e34759e26a7",
      "transactionType": "CALL",
      "contractName": null,
      "contractAddress": "0x79dfbed14077b8f2421eece5707a17b161094e6a",
      "function": "wlMint(address)",
      "arguments": [
        "0x0000000000000000000000000000000000000000"
      ],
      "transaction": {
        "from": "0xcda2fdb452ff4f5d7ba1c3d5dfcc9cb926a5eb7d",
        "to": "0x79dfbed14077b8f2421eece5707a17b161094e6a",
        "gas": "0x3ddf7",
        "value": "0x0",
        "input": "0xc517b4a50000000000000000000000000000000000000000000000000000000000000000",
        "nonce": "0x1dd2",
        "chainId": "0xed88"
      },
      "additionalContracts": [],
      "isFixedGasLimit": false
    },
    {
      "hash": "0xe2506c134c9823df7ff35d0cc82d17c1f6f7e2b9089cfae8af552f0d6145f4b3",
      "transactionType": "CALL",
      "contractName": null,
      "contractAddress": "0x79dfbed14077b8f2421eece5707a17b161094e6a",
      "function": "wlMint(address)",
      "arguments": [
        "0x0000000000000000000000000000000000000000"
      ],
      "transaction": {
        "from": "0xcda2fdb452ff4f5d7ba1c3d5dfcc9cb926a5eb7d",
        "to": "0x79dfbed14077b8f2421eece5707a17b161094e6a",
        "gas": "0x3ddf7",
        "value": "0x0",
        "input": "0xc517b4a50000000000000000000000000000000000000000000000000000000000000000",
        "nonce": "0x1dd3",
        "chainId": "0xed88"
      },
      "additionalContracts": [],
      "isFixedGasLimit": false
    },
    {
      "hash": "0x7a6f9189d6796d67fa298cf4864d5ae947469ba98150dca4246c3e7346dc6b81",
      "transactionType": "CALL",
      "contractName": null,
      "contractAddress": "0x79dfbed14077b8f2421eece5707a17b161094e6a",
      "function": "wlMint(address)",
      "arguments": [
        "0x0000000000000000000000000000000000000000"
      ],
      "transaction": {
        "from": "0xcda2fdb452ff4f5d7ba1c3d5dfcc9cb926a5eb7d",
        "to": "0x79dfbed14077b8f2421eece5707a17b161094e6a",
        "gas": "0x3ddf7",
        "value": "0x0",
        "input": "0xc517b4a50000000000000000000000000000000000000000000000000000000000000000",
        "nonce": "0x1dd4",
        "chainId": "0xed88"
      },
      "additionalContracts": [],
      "isFixedGasLimit": false
    },
    {
      "hash": "0xb4d71610e29f9660d56b53ebb437eec81656fe8d284a0eb64c39345e223246e0",
      "transactionType": "CALL",
      "contractName": null,
      "contractAddress": "0x79dfbed14077b8f2421eece5707a17b161094e6a",
      "function": "wlMint(address)",
      "arguments": [
        "0x0000000000000000000000000000000000000000"
      ],
      "transaction": {
        "from": "0xcda2fdb452ff4f5d7ba1c3d5dfcc9cb926a5eb7d",
        "to": "0x79dfbed14077b8f2421eece5707a17b161094e6a",
        "gas": "0x3ddf7",
        "value": "0x0",
        "input": "0xc517b4a50000000000000000000000000000000000000000000000000000000000000000",
        "nonce": "0x1dd5",
        "chainId": "0xed88"
      },
      "additionalContracts": [],
      "isFixedGasLimit": false
    },
    {
      "hash": "0x3e128759d7b8ec0567bfe174c9c3a2438bd8ac50c9c1e927dbefd180ac2b79ab",
      "transactionType": "CALL",
      "contractName": null,
      "contractAddress": "0x79dfbed14077b8f2421eece5707a17b161094e6a",
      "function": "wlMint(address)",
      "arguments": [
        "0x0000000000000000000000000000000000000000"
      ],
      "transaction": {
        "from": "0xcda2fdb452ff4f5d7ba1c3d5dfcc9cb926a5eb7d",
        "to": "0x79dfbed14077b8f2421eece5707a17b161094e6a",
        "gas": "0x3ddf7",
        "value": "0x0",
        "input": "0xc517b4a50000000000000000000000000000000000000000000000000000000000000000",
        "nonce": "0x1dd6",
        "chainId": "0xed88"
      },
      "additionalContracts": [],
      "isFixedGasLimit": false
    },
    {
      "hash": "0x706e338238aa76a760777f170d5138dd77ec47731fa64c7c7288270d0cf6b2c7",
      "transactionType": "CALL",
      "contractName": null,
      "contractAddress": "0x79dfbed14077b8f2421eece5707a17b161094e6a",
      "function": "wlMint(address)",
      "arguments": [
        "0x0000000000000000000000000000000000000000"
      ],
      "transaction": {
        "from": "0xcda2fdb452ff4f5d7ba1c3d5dfcc9cb926a5eb7d",
        "to": "0x79dfbed14077b8f2421eece5707a17b161094e6a",
        "gas": "0x3ddf7",
        "value": "0x0",
        "input": "0xc517b4a50000000000000000000000000000000000000000000000000000000000000000",
        "nonce": "0x1dd7",
        "chainId": "0xed88"
      },
      "additionalContracts": [],
      "isFixedGasLimit": false
    },
    {
      "hash": "0xdf575514ad0acc8a4a50cbadecabef3185056ba2db1e8048f4f5c3e52d66ee9d",
      "transactionType": "CALL",
      "contractName": null,
      "contractAddress": "0x79dfbed14077b8f2421eece5707a17b161094e6a",
      "function": "wlMint(address)",
      "arguments": [
        "0x0000000000000000000000000000000000000000"
      ],
      "transaction": {
        "from": "0xcda2fdb452ff4f5d7ba1c3d5dfcc9cb926a5eb7d",
        "to": "0x79dfbed14077b8f2421eece5707a17b161094e6a",
        "gas": "0x3ddf7",
        "value": "0x0",
        "input": "0xc517b4a50000000000000000000000000000000000000000000000000000000000000000",
        "nonce": "0x1dd8",
        "chainId": "0xed88"
      },
      "additionalContracts": [],
      "isFixedGasLimit": false
    },
    {
      "hash": "0x4c49f45fb686891ae28e09ccfea67db87e33c1b11a1a86e04827ed4fa08aab1e",
      "transactionType": "CALL",
      "contractName": null,
      "contractAddress": "0x79dfbed14077b8f2421eece5707a17b161094e6a",
      "function": "wlMint(address)",
      "arguments": [
        "0x0000000000000000000000000000000000000000"
      ],
      "transaction": {
        "from": "0xcda2fdb452ff4f5d7ba1c3d5dfcc9cb926a5eb7d",
        "to": "0x79dfbed14077b8f2421eece5707a17b161094e6a",
        "gas": "0x3ddf7",
        "value": "0x0",
        "input": "0xc517b4a50000000000000000000000000000000000000000000000000000000000000000",
        "nonce": "0x1dd9",
        "chainId": "0xed88"
      },
      "additionalContracts": [],
      "isFixedGasLimit": false
    },
    {
      "hash": "0xcf07b495e27e2c0fa5db01ae71d709f754b560315dd356616b75e9f264f1b994",
      "transactionType": "CALL",
      "contractName": null,
      "contractAddress": "0x79dfbed14077b8f2421eece5707a17b161094e6a",
      "function": "wlMint(address)",
      "arguments": [
        "0x0000000000000000000000000000000000000000"
      ],
      "transaction": {
        "from": "0xcda2fdb452ff4f5d7ba1c3d5dfcc9cb926a5eb7d",
        "to": "0x79dfbed14077b8f2421eece5707a17b161094e6a",
        "gas": "0x3ddf7",
        "value": "0x0",
        "input": "0xc517b4a50000000000000000000000000000000000000000000000000000000000000000",
        "nonce": "0x1dda",
        "chainId": "0xed88"
      },
      "additionalContracts": [],
      "isFixedGasLimit": false
    },
    {
      "hash": "0xd9978460ea31d1bd43be000ddc9beb318044ea64455be8d9d42d95690cd3bf33",
      "transactionType": "CALL",
      "contractName": null,
      "contractAddress": "0x79dfbed14077b8f2421eece5707a17b161094e6a",
      "function": "wlMint(address)",
      "arguments": [
        "0x0000000000000000000000000000000000000000"
      ],
      "transaction": {
        "from": "0xcda2fdb452ff4f5d7ba1c3d5dfcc9cb926a5eb7d",
        "to": "0x79dfbed14077b8f2421eece5707a17b161094e6a",
        "gas": "0x3ddf7",
        "value": "0x0",
        "input": "0xc517b4a50000000000000000000000000000000000000000000000000000000000000000",
        "nonce": "0x1ddb",
        "chainId": "0xed88"
      },
      "additionalContracts": [],
      "isFixedGasLimit": false
    },
    {
      "hash": "0x60c56ab2166e1c31134e071ba4bb364754375c4e6c8783580124d9db4660a2bf",
      "transactionType": "CALL",
      "contractName": null,
      "contractAddress": "0x79dfbed14077b8f2421eece5707a17b161094e6a",
      "function": "wlMint(address)",
      "arguments": [
        "0x0000000000000000000000000000000000000000"
      ],
      "transaction": {
        "from": "0xcda2fdb452ff4f5d7ba1c3d5dfcc9cb926a5eb7d",
        "to": "0x79dfbed14077b8f2421eece5707a17b161094e6a",
        "gas": "0x3ddf7",
        "value": "0x0",
        "input": "0xc517b4a50000000000000000000000000000000000000000000000000000000000000000",
        "nonce": "0x1ddc",
        "chainId": "0xed88"
      },
      "additionalContracts": [],
      "isFixedGasLimit": false
    },
    {
      "hash": "0x61761a30a050e24f619976f3b8bc70d6ff212ed918447ccaa0c5e8e4a86a7deb",
      "transactionType": "CALL",
      "contractName": null,
      "contractAddress": "0x79dfbed14077b8f2421eece5707a17b161094e6a",
      "function": "wlMint(address)",
      "arguments": [
        "0x0000000000000000000000000000000000000000"
      ],
      "transaction": {
        "from": "0xcda2fdb452ff4f5d7ba1c3d5dfcc9cb926a5eb7d",
        "to": "0x79dfbed14077b8f2421eece5707a17b161094e6a",
        "gas": "0x3ddf7",
        "value": "0x0",
        "input": "0xc517b4a50000000000000000000000000000000000000000000000000000000000000000",
        "nonce": "0x1ddd",
        "chainId": "0xed88"
      },
      "additionalContracts": [],
      "isFixedGasLimit": false
    },
    {
      "hash": "0x016022747d57f873506f0ad4b3dfc7453f5ac34c57375bc3b5830d7a5b9e46ff",
      "transactionType": "CALL",
      "contractName": null,
      "contractAddress": "0x79dfbed14077b8f2421eece5707a17b161094e6a",
      "function": "wlMint(address)",
      "arguments": [
        "0x0000000000000000000000000000000000000000"
      ],
      "transaction": {
        "from": "0xcda2fdb452ff4f5d7ba1c3d5dfcc9cb926a5eb7d",
        "to": "0x79dfbed14077b8f2421eece5707a17b161094e6a",
        "gas": "0x3ddf7",
        "value": "0x0",
        "input": "0xc517b4a50000000000000000000000000000000000000000000000000000000000000000",
        "nonce": "0x1dde",
        "chainId": "0xed88"
      },
      "additionalContracts": [],
      "isFixedGasLimit": false
    },
    {
      "hash": "0xebf8cf6ad59547fa1a7f41b0c96c5aa53f208e0859a0c9278679adf954333d11",
      "transactionType": "CALL",
      "contractName": null,
      "contractAddress": "0x79dfbed14077b8f2421eece5707a17b161094e6a",
      "function": "wlMint(address)",
      "arguments": [
        "0x0000000000000000000000000000000000000000"
      ],
      "transaction": {
        "from": "0xcda2fdb452ff4f5d7ba1c3d5dfcc9cb926a5eb7d",
        "to": "0x79dfbed14077b8f2421eece5707a17b161094e6a",
        "gas": "0x3ddf7",
        "value": "0x0",
        "input": "0xc517b4a50000000000000000000000000000000000000000000000000000000000000000",
        "nonce": "0x1ddf",
        "chainId": "0xed88"
      },
      "additionalContracts": [],
      "isFixedGasLimit": false
    }
  ],
  "receipts": [
    {
      "status": "0x1",
      "cumulativeGasUsed": "0x6f999",
      "logs": [
        {
          "address": "0x2e8af9c5922623058aa92a183b391e62cb6b2d12",
          "topics": [
            "0xddf252ad1be2c89b69c2b068fc378daa952ba7f163c4a11628f55a4df523b3ef",
            "0x0000000000000000000000000000000000000000000000000000000000000000",
            "0x000000000000000000000000cda2fdb452ff4f5d7ba1c3d5dfcc9cb926a5eb7d",
            "0x00000000000000000000000000000000000000000000000000000000000001b8"
          ],
          "data": "0x",
          "blockHash": "0x7a993f6b93bdbabaf15fe8b8254053dbe90920bfd0ff1861a695a77451ad5b9e",
          "blockNumber": "0x751266",
          "transactionHash": "0x27a24788197d1cc946d7508d4a665eb56661c497253fca86441e84ff2c37fdc9",
          "transactionIndex": "0x2",
          "logIndex": "0x7",
          "removed": false
        },
        {
          "address": "0x2e8af9c5922623058aa92a183b391e62cb6b2d12",
          "topics": [
            "0xf8e1a15aba9398e019f0b49df1a4fde98ee17ae345cb5f6b5e2c27f5033e8ce7"
          ],
          "data": "0x00000000000000000000000000000000000000000000000000000000000001b8",
          "blockHash": "0x7a993f6b93bdbabaf15fe8b8254053dbe90920bfd0ff1861a695a77451ad5b9e",
          "blockNumber": "0x751266",
          "transactionHash": "0x27a24788197d1cc946d7508d4a665eb56661c497253fca86441e84ff2c37fdc9",
          "transactionIndex": "0x2",
          "logIndex": "0x8",
          "removed": false
        }
      ],
      "logsBloom": "0x00000000000000000000000000000000000000020000000000000000000000000000000000000000000000000000000000000000000000000000000000000000000000000000000000000008040000000000000000000000000000000000000000000000020000000000000000000800002000000000800000000010000000000000000000000000000000000000000000000000000000000000000000000000000000000000000000040000000000002000000000004000000000000000008000000002000000004000000000000000000000000000000000000000000020002000000000000000200000000000000000000000100000000000000000000000",
      "type": "0x2",
      "transactionHash": "0x27a24788197d1cc946d7508d4a665eb56661c497253fca86441e84ff2c37fdc9",
      "transactionIndex": "0x2",
      "blockHash": "0x7a993f6b93bdbabaf15fe8b8254053dbe90920bfd0ff1861a695a77451ad5b9e",
      "blockNumber": "0x751266",
      "gasUsed": "0x2ccb8",
      "effectiveGasPrice": "0xfe",
      "from": "0xcda2fdb452ff4f5d7ba1c3d5dfcc9cb926a5eb7d",
      "to": "0x79dfbed14077b8f2421eece5707a17b161094e6a",
      "contractAddress": null,
      "l1BaseFeeScalar": "0x186a0",
      "l1BlobBaseFee": "0x1",
      "l1BlobBaseFeeScalar": "0x95506",
      "l1Fee": "0x1a78cc67f5d",
      "l1GasPrice": "0x2a5ae0a65",
      "l1GasUsed": "0x640"
    },
    {
      "status": "0x1",
      "cumulativeGasUsed": "0x9c651",
      "logs": [
        {
          "address": "0x2e8af9c5922623058aa92a183b391e62cb6b2d12",
          "topics": [
            "0xddf252ad1be2c89b69c2b068fc378daa952ba7f163c4a11628f55a4df523b3ef",
            "0x0000000000000000000000000000000000000000000000000000000000000000",
            "0x000000000000000000000000cda2fdb452ff4f5d7ba1c3d5dfcc9cb926a5eb7d",
            "0x00000000000000000000000000000000000000000000000000000000000001b9"
          ],
          "data": "0x",
          "blockHash": "0x7a993f6b93bdbabaf15fe8b8254053dbe90920bfd0ff1861a695a77451ad5b9e",
          "blockNumber": "0x751266",
          "transactionHash": "0x7e893a5a5ff8dd93c5ef4841fd2d91ddba219311fda9611014bf777bccddbb11",
          "transactionIndex": "0x3",
          "logIndex": "0x9",
          "removed": false
        },
        {
          "address": "0x2e8af9c5922623058aa92a183b391e62cb6b2d12",
          "topics": [
            "0xf8e1a15aba9398e019f0b49df1a4fde98ee17ae345cb5f6b5e2c27f5033e8ce7"
          ],
          "data": "0x00000000000000000000000000000000000000000000000000000000000001b9",
          "blockHash": "0x7a993f6b93bdbabaf15fe8b8254053dbe90920bfd0ff1861a695a77451ad5b9e",
          "blockNumber": "0x751266",
          "transactionHash": "0x7e893a5a5ff8dd93c5ef4841fd2d91ddba219311fda9611014bf777bccddbb11",
          "transactionIndex": "0x3",
          "logIndex": "0xa",
          "removed": false
        }
      ],
      "logsBloom": "0x00000000000000000000000000000000000000021000000000000000000000000080000000000000000000000000000000000000000000000000000000000000000000000000000000000008040000000000000000000000000000000000000000000000020000000000000000000800002000000000800000000010000000000000000000000000000000000000000000000000000000000000000000000000000000000000000000000000000000002000000000004000000000000000008000000002000000000000400000000000000000000000000000000000000020000000000000000000200000000000000000000000100000000000000000000000",
      "type": "0x2",
      "transactionHash": "0x7e893a5a5ff8dd93c5ef4841fd2d91ddba219311fda9611014bf777bccddbb11",
      "transactionIndex": "0x3",
      "blockHash": "0x7a993f6b93bdbabaf15fe8b8254053dbe90920bfd0ff1861a695a77451ad5b9e",
      "blockNumber": "0x751266",
      "gasUsed": "0x2ccb8",
      "effectiveGasPrice": "0xfe",
      "from": "0xcda2fdb452ff4f5d7ba1c3d5dfcc9cb926a5eb7d",
      "to": "0x79dfbed14077b8f2421eece5707a17b161094e6a",
      "contractAddress": null,
      "l1BaseFeeScalar": "0x186a0",
      "l1BlobBaseFee": "0x1",
      "l1BlobBaseFeeScalar": "0x95506",
      "l1Fee": "0x1a78cc67f5d",
      "l1GasPrice": "0x2a5ae0a65",
      "l1GasUsed": "0x640"
    },
    {
      "status": "0x1",
      "cumulativeGasUsed": "0xc9309",
      "logs": [
        {
          "address": "0x2e8af9c5922623058aa92a183b391e62cb6b2d12",
          "topics": [
            "0xddf252ad1be2c89b69c2b068fc378daa952ba7f163c4a11628f55a4df523b3ef",
            "0x0000000000000000000000000000000000000000000000000000000000000000",
            "0x000000000000000000000000cda2fdb452ff4f5d7ba1c3d5dfcc9cb926a5eb7d",
            "0x00000000000000000000000000000000000000000000000000000000000001ba"
          ],
          "data": "0x",
          "blockHash": "0x7a993f6b93bdbabaf15fe8b8254053dbe90920bfd0ff1861a695a77451ad5b9e",
          "blockNumber": "0x751266",
          "transactionHash": "0xd0f970df2ae1bb909a6b32714e99bcfc5c386a172ffd616047e58cf5ca915489",
          "transactionIndex": "0x4",
          "logIndex": "0xb",
          "removed": false
        },
        {
          "address": "0x2e8af9c5922623058aa92a183b391e62cb6b2d12",
          "topics": [
            "0xf8e1a15aba9398e019f0b49df1a4fde98ee17ae345cb5f6b5e2c27f5033e8ce7"
          ],
          "data": "0x00000000000000000000000000000000000000000000000000000000000001ba",
          "blockHash": "0x7a993f6b93bdbabaf15fe8b8254053dbe90920bfd0ff1861a695a77451ad5b9e",
          "blockNumber": "0x751266",
          "transactionHash": "0xd0f970df2ae1bb909a6b32714e99bcfc5c386a172ffd616047e58cf5ca915489",
          "transactionIndex": "0x4",
          "logIndex": "0xc",
          "removed": false
        }
      ],
      "logsBloom": "0x00000000000000000000000000000000000000020000000000000000000000000000000000000000000000000000000000000000000000000000000000000000000000000000000000000008040000000080000000000000000000000000000000000000020000000000000000000800002000000000800000000010000000000000000000000000000000000100000000000000000000000000000000000000000000000000000000000000000400002000000000004000000000000000008000000002000000000000000000000000000000000000000000000000000020000000000000000000200000000000000000000000100000000000000000000000",
      "type": "0x2",
      "transactionHash": "0xd0f970df2ae1bb909a6b32714e99bcfc5c386a172ffd616047e58cf5ca915489",
      "transactionIndex": "0x4",
      "blockHash": "0x7a993f6b93bdbabaf15fe8b8254053dbe90920bfd0ff1861a695a77451ad5b9e",
      "blockNumber": "0x751266",
      "gasUsed": "0x2ccb8",
      "effectiveGasPrice": "0xfe",
      "from": "0xcda2fdb452ff4f5d7ba1c3d5dfcc9cb926a5eb7d",
      "to": "0x79dfbed14077b8f2421eece5707a17b161094e6a",
      "contractAddress": null,
      "l1BaseFeeScalar": "0x186a0",
      "l1BlobBaseFee": "0x1",
      "l1BlobBaseFeeScalar": "0x95506",
      "l1Fee": "0x1a78cc67f5d",
      "l1GasPrice": "0x2a5ae0a65",
      "l1GasUsed": "0x640"
    },
    {
      "status": "0x1",
      "cumulativeGasUsed": "0xf5fc1",
      "logs": [
        {
          "address": "0x2e8af9c5922623058aa92a183b391e62cb6b2d12",
          "topics": [
            "0xddf252ad1be2c89b69c2b068fc378daa952ba7f163c4a11628f55a4df523b3ef",
            "0x0000000000000000000000000000000000000000000000000000000000000000",
            "0x000000000000000000000000cda2fdb452ff4f5d7ba1c3d5dfcc9cb926a5eb7d",
            "0x00000000000000000000000000000000000000000000000000000000000001bb"
          ],
          "data": "0x",
          "blockHash": "0x7a993f6b93bdbabaf15fe8b8254053dbe90920bfd0ff1861a695a77451ad5b9e",
          "blockNumber": "0x751266",
          "transactionHash": "0xeda9b8e826482e1891f039b3c48efc295bfd8ddf1aabd959453b751d43736461",
          "transactionIndex": "0x5",
          "logIndex": "0xd",
          "removed": false
        },
        {
          "address": "0x2e8af9c5922623058aa92a183b391e62cb6b2d12",
          "topics": [
            "0xf8e1a15aba9398e019f0b49df1a4fde98ee17ae345cb5f6b5e2c27f5033e8ce7"
          ],
          "data": "0x00000000000000000000000000000000000000000000000000000000000001bb",
          "blockHash": "0x7a993f6b93bdbabaf15fe8b8254053dbe90920bfd0ff1861a695a77451ad5b9e",
          "blockNumber": "0x751266",
          "transactionHash": "0xeda9b8e826482e1891f039b3c48efc295bfd8ddf1aabd959453b751d43736461",
          "transactionIndex": "0x5",
          "logIndex": "0xe",
          "removed": false
        }
      ],
      "logsBloom": "0x00000000000000000000000000000000000000020000000000000000000000000000000000100000000000000000000000000000000000000000000000000000000000000000000000000008040000000000002000000000000000000000000000000000020000000000000000000800002000000000800000000010000000000000000000000000000000000000000000000000000000000000000000000000000000000000000000000000000000002000000000004000000000000000008000000002000000000000000000000000000000000000000000000004000020000000000000000000200000000000000000000000100000000000000000000000",
      "type": "0x2",
      "transactionHash": "0xeda9b8e826482e1891f039b3c48efc295bfd8ddf1aabd959453b751d43736461",
      "transactionIndex": "0x5",
      "blockHash": "0x7a993f6b93bdbabaf15fe8b8254053dbe90920bfd0ff1861a695a77451ad5b9e",
      "blockNumber": "0x751266",
      "gasUsed": "0x2ccb8",
      "effectiveGasPrice": "0xfe",
      "from": "0xcda2fdb452ff4f5d7ba1c3d5dfcc9cb926a5eb7d",
      "to": "0x79dfbed14077b8f2421eece5707a17b161094e6a",
      "contractAddress": null,
      "l1BaseFeeScalar": "0x186a0",
      "l1BlobBaseFee": "0x1",
      "l1BlobBaseFeeScalar": "0x95506",
      "l1Fee": "0x1a78cc67f5d",
      "l1GasPrice": "0x2a5ae0a65",
      "l1GasUsed": "0x640"
    },
    {
      "status": "0x1",
      "cumulativeGasUsed": "0x122c79",
      "logs": [
        {
          "address": "0x2e8af9c5922623058aa92a183b391e62cb6b2d12",
          "topics": [
            "0xddf252ad1be2c89b69c2b068fc378daa952ba7f163c4a11628f55a4df523b3ef",
            "0x0000000000000000000000000000000000000000000000000000000000000000",
            "0x000000000000000000000000cda2fdb452ff4f5d7ba1c3d5dfcc9cb926a5eb7d",
            "0x00000000000000000000000000000000000000000000000000000000000001bc"
          ],
          "data": "0x",
          "blockHash": "0x7a993f6b93bdbabaf15fe8b8254053dbe90920bfd0ff1861a695a77451ad5b9e",
          "blockNumber": "0x751266",
          "transactionHash": "0xc90e830483ead0539f444b2a14ffa99c9b6bd1db1eeb0b3c35bce3b7e4613ec8",
          "transactionIndex": "0x6",
          "logIndex": "0xf",
          "removed": false
        },
        {
          "address": "0x2e8af9c5922623058aa92a183b391e62cb6b2d12",
          "topics": [
            "0xf8e1a15aba9398e019f0b49df1a4fde98ee17ae345cb5f6b5e2c27f5033e8ce7"
          ],
          "data": "0x00000000000000000000000000000000000000000000000000000000000001bc",
          "blockHash": "0x7a993f6b93bdbabaf15fe8b8254053dbe90920bfd0ff1861a695a77451ad5b9e",
          "blockNumber": "0x751266",
          "transactionHash": "0xc90e830483ead0539f444b2a14ffa99c9b6bd1db1eeb0b3c35bce3b7e4613ec8",
          "transactionIndex": "0x6",
          "logIndex": "0x10",
          "removed": false
        }
      ],
      "logsBloom": "0x00000000000000000000000000000000000000020000000000000000000000000000000000000000000000000000000010000000000000000000000000000000000000000000000000000008040000000000000000000000000000000000000000000000020000000000000000000800002000000000800000000010000000000000000000000000000000000000000000000000000000000000000000000000000000000000000000000000000000002000000000204000000000000000008000000002000000000000000000000000000000000000000000000000000020000000000000000000200000000000000000000000100000000000002000000000",
      "type": "0x2",
      "transactionHash": "0xc90e830483ead0539f444b2a14ffa99c9b6bd1db1eeb0b3c35bce3b7e4613ec8",
      "transactionIndex": "0x6",
      "blockHash": "0x7a993f6b93bdbabaf15fe8b8254053dbe90920bfd0ff1861a695a77451ad5b9e",
      "blockNumber": "0x751266",
      "gasUsed": "0x2ccb8",
      "effectiveGasPrice": "0xfe",
      "from": "0xcda2fdb452ff4f5d7ba1c3d5dfcc9cb926a5eb7d",
      "to": "0x79dfbed14077b8f2421eece5707a17b161094e6a",
      "contractAddress": null,
      "l1BaseFeeScalar": "0x186a0",
      "l1BlobBaseFee": "0x1",
      "l1BlobBaseFeeScalar": "0x95506",
      "l1Fee": "0x1a78cc67f5d",
      "l1GasPrice": "0x2a5ae0a65",
      "l1GasUsed": "0x640"
    },
    {
      "status": "0x1",
      "cumulativeGasUsed": "0x14f931",
      "logs": [
        {
          "address": "0x2e8af9c5922623058aa92a183b391e62cb6b2d12",
          "topics": [
            "0xddf252ad1be2c89b69c2b068fc378daa952ba7f163c4a11628f55a4df523b3ef",
            "0x0000000000000000000000000000000000000000000000000000000000000000",
            "0x000000000000000000000000cda2fdb452ff4f5d7ba1c3d5dfcc9cb926a5eb7d",
            "0x00000000000000000000000000000000000000000000000000000000000001bd"
          ],
          "data": "0x",
          "blockHash": "0x7a993f6b93bdbabaf15fe8b8254053dbe90920bfd0ff1861a695a77451ad5b9e",
          "blockNumber": "0x751266",
          "transactionHash": "0x44ad3edaabf0de856d4d781de65db896a2da3ae946ece676a8f557a8a8c414ed",
          "transactionIndex": "0x7",
          "logIndex": "0x11",
          "removed": false
        },
        {
          "address": "0x2e8af9c5922623058aa92a183b391e62cb6b2d12",
          "topics": [
            "0xf8e1a15aba9398e019f0b49df1a4fde98ee17ae345cb5f6b5e2c27f5033e8ce7"
          ],
          "data": "0x00000000000000000000000000000000000000000000000000000000000001bd",
          "blockHash": "0x7a993f6b93bdbabaf15fe8b8254053dbe90920bfd0ff1861a695a77451ad5b9e",
          "blockNumber": "0x751266",
          "transactionHash": "0x44ad3edaabf0de856d4d781de65db896a2da3ae946ece676a8f557a8a8c414ed",
          "transactionIndex": "0x7",
          "logIndex": "0x12",
          "removed": false
        }
      ],
      "logsBloom": "0x00000000000000000000000000000000000000020080000000000000000000000000080000000000000000000000000000000000000000000000000000000000000000000000000000000008040000000000000000000000000000000000000000000000020000000000000000000800002000000000800400000010000000000000000000000000000000000000000000000000000000000000000000000000000000000000000000000000000000002000000000004000000000000000008000000002000000000000000000000000000000000000000000000000000020000000000000000000200000000000000000000000100000000000000000000000",
      "type": "0x2",
      "transactionHash": "0x44ad3edaabf0de856d4d781de65db896a2da3ae946ece676a8f557a8a8c414ed",
      "transactionIndex": "0x7",
      "blockHash": "0x7a993f6b93bdbabaf15fe8b8254053dbe90920bfd0ff1861a695a77451ad5b9e",
      "blockNumber": "0x751266",
      "gasUsed": "0x2ccb8",
      "effectiveGasPrice": "0xfe",
      "from": "0xcda2fdb452ff4f5d7ba1c3d5dfcc9cb926a5eb7d",
      "to": "0x79dfbed14077b8f2421eece5707a17b161094e6a",
      "contractAddress": null,
      "l1BaseFeeScalar": "0x186a0",
      "l1BlobBaseFee": "0x1",
      "l1BlobBaseFeeScalar": "0x95506",
      "l1Fee": "0x1a78cc67f5d",
      "l1GasPrice": "0x2a5ae0a65",
      "l1GasUsed": "0x640"
    },
    {
      "status": "0x1",
      "cumulativeGasUsed": "0x17c5e9",
      "logs": [
        {
          "address": "0x2e8af9c5922623058aa92a183b391e62cb6b2d12",
          "topics": [
            "0xddf252ad1be2c89b69c2b068fc378daa952ba7f163c4a11628f55a4df523b3ef",
            "0x0000000000000000000000000000000000000000000000000000000000000000",
            "0x000000000000000000000000cda2fdb452ff4f5d7ba1c3d5dfcc9cb926a5eb7d",
            "0x00000000000000000000000000000000000000000000000000000000000001be"
          ],
          "data": "0x",
          "blockHash": "0x7a993f6b93bdbabaf15fe8b8254053dbe90920bfd0ff1861a695a77451ad5b9e",
          "blockNumber": "0x751266",
          "transactionHash": "0xe50e675cafa1cb17595146c1fd9ec33b261bb1cc9968003f3c4f132e0c047598",
          "transactionIndex": "0x8",
          "logIndex": "0x13",
          "removed": false
        },
        {
          "address": "0x2e8af9c5922623058aa92a183b391e62cb6b2d12",
          "topics": [
            "0xf8e1a15aba9398e019f0b49df1a4fde98ee17ae345cb5f6b5e2c27f5033e8ce7"
          ],
          "data": "0x00000000000000000000000000000000000000000000000000000000000001be",
          "blockHash": "0x7a993f6b93bdbabaf15fe8b8254053dbe90920bfd0ff1861a695a77451ad5b9e",
          "blockNumber": "0x751266",
          "transactionHash": "0xe50e675cafa1cb17595146c1fd9ec33b261bb1cc9968003f3c4f132e0c047598",
          "transactionIndex": "0x8",
          "logIndex": "0x14",
          "removed": false
        }
      ],
      "logsBloom": "0x00000000000000000000000000002000000000020000000000000000000000000000000000000000000000000000000000000000000000000000000000000000000000000000000000000008040000000000000000000000000000000000000000000000020000000000000000000800002000000000800010000010000000000000100000000000000000000000000000000000000000000000000000000000000000000000000000000000000000002000000000004000000000000000008000000002000000000000000000000000000000000000000000000000000020000000000000000000200000000000000000000000100000000000000000000000",
      "type": "0x2",
      "transactionHash": "0xe50e675cafa1cb17595146c1fd9ec33b261bb1cc9968003f3c4f132e0c047598",
      "transactionIndex": "0x8",
      "blockHash": "0x7a993f6b93bdbabaf15fe8b8254053dbe90920bfd0ff1861a695a77451ad5b9e",
      "blockNumber": "0x751266",
      "gasUsed": "0x2ccb8",
      "effectiveGasPrice": "0xfe",
      "from": "0xcda2fdb452ff4f5d7ba1c3d5dfcc9cb926a5eb7d",
      "to": "0x79dfbed14077b8f2421eece5707a17b161094e6a",
      "contractAddress": null,
      "l1BaseFeeScalar": "0x186a0",
      "l1BlobBaseFee": "0x1",
      "l1BlobBaseFeeScalar": "0x95506",
      "l1Fee": "0x1a78cc67f5d",
      "l1GasPrice": "0x2a5ae0a65",
      "l1GasUsed": "0x640"
    },
    {
      "status": "0x1",
      "cumulativeGasUsed": "0x1a92a1",
      "logs": [
        {
          "address": "0x2e8af9c5922623058aa92a183b391e62cb6b2d12",
          "topics": [
            "0xddf252ad1be2c89b69c2b068fc378daa952ba7f163c4a11628f55a4df523b3ef",
            "0x0000000000000000000000000000000000000000000000000000000000000000",
            "0x000000000000000000000000cda2fdb452ff4f5d7ba1c3d5dfcc9cb926a5eb7d",
            "0x00000000000000000000000000000000000000000000000000000000000001bf"
          ],
          "data": "0x",
          "blockHash": "0x7a993f6b93bdbabaf15fe8b8254053dbe90920bfd0ff1861a695a77451ad5b9e",
          "blockNumber": "0x751266",
          "transactionHash": "0xe104bba8f6c725e35bb9daa45f989f0cda6114d591e0d3d3e158a8747a28a602",
          "transactionIndex": "0x9",
          "logIndex": "0x15",
          "removed": false
        },
        {
          "address": "0x2e8af9c5922623058aa92a183b391e62cb6b2d12",
          "topics": [
            "0xf8e1a15aba9398e019f0b49df1a4fde98ee17ae345cb5f6b5e2c27f5033e8ce7"
          ],
          "data": "0x00000000000000000000000000000000000000000000000000000000000001bf",
          "blockHash": "0x7a993f6b93bdbabaf15fe8b8254053dbe90920bfd0ff1861a695a77451ad5b9e",
          "blockNumber": "0x751266",
          "transactionHash": "0xe104bba8f6c725e35bb9daa45f989f0cda6114d591e0d3d3e158a8747a28a602",
          "transactionIndex": "0x9",
          "logIndex": "0x16",
          "removed": false
        }
      ],
      "logsBloom": "0x00000000000000000000000000000000000000020000000000000000000000000000000000000000000000080000000000000000000000000000000000000001000000000000000000000008040000000000000000000000000000000000000000000000020000000000000000000800002000100000800000000010000000000000000000000000000000000000000000000000000000000000000000000000000000000000000000000000000000002000000000004000000000000000008000000002000000000000000000000000000000000000000000000000000020000000000000000000200000000000000000000000100000000000000000000000",
      "type": "0x2",
      "transactionHash": "0xe104bba8f6c725e35bb9daa45f989f0cda6114d591e0d3d3e158a8747a28a602",
      "transactionIndex": "0x9",
      "blockHash": "0x7a993f6b93bdbabaf15fe8b8254053dbe90920bfd0ff1861a695a77451ad5b9e",
      "blockNumber": "0x751266",
      "gasUsed": "0x2ccb8",
      "effectiveGasPrice": "0xfe",
      "from": "0xcda2fdb452ff4f5d7ba1c3d5dfcc9cb926a5eb7d",
      "to": "0x79dfbed14077b8f2421eece5707a17b161094e6a",
      "contractAddress": null,
      "l1BaseFeeScalar": "0x186a0",
      "l1BlobBaseFee": "0x1",
      "l1BlobBaseFeeScalar": "0x95506",
      "l1Fee": "0x1a78cc67f5d",
      "l1GasPrice": "0x2a5ae0a65",
      "l1GasUsed": "0x640"
    },
    {
      "status": "0x1",
      "cumulativeGasUsed": "0x1d5f59",
      "logs": [
        {
          "address": "0x2e8af9c5922623058aa92a183b391e62cb6b2d12",
          "topics": [
            "0xddf252ad1be2c89b69c2b068fc378daa952ba7f163c4a11628f55a4df523b3ef",
            "0x0000000000000000000000000000000000000000000000000000000000000000",
            "0x000000000000000000000000cda2fdb452ff4f5d7ba1c3d5dfcc9cb926a5eb7d",
            "0x00000000000000000000000000000000000000000000000000000000000001c0"
          ],
          "data": "0x",
          "blockHash": "0x7a993f6b93bdbabaf15fe8b8254053dbe90920bfd0ff1861a695a77451ad5b9e",
          "blockNumber": "0x751266",
          "transactionHash": "0x63c820984207f6d2c30f18f8c4a6a992c5040652345f398deda9ccc1f232437f",
          "transactionIndex": "0xa",
          "logIndex": "0x17",
          "removed": false
        },
        {
          "address": "0x2e8af9c5922623058aa92a183b391e62cb6b2d12",
          "topics": [
            "0xf8e1a15aba9398e019f0b49df1a4fde98ee17ae345cb5f6b5e2c27f5033e8ce7"
          ],
          "data": "0x00000000000000000000000000000000000000000000000000000000000001c0",
          "blockHash": "0x7a993f6b93bdbabaf15fe8b8254053dbe90920bfd0ff1861a695a77451ad5b9e",
          "blockNumber": "0x751266",
          "transactionHash": "0x63c820984207f6d2c30f18f8c4a6a992c5040652345f398deda9ccc1f232437f",
          "transactionIndex": "0xa",
          "logIndex": "0x18",
          "removed": false
        }
      ],
      "logsBloom": "0x00000000000000000000000000000000000000020000000000000000000000000000000000000000000000000000000000000000000000000000000000000000040000000000000000000008040000000000000000000000000000000000000000000000020000000000000000000800002000000000800000000010000000000000000000000000000000000000000000000000000000000000000000000000000000000000000000000000000000002000000000004000000000000000008000000002000000000000004000000000000000000008000000000000000020000000000000000000200000000000000000000000100000000000000000000000",
      "type": "0x2",
      "transactionHash": "0x63c820984207f6d2c30f18f8c4a6a992c5040652345f398deda9ccc1f232437f",
      "transactionIndex": "0xa",
      "blockHash": "0x7a993f6b93bdbabaf15fe8b8254053dbe90920bfd0ff1861a695a77451ad5b9e",
      "blockNumber": "0x751266",
      "gasUsed": "0x2ccb8",
      "effectiveGasPrice": "0xfe",
      "from": "0xcda2fdb452ff4f5d7ba1c3d5dfcc9cb926a5eb7d",
      "to": "0x79dfbed14077b8f2421eece5707a17b161094e6a",
      "contractAddress": null,
      "l1BaseFeeScalar": "0x186a0",
      "l1BlobBaseFee": "0x1",
      "l1BlobBaseFeeScalar": "0x95506",
      "l1Fee": "0x1a78cc67f5d",
      "l1GasPrice": "0x2a5ae0a65",
      "l1GasUsed": "0x640"
    },
    {
      "status": "0x1",
      "cumulativeGasUsed": "0x202c11",
      "logs": [
        {
          "address": "0x2e8af9c5922623058aa92a183b391e62cb6b2d12",
          "topics": [
            "0xddf252ad1be2c89b69c2b068fc378daa952ba7f163c4a11628f55a4df523b3ef",
            "0x0000000000000000000000000000000000000000000000000000000000000000",
            "0x000000000000000000000000cda2fdb452ff4f5d7ba1c3d5dfcc9cb926a5eb7d",
            "0x00000000000000000000000000000000000000000000000000000000000001c1"
          ],
          "data": "0x",
          "blockHash": "0x7a993f6b93bdbabaf15fe8b8254053dbe90920bfd0ff1861a695a77451ad5b9e",
          "blockNumber": "0x751266",
          "transactionHash": "0x0236c9432e3ebf67a60b94509df8ddd4c793f013f298f3915b0a8094fa3172f4",
          "transactionIndex": "0xb",
          "logIndex": "0x19",
          "removed": false
        },
        {
          "address": "0x2e8af9c5922623058aa92a183b391e62cb6b2d12",
          "topics": [
            "0xf8e1a15aba9398e019f0b49df1a4fde98ee17ae345cb5f6b5e2c27f5033e8ce7"
          ],
          "data": "0x00000000000000000000000000000000000000000000000000000000000001c1",
          "blockHash": "0x7a993f6b93bdbabaf15fe8b8254053dbe90920bfd0ff1861a695a77451ad5b9e",
          "blockNumber": "0x751266",
          "transactionHash": "0x0236c9432e3ebf67a60b94509df8ddd4c793f013f298f3915b0a8094fa3172f4",
          "transactionIndex": "0xb",
          "logIndex": "0x1a",
          "removed": false
        }
      ],
      "logsBloom": "0x00000000000000000000000000000000000000020000000000000000000000000000000000000000000000000000000000000000000000000000000000000000000000000000000000000008040000000000000800000000000000000000000000000020020000000000000000000800002000000000800000000010000000000000000000000000000000000000000000000000000000000000000020000000000000000000000000000000000000002000000000004000000000000000008000000002000000000000000000000000000000000000000000000000000020000000000000000000200000000000000000000000100000000000000000000000",
      "type": "0x2",
      "transactionHash": "0x0236c9432e3ebf67a60b94509df8ddd4c793f013f298f3915b0a8094fa3172f4",
      "transactionIndex": "0xb",
      "blockHash": "0x7a993f6b93bdbabaf15fe8b8254053dbe90920bfd0ff1861a695a77451ad5b9e",
      "blockNumber": "0x751266",
      "gasUsed": "0x2ccb8",
      "effectiveGasPrice": "0xfe",
      "from": "0xcda2fdb452ff4f5d7ba1c3d5dfcc9cb926a5eb7d",
      "to": "0x79dfbed14077b8f2421eece5707a17b161094e6a",
      "contractAddress": null,
      "l1BaseFeeScalar": "0x186a0",
      "l1BlobBaseFee": "0x1",
      "l1BlobBaseFeeScalar": "0x95506",
      "l1Fee": "0x1a78cc67f5d",
      "l1GasPrice": "0x2a5ae0a65",
      "l1GasUsed": "0x640"
    },
    {
      "status": "0x1",
      "cumulativeGasUsed": "0x22f8c9",
      "logs": [
        {
          "address": "0x2e8af9c5922623058aa92a183b391e62cb6b2d12",
          "topics": [
            "0xddf252ad1be2c89b69c2b068fc378daa952ba7f163c4a11628f55a4df523b3ef",
            "0x0000000000000000000000000000000000000000000000000000000000000000",
            "0x000000000000000000000000cda2fdb452ff4f5d7ba1c3d5dfcc9cb926a5eb7d",
            "0x00000000000000000000000000000000000000000000000000000000000001c2"
          ],
          "data": "0x",
          "blockHash": "0x7a993f6b93bdbabaf15fe8b8254053dbe90920bfd0ff1861a695a77451ad5b9e",
          "blockNumber": "0x751266",
          "transactionHash": "0xc262e0bb9ac111ce4d79f5d1835243d08b25287cbff04734b9753c699e48f61b",
          "transactionIndex": "0xc",
          "logIndex": "0x1b",
          "removed": false
        },
        {
          "address": "0x2e8af9c5922623058aa92a183b391e62cb6b2d12",
          "topics": [
            "0xf8e1a15aba9398e019f0b49df1a4fde98ee17ae345cb5f6b5e2c27f5033e8ce7"
          ],
          "data": "0x00000000000000000000000000000000000000000000000000000000000001c2",
          "blockHash": "0x7a993f6b93bdbabaf15fe8b8254053dbe90920bfd0ff1861a695a77451ad5b9e",
          "blockNumber": "0x751266",
          "transactionHash": "0xc262e0bb9ac111ce4d79f5d1835243d08b25287cbff04734b9753c699e48f61b",
          "transactionIndex": "0xc",
          "logIndex": "0x1c",
          "removed": false
        }
      ],
      "logsBloom": "0x00000000000000000002000000000000000000020000000000000000000000000000000000000000000000000000000000000000000000000400000000000000000000000000000000000008040000000000000000000000000000000000000000000000020000000000000000000800002000000000800000000010000000000000000000000100000000000000000000000000000000000000000000000000000000000000000000000000000000002000000000004000000000000000008000000002000000000000000000000000000000000000000000000000000020000000000000000000200000000000000000000000100000000000000000000000",
      "type": "0x2",
      "transactionHash": "0xc262e0bb9ac111ce4d79f5d1835243d08b25287cbff04734b9753c699e48f61b",
      "transactionIndex": "0xc",
      "blockHash": "0x7a993f6b93bdbabaf15fe8b8254053dbe90920bfd0ff1861a695a77451ad5b9e",
      "blockNumber": "0x751266",
      "gasUsed": "0x2ccb8",
      "effectiveGasPrice": "0xfe",
      "from": "0xcda2fdb452ff4f5d7ba1c3d5dfcc9cb926a5eb7d",
      "to": "0x79dfbed14077b8f2421eece5707a17b161094e6a",
      "contractAddress": null,
      "l1BaseFeeScalar": "0x186a0",
      "l1BlobBaseFee": "0x1",
      "l1BlobBaseFeeScalar": "0x95506",
      "l1Fee": "0x1a78cc67f5d",
      "l1GasPrice": "0x2a5ae0a65",
      "l1GasUsed": "0x640"
    },
    {
      "status": "0x1",
      "cumulativeGasUsed": "0x25c581",
      "logs": [
        {
          "address": "0x2e8af9c5922623058aa92a183b391e62cb6b2d12",
          "topics": [
            "0xddf252ad1be2c89b69c2b068fc378daa952ba7f163c4a11628f55a4df523b3ef",
            "0x0000000000000000000000000000000000000000000000000000000000000000",
            "0x000000000000000000000000cda2fdb452ff4f5d7ba1c3d5dfcc9cb926a5eb7d",
            "0x00000000000000000000000000000000000000000000000000000000000001c3"
          ],
          "data": "0x",
          "blockHash": "0x7a993f6b93bdbabaf15fe8b8254053dbe90920bfd0ff1861a695a77451ad5b9e",
          "blockNumber": "0x751266",
          "transactionHash": "0x7632bed9b30397d28b68351a55ac5dbd77e6c10805d3c66115fa5b165eeffa9f",
          "transactionIndex": "0xd",
          "logIndex": "0x1d",
          "removed": false
        },
        {
          "address": "0x2e8af9c5922623058aa92a183b391e62cb6b2d12",
          "topics": [
            "0xf8e1a15aba9398e019f0b49df1a4fde98ee17ae345cb5f6b5e2c27f5033e8ce7"
          ],
          "data": "0x00000000000000000000000000000000000000000000000000000000000001c3",
          "blockHash": "0x7a993f6b93bdbabaf15fe8b8254053dbe90920bfd0ff1861a695a77451ad5b9e",
          "blockNumber": "0x751266",
          "transactionHash": "0x7632bed9b30397d28b68351a55ac5dbd77e6c10805d3c66115fa5b165eeffa9f",
          "transactionIndex": "0xd",
          "logIndex": "0x1e",
          "removed": false
        }
      ],
      "logsBloom": "0x00000000000000000000000000000000000000020000000000000000000000000000000000000000000000000800000000000000000000000000000000000000000000000000000000000008040000000000000000000000000000000000000000000000020000000000000000000800002000000000800000000010000000000000000000000000000000000000000000000000000000000000000000000000000000000000000000000000000000002000000000004000000000000000008000000002000000000000000000000000000000000000000000000000000020000000000000000000200000000000080000000000100000000200000000000000",
      "type": "0x2",
      "transactionHash": "0x7632bed9b30397d28b68351a55ac5dbd77e6c10805d3c66115fa5b165eeffa9f",
      "transactionIndex": "0xd",
      "blockHash": "0x7a993f6b93bdbabaf15fe8b8254053dbe90920bfd0ff1861a695a77451ad5b9e",
      "blockNumber": "0x751266",
      "gasUsed": "0x2ccb8",
      "effectiveGasPrice": "0xfe",
      "from": "0xcda2fdb452ff4f5d7ba1c3d5dfcc9cb926a5eb7d",
      "to": "0x79dfbed14077b8f2421eece5707a17b161094e6a",
      "contractAddress": null,
      "l1BaseFeeScalar": "0x186a0",
      "l1BlobBaseFee": "0x1",
      "l1BlobBaseFeeScalar": "0x95506",
      "l1Fee": "0x1a78cc67f5d",
      "l1GasPrice": "0x2a5ae0a65",
      "l1GasUsed": "0x640"
    },
    {
      "status": "0x1",
      "cumulativeGasUsed": "0x289239",
      "logs": [
        {
          "address": "0x2e8af9c5922623058aa92a183b391e62cb6b2d12",
          "topics": [
            "0xddf252ad1be2c89b69c2b068fc378daa952ba7f163c4a11628f55a4df523b3ef",
            "0x0000000000000000000000000000000000000000000000000000000000000000",
            "0x000000000000000000000000cda2fdb452ff4f5d7ba1c3d5dfcc9cb926a5eb7d",
            "0x00000000000000000000000000000000000000000000000000000000000001c4"
          ],
          "data": "0x",
          "blockHash": "0x7a993f6b93bdbabaf15fe8b8254053dbe90920bfd0ff1861a695a77451ad5b9e",
          "blockNumber": "0x751266",
          "transactionHash": "0x5706552703f62955b21c559b62a0cf15c651a93f66379686bb43359352bfd22e",
          "transactionIndex": "0xe",
          "logIndex": "0x1f",
          "removed": false
        },
        {
          "address": "0x2e8af9c5922623058aa92a183b391e62cb6b2d12",
          "topics": [
            "0xf8e1a15aba9398e019f0b49df1a4fde98ee17ae345cb5f6b5e2c27f5033e8ce7"
          ],
          "data": "0x00000000000000000000000000000000000000000000000000000000000001c4",
          "blockHash": "0x7a993f6b93bdbabaf15fe8b8254053dbe90920bfd0ff1861a695a77451ad5b9e",
          "blockNumber": "0x751266",
          "transactionHash": "0x5706552703f62955b21c559b62a0cf15c651a93f66379686bb43359352bfd22e",
          "transactionIndex": "0xe",
          "logIndex": "0x20",
          "removed": false
        }
      ],
      "logsBloom": "0x00000000000000000000000000000000000000020000000000000000000000000000000000000000000000000000000000000000000000000000000000000000000000000000040000000008040000000000000000000000000000000000000000000000020000000000000000000800002000000000800004000010000000000000000000000000000000000000000000000000000000000000000000000000000000000000000800000000000000002000000000004000000000000000008000000002000000000000000000000000000000000000000000000000000020000000000000000000200000000000000000000000100000000000000000000000",
      "type": "0x2",
      "transactionHash": "0x5706552703f62955b21c559b62a0cf15c651a93f66379686bb43359352bfd22e",
      "transactionIndex": "0xe",
      "blockHash": "0x7a993f6b93bdbabaf15fe8b8254053dbe90920bfd0ff1861a695a77451ad5b9e",
      "blockNumber": "0x751266",
      "gasUsed": "0x2ccb8",
      "effectiveGasPrice": "0xfe",
      "from": "0xcda2fdb452ff4f5d7ba1c3d5dfcc9cb926a5eb7d",
      "to": "0x79dfbed14077b8f2421eece5707a17b161094e6a",
      "contractAddress": null,
      "l1BaseFeeScalar": "0x186a0",
      "l1BlobBaseFee": "0x1",
      "l1BlobBaseFeeScalar": "0x95506",
      "l1Fee": "0x1a78cc67f5d",
      "l1GasPrice": "0x2a5ae0a65",
      "l1GasUsed": "0x640"
    },
    {
      "status": "0x1",
      "cumulativeGasUsed": "0x2b5ef1",
      "logs": [
        {
          "address": "0x2e8af9c5922623058aa92a183b391e62cb6b2d12",
          "topics": [
            "0xddf252ad1be2c89b69c2b068fc378daa952ba7f163c4a11628f55a4df523b3ef",
            "0x0000000000000000000000000000000000000000000000000000000000000000",
            "0x000000000000000000000000cda2fdb452ff4f5d7ba1c3d5dfcc9cb926a5eb7d",
            "0x00000000000000000000000000000000000000000000000000000000000001c5"
          ],
          "data": "0x",
          "blockHash": "0x7a993f6b93bdbabaf15fe8b8254053dbe90920bfd0ff1861a695a77451ad5b9e",
          "blockNumber": "0x751266",
          "transactionHash": "0x34cb8c80bc4a14fa5aa67ed993f53d4c551bf0c032ceac61fbda569a8576e9be",
          "transactionIndex": "0xf",
          "logIndex": "0x21",
          "removed": false
        },
        {
          "address": "0x2e8af9c5922623058aa92a183b391e62cb6b2d12",
          "topics": [
            "0xf8e1a15aba9398e019f0b49df1a4fde98ee17ae345cb5f6b5e2c27f5033e8ce7"
          ],
          "data": "0x00000000000000000000000000000000000000000000000000000000000001c5",
          "blockHash": "0x7a993f6b93bdbabaf15fe8b8254053dbe90920bfd0ff1861a695a77451ad5b9e",
          "blockNumber": "0x751266",
          "transactionHash": "0x34cb8c80bc4a14fa5aa67ed993f53d4c551bf0c032ceac61fbda569a8576e9be",
          "transactionIndex": "0xf",
          "logIndex": "0x22",
          "removed": false
        }
      ],
      "logsBloom": "0x00000000000000000000000000000000000000020000000000000000000000000000000000000000000000000000000000000000000000000000000000000000000000000000000000000008040000000000000000000000000000000000000000000000020000000000000000000800002000000000800000000010000000000000000000000000000000000000000000000000000000000000000000000000000000000000000000000000000000002000000000004000000000000000008000000002000000000000000000008000000000000000000000000000000024000000001000000000200000000000000000000000100000000000000000000000",
      "type": "0x2",
      "transactionHash": "0x34cb8c80bc4a14fa5aa67ed993f53d4c551bf0c032ceac61fbda569a8576e9be",
      "transactionIndex": "0xf",
      "blockHash": "0x7a993f6b93bdbabaf15fe8b8254053dbe90920bfd0ff1861a695a77451ad5b9e",
      "blockNumber": "0x751266",
      "gasUsed": "0x2ccb8",
      "effectiveGasPrice": "0xfe",
      "from": "0xcda2fdb452ff4f5d7ba1c3d5dfcc9cb926a5eb7d",
      "to": "0x79dfbed14077b8f2421eece5707a17b161094e6a",
      "contractAddress": null,
      "l1BaseFeeScalar": "0x186a0",
      "l1BlobBaseFee": "0x1",
      "l1BlobBaseFeeScalar": "0x95506",
      "l1Fee": "0x1a78cc67f5d",
      "l1GasPrice": "0x2a5ae0a65",
      "l1GasUsed": "0x640"
    },
    {
      "status": "0x1",
      "cumulativeGasUsed": "0x2e2ba9",
      "logs": [
        {
          "address": "0x2e8af9c5922623058aa92a183b391e62cb6b2d12",
          "topics": [
            "0xddf252ad1be2c89b69c2b068fc378daa952ba7f163c4a11628f55a4df523b3ef",
            "0x0000000000000000000000000000000000000000000000000000000000000000",
            "0x000000000000000000000000cda2fdb452ff4f5d7ba1c3d5dfcc9cb926a5eb7d",
            "0x00000000000000000000000000000000000000000000000000000000000001c6"
          ],
          "data": "0x",
          "blockHash": "0x7a993f6b93bdbabaf15fe8b8254053dbe90920bfd0ff1861a695a77451ad5b9e",
          "blockNumber": "0x751266",
          "transactionHash": "0x8b835a77ec429a46f73546eec319c5622cb7bff2180eed124365beaa04e9d712",
          "transactionIndex": "0x10",
          "logIndex": "0x23",
          "removed": false
        },
        {
          "address": "0x2e8af9c5922623058aa92a183b391e62cb6b2d12",
          "topics": [
            "0xf8e1a15aba9398e019f0b49df1a4fde98ee17ae345cb5f6b5e2c27f5033e8ce7"
          ],
          "data": "0x00000000000000000000000000000000000000000000000000000000000001c6",
          "blockHash": "0x7a993f6b93bdbabaf15fe8b8254053dbe90920bfd0ff1861a695a77451ad5b9e",
          "blockNumber": "0x751266",
          "transactionHash": "0x8b835a77ec429a46f73546eec319c5622cb7bff2180eed124365beaa04e9d712",
          "transactionIndex": "0x10",
          "logIndex": "0x24",
          "removed": false
        }
      ],
      "logsBloom": "0x00000000000000000000000000000000000000020000000000000000000000000000000000000000000000000000000000000000000000000000000000000000000000000000000000000008040000000000000000400000000000000000000000000000020000000000000000000800002200000000800000000010000000000000000000000000000000000000000000000000000000000000000000000000000000000000000000000000000000002000000000004000000000000000008000000002000002000000000000000000000000000000000000000000000020000000000000000000200000000000000000000000100000000000000000000000",
      "type": "0x2",
      "transactionHash": "0x8b835a77ec429a46f73546eec319c5622cb7bff2180eed124365beaa04e9d712",
      "transactionIndex": "0x10",
      "blockHash": "0x7a993f6b93bdbabaf15fe8b8254053dbe90920bfd0ff1861a695a77451ad5b9e",
      "blockNumber": "0x751266",
      "gasUsed": "0x2ccb8",
      "effectiveGasPrice": "0xfe",
      "from": "0xcda2fdb452ff4f5d7ba1c3d5dfcc9cb926a5eb7d",
      "to": "0x79dfbed14077b8f2421eece5707a17b161094e6a",
      "contractAddress": null,
      "l1BaseFeeScalar": "0x186a0",
      "l1BlobBaseFee": "0x1",
      "l1BlobBaseFeeScalar": "0x95506",
      "l1Fee": "0x1a78cc67f5d",
      "l1GasPrice": "0x2a5ae0a65",
      "l1GasUsed": "0x640"
    },
    {
      "status": "0x1",
      "cumulativeGasUsed": "0x30f861",
      "logs": [
        {
          "address": "0x2e8af9c5922623058aa92a183b391e62cb6b2d12",
          "topics": [
            "0xddf252ad1be2c89b69c2b068fc378daa952ba7f163c4a11628f55a4df523b3ef",
            "0x0000000000000000000000000000000000000000000000000000000000000000",
            "0x000000000000000000000000cda2fdb452ff4f5d7ba1c3d5dfcc9cb926a5eb7d",
            "0x00000000000000000000000000000000000000000000000000000000000001c7"
          ],
          "data": "0x",
          "blockHash": "0x7a993f6b93bdbabaf15fe8b8254053dbe90920bfd0ff1861a695a77451ad5b9e",
          "blockNumber": "0x751266",
          "transactionHash": "0xecd4c24ecded4b4ddb11e6d9f29ba79b84d2dc473bbdba2906dc3480e09c1936",
          "transactionIndex": "0x11",
          "logIndex": "0x25",
          "removed": false
        },
        {
          "address": "0x2e8af9c5922623058aa92a183b391e62cb6b2d12",
          "topics": [
            "0xf8e1a15aba9398e019f0b49df1a4fde98ee17ae345cb5f6b5e2c27f5033e8ce7"
          ],
          "data": "0x00000000000000000000000000000000000000000000000000000000000001c7",
          "blockHash": "0x7a993f6b93bdbabaf15fe8b8254053dbe90920bfd0ff1861a695a77451ad5b9e",
          "blockNumber": "0x751266",
          "transactionHash": "0xecd4c24ecded4b4ddb11e6d9f29ba79b84d2dc473bbdba2906dc3480e09c1936",
          "transactionIndex": "0x11",
          "logIndex": "0x26",
          "removed": false
        }
      ],
      "logsBloom": "0x00000000000000000000004000000000000020020000000000000000000000000000000000000000000000000000000000000000000000000000000000000000000000000000000000000008040000000000000000000000000000000000000000000000020000000000000000000800002000000000800000000010000000000000000000000000000000000000000000000000000000000000000000000200000000000000000000000000000000002000000000004000000000000000008000000002000000000000000000000000000000000000000000000000000020000000000000000000200000000000000000000000100000000000000000000000",
      "type": "0x2",
      "transactionHash": "0xecd4c24ecded4b4ddb11e6d9f29ba79b84d2dc473bbdba2906dc3480e09c1936",
      "transactionIndex": "0x11",
      "blockHash": "0x7a993f6b93bdbabaf15fe8b8254053dbe90920bfd0ff1861a695a77451ad5b9e",
      "blockNumber": "0x751266",
      "gasUsed": "0x2ccb8",
      "effectiveGasPrice": "0xfe",
      "from": "0xcda2fdb452ff4f5d7ba1c3d5dfcc9cb926a5eb7d",
      "to": "0x79dfbed14077b8f2421eece5707a17b161094e6a",
      "contractAddress": null,
      "l1BaseFeeScalar": "0x186a0",
      "l1BlobBaseFee": "0x1",
      "l1BlobBaseFeeScalar": "0x95506",
      "l1Fee": "0x1a78cc67f5d",
      "l1GasPrice": "0x2a5ae0a65",
      "l1GasUsed": "0x640"
    },
    {
      "status": "0x1",
      "cumulativeGasUsed": "0x33c519",
      "logs": [
        {
          "address": "0x2e8af9c5922623058aa92a183b391e62cb6b2d12",
          "topics": [
            "0xddf252ad1be2c89b69c2b068fc378daa952ba7f163c4a11628f55a4df523b3ef",
            "0x0000000000000000000000000000000000000000000000000000000000000000",
            "0x000000000000000000000000cda2fdb452ff4f5d7ba1c3d5dfcc9cb926a5eb7d",
            "0x00000000000000000000000000000000000000000000000000000000000001c8"
          ],
          "data": "0x",
          "blockHash": "0x7a993f6b93bdbabaf15fe8b8254053dbe90920bfd0ff1861a695a77451ad5b9e",
          "blockNumber": "0x751266",
          "transactionHash": "0xbf62402ed350757e595579a6c0d6f9c0191b7ec1cbd79eb2bea09e34759e26a7",
          "transactionIndex": "0x12",
          "logIndex": "0x27",
          "removed": false
        },
        {
          "address": "0x2e8af9c5922623058aa92a183b391e62cb6b2d12",
          "topics": [
            "0xf8e1a15aba9398e019f0b49df1a4fde98ee17ae345cb5f6b5e2c27f5033e8ce7"
          ],
          "data": "0x00000000000000000000000000000000000000000000000000000000000001c8",
          "blockHash": "0x7a993f6b93bdbabaf15fe8b8254053dbe90920bfd0ff1861a695a77451ad5b9e",
          "blockNumber": "0x751266",
          "transactionHash": "0xbf62402ed350757e595579a6c0d6f9c0191b7ec1cbd79eb2bea09e34759e26a7",
          "transactionIndex": "0x12",
          "logIndex": "0x28",
          "removed": false
        }
      ],
      "logsBloom": "0x00000000000000000000000000000000000000020000000000000000000000000000000000000000000000000000000000000000000000000000000000000000000000000000000000000008040000000000000000000000000000000000000000000000420000000000000000000800002000000000800000000010000000000000000000000000000010000000000000000000000000000000000000000000000000000000000000000000000000002000000000004000000000000000008000000002000000000000000000000000000000000000000000000000000020000000000000000000200000000000000000000000100000000000100000000000",
      "type": "0x2",
      "transactionHash": "0xbf62402ed350757e595579a6c0d6f9c0191b7ec1cbd79eb2bea09e34759e26a7",
      "transactionIndex": "0x12",
      "blockHash": "0x7a993f6b93bdbabaf15fe8b8254053dbe90920bfd0ff1861a695a77451ad5b9e",
      "blockNumber": "0x751266",
      "gasUsed": "0x2ccb8",
      "effectiveGasPrice": "0xfe",
      "from": "0xcda2fdb452ff4f5d7ba1c3d5dfcc9cb926a5eb7d",
      "to": "0x79dfbed14077b8f2421eece5707a17b161094e6a",
      "contractAddress": null,
      "l1BaseFeeScalar": "0x186a0",
      "l1BlobBaseFee": "0x1",
      "l1BlobBaseFeeScalar": "0x95506",
      "l1Fee": "0x1a78cc67f5d",
      "l1GasPrice": "0x2a5ae0a65",
      "l1GasUsed": "0x640"
    },
    {
      "status": "0x1",
      "cumulativeGasUsed": "0x3691d1",
      "logs": [
        {
          "address": "0x2e8af9c5922623058aa92a183b391e62cb6b2d12",
          "topics": [
            "0xddf252ad1be2c89b69c2b068fc378daa952ba7f163c4a11628f55a4df523b3ef",
            "0x0000000000000000000000000000000000000000000000000000000000000000",
            "0x000000000000000000000000cda2fdb452ff4f5d7ba1c3d5dfcc9cb926a5eb7d",
            "0x00000000000000000000000000000000000000000000000000000000000001c9"
          ],
          "data": "0x",
          "blockHash": "0x7a993f6b93bdbabaf15fe8b8254053dbe90920bfd0ff1861a695a77451ad5b9e",
          "blockNumber": "0x751266",
          "transactionHash": "0xe2506c134c9823df7ff35d0cc82d17c1f6f7e2b9089cfae8af552f0d6145f4b3",
          "transactionIndex": "0x13",
          "logIndex": "0x29",
          "removed": false
        },
        {
          "address": "0x2e8af9c5922623058aa92a183b391e62cb6b2d12",
          "topics": [
            "0xf8e1a15aba9398e019f0b49df1a4fde98ee17ae345cb5f6b5e2c27f5033e8ce7"
          ],
          "data": "0x00000000000000000000000000000000000000000000000000000000000001c9",
          "blockHash": "0x7a993f6b93bdbabaf15fe8b8254053dbe90920bfd0ff1861a695a77451ad5b9e",
          "blockNumber": "0x751266",
          "transactionHash": "0xe2506c134c9823df7ff35d0cc82d17c1f6f7e2b9089cfae8af552f0d6145f4b3",
          "transactionIndex": "0x13",
          "logIndex": "0x2a",
          "removed": false
        }
      ],
      "logsBloom": "0x00000000000000000000000000000000000000020000000000000000000000000000000000000000002000000000000000000000000000000000000000000000000000000000000000000008040000000000000000000000000000000000000000000000020000000100000000000800002000000000800000000010000000000000000000000000000000000000000000000000000000000000000000000000000000000000000000000000000000002000000000004000000000000000088000000002000000000000000000000000000000000000000000000000000020000000000000000000200000000000000000000000100000000000000000000000",
      "type": "0x2",
      "transactionHash": "0xe2506c134c9823df7ff35d0cc82d17c1f6f7e2b9089cfae8af552f0d6145f4b3",
      "transactionIndex": "0x13",
      "blockHash": "0x7a993f6b93bdbabaf15fe8b8254053dbe90920bfd0ff1861a695a77451ad5b9e",
      "blockNumber": "0x751266",
      "gasUsed": "0x2ccb8",
      "effectiveGasPrice": "0xfe",
      "from": "0xcda2fdb452ff4f5d7ba1c3d5dfcc9cb926a5eb7d",
      "to": "0x79dfbed14077b8f2421eece5707a17b161094e6a",
      "contractAddress": null,
      "l1BaseFeeScalar": "0x186a0",
      "l1BlobBaseFee": "0x1",
      "l1BlobBaseFeeScalar": "0x95506",
      "l1Fee": "0x1a78cc67f5d",
      "l1GasPrice": "0x2a5ae0a65",
      "l1GasUsed": "0x640"
    },
    {
      "status": "0x1",
      "cumulativeGasUsed": "0x398d3",
      "logs": [
        {
          "address": "0x2e8af9c5922623058aa92a183b391e62cb6b2d12",
          "topics": [
            "0xddf252ad1be2c89b69c2b068fc378daa952ba7f163c4a11628f55a4df523b3ef",
            "0x0000000000000000000000000000000000000000000000000000000000000000",
            "0x000000000000000000000000cda2fdb452ff4f5d7ba1c3d5dfcc9cb926a5eb7d",
            "0x00000000000000000000000000000000000000000000000000000000000001ca"
          ],
          "data": "0x",
          "blockHash": "0x0c9b6401fc638db97a9b706f50916730769ccd1a451ff4d40b621db7ae4c2549",
          "blockNumber": "0x751267",
          "transactionHash": "0x7a6f9189d6796d67fa298cf4864d5ae947469ba98150dca4246c3e7346dc6b81",
          "transactionIndex": "0x1",
          "logIndex": "0x0",
          "removed": false
        },
        {
          "address": "0x2e8af9c5922623058aa92a183b391e62cb6b2d12",
          "topics": [
            "0xf8e1a15aba9398e019f0b49df1a4fde98ee17ae345cb5f6b5e2c27f5033e8ce7"
          ],
          "data": "0x00000000000000000000000000000000000000000000000000000000000001ca",
          "blockHash": "0x0c9b6401fc638db97a9b706f50916730769ccd1a451ff4d40b621db7ae4c2549",
          "blockNumber": "0x751267",
          "transactionHash": "0x7a6f9189d6796d67fa298cf4864d5ae947469ba98150dca4246c3e7346dc6b81",
          "transactionIndex": "0x1",
          "logIndex": "0x1",
          "removed": false
        }
      ],
      "logsBloom": "0x00000000000000000000400000000000000000020000000000000000000000000000000000000000000000000000000000000000000000000000000000000000000000000000000000000008040000000000000000000000000000000000000000000000020000000000000000000800002000000000800000000010000000000000000000000000000000000000000000000000000000000000000000000000000000000000000000800000000100002000000000004000000000000000008000000002000000000000000000000000000000000000000000000000000020000000000000000000200000000000000000000000100000000000000000000000",
      "type": "0x2",
      "transactionHash": "0x7a6f9189d6796d67fa298cf4864d5ae947469ba98150dca4246c3e7346dc6b81",
      "transactionIndex": "0x1",
      "blockHash": "0x0c9b6401fc638db97a9b706f50916730769ccd1a451ff4d40b621db7ae4c2549",
      "blockNumber": "0x751267",
      "gasUsed": "0x2ccb8",
      "effectiveGasPrice": "0xfe",
      "from": "0xcda2fdb452ff4f5d7ba1c3d5dfcc9cb926a5eb7d",
      "to": "0x79dfbed14077b8f2421eece5707a17b161094e6a",
      "contractAddress": null,
      "l1BaseFeeScalar": "0x186a0",
      "l1BlobBaseFee": "0x1",
      "l1BlobBaseFeeScalar": "0x95506",
      "l1Fee": "0x1a0e7b9565d",
      "l1GasPrice": "0x29b0c5bbd",
      "l1GasUsed": "0x640"
    },
    {
      "status": "0x1",
      "cumulativeGasUsed": "0x6658b",
      "logs": [
        {
          "address": "0x2e8af9c5922623058aa92a183b391e62cb6b2d12",
          "topics": [
            "0xddf252ad1be2c89b69c2b068fc378daa952ba7f163c4a11628f55a4df523b3ef",
            "0x0000000000000000000000000000000000000000000000000000000000000000",
            "0x000000000000000000000000cda2fdb452ff4f5d7ba1c3d5dfcc9cb926a5eb7d",
            "0x00000000000000000000000000000000000000000000000000000000000001cb"
          ],
          "data": "0x",
          "blockHash": "0x0c9b6401fc638db97a9b706f50916730769ccd1a451ff4d40b621db7ae4c2549",
          "blockNumber": "0x751267",
          "transactionHash": "0xb4d71610e29f9660d56b53ebb437eec81656fe8d284a0eb64c39345e223246e0",
          "transactionIndex": "0x2",
          "logIndex": "0x2",
          "removed": false
        },
        {
          "address": "0x2e8af9c5922623058aa92a183b391e62cb6b2d12",
          "topics": [
            "0xf8e1a15aba9398e019f0b49df1a4fde98ee17ae345cb5f6b5e2c27f5033e8ce7"
          ],
          "data": "0x00000000000000000000000000000000000000000000000000000000000001cb",
          "blockHash": "0x0c9b6401fc638db97a9b706f50916730769ccd1a451ff4d40b621db7ae4c2549",
          "blockNumber": "0x751267",
          "transactionHash": "0xb4d71610e29f9660d56b53ebb437eec81656fe8d284a0eb64c39345e223246e0",
          "transactionIndex": "0x2",
          "logIndex": "0x3",
          "removed": false
        }
      ],
      "logsBloom": "0x00000000000000000000000000000000000000020000000000000000000000000000000000002000000000000000000000000000000000000000000000000000000000000000000000000008040000000000000000000000000000000000000000000000020000000000000000000800002000000000800000000010000000000000000000000000000000000000000000000000000000000000000000000000000000000000000000000000000000002000000000004000000000000000008000000002000000000000000000000000000000000000000000000000000020000000000000000000280000000000000000000000100000000000000000001000",
      "type": "0x2",
      "transactionHash": "0xb4d71610e29f9660d56b53ebb437eec81656fe8d284a0eb64c39345e223246e0",
      "transactionIndex": "0x2",
      "blockHash": "0x0c9b6401fc638db97a9b706f50916730769ccd1a451ff4d40b621db7ae4c2549",
      "blockNumber": "0x751267",
      "gasUsed": "0x2ccb8",
      "effectiveGasPrice": "0xfe",
      "from": "0xcda2fdb452ff4f5d7ba1c3d5dfcc9cb926a5eb7d",
      "to": "0x79dfbed14077b8f2421eece5707a17b161094e6a",
      "contractAddress": null,
      "l1BaseFeeScalar": "0x186a0",
      "l1BlobBaseFee": "0x1",
      "l1BlobBaseFeeScalar": "0x95506",
      "l1Fee": "0x1a0e7b9565d",
      "l1GasPrice": "0x29b0c5bbd",
      "l1GasUsed": "0x640"
    },
    {
      "status": "0x1",
      "cumulativeGasUsed": "0x93243",
      "logs": [
        {
          "address": "0x2e8af9c5922623058aa92a183b391e62cb6b2d12",
          "topics": [
            "0xddf252ad1be2c89b69c2b068fc378daa952ba7f163c4a11628f55a4df523b3ef",
            "0x0000000000000000000000000000000000000000000000000000000000000000",
            "0x000000000000000000000000cda2fdb452ff4f5d7ba1c3d5dfcc9cb926a5eb7d",
            "0x00000000000000000000000000000000000000000000000000000000000001cc"
          ],
          "data": "0x",
          "blockHash": "0x0c9b6401fc638db97a9b706f50916730769ccd1a451ff4d40b621db7ae4c2549",
          "blockNumber": "0x751267",
          "transactionHash": "0x3e128759d7b8ec0567bfe174c9c3a2438bd8ac50c9c1e927dbefd180ac2b79ab",
          "transactionIndex": "0x3",
          "logIndex": "0x4",
          "removed": false
        },
        {
          "address": "0x2e8af9c5922623058aa92a183b391e62cb6b2d12",
          "topics": [
            "0xf8e1a15aba9398e019f0b49df1a4fde98ee17ae345cb5f6b5e2c27f5033e8ce7"
          ],
          "data": "0x00000000000000000000000000000000000000000000000000000000000001cc",
          "blockHash": "0x0c9b6401fc638db97a9b706f50916730769ccd1a451ff4d40b621db7ae4c2549",
          "blockNumber": "0x751267",
          "transactionHash": "0x3e128759d7b8ec0567bfe174c9c3a2438bd8ac50c9c1e927dbefd180ac2b79ab",
          "transactionIndex": "0x3",
          "logIndex": "0x5",
          "removed": false
        }
      ],
      "logsBloom": "0x00000000000000000000000000400000000000020000000000000000000000000000000000000000000000000000000000000000000000000000000000000000000000000000000000000008040000000000000000000000000000000000000000000000020000000000000000000800002000000000800000000010000000000000000000200000000000000000000000000000000000000000000000000000000000000000000000000000000000002000000000004000008000000000008000000002000000000000000000000000000000000000000000000000000020000000000000000000200000000000000000000000100000000000000000000000",
      "type": "0x2",
      "transactionHash": "0x3e128759d7b8ec0567bfe174c9c3a2438bd8ac50c9c1e927dbefd180ac2b79ab",
      "transactionIndex": "0x3",
      "blockHash": "0x0c9b6401fc638db97a9b706f50916730769ccd1a451ff4d40b621db7ae4c2549",
      "blockNumber": "0x751267",
      "gasUsed": "0x2ccb8",
      "effectiveGasPrice": "0xfe",
      "from": "0xcda2fdb452ff4f5d7ba1c3d5dfcc9cb926a5eb7d",
      "to": "0x79dfbed14077b8f2421eece5707a17b161094e6a",
      "contractAddress": null,
      "l1BaseFeeScalar": "0x186a0",
      "l1BlobBaseFee": "0x1",
      "l1BlobBaseFeeScalar": "0x95506",
      "l1Fee": "0x1a0e7b9565d",
      "l1GasPrice": "0x29b0c5bbd",
      "l1GasUsed": "0x640"
    },
    {
      "status": "0x1",
      "cumulativeGasUsed": "0xbfefb",
      "logs": [
        {
          "address": "0x2e8af9c5922623058aa92a183b391e62cb6b2d12",
          "topics": [
            "0xddf252ad1be2c89b69c2b068fc378daa952ba7f163c4a11628f55a4df523b3ef",
            "0x0000000000000000000000000000000000000000000000000000000000000000",
            "0x000000000000000000000000cda2fdb452ff4f5d7ba1c3d5dfcc9cb926a5eb7d",
            "0x00000000000000000000000000000000000000000000000000000000000001cd"
          ],
          "data": "0x",
          "blockHash": "0x0c9b6401fc638db97a9b706f50916730769ccd1a451ff4d40b621db7ae4c2549",
          "blockNumber": "0x751267",
          "transactionHash": "0x706e338238aa76a760777f170d5138dd77ec47731fa64c7c7288270d0cf6b2c7",
          "transactionIndex": "0x4",
          "logIndex": "0x6",
          "removed": false
        },
        {
          "address": "0x2e8af9c5922623058aa92a183b391e62cb6b2d12",
          "topics": [
            "0xf8e1a15aba9398e019f0b49df1a4fde98ee17ae345cb5f6b5e2c27f5033e8ce7"
          ],
          "data": "0x00000000000000000000000000000000000000000000000000000000000001cd",
          "blockHash": "0x0c9b6401fc638db97a9b706f50916730769ccd1a451ff4d40b621db7ae4c2549",
          "blockNumber": "0x751267",
          "transactionHash": "0x706e338238aa76a760777f170d5138dd77ec47731fa64c7c7288270d0cf6b2c7",
          "transactionIndex": "0x4",
          "logIndex": "0x7",
          "removed": false
        }
      ],
      "logsBloom": "0x00000000000000000000000000000000000000020000000000000000000000000000000000000000000000000000000000000000000000000000000000000000000000000000000000000008040010000000000000000000000000000000000000000000020000000000000000000800002000000000800000000010000000000000000000000000000000000000000000000000000000000000000000000000000000000000000000000000000000002000000000004000000000000000008000000002000000008000000000000000000000000000000000000080000020000000000000000000200000000000000000000000100000000000000000000000",
      "type": "0x2",
      "transactionHash": "0x706e338238aa76a760777f170d5138dd77ec47731fa64c7c7288270d0cf6b2c7",
      "transactionIndex": "0x4",
      "blockHash": "0x0c9b6401fc638db97a9b706f50916730769ccd1a451ff4d40b621db7ae4c2549",
      "blockNumber": "0x751267",
      "gasUsed": "0x2ccb8",
      "effectiveGasPrice": "0xfe",
      "from": "0xcda2fdb452ff4f5d7ba1c3d5dfcc9cb926a5eb7d",
      "to": "0x79dfbed14077b8f2421eece5707a17b161094e6a",
      "contractAddress": null,
      "l1BaseFeeScalar": "0x186a0",
      "l1BlobBaseFee": "0x1",
      "l1BlobBaseFeeScalar": "0x95506",
      "l1Fee": "0x1a0e7b9565d",
      "l1GasPrice": "0x29b0c5bbd",
      "l1GasUsed": "0x640"
    },
    {
      "status": "0x1",
      "cumulativeGasUsed": "0xecbb3",
      "logs": [
        {
          "address": "0x2e8af9c5922623058aa92a183b391e62cb6b2d12",
          "topics": [
            "0xddf252ad1be2c89b69c2b068fc378daa952ba7f163c4a11628f55a4df523b3ef",
            "0x0000000000000000000000000000000000000000000000000000000000000000",
            "0x000000000000000000000000cda2fdb452ff4f5d7ba1c3d5dfcc9cb926a5eb7d",
            "0x00000000000000000000000000000000000000000000000000000000000001ce"
          ],
          "data": "0x",
          "blockHash": "0x0c9b6401fc638db97a9b706f50916730769ccd1a451ff4d40b621db7ae4c2549",
          "blockNumber": "0x751267",
          "transactionHash": "0xdf575514ad0acc8a4a50cbadecabef3185056ba2db1e8048f4f5c3e52d66ee9d",
          "transactionIndex": "0x5",
          "logIndex": "0x8",
          "removed": false
        },
        {
          "address": "0x2e8af9c5922623058aa92a183b391e62cb6b2d12",
          "topics": [
            "0xf8e1a15aba9398e019f0b49df1a4fde98ee17ae345cb5f6b5e2c27f5033e8ce7"
          ],
          "data": "0x00000000000000000000000000000000000000000000000000000000000001ce",
          "blockHash": "0x0c9b6401fc638db97a9b706f50916730769ccd1a451ff4d40b621db7ae4c2549",
          "blockNumber": "0x751267",
          "transactionHash": "0xdf575514ad0acc8a4a50cbadecabef3185056ba2db1e8048f4f5c3e52d66ee9d",
          "transactionIndex": "0x5",
          "logIndex": "0x9",
          "removed": false
        }
      ],
      "logsBloom": "0x00000000000000000000000000000000000000020800000000000000000000000000000000000000000000000000000000000000000000000000000000000000000000000000000000000008040000000000800000000000000000000000000000000000020000000000000000000800002000000000800000000010000000000000000000000000000000000000000000000000000000000000000000000000000000000000000000000000000000002000000000004000000000000000008000000002000000000000000000000000000000000400000000000000000020000000000000000000200000000000000000000000100000000000000000000000",
      "type": "0x2",
      "transactionHash": "0xdf575514ad0acc8a4a50cbadecabef3185056ba2db1e8048f4f5c3e52d66ee9d",
      "transactionIndex": "0x5",
      "blockHash": "0x0c9b6401fc638db97a9b706f50916730769ccd1a451ff4d40b621db7ae4c2549",
      "blockNumber": "0x751267",
      "gasUsed": "0x2ccb8",
      "effectiveGasPrice": "0xfe",
      "from": "0xcda2fdb452ff4f5d7ba1c3d5dfcc9cb926a5eb7d",
      "to": "0x79dfbed14077b8f2421eece5707a17b161094e6a",
      "contractAddress": null,
      "l1BaseFeeScalar": "0x186a0",
      "l1BlobBaseFee": "0x1",
      "l1BlobBaseFeeScalar": "0x95506",
      "l1Fee": "0x1a0e7b9565d",
      "l1GasPrice": "0x29b0c5bbd",
      "l1GasUsed": "0x640"
    },
    {
      "status": "0x1",
      "cumulativeGasUsed": "0x11986b",
      "logs": [
        {
          "address": "0x2e8af9c5922623058aa92a183b391e62cb6b2d12",
          "topics": [
            "0xddf252ad1be2c89b69c2b068fc378daa952ba7f163c4a11628f55a4df523b3ef",
            "0x0000000000000000000000000000000000000000000000000000000000000000",
            "0x000000000000000000000000cda2fdb452ff4f5d7ba1c3d5dfcc9cb926a5eb7d",
            "0x00000000000000000000000000000000000000000000000000000000000001cf"
          ],
          "data": "0x",
          "blockHash": "0x0c9b6401fc638db97a9b706f50916730769ccd1a451ff4d40b621db7ae4c2549",
          "blockNumber": "0x751267",
          "transactionHash": "0x4c49f45fb686891ae28e09ccfea67db87e33c1b11a1a86e04827ed4fa08aab1e",
          "transactionIndex": "0x6",
          "logIndex": "0xa",
          "removed": false
        },
        {
          "address": "0x2e8af9c5922623058aa92a183b391e62cb6b2d12",
          "topics": [
            "0xf8e1a15aba9398e019f0b49df1a4fde98ee17ae345cb5f6b5e2c27f5033e8ce7"
          ],
          "data": "0x00000000000000000000000000000000000000000000000000000000000001cf",
          "blockHash": "0x0c9b6401fc638db97a9b706f50916730769ccd1a451ff4d40b621db7ae4c2549",
          "blockNumber": "0x751267",
          "transactionHash": "0x4c49f45fb686891ae28e09ccfea67db87e33c1b11a1a86e04827ed4fa08aab1e",
          "transactionIndex": "0x6",
          "logIndex": "0xb",
          "removed": false
        }
      ],
      "logsBloom": "0x00000000000000000000000000000000000000020000000000000000000000000000000000000000000000000000000000000000000000000000000000000000000000000000000000000008040000000000000000000000000000000000000000000000020000000000000000000800002000000000800000000010000000000000000000000008000000000000000000000000080000000000000000000000000000000000000000000000000000002000000000004000000000000000008000000002000000000000000000000000000000000000000010000000000020000000000000000000200000000000000000000000100000000000000000000000",
      "type": "0x2",
      "transactionHash": "0x4c49f45fb686891ae28e09ccfea67db87e33c1b11a1a86e04827ed4fa08aab1e",
      "transactionIndex": "0x6",
      "blockHash": "0x0c9b6401fc638db97a9b706f50916730769ccd1a451ff4d40b621db7ae4c2549",
      "blockNumber": "0x751267",
      "gasUsed": "0x2ccb8",
      "effectiveGasPrice": "0xfe",
      "from": "0xcda2fdb452ff4f5d7ba1c3d5dfcc9cb926a5eb7d",
      "to": "0x79dfbed14077b8f2421eece5707a17b161094e6a",
      "contractAddress": null,
      "l1BaseFeeScalar": "0x186a0",
      "l1BlobBaseFee": "0x1",
      "l1BlobBaseFeeScalar": "0x95506",
      "l1Fee": "0x1a0e7b9565d",
      "l1GasPrice": "0x29b0c5bbd",
      "l1GasUsed": "0x640"
    },
    {
      "status": "0x1",
      "cumulativeGasUsed": "0x146523",
      "logs": [
        {
          "address": "0x2e8af9c5922623058aa92a183b391e62cb6b2d12",
          "topics": [
            "0xddf252ad1be2c89b69c2b068fc378daa952ba7f163c4a11628f55a4df523b3ef",
            "0x0000000000000000000000000000000000000000000000000000000000000000",
            "0x000000000000000000000000cda2fdb452ff4f5d7ba1c3d5dfcc9cb926a5eb7d",
            "0x00000000000000000000000000000000000000000000000000000000000001d0"
          ],
          "data": "0x",
          "blockHash": "0x0c9b6401fc638db97a9b706f50916730769ccd1a451ff4d40b621db7ae4c2549",
          "blockNumber": "0x751267",
          "transactionHash": "0xcf07b495e27e2c0fa5db01ae71d709f754b560315dd356616b75e9f264f1b994",
          "transactionIndex": "0x7",
          "logIndex": "0xc",
          "removed": false
        },
        {
          "address": "0x2e8af9c5922623058aa92a183b391e62cb6b2d12",
          "topics": [
            "0xf8e1a15aba9398e019f0b49df1a4fde98ee17ae345cb5f6b5e2c27f5033e8ce7"
          ],
          "data": "0x00000000000000000000000000000000000000000000000000000000000001d0",
          "blockHash": "0x0c9b6401fc638db97a9b706f50916730769ccd1a451ff4d40b621db7ae4c2549",
          "blockNumber": "0x751267",
          "transactionHash": "0xcf07b495e27e2c0fa5db01ae71d709f754b560315dd356616b75e9f264f1b994",
          "transactionIndex": "0x7",
          "logIndex": "0xd",
          "removed": false
        }
      ],
      "logsBloom": "0x00000000000000000000000000000000000000020000000000000000000000000000000000000000000000000000000000000000000000000000000000000000000000000000000000000008040000000000000000000000000000000000000000000000020000000000000000000800002000000000800000008010000000000000000000000000000000000000000000000000000000000000000000000000000000000000000000000000000000002000000000004000000000000002008000000002000000000000000000000000000000000000000000000000000020000000000000000100200000000000000000000000100000000000000000000000",
      "type": "0x2",
      "transactionHash": "0xcf07b495e27e2c0fa5db01ae71d709f754b560315dd356616b75e9f264f1b994",
      "transactionIndex": "0x7",
      "blockHash": "0x0c9b6401fc638db97a9b706f50916730769ccd1a451ff4d40b621db7ae4c2549",
      "blockNumber": "0x751267",
      "gasUsed": "0x2ccb8",
      "effectiveGasPrice": "0xfe",
      "from": "0xcda2fdb452ff4f5d7ba1c3d5dfcc9cb926a5eb7d",
      "to": "0x79dfbed14077b8f2421eece5707a17b161094e6a",
      "contractAddress": null,
      "l1BaseFeeScalar": "0x186a0",
      "l1BlobBaseFee": "0x1",
      "l1BlobBaseFeeScalar": "0x95506",
      "l1Fee": "0x1a0e7b9565d",
      "l1GasPrice": "0x29b0c5bbd",
      "l1GasUsed": "0x640"
    },
    {
      "status": "0x1",
      "cumulativeGasUsed": "0x1731db",
      "logs": [
        {
          "address": "0x2e8af9c5922623058aa92a183b391e62cb6b2d12",
          "topics": [
            "0xddf252ad1be2c89b69c2b068fc378daa952ba7f163c4a11628f55a4df523b3ef",
            "0x0000000000000000000000000000000000000000000000000000000000000000",
            "0x000000000000000000000000cda2fdb452ff4f5d7ba1c3d5dfcc9cb926a5eb7d",
            "0x00000000000000000000000000000000000000000000000000000000000001d1"
          ],
          "data": "0x",
          "blockHash": "0x0c9b6401fc638db97a9b706f50916730769ccd1a451ff4d40b621db7ae4c2549",
          "blockNumber": "0x751267",
          "transactionHash": "0xd9978460ea31d1bd43be000ddc9beb318044ea64455be8d9d42d95690cd3bf33",
          "transactionIndex": "0x8",
          "logIndex": "0xe",
          "removed": false
        },
        {
          "address": "0x2e8af9c5922623058aa92a183b391e62cb6b2d12",
          "topics": [
            "0xf8e1a15aba9398e019f0b49df1a4fde98ee17ae345cb5f6b5e2c27f5033e8ce7"
          ],
          "data": "0x00000000000000000000000000000000000000000000000000000000000001d1",
          "blockHash": "0x0c9b6401fc638db97a9b706f50916730769ccd1a451ff4d40b621db7ae4c2549",
          "blockNumber": "0x751267",
          "transactionHash": "0xd9978460ea31d1bd43be000ddc9beb318044ea64455be8d9d42d95690cd3bf33",
          "transactionIndex": "0x8",
          "logIndex": "0xf",
          "removed": false
        }
      ],
      "logsBloom": "0x00000000000000000000000000000000000000020000000000000000000000200000000000000000000000000000000000000000000000000000000000000000000000000000000000000008040000000000000000000000000000000000000000000000020000000000000000000800002000000000800000000010000000000000000000000000000000000000000040000000000000000000000000000000000000000000000000000000000000002000000000004000000000000000008000000002000000000000000000000000000000000000000000000000010020000000000000000000200000000000000000000000100000000000000000000000",
      "type": "0x2",
      "transactionHash": "0xd9978460ea31d1bd43be000ddc9beb318044ea64455be8d9d42d95690cd3bf33",
      "transactionIndex": "0x8",
      "blockHash": "0x0c9b6401fc638db97a9b706f50916730769ccd1a451ff4d40b621db7ae4c2549",
      "blockNumber": "0x751267",
      "gasUsed": "0x2ccb8",
      "effectiveGasPrice": "0xfe",
      "from": "0xcda2fdb452ff4f5d7ba1c3d5dfcc9cb926a5eb7d",
      "to": "0x79dfbed14077b8f2421eece5707a17b161094e6a",
      "contractAddress": null,
      "l1BaseFeeScalar": "0x186a0",
      "l1BlobBaseFee": "0x1",
      "l1BlobBaseFeeScalar": "0x95506",
      "l1Fee": "0x1a0e7b9565d",
      "l1GasPrice": "0x29b0c5bbd",
      "l1GasUsed": "0x640"
    },
    {
      "status": "0x1",
      "cumulativeGasUsed": "0x19fe93",
      "logs": [
        {
          "address": "0x2e8af9c5922623058aa92a183b391e62cb6b2d12",
          "topics": [
            "0xddf252ad1be2c89b69c2b068fc378daa952ba7f163c4a11628f55a4df523b3ef",
            "0x0000000000000000000000000000000000000000000000000000000000000000",
            "0x000000000000000000000000cda2fdb452ff4f5d7ba1c3d5dfcc9cb926a5eb7d",
            "0x00000000000000000000000000000000000000000000000000000000000001d2"
          ],
          "data": "0x",
          "blockHash": "0x0c9b6401fc638db97a9b706f50916730769ccd1a451ff4d40b621db7ae4c2549",
          "blockNumber": "0x751267",
          "transactionHash": "0x60c56ab2166e1c31134e071ba4bb364754375c4e6c8783580124d9db4660a2bf",
          "transactionIndex": "0x9",
          "logIndex": "0x10",
          "removed": false
        },
        {
          "address": "0x2e8af9c5922623058aa92a183b391e62cb6b2d12",
          "topics": [
            "0xf8e1a15aba9398e019f0b49df1a4fde98ee17ae345cb5f6b5e2c27f5033e8ce7"
          ],
          "data": "0x00000000000000000000000000000000000000000000000000000000000001d2",
          "blockHash": "0x0c9b6401fc638db97a9b706f50916730769ccd1a451ff4d40b621db7ae4c2549",
          "blockNumber": "0x751267",
          "transactionHash": "0x60c56ab2166e1c31134e071ba4bb364754375c4e6c8783580124d9db4660a2bf",
          "transactionIndex": "0x9",
          "logIndex": "0x11",
          "removed": false
        }
      ],
      "logsBloom": "0x00000000000000000000000000000000000000020000000000000000000000000000000000000000000000000000000000000000000000000000000000000000000000000000000000000008040000000000000000000000000000000000000000000000020000000000000000000800002800000000800000000010000000000000000000000000000000000000000000000000000000000000000000000000000000000000000000000000000000002000000000004000000000000000008000000002000000000000000020000000000000000000000000000000000020000000000000000000200000000100000000000000100000000000000000000000",
      "type": "0x2",
      "transactionHash": "0x60c56ab2166e1c31134e071ba4bb364754375c4e6c8783580124d9db4660a2bf",
      "transactionIndex": "0x9",
      "blockHash": "0x0c9b6401fc638db97a9b706f50916730769ccd1a451ff4d40b621db7ae4c2549",
      "blockNumber": "0x751267",
      "gasUsed": "0x2ccb8",
      "effectiveGasPrice": "0xfe",
      "from": "0xcda2fdb452ff4f5d7ba1c3d5dfcc9cb926a5eb7d",
      "to": "0x79dfbed14077b8f2421eece5707a17b161094e6a",
      "contractAddress": null,
      "l1BaseFeeScalar": "0x186a0",
      "l1BlobBaseFee": "0x1",
      "l1BlobBaseFeeScalar": "0x95506",
      "l1Fee": "0x1a0e7b9565d",
      "l1GasPrice": "0x29b0c5bbd",
      "l1GasUsed": "0x640"
    },
    {
      "status": "0x1",
      "cumulativeGasUsed": "0x1ccb4b",
      "logs": [
        {
          "address": "0x2e8af9c5922623058aa92a183b391e62cb6b2d12",
          "topics": [
            "0xddf252ad1be2c89b69c2b068fc378daa952ba7f163c4a11628f55a4df523b3ef",
            "0x0000000000000000000000000000000000000000000000000000000000000000",
            "0x000000000000000000000000cda2fdb452ff4f5d7ba1c3d5dfcc9cb926a5eb7d",
            "0x00000000000000000000000000000000000000000000000000000000000001d3"
          ],
          "data": "0x",
          "blockHash": "0x0c9b6401fc638db97a9b706f50916730769ccd1a451ff4d40b621db7ae4c2549",
          "blockNumber": "0x751267",
          "transactionHash": "0x61761a30a050e24f619976f3b8bc70d6ff212ed918447ccaa0c5e8e4a86a7deb",
          "transactionIndex": "0xa",
          "logIndex": "0x12",
          "removed": false
        },
        {
          "address": "0x2e8af9c5922623058aa92a183b391e62cb6b2d12",
          "topics": [
            "0xf8e1a15aba9398e019f0b49df1a4fde98ee17ae345cb5f6b5e2c27f5033e8ce7"
          ],
          "data": "0x00000000000000000000000000000000000000000000000000000000000001d3",
          "blockHash": "0x0c9b6401fc638db97a9b706f50916730769ccd1a451ff4d40b621db7ae4c2549",
          "blockNumber": "0x751267",
          "transactionHash": "0x61761a30a050e24f619976f3b8bc70d6ff212ed918447ccaa0c5e8e4a86a7deb",
          "transactionIndex": "0xa",
          "logIndex": "0x13",
          "removed": false
        }
      ],
      "logsBloom": "0x00000000000000000000000000000000000000020000020000000000000000000000000000000000000000000000000000000000000000000000000000000000000000000000000000000008040000000000000000000000000000000000000000000000020000000000000000000800002000000000800000000010000000000000000000000000000000000000000000000000000000000200000000000000000000000000000000000000000000002000000000004000000000000000008000000002000000000000000000000000000000000100000000000000000020000000000000000000200000000000000000000000100000000000000000000000",
      "type": "0x2",
      "transactionHash": "0x61761a30a050e24f619976f3b8bc70d6ff212ed918447ccaa0c5e8e4a86a7deb",
      "transactionIndex": "0xa",
      "blockHash": "0x0c9b6401fc638db97a9b706f50916730769ccd1a451ff4d40b621db7ae4c2549",
      "blockNumber": "0x751267",
      "gasUsed": "0x2ccb8",
      "effectiveGasPrice": "0xfe",
      "from": "0xcda2fdb452ff4f5d7ba1c3d5dfcc9cb926a5eb7d",
      "to": "0x79dfbed14077b8f2421eece5707a17b161094e6a",
      "contractAddress": null,
      "l1BaseFeeScalar": "0x186a0",
      "l1BlobBaseFee": "0x1",
      "l1BlobBaseFeeScalar": "0x95506",
      "l1Fee": "0x1a0e7b9565d",
      "l1GasPrice": "0x29b0c5bbd",
      "l1GasUsed": "0x640"
    },
    {
      "status": "0x1",
      "cumulativeGasUsed": "0x1f9803",
      "logs": [
        {
          "address": "0x2e8af9c5922623058aa92a183b391e62cb6b2d12",
          "topics": [
            "0xddf252ad1be2c89b69c2b068fc378daa952ba7f163c4a11628f55a4df523b3ef",
            "0x0000000000000000000000000000000000000000000000000000000000000000",
            "0x000000000000000000000000cda2fdb452ff4f5d7ba1c3d5dfcc9cb926a5eb7d",
            "0x00000000000000000000000000000000000000000000000000000000000001d4"
          ],
          "data": "0x",
          "blockHash": "0x0c9b6401fc638db97a9b706f50916730769ccd1a451ff4d40b621db7ae4c2549",
          "blockNumber": "0x751267",
          "transactionHash": "0x016022747d57f873506f0ad4b3dfc7453f5ac34c57375bc3b5830d7a5b9e46ff",
          "transactionIndex": "0xb",
          "logIndex": "0x14",
          "removed": false
        },
        {
          "address": "0x2e8af9c5922623058aa92a183b391e62cb6b2d12",
          "topics": [
            "0xf8e1a15aba9398e019f0b49df1a4fde98ee17ae345cb5f6b5e2c27f5033e8ce7"
          ],
          "data": "0x00000000000000000000000000000000000000000000000000000000000001d4",
          "blockHash": "0x0c9b6401fc638db97a9b706f50916730769ccd1a451ff4d40b621db7ae4c2549",
          "blockNumber": "0x751267",
          "transactionHash": "0x016022747d57f873506f0ad4b3dfc7453f5ac34c57375bc3b5830d7a5b9e46ff",
          "transactionIndex": "0xb",
          "logIndex": "0x15",
          "removed": false
        }
      ],
      "logsBloom": "0x00000000000000000000000000000000000000020000000000000000000000000000000000000000000000000000000800000000000000000000000000000000000000000000000000000008040000000000000400000000000000000000000000000000020000000000000000000800002000000000800000000010000000000000000000000000000000000000000000000000000000000000000000000000000000000000000004000000000000002000000000004000000000000000008000000002000000000000000000000000000000000000000000000000000020000000000000000000200000000000000000000000100000000000000000000000",
      "type": "0x2",
      "transactionHash": "0x016022747d57f873506f0ad4b3dfc7453f5ac34c57375bc3b5830d7a5b9e46ff",
      "transactionIndex": "0xb",
      "blockHash": "0x0c9b6401fc638db97a9b706f50916730769ccd1a451ff4d40b621db7ae4c2549",
      "blockNumber": "0x751267",
      "gasUsed": "0x2ccb8",
      "effectiveGasPrice": "0xfe",
      "from": "0xcda2fdb452ff4f5d7ba1c3d5dfcc9cb926a5eb7d",
      "to": "0x79dfbed14077b8f2421eece5707a17b161094e6a",
      "contractAddress": null,
      "l1BaseFeeScalar": "0x186a0",
      "l1BlobBaseFee": "0x1",
      "l1BlobBaseFeeScalar": "0x95506",
      "l1Fee": "0x1a0e7b9565d",
      "l1GasPrice": "0x29b0c5bbd",
      "l1GasUsed": "0x640"
    },
    {
      "status": "0x1",
      "cumulativeGasUsed": "0x2264bb",
      "logs": [
        {
          "address": "0x2e8af9c5922623058aa92a183b391e62cb6b2d12",
          "topics": [
            "0xddf252ad1be2c89b69c2b068fc378daa952ba7f163c4a11628f55a4df523b3ef",
            "0x0000000000000000000000000000000000000000000000000000000000000000",
            "0x000000000000000000000000cda2fdb452ff4f5d7ba1c3d5dfcc9cb926a5eb7d",
            "0x00000000000000000000000000000000000000000000000000000000000001d5"
          ],
          "data": "0x",
          "blockHash": "0x0c9b6401fc638db97a9b706f50916730769ccd1a451ff4d40b621db7ae4c2549",
          "blockNumber": "0x751267",
          "transactionHash": "0xebf8cf6ad59547fa1a7f41b0c96c5aa53f208e0859a0c9278679adf954333d11",
          "transactionIndex": "0xc",
          "logIndex": "0x16",
          "removed": false
        },
        {
          "address": "0x2e8af9c5922623058aa92a183b391e62cb6b2d12",
          "topics": [
            "0xf8e1a15aba9398e019f0b49df1a4fde98ee17ae345cb5f6b5e2c27f5033e8ce7"
          ],
          "data": "0x00000000000000000000000000000000000000000000000000000000000001d5",
          "blockHash": "0x0c9b6401fc638db97a9b706f50916730769ccd1a451ff4d40b621db7ae4c2549",
          "blockNumber": "0x751267",
          "transactionHash": "0xebf8cf6ad59547fa1a7f41b0c96c5aa53f208e0859a0c9278679adf954333d11",
          "transactionIndex": "0xc",
          "logIndex": "0x17",
          "removed": false
        }
      ],
      "logsBloom": "0x00000000000000000000000000000000000000020000000000020000000000000000000200000000000000000000000000000000000000000000000000000000000000000000000000000008040000002000000000000000000000000000000000000000020000000000000000000800002000000000800000000010000000000000000000000000000000000000000000000000000000000000000000000000000000000000000000000000000000002000000000004000000000000000008000000002000000000000000000000000000000000000000000000000000020000000000000000000200000000000000000000000100000000000000000000000",
      "type": "0x2",
      "transactionHash": "0xebf8cf6ad59547fa1a7f41b0c96c5aa53f208e0859a0c9278679adf954333d11",
      "transactionIndex": "0xc",
      "blockHash": "0x0c9b6401fc638db97a9b706f50916730769ccd1a451ff4d40b621db7ae4c2549",
      "blockNumber": "0x751267",
      "gasUsed": "0x2ccb8",
      "effectiveGasPrice": "0xfe",
      "from": "0xcda2fdb452ff4f5d7ba1c3d5dfcc9cb926a5eb7d",
      "to": "0x79dfbed14077b8f2421eece5707a17b161094e6a",
      "contractAddress": null,
      "l1BaseFeeScalar": "0x186a0",
      "l1BlobBaseFee": "0x1",
      "l1BlobBaseFeeScalar": "0x95506",
      "l1Fee": "0x1a0e7b9565d",
      "l1GasPrice": "0x29b0c5bbd",
      "l1GasUsed": "0x640"
    }
  ],
  "libraries": [],
  "pending": [],
  "returns": {},
  "timestamp": 1728206837,
  "chain": 60808,
  "commit": "7d9679b"
}