{
  "transactions": [
    {
      "hash": "0xda6b964657344b0086657ead96c2b18740e77a81fdac96864890f9e11a10ff33",
      "transactionType": "CALL",
      "contractName": null,
      "contractAddress": "0x79dfbed14077b8f2421eece5707a17b161094e6a",
      "function": "wlMint(address)",
      "arguments": [
        "0x0000000000000000000000000000000000000000"
      ],
      "transaction": {
        "from": "0xcda2fdb452ff4f5d7ba1c3d5dfcc9cb926a5eb7d",
        "to": "0x79dfbed14077b8f2421eece5707a17b161094e6a",
        "gas": "0x3ddf7",
        "value": "0x0",
        "input": "0xc517b4a50000000000000000000000000000000000000000000000000000000000000000",
        "nonce": "0x1d4a",
        "chainId": "0xed88"
      },
      "additionalContracts": [],
      "isFixedGasLimit": false
    },
    {
      "hash": "0x0bba85bd2381079a514830f6ccbfcc5b07e9db46950dcaca1f684f44f2489dab",
      "transactionType": "CALL",
      "contractName": null,
      "contractAddress": "0x79dfbed14077b8f2421eece5707a17b161094e6a",
      "function": "wlMint(address)",
      "arguments": [
        "0x0000000000000000000000000000000000000000"
      ],
      "transaction": {
        "from": "0xcda2fdb452ff4f5d7ba1c3d5dfcc9cb926a5eb7d",
        "to": "0x79dfbed14077b8f2421eece5707a17b161094e6a",
        "gas": "0x3ddf7",
        "value": "0x0",
        "input": "0xc517b4a50000000000000000000000000000000000000000000000000000000000000000",
        "nonce": "0x1d4b",
        "chainId": "0xed88"
      },
      "additionalContracts": [],
      "isFixedGasLimit": false
    },
    {
      "hash": "0xd6823aeceef2f553352645b0014c87a25f810032a5487eb139e4d756b60c1026",
      "transactionType": "CALL",
      "contractName": null,
      "contractAddress": "0x79dfbed14077b8f2421eece5707a17b161094e6a",
      "function": "wlMint(address)",
      "arguments": [
        "0x0000000000000000000000000000000000000000"
      ],
      "transaction": {
        "from": "0xcda2fdb452ff4f5d7ba1c3d5dfcc9cb926a5eb7d",
        "to": "0x79dfbed14077b8f2421eece5707a17b161094e6a",
        "gas": "0x3ddf7",
        "value": "0x0",
        "input": "0xc517b4a50000000000000000000000000000000000000000000000000000000000000000",
        "nonce": "0x1d4c",
        "chainId": "0xed88"
      },
      "additionalContracts": [],
      "isFixedGasLimit": false
    },
    {
      "hash": "0x792eb450f9114f39a9760cc58e03495265a14164617c92673ce1e51bb3ad20cf",
      "transactionType": "CALL",
      "contractName": null,
      "contractAddress": "0x79dfbed14077b8f2421eece5707a17b161094e6a",
      "function": "wlMint(address)",
      "arguments": [
        "0x0000000000000000000000000000000000000000"
      ],
      "transaction": {
        "from": "0xcda2fdb452ff4f5d7ba1c3d5dfcc9cb926a5eb7d",
        "to": "0x79dfbed14077b8f2421eece5707a17b161094e6a",
        "gas": "0x3ddf7",
        "value": "0x0",
        "input": "0xc517b4a50000000000000000000000000000000000000000000000000000000000000000",
        "nonce": "0x1d4d",
        "chainId": "0xed88"
      },
      "additionalContracts": [],
      "isFixedGasLimit": false
    },
    {
      "hash": "0xb86e19889a044bde36bcb415655936284c1ed2ce41b46208ea3d2775d1da28dd",
      "transactionType": "CALL",
      "contractName": null,
      "contractAddress": "0x79dfbed14077b8f2421eece5707a17b161094e6a",
      "function": "wlMint(address)",
      "arguments": [
        "0x0000000000000000000000000000000000000000"
      ],
      "transaction": {
        "from": "0xcda2fdb452ff4f5d7ba1c3d5dfcc9cb926a5eb7d",
        "to": "0x79dfbed14077b8f2421eece5707a17b161094e6a",
        "gas": "0x3ddf7",
        "value": "0x0",
        "input": "0xc517b4a50000000000000000000000000000000000000000000000000000000000000000",
        "nonce": "0x1d4e",
        "chainId": "0xed88"
      },
      "additionalContracts": [],
      "isFixedGasLimit": false
    },
    {
      "hash": "0x3fdd3952661cae59bd06247b323754d8b7558b3785dfce0a7a8977fafb497151",
      "transactionType": "CALL",
      "contractName": null,
      "contractAddress": "0x79dfbed14077b8f2421eece5707a17b161094e6a",
      "function": "wlMint(address)",
      "arguments": [
        "0x0000000000000000000000000000000000000000"
      ],
      "transaction": {
        "from": "0xcda2fdb452ff4f5d7ba1c3d5dfcc9cb926a5eb7d",
        "to": "0x79dfbed14077b8f2421eece5707a17b161094e6a",
        "gas": "0x3ddf7",
        "value": "0x0",
        "input": "0xc517b4a50000000000000000000000000000000000000000000000000000000000000000",
        "nonce": "0x1d4f",
        "chainId": "0xed88"
      },
      "additionalContracts": [],
      "isFixedGasLimit": false
    },
    {
      "hash": "0xa11fb4ab5fa155ee053c527a95a896c9c8d28b6b32a646c71e26c32af0eef367",
      "transactionType": "CALL",
      "contractName": null,
      "contractAddress": "0x79dfbed14077b8f2421eece5707a17b161094e6a",
      "function": "wlMint(address)",
      "arguments": [
        "0x0000000000000000000000000000000000000000"
      ],
      "transaction": {
        "from": "0xcda2fdb452ff4f5d7ba1c3d5dfcc9cb926a5eb7d",
        "to": "0x79dfbed14077b8f2421eece5707a17b161094e6a",
        "gas": "0x3ddf7",
        "value": "0x0",
        "input": "0xc517b4a50000000000000000000000000000000000000000000000000000000000000000",
        "nonce": "0x1d50",
        "chainId": "0xed88"
      },
      "additionalContracts": [],
      "isFixedGasLimit": false
    },
    {
      "hash": "0x197ae959bc9f1cd3f1e68b21ca0c1a1b72df54bd8df5fa8731bbcf16a0e83b97",
      "transactionType": "CALL",
      "contractName": null,
      "contractAddress": "0x79dfbed14077b8f2421eece5707a17b161094e6a",
      "function": "wlMint(address)",
      "arguments": [
        "0x0000000000000000000000000000000000000000"
      ],
      "transaction": {
        "from": "0xcda2fdb452ff4f5d7ba1c3d5dfcc9cb926a5eb7d",
        "to": "0x79dfbed14077b8f2421eece5707a17b161094e6a",
        "gas": "0x3ddf7",
        "value": "0x0",
        "input": "0xc517b4a50000000000000000000000000000000000000000000000000000000000000000",
        "nonce": "0x1d51",
        "chainId": "0xed88"
      },
      "additionalContracts": [],
      "isFixedGasLimit": false
    },
    {
      "hash": "0x80b6470cb5dbb2db851a3285771bfaf1d20504d42dcb963bf9f80b264a04b82b",
      "transactionType": "CALL",
      "contractName": null,
      "contractAddress": "0x79dfbed14077b8f2421eece5707a17b161094e6a",
      "function": "wlMint(address)",
      "arguments": [
        "0x0000000000000000000000000000000000000000"
      ],
      "transaction": {
        "from": "0xcda2fdb452ff4f5d7ba1c3d5dfcc9cb926a5eb7d",
        "to": "0x79dfbed14077b8f2421eece5707a17b161094e6a",
        "gas": "0x3ddf7",
        "value": "0x0",
        "input": "0xc517b4a50000000000000000000000000000000000000000000000000000000000000000",
        "nonce": "0x1d52",
        "chainId": "0xed88"
      },
      "additionalContracts": [],
      "isFixedGasLimit": false
    },
    {
      "hash": "0xa43675efa6eb1816059c279bea48ad1f772f66e47acf838cf6bdecf576f83a74",
      "transactionType": "CALL",
      "contractName": null,
      "contractAddress": "0x79dfbed14077b8f2421eece5707a17b161094e6a",
      "function": "wlMint(address)",
      "arguments": [
        "0x0000000000000000000000000000000000000000"
      ],
      "transaction": {
        "from": "0xcda2fdb452ff4f5d7ba1c3d5dfcc9cb926a5eb7d",
        "to": "0x79dfbed14077b8f2421eece5707a17b161094e6a",
        "gas": "0x3ddf7",
        "value": "0x0",
        "input": "0xc517b4a50000000000000000000000000000000000000000000000000000000000000000",
        "nonce": "0x1d53",
        "chainId": "0xed88"
      },
      "additionalContracts": [],
      "isFixedGasLimit": false
    },
    {
      "hash": "0xbb2314784860a54ee822a8badb858eac269510854eb20efc64463ca64b8150a4",
      "transactionType": "CALL",
      "contractName": null,
      "contractAddress": "0x79dfbed14077b8f2421eece5707a17b161094e6a",
      "function": "wlMint(address)",
      "arguments": [
        "0x0000000000000000000000000000000000000000"
      ],
      "transaction": {
        "from": "0xcda2fdb452ff4f5d7ba1c3d5dfcc9cb926a5eb7d",
        "to": "0x79dfbed14077b8f2421eece5707a17b161094e6a",
        "gas": "0x3ddf7",
        "value": "0x0",
        "input": "0xc517b4a50000000000000000000000000000000000000000000000000000000000000000",
        "nonce": "0x1d54",
        "chainId": "0xed88"
      },
      "additionalContracts": [],
      "isFixedGasLimit": false
    },
    {
      "hash": "0x32be16432dfc7da4f22cd24d6ebda39477b138839a79d7f6b41fbf0168afbbba",
      "transactionType": "CALL",
      "contractName": null,
      "contractAddress": "0x79dfbed14077b8f2421eece5707a17b161094e6a",
      "function": "wlMint(address)",
      "arguments": [
        "0x0000000000000000000000000000000000000000"
      ],
      "transaction": {
        "from": "0xcda2fdb452ff4f5d7ba1c3d5dfcc9cb926a5eb7d",
        "to": "0x79dfbed14077b8f2421eece5707a17b161094e6a",
        "gas": "0x3ddf7",
        "value": "0x0",
        "input": "0xc517b4a50000000000000000000000000000000000000000000000000000000000000000",
        "nonce": "0x1d55",
        "chainId": "0xed88"
      },
      "additionalContracts": [],
      "isFixedGasLimit": false
    },
    {
      "hash": "0x1f7777ec472f093d77924687f79c2c6f5d47e33d77845e905204f7bc21cd52eb",
      "transactionType": "CALL",
      "contractName": null,
      "contractAddress": "0x79dfbed14077b8f2421eece5707a17b161094e6a",
      "function": "wlMint(address)",
      "arguments": [
        "0x0000000000000000000000000000000000000000"
      ],
      "transaction": {
        "from": "0xcda2fdb452ff4f5d7ba1c3d5dfcc9cb926a5eb7d",
        "to": "0x79dfbed14077b8f2421eece5707a17b161094e6a",
        "gas": "0x3ddf7",
        "value": "0x0",
        "input": "0xc517b4a50000000000000000000000000000000000000000000000000000000000000000",
        "nonce": "0x1d56",
        "chainId": "0xed88"
      },
      "additionalContracts": [],
      "isFixedGasLimit": false
    },
    {
      "hash": "0xa96eb903f53a41577ade56078cc03e0a6b2c9749fbbff9eaa704826292a05fbf",
      "transactionType": "CALL",
      "contractName": null,
      "contractAddress": "0x79dfbed14077b8f2421eece5707a17b161094e6a",
      "function": "wlMint(address)",
      "arguments": [
        "0x0000000000000000000000000000000000000000"
      ],
      "transaction": {
        "from": "0xcda2fdb452ff4f5d7ba1c3d5dfcc9cb926a5eb7d",
        "to": "0x79dfbed14077b8f2421eece5707a17b161094e6a",
        "gas": "0x3ddf7",
        "value": "0x0",
        "input": "0xc517b4a50000000000000000000000000000000000000000000000000000000000000000",
        "nonce": "0x1d57",
        "chainId": "0xed88"
      },
      "additionalContracts": [],
      "isFixedGasLimit": false
    },
    {
      "hash": "0x931c8f688c29c29330b054e326fa03b96b3f77c163ce168bd9a269d7301f1b36",
      "transactionType": "CALL",
      "contractName": null,
      "contractAddress": "0x79dfbed14077b8f2421eece5707a17b161094e6a",
      "function": "wlMint(address)",
      "arguments": [
        "0x0000000000000000000000000000000000000000"
      ],
      "transaction": {
        "from": "0xcda2fdb452ff4f5d7ba1c3d5dfcc9cb926a5eb7d",
        "to": "0x79dfbed14077b8f2421eece5707a17b161094e6a",
        "gas": "0x3ddf7",
        "value": "0x0",
        "input": "0xc517b4a50000000000000000000000000000000000000000000000000000000000000000",
        "nonce": "0x1d58",
        "chainId": "0xed88"
      },
      "additionalContracts": [],
      "isFixedGasLimit": false
    },
    {
      "hash": "0xdd0fd7d063aad37df53cfeec7e73565df068fbc38e86feda9531b367f3d4976d",
      "transactionType": "CALL",
      "contractName": null,
      "contractAddress": "0x79dfbed14077b8f2421eece5707a17b161094e6a",
      "function": "wlMint(address)",
      "arguments": [
        "0x0000000000000000000000000000000000000000"
      ],
      "transaction": {
        "from": "0xcda2fdb452ff4f5d7ba1c3d5dfcc9cb926a5eb7d",
        "to": "0x79dfbed14077b8f2421eece5707a17b161094e6a",
        "gas": "0x3ddf7",
        "value": "0x0",
        "input": "0xc517b4a50000000000000000000000000000000000000000000000000000000000000000",
        "nonce": "0x1d59",
        "chainId": "0xed88"
      },
      "additionalContracts": [],
      "isFixedGasLimit": false
    },
    {
      "hash": "0xc6f37a0e34f257dd72997eb0c86f32df376aac62c66d6c23e2aa73c568df2fc4",
      "transactionType": "CALL",
      "contractName": null,
      "contractAddress": "0x79dfbed14077b8f2421eece5707a17b161094e6a",
      "function": "wlMint(address)",
      "arguments": [
        "0x0000000000000000000000000000000000000000"
      ],
      "transaction": {
        "from": "0xcda2fdb452ff4f5d7ba1c3d5dfcc9cb926a5eb7d",
        "to": "0x79dfbed14077b8f2421eece5707a17b161094e6a",
        "gas": "0x3ddf7",
        "value": "0x0",
        "input": "0xc517b4a50000000000000000000000000000000000000000000000000000000000000000",
        "nonce": "0x1d5a",
        "chainId": "0xed88"
      },
      "additionalContracts": [],
      "isFixedGasLimit": false
    },
    {
      "hash": "0x7a654661daac7d59f553e8e751264901acc0d013cd7cf2b04ce098daa96396aa",
      "transactionType": "CALL",
      "contractName": null,
      "contractAddress": "0x79dfbed14077b8f2421eece5707a17b161094e6a",
      "function": "wlMint(address)",
      "arguments": [
        "0x0000000000000000000000000000000000000000"
      ],
      "transaction": {
        "from": "0xcda2fdb452ff4f5d7ba1c3d5dfcc9cb926a5eb7d",
        "to": "0x79dfbed14077b8f2421eece5707a17b161094e6a",
        "gas": "0x3ddf7",
        "value": "0x0",
        "input": "0xc517b4a50000000000000000000000000000000000000000000000000000000000000000",
        "nonce": "0x1d5b",
        "chainId": "0xed88"
      },
      "additionalContracts": [],
      "isFixedGasLimit": false
    },
    {
      "hash": "0x91e4432089c73d1b063aeda46eca1bdbc69324a7168369fc49a53882d1f0f4f9",
      "transactionType": "CALL",
      "contractName": null,
      "contractAddress": "0x79dfbed14077b8f2421eece5707a17b161094e6a",
      "function": "wlMint(address)",
      "arguments": [
        "0x0000000000000000000000000000000000000000"
      ],
      "transaction": {
        "from": "0xcda2fdb452ff4f5d7ba1c3d5dfcc9cb926a5eb7d",
        "to": "0x79dfbed14077b8f2421eece5707a17b161094e6a",
        "gas": "0x3ddf7",
        "value": "0x0",
        "input": "0xc517b4a50000000000000000000000000000000000000000000000000000000000000000",
        "nonce": "0x1d5c",
        "chainId": "0xed88"
      },
      "additionalContracts": [],
      "isFixedGasLimit": false
    },
    {
      "hash": "0xe3c8a0d70e979a263220456bef2fecee0a6f5b344ebb2cda36119c381fdec42d",
      "transactionType": "CALL",
      "contractName": null,
      "contractAddress": "0x79dfbed14077b8f2421eece5707a17b161094e6a",
      "function": "wlMint(address)",
      "arguments": [
        "0x0000000000000000000000000000000000000000"
      ],
      "transaction": {
        "from": "0xcda2fdb452ff4f5d7ba1c3d5dfcc9cb926a5eb7d",
        "to": "0x79dfbed14077b8f2421eece5707a17b161094e6a",
        "gas": "0x3ddf7",
        "value": "0x0",
        "input": "0xc517b4a50000000000000000000000000000000000000000000000000000000000000000",
        "nonce": "0x1d5d",
        "chainId": "0xed88"
      },
      "additionalContracts": [],
      "isFixedGasLimit": false
    },
    {
      "hash": "0x625d11654c9bae6c092c1a260d661d0d08b9cd58712833c8130cb5f17053e06a",
      "transactionType": "CALL",
      "contractName": null,
      "contractAddress": "0x79dfbed14077b8f2421eece5707a17b161094e6a",
      "function": "wlMint(address)",
      "arguments": [
        "0x0000000000000000000000000000000000000000"
      ],
      "transaction": {
        "from": "0xcda2fdb452ff4f5d7ba1c3d5dfcc9cb926a5eb7d",
        "to": "0x79dfbed14077b8f2421eece5707a17b161094e6a",
        "gas": "0x3ddf7",
        "value": "0x0",
        "input": "0xc517b4a50000000000000000000000000000000000000000000000000000000000000000",
        "nonce": "0x1d5e",
        "chainId": "0xed88"
      },
      "additionalContracts": [],
      "isFixedGasLimit": false
    },
    {
      "hash": "0x6416fa1b88c4c41d5631c3da1767569626f21cd235c7f4e63b2d0c7d12bfef1c",
      "transactionType": "CALL",
      "contractName": null,
      "contractAddress": "0x79dfbed14077b8f2421eece5707a17b161094e6a",
      "function": "wlMint(address)",
      "arguments": [
        "0x0000000000000000000000000000000000000000"
      ],
      "transaction": {
        "from": "0xcda2fdb452ff4f5d7ba1c3d5dfcc9cb926a5eb7d",
        "to": "0x79dfbed14077b8f2421eece5707a17b161094e6a",
        "gas": "0x3ddf7",
        "value": "0x0",
        "input": "0xc517b4a50000000000000000000000000000000000000000000000000000000000000000",
        "nonce": "0x1d5f",
        "chainId": "0xed88"
      },
      "additionalContracts": [],
      "isFixedGasLimit": false
    },
    {
      "hash": "0xa3327ffcdd04b2872cba8a967cf6d7567264b12650d3da9997bcc2120f0a6e23",
      "transactionType": "CALL",
      "contractName": null,
      "contractAddress": "0x79dfbed14077b8f2421eece5707a17b161094e6a",
      "function": "wlMint(address)",
      "arguments": [
        "0x0000000000000000000000000000000000000000"
      ],
      "transaction": {
        "from": "0xcda2fdb452ff4f5d7ba1c3d5dfcc9cb926a5eb7d",
        "to": "0x79dfbed14077b8f2421eece5707a17b161094e6a",
        "gas": "0x3ddf7",
        "value": "0x0",
        "input": "0xc517b4a50000000000000000000000000000000000000000000000000000000000000000",
        "nonce": "0x1d60",
        "chainId": "0xed88"
      },
      "additionalContracts": [],
      "isFixedGasLimit": false
    },
    {
      "hash": "0xac9ed802acbc56b0a32f6330413aed45470ad99615a5437762c0dfc0ec1cad88",
      "transactionType": "CALL",
      "contractName": null,
      "contractAddress": "0x79dfbed14077b8f2421eece5707a17b161094e6a",
      "function": "wlMint(address)",
      "arguments": [
        "0x0000000000000000000000000000000000000000"
      ],
      "transaction": {
        "from": "0xcda2fdb452ff4f5d7ba1c3d5dfcc9cb926a5eb7d",
        "to": "0x79dfbed14077b8f2421eece5707a17b161094e6a",
        "gas": "0x3ddf7",
        "value": "0x0",
        "input": "0xc517b4a50000000000000000000000000000000000000000000000000000000000000000",
        "nonce": "0x1d61",
        "chainId": "0xed88"
      },
      "additionalContracts": [],
      "isFixedGasLimit": false
    },
    {
      "hash": "0xd328619bc783dc3998bb720325b13224f03e07ba34805b0504b86ceeed037fae",
      "transactionType": "CALL",
      "contractName": null,
      "contractAddress": "0x79dfbed14077b8f2421eece5707a17b161094e6a",
      "function": "wlMint(address)",
      "arguments": [
        "0x0000000000000000000000000000000000000000"
      ],
      "transaction": {
        "from": "0xcda2fdb452ff4f5d7ba1c3d5dfcc9cb926a5eb7d",
        "to": "0x79dfbed14077b8f2421eece5707a17b161094e6a",
        "gas": "0x3ddf7",
        "value": "0x0",
        "input": "0xc517b4a50000000000000000000000000000000000000000000000000000000000000000",
        "nonce": "0x1d62",
        "chainId": "0xed88"
      },
      "additionalContracts": [],
      "isFixedGasLimit": false
    },
    {
      "hash": "0xe6475a4d96e699a3c9ff2360b7b63c0aa82da7962465d1101cf0cc25a1baf209",
      "transactionType": "CALL",
      "contractName": null,
      "contractAddress": "0x79dfbed14077b8f2421eece5707a17b161094e6a",
      "function": "wlMint(address)",
      "arguments": [
        "0x0000000000000000000000000000000000000000"
      ],
      "transaction": {
        "from": "0xcda2fdb452ff4f5d7ba1c3d5dfcc9cb926a5eb7d",
        "to": "0x79dfbed14077b8f2421eece5707a17b161094e6a",
        "gas": "0x3ddf7",
        "value": "0x0",
        "input": "0xc517b4a50000000000000000000000000000000000000000000000000000000000000000",
        "nonce": "0x1d63",
        "chainId": "0xed88"
      },
      "additionalContracts": [],
      "isFixedGasLimit": false
    },
    {
      "hash": "0xa1619350b6b493a501854fa88fbffcc7dae7076081c9c973ca410818b95fa6e2",
      "transactionType": "CALL",
      "contractName": null,
      "contractAddress": "0x79dfbed14077b8f2421eece5707a17b161094e6a",
      "function": "wlMint(address)",
      "arguments": [
        "0x0000000000000000000000000000000000000000"
      ],
      "transaction": {
        "from": "0xcda2fdb452ff4f5d7ba1c3d5dfcc9cb926a5eb7d",
        "to": "0x79dfbed14077b8f2421eece5707a17b161094e6a",
        "gas": "0x3ddf7",
        "value": "0x0",
        "input": "0xc517b4a50000000000000000000000000000000000000000000000000000000000000000",
        "nonce": "0x1d64",
        "chainId": "0xed88"
      },
      "additionalContracts": [],
      "isFixedGasLimit": false
    },
    {
      "hash": "0xbb831a21f206e07809c5d8e908f06a9c6451dba2518f1edb7a9f9a7c10cc33c0",
      "transactionType": "CALL",
      "contractName": null,
      "contractAddress": "0x79dfbed14077b8f2421eece5707a17b161094e6a",
      "function": "wlMint(address)",
      "arguments": [
        "0x0000000000000000000000000000000000000000"
      ],
      "transaction": {
        "from": "0xcda2fdb452ff4f5d7ba1c3d5dfcc9cb926a5eb7d",
        "to": "0x79dfbed14077b8f2421eece5707a17b161094e6a",
        "gas": "0x3ddf7",
        "value": "0x0",
        "input": "0xc517b4a50000000000000000000000000000000000000000000000000000000000000000",
        "nonce": "0x1d65",
        "chainId": "0xed88"
      },
      "additionalContracts": [],
      "isFixedGasLimit": false
    },
    {
      "hash": "0x7141ece88bac937d81f9f20910796286f6e9a54439d8e73971015a055c516b4c",
      "transactionType": "CALL",
      "contractName": null,
      "contractAddress": "0x79dfbed14077b8f2421eece5707a17b161094e6a",
      "function": "wlMint(address)",
      "arguments": [
        "0x0000000000000000000000000000000000000000"
      ],
      "transaction": {
        "from": "0xcda2fdb452ff4f5d7ba1c3d5dfcc9cb926a5eb7d",
        "to": "0x79dfbed14077b8f2421eece5707a17b161094e6a",
        "gas": "0x3ddf7",
        "value": "0x0",
        "input": "0xc517b4a50000000000000000000000000000000000000000000000000000000000000000",
        "nonce": "0x1d66",
        "chainId": "0xed88"
      },
      "additionalContracts": [],
      "isFixedGasLimit": false
    },
    {
      "hash": "0xb134d3eb3b55a88c10342999b9590e7f469bf927871607b99b22e36e50638cfc",
      "transactionType": "CALL",
      "contractName": null,
      "contractAddress": "0x79dfbed14077b8f2421eece5707a17b161094e6a",
      "function": "wlMint(address)",
      "arguments": [
        "0x0000000000000000000000000000000000000000"
      ],
      "transaction": {
        "from": "0xcda2fdb452ff4f5d7ba1c3d5dfcc9cb926a5eb7d",
        "to": "0x79dfbed14077b8f2421eece5707a17b161094e6a",
        "gas": "0x3ddf7",
        "value": "0x0",
        "input": "0xc517b4a50000000000000000000000000000000000000000000000000000000000000000",
        "nonce": "0x1d67",
        "chainId": "0xed88"
      },
      "additionalContracts": [],
      "isFixedGasLimit": false
    }
  ],
  "receipts": [
    {
      "status": "0x1",
      "cumulativeGasUsed": "0x37803",
      "logs": [
        {
          "address": "0x2e8af9c5922623058aa92a183b391e62cb6b2d12",
          "topics": [
            "0xddf252ad1be2c89b69c2b068fc378daa952ba7f163c4a11628f55a4df523b3ef",
            "0x0000000000000000000000000000000000000000000000000000000000000000",
            "0x000000000000000000000000cda2fdb452ff4f5d7ba1c3d5dfcc9cb926a5eb7d",
            "0x0000000000000000000000000000000000000000000000000000000000000140"
          ],
          "data": "0x",
          "blockHash": "0x021cafd543e51b635da7dec73da8d108115cc161ff2187b518b65da2dfd9216f",
          "blockNumber": "0x750751",
          "transactionHash": "0xda6b964657344b0086657ead96c2b18740e77a81fdac96864890f9e11a10ff33",
          "transactionIndex": "0x1",
          "logIndex": "0x0",
          "removed": false
        },
        {
          "address": "0x2e8af9c5922623058aa92a183b391e62cb6b2d12",
          "topics": [
            "0xf8e1a15aba9398e019f0b49df1a4fde98ee17ae345cb5f6b5e2c27f5033e8ce7"
          ],
          "data": "0x0000000000000000000000000000000000000000000000000000000000000140",
          "blockHash": "0x021cafd543e51b635da7dec73da8d108115cc161ff2187b518b65da2dfd9216f",
          "blockNumber": "0x750751",
          "transactionHash": "0xda6b964657344b0086657ead96c2b18740e77a81fdac96864890f9e11a10ff33",
          "transactionIndex": "0x1",
          "logIndex": "0x1",
          "removed": false
        }
      ],
      "logsBloom": "0x00000000000000000000000000000001000000020008000000000000000000000000200000000000000000000000000000000000000000000000000000000000000000000000000000000008040000000000000000000000000000000000000000000000020000000000000000000800002000000000800000000010000000000000000000000000000000000000000000000000000000000000000000000000000000000000000000000000000000002000000000004000000000000000008000000002000000000000000000000000000000000000000000000000000020000000000000000000200000000000000000000000100000000000000000000000",
      "type": "0x2",
      "transactionHash": "0xda6b964657344b0086657ead96c2b18740e77a81fdac96864890f9e11a10ff33",
      "transactionIndex": "0x1",
      "blockHash": "0x021cafd543e51b635da7dec73da8d108115cc161ff2187b518b65da2dfd9216f",
      "blockNumber": "0x750751",
      "gasUsed": "0x2ccb8",
      "effectiveGasPrice": "0xfd",
      "from": "0xcda2fdb452ff4f5d7ba1c3d5dfcc9cb926a5eb7d",
      "to": "0x79dfbed14077b8f2421eece5707a17b161094e6a",
      "contractAddress": null,
      "l1BaseFeeScalar": "0x186a0",
      "l1BlobBaseFee": "0x1",
      "l1BlobBaseFeeScalar": "0x95506",
      "l1Fee": "0x8a3e331c9d",
      "l1GasPrice": "0xdd3051c7",
      "l1GasUsed": "0x640"
    },
    {
      "status": "0x1",
      "cumulativeGasUsed": "0x37803",
      "logs": [
        {
          "address": "0x2e8af9c5922623058aa92a183b391e62cb6b2d12",
          "topics": [
            "0xddf252ad1be2c89b69c2b068fc378daa952ba7f163c4a11628f55a4df523b3ef",
            "0x0000000000000000000000000000000000000000000000000000000000000000",
            "0x000000000000000000000000cda2fdb452ff4f5d7ba1c3d5dfcc9cb926a5eb7d",
            "0x0000000000000000000000000000000000000000000000000000000000000141"
          ],
          "data": "0x",
          "blockHash": "0x1f8f7bea41a9539ff7e7636da6422d8cbce2eadda803c50679f1364f1169d216",
          "blockNumber": "0x750752",
          "transactionHash": "0x0bba85bd2381079a514830f6ccbfcc5b07e9db46950dcaca1f684f44f2489dab",
          "transactionIndex": "0x1",
          "logIndex": "0x0",
          "removed": false
        },
        {
          "address": "0x2e8af9c5922623058aa92a183b391e62cb6b2d12",
          "topics": [
            "0xf8e1a15aba9398e019f0b49df1a4fde98ee17ae345cb5f6b5e2c27f5033e8ce7"
          ],
          "data": "0x0000000000000000000000000000000000000000000000000000000000000141",
          "blockHash": "0x1f8f7bea41a9539ff7e7636da6422d8cbce2eadda803c50679f1364f1169d216",
          "blockNumber": "0x750752",
          "transactionHash": "0x0bba85bd2381079a514830f6ccbfcc5b07e9db46950dcaca1f684f44f2489dab",
          "transactionIndex": "0x1",
          "logIndex": "0x1",
          "removed": false
        }
      ],
      "logsBloom": "0x00000000000000000000000000000000000000020000000000000000000000000000000000000000000000000000000000000000000000000000000000000000000000000000000000000008040000000000000000000000000000000000000000000000020000000000000000000800002000000000800000000010000000000000000000000000000000000004000000000000000000000000000000000000000000000000000000000000000000002000000000104000000000000000008000000002000000000000000000000000000000000000000000000000000020000000000000000000200000000000000000000000100000000000000000400000",
      "type": "0x2",
      "transactionHash": "0x0bba85bd2381079a514830f6ccbfcc5b07e9db46950dcaca1f684f44f2489dab",
      "transactionIndex": "0x1",
      "blockHash": "0x1f8f7bea41a9539ff7e7636da6422d8cbce2eadda803c50679f1364f1169d216",
      "blockNumber": "0x750752",
      "gasUsed": "0x2ccb8",
      "effectiveGasPrice": "0xfd",
      "from": "0xcda2fdb452ff4f5d7ba1c3d5dfcc9cb926a5eb7d",
      "to": "0x79dfbed14077b8f2421eece5707a17b161094e6a",
      "contractAddress": null,
      "l1BaseFeeScalar": "0x186a0",
      "l1BlobBaseFee": "0x1",
      "l1BlobBaseFeeScalar": "0x95506",
      "l1Fee": "0x8a3e331c9d",
      "l1GasPrice": "0xdd3051c7",
      "l1GasUsed": "0x640"
    },
    {
      "status": "0x1",
      "cumulativeGasUsed": "0x644bb",
      "logs": [
        {
          "address": "0x2e8af9c5922623058aa92a183b391e62cb6b2d12",
          "topics": [
            "0xddf252ad1be2c89b69c2b068fc378daa952ba7f163c4a11628f55a4df523b3ef",
            "0x0000000000000000000000000000000000000000000000000000000000000000",
            "0x000000000000000000000000cda2fdb452ff4f5d7ba1c3d5dfcc9cb926a5eb7d",
            "0x0000000000000000000000000000000000000000000000000000000000000142"
          ],
          "data": "0x",
          "blockHash": "0x1f8f7bea41a9539ff7e7636da6422d8cbce2eadda803c50679f1364f1169d216",
          "blockNumber": "0x750752",
          "transactionHash": "0xd6823aeceef2f553352645b0014c87a25f810032a5487eb139e4d756b60c1026",
          "transactionIndex": "0x2",
          "logIndex": "0x2",
          "removed": false
        },
        {
          "address": "0x2e8af9c5922623058aa92a183b391e62cb6b2d12",
          "topics": [
            "0xf8e1a15aba9398e019f0b49df1a4fde98ee17ae345cb5f6b5e2c27f5033e8ce7"
          ],
          "data": "0x0000000000000000000000000000000000000000000000000000000000000142",
          "blockHash": "0x1f8f7bea41a9539ff7e7636da6422d8cbce2eadda803c50679f1364f1169d216",
          "blockNumber": "0x750752",
          "transactionHash": "0xd6823aeceef2f553352645b0014c87a25f810032a5487eb139e4d756b60c1026",
          "transactionIndex": "0x2",
          "logIndex": "0x3",
          "removed": false
        }
      ],
      "logsBloom": "0x00000000000000000000000000000000000000020000000000000000000000000000000000000000000000000000000000000000000000000000000000000000000000000000000000000008040000000000000080000000000000000000000000000000020000000000000000000800002000000000800000000010000000000000000000400000000000000000000000000000000000000000000000000000000000000000000000000000000000002000000000004000000000000000008000000002000000000000000000000000000000000000000000000000008020000000000000000000200000000000000000000000100000000000000000000000",
      "type": "0x2",
      "transactionHash": "0xd6823aeceef2f553352645b0014c87a25f810032a5487eb139e4d756b60c1026",
      "transactionIndex": "0x2",
      "blockHash": "0x1f8f7bea41a9539ff7e7636da6422d8cbce2eadda803c50679f1364f1169d216",
      "blockNumber": "0x750752",
      "gasUsed": "0x2ccb8",
      "effectiveGasPrice": "0xfd",
      "from": "0xcda2fdb452ff4f5d7ba1c3d5dfcc9cb926a5eb7d",
      "to": "0x79dfbed14077b8f2421eece5707a17b161094e6a",
      "contractAddress": null,
      "l1BaseFeeScalar": "0x186a0",
      "l1BlobBaseFee": "0x1",
      "l1BlobBaseFeeScalar": "0x95506",
      "l1Fee": "0x8a3e331c9d",
      "l1GasPrice": "0xdd3051c7",
      "l1GasUsed": "0x640"
    },
    {
      "status": "0x1",
      "cumulativeGasUsed": "0x91173",
      "logs": [
        {
          "address": "0x2e8af9c5922623058aa92a183b391e62cb6b2d12",
          "topics": [
            "0xddf252ad1be2c89b69c2b068fc378daa952ba7f163c4a11628f55a4df523b3ef",
            "0x0000000000000000000000000000000000000000000000000000000000000000",
            "0x000000000000000000000000cda2fdb452ff4f5d7ba1c3d5dfcc9cb926a5eb7d",
            "0x0000000000000000000000000000000000000000000000000000000000000143"
          ],
          "data": "0x",
          "blockHash": "0x1f8f7bea41a9539ff7e7636da6422d8cbce2eadda803c50679f1364f1169d216",
          "blockNumber": "0x750752",
          "transactionHash": "0x792eb450f9114f39a9760cc58e03495265a14164617c92673ce1e51bb3ad20cf",
          "transactionIndex": "0x3",
          "logIndex": "0x4",
          "removed": false
        },
        {
          "address": "0x2e8af9c5922623058aa92a183b391e62cb6b2d12",
          "topics": [
            "0xf8e1a15aba9398e019f0b49df1a4fde98ee17ae345cb5f6b5e2c27f5033e8ce7"
          ],
          "data": "0x0000000000000000000000000000000000000000000000000000000000000143",
          "blockHash": "0x1f8f7bea41a9539ff7e7636da6422d8cbce2eadda803c50679f1364f1169d216",
          "blockNumber": "0x750752",
          "transactionHash": "0x792eb450f9114f39a9760cc58e03495265a14164617c92673ce1e51bb3ad20cf",
          "transactionIndex": "0x3",
          "logIndex": "0x5",
          "removed": false
        }
      ],
      "logsBloom": "0x00000000000000000000000000000000000000020000000000000000000000000000000000000000000000000000000000000000000000000000000000000000000000000000000000000008040000000000000000000000000000000000000000000000020000000000000000000800002000000000800000000010000000000000000400000000000000000000000000000000000000000000000000000000000000000000000000000000000000002000000000004000000000000000008000000002000010000000000000000000000000000000000000000000000020000002000000000000200000000000000000000000100000000000000000000000",
      "type": "0x2",
      "transactionHash": "0x792eb450f9114f39a9760cc58e03495265a14164617c92673ce1e51bb3ad20cf",
      "transactionIndex": "0x3",
      "blockHash": "0x1f8f7bea41a9539ff7e7636da6422d8cbce2eadda803c50679f1364f1169d216",
      "blockNumber": "0x750752",
      "gasUsed": "0x2ccb8",
      "effectiveGasPrice": "0xfd",
      "from": "0xcda2fdb452ff4f5d7ba1c3d5dfcc9cb926a5eb7d",
      "to": "0x79dfbed14077b8f2421eece5707a17b161094e6a",
      "contractAddress": null,
      "l1BaseFeeScalar": "0x186a0",
      "l1BlobBaseFee": "0x1",
      "l1BlobBaseFeeScalar": "0x95506",
      "l1Fee": "0x8a3e331c9d",
      "l1GasPrice": "0xdd3051c7",
      "l1GasUsed": "0x640"
    },
    {
      "status": "0x1",
      "cumulativeGasUsed": "0xbde2b",
      "logs": [
        {
          "address": "0x2e8af9c5922623058aa92a183b391e62cb6b2d12",
          "topics": [
            "0xddf252ad1be2c89b69c2b068fc378daa952ba7f163c4a11628f55a4df523b3ef",
            "0x0000000000000000000000000000000000000000000000000000000000000000",
            "0x000000000000000000000000cda2fdb452ff4f5d7ba1c3d5dfcc9cb926a5eb7d",
            "0x0000000000000000000000000000000000000000000000000000000000000144"
          ],
          "data": "0x",
          "blockHash": "0x1f8f7bea41a9539ff7e7636da6422d8cbce2eadda803c50679f1364f1169d216",
          "blockNumber": "0x750752",
          "transactionHash": "0xb86e19889a044bde36bcb415655936284c1ed2ce41b46208ea3d2775d1da28dd",
          "transactionIndex": "0x4",
          "logIndex": "0x6",
          "removed": false
        },
        {
          "address": "0x2e8af9c5922623058aa92a183b391e62cb6b2d12",
          "topics": [
            "0xf8e1a15aba9398e019f0b49df1a4fde98ee17ae345cb5f6b5e2c27f5033e8ce7"
          ],
          "data": "0x0000000000000000000000000000000000000000000000000000000000000144",
          "blockHash": "0x1f8f7bea41a9539ff7e7636da6422d8cbce2eadda803c50679f1364f1169d216",
          "blockNumber": "0x750752",
          "transactionHash": "0xb86e19889a044bde36bcb415655936284c1ed2ce41b46208ea3d2775d1da28dd",
          "transactionIndex": "0x4",
          "logIndex": "0x7",
          "removed": false
        }
      ],
      "logsBloom": "0x00000000000000000000000000000002000000020000000000000000000000000000000000000000000000000000000000000000000000000000000000000000000000000000000000000008040000000000000000000000000000000000000000000000020000040000000000000800002000000000800000000090000000000000000000000000000000000000000000000000000000000000000000000000000000000000000000000000000000002000000000004000000000000000008000000002000000000000000000000000000000000000000000000000000020000000000000000000200000000000000000000000100000000000000000000000",
      "type": "0x2",
      "transactionHash": "0xb86e19889a044bde36bcb415655936284c1ed2ce41b46208ea3d2775d1da28dd",
      "transactionIndex": "0x4",
      "blockHash": "0x1f8f7bea41a9539ff7e7636da6422d8cbce2eadda803c50679f1364f1169d216",
      "blockNumber": "0x750752",
      "gasUsed": "0x2ccb8",
      "effectiveGasPrice": "0xfd",
      "from": "0xcda2fdb452ff4f5d7ba1c3d5dfcc9cb926a5eb7d",
      "to": "0x79dfbed14077b8f2421eece5707a17b161094e6a",
      "contractAddress": null,
      "l1BaseFeeScalar": "0x186a0",
      "l1BlobBaseFee": "0x1",
      "l1BlobBaseFeeScalar": "0x95506",
      "l1Fee": "0x8a3e331c9d",
      "l1GasPrice": "0xdd3051c7",
      "l1GasUsed": "0x640"
    },
    {
      "status": "0x1",
      "cumulativeGasUsed": "0xeaae3",
      "logs": [
        {
          "address": "0x2e8af9c5922623058aa92a183b391e62cb6b2d12",
          "topics": [
            "0xddf252ad1be2c89b69c2b068fc378daa952ba7f163c4a11628f55a4df523b3ef",
            "0x0000000000000000000000000000000000000000000000000000000000000000",
            "0x000000000000000000000000cda2fdb452ff4f5d7ba1c3d5dfcc9cb926a5eb7d",
            "0x0000000000000000000000000000000000000000000000000000000000000145"
          ],
          "data": "0x",
          "blockHash": "0x1f8f7bea41a9539ff7e7636da6422d8cbce2eadda803c50679f1364f1169d216",
          "blockNumber": "0x750752",
          "transactionHash": "0x3fdd3952661cae59bd06247b323754d8b7558b3785dfce0a7a8977fafb497151",
          "transactionIndex": "0x5",
          "logIndex": "0x8",
          "removed": false
        },
        {
          "address": "0x2e8af9c5922623058aa92a183b391e62cb6b2d12",
          "topics": [
            "0xf8e1a15aba9398e019f0b49df1a4fde98ee17ae345cb5f6b5e2c27f5033e8ce7"
          ],
          "data": "0x0000000000000000000000000000000000000000000000000000000000000145",
          "blockHash": "0x1f8f7bea41a9539ff7e7636da6422d8cbce2eadda803c50679f1364f1169d216",
          "blockNumber": "0x750752",
          "transactionHash": "0x3fdd3952661cae59bd06247b323754d8b7558b3785dfce0a7a8977fafb497151",
          "transactionIndex": "0x5",
          "logIndex": "0x9",
          "removed": false
        }
      ],
      "logsBloom": "0x00000000000000000000000000000000000000020000000000000000000000000000000000000000000000000000000000000000000000000000000000000000000000000000000000000008042000100000000000000000000000000000000000000000020000000000000000000800002000000000800000000010000000000000000000000000000000000000000000000000000000000000000000000000000000000000000000000000000000002000000000004000000000000000008000000002000000000000000000000000000000000000000000000000000020000000000000000000200000000000000000000000100004000000000000000000",
      "type": "0x2",
      "transactionHash": "0x3fdd3952661cae59bd06247b323754d8b7558b3785dfce0a7a8977fafb497151",
      "transactionIndex": "0x5",
      "blockHash": "0x1f8f7bea41a9539ff7e7636da6422d8cbce2eadda803c50679f1364f1169d216",
      "blockNumber": "0x750752",
      "gasUsed": "0x2ccb8",
      "effectiveGasPrice": "0xfd",
      "from": "0xcda2fdb452ff4f5d7ba1c3d5dfcc9cb926a5eb7d",
      "to": "0x79dfbed14077b8f2421eece5707a17b161094e6a",
      "contractAddress": null,
      "l1BaseFeeScalar": "0x186a0",
      "l1BlobBaseFee": "0x1",
      "l1BlobBaseFeeScalar": "0x95506",
      "l1Fee": "0x8a3e331c9d",
      "l1GasPrice": "0xdd3051c7",
      "l1GasUsed": "0x640"
    },
    {
      "status": "0x1",
      "cumulativeGasUsed": "0x11779b",
      "logs": [
        {
          "address": "0x2e8af9c5922623058aa92a183b391e62cb6b2d12",
          "topics": [
            "0xddf252ad1be2c89b69c2b068fc378daa952ba7f163c4a11628f55a4df523b3ef",
            "0x0000000000000000000000000000000000000000000000000000000000000000",
            "0x000000000000000000000000cda2fdb452ff4f5d7ba1c3d5dfcc9cb926a5eb7d",
            "0x0000000000000000000000000000000000000000000000000000000000000146"
          ],
          "data": "0x",
          "blockHash": "0x1f8f7bea41a9539ff7e7636da6422d8cbce2eadda803c50679f1364f1169d216",
          "blockNumber": "0x750752",
          "transactionHash": "0xa11fb4ab5fa155ee053c527a95a896c9c8d28b6b32a646c71e26c32af0eef367",
          "transactionIndex": "0x6",
          "logIndex": "0xa",
          "removed": false
        },
        {
          "address": "0x2e8af9c5922623058aa92a183b391e62cb6b2d12",
          "topics": [
            "0xf8e1a15aba9398e019f0b49df1a4fde98ee17ae345cb5f6b5e2c27f5033e8ce7"
          ],
          "data": "0x0000000000000000000000000000000000000000000000000000000000000146",
          "blockHash": "0x1f8f7bea41a9539ff7e7636da6422d8cbce2eadda803c50679f1364f1169d216",
          "blockNumber": "0x750752",
          "transactionHash": "0xa11fb4ab5fa155ee053c527a95a896c9c8d28b6b32a646c71e26c32af0eef367",
          "transactionIndex": "0x6",
          "logIndex": "0xb",
          "removed": false
        }
      ],
      "logsBloom": "0x00000000000000000000000000000000000000020000000000000000000000000000000000000000000000000000000000000100000000000000000000000000000000000000000000000008040000000000000000000000000000000000000000000000020000000000000000000800002000000000800000000010000000000000000000000000000000000000000000000000000000008000000000000000000000000000000000000000000000002000000000004000000000000000008000000002000000000000000000000000000000000000000000000000000020000000000000000000200000000000000000000020100000000000000000000000",
      "type": "0x2",
      "transactionHash": "0xa11fb4ab5fa155ee053c527a95a896c9c8d28b6b32a646c71e26c32af0eef367",
      "transactionIndex": "0x6",
      "blockHash": "0x1f8f7bea41a9539ff7e7636da6422d8cbce2eadda803c50679f1364f1169d216",
      "blockNumber": "0x750752",
      "gasUsed": "0x2ccb8",
      "effectiveGasPrice": "0xfd",
      "from": "0xcda2fdb452ff4f5d7ba1c3d5dfcc9cb926a5eb7d",
      "to": "0x79dfbed14077b8f2421eece5707a17b161094e6a",
      "contractAddress": null,
      "l1BaseFeeScalar": "0x186a0",
      "l1BlobBaseFee": "0x1",
      "l1BlobBaseFeeScalar": "0x95506",
      "l1Fee": "0x8a3e331c9d",
      "l1GasPrice": "0xdd3051c7",
      "l1GasUsed": "0x640"
    },
    {
      "status": "0x1",
      "cumulativeGasUsed": "0x144453",
      "logs": [
        {
          "address": "0x2e8af9c5922623058aa92a183b391e62cb6b2d12",
          "topics": [
            "0xddf252ad1be2c89b69c2b068fc378daa952ba7f163c4a11628f55a4df523b3ef",
            "0x0000000000000000000000000000000000000000000000000000000000000000",
            "0x000000000000000000000000cda2fdb452ff4f5d7ba1c3d5dfcc9cb926a5eb7d",
            "0x0000000000000000000000000000000000000000000000000000000000000147"
          ],
          "data": "0x",
          "blockHash": "0x1f8f7bea41a9539ff7e7636da6422d8cbce2eadda803c50679f1364f1169d216",
          "blockNumber": "0x750752",
          "transactionHash": "0x197ae959bc9f1cd3f1e68b21ca0c1a1b72df54bd8df5fa8731bbcf16a0e83b97",
          "transactionIndex": "0x7",
          "logIndex": "0xc",
          "removed": false
        },
        {
          "address": "0x2e8af9c5922623058aa92a183b391e62cb6b2d12",
          "topics": [
            "0xf8e1a15aba9398e019f0b49df1a4fde98ee17ae345cb5f6b5e2c27f5033e8ce7"
          ],
          "data": "0x0000000000000000000000000000000000000000000000000000000000000147",
          "blockHash": "0x1f8f7bea41a9539ff7e7636da6422d8cbce2eadda803c50679f1364f1169d216",
          "blockNumber": "0x750752",
          "transactionHash": "0x197ae959bc9f1cd3f1e68b21ca0c1a1b72df54bd8df5fa8731bbcf16a0e83b97",
          "transactionIndex": "0x7",
          "logIndex": "0xd",
          "removed": false
        }
      ],
      "logsBloom": "0x00002000000000000000000000000000000000020000000000000000000000000000000000000000000000000000000000000000000000000000000000000000000000000000000000000008040000000000000000000000000000000000000000000000020000000000000000000800002000000000800000000010000000000000000000000000000000000000004000000000000000000000000000000000000000000000000000000000000000002000000000004000000000000000008000000002000000000000000000000000000000000000000000000000000020000000000000000000200000000000000000004000100000000000000000000000",
      "type": "0x2",
      "transactionHash": "0x197ae959bc9f1cd3f1e68b21ca0c1a1b72df54bd8df5fa8731bbcf16a0e83b97",
      "transactionIndex": "0x7",
      "blockHash": "0x1f8f7bea41a9539ff7e7636da6422d8cbce2eadda803c50679f1364f1169d216",
      "blockNumber": "0x750752",
      "gasUsed": "0x2ccb8",
      "effectiveGasPrice": "0xfd",
      "from": "0xcda2fdb452ff4f5d7ba1c3d5dfcc9cb926a5eb7d",
      "to": "0x79dfbed14077b8f2421eece5707a17b161094e6a",
      "contractAddress": null,
      "l1BaseFeeScalar": "0x186a0",
      "l1BlobBaseFee": "0x1",
      "l1BlobBaseFeeScalar": "0x95506",
      "l1Fee": "0x8a3e331c9d",
      "l1GasPrice": "0xdd3051c7",
      "l1GasUsed": "0x640"
    },
    {
      "status": "0x1",
      "cumulativeGasUsed": "0x17110b",
      "logs": [
        {
          "address": "0x2e8af9c5922623058aa92a183b391e62cb6b2d12",
          "topics": [
            "0xddf252ad1be2c89b69c2b068fc378daa952ba7f163c4a11628f55a4df523b3ef",
            "0x0000000000000000000000000000000000000000000000000000000000000000",
            "0x000000000000000000000000cda2fdb452ff4f5d7ba1c3d5dfcc9cb926a5eb7d",
            "0x0000000000000000000000000000000000000000000000000000000000000148"
          ],
          "data": "0x",
          "blockHash": "0x1f8f7bea41a9539ff7e7636da6422d8cbce2eadda803c50679f1364f1169d216",
          "blockNumber": "0x750752",
          "transactionHash": "0x80b6470cb5dbb2db851a3285771bfaf1d20504d42dcb963bf9f80b264a04b82b",
          "transactionIndex": "0x8",
          "logIndex": "0xe",
          "removed": false
        },
        {
          "address": "0x2e8af9c5922623058aa92a183b391e62cb6b2d12",
          "topics": [
            "0xf8e1a15aba9398e019f0b49df1a4fde98ee17ae345cb5f6b5e2c27f5033e8ce7"
          ],
          "data": "0x0000000000000000000000000000000000000000000000000000000000000148",
          "blockHash": "0x1f8f7bea41a9539ff7e7636da6422d8cbce2eadda803c50679f1364f1169d216",
          "blockNumber": "0x750752",
          "transactionHash": "0x80b6470cb5dbb2db851a3285771bfaf1d20504d42dcb963bf9f80b264a04b82b",
          "transactionIndex": "0x8",
          "logIndex": "0xf",
          "removed": false
        }
      ],
      "logsBloom": "0x00000000000000000000000000000000000000020000000000000000000000000000000000000000000000000000000000000000000000000000000000000000000000000000000000000008040000000000000000000000000000000000000000000000020000000000000000000800002000000000800000000010000000000000000001000000000000000000000000000000000000000000000000000000000000000000000000000000000001002000000000014000000000000000008000000002000000000000000000000000000000000000000000000000000020000000000000000000200000000000000000000000100000000000000000000000",
      "type": "0x2",
      "transactionHash": "0x80b6470cb5dbb2db851a3285771bfaf1d20504d42dcb963bf9f80b264a04b82b",
      "transactionIndex": "0x8",
      "blockHash": "0x1f8f7bea41a9539ff7e7636da6422d8cbce2eadda803c50679f1364f1169d216",
      "blockNumber": "0x750752",
      "gasUsed": "0x2ccb8",
      "effectiveGasPrice": "0xfd",
      "from": "0xcda2fdb452ff4f5d7ba1c3d5dfcc9cb926a5eb7d",
      "to": "0x79dfbed14077b8f2421eece5707a17b161094e6a",
      "contractAddress": null,
      "l1BaseFeeScalar": "0x186a0",
      "l1BlobBaseFee": "0x1",
      "l1BlobBaseFeeScalar": "0x95506",
      "l1Fee": "0x8a3e331c9d",
      "l1GasPrice": "0xdd3051c7",
      "l1GasUsed": "0x640"
    },
    {
      "status": "0x1",
      "cumulativeGasUsed": "0x19ddc3",
      "logs": [
        {
          "address": "0x2e8af9c5922623058aa92a183b391e62cb6b2d12",
          "topics": [
            "0xddf252ad1be2c89b69c2b068fc378daa952ba7f163c4a11628f55a4df523b3ef",
            "0x0000000000000000000000000000000000000000000000000000000000000000",
            "0x000000000000000000000000cda2fdb452ff4f5d7ba1c3d5dfcc9cb926a5eb7d",
            "0x0000000000000000000000000000000000000000000000000000000000000149"
          ],
          "data": "0x",
          "blockHash": "0x1f8f7bea41a9539ff7e7636da6422d8cbce2eadda803c50679f1364f1169d216",
          "blockNumber": "0x750752",
          "transactionHash": "0xa43675efa6eb1816059c279bea48ad1f772f66e47acf838cf6bdecf576f83a74",
          "transactionIndex": "0x9",
          "logIndex": "0x10",
          "removed": false
        },
        {
          "address": "0x2e8af9c5922623058aa92a183b391e62cb6b2d12",
          "topics": [
            "0xf8e1a15aba9398e019f0b49df1a4fde98ee17ae345cb5f6b5e2c27f5033e8ce7"
          ],
          "data": "0x0000000000000000000000000000000000000000000000000000000000000149",
          "blockHash": "0x1f8f7bea41a9539ff7e7636da6422d8cbce2eadda803c50679f1364f1169d216",
          "blockNumber": "0x750752",
          "transactionHash": "0xa43675efa6eb1816059c279bea48ad1f772f66e47acf838cf6bdecf576f83a74",
          "transactionIndex": "0x9",
          "logIndex": "0x11",
          "removed": false
        }
      ],
      "logsBloom": "0x00000000000000000000000000000000000000020000000000000000000000000000000000000000000000000000000000000000000000000000000000000000000000000000000000000008040000000000000000020000000000000000000000000000020000000000000000000800002000000000800002000010000000000000000000000000000000000000000000000000000000000000000000000000000000000000000000000000000000002000000000004000000000000000008000000002000000000000000000000000000000000000000000000000000020004000000000000000200000000000000000000000100000000000000000000000",
      "type": "0x2",
      "transactionHash": "0xa43675efa6eb1816059c279bea48ad1f772f66e47acf838cf6bdecf576f83a74",
      "transactionIndex": "0x9",
      "blockHash": "0x1f8f7bea41a9539ff7e7636da6422d8cbce2eadda803c50679f1364f1169d216",
      "blockNumber": "0x750752",
      "gasUsed": "0x2ccb8",
      "effectiveGasPrice": "0xfd",
      "from": "0xcda2fdb452ff4f5d7ba1c3d5dfcc9cb926a5eb7d",
      "to": "0x79dfbed14077b8f2421eece5707a17b161094e6a",
      "contractAddress": null,
      "l1BaseFeeScalar": "0x186a0",
      "l1BlobBaseFee": "0x1",
      "l1BlobBaseFeeScalar": "0x95506",
      "l1Fee": "0x8a3e331c9d",
      "l1GasPrice": "0xdd3051c7",
      "l1GasUsed": "0x640"
    },
    {
      "status": "0x1",
      "cumulativeGasUsed": "0x1caa7b",
      "logs": [
        {
          "address": "0x2e8af9c5922623058aa92a183b391e62cb6b2d12",
          "topics": [
            "0xddf252ad1be2c89b69c2b068fc378daa952ba7f163c4a11628f55a4df523b3ef",
            "0x0000000000000000000000000000000000000000000000000000000000000000",
            "0x000000000000000000000000cda2fdb452ff4f5d7ba1c3d5dfcc9cb926a5eb7d",
            "0x000000000000000000000000000000000000000000000000000000000000014a"
          ],
          "data": "0x",
          "blockHash": "0x1f8f7bea41a9539ff7e7636da6422d8cbce2eadda803c50679f1364f1169d216",
          "blockNumber": "0x750752",
          "transactionHash": "0xbb2314784860a54ee822a8badb858eac269510854eb20efc64463ca64b8150a4",
          "transactionIndex": "0xa",
          "logIndex": "0x12",
          "removed": false
        },
        {
          "address": "0x2e8af9c5922623058aa92a183b391e62cb6b2d12",
          "topics": [
            "0xf8e1a15aba9398e019f0b49df1a4fde98ee17ae345cb5f6b5e2c27f5033e8ce7"
          ],
          "data": "0x000000000000000000000000000000000000000000000000000000000000014a",
          "blockHash": "0x1f8f7bea41a9539ff7e7636da6422d8cbce2eadda803c50679f1364f1169d216",
          "blockNumber": "0x750752",
          "transactionHash": "0xbb2314784860a54ee822a8badb858eac269510854eb20efc64463ca64b8150a4",
          "transactionIndex": "0xa",
          "logIndex": "0x13",
          "removed": false
        }
      ],
      "logsBloom": "0x00000001000000000000000000000000000000020000000000000000000000000000000000000000000000000000000000000000000000000000000000000000000000000000000000000008040000000000000000000000000000000000000000000000020000000000000000000800002000000000800000000010000000000000000000000000000002000000000000000000000000000000000020000000000000000000000000000000000000002000000000004000000000000000008000000002000000000000000000000000000000000000000000000000000020000000000000000000200000000000000000000000100000000000000000000000",
      "type": "0x2",
      "transactionHash": "0xbb2314784860a54ee822a8badb858eac269510854eb20efc64463ca64b8150a4",
      "transactionIndex": "0xa",
      "blockHash": "0x1f8f7bea41a9539ff7e7636da6422d8cbce2eadda803c50679f1364f1169d216",
      "blockNumber": "0x750752",
      "gasUsed": "0x2ccb8",
      "effectiveGasPrice": "0xfd",
      "from": "0xcda2fdb452ff4f5d7ba1c3d5dfcc9cb926a5eb7d",
      "to": "0x79dfbed14077b8f2421eece5707a17b161094e6a",
      "contractAddress": null,
      "l1BaseFeeScalar": "0x186a0",
      "l1BlobBaseFee": "0x1",
      "l1BlobBaseFeeScalar": "0x95506",
      "l1Fee": "0x8a3e331c9d",
      "l1GasPrice": "0xdd3051c7",
      "l1GasUsed": "0x640"
    },
    {
      "status": "0x1",
      "cumulativeGasUsed": "0x1f7733",
      "logs": [
        {
          "address": "0x2e8af9c5922623058aa92a183b391e62cb6b2d12",
          "topics": [
            "0xddf252ad1be2c89b69c2b068fc378daa952ba7f163c4a11628f55a4df523b3ef",
            "0x0000000000000000000000000000000000000000000000000000000000000000",
            "0x000000000000000000000000cda2fdb452ff4f5d7ba1c3d5dfcc9cb926a5eb7d",
            "0x000000000000000000000000000000000000000000000000000000000000014b"
          ],
          "data": "0x",
          "blockHash": "0x1f8f7bea41a9539ff7e7636da6422d8cbce2eadda803c50679f1364f1169d216",
          "blockNumber": "0x750752",
          "transactionHash": "0x32be16432dfc7da4f22cd24d6ebda39477b138839a79d7f6b41fbf0168afbbba",
          "transactionIndex": "0xb",
          "logIndex": "0x14",
          "removed": false
        },
        {
          "address": "0x2e8af9c5922623058aa92a183b391e62cb6b2d12",
          "topics": [
            "0xf8e1a15aba9398e019f0b49df1a4fde98ee17ae345cb5f6b5e2c27f5033e8ce7"
          ],
          "data": "0x000000000000000000000000000000000000000000000000000000000000014b",
          "blockHash": "0x1f8f7bea41a9539ff7e7636da6422d8cbce2eadda803c50679f1364f1169d216",
          "blockNumber": "0x750752",
          "transactionHash": "0x32be16432dfc7da4f22cd24d6ebda39477b138839a79d7f6b41fbf0168afbbba",
          "transactionIndex": "0xb",
          "logIndex": "0x15",
          "removed": false
        }
      ],
      "logsBloom": "0x00000000000000000000000000000000000000020000000000000000000000000000000000000000000000000000000000000000000000000000000000000000000000000000000000001008040000000000000000000000000000000000000000000000020000000000000000000800002000000000800000000010000000000000000000000000000000000000000000000000000000000000000000000000000000000000000000000000000000002000000000004000040000000000008000000002000000000000000000000000000000020000000000000000000020000000000000000000200000000000000000000000100000000000000000000000",
      "type": "0x2",
      "transactionHash": "0x32be16432dfc7da4f22cd24d6ebda39477b138839a79d7f6b41fbf0168afbbba",
      "transactionIndex": "0xb",
      "blockHash": "0x1f8f7bea41a9539ff7e7636da6422d8cbce2eadda803c50679f1364f1169d216",
      "blockNumber": "0x750752",
      "gasUsed": "0x2ccb8",
      "effectiveGasPrice": "0xfd",
      "from": "0xcda2fdb452ff4f5d7ba1c3d5dfcc9cb926a5eb7d",
      "to": "0x79dfbed14077b8f2421eece5707a17b161094e6a",
      "contractAddress": null,
      "l1BaseFeeScalar": "0x186a0",
      "l1BlobBaseFee": "0x1",
      "l1BlobBaseFeeScalar": "0x95506",
      "l1Fee": "0x8a3e331c9d",
      "l1GasPrice": "0xdd3051c7",
      "l1GasUsed": "0x640"
    },
    {
      "status": "0x1",
      "cumulativeGasUsed": "0x2243eb",
      "logs": [
        {
          "address": "0x2e8af9c5922623058aa92a183b391e62cb6b2d12",
          "topics": [
            "0xddf252ad1be2c89b69c2b068fc378daa952ba7f163c4a11628f55a4df523b3ef",
            "0x0000000000000000000000000000000000000000000000000000000000000000",
            "0x000000000000000000000000cda2fdb452ff4f5d7ba1c3d5dfcc9cb926a5eb7d",
            "0x000000000000000000000000000000000000000000000000000000000000014c"
          ],
          "data": "0x",
          "blockHash": "0x1f8f7bea41a9539ff7e7636da6422d8cbce2eadda803c50679f1364f1169d216",
          "blockNumber": "0x750752",
          "transactionHash": "0x1f7777ec472f093d77924687f79c2c6f5d47e33d77845e905204f7bc21cd52eb",
          "transactionIndex": "0xc",
          "logIndex": "0x16",
          "removed": false
        },
        {
          "address": "0x2e8af9c5922623058aa92a183b391e62cb6b2d12",
          "topics": [
            "0xf8e1a15aba9398e019f0b49df1a4fde98ee17ae345cb5f6b5e2c27f5033e8ce7"
          ],
          "data": "0x000000000000000000000000000000000000000000000000000000000000014c",
          "blockHash": "0x1f8f7bea41a9539ff7e7636da6422d8cbce2eadda803c50679f1364f1169d216",
          "blockNumber": "0x750752",
          "transactionHash": "0x1f7777ec472f093d77924687f79c2c6f5d47e33d77845e905204f7bc21cd52eb",
          "transactionIndex": "0xc",
          "logIndex": "0x17",
          "removed": false
        }
      ],
      "logsBloom": "0x0000000000000000000000000000000000000002000000000000000000000000000000100000000000000000000000000000000000000000000000000000000000000200000000000000000804000000000000000000000000000000000000000000000002000000000000000000080000200000000080000000001000000000000000000000000000000000000000000000000000000000000000000000000000000000000000000000000000000000a000000000004000000000000000008000000002000000000000000000000000000000000000000000000000000020000000000000000000200000000000000000000000100000000000000000000000",
      "type": "0x2",
      "transactionHash": "0x1f7777ec472f093d77924687f79c2c6f5d47e33d77845e905204f7bc21cd52eb",
      "transactionIndex": "0xc",
      "blockHash": "0x1f8f7bea41a9539ff7e7636da6422d8cbce2eadda803c50679f1364f1169d216",
      "blockNumber": "0x750752",
      "gasUsed": "0x2ccb8",
      "effectiveGasPrice": "0xfd",
      "from": "0xcda2fdb452ff4f5d7ba1c3d5dfcc9cb926a5eb7d",
      "to": "0x79dfbed14077b8f2421eece5707a17b161094e6a",
      "contractAddress": null,
      "l1BaseFeeScalar": "0x186a0",
      "l1BlobBaseFee": "0x1",
      "l1BlobBaseFeeScalar": "0x95506",
      "l1Fee": "0x8a3e331c9d",
      "l1GasPrice": "0xdd3051c7",
      "l1GasUsed": "0x640"
    },
    {
      "status": "0x1",
      "cumulativeGasUsed": "0x2510a3",
      "logs": [
        {
          "address": "0x2e8af9c5922623058aa92a183b391e62cb6b2d12",
          "topics": [
            "0xddf252ad1be2c89b69c2b068fc378daa952ba7f163c4a11628f55a4df523b3ef",
            "0x0000000000000000000000000000000000000000000000000000000000000000",
            "0x000000000000000000000000cda2fdb452ff4f5d7ba1c3d5dfcc9cb926a5eb7d",
            "0x000000000000000000000000000000000000000000000000000000000000014d"
          ],
          "data": "0x",
          "blockHash": "0x1f8f7bea41a9539ff7e7636da6422d8cbce2eadda803c50679f1364f1169d216",
          "blockNumber": "0x750752",
          "transactionHash": "0xa96eb903f53a41577ade56078cc03e0a6b2c9749fbbff9eaa704826292a05fbf",
          "transactionIndex": "0xd",
          "logIndex": "0x18",
          "removed": false
        },
        {
          "address": "0x2e8af9c5922623058aa92a183b391e62cb6b2d12",
          "topics": [
            "0xf8e1a15aba9398e019f0b49df1a4fde98ee17ae345cb5f6b5e2c27f5033e8ce7"
          ],
          "data": "0x000000000000000000000000000000000000000000000000000000000000014d",
          "blockHash": "0x1f8f7bea41a9539ff7e7636da6422d8cbce2eadda803c50679f1364f1169d216",
          "blockNumber": "0x750752",
          "transactionHash": "0xa96eb903f53a41577ade56078cc03e0a6b2c9749fbbff9eaa704826292a05fbf",
          "transactionIndex": "0xd",
          "logIndex": "0x19",
          "removed": false
        }
      ],
      "logsBloom": "0x00000000000000000000000000000000000000020000000000000000000000000000000000000000000000000000000000000000000000000000000000000000000000000000000000000008040000000000002000000000000000000000000000000000020000000000000000000800802000000000800000000010000000000000020000000000000000000000000000000000000000000000000000000000000000000000000000000000000000002000000000004000000000000000008000000002000000000000000000000000000000000000000000000000000020000000000000000000200000000000000000000000100000000000000000000000",
      "type": "0x2",
      "transactionHash": "0xa96eb903f53a41577ade56078cc03e0a6b2c9749fbbff9eaa704826292a05fbf",
      "transactionIndex": "0xd",
      "blockHash": "0x1f8f7bea41a9539ff7e7636da6422d8cbce2eadda803c50679f1364f1169d216",
      "blockNumber": "0x750752",
      "gasUsed": "0x2ccb8",
      "effectiveGasPrice": "0xfd",
      "from": "0xcda2fdb452ff4f5d7ba1c3d5dfcc9cb926a5eb7d",
      "to": "0x79dfbed14077b8f2421eece5707a17b161094e6a",
      "contractAddress": null,
      "l1BaseFeeScalar": "0x186a0",
      "l1BlobBaseFee": "0x1",
      "l1BlobBaseFeeScalar": "0x95506",
      "l1Fee": "0x8a3e331c9d",
      "l1GasPrice": "0xdd3051c7",
      "l1GasUsed": "0x640"
    },
    {
      "status": "0x1",
      "cumulativeGasUsed": "0x27dd5b",
      "logs": [
        {
          "address": "0x2e8af9c5922623058aa92a183b391e62cb6b2d12",
          "topics": [
            "0xddf252ad1be2c89b69c2b068fc378daa952ba7f163c4a11628f55a4df523b3ef",
            "0x0000000000000000000000000000000000000000000000000000000000000000",
            "0x000000000000000000000000cda2fdb452ff4f5d7ba1c3d5dfcc9cb926a5eb7d",
            "0x000000000000000000000000000000000000000000000000000000000000014e"
          ],
          "data": "0x",
          "blockHash": "0x1f8f7bea41a9539ff7e7636da6422d8cbce2eadda803c50679f1364f1169d216",
          "blockNumber": "0x750752",
          "transactionHash": "0x931c8f688c29c29330b054e326fa03b96b3f77c163ce168bd9a269d7301f1b36",
          "transactionIndex": "0xe",
          "logIndex": "0x1a",
          "removed": false
        },
        {
          "address": "0x2e8af9c5922623058aa92a183b391e62cb6b2d12",
          "topics": [
            "0xf8e1a15aba9398e019f0b49df1a4fde98ee17ae345cb5f6b5e2c27f5033e8ce7"
          ],
          "data": "0x000000000000000000000000000000000000000000000000000000000000014e",
          "blockHash": "0x1f8f7bea41a9539ff7e7636da6422d8cbce2eadda803c50679f1364f1169d216",
          "blockNumber": "0x750752",
          "transactionHash": "0x931c8f688c29c29330b054e326fa03b96b3f77c163ce168bd9a269d7301f1b36",
          "transactionIndex": "0xe",
          "logIndex": "0x1b",
          "removed": false
        }
      ],
      "logsBloom": "0x0000000000000000000000000000000000000002000000000000000000000000000000000000000002000000000000000000000000000000000000000000000000000000000000000000000804000000000000000000000000000000000000000000000002000000000000000000080000200000000080000000001080000000000000000000000000000000000000000000000000000000000000000000000000000000000000000000000000000000200000000000c000000000000000008000000002000000000000000000000000000000000000000000000000000020000000000000000000200000000000000000000000100000000000000000000000",
      "type": "0x2",
      "transactionHash": "0x931c8f688c29c29330b054e326fa03b96b3f77c163ce168bd9a269d7301f1b36",
      "transactionIndex": "0xe",
      "blockHash": "0x1f8f7bea41a9539ff7e7636da6422d8cbce2eadda803c50679f1364f1169d216",
      "blockNumber": "0x750752",
      "gasUsed": "0x2ccb8",
      "effectiveGasPrice": "0xfd",
      "from": "0xcda2fdb452ff4f5d7ba1c3d5dfcc9cb926a5eb7d",
      "to": "0x79dfbed14077b8f2421eece5707a17b161094e6a",
      "contractAddress": null,
      "l1BaseFeeScalar": "0x186a0",
      "l1BlobBaseFee": "0x1",
      "l1BlobBaseFeeScalar": "0x95506",
      "l1Fee": "0x8a3e331c9d",
      "l1GasPrice": "0xdd3051c7",
      "l1GasUsed": "0x640"
    },
    {
      "status": "0x1",
      "cumulativeGasUsed": "0x2aaa13",
      "logs": [
        {
          "address": "0x2e8af9c5922623058aa92a183b391e62cb6b2d12",
          "topics": [
            "0xddf252ad1be2c89b69c2b068fc378daa952ba7f163c4a11628f55a4df523b3ef",
            "0x0000000000000000000000000000000000000000000000000000000000000000",
            "0x000000000000000000000000cda2fdb452ff4f5d7ba1c3d5dfcc9cb926a5eb7d",
            "0x000000000000000000000000000000000000000000000000000000000000014f"
          ],
          "data": "0x",
          "blockHash": "0x1f8f7bea41a9539ff7e7636da6422d8cbce2eadda803c50679f1364f1169d216",
          "blockNumber": "0x750752",
          "transactionHash": "0xdd0fd7d063aad37df53cfeec7e73565df068fbc38e86feda9531b367f3d4976d",
          "transactionIndex": "0xf",
          "logIndex": "0x1c",
          "removed": false
        },
        {
          "address": "0x2e8af9c5922623058aa92a183b391e62cb6b2d12",
          "topics": [
            "0xf8e1a15aba9398e019f0b49df1a4fde98ee17ae345cb5f6b5e2c27f5033e8ce7"
          ],
          "data": "0x000000000000000000000000000000000000000000000000000000000000014f",
          "blockHash": "0x1f8f7bea41a9539ff7e7636da6422d8cbce2eadda803c50679f1364f1169d216",
          "blockNumber": "0x750752",
          "transactionHash": "0xdd0fd7d063aad37df53cfeec7e73565df068fbc38e86feda9531b367f3d4976d",
          "transactionIndex": "0xf",
          "logIndex": "0x1d",
          "removed": false
        }
      ],
      "logsBloom": "0x00000000000000000000000000000000000000020000000000000000000000000000000000000000000000004000000000000000000000000000000000000000000000000000010000000008040000000000000000000000000000000000000000000000020000000000000000000800002000000000800000000010000000000000000000000000000000000000000000000000000000000000000000000020000000000000000000000000000000002000000000004000000000000000008000000002000000000000000000000000000000000000000000000000000020000000000000000000200000000000000000000000100000000000000000000000",
      "type": "0x2",
      "transactionHash": "0xdd0fd7d063aad37df53cfeec7e73565df068fbc38e86feda9531b367f3d4976d",
      "transactionIndex": "0xf",
      "blockHash": "0x1f8f7bea41a9539ff7e7636da6422d8cbce2eadda803c50679f1364f1169d216",
      "blockNumber": "0x750752",
      "gasUsed": "0x2ccb8",
      "effectiveGasPrice": "0xfd",
      "from": "0xcda2fdb452ff4f5d7ba1c3d5dfcc9cb926a5eb7d",
      "to": "0x79dfbed14077b8f2421eece5707a17b161094e6a",
      "contractAddress": null,
      "l1BaseFeeScalar": "0x186a0",
      "l1BlobBaseFee": "0x1",
      "l1BlobBaseFeeScalar": "0x95506",
      "l1Fee": "0x8a3e331c9d",
      "l1GasPrice": "0xdd3051c7",
      "l1GasUsed": "0x640"
    },
    {
      "status": "0x1",
      "cumulativeGasUsed": "0x2d76cb",
      "logs": [
        {
          "address": "0x2e8af9c5922623058aa92a183b391e62cb6b2d12",
          "topics": [
            "0xddf252ad1be2c89b69c2b068fc378daa952ba7f163c4a11628f55a4df523b3ef",
            "0x0000000000000000000000000000000000000000000000000000000000000000",
            "0x000000000000000000000000cda2fdb452ff4f5d7ba1c3d5dfcc9cb926a5eb7d",
            "0x0000000000000000000000000000000000000000000000000000000000000150"
          ],
          "data": "0x",
          "blockHash": "0x1f8f7bea41a9539ff7e7636da6422d8cbce2eadda803c50679f1364f1169d216",
          "blockNumber": "0x750752",
          "transactionHash": "0xc6f37a0e34f257dd72997eb0c86f32df376aac62c66d6c23e2aa73c568df2fc4",
          "transactionIndex": "0x10",
          "logIndex": "0x1e",
          "removed": false
        },
        {
          "address": "0x2e8af9c5922623058aa92a183b391e62cb6b2d12",
          "topics": [
            "0xf8e1a15aba9398e019f0b49df1a4fde98ee17ae345cb5f6b5e2c27f5033e8ce7"
          ],
          "data": "0x0000000000000000000000000000000000000000000000000000000000000150",
          "blockHash": "0x1f8f7bea41a9539ff7e7636da6422d8cbce2eadda803c50679f1364f1169d216",
          "blockNumber": "0x750752",
          "transactionHash": "0xc6f37a0e34f257dd72997eb0c86f32df376aac62c66d6c23e2aa73c568df2fc4",
          "transactionIndex": "0x10",
          "logIndex": "0x1f",
          "removed": false
        }
      ],
      "logsBloom": "0x00000000000000000000000000000000000000020000000000000000000000000000000000000000000000000000000000000000000000000000000000000000000000000000000000000008040000000000000000000000000000000000000000000000030000000000000000000800002000000000800000000010000000000000000000000000000000000000000000000000000000000000000000000000000000000000000000000000000000002000000000004000000000000000008000000002001000000000000000000000000000000000000000000000000020000000000000000000200000000000000000000000101000000000000000000000",
      "type": "0x2",
      "transactionHash": "0xc6f37a0e34f257dd72997eb0c86f32df376aac62c66d6c23e2aa73c568df2fc4",
      "transactionIndex": "0x10",
      "blockHash": "0x1f8f7bea41a9539ff7e7636da6422d8cbce2eadda803c50679f1364f1169d216",
      "blockNumber": "0x750752",
      "gasUsed": "0x2ccb8",
      "effectiveGasPrice": "0xfd",
      "from": "0xcda2fdb452ff4f5d7ba1c3d5dfcc9cb926a5eb7d",
      "to": "0x79dfbed14077b8f2421eece5707a17b161094e6a",
      "contractAddress": null,
      "l1BaseFeeScalar": "0x186a0",
      "l1BlobBaseFee": "0x1",
      "l1BlobBaseFeeScalar": "0x95506",
      "l1Fee": "0x8a3e331c9d",
      "l1GasPrice": "0xdd3051c7",
      "l1GasUsed": "0x640"
    },
    {
      "status": "0x1",
      "cumulativeGasUsed": "0x304383",
      "logs": [
        {
          "address": "0x2e8af9c5922623058aa92a183b391e62cb6b2d12",
          "topics": [
            "0xddf252ad1be2c89b69c2b068fc378daa952ba7f163c4a11628f55a4df523b3ef",
            "0x0000000000000000000000000000000000000000000000000000000000000000",
            "0x000000000000000000000000cda2fdb452ff4f5d7ba1c3d5dfcc9cb926a5eb7d",
            "0x0000000000000000000000000000000000000000000000000000000000000151"
          ],
          "data": "0x",
          "blockHash": "0x1f8f7bea41a9539ff7e7636da6422d8cbce2eadda803c50679f1364f1169d216",
          "blockNumber": "0x750752",
          "transactionHash": "0x7a654661daac7d59f553e8e751264901acc0d013cd7cf2b04ce098daa96396aa",
          "transactionIndex": "0x11",
          "logIndex": "0x20",
          "removed": false
        },
        {
          "address": "0x2e8af9c5922623058aa92a183b391e62cb6b2d12",
          "topics": [
            "0xf8e1a15aba9398e019f0b49df1a4fde98ee17ae345cb5f6b5e2c27f5033e8ce7"
          ],
          "data": "0x0000000000000000000000000000000000000000000000000000000000000151",
          "blockHash": "0x1f8f7bea41a9539ff7e7636da6422d8cbce2eadda803c50679f1364f1169d216",
          "blockNumber": "0x750752",
          "transactionHash": "0x7a654661daac7d59f553e8e751264901acc0d013cd7cf2b04ce098daa96396aa",
          "transactionIndex": "0x11",
          "logIndex": "0x21",
          "removed": false
        }
      ],
      "logsBloom": "0x00000000000000000000000000000000000000020000000040000000000000000040000000000000000000000000000000000000000000000000000000000000000000000000000000000008040000000000000000000000000000000000000000000000020000000000000000000800002000000000800000000010000000000000000000000000000000000000000000000000000040000000000000000000000000000000000000000000000000002000000000004000000000000000008000000002000000000000000000000000000000000000000000000000000020000000000000000000200000000000000000000000100000000000000000000000",
      "type": "0x2",
      "transactionHash": "0x7a654661daac7d59f553e8e751264901acc0d013cd7cf2b04ce098daa96396aa",
      "transactionIndex": "0x11",
      "blockHash": "0x1f8f7bea41a9539ff7e7636da6422d8cbce2eadda803c50679f1364f1169d216",
      "blockNumber": "0x750752",
      "gasUsed": "0x2ccb8",
      "effectiveGasPrice": "0xfd",
      "from": "0xcda2fdb452ff4f5d7ba1c3d5dfcc9cb926a5eb7d",
      "to": "0x79dfbed14077b8f2421eece5707a17b161094e6a",
      "contractAddress": null,
      "l1BaseFeeScalar": "0x186a0",
      "l1BlobBaseFee": "0x1",
      "l1BlobBaseFeeScalar": "0x95506",
      "l1Fee": "0x8a3e331c9d",
      "l1GasPrice": "0xdd3051c7",
      "l1GasUsed": "0x640"
    },
    {
      "status": "0x1",
      "cumulativeGasUsed": "0x37803",
      "logs": [
        {
          "address": "0x2e8af9c5922623058aa92a183b391e62cb6b2d12",
          "topics": [
            "0xddf252ad1be2c89b69c2b068fc378daa952ba7f163c4a11628f55a4df523b3ef",
            "0x0000000000000000000000000000000000000000000000000000000000000000",
            "0x000000000000000000000000cda2fdb452ff4f5d7ba1c3d5dfcc9cb926a5eb7d",
            "0x0000000000000000000000000000000000000000000000000000000000000152"
          ],
          "data": "0x",
          "blockHash": "0xa57d00857aa05abc74cbf010afb5ba5a1fe30ba6fb901c349e15462e47a24611",
          "blockNumber": "0x750753",
          "transactionHash": "0x91e4432089c73d1b063aeda46eca1bdbc69324a7168369fc49a53882d1f0f4f9",
          "transactionIndex": "0x1",
          "logIndex": "0x0",
          "removed": false
        },
        {
          "address": "0x2e8af9c5922623058aa92a183b391e62cb6b2d12",
          "topics": [
            "0xf8e1a15aba9398e019f0b49df1a4fde98ee17ae345cb5f6b5e2c27f5033e8ce7"
          ],
          "data": "0x0000000000000000000000000000000000000000000000000000000000000152",
          "blockHash": "0xa57d00857aa05abc74cbf010afb5ba5a1fe30ba6fb901c349e15462e47a24611",
          "blockNumber": "0x750753",
          "transactionHash": "0x91e4432089c73d1b063aeda46eca1bdbc69324a7168369fc49a53882d1f0f4f9",
          "transactionIndex": "0x1",
          "logIndex": "0x1",
          "removed": false
        }
      ],
      "logsBloom": "0x00000000000000000000000000000000000000020000000000000000000000000000000000000000000000000000000000000000000000000000000000000000000000000000000000000008040000000000000000000000000000000000000000000000020000000000000000000800002000000000800040000010000000000000000000000000000000000000000000000000000000000000000000000000000000000000000000000000000000002000000000004001000000000000008000000002000000000000000000000000000000000000000000000000000020000000000000000000200000020000000000000000100000000000000000000000",
      "type": "0x2",
      "transactionHash": "0x91e4432089c73d1b063aeda46eca1bdbc69324a7168369fc49a53882d1f0f4f9",
      "transactionIndex": "0x1",
      "blockHash": "0xa57d00857aa05abc74cbf010afb5ba5a1fe30ba6fb901c349e15462e47a24611",
      "blockNumber": "0x750753",
      "gasUsed": "0x2ccb8",
      "effectiveGasPrice": "0xfd",
      "from": "0xcda2fdb452ff4f5d7ba1c3d5dfcc9cb926a5eb7d",
      "to": "0x79dfbed14077b8f2421eece5707a17b161094e6a",
      "contractAddress": null,
      "l1BaseFeeScalar": "0x186a0",
      "l1BlobBaseFee": "0x1",
      "l1BlobBaseFeeScalar": "0x95506",
      "l1Fee": "0x8a3e331c9d",
      "l1GasPrice": "0xdd3051c7",
      "l1GasUsed": "0x640"
    },
    {
      "status": "0x1",
      "cumulativeGasUsed": "0x644bb",
      "logs": [
        {
          "address": "0x2e8af9c5922623058aa92a183b391e62cb6b2d12",
          "topics": [
            "0xddf252ad1be2c89b69c2b068fc378daa952ba7f163c4a11628f55a4df523b3ef",
            "0x0000000000000000000000000000000000000000000000000000000000000000",
            "0x000000000000000000000000cda2fdb452ff4f5d7ba1c3d5dfcc9cb926a5eb7d",
            "0x0000000000000000000000000000000000000000000000000000000000000153"
          ],
          "data": "0x",
          "blockHash": "0xa57d00857aa05abc74cbf010afb5ba5a1fe30ba6fb901c349e15462e47a24611",
          "blockNumber": "0x750753",
          "transactionHash": "0xe3c8a0d70e979a263220456bef2fecee0a6f5b344ebb2cda36119c381fdec42d",
          "transactionIndex": "0x2",
          "logIndex": "0x2",
          "removed": false
        },
        {
          "address": "0x2e8af9c5922623058aa92a183b391e62cb6b2d12",
          "topics": [
            "0xf8e1a15aba9398e019f0b49df1a4fde98ee17ae345cb5f6b5e2c27f5033e8ce7"
          ],
          "data": "0x0000000000000000000000000000000000000000000000000000000000000153",
          "blockHash": "0xa57d00857aa05abc74cbf010afb5ba5a1fe30ba6fb901c349e15462e47a24611",
          "blockNumber": "0x750753",
          "transactionHash": "0xe3c8a0d70e979a263220456bef2fecee0a6f5b344ebb2cda36119c381fdec42d",
          "transactionIndex": "0x2",
          "logIndex": "0x3",
          "removed": false
        }
      ],
      "logsBloom": "0x00000000000000000000000000000000000000020000000000000000000000000001000000000000000000000000000000000000000000000000000000000000000000000000000000000008040000000000000000000000000000000000000000000000020000000000000000000800002000000000800000000010000000000000000000000000000000000000000000000000000000000000000000000000000000000000000000000000000000002000000000004000000000000000008000000002000000000000000000000000000000000000800000000000000020000000000000000000200000000000000000000000100000000000020000000000",
      "type": "0x2",
      "transactionHash": "0xe3c8a0d70e979a263220456bef2fecee0a6f5b344ebb2cda36119c381fdec42d",
      "transactionIndex": "0x2",
      "blockHash": "0xa57d00857aa05abc74cbf010afb5ba5a1fe30ba6fb901c349e15462e47a24611",
      "blockNumber": "0x750753",
      "gasUsed": "0x2ccb8",
      "effectiveGasPrice": "0xfd",
      "from": "0xcda2fdb452ff4f5d7ba1c3d5dfcc9cb926a5eb7d",
      "to": "0x79dfbed14077b8f2421eece5707a17b161094e6a",
      "contractAddress": null,
      "l1BaseFeeScalar": "0x186a0",
      "l1BlobBaseFee": "0x1",
      "l1BlobBaseFeeScalar": "0x95506",
      "l1Fee": "0x8a3e331c9d",
      "l1GasPrice": "0xdd3051c7",
      "l1GasUsed": "0x640"
    },
    {
      "status": "0x1",
      "cumulativeGasUsed": "0x91173",
      "logs": [
        {
          "address": "0x2e8af9c5922623058aa92a183b391e62cb6b2d12",
          "topics": [
            "0xddf252ad1be2c89b69c2b068fc378daa952ba7f163c4a11628f55a4df523b3ef",
            "0x0000000000000000000000000000000000000000000000000000000000000000",
            "0x000000000000000000000000cda2fdb452ff4f5d7ba1c3d5dfcc9cb926a5eb7d",
            "0x0000000000000000000000000000000000000000000000000000000000000154"
          ],
          "data": "0x",
          "blockHash": "0xa57d00857aa05abc74cbf010afb5ba5a1fe30ba6fb901c349e15462e47a24611",
          "blockNumber": "0x750753",
          "transactionHash": "0x625d11654c9bae6c092c1a260d661d0d08b9cd58712833c8130cb5f17053e06a",
          "transactionIndex": "0x3",
          "logIndex": "0x4",
          "removed": false
        },
        {
          "address": "0x2e8af9c5922623058aa92a183b391e62cb6b2d12",
          "topics": [
            "0xf8e1a15aba9398e019f0b49df1a4fde98ee17ae345cb5f6b5e2c27f5033e8ce7"
          ],
          "data": "0x0000000000000000000000000000000000000000000000000000000000000154",
          "blockHash": "0xa57d00857aa05abc74cbf010afb5ba5a1fe30ba6fb901c349e15462e47a24611",
          "blockNumber": "0x750753",
          "transactionHash": "0x625d11654c9bae6c092c1a260d661d0d08b9cd58712833c8130cb5f17053e06a",
          "transactionIndex": "0x3",
          "logIndex": "0x5",
          "removed": false
        }
      ],
      "logsBloom": "0x00000000000000000000000000000000000000020000000000000000000000000000000000000000000000000000020000000000000000000000000000000000000000000000000000000008040000000000000000000000000000000000000000000000020000000000000000000800002000000000800000000010000000000000000000000000000000000000000000000000000000000000000000000000000000000000000000000000000000002000000000004000000000000000008000000002000000000000100000000000000000000000000000000000000020000000000000000000200000000000000000000000100000000000000000000080",
      "type": "0x2",
      "transactionHash": "0x625d11654c9bae6c092c1a260d661d0d08b9cd58712833c8130cb5f17053e06a",
      "transactionIndex": "0x3",
      "blockHash": "0xa57d00857aa05abc74cbf010afb5ba5a1fe30ba6fb901c349e15462e47a24611",
      "blockNumber": "0x750753",
      "gasUsed": "0x2ccb8",
      "effectiveGasPrice": "0xfd",
      "from": "0xcda2fdb452ff4f5d7ba1c3d5dfcc9cb926a5eb7d",
      "to": "0x79dfbed14077b8f2421eece5707a17b161094e6a",
      "contractAddress": null,
      "l1BaseFeeScalar": "0x186a0",
      "l1BlobBaseFee": "0x1",
      "l1BlobBaseFeeScalar": "0x95506",
      "l1Fee": "0x8a3e331c9d",
      "l1GasPrice": "0xdd3051c7",
      "l1GasUsed": "0x640"
    },
    {
      "status": "0x1",
      "cumulativeGasUsed": "0xbde2b",
      "logs": [
        {
          "address": "0x2e8af9c5922623058aa92a183b391e62cb6b2d12",
          "topics": [
            "0xddf252ad1be2c89b69c2b068fc378daa952ba7f163c4a11628f55a4df523b3ef",
            "0x0000000000000000000000000000000000000000000000000000000000000000",
            "0x000000000000000000000000cda2fdb452ff4f5d7ba1c3d5dfcc9cb926a5eb7d",
            "0x0000000000000000000000000000000000000000000000000000000000000155"
          ],
          "data": "0x",
          "blockHash": "0xa57d00857aa05abc74cbf010afb5ba5a1fe30ba6fb901c349e15462e47a24611",
          "blockNumber": "0x750753",
          "transactionHash": "0x6416fa1b88c4c41d5631c3da1767569626f21cd235c7f4e63b2d0c7d12bfef1c",
          "transactionIndex": "0x4",
          "logIndex": "0x6",
          "removed": false
        },
        {
          "address": "0x2e8af9c5922623058aa92a183b391e62cb6b2d12",
          "topics": [
            "0xf8e1a15aba9398e019f0b49df1a4fde98ee17ae345cb5f6b5e2c27f5033e8ce7"
          ],
          "data": "0x0000000000000000000000000000000000000000000000000000000000000155",
          "blockHash": "0xa57d00857aa05abc74cbf010afb5ba5a1fe30ba6fb901c349e15462e47a24611",
          "blockNumber": "0x750753",
          "transactionHash": "0x6416fa1b88c4c41d5631c3da1767569626f21cd235c7f4e63b2d0c7d12bfef1c",
          "transactionIndex": "0x4",
          "logIndex": "0x7",
          "removed": false
        }
      ],
      "logsBloom": "0x00000000000000000000000000000000000000020000000000000000000000000000000000000000000000000000000000000000000000000000000000000000000000000000000000000008040000000000000000000000000000000040000000000000020000000000000000000800002000000000800000000010000000000000000000000000000100000000000000000000000000000000000000000000000000000000000000000000000000002000000000004400000000000000008000000002000000000000000000000000000000000000000000000000000020000000000000000000200000000000000000000000100000000000000000000000",
      "type": "0x2",
      "transactionHash": "0x6416fa1b88c4c41d5631c3da1767569626f21cd235c7f4e63b2d0c7d12bfef1c",
      "transactionIndex": "0x4",
      "blockHash": "0xa57d00857aa05abc74cbf010afb5ba5a1fe30ba6fb901c349e15462e47a24611",
      "blockNumber": "0x750753",
      "gasUsed": "0x2ccb8",
      "effectiveGasPrice": "0xfd",
      "from": "0xcda2fdb452ff4f5d7ba1c3d5dfcc9cb926a5eb7d",
      "to": "0x79dfbed14077b8f2421eece5707a17b161094e6a",
      "contractAddress": null,
      "l1BaseFeeScalar": "0x186a0",
      "l1BlobBaseFee": "0x1",
      "l1BlobBaseFeeScalar": "0x95506",
      "l1Fee": "0x8a3e331c9d",
      "l1GasPrice": "0xdd3051c7",
      "l1GasUsed": "0x640"
    },
    {
      "status": "0x1",
      "cumulativeGasUsed": "0xeaae3",
      "logs": [
        {
          "address": "0x2e8af9c5922623058aa92a183b391e62cb6b2d12",
          "topics": [
            "0xddf252ad1be2c89b69c2b068fc378daa952ba7f163c4a11628f55a4df523b3ef",
            "0x0000000000000000000000000000000000000000000000000000000000000000",
            "0x000000000000000000000000cda2fdb452ff4f5d7ba1c3d5dfcc9cb926a5eb7d",
            "0x0000000000000000000000000000000000000000000000000000000000000156"
          ],
          "data": "0x",
          "blockHash": "0xa57d00857aa05abc74cbf010afb5ba5a1fe30ba6fb901c349e15462e47a24611",
          "blockNumber": "0x750753",
          "transactionHash": "0xa3327ffcdd04b2872cba8a967cf6d7567264b12650d3da9997bcc2120f0a6e23",
          "transactionIndex": "0x5",
          "logIndex": "0x8",
          "removed": false
        },
        {
          "address": "0x2e8af9c5922623058aa92a183b391e62cb6b2d12",
          "topics": [
            "0xf8e1a15aba9398e019f0b49df1a4fde98ee17ae345cb5f6b5e2c27f5033e8ce7"
          ],
          "data": "0x0000000000000000000000000000000000000000000000000000000000000156",
          "blockHash": "0xa57d00857aa05abc74cbf010afb5ba5a1fe30ba6fb901c349e15462e47a24611",
          "blockNumber": "0x750753",
          "transactionHash": "0xa3327ffcdd04b2872cba8a967cf6d7567264b12650d3da9997bcc2120f0a6e23",
          "transactionIndex": "0x5",
          "logIndex": "0x9",
          "removed": false
        }
      ],
      "logsBloom": "0x00000000000000000000000000000000000000020000000000000000000000000000000000000080000000000000000000000000000000000000000000000000000000000000000000000008040000000000000000000000000000000000000000000000020000000000000000000800002000000000800000000010000000000000000000000000000000000000000000000000000000000000000000000000000008000000000000000000000000002000000000004000000000000000008000000002000000000000000000000000000000000000000000000000000020000000000000000000200000000000000000000000100000000000000000400000",
      "type": "0x2",
      "transactionHash": "0xa3327ffcdd04b2872cba8a967cf6d7567264b12650d3da9997bcc2120f0a6e23",
      "transactionIndex": "0x5",
      "blockHash": "0xa57d00857aa05abc74cbf010afb5ba5a1fe30ba6fb901c349e15462e47a24611",
      "blockNumber": "0x750753",
      "gasUsed": "0x2ccb8",
      "effectiveGasPrice": "0xfd",
      "from": "0xcda2fdb452ff4f5d7ba1c3d5dfcc9cb926a5eb7d",
      "to": "0x79dfbed14077b8f2421eece5707a17b161094e6a",
      "contractAddress": null,
      "l1BaseFeeScalar": "0x186a0",
      "l1BlobBaseFee": "0x1",
      "l1BlobBaseFeeScalar": "0x95506",
      "l1Fee": "0x8a3e331c9d",
      "l1GasPrice": "0xdd3051c7",
      "l1GasUsed": "0x640"
    },
    {
      "status": "0x1",
      "cumulativeGasUsed": "0x11779b",
      "logs": [
        {
          "address": "0x2e8af9c5922623058aa92a183b391e62cb6b2d12",
          "topics": [
            "0xddf252ad1be2c89b69c2b068fc378daa952ba7f163c4a11628f55a4df523b3ef",
            "0x0000000000000000000000000000000000000000000000000000000000000000",
            "0x000000000000000000000000cda2fdb452ff4f5d7ba1c3d5dfcc9cb926a5eb7d",
            "0x0000000000000000000000000000000000000000000000000000000000000157"
          ],
          "data": "0x",
          "blockHash": "0xa57d00857aa05abc74cbf010afb5ba5a1fe30ba6fb901c349e15462e47a24611",
          "blockNumber": "0x750753",
          "transactionHash": "0xac9ed802acbc56b0a32f6330413aed45470ad99615a5437762c0dfc0ec1cad88",
          "transactionIndex": "0x6",
          "logIndex": "0xa",
          "removed": false
        },
        {
          "address": "0x2e8af9c5922623058aa92a183b391e62cb6b2d12",
          "topics": [
            "0xf8e1a15aba9398e019f0b49df1a4fde98ee17ae345cb5f6b5e2c27f5033e8ce7"
          ],
          "data": "0x0000000000000000000000000000000000000000000000000000000000000157",
          "blockHash": "0xa57d00857aa05abc74cbf010afb5ba5a1fe30ba6fb901c349e15462e47a24611",
          "blockNumber": "0x750753",
          "transactionHash": "0xac9ed802acbc56b0a32f6330413aed45470ad99615a5437762c0dfc0ec1cad88",
          "transactionIndex": "0x6",
          "logIndex": "0xb",
          "removed": false
        }
      ],
      "logsBloom": "0x00000000000000000000000000000000000000020000000000000000020000000000000000000000000000000000000000000000000000000000000000000000000000000000000000000008040000000000000000000000000000000000000001000000020000000000000000000800002000000000800000000010000000000000000000000000000000000000000000000000000000000000000000000000000000000000000000000000000000002000000000004000000000000000008000000002000000000000000000000000000000040000000000000000000020000000000000000000200000000000000000000000100000000000000000000000",
      "type": "0x2",
      "transactionHash": "0xac9ed802acbc56b0a32f6330413aed45470ad99615a5437762c0dfc0ec1cad88",
      "transactionIndex": "0x6",
      "blockHash": "0xa57d00857aa05abc74cbf010afb5ba5a1fe30ba6fb901c349e15462e47a24611",
      "blockNumber": "0x750753",
      "gasUsed": "0x2ccb8",
      "effectiveGasPrice": "0xfd",
      "from": "0xcda2fdb452ff4f5d7ba1c3d5dfcc9cb926a5eb7d",
      "to": "0x79dfbed14077b8f2421eece5707a17b161094e6a",
      "contractAddress": null,
      "l1BaseFeeScalar": "0x186a0",
      "l1BlobBaseFee": "0x1",
      "l1BlobBaseFeeScalar": "0x95506",
      "l1Fee": "0x8a3e331c9d",
      "l1GasPrice": "0xdd3051c7",
      "l1GasUsed": "0x640"
    },
    {
      "status": "0x1",
      "cumulativeGasUsed": "0x144453",
      "logs": [
        {
          "address": "0x2e8af9c5922623058aa92a183b391e62cb6b2d12",
          "topics": [
            "0xddf252ad1be2c89b69c2b068fc378daa952ba7f163c4a11628f55a4df523b3ef",
            "0x0000000000000000000000000000000000000000000000000000000000000000",
            "0x000000000000000000000000cda2fdb452ff4f5d7ba1c3d5dfcc9cb926a5eb7d",
            "0x0000000000000000000000000000000000000000000000000000000000000158"
          ],
          "data": "0x",
          "blockHash": "0xa57d00857aa05abc74cbf010afb5ba5a1fe30ba6fb901c349e15462e47a24611",
          "blockNumber": "0x750753",
          "transactionHash": "0xd328619bc783dc3998bb720325b13224f03e07ba34805b0504b86ceeed037fae",
          "transactionIndex": "0x7",
          "logIndex": "0xc",
          "removed": false
        },
        {
          "address": "0x2e8af9c5922623058aa92a183b391e62cb6b2d12",
          "topics": [
            "0xf8e1a15aba9398e019f0b49df1a4fde98ee17ae345cb5f6b5e2c27f5033e8ce7"
          ],
          "data": "0x0000000000000000000000000000000000000000000000000000000000000158",
          "blockHash": "0xa57d00857aa05abc74cbf010afb5ba5a1fe30ba6fb901c349e15462e47a24611",
          "blockNumber": "0x750753",
          "transactionHash": "0xd328619bc783dc3998bb720325b13224f03e07ba34805b0504b86ceeed037fae",
          "transactionIndex": "0x7",
          "logIndex": "0xd",
          "removed": false
        }
      ],
      "logsBloom": "0x00000000000000000000000000000000000000020000000000000000000000000000000000000000000000000000000000000000000000000000000000000000000000000000000000000008040000000000000000000800000000000000000000000000020000000000000000000800003000000000800000000010000000000000000000000000000000000000000000000000000000000000000000000000000000000000000000000000000000002000000000004800000000000000008000000002000000000000000000000000000000000000000000000000000020000000000000000000200000000000000000000000100000000000000000000000",
      "type": "0x2",
      "transactionHash": "0xd328619bc783dc3998bb720325b13224f03e07ba34805b0504b86ceeed037fae",
      "transactionIndex": "0x7",
      "blockHash": "0xa57d00857aa05abc74cbf010afb5ba5a1fe30ba6fb901c349e15462e47a24611",
      "blockNumber": "0x750753",
      "gasUsed": "0x2ccb8",
      "effectiveGasPrice": "0xfd",
      "from": "0xcda2fdb452ff4f5d7ba1c3d5dfcc9cb926a5eb7d",
      "to": "0x79dfbed14077b8f2421eece5707a17b161094e6a",
      "contractAddress": null,
      "l1BaseFeeScalar": "0x186a0",
      "l1BlobBaseFee": "0x1",
      "l1BlobBaseFeeScalar": "0x95506",
      "l1Fee": "0x8a3e331c9d",
      "l1GasPrice": "0xdd3051c7",
      "l1GasUsed": "0x640"
    },
    {
      "status": "0x1",
      "cumulativeGasUsed": "0x191e7c",
      "logs": [
        {
          "address": "0x2e8af9c5922623058aa92a183b391e62cb6b2d12",
          "topics": [
            "0xddf252ad1be2c89b69c2b068fc378daa952ba7f163c4a11628f55a4df523b3ef",
            "0x0000000000000000000000000000000000000000000000000000000000000000",
            "0x000000000000000000000000cda2fdb452ff4f5d7ba1c3d5dfcc9cb926a5eb7d",
            "0x0000000000000000000000000000000000000000000000000000000000000159"
          ],
          "data": "0x",
          "blockHash": "0xa57d00857aa05abc74cbf010afb5ba5a1fe30ba6fb901c349e15462e47a24611",
          "blockNumber": "0x750753",
          "transactionHash": "0xe6475a4d96e699a3c9ff2360b7b63c0aa82da7962465d1101cf0cc25a1baf209",
          "transactionIndex": "0x9",
          "logIndex": "0x12",
          "removed": false
        },
        {
          "address": "0x2e8af9c5922623058aa92a183b391e62cb6b2d12",
          "topics": [
            "0xf8e1a15aba9398e019f0b49df1a4fde98ee17ae345cb5f6b5e2c27f5033e8ce7"
          ],
          "data": "0x0000000000000000000000000000000000000000000000000000000000000159",
          "blockHash": "0xa57d00857aa05abc74cbf010afb5ba5a1fe30ba6fb901c349e15462e47a24611",
          "blockNumber": "0x750753",
          "transactionHash": "0xe6475a4d96e699a3c9ff2360b7b63c0aa82da7962465d1101cf0cc25a1baf209",
          "transactionIndex": "0x9",
          "logIndex": "0x13",
          "removed": false
        }
      ],
      "logsBloom": "0x00000001000000000000000000000000000000020000000000000000000000000000000000000000000000000000000000000000000000000000000000000000000000000000000000020008040000000000000000000000000000000000000000000000020000000000000000000800002000000000800000000010000000000000000000000000000000000000000000000000000000000000000000000000000000000000000000000000000000002000000000004000000000000000008000000002000000000000000000000000000000000000000000000000000020000000000000000000200000000000000000000000100000000000000000000000",
      "type": "0x2",
      "transactionHash": "0xe6475a4d96e699a3c9ff2360b7b63c0aa82da7962465d1101cf0cc25a1baf209",
      "transactionIndex": "0x9",
      "blockHash": "0xa57d00857aa05abc74cbf010afb5ba5a1fe30ba6fb901c349e15462e47a24611",
      "blockNumber": "0x750753",
      "gasUsed": "0x2ccb8",
      "effectiveGasPrice": "0xfd",
      "from": "0xcda2fdb452ff4f5d7ba1c3d5dfcc9cb926a5eb7d",
      "to": "0x79dfbed14077b8f2421eece5707a17b161094e6a",
      "contractAddress": null,
      "l1BaseFeeScalar": "0x186a0",
      "l1BlobBaseFee": "0x1",
      "l1BlobBaseFeeScalar": "0x95506",
      "l1Fee": "0x8a3e331c9d",
      "l1GasPrice": "0xdd3051c7",
      "l1GasUsed": "0x640"
    },
    {
      "status": "0x1",
      "cumulativeGasUsed": "0x1beb34",
      "logs": [
        {
          "address": "0x2e8af9c5922623058aa92a183b391e62cb6b2d12",
          "topics": [
            "0xddf252ad1be2c89b69c2b068fc378daa952ba7f163c4a11628f55a4df523b3ef",
            "0x0000000000000000000000000000000000000000000000000000000000000000",
            "0x000000000000000000000000cda2fdb452ff4f5d7ba1c3d5dfcc9cb926a5eb7d",
            "0x000000000000000000000000000000000000000000000000000000000000015a"
          ],
          "data": "0x",
          "blockHash": "0xa57d00857aa05abc74cbf010afb5ba5a1fe30ba6fb901c349e15462e47a24611",
          "blockNumber": "0x750753",
          "transactionHash": "0xa1619350b6b493a501854fa88fbffcc7dae7076081c9c973ca410818b95fa6e2",
          "transactionIndex": "0xa",
          "logIndex": "0x14",
          "removed": false
        },
        {
          "address": "0x2e8af9c5922623058aa92a183b391e62cb6b2d12",
          "topics": [
            "0xf8e1a15aba9398e019f0b49df1a4fde98ee17ae345cb5f6b5e2c27f5033e8ce7"
          ],
          "data": "0x000000000000000000000000000000000000000000000000000000000000015a",
          "blockHash": "0xa57d00857aa05abc74cbf010afb5ba5a1fe30ba6fb901c349e15462e47a24611",
          "blockNumber": "0x750753",
          "transactionHash": "0xa1619350b6b493a501854fa88fbffcc7dae7076081c9c973ca410818b95fa6e2",
          "transactionIndex": "0xa",
          "logIndex": "0x15",
          "removed": false
        }
      ],
      "logsBloom": "0x00000000000000000000000000000000000000020000000000000000000000000004000000000000000000000000000000000000000000000000000000000000000000000000000000000008040000000000000000000000000000000000000000000000020000000000000000000800002000000000800000000010000000000000000000000000000000000000000000000000004000000000000000000000000000000000000800000000000000002000000000004000000000000000008000000002000000000000000000000000000000000000000000000000000020000000000000000000200000000000000000000000100000000000000000000000",
      "type": "0x2",
      "transactionHash": "0xa1619350b6b493a501854fa88fbffcc7dae7076081c9c973ca410818b95fa6e2",
      "transactionIndex": "0xa",
      "blockHash": "0xa57d00857aa05abc74cbf010afb5ba5a1fe30ba6fb901c349e15462e47a24611",
      "blockNumber": "0x750753",
      "gasUsed": "0x2ccb8",
      "effectiveGasPrice": "0xfd",
      "from": "0xcda2fdb452ff4f5d7ba1c3d5dfcc9cb926a5eb7d",
      "to": "0x79dfbed14077b8f2421eece5707a17b161094e6a",
      "contractAddress": null,
      "l1BaseFeeScalar": "0x186a0",
      "l1BlobBaseFee": "0x1",
      "l1BlobBaseFeeScalar": "0x95506",
      "l1Fee": "0x8a3e331c9d",
      "l1GasPrice": "0xdd3051c7",
      "l1GasUsed": "0x640"
    },
    {
      "status": "0x1",
      "cumulativeGasUsed": "0x1eb7ec",
      "logs": [
        {
          "address": "0x2e8af9c5922623058aa92a183b391e62cb6b2d12",
          "topics": [
            "0xddf252ad1be2c89b69c2b068fc378daa952ba7f163c4a11628f55a4df523b3ef",
            "0x0000000000000000000000000000000000000000000000000000000000000000",
            "0x000000000000000000000000cda2fdb452ff4f5d7ba1c3d5dfcc9cb926a5eb7d",
            "0x000000000000000000000000000000000000000000000000000000000000015b"
          ],
          "data": "0x",
          "blockHash": "0xa57d00857aa05abc74cbf010afb5ba5a1fe30ba6fb901c349e15462e47a24611",
          "blockNumber": "0x750753",
          "transactionHash": "0xbb831a21f206e07809c5d8e908f06a9c6451dba2518f1edb7a9f9a7c10cc33c0",
          "transactionIndex": "0xb",
          "logIndex": "0x16",
          "removed": false
        },
        {
          "address": "0x2e8af9c5922623058aa92a183b391e62cb6b2d12",
          "topics": [
            "0xf8e1a15aba9398e019f0b49df1a4fde98ee17ae345cb5f6b5e2c27f5033e8ce7"
          ],
          "data": "0x000000000000000000000000000000000000000000000000000000000000015b",
          "blockHash": "0xa57d00857aa05abc74cbf010afb5ba5a1fe30ba6fb901c349e15462e47a24611",
          "blockNumber": "0x750753",
          "transactionHash": "0xbb831a21f206e07809c5d8e908f06a9c6451dba2518f1edb7a9f9a7c10cc33c0",
          "transactionIndex": "0xb",
          "logIndex": "0x17",
          "removed": false
        }
      ],
      "logsBloom": "0x00000000000000000000000000000000000000020000000000000000000000000000000000000000000000000000000000000000000000000000000000000000000000000000000000000008040000000000000000000000000000000000000000000000020000400000000020000800002000000000800000000010000000000000000000000000000000000000000000000000000000000000001000000000000000000000000000000000000000002000000000004000000000000000008000000002000000000000000000000000000000000000000000000000000020000000000000000000200000000000000000000000100000000000000000000000",
      "type": "0x2",
      "transactionHash": "0xbb831a21f206e07809c5d8e908f06a9c6451dba2518f1edb7a9f9a7c10cc33c0",
      "transactionIndex": "0xb",
      "blockHash": "0xa57d00857aa05abc74cbf010afb5ba5a1fe30ba6fb901c349e15462e47a24611",
      "blockNumber": "0x750753",
      "gasUsed": "0x2ccb8",
      "effectiveGasPrice": "0xfd",
      "from": "0xcda2fdb452ff4f5d7ba1c3d5dfcc9cb926a5eb7d",
      "to": "0x79dfbed14077b8f2421eece5707a17b161094e6a",
      "contractAddress": null,
      "l1BaseFeeScalar": "0x186a0",
      "l1BlobBaseFee": "0x1",
      "l1BlobBaseFeeScalar": "0x95506",
      "l1Fee": "0x8a3e331c9d",
      "l1GasPrice": "0xdd3051c7",
      "l1GasUsed": "0x640"
    },
    {
      "status": "0x1",
      "cumulativeGasUsed": "0x2184a4",
      "logs": [
        {
          "address": "0x2e8af9c5922623058aa92a183b391e62cb6b2d12",
          "topics": [
            "0xddf252ad1be2c89b69c2b068fc378daa952ba7f163c4a11628f55a4df523b3ef",
            "0x0000000000000000000000000000000000000000000000000000000000000000",
            "0x000000000000000000000000cda2fdb452ff4f5d7ba1c3d5dfcc9cb926a5eb7d",
            "0x000000000000000000000000000000000000000000000000000000000000015c"
          ],
          "data": "0x",
          "blockHash": "0xa57d00857aa05abc74cbf010afb5ba5a1fe30ba6fb901c349e15462e47a24611",
          "blockNumber": "0x750753",
          "transactionHash": "0x7141ece88bac937d81f9f20910796286f6e9a54439d8e73971015a055c516b4c",
          "transactionIndex": "0xc",
          "logIndex": "0x18",
          "removed": false
        },
        {
          "address": "0x2e8af9c5922623058aa92a183b391e62cb6b2d12",
          "topics": [
            "0xf8e1a15aba9398e019f0b49df1a4fde98ee17ae345cb5f6b5e2c27f5033e8ce7"
          ],
          "data": "0x000000000000000000000000000000000000000000000000000000000000015c",
          "blockHash": "0xa57d00857aa05abc74cbf010afb5ba5a1fe30ba6fb901c349e15462e47a24611",
          "blockNumber": "0x750753",
          "transactionHash": "0x7141ece88bac937d81f9f20910796286f6e9a54439d8e73971015a055c516b4c",
          "transactionIndex": "0xc",
          "logIndex": "0x19",
          "removed": false
        }
      ],
      "logsBloom": "0x00000000000000000000000000000000000000020000000000000000000000000000000000000000000000000000000000000000000000000000000000000000000000000000000000000008040000000000000000000000000000000000000000000000020000000000000000000800002000000000800001000010000000000000000000000000000000000000000000000000000000000000000000000000000000000000000000000000200000002000000000004000000000000000008000000002000000000000000000000000000000000000000000000000000020000000000000000000200000000000000000000000100000000000000000010000",
      "type": "0x2",
      "transactionHash": "0x7141ece88bac937d81f9f20910796286f6e9a54439d8e73971015a055c516b4c",
      "transactionIndex": "0xc",
      "blockHash": "0xa57d00857aa05abc74cbf010afb5ba5a1fe30ba6fb901c349e15462e47a24611",
      "blockNumber": "0x750753",
      "gasUsed": "0x2ccb8",
      "effectiveGasPrice": "0xfd",
      "from": "0xcda2fdb452ff4f5d7ba1c3d5dfcc9cb926a5eb7d",
      "to": "0x79dfbed14077b8f2421eece5707a17b161094e6a",
      "contractAddress": null,
      "l1BaseFeeScalar": "0x186a0",
      "l1BlobBaseFee": "0x1",
      "l1BlobBaseFeeScalar": "0x95506",
      "l1Fee": "0x8a3e331c9d",
      "l1GasPrice": "0xdd3051c7",
      "l1GasUsed": "0x640"
    },
    {
      "status": "0x1",
      "cumulativeGasUsed": "0x24515c",
      "logs": [
        {
          "address": "0x2e8af9c5922623058aa92a183b391e62cb6b2d12",
          "topics": [
            "0xddf252ad1be2c89b69c2b068fc378daa952ba7f163c4a11628f55a4df523b3ef",
            "0x0000000000000000000000000000000000000000000000000000000000000000",
            "0x000000000000000000000000cda2fdb452ff4f5d7ba1c3d5dfcc9cb926a5eb7d",
            "0x000000000000000000000000000000000000000000000000000000000000015d"
          ],
          "data": "0x",
          "blockHash": "0xa57d00857aa05abc74cbf010afb5ba5a1fe30ba6fb901c349e15462e47a24611",
          "blockNumber": "0x750753",
          "transactionHash": "0xb134d3eb3b55a88c10342999b9590e7f469bf927871607b99b22e36e50638cfc",
          "transactionIndex": "0xd",
          "logIndex": "0x1a",
          "removed": false
        },
        {
          "address": "0x2e8af9c5922623058aa92a183b391e62cb6b2d12",
          "topics": [
            "0xf8e1a15aba9398e019f0b49df1a4fde98ee17ae345cb5f6b5e2c27f5033e8ce7"
          ],
          "data": "0x000000000000000000000000000000000000000000000000000000000000015d",
          "blockHash": "0xa57d00857aa05abc74cbf010afb5ba5a1fe30ba6fb901c349e15462e47a24611",
          "blockNumber": "0x750753",
          "transactionHash": "0xb134d3eb3b55a88c10342999b9590e7f469bf927871607b99b22e36e50638cfc",
          "transactionIndex": "0xd",
          "logIndex": "0x1b",
          "removed": false
        }
      ],
      "logsBloom": "0x00000000000000000000000000000000000000020000000000000000000000000000000000000000000000000000000000000000000000000000000000000000000000000000000000000008040100000000001000000000000000000000000000000000020000000000000000000800002000000000800000000010000000000000000000000000000000000000000000000000000000000000000000000000000000000000000000000000000000002000000000004000000000000000008000000002000000000000000000000000000000000000000001000000000020000000000000000000200000000000000000000000100000000000000000000000",
      "type": "0x2",
      "transactionHash": "0xb134d3eb3b55a88c10342999b9590e7f469bf927871607b99b22e36e50638cfc",
      "transactionIndex": "0xd",
      "blockHash": "0xa57d00857aa05abc74cbf010afb5ba5a1fe30ba6fb901c349e15462e47a24611",
      "blockNumber": "0x750753",
      "gasUsed": "0x2ccb8",
      "effectiveGasPrice": "0xfd",
      "from": "0xcda2fdb452ff4f5d7ba1c3d5dfcc9cb926a5eb7d",
      "to": "0x79dfbed14077b8f2421eece5707a17b161094e6a",
      "contractAddress": null,
      "l1BaseFeeScalar": "0x186a0",
      "l1BlobBaseFee": "0x1",
      "l1BlobBaseFeeScalar": "0x95506",
      "l1Fee": "0x8a3e331c9d",
      "l1GasPrice": "0xdd3051c7",
      "l1GasUsed": "0x640"
    }
  ],
  "libraries": [],
  "pending": [],
  "returns": {},
  "timestamp": 1728201168,
  "chain": 60808,
  "commit": "7d9679b"
}