{
  "transactions": [
    {
      "hash": "0x569e9c68d5596b4a9651175056f4cc9e7e8adbd95537d114e665d084556ce464",
      "transactionType": "CREATE",
      "contractName": "Sp_IcyExecutioner",
      "contractAddress": "0x882A8478F978579bD495E231C61493af4edb50A6",
      "function": null,
      "arguments": null,
      "transaction": {
        "type": "0x02",
        "from": "0xcda2fdb452ff4f5d7ba1c3d5dfcc9cb926a5eb7d",
        "gas": "0x14d6d4",
        "value": "0x0",
        "data": "0x60a060405260056002818155600355600660805280546001600160a01b03191673575c065bf1fa9d6f0f94aac620a6936dd8517c7d179055601460075534801561004857600080fd5b50338061006f57604051631e4fbdf760e01b81526000600482015260240160405180910390fd5b6100788161007e565b506100ce565b600080546001600160a01b038381166001600160a01b0319831681178455604051919092169283917f8be0079c531659141344cd1fd0a4f28419497f9722a3daafe3b4186f6b6457e09190a35050565b608051610ff76100e960003960006102f70152610ff76000f3fe6080604052600436106100c25760003560e01c806377f35e431161007f578063974ee7c211610059578063974ee7c214610218578063e744092e14610238578063f2fde38b14610278578063feb812af1461029857600080fd5b806377f35e43146101ad578063897fd364146101da5780638da5cb5b146101fa57600080fd5b806314ad0665146100c757806316d03993146101125780631b3ed72214610128578063715018a61461013e57806373a8c682146101555780637430286f1461018d575b600080fd5b3480156100d357600080fd5b506100ff6100e2366004610bca565b600b60209081526000928352604080842090915290825290205481565b6040519081526020015b60405180910390f35b34801561011e57600080fd5b506100ff60025481565b34801561013457600080fd5b506100ff60035481565b34801561014a57600080fd5b506101536102ab565b005b34801561016157600080fd5b50600554610175906001600160a01b031681565b6040516001600160a01b039091168152602001610109565b34801561019957600080fd5b506101536101a8366004610c03565b6102bf565b3480156101b957600080fd5b506100ff6101c8366004610c25565b600a6020526000908152604090205481565b3480156101e657600080fd5b506101536101f5366004610d21565b6102ed565b34801561020657600080fd5b506000546001600160a01b0316610175565b34801561022457600080fd5b50610153610233366004610c25565b6104b3565b34801561024457600080fd5b50610268610253366004610c25565b60086020526000908152604090205460ff1681565b6040519015158152602001610109565b34801561028457600080fd5b50610153610293366004610c25565b6104dd565b6101536102a6366004610e25565b610520565b6102b3610a48565b6102bd6000610a75565b565b6102c7610a48565b6000821180156102d957506000600354115b6102e257600080fd5b600291909155600355565b6102f5610a48565b7f000000000000000000000000000000000000000000000000000000000000000060ff1685511061032557600080fd5b60005b85518160ff1610156103b8576000868260ff168151811061034b5761034b610ec5565b6020908102919091010151600480546001810182556000919091527f8a35acfbc15ff81a39ae7d344fd709f28e8600b4aa8c65c6b64bfe7fe36bd19b0180546001600160a01b0319166001600160a01b0390921691909117905550806103b081610ef1565b915050610328565b5060005b825181101561047d578181815181106103d7576103d7610ec5565b6020026020010151600960008584815181106103f5576103f5610ec5565b60200260200101516001600160a01b03166001600160a01b031681526020019081526020016000208190555060016008600085848151811061043957610439610ec5565b6020908102919091018101516001600160a01b03168252810191909152604001600020805460ff19169115159190911790558061047581610f10565b9150506103bc565b5050600180546001600160a01b039485166001600160a01b03199182161790915560068054939094169216919091179091555050565b6104bb610a48565b600580546001600160a01b0319166001600160a01b0392909216919091179055565b6104e5610a48565b6001600160a01b03811661051457604051631e4fbdf760e01b8152600060048201526024015b60405180910390fd5b61051d81610a75565b50565b6005546001600160a01b03868116911614801561053c57508215155b6105765760405162461bcd60e51b815260206004820152600b60248201526a139bdd08185b1b1bddd95960aa1b604482015260640161050b565b6001600160a01b038216156106eb576040516323b872dd60e01b8152336004820152306024820152604481018290526001600160a01b038316906323b872dd906064016020604051808303816000875af11580156105d8573d6000803e3d6000fd5b505050506040513d601f19601f820116820180604052508101906105fc9190610f29565b50604051636eb1769f60e11b81523060048201526001600160a01b03868116602483015282919084169063dd62ed3e90604401602060405180830381865afa15801561064c573d6000803e3d6000fd5b505050506040513d601f19601f820116820180604052508101906106709190610f4b565b10156106eb5760405163095ea7b360e01b81526001600160a01b0386811660048301526024820183905283169063095ea7b3906044016020604051808303816000875af11580156106c5573d6000803e3d6000fd5b505050506040513d601f19601f820116820180604052508101906106e99190610f29565b505b6000856001600160a01b0316348686604051610708929190610f64565b60006040518083038185875af1925050503d8060008114610745576040519150601f19603f3d011682016040523d82523d6000602084013e61074a565b606091505b5050905080801561076557506001546001600160a01b031615155b801561078857506001600160a01b03831660009081526009602052604090205482115b80156107ac57506001600160a01b03831660009081526008602052604090205460ff165b15610a1957336000908152600a602052604081208054600192906107d1908490610f74565b90915550506001600160a01b038316156107eb57816107ed565b345b336000908152600b602090815260408083206001600160a01b038816845290915281208054909190610820908490610f74565b909155506000905061083133610ac5565b60015460405163507cd30f60e01b8152336004820152602481018390529192506001600160a01b03169063507cd30f906044016020604051808303816000875af1158015610883573d6000803e3d6000fd5b505050506040513d601f19601f820116820180604052508101906108a79190610f29565b5060065460405163f4a8b19760e01b81523360048201526000916001600160a01b03169063f4a8b19790602401602060405180830381865afa1580156108f1573d6000803e3d6000fd5b505050506040513d601f19601f820116820180604052508101906109159190610f8d565b90506001600160a01b038116158015906109985750600154604051630a2edb5560e21b81526001600160a01b038381166004830152909116906328bb6d5490602401602060405180830381865afa158015610974573d6000803e3d6000fd5b505050506040513d601f19601f820116820180604052508101906109989190610f29565b15610a165760015460405163507cd30f60e01b81526001600160a01b038381166004830152602482018590529091169063507cd30f906044016020604051808303816000875af11580156109f0573d6000803e3d6000fd5b505050506040513d601f19601f82011682018060405250810190610a149190610f29565b505b50505b80610a405760405162461bcd60e51b8152602060048201526000602482015260440161050b565b505050505050565b6000546001600160a01b031633146102bd5760405163118cdaa760e01b815233600482015260240161050b565b600080546001600160a01b038381166001600160a01b0319831681178455604051919092169283917f8be0079c531659141344cd1fd0a4f28419497f9722a3daafe3b4186f6b6457e09190a35050565b60008060005b60045460ff82161015610b835760048160ff1681548110610aee57610aee610ec5565b6000918252602090912001546040516370a0823160e01b81526001600160a01b038681166004830152909116906370a0823190602401602060405180830381865afa158015610b41573d6000803e3d6000fd5b505050506040513d601f19601f82011682018060405250810190610b659190610f4b565b610b6f9083610f74565b915080610b7b81610ef1565b915050610acb565b50600754811115610b9357506007545b80600354610ba19190610faa565b600254610bae9190610f74565b9392505050565b6001600160a01b038116811461051d57600080fd5b60008060408385031215610bdd57600080fd5b8235610be881610bb5565b91506020830135610bf881610bb5565b809150509250929050565b60008060408385031215610c1657600080fd5b50508035926020909101359150565b600060208284031215610c3757600080fd5b8135610bae81610bb5565b634e487b7160e01b600052604160045260246000fd5b604051601f8201601f1916810167ffffffffffffffff81118282101715610c8157610c81610c42565b604052919050565b600067ffffffffffffffff821115610ca357610ca3610c42565b5060051b60200190565b600082601f830112610cbe57600080fd5b81356020610cd3610cce83610c89565b610c58565b82815260059290921b84018101918181019086841115610cf257600080fd5b8286015b84811015610d16578035610d0981610bb5565b8352918301918301610cf6565b509695505050505050565b600080600080600060a08688031215610d3957600080fd5b853567ffffffffffffffff80821115610d5157600080fd5b610d5d89838a01610cad565b96506020915081880135610d7081610bb5565b95506040880135610d8081610bb5565b9450606088013581811115610d9457600080fd5b610da08a828b01610cad565b945050608088013581811115610db557600080fd5b88019050601f81018913610dc857600080fd5b8035610dd6610cce82610c89565b81815260059190911b8201830190838101908b831115610df557600080fd5b928401925b82841015610e1357833582529284019290840190610dfa565b80955050505050509295509295909350565b600080600080600060808688031215610e3d57600080fd5b8535610e4881610bb5565b9450602086013567ffffffffffffffff80821115610e6557600080fd5b818801915088601f830112610e7957600080fd5b813581811115610e8857600080fd5b896020828501011115610e9a57600080fd5b6020830196508095505050506040860135610eb481610bb5565b949793965091946060013592915050565b634e487b7160e01b600052603260045260246000fd5b634e487b7160e01b600052601160045260246000fd5b600060ff821660ff8103610f0757610f07610edb565b60010192915050565b600060018201610f2257610f22610edb565b5060010190565b600060208284031215610f3b57600080fd5b81518015158114610bae57600080fd5b600060208284031215610f5d57600080fd5b5051919050565b8183823760009101908152919050565b80820180821115610f8757610f87610edb565b92915050565b600060208284031215610f9f57600080fd5b8151610bae81610bb5565b8082028115828204841417610f8757610f87610edb56fea26469706673582212200a6e3c850449edb1a792850fb0e6e04952792567794a5457975f5e6e09bb7f2d64736f6c63430008140033",
        "nonce": "0x1d6",
        "accessList": []
      },
      "additionalContracts": [],
      "isFixedGasLimit": false
    },
    {
      "hash": "0x0136ebd5d09bb42d4cf237f5f6c87c149b887d7347df69a64a157b58de56691b",
      "transactionType": "CALL",
      "contractName": "Sp_IcyExecutioner",
      "contractAddress": "0x882A8478F978579bD495E231C61493af4edb50A6",
      "function": "initializeCa(address[],address,address,address[],uint256[])",
      "arguments": [
        "[0x3eFC90a28685d320F6916b76D8C679da67cc23DC]",
        "0xCA9c5943Dd7d0fE1E6A0Cf12F2eA65d310A3b2AA",
        "0xC4f681699CCDfFB26be46f1E109896cBb13cF18F",
        "[0x0000000000000000000000000000000000000000, 0x4200000000000000000000000000000000000006, 0x03C7054BCB39f7b2e5B2c7AcB37583e32D70Cfa3, 0x05D032ac25d322df992303dCa074EE7392C117b9, 0xe75D0fB2C24A55cA1e3F96781a2bCC7bdba058F0]",
        "[3000000000000000, 3000000000000000, 15000, 10000000, 10000000]"
      ],
      "transaction": {
        "type": "0x02",
        "from": "0xcda2fdb452ff4f5d7ba1c3d5dfcc9cb926a5eb7d",
        "to": "0x882a8478f978579bd495e231c61493af4edb50a6",
        "gas": "0x7a7e7",
        "value": "0x0",
        "data": "0x897fd36400000000000000000000000000000000000000000000000000000000000000a0000000000000000000000000ca9c5943dd7d0fe1e6a0cf12f2ea65d310a3b2aa000000000000000000000000c4f681699ccdffb26be46f1e109896cbb13cf18f00000000000000000000000000000000000000000000000000000000000000e000000000000000000000000000000000000000000000000000000000000001a000000000000000000000000000000000000000000000000000000000000000010000000000000000000000003efc90a28685d320f6916b76d8c679da67cc23dc00000000000000000000000000000000000000000000000000000000000000050000000000000000000000000000000000000000000000000000000000000000000000000000000000000000420000000000000000000000000000000000000600000000000000000000000003c7054bcb39f7b2e5b2c7acb37583e32d70cfa300000000000000000000000005d032ac25d322df992303dca074ee7392c117b9000000000000000000000000e75d0fb2c24a55ca1e3f96781a2bcc7bdba058f00000000000000000000000000000000000000000000000000000000000000005000000000000000000000000000000000000000000000000000aa87bee538000000000000000000000000000000000000000000000000000000aa87bee5380000000000000000000000000000000000000000000000000000000000000003a9800000000000000000000000000000000000000000000000000000000009896800000000000000000000000000000000000000000000000000000000000989680",
        "nonce": "0x1d7",
        "accessList": []
      },
      "additionalContracts": [],
      "isFixedGasLimit": false
    },
    {
      "hash": "0x59baddf73138493fdf691e6fd6fef1a85410a76afea433ec369c98854c82f99f",
      "transactionType": "CALL",
      "contractName": null,
      "contractAddress": "0xCA9c5943Dd7d0fE1E6A0Cf12F2eA65d310A3b2AA",
      "function": null,
      "arguments": null,
      "transaction": {
        "type": "0x02",
        "from": "0xcda2fdb452ff4f5d7ba1c3d5dfcc9cb926a5eb7d",
        "to": "0xca9c5943dd7d0fe1e6a0cf12f2ea65d310a3b2aa",
        "gas": "0xfa35",
        "value": "0x0",
        "data": "0xdfba52c7000000000000000000000000882a8478f978579bd495e231c61493af4edb50a60000000000000000000000000000000000000000000000000000000000000001",
        "nonce": "0x1d8",
        "accessList": []
      },
      "additionalContracts": [],
      "isFixedGasLimit": false
    },
    {
      "hash": "0x4b2cc25090b4f97d05a978aac9f1f44b785489e1c99691ebe6330a8021827e09",
      "transactionType": "CALL",
      "contractName": null,
      "contractAddress": "0xCA9c5943Dd7d0fE1E6A0Cf12F2eA65d310A3b2AA",
      "function": null,
      "arguments": null,
      "transaction": {
        "type": "0x02",
        "from": "0xcda2fdb452ff4f5d7ba1c3d5dfcc9cb926a5eb7d",
        "to": "0xca9c5943dd7d0fe1e6a0cf12f2ea65d310a3b2aa",
        "gas": "0x8ec5",
        "value": "0x0",
        "data": "0xdfba52c700000000000000000000000067dd20e8bac825a7b982f54f325bd221581c040f0000000000000000000000000000000000000000000000000000000000000000",
        "nonce": "0x1d9",
        "accessList": []
      },
      "additionalContracts": [],
      "isFixedGasLimit": false
    }
  ],
  "receipts": [
    {
      "transactionHash": "0x569e9c68d5596b4a9651175056f4cc9e7e8adbd95537d114e665d084556ce464",
      "transactionIndex": "0x1",
      "blockHash": "0x9e8266fa2787c0d22fa06e52b743e9ed5a4b9b916de0be95f8dc156d908e5953",
      "blockNumber": "0x2e06a6",
      "from": "0xcdA2fDB452FF4F5D7Ba1C3d5dFCc9CB926A5eb7D",
      "to": null,
      "cumulativeGasUsed": "0x10b428",
      "gasUsed": "0x1008c5",
      "contractAddress": "0x882A8478F978579bD495E231C61493af4edb50A6",
      "logs": [
        {
          "address": "0x882A8478F978579bD495E231C61493af4edb50A6",
          "topics": [
            "0x8be0079c531659141344cd1fd0a4f28419497f9722a3daafe3b4186f6b6457e0",
            "0x0000000000000000000000000000000000000000000000000000000000000000",
            "0x000000000000000000000000cda2fdb452ff4f5d7ba1c3d5dfcc9cb926a5eb7d"
          ],
          "data": "0x",
          "blockHash": "0x9e8266fa2787c0d22fa06e52b743e9ed5a4b9b916de0be95f8dc156d908e5953",
          "blockNumber": "0x2e06a6",
          "transactionHash": "0x569e9c68d5596b4a9651175056f4cc9e7e8adbd95537d114e665d084556ce464",
          "transactionIndex": "0x1",
          "logIndex": "0x0",
          "removed": false
        }
      ],
      "status": "0x1",
      "logsBloom": "0x00000000000000000000000000000000000000000000000000800000000000000000000000000000000000000000000000000000000000000000000000000000000000000000000000000000040000000001000000000000000000000000000000000000020000000000000000000800000000000000800000000000000000400000000000000000000000000000000000000000000000000000000000000000000000000002400000000000000000000000000000084000000000000000000000000000000000000000000000000000000000000000000000000000000020000000000000000000000000000000000000000000000000000000000000000000",
      "type": "0x2",
      "effectiveGasPrice": "0xfd"
    },
    {
      "transactionHash": "0x0136ebd5d09bb42d4cf237f5f6c87c149b887d7347df69a64a157b58de56691b",
      "transactionIndex": "0x2",
      "blockHash": "0x9e8266fa2787c0d22fa06e52b743e9ed5a4b9b916de0be95f8dc156d908e5953",
      "blockNumber": "0x2e06a6",
      "from": "0xcdA2fDB452FF4F5D7Ba1C3d5dFCc9CB926A5eb7D",
      "to": "0x882A8478F978579bD495E231C61493af4edb50A6",
      "cumulativeGasUsed": "0x15f043",
      "gasUsed": "0x53c1b",
      "contractAddress": null,
      "logs": [],
      "status": "0x1",
      "logsBloom": "0x00000000000000000000000000000000000000000000000000000000000000000000000000000000000000000000000000000000000000000000000000000000000000000000000000000000000000000000000000000000000000000000000000000000000000000000000000000000000000000000000000000000000000000000000000000000000000000000000000000000000000000000000000000000000000000000000000000000000000000000000000000000000000000000000000000000000000000000000000000000000000000000000000000000000000000000000000000000000000000000000000000000000000000000000000000000",
      "type": "0x2",
      "effectiveGasPrice": "0xfd"
    },
    {
      "transactionHash": "0x59baddf73138493fdf691e6fd6fef1a85410a76afea433ec369c98854c82f99f",
      "transactionIndex": "0x3",
      "blockHash": "0x9e8266fa2787c0d22fa06e52b743e9ed5a4b9b916de0be95f8dc156d908e5953",
      "blockNumber": "0x2e06a6",
      "from": "0xcdA2fDB452FF4F5D7Ba1C3d5dFCc9CB926A5eb7D",
      "to": "0xCA9c5943Dd7d0fE1E6A0Cf12F2eA65d310A3b2AA",
      "cumulativeGasUsed": "0x16a569",
      "gasUsed": "0xb526",
      "contractAddress": null,
      "logs": [],
      "status": "0x1",
      "logsBloom": "0x00000000000000000000000000000000000000000000000000000000000000000000000000000000000000000000000000000000000000000000000000000000000000000000000000000000000000000000000000000000000000000000000000000000000000000000000000000000000000000000000000000000000000000000000000000000000000000000000000000000000000000000000000000000000000000000000000000000000000000000000000000000000000000000000000000000000000000000000000000000000000000000000000000000000000000000000000000000000000000000000000000000000000000000000000000000",
      "type": "0x2",
      "effectiveGasPrice": "0xfd"
    },
    {
      "transactionHash": "0x4b2cc25090b4f97d05a978aac9f1f44b785489e1c99691ebe6330a8021827e09",
      "transactionIndex": "0x4",
      "blockHash": "0x9e8266fa2787c0d22fa06e52b743e9ed5a4b9b916de0be95f8dc156d908e5953",
      "blockNumber": "0x2e06a6",
      "from": "0xcdA2fDB452FF4F5D7Ba1C3d5dFCc9CB926A5eb7D",
      "to": "0xCA9c5943Dd7d0fE1E6A0Cf12F2eA65d310A3b2AA",
      "cumulativeGasUsed": "0x170cc7",
      "gasUsed": "0x675e",
      "contractAddress": null,
      "logs": [],
      "status": "0x1",
      "logsBloom": "0x00000000000000000000000000000000000000000000000000000000000000000000000000000000000000000000000000000000000000000000000000000000000000000000000000000000000000000000000000000000000000000000000000000000000000000000000000000000000000000000000000000000000000000000000000000000000000000000000000000000000000000000000000000000000000000000000000000000000000000000000000000000000000000000000000000000000000000000000000000000000000000000000000000000000000000000000000000000000000000000000000000000000000000000000000000000",
      "type": "0x2",
      "effectiveGasPrice": "0xfd"
    }
  ],
  "libraries": [],
  "pending": [],
  "returns": {},
  "timestamp": 1718750626,
  "chain": 60808,
  "multi": false,
  "commit": "7d9679b"
}