{
  "transactions": [
    {
      "hash": "0xf549a1dc1b2dd8534c7414762b4fdb8474f880d325113abccc7d39f5e06f5970",
      "transactionType": "CALL",
      "contractName": null,
      "contractAddress": "0x024789f444bed5b8d9d3e8b13845a83ca5aa120d",
      "function": "setWlStat(address,bool,uint256)",
      "arguments": [
        "0x0426E6B29Ec78c8d43502EC8DECbDb76551e7D60",
        "true",
        "10"
      ],
      "transaction": {
        "from": "0xcda2fdb452ff4f5d7ba1c3d5dfcc9cb926a5eb7d",
        "to": "0x024789f444bed5b8d9d3e8b13845a83ca5aa120d",
        "gas": "0x17f46",
        "value": "0x0",
        "input": "0x1425d0a40000000000000000000000000426e6b29ec78c8d43502ec8decbdb76551e7d600000000000000000000000000000000000000000000000000000000000000001000000000000000000000000000000000000000000000000000000000000000a",
        "nonce": "0x21f0",
        "chainId": "0xed88"
      },
      "additionalContracts": [],
      "isFixedGasLimit": false
    }
  ],
  "receipts": [
    {
      "status": "0x1",
      "cumulativeGasUsed": "0x1c0d4",
      "logs": [],
      "logsBloom": "0x00000000000000000000000000000000000000000000000000000000000000000000000000000000000000000000000000000000000000000000000000000000000000000000000000000000000000000000000000000000000000000000000000000000000000000000000000000000000000000000000000000000000000000000000000000000000000000000000000000000000000000000000000000000000000000000000000000000000000000000000000000000000000000000000000000000000000000000000000000000000000000000000000000000000000000000000000000000000000000000000000000000000000000000000000000000",
      "type": "0x2",
      "transactionHash": "0xf549a1dc1b2dd8534c7414762b4fdb8474f880d325113abccc7d39f5e06f5970",
      "transactionIndex": "0x1",
      "blockHash": "0xbf77c01a86224f090f51a220b8cd1ffa48a2cdade2b69147b47aa4ad0df4f33d",
      "blockNumber": "0x75c561",
      "gasUsed": "0x1157d",
      "effectiveGasPrice": "0xfd",
      "from": "0xcda2fdb452ff4f5d7ba1c3d5dfcc9cb926a5eb7d",
      "to": "0x024789f444bed5b8d9d3e8b13845a83ca5aa120d",
      "contractAddress": null,
      "l1BaseFeeScalar": "0x186a0",
      "l1BlobBaseFee": "0x1",
      "l1BlobBaseFeeScalar": "0x95506",
      "l1Fee": "0x12cb141ae7d",
      "l1GasPrice": "0x1e11b9c4a",
      "l1GasUsed": "0x640"
    }
  ],
  "libraries": [],
  "pending": [],
  "returns": {},
  "timestamp": 1728298473,
  "chain": 60808,
  "commit": "7d9679b"
}