{
  "transactions": [
    {
      "hash": "0x1d7d573d8d0c9581029006c94c10c89c360e6b23682a609ec788d6d4c4f8f85a",
      "transactionType": "CALL",
      "contractName": null,
      "contractAddress": "0x79dfbed14077b8f2421eece5707a17b161094e6a",
      "function": "wlMint(address)",
      "arguments": [
        "0x0000000000000000000000000000000000000000"
      ],
      "transaction": {
        "from": "0xcda2fdb452ff4f5d7ba1c3d5dfcc9cb926a5eb7d",
        "to": "0x79dfbed14077b8f2421eece5707a17b161094e6a",
        "gas": "0x3ddf7",
        "value": "0x0",
        "input": "0xc517b4a50000000000000000000000000000000000000000000000000000000000000000",
        "nonce": "0x1dfe",
        "chainId": "0xed88"
      },
      "additionalContracts": [],
      "isFixedGasLimit": false
    },
    {
      "hash": "0x72256a07a05d289d79d0b03d0a4aa1f2b0ca611ffa9c406b97c4e13adee8f28e",
      "transactionType": "CALL",
      "contractName": null,
      "contractAddress": "0x79dfbed14077b8f2421eece5707a17b161094e6a",
      "function": "wlMint(address)",
      "arguments": [
        "0x0000000000000000000000000000000000000000"
      ],
      "transaction": {
        "from": "0xcda2fdb452ff4f5d7ba1c3d5dfcc9cb926a5eb7d",
        "to": "0x79dfbed14077b8f2421eece5707a17b161094e6a",
        "gas": "0x3ddf7",
        "value": "0x0",
        "input": "0xc517b4a50000000000000000000000000000000000000000000000000000000000000000",
        "nonce": "0x1dff",
        "chainId": "0xed88"
      },
      "additionalContracts": [],
      "isFixedGasLimit": false
    },
    {
      "hash": "0x5979125dce8e2d0292fd9803e61034bdeda9f3b2907cfbe8220ed05614675e57",
      "transactionType": "CALL",
      "contractName": null,
      "contractAddress": "0x79dfbed14077b8f2421eece5707a17b161094e6a",
      "function": "wlMint(address)",
      "arguments": [
        "0x0000000000000000000000000000000000000000"
      ],
      "transaction": {
        "from": "0xcda2fdb452ff4f5d7ba1c3d5dfcc9cb926a5eb7d",
        "to": "0x79dfbed14077b8f2421eece5707a17b161094e6a",
        "gas": "0x3ddf7",
        "value": "0x0",
        "input": "0xc517b4a50000000000000000000000000000000000000000000000000000000000000000",
        "nonce": "0x1e00",
        "chainId": "0xed88"
      },
      "additionalContracts": [],
      "isFixedGasLimit": false
    },
    {
      "hash": "0x72a41e00c24fdf868bf8a7171500e497e5497512606374a40268aec97f7b8cbc",
      "transactionType": "CALL",
      "contractName": null,
      "contractAddress": "0x79dfbed14077b8f2421eece5707a17b161094e6a",
      "function": "wlMint(address)",
      "arguments": [
        "0x0000000000000000000000000000000000000000"
      ],
      "transaction": {
        "from": "0xcda2fdb452ff4f5d7ba1c3d5dfcc9cb926a5eb7d",
        "to": "0x79dfbed14077b8f2421eece5707a17b161094e6a",
        "gas": "0x3ddf7",
        "value": "0x0",
        "input": "0xc517b4a50000000000000000000000000000000000000000000000000000000000000000",
        "nonce": "0x1e01",
        "chainId": "0xed88"
      },
      "additionalContracts": [],
      "isFixedGasLimit": false
    },
    {
      "hash": "0x79e31cf56f6cb2200dc7e61d891a993c469342dbdaa528d99c3b56dde830389e",
      "transactionType": "CALL",
      "contractName": null,
      "contractAddress": "0x79dfbed14077b8f2421eece5707a17b161094e6a",
      "function": "wlMint(address)",
      "arguments": [
        "0x0000000000000000000000000000000000000000"
      ],
      "transaction": {
        "from": "0xcda2fdb452ff4f5d7ba1c3d5dfcc9cb926a5eb7d",
        "to": "0x79dfbed14077b8f2421eece5707a17b161094e6a",
        "gas": "0x3ddf7",
        "value": "0x0",
        "input": "0xc517b4a50000000000000000000000000000000000000000000000000000000000000000",
        "nonce": "0x1e02",
        "chainId": "0xed88"
      },
      "additionalContracts": [],
      "isFixedGasLimit": false
    },
    {
      "hash": "0x8f93ea4ee08320ae74efe805cea3a55c0d9d56e81d9415fb6ba15a6920b98cc6",
      "transactionType": "CALL",
      "contractName": null,
      "contractAddress": "0x79dfbed14077b8f2421eece5707a17b161094e6a",
      "function": "wlMint(address)",
      "arguments": [
        "0x0000000000000000000000000000000000000000"
      ],
      "transaction": {
        "from": "0xcda2fdb452ff4f5d7ba1c3d5dfcc9cb926a5eb7d",
        "to": "0x79dfbed14077b8f2421eece5707a17b161094e6a",
        "gas": "0x3ddf7",
        "value": "0x0",
        "input": "0xc517b4a50000000000000000000000000000000000000000000000000000000000000000",
        "nonce": "0x1e03",
        "chainId": "0xed88"
      },
      "additionalContracts": [],
      "isFixedGasLimit": false
    },
    {
      "hash": "0xd25651998386f500e503571ceed8cc1f05cf0449b9eef97cdbc82bb774ce90d9",
      "transactionType": "CALL",
      "contractName": null,
      "contractAddress": "0x79dfbed14077b8f2421eece5707a17b161094e6a",
      "function": "wlMint(address)",
      "arguments": [
        "0x0000000000000000000000000000000000000000"
      ],
      "transaction": {
        "from": "0xcda2fdb452ff4f5d7ba1c3d5dfcc9cb926a5eb7d",
        "to": "0x79dfbed14077b8f2421eece5707a17b161094e6a",
        "gas": "0x3ddf7",
        "value": "0x0",
        "input": "0xc517b4a50000000000000000000000000000000000000000000000000000000000000000",
        "nonce": "0x1e04",
        "chainId": "0xed88"
      },
      "additionalContracts": [],
      "isFixedGasLimit": false
    },
    {
      "hash": "0x1df7deb87050011c1383b8ebd5ff8fdf8c3070188533ca5e8b7cf9fbf9b5b9be",
      "transactionType": "CALL",
      "contractName": null,
      "contractAddress": "0x79dfbed14077b8f2421eece5707a17b161094e6a",
      "function": "wlMint(address)",
      "arguments": [
        "0x0000000000000000000000000000000000000000"
      ],
      "transaction": {
        "from": "0xcda2fdb452ff4f5d7ba1c3d5dfcc9cb926a5eb7d",
        "to": "0x79dfbed14077b8f2421eece5707a17b161094e6a",
        "gas": "0x3ddf7",
        "value": "0x0",
        "input": "0xc517b4a50000000000000000000000000000000000000000000000000000000000000000",
        "nonce": "0x1e05",
        "chainId": "0xed88"
      },
      "additionalContracts": [],
      "isFixedGasLimit": false
    },
    {
      "hash": "0x9c20888011fd52cf9306608d52332ee1f40141d5c54450fc5e0e1d5b87ce8c67",
      "transactionType": "CALL",
      "contractName": null,
      "contractAddress": "0x79dfbed14077b8f2421eece5707a17b161094e6a",
      "function": "wlMint(address)",
      "arguments": [
        "0x0000000000000000000000000000000000000000"
      ],
      "transaction": {
        "from": "0xcda2fdb452ff4f5d7ba1c3d5dfcc9cb926a5eb7d",
        "to": "0x79dfbed14077b8f2421eece5707a17b161094e6a",
        "gas": "0x3ddf7",
        "value": "0x0",
        "input": "0xc517b4a50000000000000000000000000000000000000000000000000000000000000000",
        "nonce": "0x1e06",
        "chainId": "0xed88"
      },
      "additionalContracts": [],
      "isFixedGasLimit": false
    },
    {
      "hash": "0xbc6d8fba2511fca2cf2b1add21a12b175e35e95c17aa309dc4cd7989029235e8",
      "transactionType": "CALL",
      "contractName": null,
      "contractAddress": "0x79dfbed14077b8f2421eece5707a17b161094e6a",
      "function": "wlMint(address)",
      "arguments": [
        "0x0000000000000000000000000000000000000000"
      ],
      "transaction": {
        "from": "0xcda2fdb452ff4f5d7ba1c3d5dfcc9cb926a5eb7d",
        "to": "0x79dfbed14077b8f2421eece5707a17b161094e6a",
        "gas": "0x3ddf7",
        "value": "0x0",
        "input": "0xc517b4a50000000000000000000000000000000000000000000000000000000000000000",
        "nonce": "0x1e07",
        "chainId": "0xed88"
      },
      "additionalContracts": [],
      "isFixedGasLimit": false
    },
    {
      "hash": "0xc9fddcd92c2b6b517e93e916e55907269db6e1bfecc05b844a723e1955cd453f",
      "transactionType": "CALL",
      "contractName": null,
      "contractAddress": "0x79dfbed14077b8f2421eece5707a17b161094e6a",
      "function": "wlMint(address)",
      "arguments": [
        "0x0000000000000000000000000000000000000000"
      ],
      "transaction": {
        "from": "0xcda2fdb452ff4f5d7ba1c3d5dfcc9cb926a5eb7d",
        "to": "0x79dfbed14077b8f2421eece5707a17b161094e6a",
        "gas": "0x3ddf7",
        "value": "0x0",
        "input": "0xc517b4a50000000000000000000000000000000000000000000000000000000000000000",
        "nonce": "0x1e08",
        "chainId": "0xed88"
      },
      "additionalContracts": [],
      "isFixedGasLimit": false
    },
    {
      "hash": "0x8a02ea726725a2a4914b341f0ff90a949be61045caf37f04ba698b1355976218",
      "transactionType": "CALL",
      "contractName": null,
      "contractAddress": "0x79dfbed14077b8f2421eece5707a17b161094e6a",
      "function": "wlMint(address)",
      "arguments": [
        "0x0000000000000000000000000000000000000000"
      ],
      "transaction": {
        "from": "0xcda2fdb452ff4f5d7ba1c3d5dfcc9cb926a5eb7d",
        "to": "0x79dfbed14077b8f2421eece5707a17b161094e6a",
        "gas": "0x3ddf7",
        "value": "0x0",
        "input": "0xc517b4a50000000000000000000000000000000000000000000000000000000000000000",
        "nonce": "0x1e09",
        "chainId": "0xed88"
      },
      "additionalContracts": [],
      "isFixedGasLimit": false
    },
    {
      "hash": "0x92012c6db2fa603deee8839fe44c56b60f31173f167b3b41727835d2fe42a3ae",
      "transactionType": "CALL",
      "contractName": null,
      "contractAddress": "0x79dfbed14077b8f2421eece5707a17b161094e6a",
      "function": "wlMint(address)",
      "arguments": [
        "0x0000000000000000000000000000000000000000"
      ],
      "transaction": {
        "from": "0xcda2fdb452ff4f5d7ba1c3d5dfcc9cb926a5eb7d",
        "to": "0x79dfbed14077b8f2421eece5707a17b161094e6a",
        "gas": "0x3ddf7",
        "value": "0x0",
        "input": "0xc517b4a50000000000000000000000000000000000000000000000000000000000000000",
        "nonce": "0x1e0a",
        "chainId": "0xed88"
      },
      "additionalContracts": [],
      "isFixedGasLimit": false
    },
    {
      "hash": "0x0d1f0c3104eed7b14adcbd9918a20ec9270a85d920924ac434ffbd30819894d6",
      "transactionType": "CALL",
      "contractName": null,
      "contractAddress": "0x79dfbed14077b8f2421eece5707a17b161094e6a",
      "function": "wlMint(address)",
      "arguments": [
        "0x0000000000000000000000000000000000000000"
      ],
      "transaction": {
        "from": "0xcda2fdb452ff4f5d7ba1c3d5dfcc9cb926a5eb7d",
        "to": "0x79dfbed14077b8f2421eece5707a17b161094e6a",
        "gas": "0x3ddf7",
        "value": "0x0",
        "input": "0xc517b4a50000000000000000000000000000000000000000000000000000000000000000",
        "nonce": "0x1e0b",
        "chainId": "0xed88"
      },
      "additionalContracts": [],
      "isFixedGasLimit": false
    },
    {
      "hash": "0x34e5b5da085684a2d71f5384fe58b0e02a37d8c852ee1db95a737201979a2e4b",
      "transactionType": "CALL",
      "contractName": null,
      "contractAddress": "0x79dfbed14077b8f2421eece5707a17b161094e6a",
      "function": "wlMint(address)",
      "arguments": [
        "0x0000000000000000000000000000000000000000"
      ],
      "transaction": {
        "from": "0xcda2fdb452ff4f5d7ba1c3d5dfcc9cb926a5eb7d",
        "to": "0x79dfbed14077b8f2421eece5707a17b161094e6a",
        "gas": "0x3ddf7",
        "value": "0x0",
        "input": "0xc517b4a50000000000000000000000000000000000000000000000000000000000000000",
        "nonce": "0x1e0c",
        "chainId": "0xed88"
      },
      "additionalContracts": [],
      "isFixedGasLimit": false
    },
    {
      "hash": "0xaf0aa515f480b7276525c28eab7afb545e342b59e0058759cdb86852fec06a9c",
      "transactionType": "CALL",
      "contractName": null,
      "contractAddress": "0x79dfbed14077b8f2421eece5707a17b161094e6a",
      "function": "wlMint(address)",
      "arguments": [
        "0x0000000000000000000000000000000000000000"
      ],
      "transaction": {
        "from": "0xcda2fdb452ff4f5d7ba1c3d5dfcc9cb926a5eb7d",
        "to": "0x79dfbed14077b8f2421eece5707a17b161094e6a",
        "gas": "0x3ddf7",
        "value": "0x0",
        "input": "0xc517b4a50000000000000000000000000000000000000000000000000000000000000000",
        "nonce": "0x1e0d",
        "chainId": "0xed88"
      },
      "additionalContracts": [],
      "isFixedGasLimit": false
    },
    {
      "hash": "0x336479c07b967cde28dfd4993987d88aa939e500fbe585fb87d116ba039a6be6",
      "transactionType": "CALL",
      "contractName": null,
      "contractAddress": "0x79dfbed14077b8f2421eece5707a17b161094e6a",
      "function": "wlMint(address)",
      "arguments": [
        "0x0000000000000000000000000000000000000000"
      ],
      "transaction": {
        "from": "0xcda2fdb452ff4f5d7ba1c3d5dfcc9cb926a5eb7d",
        "to": "0x79dfbed14077b8f2421eece5707a17b161094e6a",
        "gas": "0x3ddf7",
        "value": "0x0",
        "input": "0xc517b4a50000000000000000000000000000000000000000000000000000000000000000",
        "nonce": "0x1e0e",
        "chainId": "0xed88"
      },
      "additionalContracts": [],
      "isFixedGasLimit": false
    },
    {
      "hash": "0x099574b35eac1e16ccdbbbae22ac9cfdc4fb3d9c6c834a4b0191ff253a595061",
      "transactionType": "CALL",
      "contractName": null,
      "contractAddress": "0x79dfbed14077b8f2421eece5707a17b161094e6a",
      "function": "wlMint(address)",
      "arguments": [
        "0x0000000000000000000000000000000000000000"
      ],
      "transaction": {
        "from": "0xcda2fdb452ff4f5d7ba1c3d5dfcc9cb926a5eb7d",
        "to": "0x79dfbed14077b8f2421eece5707a17b161094e6a",
        "gas": "0x3ddf7",
        "value": "0x0",
        "input": "0xc517b4a50000000000000000000000000000000000000000000000000000000000000000",
        "nonce": "0x1e0f",
        "chainId": "0xed88"
      },
      "additionalContracts": [],
      "isFixedGasLimit": false
    },
    {
      "hash": "0x376ff617d85a249fe1367e940a2e43233dac9de5e2c4fad14ced4e968dee650b",
      "transactionType": "CALL",
      "contractName": null,
      "contractAddress": "0x79dfbed14077b8f2421eece5707a17b161094e6a",
      "function": "wlMint(address)",
      "arguments": [
        "0x0000000000000000000000000000000000000000"
      ],
      "transaction": {
        "from": "0xcda2fdb452ff4f5d7ba1c3d5dfcc9cb926a5eb7d",
        "to": "0x79dfbed14077b8f2421eece5707a17b161094e6a",
        "gas": "0x3ddf7",
        "value": "0x0",
        "input": "0xc517b4a50000000000000000000000000000000000000000000000000000000000000000",
        "nonce": "0x1e10",
        "chainId": "0xed88"
      },
      "additionalContracts": [],
      "isFixedGasLimit": false
    },
    {
      "hash": "0x68c77f8a276f2b90b1ee4dbdac4b2246789d345a84fa2054bd3177984d46d54d",
      "transactionType": "CALL",
      "contractName": null,
      "contractAddress": "0x79dfbed14077b8f2421eece5707a17b161094e6a",
      "function": "wlMint(address)",
      "arguments": [
        "0x0000000000000000000000000000000000000000"
      ],
      "transaction": {
        "from": "0xcda2fdb452ff4f5d7ba1c3d5dfcc9cb926a5eb7d",
        "to": "0x79dfbed14077b8f2421eece5707a17b161094e6a",
        "gas": "0x3ddf7",
        "value": "0x0",
        "input": "0xc517b4a50000000000000000000000000000000000000000000000000000000000000000",
        "nonce": "0x1e11",
        "chainId": "0xed88"
      },
      "additionalContracts": [],
      "isFixedGasLimit": false
    },
    {
      "hash": "0x3c6c959e1c0935558f8112a16d9b10a4cb7894b721bd353d90e2154d8bf6434b",
      "transactionType": "CALL",
      "contractName": null,
      "contractAddress": "0x79dfbed14077b8f2421eece5707a17b161094e6a",
      "function": "wlMint(address)",
      "arguments": [
        "0x0000000000000000000000000000000000000000"
      ],
      "transaction": {
        "from": "0xcda2fdb452ff4f5d7ba1c3d5dfcc9cb926a5eb7d",
        "to": "0x79dfbed14077b8f2421eece5707a17b161094e6a",
        "gas": "0x3ddf7",
        "value": "0x0",
        "input": "0xc517b4a50000000000000000000000000000000000000000000000000000000000000000",
        "nonce": "0x1e12",
        "chainId": "0xed88"
      },
      "additionalContracts": [],
      "isFixedGasLimit": false
    },
    {
      "hash": "0x22931cca3f91bd62cb4ac44a06c01f648296c76bdf90d32e8f88d8cc7007b705",
      "transactionType": "CALL",
      "contractName": null,
      "contractAddress": "0x79dfbed14077b8f2421eece5707a17b161094e6a",
      "function": "wlMint(address)",
      "arguments": [
        "0x0000000000000000000000000000000000000000"
      ],
      "transaction": {
        "from": "0xcda2fdb452ff4f5d7ba1c3d5dfcc9cb926a5eb7d",
        "to": "0x79dfbed14077b8f2421eece5707a17b161094e6a",
        "gas": "0x3ddf7",
        "value": "0x0",
        "input": "0xc517b4a50000000000000000000000000000000000000000000000000000000000000000",
        "nonce": "0x1e13",
        "chainId": "0xed88"
      },
      "additionalContracts": [],
      "isFixedGasLimit": false
    },
    {
      "hash": "0xda1e9a76f6e41ffe3219c4d40929941c78166aac449fbcecbe13ade65decb637",
      "transactionType": "CALL",
      "contractName": null,
      "contractAddress": "0x79dfbed14077b8f2421eece5707a17b161094e6a",
      "function": "wlMint(address)",
      "arguments": [
        "0x0000000000000000000000000000000000000000"
      ],
      "transaction": {
        "from": "0xcda2fdb452ff4f5d7ba1c3d5dfcc9cb926a5eb7d",
        "to": "0x79dfbed14077b8f2421eece5707a17b161094e6a",
        "gas": "0x3ddf7",
        "value": "0x0",
        "input": "0xc517b4a50000000000000000000000000000000000000000000000000000000000000000",
        "nonce": "0x1e14",
        "chainId": "0xed88"
      },
      "additionalContracts": [],
      "isFixedGasLimit": false
    },
    {
      "hash": "0x2b40ce416ccb57639eddc4e0973f09f0c7350b54994b1fc4bbf29a0ce5c8a33d",
      "transactionType": "CALL",
      "contractName": null,
      "contractAddress": "0x79dfbed14077b8f2421eece5707a17b161094e6a",
      "function": "wlMint(address)",
      "arguments": [
        "0x0000000000000000000000000000000000000000"
      ],
      "transaction": {
        "from": "0xcda2fdb452ff4f5d7ba1c3d5dfcc9cb926a5eb7d",
        "to": "0x79dfbed14077b8f2421eece5707a17b161094e6a",
        "gas": "0x3ddf7",
        "value": "0x0",
        "input": "0xc517b4a50000000000000000000000000000000000000000000000000000000000000000",
        "nonce": "0x1e15",
        "chainId": "0xed88"
      },
      "additionalContracts": [],
      "isFixedGasLimit": false
    },
    {
      "hash": "0xee3d9ce7105d41f1597839ba21a707650090accc536bd6657c7ab4020f0ee24c",
      "transactionType": "CALL",
      "contractName": null,
      "contractAddress": "0x79dfbed14077b8f2421eece5707a17b161094e6a",
      "function": "wlMint(address)",
      "arguments": [
        "0x0000000000000000000000000000000000000000"
      ],
      "transaction": {
        "from": "0xcda2fdb452ff4f5d7ba1c3d5dfcc9cb926a5eb7d",
        "to": "0x79dfbed14077b8f2421eece5707a17b161094e6a",
        "gas": "0x3ddf7",
        "value": "0x0",
        "input": "0xc517b4a50000000000000000000000000000000000000000000000000000000000000000",
        "nonce": "0x1e16",
        "chainId": "0xed88"
      },
      "additionalContracts": [],
      "isFixedGasLimit": false
    },
    {
      "hash": "0x6648e0684caff1e1a7ef62d2dfb36d642443d218d7d2549857b3c394b5a4456f",
      "transactionType": "CALL",
      "contractName": null,
      "contractAddress": "0x79dfbed14077b8f2421eece5707a17b161094e6a",
      "function": "wlMint(address)",
      "arguments": [
        "0x0000000000000000000000000000000000000000"
      ],
      "transaction": {
        "from": "0xcda2fdb452ff4f5d7ba1c3d5dfcc9cb926a5eb7d",
        "to": "0x79dfbed14077b8f2421eece5707a17b161094e6a",
        "gas": "0x3ddf7",
        "value": "0x0",
        "input": "0xc517b4a50000000000000000000000000000000000000000000000000000000000000000",
        "nonce": "0x1e17",
        "chainId": "0xed88"
      },
      "additionalContracts": [],
      "isFixedGasLimit": false
    },
    {
      "hash": "0x731dbae5c41ee36f9587b8a5f50abb8aed25b36a4294e01491ae6b7f6e19633c",
      "transactionType": "CALL",
      "contractName": null,
      "contractAddress": "0x79dfbed14077b8f2421eece5707a17b161094e6a",
      "function": "wlMint(address)",
      "arguments": [
        "0x0000000000000000000000000000000000000000"
      ],
      "transaction": {
        "from": "0xcda2fdb452ff4f5d7ba1c3d5dfcc9cb926a5eb7d",
        "to": "0x79dfbed14077b8f2421eece5707a17b161094e6a",
        "gas": "0x3ddf7",
        "value": "0x0",
        "input": "0xc517b4a50000000000000000000000000000000000000000000000000000000000000000",
        "nonce": "0x1e18",
        "chainId": "0xed88"
      },
      "additionalContracts": [],
      "isFixedGasLimit": false
    },
    {
      "hash": "0x6c67ef4aa4eb00f342783e68dfd82a35fc099a0cf15792a755ddc1a033da3332",
      "transactionType": "CALL",
      "contractName": null,
      "contractAddress": "0x79dfbed14077b8f2421eece5707a17b161094e6a",
      "function": "wlMint(address)",
      "arguments": [
        "0x0000000000000000000000000000000000000000"
      ],
      "transaction": {
        "from": "0xcda2fdb452ff4f5d7ba1c3d5dfcc9cb926a5eb7d",
        "to": "0x79dfbed14077b8f2421eece5707a17b161094e6a",
        "gas": "0x3ddf7",
        "value": "0x0",
        "input": "0xc517b4a50000000000000000000000000000000000000000000000000000000000000000",
        "nonce": "0x1e19",
        "chainId": "0xed88"
      },
      "additionalContracts": [],
      "isFixedGasLimit": false
    },
    {
      "hash": "0x8dc74bf099604816ea9454f4a1d87244d4f3956af8e2366945451e5fc93412f1",
      "transactionType": "CALL",
      "contractName": null,
      "contractAddress": "0x79dfbed14077b8f2421eece5707a17b161094e6a",
      "function": "wlMint(address)",
      "arguments": [
        "0x0000000000000000000000000000000000000000"
      ],
      "transaction": {
        "from": "0xcda2fdb452ff4f5d7ba1c3d5dfcc9cb926a5eb7d",
        "to": "0x79dfbed14077b8f2421eece5707a17b161094e6a",
        "gas": "0x3ddf7",
        "value": "0x0",
        "input": "0xc517b4a50000000000000000000000000000000000000000000000000000000000000000",
        "nonce": "0x1e1a",
        "chainId": "0xed88"
      },
      "additionalContracts": [],
      "isFixedGasLimit": false
    },
    {
      "hash": "0x5a0b557c93e42452476371bec1e5f63bfe30827e7c37868a397bb84dc814c620",
      "transactionType": "CALL",
      "contractName": null,
      "contractAddress": "0x79dfbed14077b8f2421eece5707a17b161094e6a",
      "function": "wlMint(address)",
      "arguments": [
        "0x0000000000000000000000000000000000000000"
      ],
      "transaction": {
        "from": "0xcda2fdb452ff4f5d7ba1c3d5dfcc9cb926a5eb7d",
        "to": "0x79dfbed14077b8f2421eece5707a17b161094e6a",
        "gas": "0x3ddf7",
        "value": "0x0",
        "input": "0xc517b4a50000000000000000000000000000000000000000000000000000000000000000",
        "nonce": "0x1e1b",
        "chainId": "0xed88"
      },
      "additionalContracts": [],
      "isFixedGasLimit": false
    }
  ],
  "receipts": [
    {
      "status": "0x1",
      "cumulativeGasUsed": "0x825b9",
      "logs": [
        {
          "address": "0x2e8af9c5922623058aa92a183b391e62cb6b2d12",
          "topics": [
            "0xddf252ad1be2c89b69c2b068fc378daa952ba7f163c4a11628f55a4df523b3ef",
            "0x0000000000000000000000000000000000000000000000000000000000000000",
            "0x000000000000000000000000cda2fdb452ff4f5d7ba1c3d5dfcc9cb926a5eb7d",
            "0x00000000000000000000000000000000000000000000000000000000000001f4"
          ],
          "data": "0x",
          "blockHash": "0x8633c086907aa5ae4f49e2297b61febd7172c1e0f4786edae07fd0e8080236f9",
          "blockNumber": "0x751292",
          "transactionHash": "0x1d7d573d8d0c9581029006c94c10c89c360e6b23682a609ec788d6d4c4f8f85a",
          "transactionIndex": "0x2",
          "logIndex": "0xb",
          "removed": false
        },
        {
          "address": "0x2e8af9c5922623058aa92a183b391e62cb6b2d12",
          "topics": [
            "0xf8e1a15aba9398e019f0b49df1a4fde98ee17ae345cb5f6b5e2c27f5033e8ce7"
          ],
          "data": "0x00000000000000000000000000000000000000000000000000000000000001f4",
          "blockHash": "0x8633c086907aa5ae4f49e2297b61febd7172c1e0f4786edae07fd0e8080236f9",
          "blockNumber": "0x751292",
          "transactionHash": "0x1d7d573d8d0c9581029006c94c10c89c360e6b23682a609ec788d6d4c4f8f85a",
          "transactionIndex": "0x2",
          "logIndex": "0xc",
          "removed": false
        }
      ],
      "logsBloom": "0x00000000000000000000000000000000000000020000000000000000000000000400000000000000000000000000000000004000000000000000000000000000000000000000000000000008040000000000000000000000000000000000000000000000021000000000000000000800002000000000800000000010000000000000000000000000000000000000000000000000000000000000000000000000000000000000000000000000000000002000000000004000000000000000008000000002000000000000000000000000000000000000000000000000000020000000000000000000200000000000000000000000100000000000000000000000",
      "type": "0x2",
      "transactionHash": "0x1d7d573d8d0c9581029006c94c10c89c360e6b23682a609ec788d6d4c4f8f85a",
      "transactionIndex": "0x2",
      "blockHash": "0x8633c086907aa5ae4f49e2297b61febd7172c1e0f4786edae07fd0e8080236f9",
      "blockNumber": "0x751292",
      "gasUsed": "0x2ccb8",
      "effectiveGasPrice": "0xfd",
      "from": "0xcda2fdb452ff4f5d7ba1c3d5dfcc9cb926a5eb7d",
      "to": "0x79dfbed14077b8f2421eece5707a17b161094e6a",
      "contractAddress": null,
      "l1BaseFeeScalar": "0x186a0",
      "l1BlobBaseFee": "0x1",
      "l1BlobBaseFeeScalar": "0x95506",
      "l1Fee": "0x16e63ff323d",
      "l1GasPrice": "0x24a399850",
      "l1GasUsed": "0x640"
    },
    {
      "status": "0x1",
      "cumulativeGasUsed": "0xaf271",
      "logs": [
        {
          "address": "0x2e8af9c5922623058aa92a183b391e62cb6b2d12",
          "topics": [
            "0xddf252ad1be2c89b69c2b068fc378daa952ba7f163c4a11628f55a4df523b3ef",
            "0x0000000000000000000000000000000000000000000000000000000000000000",
            "0x000000000000000000000000cda2fdb452ff4f5d7ba1c3d5dfcc9cb926a5eb7d",
            "0x00000000000000000000000000000000000000000000000000000000000001f5"
          ],
          "data": "0x",
          "blockHash": "0x8633c086907aa5ae4f49e2297b61febd7172c1e0f4786edae07fd0e8080236f9",
          "blockNumber": "0x751292",
          "transactionHash": "0x72256a07a05d289d79d0b03d0a4aa1f2b0ca611ffa9c406b97c4e13adee8f28e",
          "transactionIndex": "0x3",
          "logIndex": "0xd",
          "removed": false
        },
        {
          "address": "0x2e8af9c5922623058aa92a183b391e62cb6b2d12",
          "topics": [
            "0xf8e1a15aba9398e019f0b49df1a4fde98ee17ae345cb5f6b5e2c27f5033e8ce7"
          ],
          "data": "0x00000000000000000000000000000000000000000000000000000000000001f5",
          "blockHash": "0x8633c086907aa5ae4f49e2297b61febd7172c1e0f4786edae07fd0e8080236f9",
          "blockNumber": "0x751292",
          "transactionHash": "0x72256a07a05d289d79d0b03d0a4aa1f2b0ca611ffa9c406b97c4e13adee8f28e",
          "transactionIndex": "0x3",
          "logIndex": "0xe",
          "removed": false
        }
      ],
      "logsBloom": "0x00000000000000000000000000000000000000020000000000000000000010000000000000000000000000000000000000000000000000000000000000000000400000000000000000000008040000000000000000000000000000000000000000000000020000000000000000000800002000000000800000000010000000000000000000000000000000000000000000000000000010000000000000000000000000000000000000000000000000002000000000004000000000000000008000000002000000000000000000000000000000000000000000000000000020000000000000000000200000000000000000000000100000000000000000000000",
      "type": "0x2",
      "transactionHash": "0x72256a07a05d289d79d0b03d0a4aa1f2b0ca611ffa9c406b97c4e13adee8f28e",
      "transactionIndex": "0x3",
      "blockHash": "0x8633c086907aa5ae4f49e2297b61febd7172c1e0f4786edae07fd0e8080236f9",
      "blockNumber": "0x751292",
      "gasUsed": "0x2ccb8",
      "effectiveGasPrice": "0xfd",
      "from": "0xcda2fdb452ff4f5d7ba1c3d5dfcc9cb926a5eb7d",
      "to": "0x79dfbed14077b8f2421eece5707a17b161094e6a",
      "contractAddress": null,
      "l1BaseFeeScalar": "0x186a0",
      "l1BlobBaseFee": "0x1",
      "l1BlobBaseFeeScalar": "0x95506",
      "l1Fee": "0x16e63ff323d",
      "l1GasPrice": "0x24a399850",
      "l1GasUsed": "0x640"
    },
    {
      "status": "0x1",
      "cumulativeGasUsed": "0xdbf29",
      "logs": [
        {
          "address": "0x2e8af9c5922623058aa92a183b391e62cb6b2d12",
          "topics": [
            "0xddf252ad1be2c89b69c2b068fc378daa952ba7f163c4a11628f55a4df523b3ef",
            "0x0000000000000000000000000000000000000000000000000000000000000000",
            "0x000000000000000000000000cda2fdb452ff4f5d7ba1c3d5dfcc9cb926a5eb7d",
            "0x00000000000000000000000000000000000000000000000000000000000001f6"
          ],
          "data": "0x",
          "blockHash": "0x8633c086907aa5ae4f49e2297b61febd7172c1e0f4786edae07fd0e8080236f9",
          "blockNumber": "0x751292",
          "transactionHash": "0x5979125dce8e2d0292fd9803e61034bdeda9f3b2907cfbe8220ed05614675e57",
          "transactionIndex": "0x4",
          "logIndex": "0xf",
          "removed": false
        },
        {
          "address": "0x2e8af9c5922623058aa92a183b391e62cb6b2d12",
          "topics": [
            "0xf8e1a15aba9398e019f0b49df1a4fde98ee17ae345cb5f6b5e2c27f5033e8ce7"
          ],
          "data": "0x00000000000000000000000000000000000000000000000000000000000001f6",
          "blockHash": "0x8633c086907aa5ae4f49e2297b61febd7172c1e0f4786edae07fd0e8080236f9",
          "blockNumber": "0x751292",
          "transactionHash": "0x5979125dce8e2d0292fd9803e61034bdeda9f3b2907cfbe8220ed05614675e57",
          "transactionIndex": "0x4",
          "logIndex": "0x10",
          "removed": false
        }
      ],
      "logsBloom": "0x00000000000000000000000000000000000000020000000000000000000000000000000000000000000000400000000000000000000000000000000000000000000000000400000000000008040000000000000000000000000000000000000000000000020000000000000000000800002000000000800000000010000000000000000000000000000000000000000000000000000000000000000000000000000000000000000000000000000000002400000000004000000000000000008000000002000000000000000000000000000000000000000000000000000020000000000000000000200000000000000000000000100000000000000000000000",
      "type": "0x2",
      "transactionHash": "0x5979125dce8e2d0292fd9803e61034bdeda9f3b2907cfbe8220ed05614675e57",
      "transactionIndex": "0x4",
      "blockHash": "0x8633c086907aa5ae4f49e2297b61febd7172c1e0f4786edae07fd0e8080236f9",
      "blockNumber": "0x751292",
      "gasUsed": "0x2ccb8",
      "effectiveGasPrice": "0xfd",
      "from": "0xcda2fdb452ff4f5d7ba1c3d5dfcc9cb926a5eb7d",
      "to": "0x79dfbed14077b8f2421eece5707a17b161094e6a",
      "contractAddress": null,
      "l1BaseFeeScalar": "0x186a0",
      "l1BlobBaseFee": "0x1",
      "l1BlobBaseFeeScalar": "0x95506",
      "l1Fee": "0x16e63ff323d",
      "l1GasPrice": "0x24a399850",
      "l1GasUsed": "0x640"
    },
    {
      "status": "0x1",
      "cumulativeGasUsed": "0x108be1",
      "logs": [
        {
          "address": "0x2e8af9c5922623058aa92a183b391e62cb6b2d12",
          "topics": [
            "0xddf252ad1be2c89b69c2b068fc378daa952ba7f163c4a11628f55a4df523b3ef",
            "0x0000000000000000000000000000000000000000000000000000000000000000",
            "0x000000000000000000000000cda2fdb452ff4f5d7ba1c3d5dfcc9cb926a5eb7d",
            "0x00000000000000000000000000000000000000000000000000000000000001f7"
          ],
          "data": "0x",
          "blockHash": "0x8633c086907aa5ae4f49e2297b61febd7172c1e0f4786edae07fd0e8080236f9",
          "blockNumber": "0x751292",
          "transactionHash": "0x72a41e00c24fdf868bf8a7171500e497e5497512606374a40268aec97f7b8cbc",
          "transactionIndex": "0x5",
          "logIndex": "0x11",
          "removed": false
        },
        {
          "address": "0x2e8af9c5922623058aa92a183b391e62cb6b2d12",
          "topics": [
            "0xf8e1a15aba9398e019f0b49df1a4fde98ee17ae345cb5f6b5e2c27f5033e8ce7"
          ],
          "data": "0x00000000000000000000000000000000000000000000000000000000000001f7",
          "blockHash": "0x8633c086907aa5ae4f49e2297b61febd7172c1e0f4786edae07fd0e8080236f9",
          "blockNumber": "0x751292",
          "transactionHash": "0x72a41e00c24fdf868bf8a7171500e497e5497512606374a40268aec97f7b8cbc",
          "transactionIndex": "0x5",
          "logIndex": "0x12",
          "removed": false
        }
      ],
      "logsBloom": "0x00000000000000000000000000000000000000020000000000000000000000000000000000000000000000000000000000000000000000000000000000000000000000000000000000000008040200000000000000000000000000000004000000000000020000000000000000000800002000000000800000000010000000000000000000000000000000000000000000000000000000040000000000000000000000000000000000000000000000002000000000004000000000000000008000000002000000000000000000000000000000000000000000000000000020000000000000000000200000000000000000000000100000000000000000000000",
      "type": "0x2",
      "transactionHash": "0x72a41e00c24fdf868bf8a7171500e497e5497512606374a40268aec97f7b8cbc",
      "transactionIndex": "0x5",
      "blockHash": "0x8633c086907aa5ae4f49e2297b61febd7172c1e0f4786edae07fd0e8080236f9",
      "blockNumber": "0x751292",
      "gasUsed": "0x2ccb8",
      "effectiveGasPrice": "0xfd",
      "from": "0xcda2fdb452ff4f5d7ba1c3d5dfcc9cb926a5eb7d",
      "to": "0x79dfbed14077b8f2421eece5707a17b161094e6a",
      "contractAddress": null,
      "l1BaseFeeScalar": "0x186a0",
      "l1BlobBaseFee": "0x1",
      "l1BlobBaseFeeScalar": "0x95506",
      "l1Fee": "0x16e63ff323d",
      "l1GasPrice": "0x24a399850",
      "l1GasUsed": "0x640"
    },
    {
      "status": "0x1",
      "cumulativeGasUsed": "0x135899",
      "logs": [
        {
          "address": "0x2e8af9c5922623058aa92a183b391e62cb6b2d12",
          "topics": [
            "0xddf252ad1be2c89b69c2b068fc378daa952ba7f163c4a11628f55a4df523b3ef",
            "0x0000000000000000000000000000000000000000000000000000000000000000",
            "0x000000000000000000000000cda2fdb452ff4f5d7ba1c3d5dfcc9cb926a5eb7d",
            "0x00000000000000000000000000000000000000000000000000000000000001f8"
          ],
          "data": "0x",
          "blockHash": "0x8633c086907aa5ae4f49e2297b61febd7172c1e0f4786edae07fd0e8080236f9",
          "blockNumber": "0x751292",
          "transactionHash": "0x79e31cf56f6cb2200dc7e61d891a993c469342dbdaa528d99c3b56dde830389e",
          "transactionIndex": "0x6",
          "logIndex": "0x13",
          "removed": false
        },
        {
          "address": "0x2e8af9c5922623058aa92a183b391e62cb6b2d12",
          "topics": [
            "0xf8e1a15aba9398e019f0b49df1a4fde98ee17ae345cb5f6b5e2c27f5033e8ce7"
          ],
          "data": "0x00000000000000000000000000000000000000000000000000000000000001f8",
          "blockHash": "0x8633c086907aa5ae4f49e2297b61febd7172c1e0f4786edae07fd0e8080236f9",
          "blockNumber": "0x751292",
          "transactionHash": "0x79e31cf56f6cb2200dc7e61d891a993c469342dbdaa528d99c3b56dde830389e",
          "transactionIndex": "0x6",
          "logIndex": "0x14",
          "removed": false
        }
      ],
      "logsBloom": "0x00000000000000000000000000000000000000020000000000000000000000000000000000000000000000000000000000000000000000000000000000000000000000000000000000000008040000000000000000000000000000000000000000000000020000000000000000000800002000000000800000000010000000000000000000000000000000000000000000000000000000000000000000000000000000000000000000000000000000002000004000004000000000000000008000000002000080000000000000000000000000000000000000000000000020000000000004000000200000000000000000000000100000000000000000000000",
      "type": "0x2",
      "transactionHash": "0x79e31cf56f6cb2200dc7e61d891a993c469342dbdaa528d99c3b56dde830389e",
      "transactionIndex": "0x6",
      "blockHash": "0x8633c086907aa5ae4f49e2297b61febd7172c1e0f4786edae07fd0e8080236f9",
      "blockNumber": "0x751292",
      "gasUsed": "0x2ccb8",
      "effectiveGasPrice": "0xfd",
      "from": "0xcda2fdb452ff4f5d7ba1c3d5dfcc9cb926a5eb7d",
      "to": "0x79dfbed14077b8f2421eece5707a17b161094e6a",
      "contractAddress": null,
      "l1BaseFeeScalar": "0x186a0",
      "l1BlobBaseFee": "0x1",
      "l1BlobBaseFeeScalar": "0x95506",
      "l1Fee": "0x16e63ff323d",
      "l1GasPrice": "0x24a399850",
      "l1GasUsed": "0x640"
    },
    {
      "status": "0x1",
      "cumulativeGasUsed": "0x162551",
      "logs": [
        {
          "address": "0x2e8af9c5922623058aa92a183b391e62cb6b2d12",
          "topics": [
            "0xddf252ad1be2c89b69c2b068fc378daa952ba7f163c4a11628f55a4df523b3ef",
            "0x0000000000000000000000000000000000000000000000000000000000000000",
            "0x000000000000000000000000cda2fdb452ff4f5d7ba1c3d5dfcc9cb926a5eb7d",
            "0x00000000000000000000000000000000000000000000000000000000000001f9"
          ],
          "data": "0x",
          "blockHash": "0x8633c086907aa5ae4f49e2297b61febd7172c1e0f4786edae07fd0e8080236f9",
          "blockNumber": "0x751292",
          "transactionHash": "0x8f93ea4ee08320ae74efe805cea3a55c0d9d56e81d9415fb6ba15a6920b98cc6",
          "transactionIndex": "0x7",
          "logIndex": "0x15",
          "removed": false
        },
        {
          "address": "0x2e8af9c5922623058aa92a183b391e62cb6b2d12",
          "topics": [
            "0xf8e1a15aba9398e019f0b49df1a4fde98ee17ae345cb5f6b5e2c27f5033e8ce7"
          ],
          "data": "0x00000000000000000000000000000000000000000000000000000000000001f9",
          "blockHash": "0x8633c086907aa5ae4f49e2297b61febd7172c1e0f4786edae07fd0e8080236f9",
          "blockNumber": "0x751292",
          "transactionHash": "0x8f93ea4ee08320ae74efe805cea3a55c0d9d56e81d9415fb6ba15a6920b98cc6",
          "transactionIndex": "0x7",
          "logIndex": "0x16",
          "removed": false
        }
      ],
      "logsBloom": "0x00000000000000000000000000000000000000020000000000000000000000000000000000000000000000000000000000000000000000000000000000000000000800000000000000000008040000000000000000000000000000000000000000000000020000000000000400000800002000000000800000000010000000000000000000000000000000000000000000000000000000000000000000000000000000000000000000000000000000002000000000004000000000000000008000000802000000000000000000000000000000000000000000000000000020000000000000000000200000000000000000000000100000000000000000000000",
      "type": "0x2",
      "transactionHash": "0x8f93ea4ee08320ae74efe805cea3a55c0d9d56e81d9415fb6ba15a6920b98cc6",
      "transactionIndex": "0x7",
      "blockHash": "0x8633c086907aa5ae4f49e2297b61febd7172c1e0f4786edae07fd0e8080236f9",
      "blockNumber": "0x751292",
      "gasUsed": "0x2ccb8",
      "effectiveGasPrice": "0xfd",
      "from": "0xcda2fdb452ff4f5d7ba1c3d5dfcc9cb926a5eb7d",
      "to": "0x79dfbed14077b8f2421eece5707a17b161094e6a",
      "contractAddress": null,
      "l1BaseFeeScalar": "0x186a0",
      "l1BlobBaseFee": "0x1",
      "l1BlobBaseFeeScalar": "0x95506",
      "l1Fee": "0x16e63ff323d",
      "l1GasPrice": "0x24a399850",
      "l1GasUsed": "0x640"
    },
    {
      "status": "0x1",
      "cumulativeGasUsed": "0x18f209",
      "logs": [
        {
          "address": "0x2e8af9c5922623058aa92a183b391e62cb6b2d12",
          "topics": [
            "0xddf252ad1be2c89b69c2b068fc378daa952ba7f163c4a11628f55a4df523b3ef",
            "0x0000000000000000000000000000000000000000000000000000000000000000",
            "0x000000000000000000000000cda2fdb452ff4f5d7ba1c3d5dfcc9cb926a5eb7d",
            "0x00000000000000000000000000000000000000000000000000000000000001fa"
          ],
          "data": "0x",
          "blockHash": "0x8633c086907aa5ae4f49e2297b61febd7172c1e0f4786edae07fd0e8080236f9",
          "blockNumber": "0x751292",
          "transactionHash": "0xd25651998386f500e503571ceed8cc1f05cf0449b9eef97cdbc82bb774ce90d9",
          "transactionIndex": "0x8",
          "logIndex": "0x17",
          "removed": false
        },
        {
          "address": "0x2e8af9c5922623058aa92a183b391e62cb6b2d12",
          "topics": [
            "0xf8e1a15aba9398e019f0b49df1a4fde98ee17ae345cb5f6b5e2c27f5033e8ce7"
          ],
          "data": "0x00000000000000000000000000000000000000000000000000000000000001fa",
          "blockHash": "0x8633c086907aa5ae4f49e2297b61febd7172c1e0f4786edae07fd0e8080236f9",
          "blockNumber": "0x751292",
          "transactionHash": "0xd25651998386f500e503571ceed8cc1f05cf0449b9eef97cdbc82bb774ce90d9",
          "transactionIndex": "0x8",
          "logIndex": "0x18",
          "removed": false
        }
      ],
      "logsBloom": "0x00000000000000000000000000000000000000020000000000000000001000000000000000000000000000000000000000002000000000000000000000000000000000000000000000000008040000000000000000000000000000000000000000000000020000000000000000000800002000000000800000000010000000000000000000000000000000000000000000000000000000000000000000000000000000000000000000000000000000002000000000004000000000000000008000000002000000000000000000200000000000000000000000000000000020000000000000000000200000000000000000000000100000000000000000000000",
      "type": "0x2",
      "transactionHash": "0xd25651998386f500e503571ceed8cc1f05cf0449b9eef97cdbc82bb774ce90d9",
      "transactionIndex": "0x8",
      "blockHash": "0x8633c086907aa5ae4f49e2297b61febd7172c1e0f4786edae07fd0e8080236f9",
      "blockNumber": "0x751292",
      "gasUsed": "0x2ccb8",
      "effectiveGasPrice": "0xfd",
      "from": "0xcda2fdb452ff4f5d7ba1c3d5dfcc9cb926a5eb7d",
      "to": "0x79dfbed14077b8f2421eece5707a17b161094e6a",
      "contractAddress": null,
      "l1BaseFeeScalar": "0x186a0",
      "l1BlobBaseFee": "0x1",
      "l1BlobBaseFeeScalar": "0x95506",
      "l1Fee": "0x16e63ff323d",
      "l1GasPrice": "0x24a399850",
      "l1GasUsed": "0x640"
    },
    {
      "status": "0x1",
      "cumulativeGasUsed": "0x1bbec1",
      "logs": [
        {
          "address": "0x2e8af9c5922623058aa92a183b391e62cb6b2d12",
          "topics": [
            "0xddf252ad1be2c89b69c2b068fc378daa952ba7f163c4a11628f55a4df523b3ef",
            "0x0000000000000000000000000000000000000000000000000000000000000000",
            "0x000000000000000000000000cda2fdb452ff4f5d7ba1c3d5dfcc9cb926a5eb7d",
            "0x00000000000000000000000000000000000000000000000000000000000001fb"
          ],
          "data": "0x",
          "blockHash": "0x8633c086907aa5ae4f49e2297b61febd7172c1e0f4786edae07fd0e8080236f9",
          "blockNumber": "0x751292",
          "transactionHash": "0x1df7deb87050011c1383b8ebd5ff8fdf8c3070188533ca5e8b7cf9fbf9b5b9be",
          "transactionIndex": "0x9",
          "logIndex": "0x19",
          "removed": false
        },
        {
          "address": "0x2e8af9c5922623058aa92a183b391e62cb6b2d12",
          "topics": [
            "0xf8e1a15aba9398e019f0b49df1a4fde98ee17ae345cb5f6b5e2c27f5033e8ce7"
          ],
          "data": "0x00000000000000000000000000000000000000000000000000000000000001fb",
          "blockHash": "0x8633c086907aa5ae4f49e2297b61febd7172c1e0f4786edae07fd0e8080236f9",
          "blockNumber": "0x751292",
          "transactionHash": "0x1df7deb87050011c1383b8ebd5ff8fdf8c3070188533ca5e8b7cf9fbf9b5b9be",
          "transactionIndex": "0x9",
          "logIndex": "0x1a",
          "removed": false
        }
      ],
      "logsBloom": "0x00000000000000000000000000000000000000020000000000000000000000000000000000000000000000000000000000000000000000000000000000000000000000000000000000000008040000000000000000000000000000000000004000000000020000000000000000000800002000000000800000000010008000000000000000000000000000000000000000000000000000000000000000000000000000000000000000000000000000002000000000004000000000000000008000000002000000000000000000000000000000000000000000000000000020000000000000100000200000000000000000000000100000000000000000000000",
      "type": "0x2",
      "transactionHash": "0x1df7deb87050011c1383b8ebd5ff8fdf8c3070188533ca5e8b7cf9fbf9b5b9be",
      "transactionIndex": "0x9",
      "blockHash": "0x8633c086907aa5ae4f49e2297b61febd7172c1e0f4786edae07fd0e8080236f9",
      "blockNumber": "0x751292",
      "gasUsed": "0x2ccb8",
      "effectiveGasPrice": "0xfd",
      "from": "0xcda2fdb452ff4f5d7ba1c3d5dfcc9cb926a5eb7d",
      "to": "0x79dfbed14077b8f2421eece5707a17b161094e6a",
      "contractAddress": null,
      "l1BaseFeeScalar": "0x186a0",
      "l1BlobBaseFee": "0x1",
      "l1BlobBaseFeeScalar": "0x95506",
      "l1Fee": "0x16e63ff323d",
      "l1GasPrice": "0x24a399850",
      "l1GasUsed": "0x640"
    },
    {
      "status": "0x1",
      "cumulativeGasUsed": "0x1e8b79",
      "logs": [
        {
          "address": "0x2e8af9c5922623058aa92a183b391e62cb6b2d12",
          "topics": [
            "0xddf252ad1be2c89b69c2b068fc378daa952ba7f163c4a11628f55a4df523b3ef",
            "0x0000000000000000000000000000000000000000000000000000000000000000",
            "0x000000000000000000000000cda2fdb452ff4f5d7ba1c3d5dfcc9cb926a5eb7d",
            "0x00000000000000000000000000000000000000000000000000000000000001fc"
          ],
          "data": "0x",
          "blockHash": "0x8633c086907aa5ae4f49e2297b61febd7172c1e0f4786edae07fd0e8080236f9",
          "blockNumber": "0x751292",
          "transactionHash": "0x9c20888011fd52cf9306608d52332ee1f40141d5c54450fc5e0e1d5b87ce8c67",
          "transactionIndex": "0xa",
          "logIndex": "0x1b",
          "removed": false
        },
        {
          "address": "0x2e8af9c5922623058aa92a183b391e62cb6b2d12",
          "topics": [
            "0xf8e1a15aba9398e019f0b49df1a4fde98ee17ae345cb5f6b5e2c27f5033e8ce7"
          ],
          "data": "0x00000000000000000000000000000000000000000000000000000000000001fc",
          "blockHash": "0x8633c086907aa5ae4f49e2297b61febd7172c1e0f4786edae07fd0e8080236f9",
          "blockNumber": "0x751292",
          "transactionHash": "0x9c20888011fd52cf9306608d52332ee1f40141d5c54450fc5e0e1d5b87ce8c67",
          "transactionIndex": "0xa",
          "logIndex": "0x1c",
          "removed": false
        }
      ],
      "logsBloom": "0x00000000000000000000000000000000000000020000000000000000000000010000000000000000000000000000000000000000000000000000000000000000000000000000000000000008040000000000000000000000000000000000000000004000020000000000020000000800002000000000800000000010000000000000000000000000000000000000000000000000000000000000000000000000000000000000000000000000000000002000000000004000000000000000008000000002000000000000000000000000000000000000000000000000000020000000000000000000200000000000000000000000100000000000000000000000",
      "type": "0x2",
      "transactionHash": "0x9c20888011fd52cf9306608d52332ee1f40141d5c54450fc5e0e1d5b87ce8c67",
      "transactionIndex": "0xa",
      "blockHash": "0x8633c086907aa5ae4f49e2297b61febd7172c1e0f4786edae07fd0e8080236f9",
      "blockNumber": "0x751292",
      "gasUsed": "0x2ccb8",
      "effectiveGasPrice": "0xfd",
      "from": "0xcda2fdb452ff4f5d7ba1c3d5dfcc9cb926a5eb7d",
      "to": "0x79dfbed14077b8f2421eece5707a17b161094e6a",
      "contractAddress": null,
      "l1BaseFeeScalar": "0x186a0",
      "l1BlobBaseFee": "0x1",
      "l1BlobBaseFeeScalar": "0x95506",
      "l1Fee": "0x16e63ff323d",
      "l1GasPrice": "0x24a399850",
      "l1GasUsed": "0x640"
    },
    {
      "status": "0x1",
      "cumulativeGasUsed": "0x215831",
      "logs": [
        {
          "address": "0x2e8af9c5922623058aa92a183b391e62cb6b2d12",
          "topics": [
            "0xddf252ad1be2c89b69c2b068fc378daa952ba7f163c4a11628f55a4df523b3ef",
            "0x0000000000000000000000000000000000000000000000000000000000000000",
            "0x000000000000000000000000cda2fdb452ff4f5d7ba1c3d5dfcc9cb926a5eb7d",
            "0x00000000000000000000000000000000000000000000000000000000000001fd"
          ],
          "data": "0x",
          "blockHash": "0x8633c086907aa5ae4f49e2297b61febd7172c1e0f4786edae07fd0e8080236f9",
          "blockNumber": "0x751292",
          "transactionHash": "0xbc6d8fba2511fca2cf2b1add21a12b175e35e95c17aa309dc4cd7989029235e8",
          "transactionIndex": "0xb",
          "logIndex": "0x1d",
          "removed": false
        },
        {
          "address": "0x2e8af9c5922623058aa92a183b391e62cb6b2d12",
          "topics": [
            "0xf8e1a15aba9398e019f0b49df1a4fde98ee17ae345cb5f6b5e2c27f5033e8ce7"
          ],
          "data": "0x00000000000000000000000000000000000000000000000000000000000001fd",
          "blockHash": "0x8633c086907aa5ae4f49e2297b61febd7172c1e0f4786edae07fd0e8080236f9",
          "blockNumber": "0x751292",
          "transactionHash": "0xbc6d8fba2511fca2cf2b1add21a12b175e35e95c17aa309dc4cd7989029235e8",
          "transactionIndex": "0xb",
          "logIndex": "0x1e",
          "removed": false
        }
      ],
      "logsBloom": "0x00000000000000000000000000000000000000020000000000000000000000000000000000000000000000000000000000000000000000000000000000000000000000000000000000000008040000000000000000400000000000000000000000000000020000000000000000000800002000000000800000000010008000000000000000000000000000000000000000000000000000000000000000000000000000000000000000000000000000002000000000004000000000000000008000020002000000000000000000000000000000000000000000000000000020000000000000000000200000000000000000000000100000000000000000000000",
      "type": "0x2",
      "transactionHash": "0xbc6d8fba2511fca2cf2b1add21a12b175e35e95c17aa309dc4cd7989029235e8",
      "transactionIndex": "0xb",
      "blockHash": "0x8633c086907aa5ae4f49e2297b61febd7172c1e0f4786edae07fd0e8080236f9",
      "blockNumber": "0x751292",
      "gasUsed": "0x2ccb8",
      "effectiveGasPrice": "0xfd",
      "from": "0xcda2fdb452ff4f5d7ba1c3d5dfcc9cb926a5eb7d",
      "to": "0x79dfbed14077b8f2421eece5707a17b161094e6a",
      "contractAddress": null,
      "l1BaseFeeScalar": "0x186a0",
      "l1BlobBaseFee": "0x1",
      "l1BlobBaseFeeScalar": "0x95506",
      "l1Fee": "0x16e63ff323d",
      "l1GasPrice": "0x24a399850",
      "l1GasUsed": "0x640"
    },
    {
      "status": "0x1",
      "cumulativeGasUsed": "0x2424e9",
      "logs": [
        {
          "address": "0x2e8af9c5922623058aa92a183b391e62cb6b2d12",
          "topics": [
            "0xddf252ad1be2c89b69c2b068fc378daa952ba7f163c4a11628f55a4df523b3ef",
            "0x0000000000000000000000000000000000000000000000000000000000000000",
            "0x000000000000000000000000cda2fdb452ff4f5d7ba1c3d5dfcc9cb926a5eb7d",
            "0x00000000000000000000000000000000000000000000000000000000000001fe"
          ],
          "data": "0x",
          "blockHash": "0x8633c086907aa5ae4f49e2297b61febd7172c1e0f4786edae07fd0e8080236f9",
          "blockNumber": "0x751292",
          "transactionHash": "0xc9fddcd92c2b6b517e93e916e55907269db6e1bfecc05b844a723e1955cd453f",
          "transactionIndex": "0xc",
          "logIndex": "0x1f",
          "removed": false
        },
        {
          "address": "0x2e8af9c5922623058aa92a183b391e62cb6b2d12",
          "topics": [
            "0xf8e1a15aba9398e019f0b49df1a4fde98ee17ae345cb5f6b5e2c27f5033e8ce7"
          ],
          "data": "0x00000000000000000000000000000000000000000000000000000000000001fe",
          "blockHash": "0x8633c086907aa5ae4f49e2297b61febd7172c1e0f4786edae07fd0e8080236f9",
          "blockNumber": "0x751292",
          "transactionHash": "0xc9fddcd92c2b6b517e93e916e55907269db6e1bfecc05b844a723e1955cd453f",
          "transactionIndex": "0xc",
          "logIndex": "0x20",
          "removed": false
        }
      ],
      "logsBloom": "0x00000000000000000000000000000000000000020000000000000000000000000000000000000000000000000000000000400000000000000000000000000000000000000000000000000008040000000000000000000000000000000000000000000000020000000000000000000800002000000000800000000010000000000000000000000000000000000000000000000000000000000000000000000000000000000000040000000000000000002000000000004000000000000000008000000002000000000000000000000000000000000000000000000000000020000000000000000008200000000000000000000000100000000000000000000000",
      "type": "0x2",
      "transactionHash": "0xc9fddcd92c2b6b517e93e916e55907269db6e1bfecc05b844a723e1955cd453f",
      "transactionIndex": "0xc",
      "blockHash": "0x8633c086907aa5ae4f49e2297b61febd7172c1e0f4786edae07fd0e8080236f9",
      "blockNumber": "0x751292",
      "gasUsed": "0x2ccb8",
      "effectiveGasPrice": "0xfd",
      "from": "0xcda2fdb452ff4f5d7ba1c3d5dfcc9cb926a5eb7d",
      "to": "0x79dfbed14077b8f2421eece5707a17b161094e6a",
      "contractAddress": null,
      "l1BaseFeeScalar": "0x186a0",
      "l1BlobBaseFee": "0x1",
      "l1BlobBaseFeeScalar": "0x95506",
      "l1Fee": "0x16e63ff323d",
      "l1GasPrice": "0x24a399850",
      "l1GasUsed": "0x640"
    },
    {
      "status": "0x1",
      "cumulativeGasUsed": "0x26f1a1",
      "logs": [
        {
          "address": "0x2e8af9c5922623058aa92a183b391e62cb6b2d12",
          "topics": [
            "0xddf252ad1be2c89b69c2b068fc378daa952ba7f163c4a11628f55a4df523b3ef",
            "0x0000000000000000000000000000000000000000000000000000000000000000",
            "0x000000000000000000000000cda2fdb452ff4f5d7ba1c3d5dfcc9cb926a5eb7d",
            "0x00000000000000000000000000000000000000000000000000000000000001ff"
          ],
          "data": "0x",
          "blockHash": "0x8633c086907aa5ae4f49e2297b61febd7172c1e0f4786edae07fd0e8080236f9",
          "blockNumber": "0x751292",
          "transactionHash": "0x8a02ea726725a2a4914b341f0ff90a949be61045caf37f04ba698b1355976218",
          "transactionIndex": "0xd",
          "logIndex": "0x21",
          "removed": false
        },
        {
          "address": "0x2e8af9c5922623058aa92a183b391e62cb6b2d12",
          "topics": [
            "0xf8e1a15aba9398e019f0b49df1a4fde98ee17ae345cb5f6b5e2c27f5033e8ce7"
          ],
          "data": "0x00000000000000000000000000000000000000000000000000000000000001ff",
          "blockHash": "0x8633c086907aa5ae4f49e2297b61febd7172c1e0f4786edae07fd0e8080236f9",
          "blockNumber": "0x751292",
          "transactionHash": "0x8a02ea726725a2a4914b341f0ff90a949be61045caf37f04ba698b1355976218",
          "transactionIndex": "0xd",
          "logIndex": "0x22",
          "removed": false
        }
      ],
      "logsBloom": "0x00000000000000000000000000000000000000020000000000000000000000000000000000000000000000000000000000000000000000000000000000000000000000000000000000000008040000000000000000000000000000000000000000000000020000000000000000000800002000000000800000000010010000000000000000000000000000000000000000000000000000000000000000000000000000000000000000000000000000002000000000004000000000000000008000000002000000000000000000001000000000000000000000000000000020000000000000000000200000000000000080000000100000000000000000000000",
      "type": "0x2",
      "transactionHash": "0x8a02ea726725a2a4914b341f0ff90a949be61045caf37f04ba698b1355976218",
      "transactionIndex": "0xd",
      "blockHash": "0x8633c086907aa5ae4f49e2297b61febd7172c1e0f4786edae07fd0e8080236f9",
      "blockNumber": "0x751292",
      "gasUsed": "0x2ccb8",
      "effectiveGasPrice": "0xfd",
      "from": "0xcda2fdb452ff4f5d7ba1c3d5dfcc9cb926a5eb7d",
      "to": "0x79dfbed14077b8f2421eece5707a17b161094e6a",
      "contractAddress": null,
      "l1BaseFeeScalar": "0x186a0",
      "l1BlobBaseFee": "0x1",
      "l1BlobBaseFeeScalar": "0x95506",
      "l1Fee": "0x16e63ff323d",
      "l1GasPrice": "0x24a399850",
      "l1GasUsed": "0x640"
    },
    {
      "status": "0x1",
      "cumulativeGasUsed": "0x29be59",
      "logs": [
        {
          "address": "0x2e8af9c5922623058aa92a183b391e62cb6b2d12",
          "topics": [
            "0xddf252ad1be2c89b69c2b068fc378daa952ba7f163c4a11628f55a4df523b3ef",
            "0x0000000000000000000000000000000000000000000000000000000000000000",
            "0x000000000000000000000000cda2fdb452ff4f5d7ba1c3d5dfcc9cb926a5eb7d",
            "0x0000000000000000000000000000000000000000000000000000000000000200"
          ],
          "data": "0x",
          "blockHash": "0x8633c086907aa5ae4f49e2297b61febd7172c1e0f4786edae07fd0e8080236f9",
          "blockNumber": "0x751292",
          "transactionHash": "0x92012c6db2fa603deee8839fe44c56b60f31173f167b3b41727835d2fe42a3ae",
          "transactionIndex": "0xe",
          "logIndex": "0x23",
          "removed": false
        },
        {
          "address": "0x2e8af9c5922623058aa92a183b391e62cb6b2d12",
          "topics": [
            "0xf8e1a15aba9398e019f0b49df1a4fde98ee17ae345cb5f6b5e2c27f5033e8ce7"
          ],
          "data": "0x0000000000000000000000000000000000000000000000000000000000000200",
          "blockHash": "0x8633c086907aa5ae4f49e2297b61febd7172c1e0f4786edae07fd0e8080236f9",
          "blockNumber": "0x751292",
          "transactionHash": "0x92012c6db2fa603deee8839fe44c56b60f31173f167b3b41727835d2fe42a3ae",
          "transactionIndex": "0xe",
          "logIndex": "0x24",
          "removed": false
        }
      ],
      "logsBloom": "0x00000000000000000000000000000000000000020000000000000000000000000000000000000000000000000000000000000000000000008000000000000000000000000000000000000008040000000000000000000000000000000000000000000000020000000000000000000800002000000000800000000010000000000000000000040000000000000000000000000000000000000000000000000000000000000000000000000000000000002000000000004000000000000000008000000002000000000000000000000000002000000000000000000000000020000000000000000000200000000000000000000000100000000000000000000000",
      "type": "0x2",
      "transactionHash": "0x92012c6db2fa603deee8839fe44c56b60f31173f167b3b41727835d2fe42a3ae",
      "transactionIndex": "0xe",
      "blockHash": "0x8633c086907aa5ae4f49e2297b61febd7172c1e0f4786edae07fd0e8080236f9",
      "blockNumber": "0x751292",
      "gasUsed": "0x2ccb8",
      "effectiveGasPrice": "0xfd",
      "from": "0xcda2fdb452ff4f5d7ba1c3d5dfcc9cb926a5eb7d",
      "to": "0x79dfbed14077b8f2421eece5707a17b161094e6a",
      "contractAddress": null,
      "l1BaseFeeScalar": "0x186a0",
      "l1BlobBaseFee": "0x1",
      "l1BlobBaseFeeScalar": "0x95506",
      "l1Fee": "0x16e63ff323d",
      "l1GasPrice": "0x24a399850",
      "l1GasUsed": "0x640"
    },
    {
      "status": "0x1",
      "cumulativeGasUsed": "0x2c8b11",
      "logs": [
        {
          "address": "0x2e8af9c5922623058aa92a183b391e62cb6b2d12",
          "topics": [
            "0xddf252ad1be2c89b69c2b068fc378daa952ba7f163c4a11628f55a4df523b3ef",
            "0x0000000000000000000000000000000000000000000000000000000000000000",
            "0x000000000000000000000000cda2fdb452ff4f5d7ba1c3d5dfcc9cb926a5eb7d",
            "0x0000000000000000000000000000000000000000000000000000000000000201"
          ],
          "data": "0x",
          "blockHash": "0x8633c086907aa5ae4f49e2297b61febd7172c1e0f4786edae07fd0e8080236f9",
          "blockNumber": "0x751292",
          "transactionHash": "0x0d1f0c3104eed7b14adcbd9918a20ec9270a85d920924ac434ffbd30819894d6",
          "transactionIndex": "0xf",
          "logIndex": "0x25",
          "removed": false
        },
        {
          "address": "0x2e8af9c5922623058aa92a183b391e62cb6b2d12",
          "topics": [
            "0xf8e1a15aba9398e019f0b49df1a4fde98ee17ae345cb5f6b5e2c27f5033e8ce7"
          ],
          "data": "0x0000000000000000000000000000000000000000000000000000000000000201",
          "blockHash": "0x8633c086907aa5ae4f49e2297b61febd7172c1e0f4786edae07fd0e8080236f9",
          "blockNumber": "0x751292",
          "transactionHash": "0x0d1f0c3104eed7b14adcbd9918a20ec9270a85d920924ac434ffbd30819894d6",
          "transactionIndex": "0xf",
          "logIndex": "0x26",
          "removed": false
        }
      ],
      "logsBloom": "0x00000000000000000000000000000000000000020000000000000000000001000000000000000000000000000000000000000000000000000000000000000000000000000000000000000008040000000000000000200000000000000100000000000000020000000000000000000800002000000000800000000010000000000000000000000000000000000000000000000000000000000000000000000000000000000000000000000000000000002000000000004000000000000000008000000002000000000000000000000000000000000000000000000000000020000000000000000000200000000000000000000000100000000000000000000000",
      "type": "0x2",
      "transactionHash": "0x0d1f0c3104eed7b14adcbd9918a20ec9270a85d920924ac434ffbd30819894d6",
      "transactionIndex": "0xf",
      "blockHash": "0x8633c086907aa5ae4f49e2297b61febd7172c1e0f4786edae07fd0e8080236f9",
      "blockNumber": "0x751292",
      "gasUsed": "0x2ccb8",
      "effectiveGasPrice": "0xfd",
      "from": "0xcda2fdb452ff4f5d7ba1c3d5dfcc9cb926a5eb7d",
      "to": "0x79dfbed14077b8f2421eece5707a17b161094e6a",
      "contractAddress": null,
      "l1BaseFeeScalar": "0x186a0",
      "l1BlobBaseFee": "0x1",
      "l1BlobBaseFeeScalar": "0x95506",
      "l1Fee": "0x16e63ff323d",
      "l1GasPrice": "0x24a399850",
      "l1GasUsed": "0x640"
    },
    {
      "status": "0x1",
      "cumulativeGasUsed": "0x2f57c9",
      "logs": [
        {
          "address": "0x2e8af9c5922623058aa92a183b391e62cb6b2d12",
          "topics": [
            "0xddf252ad1be2c89b69c2b068fc378daa952ba7f163c4a11628f55a4df523b3ef",
            "0x0000000000000000000000000000000000000000000000000000000000000000",
            "0x000000000000000000000000cda2fdb452ff4f5d7ba1c3d5dfcc9cb926a5eb7d",
            "0x0000000000000000000000000000000000000000000000000000000000000202"
          ],
          "data": "0x",
          "blockHash": "0x8633c086907aa5ae4f49e2297b61febd7172c1e0f4786edae07fd0e8080236f9",
          "blockNumber": "0x751292",
          "transactionHash": "0x34e5b5da085684a2d71f5384fe58b0e02a37d8c852ee1db95a737201979a2e4b",
          "transactionIndex": "0x10",
          "logIndex": "0x27",
          "removed": false
        },
        {
          "address": "0x2e8af9c5922623058aa92a183b391e62cb6b2d12",
          "topics": [
            "0xf8e1a15aba9398e019f0b49df1a4fde98ee17ae345cb5f6b5e2c27f5033e8ce7"
          ],
          "data": "0x0000000000000000000000000000000000000000000000000000000000000202",
          "blockHash": "0x8633c086907aa5ae4f49e2297b61febd7172c1e0f4786edae07fd0e8080236f9",
          "blockNumber": "0x751292",
          "transactionHash": "0x34e5b5da085684a2d71f5384fe58b0e02a37d8c852ee1db95a737201979a2e4b",
          "transactionIndex": "0x10",
          "logIndex": "0x28",
          "removed": false
        }
      ],
      "logsBloom": "0x00000000000000000000000000000000000000020000000000000000000000000000000000000000000000000000000000000000000000000000000000000000000000000000000000000008040000000000000000000000000000000000000000000000020000000000000000000800002000000000800000000010000000000000000000001000000000000000000000000000000000000002000000000000000000000000010000000000000000002000000000004000000000000000008000000002000000000000000000000000000000000000000000000000000020000000000000000000200000000000000000000000100000000000000000000000",
      "type": "0x2",
      "transactionHash": "0x34e5b5da085684a2d71f5384fe58b0e02a37d8c852ee1db95a737201979a2e4b",
      "transactionIndex": "0x10",
      "blockHash": "0x8633c086907aa5ae4f49e2297b61febd7172c1e0f4786edae07fd0e8080236f9",
      "blockNumber": "0x751292",
      "gasUsed": "0x2ccb8",
      "effectiveGasPrice": "0xfd",
      "from": "0xcda2fdb452ff4f5d7ba1c3d5dfcc9cb926a5eb7d",
      "to": "0x79dfbed14077b8f2421eece5707a17b161094e6a",
      "contractAddress": null,
      "l1BaseFeeScalar": "0x186a0",
      "l1BlobBaseFee": "0x1",
      "l1BlobBaseFeeScalar": "0x95506",
      "l1Fee": "0x16e63ff323d",
      "l1GasPrice": "0x24a399850",
      "l1GasUsed": "0x640"
    },
    {
      "status": "0x1",
      "cumulativeGasUsed": "0x322481",
      "logs": [
        {
          "address": "0x2e8af9c5922623058aa92a183b391e62cb6b2d12",
          "topics": [
            "0xddf252ad1be2c89b69c2b068fc378daa952ba7f163c4a11628f55a4df523b3ef",
            "0x0000000000000000000000000000000000000000000000000000000000000000",
            "0x000000000000000000000000cda2fdb452ff4f5d7ba1c3d5dfcc9cb926a5eb7d",
            "0x0000000000000000000000000000000000000000000000000000000000000203"
          ],
          "data": "0x",
          "blockHash": "0x8633c086907aa5ae4f49e2297b61febd7172c1e0f4786edae07fd0e8080236f9",
          "blockNumber": "0x751292",
          "transactionHash": "0xaf0aa515f480b7276525c28eab7afb545e342b59e0058759cdb86852fec06a9c",
          "transactionIndex": "0x11",
          "logIndex": "0x29",
          "removed": false
        },
        {
          "address": "0x2e8af9c5922623058aa92a183b391e62cb6b2d12",
          "topics": [
            "0xf8e1a15aba9398e019f0b49df1a4fde98ee17ae345cb5f6b5e2c27f5033e8ce7"
          ],
          "data": "0x0000000000000000000000000000000000000000000000000000000000000203",
          "blockHash": "0x8633c086907aa5ae4f49e2297b61febd7172c1e0f4786edae07fd0e8080236f9",
          "blockNumber": "0x751292",
          "transactionHash": "0xaf0aa515f480b7276525c28eab7afb545e342b59e0058759cdb86852fec06a9c",
          "transactionIndex": "0x11",
          "logIndex": "0x2a",
          "removed": false
        }
      ],
      "logsBloom": "0x00000000000000000000000000000000000000020000000000000000000000000000000000000000000000000000000000000000000000000000000000000000000001040000000000000008040000000000000000000000000000000000000000000000020000000000000000000800002000000000800000000010000000000000000000000000000000000000000000000000000000000000000000000000000000008000000000000000000000002000000000004000000000000000008000000002000000000000000000000000000000000000000000000000000020000000000000000000200000000000000000000000100000000000000000000000",
      "type": "0x2",
      "transactionHash": "0xaf0aa515f480b7276525c28eab7afb545e342b59e0058759cdb86852fec06a9c",
      "transactionIndex": "0x11",
      "blockHash": "0x8633c086907aa5ae4f49e2297b61febd7172c1e0f4786edae07fd0e8080236f9",
      "blockNumber": "0x751292",
      "gasUsed": "0x2ccb8",
      "effectiveGasPrice": "0xfd",
      "from": "0xcda2fdb452ff4f5d7ba1c3d5dfcc9cb926a5eb7d",
      "to": "0x79dfbed14077b8f2421eece5707a17b161094e6a",
      "contractAddress": null,
      "l1BaseFeeScalar": "0x186a0",
      "l1BlobBaseFee": "0x1",
      "l1BlobBaseFeeScalar": "0x95506",
      "l1Fee": "0x16e63ff323d",
      "l1GasPrice": "0x24a399850",
      "l1GasUsed": "0x640"
    },
    {
      "status": "0x1",
      "cumulativeGasUsed": "0x34f139",
      "logs": [
        {
          "address": "0x2e8af9c5922623058aa92a183b391e62cb6b2d12",
          "topics": [
            "0xddf252ad1be2c89b69c2b068fc378daa952ba7f163c4a11628f55a4df523b3ef",
            "0x0000000000000000000000000000000000000000000000000000000000000000",
            "0x000000000000000000000000cda2fdb452ff4f5d7ba1c3d5dfcc9cb926a5eb7d",
            "0x0000000000000000000000000000000000000000000000000000000000000204"
          ],
          "data": "0x",
          "blockHash": "0x8633c086907aa5ae4f49e2297b61febd7172c1e0f4786edae07fd0e8080236f9",
          "blockNumber": "0x751292",
          "transactionHash": "0x336479c07b967cde28dfd4993987d88aa939e500fbe585fb87d116ba039a6be6",
          "transactionIndex": "0x12",
          "logIndex": "0x2b",
          "removed": false
        },
        {
          "address": "0x2e8af9c5922623058aa92a183b391e62cb6b2d12",
          "topics": [
            "0xf8e1a15aba9398e019f0b49df1a4fde98ee17ae345cb5f6b5e2c27f5033e8ce7"
          ],
          "data": "0x0000000000000000000000000000000000000000000000000000000000000204",
          "blockHash": "0x8633c086907aa5ae4f49e2297b61febd7172c1e0f4786edae07fd0e8080236f9",
          "blockNumber": "0x751292",
          "transactionHash": "0x336479c07b967cde28dfd4993987d88aa939e500fbe585fb87d116ba039a6be6",
          "transactionIndex": "0x12",
          "logIndex": "0x2c",
          "removed": false
        }
      ],
      "logsBloom": "0x00000000000000000000000000000000000000020000000000000000000000000000000000000000000000000000000000000000000000000000000020000000000000000000000000000008040000000000000000000000000000000000000000000000020800000000000000000800002000000000800000000010000000000000000000000000000000000000000000000000000000000000000000000000000000000000000000000000000000002000000000004000000000000000008000000002000000000000000000000000000000000000000000000000000020000000000000000000200000040000000000000000100000000000000000000000",
      "type": "0x2",
      "transactionHash": "0x336479c07b967cde28dfd4993987d88aa939e500fbe585fb87d116ba039a6be6",
      "transactionIndex": "0x12",
      "blockHash": "0x8633c086907aa5ae4f49e2297b61febd7172c1e0f4786edae07fd0e8080236f9",
      "blockNumber": "0x751292",
      "gasUsed": "0x2ccb8",
      "effectiveGasPrice": "0xfd",
      "from": "0xcda2fdb452ff4f5d7ba1c3d5dfcc9cb926a5eb7d",
      "to": "0x79dfbed14077b8f2421eece5707a17b161094e6a",
      "contractAddress": null,
      "l1BaseFeeScalar": "0x186a0",
      "l1BlobBaseFee": "0x1",
      "l1BlobBaseFeeScalar": "0x95506",
      "l1Fee": "0x16e63ff323d",
      "l1GasPrice": "0x24a399850",
      "l1GasUsed": "0x640"
    },
    {
      "status": "0x1",
      "cumulativeGasUsed": "0x37bdf1",
      "logs": [
        {
          "address": "0x2e8af9c5922623058aa92a183b391e62cb6b2d12",
          "topics": [
            "0xddf252ad1be2c89b69c2b068fc378daa952ba7f163c4a11628f55a4df523b3ef",
            "0x0000000000000000000000000000000000000000000000000000000000000000",
            "0x000000000000000000000000cda2fdb452ff4f5d7ba1c3d5dfcc9cb926a5eb7d",
            "0x0000000000000000000000000000000000000000000000000000000000000205"
          ],
          "data": "0x",
          "blockHash": "0x8633c086907aa5ae4f49e2297b61febd7172c1e0f4786edae07fd0e8080236f9",
          "blockNumber": "0x751292",
          "transactionHash": "0x099574b35eac1e16ccdbbbae22ac9cfdc4fb3d9c6c834a4b0191ff253a595061",
          "transactionIndex": "0x13",
          "logIndex": "0x2d",
          "removed": false
        },
        {
          "address": "0x2e8af9c5922623058aa92a183b391e62cb6b2d12",
          "topics": [
            "0xf8e1a15aba9398e019f0b49df1a4fde98ee17ae345cb5f6b5e2c27f5033e8ce7"
          ],
          "data": "0x0000000000000000000000000000000000000000000000000000000000000205",
          "blockHash": "0x8633c086907aa5ae4f49e2297b61febd7172c1e0f4786edae07fd0e8080236f9",
          "blockNumber": "0x751292",
          "transactionHash": "0x099574b35eac1e16ccdbbbae22ac9cfdc4fb3d9c6c834a4b0191ff253a595061",
          "transactionIndex": "0x13",
          "logIndex": "0x2e",
          "removed": false
        }
      ],
      "logsBloom": "0x00000000000000000000000000000000000000020000000000000000000000000000000000000000000000000000000000000000000000000000000000000000000000000000000000000008040000000000000000000000000000000000000000000000020000000000000000000800002000000000800000000010000000000000000000000000000000000000000000000000000000000000000000000000000000000000000000000000000000002000000000004000000000000000008000000002000000000000000000000000000008000000000000000000000020000000000008000000200000000000000000000000100000040000000000000000",
      "type": "0x2",
      "transactionHash": "0x099574b35eac1e16ccdbbbae22ac9cfdc4fb3d9c6c834a4b0191ff253a595061",
      "transactionIndex": "0x13",
      "blockHash": "0x8633c086907aa5ae4f49e2297b61febd7172c1e0f4786edae07fd0e8080236f9",
      "blockNumber": "0x751292",
      "gasUsed": "0x2ccb8",
      "effectiveGasPrice": "0xfd",
      "from": "0xcda2fdb452ff4f5d7ba1c3d5dfcc9cb926a5eb7d",
      "to": "0x79dfbed14077b8f2421eece5707a17b161094e6a",
      "contractAddress": null,
      "l1BaseFeeScalar": "0x186a0",
      "l1BlobBaseFee": "0x1",
      "l1BlobBaseFeeScalar": "0x95506",
      "l1Fee": "0x16e63ff323d",
      "l1GasPrice": "0x24a399850",
      "l1GasUsed": "0x640"
    },
    {
      "status": "0x1",
      "cumulativeGasUsed": "0x3a8aa9",
      "logs": [
        {
          "address": "0x2e8af9c5922623058aa92a183b391e62cb6b2d12",
          "topics": [
            "0xddf252ad1be2c89b69c2b068fc378daa952ba7f163c4a11628f55a4df523b3ef",
            "0x0000000000000000000000000000000000000000000000000000000000000000",
            "0x000000000000000000000000cda2fdb452ff4f5d7ba1c3d5dfcc9cb926a5eb7d",
            "0x0000000000000000000000000000000000000000000000000000000000000206"
          ],
          "data": "0x",
          "blockHash": "0x8633c086907aa5ae4f49e2297b61febd7172c1e0f4786edae07fd0e8080236f9",
          "blockNumber": "0x751292",
          "transactionHash": "0x376ff617d85a249fe1367e940a2e43233dac9de5e2c4fad14ced4e968dee650b",
          "transactionIndex": "0x14",
          "logIndex": "0x2f",
          "removed": false
        },
        {
          "address": "0x2e8af9c5922623058aa92a183b391e62cb6b2d12",
          "topics": [
            "0xf8e1a15aba9398e019f0b49df1a4fde98ee17ae345cb5f6b5e2c27f5033e8ce7"
          ],
          "data": "0x0000000000000000000000000000000000000000000000000000000000000206",
          "blockHash": "0x8633c086907aa5ae4f49e2297b61febd7172c1e0f4786edae07fd0e8080236f9",
          "blockNumber": "0x751292",
          "transactionHash": "0x376ff617d85a249fe1367e940a2e43233dac9de5e2c4fad14ced4e968dee650b",
          "transactionIndex": "0x14",
          "logIndex": "0x30",
          "removed": false
        }
      ],
      "logsBloom": "0x00000000000000000000000000000000000000020000000000000000000000000000000000000100000000000000000000000000400000000000000000000000000000000000000000000008040000000000000000000000000000000000000000000000020000000000000000000800002000000000800000000010000000000000000000000000000000000000000000000000000000000000000000000000000000000000000000000000000000002000000000004000000000000000008000000002000000000000000000000000000000000000000000000001000020000000000000000000200000000000000000000000100000000000000000000000",
      "type": "0x2",
      "transactionHash": "0x376ff617d85a249fe1367e940a2e43233dac9de5e2c4fad14ced4e968dee650b",
      "transactionIndex": "0x14",
      "blockHash": "0x8633c086907aa5ae4f49e2297b61febd7172c1e0f4786edae07fd0e8080236f9",
      "blockNumber": "0x751292",
      "gasUsed": "0x2ccb8",
      "effectiveGasPrice": "0xfd",
      "from": "0xcda2fdb452ff4f5d7ba1c3d5dfcc9cb926a5eb7d",
      "to": "0x79dfbed14077b8f2421eece5707a17b161094e6a",
      "contractAddress": null,
      "l1BaseFeeScalar": "0x186a0",
      "l1BlobBaseFee": "0x1",
      "l1BlobBaseFeeScalar": "0x95506",
      "l1Fee": "0x16e63ff323d",
      "l1GasPrice": "0x24a399850",
      "l1GasUsed": "0x640"
    },
    {
      "status": "0x1",
      "cumulativeGasUsed": "0x3d5761",
      "logs": [
        {
          "address": "0x2e8af9c5922623058aa92a183b391e62cb6b2d12",
          "topics": [
            "0xddf252ad1be2c89b69c2b068fc378daa952ba7f163c4a11628f55a4df523b3ef",
            "0x0000000000000000000000000000000000000000000000000000000000000000",
            "0x000000000000000000000000cda2fdb452ff4f5d7ba1c3d5dfcc9cb926a5eb7d",
            "0x0000000000000000000000000000000000000000000000000000000000000207"
          ],
          "data": "0x",
          "blockHash": "0x8633c086907aa5ae4f49e2297b61febd7172c1e0f4786edae07fd0e8080236f9",
          "blockNumber": "0x751292",
          "transactionHash": "0x68c77f8a276f2b90b1ee4dbdac4b2246789d345a84fa2054bd3177984d46d54d",
          "transactionIndex": "0x15",
          "logIndex": "0x31",
          "removed": false
        },
        {
          "address": "0x2e8af9c5922623058aa92a183b391e62cb6b2d12",
          "topics": [
            "0xf8e1a15aba9398e019f0b49df1a4fde98ee17ae345cb5f6b5e2c27f5033e8ce7"
          ],
          "data": "0x0000000000000000000000000000000000000000000000000000000000000207",
          "blockHash": "0x8633c086907aa5ae4f49e2297b61febd7172c1e0f4786edae07fd0e8080236f9",
          "blockNumber": "0x751292",
          "transactionHash": "0x68c77f8a276f2b90b1ee4dbdac4b2246789d345a84fa2054bd3177984d46d54d",
          "transactionIndex": "0x15",
          "logIndex": "0x32",
          "removed": false
        }
      ],
      "logsBloom": "0x00000000000000000000000000000000000000020000000000000000000000000000000000000000000000000000000000000000000000000000000000000000000000000001000000000008040000000000000008000000000000000000000000000000020000000000000000000800002000000000800000000010000000000000000000000000000000000000000000000000000000000000000000000000000000000080000000000000000000002000000000004000000000000000008000000002000000000000000000000000000000000000000000000000000020000000000000000000200000000000000000000000100000000000000000000000",
      "type": "0x2",
      "transactionHash": "0x68c77f8a276f2b90b1ee4dbdac4b2246789d345a84fa2054bd3177984d46d54d",
      "transactionIndex": "0x15",
      "blockHash": "0x8633c086907aa5ae4f49e2297b61febd7172c1e0f4786edae07fd0e8080236f9",
      "blockNumber": "0x751292",
      "gasUsed": "0x2ccb8",
      "effectiveGasPrice": "0xfd",
      "from": "0xcda2fdb452ff4f5d7ba1c3d5dfcc9cb926a5eb7d",
      "to": "0x79dfbed14077b8f2421eece5707a17b161094e6a",
      "contractAddress": null,
      "l1BaseFeeScalar": "0x186a0",
      "l1BlobBaseFee": "0x1",
      "l1BlobBaseFeeScalar": "0x95506",
      "l1Fee": "0x16e63ff323d",
      "l1GasPrice": "0x24a399850",
      "l1GasUsed": "0x640"
    },
    {
      "status": "0x1",
      "cumulativeGasUsed": "0x402419",
      "logs": [
        {
          "address": "0x2e8af9c5922623058aa92a183b391e62cb6b2d12",
          "topics": [
            "0xddf252ad1be2c89b69c2b068fc378daa952ba7f163c4a11628f55a4df523b3ef",
            "0x0000000000000000000000000000000000000000000000000000000000000000",
            "0x000000000000000000000000cda2fdb452ff4f5d7ba1c3d5dfcc9cb926a5eb7d",
            "0x0000000000000000000000000000000000000000000000000000000000000208"
          ],
          "data": "0x",
          "blockHash": "0x8633c086907aa5ae4f49e2297b61febd7172c1e0f4786edae07fd0e8080236f9",
          "blockNumber": "0x751292",
          "transactionHash": "0x3c6c959e1c0935558f8112a16d9b10a4cb7894b721bd353d90e2154d8bf6434b",
          "transactionIndex": "0x16",
          "logIndex": "0x33",
          "removed": false
        },
        {
          "address": "0x2e8af9c5922623058aa92a183b391e62cb6b2d12",
          "topics": [
            "0xf8e1a15aba9398e019f0b49df1a4fde98ee17ae345cb5f6b5e2c27f5033e8ce7"
          ],
          "data": "0x0000000000000000000000000000000000000000000000000000000000000208",
          "blockHash": "0x8633c086907aa5ae4f49e2297b61febd7172c1e0f4786edae07fd0e8080236f9",
          "blockNumber": "0x751292",
          "transactionHash": "0x3c6c959e1c0935558f8112a16d9b10a4cb7894b721bd353d90e2154d8bf6434b",
          "transactionIndex": "0x16",
          "logIndex": "0x34",
          "removed": false
        }
      ],
      "logsBloom": "0x00000000000000000000000000000000000000020000000000000000000000000000000000000000000000000000000000000000000000000000000000000000000000000000000000000008040000000000000000000000000000000000000000000000020000000000000000000800002000000000800000000010000000000000020008000000000000800000000000000000000000000000000000000000000000000000000000000000000000002000000000004000000000000000008000000002000000000000000000000000000000000000000000000000000020000000000000000000200000000000000000000000100000000000000000000000",
      "type": "0x2",
      "transactionHash": "0x3c6c959e1c0935558f8112a16d9b10a4cb7894b721bd353d90e2154d8bf6434b",
      "transactionIndex": "0x16",
      "blockHash": "0x8633c086907aa5ae4f49e2297b61febd7172c1e0f4786edae07fd0e8080236f9",
      "blockNumber": "0x751292",
      "gasUsed": "0x2ccb8",
      "effectiveGasPrice": "0xfd",
      "from": "0xcda2fdb452ff4f5d7ba1c3d5dfcc9cb926a5eb7d",
      "to": "0x79dfbed14077b8f2421eece5707a17b161094e6a",
      "contractAddress": null,
      "l1BaseFeeScalar": "0x186a0",
      "l1BlobBaseFee": "0x1",
      "l1BlobBaseFeeScalar": "0x95506",
      "l1Fee": "0x16e63ff323d",
      "l1GasPrice": "0x24a399850",
      "l1GasUsed": "0x640"
    },
    {
      "status": "0x1",
      "cumulativeGasUsed": "0x42f0d1",
      "logs": [
        {
          "address": "0x2e8af9c5922623058aa92a183b391e62cb6b2d12",
          "topics": [
            "0xddf252ad1be2c89b69c2b068fc378daa952ba7f163c4a11628f55a4df523b3ef",
            "0x0000000000000000000000000000000000000000000000000000000000000000",
            "0x000000000000000000000000cda2fdb452ff4f5d7ba1c3d5dfcc9cb926a5eb7d",
            "0x0000000000000000000000000000000000000000000000000000000000000209"
          ],
          "data": "0x",
          "blockHash": "0x8633c086907aa5ae4f49e2297b61febd7172c1e0f4786edae07fd0e8080236f9",
          "blockNumber": "0x751292",
          "transactionHash": "0x22931cca3f91bd62cb4ac44a06c01f648296c76bdf90d32e8f88d8cc7007b705",
          "transactionIndex": "0x17",
          "logIndex": "0x35",
          "removed": false
        },
        {
          "address": "0x2e8af9c5922623058aa92a183b391e62cb6b2d12",
          "topics": [
            "0xf8e1a15aba9398e019f0b49df1a4fde98ee17ae345cb5f6b5e2c27f5033e8ce7"
          ],
          "data": "0x0000000000000000000000000000000000000000000000000000000000000209",
          "blockHash": "0x8633c086907aa5ae4f49e2297b61febd7172c1e0f4786edae07fd0e8080236f9",
          "blockNumber": "0x751292",
          "transactionHash": "0x22931cca3f91bd62cb4ac44a06c01f648296c76bdf90d32e8f88d8cc7007b705",
          "transactionIndex": "0x17",
          "logIndex": "0x36",
          "removed": false
        }
      ],
      "logsBloom": "0x00000000000000000000000000000000000000020000000000000000000000000000000000000000000000000000000000002000000000000000000000000000000000000000000000000008040000000000000000000000000000000000000000000000020000000000000000000800002000000000800000000010000000000000000000000000000000000000000000000000000001000000000000000000000000000000000000000000000000002000000000004000000000000000008000000102000000000000000000000000000000000000000000000000000020000000000000000000200000000000000000000000100000000000000000000000",
      "type": "0x2",
      "transactionHash": "0x22931cca3f91bd62cb4ac44a06c01f648296c76bdf90d32e8f88d8cc7007b705",
      "transactionIndex": "0x17",
      "blockHash": "0x8633c086907aa5ae4f49e2297b61febd7172c1e0f4786edae07fd0e8080236f9",
      "blockNumber": "0x751292",
      "gasUsed": "0x2ccb8",
      "effectiveGasPrice": "0xfd",
      "from": "0xcda2fdb452ff4f5d7ba1c3d5dfcc9cb926a5eb7d",
      "to": "0x79dfbed14077b8f2421eece5707a17b161094e6a",
      "contractAddress": null,
      "l1BaseFeeScalar": "0x186a0",
      "l1BlobBaseFee": "0x1",
      "l1BlobBaseFeeScalar": "0x95506",
      "l1Fee": "0x16e63ff323d",
      "l1GasPrice": "0x24a399850",
      "l1GasUsed": "0x640"
    },
    {
      "status": "0x1",
      "cumulativeGasUsed": "0x45bd89",
      "logs": [
        {
          "address": "0x2e8af9c5922623058aa92a183b391e62cb6b2d12",
          "topics": [
            "0xddf252ad1be2c89b69c2b068fc378daa952ba7f163c4a11628f55a4df523b3ef",
            "0x0000000000000000000000000000000000000000000000000000000000000000",
            "0x000000000000000000000000cda2fdb452ff4f5d7ba1c3d5dfcc9cb926a5eb7d",
            "0x000000000000000000000000000000000000000000000000000000000000020a"
          ],
          "data": "0x",
          "blockHash": "0x8633c086907aa5ae4f49e2297b61febd7172c1e0f4786edae07fd0e8080236f9",
          "blockNumber": "0x751292",
          "transactionHash": "0xda1e9a76f6e41ffe3219c4d40929941c78166aac449fbcecbe13ade65decb637",
          "transactionIndex": "0x18",
          "logIndex": "0x37",
          "removed": false
        },
        {
          "address": "0x2e8af9c5922623058aa92a183b391e62cb6b2d12",
          "topics": [
            "0xf8e1a15aba9398e019f0b49df1a4fde98ee17ae345cb5f6b5e2c27f5033e8ce7"
          ],
          "data": "0x000000000000000000000000000000000000000000000000000000000000020a",
          "blockHash": "0x8633c086907aa5ae4f49e2297b61febd7172c1e0f4786edae07fd0e8080236f9",
          "blockNumber": "0x751292",
          "transactionHash": "0xda1e9a76f6e41ffe3219c4d40929941c78166aac449fbcecbe13ade65decb637",
          "transactionIndex": "0x18",
          "logIndex": "0x38",
          "removed": false
        }
      ],
      "logsBloom": "0x00000000000000000000000000000000000000020000000000000000000000000000000000000000000000000000000000000000000000000000000000000000000000000000000000000008040000002000000000000000000000000000000000000000020000000000000000000800002000000000800000000010000000000000000000000000000000000000000000000000000000000000000000000000008000000000000000000000000000002000000000004000000000000000008000000002000000000000000000000000000000000000000000000000000020000000000000000002200000000000000000000000100000000000000000000000",
      "type": "0x2",
      "transactionHash": "0xda1e9a76f6e41ffe3219c4d40929941c78166aac449fbcecbe13ade65decb637",
      "transactionIndex": "0x18",
      "blockHash": "0x8633c086907aa5ae4f49e2297b61febd7172c1e0f4786edae07fd0e8080236f9",
      "blockNumber": "0x751292",
      "gasUsed": "0x2ccb8",
      "effectiveGasPrice": "0xfd",
      "from": "0xcda2fdb452ff4f5d7ba1c3d5dfcc9cb926a5eb7d",
      "to": "0x79dfbed14077b8f2421eece5707a17b161094e6a",
      "contractAddress": null,
      "l1BaseFeeScalar": "0x186a0",
      "l1BlobBaseFee": "0x1",
      "l1BlobBaseFeeScalar": "0x95506",
      "l1Fee": "0x16e63ff323d",
      "l1GasPrice": "0x24a399850",
      "l1GasUsed": "0x640"
    },
    {
      "status": "0x1",
      "cumulativeGasUsed": "0x488a41",
      "logs": [
        {
          "address": "0x2e8af9c5922623058aa92a183b391e62cb6b2d12",
          "topics": [
            "0xddf252ad1be2c89b69c2b068fc378daa952ba7f163c4a11628f55a4df523b3ef",
            "0x0000000000000000000000000000000000000000000000000000000000000000",
            "0x000000000000000000000000cda2fdb452ff4f5d7ba1c3d5dfcc9cb926a5eb7d",
            "0x000000000000000000000000000000000000000000000000000000000000020b"
          ],
          "data": "0x",
          "blockHash": "0x8633c086907aa5ae4f49e2297b61febd7172c1e0f4786edae07fd0e8080236f9",
          "blockNumber": "0x751292",
          "transactionHash": "0x2b40ce416ccb57639eddc4e0973f09f0c7350b54994b1fc4bbf29a0ce5c8a33d",
          "transactionIndex": "0x19",
          "logIndex": "0x39",
          "removed": false
        },
        {
          "address": "0x2e8af9c5922623058aa92a183b391e62cb6b2d12",
          "topics": [
            "0xf8e1a15aba9398e019f0b49df1a4fde98ee17ae345cb5f6b5e2c27f5033e8ce7"
          ],
          "data": "0x000000000000000000000000000000000000000000000000000000000000020b",
          "blockHash": "0x8633c086907aa5ae4f49e2297b61febd7172c1e0f4786edae07fd0e8080236f9",
          "blockNumber": "0x751292",
          "transactionHash": "0x2b40ce416ccb57639eddc4e0973f09f0c7350b54994b1fc4bbf29a0ce5c8a33d",
          "transactionIndex": "0x19",
          "logIndex": "0x3a",
          "removed": false
        }
      ],
      "logsBloom": "0x00000000000000000000000000000000000000020000000000000000000000000000000000000000000000000000000000000000000000000000000000000000000000000000000000000008040000000000000000000000000000000000000000000000020000000000000000000800002000000000800000000010000000000000000000000000000000000000000000040000000000000000001100000000000000000000000000000000000000002000000000004000000000000000008000000002000000000000000000000000000000000000000000000000000020000000000000000000200000000000000000000000100000000000000000000000",
      "type": "0x2",
      "transactionHash": "0x2b40ce416ccb57639eddc4e0973f09f0c7350b54994b1fc4bbf29a0ce5c8a33d",
      "transactionIndex": "0x19",
      "blockHash": "0x8633c086907aa5ae4f49e2297b61febd7172c1e0f4786edae07fd0e8080236f9",
      "blockNumber": "0x751292",
      "gasUsed": "0x2ccb8",
      "effectiveGasPrice": "0xfd",
      "from": "0xcda2fdb452ff4f5d7ba1c3d5dfcc9cb926a5eb7d",
      "to": "0x79dfbed14077b8f2421eece5707a17b161094e6a",
      "contractAddress": null,
      "l1BaseFeeScalar": "0x186a0",
      "l1BlobBaseFee": "0x1",
      "l1BlobBaseFeeScalar": "0x95506",
      "l1Fee": "0x16e63ff323d",
      "l1GasPrice": "0x24a399850",
      "l1GasUsed": "0x640"
    },
    {
      "status": "0x1",
      "cumulativeGasUsed": "0x4b56f9",
      "logs": [
        {
          "address": "0x2e8af9c5922623058aa92a183b391e62cb6b2d12",
          "topics": [
            "0xddf252ad1be2c89b69c2b068fc378daa952ba7f163c4a11628f55a4df523b3ef",
            "0x0000000000000000000000000000000000000000000000000000000000000000",
            "0x000000000000000000000000cda2fdb452ff4f5d7ba1c3d5dfcc9cb926a5eb7d",
            "0x000000000000000000000000000000000000000000000000000000000000020c"
          ],
          "data": "0x",
          "blockHash": "0x8633c086907aa5ae4f49e2297b61febd7172c1e0f4786edae07fd0e8080236f9",
          "blockNumber": "0x751292",
          "transactionHash": "0xee3d9ce7105d41f1597839ba21a707650090accc536bd6657c7ab4020f0ee24c",
          "transactionIndex": "0x1a",
          "logIndex": "0x3b",
          "removed": false
        },
        {
          "address": "0x2e8af9c5922623058aa92a183b391e62cb6b2d12",
          "topics": [
            "0xf8e1a15aba9398e019f0b49df1a4fde98ee17ae345cb5f6b5e2c27f5033e8ce7"
          ],
          "data": "0x000000000000000000000000000000000000000000000000000000000000020c",
          "blockHash": "0x8633c086907aa5ae4f49e2297b61febd7172c1e0f4786edae07fd0e8080236f9",
          "blockNumber": "0x751292",
          "transactionHash": "0xee3d9ce7105d41f1597839ba21a707650090accc536bd6657c7ab4020f0ee24c",
          "transactionIndex": "0x1a",
          "logIndex": "0x3c",
          "removed": false
        }
      ],
      "logsBloom": "0x00000000000000000000000000000000000000020000200000000000000000000000000000000000000000000020000000000000000000000000000000000000000000000000000000000008040000000000000000000000000000000000000000000000020000000000000000000800002000000000800000000010000000000000000000000000000000000000000000000000000000000002000000000000000000000000000000000000000000002000000000004000000000000000008000000002000000000000000000000000000000000000000000000000000020000000000000000000200000000000000000000000100000000000000000000000",
      "type": "0x2",
      "transactionHash": "0xee3d9ce7105d41f1597839ba21a707650090accc536bd6657c7ab4020f0ee24c",
      "transactionIndex": "0x1a",
      "blockHash": "0x8633c086907aa5ae4f49e2297b61febd7172c1e0f4786edae07fd0e8080236f9",
      "blockNumber": "0x751292",
      "gasUsed": "0x2ccb8",
      "effectiveGasPrice": "0xfd",
      "from": "0xcda2fdb452ff4f5d7ba1c3d5dfcc9cb926a5eb7d",
      "to": "0x79dfbed14077b8f2421eece5707a17b161094e6a",
      "contractAddress": null,
      "l1BaseFeeScalar": "0x186a0",
      "l1BlobBaseFee": "0x1",
      "l1BlobBaseFeeScalar": "0x95506",
      "l1Fee": "0x16e63ff323d",
      "l1GasPrice": "0x24a399850",
      "l1GasUsed": "0x640"
    },
    {
      "status": "0x1",
      "cumulativeGasUsed": "0x4e23b1",
      "logs": [
        {
          "address": "0x2e8af9c5922623058aa92a183b391e62cb6b2d12",
          "topics": [
            "0xddf252ad1be2c89b69c2b068fc378daa952ba7f163c4a11628f55a4df523b3ef",
            "0x0000000000000000000000000000000000000000000000000000000000000000",
            "0x000000000000000000000000cda2fdb452ff4f5d7ba1c3d5dfcc9cb926a5eb7d",
            "0x000000000000000000000000000000000000000000000000000000000000020d"
          ],
          "data": "0x",
          "blockHash": "0x8633c086907aa5ae4f49e2297b61febd7172c1e0f4786edae07fd0e8080236f9",
          "blockNumber": "0x751292",
          "transactionHash": "0x6648e0684caff1e1a7ef62d2dfb36d642443d218d7d2549857b3c394b5a4456f",
          "transactionIndex": "0x1b",
          "logIndex": "0x3d",
          "removed": false
        },
        {
          "address": "0x2e8af9c5922623058aa92a183b391e62cb6b2d12",
          "topics": [
            "0xf8e1a15aba9398e019f0b49df1a4fde98ee17ae345cb5f6b5e2c27f5033e8ce7"
          ],
          "data": "0x000000000000000000000000000000000000000000000000000000000000020d",
          "blockHash": "0x8633c086907aa5ae4f49e2297b61febd7172c1e0f4786edae07fd0e8080236f9",
          "blockNumber": "0x751292",
          "transactionHash": "0x6648e0684caff1e1a7ef62d2dfb36d642443d218d7d2549857b3c394b5a4456f",
          "transactionIndex": "0x1b",
          "logIndex": "0x3e",
          "removed": false
        }
      ],
      "logsBloom": "0x00000000000000000000000000000008000000020000000000000000000000000000000000000000000000000000000000000000000000000000000000000000000000000000000000000008040000000000000000000000000000000000000000000000020000000000000000000800002000000000800000000010080000000000000000000000000000000000000000000000000040000000000000000000000000000000000000000000000000002000000000004000000000000000008000000002000000000000000000000000000000000000000000000000000020000000000000000000200000000000000000000000100000000000000000000000",
      "type": "0x2",
      "transactionHash": "0x6648e0684caff1e1a7ef62d2dfb36d642443d218d7d2549857b3c394b5a4456f",
      "transactionIndex": "0x1b",
      "blockHash": "0x8633c086907aa5ae4f49e2297b61febd7172c1e0f4786edae07fd0e8080236f9",
      "blockNumber": "0x751292",
      "gasUsed": "0x2ccb8",
      "effectiveGasPrice": "0xfd",
      "from": "0xcda2fdb452ff4f5d7ba1c3d5dfcc9cb926a5eb7d",
      "to": "0x79dfbed14077b8f2421eece5707a17b161094e6a",
      "contractAddress": null,
      "l1BaseFeeScalar": "0x186a0",
      "l1BlobBaseFee": "0x1",
      "l1BlobBaseFeeScalar": "0x95506",
      "l1Fee": "0x16e63ff323d",
      "l1GasPrice": "0x24a399850",
      "l1GasUsed": "0x640"
    },
    {
      "status": "0x1",
      "cumulativeGasUsed": "0x50f069",
      "logs": [
        {
          "address": "0x2e8af9c5922623058aa92a183b391e62cb6b2d12",
          "topics": [
            "0xddf252ad1be2c89b69c2b068fc378daa952ba7f163c4a11628f55a4df523b3ef",
            "0x0000000000000000000000000000000000000000000000000000000000000000",
            "0x000000000000000000000000cda2fdb452ff4f5d7ba1c3d5dfcc9cb926a5eb7d",
            "0x000000000000000000000000000000000000000000000000000000000000020e"
          ],
          "data": "0x",
          "blockHash": "0x8633c086907aa5ae4f49e2297b61febd7172c1e0f4786edae07fd0e8080236f9",
          "blockNumber": "0x751292",
          "transactionHash": "0x731dbae5c41ee36f9587b8a5f50abb8aed25b36a4294e01491ae6b7f6e19633c",
          "transactionIndex": "0x1c",
          "logIndex": "0x3f",
          "removed": false
        },
        {
          "address": "0x2e8af9c5922623058aa92a183b391e62cb6b2d12",
          "topics": [
            "0xf8e1a15aba9398e019f0b49df1a4fde98ee17ae345cb5f6b5e2c27f5033e8ce7"
          ],
          "data": "0x000000000000000000000000000000000000000000000000000000000000020e",
          "blockHash": "0x8633c086907aa5ae4f49e2297b61febd7172c1e0f4786edae07fd0e8080236f9",
          "blockNumber": "0x751292",
          "transactionHash": "0x731dbae5c41ee36f9587b8a5f50abb8aed25b36a4294e01491ae6b7f6e19633c",
          "transactionIndex": "0x1c",
          "logIndex": "0x40",
          "removed": false
        }
      ],
      "logsBloom": "0x00000000000000000000000000000000000000020000000000000000000000000000000000000000000000000000000000000000000000000000000000000000000000100000000000000008040000000000000000000000000000000000000000000000020000000000000000000800002000000000800000000010000000000000000000000000000000000000000000000000000000002000000000000000000000000000000000000000000000002000000000004000000000000000008000000002000000000000000000000000000000000000000000000000000020000004000000000000200000000000000000000000100000000000000000000000",
      "type": "0x2",
      "transactionHash": "0x731dbae5c41ee36f9587b8a5f50abb8aed25b36a4294e01491ae6b7f6e19633c",
      "transactionIndex": "0x1c",
      "blockHash": "0x8633c086907aa5ae4f49e2297b61febd7172c1e0f4786edae07fd0e8080236f9",
      "blockNumber": "0x751292",
      "gasUsed": "0x2ccb8",
      "effectiveGasPrice": "0xfd",
      "from": "0xcda2fdb452ff4f5d7ba1c3d5dfcc9cb926a5eb7d",
      "to": "0x79dfbed14077b8f2421eece5707a17b161094e6a",
      "contractAddress": null,
      "l1BaseFeeScalar": "0x186a0",
      "l1BlobBaseFee": "0x1",
      "l1BlobBaseFeeScalar": "0x95506",
      "l1Fee": "0x16e63ff323d",
      "l1GasPrice": "0x24a399850",
      "l1GasUsed": "0x640"
    },
    {
      "status": "0x1",
      "cumulativeGasUsed": "0x53bd21",
      "logs": [
        {
          "address": "0x2e8af9c5922623058aa92a183b391e62cb6b2d12",
          "topics": [
            "0xddf252ad1be2c89b69c2b068fc378daa952ba7f163c4a11628f55a4df523b3ef",
            "0x0000000000000000000000000000000000000000000000000000000000000000",
            "0x000000000000000000000000cda2fdb452ff4f5d7ba1c3d5dfcc9cb926a5eb7d",
            "0x000000000000000000000000000000000000000000000000000000000000020f"
          ],
          "data": "0x",
          "blockHash": "0x8633c086907aa5ae4f49e2297b61febd7172c1e0f4786edae07fd0e8080236f9",
          "blockNumber": "0x751292",
          "transactionHash": "0x6c67ef4aa4eb00f342783e68dfd82a35fc099a0cf15792a755ddc1a033da3332",
          "transactionIndex": "0x1d",
          "logIndex": "0x41",
          "removed": false
        },
        {
          "address": "0x2e8af9c5922623058aa92a183b391e62cb6b2d12",
          "topics": [
            "0xf8e1a15aba9398e019f0b49df1a4fde98ee17ae345cb5f6b5e2c27f5033e8ce7"
          ],
          "data": "0x000000000000000000000000000000000000000000000000000000000000020f",
          "blockHash": "0x8633c086907aa5ae4f49e2297b61febd7172c1e0f4786edae07fd0e8080236f9",
          "blockNumber": "0x751292",
          "transactionHash": "0x6c67ef4aa4eb00f342783e68dfd82a35fc099a0cf15792a755ddc1a033da3332",
          "transactionIndex": "0x1d",
          "logIndex": "0x42",
          "removed": false
        }
      ],
      "logsBloom": "0x00000000000000000000000000000000000000020000000000000000000000000000000000000000000000000000000000000000000000000000000000000000000000000000000000000008040000000000000000000000000000000000000100000000020000000000000000000800002000000000800000000010000000000000000000000000000000000000000000000000000000000000000000000020000000000000000000000000000000002000000000004000000000000000008000000002000000000000000000000000000000000000000000000000000020000000000000000000200000000008000000000000100000000000000000000000",
      "type": "0x2",
      "transactionHash": "0x6c67ef4aa4eb00f342783e68dfd82a35fc099a0cf15792a755ddc1a033da3332",
      "transactionIndex": "0x1d",
      "blockHash": "0x8633c086907aa5ae4f49e2297b61febd7172c1e0f4786edae07fd0e8080236f9",
      "blockNumber": "0x751292",
      "gasUsed": "0x2ccb8",
      "effectiveGasPrice": "0xfd",
      "from": "0xcda2fdb452ff4f5d7ba1c3d5dfcc9cb926a5eb7d",
      "to": "0x79dfbed14077b8f2421eece5707a17b161094e6a",
      "contractAddress": null,
      "l1BaseFeeScalar": "0x186a0",
      "l1BlobBaseFee": "0x1",
      "l1BlobBaseFeeScalar": "0x95506",
      "l1Fee": "0x16e63ff323d",
      "l1GasPrice": "0x24a399850",
      "l1GasUsed": "0x640"
    },
    {
      "status": "0x1",
      "cumulativeGasUsed": "0x5689d9",
      "logs": [
        {
          "address": "0x2e8af9c5922623058aa92a183b391e62cb6b2d12",
          "topics": [
            "0xddf252ad1be2c89b69c2b068fc378daa952ba7f163c4a11628f55a4df523b3ef",
            "0x0000000000000000000000000000000000000000000000000000000000000000",
            "0x000000000000000000000000cda2fdb452ff4f5d7ba1c3d5dfcc9cb926a5eb7d",
            "0x0000000000000000000000000000000000000000000000000000000000000210"
          ],
          "data": "0x",
          "blockHash": "0x8633c086907aa5ae4f49e2297b61febd7172c1e0f4786edae07fd0e8080236f9",
          "blockNumber": "0x751292",
          "transactionHash": "0x8dc74bf099604816ea9454f4a1d87244d4f3956af8e2366945451e5fc93412f1",
          "transactionIndex": "0x1e",
          "logIndex": "0x43",
          "removed": false
        },
        {
          "address": "0x2e8af9c5922623058aa92a183b391e62cb6b2d12",
          "topics": [
            "0xf8e1a15aba9398e019f0b49df1a4fde98ee17ae345cb5f6b5e2c27f5033e8ce7"
          ],
          "data": "0x0000000000000000000000000000000000000000000000000000000000000210",
          "blockHash": "0x8633c086907aa5ae4f49e2297b61febd7172c1e0f4786edae07fd0e8080236f9",
          "blockNumber": "0x751292",
          "transactionHash": "0x8dc74bf099604816ea9454f4a1d87244d4f3956af8e2366945451e5fc93412f1",
          "transactionIndex": "0x1e",
          "logIndex": "0x44",
          "removed": false
        }
      ],
      "logsBloom": "0x00000000000000200000000000000000000000020000000000000000000000000000000000000000000000000000000000000000000000000000000000000000000000000000000000000008040000000000000000000000000000000000000000000000020000000000000000000800002000000100800000000010000000000000000000000000000000000000000000000000000000000000000000000000000000000000000000000000000000002000000000004000000000000000008000000002000000000000000000000000000000000000200000000000000020000000000000000000200000000000000000000000100000000000000000000000",
      "type": "0x2",
      "transactionHash": "0x8dc74bf099604816ea9454f4a1d87244d4f3956af8e2366945451e5fc93412f1",
      "transactionIndex": "0x1e",
      "blockHash": "0x8633c086907aa5ae4f49e2297b61febd7172c1e0f4786edae07fd0e8080236f9",
      "blockNumber": "0x751292",
      "gasUsed": "0x2ccb8",
      "effectiveGasPrice": "0xfd",
      "from": "0xcda2fdb452ff4f5d7ba1c3d5dfcc9cb926a5eb7d",
      "to": "0x79dfbed14077b8f2421eece5707a17b161094e6a",
      "contractAddress": null,
      "l1BaseFeeScalar": "0x186a0",
      "l1BlobBaseFee": "0x1",
      "l1BlobBaseFeeScalar": "0x95506",
      "l1Fee": "0x16e63ff323d",
      "l1GasPrice": "0x24a399850",
      "l1GasUsed": "0x640"
    },
    {
      "status": "0x1",
      "cumulativeGasUsed": "0x7dbc3",
      "logs": [
        {
          "address": "0x2e8af9c5922623058aa92a183b391e62cb6b2d12",
          "topics": [
            "0xddf252ad1be2c89b69c2b068fc378daa952ba7f163c4a11628f55a4df523b3ef",
            "0x0000000000000000000000000000000000000000000000000000000000000000",
            "0x000000000000000000000000cda2fdb452ff4f5d7ba1c3d5dfcc9cb926a5eb7d",
            "0x0000000000000000000000000000000000000000000000000000000000000211"
          ],
          "data": "0x",
          "blockHash": "0x09278ab893fba9360117343150b89ad32ea2fef4d7f4b215f321649a9763105a",
          "blockNumber": "0x751293",
          "transactionHash": "0x5a0b557c93e42452476371bec1e5f63bfe30827e7c37868a397bb84dc814c620",
          "transactionIndex": "0x3",
          "logIndex": "0x6",
          "removed": false
        },
        {
          "address": "0x2e8af9c5922623058aa92a183b391e62cb6b2d12",
          "topics": [
            "0xf8e1a15aba9398e019f0b49df1a4fde98ee17ae345cb5f6b5e2c27f5033e8ce7"
          ],
          "data": "0x0000000000000000000000000000000000000000000000000000000000000211",
          "blockHash": "0x09278ab893fba9360117343150b89ad32ea2fef4d7f4b215f321649a9763105a",
          "blockNumber": "0x751293",
          "transactionHash": "0x5a0b557c93e42452476371bec1e5f63bfe30827e7c37868a397bb84dc814c620",
          "transactionIndex": "0x3",
          "logIndex": "0x7",
          "removed": false
        }
      ],
      "logsBloom": "0x00000000000000000000000000000000000000020000000000000000000000000000000000000000000000000000000000000000000000000000000000000000000000000200000000000008040000000000000000000000000000000000000000000000020000000000000000000800002000000000800000000010000000000000000000000000000000000000800000000000000000000000000000000000000000020000000000000000000000002000000000004000000000000000008000000002000000000000000000000000000000000000000000000000000020000000000000000000200000000000000000000000100000000000000000000000",
      "type": "0x2",
      "transactionHash": "0x5a0b557c93e42452476371bec1e5f63bfe30827e7c37868a397bb84dc814c620",
      "transactionIndex": "0x3",
      "blockHash": "0x09278ab893fba9360117343150b89ad32ea2fef4d7f4b215f321649a9763105a",
      "blockNumber": "0x751293",
      "gasUsed": "0x2ccb8",
      "effectiveGasPrice": "0xfe",
      "from": "0xcda2fdb452ff4f5d7ba1c3d5dfcc9cb926a5eb7d",
      "to": "0x79dfbed14077b8f2421eece5707a17b161094e6a",
      "contractAddress": null,
      "l1BaseFeeScalar": "0x186a0",
      "l1BlobBaseFee": "0x1",
      "l1BlobBaseFeeScalar": "0x95506",
      "l1Fee": "0x16e63ff323d",
      "l1GasPrice": "0x24a399850",
      "l1GasUsed": "0x640"
    }
  ],
  "libraries": [],
  "pending": [],
  "returns": {},
  "timestamp": 1728206925,
  "chain": 60808,
  "commit": "7d9679b"
}