{
  "transactions": [
    {
      "hash": "0xe744b366d3405784fbbf0c44577307a4a78c0bb2eff66a5a91d91928a11b03db",
      "transactionType": "CALL",
      "contractName": null,
      "contractAddress": "0x79dfbed14077b8f2421eece5707a17b161094e6a",
      "function": "wlMint(address)",
      "arguments": [
        "0x0000000000000000000000000000000000000000"
      ],
      "transaction": {
        "from": "0xcda2fdb452ff4f5d7ba1c3d5dfcc9cb926a5eb7d",
        "to": "0x79dfbed14077b8f2421eece5707a17b161094e6a",
        "gas": "0x3ddf7",
        "value": "0x0",
        "input": "0xc517b4a50000000000000000000000000000000000000000000000000000000000000000",
        "nonce": "0x1e76",
        "chainId": "0xed88"
      },
      "additionalContracts": [],
      "isFixedGasLimit": false
    },
    {
      "hash": "0x015998fc0928e5036bc569f81e99acf2dde897d64fdd7204a589debd66a9bd0d",
      "transactionType": "CALL",
      "contractName": null,
      "contractAddress": "0x79dfbed14077b8f2421eece5707a17b161094e6a",
      "function": "wlMint(address)",
      "arguments": [
        "0x0000000000000000000000000000000000000000"
      ],
      "transaction": {
        "from": "0xcda2fdb452ff4f5d7ba1c3d5dfcc9cb926a5eb7d",
        "to": "0x79dfbed14077b8f2421eece5707a17b161094e6a",
        "gas": "0x3ddf7",
        "value": "0x0",
        "input": "0xc517b4a50000000000000000000000000000000000000000000000000000000000000000",
        "nonce": "0x1e77",
        "chainId": "0xed88"
      },
      "additionalContracts": [],
      "isFixedGasLimit": false
    },
    {
      "hash": "0x49a6de1b9460e0746b91169e592df187ec71f6d56a6697494f57f58fc684c1a1",
      "transactionType": "CALL",
      "contractName": null,
      "contractAddress": "0x79dfbed14077b8f2421eece5707a17b161094e6a",
      "function": "wlMint(address)",
      "arguments": [
        "0x0000000000000000000000000000000000000000"
      ],
      "transaction": {
        "from": "0xcda2fdb452ff4f5d7ba1c3d5dfcc9cb926a5eb7d",
        "to": "0x79dfbed14077b8f2421eece5707a17b161094e6a",
        "gas": "0x3ddf7",
        "value": "0x0",
        "input": "0xc517b4a50000000000000000000000000000000000000000000000000000000000000000",
        "nonce": "0x1e78",
        "chainId": "0xed88"
      },
      "additionalContracts": [],
      "isFixedGasLimit": false
    },
    {
      "hash": "0xb2a3a29a0f117bb6a1049337a735ad9a0be6f67a32f083b062d7fe111dfeae46",
      "transactionType": "CALL",
      "contractName": null,
      "contractAddress": "0x79dfbed14077b8f2421eece5707a17b161094e6a",
      "function": "wlMint(address)",
      "arguments": [
        "0x0000000000000000000000000000000000000000"
      ],
      "transaction": {
        "from": "0xcda2fdb452ff4f5d7ba1c3d5dfcc9cb926a5eb7d",
        "to": "0x79dfbed14077b8f2421eece5707a17b161094e6a",
        "gas": "0x3ddf7",
        "value": "0x0",
        "input": "0xc517b4a50000000000000000000000000000000000000000000000000000000000000000",
        "nonce": "0x1e79",
        "chainId": "0xed88"
      },
      "additionalContracts": [],
      "isFixedGasLimit": false
    },
    {
      "hash": "0xbf9157b6a581a31f9f8582e013b61144d40e2596e5675a0c1ce770b0a2c7a486",
      "transactionType": "CALL",
      "contractName": null,
      "contractAddress": "0x79dfbed14077b8f2421eece5707a17b161094e6a",
      "function": "wlMint(address)",
      "arguments": [
        "0x0000000000000000000000000000000000000000"
      ],
      "transaction": {
        "from": "0xcda2fdb452ff4f5d7ba1c3d5dfcc9cb926a5eb7d",
        "to": "0x79dfbed14077b8f2421eece5707a17b161094e6a",
        "gas": "0x3ddf7",
        "value": "0x0",
        "input": "0xc517b4a50000000000000000000000000000000000000000000000000000000000000000",
        "nonce": "0x1e7a",
        "chainId": "0xed88"
      },
      "additionalContracts": [],
      "isFixedGasLimit": false
    },
    {
      "hash": "0xce134b48c225e059795514cf4bc171fb69636069985039c7afabaa19ca3a77a2",
      "transactionType": "CALL",
      "contractName": null,
      "contractAddress": "0x79dfbed14077b8f2421eece5707a17b161094e6a",
      "function": "wlMint(address)",
      "arguments": [
        "0x0000000000000000000000000000000000000000"
      ],
      "transaction": {
        "from": "0xcda2fdb452ff4f5d7ba1c3d5dfcc9cb926a5eb7d",
        "to": "0x79dfbed14077b8f2421eece5707a17b161094e6a",
        "gas": "0x3ddf7",
        "value": "0x0",
        "input": "0xc517b4a50000000000000000000000000000000000000000000000000000000000000000",
        "nonce": "0x1e7b",
        "chainId": "0xed88"
      },
      "additionalContracts": [],
      "isFixedGasLimit": false
    },
    {
      "hash": "0xbce9642f037f8f081f88834f68849a8fef0d28222d12538c6560103bc569752a",
      "transactionType": "CALL",
      "contractName": null,
      "contractAddress": "0x79dfbed14077b8f2421eece5707a17b161094e6a",
      "function": "wlMint(address)",
      "arguments": [
        "0x0000000000000000000000000000000000000000"
      ],
      "transaction": {
        "from": "0xcda2fdb452ff4f5d7ba1c3d5dfcc9cb926a5eb7d",
        "to": "0x79dfbed14077b8f2421eece5707a17b161094e6a",
        "gas": "0x3ddf7",
        "value": "0x0",
        "input": "0xc517b4a50000000000000000000000000000000000000000000000000000000000000000",
        "nonce": "0x1e7c",
        "chainId": "0xed88"
      },
      "additionalContracts": [],
      "isFixedGasLimit": false
    },
    {
      "hash": "0x4271333c4293c16b60eb61de3174652efb5ec8572d04ef528377aa003c75335f",
      "transactionType": "CALL",
      "contractName": null,
      "contractAddress": "0x79dfbed14077b8f2421eece5707a17b161094e6a",
      "function": "wlMint(address)",
      "arguments": [
        "0x0000000000000000000000000000000000000000"
      ],
      "transaction": {
        "from": "0xcda2fdb452ff4f5d7ba1c3d5dfcc9cb926a5eb7d",
        "to": "0x79dfbed14077b8f2421eece5707a17b161094e6a",
        "gas": "0x3ddf7",
        "value": "0x0",
        "input": "0xc517b4a50000000000000000000000000000000000000000000000000000000000000000",
        "nonce": "0x1e7d",
        "chainId": "0xed88"
      },
      "additionalContracts": [],
      "isFixedGasLimit": false
    },
    {
      "hash": "0xccb8b1f95d7d7978b98114a947b5b32d7cc8fdecddfeda5638fee78ae0b28363",
      "transactionType": "CALL",
      "contractName": null,
      "contractAddress": "0x79dfbed14077b8f2421eece5707a17b161094e6a",
      "function": "wlMint(address)",
      "arguments": [
        "0x0000000000000000000000000000000000000000"
      ],
      "transaction": {
        "from": "0xcda2fdb452ff4f5d7ba1c3d5dfcc9cb926a5eb7d",
        "to": "0x79dfbed14077b8f2421eece5707a17b161094e6a",
        "gas": "0x3ddf7",
        "value": "0x0",
        "input": "0xc517b4a50000000000000000000000000000000000000000000000000000000000000000",
        "nonce": "0x1e7e",
        "chainId": "0xed88"
      },
      "additionalContracts": [],
      "isFixedGasLimit": false
    },
    {
      "hash": "0x08d25c49d28789c5cd9a542969348bc572651f15395988f52e7573714b43a402",
      "transactionType": "CALL",
      "contractName": null,
      "contractAddress": "0x79dfbed14077b8f2421eece5707a17b161094e6a",
      "function": "wlMint(address)",
      "arguments": [
        "0x0000000000000000000000000000000000000000"
      ],
      "transaction": {
        "from": "0xcda2fdb452ff4f5d7ba1c3d5dfcc9cb926a5eb7d",
        "to": "0x79dfbed14077b8f2421eece5707a17b161094e6a",
        "gas": "0x3ddf7",
        "value": "0x0",
        "input": "0xc517b4a50000000000000000000000000000000000000000000000000000000000000000",
        "nonce": "0x1e7f",
        "chainId": "0xed88"
      },
      "additionalContracts": [],
      "isFixedGasLimit": false
    },
    {
      "hash": "0xa626f3dd770c25f858a233cb42ed1dc32bff2392c16fa5efcd5e63bebb4a4a21",
      "transactionType": "CALL",
      "contractName": null,
      "contractAddress": "0x79dfbed14077b8f2421eece5707a17b161094e6a",
      "function": "wlMint(address)",
      "arguments": [
        "0x0000000000000000000000000000000000000000"
      ],
      "transaction": {
        "from": "0xcda2fdb452ff4f5d7ba1c3d5dfcc9cb926a5eb7d",
        "to": "0x79dfbed14077b8f2421eece5707a17b161094e6a",
        "gas": "0x3ddf7",
        "value": "0x0",
        "input": "0xc517b4a50000000000000000000000000000000000000000000000000000000000000000",
        "nonce": "0x1e80",
        "chainId": "0xed88"
      },
      "additionalContracts": [],
      "isFixedGasLimit": false
    },
    {
      "hash": "0xb531a912cc3d5b1baed331267199f2064ce231a6c39218ffcae1b76885da115d",
      "transactionType": "CALL",
      "contractName": null,
      "contractAddress": "0x79dfbed14077b8f2421eece5707a17b161094e6a",
      "function": "wlMint(address)",
      "arguments": [
        "0x0000000000000000000000000000000000000000"
      ],
      "transaction": {
        "from": "0xcda2fdb452ff4f5d7ba1c3d5dfcc9cb926a5eb7d",
        "to": "0x79dfbed14077b8f2421eece5707a17b161094e6a",
        "gas": "0x3ddf7",
        "value": "0x0",
        "input": "0xc517b4a50000000000000000000000000000000000000000000000000000000000000000",
        "nonce": "0x1e81",
        "chainId": "0xed88"
      },
      "additionalContracts": [],
      "isFixedGasLimit": false
    },
    {
      "hash": "0xc7eea80d4580a00520987d4e736f1874249a5e727ce44d63318ed375f8cf2c9c",
      "transactionType": "CALL",
      "contractName": null,
      "contractAddress": "0x79dfbed14077b8f2421eece5707a17b161094e6a",
      "function": "wlMint(address)",
      "arguments": [
        "0x0000000000000000000000000000000000000000"
      ],
      "transaction": {
        "from": "0xcda2fdb452ff4f5d7ba1c3d5dfcc9cb926a5eb7d",
        "to": "0x79dfbed14077b8f2421eece5707a17b161094e6a",
        "gas": "0x3ddf7",
        "value": "0x0",
        "input": "0xc517b4a50000000000000000000000000000000000000000000000000000000000000000",
        "nonce": "0x1e82",
        "chainId": "0xed88"
      },
      "additionalContracts": [],
      "isFixedGasLimit": false
    },
    {
      "hash": "0xc0d9dfd5a8846c04a56524df855971d1659fba3dfbcf12d91c1a624d94cc4ffc",
      "transactionType": "CALL",
      "contractName": null,
      "contractAddress": "0x79dfbed14077b8f2421eece5707a17b161094e6a",
      "function": "wlMint(address)",
      "arguments": [
        "0x0000000000000000000000000000000000000000"
      ],
      "transaction": {
        "from": "0xcda2fdb452ff4f5d7ba1c3d5dfcc9cb926a5eb7d",
        "to": "0x79dfbed14077b8f2421eece5707a17b161094e6a",
        "gas": "0x3ddf7",
        "value": "0x0",
        "input": "0xc517b4a50000000000000000000000000000000000000000000000000000000000000000",
        "nonce": "0x1e83",
        "chainId": "0xed88"
      },
      "additionalContracts": [],
      "isFixedGasLimit": false
    },
    {
      "hash": "0xd588d33a6d3f1cdaf91ea6d38ab7883d2e3367ef72ce63aee0d678b4d8103a43",
      "transactionType": "CALL",
      "contractName": null,
      "contractAddress": "0x79dfbed14077b8f2421eece5707a17b161094e6a",
      "function": "wlMint(address)",
      "arguments": [
        "0x0000000000000000000000000000000000000000"
      ],
      "transaction": {
        "from": "0xcda2fdb452ff4f5d7ba1c3d5dfcc9cb926a5eb7d",
        "to": "0x79dfbed14077b8f2421eece5707a17b161094e6a",
        "gas": "0x3ddf7",
        "value": "0x0",
        "input": "0xc517b4a50000000000000000000000000000000000000000000000000000000000000000",
        "nonce": "0x1e84",
        "chainId": "0xed88"
      },
      "additionalContracts": [],
      "isFixedGasLimit": false
    },
    {
      "hash": "0xdb6d0c6d836d2b4c7110c140a088a461a1ba99ce8285ed0a215c1c727e860971",
      "transactionType": "CALL",
      "contractName": null,
      "contractAddress": "0x79dfbed14077b8f2421eece5707a17b161094e6a",
      "function": "wlMint(address)",
      "arguments": [
        "0x0000000000000000000000000000000000000000"
      ],
      "transaction": {
        "from": "0xcda2fdb452ff4f5d7ba1c3d5dfcc9cb926a5eb7d",
        "to": "0x79dfbed14077b8f2421eece5707a17b161094e6a",
        "gas": "0x3ddf7",
        "value": "0x0",
        "input": "0xc517b4a50000000000000000000000000000000000000000000000000000000000000000",
        "nonce": "0x1e85",
        "chainId": "0xed88"
      },
      "additionalContracts": [],
      "isFixedGasLimit": false
    },
    {
      "hash": "0x0a9cd924ce9c4c53447a7e60fd2ad691eb1f0ef05a59ccd385d16ea7a0948206",
      "transactionType": "CALL",
      "contractName": null,
      "contractAddress": "0x79dfbed14077b8f2421eece5707a17b161094e6a",
      "function": "wlMint(address)",
      "arguments": [
        "0x0000000000000000000000000000000000000000"
      ],
      "transaction": {
        "from": "0xcda2fdb452ff4f5d7ba1c3d5dfcc9cb926a5eb7d",
        "to": "0x79dfbed14077b8f2421eece5707a17b161094e6a",
        "gas": "0x3ddf7",
        "value": "0x0",
        "input": "0xc517b4a50000000000000000000000000000000000000000000000000000000000000000",
        "nonce": "0x1e86",
        "chainId": "0xed88"
      },
      "additionalContracts": [],
      "isFixedGasLimit": false
    },
    {
      "hash": "0x5518d14b8aa9de60f4d2610fcc0e346a3065632aea13c4924da7f6be3578a419",
      "transactionType": "CALL",
      "contractName": null,
      "contractAddress": "0x79dfbed14077b8f2421eece5707a17b161094e6a",
      "function": "wlMint(address)",
      "arguments": [
        "0x0000000000000000000000000000000000000000"
      ],
      "transaction": {
        "from": "0xcda2fdb452ff4f5d7ba1c3d5dfcc9cb926a5eb7d",
        "to": "0x79dfbed14077b8f2421eece5707a17b161094e6a",
        "gas": "0x3ddf7",
        "value": "0x0",
        "input": "0xc517b4a50000000000000000000000000000000000000000000000000000000000000000",
        "nonce": "0x1e87",
        "chainId": "0xed88"
      },
      "additionalContracts": [],
      "isFixedGasLimit": false
    },
    {
      "hash": "0x4624ec99a7adb20b37eda8883e7f06e54a1b26a015036d835f74a53527402d0a",
      "transactionType": "CALL",
      "contractName": null,
      "contractAddress": "0x79dfbed14077b8f2421eece5707a17b161094e6a",
      "function": "wlMint(address)",
      "arguments": [
        "0x0000000000000000000000000000000000000000"
      ],
      "transaction": {
        "from": "0xcda2fdb452ff4f5d7ba1c3d5dfcc9cb926a5eb7d",
        "to": "0x79dfbed14077b8f2421eece5707a17b161094e6a",
        "gas": "0x3ddf7",
        "value": "0x0",
        "input": "0xc517b4a50000000000000000000000000000000000000000000000000000000000000000",
        "nonce": "0x1e88",
        "chainId": "0xed88"
      },
      "additionalContracts": [],
      "isFixedGasLimit": false
    },
    {
      "hash": "0xeb25cebf3a4d77eb1e7dc1dc8d1b8199d5a0deda4850f37a42aaed8ecfba7cbe",
      "transactionType": "CALL",
      "contractName": null,
      "contractAddress": "0x79dfbed14077b8f2421eece5707a17b161094e6a",
      "function": "wlMint(address)",
      "arguments": [
        "0x0000000000000000000000000000000000000000"
      ],
      "transaction": {
        "from": "0xcda2fdb452ff4f5d7ba1c3d5dfcc9cb926a5eb7d",
        "to": "0x79dfbed14077b8f2421eece5707a17b161094e6a",
        "gas": "0x3ddf7",
        "value": "0x0",
        "input": "0xc517b4a50000000000000000000000000000000000000000000000000000000000000000",
        "nonce": "0x1e89",
        "chainId": "0xed88"
      },
      "additionalContracts": [],
      "isFixedGasLimit": false
    },
    {
      "hash": "0xecd2aceff06c3bb02348b68222197db69fe41fc630ca354ca127d91d1563cfa7",
      "transactionType": "CALL",
      "contractName": null,
      "contractAddress": "0x79dfbed14077b8f2421eece5707a17b161094e6a",
      "function": "wlMint(address)",
      "arguments": [
        "0x0000000000000000000000000000000000000000"
      ],
      "transaction": {
        "from": "0xcda2fdb452ff4f5d7ba1c3d5dfcc9cb926a5eb7d",
        "to": "0x79dfbed14077b8f2421eece5707a17b161094e6a",
        "gas": "0x3ddf7",
        "value": "0x0",
        "input": "0xc517b4a50000000000000000000000000000000000000000000000000000000000000000",
        "nonce": "0x1e8a",
        "chainId": "0xed88"
      },
      "additionalContracts": [],
      "isFixedGasLimit": false
    },
    {
      "hash": "0xe1b1f897510ac45577b513ced09bef65aaea57039bcc6f2e1b888654155fc38c",
      "transactionType": "CALL",
      "contractName": null,
      "contractAddress": "0x79dfbed14077b8f2421eece5707a17b161094e6a",
      "function": "wlMint(address)",
      "arguments": [
        "0x0000000000000000000000000000000000000000"
      ],
      "transaction": {
        "from": "0xcda2fdb452ff4f5d7ba1c3d5dfcc9cb926a5eb7d",
        "to": "0x79dfbed14077b8f2421eece5707a17b161094e6a",
        "gas": "0x3ddf7",
        "value": "0x0",
        "input": "0xc517b4a50000000000000000000000000000000000000000000000000000000000000000",
        "nonce": "0x1e8b",
        "chainId": "0xed88"
      },
      "additionalContracts": [],
      "isFixedGasLimit": false
    },
    {
      "hash": "0x576e4eedaad0bb92e1accad420341c0bd18fd0cceb652b08126fbc7e52bf9366",
      "transactionType": "CALL",
      "contractName": null,
      "contractAddress": "0x79dfbed14077b8f2421eece5707a17b161094e6a",
      "function": "wlMint(address)",
      "arguments": [
        "0x0000000000000000000000000000000000000000"
      ],
      "transaction": {
        "from": "0xcda2fdb452ff4f5d7ba1c3d5dfcc9cb926a5eb7d",
        "to": "0x79dfbed14077b8f2421eece5707a17b161094e6a",
        "gas": "0x3ddf7",
        "value": "0x0",
        "input": "0xc517b4a50000000000000000000000000000000000000000000000000000000000000000",
        "nonce": "0x1e8c",
        "chainId": "0xed88"
      },
      "additionalContracts": [],
      "isFixedGasLimit": false
    },
    {
      "hash": "0x32888a81de8c4ea31fec9c843dcf68ad040808a446cc05b9bc8d68c6e75093c6",
      "transactionType": "CALL",
      "contractName": null,
      "contractAddress": "0x79dfbed14077b8f2421eece5707a17b161094e6a",
      "function": "wlMint(address)",
      "arguments": [
        "0x0000000000000000000000000000000000000000"
      ],
      "transaction": {
        "from": "0xcda2fdb452ff4f5d7ba1c3d5dfcc9cb926a5eb7d",
        "to": "0x79dfbed14077b8f2421eece5707a17b161094e6a",
        "gas": "0x3ddf7",
        "value": "0x0",
        "input": "0xc517b4a50000000000000000000000000000000000000000000000000000000000000000",
        "nonce": "0x1e8d",
        "chainId": "0xed88"
      },
      "additionalContracts": [],
      "isFixedGasLimit": false
    },
    {
      "hash": "0x949099a2e252f64f8478e0b0dafa7a223fc1e6cb5e3c4d047b8d5def1cd035c8",
      "transactionType": "CALL",
      "contractName": null,
      "contractAddress": "0x79dfbed14077b8f2421eece5707a17b161094e6a",
      "function": "wlMint(address)",
      "arguments": [
        "0x0000000000000000000000000000000000000000"
      ],
      "transaction": {
        "from": "0xcda2fdb452ff4f5d7ba1c3d5dfcc9cb926a5eb7d",
        "to": "0x79dfbed14077b8f2421eece5707a17b161094e6a",
        "gas": "0x3ddf7",
        "value": "0x0",
        "input": "0xc517b4a50000000000000000000000000000000000000000000000000000000000000000",
        "nonce": "0x1e8e",
        "chainId": "0xed88"
      },
      "additionalContracts": [],
      "isFixedGasLimit": false
    },
    {
      "hash": "0xbf5bb20953ce83e22bdb67c326f31d7f271f9a799fab68d55f76288c2ff30e54",
      "transactionType": "CALL",
      "contractName": null,
      "contractAddress": "0x79dfbed14077b8f2421eece5707a17b161094e6a",
      "function": "wlMint(address)",
      "arguments": [
        "0x0000000000000000000000000000000000000000"
      ],
      "transaction": {
        "from": "0xcda2fdb452ff4f5d7ba1c3d5dfcc9cb926a5eb7d",
        "to": "0x79dfbed14077b8f2421eece5707a17b161094e6a",
        "gas": "0x3ddf7",
        "value": "0x0",
        "input": "0xc517b4a50000000000000000000000000000000000000000000000000000000000000000",
        "nonce": "0x1e8f",
        "chainId": "0xed88"
      },
      "additionalContracts": [],
      "isFixedGasLimit": false
    },
    {
      "hash": "0x4dd9e8d6fdb4761d48281b34f601f5367f971aa5dfe58d08fc0ba9f016fea0b4",
      "transactionType": "CALL",
      "contractName": null,
      "contractAddress": "0x79dfbed14077b8f2421eece5707a17b161094e6a",
      "function": "wlMint(address)",
      "arguments": [
        "0x0000000000000000000000000000000000000000"
      ],
      "transaction": {
        "from": "0xcda2fdb452ff4f5d7ba1c3d5dfcc9cb926a5eb7d",
        "to": "0x79dfbed14077b8f2421eece5707a17b161094e6a",
        "gas": "0x3ddf7",
        "value": "0x0",
        "input": "0xc517b4a50000000000000000000000000000000000000000000000000000000000000000",
        "nonce": "0x1e90",
        "chainId": "0xed88"
      },
      "additionalContracts": [],
      "isFixedGasLimit": false
    },
    {
      "hash": "0xc62a2effb68a0756986ef4a1b76f8527839a82740564f4c46100c87386d5088e",
      "transactionType": "CALL",
      "contractName": null,
      "contractAddress": "0x79dfbed14077b8f2421eece5707a17b161094e6a",
      "function": "wlMint(address)",
      "arguments": [
        "0x0000000000000000000000000000000000000000"
      ],
      "transaction": {
        "from": "0xcda2fdb452ff4f5d7ba1c3d5dfcc9cb926a5eb7d",
        "to": "0x79dfbed14077b8f2421eece5707a17b161094e6a",
        "gas": "0x3ddf7",
        "value": "0x0",
        "input": "0xc517b4a50000000000000000000000000000000000000000000000000000000000000000",
        "nonce": "0x1e91",
        "chainId": "0xed88"
      },
      "additionalContracts": [],
      "isFixedGasLimit": false
    },
    {
      "hash": "0xa2c7cb5f3e21fcb02392b21822a0c2c1209d084b44e4ce29d228fcdd4b6e702f",
      "transactionType": "CALL",
      "contractName": null,
      "contractAddress": "0x79dfbed14077b8f2421eece5707a17b161094e6a",
      "function": "wlMint(address)",
      "arguments": [
        "0x0000000000000000000000000000000000000000"
      ],
      "transaction": {
        "from": "0xcda2fdb452ff4f5d7ba1c3d5dfcc9cb926a5eb7d",
        "to": "0x79dfbed14077b8f2421eece5707a17b161094e6a",
        "gas": "0x3ddf7",
        "value": "0x0",
        "input": "0xc517b4a50000000000000000000000000000000000000000000000000000000000000000",
        "nonce": "0x1e92",
        "chainId": "0xed88"
      },
      "additionalContracts": [],
      "isFixedGasLimit": false
    },
    {
      "hash": "0x7b1d47ebee651b8443db1a752583e945f9bbaf955422d46407cf899b30630554",
      "transactionType": "CALL",
      "contractName": null,
      "contractAddress": "0x79dfbed14077b8f2421eece5707a17b161094e6a",
      "function": "wlMint(address)",
      "arguments": [
        "0x0000000000000000000000000000000000000000"
      ],
      "transaction": {
        "from": "0xcda2fdb452ff4f5d7ba1c3d5dfcc9cb926a5eb7d",
        "to": "0x79dfbed14077b8f2421eece5707a17b161094e6a",
        "gas": "0x3ddf7",
        "value": "0x0",
        "input": "0xc517b4a50000000000000000000000000000000000000000000000000000000000000000",
        "nonce": "0x1e93",
        "chainId": "0xed88"
      },
      "additionalContracts": [],
      "isFixedGasLimit": false
    }
  ],
  "receipts": [
    {
      "status": "0x1",
      "cumulativeGasUsed": "0x398d3",
      "logs": [
        {
          "address": "0x2e8af9c5922623058aa92a183b391e62cb6b2d12",
          "topics": [
            "0xddf252ad1be2c89b69c2b068fc378daa952ba7f163c4a11628f55a4df523b3ef",
            "0x0000000000000000000000000000000000000000000000000000000000000000",
            "0x000000000000000000000000cda2fdb452ff4f5d7ba1c3d5dfcc9cb926a5eb7d",
            "0x000000000000000000000000000000000000000000000000000000000000026c"
          ],
          "data": "0x",
          "blockHash": "0x1d5f9fa8eb0cf81b4457e3a1681daadff8b791e08f58b60de547b84531981083",
          "blockNumber": "0x751303",
          "transactionHash": "0xe744b366d3405784fbbf0c44577307a4a78c0bb2eff66a5a91d91928a11b03db",
          "transactionIndex": "0x1",
          "logIndex": "0x0",
          "removed": false
        },
        {
          "address": "0x2e8af9c5922623058aa92a183b391e62cb6b2d12",
          "topics": [
            "0xf8e1a15aba9398e019f0b49df1a4fde98ee17ae345cb5f6b5e2c27f5033e8ce7"
          ],
          "data": "0x000000000000000000000000000000000000000000000000000000000000026c",
          "blockHash": "0x1d5f9fa8eb0cf81b4457e3a1681daadff8b791e08f58b60de547b84531981083",
          "blockNumber": "0x751303",
          "transactionHash": "0xe744b366d3405784fbbf0c44577307a4a78c0bb2eff66a5a91d91928a11b03db",
          "transactionIndex": "0x1",
          "logIndex": "0x1",
          "removed": false
        }
      ],
      "logsBloom": "0x00000000000000000000000000000000000000820000000000000000000000000000000000000000000000000000000000000000000000000000000000000000000000000000000000000008040000000000000000000000000000000000000000000000020000000000000000000800002000000000800000000010000000000000000000000000000000000000000000000000000000000000000000000000000000000000000000000000000000002000000008004000000000000000008000000002000000000000000000000000000000000000000000000000000020000000000000020000200000000000000000000000100000000000000000000000",
      "type": "0x2",
      "transactionHash": "0xe744b366d3405784fbbf0c44577307a4a78c0bb2eff66a5a91d91928a11b03db",
      "transactionIndex": "0x1",
      "blockHash": "0x1d5f9fa8eb0cf81b4457e3a1681daadff8b791e08f58b60de547b84531981083",
      "blockNumber": "0x751303",
      "gasUsed": "0x2ccb8",
      "effectiveGasPrice": "0xfd",
      "from": "0xcda2fdb452ff4f5d7ba1c3d5dfcc9cb926a5eb7d",
      "to": "0x79dfbed14077b8f2421eece5707a17b161094e6a",
      "contractAddress": null,
      "l1BaseFeeScalar": "0x186a0",
      "l1BlobBaseFee": "0x1",
      "l1BlobBaseFeeScalar": "0x95506",
      "l1Fee": "0x19b44c5b01d",
      "l1GasPrice": "0x29207a2b3",
      "l1GasUsed": "0x640"
    },
    {
      "status": "0x1",
      "cumulativeGasUsed": "0x6658b",
      "logs": [
        {
          "address": "0x2e8af9c5922623058aa92a183b391e62cb6b2d12",
          "topics": [
            "0xddf252ad1be2c89b69c2b068fc378daa952ba7f163c4a11628f55a4df523b3ef",
            "0x0000000000000000000000000000000000000000000000000000000000000000",
            "0x000000000000000000000000cda2fdb452ff4f5d7ba1c3d5dfcc9cb926a5eb7d",
            "0x000000000000000000000000000000000000000000000000000000000000026d"
          ],
          "data": "0x",
          "blockHash": "0x1d5f9fa8eb0cf81b4457e3a1681daadff8b791e08f58b60de547b84531981083",
          "blockNumber": "0x751303",
          "transactionHash": "0x015998fc0928e5036bc569f81e99acf2dde897d64fdd7204a589debd66a9bd0d",
          "transactionIndex": "0x2",
          "logIndex": "0x2",
          "removed": false
        },
        {
          "address": "0x2e8af9c5922623058aa92a183b391e62cb6b2d12",
          "topics": [
            "0xf8e1a15aba9398e019f0b49df1a4fde98ee17ae345cb5f6b5e2c27f5033e8ce7"
          ],
          "data": "0x000000000000000000000000000000000000000000000000000000000000026d",
          "blockHash": "0x1d5f9fa8eb0cf81b4457e3a1681daadff8b791e08f58b60de547b84531981083",
          "blockNumber": "0x751303",
          "transactionHash": "0x015998fc0928e5036bc569f81e99acf2dde897d64fdd7204a589debd66a9bd0d",
          "transactionIndex": "0x2",
          "logIndex": "0x3",
          "removed": false
        }
      ],
      "logsBloom": "0x00000000000000000000000000000000000000020000000000000000000000000000000000000000000000000000000000000000000000000000000000000000000000000000000000000008040000000000000000000000000000000000000002000000020000000000000000000800002000000000800000000010000000000000000000400000000000000000000000000000000000000000000000000000000000000000100000000000000000002000000000004000000000000000008000000002000000000000000000000000000000000000000000000000000020000000000000000000200000000000000000000000100000000000000000000000",
      "type": "0x2",
      "transactionHash": "0x015998fc0928e5036bc569f81e99acf2dde897d64fdd7204a589debd66a9bd0d",
      "transactionIndex": "0x2",
      "blockHash": "0x1d5f9fa8eb0cf81b4457e3a1681daadff8b791e08f58b60de547b84531981083",
      "blockNumber": "0x751303",
      "gasUsed": "0x2ccb8",
      "effectiveGasPrice": "0xfd",
      "from": "0xcda2fdb452ff4f5d7ba1c3d5dfcc9cb926a5eb7d",
      "to": "0x79dfbed14077b8f2421eece5707a17b161094e6a",
      "contractAddress": null,
      "l1BaseFeeScalar": "0x186a0",
      "l1BlobBaseFee": "0x1",
      "l1BlobBaseFeeScalar": "0x95506",
      "l1Fee": "0x19b44c5b01d",
      "l1GasPrice": "0x29207a2b3",
      "l1GasUsed": "0x640"
    },
    {
      "status": "0x1",
      "cumulativeGasUsed": "0x93243",
      "logs": [
        {
          "address": "0x2e8af9c5922623058aa92a183b391e62cb6b2d12",
          "topics": [
            "0xddf252ad1be2c89b69c2b068fc378daa952ba7f163c4a11628f55a4df523b3ef",
            "0x0000000000000000000000000000000000000000000000000000000000000000",
            "0x000000000000000000000000cda2fdb452ff4f5d7ba1c3d5dfcc9cb926a5eb7d",
            "0x000000000000000000000000000000000000000000000000000000000000026e"
          ],
          "data": "0x",
          "blockHash": "0x1d5f9fa8eb0cf81b4457e3a1681daadff8b791e08f58b60de547b84531981083",
          "blockNumber": "0x751303",
          "transactionHash": "0x49a6de1b9460e0746b91169e592df187ec71f6d56a6697494f57f58fc684c1a1",
          "transactionIndex": "0x3",
          "logIndex": "0x4",
          "removed": false
        },
        {
          "address": "0x2e8af9c5922623058aa92a183b391e62cb6b2d12",
          "topics": [
            "0xf8e1a15aba9398e019f0b49df1a4fde98ee17ae345cb5f6b5e2c27f5033e8ce7"
          ],
          "data": "0x000000000000000000000000000000000000000000000000000000000000026e",
          "blockHash": "0x1d5f9fa8eb0cf81b4457e3a1681daadff8b791e08f58b60de547b84531981083",
          "blockNumber": "0x751303",
          "transactionHash": "0x49a6de1b9460e0746b91169e592df187ec71f6d56a6697494f57f58fc684c1a1",
          "transactionIndex": "0x3",
          "logIndex": "0x5",
          "removed": false
        }
      ],
      "logsBloom": "0x00000000000000000000000000000000000000020000000000000000000000000000000000000000000000000000000000000000000000000000000000000000000000000000000000000008040000000000800000000000000000000020000000000000020000020000000000000800002000000000800000000010000000000000000000000000000000000000000000000000000000000000000000000000000000000000000000000000000000002000000000004000000000000000008000000002000000000000000000000000000000000000000000000000000020000000000000000000200000000000000000000000100000000000000000000000",
      "type": "0x2",
      "transactionHash": "0x49a6de1b9460e0746b91169e592df187ec71f6d56a6697494f57f58fc684c1a1",
      "transactionIndex": "0x3",
      "blockHash": "0x1d5f9fa8eb0cf81b4457e3a1681daadff8b791e08f58b60de547b84531981083",
      "blockNumber": "0x751303",
      "gasUsed": "0x2ccb8",
      "effectiveGasPrice": "0xfd",
      "from": "0xcda2fdb452ff4f5d7ba1c3d5dfcc9cb926a5eb7d",
      "to": "0x79dfbed14077b8f2421eece5707a17b161094e6a",
      "contractAddress": null,
      "l1BaseFeeScalar": "0x186a0",
      "l1BlobBaseFee": "0x1",
      "l1BlobBaseFeeScalar": "0x95506",
      "l1Fee": "0x19b44c5b01d",
      "l1GasPrice": "0x29207a2b3",
      "l1GasUsed": "0x640"
    },
    {
      "status": "0x1",
      "cumulativeGasUsed": "0xbfefb",
      "logs": [
        {
          "address": "0x2e8af9c5922623058aa92a183b391e62cb6b2d12",
          "topics": [
            "0xddf252ad1be2c89b69c2b068fc378daa952ba7f163c4a11628f55a4df523b3ef",
            "0x0000000000000000000000000000000000000000000000000000000000000000",
            "0x000000000000000000000000cda2fdb452ff4f5d7ba1c3d5dfcc9cb926a5eb7d",
            "0x000000000000000000000000000000000000000000000000000000000000026f"
          ],
          "data": "0x",
          "blockHash": "0x1d5f9fa8eb0cf81b4457e3a1681daadff8b791e08f58b60de547b84531981083",
          "blockNumber": "0x751303",
          "transactionHash": "0xb2a3a29a0f117bb6a1049337a735ad9a0be6f67a32f083b062d7fe111dfeae46",
          "transactionIndex": "0x4",
          "logIndex": "0x6",
          "removed": false
        },
        {
          "address": "0x2e8af9c5922623058aa92a183b391e62cb6b2d12",
          "topics": [
            "0xf8e1a15aba9398e019f0b49df1a4fde98ee17ae345cb5f6b5e2c27f5033e8ce7"
          ],
          "data": "0x000000000000000000000000000000000000000000000000000000000000026f",
          "blockHash": "0x1d5f9fa8eb0cf81b4457e3a1681daadff8b791e08f58b60de547b84531981083",
          "blockNumber": "0x751303",
          "transactionHash": "0xb2a3a29a0f117bb6a1049337a735ad9a0be6f67a32f083b062d7fe111dfeae46",
          "transactionIndex": "0x4",
          "logIndex": "0x7",
          "removed": false
        }
      ],
      "logsBloom": "0x00000000000000000000000000000000000000020000000000000000000000000000000000000000000000000000000000000000000000000000000000000000000000000000000000000008040000000000000000000000000000000000000000000000020000000000000000200800002000000000800000000010000000000000000000000000000000000000000000000000000000000000000000000000000000000000000000000000000000002000000000004000000000000000008000000002000000000000000000000000000000000000020000000000000020000000000000000000200000000000000000000000100000000000000100000000",
      "type": "0x2",
      "transactionHash": "0xb2a3a29a0f117bb6a1049337a735ad9a0be6f67a32f083b062d7fe111dfeae46",
      "transactionIndex": "0x4",
      "blockHash": "0x1d5f9fa8eb0cf81b4457e3a1681daadff8b791e08f58b60de547b84531981083",
      "blockNumber": "0x751303",
      "gasUsed": "0x2ccb8",
      "effectiveGasPrice": "0xfd",
      "from": "0xcda2fdb452ff4f5d7ba1c3d5dfcc9cb926a5eb7d",
      "to": "0x79dfbed14077b8f2421eece5707a17b161094e6a",
      "contractAddress": null,
      "l1BaseFeeScalar": "0x186a0",
      "l1BlobBaseFee": "0x1",
      "l1BlobBaseFeeScalar": "0x95506",
      "l1Fee": "0x19b44c5b01d",
      "l1GasPrice": "0x29207a2b3",
      "l1GasUsed": "0x640"
    },
    {
      "status": "0x1",
      "cumulativeGasUsed": "0x38de3",
      "logs": [
        {
          "address": "0x2e8af9c5922623058aa92a183b391e62cb6b2d12",
          "topics": [
            "0xddf252ad1be2c89b69c2b068fc378daa952ba7f163c4a11628f55a4df523b3ef",
            "0x0000000000000000000000000000000000000000000000000000000000000000",
            "0x000000000000000000000000cda2fdb452ff4f5d7ba1c3d5dfcc9cb926a5eb7d",
            "0x0000000000000000000000000000000000000000000000000000000000000270"
          ],
          "data": "0x",
          "blockHash": "0xaded500e6260234dc0180ac2383a2b2a963e4275d4e369115632f6c71d441815",
          "blockNumber": "0x751304",
          "transactionHash": "0xbf9157b6a581a31f9f8582e013b61144d40e2596e5675a0c1ce770b0a2c7a486",
          "transactionIndex": "0x1",
          "logIndex": "0x0",
          "removed": false
        },
        {
          "address": "0x2e8af9c5922623058aa92a183b391e62cb6b2d12",
          "topics": [
            "0xf8e1a15aba9398e019f0b49df1a4fde98ee17ae345cb5f6b5e2c27f5033e8ce7"
          ],
          "data": "0x0000000000000000000000000000000000000000000000000000000000000270",
          "blockHash": "0xaded500e6260234dc0180ac2383a2b2a963e4275d4e369115632f6c71d441815",
          "blockNumber": "0x751304",
          "transactionHash": "0xbf9157b6a581a31f9f8582e013b61144d40e2596e5675a0c1ce770b0a2c7a486",
          "transactionIndex": "0x1",
          "logIndex": "0x1",
          "removed": false
        }
      ],
      "logsBloom": "0x00000000000000000000000000000000000000020000000000000000000000000000000000000000000000000000000000000000000000000000000000000000000000000000000000000008040000000000000000000000000000000000000000000000020000000000000000000800002000000000800000000010000000000000000000000000000000000000000000000000000000000000000000000000000000000000000000000000000000002000000000004000000000000000008000000002000000000000000000008000000000000000000000000000000020000000000000000000200000001000000000000000100000100000000000000000",
      "type": "0x2",
      "transactionHash": "0xbf9157b6a581a31f9f8582e013b61144d40e2596e5675a0c1ce770b0a2c7a486",
      "transactionIndex": "0x1",
      "blockHash": "0xaded500e6260234dc0180ac2383a2b2a963e4275d4e369115632f6c71d441815",
      "blockNumber": "0x751304",
      "gasUsed": "0x2ccb8",
      "effectiveGasPrice": "0xfd",
      "from": "0xcda2fdb452ff4f5d7ba1c3d5dfcc9cb926a5eb7d",
      "to": "0x79dfbed14077b8f2421eece5707a17b161094e6a",
      "contractAddress": null,
      "l1BaseFeeScalar": "0x186a0",
      "l1BlobBaseFee": "0x1",
      "l1BlobBaseFeeScalar": "0x95506",
      "l1Fee": "0x19074e480bd",
      "l1GasPrice": "0x280bb0734",
      "l1GasUsed": "0x640"
    },
    {
      "status": "0x1",
      "cumulativeGasUsed": "0x65a9b",
      "logs": [
        {
          "address": "0x2e8af9c5922623058aa92a183b391e62cb6b2d12",
          "topics": [
            "0xddf252ad1be2c89b69c2b068fc378daa952ba7f163c4a11628f55a4df523b3ef",
            "0x0000000000000000000000000000000000000000000000000000000000000000",
            "0x000000000000000000000000cda2fdb452ff4f5d7ba1c3d5dfcc9cb926a5eb7d",
            "0x0000000000000000000000000000000000000000000000000000000000000271"
          ],
          "data": "0x",
          "blockHash": "0xaded500e6260234dc0180ac2383a2b2a963e4275d4e369115632f6c71d441815",
          "blockNumber": "0x751304",
          "transactionHash": "0xce134b48c225e059795514cf4bc171fb69636069985039c7afabaa19ca3a77a2",
          "transactionIndex": "0x2",
          "logIndex": "0x2",
          "removed": false
        },
        {
          "address": "0x2e8af9c5922623058aa92a183b391e62cb6b2d12",
          "topics": [
            "0xf8e1a15aba9398e019f0b49df1a4fde98ee17ae345cb5f6b5e2c27f5033e8ce7"
          ],
          "data": "0x0000000000000000000000000000000000000000000000000000000000000271",
          "blockHash": "0xaded500e6260234dc0180ac2383a2b2a963e4275d4e369115632f6c71d441815",
          "blockNumber": "0x751304",
          "transactionHash": "0xce134b48c225e059795514cf4bc171fb69636069985039c7afabaa19ca3a77a2",
          "transactionIndex": "0x2",
          "logIndex": "0x3",
          "removed": false
        }
      ],
      "logsBloom": "0x00000000000000000000000000000000000000020000000000000000000000000000000000000000000000000000104000000000000000000000000000000000000000000000000000000008040000000000000000000000000000000000000000000000020000000000000000000800002000000000800000000010000000000000000000000000100000000000000000000000000000000000000000000000000000000000000000000000000000002000000000004000000000000000008000000002000000000000000000000000000000000000000000000000000020000000000000000000200000000000000000000000100000000000000000000000",
      "type": "0x2",
      "transactionHash": "0xce134b48c225e059795514cf4bc171fb69636069985039c7afabaa19ca3a77a2",
      "transactionIndex": "0x2",
      "blockHash": "0xaded500e6260234dc0180ac2383a2b2a963e4275d4e369115632f6c71d441815",
      "blockNumber": "0x751304",
      "gasUsed": "0x2ccb8",
      "effectiveGasPrice": "0xfd",
      "from": "0xcda2fdb452ff4f5d7ba1c3d5dfcc9cb926a5eb7d",
      "to": "0x79dfbed14077b8f2421eece5707a17b161094e6a",
      "contractAddress": null,
      "l1BaseFeeScalar": "0x186a0",
      "l1BlobBaseFee": "0x1",
      "l1BlobBaseFeeScalar": "0x95506",
      "l1Fee": "0x19074e480bd",
      "l1GasPrice": "0x280bb0734",
      "l1GasUsed": "0x640"
    },
    {
      "status": "0x1",
      "cumulativeGasUsed": "0x92753",
      "logs": [
        {
          "address": "0x2e8af9c5922623058aa92a183b391e62cb6b2d12",
          "topics": [
            "0xddf252ad1be2c89b69c2b068fc378daa952ba7f163c4a11628f55a4df523b3ef",
            "0x0000000000000000000000000000000000000000000000000000000000000000",
            "0x000000000000000000000000cda2fdb452ff4f5d7ba1c3d5dfcc9cb926a5eb7d",
            "0x0000000000000000000000000000000000000000000000000000000000000272"
          ],
          "data": "0x",
          "blockHash": "0xaded500e6260234dc0180ac2383a2b2a963e4275d4e369115632f6c71d441815",
          "blockNumber": "0x751304",
          "transactionHash": "0xbce9642f037f8f081f88834f68849a8fef0d28222d12538c6560103bc569752a",
          "transactionIndex": "0x3",
          "logIndex": "0x4",
          "removed": false
        },
        {
          "address": "0x2e8af9c5922623058aa92a183b391e62cb6b2d12",
          "topics": [
            "0xf8e1a15aba9398e019f0b49df1a4fde98ee17ae345cb5f6b5e2c27f5033e8ce7"
          ],
          "data": "0x0000000000000000000000000000000000000000000000000000000000000272",
          "blockHash": "0xaded500e6260234dc0180ac2383a2b2a963e4275d4e369115632f6c71d441815",
          "blockNumber": "0x751304",
          "transactionHash": "0xbce9642f037f8f081f88834f68849a8fef0d28222d12538c6560103bc569752a",
          "transactionIndex": "0x3",
          "logIndex": "0x5",
          "removed": false
        }
      ],
      "logsBloom": "0x00000000000000000000000010000000000000020000000000000000000000000000000000000000000000000000000000000000000000000000000000000000000000000000000000000008040000000000000000000000000000000000000000000000020000000000000000000800002000000000800000000010000000000000000000000000000000000000000000000000000000000000000000000000000000000000000000000000000000003000000000004000000000000000008000000002000000000000000000000000000000000000000000000000000020000000000000000000200000000000000000000000108000000000000000000000",
      "type": "0x2",
      "transactionHash": "0xbce9642f037f8f081f88834f68849a8fef0d28222d12538c6560103bc569752a",
      "transactionIndex": "0x3",
      "blockHash": "0xaded500e6260234dc0180ac2383a2b2a963e4275d4e369115632f6c71d441815",
      "blockNumber": "0x751304",
      "gasUsed": "0x2ccb8",
      "effectiveGasPrice": "0xfd",
      "from": "0xcda2fdb452ff4f5d7ba1c3d5dfcc9cb926a5eb7d",
      "to": "0x79dfbed14077b8f2421eece5707a17b161094e6a",
      "contractAddress": null,
      "l1BaseFeeScalar": "0x186a0",
      "l1BlobBaseFee": "0x1",
      "l1BlobBaseFeeScalar": "0x95506",
      "l1Fee": "0x19074e480bd",
      "l1GasPrice": "0x280bb0734",
      "l1GasUsed": "0x640"
    },
    {
      "status": "0x1",
      "cumulativeGasUsed": "0xbf40b",
      "logs": [
        {
          "address": "0x2e8af9c5922623058aa92a183b391e62cb6b2d12",
          "topics": [
            "0xddf252ad1be2c89b69c2b068fc378daa952ba7f163c4a11628f55a4df523b3ef",
            "0x0000000000000000000000000000000000000000000000000000000000000000",
            "0x000000000000000000000000cda2fdb452ff4f5d7ba1c3d5dfcc9cb926a5eb7d",
            "0x0000000000000000000000000000000000000000000000000000000000000273"
          ],
          "data": "0x",
          "blockHash": "0xaded500e6260234dc0180ac2383a2b2a963e4275d4e369115632f6c71d441815",
          "blockNumber": "0x751304",
          "transactionHash": "0x4271333c4293c16b60eb61de3174652efb5ec8572d04ef528377aa003c75335f",
          "transactionIndex": "0x4",
          "logIndex": "0x6",
          "removed": false
        },
        {
          "address": "0x2e8af9c5922623058aa92a183b391e62cb6b2d12",
          "topics": [
            "0xf8e1a15aba9398e019f0b49df1a4fde98ee17ae345cb5f6b5e2c27f5033e8ce7"
          ],
          "data": "0x0000000000000000000000000000000000000000000000000000000000000273",
          "blockHash": "0xaded500e6260234dc0180ac2383a2b2a963e4275d4e369115632f6c71d441815",
          "blockNumber": "0x751304",
          "transactionHash": "0x4271333c4293c16b60eb61de3174652efb5ec8572d04ef528377aa003c75335f",
          "transactionIndex": "0x4",
          "logIndex": "0x7",
          "removed": false
        }
      ],
      "logsBloom": "0x00000000000000000002000000000000000000020000000000000000000000000000000000000000000000000000000000000000000000000000000000000000000000000000080000000008040000000000000000000000000000000000000000000000020000000000000000000800002000000000800000000010000000000000000000000000000000000000000000000000000000000000000000000000000000000000000000000000000000002000000000004000000000000800008000000002000000000000000000000000000000000000000000000000000020000000000000000000200000000000000000000000100000000000000000000000",
      "type": "0x2",
      "transactionHash": "0x4271333c4293c16b60eb61de3174652efb5ec8572d04ef528377aa003c75335f",
      "transactionIndex": "0x4",
      "blockHash": "0xaded500e6260234dc0180ac2383a2b2a963e4275d4e369115632f6c71d441815",
      "blockNumber": "0x751304",
      "gasUsed": "0x2ccb8",
      "effectiveGasPrice": "0xfd",
      "from": "0xcda2fdb452ff4f5d7ba1c3d5dfcc9cb926a5eb7d",
      "to": "0x79dfbed14077b8f2421eece5707a17b161094e6a",
      "contractAddress": null,
      "l1BaseFeeScalar": "0x186a0",
      "l1BlobBaseFee": "0x1",
      "l1BlobBaseFeeScalar": "0x95506",
      "l1Fee": "0x19074e480bd",
      "l1GasPrice": "0x280bb0734",
      "l1GasUsed": "0x640"
    },
    {
      "status": "0x1",
      "cumulativeGasUsed": "0xec0c3",
      "logs": [
        {
          "address": "0x2e8af9c5922623058aa92a183b391e62cb6b2d12",
          "topics": [
            "0xddf252ad1be2c89b69c2b068fc378daa952ba7f163c4a11628f55a4df523b3ef",
            "0x0000000000000000000000000000000000000000000000000000000000000000",
            "0x000000000000000000000000cda2fdb452ff4f5d7ba1c3d5dfcc9cb926a5eb7d",
            "0x0000000000000000000000000000000000000000000000000000000000000274"
          ],
          "data": "0x",
          "blockHash": "0xaded500e6260234dc0180ac2383a2b2a963e4275d4e369115632f6c71d441815",
          "blockNumber": "0x751304",
          "transactionHash": "0xccb8b1f95d7d7978b98114a947b5b32d7cc8fdecddfeda5638fee78ae0b28363",
          "transactionIndex": "0x5",
          "logIndex": "0x8",
          "removed": false
        },
        {
          "address": "0x2e8af9c5922623058aa92a183b391e62cb6b2d12",
          "topics": [
            "0xf8e1a15aba9398e019f0b49df1a4fde98ee17ae345cb5f6b5e2c27f5033e8ce7"
          ],
          "data": "0x0000000000000000000000000000000000000000000000000000000000000274",
          "blockHash": "0xaded500e6260234dc0180ac2383a2b2a963e4275d4e369115632f6c71d441815",
          "blockNumber": "0x751304",
          "transactionHash": "0xccb8b1f95d7d7978b98114a947b5b32d7cc8fdecddfeda5638fee78ae0b28363",
          "transactionIndex": "0x5",
          "logIndex": "0x9",
          "removed": false
        }
      ],
      "logsBloom": "0x00000000000000000000000000000000000000020000000000000000000000000000000000000000000000000000000000000000000000000000000000000000000000000000000000000008040000000000000000000000000000000000000000000000020000000000000000000800002000000000800000000010000000000000000100000000000000000000000000000000000000000000000000000000000000000000000000000000000000002000000000004000000000000000008000000002000000000000000000000000000000000000000000100000000020000000000000000000200000000000000000000000100000000000000000000200",
      "type": "0x2",
      "transactionHash": "0xccb8b1f95d7d7978b98114a947b5b32d7cc8fdecddfeda5638fee78ae0b28363",
      "transactionIndex": "0x5",
      "blockHash": "0xaded500e6260234dc0180ac2383a2b2a963e4275d4e369115632f6c71d441815",
      "blockNumber": "0x751304",
      "gasUsed": "0x2ccb8",
      "effectiveGasPrice": "0xfd",
      "from": "0xcda2fdb452ff4f5d7ba1c3d5dfcc9cb926a5eb7d",
      "to": "0x79dfbed14077b8f2421eece5707a17b161094e6a",
      "contractAddress": null,
      "l1BaseFeeScalar": "0x186a0",
      "l1BlobBaseFee": "0x1",
      "l1BlobBaseFeeScalar": "0x95506",
      "l1Fee": "0x19074e480bd",
      "l1GasPrice": "0x280bb0734",
      "l1GasUsed": "0x640"
    },
    {
      "status": "0x1",
      "cumulativeGasUsed": "0x140275",
      "logs": [
        {
          "address": "0x2e8af9c5922623058aa92a183b391e62cb6b2d12",
          "topics": [
            "0xddf252ad1be2c89b69c2b068fc378daa952ba7f163c4a11628f55a4df523b3ef",
            "0x0000000000000000000000000000000000000000000000000000000000000000",
            "0x000000000000000000000000cda2fdb452ff4f5d7ba1c3d5dfcc9cb926a5eb7d",
            "0x0000000000000000000000000000000000000000000000000000000000000275"
          ],
          "data": "0x",
          "blockHash": "0xaded500e6260234dc0180ac2383a2b2a963e4275d4e369115632f6c71d441815",
          "blockNumber": "0x751304",
          "transactionHash": "0x08d25c49d28789c5cd9a542969348bc572651f15395988f52e7573714b43a402",
          "transactionIndex": "0x7",
          "logIndex": "0xf",
          "removed": false
        },
        {
          "address": "0x2e8af9c5922623058aa92a183b391e62cb6b2d12",
          "topics": [
            "0xf8e1a15aba9398e019f0b49df1a4fde98ee17ae345cb5f6b5e2c27f5033e8ce7"
          ],
          "data": "0x0000000000000000000000000000000000000000000000000000000000000275",
          "blockHash": "0xaded500e6260234dc0180ac2383a2b2a963e4275d4e369115632f6c71d441815",
          "blockNumber": "0x751304",
          "transactionHash": "0x08d25c49d28789c5cd9a542969348bc572651f15395988f52e7573714b43a402",
          "transactionIndex": "0x7",
          "logIndex": "0x10",
          "removed": false
        }
      ],
      "logsBloom": "0x00000000000000000000000000000000000000020000000000000000000000000000000000000000000000000000000000000000000000000000000000000000000000000000000000000008040000000000000000000000000000000000000000000000020000000000000000001800002000000000800000000010000000010000000000000000000000000000000000000000000000000000000004000000000000000000000000000000000000002000000000004000000000000000008000000002000000000000000000000000000000000000000000000000000020000000000000000000200000000000000000000000100000000000000000000000",
      "type": "0x2",
      "transactionHash": "0x08d25c49d28789c5cd9a542969348bc572651f15395988f52e7573714b43a402",
      "transactionIndex": "0x7",
      "blockHash": "0xaded500e6260234dc0180ac2383a2b2a963e4275d4e369115632f6c71d441815",
      "blockNumber": "0x751304",
      "gasUsed": "0x2ccb8",
      "effectiveGasPrice": "0xfd",
      "from": "0xcda2fdb452ff4f5d7ba1c3d5dfcc9cb926a5eb7d",
      "to": "0x79dfbed14077b8f2421eece5707a17b161094e6a",
      "contractAddress": null,
      "l1BaseFeeScalar": "0x186a0",
      "l1BlobBaseFee": "0x1",
      "l1BlobBaseFeeScalar": "0x95506",
      "l1Fee": "0x19074e480bd",
      "l1GasPrice": "0x280bb0734",
      "l1GasUsed": "0x640"
    },
    {
      "status": "0x1",
      "cumulativeGasUsed": "0x16cf2d",
      "logs": [
        {
          "address": "0x2e8af9c5922623058aa92a183b391e62cb6b2d12",
          "topics": [
            "0xddf252ad1be2c89b69c2b068fc378daa952ba7f163c4a11628f55a4df523b3ef",
            "0x0000000000000000000000000000000000000000000000000000000000000000",
            "0x000000000000000000000000cda2fdb452ff4f5d7ba1c3d5dfcc9cb926a5eb7d",
            "0x0000000000000000000000000000000000000000000000000000000000000276"
          ],
          "data": "0x",
          "blockHash": "0xaded500e6260234dc0180ac2383a2b2a963e4275d4e369115632f6c71d441815",
          "blockNumber": "0x751304",
          "transactionHash": "0xa626f3dd770c25f858a233cb42ed1dc32bff2392c16fa5efcd5e63bebb4a4a21",
          "transactionIndex": "0x8",
          "logIndex": "0x11",
          "removed": false
        },
        {
          "address": "0x2e8af9c5922623058aa92a183b391e62cb6b2d12",
          "topics": [
            "0xf8e1a15aba9398e019f0b49df1a4fde98ee17ae345cb5f6b5e2c27f5033e8ce7"
          ],
          "data": "0x0000000000000000000000000000000000000000000000000000000000000276",
          "blockHash": "0xaded500e6260234dc0180ac2383a2b2a963e4275d4e369115632f6c71d441815",
          "blockNumber": "0x751304",
          "transactionHash": "0xa626f3dd770c25f858a233cb42ed1dc32bff2392c16fa5efcd5e63bebb4a4a21",
          "transactionIndex": "0x8",
          "logIndex": "0x12",
          "removed": false
        }
      ],
      "logsBloom": "0x00000000000000000000000000000000000000020001000000000000000000000000000000000000000000000000000000000000000000400000000000000000000000000000000000000008040000000000000000000000000000000000000000000000020000000000000000000800002000004000800000000010000000000000000000000000000000000000000000000000000000000000000000000000000000000000000000000000000000002000000000004000000000000000008000000002000000000000000000000000000000000000000000000000000020000000000000000000200000000000000000000000100000000000000000000000",
      "type": "0x2",
      "transactionHash": "0xa626f3dd770c25f858a233cb42ed1dc32bff2392c16fa5efcd5e63bebb4a4a21",
      "transactionIndex": "0x8",
      "blockHash": "0xaded500e6260234dc0180ac2383a2b2a963e4275d4e369115632f6c71d441815",
      "blockNumber": "0x751304",
      "gasUsed": "0x2ccb8",
      "effectiveGasPrice": "0xfd",
      "from": "0xcda2fdb452ff4f5d7ba1c3d5dfcc9cb926a5eb7d",
      "to": "0x79dfbed14077b8f2421eece5707a17b161094e6a",
      "contractAddress": null,
      "l1BaseFeeScalar": "0x186a0",
      "l1BlobBaseFee": "0x1",
      "l1BlobBaseFeeScalar": "0x95506",
      "l1Fee": "0x19074e480bd",
      "l1GasPrice": "0x280bb0734",
      "l1GasUsed": "0x640"
    },
    {
      "status": "0x1",
      "cumulativeGasUsed": "0x199be5",
      "logs": [
        {
          "address": "0x2e8af9c5922623058aa92a183b391e62cb6b2d12",
          "topics": [
            "0xddf252ad1be2c89b69c2b068fc378daa952ba7f163c4a11628f55a4df523b3ef",
            "0x0000000000000000000000000000000000000000000000000000000000000000",
            "0x000000000000000000000000cda2fdb452ff4f5d7ba1c3d5dfcc9cb926a5eb7d",
            "0x0000000000000000000000000000000000000000000000000000000000000277"
          ],
          "data": "0x",
          "blockHash": "0xaded500e6260234dc0180ac2383a2b2a963e4275d4e369115632f6c71d441815",
          "blockNumber": "0x751304",
          "transactionHash": "0xb531a912cc3d5b1baed331267199f2064ce231a6c39218ffcae1b76885da115d",
          "transactionIndex": "0x9",
          "logIndex": "0x13",
          "removed": false
        },
        {
          "address": "0x2e8af9c5922623058aa92a183b391e62cb6b2d12",
          "topics": [
            "0xf8e1a15aba9398e019f0b49df1a4fde98ee17ae345cb5f6b5e2c27f5033e8ce7"
          ],
          "data": "0x0000000000000000000000000000000000000000000000000000000000000277",
          "blockHash": "0xaded500e6260234dc0180ac2383a2b2a963e4275d4e369115632f6c71d441815",
          "blockNumber": "0x751304",
          "transactionHash": "0xb531a912cc3d5b1baed331267199f2064ce231a6c39218ffcae1b76885da115d",
          "transactionIndex": "0x9",
          "logIndex": "0x14",
          "removed": false
        }
      ],
      "logsBloom": "0x00000000000000200000000000000000000000020000000000000000000000000000000000000000000000000000000000000000000000000000000000000000000000000000000000000028040000000000000000000000000000800000000000000000020000000000000000000800002000000000800000000010000000000000000000000000000000000000000000000000000000000000000000000000000000000000000000000000000000002000000000004000000000000000008000000002000000000000000000000000000000000000000000000000000020000000000000000000200000000000000000000000100000000000000000000000",
      "type": "0x2",
      "transactionHash": "0xb531a912cc3d5b1baed331267199f2064ce231a6c39218ffcae1b76885da115d",
      "transactionIndex": "0x9",
      "blockHash": "0xaded500e6260234dc0180ac2383a2b2a963e4275d4e369115632f6c71d441815",
      "blockNumber": "0x751304",
      "gasUsed": "0x2ccb8",
      "effectiveGasPrice": "0xfd",
      "from": "0xcda2fdb452ff4f5d7ba1c3d5dfcc9cb926a5eb7d",
      "to": "0x79dfbed14077b8f2421eece5707a17b161094e6a",
      "contractAddress": null,
      "l1BaseFeeScalar": "0x186a0",
      "l1BlobBaseFee": "0x1",
      "l1BlobBaseFeeScalar": "0x95506",
      "l1Fee": "0x19074e480bd",
      "l1GasPrice": "0x280bb0734",
      "l1GasUsed": "0x640"
    },
    {
      "status": "0x1",
      "cumulativeGasUsed": "0x1c689d",
      "logs": [
        {
          "address": "0x2e8af9c5922623058aa92a183b391e62cb6b2d12",
          "topics": [
            "0xddf252ad1be2c89b69c2b068fc378daa952ba7f163c4a11628f55a4df523b3ef",
            "0x0000000000000000000000000000000000000000000000000000000000000000",
            "0x000000000000000000000000cda2fdb452ff4f5d7ba1c3d5dfcc9cb926a5eb7d",
            "0x0000000000000000000000000000000000000000000000000000000000000278"
          ],
          "data": "0x",
          "blockHash": "0xaded500e6260234dc0180ac2383a2b2a963e4275d4e369115632f6c71d441815",
          "blockNumber": "0x751304",
          "transactionHash": "0xc7eea80d4580a00520987d4e736f1874249a5e727ce44d63318ed375f8cf2c9c",
          "transactionIndex": "0xa",
          "logIndex": "0x15",
          "removed": false
        },
        {
          "address": "0x2e8af9c5922623058aa92a183b391e62cb6b2d12",
          "topics": [
            "0xf8e1a15aba9398e019f0b49df1a4fde98ee17ae345cb5f6b5e2c27f5033e8ce7"
          ],
          "data": "0x0000000000000000000000000000000000000000000000000000000000000278",
          "blockHash": "0xaded500e6260234dc0180ac2383a2b2a963e4275d4e369115632f6c71d441815",
          "blockNumber": "0x751304",
          "transactionHash": "0xc7eea80d4580a00520987d4e736f1874249a5e727ce44d63318ed375f8cf2c9c",
          "transactionIndex": "0xa",
          "logIndex": "0x16",
          "removed": false
        }
      ],
      "logsBloom": "0x00000000000000000000000000000000000000020000000000000000000000000000000000000000000000000000000000000000000000000000000000000000000000000000000000000008040000000000000000000000000000000000000000000000020000000000000000000800002000000000800000000010000000000000000000000000000000004000000000000000000000000000000000000000000000000000000000000000000000002000000000004000000000000000008000000002000000000000000000000000000000000000000000000000000024000000000000000004200000000000000000000000100000000000000000000000",
      "type": "0x2",
      "transactionHash": "0xc7eea80d4580a00520987d4e736f1874249a5e727ce44d63318ed375f8cf2c9c",
      "transactionIndex": "0xa",
      "blockHash": "0xaded500e6260234dc0180ac2383a2b2a963e4275d4e369115632f6c71d441815",
      "blockNumber": "0x751304",
      "gasUsed": "0x2ccb8",
      "effectiveGasPrice": "0xfd",
      "from": "0xcda2fdb452ff4f5d7ba1c3d5dfcc9cb926a5eb7d",
      "to": "0x79dfbed14077b8f2421eece5707a17b161094e6a",
      "contractAddress": null,
      "l1BaseFeeScalar": "0x186a0",
      "l1BlobBaseFee": "0x1",
      "l1BlobBaseFeeScalar": "0x95506",
      "l1Fee": "0x19074e480bd",
      "l1GasPrice": "0x280bb0734",
      "l1GasUsed": "0x640"
    },
    {
      "status": "0x1",
      "cumulativeGasUsed": "0x1f3555",
      "logs": [
        {
          "address": "0x2e8af9c5922623058aa92a183b391e62cb6b2d12",
          "topics": [
            "0xddf252ad1be2c89b69c2b068fc378daa952ba7f163c4a11628f55a4df523b3ef",
            "0x0000000000000000000000000000000000000000000000000000000000000000",
            "0x000000000000000000000000cda2fdb452ff4f5d7ba1c3d5dfcc9cb926a5eb7d",
            "0x0000000000000000000000000000000000000000000000000000000000000279"
          ],
          "data": "0x",
          "blockHash": "0xaded500e6260234dc0180ac2383a2b2a963e4275d4e369115632f6c71d441815",
          "blockNumber": "0x751304",
          "transactionHash": "0xc0d9dfd5a8846c04a56524df855971d1659fba3dfbcf12d91c1a624d94cc4ffc",
          "transactionIndex": "0xb",
          "logIndex": "0x17",
          "removed": false
        },
        {
          "address": "0x2e8af9c5922623058aa92a183b391e62cb6b2d12",
          "topics": [
            "0xf8e1a15aba9398e019f0b49df1a4fde98ee17ae345cb5f6b5e2c27f5033e8ce7"
          ],
          "data": "0x0000000000000000000000000000000000000000000000000000000000000279",
          "blockHash": "0xaded500e6260234dc0180ac2383a2b2a963e4275d4e369115632f6c71d441815",
          "blockNumber": "0x751304",
          "transactionHash": "0xc0d9dfd5a8846c04a56524df855971d1659fba3dfbcf12d91c1a624d94cc4ffc",
          "transactionIndex": "0xb",
          "logIndex": "0x18",
          "removed": false
        }
      ],
      "logsBloom": "0x00000000000000000000000000000000000000020000000000000000000000000000000000000000000000000000000000000000000000000000000000000000000000000000000000000008040000000000000000000000000000000000000000000000020000000000000000000800002000000000880000000010000000000020000000080000000000000000000000000000000000000000000000000000000000000000000000000000000000002000000000004000000000000000008000000002000000000000000000000000000000000000000000000000000020000000000000000000200000000000000000000000100000000000000000000000",
      "type": "0x2",
      "transactionHash": "0xc0d9dfd5a8846c04a56524df855971d1659fba3dfbcf12d91c1a624d94cc4ffc",
      "transactionIndex": "0xb",
      "blockHash": "0xaded500e6260234dc0180ac2383a2b2a963e4275d4e369115632f6c71d441815",
      "blockNumber": "0x751304",
      "gasUsed": "0x2ccb8",
      "effectiveGasPrice": "0xfd",
      "from": "0xcda2fdb452ff4f5d7ba1c3d5dfcc9cb926a5eb7d",
      "to": "0x79dfbed14077b8f2421eece5707a17b161094e6a",
      "contractAddress": null,
      "l1BaseFeeScalar": "0x186a0",
      "l1BlobBaseFee": "0x1",
      "l1BlobBaseFeeScalar": "0x95506",
      "l1Fee": "0x19074e480bd",
      "l1GasPrice": "0x280bb0734",
      "l1GasUsed": "0x640"
    },
    {
      "status": "0x1",
      "cumulativeGasUsed": "0x22020d",
      "logs": [
        {
          "address": "0x2e8af9c5922623058aa92a183b391e62cb6b2d12",
          "topics": [
            "0xddf252ad1be2c89b69c2b068fc378daa952ba7f163c4a11628f55a4df523b3ef",
            "0x0000000000000000000000000000000000000000000000000000000000000000",
            "0x000000000000000000000000cda2fdb452ff4f5d7ba1c3d5dfcc9cb926a5eb7d",
            "0x000000000000000000000000000000000000000000000000000000000000027a"
          ],
          "data": "0x",
          "blockHash": "0xaded500e6260234dc0180ac2383a2b2a963e4275d4e369115632f6c71d441815",
          "blockNumber": "0x751304",
          "transactionHash": "0xd588d33a6d3f1cdaf91ea6d38ab7883d2e3367ef72ce63aee0d678b4d8103a43",
          "transactionIndex": "0xc",
          "logIndex": "0x19",
          "removed": false
        },
        {
          "address": "0x2e8af9c5922623058aa92a183b391e62cb6b2d12",
          "topics": [
            "0xf8e1a15aba9398e019f0b49df1a4fde98ee17ae345cb5f6b5e2c27f5033e8ce7"
          ],
          "data": "0x000000000000000000000000000000000000000000000000000000000000027a",
          "blockHash": "0xaded500e6260234dc0180ac2383a2b2a963e4275d4e369115632f6c71d441815",
          "blockNumber": "0x751304",
          "transactionHash": "0xd588d33a6d3f1cdaf91ea6d38ab7883d2e3367ef72ce63aee0d678b4d8103a43",
          "transactionIndex": "0xc",
          "logIndex": "0x1a",
          "removed": false
        }
      ],
      "logsBloom": "0x00000000000000000000000000000000000000020000000000000020000000000000000040000000000000000000000000000000000000000000000000000000000000000000000000000008040000000000000000000000000000000000000000000000020000000000000000000800002000000000800000000010000000000000000000000000200000000000000000000000000000000000000000000000000000000000000000000000000000002000000000004000000000000000008000000002000000000000000000000000000000000000000000000000000020000000000000000000200000000000000000000000100000000000000000000000",
      "type": "0x2",
      "transactionHash": "0xd588d33a6d3f1cdaf91ea6d38ab7883d2e3367ef72ce63aee0d678b4d8103a43",
      "transactionIndex": "0xc",
      "blockHash": "0xaded500e6260234dc0180ac2383a2b2a963e4275d4e369115632f6c71d441815",
      "blockNumber": "0x751304",
      "gasUsed": "0x2ccb8",
      "effectiveGasPrice": "0xfd",
      "from": "0xcda2fdb452ff4f5d7ba1c3d5dfcc9cb926a5eb7d",
      "to": "0x79dfbed14077b8f2421eece5707a17b161094e6a",
      "contractAddress": null,
      "l1BaseFeeScalar": "0x186a0",
      "l1BlobBaseFee": "0x1",
      "l1BlobBaseFeeScalar": "0x95506",
      "l1Fee": "0x19074e480bd",
      "l1GasPrice": "0x280bb0734",
      "l1GasUsed": "0x640"
    },
    {
      "status": "0x1",
      "cumulativeGasUsed": "0x24cec5",
      "logs": [
        {
          "address": "0x2e8af9c5922623058aa92a183b391e62cb6b2d12",
          "topics": [
            "0xddf252ad1be2c89b69c2b068fc378daa952ba7f163c4a11628f55a4df523b3ef",
            "0x0000000000000000000000000000000000000000000000000000000000000000",
            "0x000000000000000000000000cda2fdb452ff4f5d7ba1c3d5dfcc9cb926a5eb7d",
            "0x000000000000000000000000000000000000000000000000000000000000027b"
          ],
          "data": "0x",
          "blockHash": "0xaded500e6260234dc0180ac2383a2b2a963e4275d4e369115632f6c71d441815",
          "blockNumber": "0x751304",
          "transactionHash": "0xdb6d0c6d836d2b4c7110c140a088a461a1ba99ce8285ed0a215c1c727e860971",
          "transactionIndex": "0xd",
          "logIndex": "0x1b",
          "removed": false
        },
        {
          "address": "0x2e8af9c5922623058aa92a183b391e62cb6b2d12",
          "topics": [
            "0xf8e1a15aba9398e019f0b49df1a4fde98ee17ae345cb5f6b5e2c27f5033e8ce7"
          ],
          "data": "0x000000000000000000000000000000000000000000000000000000000000027b",
          "blockHash": "0xaded500e6260234dc0180ac2383a2b2a963e4275d4e369115632f6c71d441815",
          "blockNumber": "0x751304",
          "transactionHash": "0xdb6d0c6d836d2b4c7110c140a088a461a1ba99ce8285ed0a215c1c727e860971",
          "transactionIndex": "0xd",
          "logIndex": "0x1c",
          "removed": false
        }
      ],
      "logsBloom": "0x08000000000000000000000000000000000000020000000000000000000000000000000000000000000000000000000000000000000000000000000000000000000000000000000000000008040000000000000000000000000000000000000000000000020000000000000000000800002000000000800000000010000000000000000000000000000000000000000000000000000000000000000000000000000000000000000000000000000000002000000000004000000000000000028000000002000000000000000000000000000000000000000000000000000020000000000000000008200000000000000000000000100000000000000000000000",
      "type": "0x2",
      "transactionHash": "0xdb6d0c6d836d2b4c7110c140a088a461a1ba99ce8285ed0a215c1c727e860971",
      "transactionIndex": "0xd",
      "blockHash": "0xaded500e6260234dc0180ac2383a2b2a963e4275d4e369115632f6c71d441815",
      "blockNumber": "0x751304",
      "gasUsed": "0x2ccb8",
      "effectiveGasPrice": "0xfd",
      "from": "0xcda2fdb452ff4f5d7ba1c3d5dfcc9cb926a5eb7d",
      "to": "0x79dfbed14077b8f2421eece5707a17b161094e6a",
      "contractAddress": null,
      "l1BaseFeeScalar": "0x186a0",
      "l1BlobBaseFee": "0x1",
      "l1BlobBaseFeeScalar": "0x95506",
      "l1Fee": "0x19074e480bd",
      "l1GasPrice": "0x280bb0734",
      "l1GasUsed": "0x640"
    },
    {
      "status": "0x1",
      "cumulativeGasUsed": "0x871e68",
      "logs": [
        {
          "address": "0x2e8af9c5922623058aa92a183b391e62cb6b2d12",
          "topics": [
            "0xddf252ad1be2c89b69c2b068fc378daa952ba7f163c4a11628f55a4df523b3ef",
            "0x0000000000000000000000000000000000000000000000000000000000000000",
            "0x000000000000000000000000cda2fdb452ff4f5d7ba1c3d5dfcc9cb926a5eb7d",
            "0x000000000000000000000000000000000000000000000000000000000000027c"
          ],
          "data": "0x",
          "blockHash": "0xaded500e6260234dc0180ac2383a2b2a963e4275d4e369115632f6c71d441815",
          "blockNumber": "0x751304",
          "transactionHash": "0x0a9cd924ce9c4c53447a7e60fd2ad691eb1f0ef05a59ccd385d16ea7a0948206",
          "transactionIndex": "0xf",
          "logIndex": "0x1d",
          "removed": false
        },
        {
          "address": "0x2e8af9c5922623058aa92a183b391e62cb6b2d12",
          "topics": [
            "0xf8e1a15aba9398e019f0b49df1a4fde98ee17ae345cb5f6b5e2c27f5033e8ce7"
          ],
          "data": "0x000000000000000000000000000000000000000000000000000000000000027c",
          "blockHash": "0xaded500e6260234dc0180ac2383a2b2a963e4275d4e369115632f6c71d441815",
          "blockNumber": "0x751304",
          "transactionHash": "0x0a9cd924ce9c4c53447a7e60fd2ad691eb1f0ef05a59ccd385d16ea7a0948206",
          "transactionIndex": "0xf",
          "logIndex": "0x1e",
          "removed": false
        }
      ],
      "logsBloom": "0x00000000000000000000000000000000000000020000000000000000000000000000000000000000000000000000000010000000000000000000000000000000000000000000000000000008040000000000000000000000000000000000000000000000020000000000000000000800002000000000800000000010000000000000000000000000000000000000000000000000000000000000000000000000000000000000000000000000000000002000000000004001000000000000008000000002000000000000000000000000000000000000000000000000000020000400000000000000200000000000000000000000100000000000000000000000",
      "type": "0x2",
      "transactionHash": "0x0a9cd924ce9c4c53447a7e60fd2ad691eb1f0ef05a59ccd385d16ea7a0948206",
      "transactionIndex": "0xf",
      "blockHash": "0xaded500e6260234dc0180ac2383a2b2a963e4275d4e369115632f6c71d441815",
      "blockNumber": "0x751304",
      "gasUsed": "0x2ccb8",
      "effectiveGasPrice": "0xfd",
      "from": "0xcda2fdb452ff4f5d7ba1c3d5dfcc9cb926a5eb7d",
      "to": "0x79dfbed14077b8f2421eece5707a17b161094e6a",
      "contractAddress": null,
      "l1BaseFeeScalar": "0x186a0",
      "l1BlobBaseFee": "0x1",
      "l1BlobBaseFeeScalar": "0x95506",
      "l1Fee": "0x19074e480bd",
      "l1GasPrice": "0x280bb0734",
      "l1GasUsed": "0x640"
    },
    {
      "status": "0x1",
      "cumulativeGasUsed": "0x89eb20",
      "logs": [
        {
          "address": "0x2e8af9c5922623058aa92a183b391e62cb6b2d12",
          "topics": [
            "0xddf252ad1be2c89b69c2b068fc378daa952ba7f163c4a11628f55a4df523b3ef",
            "0x0000000000000000000000000000000000000000000000000000000000000000",
            "0x000000000000000000000000cda2fdb452ff4f5d7ba1c3d5dfcc9cb926a5eb7d",
            "0x000000000000000000000000000000000000000000000000000000000000027d"
          ],
          "data": "0x",
          "blockHash": "0xaded500e6260234dc0180ac2383a2b2a963e4275d4e369115632f6c71d441815",
          "blockNumber": "0x751304",
          "transactionHash": "0x5518d14b8aa9de60f4d2610fcc0e346a3065632aea13c4924da7f6be3578a419",
          "transactionIndex": "0x10",
          "logIndex": "0x1f",
          "removed": false
        },
        {
          "address": "0x2e8af9c5922623058aa92a183b391e62cb6b2d12",
          "topics": [
            "0xf8e1a15aba9398e019f0b49df1a4fde98ee17ae345cb5f6b5e2c27f5033e8ce7"
          ],
          "data": "0x000000000000000000000000000000000000000000000000000000000000027d",
          "blockHash": "0xaded500e6260234dc0180ac2383a2b2a963e4275d4e369115632f6c71d441815",
          "blockNumber": "0x751304",
          "transactionHash": "0x5518d14b8aa9de60f4d2610fcc0e346a3065632aea13c4924da7f6be3578a419",
          "transactionIndex": "0x10",
          "logIndex": "0x20",
          "removed": false
        }
      ],
      "logsBloom": "0x00000000000000000000000000000000000000020000000000000000000000000000000000000000000000000000000040000000000000000000000000000000000000000000000000000008040000000000000000000000000000000000000000000000020000000000000000000800002000000000800400000010000000000000000000000000000000000000000000000000000000000000000000000000000000000000000000000000000000002000000000084000000000000000008000000002000000000000000000000000000000000000000000000000000020000000000000000000200000000000000000000000100000000000000000000000",
      "type": "0x2",
      "transactionHash": "0x5518d14b8aa9de60f4d2610fcc0e346a3065632aea13c4924da7f6be3578a419",
      "transactionIndex": "0x10",
      "blockHash": "0xaded500e6260234dc0180ac2383a2b2a963e4275d4e369115632f6c71d441815",
      "blockNumber": "0x751304",
      "gasUsed": "0x2ccb8",
      "effectiveGasPrice": "0xfd",
      "from": "0xcda2fdb452ff4f5d7ba1c3d5dfcc9cb926a5eb7d",
      "to": "0x79dfbed14077b8f2421eece5707a17b161094e6a",
      "contractAddress": null,
      "l1BaseFeeScalar": "0x186a0",
      "l1BlobBaseFee": "0x1",
      "l1BlobBaseFeeScalar": "0x95506",
      "l1Fee": "0x19074e480bd",
      "l1GasPrice": "0x280bb0734",
      "l1GasUsed": "0x640"
    },
    {
      "status": "0x1",
      "cumulativeGasUsed": "0x8cb7d8",
      "logs": [
        {
          "address": "0x2e8af9c5922623058aa92a183b391e62cb6b2d12",
          "topics": [
            "0xddf252ad1be2c89b69c2b068fc378daa952ba7f163c4a11628f55a4df523b3ef",
            "0x0000000000000000000000000000000000000000000000000000000000000000",
            "0x000000000000000000000000cda2fdb452ff4f5d7ba1c3d5dfcc9cb926a5eb7d",
            "0x000000000000000000000000000000000000000000000000000000000000027e"
          ],
          "data": "0x",
          "blockHash": "0xaded500e6260234dc0180ac2383a2b2a963e4275d4e369115632f6c71d441815",
          "blockNumber": "0x751304",
          "transactionHash": "0x4624ec99a7adb20b37eda8883e7f06e54a1b26a015036d835f74a53527402d0a",
          "transactionIndex": "0x11",
          "logIndex": "0x21",
          "removed": false
        },
        {
          "address": "0x2e8af9c5922623058aa92a183b391e62cb6b2d12",
          "topics": [
            "0xf8e1a15aba9398e019f0b49df1a4fde98ee17ae345cb5f6b5e2c27f5033e8ce7"
          ],
          "data": "0x000000000000000000000000000000000000000000000000000000000000027e",
          "blockHash": "0xaded500e6260234dc0180ac2383a2b2a963e4275d4e369115632f6c71d441815",
          "blockNumber": "0x751304",
          "transactionHash": "0x4624ec99a7adb20b37eda8883e7f06e54a1b26a015036d835f74a53527402d0a",
          "transactionIndex": "0x11",
          "logIndex": "0x22",
          "removed": false
        }
      ],
      "logsBloom": "0x00000000000000000000000000000000000000020000000000000000000000000000000000000000000000000000000000000000010000000000000000000000000000000000000000000008040000000000000000000000000000000000000000000000020000000000000000000800002000000000800000000010000000000000000000000000000000000000000200000000000000000000000000000000000000000000000000000000000000002000000000004000000000008000008000000002000000000000000000000000000000000000000000000000000020000000000000000000200000000000000000000000100000000000000000000000",
      "type": "0x2",
      "transactionHash": "0x4624ec99a7adb20b37eda8883e7f06e54a1b26a015036d835f74a53527402d0a",
      "transactionIndex": "0x11",
      "blockHash": "0xaded500e6260234dc0180ac2383a2b2a963e4275d4e369115632f6c71d441815",
      "blockNumber": "0x751304",
      "gasUsed": "0x2ccb8",
      "effectiveGasPrice": "0xfd",
      "from": "0xcda2fdb452ff4f5d7ba1c3d5dfcc9cb926a5eb7d",
      "to": "0x79dfbed14077b8f2421eece5707a17b161094e6a",
      "contractAddress": null,
      "l1BaseFeeScalar": "0x186a0",
      "l1BlobBaseFee": "0x1",
      "l1BlobBaseFeeScalar": "0x95506",
      "l1Fee": "0x19074e480bd",
      "l1GasPrice": "0x280bb0734",
      "l1GasUsed": "0x640"
    },
    {
      "status": "0x1",
      "cumulativeGasUsed": "0x8f8490",
      "logs": [
        {
          "address": "0x2e8af9c5922623058aa92a183b391e62cb6b2d12",
          "topics": [
            "0xddf252ad1be2c89b69c2b068fc378daa952ba7f163c4a11628f55a4df523b3ef",
            "0x0000000000000000000000000000000000000000000000000000000000000000",
            "0x000000000000000000000000cda2fdb452ff4f5d7ba1c3d5dfcc9cb926a5eb7d",
            "0x000000000000000000000000000000000000000000000000000000000000027f"
          ],
          "data": "0x",
          "blockHash": "0xaded500e6260234dc0180ac2383a2b2a963e4275d4e369115632f6c71d441815",
          "blockNumber": "0x751304",
          "transactionHash": "0xeb25cebf3a4d77eb1e7dc1dc8d1b8199d5a0deda4850f37a42aaed8ecfba7cbe",
          "transactionIndex": "0x12",
          "logIndex": "0x23",
          "removed": false
        },
        {
          "address": "0x2e8af9c5922623058aa92a183b391e62cb6b2d12",
          "topics": [
            "0xf8e1a15aba9398e019f0b49df1a4fde98ee17ae345cb5f6b5e2c27f5033e8ce7"
          ],
          "data": "0x000000000000000000000000000000000000000000000000000000000000027f",
          "blockHash": "0xaded500e6260234dc0180ac2383a2b2a963e4275d4e369115632f6c71d441815",
          "blockNumber": "0x751304",
          "transactionHash": "0xeb25cebf3a4d77eb1e7dc1dc8d1b8199d5a0deda4850f37a42aaed8ecfba7cbe",
          "transactionIndex": "0x12",
          "logIndex": "0x24",
          "removed": false
        }
      ],
      "logsBloom": "0x00000000000000000000000000000000000000020000000000000000000000000000000000000000000000000000000000000000000000000000000000000000000000000000000000000008040000000000020000000000020000000000000000000000020000000000000000000800002000000000800000000010000002000000000000000000000000000000000000000000000000000000000000000000000000000000000000000000000000002000000000004000000000000000008000000002000000000000000000000000000000000000000000000000000020000000000000000000200000000000000000000000100000000000000000000000",
      "type": "0x2",
      "transactionHash": "0xeb25cebf3a4d77eb1e7dc1dc8d1b8199d5a0deda4850f37a42aaed8ecfba7cbe",
      "transactionIndex": "0x12",
      "blockHash": "0xaded500e6260234dc0180ac2383a2b2a963e4275d4e369115632f6c71d441815",
      "blockNumber": "0x751304",
      "gasUsed": "0x2ccb8",
      "effectiveGasPrice": "0xfd",
      "from": "0xcda2fdb452ff4f5d7ba1c3d5dfcc9cb926a5eb7d",
      "to": "0x79dfbed14077b8f2421eece5707a17b161094e6a",
      "contractAddress": null,
      "l1BaseFeeScalar": "0x186a0",
      "l1BlobBaseFee": "0x1",
      "l1BlobBaseFeeScalar": "0x95506",
      "l1Fee": "0x19074e480bd",
      "l1GasPrice": "0x280bb0734",
      "l1GasUsed": "0x640"
    },
    {
      "status": "0x1",
      "cumulativeGasUsed": "0x925148",
      "logs": [
        {
          "address": "0x2e8af9c5922623058aa92a183b391e62cb6b2d12",
          "topics": [
            "0xddf252ad1be2c89b69c2b068fc378daa952ba7f163c4a11628f55a4df523b3ef",
            "0x0000000000000000000000000000000000000000000000000000000000000000",
            "0x000000000000000000000000cda2fdb452ff4f5d7ba1c3d5dfcc9cb926a5eb7d",
            "0x0000000000000000000000000000000000000000000000000000000000000280"
          ],
          "data": "0x",
          "blockHash": "0xaded500e6260234dc0180ac2383a2b2a963e4275d4e369115632f6c71d441815",
          "blockNumber": "0x751304",
          "transactionHash": "0xecd2aceff06c3bb02348b68222197db69fe41fc630ca354ca127d91d1563cfa7",
          "transactionIndex": "0x13",
          "logIndex": "0x25",
          "removed": false
        },
        {
          "address": "0x2e8af9c5922623058aa92a183b391e62cb6b2d12",
          "topics": [
            "0xf8e1a15aba9398e019f0b49df1a4fde98ee17ae345cb5f6b5e2c27f5033e8ce7"
          ],
          "data": "0x0000000000000000000000000000000000000000000000000000000000000280",
          "blockHash": "0xaded500e6260234dc0180ac2383a2b2a963e4275d4e369115632f6c71d441815",
          "blockNumber": "0x751304",
          "transactionHash": "0xecd2aceff06c3bb02348b68222197db69fe41fc630ca354ca127d91d1563cfa7",
          "transactionIndex": "0x13",
          "logIndex": "0x26",
          "removed": false
        }
      ],
      "logsBloom": "0x00000000000000000000000000000000000000020000000000000000000000000000000000000000000000000000000000000000000000000000000000000000000000000000000000000008040000000000000000000000000000000000000000000000020000000000000000000800002000000000800000000010000010000000000000000000000000000000000000000000000000000000000000000000000000000000400000000000000000002000000000004000000000000000008000000002000000000000000000000000000000000000000000000000100020000000000000000000200000000000000000000000100000000000000000000000",
      "type": "0x2",
      "transactionHash": "0xecd2aceff06c3bb02348b68222197db69fe41fc630ca354ca127d91d1563cfa7",
      "transactionIndex": "0x13",
      "blockHash": "0xaded500e6260234dc0180ac2383a2b2a963e4275d4e369115632f6c71d441815",
      "blockNumber": "0x751304",
      "gasUsed": "0x2ccb8",
      "effectiveGasPrice": "0xfd",
      "from": "0xcda2fdb452ff4f5d7ba1c3d5dfcc9cb926a5eb7d",
      "to": "0x79dfbed14077b8f2421eece5707a17b161094e6a",
      "contractAddress": null,
      "l1BaseFeeScalar": "0x186a0",
      "l1BlobBaseFee": "0x1",
      "l1BlobBaseFeeScalar": "0x95506",
      "l1Fee": "0x19074e480bd",
      "l1GasPrice": "0x280bb0734",
      "l1GasUsed": "0x640"
    },
    {
      "status": "0x1",
      "cumulativeGasUsed": "0x951e00",
      "logs": [
        {
          "address": "0x2e8af9c5922623058aa92a183b391e62cb6b2d12",
          "topics": [
            "0xddf252ad1be2c89b69c2b068fc378daa952ba7f163c4a11628f55a4df523b3ef",
            "0x0000000000000000000000000000000000000000000000000000000000000000",
            "0x000000000000000000000000cda2fdb452ff4f5d7ba1c3d5dfcc9cb926a5eb7d",
            "0x0000000000000000000000000000000000000000000000000000000000000281"
          ],
          "data": "0x",
          "blockHash": "0xaded500e6260234dc0180ac2383a2b2a963e4275d4e369115632f6c71d441815",
          "blockNumber": "0x751304",
          "transactionHash": "0xe1b1f897510ac45577b513ced09bef65aaea57039bcc6f2e1b888654155fc38c",
          "transactionIndex": "0x14",
          "logIndex": "0x27",
          "removed": false
        },
        {
          "address": "0x2e8af9c5922623058aa92a183b391e62cb6b2d12",
          "topics": [
            "0xf8e1a15aba9398e019f0b49df1a4fde98ee17ae345cb5f6b5e2c27f5033e8ce7"
          ],
          "data": "0x0000000000000000000000000000000000000000000000000000000000000281",
          "blockHash": "0xaded500e6260234dc0180ac2383a2b2a963e4275d4e369115632f6c71d441815",
          "blockNumber": "0x751304",
          "transactionHash": "0xe1b1f897510ac45577b513ced09bef65aaea57039bcc6f2e1b888654155fc38c",
          "transactionIndex": "0x14",
          "logIndex": "0x28",
          "removed": false
        }
      ],
      "logsBloom": "0x00000004000000000000000000000000000000020000000000000000000000000100000000000000000000000000000000000000000010000000000000000000000000000000000000000008040000000000000000000000000000000000000000000000020000000000000000000800002000000000800000000010000000000000000000000000000000000000000000000000000000000000000000000000000000000000000000000000000000002000000000004000000000000000008000000002000000000000000000000000000000000000000000000000000020000000000000000000200000000000000000000000100000000000000000000000",
      "type": "0x2",
      "transactionHash": "0xe1b1f897510ac45577b513ced09bef65aaea57039bcc6f2e1b888654155fc38c",
      "transactionIndex": "0x14",
      "blockHash": "0xaded500e6260234dc0180ac2383a2b2a963e4275d4e369115632f6c71d441815",
      "blockNumber": "0x751304",
      "gasUsed": "0x2ccb8",
      "effectiveGasPrice": "0xfd",
      "from": "0xcda2fdb452ff4f5d7ba1c3d5dfcc9cb926a5eb7d",
      "to": "0x79dfbed14077b8f2421eece5707a17b161094e6a",
      "contractAddress": null,
      "l1BaseFeeScalar": "0x186a0",
      "l1BlobBaseFee": "0x1",
      "l1BlobBaseFeeScalar": "0x95506",
      "l1Fee": "0x19074e480bd",
      "l1GasPrice": "0x280bb0734",
      "l1GasUsed": "0x640"
    },
    {
      "status": "0x1",
      "cumulativeGasUsed": "0x97eab8",
      "logs": [
        {
          "address": "0x2e8af9c5922623058aa92a183b391e62cb6b2d12",
          "topics": [
            "0xddf252ad1be2c89b69c2b068fc378daa952ba7f163c4a11628f55a4df523b3ef",
            "0x0000000000000000000000000000000000000000000000000000000000000000",
            "0x000000000000000000000000cda2fdb452ff4f5d7ba1c3d5dfcc9cb926a5eb7d",
            "0x0000000000000000000000000000000000000000000000000000000000000282"
          ],
          "data": "0x",
          "blockHash": "0xaded500e6260234dc0180ac2383a2b2a963e4275d4e369115632f6c71d441815",
          "blockNumber": "0x751304",
          "transactionHash": "0x576e4eedaad0bb92e1accad420341c0bd18fd0cceb652b08126fbc7e52bf9366",
          "transactionIndex": "0x15",
          "logIndex": "0x29",
          "removed": false
        },
        {
          "address": "0x2e8af9c5922623058aa92a183b391e62cb6b2d12",
          "topics": [
            "0xf8e1a15aba9398e019f0b49df1a4fde98ee17ae345cb5f6b5e2c27f5033e8ce7"
          ],
          "data": "0x0000000000000000000000000000000000000000000000000000000000000282",
          "blockHash": "0xaded500e6260234dc0180ac2383a2b2a963e4275d4e369115632f6c71d441815",
          "blockNumber": "0x751304",
          "transactionHash": "0x576e4eedaad0bb92e1accad420341c0bd18fd0cceb652b08126fbc7e52bf9366",
          "transactionIndex": "0x15",
          "logIndex": "0x2a",
          "removed": false
        }
      ],
      "logsBloom": "0x00000000000000000000000000000000000000020000000000000000000000000000000000000000000000000000000000000000000000000000000000000000000000000000000000000008040000000000000000000000000000000000000000000000020000000000000000000800002000000100800000000010000000000000000000000000000000000000000000000000400000000000000000000000000000000000000000000000000000002000000000004000000000000000008000000002000000000000000000000000000000000000010000000000000020000000000000000000200000000000000000000000100000000000000000000000",
      "type": "0x2",
      "transactionHash": "0x576e4eedaad0bb92e1accad420341c0bd18fd0cceb652b08126fbc7e52bf9366",
      "transactionIndex": "0x15",
      "blockHash": "0xaded500e6260234dc0180ac2383a2b2a963e4275d4e369115632f6c71d441815",
      "blockNumber": "0x751304",
      "gasUsed": "0x2ccb8",
      "effectiveGasPrice": "0xfd",
      "from": "0xcda2fdb452ff4f5d7ba1c3d5dfcc9cb926a5eb7d",
      "to": "0x79dfbed14077b8f2421eece5707a17b161094e6a",
      "contractAddress": null,
      "l1BaseFeeScalar": "0x186a0",
      "l1BlobBaseFee": "0x1",
      "l1BlobBaseFeeScalar": "0x95506",
      "l1Fee": "0x19074e480bd",
      "l1GasPrice": "0x280bb0734",
      "l1GasUsed": "0x640"
    },
    {
      "status": "0x1",
      "cumulativeGasUsed": "0x9ab770",
      "logs": [
        {
          "address": "0x2e8af9c5922623058aa92a183b391e62cb6b2d12",
          "topics": [
            "0xddf252ad1be2c89b69c2b068fc378daa952ba7f163c4a11628f55a4df523b3ef",
            "0x0000000000000000000000000000000000000000000000000000000000000000",
            "0x000000000000000000000000cda2fdb452ff4f5d7ba1c3d5dfcc9cb926a5eb7d",
            "0x0000000000000000000000000000000000000000000000000000000000000283"
          ],
          "data": "0x",
          "blockHash": "0xaded500e6260234dc0180ac2383a2b2a963e4275d4e369115632f6c71d441815",
          "blockNumber": "0x751304",
          "transactionHash": "0x32888a81de8c4ea31fec9c843dcf68ad040808a446cc05b9bc8d68c6e75093c6",
          "transactionIndex": "0x16",
          "logIndex": "0x2b",
          "removed": false
        },
        {
          "address": "0x2e8af9c5922623058aa92a183b391e62cb6b2d12",
          "topics": [
            "0xf8e1a15aba9398e019f0b49df1a4fde98ee17ae345cb5f6b5e2c27f5033e8ce7"
          ],
          "data": "0x0000000000000000000000000000000000000000000000000000000000000283",
          "blockHash": "0xaded500e6260234dc0180ac2383a2b2a963e4275d4e369115632f6c71d441815",
          "blockNumber": "0x751304",
          "transactionHash": "0x32888a81de8c4ea31fec9c843dcf68ad040808a446cc05b9bc8d68c6e75093c6",
          "transactionIndex": "0x16",
          "logIndex": "0x2c",
          "removed": false
        }
      ],
      "logsBloom": "0x00000000000000000000000000000000000000020000000000000000000000000000000000000000000002000000000000000000000000000000000000000000000000000000000000000008040000000000000000000000000000000000000000000000020000000000000000000804002000000000800000000010000000000000000000000000000000000000000000000000000000000000000000000000000000000000000000000000000000002000000000004000000000000000008000000002000000000000000000000000040000000000000000000000000020000000000000000000200000000000000000000000100000000000000000000000",
      "type": "0x2",
      "transactionHash": "0x32888a81de8c4ea31fec9c843dcf68ad040808a446cc05b9bc8d68c6e75093c6",
      "transactionIndex": "0x16",
      "blockHash": "0xaded500e6260234dc0180ac2383a2b2a963e4275d4e369115632f6c71d441815",
      "blockNumber": "0x751304",
      "gasUsed": "0x2ccb8",
      "effectiveGasPrice": "0xfd",
      "from": "0xcda2fdb452ff4f5d7ba1c3d5dfcc9cb926a5eb7d",
      "to": "0x79dfbed14077b8f2421eece5707a17b161094e6a",
      "contractAddress": null,
      "l1BaseFeeScalar": "0x186a0",
      "l1BlobBaseFee": "0x1",
      "l1BlobBaseFeeScalar": "0x95506",
      "l1Fee": "0x19074e480bd",
      "l1GasPrice": "0x280bb0734",
      "l1GasUsed": "0x640"
    },
    {
      "status": "0x1",
      "cumulativeGasUsed": "0x9d8428",
      "logs": [
        {
          "address": "0x2e8af9c5922623058aa92a183b391e62cb6b2d12",
          "topics": [
            "0xddf252ad1be2c89b69c2b068fc378daa952ba7f163c4a11628f55a4df523b3ef",
            "0x0000000000000000000000000000000000000000000000000000000000000000",
            "0x000000000000000000000000cda2fdb452ff4f5d7ba1c3d5dfcc9cb926a5eb7d",
            "0x0000000000000000000000000000000000000000000000000000000000000284"
          ],
          "data": "0x",
          "blockHash": "0xaded500e6260234dc0180ac2383a2b2a963e4275d4e369115632f6c71d441815",
          "blockNumber": "0x751304",
          "transactionHash": "0x949099a2e252f64f8478e0b0dafa7a223fc1e6cb5e3c4d047b8d5def1cd035c8",
          "transactionIndex": "0x17",
          "logIndex": "0x2d",
          "removed": false
        },
        {
          "address": "0x2e8af9c5922623058aa92a183b391e62cb6b2d12",
          "topics": [
            "0xf8e1a15aba9398e019f0b49df1a4fde98ee17ae345cb5f6b5e2c27f5033e8ce7"
          ],
          "data": "0x0000000000000000000000000000000000000000000000000000000000000284",
          "blockHash": "0xaded500e6260234dc0180ac2383a2b2a963e4275d4e369115632f6c71d441815",
          "blockNumber": "0x751304",
          "transactionHash": "0x949099a2e252f64f8478e0b0dafa7a223fc1e6cb5e3c4d047b8d5def1cd035c8",
          "transactionIndex": "0x17",
          "logIndex": "0x2e",
          "removed": false
        }
      ],
      "logsBloom": "0x00000000000000000000000000000000000000020000000000000000000000000000000000000000000000000000000000000000000000000000000000000000000000000000000000000008040000000000000000000000000000000000000000000000020000080000000000000800002000000000800000000010000000200000000000000000000000000000000000000000000000000000000000000000000000000000000000000000000000002000000000004000000000000000008000000002000000000000000000000000000000000000000000000000000020000000000000000000200000000000800000000000100000000000000000000000",
      "type": "0x2",
      "transactionHash": "0x949099a2e252f64f8478e0b0dafa7a223fc1e6cb5e3c4d047b8d5def1cd035c8",
      "transactionIndex": "0x17",
      "blockHash": "0xaded500e6260234dc0180ac2383a2b2a963e4275d4e369115632f6c71d441815",
      "blockNumber": "0x751304",
      "gasUsed": "0x2ccb8",
      "effectiveGasPrice": "0xfd",
      "from": "0xcda2fdb452ff4f5d7ba1c3d5dfcc9cb926a5eb7d",
      "to": "0x79dfbed14077b8f2421eece5707a17b161094e6a",
      "contractAddress": null,
      "l1BaseFeeScalar": "0x186a0",
      "l1BlobBaseFee": "0x1",
      "l1BlobBaseFeeScalar": "0x95506",
      "l1Fee": "0x19074e480bd",
      "l1GasPrice": "0x280bb0734",
      "l1GasUsed": "0x640"
    },
    {
      "status": "0x1",
      "cumulativeGasUsed": "0xa050e0",
      "logs": [
        {
          "address": "0x2e8af9c5922623058aa92a183b391e62cb6b2d12",
          "topics": [
            "0xddf252ad1be2c89b69c2b068fc378daa952ba7f163c4a11628f55a4df523b3ef",
            "0x0000000000000000000000000000000000000000000000000000000000000000",
            "0x000000000000000000000000cda2fdb452ff4f5d7ba1c3d5dfcc9cb926a5eb7d",
            "0x0000000000000000000000000000000000000000000000000000000000000285"
          ],
          "data": "0x",
          "blockHash": "0xaded500e6260234dc0180ac2383a2b2a963e4275d4e369115632f6c71d441815",
          "blockNumber": "0x751304",
          "transactionHash": "0xbf5bb20953ce83e22bdb67c326f31d7f271f9a799fab68d55f76288c2ff30e54",
          "transactionIndex": "0x18",
          "logIndex": "0x2f",
          "removed": false
        },
        {
          "address": "0x2e8af9c5922623058aa92a183b391e62cb6b2d12",
          "topics": [
            "0xf8e1a15aba9398e019f0b49df1a4fde98ee17ae345cb5f6b5e2c27f5033e8ce7"
          ],
          "data": "0x0000000000000000000000000000000000000000000000000000000000000285",
          "blockHash": "0xaded500e6260234dc0180ac2383a2b2a963e4275d4e369115632f6c71d441815",
          "blockNumber": "0x751304",
          "transactionHash": "0xbf5bb20953ce83e22bdb67c326f31d7f271f9a799fab68d55f76288c2ff30e54",
          "transactionIndex": "0x18",
          "logIndex": "0x30",
          "removed": false
        }
      ],
      "logsBloom": "0x00000000000000000000000000000000000000020000000000000000000000000000000000000000000000000000000000000000000000000000000000000000000000002000000000000008040000000000000000000000000000000000000000000000020000000000000000000800002000000000800000000010000000000000000000000000000000000000000000000000000000000000000000000000000000000000000000000000000000002000000000004000000000000000008000000002000000000000000000000000000000000000000000000000020020000000000000000000200000000000000000000004100000000000000000000000",
      "type": "0x2",
      "transactionHash": "0xbf5bb20953ce83e22bdb67c326f31d7f271f9a799fab68d55f76288c2ff30e54",
      "transactionIndex": "0x18",
      "blockHash": "0xaded500e6260234dc0180ac2383a2b2a963e4275d4e369115632f6c71d441815",
      "blockNumber": "0x751304",
      "gasUsed": "0x2ccb8",
      "effectiveGasPrice": "0xfd",
      "from": "0xcda2fdb452ff4f5d7ba1c3d5dfcc9cb926a5eb7d",
      "to": "0x79dfbed14077b8f2421eece5707a17b161094e6a",
      "contractAddress": null,
      "l1BaseFeeScalar": "0x186a0",
      "l1BlobBaseFee": "0x1",
      "l1BlobBaseFeeScalar": "0x95506",
      "l1Fee": "0x19074e480bd",
      "l1GasPrice": "0x280bb0734",
      "l1GasUsed": "0x640"
    },
    {
      "status": "0x1",
      "cumulativeGasUsed": "0xa31d98",
      "logs": [
        {
          "address": "0x2e8af9c5922623058aa92a183b391e62cb6b2d12",
          "topics": [
            "0xddf252ad1be2c89b69c2b068fc378daa952ba7f163c4a11628f55a4df523b3ef",
            "0x0000000000000000000000000000000000000000000000000000000000000000",
            "0x000000000000000000000000cda2fdb452ff4f5d7ba1c3d5dfcc9cb926a5eb7d",
            "0x0000000000000000000000000000000000000000000000000000000000000286"
          ],
          "data": "0x",
          "blockHash": "0xaded500e6260234dc0180ac2383a2b2a963e4275d4e369115632f6c71d441815",
          "blockNumber": "0x751304",
          "transactionHash": "0x4dd9e8d6fdb4761d48281b34f601f5367f971aa5dfe58d08fc0ba9f016fea0b4",
          "transactionIndex": "0x19",
          "logIndex": "0x31",
          "removed": false
        },
        {
          "address": "0x2e8af9c5922623058aa92a183b391e62cb6b2d12",
          "topics": [
            "0xf8e1a15aba9398e019f0b49df1a4fde98ee17ae345cb5f6b5e2c27f5033e8ce7"
          ],
          "data": "0x0000000000000000000000000000000000000000000000000000000000000286",
          "blockHash": "0xaded500e6260234dc0180ac2383a2b2a963e4275d4e369115632f6c71d441815",
          "blockNumber": "0x751304",
          "transactionHash": "0x4dd9e8d6fdb4761d48281b34f601f5367f971aa5dfe58d08fc0ba9f016fea0b4",
          "transactionIndex": "0x19",
          "logIndex": "0x32",
          "removed": false
        }
      ],
      "logsBloom": "0x00000000000000000000000000000000000000020000000000000000000000000000000000000000000000000000000000000000000000000000000000000000000000000000000000000008040000000000000000000000000000000000000000000000020000000000000000000800002000000000800000000010000000000000000000000000000000000000000000000000000000000000000000000000000000000000000000000000000000002000000000004000000000004000008000000002000000000000000000000000000000000000000000000000000020000000000000000000210000020000000000000000100000000000000000000000",
      "type": "0x2",
      "transactionHash": "0x4dd9e8d6fdb4761d48281b34f601f5367f971aa5dfe58d08fc0ba9f016fea0b4",
      "transactionIndex": "0x19",
      "blockHash": "0xaded500e6260234dc0180ac2383a2b2a963e4275d4e369115632f6c71d441815",
      "blockNumber": "0x751304",
      "gasUsed": "0x2ccb8",
      "effectiveGasPrice": "0xfd",
      "from": "0xcda2fdb452ff4f5d7ba1c3d5dfcc9cb926a5eb7d",
      "to": "0x79dfbed14077b8f2421eece5707a17b161094e6a",
      "contractAddress": null,
      "l1BaseFeeScalar": "0x186a0",
      "l1BlobBaseFee": "0x1",
      "l1BlobBaseFeeScalar": "0x95506",
      "l1Fee": "0x19074e480bd",
      "l1GasPrice": "0x280bb0734",
      "l1GasUsed": "0x640"
    },
    {
      "status": "0x1",
      "cumulativeGasUsed": "0xa5ea50",
      "logs": [
        {
          "address": "0x2e8af9c5922623058aa92a183b391e62cb6b2d12",
          "topics": [
            "0xddf252ad1be2c89b69c2b068fc378daa952ba7f163c4a11628f55a4df523b3ef",
            "0x0000000000000000000000000000000000000000000000000000000000000000",
            "0x000000000000000000000000cda2fdb452ff4f5d7ba1c3d5dfcc9cb926a5eb7d",
            "0x0000000000000000000000000000000000000000000000000000000000000287"
          ],
          "data": "0x",
          "blockHash": "0xaded500e6260234dc0180ac2383a2b2a963e4275d4e369115632f6c71d441815",
          "blockNumber": "0x751304",
          "transactionHash": "0xc62a2effb68a0756986ef4a1b76f8527839a82740564f4c46100c87386d5088e",
          "transactionIndex": "0x1a",
          "logIndex": "0x33",
          "removed": false
        },
        {
          "address": "0x2e8af9c5922623058aa92a183b391e62cb6b2d12",
          "topics": [
            "0xf8e1a15aba9398e019f0b49df1a4fde98ee17ae345cb5f6b5e2c27f5033e8ce7"
          ],
          "data": "0x0000000000000000000000000000000000000000000000000000000000000287",
          "blockHash": "0xaded500e6260234dc0180ac2383a2b2a963e4275d4e369115632f6c71d441815",
          "blockNumber": "0x751304",
          "transactionHash": "0xc62a2effb68a0756986ef4a1b76f8527839a82740564f4c46100c87386d5088e",
          "transactionIndex": "0x1a",
          "logIndex": "0x34",
          "removed": false
        }
      ],
      "logsBloom": "0x00000000000000000000000000000000000000020000000000000000000000000000000000000000000000000000000000000000000000000000000000000000000000000000000000000008040000000000000000000000000000000040000000000000020000000000000000000800002000000000800000000010000000000000000000000000000000000000000000000000000000000000000000000000000000000000000000000000000000002000000000004000000000000000008000000022000000000000000000000000000000000000000000000000000020000000000000000040200000000000000000000000100000000000000000000000",
      "type": "0x2",
      "transactionHash": "0xc62a2effb68a0756986ef4a1b76f8527839a82740564f4c46100c87386d5088e",
      "transactionIndex": "0x1a",
      "blockHash": "0xaded500e6260234dc0180ac2383a2b2a963e4275d4e369115632f6c71d441815",
      "blockNumber": "0x751304",
      "gasUsed": "0x2ccb8",
      "effectiveGasPrice": "0xfd",
      "from": "0xcda2fdb452ff4f5d7ba1c3d5dfcc9cb926a5eb7d",
      "to": "0x79dfbed14077b8f2421eece5707a17b161094e6a",
      "contractAddress": null,
      "l1BaseFeeScalar": "0x186a0",
      "l1BlobBaseFee": "0x1",
      "l1BlobBaseFeeScalar": "0x95506",
      "l1Fee": "0x19074e480bd",
      "l1GasPrice": "0x280bb0734",
      "l1GasUsed": "0x640"
    },
    {
      "status": "0x1",
      "cumulativeGasUsed": "0xa8b708",
      "logs": [
        {
          "address": "0x2e8af9c5922623058aa92a183b391e62cb6b2d12",
          "topics": [
            "0xddf252ad1be2c89b69c2b068fc378daa952ba7f163c4a11628f55a4df523b3ef",
            "0x0000000000000000000000000000000000000000000000000000000000000000",
            "0x000000000000000000000000cda2fdb452ff4f5d7ba1c3d5dfcc9cb926a5eb7d",
            "0x0000000000000000000000000000000000000000000000000000000000000288"
          ],
          "data": "0x",
          "blockHash": "0xaded500e6260234dc0180ac2383a2b2a963e4275d4e369115632f6c71d441815",
          "blockNumber": "0x751304",
          "transactionHash": "0xa2c7cb5f3e21fcb02392b21822a0c2c1209d084b44e4ce29d228fcdd4b6e702f",
          "transactionIndex": "0x1b",
          "logIndex": "0x35",
          "removed": false
        },
        {
          "address": "0x2e8af9c5922623058aa92a183b391e62cb6b2d12",
          "topics": [
            "0xf8e1a15aba9398e019f0b49df1a4fde98ee17ae345cb5f6b5e2c27f5033e8ce7"
          ],
          "data": "0x0000000000000000000000000000000000000000000000000000000000000288",
          "blockHash": "0xaded500e6260234dc0180ac2383a2b2a963e4275d4e369115632f6c71d441815",
          "blockNumber": "0x751304",
          "transactionHash": "0xa2c7cb5f3e21fcb02392b21822a0c2c1209d084b44e4ce29d228fcdd4b6e702f",
          "transactionIndex": "0x1b",
          "logIndex": "0x36",
          "removed": false
        }
      ],
      "logsBloom": "0x00000000000000000000000000000000000000020000000000000000000000000000000000000000000000000000000000000000000000002000000000000000000000000000000000000008040000000000000000000000000000000000000000000000020000000000000000000800002000000000800000000010000000000000000000000000000000000000000000000000000000000000000000000000000000000000000000000000000000002000200000004000000000000000008000000002000000000000000000000000000000000000000000000000000020000000000000000000200000000000000000000000100000000100000000000000",
      "type": "0x2",
      "transactionHash": "0xa2c7cb5f3e21fcb02392b21822a0c2c1209d084b44e4ce29d228fcdd4b6e702f",
      "transactionIndex": "0x1b",
      "blockHash": "0xaded500e6260234dc0180ac2383a2b2a963e4275d4e369115632f6c71d441815",
      "blockNumber": "0x751304",
      "gasUsed": "0x2ccb8",
      "effectiveGasPrice": "0xfd",
      "from": "0xcda2fdb452ff4f5d7ba1c3d5dfcc9cb926a5eb7d",
      "to": "0x79dfbed14077b8f2421eece5707a17b161094e6a",
      "contractAddress": null,
      "l1BaseFeeScalar": "0x186a0",
      "l1BlobBaseFee": "0x1",
      "l1BlobBaseFeeScalar": "0x95506",
      "l1Fee": "0x19074e480bd",
      "l1GasPrice": "0x280bb0734",
      "l1GasUsed": "0x640"
    },
    {
      "status": "0x1",
      "cumulativeGasUsed": "0xae7b38",
      "logs": [
        {
          "address": "0x2e8af9c5922623058aa92a183b391e62cb6b2d12",
          "topics": [
            "0xddf252ad1be2c89b69c2b068fc378daa952ba7f163c4a11628f55a4df523b3ef",
            "0x0000000000000000000000000000000000000000000000000000000000000000",
            "0x000000000000000000000000cda2fdb452ff4f5d7ba1c3d5dfcc9cb926a5eb7d",
            "0x0000000000000000000000000000000000000000000000000000000000000289"
          ],
          "data": "0x",
          "blockHash": "0xaded500e6260234dc0180ac2383a2b2a963e4275d4e369115632f6c71d441815",
          "blockNumber": "0x751304",
          "transactionHash": "0x7b1d47ebee651b8443db1a752583e945f9bbaf955422d46407cf899b30630554",
          "transactionIndex": "0x1d",
          "logIndex": "0x3b",
          "removed": false
        },
        {
          "address": "0x2e8af9c5922623058aa92a183b391e62cb6b2d12",
          "topics": [
            "0xf8e1a15aba9398e019f0b49df1a4fde98ee17ae345cb5f6b5e2c27f5033e8ce7"
          ],
          "data": "0x0000000000000000000000000000000000000000000000000000000000000289",
          "blockHash": "0xaded500e6260234dc0180ac2383a2b2a963e4275d4e369115632f6c71d441815",
          "blockNumber": "0x751304",
          "transactionHash": "0x7b1d47ebee651b8443db1a752583e945f9bbaf955422d46407cf899b30630554",
          "transactionIndex": "0x1d",
          "logIndex": "0x3c",
          "removed": false
        }
      ],
      "logsBloom": "0x00000000000000000000000000000000000000020000000000000000000000000000000000000000000000000000000000000000000000000000000000000000000000000000000000000008040000000000000000000000000000000000000000000100020000000000000000000800002000000000800000000010000000000000000000000000000000000000000000000000000000000000000000000000000000000000000000000000000000002000000000004000000000000000008000000002000000000000000000000001000000000000000000000000000020000000000001000000200000000000000000000000100000000000000000000000",
      "type": "0x2",
      "transactionHash": "0x7b1d47ebee651b8443db1a752583e945f9bbaf955422d46407cf899b30630554",
      "transactionIndex": "0x1d",
      "blockHash": "0xaded500e6260234dc0180ac2383a2b2a963e4275d4e369115632f6c71d441815",
      "blockNumber": "0x751304",
      "gasUsed": "0x2ccb8",
      "effectiveGasPrice": "0xfd",
      "from": "0xcda2fdb452ff4f5d7ba1c3d5dfcc9cb926a5eb7d",
      "to": "0x79dfbed14077b8f2421eece5707a17b161094e6a",
      "contractAddress": null,
      "l1BaseFeeScalar": "0x186a0",
      "l1BlobBaseFee": "0x1",
      "l1BlobBaseFeeScalar": "0x95506",
      "l1Fee": "0x19074e480bd",
      "l1GasPrice": "0x280bb0734",
      "l1GasUsed": "0x640"
    }
  ],
  "libraries": [],
  "pending": [],
  "returns": {},
  "timestamp": 1728207152,
  "chain": 60808,
  "commit": "7d9679b"
}