{
  "transactions": [
    {
      "hash": "0x822c8b4a08c816b3138ba3c5d1c75a7853f76f623081b4a7b8e715e2a88dbeea",
      "transactionType": "CALL",
      "contractName": null,
      "contractAddress": "0x79dfbed14077b8f2421eece5707a17b161094e6a",
      "function": "wlMint(address)",
      "arguments": [
        "0x0000000000000000000000000000000000000000"
      ],
      "transaction": {
        "from": "0xcda2fdb452ff4f5d7ba1c3d5dfcc9cb926a5eb7d",
        "to": "0x79dfbed14077b8f2421eece5707a17b161094e6a",
        "gas": "0x3ddf7",
        "value": "0x0",
        "input": "0xc517b4a50000000000000000000000000000000000000000000000000000000000000000",
        "nonce": "0x1e1c",
        "chainId": "0xed88"
      },
      "additionalContracts": [],
      "isFixedGasLimit": false
    },
    {
      "hash": "0xbc06e101cf2cb3b561fd28419d13e1277931fb29ca27ed8636ca0172dd5a4d00",
      "transactionType": "CALL",
      "contractName": null,
      "contractAddress": "0x79dfbed14077b8f2421eece5707a17b161094e6a",
      "function": "wlMint(address)",
      "arguments": [
        "0x0000000000000000000000000000000000000000"
      ],
      "transaction": {
        "from": "0xcda2fdb452ff4f5d7ba1c3d5dfcc9cb926a5eb7d",
        "to": "0x79dfbed14077b8f2421eece5707a17b161094e6a",
        "gas": "0x3ddf7",
        "value": "0x0",
        "input": "0xc517b4a50000000000000000000000000000000000000000000000000000000000000000",
        "nonce": "0x1e1d",
        "chainId": "0xed88"
      },
      "additionalContracts": [],
      "isFixedGasLimit": false
    },
    {
      "hash": "0x1ca6144a15247b68401d40a3d377b0ddb9c842453e188ba02029c58278b4dafc",
      "transactionType": "CALL",
      "contractName": null,
      "contractAddress": "0x79dfbed14077b8f2421eece5707a17b161094e6a",
      "function": "wlMint(address)",
      "arguments": [
        "0x0000000000000000000000000000000000000000"
      ],
      "transaction": {
        "from": "0xcda2fdb452ff4f5d7ba1c3d5dfcc9cb926a5eb7d",
        "to": "0x79dfbed14077b8f2421eece5707a17b161094e6a",
        "gas": "0x3ddf7",
        "value": "0x0",
        "input": "0xc517b4a50000000000000000000000000000000000000000000000000000000000000000",
        "nonce": "0x1e1e",
        "chainId": "0xed88"
      },
      "additionalContracts": [],
      "isFixedGasLimit": false
    },
    {
      "hash": "0x33e7154f350649fb6e5c4a490f1fa47636de7b8fe4bf9dd66b52ee843defeb1b",
      "transactionType": "CALL",
      "contractName": null,
      "contractAddress": "0x79dfbed14077b8f2421eece5707a17b161094e6a",
      "function": "wlMint(address)",
      "arguments": [
        "0x0000000000000000000000000000000000000000"
      ],
      "transaction": {
        "from": "0xcda2fdb452ff4f5d7ba1c3d5dfcc9cb926a5eb7d",
        "to": "0x79dfbed14077b8f2421eece5707a17b161094e6a",
        "gas": "0x3ddf7",
        "value": "0x0",
        "input": "0xc517b4a50000000000000000000000000000000000000000000000000000000000000000",
        "nonce": "0x1e1f",
        "chainId": "0xed88"
      },
      "additionalContracts": [],
      "isFixedGasLimit": false
    },
    {
      "hash": "0x3796bf5845d51eab39fd5295e27e6e654942ede5ed9de0b08d9eeae8b646e048",
      "transactionType": "CALL",
      "contractName": null,
      "contractAddress": "0x79dfbed14077b8f2421eece5707a17b161094e6a",
      "function": "wlMint(address)",
      "arguments": [
        "0x0000000000000000000000000000000000000000"
      ],
      "transaction": {
        "from": "0xcda2fdb452ff4f5d7ba1c3d5dfcc9cb926a5eb7d",
        "to": "0x79dfbed14077b8f2421eece5707a17b161094e6a",
        "gas": "0x3ddf7",
        "value": "0x0",
        "input": "0xc517b4a50000000000000000000000000000000000000000000000000000000000000000",
        "nonce": "0x1e20",
        "chainId": "0xed88"
      },
      "additionalContracts": [],
      "isFixedGasLimit": false
    },
    {
      "hash": "0x608217dddebfff10388ef657b7b475aeb15d485018394c235912600dcb33c611",
      "transactionType": "CALL",
      "contractName": null,
      "contractAddress": "0x79dfbed14077b8f2421eece5707a17b161094e6a",
      "function": "wlMint(address)",
      "arguments": [
        "0x0000000000000000000000000000000000000000"
      ],
      "transaction": {
        "from": "0xcda2fdb452ff4f5d7ba1c3d5dfcc9cb926a5eb7d",
        "to": "0x79dfbed14077b8f2421eece5707a17b161094e6a",
        "gas": "0x3ddf7",
        "value": "0x0",
        "input": "0xc517b4a50000000000000000000000000000000000000000000000000000000000000000",
        "nonce": "0x1e21",
        "chainId": "0xed88"
      },
      "additionalContracts": [],
      "isFixedGasLimit": false
    },
    {
      "hash": "0xd847826af94453d17e34528b0a6fdcea76267f4753b966026f913a3d6b923b8b",
      "transactionType": "CALL",
      "contractName": null,
      "contractAddress": "0x79dfbed14077b8f2421eece5707a17b161094e6a",
      "function": "wlMint(address)",
      "arguments": [
        "0x0000000000000000000000000000000000000000"
      ],
      "transaction": {
        "from": "0xcda2fdb452ff4f5d7ba1c3d5dfcc9cb926a5eb7d",
        "to": "0x79dfbed14077b8f2421eece5707a17b161094e6a",
        "gas": "0x3ddf7",
        "value": "0x0",
        "input": "0xc517b4a50000000000000000000000000000000000000000000000000000000000000000",
        "nonce": "0x1e22",
        "chainId": "0xed88"
      },
      "additionalContracts": [],
      "isFixedGasLimit": false
    },
    {
      "hash": "0x97b2245cd977fdc89bf8417a574a1f235672be106c967a21eb10b202504e9d86",
      "transactionType": "CALL",
      "contractName": null,
      "contractAddress": "0x79dfbed14077b8f2421eece5707a17b161094e6a",
      "function": "wlMint(address)",
      "arguments": [
        "0x0000000000000000000000000000000000000000"
      ],
      "transaction": {
        "from": "0xcda2fdb452ff4f5d7ba1c3d5dfcc9cb926a5eb7d",
        "to": "0x79dfbed14077b8f2421eece5707a17b161094e6a",
        "gas": "0x3ddf7",
        "value": "0x0",
        "input": "0xc517b4a50000000000000000000000000000000000000000000000000000000000000000",
        "nonce": "0x1e23",
        "chainId": "0xed88"
      },
      "additionalContracts": [],
      "isFixedGasLimit": false
    },
    {
      "hash": "0x7a374c0b715ec6f75375b2d1a0c63b4060f15f545b3a48cbc1efb67772f9efe1",
      "transactionType": "CALL",
      "contractName": null,
      "contractAddress": "0x79dfbed14077b8f2421eece5707a17b161094e6a",
      "function": "wlMint(address)",
      "arguments": [
        "0x0000000000000000000000000000000000000000"
      ],
      "transaction": {
        "from": "0xcda2fdb452ff4f5d7ba1c3d5dfcc9cb926a5eb7d",
        "to": "0x79dfbed14077b8f2421eece5707a17b161094e6a",
        "gas": "0x3ddf7",
        "value": "0x0",
        "input": "0xc517b4a50000000000000000000000000000000000000000000000000000000000000000",
        "nonce": "0x1e24",
        "chainId": "0xed88"
      },
      "additionalContracts": [],
      "isFixedGasLimit": false
    },
    {
      "hash": "0xfbf5f373e314f5a18fd9146cea900d4669d80584b54bcf69ea47c2fcdf81cc2b",
      "transactionType": "CALL",
      "contractName": null,
      "contractAddress": "0x79dfbed14077b8f2421eece5707a17b161094e6a",
      "function": "wlMint(address)",
      "arguments": [
        "0x0000000000000000000000000000000000000000"
      ],
      "transaction": {
        "from": "0xcda2fdb452ff4f5d7ba1c3d5dfcc9cb926a5eb7d",
        "to": "0x79dfbed14077b8f2421eece5707a17b161094e6a",
        "gas": "0x3ddf7",
        "value": "0x0",
        "input": "0xc517b4a50000000000000000000000000000000000000000000000000000000000000000",
        "nonce": "0x1e25",
        "chainId": "0xed88"
      },
      "additionalContracts": [],
      "isFixedGasLimit": false
    },
    {
      "hash": "0x76d06cc1e20efb406f932b5c89a4ccea348abf8ad2b1cfa373f266310d36abbb",
      "transactionType": "CALL",
      "contractName": null,
      "contractAddress": "0x79dfbed14077b8f2421eece5707a17b161094e6a",
      "function": "wlMint(address)",
      "arguments": [
        "0x0000000000000000000000000000000000000000"
      ],
      "transaction": {
        "from": "0xcda2fdb452ff4f5d7ba1c3d5dfcc9cb926a5eb7d",
        "to": "0x79dfbed14077b8f2421eece5707a17b161094e6a",
        "gas": "0x3ddf7",
        "value": "0x0",
        "input": "0xc517b4a50000000000000000000000000000000000000000000000000000000000000000",
        "nonce": "0x1e26",
        "chainId": "0xed88"
      },
      "additionalContracts": [],
      "isFixedGasLimit": false
    },
    {
      "hash": "0x604530546d0535eb5af54d9e44030d08f7f59288bea8b91d5b734b4002fa7fe4",
      "transactionType": "CALL",
      "contractName": null,
      "contractAddress": "0x79dfbed14077b8f2421eece5707a17b161094e6a",
      "function": "wlMint(address)",
      "arguments": [
        "0x0000000000000000000000000000000000000000"
      ],
      "transaction": {
        "from": "0xcda2fdb452ff4f5d7ba1c3d5dfcc9cb926a5eb7d",
        "to": "0x79dfbed14077b8f2421eece5707a17b161094e6a",
        "gas": "0x3ddf7",
        "value": "0x0",
        "input": "0xc517b4a50000000000000000000000000000000000000000000000000000000000000000",
        "nonce": "0x1e27",
        "chainId": "0xed88"
      },
      "additionalContracts": [],
      "isFixedGasLimit": false
    },
    {
      "hash": "0xe0f58d0a4dbff5debc9cd38e72df0d98a6c148f013e661c3ae156b85ac41d087",
      "transactionType": "CALL",
      "contractName": null,
      "contractAddress": "0x79dfbed14077b8f2421eece5707a17b161094e6a",
      "function": "wlMint(address)",
      "arguments": [
        "0x0000000000000000000000000000000000000000"
      ],
      "transaction": {
        "from": "0xcda2fdb452ff4f5d7ba1c3d5dfcc9cb926a5eb7d",
        "to": "0x79dfbed14077b8f2421eece5707a17b161094e6a",
        "gas": "0x3ddf7",
        "value": "0x0",
        "input": "0xc517b4a50000000000000000000000000000000000000000000000000000000000000000",
        "nonce": "0x1e28",
        "chainId": "0xed88"
      },
      "additionalContracts": [],
      "isFixedGasLimit": false
    },
    {
      "hash": "0xc85ed42affa825d6d1f547d68e541d0ccd93744bf6589ef3e0ea6cb1abda302d",
      "transactionType": "CALL",
      "contractName": null,
      "contractAddress": "0x79dfbed14077b8f2421eece5707a17b161094e6a",
      "function": "wlMint(address)",
      "arguments": [
        "0x0000000000000000000000000000000000000000"
      ],
      "transaction": {
        "from": "0xcda2fdb452ff4f5d7ba1c3d5dfcc9cb926a5eb7d",
        "to": "0x79dfbed14077b8f2421eece5707a17b161094e6a",
        "gas": "0x3ddf7",
        "value": "0x0",
        "input": "0xc517b4a50000000000000000000000000000000000000000000000000000000000000000",
        "nonce": "0x1e29",
        "chainId": "0xed88"
      },
      "additionalContracts": [],
      "isFixedGasLimit": false
    },
    {
      "hash": "0x52418f760ad1529f063570e8729024b65254d536e1c4bf4561736b903a34d677",
      "transactionType": "CALL",
      "contractName": null,
      "contractAddress": "0x79dfbed14077b8f2421eece5707a17b161094e6a",
      "function": "wlMint(address)",
      "arguments": [
        "0x0000000000000000000000000000000000000000"
      ],
      "transaction": {
        "from": "0xcda2fdb452ff4f5d7ba1c3d5dfcc9cb926a5eb7d",
        "to": "0x79dfbed14077b8f2421eece5707a17b161094e6a",
        "gas": "0x3ddf7",
        "value": "0x0",
        "input": "0xc517b4a50000000000000000000000000000000000000000000000000000000000000000",
        "nonce": "0x1e2a",
        "chainId": "0xed88"
      },
      "additionalContracts": [],
      "isFixedGasLimit": false
    },
    {
      "hash": "0x1053b9f5bd7382df7b434bc34ead50dc66a3befdd842a3d4db8dfc5e92fc837b",
      "transactionType": "CALL",
      "contractName": null,
      "contractAddress": "0x79dfbed14077b8f2421eece5707a17b161094e6a",
      "function": "wlMint(address)",
      "arguments": [
        "0x0000000000000000000000000000000000000000"
      ],
      "transaction": {
        "from": "0xcda2fdb452ff4f5d7ba1c3d5dfcc9cb926a5eb7d",
        "to": "0x79dfbed14077b8f2421eece5707a17b161094e6a",
        "gas": "0x3ddf7",
        "value": "0x0",
        "input": "0xc517b4a50000000000000000000000000000000000000000000000000000000000000000",
        "nonce": "0x1e2b",
        "chainId": "0xed88"
      },
      "additionalContracts": [],
      "isFixedGasLimit": false
    },
    {
      "hash": "0xe336ea6b481e458246427ff18c5d13e0da5d58ec9c639570e838aa4af8a9d217",
      "transactionType": "CALL",
      "contractName": null,
      "contractAddress": "0x79dfbed14077b8f2421eece5707a17b161094e6a",
      "function": "wlMint(address)",
      "arguments": [
        "0x0000000000000000000000000000000000000000"
      ],
      "transaction": {
        "from": "0xcda2fdb452ff4f5d7ba1c3d5dfcc9cb926a5eb7d",
        "to": "0x79dfbed14077b8f2421eece5707a17b161094e6a",
        "gas": "0x3ddf7",
        "value": "0x0",
        "input": "0xc517b4a50000000000000000000000000000000000000000000000000000000000000000",
        "nonce": "0x1e2c",
        "chainId": "0xed88"
      },
      "additionalContracts": [],
      "isFixedGasLimit": false
    },
    {
      "hash": "0xf8771ec7dbf68c9d2dfa06e2731819e4a6025094a8dbd74671e1502564279626",
      "transactionType": "CALL",
      "contractName": null,
      "contractAddress": "0x79dfbed14077b8f2421eece5707a17b161094e6a",
      "function": "wlMint(address)",
      "arguments": [
        "0x0000000000000000000000000000000000000000"
      ],
      "transaction": {
        "from": "0xcda2fdb452ff4f5d7ba1c3d5dfcc9cb926a5eb7d",
        "to": "0x79dfbed14077b8f2421eece5707a17b161094e6a",
        "gas": "0x3ddf7",
        "value": "0x0",
        "input": "0xc517b4a50000000000000000000000000000000000000000000000000000000000000000",
        "nonce": "0x1e2d",
        "chainId": "0xed88"
      },
      "additionalContracts": [],
      "isFixedGasLimit": false
    },
    {
      "hash": "0x490da8b807274b90b2e547f84262e54b02f8f6378146b2d17c746bce1eb81bb5",
      "transactionType": "CALL",
      "contractName": null,
      "contractAddress": "0x79dfbed14077b8f2421eece5707a17b161094e6a",
      "function": "wlMint(address)",
      "arguments": [
        "0x0000000000000000000000000000000000000000"
      ],
      "transaction": {
        "from": "0xcda2fdb452ff4f5d7ba1c3d5dfcc9cb926a5eb7d",
        "to": "0x79dfbed14077b8f2421eece5707a17b161094e6a",
        "gas": "0x3ddf7",
        "value": "0x0",
        "input": "0xc517b4a50000000000000000000000000000000000000000000000000000000000000000",
        "nonce": "0x1e2e",
        "chainId": "0xed88"
      },
      "additionalContracts": [],
      "isFixedGasLimit": false
    },
    {
      "hash": "0x48e6ba282b77a5df9393a518685099a94d89dd8dc3cf6903a867bd2357ef6da6",
      "transactionType": "CALL",
      "contractName": null,
      "contractAddress": "0x79dfbed14077b8f2421eece5707a17b161094e6a",
      "function": "wlMint(address)",
      "arguments": [
        "0x0000000000000000000000000000000000000000"
      ],
      "transaction": {
        "from": "0xcda2fdb452ff4f5d7ba1c3d5dfcc9cb926a5eb7d",
        "to": "0x79dfbed14077b8f2421eece5707a17b161094e6a",
        "gas": "0x3ddf7",
        "value": "0x0",
        "input": "0xc517b4a50000000000000000000000000000000000000000000000000000000000000000",
        "nonce": "0x1e2f",
        "chainId": "0xed88"
      },
      "additionalContracts": [],
      "isFixedGasLimit": false
    },
    {
      "hash": "0x605e0b438034fbdf18b03767a35dea80f5e0e7dce149f806fabb9a353699724f",
      "transactionType": "CALL",
      "contractName": null,
      "contractAddress": "0x79dfbed14077b8f2421eece5707a17b161094e6a",
      "function": "wlMint(address)",
      "arguments": [
        "0x0000000000000000000000000000000000000000"
      ],
      "transaction": {
        "from": "0xcda2fdb452ff4f5d7ba1c3d5dfcc9cb926a5eb7d",
        "to": "0x79dfbed14077b8f2421eece5707a17b161094e6a",
        "gas": "0x3ddf7",
        "value": "0x0",
        "input": "0xc517b4a50000000000000000000000000000000000000000000000000000000000000000",
        "nonce": "0x1e30",
        "chainId": "0xed88"
      },
      "additionalContracts": [],
      "isFixedGasLimit": false
    },
    {
      "hash": "0x1a49cda13ec943ea8c736c441b2541788e4024868233e32857524c591167e3ce",
      "transactionType": "CALL",
      "contractName": null,
      "contractAddress": "0x79dfbed14077b8f2421eece5707a17b161094e6a",
      "function": "wlMint(address)",
      "arguments": [
        "0x0000000000000000000000000000000000000000"
      ],
      "transaction": {
        "from": "0xcda2fdb452ff4f5d7ba1c3d5dfcc9cb926a5eb7d",
        "to": "0x79dfbed14077b8f2421eece5707a17b161094e6a",
        "gas": "0x3ddf7",
        "value": "0x0",
        "input": "0xc517b4a50000000000000000000000000000000000000000000000000000000000000000",
        "nonce": "0x1e31",
        "chainId": "0xed88"
      },
      "additionalContracts": [],
      "isFixedGasLimit": false
    },
    {
      "hash": "0x708f1fd9a8136a23361ffced562ebfeecd84055004f4595a9f6a74df898b68b0",
      "transactionType": "CALL",
      "contractName": null,
      "contractAddress": "0x79dfbed14077b8f2421eece5707a17b161094e6a",
      "function": "wlMint(address)",
      "arguments": [
        "0x0000000000000000000000000000000000000000"
      ],
      "transaction": {
        "from": "0xcda2fdb452ff4f5d7ba1c3d5dfcc9cb926a5eb7d",
        "to": "0x79dfbed14077b8f2421eece5707a17b161094e6a",
        "gas": "0x3ddf7",
        "value": "0x0",
        "input": "0xc517b4a50000000000000000000000000000000000000000000000000000000000000000",
        "nonce": "0x1e32",
        "chainId": "0xed88"
      },
      "additionalContracts": [],
      "isFixedGasLimit": false
    },
    {
      "hash": "0x598aee395846626ec8ebc518c7f45257e9025c322b73bc31cb149419368b8da8",
      "transactionType": "CALL",
      "contractName": null,
      "contractAddress": "0x79dfbed14077b8f2421eece5707a17b161094e6a",
      "function": "wlMint(address)",
      "arguments": [
        "0x0000000000000000000000000000000000000000"
      ],
      "transaction": {
        "from": "0xcda2fdb452ff4f5d7ba1c3d5dfcc9cb926a5eb7d",
        "to": "0x79dfbed14077b8f2421eece5707a17b161094e6a",
        "gas": "0x3ddf7",
        "value": "0x0",
        "input": "0xc517b4a50000000000000000000000000000000000000000000000000000000000000000",
        "nonce": "0x1e33",
        "chainId": "0xed88"
      },
      "additionalContracts": [],
      "isFixedGasLimit": false
    },
    {
      "hash": "0x1cd2a5f854525c4bff1e8c9fcebcddf0a1dc8d1a98a2a9f7707debcaf93ef165",
      "transactionType": "CALL",
      "contractName": null,
      "contractAddress": "0x79dfbed14077b8f2421eece5707a17b161094e6a",
      "function": "wlMint(address)",
      "arguments": [
        "0x0000000000000000000000000000000000000000"
      ],
      "transaction": {
        "from": "0xcda2fdb452ff4f5d7ba1c3d5dfcc9cb926a5eb7d",
        "to": "0x79dfbed14077b8f2421eece5707a17b161094e6a",
        "gas": "0x3ddf7",
        "value": "0x0",
        "input": "0xc517b4a50000000000000000000000000000000000000000000000000000000000000000",
        "nonce": "0x1e34",
        "chainId": "0xed88"
      },
      "additionalContracts": [],
      "isFixedGasLimit": false
    },
    {
      "hash": "0xf7ead2e2122dfb36d0d0be328f50193133940f40507b0444e7145889bb81ff8b",
      "transactionType": "CALL",
      "contractName": null,
      "contractAddress": "0x79dfbed14077b8f2421eece5707a17b161094e6a",
      "function": "wlMint(address)",
      "arguments": [
        "0x0000000000000000000000000000000000000000"
      ],
      "transaction": {
        "from": "0xcda2fdb452ff4f5d7ba1c3d5dfcc9cb926a5eb7d",
        "to": "0x79dfbed14077b8f2421eece5707a17b161094e6a",
        "gas": "0x3ddf7",
        "value": "0x0",
        "input": "0xc517b4a50000000000000000000000000000000000000000000000000000000000000000",
        "nonce": "0x1e35",
        "chainId": "0xed88"
      },
      "additionalContracts": [],
      "isFixedGasLimit": false
    },
    {
      "hash": "0x1dff65c3b44b62a80caaca1e07c3505fc8f0c4d16ebb6ce686908b1017500df2",
      "transactionType": "CALL",
      "contractName": null,
      "contractAddress": "0x79dfbed14077b8f2421eece5707a17b161094e6a",
      "function": "wlMint(address)",
      "arguments": [
        "0x0000000000000000000000000000000000000000"
      ],
      "transaction": {
        "from": "0xcda2fdb452ff4f5d7ba1c3d5dfcc9cb926a5eb7d",
        "to": "0x79dfbed14077b8f2421eece5707a17b161094e6a",
        "gas": "0x3ddf7",
        "value": "0x0",
        "input": "0xc517b4a50000000000000000000000000000000000000000000000000000000000000000",
        "nonce": "0x1e36",
        "chainId": "0xed88"
      },
      "additionalContracts": [],
      "isFixedGasLimit": false
    },
    {
      "hash": "0xe5c9ab42cfb9f8c73a07f60cc39f97aa80459b334ad9d24b986acc2cccd241b8",
      "transactionType": "CALL",
      "contractName": null,
      "contractAddress": "0x79dfbed14077b8f2421eece5707a17b161094e6a",
      "function": "wlMint(address)",
      "arguments": [
        "0x0000000000000000000000000000000000000000"
      ],
      "transaction": {
        "from": "0xcda2fdb452ff4f5d7ba1c3d5dfcc9cb926a5eb7d",
        "to": "0x79dfbed14077b8f2421eece5707a17b161094e6a",
        "gas": "0x3ddf7",
        "value": "0x0",
        "input": "0xc517b4a50000000000000000000000000000000000000000000000000000000000000000",
        "nonce": "0x1e37",
        "chainId": "0xed88"
      },
      "additionalContracts": [],
      "isFixedGasLimit": false
    },
    {
      "hash": "0x9820251b732d7f4abf4f0b77e8670874a67d1e409323f8cf1644b717beca0b6b",
      "transactionType": "CALL",
      "contractName": null,
      "contractAddress": "0x79dfbed14077b8f2421eece5707a17b161094e6a",
      "function": "wlMint(address)",
      "arguments": [
        "0x0000000000000000000000000000000000000000"
      ],
      "transaction": {
        "from": "0xcda2fdb452ff4f5d7ba1c3d5dfcc9cb926a5eb7d",
        "to": "0x79dfbed14077b8f2421eece5707a17b161094e6a",
        "gas": "0x3ddf7",
        "value": "0x0",
        "input": "0xc517b4a50000000000000000000000000000000000000000000000000000000000000000",
        "nonce": "0x1e38",
        "chainId": "0xed88"
      },
      "additionalContracts": [],
      "isFixedGasLimit": false
    },
    {
      "hash": "0xfa4ad17fc17af8769612323cb1ad0d979ebfb608439497880233e5742c55b92c",
      "transactionType": "CALL",
      "contractName": null,
      "contractAddress": "0x79dfbed14077b8f2421eece5707a17b161094e6a",
      "function": "wlMint(address)",
      "arguments": [
        "0x0000000000000000000000000000000000000000"
      ],
      "transaction": {
        "from": "0xcda2fdb452ff4f5d7ba1c3d5dfcc9cb926a5eb7d",
        "to": "0x79dfbed14077b8f2421eece5707a17b161094e6a",
        "gas": "0x3ddf7",
        "value": "0x0",
        "input": "0xc517b4a50000000000000000000000000000000000000000000000000000000000000000",
        "nonce": "0x1e39",
        "chainId": "0xed88"
      },
      "additionalContracts": [],
      "isFixedGasLimit": false
    }
  ],
  "receipts": [
    {
      "status": "0x1",
      "cumulativeGasUsed": "0x3780f",
      "logs": [
        {
          "address": "0x2e8af9c5922623058aa92a183b391e62cb6b2d12",
          "topics": [
            "0xddf252ad1be2c89b69c2b068fc378daa952ba7f163c4a11628f55a4df523b3ef",
            "0x0000000000000000000000000000000000000000000000000000000000000000",
            "0x000000000000000000000000cda2fdb452ff4f5d7ba1c3d5dfcc9cb926a5eb7d",
            "0x0000000000000000000000000000000000000000000000000000000000000212"
          ],
          "data": "0x",
          "blockHash": "0x4c9d3c142498142c7ccb408ca1184bbcf3d8023551d3950dd67f30e2dea0d526",
          "blockNumber": "0x7512ac",
          "transactionHash": "0x822c8b4a08c816b3138ba3c5d1c75a7853f76f623081b4a7b8e715e2a88dbeea",
          "transactionIndex": "0x1",
          "logIndex": "0x0",
          "removed": false
        },
        {
          "address": "0x2e8af9c5922623058aa92a183b391e62cb6b2d12",
          "topics": [
            "0xf8e1a15aba9398e019f0b49df1a4fde98ee17ae345cb5f6b5e2c27f5033e8ce7"
          ],
          "data": "0x0000000000000000000000000000000000000000000000000000000000000212",
          "blockHash": "0x4c9d3c142498142c7ccb408ca1184bbcf3d8023551d3950dd67f30e2dea0d526",
          "blockNumber": "0x7512ac",
          "transactionHash": "0x822c8b4a08c816b3138ba3c5d1c75a7853f76f623081b4a7b8e715e2a88dbeea",
          "transactionIndex": "0x1",
          "logIndex": "0x1",
          "removed": false
        }
      ],
      "logsBloom": "0x00008000000000000000000000000000000000020000000000000000000000000000000000000000000000000000000000000000000000000000000000000000000000000000000000000008040000000000000000000000000000000000000000000000020000000000000000000800002000000000800000000010000000000000000000000000000000000000000000000000000000000000000000000000000000000000000000000000000000002000000000004000000020000000008000000002000000000000000000000000000000000000000000000002000020000000000000000000200000000000000000000000100000000000000000000000",
      "type": "0x2",
      "transactionHash": "0x822c8b4a08c816b3138ba3c5d1c75a7853f76f623081b4a7b8e715e2a88dbeea",
      "transactionIndex": "0x1",
      "blockHash": "0x4c9d3c142498142c7ccb408ca1184bbcf3d8023551d3950dd67f30e2dea0d526",
      "blockNumber": "0x7512ac",
      "gasUsed": "0x2ccb8",
      "effectiveGasPrice": "0xfd",
      "from": "0xcda2fdb452ff4f5d7ba1c3d5dfcc9cb926a5eb7d",
      "to": "0x79dfbed14077b8f2421eece5707a17b161094e6a",
      "contractAddress": null,
      "l1BaseFeeScalar": "0x186a0",
      "l1BlobBaseFee": "0x1",
      "l1BlobBaseFeeScalar": "0x95506",
      "l1Fee": "0x1939eda21bd",
      "l1GasPrice": "0x285caf69c",
      "l1GasUsed": "0x640"
    },
    {
      "status": "0x1",
      "cumulativeGasUsed": "0x644c7",
      "logs": [
        {
          "address": "0x2e8af9c5922623058aa92a183b391e62cb6b2d12",
          "topics": [
            "0xddf252ad1be2c89b69c2b068fc378daa952ba7f163c4a11628f55a4df523b3ef",
            "0x0000000000000000000000000000000000000000000000000000000000000000",
            "0x000000000000000000000000cda2fdb452ff4f5d7ba1c3d5dfcc9cb926a5eb7d",
            "0x0000000000000000000000000000000000000000000000000000000000000213"
          ],
          "data": "0x",
          "blockHash": "0x4c9d3c142498142c7ccb408ca1184bbcf3d8023551d3950dd67f30e2dea0d526",
          "blockNumber": "0x7512ac",
          "transactionHash": "0xbc06e101cf2cb3b561fd28419d13e1277931fb29ca27ed8636ca0172dd5a4d00",
          "transactionIndex": "0x2",
          "logIndex": "0x2",
          "removed": false
        },
        {
          "address": "0x2e8af9c5922623058aa92a183b391e62cb6b2d12",
          "topics": [
            "0xf8e1a15aba9398e019f0b49df1a4fde98ee17ae345cb5f6b5e2c27f5033e8ce7"
          ],
          "data": "0x0000000000000000000000000000000000000000000000000000000000000213",
          "blockHash": "0x4c9d3c142498142c7ccb408ca1184bbcf3d8023551d3950dd67f30e2dea0d526",
          "blockNumber": "0x7512ac",
          "transactionHash": "0xbc06e101cf2cb3b561fd28419d13e1277931fb29ca27ed8636ca0172dd5a4d00",
          "transactionIndex": "0x2",
          "logIndex": "0x3",
          "removed": false
        }
      ],
      "logsBloom": "0x00000000000000000000000000000000000000020000000000000000000000000000000000000000000000000000000100000000000800000000000000000000000000000000000000000008040000000000000000000000000000000000000000000000020000000000000000000800002000000000800000000010000000000000000000000000000000000000000000000000000000000000000000000000000000000040000000000000000000002000000000004000000000000000008000000002000000000000000000000000000000000000000000000000000020000000000000000000200000000000000000000000100000000000000000000000",
      "type": "0x2",
      "transactionHash": "0xbc06e101cf2cb3b561fd28419d13e1277931fb29ca27ed8636ca0172dd5a4d00",
      "transactionIndex": "0x2",
      "blockHash": "0x4c9d3c142498142c7ccb408ca1184bbcf3d8023551d3950dd67f30e2dea0d526",
      "blockNumber": "0x7512ac",
      "gasUsed": "0x2ccb8",
      "effectiveGasPrice": "0xfd",
      "from": "0xcda2fdb452ff4f5d7ba1c3d5dfcc9cb926a5eb7d",
      "to": "0x79dfbed14077b8f2421eece5707a17b161094e6a",
      "contractAddress": null,
      "l1BaseFeeScalar": "0x186a0",
      "l1BlobBaseFee": "0x1",
      "l1BlobBaseFeeScalar": "0x95506",
      "l1Fee": "0x1939eda21bd",
      "l1GasPrice": "0x285caf69c",
      "l1GasUsed": "0x640"
    },
    {
      "status": "0x1",
      "cumulativeGasUsed": "0x9117f",
      "logs": [
        {
          "address": "0x2e8af9c5922623058aa92a183b391e62cb6b2d12",
          "topics": [
            "0xddf252ad1be2c89b69c2b068fc378daa952ba7f163c4a11628f55a4df523b3ef",
            "0x0000000000000000000000000000000000000000000000000000000000000000",
            "0x000000000000000000000000cda2fdb452ff4f5d7ba1c3d5dfcc9cb926a5eb7d",
            "0x0000000000000000000000000000000000000000000000000000000000000214"
          ],
          "data": "0x",
          "blockHash": "0x4c9d3c142498142c7ccb408ca1184bbcf3d8023551d3950dd67f30e2dea0d526",
          "blockNumber": "0x7512ac",
          "transactionHash": "0x1ca6144a15247b68401d40a3d377b0ddb9c842453e188ba02029c58278b4dafc",
          "transactionIndex": "0x3",
          "logIndex": "0x4",
          "removed": false
        },
        {
          "address": "0x2e8af9c5922623058aa92a183b391e62cb6b2d12",
          "topics": [
            "0xf8e1a15aba9398e019f0b49df1a4fde98ee17ae345cb5f6b5e2c27f5033e8ce7"
          ],
          "data": "0x0000000000000000000000000000000000000000000000000000000000000214",
          "blockHash": "0x4c9d3c142498142c7ccb408ca1184bbcf3d8023551d3950dd67f30e2dea0d526",
          "blockNumber": "0x7512ac",
          "transactionHash": "0x1ca6144a15247b68401d40a3d377b0ddb9c842453e188ba02029c58278b4dafc",
          "transactionIndex": "0x3",
          "logIndex": "0x5",
          "removed": false
        }
      ],
      "logsBloom": "0x00000000000000000000000000000000000000020000000000000000000000000000000000000000000000000000000000000000000000000000000000000000000000000000000000000008040000000000000000000000000000000000000000000000020000000000000000000800002000000000800000000010000000000000000000000000000000000000000000000000000000000000000000000000000000000000200000000000000000002000000000004000000000000000008000000002080000000000000000000000200000000000000000000000000020000000000000000000200000000000000000000000100000000000000000000000",
      "type": "0x2",
      "transactionHash": "0x1ca6144a15247b68401d40a3d377b0ddb9c842453e188ba02029c58278b4dafc",
      "transactionIndex": "0x3",
      "blockHash": "0x4c9d3c142498142c7ccb408ca1184bbcf3d8023551d3950dd67f30e2dea0d526",
      "blockNumber": "0x7512ac",
      "gasUsed": "0x2ccb8",
      "effectiveGasPrice": "0xfd",
      "from": "0xcda2fdb452ff4f5d7ba1c3d5dfcc9cb926a5eb7d",
      "to": "0x79dfbed14077b8f2421eece5707a17b161094e6a",
      "contractAddress": null,
      "l1BaseFeeScalar": "0x186a0",
      "l1BlobBaseFee": "0x1",
      "l1BlobBaseFeeScalar": "0x95506",
      "l1Fee": "0x1939eda21bd",
      "l1GasPrice": "0x285caf69c",
      "l1GasUsed": "0x640"
    },
    {
      "status": "0x1",
      "cumulativeGasUsed": "0xbde37",
      "logs": [
        {
          "address": "0x2e8af9c5922623058aa92a183b391e62cb6b2d12",
          "topics": [
            "0xddf252ad1be2c89b69c2b068fc378daa952ba7f163c4a11628f55a4df523b3ef",
            "0x0000000000000000000000000000000000000000000000000000000000000000",
            "0x000000000000000000000000cda2fdb452ff4f5d7ba1c3d5dfcc9cb926a5eb7d",
            "0x0000000000000000000000000000000000000000000000000000000000000215"
          ],
          "data": "0x",
          "blockHash": "0x4c9d3c142498142c7ccb408ca1184bbcf3d8023551d3950dd67f30e2dea0d526",
          "blockNumber": "0x7512ac",
          "transactionHash": "0x33e7154f350649fb6e5c4a490f1fa47636de7b8fe4bf9dd66b52ee843defeb1b",
          "transactionIndex": "0x4",
          "logIndex": "0x6",
          "removed": false
        },
        {
          "address": "0x2e8af9c5922623058aa92a183b391e62cb6b2d12",
          "topics": [
            "0xf8e1a15aba9398e019f0b49df1a4fde98ee17ae345cb5f6b5e2c27f5033e8ce7"
          ],
          "data": "0x0000000000000000000000000000000000000000000000000000000000000215",
          "blockHash": "0x4c9d3c142498142c7ccb408ca1184bbcf3d8023551d3950dd67f30e2dea0d526",
          "blockNumber": "0x7512ac",
          "transactionHash": "0x33e7154f350649fb6e5c4a490f1fa47636de7b8fe4bf9dd66b52ee843defeb1b",
          "transactionIndex": "0x4",
          "logIndex": "0x7",
          "removed": false
        }
      ],
      "logsBloom": "0x00000000000000000000000000000000000000020000000000000000000000000000000000000000000000000000000000000000000000000000000000000000000000000000000000000008040000000000000000000000000000000000000000000000020000000000000000000800002000000000800000000010000000000000000000000000000000000000000000000000000000000000000000000000000000000000000000000000000000002000000000004000000000000000008000000012000000000000000000000000000000000000000002000000000020000000000800000000200000000000000000000000100000000000000000000000",
      "type": "0x2",
      "transactionHash": "0x33e7154f350649fb6e5c4a490f1fa47636de7b8fe4bf9dd66b52ee843defeb1b",
      "transactionIndex": "0x4",
      "blockHash": "0x4c9d3c142498142c7ccb408ca1184bbcf3d8023551d3950dd67f30e2dea0d526",
      "blockNumber": "0x7512ac",
      "gasUsed": "0x2ccb8",
      "effectiveGasPrice": "0xfd",
      "from": "0xcda2fdb452ff4f5d7ba1c3d5dfcc9cb926a5eb7d",
      "to": "0x79dfbed14077b8f2421eece5707a17b161094e6a",
      "contractAddress": null,
      "l1BaseFeeScalar": "0x186a0",
      "l1BlobBaseFee": "0x1",
      "l1BlobBaseFeeScalar": "0x95506",
      "l1Fee": "0x1939eda21bd",
      "l1GasPrice": "0x285caf69c",
      "l1GasUsed": "0x640"
    },
    {
      "status": "0x1",
      "cumulativeGasUsed": "0xeaaef",
      "logs": [
        {
          "address": "0x2e8af9c5922623058aa92a183b391e62cb6b2d12",
          "topics": [
            "0xddf252ad1be2c89b69c2b068fc378daa952ba7f163c4a11628f55a4df523b3ef",
            "0x0000000000000000000000000000000000000000000000000000000000000000",
            "0x000000000000000000000000cda2fdb452ff4f5d7ba1c3d5dfcc9cb926a5eb7d",
            "0x0000000000000000000000000000000000000000000000000000000000000216"
          ],
          "data": "0x",
          "blockHash": "0x4c9d3c142498142c7ccb408ca1184bbcf3d8023551d3950dd67f30e2dea0d526",
          "blockNumber": "0x7512ac",
          "transactionHash": "0x3796bf5845d51eab39fd5295e27e6e654942ede5ed9de0b08d9eeae8b646e048",
          "transactionIndex": "0x5",
          "logIndex": "0x8",
          "removed": false
        },
        {
          "address": "0x2e8af9c5922623058aa92a183b391e62cb6b2d12",
          "topics": [
            "0xf8e1a15aba9398e019f0b49df1a4fde98ee17ae345cb5f6b5e2c27f5033e8ce7"
          ],
          "data": "0x0000000000000000000000000000000000000000000000000000000000000216",
          "blockHash": "0x4c9d3c142498142c7ccb408ca1184bbcf3d8023551d3950dd67f30e2dea0d526",
          "blockNumber": "0x7512ac",
          "transactionHash": "0x3796bf5845d51eab39fd5295e27e6e654942ede5ed9de0b08d9eeae8b646e048",
          "transactionIndex": "0x5",
          "logIndex": "0x9",
          "removed": false
        }
      ],
      "logsBloom": "0x00000000000000000000000000000000000000020000000000000000000000000000000000000000000000000000000000000000000000000000000000000000000000000000000000000008040000000000000000000000000000000000000000000000020000000000000000000800002000000000800000000010000000000000000000000000000000000000000000000000000000000000000000000000000000000000000000000000000000002000000000004000000000000000008400000002000000000000000040000000000000000000000000000000000020000080000000000000200000000000000000000000100000000000000000000000",
      "type": "0x2",
      "transactionHash": "0x3796bf5845d51eab39fd5295e27e6e654942ede5ed9de0b08d9eeae8b646e048",
      "transactionIndex": "0x5",
      "blockHash": "0x4c9d3c142498142c7ccb408ca1184bbcf3d8023551d3950dd67f30e2dea0d526",
      "blockNumber": "0x7512ac",
      "gasUsed": "0x2ccb8",
      "effectiveGasPrice": "0xfd",
      "from": "0xcda2fdb452ff4f5d7ba1c3d5dfcc9cb926a5eb7d",
      "to": "0x79dfbed14077b8f2421eece5707a17b161094e6a",
      "contractAddress": null,
      "l1BaseFeeScalar": "0x186a0",
      "l1BlobBaseFee": "0x1",
      "l1BlobBaseFeeScalar": "0x95506",
      "l1Fee": "0x1939eda21bd",
      "l1GasPrice": "0x285caf69c",
      "l1GasUsed": "0x640"
    },
    {
      "status": "0x1",
      "cumulativeGasUsed": "0x1177a7",
      "logs": [
        {
          "address": "0x2e8af9c5922623058aa92a183b391e62cb6b2d12",
          "topics": [
            "0xddf252ad1be2c89b69c2b068fc378daa952ba7f163c4a11628f55a4df523b3ef",
            "0x0000000000000000000000000000000000000000000000000000000000000000",
            "0x000000000000000000000000cda2fdb452ff4f5d7ba1c3d5dfcc9cb926a5eb7d",
            "0x0000000000000000000000000000000000000000000000000000000000000217"
          ],
          "data": "0x",
          "blockHash": "0x4c9d3c142498142c7ccb408ca1184bbcf3d8023551d3950dd67f30e2dea0d526",
          "blockNumber": "0x7512ac",
          "transactionHash": "0x608217dddebfff10388ef657b7b475aeb15d485018394c235912600dcb33c611",
          "transactionIndex": "0x6",
          "logIndex": "0xa",
          "removed": false
        },
        {
          "address": "0x2e8af9c5922623058aa92a183b391e62cb6b2d12",
          "topics": [
            "0xf8e1a15aba9398e019f0b49df1a4fde98ee17ae345cb5f6b5e2c27f5033e8ce7"
          ],
          "data": "0x0000000000000000000000000000000000000000000000000000000000000217",
          "blockHash": "0x4c9d3c142498142c7ccb408ca1184bbcf3d8023551d3950dd67f30e2dea0d526",
          "blockNumber": "0x7512ac",
          "transactionHash": "0x608217dddebfff10388ef657b7b475aeb15d485018394c235912600dcb33c611",
          "transactionIndex": "0x6",
          "logIndex": "0xb",
          "removed": false
        }
      ],
      "logsBloom": "0x00000000000000000000000000000000000000020000000000000000000000000000000000000000000000000000000000000000000000000000000000000000000000000000000000000008040000000000000000000000000000000000000000000000020000000000000000000800002000000000800000000010000000000000000000000000020000000000000000000000000000000000000000000000000000000000001000000000000000002000000000004000000000000000008000000002000000000000000000000000000000010000000000000000000020000000000000000000200000000000000000000000100000000000000000000000",
      "type": "0x2",
      "transactionHash": "0x608217dddebfff10388ef657b7b475aeb15d485018394c235912600dcb33c611",
      "transactionIndex": "0x6",
      "blockHash": "0x4c9d3c142498142c7ccb408ca1184bbcf3d8023551d3950dd67f30e2dea0d526",
      "blockNumber": "0x7512ac",
      "gasUsed": "0x2ccb8",
      "effectiveGasPrice": "0xfd",
      "from": "0xcda2fdb452ff4f5d7ba1c3d5dfcc9cb926a5eb7d",
      "to": "0x79dfbed14077b8f2421eece5707a17b161094e6a",
      "contractAddress": null,
      "l1BaseFeeScalar": "0x186a0",
      "l1BlobBaseFee": "0x1",
      "l1BlobBaseFeeScalar": "0x95506",
      "l1Fee": "0x1939eda21bd",
      "l1GasPrice": "0x285caf69c",
      "l1GasUsed": "0x640"
    },
    {
      "status": "0x1",
      "cumulativeGasUsed": "0x14445f",
      "logs": [
        {
          "address": "0x2e8af9c5922623058aa92a183b391e62cb6b2d12",
          "topics": [
            "0xddf252ad1be2c89b69c2b068fc378daa952ba7f163c4a11628f55a4df523b3ef",
            "0x0000000000000000000000000000000000000000000000000000000000000000",
            "0x000000000000000000000000cda2fdb452ff4f5d7ba1c3d5dfcc9cb926a5eb7d",
            "0x0000000000000000000000000000000000000000000000000000000000000218"
          ],
          "data": "0x",
          "blockHash": "0x4c9d3c142498142c7ccb408ca1184bbcf3d8023551d3950dd67f30e2dea0d526",
          "blockNumber": "0x7512ac",
          "transactionHash": "0xd847826af94453d17e34528b0a6fdcea76267f4753b966026f913a3d6b923b8b",
          "transactionIndex": "0x7",
          "logIndex": "0xc",
          "removed": false
        },
        {
          "address": "0x2e8af9c5922623058aa92a183b391e62cb6b2d12",
          "topics": [
            "0xf8e1a15aba9398e019f0b49df1a4fde98ee17ae345cb5f6b5e2c27f5033e8ce7"
          ],
          "data": "0x0000000000000000000000000000000000000000000000000000000000000218",
          "blockHash": "0x4c9d3c142498142c7ccb408ca1184bbcf3d8023551d3950dd67f30e2dea0d526",
          "blockNumber": "0x7512ac",
          "transactionHash": "0xd847826af94453d17e34528b0a6fdcea76267f4753b966026f913a3d6b923b8b",
          "transactionIndex": "0x7",
          "logIndex": "0xd",
          "removed": false
        }
      ],
      "logsBloom": "0x00000000000000000000000000000000000000020000000000000000000000000000000000000000000000000000000000000000000000000000000200000000000000000000200000000008240000000000000000000000000000000000000000000000020000000000000000000800002000000000800000000010000000000000000000000000000000000000000000000000000000000000000000000000000000000000000000000000000000002000000000004000000000000000008000000002000000000000000000000000000000000000000000000000000020000000000000000000200000000000000000000000100000000000000000000000",
      "type": "0x2",
      "transactionHash": "0xd847826af94453d17e34528b0a6fdcea76267f4753b966026f913a3d6b923b8b",
      "transactionIndex": "0x7",
      "blockHash": "0x4c9d3c142498142c7ccb408ca1184bbcf3d8023551d3950dd67f30e2dea0d526",
      "blockNumber": "0x7512ac",
      "gasUsed": "0x2ccb8",
      "effectiveGasPrice": "0xfd",
      "from": "0xcda2fdb452ff4f5d7ba1c3d5dfcc9cb926a5eb7d",
      "to": "0x79dfbed14077b8f2421eece5707a17b161094e6a",
      "contractAddress": null,
      "l1BaseFeeScalar": "0x186a0",
      "l1BlobBaseFee": "0x1",
      "l1BlobBaseFeeScalar": "0x95506",
      "l1Fee": "0x1939eda21bd",
      "l1GasPrice": "0x285caf69c",
      "l1GasUsed": "0x640"
    },
    {
      "status": "0x1",
      "cumulativeGasUsed": "0x171117",
      "logs": [
        {
          "address": "0x2e8af9c5922623058aa92a183b391e62cb6b2d12",
          "topics": [
            "0xddf252ad1be2c89b69c2b068fc378daa952ba7f163c4a11628f55a4df523b3ef",
            "0x0000000000000000000000000000000000000000000000000000000000000000",
            "0x000000000000000000000000cda2fdb452ff4f5d7ba1c3d5dfcc9cb926a5eb7d",
            "0x0000000000000000000000000000000000000000000000000000000000000219"
          ],
          "data": "0x",
          "blockHash": "0x4c9d3c142498142c7ccb408ca1184bbcf3d8023551d3950dd67f30e2dea0d526",
          "blockNumber": "0x7512ac",
          "transactionHash": "0x97b2245cd977fdc89bf8417a574a1f235672be106c967a21eb10b202504e9d86",
          "transactionIndex": "0x8",
          "logIndex": "0xe",
          "removed": false
        },
        {
          "address": "0x2e8af9c5922623058aa92a183b391e62cb6b2d12",
          "topics": [
            "0xf8e1a15aba9398e019f0b49df1a4fde98ee17ae345cb5f6b5e2c27f5033e8ce7"
          ],
          "data": "0x0000000000000000000000000000000000000000000000000000000000000219",
          "blockHash": "0x4c9d3c142498142c7ccb408ca1184bbcf3d8023551d3950dd67f30e2dea0d526",
          "blockNumber": "0x7512ac",
          "transactionHash": "0x97b2245cd977fdc89bf8417a574a1f235672be106c967a21eb10b202504e9d86",
          "transactionIndex": "0x8",
          "logIndex": "0xf",
          "removed": false
        }
      ],
      "logsBloom": "0x00000000000000000000000000000000000000020000000000000000000000000000000000000000000000000000000000000000000000000000000000000000000000000000000000000008040000000000000000000000000000000000000000000000020000000000000000000800002000000000800000000010000000000000000000000000000000000000000000000000000000000000000000000000000000000000000000000000004000002000000000004000000000000000008000000002000000000000000000000000000000000000000000000000000020000010000000080000200000000000000000000000100000000000000000000000",
      "type": "0x2",
      "transactionHash": "0x97b2245cd977fdc89bf8417a574a1f235672be106c967a21eb10b202504e9d86",
      "transactionIndex": "0x8",
      "blockHash": "0x4c9d3c142498142c7ccb408ca1184bbcf3d8023551d3950dd67f30e2dea0d526",
      "blockNumber": "0x7512ac",
      "gasUsed": "0x2ccb8",
      "effectiveGasPrice": "0xfd",
      "from": "0xcda2fdb452ff4f5d7ba1c3d5dfcc9cb926a5eb7d",
      "to": "0x79dfbed14077b8f2421eece5707a17b161094e6a",
      "contractAddress": null,
      "l1BaseFeeScalar": "0x186a0",
      "l1BlobBaseFee": "0x1",
      "l1BlobBaseFeeScalar": "0x95506",
      "l1Fee": "0x1939eda21bd",
      "l1GasPrice": "0x285caf69c",
      "l1GasUsed": "0x640"
    },
    {
      "status": "0x1",
      "cumulativeGasUsed": "0x19ddcf",
      "logs": [
        {
          "address": "0x2e8af9c5922623058aa92a183b391e62cb6b2d12",
          "topics": [
            "0xddf252ad1be2c89b69c2b068fc378daa952ba7f163c4a11628f55a4df523b3ef",
            "0x0000000000000000000000000000000000000000000000000000000000000000",
            "0x000000000000000000000000cda2fdb452ff4f5d7ba1c3d5dfcc9cb926a5eb7d",
            "0x000000000000000000000000000000000000000000000000000000000000021a"
          ],
          "data": "0x",
          "blockHash": "0x4c9d3c142498142c7ccb408ca1184bbcf3d8023551d3950dd67f30e2dea0d526",
          "blockNumber": "0x7512ac",
          "transactionHash": "0x7a374c0b715ec6f75375b2d1a0c63b4060f15f545b3a48cbc1efb67772f9efe1",
          "transactionIndex": "0x9",
          "logIndex": "0x10",
          "removed": false
        },
        {
          "address": "0x2e8af9c5922623058aa92a183b391e62cb6b2d12",
          "topics": [
            "0xf8e1a15aba9398e019f0b49df1a4fde98ee17ae345cb5f6b5e2c27f5033e8ce7"
          ],
          "data": "0x000000000000000000000000000000000000000000000000000000000000021a",
          "blockHash": "0x4c9d3c142498142c7ccb408ca1184bbcf3d8023551d3950dd67f30e2dea0d526",
          "blockNumber": "0x7512ac",
          "transactionHash": "0x7a374c0b715ec6f75375b2d1a0c63b4060f15f545b3a48cbc1efb67772f9efe1",
          "transactionIndex": "0x9",
          "logIndex": "0x11",
          "removed": false
        }
      ],
      "logsBloom": "0x00000000000000000000000000000000000000020000000000000000000000000000000000000000000000000000000000000000000000000000000000000000000000000000000000000008040000000000000000000000000000000000000000000000020000020000000000000800002000000000800000000010000000000000000000000000000000000000000000000000000000000000000000000000000000000000000000000000000000002000000000004000000000000000008000000002000000000000000000000000000000000000001000040000000020000000000000000000200000000000000000000000100000000000000000000000",
      "type": "0x2",
      "transactionHash": "0x7a374c0b715ec6f75375b2d1a0c63b4060f15f545b3a48cbc1efb67772f9efe1",
      "transactionIndex": "0x9",
      "blockHash": "0x4c9d3c142498142c7ccb408ca1184bbcf3d8023551d3950dd67f30e2dea0d526",
      "blockNumber": "0x7512ac",
      "gasUsed": "0x2ccb8",
      "effectiveGasPrice": "0xfd",
      "from": "0xcda2fdb452ff4f5d7ba1c3d5dfcc9cb926a5eb7d",
      "to": "0x79dfbed14077b8f2421eece5707a17b161094e6a",
      "contractAddress": null,
      "l1BaseFeeScalar": "0x186a0",
      "l1BlobBaseFee": "0x1",
      "l1BlobBaseFeeScalar": "0x95506",
      "l1Fee": "0x1939eda21bd",
      "l1GasPrice": "0x285caf69c",
      "l1GasUsed": "0x640"
    },
    {
      "status": "0x1",
      "cumulativeGasUsed": "0x42bde",
      "logs": [
        {
          "address": "0x2e8af9c5922623058aa92a183b391e62cb6b2d12",
          "topics": [
            "0xddf252ad1be2c89b69c2b068fc378daa952ba7f163c4a11628f55a4df523b3ef",
            "0x0000000000000000000000000000000000000000000000000000000000000000",
            "0x000000000000000000000000cda2fdb452ff4f5d7ba1c3d5dfcc9cb926a5eb7d",
            "0x000000000000000000000000000000000000000000000000000000000000021b"
          ],
          "data": "0x",
          "blockHash": "0x8ef548b89c4acf9a6bfa3c6e22f611c12953703ea11490cd2bf49f7c38a11e0e",
          "blockNumber": "0x7512ad",
          "transactionHash": "0xfbf5f373e314f5a18fd9146cea900d4669d80584b54bcf69ea47c2fcdf81cc2b",
          "transactionIndex": "0x2",
          "logIndex": "0x1",
          "removed": false
        },
        {
          "address": "0x2e8af9c5922623058aa92a183b391e62cb6b2d12",
          "topics": [
            "0xf8e1a15aba9398e019f0b49df1a4fde98ee17ae345cb5f6b5e2c27f5033e8ce7"
          ],
          "data": "0x000000000000000000000000000000000000000000000000000000000000021b",
          "blockHash": "0x8ef548b89c4acf9a6bfa3c6e22f611c12953703ea11490cd2bf49f7c38a11e0e",
          "blockNumber": "0x7512ad",
          "transactionHash": "0xfbf5f373e314f5a18fd9146cea900d4669d80584b54bcf69ea47c2fcdf81cc2b",
          "transactionIndex": "0x2",
          "logIndex": "0x2",
          "removed": false
        }
      ],
      "logsBloom": "0x00000000000000000000000000000000000000020000000000000000000000000000000000000000000000000000000000000000000000000000000000000000000000000000000000000008040000000000000000000000000000000000000000000000020000000000000000000800002000000000800000000010000000000000000000000000000000000000000000000000000000000000000000000000000010000000000000000000000000002000000000004000000000000000008000000022000000000000000000800000000000000000000000000000000020000000000000000000200000000000000000000000100000000000000000000000",
      "type": "0x2",
      "transactionHash": "0xfbf5f373e314f5a18fd9146cea900d4669d80584b54bcf69ea47c2fcdf81cc2b",
      "transactionIndex": "0x2",
      "blockHash": "0x8ef548b89c4acf9a6bfa3c6e22f611c12953703ea11490cd2bf49f7c38a11e0e",
      "blockNumber": "0x7512ad",
      "gasUsed": "0x2ccb8",
      "effectiveGasPrice": "0xfd",
      "from": "0xcda2fdb452ff4f5d7ba1c3d5dfcc9cb926a5eb7d",
      "to": "0x79dfbed14077b8f2421eece5707a17b161094e6a",
      "contractAddress": null,
      "l1BaseFeeScalar": "0x186a0",
      "l1BlobBaseFee": "0x1",
      "l1BlobBaseFeeScalar": "0x95506",
      "l1Fee": "0x1939eda21bd",
      "l1GasPrice": "0x285caf69c",
      "l1GasUsed": "0x640"
    },
    {
      "status": "0x1",
      "cumulativeGasUsed": "0x6f896",
      "logs": [
        {
          "address": "0x2e8af9c5922623058aa92a183b391e62cb6b2d12",
          "topics": [
            "0xddf252ad1be2c89b69c2b068fc378daa952ba7f163c4a11628f55a4df523b3ef",
            "0x0000000000000000000000000000000000000000000000000000000000000000",
            "0x000000000000000000000000cda2fdb452ff4f5d7ba1c3d5dfcc9cb926a5eb7d",
            "0x000000000000000000000000000000000000000000000000000000000000021c"
          ],
          "data": "0x",
          "blockHash": "0x8ef548b89c4acf9a6bfa3c6e22f611c12953703ea11490cd2bf49f7c38a11e0e",
          "blockNumber": "0x7512ad",
          "transactionHash": "0x76d06cc1e20efb406f932b5c89a4ccea348abf8ad2b1cfa373f266310d36abbb",
          "transactionIndex": "0x3",
          "logIndex": "0x3",
          "removed": false
        },
        {
          "address": "0x2e8af9c5922623058aa92a183b391e62cb6b2d12",
          "topics": [
            "0xf8e1a15aba9398e019f0b49df1a4fde98ee17ae345cb5f6b5e2c27f5033e8ce7"
          ],
          "data": "0x000000000000000000000000000000000000000000000000000000000000021c",
          "blockHash": "0x8ef548b89c4acf9a6bfa3c6e22f611c12953703ea11490cd2bf49f7c38a11e0e",
          "blockNumber": "0x7512ad",
          "transactionHash": "0x76d06cc1e20efb406f932b5c89a4ccea348abf8ad2b1cfa373f266310d36abbb",
          "transactionIndex": "0x3",
          "logIndex": "0x4",
          "removed": false
        }
      ],
      "logsBloom": "0x00000000000000000000000000000000000000820000000000000000000000000000000000000000000000000000000000000000000000000010000000000000000000000000000000000008040000000000000000000000000000000000000000000000020000000000000000000800002000000000800000000010000000000000000000000000000000000000000000000000000000000000000000000000000000000000000000000000000000002000000000004000000000000000008000000002000000000000000000000000000000000000000000000100000020000000000000000000200000000000000000000000100000000000000000000000",
      "type": "0x2",
      "transactionHash": "0x76d06cc1e20efb406f932b5c89a4ccea348abf8ad2b1cfa373f266310d36abbb",
      "transactionIndex": "0x3",
      "blockHash": "0x8ef548b89c4acf9a6bfa3c6e22f611c12953703ea11490cd2bf49f7c38a11e0e",
      "blockNumber": "0x7512ad",
      "gasUsed": "0x2ccb8",
      "effectiveGasPrice": "0xfd",
      "from": "0xcda2fdb452ff4f5d7ba1c3d5dfcc9cb926a5eb7d",
      "to": "0x79dfbed14077b8f2421eece5707a17b161094e6a",
      "contractAddress": null,
      "l1BaseFeeScalar": "0x186a0",
      "l1BlobBaseFee": "0x1",
      "l1BlobBaseFeeScalar": "0x95506",
      "l1Fee": "0x1939eda21bd",
      "l1GasPrice": "0x285caf69c",
      "l1GasUsed": "0x640"
    },
    {
      "status": "0x1",
      "cumulativeGasUsed": "0x9c54e",
      "logs": [
        {
          "address": "0x2e8af9c5922623058aa92a183b391e62cb6b2d12",
          "topics": [
            "0xddf252ad1be2c89b69c2b068fc378daa952ba7f163c4a11628f55a4df523b3ef",
            "0x0000000000000000000000000000000000000000000000000000000000000000",
            "0x000000000000000000000000cda2fdb452ff4f5d7ba1c3d5dfcc9cb926a5eb7d",
            "0x000000000000000000000000000000000000000000000000000000000000021d"
          ],
          "data": "0x",
          "blockHash": "0x8ef548b89c4acf9a6bfa3c6e22f611c12953703ea11490cd2bf49f7c38a11e0e",
          "blockNumber": "0x7512ad",
          "transactionHash": "0x604530546d0535eb5af54d9e44030d08f7f59288bea8b91d5b734b4002fa7fe4",
          "transactionIndex": "0x4",
          "logIndex": "0x5",
          "removed": false
        },
        {
          "address": "0x2e8af9c5922623058aa92a183b391e62cb6b2d12",
          "topics": [
            "0xf8e1a15aba9398e019f0b49df1a4fde98ee17ae345cb5f6b5e2c27f5033e8ce7"
          ],
          "data": "0x000000000000000000000000000000000000000000000000000000000000021d",
          "blockHash": "0x8ef548b89c4acf9a6bfa3c6e22f611c12953703ea11490cd2bf49f7c38a11e0e",
          "blockNumber": "0x7512ad",
          "transactionHash": "0x604530546d0535eb5af54d9e44030d08f7f59288bea8b91d5b734b4002fa7fe4",
          "transactionIndex": "0x4",
          "logIndex": "0x6",
          "removed": false
        }
      ],
      "logsBloom": "0x00000000000000000000000000000000000000020000000000000000000000000020000000000000000000000000000000000800000000000000000000000000000000000000000000000008040000000000000000000000000000000000000000000000020000000000000000000800002000000000800000000010000000000000000000000000000000000000000000000000000000000000000000000000000000000000000000000000000000002002000000004000000000000000008000000002000000000000000000000000000000000000000000000000000020000000000000000000200000000000000000000000100000000000000000000000",
      "type": "0x2",
      "transactionHash": "0x604530546d0535eb5af54d9e44030d08f7f59288bea8b91d5b734b4002fa7fe4",
      "transactionIndex": "0x4",
      "blockHash": "0x8ef548b89c4acf9a6bfa3c6e22f611c12953703ea11490cd2bf49f7c38a11e0e",
      "blockNumber": "0x7512ad",
      "gasUsed": "0x2ccb8",
      "effectiveGasPrice": "0xfd",
      "from": "0xcda2fdb452ff4f5d7ba1c3d5dfcc9cb926a5eb7d",
      "to": "0x79dfbed14077b8f2421eece5707a17b161094e6a",
      "contractAddress": null,
      "l1BaseFeeScalar": "0x186a0",
      "l1BlobBaseFee": "0x1",
      "l1BlobBaseFeeScalar": "0x95506",
      "l1Fee": "0x1939eda21bd",
      "l1GasPrice": "0x285caf69c",
      "l1GasUsed": "0x640"
    },
    {
      "status": "0x1",
      "cumulativeGasUsed": "0xc9206",
      "logs": [
        {
          "address": "0x2e8af9c5922623058aa92a183b391e62cb6b2d12",
          "topics": [
            "0xddf252ad1be2c89b69c2b068fc378daa952ba7f163c4a11628f55a4df523b3ef",
            "0x0000000000000000000000000000000000000000000000000000000000000000",
            "0x000000000000000000000000cda2fdb452ff4f5d7ba1c3d5dfcc9cb926a5eb7d",
            "0x000000000000000000000000000000000000000000000000000000000000021e"
          ],
          "data": "0x",
          "blockHash": "0x8ef548b89c4acf9a6bfa3c6e22f611c12953703ea11490cd2bf49f7c38a11e0e",
          "blockNumber": "0x7512ad",
          "transactionHash": "0xe0f58d0a4dbff5debc9cd38e72df0d98a6c148f013e661c3ae156b85ac41d087",
          "transactionIndex": "0x5",
          "logIndex": "0x7",
          "removed": false
        },
        {
          "address": "0x2e8af9c5922623058aa92a183b391e62cb6b2d12",
          "topics": [
            "0xf8e1a15aba9398e019f0b49df1a4fde98ee17ae345cb5f6b5e2c27f5033e8ce7"
          ],
          "data": "0x000000000000000000000000000000000000000000000000000000000000021e",
          "blockHash": "0x8ef548b89c4acf9a6bfa3c6e22f611c12953703ea11490cd2bf49f7c38a11e0e",
          "blockNumber": "0x7512ad",
          "transactionHash": "0xe0f58d0a4dbff5debc9cd38e72df0d98a6c148f013e661c3ae156b85ac41d087",
          "transactionIndex": "0x5",
          "logIndex": "0x8",
          "removed": false
        }
      ],
      "logsBloom": "0x00000000000000000000000000000000000000020000000000000000000000000000000000000000000000000000000000000000000000000000000000010000000000000000000000000008040000000000000000000000400000000000000000000000020000000000000000000800002000000000800000000010000000000000000000000000000000000000000000000000000000000000000000000000000008000000000000000000000000002000000000004000000000000000008000000002000000000000000000000000000000000000000000000000000020000000000000000000200000000000000000000000100000000000000000000000",
      "type": "0x2",
      "transactionHash": "0xe0f58d0a4dbff5debc9cd38e72df0d98a6c148f013e661c3ae156b85ac41d087",
      "transactionIndex": "0x5",
      "blockHash": "0x8ef548b89c4acf9a6bfa3c6e22f611c12953703ea11490cd2bf49f7c38a11e0e",
      "blockNumber": "0x7512ad",
      "gasUsed": "0x2ccb8",
      "effectiveGasPrice": "0xfd",
      "from": "0xcda2fdb452ff4f5d7ba1c3d5dfcc9cb926a5eb7d",
      "to": "0x79dfbed14077b8f2421eece5707a17b161094e6a",
      "contractAddress": null,
      "l1BaseFeeScalar": "0x186a0",
      "l1BlobBaseFee": "0x1",
      "l1BlobBaseFeeScalar": "0x95506",
      "l1Fee": "0x1939eda21bd",
      "l1GasPrice": "0x285caf69c",
      "l1GasUsed": "0x640"
    },
    {
      "status": "0x1",
      "cumulativeGasUsed": "0xf5ebe",
      "logs": [
        {
          "address": "0x2e8af9c5922623058aa92a183b391e62cb6b2d12",
          "topics": [
            "0xddf252ad1be2c89b69c2b068fc378daa952ba7f163c4a11628f55a4df523b3ef",
            "0x0000000000000000000000000000000000000000000000000000000000000000",
            "0x000000000000000000000000cda2fdb452ff4f5d7ba1c3d5dfcc9cb926a5eb7d",
            "0x000000000000000000000000000000000000000000000000000000000000021f"
          ],
          "data": "0x",
          "blockHash": "0x8ef548b89c4acf9a6bfa3c6e22f611c12953703ea11490cd2bf49f7c38a11e0e",
          "blockNumber": "0x7512ad",
          "transactionHash": "0xc85ed42affa825d6d1f547d68e541d0ccd93744bf6589ef3e0ea6cb1abda302d",
          "transactionIndex": "0x6",
          "logIndex": "0x9",
          "removed": false
        },
        {
          "address": "0x2e8af9c5922623058aa92a183b391e62cb6b2d12",
          "topics": [
            "0xf8e1a15aba9398e019f0b49df1a4fde98ee17ae345cb5f6b5e2c27f5033e8ce7"
          ],
          "data": "0x000000000000000000000000000000000000000000000000000000000000021f",
          "blockHash": "0x8ef548b89c4acf9a6bfa3c6e22f611c12953703ea11490cd2bf49f7c38a11e0e",
          "blockNumber": "0x7512ad",
          "transactionHash": "0xc85ed42affa825d6d1f547d68e541d0ccd93744bf6589ef3e0ea6cb1abda302d",
          "transactionIndex": "0x6",
          "logIndex": "0xa",
          "removed": false
        }
      ],
      "logsBloom": "0x00000000000000000000000000000000000000020000000000000000000000000000000000000000000000000000000000000000000000080000000000000000000000000000000000000008040000000000000000000000000000000000000000000000020000000000000000000800002000000000800000000010000000000000000000000000000000000000000000000000000000000000000000000000000000000000000000000000000000002000000000004000000000000000008000000002000000000000000000001000000000000000000000000000000020000000000000000000200000000000000000000000900000000000000000000000",
      "type": "0x2",
      "transactionHash": "0xc85ed42affa825d6d1f547d68e541d0ccd93744bf6589ef3e0ea6cb1abda302d",
      "transactionIndex": "0x6",
      "blockHash": "0x8ef548b89c4acf9a6bfa3c6e22f611c12953703ea11490cd2bf49f7c38a11e0e",
      "blockNumber": "0x7512ad",
      "gasUsed": "0x2ccb8",
      "effectiveGasPrice": "0xfd",
      "from": "0xcda2fdb452ff4f5d7ba1c3d5dfcc9cb926a5eb7d",
      "to": "0x79dfbed14077b8f2421eece5707a17b161094e6a",
      "contractAddress": null,
      "l1BaseFeeScalar": "0x186a0",
      "l1BlobBaseFee": "0x1",
      "l1BlobBaseFeeScalar": "0x95506",
      "l1Fee": "0x1939eda21bd",
      "l1GasPrice": "0x285caf69c",
      "l1GasUsed": "0x640"
    },
    {
      "status": "0x1",
      "cumulativeGasUsed": "0x122b76",
      "logs": [
        {
          "address": "0x2e8af9c5922623058aa92a183b391e62cb6b2d12",
          "topics": [
            "0xddf252ad1be2c89b69c2b068fc378daa952ba7f163c4a11628f55a4df523b3ef",
            "0x0000000000000000000000000000000000000000000000000000000000000000",
            "0x000000000000000000000000cda2fdb452ff4f5d7ba1c3d5dfcc9cb926a5eb7d",
            "0x0000000000000000000000000000000000000000000000000000000000000220"
          ],
          "data": "0x",
          "blockHash": "0x8ef548b89c4acf9a6bfa3c6e22f611c12953703ea11490cd2bf49f7c38a11e0e",
          "blockNumber": "0x7512ad",
          "transactionHash": "0x52418f760ad1529f063570e8729024b65254d536e1c4bf4561736b903a34d677",
          "transactionIndex": "0x7",
          "logIndex": "0xb",
          "removed": false
        },
        {
          "address": "0x2e8af9c5922623058aa92a183b391e62cb6b2d12",
          "topics": [
            "0xf8e1a15aba9398e019f0b49df1a4fde98ee17ae345cb5f6b5e2c27f5033e8ce7"
          ],
          "data": "0x0000000000000000000000000000000000000000000000000000000000000220",
          "blockHash": "0x8ef548b89c4acf9a6bfa3c6e22f611c12953703ea11490cd2bf49f7c38a11e0e",
          "blockNumber": "0x7512ad",
          "transactionHash": "0x52418f760ad1529f063570e8729024b65254d536e1c4bf4561736b903a34d677",
          "transactionIndex": "0x7",
          "logIndex": "0xc",
          "removed": false
        }
      ],
      "logsBloom": "0x0000010000000000000000000000000000000002000000000000000000000000000000000080000000000000000000000000000000000000000000000000000000000000000000000000000804000000000000000000000000000000000000000000000002000000000000000000080000200000000080000000001000000000000000000000000000000000000000000000000000000000000000000000000000000000000000000000000000000000200000000000400000000000000000a000000002000000000000000000000000000000000000000000000000000020000000000000000000200000000000000000000000100000000000000000000000",
      "type": "0x2",
      "transactionHash": "0x52418f760ad1529f063570e8729024b65254d536e1c4bf4561736b903a34d677",
      "transactionIndex": "0x7",
      "blockHash": "0x8ef548b89c4acf9a6bfa3c6e22f611c12953703ea11490cd2bf49f7c38a11e0e",
      "blockNumber": "0x7512ad",
      "gasUsed": "0x2ccb8",
      "effectiveGasPrice": "0xfd",
      "from": "0xcda2fdb452ff4f5d7ba1c3d5dfcc9cb926a5eb7d",
      "to": "0x79dfbed14077b8f2421eece5707a17b161094e6a",
      "contractAddress": null,
      "l1BaseFeeScalar": "0x186a0",
      "l1BlobBaseFee": "0x1",
      "l1BlobBaseFeeScalar": "0x95506",
      "l1Fee": "0x1939eda21bd",
      "l1GasPrice": "0x285caf69c",
      "l1GasUsed": "0x640"
    },
    {
      "status": "0x1",
      "cumulativeGasUsed": "0x14f82e",
      "logs": [
        {
          "address": "0x2e8af9c5922623058aa92a183b391e62cb6b2d12",
          "topics": [
            "0xddf252ad1be2c89b69c2b068fc378daa952ba7f163c4a11628f55a4df523b3ef",
            "0x0000000000000000000000000000000000000000000000000000000000000000",
            "0x000000000000000000000000cda2fdb452ff4f5d7ba1c3d5dfcc9cb926a5eb7d",
            "0x0000000000000000000000000000000000000000000000000000000000000221"
          ],
          "data": "0x",
          "blockHash": "0x8ef548b89c4acf9a6bfa3c6e22f611c12953703ea11490cd2bf49f7c38a11e0e",
          "blockNumber": "0x7512ad",
          "transactionHash": "0x1053b9f5bd7382df7b434bc34ead50dc66a3befdd842a3d4db8dfc5e92fc837b",
          "transactionIndex": "0x8",
          "logIndex": "0xd",
          "removed": false
        },
        {
          "address": "0x2e8af9c5922623058aa92a183b391e62cb6b2d12",
          "topics": [
            "0xf8e1a15aba9398e019f0b49df1a4fde98ee17ae345cb5f6b5e2c27f5033e8ce7"
          ],
          "data": "0x0000000000000000000000000000000000000000000000000000000000000221",
          "blockHash": "0x8ef548b89c4acf9a6bfa3c6e22f611c12953703ea11490cd2bf49f7c38a11e0e",
          "blockNumber": "0x7512ad",
          "transactionHash": "0x1053b9f5bd7382df7b434bc34ead50dc66a3befdd842a3d4db8dfc5e92fc837b",
          "transactionIndex": "0x8",
          "logIndex": "0xe",
          "removed": false
        }
      ],
      "logsBloom": "0x00000000000000000000000000000000000000020000000000000000000000000000000000000000000000000020000000000000000000000000000000000000000000000000000000000008040000000000000000000000000000000000200000000000020000000000000000000800002000000000800000000010000000000000000000000000000000000000000000000000000000000000000000000000000000000000000000000000000000002000000000004000000000000000008000000002000000000000000000000000000000000000000000000004000020000000000000000000200000000000000000000000100000000000000000000000",
      "type": "0x2",
      "transactionHash": "0x1053b9f5bd7382df7b434bc34ead50dc66a3befdd842a3d4db8dfc5e92fc837b",
      "transactionIndex": "0x8",
      "blockHash": "0x8ef548b89c4acf9a6bfa3c6e22f611c12953703ea11490cd2bf49f7c38a11e0e",
      "blockNumber": "0x7512ad",
      "gasUsed": "0x2ccb8",
      "effectiveGasPrice": "0xfd",
      "from": "0xcda2fdb452ff4f5d7ba1c3d5dfcc9cb926a5eb7d",
      "to": "0x79dfbed14077b8f2421eece5707a17b161094e6a",
      "contractAddress": null,
      "l1BaseFeeScalar": "0x186a0",
      "l1BlobBaseFee": "0x1",
      "l1BlobBaseFeeScalar": "0x95506",
      "l1Fee": "0x1939eda21bd",
      "l1GasPrice": "0x285caf69c",
      "l1GasUsed": "0x640"
    },
    {
      "status": "0x1",
      "cumulativeGasUsed": "0x17c4e6",
      "logs": [
        {
          "address": "0x2e8af9c5922623058aa92a183b391e62cb6b2d12",
          "topics": [
            "0xddf252ad1be2c89b69c2b068fc378daa952ba7f163c4a11628f55a4df523b3ef",
            "0x0000000000000000000000000000000000000000000000000000000000000000",
            "0x000000000000000000000000cda2fdb452ff4f5d7ba1c3d5dfcc9cb926a5eb7d",
            "0x0000000000000000000000000000000000000000000000000000000000000222"
          ],
          "data": "0x",
          "blockHash": "0x8ef548b89c4acf9a6bfa3c6e22f611c12953703ea11490cd2bf49f7c38a11e0e",
          "blockNumber": "0x7512ad",
          "transactionHash": "0xe336ea6b481e458246427ff18c5d13e0da5d58ec9c639570e838aa4af8a9d217",
          "transactionIndex": "0x9",
          "logIndex": "0xf",
          "removed": false
        },
        {
          "address": "0x2e8af9c5922623058aa92a183b391e62cb6b2d12",
          "topics": [
            "0xf8e1a15aba9398e019f0b49df1a4fde98ee17ae345cb5f6b5e2c27f5033e8ce7"
          ],
          "data": "0x0000000000000000000000000000000000000000000000000000000000000222",
          "blockHash": "0x8ef548b89c4acf9a6bfa3c6e22f611c12953703ea11490cd2bf49f7c38a11e0e",
          "blockNumber": "0x7512ad",
          "transactionHash": "0xe336ea6b481e458246427ff18c5d13e0da5d58ec9c639570e838aa4af8a9d217",
          "transactionIndex": "0x9",
          "logIndex": "0x10",
          "removed": false
        }
      ],
      "logsBloom": "0x00000000000000000000000000000000000000020000000000000000000000000000000000000000000000000000000000000000000000000000000000000000000000000000000000000008040000000000000000000000000000000000000000000000020000000000000000000800002000000000800000000010000400000000000000000000000000000000000000000000000000000000000000000000000000000000000000000000000000002000000000004000000000000002008000000002000000000000000000000000000000000000000000000000000020000000000000000000200000000400000000000000100000000000000000000000",
      "type": "0x2",
      "transactionHash": "0xe336ea6b481e458246427ff18c5d13e0da5d58ec9c639570e838aa4af8a9d217",
      "transactionIndex": "0x9",
      "blockHash": "0x8ef548b89c4acf9a6bfa3c6e22f611c12953703ea11490cd2bf49f7c38a11e0e",
      "blockNumber": "0x7512ad",
      "gasUsed": "0x2ccb8",
      "effectiveGasPrice": "0xfd",
      "from": "0xcda2fdb452ff4f5d7ba1c3d5dfcc9cb926a5eb7d",
      "to": "0x79dfbed14077b8f2421eece5707a17b161094e6a",
      "contractAddress": null,
      "l1BaseFeeScalar": "0x186a0",
      "l1BlobBaseFee": "0x1",
      "l1BlobBaseFeeScalar": "0x95506",
      "l1Fee": "0x1939eda21bd",
      "l1GasPrice": "0x285caf69c",
      "l1GasUsed": "0x640"
    },
    {
      "status": "0x1",
      "cumulativeGasUsed": "0x1a919e",
      "logs": [
        {
          "address": "0x2e8af9c5922623058aa92a183b391e62cb6b2d12",
          "topics": [
            "0xddf252ad1be2c89b69c2b068fc378daa952ba7f163c4a11628f55a4df523b3ef",
            "0x0000000000000000000000000000000000000000000000000000000000000000",
            "0x000000000000000000000000cda2fdb452ff4f5d7ba1c3d5dfcc9cb926a5eb7d",
            "0x0000000000000000000000000000000000000000000000000000000000000223"
          ],
          "data": "0x",
          "blockHash": "0x8ef548b89c4acf9a6bfa3c6e22f611c12953703ea11490cd2bf49f7c38a11e0e",
          "blockNumber": "0x7512ad",
          "transactionHash": "0xf8771ec7dbf68c9d2dfa06e2731819e4a6025094a8dbd74671e1502564279626",
          "transactionIndex": "0xa",
          "logIndex": "0x11",
          "removed": false
        },
        {
          "address": "0x2e8af9c5922623058aa92a183b391e62cb6b2d12",
          "topics": [
            "0xf8e1a15aba9398e019f0b49df1a4fde98ee17ae345cb5f6b5e2c27f5033e8ce7"
          ],
          "data": "0x0000000000000000000000000000000000000000000000000000000000000223",
          "blockHash": "0x8ef548b89c4acf9a6bfa3c6e22f611c12953703ea11490cd2bf49f7c38a11e0e",
          "blockNumber": "0x7512ad",
          "transactionHash": "0xf8771ec7dbf68c9d2dfa06e2731819e4a6025094a8dbd74671e1502564279626",
          "transactionIndex": "0xa",
          "logIndex": "0x12",
          "removed": false
        }
      ],
      "logsBloom": "0x00020000000000000000000000000000000000020000000000000000000000000000000000000000000000000000000000000002000000000000000000000000000000000000000000000008040000000000000000000000000000000000000000000000020000000000000000000800002000000000800000000010000000000000000000000000000000000000000000000000000000000000000000000000000000000000000000000000000000002000000000004000000000000000008000000002000000000000000000000000000000000000000000000000000020000000000000000000200000000002000000000000100000000000000000000000",
      "type": "0x2",
      "transactionHash": "0xf8771ec7dbf68c9d2dfa06e2731819e4a6025094a8dbd74671e1502564279626",
      "transactionIndex": "0xa",
      "blockHash": "0x8ef548b89c4acf9a6bfa3c6e22f611c12953703ea11490cd2bf49f7c38a11e0e",
      "blockNumber": "0x7512ad",
      "gasUsed": "0x2ccb8",
      "effectiveGasPrice": "0xfd",
      "from": "0xcda2fdb452ff4f5d7ba1c3d5dfcc9cb926a5eb7d",
      "to": "0x79dfbed14077b8f2421eece5707a17b161094e6a",
      "contractAddress": null,
      "l1BaseFeeScalar": "0x186a0",
      "l1BlobBaseFee": "0x1",
      "l1BlobBaseFeeScalar": "0x95506",
      "l1Fee": "0x1939eda21bd",
      "l1GasPrice": "0x285caf69c",
      "l1GasUsed": "0x640"
    },
    {
      "status": "0x1",
      "cumulativeGasUsed": "0x1d5e56",
      "logs": [
        {
          "address": "0x2e8af9c5922623058aa92a183b391e62cb6b2d12",
          "topics": [
            "0xddf252ad1be2c89b69c2b068fc378daa952ba7f163c4a11628f55a4df523b3ef",
            "0x0000000000000000000000000000000000000000000000000000000000000000",
            "0x000000000000000000000000cda2fdb452ff4f5d7ba1c3d5dfcc9cb926a5eb7d",
            "0x0000000000000000000000000000000000000000000000000000000000000224"
          ],
          "data": "0x",
          "blockHash": "0x8ef548b89c4acf9a6bfa3c6e22f611c12953703ea11490cd2bf49f7c38a11e0e",
          "blockNumber": "0x7512ad",
          "transactionHash": "0x490da8b807274b90b2e547f84262e54b02f8f6378146b2d17c746bce1eb81bb5",
          "transactionIndex": "0xb",
          "logIndex": "0x13",
          "removed": false
        },
        {
          "address": "0x2e8af9c5922623058aa92a183b391e62cb6b2d12",
          "topics": [
            "0xf8e1a15aba9398e019f0b49df1a4fde98ee17ae345cb5f6b5e2c27f5033e8ce7"
          ],
          "data": "0x0000000000000000000000000000000000000000000000000000000000000224",
          "blockHash": "0x8ef548b89c4acf9a6bfa3c6e22f611c12953703ea11490cd2bf49f7c38a11e0e",
          "blockNumber": "0x7512ad",
          "transactionHash": "0x490da8b807274b90b2e547f84262e54b02f8f6378146b2d17c746bce1eb81bb5",
          "transactionIndex": "0xb",
          "logIndex": "0x14",
          "removed": false
        }
      ],
      "logsBloom": "0x00000000000000000000000000000000000000020000000000000000000000000000000000000000000000000000000000800000000000000000000000000000000000000000000000000008040000000000000000000000000000000000000000000000020000000000000000000800002000000000800000000010000000000000000000000000000000000000000000000000000000000000000000000000000000000000000000000000000000002000000000004000000000000000008000000002000800000000000000000000000000000000000000000000000020000000000000000000200000000000000000000000100001000000000000000000",
      "type": "0x2",
      "transactionHash": "0x490da8b807274b90b2e547f84262e54b02f8f6378146b2d17c746bce1eb81bb5",
      "transactionIndex": "0xb",
      "blockHash": "0x8ef548b89c4acf9a6bfa3c6e22f611c12953703ea11490cd2bf49f7c38a11e0e",
      "blockNumber": "0x7512ad",
      "gasUsed": "0x2ccb8",
      "effectiveGasPrice": "0xfd",
      "from": "0xcda2fdb452ff4f5d7ba1c3d5dfcc9cb926a5eb7d",
      "to": "0x79dfbed14077b8f2421eece5707a17b161094e6a",
      "contractAddress": null,
      "l1BaseFeeScalar": "0x186a0",
      "l1BlobBaseFee": "0x1",
      "l1BlobBaseFeeScalar": "0x95506",
      "l1Fee": "0x1939eda21bd",
      "l1GasPrice": "0x285caf69c",
      "l1GasUsed": "0x640"
    },
    {
      "status": "0x1",
      "cumulativeGasUsed": "0x202b0e",
      "logs": [
        {
          "address": "0x2e8af9c5922623058aa92a183b391e62cb6b2d12",
          "topics": [
            "0xddf252ad1be2c89b69c2b068fc378daa952ba7f163c4a11628f55a4df523b3ef",
            "0x0000000000000000000000000000000000000000000000000000000000000000",
            "0x000000000000000000000000cda2fdb452ff4f5d7ba1c3d5dfcc9cb926a5eb7d",
            "0x0000000000000000000000000000000000000000000000000000000000000225"
          ],
          "data": "0x",
          "blockHash": "0x8ef548b89c4acf9a6bfa3c6e22f611c12953703ea11490cd2bf49f7c38a11e0e",
          "blockNumber": "0x7512ad",
          "transactionHash": "0x48e6ba282b77a5df9393a518685099a94d89dd8dc3cf6903a867bd2357ef6da6",
          "transactionIndex": "0xc",
          "logIndex": "0x15",
          "removed": false
        },
        {
          "address": "0x2e8af9c5922623058aa92a183b391e62cb6b2d12",
          "topics": [
            "0xf8e1a15aba9398e019f0b49df1a4fde98ee17ae345cb5f6b5e2c27f5033e8ce7"
          ],
          "data": "0x0000000000000000000000000000000000000000000000000000000000000225",
          "blockHash": "0x8ef548b89c4acf9a6bfa3c6e22f611c12953703ea11490cd2bf49f7c38a11e0e",
          "blockNumber": "0x7512ad",
          "transactionHash": "0x48e6ba282b77a5df9393a518685099a94d89dd8dc3cf6903a867bd2357ef6da6",
          "transactionIndex": "0xc",
          "logIndex": "0x16",
          "removed": false
        }
      ],
      "logsBloom": "0x00000000000000000000000000000000000000020000000000000000000000000000000000000000000000000000000000000000000000000000000000000000000000000000000000000008040800000000000000000000000000000020000000000000020000000000000000000800002000000000800000000010000000000000000000000000000000000000000000000000200000000000000000000000000000000000000000000000000000002000000000004000000000000000008000000002000000000000000000000000000000000000000000000000000020000000000000000000200000000000000000000000100000000000000000000000",
      "type": "0x2",
      "transactionHash": "0x48e6ba282b77a5df9393a518685099a94d89dd8dc3cf6903a867bd2357ef6da6",
      "transactionIndex": "0xc",
      "blockHash": "0x8ef548b89c4acf9a6bfa3c6e22f611c12953703ea11490cd2bf49f7c38a11e0e",
      "blockNumber": "0x7512ad",
      "gasUsed": "0x2ccb8",
      "effectiveGasPrice": "0xfd",
      "from": "0xcda2fdb452ff4f5d7ba1c3d5dfcc9cb926a5eb7d",
      "to": "0x79dfbed14077b8f2421eece5707a17b161094e6a",
      "contractAddress": null,
      "l1BaseFeeScalar": "0x186a0",
      "l1BlobBaseFee": "0x1",
      "l1BlobBaseFeeScalar": "0x95506",
      "l1Fee": "0x1939eda21bd",
      "l1GasPrice": "0x285caf69c",
      "l1GasUsed": "0x640"
    },
    {
      "status": "0x1",
      "cumulativeGasUsed": "0x22f7c6",
      "logs": [
        {
          "address": "0x2e8af9c5922623058aa92a183b391e62cb6b2d12",
          "topics": [
            "0xddf252ad1be2c89b69c2b068fc378daa952ba7f163c4a11628f55a4df523b3ef",
            "0x0000000000000000000000000000000000000000000000000000000000000000",
            "0x000000000000000000000000cda2fdb452ff4f5d7ba1c3d5dfcc9cb926a5eb7d",
            "0x0000000000000000000000000000000000000000000000000000000000000226"
          ],
          "data": "0x",
          "blockHash": "0x8ef548b89c4acf9a6bfa3c6e22f611c12953703ea11490cd2bf49f7c38a11e0e",
          "blockNumber": "0x7512ad",
          "transactionHash": "0x605e0b438034fbdf18b03767a35dea80f5e0e7dce149f806fabb9a353699724f",
          "transactionIndex": "0xd",
          "logIndex": "0x17",
          "removed": false
        },
        {
          "address": "0x2e8af9c5922623058aa92a183b391e62cb6b2d12",
          "topics": [
            "0xf8e1a15aba9398e019f0b49df1a4fde98ee17ae345cb5f6b5e2c27f5033e8ce7"
          ],
          "data": "0x0000000000000000000000000000000000000000000000000000000000000226",
          "blockHash": "0x8ef548b89c4acf9a6bfa3c6e22f611c12953703ea11490cd2bf49f7c38a11e0e",
          "blockNumber": "0x7512ad",
          "transactionHash": "0x605e0b438034fbdf18b03767a35dea80f5e0e7dce149f806fabb9a353699724f",
          "transactionIndex": "0xd",
          "logIndex": "0x18",
          "removed": false
        }
      ],
      "logsBloom": "0x00000000000000000000000000000800000000020000000000000000000000000000000000000000000000000000000000000000000000000000000000000000000000000000000000000008040000000000000000000000000000000000000000000000020000000000000000000800002000000000800000000010000000000000000000000000000000000000000000000000000000000000000000000000000000000000000000000000000000002000000000004000000000000000008000000002000000000080000000000000000000000000000000000000000020000000000000000000200000000000040000000000100000000000000000000000",
      "type": "0x2",
      "transactionHash": "0x605e0b438034fbdf18b03767a35dea80f5e0e7dce149f806fabb9a353699724f",
      "transactionIndex": "0xd",
      "blockHash": "0x8ef548b89c4acf9a6bfa3c6e22f611c12953703ea11490cd2bf49f7c38a11e0e",
      "blockNumber": "0x7512ad",
      "gasUsed": "0x2ccb8",
      "effectiveGasPrice": "0xfd",
      "from": "0xcda2fdb452ff4f5d7ba1c3d5dfcc9cb926a5eb7d",
      "to": "0x79dfbed14077b8f2421eece5707a17b161094e6a",
      "contractAddress": null,
      "l1BaseFeeScalar": "0x186a0",
      "l1BlobBaseFee": "0x1",
      "l1BlobBaseFeeScalar": "0x95506",
      "l1Fee": "0x1939eda21bd",
      "l1GasPrice": "0x285caf69c",
      "l1GasUsed": "0x640"
    },
    {
      "status": "0x1",
      "cumulativeGasUsed": "0x25c47e",
      "logs": [
        {
          "address": "0x2e8af9c5922623058aa92a183b391e62cb6b2d12",
          "topics": [
            "0xddf252ad1be2c89b69c2b068fc378daa952ba7f163c4a11628f55a4df523b3ef",
            "0x0000000000000000000000000000000000000000000000000000000000000000",
            "0x000000000000000000000000cda2fdb452ff4f5d7ba1c3d5dfcc9cb926a5eb7d",
            "0x0000000000000000000000000000000000000000000000000000000000000227"
          ],
          "data": "0x",
          "blockHash": "0x8ef548b89c4acf9a6bfa3c6e22f611c12953703ea11490cd2bf49f7c38a11e0e",
          "blockNumber": "0x7512ad",
          "transactionHash": "0x1a49cda13ec943ea8c736c441b2541788e4024868233e32857524c591167e3ce",
          "transactionIndex": "0xe",
          "logIndex": "0x19",
          "removed": false
        },
        {
          "address": "0x2e8af9c5922623058aa92a183b391e62cb6b2d12",
          "topics": [
            "0xf8e1a15aba9398e019f0b49df1a4fde98ee17ae345cb5f6b5e2c27f5033e8ce7"
          ],
          "data": "0x0000000000000000000000000000000000000000000000000000000000000227",
          "blockHash": "0x8ef548b89c4acf9a6bfa3c6e22f611c12953703ea11490cd2bf49f7c38a11e0e",
          "blockNumber": "0x7512ad",
          "transactionHash": "0x1a49cda13ec943ea8c736c441b2541788e4024868233e32857524c591167e3ce",
          "transactionIndex": "0xe",
          "logIndex": "0x1a",
          "removed": false
        }
      ],
      "logsBloom": "0x00000000000000000000000000000000000000020000000000000000000000000000000000000000000000000000000000000000000000000000000000000000000000000000000000000008040000000800000000000000000000000000000000000000020000000000000000000800002000000000800000000010000000000000000000000000000000000000000000000000000000000000000000000000000000000000000000000000000000002000000000004000000000000000008000000002000000000000001000000080000000000000000000000000000020000000000000000000200000000000000000000000100000000000000000000000",
      "type": "0x2",
      "transactionHash": "0x1a49cda13ec943ea8c736c441b2541788e4024868233e32857524c591167e3ce",
      "transactionIndex": "0xe",
      "blockHash": "0x8ef548b89c4acf9a6bfa3c6e22f611c12953703ea11490cd2bf49f7c38a11e0e",
      "blockNumber": "0x7512ad",
      "gasUsed": "0x2ccb8",
      "effectiveGasPrice": "0xfd",
      "from": "0xcda2fdb452ff4f5d7ba1c3d5dfcc9cb926a5eb7d",
      "to": "0x79dfbed14077b8f2421eece5707a17b161094e6a",
      "contractAddress": null,
      "l1BaseFeeScalar": "0x186a0",
      "l1BlobBaseFee": "0x1",
      "l1BlobBaseFeeScalar": "0x95506",
      "l1Fee": "0x1939eda21bd",
      "l1GasPrice": "0x285caf69c",
      "l1GasUsed": "0x640"
    },
    {
      "status": "0x1",
      "cumulativeGasUsed": "0x289136",
      "logs": [
        {
          "address": "0x2e8af9c5922623058aa92a183b391e62cb6b2d12",
          "topics": [
            "0xddf252ad1be2c89b69c2b068fc378daa952ba7f163c4a11628f55a4df523b3ef",
            "0x0000000000000000000000000000000000000000000000000000000000000000",
            "0x000000000000000000000000cda2fdb452ff4f5d7ba1c3d5dfcc9cb926a5eb7d",
            "0x0000000000000000000000000000000000000000000000000000000000000228"
          ],
          "data": "0x",
          "blockHash": "0x8ef548b89c4acf9a6bfa3c6e22f611c12953703ea11490cd2bf49f7c38a11e0e",
          "blockNumber": "0x7512ad",
          "transactionHash": "0x708f1fd9a8136a23361ffced562ebfeecd84055004f4595a9f6a74df898b68b0",
          "transactionIndex": "0xf",
          "logIndex": "0x1b",
          "removed": false
        },
        {
          "address": "0x2e8af9c5922623058aa92a183b391e62cb6b2d12",
          "topics": [
            "0xf8e1a15aba9398e019f0b49df1a4fde98ee17ae345cb5f6b5e2c27f5033e8ce7"
          ],
          "data": "0x0000000000000000000000000000000000000000000000000000000000000228",
          "blockHash": "0x8ef548b89c4acf9a6bfa3c6e22f611c12953703ea11490cd2bf49f7c38a11e0e",
          "blockNumber": "0x7512ad",
          "transactionHash": "0x708f1fd9a8136a23361ffced562ebfeecd84055004f4595a9f6a74df898b68b0",
          "transactionIndex": "0xf",
          "logIndex": "0x1c",
          "removed": false
        }
      ],
      "logsBloom": "0x00000000000000000000000000000000000000020000000000000000000000000000000000000000000000000000000000000000100000000000000000000000000000000000000000000008040000000000000000000000000000000000000000000000020000000000000000000800002000000000800000000010000000000000000000000000000000000000000000000000000000000000000000000000400000000000000000000000000000002000000000004000000000001000008000000002000000000000000000000000000000000000000000000000000020000000000000000000200000000000000000000000100000000000000000000000",
      "type": "0x2",
      "transactionHash": "0x708f1fd9a8136a23361ffced562ebfeecd84055004f4595a9f6a74df898b68b0",
      "transactionIndex": "0xf",
      "blockHash": "0x8ef548b89c4acf9a6bfa3c6e22f611c12953703ea11490cd2bf49f7c38a11e0e",
      "blockNumber": "0x7512ad",
      "gasUsed": "0x2ccb8",
      "effectiveGasPrice": "0xfd",
      "from": "0xcda2fdb452ff4f5d7ba1c3d5dfcc9cb926a5eb7d",
      "to": "0x79dfbed14077b8f2421eece5707a17b161094e6a",
      "contractAddress": null,
      "l1BaseFeeScalar": "0x186a0",
      "l1BlobBaseFee": "0x1",
      "l1BlobBaseFeeScalar": "0x95506",
      "l1Fee": "0x1939eda21bd",
      "l1GasPrice": "0x285caf69c",
      "l1GasUsed": "0x640"
    },
    {
      "status": "0x1",
      "cumulativeGasUsed": "0x2b5dee",
      "logs": [
        {
          "address": "0x2e8af9c5922623058aa92a183b391e62cb6b2d12",
          "topics": [
            "0xddf252ad1be2c89b69c2b068fc378daa952ba7f163c4a11628f55a4df523b3ef",
            "0x0000000000000000000000000000000000000000000000000000000000000000",
            "0x000000000000000000000000cda2fdb452ff4f5d7ba1c3d5dfcc9cb926a5eb7d",
            "0x0000000000000000000000000000000000000000000000000000000000000229"
          ],
          "data": "0x",
          "blockHash": "0x8ef548b89c4acf9a6bfa3c6e22f611c12953703ea11490cd2bf49f7c38a11e0e",
          "blockNumber": "0x7512ad",
          "transactionHash": "0x598aee395846626ec8ebc518c7f45257e9025c322b73bc31cb149419368b8da8",
          "transactionIndex": "0x10",
          "logIndex": "0x1d",
          "removed": false
        },
        {
          "address": "0x2e8af9c5922623058aa92a183b391e62cb6b2d12",
          "topics": [
            "0xf8e1a15aba9398e019f0b49df1a4fde98ee17ae345cb5f6b5e2c27f5033e8ce7"
          ],
          "data": "0x0000000000000000000000000000000000000000000000000000000000000229",
          "blockHash": "0x8ef548b89c4acf9a6bfa3c6e22f611c12953703ea11490cd2bf49f7c38a11e0e",
          "blockNumber": "0x7512ad",
          "transactionHash": "0x598aee395846626ec8ebc518c7f45257e9025c322b73bc31cb149419368b8da8",
          "transactionIndex": "0x10",
          "logIndex": "0x1e",
          "removed": false
        }
      ],
      "logsBloom": "0x00000000000000000000000000000000000000020000000000000000000000000000000000000000000000000000000000000000000000000000000000000000000000000000000000000008040000000000000000000000100000000000000000000000020000000000000000000800002000000000800000000010000000000000000000000000100000000000000000000000000000000000000000000000000000000000000000000000000100002000000000004000000000000000008000000002000000000000000000000000000000000000000000000000000020000000000000000000200000000000000000000000100000000000000000000000",
      "type": "0x2",
      "transactionHash": "0x598aee395846626ec8ebc518c7f45257e9025c322b73bc31cb149419368b8da8",
      "transactionIndex": "0x10",
      "blockHash": "0x8ef548b89c4acf9a6bfa3c6e22f611c12953703ea11490cd2bf49f7c38a11e0e",
      "blockNumber": "0x7512ad",
      "gasUsed": "0x2ccb8",
      "effectiveGasPrice": "0xfd",
      "from": "0xcda2fdb452ff4f5d7ba1c3d5dfcc9cb926a5eb7d",
      "to": "0x79dfbed14077b8f2421eece5707a17b161094e6a",
      "contractAddress": null,
      "l1BaseFeeScalar": "0x186a0",
      "l1BlobBaseFee": "0x1",
      "l1BlobBaseFeeScalar": "0x95506",
      "l1Fee": "0x1939eda21bd",
      "l1GasPrice": "0x285caf69c",
      "l1GasUsed": "0x640"
    },
    {
      "status": "0x1",
      "cumulativeGasUsed": "0x2e2aa6",
      "logs": [
        {
          "address": "0x2e8af9c5922623058aa92a183b391e62cb6b2d12",
          "topics": [
            "0xddf252ad1be2c89b69c2b068fc378daa952ba7f163c4a11628f55a4df523b3ef",
            "0x0000000000000000000000000000000000000000000000000000000000000000",
            "0x000000000000000000000000cda2fdb452ff4f5d7ba1c3d5dfcc9cb926a5eb7d",
            "0x000000000000000000000000000000000000000000000000000000000000022a"
          ],
          "data": "0x",
          "blockHash": "0x8ef548b89c4acf9a6bfa3c6e22f611c12953703ea11490cd2bf49f7c38a11e0e",
          "blockNumber": "0x7512ad",
          "transactionHash": "0x1cd2a5f854525c4bff1e8c9fcebcddf0a1dc8d1a98a2a9f7707debcaf93ef165",
          "transactionIndex": "0x11",
          "logIndex": "0x1f",
          "removed": false
        },
        {
          "address": "0x2e8af9c5922623058aa92a183b391e62cb6b2d12",
          "topics": [
            "0xf8e1a15aba9398e019f0b49df1a4fde98ee17ae345cb5f6b5e2c27f5033e8ce7"
          ],
          "data": "0x000000000000000000000000000000000000000000000000000000000000022a",
          "blockHash": "0x8ef548b89c4acf9a6bfa3c6e22f611c12953703ea11490cd2bf49f7c38a11e0e",
          "blockNumber": "0x7512ad",
          "transactionHash": "0x1cd2a5f854525c4bff1e8c9fcebcddf0a1dc8d1a98a2a9f7707debcaf93ef165",
          "transactionIndex": "0x11",
          "logIndex": "0x20",
          "removed": false
        }
      ],
      "logsBloom": "0x00000000000000000000000000000000000000020000000000000000000000000000000000000000000000000000000000000000000000000000000000000000000020000000000000000008040000000000000000000020000000000000000000000000020000000000002000000800002000000000800000000010000000000000000000000000000000000000000000000000000000000000000000000000000000000000000000000000000000002000000000004000000000000000008000000002000000000000000000000000000000000000000000000000000020000000000000000000200000000000000000000000100000000000000000000000",
      "type": "0x2",
      "transactionHash": "0x1cd2a5f854525c4bff1e8c9fcebcddf0a1dc8d1a98a2a9f7707debcaf93ef165",
      "transactionIndex": "0x11",
      "blockHash": "0x8ef548b89c4acf9a6bfa3c6e22f611c12953703ea11490cd2bf49f7c38a11e0e",
      "blockNumber": "0x7512ad",
      "gasUsed": "0x2ccb8",
      "effectiveGasPrice": "0xfd",
      "from": "0xcda2fdb452ff4f5d7ba1c3d5dfcc9cb926a5eb7d",
      "to": "0x79dfbed14077b8f2421eece5707a17b161094e6a",
      "contractAddress": null,
      "l1BaseFeeScalar": "0x186a0",
      "l1BlobBaseFee": "0x1",
      "l1BlobBaseFeeScalar": "0x95506",
      "l1Fee": "0x1939eda21bd",
      "l1GasPrice": "0x285caf69c",
      "l1GasUsed": "0x640"
    },
    {
      "status": "0x1",
      "cumulativeGasUsed": "0x30f75e",
      "logs": [
        {
          "address": "0x2e8af9c5922623058aa92a183b391e62cb6b2d12",
          "topics": [
            "0xddf252ad1be2c89b69c2b068fc378daa952ba7f163c4a11628f55a4df523b3ef",
            "0x0000000000000000000000000000000000000000000000000000000000000000",
            "0x000000000000000000000000cda2fdb452ff4f5d7ba1c3d5dfcc9cb926a5eb7d",
            "0x000000000000000000000000000000000000000000000000000000000000022b"
          ],
          "data": "0x",
          "blockHash": "0x8ef548b89c4acf9a6bfa3c6e22f611c12953703ea11490cd2bf49f7c38a11e0e",
          "blockNumber": "0x7512ad",
          "transactionHash": "0xf7ead2e2122dfb36d0d0be328f50193133940f40507b0444e7145889bb81ff8b",
          "transactionIndex": "0x12",
          "logIndex": "0x21",
          "removed": false
        },
        {
          "address": "0x2e8af9c5922623058aa92a183b391e62cb6b2d12",
          "topics": [
            "0xf8e1a15aba9398e019f0b49df1a4fde98ee17ae345cb5f6b5e2c27f5033e8ce7"
          ],
          "data": "0x000000000000000000000000000000000000000000000000000000000000022b",
          "blockHash": "0x8ef548b89c4acf9a6bfa3c6e22f611c12953703ea11490cd2bf49f7c38a11e0e",
          "blockNumber": "0x7512ad",
          "transactionHash": "0xf7ead2e2122dfb36d0d0be328f50193133940f40507b0444e7145889bb81ff8b",
          "transactionIndex": "0x12",
          "logIndex": "0x22",
          "removed": false
        }
      ],
      "logsBloom": "0x00000000000000000000000000000000000000020000000000000000000000000000000000000000000000000000000000000000000080000000000000000000000000000000000000000008040004000000020000000000000000000000000000000000020000000000000000000800002000000000800000000010000000000000000000000000000000000000000000000000000000000000000000000000000000000000000000000000000000002000000000004000000000000000008000000002000000000000000000000000000000000000000000000000000020000000000000000000200000000000000000000000100000000000000000000000",
      "type": "0x2",
      "transactionHash": "0xf7ead2e2122dfb36d0d0be328f50193133940f40507b0444e7145889bb81ff8b",
      "transactionIndex": "0x12",
      "blockHash": "0x8ef548b89c4acf9a6bfa3c6e22f611c12953703ea11490cd2bf49f7c38a11e0e",
      "blockNumber": "0x7512ad",
      "gasUsed": "0x2ccb8",
      "effectiveGasPrice": "0xfd",
      "from": "0xcda2fdb452ff4f5d7ba1c3d5dfcc9cb926a5eb7d",
      "to": "0x79dfbed14077b8f2421eece5707a17b161094e6a",
      "contractAddress": null,
      "l1BaseFeeScalar": "0x186a0",
      "l1BlobBaseFee": "0x1",
      "l1BlobBaseFeeScalar": "0x95506",
      "l1Fee": "0x1939eda21bd",
      "l1GasPrice": "0x285caf69c",
      "l1GasUsed": "0x640"
    },
    {
      "status": "0x1",
      "cumulativeGasUsed": "0x33c416",
      "logs": [
        {
          "address": "0x2e8af9c5922623058aa92a183b391e62cb6b2d12",
          "topics": [
            "0xddf252ad1be2c89b69c2b068fc378daa952ba7f163c4a11628f55a4df523b3ef",
            "0x0000000000000000000000000000000000000000000000000000000000000000",
            "0x000000000000000000000000cda2fdb452ff4f5d7ba1c3d5dfcc9cb926a5eb7d",
            "0x000000000000000000000000000000000000000000000000000000000000022c"
          ],
          "data": "0x",
          "blockHash": "0x8ef548b89c4acf9a6bfa3c6e22f611c12953703ea11490cd2bf49f7c38a11e0e",
          "blockNumber": "0x7512ad",
          "transactionHash": "0x1dff65c3b44b62a80caaca1e07c3505fc8f0c4d16ebb6ce686908b1017500df2",
          "transactionIndex": "0x13",
          "logIndex": "0x23",
          "removed": false
        },
        {
          "address": "0x2e8af9c5922623058aa92a183b391e62cb6b2d12",
          "topics": [
            "0xf8e1a15aba9398e019f0b49df1a4fde98ee17ae345cb5f6b5e2c27f5033e8ce7"
          ],
          "data": "0x000000000000000000000000000000000000000000000000000000000000022c",
          "blockHash": "0x8ef548b89c4acf9a6bfa3c6e22f611c12953703ea11490cd2bf49f7c38a11e0e",
          "blockNumber": "0x7512ad",
          "transactionHash": "0x1dff65c3b44b62a80caaca1e07c3505fc8f0c4d16ebb6ce686908b1017500df2",
          "transactionIndex": "0x13",
          "logIndex": "0x24",
          "removed": false
        }
      ],
      "logsBloom": "0x00000000000000000000000000000000000000020000000000000000000000000000000000000000000040000000000000000000000000000000000000000000000000000002000000000008040000000000000000000000000000000000000000000000020000000000000000080800002000000000800000000010000000000000000000000000000000000000000000000000000000000000000000000000000000000000000000000000000000002000000000004000000000000000008000000002000000000000000000000000000000000000000000000000000020000000000000000000200000000000000000000000100000000000000000000000",
      "type": "0x2",
      "transactionHash": "0x1dff65c3b44b62a80caaca1e07c3505fc8f0c4d16ebb6ce686908b1017500df2",
      "transactionIndex": "0x13",
      "blockHash": "0x8ef548b89c4acf9a6bfa3c6e22f611c12953703ea11490cd2bf49f7c38a11e0e",
      "blockNumber": "0x7512ad",
      "gasUsed": "0x2ccb8",
      "effectiveGasPrice": "0xfd",
      "from": "0xcda2fdb452ff4f5d7ba1c3d5dfcc9cb926a5eb7d",
      "to": "0x79dfbed14077b8f2421eece5707a17b161094e6a",
      "contractAddress": null,
      "l1BaseFeeScalar": "0x186a0",
      "l1BlobBaseFee": "0x1",
      "l1BlobBaseFeeScalar": "0x95506",
      "l1Fee": "0x1939eda21bd",
      "l1GasPrice": "0x285caf69c",
      "l1GasUsed": "0x640"
    },
    {
      "status": "0x1",
      "cumulativeGasUsed": "0x3690ce",
      "logs": [
        {
          "address": "0x2e8af9c5922623058aa92a183b391e62cb6b2d12",
          "topics": [
            "0xddf252ad1be2c89b69c2b068fc378daa952ba7f163c4a11628f55a4df523b3ef",
            "0x0000000000000000000000000000000000000000000000000000000000000000",
            "0x000000000000000000000000cda2fdb452ff4f5d7ba1c3d5dfcc9cb926a5eb7d",
            "0x000000000000000000000000000000000000000000000000000000000000022d"
          ],
          "data": "0x",
          "blockHash": "0x8ef548b89c4acf9a6bfa3c6e22f611c12953703ea11490cd2bf49f7c38a11e0e",
          "blockNumber": "0x7512ad",
          "transactionHash": "0xe5c9ab42cfb9f8c73a07f60cc39f97aa80459b334ad9d24b986acc2cccd241b8",
          "transactionIndex": "0x14",
          "logIndex": "0x25",
          "removed": false
        },
        {
          "address": "0x2e8af9c5922623058aa92a183b391e62cb6b2d12",
          "topics": [
            "0xf8e1a15aba9398e019f0b49df1a4fde98ee17ae345cb5f6b5e2c27f5033e8ce7"
          ],
          "data": "0x000000000000000000000000000000000000000000000000000000000000022d",
          "blockHash": "0x8ef548b89c4acf9a6bfa3c6e22f611c12953703ea11490cd2bf49f7c38a11e0e",
          "blockNumber": "0x7512ad",
          "transactionHash": "0xe5c9ab42cfb9f8c73a07f60cc39f97aa80459b334ad9d24b986acc2cccd241b8",
          "transactionIndex": "0x14",
          "logIndex": "0x26",
          "removed": false
        }
      ],
      "logsBloom": "0x00000000000000000000000000000000000000020000000000000000000000000000000000000000000000000000000000000000000000000002000000000000000000000000000000000008040000000000000000000000000000000000000000000000020000000000000000000800002000000000800000000010000000000000002000000000000000000010000000000000000000000000000000000000000000000000000000000000000000002000000000004000000000000000008000000002000000000000000000000000000000000000000000000000000020000000000000000000200000000000000000000000100000000000000000000000",
      "type": "0x2",
      "transactionHash": "0xe5c9ab42cfb9f8c73a07f60cc39f97aa80459b334ad9d24b986acc2cccd241b8",
      "transactionIndex": "0x14",
      "blockHash": "0x8ef548b89c4acf9a6bfa3c6e22f611c12953703ea11490cd2bf49f7c38a11e0e",
      "blockNumber": "0x7512ad",
      "gasUsed": "0x2ccb8",
      "effectiveGasPrice": "0xfd",
      "from": "0xcda2fdb452ff4f5d7ba1c3d5dfcc9cb926a5eb7d",
      "to": "0x79dfbed14077b8f2421eece5707a17b161094e6a",
      "contractAddress": null,
      "l1BaseFeeScalar": "0x186a0",
      "l1BlobBaseFee": "0x1",
      "l1BlobBaseFeeScalar": "0x95506",
      "l1Fee": "0x1939eda21bd",
      "l1GasPrice": "0x285caf69c",
      "l1GasUsed": "0x640"
    },
    {
      "status": "0x1",
      "cumulativeGasUsed": "0x395d86",
      "logs": [
        {
          "address": "0x2e8af9c5922623058aa92a183b391e62cb6b2d12",
          "topics": [
            "0xddf252ad1be2c89b69c2b068fc378daa952ba7f163c4a11628f55a4df523b3ef",
            "0x0000000000000000000000000000000000000000000000000000000000000000",
            "0x000000000000000000000000cda2fdb452ff4f5d7ba1c3d5dfcc9cb926a5eb7d",
            "0x000000000000000000000000000000000000000000000000000000000000022e"
          ],
          "data": "0x",
          "blockHash": "0x8ef548b89c4acf9a6bfa3c6e22f611c12953703ea11490cd2bf49f7c38a11e0e",
          "blockNumber": "0x7512ad",
          "transactionHash": "0x9820251b732d7f4abf4f0b77e8670874a67d1e409323f8cf1644b717beca0b6b",
          "transactionIndex": "0x15",
          "logIndex": "0x27",
          "removed": false
        },
        {
          "address": "0x2e8af9c5922623058aa92a183b391e62cb6b2d12",
          "topics": [
            "0xf8e1a15aba9398e019f0b49df1a4fde98ee17ae345cb5f6b5e2c27f5033e8ce7"
          ],
          "data": "0x000000000000000000000000000000000000000000000000000000000000022e",
          "blockHash": "0x8ef548b89c4acf9a6bfa3c6e22f611c12953703ea11490cd2bf49f7c38a11e0e",
          "blockNumber": "0x7512ad",
          "transactionHash": "0x9820251b732d7f4abf4f0b77e8670874a67d1e409323f8cf1644b717beca0b6b",
          "transactionIndex": "0x15",
          "logIndex": "0x28",
          "removed": false
        }
      ],
      "logsBloom": "0x00000000000000000000000000000000000000020000000000000000000000000000000000000000000000000000000000000000000000000000100000000000000000000000000000000008040000000000000000000000000000000000000000000000020000000000000000000800002000000000800000000010000000000000000000000000000000000000000000000000000000000000000000000000000000000000000002000000000000002000000000004001000000000000008000000002000000000000000000000000000000000000000000000000000020000000000000000000200000000000000000000000100000000000000000000000",
      "type": "0x2",
      "transactionHash": "0x9820251b732d7f4abf4f0b77e8670874a67d1e409323f8cf1644b717beca0b6b",
      "transactionIndex": "0x15",
      "blockHash": "0x8ef548b89c4acf9a6bfa3c6e22f611c12953703ea11490cd2bf49f7c38a11e0e",
      "blockNumber": "0x7512ad",
      "gasUsed": "0x2ccb8",
      "effectiveGasPrice": "0xfd",
      "from": "0xcda2fdb452ff4f5d7ba1c3d5dfcc9cb926a5eb7d",
      "to": "0x79dfbed14077b8f2421eece5707a17b161094e6a",
      "contractAddress": null,
      "l1BaseFeeScalar": "0x186a0",
      "l1BlobBaseFee": "0x1",
      "l1BlobBaseFeeScalar": "0x95506",
      "l1Fee": "0x1939eda21bd",
      "l1GasPrice": "0x285caf69c",
      "l1GasUsed": "0x640"
    },
    {
      "status": "0x1",
      "cumulativeGasUsed": "0x3c2a3e",
      "logs": [
        {
          "address": "0x2e8af9c5922623058aa92a183b391e62cb6b2d12",
          "topics": [
            "0xddf252ad1be2c89b69c2b068fc378daa952ba7f163c4a11628f55a4df523b3ef",
            "0x0000000000000000000000000000000000000000000000000000000000000000",
            "0x000000000000000000000000cda2fdb452ff4f5d7ba1c3d5dfcc9cb926a5eb7d",
            "0x000000000000000000000000000000000000000000000000000000000000022f"
          ],
          "data": "0x",
          "blockHash": "0x8ef548b89c4acf9a6bfa3c6e22f611c12953703ea11490cd2bf49f7c38a11e0e",
          "blockNumber": "0x7512ad",
          "transactionHash": "0xfa4ad17fc17af8769612323cb1ad0d979ebfb608439497880233e5742c55b92c",
          "transactionIndex": "0x16",
          "logIndex": "0x29",
          "removed": false
        },
        {
          "address": "0x2e8af9c5922623058aa92a183b391e62cb6b2d12",
          "topics": [
            "0xf8e1a15aba9398e019f0b49df1a4fde98ee17ae345cb5f6b5e2c27f5033e8ce7"
          ],
          "data": "0x000000000000000000000000000000000000000000000000000000000000022f",
          "blockHash": "0x8ef548b89c4acf9a6bfa3c6e22f611c12953703ea11490cd2bf49f7c38a11e0e",
          "blockNumber": "0x7512ad",
          "transactionHash": "0xfa4ad17fc17af8769612323cb1ad0d979ebfb608439497880233e5742c55b92c",
          "transactionIndex": "0x16",
          "logIndex": "0x2a",
          "removed": false
        }
      ],
      "logsBloom": "0x00000000000000000000000000000000000000020000000000000000000000000000000000000000000000000000000000000000000000000000000000000000000000000000000000000008040000001000000000000000000000000000000000000000020000000000000000000800002000000000800000000010000000000000000000000000000000000000000000000000800000000000000000000000000000000000000000000000000000002000000000004000000000000000408000000002000000000000000000000000000000000000000000000000000020000000000000000000200000000000000000000000100000000000000000000000",
      "type": "0x2",
      "transactionHash": "0xfa4ad17fc17af8769612323cb1ad0d979ebfb608439497880233e5742c55b92c",
      "transactionIndex": "0x16",
      "blockHash": "0x8ef548b89c4acf9a6bfa3c6e22f611c12953703ea11490cd2bf49f7c38a11e0e",
      "blockNumber": "0x7512ad",
      "gasUsed": "0x2ccb8",
      "effectiveGasPrice": "0xfd",
      "from": "0xcda2fdb452ff4f5d7ba1c3d5dfcc9cb926a5eb7d",
      "to": "0x79dfbed14077b8f2421eece5707a17b161094e6a",
      "contractAddress": null,
      "l1BaseFeeScalar": "0x186a0",
      "l1BlobBaseFee": "0x1",
      "l1BlobBaseFeeScalar": "0x95506",
      "l1Fee": "0x1939eda21bd",
      "l1GasPrice": "0x285caf69c",
      "l1GasUsed": "0x640"
    }
  ],
  "libraries": [],
  "pending": [],
  "returns": {},
  "timestamp": 1728206979,
  "chain": 60808,
  "commit": "7d9679b"
}