{
  "transactions": [
    {
      "hash": "0x18533ba56926f6cc8845486aad4405942c1e451eedd913beb96c0907585804f7",
      "transactionType": "CALL",
      "contractName": null,
      "contractAddress": "0x79dfbed14077b8f2421eece5707a17b161094e6a",
      "function": "setWlStat(address,bool,uint256)",
      "arguments": [
        "0x0426E6B29Ec78c8d43502EC8DECbDb76551e7D60",
        "true",
        "1"
      ],
      "transaction": {
        "from": "0xcda2fdb452ff4f5d7ba1c3d5dfcc9cb926a5eb7d",
        "to": "0x79dfbed14077b8f2421eece5707a17b161094e6a",
        "gas": "0x17f46",
        "value": "0x0",
        "input": "0x1425d0a40000000000000000000000000426e6b29ec78c8d43502ec8decbdb76551e7d6000000000000000000000000000000000000000000000000000000000000000010000000000000000000000000000000000000000000000000000000000000001",
        "nonce": "0x1c0a",
        "chainId": "0xed88"
      },
      "additionalContracts": [],
      "isFixedGasLimit": false
    }
  ],
  "receipts": [
    {
      "status": "0x1",
      "cumulativeGasUsed": "0x1e198",
      "logs": [],
      "logsBloom": "0x00000000000000000000000000000000000000000000000000000000000000000000000000000000000000000000000000000000000000000000000000000000000000000000000000000000000000000000000000000000000000000000000000000000000000000000000000000000000000000000000000000000000000000000000000000000000000000000000000000000000000000000000000000000000000000000000000000000000000000000000000000000000000000000000000000000000000000000000000000000000000000000000000000000000000000000000000000000000000000000000000000000000000000000000000000000",
      "type": "0x2",
      "transactionHash": "0x18533ba56926f6cc8845486aad4405942c1e451eedd913beb96c0907585804f7",
      "transactionIndex": "0x1",
      "blockHash": "0xc259d5a7f101c5c069b797692046ac7dc172be6afb971df98b25d7a07243d540",
      "blockNumber": "0x7494b7",
      "gasUsed": "0x1157d",
      "effectiveGasPrice": "0xfd",
      "from": "0xcda2fdb452ff4f5d7ba1c3d5dfcc9cb926a5eb7d",
      "to": "0x79dfbed14077b8f2421eece5707a17b161094e6a",
      "contractAddress": null,
      "l1BaseFeeScalar": "0x186a0",
      "l1BlobBaseFee": "0x1",
      "l1BlobBaseFeeScalar": "0x95506",
      "l1Fee": "0xab95de3d5d",
      "l1GasPrice": "0x112896395",
      "l1GasUsed": "0x640"
    }
  ],
  "libraries": [],
  "pending": [],
  "returns": {},
  "timestamp": 1728142486,
  "chain": 60808,
  "commit": "7d9679b"
}