{
  "transactions": [
    {
      "hash": "0x38fbe9b3708f6e5cbc13492758a958980805b82c536e38a65769169dad190a0e",
      "transactionType": "CALL",
      "contractName": null,
      "contractAddress": "0x79dfbed14077b8f2421eece5707a17b161094e6a",
      "function": "wlMint(address)",
      "arguments": [
        "0x0000000000000000000000000000000000000000"
      ],
      "transaction": {
        "from": "0xcda2fdb452ff4f5d7ba1c3d5dfcc9cb926a5eb7d",
        "to": "0x79dfbed14077b8f2421eece5707a17b161094e6a",
        "gas": "0x3ddf7",
        "value": "0x0",
        "input": "0xc517b4a50000000000000000000000000000000000000000000000000000000000000000",
        "nonce": "0x1d68",
        "chainId": "0xed88"
      },
      "additionalContracts": [],
      "isFixedGasLimit": false
    },
    {
      "hash": "0x8b9911ed68f8ee16ebc98eab5828fcabd8049d22d9a1a073fb226420a0323c31",
      "transactionType": "CALL",
      "contractName": null,
      "contractAddress": "0x79dfbed14077b8f2421eece5707a17b161094e6a",
      "function": "wlMint(address)",
      "arguments": [
        "0x0000000000000000000000000000000000000000"
      ],
      "transaction": {
        "from": "0xcda2fdb452ff4f5d7ba1c3d5dfcc9cb926a5eb7d",
        "to": "0x79dfbed14077b8f2421eece5707a17b161094e6a",
        "gas": "0x3ddf7",
        "value": "0x0",
        "input": "0xc517b4a50000000000000000000000000000000000000000000000000000000000000000",
        "nonce": "0x1d69",
        "chainId": "0xed88"
      },
      "additionalContracts": [],
      "isFixedGasLimit": false
    },
    {
      "hash": "0x141d43fde2d5cba6f82e85472c59e9f285c75b1b1c0617a0b56a28793bad343f",
      "transactionType": "CALL",
      "contractName": null,
      "contractAddress": "0x79dfbed14077b8f2421eece5707a17b161094e6a",
      "function": "wlMint(address)",
      "arguments": [
        "0x0000000000000000000000000000000000000000"
      ],
      "transaction": {
        "from": "0xcda2fdb452ff4f5d7ba1c3d5dfcc9cb926a5eb7d",
        "to": "0x79dfbed14077b8f2421eece5707a17b161094e6a",
        "gas": "0x3ddf7",
        "value": "0x0",
        "input": "0xc517b4a50000000000000000000000000000000000000000000000000000000000000000",
        "nonce": "0x1d6a",
        "chainId": "0xed88"
      },
      "additionalContracts": [],
      "isFixedGasLimit": false
    },
    {
      "hash": "0xf82e8b46cb18fd9355ddc1f853c44ae465b3fd9635d9f3475e62e599397a55a1",
      "transactionType": "CALL",
      "contractName": null,
      "contractAddress": "0x79dfbed14077b8f2421eece5707a17b161094e6a",
      "function": "wlMint(address)",
      "arguments": [
        "0x0000000000000000000000000000000000000000"
      ],
      "transaction": {
        "from": "0xcda2fdb452ff4f5d7ba1c3d5dfcc9cb926a5eb7d",
        "to": "0x79dfbed14077b8f2421eece5707a17b161094e6a",
        "gas": "0x3ddf7",
        "value": "0x0",
        "input": "0xc517b4a50000000000000000000000000000000000000000000000000000000000000000",
        "nonce": "0x1d6b",
        "chainId": "0xed88"
      },
      "additionalContracts": [],
      "isFixedGasLimit": false
    },
    {
      "hash": "0xc660e46b1295b50f52c800e0c31f30043e96b2f4e33567d20d3571a096d5aaf7",
      "transactionType": "CALL",
      "contractName": null,
      "contractAddress": "0x79dfbed14077b8f2421eece5707a17b161094e6a",
      "function": "wlMint(address)",
      "arguments": [
        "0x0000000000000000000000000000000000000000"
      ],
      "transaction": {
        "from": "0xcda2fdb452ff4f5d7ba1c3d5dfcc9cb926a5eb7d",
        "to": "0x79dfbed14077b8f2421eece5707a17b161094e6a",
        "gas": "0x3ddf7",
        "value": "0x0",
        "input": "0xc517b4a50000000000000000000000000000000000000000000000000000000000000000",
        "nonce": "0x1d6c",
        "chainId": "0xed88"
      },
      "additionalContracts": [],
      "isFixedGasLimit": false
    },
    {
      "hash": "0x3394dc469664091f2ffe3df55ae6033978a24883cbd54fb4b4c289120df93cb1",
      "transactionType": "CALL",
      "contractName": null,
      "contractAddress": "0x79dfbed14077b8f2421eece5707a17b161094e6a",
      "function": "wlMint(address)",
      "arguments": [
        "0x0000000000000000000000000000000000000000"
      ],
      "transaction": {
        "from": "0xcda2fdb452ff4f5d7ba1c3d5dfcc9cb926a5eb7d",
        "to": "0x79dfbed14077b8f2421eece5707a17b161094e6a",
        "gas": "0x3ddf7",
        "value": "0x0",
        "input": "0xc517b4a50000000000000000000000000000000000000000000000000000000000000000",
        "nonce": "0x1d6d",
        "chainId": "0xed88"
      },
      "additionalContracts": [],
      "isFixedGasLimit": false
    },
    {
      "hash": "0x9e264f012d0206ac719437cfaeaccdc3ce6434e78141c0ea0f97cb51485d2727",
      "transactionType": "CALL",
      "contractName": null,
      "contractAddress": "0x79dfbed14077b8f2421eece5707a17b161094e6a",
      "function": "wlMint(address)",
      "arguments": [
        "0x0000000000000000000000000000000000000000"
      ],
      "transaction": {
        "from": "0xcda2fdb452ff4f5d7ba1c3d5dfcc9cb926a5eb7d",
        "to": "0x79dfbed14077b8f2421eece5707a17b161094e6a",
        "gas": "0x3ddf7",
        "value": "0x0",
        "input": "0xc517b4a50000000000000000000000000000000000000000000000000000000000000000",
        "nonce": "0x1d6e",
        "chainId": "0xed88"
      },
      "additionalContracts": [],
      "isFixedGasLimit": false
    },
    {
      "hash": "0x1eb5ac136d9fe2b945921f81551ef742257d4db7e6b453207c1e9fbac2d5e2ed",
      "transactionType": "CALL",
      "contractName": null,
      "contractAddress": "0x79dfbed14077b8f2421eece5707a17b161094e6a",
      "function": "wlMint(address)",
      "arguments": [
        "0x0000000000000000000000000000000000000000"
      ],
      "transaction": {
        "from": "0xcda2fdb452ff4f5d7ba1c3d5dfcc9cb926a5eb7d",
        "to": "0x79dfbed14077b8f2421eece5707a17b161094e6a",
        "gas": "0x3ddf7",
        "value": "0x0",
        "input": "0xc517b4a50000000000000000000000000000000000000000000000000000000000000000",
        "nonce": "0x1d6f",
        "chainId": "0xed88"
      },
      "additionalContracts": [],
      "isFixedGasLimit": false
    },
    {
      "hash": "0xe28c805b4fd5d18c50272b2e9c4d6b85bba1d7c3c37d3b35ba21a78f2b169fea",
      "transactionType": "CALL",
      "contractName": null,
      "contractAddress": "0x79dfbed14077b8f2421eece5707a17b161094e6a",
      "function": "wlMint(address)",
      "arguments": [
        "0x0000000000000000000000000000000000000000"
      ],
      "transaction": {
        "from": "0xcda2fdb452ff4f5d7ba1c3d5dfcc9cb926a5eb7d",
        "to": "0x79dfbed14077b8f2421eece5707a17b161094e6a",
        "gas": "0x3ddf7",
        "value": "0x0",
        "input": "0xc517b4a50000000000000000000000000000000000000000000000000000000000000000",
        "nonce": "0x1d70",
        "chainId": "0xed88"
      },
      "additionalContracts": [],
      "isFixedGasLimit": false
    },
    {
      "hash": "0x0de3979d01f949e77b84cf0865dcdffc95ee618384daecb504439914ed4e75e4",
      "transactionType": "CALL",
      "contractName": null,
      "contractAddress": "0x79dfbed14077b8f2421eece5707a17b161094e6a",
      "function": "wlMint(address)",
      "arguments": [
        "0x0000000000000000000000000000000000000000"
      ],
      "transaction": {
        "from": "0xcda2fdb452ff4f5d7ba1c3d5dfcc9cb926a5eb7d",
        "to": "0x79dfbed14077b8f2421eece5707a17b161094e6a",
        "gas": "0x3ddf7",
        "value": "0x0",
        "input": "0xc517b4a50000000000000000000000000000000000000000000000000000000000000000",
        "nonce": "0x1d71",
        "chainId": "0xed88"
      },
      "additionalContracts": [],
      "isFixedGasLimit": false
    },
    {
      "hash": "0x5a011d9c9afcddb113a93d743c72e2c75bf88df7dd150f52b03a99c3f5be4e01",
      "transactionType": "CALL",
      "contractName": null,
      "contractAddress": "0x79dfbed14077b8f2421eece5707a17b161094e6a",
      "function": "wlMint(address)",
      "arguments": [
        "0x0000000000000000000000000000000000000000"
      ],
      "transaction": {
        "from": "0xcda2fdb452ff4f5d7ba1c3d5dfcc9cb926a5eb7d",
        "to": "0x79dfbed14077b8f2421eece5707a17b161094e6a",
        "gas": "0x3ddf7",
        "value": "0x0",
        "input": "0xc517b4a50000000000000000000000000000000000000000000000000000000000000000",
        "nonce": "0x1d72",
        "chainId": "0xed88"
      },
      "additionalContracts": [],
      "isFixedGasLimit": false
    },
    {
      "hash": "0x12dead57db040920bcea99816e1778a814e375c11c0fe3cf4fa31d5d3eeb5d82",
      "transactionType": "CALL",
      "contractName": null,
      "contractAddress": "0x79dfbed14077b8f2421eece5707a17b161094e6a",
      "function": "wlMint(address)",
      "arguments": [
        "0x0000000000000000000000000000000000000000"
      ],
      "transaction": {
        "from": "0xcda2fdb452ff4f5d7ba1c3d5dfcc9cb926a5eb7d",
        "to": "0x79dfbed14077b8f2421eece5707a17b161094e6a",
        "gas": "0x3ddf7",
        "value": "0x0",
        "input": "0xc517b4a50000000000000000000000000000000000000000000000000000000000000000",
        "nonce": "0x1d73",
        "chainId": "0xed88"
      },
      "additionalContracts": [],
      "isFixedGasLimit": false
    },
    {
      "hash": "0xbda0fa80bf332c323092a6b7ef9f706c8b8a6d9b6b32b5ac7a89fb0db721a8c0",
      "transactionType": "CALL",
      "contractName": null,
      "contractAddress": "0x79dfbed14077b8f2421eece5707a17b161094e6a",
      "function": "wlMint(address)",
      "arguments": [
        "0x0000000000000000000000000000000000000000"
      ],
      "transaction": {
        "from": "0xcda2fdb452ff4f5d7ba1c3d5dfcc9cb926a5eb7d",
        "to": "0x79dfbed14077b8f2421eece5707a17b161094e6a",
        "gas": "0x3ddf7",
        "value": "0x0",
        "input": "0xc517b4a50000000000000000000000000000000000000000000000000000000000000000",
        "nonce": "0x1d74",
        "chainId": "0xed88"
      },
      "additionalContracts": [],
      "isFixedGasLimit": false
    },
    {
      "hash": "0x118a2699b3c9790f92c6f428e287133a133be71ad908434e62d2fb1e7115036f",
      "transactionType": "CALL",
      "contractName": null,
      "contractAddress": "0x79dfbed14077b8f2421eece5707a17b161094e6a",
      "function": "wlMint(address)",
      "arguments": [
        "0x0000000000000000000000000000000000000000"
      ],
      "transaction": {
        "from": "0xcda2fdb452ff4f5d7ba1c3d5dfcc9cb926a5eb7d",
        "to": "0x79dfbed14077b8f2421eece5707a17b161094e6a",
        "gas": "0x3ddf7",
        "value": "0x0",
        "input": "0xc517b4a50000000000000000000000000000000000000000000000000000000000000000",
        "nonce": "0x1d75",
        "chainId": "0xed88"
      },
      "additionalContracts": [],
      "isFixedGasLimit": false
    },
    {
      "hash": "0xa999636e8e3657c21ba07282200c3a94ef999737566b38102ef64d2c61561883",
      "transactionType": "CALL",
      "contractName": null,
      "contractAddress": "0x79dfbed14077b8f2421eece5707a17b161094e6a",
      "function": "wlMint(address)",
      "arguments": [
        "0x0000000000000000000000000000000000000000"
      ],
      "transaction": {
        "from": "0xcda2fdb452ff4f5d7ba1c3d5dfcc9cb926a5eb7d",
        "to": "0x79dfbed14077b8f2421eece5707a17b161094e6a",
        "gas": "0x3ddf7",
        "value": "0x0",
        "input": "0xc517b4a50000000000000000000000000000000000000000000000000000000000000000",
        "nonce": "0x1d76",
        "chainId": "0xed88"
      },
      "additionalContracts": [],
      "isFixedGasLimit": false
    },
    {
      "hash": "0xb6afc2777d3bac0fc0a4fc9635144fd5863a2b9d757bcde83690e244dcf60ad6",
      "transactionType": "CALL",
      "contractName": null,
      "contractAddress": "0x79dfbed14077b8f2421eece5707a17b161094e6a",
      "function": "wlMint(address)",
      "arguments": [
        "0x0000000000000000000000000000000000000000"
      ],
      "transaction": {
        "from": "0xcda2fdb452ff4f5d7ba1c3d5dfcc9cb926a5eb7d",
        "to": "0x79dfbed14077b8f2421eece5707a17b161094e6a",
        "gas": "0x3ddf7",
        "value": "0x0",
        "input": "0xc517b4a50000000000000000000000000000000000000000000000000000000000000000",
        "nonce": "0x1d77",
        "chainId": "0xed88"
      },
      "additionalContracts": [],
      "isFixedGasLimit": false
    },
    {
      "hash": "0xc5629de26781e470fc0322c4fedc767a82bec32f57bf3ae5ed2548fd80ecf7c1",
      "transactionType": "CALL",
      "contractName": null,
      "contractAddress": "0x79dfbed14077b8f2421eece5707a17b161094e6a",
      "function": "wlMint(address)",
      "arguments": [
        "0x0000000000000000000000000000000000000000"
      ],
      "transaction": {
        "from": "0xcda2fdb452ff4f5d7ba1c3d5dfcc9cb926a5eb7d",
        "to": "0x79dfbed14077b8f2421eece5707a17b161094e6a",
        "gas": "0x3ddf7",
        "value": "0x0",
        "input": "0xc517b4a50000000000000000000000000000000000000000000000000000000000000000",
        "nonce": "0x1d78",
        "chainId": "0xed88"
      },
      "additionalContracts": [],
      "isFixedGasLimit": false
    },
    {
      "hash": "0xddc9d13d737c129a1476a791ed54af997d9847e45996d9309910d4861b31178d",
      "transactionType": "CALL",
      "contractName": null,
      "contractAddress": "0x79dfbed14077b8f2421eece5707a17b161094e6a",
      "function": "wlMint(address)",
      "arguments": [
        "0x0000000000000000000000000000000000000000"
      ],
      "transaction": {
        "from": "0xcda2fdb452ff4f5d7ba1c3d5dfcc9cb926a5eb7d",
        "to": "0x79dfbed14077b8f2421eece5707a17b161094e6a",
        "gas": "0x3ddf7",
        "value": "0x0",
        "input": "0xc517b4a50000000000000000000000000000000000000000000000000000000000000000",
        "nonce": "0x1d79",
        "chainId": "0xed88"
      },
      "additionalContracts": [],
      "isFixedGasLimit": false
    },
    {
      "hash": "0xec0d03b9b561314caf0bcc2b835361768f7753a192cd1a5ee32f57383cea2aac",
      "transactionType": "CALL",
      "contractName": null,
      "contractAddress": "0x79dfbed14077b8f2421eece5707a17b161094e6a",
      "function": "wlMint(address)",
      "arguments": [
        "0x0000000000000000000000000000000000000000"
      ],
      "transaction": {
        "from": "0xcda2fdb452ff4f5d7ba1c3d5dfcc9cb926a5eb7d",
        "to": "0x79dfbed14077b8f2421eece5707a17b161094e6a",
        "gas": "0x3ddf7",
        "value": "0x0",
        "input": "0xc517b4a50000000000000000000000000000000000000000000000000000000000000000",
        "nonce": "0x1d7a",
        "chainId": "0xed88"
      },
      "additionalContracts": [],
      "isFixedGasLimit": false
    },
    {
      "hash": "0xff78ff50cf0b0d6af9fbf40d4d3c732b0b0d814add3cf747d21adee1149328a8",
      "transactionType": "CALL",
      "contractName": null,
      "contractAddress": "0x79dfbed14077b8f2421eece5707a17b161094e6a",
      "function": "wlMint(address)",
      "arguments": [
        "0x0000000000000000000000000000000000000000"
      ],
      "transaction": {
        "from": "0xcda2fdb452ff4f5d7ba1c3d5dfcc9cb926a5eb7d",
        "to": "0x79dfbed14077b8f2421eece5707a17b161094e6a",
        "gas": "0x3ddf7",
        "value": "0x0",
        "input": "0xc517b4a50000000000000000000000000000000000000000000000000000000000000000",
        "nonce": "0x1d7b",
        "chainId": "0xed88"
      },
      "additionalContracts": [],
      "isFixedGasLimit": false
    },
    {
      "hash": "0xb61162cadc5b2b2850fe33caff681568b75f3f761eeb9d8a62ea3c318c58b414",
      "transactionType": "CALL",
      "contractName": null,
      "contractAddress": "0x79dfbed14077b8f2421eece5707a17b161094e6a",
      "function": "wlMint(address)",
      "arguments": [
        "0x0000000000000000000000000000000000000000"
      ],
      "transaction": {
        "from": "0xcda2fdb452ff4f5d7ba1c3d5dfcc9cb926a5eb7d",
        "to": "0x79dfbed14077b8f2421eece5707a17b161094e6a",
        "gas": "0x3ddf7",
        "value": "0x0",
        "input": "0xc517b4a50000000000000000000000000000000000000000000000000000000000000000",
        "nonce": "0x1d7c",
        "chainId": "0xed88"
      },
      "additionalContracts": [],
      "isFixedGasLimit": false
    },
    {
      "hash": "0x0d9a5e720a62702ac586f65bfbfa4eb338685f30e5755a0eea265c0b772ba995",
      "transactionType": "CALL",
      "contractName": null,
      "contractAddress": "0x79dfbed14077b8f2421eece5707a17b161094e6a",
      "function": "wlMint(address)",
      "arguments": [
        "0x0000000000000000000000000000000000000000"
      ],
      "transaction": {
        "from": "0xcda2fdb452ff4f5d7ba1c3d5dfcc9cb926a5eb7d",
        "to": "0x79dfbed14077b8f2421eece5707a17b161094e6a",
        "gas": "0x3ddf7",
        "value": "0x0",
        "input": "0xc517b4a50000000000000000000000000000000000000000000000000000000000000000",
        "nonce": "0x1d7d",
        "chainId": "0xed88"
      },
      "additionalContracts": [],
      "isFixedGasLimit": false
    },
    {
      "hash": "0x3e54e4732c4f927a7e561d7b270f4ebdaebd06d714d7cc1263ed08c495f8c26e",
      "transactionType": "CALL",
      "contractName": null,
      "contractAddress": "0x79dfbed14077b8f2421eece5707a17b161094e6a",
      "function": "wlMint(address)",
      "arguments": [
        "0x0000000000000000000000000000000000000000"
      ],
      "transaction": {
        "from": "0xcda2fdb452ff4f5d7ba1c3d5dfcc9cb926a5eb7d",
        "to": "0x79dfbed14077b8f2421eece5707a17b161094e6a",
        "gas": "0x3ddf7",
        "value": "0x0",
        "input": "0xc517b4a50000000000000000000000000000000000000000000000000000000000000000",
        "nonce": "0x1d7e",
        "chainId": "0xed88"
      },
      "additionalContracts": [],
      "isFixedGasLimit": false
    },
    {
      "hash": "0xb25e358f63aba207e59086f9d1e2d2f399f7097385630ef8047fdf73467b1067",
      "transactionType": "CALL",
      "contractName": null,
      "contractAddress": "0x79dfbed14077b8f2421eece5707a17b161094e6a",
      "function": "wlMint(address)",
      "arguments": [
        "0x0000000000000000000000000000000000000000"
      ],
      "transaction": {
        "from": "0xcda2fdb452ff4f5d7ba1c3d5dfcc9cb926a5eb7d",
        "to": "0x79dfbed14077b8f2421eece5707a17b161094e6a",
        "gas": "0x3ddf7",
        "value": "0x0",
        "input": "0xc517b4a50000000000000000000000000000000000000000000000000000000000000000",
        "nonce": "0x1d7f",
        "chainId": "0xed88"
      },
      "additionalContracts": [],
      "isFixedGasLimit": false
    },
    {
      "hash": "0x20a9372a676f4c5c20b1099ab9354f66224e152d49acade06342241654f1dc31",
      "transactionType": "CALL",
      "contractName": null,
      "contractAddress": "0x79dfbed14077b8f2421eece5707a17b161094e6a",
      "function": "wlMint(address)",
      "arguments": [
        "0x0000000000000000000000000000000000000000"
      ],
      "transaction": {
        "from": "0xcda2fdb452ff4f5d7ba1c3d5dfcc9cb926a5eb7d",
        "to": "0x79dfbed14077b8f2421eece5707a17b161094e6a",
        "gas": "0x3ddf7",
        "value": "0x0",
        "input": "0xc517b4a50000000000000000000000000000000000000000000000000000000000000000",
        "nonce": "0x1d80",
        "chainId": "0xed88"
      },
      "additionalContracts": [],
      "isFixedGasLimit": false
    },
    {
      "hash": "0xcdc9c1f7f6722860051796305ef016629ad38547850736f4dc0e75affa6dfa92",
      "transactionType": "CALL",
      "contractName": null,
      "contractAddress": "0x79dfbed14077b8f2421eece5707a17b161094e6a",
      "function": "wlMint(address)",
      "arguments": [
        "0x0000000000000000000000000000000000000000"
      ],
      "transaction": {
        "from": "0xcda2fdb452ff4f5d7ba1c3d5dfcc9cb926a5eb7d",
        "to": "0x79dfbed14077b8f2421eece5707a17b161094e6a",
        "gas": "0x3ddf7",
        "value": "0x0",
        "input": "0xc517b4a50000000000000000000000000000000000000000000000000000000000000000",
        "nonce": "0x1d81",
        "chainId": "0xed88"
      },
      "additionalContracts": [],
      "isFixedGasLimit": false
    },
    {
      "hash": "0x7c574086f5f69c427355c3fa156edff12bdf79e5ae55d59510d14e02aebb0f18",
      "transactionType": "CALL",
      "contractName": null,
      "contractAddress": "0x79dfbed14077b8f2421eece5707a17b161094e6a",
      "function": "wlMint(address)",
      "arguments": [
        "0x0000000000000000000000000000000000000000"
      ],
      "transaction": {
        "from": "0xcda2fdb452ff4f5d7ba1c3d5dfcc9cb926a5eb7d",
        "to": "0x79dfbed14077b8f2421eece5707a17b161094e6a",
        "gas": "0x3ddf7",
        "value": "0x0",
        "input": "0xc517b4a50000000000000000000000000000000000000000000000000000000000000000",
        "nonce": "0x1d82",
        "chainId": "0xed88"
      },
      "additionalContracts": [],
      "isFixedGasLimit": false
    },
    {
      "hash": "0xe3f8e342f76be50d679d9ad8fec395f6c4baec1113f2d3b12a859c588b7e99a1",
      "transactionType": "CALL",
      "contractName": null,
      "contractAddress": "0x79dfbed14077b8f2421eece5707a17b161094e6a",
      "function": "wlMint(address)",
      "arguments": [
        "0x0000000000000000000000000000000000000000"
      ],
      "transaction": {
        "from": "0xcda2fdb452ff4f5d7ba1c3d5dfcc9cb926a5eb7d",
        "to": "0x79dfbed14077b8f2421eece5707a17b161094e6a",
        "gas": "0x3ddf7",
        "value": "0x0",
        "input": "0xc517b4a50000000000000000000000000000000000000000000000000000000000000000",
        "nonce": "0x1d83",
        "chainId": "0xed88"
      },
      "additionalContracts": [],
      "isFixedGasLimit": false
    },
    {
      "hash": "0x64201bacc09388203fd471646197611c52b67cbd6c6eb15217a712937e025f26",
      "transactionType": "CALL",
      "contractName": null,
      "contractAddress": "0x79dfbed14077b8f2421eece5707a17b161094e6a",
      "function": "wlMint(address)",
      "arguments": [
        "0x0000000000000000000000000000000000000000"
      ],
      "transaction": {
        "from": "0xcda2fdb452ff4f5d7ba1c3d5dfcc9cb926a5eb7d",
        "to": "0x79dfbed14077b8f2421eece5707a17b161094e6a",
        "gas": "0x3ddf7",
        "value": "0x0",
        "input": "0xc517b4a50000000000000000000000000000000000000000000000000000000000000000",
        "nonce": "0x1d84",
        "chainId": "0xed88"
      },
      "additionalContracts": [],
      "isFixedGasLimit": false
    },
    {
      "hash": "0x999f31bb1e639bd052f2850a9391c14f64543c2b2d41b0212d4a446c16021fd1",
      "transactionType": "CALL",
      "contractName": null,
      "contractAddress": "0x79dfbed14077b8f2421eece5707a17b161094e6a",
      "function": "wlMint(address)",
      "arguments": [
        "0x0000000000000000000000000000000000000000"
      ],
      "transaction": {
        "from": "0xcda2fdb452ff4f5d7ba1c3d5dfcc9cb926a5eb7d",
        "to": "0x79dfbed14077b8f2421eece5707a17b161094e6a",
        "gas": "0x3ddf7",
        "value": "0x0",
        "input": "0xc517b4a50000000000000000000000000000000000000000000000000000000000000000",
        "nonce": "0x1d85",
        "chainId": "0xed88"
      },
      "additionalContracts": [],
      "isFixedGasLimit": false
    }
  ],
  "receipts": [
    {
      "status": "0x1",
      "cumulativeGasUsed": "0x37803",
      "logs": [
        {
          "address": "0x2e8af9c5922623058aa92a183b391e62cb6b2d12",
          "topics": [
            "0xddf252ad1be2c89b69c2b068fc378daa952ba7f163c4a11628f55a4df523b3ef",
            "0x0000000000000000000000000000000000000000000000000000000000000000",
            "0x000000000000000000000000cda2fdb452ff4f5d7ba1c3d5dfcc9cb926a5eb7d",
            "0x000000000000000000000000000000000000000000000000000000000000015e"
          ],
          "data": "0x",
          "blockHash": "0x063b10d685d634ad1228946894f5c153b399a2b7458580fa7121106910b88dc4",
          "blockNumber": "0x750787",
          "transactionHash": "0x38fbe9b3708f6e5cbc13492758a958980805b82c536e38a65769169dad190a0e",
          "transactionIndex": "0x1",
          "logIndex": "0x0",
          "removed": false
        },
        {
          "address": "0x2e8af9c5922623058aa92a183b391e62cb6b2d12",
          "topics": [
            "0xf8e1a15aba9398e019f0b49df1a4fde98ee17ae345cb5f6b5e2c27f5033e8ce7"
          ],
          "data": "0x000000000000000000000000000000000000000000000000000000000000015e",
          "blockHash": "0x063b10d685d634ad1228946894f5c153b399a2b7458580fa7121106910b88dc4",
          "blockNumber": "0x750787",
          "transactionHash": "0x38fbe9b3708f6e5cbc13492758a958980805b82c536e38a65769169dad190a0e",
          "transactionIndex": "0x1",
          "logIndex": "0x1",
          "removed": false
        }
      ],
      "logsBloom": "0x00000000000000000000000000000000000000020000000000000000000000000000002000000000000000000000000000000000000000000000000000000000000000000000000000000008040000000000000000000000000000000000000000000000020000000000000000000801002000000000800001000010000000000000000000000000000000000000000000000000000000000000000000000000000000000000000000000000000000002000000000004000000000000000008000000002000000000000000000000000000000000000000000000000000020000000000000000000200000000000000000000000100000000000000000000000",
      "type": "0x2",
      "transactionHash": "0x38fbe9b3708f6e5cbc13492758a958980805b82c536e38a65769169dad190a0e",
      "transactionIndex": "0x1",
      "blockHash": "0x063b10d685d634ad1228946894f5c153b399a2b7458580fa7121106910b88dc4",
      "blockNumber": "0x750787",
      "gasUsed": "0x2ccb8",
      "effectiveGasPrice": "0xfd",
      "from": "0xcda2fdb452ff4f5d7ba1c3d5dfcc9cb926a5eb7d",
      "to": "0x79dfbed14077b8f2421eece5707a17b161094e6a",
      "contractAddress": null,
      "l1BaseFeeScalar": "0x186a0",
      "l1BlobBaseFee": "0x1",
      "l1BlobBaseFeeScalar": "0x95506",
      "l1Fee": "0x94428bd6bd",
      "l1GasPrice": "0xed374624",
      "l1GasUsed": "0x640"
    },
    {
      "status": "0x1",
      "cumulativeGasUsed": "0x37803",
      "logs": [
        {
          "address": "0x2e8af9c5922623058aa92a183b391e62cb6b2d12",
          "topics": [
            "0xddf252ad1be2c89b69c2b068fc378daa952ba7f163c4a11628f55a4df523b3ef",
            "0x0000000000000000000000000000000000000000000000000000000000000000",
            "0x000000000000000000000000cda2fdb452ff4f5d7ba1c3d5dfcc9cb926a5eb7d",
            "0x000000000000000000000000000000000000000000000000000000000000015f"
          ],
          "data": "0x",
          "blockHash": "0x602183b6c71ac752a4587c3e51416effeda23a6a32ae99e9eb4bd53e2ddb12df",
          "blockNumber": "0x750788",
          "transactionHash": "0x8b9911ed68f8ee16ebc98eab5828fcabd8049d22d9a1a073fb226420a0323c31",
          "transactionIndex": "0x1",
          "logIndex": "0x0",
          "removed": false
        },
        {
          "address": "0x2e8af9c5922623058aa92a183b391e62cb6b2d12",
          "topics": [
            "0xf8e1a15aba9398e019f0b49df1a4fde98ee17ae345cb5f6b5e2c27f5033e8ce7"
          ],
          "data": "0x000000000000000000000000000000000000000000000000000000000000015f",
          "blockHash": "0x602183b6c71ac752a4587c3e51416effeda23a6a32ae99e9eb4bd53e2ddb12df",
          "blockNumber": "0x750788",
          "transactionHash": "0x8b9911ed68f8ee16ebc98eab5828fcabd8049d22d9a1a073fb226420a0323c31",
          "transactionIndex": "0x1",
          "logIndex": "0x1",
          "removed": false
        }
      ],
      "logsBloom": "0x00000000000000000000000000000000000000020000000000000000000000000000000000000000000000000000000000000200000000000000000000000000000000000000000000000028040000000000000000000000000000000000000000000000020000000000000001000800002000000000800000000010000000000000000000000000000000000000000000000000000000000000000000000000000000000000000000000000000000002000000000004000000000000000008000000002000000000000000000000000000000000000000000000000000020000000000000000000200000000000000000000000100000000000000000000000",
      "type": "0x2",
      "transactionHash": "0x8b9911ed68f8ee16ebc98eab5828fcabd8049d22d9a1a073fb226420a0323c31",
      "transactionIndex": "0x1",
      "blockHash": "0x602183b6c71ac752a4587c3e51416effeda23a6a32ae99e9eb4bd53e2ddb12df",
      "blockNumber": "0x750788",
      "gasUsed": "0x2ccb8",
      "effectiveGasPrice": "0xfd",
      "from": "0xcda2fdb452ff4f5d7ba1c3d5dfcc9cb926a5eb7d",
      "to": "0x79dfbed14077b8f2421eece5707a17b161094e6a",
      "contractAddress": null,
      "l1BaseFeeScalar": "0x186a0",
      "l1BlobBaseFee": "0x1",
      "l1BlobBaseFeeScalar": "0x95506",
      "l1Fee": "0x94428bd6bd",
      "l1GasPrice": "0xed374624",
      "l1GasUsed": "0x640"
    },
    {
      "status": "0x1",
      "cumulativeGasUsed": "0x644bb",
      "logs": [
        {
          "address": "0x2e8af9c5922623058aa92a183b391e62cb6b2d12",
          "topics": [
            "0xddf252ad1be2c89b69c2b068fc378daa952ba7f163c4a11628f55a4df523b3ef",
            "0x0000000000000000000000000000000000000000000000000000000000000000",
            "0x000000000000000000000000cda2fdb452ff4f5d7ba1c3d5dfcc9cb926a5eb7d",
            "0x0000000000000000000000000000000000000000000000000000000000000160"
          ],
          "data": "0x",
          "blockHash": "0x602183b6c71ac752a4587c3e51416effeda23a6a32ae99e9eb4bd53e2ddb12df",
          "blockNumber": "0x750788",
          "transactionHash": "0x141d43fde2d5cba6f82e85472c59e9f285c75b1b1c0617a0b56a28793bad343f",
          "transactionIndex": "0x2",
          "logIndex": "0x2",
          "removed": false
        },
        {
          "address": "0x2e8af9c5922623058aa92a183b391e62cb6b2d12",
          "topics": [
            "0xf8e1a15aba9398e019f0b49df1a4fde98ee17ae345cb5f6b5e2c27f5033e8ce7"
          ],
          "data": "0x0000000000000000000000000000000000000000000000000000000000000160",
          "blockHash": "0x602183b6c71ac752a4587c3e51416effeda23a6a32ae99e9eb4bd53e2ddb12df",
          "blockNumber": "0x750788",
          "transactionHash": "0x141d43fde2d5cba6f82e85472c59e9f285c75b1b1c0617a0b56a28793bad343f",
          "transactionIndex": "0x2",
          "logIndex": "0x3",
          "removed": false
        }
      ],
      "logsBloom": "0x00000000000000000000000000000000000000020000000000000000000000000000040000000000000000000000000000000000000000000000000000000000000000000000000000000008040000000000000000000000000000000000000000000000020000000000000000000800402000000000800000000010000000000000000000000000000000000000000000000000000000000000000000001000000000000000000000000000000000002000000000004000000000000000008000000002000000000000000000000000000000000000000000000000000020000000000000000000200000000000000000000000100000000000000000000000",
      "type": "0x2",
      "transactionHash": "0x141d43fde2d5cba6f82e85472c59e9f285c75b1b1c0617a0b56a28793bad343f",
      "transactionIndex": "0x2",
      "blockHash": "0x602183b6c71ac752a4587c3e51416effeda23a6a32ae99e9eb4bd53e2ddb12df",
      "blockNumber": "0x750788",
      "gasUsed": "0x2ccb8",
      "effectiveGasPrice": "0xfd",
      "from": "0xcda2fdb452ff4f5d7ba1c3d5dfcc9cb926a5eb7d",
      "to": "0x79dfbed14077b8f2421eece5707a17b161094e6a",
      "contractAddress": null,
      "l1BaseFeeScalar": "0x186a0",
      "l1BlobBaseFee": "0x1",
      "l1BlobBaseFeeScalar": "0x95506",
      "l1Fee": "0x94428bd6bd",
      "l1GasPrice": "0xed374624",
      "l1GasUsed": "0x640"
    },
    {
      "status": "0x1",
      "cumulativeGasUsed": "0x91173",
      "logs": [
        {
          "address": "0x2e8af9c5922623058aa92a183b391e62cb6b2d12",
          "topics": [
            "0xddf252ad1be2c89b69c2b068fc378daa952ba7f163c4a11628f55a4df523b3ef",
            "0x0000000000000000000000000000000000000000000000000000000000000000",
            "0x000000000000000000000000cda2fdb452ff4f5d7ba1c3d5dfcc9cb926a5eb7d",
            "0x0000000000000000000000000000000000000000000000000000000000000161"
          ],
          "data": "0x",
          "blockHash": "0x602183b6c71ac752a4587c3e51416effeda23a6a32ae99e9eb4bd53e2ddb12df",
          "blockNumber": "0x750788",
          "transactionHash": "0xf82e8b46cb18fd9355ddc1f853c44ae465b3fd9635d9f3475e62e599397a55a1",
          "transactionIndex": "0x3",
          "logIndex": "0x4",
          "removed": false
        },
        {
          "address": "0x2e8af9c5922623058aa92a183b391e62cb6b2d12",
          "topics": [
            "0xf8e1a15aba9398e019f0b49df1a4fde98ee17ae345cb5f6b5e2c27f5033e8ce7"
          ],
          "data": "0x0000000000000000000000000000000000000000000000000000000000000161",
          "blockHash": "0x602183b6c71ac752a4587c3e51416effeda23a6a32ae99e9eb4bd53e2ddb12df",
          "blockNumber": "0x750788",
          "transactionHash": "0xf82e8b46cb18fd9355ddc1f853c44ae465b3fd9635d9f3475e62e599397a55a1",
          "transactionIndex": "0x3",
          "logIndex": "0x5",
          "removed": false
        }
      ],
      "logsBloom": "0x00000000000000000800000000000000000000020000000000000000000000000000000000000000000000000000000000000000000000000000000000000000000000000000000000000008040000000000000000000000000000000000000000000000020000000000000000000800002000000000800000000010000000100000000000000000000000000000000000000000000000800000000000000000000000000000000000000000000000002000000000004000000000000000008000000002000000000000000000000000000000000000000000000000000020000000000000000000200000000000000000000000100000000000000000000000",
      "type": "0x2",
      "transactionHash": "0xf82e8b46cb18fd9355ddc1f853c44ae465b3fd9635d9f3475e62e599397a55a1",
      "transactionIndex": "0x3",
      "blockHash": "0x602183b6c71ac752a4587c3e51416effeda23a6a32ae99e9eb4bd53e2ddb12df",
      "blockNumber": "0x750788",
      "gasUsed": "0x2ccb8",
      "effectiveGasPrice": "0xfd",
      "from": "0xcda2fdb452ff4f5d7ba1c3d5dfcc9cb926a5eb7d",
      "to": "0x79dfbed14077b8f2421eece5707a17b161094e6a",
      "contractAddress": null,
      "l1BaseFeeScalar": "0x186a0",
      "l1BlobBaseFee": "0x1",
      "l1BlobBaseFeeScalar": "0x95506",
      "l1Fee": "0x94428bd6bd",
      "l1GasPrice": "0xed374624",
      "l1GasUsed": "0x640"
    },
    {
      "status": "0x1",
      "cumulativeGasUsed": "0xbde2b",
      "logs": [
        {
          "address": "0x2e8af9c5922623058aa92a183b391e62cb6b2d12",
          "topics": [
            "0xddf252ad1be2c89b69c2b068fc378daa952ba7f163c4a11628f55a4df523b3ef",
            "0x0000000000000000000000000000000000000000000000000000000000000000",
            "0x000000000000000000000000cda2fdb452ff4f5d7ba1c3d5dfcc9cb926a5eb7d",
            "0x0000000000000000000000000000000000000000000000000000000000000162"
          ],
          "data": "0x",
          "blockHash": "0x602183b6c71ac752a4587c3e51416effeda23a6a32ae99e9eb4bd53e2ddb12df",
          "blockNumber": "0x750788",
          "transactionHash": "0xc660e46b1295b50f52c800e0c31f30043e96b2f4e33567d20d3571a096d5aaf7",
          "transactionIndex": "0x4",
          "logIndex": "0x6",
          "removed": false
        },
        {
          "address": "0x2e8af9c5922623058aa92a183b391e62cb6b2d12",
          "topics": [
            "0xf8e1a15aba9398e019f0b49df1a4fde98ee17ae345cb5f6b5e2c27f5033e8ce7"
          ],
          "data": "0x0000000000000000000000000000000000000000000000000000000000000162",
          "blockHash": "0x602183b6c71ac752a4587c3e51416effeda23a6a32ae99e9eb4bd53e2ddb12df",
          "blockNumber": "0x750788",
          "transactionHash": "0xc660e46b1295b50f52c800e0c31f30043e96b2f4e33567d20d3571a096d5aaf7",
          "transactionIndex": "0x4",
          "logIndex": "0x7",
          "removed": false
        }
      ],
      "logsBloom": "0x00000000000000000000000000000000000000020000000000000000000000000000000000000000000000000000000000000000000000000000000000000000000000000000000000000008050000000000000000000000000000000000000000000000020000000000000000000800002000000000800000000010000000000000000000000000000000000000000000000000000000000000000000000000000000000000000000000000000000002000000000004000000000000000008000000002000000000000800000000000000000000000000002000000000020000000000000000000200000000000000000000000100000000000000000000000",
      "type": "0x2",
      "transactionHash": "0xc660e46b1295b50f52c800e0c31f30043e96b2f4e33567d20d3571a096d5aaf7",
      "transactionIndex": "0x4",
      "blockHash": "0x602183b6c71ac752a4587c3e51416effeda23a6a32ae99e9eb4bd53e2ddb12df",
      "blockNumber": "0x750788",
      "gasUsed": "0x2ccb8",
      "effectiveGasPrice": "0xfd",
      "from": "0xcda2fdb452ff4f5d7ba1c3d5dfcc9cb926a5eb7d",
      "to": "0x79dfbed14077b8f2421eece5707a17b161094e6a",
      "contractAddress": null,
      "l1BaseFeeScalar": "0x186a0",
      "l1BlobBaseFee": "0x1",
      "l1BlobBaseFeeScalar": "0x95506",
      "l1Fee": "0x94428bd6bd",
      "l1GasPrice": "0xed374624",
      "l1GasUsed": "0x640"
    },
    {
      "status": "0x1",
      "cumulativeGasUsed": "0xeaae3",
      "logs": [
        {
          "address": "0x2e8af9c5922623058aa92a183b391e62cb6b2d12",
          "topics": [
            "0xddf252ad1be2c89b69c2b068fc378daa952ba7f163c4a11628f55a4df523b3ef",
            "0x0000000000000000000000000000000000000000000000000000000000000000",
            "0x000000000000000000000000cda2fdb452ff4f5d7ba1c3d5dfcc9cb926a5eb7d",
            "0x0000000000000000000000000000000000000000000000000000000000000163"
          ],
          "data": "0x",
          "blockHash": "0x602183b6c71ac752a4587c3e51416effeda23a6a32ae99e9eb4bd53e2ddb12df",
          "blockNumber": "0x750788",
          "transactionHash": "0x3394dc469664091f2ffe3df55ae6033978a24883cbd54fb4b4c289120df93cb1",
          "transactionIndex": "0x5",
          "logIndex": "0x8",
          "removed": false
        },
        {
          "address": "0x2e8af9c5922623058aa92a183b391e62cb6b2d12",
          "topics": [
            "0xf8e1a15aba9398e019f0b49df1a4fde98ee17ae345cb5f6b5e2c27f5033e8ce7"
          ],
          "data": "0x0000000000000000000000000000000000000000000000000000000000000163",
          "blockHash": "0x602183b6c71ac752a4587c3e51416effeda23a6a32ae99e9eb4bd53e2ddb12df",
          "blockNumber": "0x750788",
          "transactionHash": "0x3394dc469664091f2ffe3df55ae6033978a24883cbd54fb4b4c289120df93cb1",
          "transactionIndex": "0x5",
          "logIndex": "0x9",
          "removed": false
        }
      ],
      "logsBloom": "0x00000000000000000000000000000000000000020000000000000000000000000000000000000000000000000000000000000000000000000000000000000000000000000000000000000008040000000000000000000000000000000000000000000000020000000000000000000800002000000000800000000010000000000000000000000000000000000000000000000000000000000000000000000000000000000000000000000000000000002000000000004000000000000000008020000002000000000000000000000000000000000000000000000000000020200008000000000000200000000000000000000000100000000000000000000000",
      "type": "0x2",
      "transactionHash": "0x3394dc469664091f2ffe3df55ae6033978a24883cbd54fb4b4c289120df93cb1",
      "transactionIndex": "0x5",
      "blockHash": "0x602183b6c71ac752a4587c3e51416effeda23a6a32ae99e9eb4bd53e2ddb12df",
      "blockNumber": "0x750788",
      "gasUsed": "0x2ccb8",
      "effectiveGasPrice": "0xfd",
      "from": "0xcda2fdb452ff4f5d7ba1c3d5dfcc9cb926a5eb7d",
      "to": "0x79dfbed14077b8f2421eece5707a17b161094e6a",
      "contractAddress": null,
      "l1BaseFeeScalar": "0x186a0",
      "l1BlobBaseFee": "0x1",
      "l1BlobBaseFeeScalar": "0x95506",
      "l1Fee": "0x94428bd6bd",
      "l1GasPrice": "0xed374624",
      "l1GasUsed": "0x640"
    },
    {
      "status": "0x1",
      "cumulativeGasUsed": "0x11779b",
      "logs": [
        {
          "address": "0x2e8af9c5922623058aa92a183b391e62cb6b2d12",
          "topics": [
            "0xddf252ad1be2c89b69c2b068fc378daa952ba7f163c4a11628f55a4df523b3ef",
            "0x0000000000000000000000000000000000000000000000000000000000000000",
            "0x000000000000000000000000cda2fdb452ff4f5d7ba1c3d5dfcc9cb926a5eb7d",
            "0x0000000000000000000000000000000000000000000000000000000000000164"
          ],
          "data": "0x",
          "blockHash": "0x602183b6c71ac752a4587c3e51416effeda23a6a32ae99e9eb4bd53e2ddb12df",
          "blockNumber": "0x750788",
          "transactionHash": "0x9e264f012d0206ac719437cfaeaccdc3ce6434e78141c0ea0f97cb51485d2727",
          "transactionIndex": "0x6",
          "logIndex": "0xa",
          "removed": false
        },
        {
          "address": "0x2e8af9c5922623058aa92a183b391e62cb6b2d12",
          "topics": [
            "0xf8e1a15aba9398e019f0b49df1a4fde98ee17ae345cb5f6b5e2c27f5033e8ce7"
          ],
          "data": "0x0000000000000000000000000000000000000000000000000000000000000164",
          "blockHash": "0x602183b6c71ac752a4587c3e51416effeda23a6a32ae99e9eb4bd53e2ddb12df",
          "blockNumber": "0x750788",
          "transactionHash": "0x9e264f012d0206ac719437cfaeaccdc3ce6434e78141c0ea0f97cb51485d2727",
          "transactionIndex": "0x6",
          "logIndex": "0xb",
          "removed": false
        }
      ],
      "logsBloom": "0x00040000000000000000000000000000000000020000000000000000000000000000000000000000000000000000000000000000000000000000000000000000000000000000000000000008040000000000000000000000000000000000000000000000020000000000000000000800002000000000800000000010000000000000000000000002000000000000000000000000000000000000000000000000000000000000000000000000000000002000000000004000000000000000008000000002000000000000000010000000000000000000000000000000000020000000000000000000200000000000000000000000100000000000000000000000",
      "type": "0x2",
      "transactionHash": "0x9e264f012d0206ac719437cfaeaccdc3ce6434e78141c0ea0f97cb51485d2727",
      "transactionIndex": "0x6",
      "blockHash": "0x602183b6c71ac752a4587c3e51416effeda23a6a32ae99e9eb4bd53e2ddb12df",
      "blockNumber": "0x750788",
      "gasUsed": "0x2ccb8",
      "effectiveGasPrice": "0xfd",
      "from": "0xcda2fdb452ff4f5d7ba1c3d5dfcc9cb926a5eb7d",
      "to": "0x79dfbed14077b8f2421eece5707a17b161094e6a",
      "contractAddress": null,
      "l1BaseFeeScalar": "0x186a0",
      "l1BlobBaseFee": "0x1",
      "l1BlobBaseFeeScalar": "0x95506",
      "l1Fee": "0x94428bd6bd",
      "l1GasPrice": "0xed374624",
      "l1GasUsed": "0x640"
    },
    {
      "status": "0x1",
      "cumulativeGasUsed": "0x144453",
      "logs": [
        {
          "address": "0x2e8af9c5922623058aa92a183b391e62cb6b2d12",
          "topics": [
            "0xddf252ad1be2c89b69c2b068fc378daa952ba7f163c4a11628f55a4df523b3ef",
            "0x0000000000000000000000000000000000000000000000000000000000000000",
            "0x000000000000000000000000cda2fdb452ff4f5d7ba1c3d5dfcc9cb926a5eb7d",
            "0x0000000000000000000000000000000000000000000000000000000000000165"
          ],
          "data": "0x",
          "blockHash": "0x602183b6c71ac752a4587c3e51416effeda23a6a32ae99e9eb4bd53e2ddb12df",
          "blockNumber": "0x750788",
          "transactionHash": "0x1eb5ac136d9fe2b945921f81551ef742257d4db7e6b453207c1e9fbac2d5e2ed",
          "transactionIndex": "0x7",
          "logIndex": "0xc",
          "removed": false
        },
        {
          "address": "0x2e8af9c5922623058aa92a183b391e62cb6b2d12",
          "topics": [
            "0xf8e1a15aba9398e019f0b49df1a4fde98ee17ae345cb5f6b5e2c27f5033e8ce7"
          ],
          "data": "0x0000000000000000000000000000000000000000000000000000000000000165",
          "blockHash": "0x602183b6c71ac752a4587c3e51416effeda23a6a32ae99e9eb4bd53e2ddb12df",
          "blockNumber": "0x750788",
          "transactionHash": "0x1eb5ac136d9fe2b945921f81551ef742257d4db7e6b453207c1e9fbac2d5e2ed",
          "transactionIndex": "0x7",
          "logIndex": "0xd",
          "removed": false
        }
      ],
      "logsBloom": "0x00000000000000000000020000000000000000020000000000000000000000000000000000000000000000000000000000000000000000000000000000000000000000100000000000000008040000000000000000000000000000000000000000000000020000000000000000000800002000000000800000000010000000000000000000000000000000000000000000000000000000000000000000000000000000000000000000000000000000002000000000004000000000000000008000000002000000000000000000000000000000000000000000000000100020000000000000000000200000000000000000000000100000000000000000000000",
      "type": "0x2",
      "transactionHash": "0x1eb5ac136d9fe2b945921f81551ef742257d4db7e6b453207c1e9fbac2d5e2ed",
      "transactionIndex": "0x7",
      "blockHash": "0x602183b6c71ac752a4587c3e51416effeda23a6a32ae99e9eb4bd53e2ddb12df",
      "blockNumber": "0x750788",
      "gasUsed": "0x2ccb8",
      "effectiveGasPrice": "0xfd",
      "from": "0xcda2fdb452ff4f5d7ba1c3d5dfcc9cb926a5eb7d",
      "to": "0x79dfbed14077b8f2421eece5707a17b161094e6a",
      "contractAddress": null,
      "l1BaseFeeScalar": "0x186a0",
      "l1BlobBaseFee": "0x1",
      "l1BlobBaseFeeScalar": "0x95506",
      "l1Fee": "0x94428bd6bd",
      "l1GasPrice": "0xed374624",
      "l1GasUsed": "0x640"
    },
    {
      "status": "0x1",
      "cumulativeGasUsed": "0x17110b",
      "logs": [
        {
          "address": "0x2e8af9c5922623058aa92a183b391e62cb6b2d12",
          "topics": [
            "0xddf252ad1be2c89b69c2b068fc378daa952ba7f163c4a11628f55a4df523b3ef",
            "0x0000000000000000000000000000000000000000000000000000000000000000",
            "0x000000000000000000000000cda2fdb452ff4f5d7ba1c3d5dfcc9cb926a5eb7d",
            "0x0000000000000000000000000000000000000000000000000000000000000166"
          ],
          "data": "0x",
          "blockHash": "0x602183b6c71ac752a4587c3e51416effeda23a6a32ae99e9eb4bd53e2ddb12df",
          "blockNumber": "0x750788",
          "transactionHash": "0xe28c805b4fd5d18c50272b2e9c4d6b85bba1d7c3c37d3b35ba21a78f2b169fea",
          "transactionIndex": "0x8",
          "logIndex": "0xe",
          "removed": false
        },
        {
          "address": "0x2e8af9c5922623058aa92a183b391e62cb6b2d12",
          "topics": [
            "0xf8e1a15aba9398e019f0b49df1a4fde98ee17ae345cb5f6b5e2c27f5033e8ce7"
          ],
          "data": "0x0000000000000000000000000000000000000000000000000000000000000166",
          "blockHash": "0x602183b6c71ac752a4587c3e51416effeda23a6a32ae99e9eb4bd53e2ddb12df",
          "blockNumber": "0x750788",
          "transactionHash": "0xe28c805b4fd5d18c50272b2e9c4d6b85bba1d7c3c37d3b35ba21a78f2b169fea",
          "transactionIndex": "0x8",
          "logIndex": "0xf",
          "removed": false
        }
      ],
      "logsBloom": "0x00000000000000000000000000000000000000020000000000000000000000000000000000000000000000000000000000000000000000000000000000000000000000000000000000000018040000000800000000000000000000000000000000000000020000000000000000000800002000000000800000000010000000000000000000000000000000000000000000000000000000000000000000000000000000000000000000000000000000002000000000004000000000000000008000000002000000000000000000000010000000000000000000000000000020000000000000000000200000000000000000000000100000000000000000000000",
      "type": "0x2",
      "transactionHash": "0xe28c805b4fd5d18c50272b2e9c4d6b85bba1d7c3c37d3b35ba21a78f2b169fea",
      "transactionIndex": "0x8",
      "blockHash": "0x602183b6c71ac752a4587c3e51416effeda23a6a32ae99e9eb4bd53e2ddb12df",
      "blockNumber": "0x750788",
      "gasUsed": "0x2ccb8",
      "effectiveGasPrice": "0xfd",
      "from": "0xcda2fdb452ff4f5d7ba1c3d5dfcc9cb926a5eb7d",
      "to": "0x79dfbed14077b8f2421eece5707a17b161094e6a",
      "contractAddress": null,
      "l1BaseFeeScalar": "0x186a0",
      "l1BlobBaseFee": "0x1",
      "l1BlobBaseFeeScalar": "0x95506",
      "l1Fee": "0x94428bd6bd",
      "l1GasPrice": "0xed374624",
      "l1GasUsed": "0x640"
    },
    {
      "status": "0x1",
      "cumulativeGasUsed": "0x19ddc3",
      "logs": [
        {
          "address": "0x2e8af9c5922623058aa92a183b391e62cb6b2d12",
          "topics": [
            "0xddf252ad1be2c89b69c2b068fc378daa952ba7f163c4a11628f55a4df523b3ef",
            "0x0000000000000000000000000000000000000000000000000000000000000000",
            "0x000000000000000000000000cda2fdb452ff4f5d7ba1c3d5dfcc9cb926a5eb7d",
            "0x0000000000000000000000000000000000000000000000000000000000000167"
          ],
          "data": "0x",
          "blockHash": "0x602183b6c71ac752a4587c3e51416effeda23a6a32ae99e9eb4bd53e2ddb12df",
          "blockNumber": "0x750788",
          "transactionHash": "0x0de3979d01f949e77b84cf0865dcdffc95ee618384daecb504439914ed4e75e4",
          "transactionIndex": "0x9",
          "logIndex": "0x10",
          "removed": false
        },
        {
          "address": "0x2e8af9c5922623058aa92a183b391e62cb6b2d12",
          "topics": [
            "0xf8e1a15aba9398e019f0b49df1a4fde98ee17ae345cb5f6b5e2c27f5033e8ce7"
          ],
          "data": "0x0000000000000000000000000000000000000000000000000000000000000167",
          "blockHash": "0x602183b6c71ac752a4587c3e51416effeda23a6a32ae99e9eb4bd53e2ddb12df",
          "blockNumber": "0x750788",
          "transactionHash": "0x0de3979d01f949e77b84cf0865dcdffc95ee618384daecb504439914ed4e75e4",
          "transactionIndex": "0x9",
          "logIndex": "0x11",
          "removed": false
        }
      ],
      "logsBloom": "0x00000000000000000000000000000000000000020000000000000000000000000000000000000000000000000000000000000000000000000000000000000000000000000000000000000008040000000000000000000000000000000000000000000000020000000000000000000800002000000000800000000010000000000000000000000001000000000000000000000000000000000000000000000000000000000000000000000000000000002000000088004000000000000000008000000002000000000000000000000000000000000000000000000000000020000000000000000000200000000000000000000000100000000000000000000000",
      "type": "0x2",
      "transactionHash": "0x0de3979d01f949e77b84cf0865dcdffc95ee618384daecb504439914ed4e75e4",
      "transactionIndex": "0x9",
      "blockHash": "0x602183b6c71ac752a4587c3e51416effeda23a6a32ae99e9eb4bd53e2ddb12df",
      "blockNumber": "0x750788",
      "gasUsed": "0x2ccb8",
      "effectiveGasPrice": "0xfd",
      "from": "0xcda2fdb452ff4f5d7ba1c3d5dfcc9cb926a5eb7d",
      "to": "0x79dfbed14077b8f2421eece5707a17b161094e6a",
      "contractAddress": null,
      "l1BaseFeeScalar": "0x186a0",
      "l1BlobBaseFee": "0x1",
      "l1BlobBaseFeeScalar": "0x95506",
      "l1Fee": "0x94428bd6bd",
      "l1GasPrice": "0xed374624",
      "l1GasUsed": "0x640"
    },
    {
      "status": "0x1",
      "cumulativeGasUsed": "0x1caa7b",
      "logs": [
        {
          "address": "0x2e8af9c5922623058aa92a183b391e62cb6b2d12",
          "topics": [
            "0xddf252ad1be2c89b69c2b068fc378daa952ba7f163c4a11628f55a4df523b3ef",
            "0x0000000000000000000000000000000000000000000000000000000000000000",
            "0x000000000000000000000000cda2fdb452ff4f5d7ba1c3d5dfcc9cb926a5eb7d",
            "0x0000000000000000000000000000000000000000000000000000000000000168"
          ],
          "data": "0x",
          "blockHash": "0x602183b6c71ac752a4587c3e51416effeda23a6a32ae99e9eb4bd53e2ddb12df",
          "blockNumber": "0x750788",
          "transactionHash": "0x5a011d9c9afcddb113a93d743c72e2c75bf88df7dd150f52b03a99c3f5be4e01",
          "transactionIndex": "0xa",
          "logIndex": "0x12",
          "removed": false
        },
        {
          "address": "0x2e8af9c5922623058aa92a183b391e62cb6b2d12",
          "topics": [
            "0xf8e1a15aba9398e019f0b49df1a4fde98ee17ae345cb5f6b5e2c27f5033e8ce7"
          ],
          "data": "0x0000000000000000000000000000000000000000000000000000000000000168",
          "blockHash": "0x602183b6c71ac752a4587c3e51416effeda23a6a32ae99e9eb4bd53e2ddb12df",
          "blockNumber": "0x750788",
          "transactionHash": "0x5a011d9c9afcddb113a93d743c72e2c75bf88df7dd150f52b03a99c3f5be4e01",
          "transactionIndex": "0xa",
          "logIndex": "0x13",
          "removed": false
        }
      ],
      "logsBloom": "0x00000000000000000000000000000000040000020000000000000000000000000000000000000000000000000000000000000000000000000000000000000000000000000000000000000008040000000000000000000000000000000000000000000000020000000000000000000800006000000000800000000010000000000000000000000000000000000000000000000000000000000000000000000000000000000000000000000000000000002000000000004000000000000000008000000002000000000000000000000000000000000000000000000000000020000000000000000000200000000000000000800000100000000000000000000000",
      "type": "0x2",
      "transactionHash": "0x5a011d9c9afcddb113a93d743c72e2c75bf88df7dd150f52b03a99c3f5be4e01",
      "transactionIndex": "0xa",
      "blockHash": "0x602183b6c71ac752a4587c3e51416effeda23a6a32ae99e9eb4bd53e2ddb12df",
      "blockNumber": "0x750788",
      "gasUsed": "0x2ccb8",
      "effectiveGasPrice": "0xfd",
      "from": "0xcda2fdb452ff4f5d7ba1c3d5dfcc9cb926a5eb7d",
      "to": "0x79dfbed14077b8f2421eece5707a17b161094e6a",
      "contractAddress": null,
      "l1BaseFeeScalar": "0x186a0",
      "l1BlobBaseFee": "0x1",
      "l1BlobBaseFeeScalar": "0x95506",
      "l1Fee": "0x94428bd6bd",
      "l1GasPrice": "0xed374624",
      "l1GasUsed": "0x640"
    },
    {
      "status": "0x1",
      "cumulativeGasUsed": "0x1f7733",
      "logs": [
        {
          "address": "0x2e8af9c5922623058aa92a183b391e62cb6b2d12",
          "topics": [
            "0xddf252ad1be2c89b69c2b068fc378daa952ba7f163c4a11628f55a4df523b3ef",
            "0x0000000000000000000000000000000000000000000000000000000000000000",
            "0x000000000000000000000000cda2fdb452ff4f5d7ba1c3d5dfcc9cb926a5eb7d",
            "0x0000000000000000000000000000000000000000000000000000000000000169"
          ],
          "data": "0x",
          "blockHash": "0x602183b6c71ac752a4587c3e51416effeda23a6a32ae99e9eb4bd53e2ddb12df",
          "blockNumber": "0x750788",
          "transactionHash": "0x12dead57db040920bcea99816e1778a814e375c11c0fe3cf4fa31d5d3eeb5d82",
          "transactionIndex": "0xb",
          "logIndex": "0x14",
          "removed": false
        },
        {
          "address": "0x2e8af9c5922623058aa92a183b391e62cb6b2d12",
          "topics": [
            "0xf8e1a15aba9398e019f0b49df1a4fde98ee17ae345cb5f6b5e2c27f5033e8ce7"
          ],
          "data": "0x0000000000000000000000000000000000000000000000000000000000000169",
          "blockHash": "0x602183b6c71ac752a4587c3e51416effeda23a6a32ae99e9eb4bd53e2ddb12df",
          "blockNumber": "0x750788",
          "transactionHash": "0x12dead57db040920bcea99816e1778a814e375c11c0fe3cf4fa31d5d3eeb5d82",
          "transactionIndex": "0xb",
          "logIndex": "0x15",
          "removed": false
        }
      ],
      "logsBloom": "0x00000000000000000000000000000000000000020000000000000000000000000000000000000000000000000000000000000000000000000000000000000000000000000000000000000008040001000000000000000000000000000000000000000000020000000000000000000800002000000000800000000010000000000000000000000000000000000000000000000000000000000000000000000000000000000000000000000020000000002000000000004000000000000000008020000002000000000000000000000000000000000000000000000000000020000000000000000000200000000000000000000000100000000000000000000000",
      "type": "0x2",
      "transactionHash": "0x12dead57db040920bcea99816e1778a814e375c11c0fe3cf4fa31d5d3eeb5d82",
      "transactionIndex": "0xb",
      "blockHash": "0x602183b6c71ac752a4587c3e51416effeda23a6a32ae99e9eb4bd53e2ddb12df",
      "blockNumber": "0x750788",
      "gasUsed": "0x2ccb8",
      "effectiveGasPrice": "0xfd",
      "from": "0xcda2fdb452ff4f5d7ba1c3d5dfcc9cb926a5eb7d",
      "to": "0x79dfbed14077b8f2421eece5707a17b161094e6a",
      "contractAddress": null,
      "l1BaseFeeScalar": "0x186a0",
      "l1BlobBaseFee": "0x1",
      "l1BlobBaseFeeScalar": "0x95506",
      "l1Fee": "0x94428bd6bd",
      "l1GasPrice": "0xed374624",
      "l1GasUsed": "0x640"
    },
    {
      "status": "0x1",
      "cumulativeGasUsed": "0x2243eb",
      "logs": [
        {
          "address": "0x2e8af9c5922623058aa92a183b391e62cb6b2d12",
          "topics": [
            "0xddf252ad1be2c89b69c2b068fc378daa952ba7f163c4a11628f55a4df523b3ef",
            "0x0000000000000000000000000000000000000000000000000000000000000000",
            "0x000000000000000000000000cda2fdb452ff4f5d7ba1c3d5dfcc9cb926a5eb7d",
            "0x000000000000000000000000000000000000000000000000000000000000016a"
          ],
          "data": "0x",
          "blockHash": "0x602183b6c71ac752a4587c3e51416effeda23a6a32ae99e9eb4bd53e2ddb12df",
          "blockNumber": "0x750788",
          "transactionHash": "0xbda0fa80bf332c323092a6b7ef9f706c8b8a6d9b6b32b5ac7a89fb0db721a8c0",
          "transactionIndex": "0xc",
          "logIndex": "0x16",
          "removed": false
        },
        {
          "address": "0x2e8af9c5922623058aa92a183b391e62cb6b2d12",
          "topics": [
            "0xf8e1a15aba9398e019f0b49df1a4fde98ee17ae345cb5f6b5e2c27f5033e8ce7"
          ],
          "data": "0x000000000000000000000000000000000000000000000000000000000000016a",
          "blockHash": "0x602183b6c71ac752a4587c3e51416effeda23a6a32ae99e9eb4bd53e2ddb12df",
          "blockNumber": "0x750788",
          "transactionHash": "0xbda0fa80bf332c323092a6b7ef9f706c8b8a6d9b6b32b5ac7a89fb0db721a8c0",
          "transactionIndex": "0xc",
          "logIndex": "0x17",
          "removed": false
        }
      ],
      "logsBloom": "0x00000000040000000000000000000000000000020000000000000000000000000000000000000000000000000000000000000000000000000000000000000000000000000000000000000008040000000000000000000000000000000000000000000000020000000000000000000800002000000000800000000010000000000000000000000000000000000000000000000000000000000000000000000000000000800000000000000000000000002000000000004000000000000000008000000002000000000000000000000000000000000000000000200000000020000000000000000000200000000000000000000000100000000000000000000000",
      "type": "0x2",
      "transactionHash": "0xbda0fa80bf332c323092a6b7ef9f706c8b8a6d9b6b32b5ac7a89fb0db721a8c0",
      "transactionIndex": "0xc",
      "blockHash": "0x602183b6c71ac752a4587c3e51416effeda23a6a32ae99e9eb4bd53e2ddb12df",
      "blockNumber": "0x750788",
      "gasUsed": "0x2ccb8",
      "effectiveGasPrice": "0xfd",
      "from": "0xcda2fdb452ff4f5d7ba1c3d5dfcc9cb926a5eb7d",
      "to": "0x79dfbed14077b8f2421eece5707a17b161094e6a",
      "contractAddress": null,
      "l1BaseFeeScalar": "0x186a0",
      "l1BlobBaseFee": "0x1",
      "l1BlobBaseFeeScalar": "0x95506",
      "l1Fee": "0x94428bd6bd",
      "l1GasPrice": "0xed374624",
      "l1GasUsed": "0x640"
    },
    {
      "status": "0x1",
      "cumulativeGasUsed": "0x2510a3",
      "logs": [
        {
          "address": "0x2e8af9c5922623058aa92a183b391e62cb6b2d12",
          "topics": [
            "0xddf252ad1be2c89b69c2b068fc378daa952ba7f163c4a11628f55a4df523b3ef",
            "0x0000000000000000000000000000000000000000000000000000000000000000",
            "0x000000000000000000000000cda2fdb452ff4f5d7ba1c3d5dfcc9cb926a5eb7d",
            "0x000000000000000000000000000000000000000000000000000000000000016b"
          ],
          "data": "0x",
          "blockHash": "0x602183b6c71ac752a4587c3e51416effeda23a6a32ae99e9eb4bd53e2ddb12df",
          "blockNumber": "0x750788",
          "transactionHash": "0x118a2699b3c9790f92c6f428e287133a133be71ad908434e62d2fb1e7115036f",
          "transactionIndex": "0xd",
          "logIndex": "0x18",
          "removed": false
        },
        {
          "address": "0x2e8af9c5922623058aa92a183b391e62cb6b2d12",
          "topics": [
            "0xf8e1a15aba9398e019f0b49df1a4fde98ee17ae345cb5f6b5e2c27f5033e8ce7"
          ],
          "data": "0x000000000000000000000000000000000000000000000000000000000000016b",
          "blockHash": "0x602183b6c71ac752a4587c3e51416effeda23a6a32ae99e9eb4bd53e2ddb12df",
          "blockNumber": "0x750788",
          "transactionHash": "0x118a2699b3c9790f92c6f428e287133a133be71ad908434e62d2fb1e7115036f",
          "transactionIndex": "0xd",
          "logIndex": "0x19",
          "removed": false
        }
      ],
      "logsBloom": "0x00000000000000000000000000000000000000020000000000000000000000000000000000000000000000000000000000000000000000000000000000000000000000000000001000000008040000000000000000000000000000000000000000000000020000000004000000000800002000000000800000000410000000000000000000000000000000000000000000000000000000000000000000000000000000000000000000000000000000002000000000004000000000000000008000000002000000000000000000000000000000000000000000000000000020000000000000000000200000000000000000000000100000000000000000000000",
      "type": "0x2",
      "transactionHash": "0x118a2699b3c9790f92c6f428e287133a133be71ad908434e62d2fb1e7115036f",
      "transactionIndex": "0xd",
      "blockHash": "0x602183b6c71ac752a4587c3e51416effeda23a6a32ae99e9eb4bd53e2ddb12df",
      "blockNumber": "0x750788",
      "gasUsed": "0x2ccb8",
      "effectiveGasPrice": "0xfd",
      "from": "0xcda2fdb452ff4f5d7ba1c3d5dfcc9cb926a5eb7d",
      "to": "0x79dfbed14077b8f2421eece5707a17b161094e6a",
      "contractAddress": null,
      "l1BaseFeeScalar": "0x186a0",
      "l1BlobBaseFee": "0x1",
      "l1BlobBaseFeeScalar": "0x95506",
      "l1Fee": "0x94428bd6bd",
      "l1GasPrice": "0xed374624",
      "l1GasUsed": "0x640"
    },
    {
      "status": "0x1",
      "cumulativeGasUsed": "0x27dd5b",
      "logs": [
        {
          "address": "0x2e8af9c5922623058aa92a183b391e62cb6b2d12",
          "topics": [
            "0xddf252ad1be2c89b69c2b068fc378daa952ba7f163c4a11628f55a4df523b3ef",
            "0x0000000000000000000000000000000000000000000000000000000000000000",
            "0x000000000000000000000000cda2fdb452ff4f5d7ba1c3d5dfcc9cb926a5eb7d",
            "0x000000000000000000000000000000000000000000000000000000000000016c"
          ],
          "data": "0x",
          "blockHash": "0x602183b6c71ac752a4587c3e51416effeda23a6a32ae99e9eb4bd53e2ddb12df",
          "blockNumber": "0x750788",
          "transactionHash": "0xa999636e8e3657c21ba07282200c3a94ef999737566b38102ef64d2c61561883",
          "transactionIndex": "0xe",
          "logIndex": "0x1a",
          "removed": false
        },
        {
          "address": "0x2e8af9c5922623058aa92a183b391e62cb6b2d12",
          "topics": [
            "0xf8e1a15aba9398e019f0b49df1a4fde98ee17ae345cb5f6b5e2c27f5033e8ce7"
          ],
          "data": "0x000000000000000000000000000000000000000000000000000000000000016c",
          "blockHash": "0x602183b6c71ac752a4587c3e51416effeda23a6a32ae99e9eb4bd53e2ddb12df",
          "blockNumber": "0x750788",
          "transactionHash": "0xa999636e8e3657c21ba07282200c3a94ef999737566b38102ef64d2c61561883",
          "transactionIndex": "0xe",
          "logIndex": "0x1b",
          "removed": false
        }
      ],
      "logsBloom": "0x00000000000000000002000000000000000000020000000000000000000000000000000000000000000000000000000000000000000000000000000000000000000000000000000000008008040000000000000000000000000000000000000000000000020000000000000000000800002000000000800000000010000000000000000000000000000000000000000000000000000000000000000000000000000000000000000000000000000000002000000000004000000000000000008000000002000000000000000000000000000000000000000000000000000020000000000000000000200000000000000001000000100000000000000000000000",
      "type": "0x2",
      "transactionHash": "0xa999636e8e3657c21ba07282200c3a94ef999737566b38102ef64d2c61561883",
      "transactionIndex": "0xe",
      "blockHash": "0x602183b6c71ac752a4587c3e51416effeda23a6a32ae99e9eb4bd53e2ddb12df",
      "blockNumber": "0x750788",
      "gasUsed": "0x2ccb8",
      "effectiveGasPrice": "0xfd",
      "from": "0xcda2fdb452ff4f5d7ba1c3d5dfcc9cb926a5eb7d",
      "to": "0x79dfbed14077b8f2421eece5707a17b161094e6a",
      "contractAddress": null,
      "l1BaseFeeScalar": "0x186a0",
      "l1BlobBaseFee": "0x1",
      "l1BlobBaseFeeScalar": "0x95506",
      "l1Fee": "0x94428bd6bd",
      "l1GasPrice": "0xed374624",
      "l1GasUsed": "0x640"
    },
    {
      "status": "0x1",
      "cumulativeGasUsed": "0x2aaa13",
      "logs": [
        {
          "address": "0x2e8af9c5922623058aa92a183b391e62cb6b2d12",
          "topics": [
            "0xddf252ad1be2c89b69c2b068fc378daa952ba7f163c4a11628f55a4df523b3ef",
            "0x0000000000000000000000000000000000000000000000000000000000000000",
            "0x000000000000000000000000cda2fdb452ff4f5d7ba1c3d5dfcc9cb926a5eb7d",
            "0x000000000000000000000000000000000000000000000000000000000000016d"
          ],
          "data": "0x",
          "blockHash": "0x602183b6c71ac752a4587c3e51416effeda23a6a32ae99e9eb4bd53e2ddb12df",
          "blockNumber": "0x750788",
          "transactionHash": "0xb6afc2777d3bac0fc0a4fc9635144fd5863a2b9d757bcde83690e244dcf60ad6",
          "transactionIndex": "0xf",
          "logIndex": "0x1c",
          "removed": false
        },
        {
          "address": "0x2e8af9c5922623058aa92a183b391e62cb6b2d12",
          "topics": [
            "0xf8e1a15aba9398e019f0b49df1a4fde98ee17ae345cb5f6b5e2c27f5033e8ce7"
          ],
          "data": "0x000000000000000000000000000000000000000000000000000000000000016d",
          "blockHash": "0x602183b6c71ac752a4587c3e51416effeda23a6a32ae99e9eb4bd53e2ddb12df",
          "blockNumber": "0x750788",
          "transactionHash": "0xb6afc2777d3bac0fc0a4fc9635144fd5863a2b9d757bcde83690e244dcf60ad6",
          "transactionIndex": "0xf",
          "logIndex": "0x1d",
          "removed": false
        }
      ],
      "logsBloom": "0x00000000000000000000000000000000000000020000000000000000000000000000000000000000000000000000000000000000000000000000000000000000000000000000000000000008040000000000000000000000000000000000000000000000020000000000000000000800002000000000800000000010000000000000000000000000000000000000000000000000800000000000000000000000000000000000000000000000000000002040000000004000000000000000008000000002000000000000000000010000000000000000000000000000000020000000000000000000200000000000000000000000100000000000000000000000",
      "type": "0x2",
      "transactionHash": "0xb6afc2777d3bac0fc0a4fc9635144fd5863a2b9d757bcde83690e244dcf60ad6",
      "transactionIndex": "0xf",
      "blockHash": "0x602183b6c71ac752a4587c3e51416effeda23a6a32ae99e9eb4bd53e2ddb12df",
      "blockNumber": "0x750788",
      "gasUsed": "0x2ccb8",
      "effectiveGasPrice": "0xfd",
      "from": "0xcda2fdb452ff4f5d7ba1c3d5dfcc9cb926a5eb7d",
      "to": "0x79dfbed14077b8f2421eece5707a17b161094e6a",
      "contractAddress": null,
      "l1BaseFeeScalar": "0x186a0",
      "l1BlobBaseFee": "0x1",
      "l1BlobBaseFeeScalar": "0x95506",
      "l1Fee": "0x94428bd6bd",
      "l1GasPrice": "0xed374624",
      "l1GasUsed": "0x640"
    },
    {
      "status": "0x1",
      "cumulativeGasUsed": "0x2d76cb",
      "logs": [
        {
          "address": "0x2e8af9c5922623058aa92a183b391e62cb6b2d12",
          "topics": [
            "0xddf252ad1be2c89b69c2b068fc378daa952ba7f163c4a11628f55a4df523b3ef",
            "0x0000000000000000000000000000000000000000000000000000000000000000",
            "0x000000000000000000000000cda2fdb452ff4f5d7ba1c3d5dfcc9cb926a5eb7d",
            "0x000000000000000000000000000000000000000000000000000000000000016e"
          ],
          "data": "0x",
          "blockHash": "0x602183b6c71ac752a4587c3e51416effeda23a6a32ae99e9eb4bd53e2ddb12df",
          "blockNumber": "0x750788",
          "transactionHash": "0xc5629de26781e470fc0322c4fedc767a82bec32f57bf3ae5ed2548fd80ecf7c1",
          "transactionIndex": "0x10",
          "logIndex": "0x1e",
          "removed": false
        },
        {
          "address": "0x2e8af9c5922623058aa92a183b391e62cb6b2d12",
          "topics": [
            "0xf8e1a15aba9398e019f0b49df1a4fde98ee17ae345cb5f6b5e2c27f5033e8ce7"
          ],
          "data": "0x000000000000000000000000000000000000000000000000000000000000016e",
          "blockHash": "0x602183b6c71ac752a4587c3e51416effeda23a6a32ae99e9eb4bd53e2ddb12df",
          "blockNumber": "0x750788",
          "transactionHash": "0xc5629de26781e470fc0322c4fedc767a82bec32f57bf3ae5ed2548fd80ecf7c1",
          "transactionIndex": "0x10",
          "logIndex": "0x1f",
          "removed": false
        }
      ],
      "logsBloom": "0x00000000000000000000000000000000000000020000000000000000000000000000000000000000000000000000000000000000000000000000000000000000000000000000000000000008040000000000000000000000000000000000000000000000020000000400000000000800002000000000800000000010000000000040000000000000000000000000000000000000000000000000000000000000000000000000000000000000000000002000000000004000000000000000008000000002000000000000000000000000000000000000000000000000000020000000000000000000200000000000000000000000100000000000800000000000",
      "type": "0x2",
      "transactionHash": "0xc5629de26781e470fc0322c4fedc767a82bec32f57bf3ae5ed2548fd80ecf7c1",
      "transactionIndex": "0x10",
      "blockHash": "0x602183b6c71ac752a4587c3e51416effeda23a6a32ae99e9eb4bd53e2ddb12df",
      "blockNumber": "0x750788",
      "gasUsed": "0x2ccb8",
      "effectiveGasPrice": "0xfd",
      "from": "0xcda2fdb452ff4f5d7ba1c3d5dfcc9cb926a5eb7d",
      "to": "0x79dfbed14077b8f2421eece5707a17b161094e6a",
      "contractAddress": null,
      "l1BaseFeeScalar": "0x186a0",
      "l1BlobBaseFee": "0x1",
      "l1BlobBaseFeeScalar": "0x95506",
      "l1Fee": "0x94428bd6bd",
      "l1GasPrice": "0xed374624",
      "l1GasUsed": "0x640"
    },
    {
      "status": "0x1",
      "cumulativeGasUsed": "0x304383",
      "logs": [
        {
          "address": "0x2e8af9c5922623058aa92a183b391e62cb6b2d12",
          "topics": [
            "0xddf252ad1be2c89b69c2b068fc378daa952ba7f163c4a11628f55a4df523b3ef",
            "0x0000000000000000000000000000000000000000000000000000000000000000",
            "0x000000000000000000000000cda2fdb452ff4f5d7ba1c3d5dfcc9cb926a5eb7d",
            "0x000000000000000000000000000000000000000000000000000000000000016f"
          ],
          "data": "0x",
          "blockHash": "0x602183b6c71ac752a4587c3e51416effeda23a6a32ae99e9eb4bd53e2ddb12df",
          "blockNumber": "0x750788",
          "transactionHash": "0xddc9d13d737c129a1476a791ed54af997d9847e45996d9309910d4861b31178d",
          "transactionIndex": "0x11",
          "logIndex": "0x20",
          "removed": false
        },
        {
          "address": "0x2e8af9c5922623058aa92a183b391e62cb6b2d12",
          "topics": [
            "0xf8e1a15aba9398e019f0b49df1a4fde98ee17ae345cb5f6b5e2c27f5033e8ce7"
          ],
          "data": "0x000000000000000000000000000000000000000000000000000000000000016f",
          "blockHash": "0x602183b6c71ac752a4587c3e51416effeda23a6a32ae99e9eb4bd53e2ddb12df",
          "blockNumber": "0x750788",
          "transactionHash": "0xddc9d13d737c129a1476a791ed54af997d9847e45996d9309910d4861b31178d",
          "transactionIndex": "0x11",
          "logIndex": "0x21",
          "removed": false
        }
      ],
      "logsBloom": "0x00000000000400000000000000000000000000020000000000000000000000000000000000000000000000000000000000000000000000000000000000000000000000000000000000000008040000002000000000000000000000000000000000000000020000000000000000000800002000000000800000000010000000000000000000000000000000000000000000000000000000000000000000000000000000000000000000000000000000002000000000004000000000000000008000000002000000000000000000000000000000000000000000000000000020000000000000000000200000000000000000000000100000000000000000000001",
      "type": "0x2",
      "transactionHash": "0xddc9d13d737c129a1476a791ed54af997d9847e45996d9309910d4861b31178d",
      "transactionIndex": "0x11",
      "blockHash": "0x602183b6c71ac752a4587c3e51416effeda23a6a32ae99e9eb4bd53e2ddb12df",
      "blockNumber": "0x750788",
      "gasUsed": "0x2ccb8",
      "effectiveGasPrice": "0xfd",
      "from": "0xcda2fdb452ff4f5d7ba1c3d5dfcc9cb926a5eb7d",
      "to": "0x79dfbed14077b8f2421eece5707a17b161094e6a",
      "contractAddress": null,
      "l1BaseFeeScalar": "0x186a0",
      "l1BlobBaseFee": "0x1",
      "l1BlobBaseFeeScalar": "0x95506",
      "l1Fee": "0x94428bd6bd",
      "l1GasPrice": "0xed374624",
      "l1GasUsed": "0x640"
    },
    {
      "status": "0x1",
      "cumulativeGasUsed": "0x33103b",
      "logs": [
        {
          "address": "0x2e8af9c5922623058aa92a183b391e62cb6b2d12",
          "topics": [
            "0xddf252ad1be2c89b69c2b068fc378daa952ba7f163c4a11628f55a4df523b3ef",
            "0x0000000000000000000000000000000000000000000000000000000000000000",
            "0x000000000000000000000000cda2fdb452ff4f5d7ba1c3d5dfcc9cb926a5eb7d",
            "0x0000000000000000000000000000000000000000000000000000000000000170"
          ],
          "data": "0x",
          "blockHash": "0x602183b6c71ac752a4587c3e51416effeda23a6a32ae99e9eb4bd53e2ddb12df",
          "blockNumber": "0x750788",
          "transactionHash": "0xec0d03b9b561314caf0bcc2b835361768f7753a192cd1a5ee32f57383cea2aac",
          "transactionIndex": "0x12",
          "logIndex": "0x22",
          "removed": false
        },
        {
          "address": "0x2e8af9c5922623058aa92a183b391e62cb6b2d12",
          "topics": [
            "0xf8e1a15aba9398e019f0b49df1a4fde98ee17ae345cb5f6b5e2c27f5033e8ce7"
          ],
          "data": "0x0000000000000000000000000000000000000000000000000000000000000170",
          "blockHash": "0x602183b6c71ac752a4587c3e51416effeda23a6a32ae99e9eb4bd53e2ddb12df",
          "blockNumber": "0x750788",
          "transactionHash": "0xec0d03b9b561314caf0bcc2b835361768f7753a192cd1a5ee32f57383cea2aac",
          "transactionIndex": "0x12",
          "logIndex": "0x23",
          "removed": false
        }
      ],
      "logsBloom": "0x00000000000000000004000000000000000000020000000000000000000800000000000000000000000000000000000000000000000000000000000000000000000000000000000000000008040000000000000000000000000000000000000000000000020000000000000000000800002000000000800000000010000000000000000000000000000000000000000000000000000000000000000000000000000000000000000000000000000000002000000000004000000000000000008000000002000000000000000000000000000000000000000000000000000020000000000200000000200000000000000000000000100000000000000000000000",
      "type": "0x2",
      "transactionHash": "0xec0d03b9b561314caf0bcc2b835361768f7753a192cd1a5ee32f57383cea2aac",
      "transactionIndex": "0x12",
      "blockHash": "0x602183b6c71ac752a4587c3e51416effeda23a6a32ae99e9eb4bd53e2ddb12df",
      "blockNumber": "0x750788",
      "gasUsed": "0x2ccb8",
      "effectiveGasPrice": "0xfd",
      "from": "0xcda2fdb452ff4f5d7ba1c3d5dfcc9cb926a5eb7d",
      "to": "0x79dfbed14077b8f2421eece5707a17b161094e6a",
      "contractAddress": null,
      "l1BaseFeeScalar": "0x186a0",
      "l1BlobBaseFee": "0x1",
      "l1BlobBaseFeeScalar": "0x95506",
      "l1Fee": "0x94428bd6bd",
      "l1GasPrice": "0xed374624",
      "l1GasUsed": "0x640"
    },
    {
      "status": "0x1",
      "cumulativeGasUsed": "0x35dcf3",
      "logs": [
        {
          "address": "0x2e8af9c5922623058aa92a183b391e62cb6b2d12",
          "topics": [
            "0xddf252ad1be2c89b69c2b068fc378daa952ba7f163c4a11628f55a4df523b3ef",
            "0x0000000000000000000000000000000000000000000000000000000000000000",
            "0x000000000000000000000000cda2fdb452ff4f5d7ba1c3d5dfcc9cb926a5eb7d",
            "0x0000000000000000000000000000000000000000000000000000000000000171"
          ],
          "data": "0x",
          "blockHash": "0x602183b6c71ac752a4587c3e51416effeda23a6a32ae99e9eb4bd53e2ddb12df",
          "blockNumber": "0x750788",
          "transactionHash": "0xff78ff50cf0b0d6af9fbf40d4d3c732b0b0d814add3cf747d21adee1149328a8",
          "transactionIndex": "0x13",
          "logIndex": "0x24",
          "removed": false
        },
        {
          "address": "0x2e8af9c5922623058aa92a183b391e62cb6b2d12",
          "topics": [
            "0xf8e1a15aba9398e019f0b49df1a4fde98ee17ae345cb5f6b5e2c27f5033e8ce7"
          ],
          "data": "0x0000000000000000000000000000000000000000000000000000000000000171",
          "blockHash": "0x602183b6c71ac752a4587c3e51416effeda23a6a32ae99e9eb4bd53e2ddb12df",
          "blockNumber": "0x750788",
          "transactionHash": "0xff78ff50cf0b0d6af9fbf40d4d3c732b0b0d814add3cf747d21adee1149328a8",
          "transactionIndex": "0x13",
          "logIndex": "0x25",
          "removed": false
        }
      ],
      "logsBloom": "0x00000000000000000000000000000000000000020000000000000000000000000000000000000000000000000000000000000000000000000000000000000000000000000000000000000008040000000000000000000000000000000000000000000000020000000000000000000800002000000000800000000010000000000000080000000000000000000000000000000000000000000000000000000000000000000000000000400000000000002000000000004000000000000000008000000002000000000000000000000000000000000000000000000000000020000000000000000000200000000000000000000000120000000000000000000000",
      "type": "0x2",
      "transactionHash": "0xff78ff50cf0b0d6af9fbf40d4d3c732b0b0d814add3cf747d21adee1149328a8",
      "transactionIndex": "0x13",
      "blockHash": "0x602183b6c71ac752a4587c3e51416effeda23a6a32ae99e9eb4bd53e2ddb12df",
      "blockNumber": "0x750788",
      "gasUsed": "0x2ccb8",
      "effectiveGasPrice": "0xfd",
      "from": "0xcda2fdb452ff4f5d7ba1c3d5dfcc9cb926a5eb7d",
      "to": "0x79dfbed14077b8f2421eece5707a17b161094e6a",
      "contractAddress": null,
      "l1BaseFeeScalar": "0x186a0",
      "l1BlobBaseFee": "0x1",
      "l1BlobBaseFeeScalar": "0x95506",
      "l1Fee": "0x94428bd6bd",
      "l1GasPrice": "0xed374624",
      "l1GasUsed": "0x640"
    },
    {
      "status": "0x1",
      "cumulativeGasUsed": "0x38a9ab",
      "logs": [
        {
          "address": "0x2e8af9c5922623058aa92a183b391e62cb6b2d12",
          "topics": [
            "0xddf252ad1be2c89b69c2b068fc378daa952ba7f163c4a11628f55a4df523b3ef",
            "0x0000000000000000000000000000000000000000000000000000000000000000",
            "0x000000000000000000000000cda2fdb452ff4f5d7ba1c3d5dfcc9cb926a5eb7d",
            "0x0000000000000000000000000000000000000000000000000000000000000172"
          ],
          "data": "0x",
          "blockHash": "0x602183b6c71ac752a4587c3e51416effeda23a6a32ae99e9eb4bd53e2ddb12df",
          "blockNumber": "0x750788",
          "transactionHash": "0xb61162cadc5b2b2850fe33caff681568b75f3f761eeb9d8a62ea3c318c58b414",
          "transactionIndex": "0x14",
          "logIndex": "0x26",
          "removed": false
        },
        {
          "address": "0x2e8af9c5922623058aa92a183b391e62cb6b2d12",
          "topics": [
            "0xf8e1a15aba9398e019f0b49df1a4fde98ee17ae345cb5f6b5e2c27f5033e8ce7"
          ],
          "data": "0x0000000000000000000000000000000000000000000000000000000000000172",
          "blockHash": "0x602183b6c71ac752a4587c3e51416effeda23a6a32ae99e9eb4bd53e2ddb12df",
          "blockNumber": "0x750788",
          "transactionHash": "0xb61162cadc5b2b2850fe33caff681568b75f3f761eeb9d8a62ea3c318c58b414",
          "transactionIndex": "0x14",
          "logIndex": "0x27",
          "removed": false
        }
      ],
      "logsBloom": "0x00000000000000000000000000000000000000020000000000000000000000000000000000000000000000000000000000000000000000000000000000000000000000000000000000000008042000000000000000000000000004000000000000000000020000000000000000000800002000000000800000000010000000000000000000000000000000000000000000000000000000000000000000080000000000000000000000000000000000002000000000004000000000000000008000000002000000000000000000000000000000000000000000000000000020000000000000000000200000000000000000000000100000000000000000000000",
      "type": "0x2",
      "transactionHash": "0xb61162cadc5b2b2850fe33caff681568b75f3f761eeb9d8a62ea3c318c58b414",
      "transactionIndex": "0x14",
      "blockHash": "0x602183b6c71ac752a4587c3e51416effeda23a6a32ae99e9eb4bd53e2ddb12df",
      "blockNumber": "0x750788",
      "gasUsed": "0x2ccb8",
      "effectiveGasPrice": "0xfd",
      "from": "0xcda2fdb452ff4f5d7ba1c3d5dfcc9cb926a5eb7d",
      "to": "0x79dfbed14077b8f2421eece5707a17b161094e6a",
      "contractAddress": null,
      "l1BaseFeeScalar": "0x186a0",
      "l1BlobBaseFee": "0x1",
      "l1BlobBaseFeeScalar": "0x95506",
      "l1Fee": "0x94428bd6bd",
      "l1GasPrice": "0xed374624",
      "l1GasUsed": "0x640"
    },
    {
      "status": "0x1",
      "cumulativeGasUsed": "0x3b7663",
      "logs": [
        {
          "address": "0x2e8af9c5922623058aa92a183b391e62cb6b2d12",
          "topics": [
            "0xddf252ad1be2c89b69c2b068fc378daa952ba7f163c4a11628f55a4df523b3ef",
            "0x0000000000000000000000000000000000000000000000000000000000000000",
            "0x000000000000000000000000cda2fdb452ff4f5d7ba1c3d5dfcc9cb926a5eb7d",
            "0x0000000000000000000000000000000000000000000000000000000000000173"
          ],
          "data": "0x",
          "blockHash": "0x602183b6c71ac752a4587c3e51416effeda23a6a32ae99e9eb4bd53e2ddb12df",
          "blockNumber": "0x750788",
          "transactionHash": "0x0d9a5e720a62702ac586f65bfbfa4eb338685f30e5755a0eea265c0b772ba995",
          "transactionIndex": "0x15",
          "logIndex": "0x28",
          "removed": false
        },
        {
          "address": "0x2e8af9c5922623058aa92a183b391e62cb6b2d12",
          "topics": [
            "0xf8e1a15aba9398e019f0b49df1a4fde98ee17ae345cb5f6b5e2c27f5033e8ce7"
          ],
          "data": "0x0000000000000000000000000000000000000000000000000000000000000173",
          "blockHash": "0x602183b6c71ac752a4587c3e51416effeda23a6a32ae99e9eb4bd53e2ddb12df",
          "blockNumber": "0x750788",
          "transactionHash": "0x0d9a5e720a62702ac586f65bfbfa4eb338685f30e5755a0eea265c0b772ba995",
          "transactionIndex": "0x15",
          "logIndex": "0x29",
          "removed": false
        }
      ],
      "logsBloom": "0x00000000000000000000000000000000000000020000000000000000000000000000000000000100000004000008000000000000000000000000000000000000000000000000000000000008040000000000000000000000000000000000000000000000020000000000000000000800002000000000800000000010000000000000000000000000000000000000000000000000000000000000000000000000000000000000000000000000000000002000000000004000000000000000008000000002000000000000000000000000000000000000000000000000000020000000000000000000200000000000000000000000100000000000000000000000",
      "type": "0x2",
      "transactionHash": "0x0d9a5e720a62702ac586f65bfbfa4eb338685f30e5755a0eea265c0b772ba995",
      "transactionIndex": "0x15",
      "blockHash": "0x602183b6c71ac752a4587c3e51416effeda23a6a32ae99e9eb4bd53e2ddb12df",
      "blockNumber": "0x750788",
      "gasUsed": "0x2ccb8",
      "effectiveGasPrice": "0xfd",
      "from": "0xcda2fdb452ff4f5d7ba1c3d5dfcc9cb926a5eb7d",
      "to": "0x79dfbed14077b8f2421eece5707a17b161094e6a",
      "contractAddress": null,
      "l1BaseFeeScalar": "0x186a0",
      "l1BlobBaseFee": "0x1",
      "l1BlobBaseFeeScalar": "0x95506",
      "l1Fee": "0x94428bd6bd",
      "l1GasPrice": "0xed374624",
      "l1GasUsed": "0x640"
    },
    {
      "status": "0x1",
      "cumulativeGasUsed": "0x3e431b",
      "logs": [
        {
          "address": "0x2e8af9c5922623058aa92a183b391e62cb6b2d12",
          "topics": [
            "0xddf252ad1be2c89b69c2b068fc378daa952ba7f163c4a11628f55a4df523b3ef",
            "0x0000000000000000000000000000000000000000000000000000000000000000",
            "0x000000000000000000000000cda2fdb452ff4f5d7ba1c3d5dfcc9cb926a5eb7d",
            "0x0000000000000000000000000000000000000000000000000000000000000174"
          ],
          "data": "0x",
          "blockHash": "0x602183b6c71ac752a4587c3e51416effeda23a6a32ae99e9eb4bd53e2ddb12df",
          "blockNumber": "0x750788",
          "transactionHash": "0x3e54e4732c4f927a7e561d7b270f4ebdaebd06d714d7cc1263ed08c495f8c26e",
          "transactionIndex": "0x16",
          "logIndex": "0x2a",
          "removed": false
        },
        {
          "address": "0x2e8af9c5922623058aa92a183b391e62cb6b2d12",
          "topics": [
            "0xf8e1a15aba9398e019f0b49df1a4fde98ee17ae345cb5f6b5e2c27f5033e8ce7"
          ],
          "data": "0x0000000000000000000000000000000000000000000000000000000000000174",
          "blockHash": "0x602183b6c71ac752a4587c3e51416effeda23a6a32ae99e9eb4bd53e2ddb12df",
          "blockNumber": "0x750788",
          "transactionHash": "0x3e54e4732c4f927a7e561d7b270f4ebdaebd06d714d7cc1263ed08c495f8c26e",
          "transactionIndex": "0x16",
          "logIndex": "0x2b",
          "removed": false
        }
      ],
      "logsBloom": "0x00000000000000000000000000000000000000020000000000000000000000000010000000000000000000000000000000000000000000000000000000000000000000000000000000000008040000000000000000000000000000000000000000000000020000000000000000000800002000000000800000000010000000000000000000000000000000000000000000000000000000000000000000000000000000000000000000000000000000002000000000004000000000000000008000000022000000000000000000000000000000040000000000000000000020000000000000000000200000000000000000000000100000000000000000000000",
      "type": "0x2",
      "transactionHash": "0x3e54e4732c4f927a7e561d7b270f4ebdaebd06d714d7cc1263ed08c495f8c26e",
      "transactionIndex": "0x16",
      "blockHash": "0x602183b6c71ac752a4587c3e51416effeda23a6a32ae99e9eb4bd53e2ddb12df",
      "blockNumber": "0x750788",
      "gasUsed": "0x2ccb8",
      "effectiveGasPrice": "0xfd",
      "from": "0xcda2fdb452ff4f5d7ba1c3d5dfcc9cb926a5eb7d",
      "to": "0x79dfbed14077b8f2421eece5707a17b161094e6a",
      "contractAddress": null,
      "l1BaseFeeScalar": "0x186a0",
      "l1BlobBaseFee": "0x1",
      "l1BlobBaseFeeScalar": "0x95506",
      "l1Fee": "0x94428bd6bd",
      "l1GasPrice": "0xed374624",
      "l1GasUsed": "0x640"
    },
    {
      "status": "0x1",
      "cumulativeGasUsed": "0x410fd3",
      "logs": [
        {
          "address": "0x2e8af9c5922623058aa92a183b391e62cb6b2d12",
          "topics": [
            "0xddf252ad1be2c89b69c2b068fc378daa952ba7f163c4a11628f55a4df523b3ef",
            "0x0000000000000000000000000000000000000000000000000000000000000000",
            "0x000000000000000000000000cda2fdb452ff4f5d7ba1c3d5dfcc9cb926a5eb7d",
            "0x0000000000000000000000000000000000000000000000000000000000000175"
          ],
          "data": "0x",
          "blockHash": "0x602183b6c71ac752a4587c3e51416effeda23a6a32ae99e9eb4bd53e2ddb12df",
          "blockNumber": "0x750788",
          "transactionHash": "0xb25e358f63aba207e59086f9d1e2d2f399f7097385630ef8047fdf73467b1067",
          "transactionIndex": "0x17",
          "logIndex": "0x2c",
          "removed": false
        },
        {
          "address": "0x2e8af9c5922623058aa92a183b391e62cb6b2d12",
          "topics": [
            "0xf8e1a15aba9398e019f0b49df1a4fde98ee17ae345cb5f6b5e2c27f5033e8ce7"
          ],
          "data": "0x0000000000000000000000000000000000000000000000000000000000000175",
          "blockHash": "0x602183b6c71ac752a4587c3e51416effeda23a6a32ae99e9eb4bd53e2ddb12df",
          "blockNumber": "0x750788",
          "transactionHash": "0xb25e358f63aba207e59086f9d1e2d2f399f7097385630ef8047fdf73467b1067",
          "transactionIndex": "0x17",
          "logIndex": "0x2d",
          "removed": false
        }
      ],
      "logsBloom": "0x00000000000000000000000000000000000000020000000000000000000000000000004000000000000000000000000000000000000000000000000000000000000004000000000000000008040000000000000000000000000000000000000000000000020000000001000000000800002000000000800000000010000000000000000000000000000000000000000000000000000000000000000000000000000000000000000000000000000000002000000000004000000000000000008000000002000000000000000000000000000000000000000000000000000020000000000000000000200000000000000000000000100000000000000000000000",
      "type": "0x2",
      "transactionHash": "0xb25e358f63aba207e59086f9d1e2d2f399f7097385630ef8047fdf73467b1067",
      "transactionIndex": "0x17",
      "blockHash": "0x602183b6c71ac752a4587c3e51416effeda23a6a32ae99e9eb4bd53e2ddb12df",
      "blockNumber": "0x750788",
      "gasUsed": "0x2ccb8",
      "effectiveGasPrice": "0xfd",
      "from": "0xcda2fdb452ff4f5d7ba1c3d5dfcc9cb926a5eb7d",
      "to": "0x79dfbed14077b8f2421eece5707a17b161094e6a",
      "contractAddress": null,
      "l1BaseFeeScalar": "0x186a0",
      "l1BlobBaseFee": "0x1",
      "l1BlobBaseFeeScalar": "0x95506",
      "l1Fee": "0x94428bd6bd",
      "l1GasPrice": "0xed374624",
      "l1GasUsed": "0x640"
    },
    {
      "status": "0x1",
      "cumulativeGasUsed": "0x43dc8b",
      "logs": [
        {
          "address": "0x2e8af9c5922623058aa92a183b391e62cb6b2d12",
          "topics": [
            "0xddf252ad1be2c89b69c2b068fc378daa952ba7f163c4a11628f55a4df523b3ef",
            "0x0000000000000000000000000000000000000000000000000000000000000000",
            "0x000000000000000000000000cda2fdb452ff4f5d7ba1c3d5dfcc9cb926a5eb7d",
            "0x0000000000000000000000000000000000000000000000000000000000000176"
          ],
          "data": "0x",
          "blockHash": "0x602183b6c71ac752a4587c3e51416effeda23a6a32ae99e9eb4bd53e2ddb12df",
          "blockNumber": "0x750788",
          "transactionHash": "0x20a9372a676f4c5c20b1099ab9354f66224e152d49acade06342241654f1dc31",
          "transactionIndex": "0x18",
          "logIndex": "0x2e",
          "removed": false
        },
        {
          "address": "0x2e8af9c5922623058aa92a183b391e62cb6b2d12",
          "topics": [
            "0xf8e1a15aba9398e019f0b49df1a4fde98ee17ae345cb5f6b5e2c27f5033e8ce7"
          ],
          "data": "0x0000000000000000000000000000000000000000000000000000000000000176",
          "blockHash": "0x602183b6c71ac752a4587c3e51416effeda23a6a32ae99e9eb4bd53e2ddb12df",
          "blockNumber": "0x750788",
          "transactionHash": "0x20a9372a676f4c5c20b1099ab9354f66224e152d49acade06342241654f1dc31",
          "transactionIndex": "0x18",
          "logIndex": "0x2f",
          "removed": false
        }
      ],
      "logsBloom": "0x00000000000000000000000000000000000000020000000000000000000000000000000000000000000000000000000000000000000000000000000000000000000000000000000000000008040000080000000000000000000000000000000000000000020000000000000000000800002000000000800000000010000000000000000000000000000000000000000000000000000000000000000000000000000000000000000000000000000080002000000000004000000000000000008000000002000000000000000000000000000000000000000000000000000020000000002000000000200000000000000000000000100000000000000000000000",
      "type": "0x2",
      "transactionHash": "0x20a9372a676f4c5c20b1099ab9354f66224e152d49acade06342241654f1dc31",
      "transactionIndex": "0x18",
      "blockHash": "0x602183b6c71ac752a4587c3e51416effeda23a6a32ae99e9eb4bd53e2ddb12df",
      "blockNumber": "0x750788",
      "gasUsed": "0x2ccb8",
      "effectiveGasPrice": "0xfd",
      "from": "0xcda2fdb452ff4f5d7ba1c3d5dfcc9cb926a5eb7d",
      "to": "0x79dfbed14077b8f2421eece5707a17b161094e6a",
      "contractAddress": null,
      "l1BaseFeeScalar": "0x186a0",
      "l1BlobBaseFee": "0x1",
      "l1BlobBaseFeeScalar": "0x95506",
      "l1Fee": "0x94428bd6bd",
      "l1GasPrice": "0xed374624",
      "l1GasUsed": "0x640"
    },
    {
      "status": "0x1",
      "cumulativeGasUsed": "0x46a943",
      "logs": [
        {
          "address": "0x2e8af9c5922623058aa92a183b391e62cb6b2d12",
          "topics": [
            "0xddf252ad1be2c89b69c2b068fc378daa952ba7f163c4a11628f55a4df523b3ef",
            "0x0000000000000000000000000000000000000000000000000000000000000000",
            "0x000000000000000000000000cda2fdb452ff4f5d7ba1c3d5dfcc9cb926a5eb7d",
            "0x0000000000000000000000000000000000000000000000000000000000000177"
          ],
          "data": "0x",
          "blockHash": "0x602183b6c71ac752a4587c3e51416effeda23a6a32ae99e9eb4bd53e2ddb12df",
          "blockNumber": "0x750788",
          "transactionHash": "0xcdc9c1f7f6722860051796305ef016629ad38547850736f4dc0e75affa6dfa92",
          "transactionIndex": "0x19",
          "logIndex": "0x30",
          "removed": false
        },
        {
          "address": "0x2e8af9c5922623058aa92a183b391e62cb6b2d12",
          "topics": [
            "0xf8e1a15aba9398e019f0b49df1a4fde98ee17ae345cb5f6b5e2c27f5033e8ce7"
          ],
          "data": "0x0000000000000000000000000000000000000000000000000000000000000177",
          "blockHash": "0x602183b6c71ac752a4587c3e51416effeda23a6a32ae99e9eb4bd53e2ddb12df",
          "blockNumber": "0x750788",
          "transactionHash": "0xcdc9c1f7f6722860051796305ef016629ad38547850736f4dc0e75affa6dfa92",
          "transactionIndex": "0x19",
          "logIndex": "0x31",
          "removed": false
        }
      ],
      "logsBloom": "0x00000000000000000000000000000000000000020000000000000000000000000000000000000000000000000000000000000000000000000000000000000000000000000000000000000008040000040000000000000000000000000000000000000000020000000000000000000800002000000000800000000010000000000000000000000000000000000000000000010000000000000000000000000000000000000000000000000000000000002000000000004000000000000000008000000002000000000000000000000000000000000000000000000000000020000000000000000000200000000000000000000000100000000080000000000000",
      "type": "0x2",
      "transactionHash": "0xcdc9c1f7f6722860051796305ef016629ad38547850736f4dc0e75affa6dfa92",
      "transactionIndex": "0x19",
      "blockHash": "0x602183b6c71ac752a4587c3e51416effeda23a6a32ae99e9eb4bd53e2ddb12df",
      "blockNumber": "0x750788",
      "gasUsed": "0x2ccb8",
      "effectiveGasPrice": "0xfd",
      "from": "0xcda2fdb452ff4f5d7ba1c3d5dfcc9cb926a5eb7d",
      "to": "0x79dfbed14077b8f2421eece5707a17b161094e6a",
      "contractAddress": null,
      "l1BaseFeeScalar": "0x186a0",
      "l1BlobBaseFee": "0x1",
      "l1BlobBaseFeeScalar": "0x95506",
      "l1Fee": "0x94428bd6bd",
      "l1GasPrice": "0xed374624",
      "l1GasUsed": "0x640"
    },
    {
      "status": "0x1",
      "cumulativeGasUsed": "0x37803",
      "logs": [
        {
          "address": "0x2e8af9c5922623058aa92a183b391e62cb6b2d12",
          "topics": [
            "0xddf252ad1be2c89b69c2b068fc378daa952ba7f163c4a11628f55a4df523b3ef",
            "0x0000000000000000000000000000000000000000000000000000000000000000",
            "0x000000000000000000000000cda2fdb452ff4f5d7ba1c3d5dfcc9cb926a5eb7d",
            "0x0000000000000000000000000000000000000000000000000000000000000178"
          ],
          "data": "0x",
          "blockHash": "0xb1903d2f0321a3462e293e56dbd260e86bc42f34158c95c38a14762de7a84dfe",
          "blockNumber": "0x750789",
          "transactionHash": "0x7c574086f5f69c427355c3fa156edff12bdf79e5ae55d59510d14e02aebb0f18",
          "transactionIndex": "0x1",
          "logIndex": "0x0",
          "removed": false
        },
        {
          "address": "0x2e8af9c5922623058aa92a183b391e62cb6b2d12",
          "topics": [
            "0xf8e1a15aba9398e019f0b49df1a4fde98ee17ae345cb5f6b5e2c27f5033e8ce7"
          ],
          "data": "0x0000000000000000000000000000000000000000000000000000000000000178",
          "blockHash": "0xb1903d2f0321a3462e293e56dbd260e86bc42f34158c95c38a14762de7a84dfe",
          "blockNumber": "0x750789",
          "transactionHash": "0x7c574086f5f69c427355c3fa156edff12bdf79e5ae55d59510d14e02aebb0f18",
          "transactionIndex": "0x1",
          "logIndex": "0x1",
          "removed": false
        }
      ],
      "logsBloom": "0x00000000000000000000000000000000000000020000000000000000000000000000000000000000000000000000000000000000000000000000000000000000000000000000000000000008040000000000000000000000000000000000000800000000020000004000000000000800002000000000800000000010000000000000000000000000000000000000000000000000000000000000000000000000000000000000000000000000000000002000000000004000000000000000008000000002000000000000000000000000000000000000000000000000000020000000004000000000200000000000000000000000100000000000000000000000",
      "type": "0x2",
      "transactionHash": "0x7c574086f5f69c427355c3fa156edff12bdf79e5ae55d59510d14e02aebb0f18",
      "transactionIndex": "0x1",
      "blockHash": "0xb1903d2f0321a3462e293e56dbd260e86bc42f34158c95c38a14762de7a84dfe",
      "blockNumber": "0x750789",
      "gasUsed": "0x2ccb8",
      "effectiveGasPrice": "0xfd",
      "from": "0xcda2fdb452ff4f5d7ba1c3d5dfcc9cb926a5eb7d",
      "to": "0x79dfbed14077b8f2421eece5707a17b161094e6a",
      "contractAddress": null,
      "l1BaseFeeScalar": "0x186a0",
      "l1BlobBaseFee": "0x1",
      "l1BlobBaseFeeScalar": "0x95506",
      "l1Fee": "0x94428bd6bd",
      "l1GasPrice": "0xed374624",
      "l1GasUsed": "0x640"
    },
    {
      "status": "0x1",
      "cumulativeGasUsed": "0x644bb",
      "logs": [
        {
          "address": "0x2e8af9c5922623058aa92a183b391e62cb6b2d12",
          "topics": [
            "0xddf252ad1be2c89b69c2b068fc378daa952ba7f163c4a11628f55a4df523b3ef",
            "0x0000000000000000000000000000000000000000000000000000000000000000",
            "0x000000000000000000000000cda2fdb452ff4f5d7ba1c3d5dfcc9cb926a5eb7d",
            "0x0000000000000000000000000000000000000000000000000000000000000179"
          ],
          "data": "0x",
          "blockHash": "0xb1903d2f0321a3462e293e56dbd260e86bc42f34158c95c38a14762de7a84dfe",
          "blockNumber": "0x750789",
          "transactionHash": "0xe3f8e342f76be50d679d9ad8fec395f6c4baec1113f2d3b12a859c588b7e99a1",
          "transactionIndex": "0x2",
          "logIndex": "0x2",
          "removed": false
        },
        {
          "address": "0x2e8af9c5922623058aa92a183b391e62cb6b2d12",
          "topics": [
            "0xf8e1a15aba9398e019f0b49df1a4fde98ee17ae345cb5f6b5e2c27f5033e8ce7"
          ],
          "data": "0x0000000000000000000000000000000000000000000000000000000000000179",
          "blockHash": "0xb1903d2f0321a3462e293e56dbd260e86bc42f34158c95c38a14762de7a84dfe",
          "blockNumber": "0x750789",
          "transactionHash": "0xe3f8e342f76be50d679d9ad8fec395f6c4baec1113f2d3b12a859c588b7e99a1",
          "transactionIndex": "0x2",
          "logIndex": "0x3",
          "removed": false
        }
      ],
      "logsBloom": "0x000000000000000000000000000000000000000200000000000000000000000000000000000000000000000000000000000000000000000000000000000000000000000000000000000000080400000000000000000000000000000000000000000000000a0000000000000000000800002000000000800000000010000000000000000000000000000000000000000000000000000000000000000000000000000000000000000000000000000000002000000000004000000000000000008000000002000000000000000000000000004000000000000000000000000020000000000000020000200000000000000000000000100000000000000000000000",
      "type": "0x2",
      "transactionHash": "0xe3f8e342f76be50d679d9ad8fec395f6c4baec1113f2d3b12a859c588b7e99a1",
      "transactionIndex": "0x2",
      "blockHash": "0xb1903d2f0321a3462e293e56dbd260e86bc42f34158c95c38a14762de7a84dfe",
      "blockNumber": "0x750789",
      "gasUsed": "0x2ccb8",
      "effectiveGasPrice": "0xfd",
      "from": "0xcda2fdb452ff4f5d7ba1c3d5dfcc9cb926a5eb7d",
      "to": "0x79dfbed14077b8f2421eece5707a17b161094e6a",
      "contractAddress": null,
      "l1BaseFeeScalar": "0x186a0",
      "l1BlobBaseFee": "0x1",
      "l1BlobBaseFeeScalar": "0x95506",
      "l1Fee": "0x94428bd6bd",
      "l1GasPrice": "0xed374624",
      "l1GasUsed": "0x640"
    },
    {
      "status": "0x1",
      "cumulativeGasUsed": "0x91173",
      "logs": [
        {
          "address": "0x2e8af9c5922623058aa92a183b391e62cb6b2d12",
          "topics": [
            "0xddf252ad1be2c89b69c2b068fc378daa952ba7f163c4a11628f55a4df523b3ef",
            "0x0000000000000000000000000000000000000000000000000000000000000000",
            "0x000000000000000000000000cda2fdb452ff4f5d7ba1c3d5dfcc9cb926a5eb7d",
            "0x000000000000000000000000000000000000000000000000000000000000017a"
          ],
          "data": "0x",
          "blockHash": "0xb1903d2f0321a3462e293e56dbd260e86bc42f34158c95c38a14762de7a84dfe",
          "blockNumber": "0x750789",
          "transactionHash": "0x64201bacc09388203fd471646197611c52b67cbd6c6eb15217a712937e025f26",
          "transactionIndex": "0x3",
          "logIndex": "0x4",
          "removed": false
        },
        {
          "address": "0x2e8af9c5922623058aa92a183b391e62cb6b2d12",
          "topics": [
            "0xf8e1a15aba9398e019f0b49df1a4fde98ee17ae345cb5f6b5e2c27f5033e8ce7"
          ],
          "data": "0x000000000000000000000000000000000000000000000000000000000000017a",
          "blockHash": "0xb1903d2f0321a3462e293e56dbd260e86bc42f34158c95c38a14762de7a84dfe",
          "blockNumber": "0x750789",
          "transactionHash": "0x64201bacc09388203fd471646197611c52b67cbd6c6eb15217a712937e025f26",
          "transactionIndex": "0x3",
          "logIndex": "0x5",
          "removed": false
        }
      ],
      "logsBloom": "0x00000000000000000800000000000000000000020000000000000000000000000000000000000000000000000000000000000000000000000000000000000000000000000000000000000008040000000000000000000000000000000000000000000000020000000000000000000800002000000000800000000010000000000000000000000000000000000000000000000000000000000000000000000000000000000000000000000000000000002000000000004000000000000000008000000003000000000000000000000000000000000000000000000000000020000000000000000000200000000000000000000000104000000000000000000000",
      "type": "0x2",
      "transactionHash": "0x64201bacc09388203fd471646197611c52b67cbd6c6eb15217a712937e025f26",
      "transactionIndex": "0x3",
      "blockHash": "0xb1903d2f0321a3462e293e56dbd260e86bc42f34158c95c38a14762de7a84dfe",
      "blockNumber": "0x750789",
      "gasUsed": "0x2ccb8",
      "effectiveGasPrice": "0xfd",
      "from": "0xcda2fdb452ff4f5d7ba1c3d5dfcc9cb926a5eb7d",
      "to": "0x79dfbed14077b8f2421eece5707a17b161094e6a",
      "contractAddress": null,
      "l1BaseFeeScalar": "0x186a0",
      "l1BlobBaseFee": "0x1",
      "l1BlobBaseFeeScalar": "0x95506",
      "l1Fee": "0x94428bd6bd",
      "l1GasPrice": "0xed374624",
      "l1GasUsed": "0x640"
    },
    {
      "status": "0x1",
      "cumulativeGasUsed": "0xbde2b",
      "logs": [
        {
          "address": "0x2e8af9c5922623058aa92a183b391e62cb6b2d12",
          "topics": [
            "0xddf252ad1be2c89b69c2b068fc378daa952ba7f163c4a11628f55a4df523b3ef",
            "0x0000000000000000000000000000000000000000000000000000000000000000",
            "0x000000000000000000000000cda2fdb452ff4f5d7ba1c3d5dfcc9cb926a5eb7d",
            "0x000000000000000000000000000000000000000000000000000000000000017b"
          ],
          "data": "0x",
          "blockHash": "0xb1903d2f0321a3462e293e56dbd260e86bc42f34158c95c38a14762de7a84dfe",
          "blockNumber": "0x750789",
          "transactionHash": "0x999f31bb1e639bd052f2850a9391c14f64543c2b2d41b0212d4a446c16021fd1",
          "transactionIndex": "0x4",
          "logIndex": "0x6",
          "removed": false
        },
        {
          "address": "0x2e8af9c5922623058aa92a183b391e62cb6b2d12",
          "topics": [
            "0xf8e1a15aba9398e019f0b49df1a4fde98ee17ae345cb5f6b5e2c27f5033e8ce7"
          ],
          "data": "0x000000000000000000000000000000000000000000000000000000000000017b",
          "blockHash": "0xb1903d2f0321a3462e293e56dbd260e86bc42f34158c95c38a14762de7a84dfe",
          "blockNumber": "0x750789",
          "transactionHash": "0x999f31bb1e639bd052f2850a9391c14f64543c2b2d41b0212d4a446c16021fd1",
          "transactionIndex": "0x4",
          "logIndex": "0x7",
          "removed": false
        }
      ],
      "logsBloom": "0x00000000000000000000000000000000000000020000000000000000000000000000000000000000000000000100000000000000000000000000000000000000000000000000000000000008040000000000000000000000000000000000000000000000020000000000000000000800002000000000800000000010000000000000000000000000000000000000000000000000000000000000000000000000000000000000010000000000000000002000000000004080000000000000008000000002000000000000000000000000000000000000000000000000000020000000000000000000200000000000000000000000100000000000000000000000",
      "type": "0x2",
      "transactionHash": "0x999f31bb1e639bd052f2850a9391c14f64543c2b2d41b0212d4a446c16021fd1",
      "transactionIndex": "0x4",
      "blockHash": "0xb1903d2f0321a3462e293e56dbd260e86bc42f34158c95c38a14762de7a84dfe",
      "blockNumber": "0x750789",
      "gasUsed": "0x2ccb8",
      "effectiveGasPrice": "0xfd",
      "from": "0xcda2fdb452ff4f5d7ba1c3d5dfcc9cb926a5eb7d",
      "to": "0x79dfbed14077b8f2421eece5707a17b161094e6a",
      "contractAddress": null,
      "l1BaseFeeScalar": "0x186a0",
      "l1BlobBaseFee": "0x1",
      "l1BlobBaseFeeScalar": "0x95506",
      "l1Fee": "0x94428bd6bd",
      "l1GasPrice": "0xed374624",
      "l1GasUsed": "0x640"
    }
  ],
  "libraries": [],
  "pending": [],
  "returns": {},
  "timestamp": 1728201274,
  "chain": 60808,
  "commit": "7d9679b"
}