{
  "transactions": [
    {
      "hash": "0x95f333dde7e5ad27bea22af87af29a5a84477fc72b4486e0a84e1bc820030122",
      "transactionType": "CREATE",
      "contractName": "Sp_IcyExecutioner",
      "contractAddress": "0x46A504a283671e16c95D1984ebE73DF6DB99f96d",
      "function": null,
      "arguments": null,
      "transaction": {
        "type": "0x02",
        "from": "0xcda2fdb452ff4f5d7ba1c3d5dfcc9cb926a5eb7d",
        "gas": "0x12b03f",
        "value": "0x0",
        "data": "0x60a060405260056002818155600355600660805280546001600160a01b03191673575c065bf1fa9d6f0f94aac620a6936dd8517c7d179055600460075534801561004857600080fd5b50338061006f57604051631e4fbdf760e01b81526000600482015260240160405180910390fd5b6100788161007e565b506100ce565b600080546001600160a01b038381166001600160a01b0319831681178455604051919092169283917f8be0079c531659141344cd1fd0a4f28419497f9722a3daafe3b4186f6b6457e09190a35050565b608051610e016100e960003960006102fa0152610e016000f3fe6080604052600436106100c25760003560e01c806377f35e431161007f578063bcb4939911610059578063bcb4939914610218578063d48a245f14610238578063f2fde38b1461024e578063feb812af1461026e57600080fd5b806377f35e43146101ad5780638da5cb5b146101da578063974ee7c2146101f857600080fd5b80630c5da893146100c757806314ad0665146100e957806316d03993146101345780631b3ed7221461014a578063715018a61461016057806373a8c68214610175575b600080fd5b3480156100d357600080fd5b506100e76100e2366004610aa4565b610281565b005b3480156100f557600080fd5b50610121610104366004610af5565b600a60209081526000928352604080842090915290825290205481565b6040519081526020015b60405180910390f35b34801561014057600080fd5b5061012160025481565b34801561015657600080fd5b5061012160035481565b34801561016c57600080fd5b506100e76102b2565b34801561018157600080fd5b50600554610195906001600160a01b031681565b6040516001600160a01b03909116815260200161012b565b3480156101b957600080fd5b506101216101c8366004610b2e565b60096020526000908152604090205481565b3480156101e657600080fd5b506000546001600160a01b0316610195565b34801561020457600080fd5b506100e7610213366004610b2e565b6102c6565b34801561022457600080fd5b506100e7610233366004610b61565b6102f0565b34801561024457600080fd5b5061012160075481565b34801561025a57600080fd5b506100e7610269366004610b2e565b6103eb565b6100e761027c366004610c48565b61042e565b610289610946565b60008311801561029b57506000600354115b6102a457600080fd5b600292909255600355600755565b6102ba610946565b6102c46000610973565b565b6102ce610946565b600580546001600160a01b0319166001600160a01b0392909216919091179055565b6102f8610946565b7f000000000000000000000000000000000000000000000000000000000000000060ff1683511061032857600080fd5b60005b83518160ff1610156103bb576000848260ff168151811061034e5761034e610ce8565b6020908102919091010151600480546001810182556000919091527f8a35acfbc15ff81a39ae7d344fd709f28e8600b4aa8c65c6b64bfe7fe36bd19b0180546001600160a01b0319166001600160a01b0390921691909117905550806103b381610d14565b91505061032b565b50600180546001600160a01b039384166001600160a01b0319918216179091556006805492909316911617905550565b6103f3610946565b6001600160a01b03811661042257604051631e4fbdf760e01b8152600060048201526024015b60405180910390fd5b61042b81610973565b50565b6005546001600160a01b03868116911614801561044a57508215155b6104845760405162461bcd60e51b815260206004820152600b60248201526a139bdd08185b1b1bddd95960aa1b6044820152606401610419565b6001600160a01b038216156105f9576040516323b872dd60e01b8152336004820152306024820152604481018290526001600160a01b038316906323b872dd906064016020604051808303816000875af11580156104e6573d6000803e3d6000fd5b505050506040513d601f19601f8201168201806040525081019061050a9190610d33565b50604051636eb1769f60e11b81523060048201526001600160a01b03868116602483015282919084169063dd62ed3e90604401602060405180830381865afa15801561055a573d6000803e3d6000fd5b505050506040513d601f19601f8201168201806040525081019061057e9190610d55565b10156105f95760405163095ea7b360e01b81526001600160a01b0386811660048301526024820183905283169063095ea7b3906044016020604051808303816000875af11580156105d3573d6000803e3d6000fd5b505050506040513d601f19601f820116820180604052508101906105f79190610d33565b505b6000856001600160a01b0316348686604051610616929190610d6e565b60006040518083038185875af1925050503d8060008114610653576040519150601f19603f3d011682016040523d82523d6000602084013e610658565b606091505b5050905080801561067357506001546001600160a01b031615155b801561068d57503360009081526008602052604090205442115b1561091c573360009081526009602052604081208054600192906106b2908490610d7e565b90915550506001600160a01b038316156106cc57816106ce565b345b336000908152600a602090815260408083206001600160a01b038816845290915281208054909190610701908490610d7e565b9091555060009050610712336109c3565b60015460405163507cd30f60e01b8152336004820152602481018390529192506001600160a01b03169063507cd30f906044016020604051808303816000875af1158015610764573d6000803e3d6000fd5b505050506040513d601f19601f820116820180604052508101906107889190610d33565b5060065460405163f4a8b19760e01b81523360048201526000916001600160a01b03169063f4a8b19790602401602060405180830381865afa1580156107d2573d6000803e3d6000fd5b505050506040513d601f19601f820116820180604052508101906107f69190610d97565b90506001600160a01b038116158015906108795750600154604051630a2edb5560e21b81526001600160a01b038381166004830152909116906328bb6d5490602401602060405180830381865afa158015610855573d6000803e3d6000fd5b505050506040513d601f19601f820116820180604052508101906108799190610d33565b156108f75760015460405163507cd30f60e01b81526001600160a01b038381166004830152602482018590529091169063507cd30f906044016020604051808303816000875af11580156108d1573d6000803e3d6000fd5b505050506040513d601f19601f820116820180604052508101906108f59190610d33565b505b6109044262015180610d7e565b336000908152600860205260409020555061093e9050565b60405162461bcd60e51b81526020600482015260006024820152604401610419565b505050505050565b6000546001600160a01b031633146102c45760405163118cdaa760e01b8152336004820152602401610419565b600080546001600160a01b038381166001600160a01b0319831681178455604051919092169283917f8be0079c531659141344cd1fd0a4f28419497f9722a3daafe3b4186f6b6457e09190a35050565b60008060005b60045460ff82161015610a815760048160ff16815481106109ec576109ec610ce8565b6000918252602090912001546040516370a0823160e01b81526001600160a01b038681166004830152909116906370a0823190602401602060405180830381865afa158015610a3f573d6000803e3d6000fd5b505050506040513d601f19601f82011682018060405250810190610a639190610d55565b610a6d9083610d7e565b915080610a7981610d14565b9150506109c9565b5080600354610a909190610db4565b600254610a9d9190610d7e565b9392505050565b600080600060608486031215610ab957600080fd5b505081359360208301359350604090920135919050565b6001600160a01b038116811461042b57600080fd5b8035610af081610ad0565b919050565b60008060408385031215610b0857600080fd5b8235610b1381610ad0565b91506020830135610b2381610ad0565b809150509250929050565b600060208284031215610b4057600080fd5b8135610a9d81610ad0565b634e487b7160e01b600052604160045260246000fd5b600080600060608486031215610b7657600080fd5b833567ffffffffffffffff80821115610b8e57600080fd5b818601915086601f830112610ba257600080fd5b8135602082821115610bb657610bb6610b4b565b8160051b604051601f19603f83011681018181108682111715610bdb57610bdb610b4b565b60405292835281830193508481018201928a841115610bf957600080fd5b948201945b83861015610c1e57610c0f86610ae5565b85529482019493820193610bfe565b9750610c2d9050888201610ae5565b955050505050610c3f60408501610ae5565b90509250925092565b600080600080600060808688031215610c6057600080fd5b8535610c6b81610ad0565b9450602086013567ffffffffffffffff80821115610c8857600080fd5b818801915088601f830112610c9c57600080fd5b813581811115610cab57600080fd5b896020828501011115610cbd57600080fd5b6020830196508095505050506040860135610cd781610ad0565b949793965091946060013592915050565b634e487b7160e01b600052603260045260246000fd5b634e487b7160e01b600052601160045260246000fd5b600060ff821660ff8103610d2a57610d2a610cfe565b60010192915050565b600060208284031215610d4557600080fd5b81518015158114610a9d57600080fd5b600060208284031215610d6757600080fd5b5051919050565b8183823760009101908152919050565b80820180821115610d9157610d91610cfe565b92915050565b600060208284031215610da957600080fd5b8151610a9d81610ad0565b8082028115828204841417610d9157610d91610cfe56fea26469706673582212204daff7c34bb3783e6e1713e848e0e93d45439973300e618c28668d87dc20212d64736f6c63430008140033",
        "nonce": "0x1c2",
        "accessList": []
      },
      "additionalContracts": [],
      "isFixedGasLimit": false
    },
    {
      "hash": "0x9735c37f2c9d8d7901b92b20ee2aaffb60c68b171b26554148cdccf925f76aa6",
      "transactionType": "CALL",
      "contractName": "Sp_IcyExecutioner",
      "contractAddress": "0x46A504a283671e16c95D1984ebE73DF6DB99f96d",
      "function": "initializeCa(address[],address,address)",
      "arguments": [
        "[0x3eFC90a28685d320F6916b76D8C679da67cc23DC]",
        "0xCA9c5943Dd7d0fE1E6A0Cf12F2eA65d310A3b2AA",
        "0xC4f681699CCDfFB26be46f1E109896cBb13cF18F"
      ],
      "transaction": {
        "type": "0x02",
        "from": "0xcda2fdb452ff4f5d7ba1c3d5dfcc9cb926a5eb7d",
        "to": "0x46a504a283671e16c95d1984ebe73df6db99f96d",
        "gas": "0x269bf",
        "value": "0x0",
        "data": "0xbcb493990000000000000000000000000000000000000000000000000000000000000060000000000000000000000000ca9c5943dd7d0fe1e6a0cf12f2ea65d310a3b2aa000000000000000000000000c4f681699ccdffb26be46f1e109896cbb13cf18f00000000000000000000000000000000000000000000000000000000000000010000000000000000000000003efc90a28685d320f6916b76d8c679da67cc23dc",
        "nonce": "0x1c3",
        "accessList": []
      },
      "additionalContracts": [],
      "isFixedGasLimit": false
    },
    {
      "hash": "0x20e067513898169e083598e472da7bdf6fb5ee45a9d89f97d4b354547d59394b",
      "transactionType": "CALL",
      "contractName": null,
      "contractAddress": "0xCA9c5943Dd7d0fE1E6A0Cf12F2eA65d310A3b2AA",
      "function": null,
      "arguments": null,
      "transaction": {
        "type": "0x02",
        "from": "0xcda2fdb452ff4f5d7ba1c3d5dfcc9cb926a5eb7d",
        "to": "0xca9c5943dd7d0fe1e6a0cf12f2ea65d310a3b2aa",
        "gas": "0xfa35",
        "value": "0x0",
        "data": "0xdfba52c700000000000000000000000046a504a283671e16c95d1984ebe73df6db99f96d0000000000000000000000000000000000000000000000000000000000000001",
        "nonce": "0x1c4",
        "accessList": []
      },
      "additionalContracts": [],
      "isFixedGasLimit": false
    },
    {
      "hash": "0xe3d15f2ad35211047a33b54c1ba251f595c908c5016d03702d1cd103f20919ad",
      "transactionType": "CALL",
      "contractName": null,
      "contractAddress": "0xCA9c5943Dd7d0fE1E6A0Cf12F2eA65d310A3b2AA",
      "function": null,
      "arguments": null,
      "transaction": {
        "type": "0x02",
        "from": "0xcda2fdb452ff4f5d7ba1c3d5dfcc9cb926a5eb7d",
        "to": "0xca9c5943dd7d0fe1e6a0cf12f2ea65d310a3b2aa",
        "gas": "0x83fb",
        "value": "0x0",
        "data": "0xdfba52c700000000000000000000000068efc0fe16d9cef45c937e0c48779739075be1f60000000000000000000000000000000000000000000000000000000000000000",
        "nonce": "0x1c5",
        "accessList": []
      },
      "additionalContracts": [],
      "isFixedGasLimit": false
    }
  ],
  "receipts": [
    {
      "transactionHash": "0x95f333dde7e5ad27bea22af87af29a5a84477fc72b4486e0a84e1bc820030122",
      "transactionIndex": "0x2",
      "blockHash": "0xf9c01056e5e348305dde65370abf282fe15180728855ed04e6f87b1cab9264eb",
      "blockNumber": "0x2dfee3",
      "from": "0xcdA2fDB452FF4F5D7Ba1C3d5dFCc9CB926A5eb7D",
      "to": null,
      "cumulativeGasUsed": "0x142854",
      "gasUsed": "0xe6121",
      "contractAddress": "0x46A504a283671e16c95D1984ebE73DF6DB99f96d",
      "logs": [
        {
          "address": "0x46A504a283671e16c95D1984ebE73DF6DB99f96d",
          "topics": [
            "0x8be0079c531659141344cd1fd0a4f28419497f9722a3daafe3b4186f6b6457e0",
            "0x0000000000000000000000000000000000000000000000000000000000000000",
            "0x000000000000000000000000cda2fdb452ff4f5d7ba1c3d5dfcc9cb926a5eb7d"
          ],
          "data": "0x",
          "blockHash": "0xf9c01056e5e348305dde65370abf282fe15180728855ed04e6f87b1cab9264eb",
          "blockNumber": "0x2dfee3",
          "transactionHash": "0x95f333dde7e5ad27bea22af87af29a5a84477fc72b4486e0a84e1bc820030122",
          "transactionIndex": "0x2",
          "logIndex": "0x4",
          "removed": false
        }
      ],
      "status": "0x1",
      "logsBloom": "0x00000040000000000000000000000000000000000000000000800000000000000000000000000000000000000000000000000000000000000000004000000000000000000000000000000000040000000001002000000000000000000000000000000000020000000000000000000800000000000000800000000000000000400000000000000000000000000000000000000000000000000000000000000000000000000000000000000000000000000000000000004000000000000000000000000000000000000000000000000000000000000000000000000000000020000000000000000000000000000000000000000000000000000000000000000000",
      "type": "0x2",
      "effectiveGasPrice": "0xfd"
    },
    {
      "transactionHash": "0x9735c37f2c9d8d7901b92b20ee2aaffb60c68b171b26554148cdccf925f76aa6",
      "transactionIndex": "0x3",
      "blockHash": "0xf9c01056e5e348305dde65370abf282fe15180728855ed04e6f87b1cab9264eb",
      "blockNumber": "0x2dfee3",
      "from": "0xcdA2fDB452FF4F5D7Ba1C3d5dFCc9CB926A5eb7D",
      "to": "0x46A504a283671e16c95D1984ebE73DF6DB99f96d",
      "cumulativeGasUsed": "0x15e792",
      "gasUsed": "0x1bf3e",
      "contractAddress": null,
      "logs": [],
      "status": "0x1",
      "logsBloom": "0x00000000000000000000000000000000000000000000000000000000000000000000000000000000000000000000000000000000000000000000000000000000000000000000000000000000000000000000000000000000000000000000000000000000000000000000000000000000000000000000000000000000000000000000000000000000000000000000000000000000000000000000000000000000000000000000000000000000000000000000000000000000000000000000000000000000000000000000000000000000000000000000000000000000000000000000000000000000000000000000000000000000000000000000000000000000",
      "type": "0x2",
      "effectiveGasPrice": "0xfd"
    },
    {
      "transactionHash": "0x20e067513898169e083598e472da7bdf6fb5ee45a9d89f97d4b354547d59394b",
      "transactionIndex": "0x4",
      "blockHash": "0xf9c01056e5e348305dde65370abf282fe15180728855ed04e6f87b1cab9264eb",
      "blockNumber": "0x2dfee3",
      "from": "0xcdA2fDB452FF4F5D7Ba1C3d5dFCc9CB926A5eb7D",
      "to": "0xCA9c5943Dd7d0fE1E6A0Cf12F2eA65d310A3b2AA",
      "cumulativeGasUsed": "0x169cb8",
      "gasUsed": "0xb526",
      "contractAddress": null,
      "logs": [],
      "status": "0x1",
      "logsBloom": "0x00000000000000000000000000000000000000000000000000000000000000000000000000000000000000000000000000000000000000000000000000000000000000000000000000000000000000000000000000000000000000000000000000000000000000000000000000000000000000000000000000000000000000000000000000000000000000000000000000000000000000000000000000000000000000000000000000000000000000000000000000000000000000000000000000000000000000000000000000000000000000000000000000000000000000000000000000000000000000000000000000000000000000000000000000000000",
      "type": "0x2",
      "effectiveGasPrice": "0xfd"
    },
    {
      "transactionHash": "0xe3d15f2ad35211047a33b54c1ba251f595c908c5016d03702d1cd103f20919ad",
      "transactionIndex": "0x5",
      "blockHash": "0xf9c01056e5e348305dde65370abf282fe15180728855ed04e6f87b1cab9264eb",
      "blockNumber": "0x2dfee3",
      "from": "0xcdA2fDB452FF4F5D7Ba1C3d5dFCc9CB926A5eb7D",
      "to": "0xCA9c5943Dd7d0fE1E6A0Cf12F2eA65d310A3b2AA",
      "cumulativeGasUsed": "0x16fc46",
      "gasUsed": "0x5f8e",
      "contractAddress": null,
      "logs": [],
      "status": "0x1",
      "logsBloom": "0x00000000000000000000000000000000000000000000000000000000000000000000000000000000000000000000000000000000000000000000000000000000000000000000000000000000000000000000000000000000000000000000000000000000000000000000000000000000000000000000000000000000000000000000000000000000000000000000000000000000000000000000000000000000000000000000000000000000000000000000000000000000000000000000000000000000000000000000000000000000000000000000000000000000000000000000000000000000000000000000000000000000000000000000000000000000",
      "type": "0x2",
      "effectiveGasPrice": "0xfd"
    }
  ],
  "libraries": [],
  "pending": [],
  "returns": {},
  "timestamp": 1718746672,
  "chain": 60808,
  "multi": false,
  "commit": "7d9679b"
}