{
  "transactions": [
    {
      "hash": "0x99062de70c628592767d80edcf6d412f34f34fb76fa1f3950160cd62695c0f58",
      "transactionType": "CALL",
      "contractName": null,
      "contractAddress": "0x79dfbed14077b8f2421eece5707a17b161094e6a",
      "function": "wlMint(address)",
      "arguments": [
        "0x0000000000000000000000000000000000000000"
      ],
      "transaction": {
        "from": "0xcda2fdb452ff4f5d7ba1c3d5dfcc9cb926a5eb7d",
        "to": "0x79dfbed14077b8f2421eece5707a17b161094e6a",
        "gas": "0x3ddf7",
        "value": "0x0",
        "input": "0xc517b4a50000000000000000000000000000000000000000000000000000000000000000",
        "nonce": "0x1caa",
        "chainId": "0xed88"
      },
      "additionalContracts": [],
      "isFixedGasLimit": false
    },
    {
      "hash": "0xb78c829f308b401c00b051e5695a394b574b4b283c6ac9d341ef49eab60f63db",
      "transactionType": "CALL",
      "contractName": null,
      "contractAddress": "0x79dfbed14077b8f2421eece5707a17b161094e6a",
      "function": "wlMint(address)",
      "arguments": [
        "0x0000000000000000000000000000000000000000"
      ],
      "transaction": {
        "from": "0xcda2fdb452ff4f5d7ba1c3d5dfcc9cb926a5eb7d",
        "to": "0x79dfbed14077b8f2421eece5707a17b161094e6a",
        "gas": "0x3ddf7",
        "value": "0x0",
        "input": "0xc517b4a50000000000000000000000000000000000000000000000000000000000000000",
        "nonce": "0x1cab",
        "chainId": "0xed88"
      },
      "additionalContracts": [],
      "isFixedGasLimit": false
    },
    {
      "hash": "0xeae03b2d3ba66be5c5ba94a44f2a036de06bbc28b1fd512be7242854824ee3b3",
      "transactionType": "CALL",
      "contractName": null,
      "contractAddress": "0x79dfbed14077b8f2421eece5707a17b161094e6a",
      "function": "wlMint(address)",
      "arguments": [
        "0x0000000000000000000000000000000000000000"
      ],
      "transaction": {
        "from": "0xcda2fdb452ff4f5d7ba1c3d5dfcc9cb926a5eb7d",
        "to": "0x79dfbed14077b8f2421eece5707a17b161094e6a",
        "gas": "0x3ddf7",
        "value": "0x0",
        "input": "0xc517b4a50000000000000000000000000000000000000000000000000000000000000000",
        "nonce": "0x1cac",
        "chainId": "0xed88"
      },
      "additionalContracts": [],
      "isFixedGasLimit": false
    },
    {
      "hash": "0x4bd19a4d054ee63d57f49e0a55e751b6b8bb2b96bc78b459b1a7e0cdd1ea75ce",
      "transactionType": "CALL",
      "contractName": null,
      "contractAddress": "0x79dfbed14077b8f2421eece5707a17b161094e6a",
      "function": "wlMint(address)",
      "arguments": [
        "0x0000000000000000000000000000000000000000"
      ],
      "transaction": {
        "from": "0xcda2fdb452ff4f5d7ba1c3d5dfcc9cb926a5eb7d",
        "to": "0x79dfbed14077b8f2421eece5707a17b161094e6a",
        "gas": "0x3ddf7",
        "value": "0x0",
        "input": "0xc517b4a50000000000000000000000000000000000000000000000000000000000000000",
        "nonce": "0x1cad",
        "chainId": "0xed88"
      },
      "additionalContracts": [],
      "isFixedGasLimit": false
    },
    {
      "hash": "0x27167da1c3cbf5997e0be0ceb4f7064ef2158c416c1788033121aaa3d95b5740",
      "transactionType": "CALL",
      "contractName": null,
      "contractAddress": "0x79dfbed14077b8f2421eece5707a17b161094e6a",
      "function": "wlMint(address)",
      "arguments": [
        "0x0000000000000000000000000000000000000000"
      ],
      "transaction": {
        "from": "0xcda2fdb452ff4f5d7ba1c3d5dfcc9cb926a5eb7d",
        "to": "0x79dfbed14077b8f2421eece5707a17b161094e6a",
        "gas": "0x3ddf7",
        "value": "0x0",
        "input": "0xc517b4a50000000000000000000000000000000000000000000000000000000000000000",
        "nonce": "0x1cae",
        "chainId": "0xed88"
      },
      "additionalContracts": [],
      "isFixedGasLimit": false
    },
    {
      "hash": "0xdabbe6c390ce6ccebca528326f1145585ce1ac9bc622ac692a3cdeffeaaec78b",
      "transactionType": "CALL",
      "contractName": null,
      "contractAddress": "0x79dfbed14077b8f2421eece5707a17b161094e6a",
      "function": "wlMint(address)",
      "arguments": [
        "0x0000000000000000000000000000000000000000"
      ],
      "transaction": {
        "from": "0xcda2fdb452ff4f5d7ba1c3d5dfcc9cb926a5eb7d",
        "to": "0x79dfbed14077b8f2421eece5707a17b161094e6a",
        "gas": "0x3ddf7",
        "value": "0x0",
        "input": "0xc517b4a50000000000000000000000000000000000000000000000000000000000000000",
        "nonce": "0x1caf",
        "chainId": "0xed88"
      },
      "additionalContracts": [],
      "isFixedGasLimit": false
    },
    {
      "hash": "0xf16dc0ac3c2cdd812680b11ef82c3c46beb52da71faeb3bc3976240d7d19d374",
      "transactionType": "CALL",
      "contractName": null,
      "contractAddress": "0x79dfbed14077b8f2421eece5707a17b161094e6a",
      "function": "wlMint(address)",
      "arguments": [
        "0x0000000000000000000000000000000000000000"
      ],
      "transaction": {
        "from": "0xcda2fdb452ff4f5d7ba1c3d5dfcc9cb926a5eb7d",
        "to": "0x79dfbed14077b8f2421eece5707a17b161094e6a",
        "gas": "0x3ddf7",
        "value": "0x0",
        "input": "0xc517b4a50000000000000000000000000000000000000000000000000000000000000000",
        "nonce": "0x1cb0",
        "chainId": "0xed88"
      },
      "additionalContracts": [],
      "isFixedGasLimit": false
    },
    {
      "hash": "0x6667d43859374ffa1e1946ce2cf6bdea4c2dbd86297ee8eac89c714c3b09b604",
      "transactionType": "CALL",
      "contractName": null,
      "contractAddress": "0x79dfbed14077b8f2421eece5707a17b161094e6a",
      "function": "wlMint(address)",
      "arguments": [
        "0x0000000000000000000000000000000000000000"
      ],
      "transaction": {
        "from": "0xcda2fdb452ff4f5d7ba1c3d5dfcc9cb926a5eb7d",
        "to": "0x79dfbed14077b8f2421eece5707a17b161094e6a",
        "gas": "0x3ddf7",
        "value": "0x0",
        "input": "0xc517b4a50000000000000000000000000000000000000000000000000000000000000000",
        "nonce": "0x1cb1",
        "chainId": "0xed88"
      },
      "additionalContracts": [],
      "isFixedGasLimit": false
    },
    {
      "hash": "0x095693e755858906a9b1f5166a6e13a4a2751dcda6fdc1b0a3e9987d0ca2325c",
      "transactionType": "CALL",
      "contractName": null,
      "contractAddress": "0x79dfbed14077b8f2421eece5707a17b161094e6a",
      "function": "wlMint(address)",
      "arguments": [
        "0x0000000000000000000000000000000000000000"
      ],
      "transaction": {
        "from": "0xcda2fdb452ff4f5d7ba1c3d5dfcc9cb926a5eb7d",
        "to": "0x79dfbed14077b8f2421eece5707a17b161094e6a",
        "gas": "0x3ddf7",
        "value": "0x0",
        "input": "0xc517b4a50000000000000000000000000000000000000000000000000000000000000000",
        "nonce": "0x1cb2",
        "chainId": "0xed88"
      },
      "additionalContracts": [],
      "isFixedGasLimit": false
    },
    {
      "hash": "0x014ab72da40cc6ec0893c8aee9bf2808ae1ae6ae2340f09f9e7c1110ae9fc272",
      "transactionType": "CALL",
      "contractName": null,
      "contractAddress": "0x79dfbed14077b8f2421eece5707a17b161094e6a",
      "function": "wlMint(address)",
      "arguments": [
        "0x0000000000000000000000000000000000000000"
      ],
      "transaction": {
        "from": "0xcda2fdb452ff4f5d7ba1c3d5dfcc9cb926a5eb7d",
        "to": "0x79dfbed14077b8f2421eece5707a17b161094e6a",
        "gas": "0x3ddf7",
        "value": "0x0",
        "input": "0xc517b4a50000000000000000000000000000000000000000000000000000000000000000",
        "nonce": "0x1cb3",
        "chainId": "0xed88"
      },
      "additionalContracts": [],
      "isFixedGasLimit": false
    }
  ],
  "receipts": [
    {
      "status": "0x1",
      "cumulativeGasUsed": "0x37803",
      "logs": [
        {
          "address": "0x2e8af9c5922623058aa92a183b391e62cb6b2d12",
          "topics": [
            "0xddf252ad1be2c89b69c2b068fc378daa952ba7f163c4a11628f55a4df523b3ef",
            "0x0000000000000000000000000000000000000000000000000000000000000000",
            "0x000000000000000000000000cda2fdb452ff4f5d7ba1c3d5dfcc9cb926a5eb7d",
            "0x00000000000000000000000000000000000000000000000000000000000000a0"
          ],
          "data": "0x",
          "blockHash": "0x3bdfe49732f20098a289c7072f9d0fc31e97b474ba4bf138969620dbb5307e50",
          "blockNumber": "0x75067b",
          "transactionHash": "0x99062de70c628592767d80edcf6d412f34f34fb76fa1f3950160cd62695c0f58",
          "transactionIndex": "0x1",
          "logIndex": "0x0",
          "removed": false
        },
        {
          "address": "0x2e8af9c5922623058aa92a183b391e62cb6b2d12",
          "topics": [
            "0xf8e1a15aba9398e019f0b49df1a4fde98ee17ae345cb5f6b5e2c27f5033e8ce7"
          ],
          "data": "0x00000000000000000000000000000000000000000000000000000000000000a0",
          "blockHash": "0x3bdfe49732f20098a289c7072f9d0fc31e97b474ba4bf138969620dbb5307e50",
          "blockNumber": "0x75067b",
          "transactionHash": "0x99062de70c628592767d80edcf6d412f34f34fb76fa1f3950160cd62695c0f58",
          "transactionIndex": "0x1",
          "logIndex": "0x1",
          "removed": false
        }
      ],
      "logsBloom": "0x00000000000000000000000000000000000000020000000000000000000000000000000000000000000000000000000000000000000000000000000000000000000000000000000000000008040000000000000000000000000000000000000000000000020000000000000000000800002000000000800000000010000000000000000000000000000000000000000000000000000000000000000000000000000000000000001000000000000000002000000000004000000000000000008000000002000000000000000000000000000000000000000000000000000020002000000000100000200000000000000000000000100000000000000000000000",
      "type": "0x2",
      "transactionHash": "0x99062de70c628592767d80edcf6d412f34f34fb76fa1f3950160cd62695c0f58",
      "transactionIndex": "0x1",
      "blockHash": "0x3bdfe49732f20098a289c7072f9d0fc31e97b474ba4bf138969620dbb5307e50",
      "blockNumber": "0x75067b",
      "gasUsed": "0x2ccb8",
      "effectiveGasPrice": "0xfd",
      "from": "0xcda2fdb452ff4f5d7ba1c3d5dfcc9cb926a5eb7d",
      "to": "0x79dfbed14077b8f2421eece5707a17b161094e6a",
      "contractAddress": null,
      "l1BaseFeeScalar": "0x186a0",
      "l1BlobBaseFee": "0x1",
      "l1BlobBaseFeeScalar": "0x95506",
      "l1Fee": "0x9b4c37ea3d",
      "l1GasPrice": "0xf879f310",
      "l1GasUsed": "0x640"
    },
    {
      "status": "0x1",
      "cumulativeGasUsed": "0x644bb",
      "logs": [
        {
          "address": "0x2e8af9c5922623058aa92a183b391e62cb6b2d12",
          "topics": [
            "0xddf252ad1be2c89b69c2b068fc378daa952ba7f163c4a11628f55a4df523b3ef",
            "0x0000000000000000000000000000000000000000000000000000000000000000",
            "0x000000000000000000000000cda2fdb452ff4f5d7ba1c3d5dfcc9cb926a5eb7d",
            "0x00000000000000000000000000000000000000000000000000000000000000a1"
          ],
          "data": "0x",
          "blockHash": "0x3bdfe49732f20098a289c7072f9d0fc31e97b474ba4bf138969620dbb5307e50",
          "blockNumber": "0x75067b",
          "transactionHash": "0xb78c829f308b401c00b051e5695a394b574b4b283c6ac9d341ef49eab60f63db",
          "transactionIndex": "0x2",
          "logIndex": "0x2",
          "removed": false
        },
        {
          "address": "0x2e8af9c5922623058aa92a183b391e62cb6b2d12",
          "topics": [
            "0xf8e1a15aba9398e019f0b49df1a4fde98ee17ae345cb5f6b5e2c27f5033e8ce7"
          ],
          "data": "0x00000000000000000000000000000000000000000000000000000000000000a1",
          "blockHash": "0x3bdfe49732f20098a289c7072f9d0fc31e97b474ba4bf138969620dbb5307e50",
          "blockNumber": "0x75067b",
          "transactionHash": "0xb78c829f308b401c00b051e5695a394b574b4b283c6ac9d341ef49eab60f63db",
          "transactionIndex": "0x2",
          "logIndex": "0x3",
          "removed": false
        }
      ],
      "logsBloom": "0x00000000000000000100000000000000000000020000000000000000000000000000000000000000000000000000000000000000000000000000000000000000000000000000000000000008040000000000000000000000000000000000000000000000020000000000000000000800002000000000800000000010000000000000000000000000000000000000000000000000000000000000000000000000000000001000000000000000000000002000000000404000000000000000008000000002000000000000000000000000000000000000000000000000000020000000000000000000200000000000000000000000100000000000000000000000",
      "type": "0x2",
      "transactionHash": "0xb78c829f308b401c00b051e5695a394b574b4b283c6ac9d341ef49eab60f63db",
      "transactionIndex": "0x2",
      "blockHash": "0x3bdfe49732f20098a289c7072f9d0fc31e97b474ba4bf138969620dbb5307e50",
      "blockNumber": "0x75067b",
      "gasUsed": "0x2ccb8",
      "effectiveGasPrice": "0xfd",
      "from": "0xcda2fdb452ff4f5d7ba1c3d5dfcc9cb926a5eb7d",
      "to": "0x79dfbed14077b8f2421eece5707a17b161094e6a",
      "contractAddress": null,
      "l1BaseFeeScalar": "0x186a0",
      "l1BlobBaseFee": "0x1",
      "l1BlobBaseFeeScalar": "0x95506",
      "l1Fee": "0x9b4c37ea3d",
      "l1GasPrice": "0xf879f310",
      "l1GasUsed": "0x640"
    },
    {
      "status": "0x1",
      "cumulativeGasUsed": "0x91173",
      "logs": [
        {
          "address": "0x2e8af9c5922623058aa92a183b391e62cb6b2d12",
          "topics": [
            "0xddf252ad1be2c89b69c2b068fc378daa952ba7f163c4a11628f55a4df523b3ef",
            "0x0000000000000000000000000000000000000000000000000000000000000000",
            "0x000000000000000000000000cda2fdb452ff4f5d7ba1c3d5dfcc9cb926a5eb7d",
            "0x00000000000000000000000000000000000000000000000000000000000000a2"
          ],
          "data": "0x",
          "blockHash": "0x3bdfe49732f20098a289c7072f9d0fc31e97b474ba4bf138969620dbb5307e50",
          "blockNumber": "0x75067b",
          "transactionHash": "0xeae03b2d3ba66be5c5ba94a44f2a036de06bbc28b1fd512be7242854824ee3b3",
          "transactionIndex": "0x3",
          "logIndex": "0x4",
          "removed": false
        },
        {
          "address": "0x2e8af9c5922623058aa92a183b391e62cb6b2d12",
          "topics": [
            "0xf8e1a15aba9398e019f0b49df1a4fde98ee17ae345cb5f6b5e2c27f5033e8ce7"
          ],
          "data": "0x00000000000000000000000000000000000000000000000000000000000000a2",
          "blockHash": "0x3bdfe49732f20098a289c7072f9d0fc31e97b474ba4bf138969620dbb5307e50",
          "blockNumber": "0x75067b",
          "transactionHash": "0xeae03b2d3ba66be5c5ba94a44f2a036de06bbc28b1fd512be7242854824ee3b3",
          "transactionIndex": "0x3",
          "logIndex": "0x5",
          "removed": false
        }
      ],
      "logsBloom": "0x00000000000000000000000000000000000000020000000000000000000000000000000000000000000000000000000000000000000000000000000000000000000000000000000000000008040020000000000000000000000000000000000000000000020000000000000000000800002000000000800000000010000000000000000000000000000000000000000000000000000000000000000000000000001000000000000000000000000000002000000000004000000000000000008000000002000000000000000000080000000000000000000000000000000020000000000000000000200000000000000000000000100000000000000000000000",
      "type": "0x2",
      "transactionHash": "0xeae03b2d3ba66be5c5ba94a44f2a036de06bbc28b1fd512be7242854824ee3b3",
      "transactionIndex": "0x3",
      "blockHash": "0x3bdfe49732f20098a289c7072f9d0fc31e97b474ba4bf138969620dbb5307e50",
      "blockNumber": "0x75067b",
      "gasUsed": "0x2ccb8",
      "effectiveGasPrice": "0xfd",
      "from": "0xcda2fdb452ff4f5d7ba1c3d5dfcc9cb926a5eb7d",
      "to": "0x79dfbed14077b8f2421eece5707a17b161094e6a",
      "contractAddress": null,
      "l1BaseFeeScalar": "0x186a0",
      "l1BlobBaseFee": "0x1",
      "l1BlobBaseFeeScalar": "0x95506",
      "l1Fee": "0x9b4c37ea3d",
      "l1GasPrice": "0xf879f310",
      "l1GasUsed": "0x640"
    },
    {
      "status": "0x1",
      "cumulativeGasUsed": "0xbde2b",
      "logs": [
        {
          "address": "0x2e8af9c5922623058aa92a183b391e62cb6b2d12",
          "topics": [
            "0xddf252ad1be2c89b69c2b068fc378daa952ba7f163c4a11628f55a4df523b3ef",
            "0x0000000000000000000000000000000000000000000000000000000000000000",
            "0x000000000000000000000000cda2fdb452ff4f5d7ba1c3d5dfcc9cb926a5eb7d",
            "0x00000000000000000000000000000000000000000000000000000000000000a3"
          ],
          "data": "0x",
          "blockHash": "0x3bdfe49732f20098a289c7072f9d0fc31e97b474ba4bf138969620dbb5307e50",
          "blockNumber": "0x75067b",
          "transactionHash": "0x4bd19a4d054ee63d57f49e0a55e751b6b8bb2b96bc78b459b1a7e0cdd1ea75ce",
          "transactionIndex": "0x4",
          "logIndex": "0x6",
          "removed": false
        },
        {
          "address": "0x2e8af9c5922623058aa92a183b391e62cb6b2d12",
          "topics": [
            "0xf8e1a15aba9398e019f0b49df1a4fde98ee17ae345cb5f6b5e2c27f5033e8ce7"
          ],
          "data": "0x00000000000000000000000000000000000000000000000000000000000000a3",
          "blockHash": "0x3bdfe49732f20098a289c7072f9d0fc31e97b474ba4bf138969620dbb5307e50",
          "blockNumber": "0x75067b",
          "transactionHash": "0x4bd19a4d054ee63d57f49e0a55e751b6b8bb2b96bc78b459b1a7e0cdd1ea75ce",
          "transactionIndex": "0x4",
          "logIndex": "0x7",
          "removed": false
        }
      ],
      "logsBloom": "0x40000000000000000000000000000000000000020000000000000000000000000000000000000000000000000000000000000000000000000000000000000000000000000000000000000008040000000000000000000000000000000000000000000000020000000000000000000800002000000000800000000010000000000000000000000000000000000000000000000000000000000000000000000000000000000000000000000000000000002000000000004000000000000000008000000002000000000000000000000100000000000000000000000000000020000000000000000000200000000000002000000000100000000000000000000000",
      "type": "0x2",
      "transactionHash": "0x4bd19a4d054ee63d57f49e0a55e751b6b8bb2b96bc78b459b1a7e0cdd1ea75ce",
      "transactionIndex": "0x4",
      "blockHash": "0x3bdfe49732f20098a289c7072f9d0fc31e97b474ba4bf138969620dbb5307e50",
      "blockNumber": "0x75067b",
      "gasUsed": "0x2ccb8",
      "effectiveGasPrice": "0xfd",
      "from": "0xcda2fdb452ff4f5d7ba1c3d5dfcc9cb926a5eb7d",
      "to": "0x79dfbed14077b8f2421eece5707a17b161094e6a",
      "contractAddress": null,
      "l1BaseFeeScalar": "0x186a0",
      "l1BlobBaseFee": "0x1",
      "l1BlobBaseFeeScalar": "0x95506",
      "l1Fee": "0x9b4c37ea3d",
      "l1GasPrice": "0xf879f310",
      "l1GasUsed": "0x640"
    },
    {
      "status": "0x1",
      "cumulativeGasUsed": "0xeaae3",
      "logs": [
        {
          "address": "0x2e8af9c5922623058aa92a183b391e62cb6b2d12",
          "topics": [
            "0xddf252ad1be2c89b69c2b068fc378daa952ba7f163c4a11628f55a4df523b3ef",
            "0x0000000000000000000000000000000000000000000000000000000000000000",
            "0x000000000000000000000000cda2fdb452ff4f5d7ba1c3d5dfcc9cb926a5eb7d",
            "0x00000000000000000000000000000000000000000000000000000000000000a4"
          ],
          "data": "0x",
          "blockHash": "0x3bdfe49732f20098a289c7072f9d0fc31e97b474ba4bf138969620dbb5307e50",
          "blockNumber": "0x75067b",
          "transactionHash": "0x27167da1c3cbf5997e0be0ceb4f7064ef2158c416c1788033121aaa3d95b5740",
          "transactionIndex": "0x5",
          "logIndex": "0x8",
          "removed": false
        },
        {
          "address": "0x2e8af9c5922623058aa92a183b391e62cb6b2d12",
          "topics": [
            "0xf8e1a15aba9398e019f0b49df1a4fde98ee17ae345cb5f6b5e2c27f5033e8ce7"
          ],
          "data": "0x00000000000000000000000000000000000000000000000000000000000000a4",
          "blockHash": "0x3bdfe49732f20098a289c7072f9d0fc31e97b474ba4bf138969620dbb5307e50",
          "blockNumber": "0x75067b",
          "transactionHash": "0x27167da1c3cbf5997e0be0ceb4f7064ef2158c416c1788033121aaa3d95b5740",
          "transactionIndex": "0x5",
          "logIndex": "0x9",
          "removed": false
        }
      ],
      "logsBloom": "0x00000000000000000000000000000000000000020000000000000000000000000000000000000000000000000000000000000000000000000000000000000000000000000000000000000008040000000000000000000000000000000000000000000000020000000000000000000800002000000000800000300010000000000000000000000000000000000000000000000000000000000000000000000000000000000000000000000000000000002000000000004000000000000000018000000002000000000000000000000000000000000000000000000000000020000000000000000000200000000000000000000000100000000000000000000000",
      "type": "0x2",
      "transactionHash": "0x27167da1c3cbf5997e0be0ceb4f7064ef2158c416c1788033121aaa3d95b5740",
      "transactionIndex": "0x5",
      "blockHash": "0x3bdfe49732f20098a289c7072f9d0fc31e97b474ba4bf138969620dbb5307e50",
      "blockNumber": "0x75067b",
      "gasUsed": "0x2ccb8",
      "effectiveGasPrice": "0xfd",
      "from": "0xcda2fdb452ff4f5d7ba1c3d5dfcc9cb926a5eb7d",
      "to": "0x79dfbed14077b8f2421eece5707a17b161094e6a",
      "contractAddress": null,
      "l1BaseFeeScalar": "0x186a0",
      "l1BlobBaseFee": "0x1",
      "l1BlobBaseFeeScalar": "0x95506",
      "l1Fee": "0x9b4c37ea3d",
      "l1GasPrice": "0xf879f310",
      "l1GasUsed": "0x640"
    },
    {
      "status": "0x1",
      "cumulativeGasUsed": "0x11779b",
      "logs": [
        {
          "address": "0x2e8af9c5922623058aa92a183b391e62cb6b2d12",
          "topics": [
            "0xddf252ad1be2c89b69c2b068fc378daa952ba7f163c4a11628f55a4df523b3ef",
            "0x0000000000000000000000000000000000000000000000000000000000000000",
            "0x000000000000000000000000cda2fdb452ff4f5d7ba1c3d5dfcc9cb926a5eb7d",
            "0x00000000000000000000000000000000000000000000000000000000000000a5"
          ],
          "data": "0x",
          "blockHash": "0x3bdfe49732f20098a289c7072f9d0fc31e97b474ba4bf138969620dbb5307e50",
          "blockNumber": "0x75067b",
          "transactionHash": "0xdabbe6c390ce6ccebca528326f1145585ce1ac9bc622ac692a3cdeffeaaec78b",
          "transactionIndex": "0x6",
          "logIndex": "0xa",
          "removed": false
        },
        {
          "address": "0x2e8af9c5922623058aa92a183b391e62cb6b2d12",
          "topics": [
            "0xf8e1a15aba9398e019f0b49df1a4fde98ee17ae345cb5f6b5e2c27f5033e8ce7"
          ],
          "data": "0x00000000000000000000000000000000000000000000000000000000000000a5",
          "blockHash": "0x3bdfe49732f20098a289c7072f9d0fc31e97b474ba4bf138969620dbb5307e50",
          "blockNumber": "0x75067b",
          "transactionHash": "0xdabbe6c390ce6ccebca528326f1145585ce1ac9bc622ac692a3cdeffeaaec78b",
          "transactionIndex": "0x6",
          "logIndex": "0xb",
          "removed": false
        }
      ],
      "logsBloom": "0x00000000000000000000000000000000000000020000000000008000000000000000000000000000000000000000000000000000000000000000000000000000000000000000000000000008040000000000000000000000000000000000000000000000020000000000000000000800002000000000800000000010000000000000000000000000000000000000000000000000000000000800000000000000000000000000000000000000040000002000000000004000000000000000008000000002000000000000000000000000000000000000000000000000000020000000000000000000200000000000000000000000100000000000000000000000",
      "type": "0x2",
      "transactionHash": "0xdabbe6c390ce6ccebca528326f1145585ce1ac9bc622ac692a3cdeffeaaec78b",
      "transactionIndex": "0x6",
      "blockHash": "0x3bdfe49732f20098a289c7072f9d0fc31e97b474ba4bf138969620dbb5307e50",
      "blockNumber": "0x75067b",
      "gasUsed": "0x2ccb8",
      "effectiveGasPrice": "0xfd",
      "from": "0xcda2fdb452ff4f5d7ba1c3d5dfcc9cb926a5eb7d",
      "to": "0x79dfbed14077b8f2421eece5707a17b161094e6a",
      "contractAddress": null,
      "l1BaseFeeScalar": "0x186a0",
      "l1BlobBaseFee": "0x1",
      "l1BlobBaseFeeScalar": "0x95506",
      "l1Fee": "0x9b4c37ea3d",
      "l1GasPrice": "0xf879f310",
      "l1GasUsed": "0x640"
    },
    {
      "status": "0x1",
      "cumulativeGasUsed": "0x144453",
      "logs": [
        {
          "address": "0x2e8af9c5922623058aa92a183b391e62cb6b2d12",
          "topics": [
            "0xddf252ad1be2c89b69c2b068fc378daa952ba7f163c4a11628f55a4df523b3ef",
            "0x0000000000000000000000000000000000000000000000000000000000000000",
            "0x000000000000000000000000cda2fdb452ff4f5d7ba1c3d5dfcc9cb926a5eb7d",
            "0x00000000000000000000000000000000000000000000000000000000000000a6"
          ],
          "data": "0x",
          "blockHash": "0x3bdfe49732f20098a289c7072f9d0fc31e97b474ba4bf138969620dbb5307e50",
          "blockNumber": "0x75067b",
          "transactionHash": "0xf16dc0ac3c2cdd812680b11ef82c3c46beb52da71faeb3bc3976240d7d19d374",
          "transactionIndex": "0x7",
          "logIndex": "0xc",
          "removed": false
        },
        {
          "address": "0x2e8af9c5922623058aa92a183b391e62cb6b2d12",
          "topics": [
            "0xf8e1a15aba9398e019f0b49df1a4fde98ee17ae345cb5f6b5e2c27f5033e8ce7"
          ],
          "data": "0x00000000000000000000000000000000000000000000000000000000000000a6",
          "blockHash": "0x3bdfe49732f20098a289c7072f9d0fc31e97b474ba4bf138969620dbb5307e50",
          "blockNumber": "0x75067b",
          "transactionHash": "0xf16dc0ac3c2cdd812680b11ef82c3c46beb52da71faeb3bc3976240d7d19d374",
          "transactionIndex": "0x7",
          "logIndex": "0xd",
          "removed": false
        }
      ],
      "logsBloom": "0x00000000000000000000000000000000000000020000000000000000000000000000000000000000000000000000000000100000000000000000000000000000000000000000000000000028040000000000000000000000000000000000000000000000020000000000000000000800002000000000800000000010000000000000000000000000000000000000000000000000000000000000000000000000000000000000000000000000000800002000000000004000000000000000008000000002000000000000000000000000000000000000000000000000000020000000000000000000200000000000000000000000100000000000000000000000",
      "type": "0x2",
      "transactionHash": "0xf16dc0ac3c2cdd812680b11ef82c3c46beb52da71faeb3bc3976240d7d19d374",
      "transactionIndex": "0x7",
      "blockHash": "0x3bdfe49732f20098a289c7072f9d0fc31e97b474ba4bf138969620dbb5307e50",
      "blockNumber": "0x75067b",
      "gasUsed": "0x2ccb8",
      "effectiveGasPrice": "0xfd",
      "from": "0xcda2fdb452ff4f5d7ba1c3d5dfcc9cb926a5eb7d",
      "to": "0x79dfbed14077b8f2421eece5707a17b161094e6a",
      "contractAddress": null,
      "l1BaseFeeScalar": "0x186a0",
      "l1BlobBaseFee": "0x1",
      "l1BlobBaseFeeScalar": "0x95506",
      "l1Fee": "0x9b4c37ea3d",
      "l1GasPrice": "0xf879f310",
      "l1GasUsed": "0x640"
    },
    {
      "status": "0x1",
      "cumulativeGasUsed": "0x17110b",
      "logs": [
        {
          "address": "0x2e8af9c5922623058aa92a183b391e62cb6b2d12",
          "topics": [
            "0xddf252ad1be2c89b69c2b068fc378daa952ba7f163c4a11628f55a4df523b3ef",
            "0x0000000000000000000000000000000000000000000000000000000000000000",
            "0x000000000000000000000000cda2fdb452ff4f5d7ba1c3d5dfcc9cb926a5eb7d",
            "0x00000000000000000000000000000000000000000000000000000000000000a7"
          ],
          "data": "0x",
          "blockHash": "0x3bdfe49732f20098a289c7072f9d0fc31e97b474ba4bf138969620dbb5307e50",
          "blockNumber": "0x75067b",
          "transactionHash": "0x6667d43859374ffa1e1946ce2cf6bdea4c2dbd86297ee8eac89c714c3b09b604",
          "transactionIndex": "0x8",
          "logIndex": "0xe",
          "removed": false
        },
        {
          "address": "0x2e8af9c5922623058aa92a183b391e62cb6b2d12",
          "topics": [
            "0xf8e1a15aba9398e019f0b49df1a4fde98ee17ae345cb5f6b5e2c27f5033e8ce7"
          ],
          "data": "0x00000000000000000000000000000000000000000000000000000000000000a7",
          "blockHash": "0x3bdfe49732f20098a289c7072f9d0fc31e97b474ba4bf138969620dbb5307e50",
          "blockNumber": "0x75067b",
          "transactionHash": "0x6667d43859374ffa1e1946ce2cf6bdea4c2dbd86297ee8eac89c714c3b09b604",
          "transactionIndex": "0x8",
          "logIndex": "0xf",
          "removed": false
        }
      ],
      "logsBloom": "0x00000000000000000000000000000000000000020000000000000000000000000000000001000000000000000000008000000000000000000000000000000000000000000000000000000008040000000000000000000000000000000000000000000000020000000000000000000800002000000000800000000010000000000000000000000000000000000000000000000000000000000000000000000000000000000000000000000000000000002000020000004000000000000000008000000002000000000000000000000000000000000000000000000000000020000000000000000000200000000000000000000000100000000000000000000000",
      "type": "0x2",
      "transactionHash": "0x6667d43859374ffa1e1946ce2cf6bdea4c2dbd86297ee8eac89c714c3b09b604",
      "transactionIndex": "0x8",
      "blockHash": "0x3bdfe49732f20098a289c7072f9d0fc31e97b474ba4bf138969620dbb5307e50",
      "blockNumber": "0x75067b",
      "gasUsed": "0x2ccb8",
      "effectiveGasPrice": "0xfd",
      "from": "0xcda2fdb452ff4f5d7ba1c3d5dfcc9cb926a5eb7d",
      "to": "0x79dfbed14077b8f2421eece5707a17b161094e6a",
      "contractAddress": null,
      "l1BaseFeeScalar": "0x186a0",
      "l1BlobBaseFee": "0x1",
      "l1BlobBaseFeeScalar": "0x95506",
      "l1Fee": "0x9b4c37ea3d",
      "l1GasPrice": "0xf879f310",
      "l1GasUsed": "0x640"
    },
    {
      "status": "0x1",
      "cumulativeGasUsed": "0x19ddc3",
      "logs": [
        {
          "address": "0x2e8af9c5922623058aa92a183b391e62cb6b2d12",
          "topics": [
            "0xddf252ad1be2c89b69c2b068fc378daa952ba7f163c4a11628f55a4df523b3ef",
            "0x0000000000000000000000000000000000000000000000000000000000000000",
            "0x000000000000000000000000cda2fdb452ff4f5d7ba1c3d5dfcc9cb926a5eb7d",
            "0x00000000000000000000000000000000000000000000000000000000000000a8"
          ],
          "data": "0x",
          "blockHash": "0x3bdfe49732f20098a289c7072f9d0fc31e97b474ba4bf138969620dbb5307e50",
          "blockNumber": "0x75067b",
          "transactionHash": "0x095693e755858906a9b1f5166a6e13a4a2751dcda6fdc1b0a3e9987d0ca2325c",
          "transactionIndex": "0x9",
          "logIndex": "0x10",
          "removed": false
        },
        {
          "address": "0x2e8af9c5922623058aa92a183b391e62cb6b2d12",
          "topics": [
            "0xf8e1a15aba9398e019f0b49df1a4fde98ee17ae345cb5f6b5e2c27f5033e8ce7"
          ],
          "data": "0x00000000000000000000000000000000000000000000000000000000000000a8",
          "blockHash": "0x3bdfe49732f20098a289c7072f9d0fc31e97b474ba4bf138969620dbb5307e50",
          "blockNumber": "0x75067b",
          "transactionHash": "0x095693e755858906a9b1f5166a6e13a4a2751dcda6fdc1b0a3e9987d0ca2325c",
          "transactionIndex": "0x9",
          "logIndex": "0x11",
          "removed": false
        }
      ],
      "logsBloom": "0x00000000000000000000000000000000000000020000000000000000000000000000010000000000000000000000000000000000000000000000000000000000000000000000000080000008040000000000000000000000000000000000000000000000020000000000000000000800002000000000800000000010000000080000000000000000000000000000000000000000000000000000000000000000000000000000000000000000000000002000000000004000000000000000008000000002000000000000000000000000000000000000000000000000000020000000000000000000200000000000000000000000100000000000000000000000",
      "type": "0x2",
      "transactionHash": "0x095693e755858906a9b1f5166a6e13a4a2751dcda6fdc1b0a3e9987d0ca2325c",
      "transactionIndex": "0x9",
      "blockHash": "0x3bdfe49732f20098a289c7072f9d0fc31e97b474ba4bf138969620dbb5307e50",
      "blockNumber": "0x75067b",
      "gasUsed": "0x2ccb8",
      "effectiveGasPrice": "0xfd",
      "from": "0xcda2fdb452ff4f5d7ba1c3d5dfcc9cb926a5eb7d",
      "to": "0x79dfbed14077b8f2421eece5707a17b161094e6a",
      "contractAddress": null,
      "l1BaseFeeScalar": "0x186a0",
      "l1BlobBaseFee": "0x1",
      "l1BlobBaseFeeScalar": "0x95506",
      "l1Fee": "0x9b4c37ea3d",
      "l1GasPrice": "0xf879f310",
      "l1GasUsed": "0x640"
    },
    {
      "status": "0x1",
      "cumulativeGasUsed": "0x1caa7b",
      "logs": [
        {
          "address": "0x2e8af9c5922623058aa92a183b391e62cb6b2d12",
          "topics": [
            "0xddf252ad1be2c89b69c2b068fc378daa952ba7f163c4a11628f55a4df523b3ef",
            "0x0000000000000000000000000000000000000000000000000000000000000000",
            "0x000000000000000000000000cda2fdb452ff4f5d7ba1c3d5dfcc9cb926a5eb7d",
            "0x00000000000000000000000000000000000000000000000000000000000000a9"
          ],
          "data": "0x",
          "blockHash": "0x3bdfe49732f20098a289c7072f9d0fc31e97b474ba4bf138969620dbb5307e50",
          "blockNumber": "0x75067b",
          "transactionHash": "0x014ab72da40cc6ec0893c8aee9bf2808ae1ae6ae2340f09f9e7c1110ae9fc272",
          "transactionIndex": "0xa",
          "logIndex": "0x12",
          "removed": false
        },
        {
          "address": "0x2e8af9c5922623058aa92a183b391e62cb6b2d12",
          "topics": [
            "0xf8e1a15aba9398e019f0b49df1a4fde98ee17ae345cb5f6b5e2c27f5033e8ce7"
          ],
          "data": "0x00000000000000000000000000000000000000000000000000000000000000a9",
          "blockHash": "0x3bdfe49732f20098a289c7072f9d0fc31e97b474ba4bf138969620dbb5307e50",
          "blockNumber": "0x75067b",
          "transactionHash": "0x014ab72da40cc6ec0893c8aee9bf2808ae1ae6ae2340f09f9e7c1110ae9fc272",
          "transactionIndex": "0xa",
          "logIndex": "0x13",
          "removed": false
        }
      ],
      "logsBloom": "0x00000000000000000000000000000000000000020000000000000000000000000000000000000000000000000000000000000000000000000000000000080000000000000000000000000008040000000000000000000000000000000000000000000000020000000000000000000800002000000000808000000010000000000000000000000000000000000000000000000000000000000000000000000000000000000000000000000000000000002000000000004000000000000000008000000002000000000000000000000000000000000000000000000000000020000000000000000000200000000000010000000000100000000000000000000000",
      "type": "0x2",
      "transactionHash": "0x014ab72da40cc6ec0893c8aee9bf2808ae1ae6ae2340f09f9e7c1110ae9fc272",
      "transactionIndex": "0xa",
      "blockHash": "0x3bdfe49732f20098a289c7072f9d0fc31e97b474ba4bf138969620dbb5307e50",
      "blockNumber": "0x75067b",
      "gasUsed": "0x2ccb8",
      "effectiveGasPrice": "0xfd",
      "from": "0xcda2fdb452ff4f5d7ba1c3d5dfcc9cb926a5eb7d",
      "to": "0x79dfbed14077b8f2421eece5707a17b161094e6a",
      "contractAddress": null,
      "l1BaseFeeScalar": "0x186a0",
      "l1BlobBaseFee": "0x1",
      "l1BlobBaseFeeScalar": "0x95506",
      "l1Fee": "0x9b4c37ea3d",
      "l1GasPrice": "0xf879f310",
      "l1GasUsed": "0x640"
    }
  ],
  "libraries": [],
  "pending": [],
  "returns": {},
  "timestamp": 1728200734,
  "chain": 60808,
  "commit": "7d9679b"
}