{
  "transactions": [
    {
      "hash": "0x26ef83165268ba13a633f708e36f4dea7fe2f9926897ca1a70df18a50a1f1818",
      "transactionType": "CALL",
      "contractName": null,
      "contractAddress": "0x79dfbed14077b8f2421eece5707a17b161094e6a",
      "function": "wlMint(address)",
      "arguments": [
        "0x0000000000000000000000000000000000000000"
      ],
      "transaction": {
        "from": "0xcda2fdb452ff4f5d7ba1c3d5dfcc9cb926a5eb7d",
        "to": "0x79dfbed14077b8f2421eece5707a17b161094e6a",
        "gas": "0x3b8a9",
        "value": "0x0",
        "input": "0xc517b4a50000000000000000000000000000000000000000000000000000000000000000",
        "nonce": "0x1c71",
        "chainId": "0xed88"
      },
      "additionalContracts": [],
      "isFixedGasLimit": false
    },
    {
      "hash": "0x9dfe74a7d7a5065e6e39f556137ae528abeeb3e496b187fd16b527e2775bf6fe",
      "transactionType": "CALL",
      "contractName": null,
      "contractAddress": "0x79dfbed14077b8f2421eece5707a17b161094e6a",
      "function": "wlMint(address)",
      "arguments": [
        "0x0000000000000000000000000000000000000000"
      ],
      "transaction": {
        "from": "0xcda2fdb452ff4f5d7ba1c3d5dfcc9cb926a5eb7d",
        "to": "0x79dfbed14077b8f2421eece5707a17b161094e6a",
        "gas": "0x3b8a9",
        "value": "0x0",
        "input": "0xc517b4a50000000000000000000000000000000000000000000000000000000000000000",
        "nonce": "0x1c72",
        "chainId": "0xed88"
      },
      "additionalContracts": [],
      "isFixedGasLimit": false
    },
    {
      "hash": "0xccb511d653a38a50e8088dfa894179a8759e26352b6df11b1427849359f24cd0",
      "transactionType": "CALL",
      "contractName": null,
      "contractAddress": "0x79dfbed14077b8f2421eece5707a17b161094e6a",
      "function": "wlMint(address)",
      "arguments": [
        "0x0000000000000000000000000000000000000000"
      ],
      "transaction": {
        "from": "0xcda2fdb452ff4f5d7ba1c3d5dfcc9cb926a5eb7d",
        "to": "0x79dfbed14077b8f2421eece5707a17b161094e6a",
        "gas": "0x3b8a9",
        "value": "0x0",
        "input": "0xc517b4a50000000000000000000000000000000000000000000000000000000000000000",
        "nonce": "0x1c73",
        "chainId": "0xed88"
      },
      "additionalContracts": [],
      "isFixedGasLimit": false
    },
    {
      "hash": "0x54efdb9cdd91b8bcc61e242bcb5f55ac09fae039349ac8ec0483a3630e6fd0f3",
      "transactionType": "CALL",
      "contractName": null,
      "contractAddress": "0x79dfbed14077b8f2421eece5707a17b161094e6a",
      "function": "wlMint(address)",
      "arguments": [
        "0x0000000000000000000000000000000000000000"
      ],
      "transaction": {
        "from": "0xcda2fdb452ff4f5d7ba1c3d5dfcc9cb926a5eb7d",
        "to": "0x79dfbed14077b8f2421eece5707a17b161094e6a",
        "gas": "0x3b8a9",
        "value": "0x0",
        "input": "0xc517b4a50000000000000000000000000000000000000000000000000000000000000000",
        "nonce": "0x1c74",
        "chainId": "0xed88"
      },
      "additionalContracts": [],
      "isFixedGasLimit": false
    },
    {
      "hash": "0xb073965a4cffd6a84f1af009c1d96e433eb0d4eec5455d68b791945447810247",
      "transactionType": "CALL",
      "contractName": null,
      "contractAddress": "0x79dfbed14077b8f2421eece5707a17b161094e6a",
      "function": "wlMint(address)",
      "arguments": [
        "0x0000000000000000000000000000000000000000"
      ],
      "transaction": {
        "from": "0xcda2fdb452ff4f5d7ba1c3d5dfcc9cb926a5eb7d",
        "to": "0x79dfbed14077b8f2421eece5707a17b161094e6a",
        "gas": "0x3b8a9",
        "value": "0x0",
        "input": "0xc517b4a50000000000000000000000000000000000000000000000000000000000000000",
        "nonce": "0x1c75",
        "chainId": "0xed88"
      },
      "additionalContracts": [],
      "isFixedGasLimit": false
    },
    {
      "hash": "0x36bde5ac56dc1511b3c105d3ddfa1e4a6d379978dd657c82483e6d34f3e649a9",
      "transactionType": "CALL",
      "contractName": null,
      "contractAddress": "0x79dfbed14077b8f2421eece5707a17b161094e6a",
      "function": "wlMint(address)",
      "arguments": [
        "0x0000000000000000000000000000000000000000"
      ],
      "transaction": {
        "from": "0xcda2fdb452ff4f5d7ba1c3d5dfcc9cb926a5eb7d",
        "to": "0x79dfbed14077b8f2421eece5707a17b161094e6a",
        "gas": "0x3b8a9",
        "value": "0x0",
        "input": "0xc517b4a50000000000000000000000000000000000000000000000000000000000000000",
        "nonce": "0x1c76",
        "chainId": "0xed88"
      },
      "additionalContracts": [],
      "isFixedGasLimit": false
    },
    {
      "hash": "0x3ffbd9c47b92797a58b7b15ee90c6c7905acdc280438b2b6f43ae8c0c8b05573",
      "transactionType": "CALL",
      "contractName": null,
      "contractAddress": "0x79dfbed14077b8f2421eece5707a17b161094e6a",
      "function": "wlMint(address)",
      "arguments": [
        "0x0000000000000000000000000000000000000000"
      ],
      "transaction": {
        "from": "0xcda2fdb452ff4f5d7ba1c3d5dfcc9cb926a5eb7d",
        "to": "0x79dfbed14077b8f2421eece5707a17b161094e6a",
        "gas": "0x3b8a9",
        "value": "0x0",
        "input": "0xc517b4a50000000000000000000000000000000000000000000000000000000000000000",
        "nonce": "0x1c77",
        "chainId": "0xed88"
      },
      "additionalContracts": [],
      "isFixedGasLimit": false
    },
    {
      "hash": "0x3aad046dd037496a27f93b84d614918237a82fff94d4a108a4e932f55a0aec3a",
      "transactionType": "CALL",
      "contractName": null,
      "contractAddress": "0x79dfbed14077b8f2421eece5707a17b161094e6a",
      "function": "wlMint(address)",
      "arguments": [
        "0x0000000000000000000000000000000000000000"
      ],
      "transaction": {
        "from": "0xcda2fdb452ff4f5d7ba1c3d5dfcc9cb926a5eb7d",
        "to": "0x79dfbed14077b8f2421eece5707a17b161094e6a",
        "gas": "0x3b8a9",
        "value": "0x0",
        "input": "0xc517b4a50000000000000000000000000000000000000000000000000000000000000000",
        "nonce": "0x1c78",
        "chainId": "0xed88"
      },
      "additionalContracts": [],
      "isFixedGasLimit": false
    },
    {
      "hash": "0xd577d66b73d4045b4dcfa83c51446abc51cec03570f457d0426f4a3de1e438f8",
      "transactionType": "CALL",
      "contractName": null,
      "contractAddress": "0x79dfbed14077b8f2421eece5707a17b161094e6a",
      "function": "wlMint(address)",
      "arguments": [
        "0x0000000000000000000000000000000000000000"
      ],
      "transaction": {
        "from": "0xcda2fdb452ff4f5d7ba1c3d5dfcc9cb926a5eb7d",
        "to": "0x79dfbed14077b8f2421eece5707a17b161094e6a",
        "gas": "0x3b8a9",
        "value": "0x0",
        "input": "0xc517b4a50000000000000000000000000000000000000000000000000000000000000000",
        "nonce": "0x1c79",
        "chainId": "0xed88"
      },
      "additionalContracts": [],
      "isFixedGasLimit": false
    },
    {
      "hash": "0x739e40710040bf9f55af207197395c2cece9eacd5372c623a36672e559cba367",
      "transactionType": "CALL",
      "contractName": null,
      "contractAddress": "0x79dfbed14077b8f2421eece5707a17b161094e6a",
      "function": "wlMint(address)",
      "arguments": [
        "0x0000000000000000000000000000000000000000"
      ],
      "transaction": {
        "from": "0xcda2fdb452ff4f5d7ba1c3d5dfcc9cb926a5eb7d",
        "to": "0x79dfbed14077b8f2421eece5707a17b161094e6a",
        "gas": "0x3b8a9",
        "value": "0x0",
        "input": "0xc517b4a50000000000000000000000000000000000000000000000000000000000000000",
        "nonce": "0x1c7a",
        "chainId": "0xed88"
      },
      "additionalContracts": [],
      "isFixedGasLimit": false
    },
    {
      "hash": "0x42a207e2204a5962dd75576c7b4e3e008ece92dde4d085e30c9d593a6e7c0821",
      "transactionType": "CALL",
      "contractName": null,
      "contractAddress": "0x79dfbed14077b8f2421eece5707a17b161094e6a",
      "function": "wlMint(address)",
      "arguments": [
        "0x0000000000000000000000000000000000000000"
      ],
      "transaction": {
        "from": "0xcda2fdb452ff4f5d7ba1c3d5dfcc9cb926a5eb7d",
        "to": "0x79dfbed14077b8f2421eece5707a17b161094e6a",
        "gas": "0x3b8a9",
        "value": "0x0",
        "input": "0xc517b4a50000000000000000000000000000000000000000000000000000000000000000",
        "nonce": "0x1c7b",
        "chainId": "0xed88"
      },
      "additionalContracts": [],
      "isFixedGasLimit": false
    },
    {
      "hash": "0xc46e25726a541bae877047f10d9f14f8d2e9b6eeb590c6fe18466debe51408ed",
      "transactionType": "CALL",
      "contractName": null,
      "contractAddress": "0x79dfbed14077b8f2421eece5707a17b161094e6a",
      "function": "wlMint(address)",
      "arguments": [
        "0x0000000000000000000000000000000000000000"
      ],
      "transaction": {
        "from": "0xcda2fdb452ff4f5d7ba1c3d5dfcc9cb926a5eb7d",
        "to": "0x79dfbed14077b8f2421eece5707a17b161094e6a",
        "gas": "0x3b8a9",
        "value": "0x0",
        "input": "0xc517b4a50000000000000000000000000000000000000000000000000000000000000000",
        "nonce": "0x1c7c",
        "chainId": "0xed88"
      },
      "additionalContracts": [],
      "isFixedGasLimit": false
    },
    {
      "hash": "0x82f8e36804a46548ead64ac2f45391cb963be219c6242706c79a52e047b78f9a",
      "transactionType": "CALL",
      "contractName": null,
      "contractAddress": "0x79dfbed14077b8f2421eece5707a17b161094e6a",
      "function": "wlMint(address)",
      "arguments": [
        "0x0000000000000000000000000000000000000000"
      ],
      "transaction": {
        "from": "0xcda2fdb452ff4f5d7ba1c3d5dfcc9cb926a5eb7d",
        "to": "0x79dfbed14077b8f2421eece5707a17b161094e6a",
        "gas": "0x3b8a9",
        "value": "0x0",
        "input": "0xc517b4a50000000000000000000000000000000000000000000000000000000000000000",
        "nonce": "0x1c7d",
        "chainId": "0xed88"
      },
      "additionalContracts": [],
      "isFixedGasLimit": false
    },
    {
      "hash": "0x12d928d2abadc5f289a84c8b35a2776bc3df6022c720c010f3553650a873ad35",
      "transactionType": "CALL",
      "contractName": null,
      "contractAddress": "0x79dfbed14077b8f2421eece5707a17b161094e6a",
      "function": "wlMint(address)",
      "arguments": [
        "0x0000000000000000000000000000000000000000"
      ],
      "transaction": {
        "from": "0xcda2fdb452ff4f5d7ba1c3d5dfcc9cb926a5eb7d",
        "to": "0x79dfbed14077b8f2421eece5707a17b161094e6a",
        "gas": "0x3b8a9",
        "value": "0x0",
        "input": "0xc517b4a50000000000000000000000000000000000000000000000000000000000000000",
        "nonce": "0x1c7e",
        "chainId": "0xed88"
      },
      "additionalContracts": [],
      "isFixedGasLimit": false
    },
    {
      "hash": "0xd0aadf30e5a4eac7310c57e8a5849c84e44823d51d9a46d6901d5768ac008fda",
      "transactionType": "CALL",
      "contractName": null,
      "contractAddress": "0x79dfbed14077b8f2421eece5707a17b161094e6a",
      "function": "wlMint(address)",
      "arguments": [
        "0x0000000000000000000000000000000000000000"
      ],
      "transaction": {
        "from": "0xcda2fdb452ff4f5d7ba1c3d5dfcc9cb926a5eb7d",
        "to": "0x79dfbed14077b8f2421eece5707a17b161094e6a",
        "gas": "0x3b8a9",
        "value": "0x0",
        "input": "0xc517b4a50000000000000000000000000000000000000000000000000000000000000000",
        "nonce": "0x1c7f",
        "chainId": "0xed88"
      },
      "additionalContracts": [],
      "isFixedGasLimit": false
    },
    {
      "hash": "0xdc32546cf8654ee90cec055d345ce7ff7f163661f632990b07f1441765cacb90",
      "transactionType": "CALL",
      "contractName": null,
      "contractAddress": "0x79dfbed14077b8f2421eece5707a17b161094e6a",
      "function": "wlMint(address)",
      "arguments": [
        "0x0000000000000000000000000000000000000000"
      ],
      "transaction": {
        "from": "0xcda2fdb452ff4f5d7ba1c3d5dfcc9cb926a5eb7d",
        "to": "0x79dfbed14077b8f2421eece5707a17b161094e6a",
        "gas": "0x3b8a9",
        "value": "0x0",
        "input": "0xc517b4a50000000000000000000000000000000000000000000000000000000000000000",
        "nonce": "0x1c80",
        "chainId": "0xed88"
      },
      "additionalContracts": [],
      "isFixedGasLimit": false
    },
    {
      "hash": "0x2659db6fa92e593c501f664f63edc67f483d472c407f98c476c4ec5897402a2b",
      "transactionType": "CALL",
      "contractName": null,
      "contractAddress": "0x79dfbed14077b8f2421eece5707a17b161094e6a",
      "function": "wlMint(address)",
      "arguments": [
        "0x0000000000000000000000000000000000000000"
      ],
      "transaction": {
        "from": "0xcda2fdb452ff4f5d7ba1c3d5dfcc9cb926a5eb7d",
        "to": "0x79dfbed14077b8f2421eece5707a17b161094e6a",
        "gas": "0x3b8a9",
        "value": "0x0",
        "input": "0xc517b4a50000000000000000000000000000000000000000000000000000000000000000",
        "nonce": "0x1c81",
        "chainId": "0xed88"
      },
      "additionalContracts": [],
      "isFixedGasLimit": false
    },
    {
      "hash": "0x1f7303624612c319fe4cb5009465d060ffbb58b9c6bca6afb284427290cf6dd2",
      "transactionType": "CALL",
      "contractName": null,
      "contractAddress": "0x79dfbed14077b8f2421eece5707a17b161094e6a",
      "function": "wlMint(address)",
      "arguments": [
        "0x0000000000000000000000000000000000000000"
      ],
      "transaction": {
        "from": "0xcda2fdb452ff4f5d7ba1c3d5dfcc9cb926a5eb7d",
        "to": "0x79dfbed14077b8f2421eece5707a17b161094e6a",
        "gas": "0x3b8a9",
        "value": "0x0",
        "input": "0xc517b4a50000000000000000000000000000000000000000000000000000000000000000",
        "nonce": "0x1c82",
        "chainId": "0xed88"
      },
      "additionalContracts": [],
      "isFixedGasLimit": false
    },
    {
      "hash": "0x519f89a87e3d9c3c3bb730550371c4a45190c3714d6caf1c4c54364a79a6b617",
      "transactionType": "CALL",
      "contractName": null,
      "contractAddress": "0x79dfbed14077b8f2421eece5707a17b161094e6a",
      "function": "wlMint(address)",
      "arguments": [
        "0x0000000000000000000000000000000000000000"
      ],
      "transaction": {
        "from": "0xcda2fdb452ff4f5d7ba1c3d5dfcc9cb926a5eb7d",
        "to": "0x79dfbed14077b8f2421eece5707a17b161094e6a",
        "gas": "0x3b8a9",
        "value": "0x0",
        "input": "0xc517b4a50000000000000000000000000000000000000000000000000000000000000000",
        "nonce": "0x1c83",
        "chainId": "0xed88"
      },
      "additionalContracts": [],
      "isFixedGasLimit": false
    },
    {
      "hash": "0x2ccc9a9285d95d6a86375dff534b861564f5e256fac5465186267e95921a7365",
      "transactionType": "CALL",
      "contractName": null,
      "contractAddress": "0x79dfbed14077b8f2421eece5707a17b161094e6a",
      "function": "wlMint(address)",
      "arguments": [
        "0x0000000000000000000000000000000000000000"
      ],
      "transaction": {
        "from": "0xcda2fdb452ff4f5d7ba1c3d5dfcc9cb926a5eb7d",
        "to": "0x79dfbed14077b8f2421eece5707a17b161094e6a",
        "gas": "0x3b8a9",
        "value": "0x0",
        "input": "0xc517b4a50000000000000000000000000000000000000000000000000000000000000000",
        "nonce": "0x1c84",
        "chainId": "0xed88"
      },
      "additionalContracts": [],
      "isFixedGasLimit": false
    },
    {
      "hash": "0xf05de831f202f463261f277d2538f414170245e45d05429f322ba8f400b94440",
      "transactionType": "CALL",
      "contractName": null,
      "contractAddress": "0x79dfbed14077b8f2421eece5707a17b161094e6a",
      "function": "wlMint(address)",
      "arguments": [
        "0x0000000000000000000000000000000000000000"
      ],
      "transaction": {
        "from": "0xcda2fdb452ff4f5d7ba1c3d5dfcc9cb926a5eb7d",
        "to": "0x79dfbed14077b8f2421eece5707a17b161094e6a",
        "gas": "0x3b8a9",
        "value": "0x0",
        "input": "0xc517b4a50000000000000000000000000000000000000000000000000000000000000000",
        "nonce": "0x1c85",
        "chainId": "0xed88"
      },
      "additionalContracts": [],
      "isFixedGasLimit": false
    },
    {
      "hash": "0x344a76894a7d60279cdd2d5a1210afa1b9295ea5782f9087a1e21c29a45d8c83",
      "transactionType": "CALL",
      "contractName": null,
      "contractAddress": "0x79dfbed14077b8f2421eece5707a17b161094e6a",
      "function": "wlMint(address)",
      "arguments": [
        "0x0000000000000000000000000000000000000000"
      ],
      "transaction": {
        "from": "0xcda2fdb452ff4f5d7ba1c3d5dfcc9cb926a5eb7d",
        "to": "0x79dfbed14077b8f2421eece5707a17b161094e6a",
        "gas": "0x3b8a9",
        "value": "0x0",
        "input": "0xc517b4a50000000000000000000000000000000000000000000000000000000000000000",
        "nonce": "0x1c86",
        "chainId": "0xed88"
      },
      "additionalContracts": [],
      "isFixedGasLimit": false
    },
    {
      "hash": "0xe61b846ef3f57750dce5d1b16352d9dfd29ac14dba5ffba74f1a57f5fc85db80",
      "transactionType": "CALL",
      "contractName": null,
      "contractAddress": "0x79dfbed14077b8f2421eece5707a17b161094e6a",
      "function": "wlMint(address)",
      "arguments": [
        "0x0000000000000000000000000000000000000000"
      ],
      "transaction": {
        "from": "0xcda2fdb452ff4f5d7ba1c3d5dfcc9cb926a5eb7d",
        "to": "0x79dfbed14077b8f2421eece5707a17b161094e6a",
        "gas": "0x3b8a9",
        "value": "0x0",
        "input": "0xc517b4a50000000000000000000000000000000000000000000000000000000000000000",
        "nonce": "0x1c87",
        "chainId": "0xed88"
      },
      "additionalContracts": [],
      "isFixedGasLimit": false
    },
    {
      "hash": "0xa9be97dba858d15c3125741bd43c42f5e60d8cb8ada35b567fcd3663fb2e53f7",
      "transactionType": "CALL",
      "contractName": null,
      "contractAddress": "0x79dfbed14077b8f2421eece5707a17b161094e6a",
      "function": "wlMint(address)",
      "arguments": [
        "0x0000000000000000000000000000000000000000"
      ],
      "transaction": {
        "from": "0xcda2fdb452ff4f5d7ba1c3d5dfcc9cb926a5eb7d",
        "to": "0x79dfbed14077b8f2421eece5707a17b161094e6a",
        "gas": "0x3b8a9",
        "value": "0x0",
        "input": "0xc517b4a50000000000000000000000000000000000000000000000000000000000000000",
        "nonce": "0x1c88",
        "chainId": "0xed88"
      },
      "additionalContracts": [],
      "isFixedGasLimit": false
    },
    {
      "hash": "0x541324970d7297c7dc8381985413fceb5568b16ec51f550bb41dc5acdb44b5c5",
      "transactionType": "CALL",
      "contractName": null,
      "contractAddress": "0x79dfbed14077b8f2421eece5707a17b161094e6a",
      "function": "wlMint(address)",
      "arguments": [
        "0x0000000000000000000000000000000000000000"
      ],
      "transaction": {
        "from": "0xcda2fdb452ff4f5d7ba1c3d5dfcc9cb926a5eb7d",
        "to": "0x79dfbed14077b8f2421eece5707a17b161094e6a",
        "gas": "0x3b8a9",
        "value": "0x0",
        "input": "0xc517b4a50000000000000000000000000000000000000000000000000000000000000000",
        "nonce": "0x1c89",
        "chainId": "0xed88"
      },
      "additionalContracts": [],
      "isFixedGasLimit": false
    },
    {
      "hash": "0xcd2cd6bf6ae7a987c92e2c6718394b3b7c39a9aaf0aba1171a7df935a99216f4",
      "transactionType": "CALL",
      "contractName": null,
      "contractAddress": "0x79dfbed14077b8f2421eece5707a17b161094e6a",
      "function": "wlMint(address)",
      "arguments": [
        "0x0000000000000000000000000000000000000000"
      ],
      "transaction": {
        "from": "0xcda2fdb452ff4f5d7ba1c3d5dfcc9cb926a5eb7d",
        "to": "0x79dfbed14077b8f2421eece5707a17b161094e6a",
        "gas": "0x3b8a9",
        "value": "0x0",
        "input": "0xc517b4a50000000000000000000000000000000000000000000000000000000000000000",
        "nonce": "0x1c8a",
        "chainId": "0xed88"
      },
      "additionalContracts": [],
      "isFixedGasLimit": false
    },
    {
      "hash": "0x6f52dfa9edb5b77a344fce012f0123abdfeb220bbc878208b8215849fe9368ab",
      "transactionType": "CALL",
      "contractName": null,
      "contractAddress": "0x79dfbed14077b8f2421eece5707a17b161094e6a",
      "function": "wlMint(address)",
      "arguments": [
        "0x0000000000000000000000000000000000000000"
      ],
      "transaction": {
        "from": "0xcda2fdb452ff4f5d7ba1c3d5dfcc9cb926a5eb7d",
        "to": "0x79dfbed14077b8f2421eece5707a17b161094e6a",
        "gas": "0x3b8a9",
        "value": "0x0",
        "input": "0xc517b4a50000000000000000000000000000000000000000000000000000000000000000",
        "nonce": "0x1c8b",
        "chainId": "0xed88"
      },
      "additionalContracts": [],
      "isFixedGasLimit": false
    },
    {
      "hash": "0xaf6fc39c3f6fc35bbb9eebb41cb36d73b4643c13447eb078f90259684eb04429",
      "transactionType": "CALL",
      "contractName": null,
      "contractAddress": "0x79dfbed14077b8f2421eece5707a17b161094e6a",
      "function": "wlMint(address)",
      "arguments": [
        "0x0000000000000000000000000000000000000000"
      ],
      "transaction": {
        "from": "0xcda2fdb452ff4f5d7ba1c3d5dfcc9cb926a5eb7d",
        "to": "0x79dfbed14077b8f2421eece5707a17b161094e6a",
        "gas": "0x3b8a9",
        "value": "0x0",
        "input": "0xc517b4a50000000000000000000000000000000000000000000000000000000000000000",
        "nonce": "0x1c8c",
        "chainId": "0xed88"
      },
      "additionalContracts": [],
      "isFixedGasLimit": false
    },
    {
      "hash": "0xca1bd50a8ae9f775ade4888de3a604e2f1eb3852213768fec8bb30f7fa641e0b",
      "transactionType": "CALL",
      "contractName": null,
      "contractAddress": "0x79dfbed14077b8f2421eece5707a17b161094e6a",
      "function": "wlMint(address)",
      "arguments": [
        "0x0000000000000000000000000000000000000000"
      ],
      "transaction": {
        "from": "0xcda2fdb452ff4f5d7ba1c3d5dfcc9cb926a5eb7d",
        "to": "0x79dfbed14077b8f2421eece5707a17b161094e6a",
        "gas": "0x3b8a9",
        "value": "0x0",
        "input": "0xc517b4a50000000000000000000000000000000000000000000000000000000000000000",
        "nonce": "0x1c8d",
        "chainId": "0xed88"
      },
      "additionalContracts": [],
      "isFixedGasLimit": false
    },
    {
      "hash": "0xf5f495832894d7191241857b34102263184706cc80a4f996fadd89c6e7bd2b6f",
      "transactionType": "CALL",
      "contractName": null,
      "contractAddress": "0x79dfbed14077b8f2421eece5707a17b161094e6a",
      "function": "wlMint(address)",
      "arguments": [
        "0x0000000000000000000000000000000000000000"
      ],
      "transaction": {
        "from": "0xcda2fdb452ff4f5d7ba1c3d5dfcc9cb926a5eb7d",
        "to": "0x79dfbed14077b8f2421eece5707a17b161094e6a",
        "gas": "0x3b8a9",
        "value": "0x0",
        "input": "0xc517b4a50000000000000000000000000000000000000000000000000000000000000000",
        "nonce": "0x1c8e",
        "chainId": "0xed88"
      },
      "additionalContracts": [],
      "isFixedGasLimit": false
    },
    {
      "hash": "0x15a8fb0491e2b5e0906348a2c583a642a5405083a3d6621fc07e2225bc471bd3",
      "transactionType": "CALL",
      "contractName": null,
      "contractAddress": "0x79dfbed14077b8f2421eece5707a17b161094e6a",
      "function": "wlMint(address)",
      "arguments": [
        "0x0000000000000000000000000000000000000000"
      ],
      "transaction": {
        "from": "0xcda2fdb452ff4f5d7ba1c3d5dfcc9cb926a5eb7d",
        "to": "0x79dfbed14077b8f2421eece5707a17b161094e6a",
        "gas": "0x3b8a9",
        "value": "0x0",
        "input": "0xc517b4a50000000000000000000000000000000000000000000000000000000000000000",
        "nonce": "0x1c8f",
        "chainId": "0xed88"
      },
      "additionalContracts": [],
      "isFixedGasLimit": false
    },
    {
      "hash": "0x7c21ec61d0bb61f55f077f218aa0f435c1d8bf56bebdc16b28899f4ad48e7787",
      "transactionType": "CALL",
      "contractName": null,
      "contractAddress": "0x79dfbed14077b8f2421eece5707a17b161094e6a",
      "function": "wlMint(address)",
      "arguments": [
        "0x0000000000000000000000000000000000000000"
      ],
      "transaction": {
        "from": "0xcda2fdb452ff4f5d7ba1c3d5dfcc9cb926a5eb7d",
        "to": "0x79dfbed14077b8f2421eece5707a17b161094e6a",
        "gas": "0x3b8a9",
        "value": "0x0",
        "input": "0xc517b4a50000000000000000000000000000000000000000000000000000000000000000",
        "nonce": "0x1c90",
        "chainId": "0xed88"
      },
      "additionalContracts": [],
      "isFixedGasLimit": false
    },
    {
      "hash": "0xf42c41efd502a4a2f09b6b0b912b8ae10f8ceec98cd060e6d736eca030c9906d",
      "transactionType": "CALL",
      "contractName": null,
      "contractAddress": "0x79dfbed14077b8f2421eece5707a17b161094e6a",
      "function": "wlMint(address)",
      "arguments": [
        "0x0000000000000000000000000000000000000000"
      ],
      "transaction": {
        "from": "0xcda2fdb452ff4f5d7ba1c3d5dfcc9cb926a5eb7d",
        "to": "0x79dfbed14077b8f2421eece5707a17b161094e6a",
        "gas": "0x3b8a9",
        "value": "0x0",
        "input": "0xc517b4a50000000000000000000000000000000000000000000000000000000000000000",
        "nonce": "0x1c91",
        "chainId": "0xed88"
      },
      "additionalContracts": [],
      "isFixedGasLimit": false
    },
    {
      "hash": "0x15cdcdcf8b92c10e7a3f1877e7976f934d5af17c8127f0ebf31c4716f49c9dc0",
      "transactionType": "CALL",
      "contractName": null,
      "contractAddress": "0x79dfbed14077b8f2421eece5707a17b161094e6a",
      "function": "wlMint(address)",
      "arguments": [
        "0x0000000000000000000000000000000000000000"
      ],
      "transaction": {
        "from": "0xcda2fdb452ff4f5d7ba1c3d5dfcc9cb926a5eb7d",
        "to": "0x79dfbed14077b8f2421eece5707a17b161094e6a",
        "gas": "0x3b8a9",
        "value": "0x0",
        "input": "0xc517b4a50000000000000000000000000000000000000000000000000000000000000000",
        "nonce": "0x1c92",
        "chainId": "0xed88"
      },
      "additionalContracts": [],
      "isFixedGasLimit": false
    },
    {
      "hash": "0xd7c1d0e2f99c8404f2cd01ee3902ec224cfbdd406e42884bb504a7640c9664e9",
      "transactionType": "CALL",
      "contractName": null,
      "contractAddress": "0x79dfbed14077b8f2421eece5707a17b161094e6a",
      "function": "wlMint(address)",
      "arguments": [
        "0x0000000000000000000000000000000000000000"
      ],
      "transaction": {
        "from": "0xcda2fdb452ff4f5d7ba1c3d5dfcc9cb926a5eb7d",
        "to": "0x79dfbed14077b8f2421eece5707a17b161094e6a",
        "gas": "0x3b8a9",
        "value": "0x0",
        "input": "0xc517b4a50000000000000000000000000000000000000000000000000000000000000000",
        "nonce": "0x1c93",
        "chainId": "0xed88"
      },
      "additionalContracts": [],
      "isFixedGasLimit": false
    },
    {
      "hash": "0x38b60d6b9734b10b3d7c20b9477f7fe16ae2f3c847d479f7b224565e780de5d8",
      "transactionType": "CALL",
      "contractName": null,
      "contractAddress": "0x79dfbed14077b8f2421eece5707a17b161094e6a",
      "function": "wlMint(address)",
      "arguments": [
        "0x0000000000000000000000000000000000000000"
      ],
      "transaction": {
        "from": "0xcda2fdb452ff4f5d7ba1c3d5dfcc9cb926a5eb7d",
        "to": "0x79dfbed14077b8f2421eece5707a17b161094e6a",
        "gas": "0x3b8a9",
        "value": "0x0",
        "input": "0xc517b4a50000000000000000000000000000000000000000000000000000000000000000",
        "nonce": "0x1c94",
        "chainId": "0xed88"
      },
      "additionalContracts": [],
      "isFixedGasLimit": false
    },
    {
      "hash": "0x1409b63e8b735b8df1cafac20e3195c56ed2ef040e59a5dd4b5089f7ecd08341",
      "transactionType": "CALL",
      "contractName": null,
      "contractAddress": "0x79dfbed14077b8f2421eece5707a17b161094e6a",
      "function": "wlMint(address)",
      "arguments": [
        "0x0000000000000000000000000000000000000000"
      ],
      "transaction": {
        "from": "0xcda2fdb452ff4f5d7ba1c3d5dfcc9cb926a5eb7d",
        "to": "0x79dfbed14077b8f2421eece5707a17b161094e6a",
        "gas": "0x3b8a9",
        "value": "0x0",
        "input": "0xc517b4a50000000000000000000000000000000000000000000000000000000000000000",
        "nonce": "0x1c95",
        "chainId": "0xed88"
      },
      "additionalContracts": [],
      "isFixedGasLimit": false
    },
    {
      "hash": "0x48de5850bbde892baa818116ad15e1af2ca8f4fb683116ee7279cd4ccf9247f4",
      "transactionType": "CALL",
      "contractName": null,
      "contractAddress": "0x79dfbed14077b8f2421eece5707a17b161094e6a",
      "function": "wlMint(address)",
      "arguments": [
        "0x0000000000000000000000000000000000000000"
      ],
      "transaction": {
        "from": "0xcda2fdb452ff4f5d7ba1c3d5dfcc9cb926a5eb7d",
        "to": "0x79dfbed14077b8f2421eece5707a17b161094e6a",
        "gas": "0x3b8a9",
        "value": "0x0",
        "input": "0xc517b4a50000000000000000000000000000000000000000000000000000000000000000",
        "nonce": "0x1c96",
        "chainId": "0xed88"
      },
      "additionalContracts": [],
      "isFixedGasLimit": false
    },
    {
      "hash": "0xe93e2899eca0f0232026c4d8c4f55f6aa69f23b1584abce63846f4e7da0b61ae",
      "transactionType": "CALL",
      "contractName": null,
      "contractAddress": "0x79dfbed14077b8f2421eece5707a17b161094e6a",
      "function": "wlMint(address)",
      "arguments": [
        "0x0000000000000000000000000000000000000000"
      ],
      "transaction": {
        "from": "0xcda2fdb452ff4f5d7ba1c3d5dfcc9cb926a5eb7d",
        "to": "0x79dfbed14077b8f2421eece5707a17b161094e6a",
        "gas": "0x3b8a9",
        "value": "0x0",
        "input": "0xc517b4a50000000000000000000000000000000000000000000000000000000000000000",
        "nonce": "0x1c97",
        "chainId": "0xed88"
      },
      "additionalContracts": [],
      "isFixedGasLimit": false
    },
    {
      "hash": "0x6d742aa1c2abfa9506e940af28d3352f0d8a78adc9a35023a1b18ef348f3f2fd",
      "transactionType": "CALL",
      "contractName": null,
      "contractAddress": "0x79dfbed14077b8f2421eece5707a17b161094e6a",
      "function": "wlMint(address)",
      "arguments": [
        "0x0000000000000000000000000000000000000000"
      ],
      "transaction": {
        "from": "0xcda2fdb452ff4f5d7ba1c3d5dfcc9cb926a5eb7d",
        "to": "0x79dfbed14077b8f2421eece5707a17b161094e6a",
        "gas": "0x3b8a9",
        "value": "0x0",
        "input": "0xc517b4a50000000000000000000000000000000000000000000000000000000000000000",
        "nonce": "0x1c98",
        "chainId": "0xed88"
      },
      "additionalContracts": [],
      "isFixedGasLimit": false
    },
    {
      "hash": "0x4307025ba540104f9217e1c46820ee5e858824432e02d246534d32a526f5dcc8",
      "transactionType": "CALL",
      "contractName": null,
      "contractAddress": "0x79dfbed14077b8f2421eece5707a17b161094e6a",
      "function": "wlMint(address)",
      "arguments": [
        "0x0000000000000000000000000000000000000000"
      ],
      "transaction": {
        "from": "0xcda2fdb452ff4f5d7ba1c3d5dfcc9cb926a5eb7d",
        "to": "0x79dfbed14077b8f2421eece5707a17b161094e6a",
        "gas": "0x3b8a9",
        "value": "0x0",
        "input": "0xc517b4a50000000000000000000000000000000000000000000000000000000000000000",
        "nonce": "0x1c99",
        "chainId": "0xed88"
      },
      "additionalContracts": [],
      "isFixedGasLimit": false
    },
    {
      "hash": "0x1dfa403f60e98e49cd7ebde3d2e55e2cfa18697fba6ee3854a35b006bda1901b",
      "transactionType": "CALL",
      "contractName": null,
      "contractAddress": "0x79dfbed14077b8f2421eece5707a17b161094e6a",
      "function": "wlMint(address)",
      "arguments": [
        "0x0000000000000000000000000000000000000000"
      ],
      "transaction": {
        "from": "0xcda2fdb452ff4f5d7ba1c3d5dfcc9cb926a5eb7d",
        "to": "0x79dfbed14077b8f2421eece5707a17b161094e6a",
        "gas": "0x3b8a9",
        "value": "0x0",
        "input": "0xc517b4a50000000000000000000000000000000000000000000000000000000000000000",
        "nonce": "0x1c9a",
        "chainId": "0xed88"
      },
      "additionalContracts": [],
      "isFixedGasLimit": false
    },
    {
      "hash": "0x57ac8d09b52b967ea4d693d6415cb43d08b738d48512e45a642baeed7b2a86a4",
      "transactionType": "CALL",
      "contractName": null,
      "contractAddress": "0x79dfbed14077b8f2421eece5707a17b161094e6a",
      "function": "wlMint(address)",
      "arguments": [
        "0x0000000000000000000000000000000000000000"
      ],
      "transaction": {
        "from": "0xcda2fdb452ff4f5d7ba1c3d5dfcc9cb926a5eb7d",
        "to": "0x79dfbed14077b8f2421eece5707a17b161094e6a",
        "gas": "0x3b8a9",
        "value": "0x0",
        "input": "0xc517b4a50000000000000000000000000000000000000000000000000000000000000000",
        "nonce": "0x1c9b",
        "chainId": "0xed88"
      },
      "additionalContracts": [],
      "isFixedGasLimit": false
    },
    {
      "hash": "0x59595ff932821a73a7c9826208e6f5e293655d82187ebabec6f302b320c0aa6b",
      "transactionType": "CALL",
      "contractName": null,
      "contractAddress": "0x79dfbed14077b8f2421eece5707a17b161094e6a",
      "function": "wlMint(address)",
      "arguments": [
        "0x0000000000000000000000000000000000000000"
      ],
      "transaction": {
        "from": "0xcda2fdb452ff4f5d7ba1c3d5dfcc9cb926a5eb7d",
        "to": "0x79dfbed14077b8f2421eece5707a17b161094e6a",
        "gas": "0x3b8a9",
        "value": "0x0",
        "input": "0xc517b4a50000000000000000000000000000000000000000000000000000000000000000",
        "nonce": "0x1c9c",
        "chainId": "0xed88"
      },
      "additionalContracts": [],
      "isFixedGasLimit": false
    },
    {
      "hash": "0xc3f0a29c0b1baae3ad5624a62b41505f3ce04817ad3b776f6ba5a366a4b41149",
      "transactionType": "CALL",
      "contractName": null,
      "contractAddress": "0x79dfbed14077b8f2421eece5707a17b161094e6a",
      "function": "wlMint(address)",
      "arguments": [
        "0x0000000000000000000000000000000000000000"
      ],
      "transaction": {
        "from": "0xcda2fdb452ff4f5d7ba1c3d5dfcc9cb926a5eb7d",
        "to": "0x79dfbed14077b8f2421eece5707a17b161094e6a",
        "gas": "0x3b8a9",
        "value": "0x0",
        "input": "0xc517b4a50000000000000000000000000000000000000000000000000000000000000000",
        "nonce": "0x1c9d",
        "chainId": "0xed88"
      },
      "additionalContracts": [],
      "isFixedGasLimit": false
    },
    {
      "hash": "0xecfbe07d2930d4d745f1ddb3c31185c3d6544c53cd6ef76508ed0bbc5db848ea",
      "transactionType": "CALL",
      "contractName": null,
      "contractAddress": "0x79dfbed14077b8f2421eece5707a17b161094e6a",
      "function": "wlMint(address)",
      "arguments": [
        "0x0000000000000000000000000000000000000000"
      ],
      "transaction": {
        "from": "0xcda2fdb452ff4f5d7ba1c3d5dfcc9cb926a5eb7d",
        "to": "0x79dfbed14077b8f2421eece5707a17b161094e6a",
        "gas": "0x3b8a9",
        "value": "0x0",
        "input": "0xc517b4a50000000000000000000000000000000000000000000000000000000000000000",
        "nonce": "0x1c9e",
        "chainId": "0xed88"
      },
      "additionalContracts": [],
      "isFixedGasLimit": false
    },
    {
      "hash": "0x748b4e11130af725ec12855b0b05ae5d67d6edf6018c06640bede657b75829b5",
      "transactionType": "CALL",
      "contractName": null,
      "contractAddress": "0x79dfbed14077b8f2421eece5707a17b161094e6a",
      "function": "wlMint(address)",
      "arguments": [
        "0x0000000000000000000000000000000000000000"
      ],
      "transaction": {
        "from": "0xcda2fdb452ff4f5d7ba1c3d5dfcc9cb926a5eb7d",
        "to": "0x79dfbed14077b8f2421eece5707a17b161094e6a",
        "gas": "0x3b8a9",
        "value": "0x0",
        "input": "0xc517b4a50000000000000000000000000000000000000000000000000000000000000000",
        "nonce": "0x1c9f",
        "chainId": "0xed88"
      },
      "additionalContracts": [],
      "isFixedGasLimit": false
    },
    {
      "hash": "0x02c82690fb97ec213d304ab1a03cd3e39496427a33f6c54dca760fe8232fa4e5",
      "transactionType": "CALL",
      "contractName": null,
      "contractAddress": "0x79dfbed14077b8f2421eece5707a17b161094e6a",
      "function": "wlMint(address)",
      "arguments": [
        "0x0000000000000000000000000000000000000000"
      ],
      "transaction": {
        "from": "0xcda2fdb452ff4f5d7ba1c3d5dfcc9cb926a5eb7d",
        "to": "0x79dfbed14077b8f2421eece5707a17b161094e6a",
        "gas": "0x3b8a9",
        "value": "0x0",
        "input": "0xc517b4a50000000000000000000000000000000000000000000000000000000000000000",
        "nonce": "0x1ca0",
        "chainId": "0xed88"
      },
      "additionalContracts": [],
      "isFixedGasLimit": false
    },
    {
      "hash": "0x0d0d245607c26e723c7f9c01b2c9063e74d13fd0410111dbebde305beeff5db7",
      "transactionType": "CALL",
      "contractName": null,
      "contractAddress": "0x79dfbed14077b8f2421eece5707a17b161094e6a",
      "function": "wlMint(address)",
      "arguments": [
        "0x0000000000000000000000000000000000000000"
      ],
      "transaction": {
        "from": "0xcda2fdb452ff4f5d7ba1c3d5dfcc9cb926a5eb7d",
        "to": "0x79dfbed14077b8f2421eece5707a17b161094e6a",
        "gas": "0x3b8a9",
        "value": "0x0",
        "input": "0xc517b4a50000000000000000000000000000000000000000000000000000000000000000",
        "nonce": "0x1ca1",
        "chainId": "0xed88"
      },
      "additionalContracts": [],
      "isFixedGasLimit": false
    },
    {
      "hash": "0x254f06d7dd367b5b33292e081ca2867711d708193a74e46ebc6a095e27b6e1b1",
      "transactionType": "CALL",
      "contractName": null,
      "contractAddress": "0x79dfbed14077b8f2421eece5707a17b161094e6a",
      "function": "wlMint(address)",
      "arguments": [
        "0x0000000000000000000000000000000000000000"
      ],
      "transaction": {
        "from": "0xcda2fdb452ff4f5d7ba1c3d5dfcc9cb926a5eb7d",
        "to": "0x79dfbed14077b8f2421eece5707a17b161094e6a",
        "gas": "0x3b8a9",
        "value": "0x0",
        "input": "0xc517b4a50000000000000000000000000000000000000000000000000000000000000000",
        "nonce": "0x1ca2",
        "chainId": "0xed88"
      },
      "additionalContracts": [],
      "isFixedGasLimit": false
    }
  ],
  "receipts": [
    {
      "status": "0x1",
      "cumulativeGasUsed": "0x35d0d",
      "logs": [
        {
          "address": "0x2e8af9c5922623058aa92a183b391e62cb6b2d12",
          "topics": [
            "0xddf252ad1be2c89b69c2b068fc378daa952ba7f163c4a11628f55a4df523b3ef",
            "0x0000000000000000000000000000000000000000000000000000000000000000",
            "0x000000000000000000000000cda2fdb452ff4f5d7ba1c3d5dfcc9cb926a5eb7d",
            "0x0000000000000000000000000000000000000000000000000000000000000067"
          ],
          "data": "0x",
          "blockHash": "0x173cf039bf1247dc337008950af2969bb4a9c0ac2283af13131f47fdb45f356e",
          "blockNumber": "0x749869",
          "transactionHash": "0x26ef83165268ba13a633f708e36f4dea7fe2f9926897ca1a70df18a50a1f1818",
          "transactionIndex": "0x1",
          "logIndex": "0x0",
          "removed": false
        },
        {
          "address": "0x2e8af9c5922623058aa92a183b391e62cb6b2d12",
          "topics": [
            "0xf8e1a15aba9398e019f0b49df1a4fde98ee17ae345cb5f6b5e2c27f5033e8ce7"
          ],
          "data": "0x0000000000000000000000000000000000000000000000000000000000000067",
          "blockHash": "0x173cf039bf1247dc337008950af2969bb4a9c0ac2283af13131f47fdb45f356e",
          "blockNumber": "0x749869",
          "transactionHash": "0x26ef83165268ba13a633f708e36f4dea7fe2f9926897ca1a70df18a50a1f1818",
          "transactionIndex": "0x1",
          "logIndex": "0x1",
          "removed": false
        }
      ],
      "logsBloom": "0x00000008000000000000000000000080000000020000000000000000000000000000000000000000020000000000000000000000000000000000000000000000000000000000000000000008040000000000000000000000000000000000000000000000020000000000000000000800002000000000800000000010000000000000000000000000000000000000000000000000000000000000000000000000000000000000000000000000000000002000000000004000000000000000008000000002000000000000000000000000000000000000000000000000000020000000000000000000200000000000000000000000100000000000000000000000",
      "type": "0x2",
      "transactionHash": "0x26ef83165268ba13a633f708e36f4dea7fe2f9926897ca1a70df18a50a1f1818",
      "transactionIndex": "0x1",
      "blockHash": "0x173cf039bf1247dc337008950af2969bb4a9c0ac2283af13131f47fdb45f356e",
      "blockNumber": "0x749869",
      "gasUsed": "0x2b1b6",
      "effectiveGasPrice": "0xfd",
      "from": "0xcda2fdb452ff4f5d7ba1c3d5dfcc9cb926a5eb7d",
      "to": "0x79dfbed14077b8f2421eece5707a17b161094e6a",
      "contractAddress": null,
      "l1BaseFeeScalar": "0x186a0",
      "l1BlobBaseFee": "0x1",
      "l1BlobBaseFeeScalar": "0x95506",
      "l1Fee": "0x10dfa3b2fdd",
      "l1GasPrice": "0x1aff6c519",
      "l1GasUsed": "0x640"
    },
    {
      "status": "0x1",
      "cumulativeGasUsed": "0x60ec3",
      "logs": [
        {
          "address": "0x2e8af9c5922623058aa92a183b391e62cb6b2d12",
          "topics": [
            "0xddf252ad1be2c89b69c2b068fc378daa952ba7f163c4a11628f55a4df523b3ef",
            "0x0000000000000000000000000000000000000000000000000000000000000000",
            "0x000000000000000000000000cda2fdb452ff4f5d7ba1c3d5dfcc9cb926a5eb7d",
            "0x0000000000000000000000000000000000000000000000000000000000000068"
          ],
          "data": "0x",
          "blockHash": "0x173cf039bf1247dc337008950af2969bb4a9c0ac2283af13131f47fdb45f356e",
          "blockNumber": "0x749869",
          "transactionHash": "0x9dfe74a7d7a5065e6e39f556137ae528abeeb3e496b187fd16b527e2775bf6fe",
          "transactionIndex": "0x2",
          "logIndex": "0x2",
          "removed": false
        },
        {
          "address": "0x2e8af9c5922623058aa92a183b391e62cb6b2d12",
          "topics": [
            "0xf8e1a15aba9398e019f0b49df1a4fde98ee17ae345cb5f6b5e2c27f5033e8ce7"
          ],
          "data": "0x0000000000000000000000000000000000000000000000000000000000000068",
          "blockHash": "0x173cf039bf1247dc337008950af2969bb4a9c0ac2283af13131f47fdb45f356e",
          "blockNumber": "0x749869",
          "transactionHash": "0x9dfe74a7d7a5065e6e39f556137ae528abeeb3e496b187fd16b527e2775bf6fe",
          "transactionIndex": "0x2",
          "logIndex": "0x3",
          "removed": false
        }
      ],
      "logsBloom": "0x00000000000000000000000000000000000000020000000000000000000000000000000000000000000000000000000000000000000000000000000000000000000000000000000000000008040000000000000000000000000000000000000000000000020000000000000000000800002000000000800000000011000000000000000000000000000000000000000000000000000000000000000000000000000000000000000000000000000000002000000000004000000000000020008000000002000000000000000000000000000000000000000000000000000020000000000000000000200000000000000000000000100000100000000000000000",
      "type": "0x2",
      "transactionHash": "0x9dfe74a7d7a5065e6e39f556137ae528abeeb3e496b187fd16b527e2775bf6fe",
      "transactionIndex": "0x2",
      "blockHash": "0x173cf039bf1247dc337008950af2969bb4a9c0ac2283af13131f47fdb45f356e",
      "blockNumber": "0x749869",
      "gasUsed": "0x2b1b6",
      "effectiveGasPrice": "0xfd",
      "from": "0xcda2fdb452ff4f5d7ba1c3d5dfcc9cb926a5eb7d",
      "to": "0x79dfbed14077b8f2421eece5707a17b161094e6a",
      "contractAddress": null,
      "l1BaseFeeScalar": "0x186a0",
      "l1BlobBaseFee": "0x1",
      "l1BlobBaseFeeScalar": "0x95506",
      "l1Fee": "0x10dfa3b2fdd",
      "l1GasPrice": "0x1aff6c519",
      "l1GasUsed": "0x640"
    },
    {
      "status": "0x1",
      "cumulativeGasUsed": "0x8c079",
      "logs": [
        {
          "address": "0x2e8af9c5922623058aa92a183b391e62cb6b2d12",
          "topics": [
            "0xddf252ad1be2c89b69c2b068fc378daa952ba7f163c4a11628f55a4df523b3ef",
            "0x0000000000000000000000000000000000000000000000000000000000000000",
            "0x000000000000000000000000cda2fdb452ff4f5d7ba1c3d5dfcc9cb926a5eb7d",
            "0x0000000000000000000000000000000000000000000000000000000000000069"
          ],
          "data": "0x",
          "blockHash": "0x173cf039bf1247dc337008950af2969bb4a9c0ac2283af13131f47fdb45f356e",
          "blockNumber": "0x749869",
          "transactionHash": "0xccb511d653a38a50e8088dfa894179a8759e26352b6df11b1427849359f24cd0",
          "transactionIndex": "0x3",
          "logIndex": "0x4",
          "removed": false
        },
        {
          "address": "0x2e8af9c5922623058aa92a183b391e62cb6b2d12",
          "topics": [
            "0xf8e1a15aba9398e019f0b49df1a4fde98ee17ae345cb5f6b5e2c27f5033e8ce7"
          ],
          "data": "0x0000000000000000000000000000000000000000000000000000000000000069",
          "blockHash": "0x173cf039bf1247dc337008950af2969bb4a9c0ac2283af13131f47fdb45f356e",
          "blockNumber": "0x749869",
          "transactionHash": "0xccb511d653a38a50e8088dfa894179a8759e26352b6df11b1427849359f24cd0",
          "transactionIndex": "0x3",
          "logIndex": "0x5",
          "removed": false
        }
      ],
      "logsBloom": "0x00000000000000000010000000000000000000020000000000000000000000000000000000000000000000000002000000000000000000000000000000000000000000000000000000000008040000000000000000000000000000000000000000000000020000000000000000000800002000000000800000000010000000000000000000000000000000000000000000000000000000000000000000000000000000000000000000000000000000002000000000004000000000000000008000000002000000000000000000000000000000000000000000000000000020000000000000000000200000000000000000000000100000000000400000000000",
      "type": "0x2",
      "transactionHash": "0xccb511d653a38a50e8088dfa894179a8759e26352b6df11b1427849359f24cd0",
      "transactionIndex": "0x3",
      "blockHash": "0x173cf039bf1247dc337008950af2969bb4a9c0ac2283af13131f47fdb45f356e",
      "blockNumber": "0x749869",
      "gasUsed": "0x2b1b6",
      "effectiveGasPrice": "0xfd",
      "from": "0xcda2fdb452ff4f5d7ba1c3d5dfcc9cb926a5eb7d",
      "to": "0x79dfbed14077b8f2421eece5707a17b161094e6a",
      "contractAddress": null,
      "l1BaseFeeScalar": "0x186a0",
      "l1BlobBaseFee": "0x1",
      "l1BlobBaseFeeScalar": "0x95506",
      "l1Fee": "0x10dfa3b2fdd",
      "l1GasPrice": "0x1aff6c519",
      "l1GasUsed": "0x640"
    },
    {
      "status": "0x1",
      "cumulativeGasUsed": "0xb722f",
      "logs": [
        {
          "address": "0x2e8af9c5922623058aa92a183b391e62cb6b2d12",
          "topics": [
            "0xddf252ad1be2c89b69c2b068fc378daa952ba7f163c4a11628f55a4df523b3ef",
            "0x0000000000000000000000000000000000000000000000000000000000000000",
            "0x000000000000000000000000cda2fdb452ff4f5d7ba1c3d5dfcc9cb926a5eb7d",
            "0x000000000000000000000000000000000000000000000000000000000000006a"
          ],
          "data": "0x",
          "blockHash": "0x173cf039bf1247dc337008950af2969bb4a9c0ac2283af13131f47fdb45f356e",
          "blockNumber": "0x749869",
          "transactionHash": "0x54efdb9cdd91b8bcc61e242bcb5f55ac09fae039349ac8ec0483a3630e6fd0f3",
          "transactionIndex": "0x4",
          "logIndex": "0x6",
          "removed": false
        },
        {
          "address": "0x2e8af9c5922623058aa92a183b391e62cb6b2d12",
          "topics": [
            "0xf8e1a15aba9398e019f0b49df1a4fde98ee17ae345cb5f6b5e2c27f5033e8ce7"
          ],
          "data": "0x000000000000000000000000000000000000000000000000000000000000006a",
          "blockHash": "0x173cf039bf1247dc337008950af2969bb4a9c0ac2283af13131f47fdb45f356e",
          "blockNumber": "0x749869",
          "transactionHash": "0x54efdb9cdd91b8bcc61e242bcb5f55ac09fae039349ac8ec0483a3630e6fd0f3",
          "transactionIndex": "0x4",
          "logIndex": "0x7",
          "removed": false
        }
      ],
      "logsBloom": "0x00000000000000000000000000000000000000020000000000000000000000000000000000000000000000000000000000000000000000000000000000000000000000000000000000400008040000000000000000000000000000000000000000000000020000000000000000000800002000000000800000000010000000000000000000000000000000000000000000000000000000000000000000000000000000000000000000000000000000002000000000004000000000000008008000000002000000000000000000000000000080000000000000000000000020000000000000000000200000000000000000000000100000000000000000000000",
      "type": "0x2",
      "transactionHash": "0x54efdb9cdd91b8bcc61e242bcb5f55ac09fae039349ac8ec0483a3630e6fd0f3",
      "transactionIndex": "0x4",
      "blockHash": "0x173cf039bf1247dc337008950af2969bb4a9c0ac2283af13131f47fdb45f356e",
      "blockNumber": "0x749869",
      "gasUsed": "0x2b1b6",
      "effectiveGasPrice": "0xfd",
      "from": "0xcda2fdb452ff4f5d7ba1c3d5dfcc9cb926a5eb7d",
      "to": "0x79dfbed14077b8f2421eece5707a17b161094e6a",
      "contractAddress": null,
      "l1BaseFeeScalar": "0x186a0",
      "l1BlobBaseFee": "0x1",
      "l1BlobBaseFeeScalar": "0x95506",
      "l1Fee": "0x10dfa3b2fdd",
      "l1GasPrice": "0x1aff6c519",
      "l1GasUsed": "0x640"
    },
    {
      "status": "0x1",
      "cumulativeGasUsed": "0xe23e5",
      "logs": [
        {
          "address": "0x2e8af9c5922623058aa92a183b391e62cb6b2d12",
          "topics": [
            "0xddf252ad1be2c89b69c2b068fc378daa952ba7f163c4a11628f55a4df523b3ef",
            "0x0000000000000000000000000000000000000000000000000000000000000000",
            "0x000000000000000000000000cda2fdb452ff4f5d7ba1c3d5dfcc9cb926a5eb7d",
            "0x000000000000000000000000000000000000000000000000000000000000006b"
          ],
          "data": "0x",
          "blockHash": "0x173cf039bf1247dc337008950af2969bb4a9c0ac2283af13131f47fdb45f356e",
          "blockNumber": "0x749869",
          "transactionHash": "0xb073965a4cffd6a84f1af009c1d96e433eb0d4eec5455d68b791945447810247",
          "transactionIndex": "0x5",
          "logIndex": "0x8",
          "removed": false
        },
        {
          "address": "0x2e8af9c5922623058aa92a183b391e62cb6b2d12",
          "topics": [
            "0xf8e1a15aba9398e019f0b49df1a4fde98ee17ae345cb5f6b5e2c27f5033e8ce7"
          ],
          "data": "0x000000000000000000000000000000000000000000000000000000000000006b",
          "blockHash": "0x173cf039bf1247dc337008950af2969bb4a9c0ac2283af13131f47fdb45f356e",
          "blockNumber": "0x749869",
          "transactionHash": "0xb073965a4cffd6a84f1af009c1d96e433eb0d4eec5455d68b791945447810247",
          "transactionIndex": "0x5",
          "logIndex": "0x9",
          "removed": false
        }
      ],
      "logsBloom": "0x00000000000000000000000000000000000000020000000000000000000000000000000000000000000000000000100000000000000000000000000000000000000000000000000000000008040000000000000000000008000000000000000000000000020000000000000000000800002000000000800000000010000000000000000000000000000000000000400000000000000000000000000000000000000000000000000000000000000000002000000000004000000000000000008000000002000000000000000000000000000000000000000000000000000020000000000000000000200000000000000000000000100000000000000000000000",
      "type": "0x2",
      "transactionHash": "0xb073965a4cffd6a84f1af009c1d96e433eb0d4eec5455d68b791945447810247",
      "transactionIndex": "0x5",
      "blockHash": "0x173cf039bf1247dc337008950af2969bb4a9c0ac2283af13131f47fdb45f356e",
      "blockNumber": "0x749869",
      "gasUsed": "0x2b1b6",
      "effectiveGasPrice": "0xfd",
      "from": "0xcda2fdb452ff4f5d7ba1c3d5dfcc9cb926a5eb7d",
      "to": "0x79dfbed14077b8f2421eece5707a17b161094e6a",
      "contractAddress": null,
      "l1BaseFeeScalar": "0x186a0",
      "l1BlobBaseFee": "0x1",
      "l1BlobBaseFeeScalar": "0x95506",
      "l1Fee": "0x10dfa3b2fdd",
      "l1GasPrice": "0x1aff6c519",
      "l1GasUsed": "0x640"
    },
    {
      "status": "0x1",
      "cumulativeGasUsed": "0x10d59b",
      "logs": [
        {
          "address": "0x2e8af9c5922623058aa92a183b391e62cb6b2d12",
          "topics": [
            "0xddf252ad1be2c89b69c2b068fc378daa952ba7f163c4a11628f55a4df523b3ef",
            "0x0000000000000000000000000000000000000000000000000000000000000000",
            "0x000000000000000000000000cda2fdb452ff4f5d7ba1c3d5dfcc9cb926a5eb7d",
            "0x000000000000000000000000000000000000000000000000000000000000006c"
          ],
          "data": "0x",
          "blockHash": "0x173cf039bf1247dc337008950af2969bb4a9c0ac2283af13131f47fdb45f356e",
          "blockNumber": "0x749869",
          "transactionHash": "0x36bde5ac56dc1511b3c105d3ddfa1e4a6d379978dd657c82483e6d34f3e649a9",
          "transactionIndex": "0x6",
          "logIndex": "0xa",
          "removed": false
        },
        {
          "address": "0x2e8af9c5922623058aa92a183b391e62cb6b2d12",
          "topics": [
            "0xf8e1a15aba9398e019f0b49df1a4fde98ee17ae345cb5f6b5e2c27f5033e8ce7"
          ],
          "data": "0x000000000000000000000000000000000000000000000000000000000000006c",
          "blockHash": "0x173cf039bf1247dc337008950af2969bb4a9c0ac2283af13131f47fdb45f356e",
          "blockNumber": "0x749869",
          "transactionHash": "0x36bde5ac56dc1511b3c105d3ddfa1e4a6d379978dd657c82483e6d34f3e649a9",
          "transactionIndex": "0x6",
          "logIndex": "0xb",
          "removed": false
        }
      ],
      "logsBloom": "0x00000000000000000000000000000000000000020000000000000000000000000000000000000000000000000000000000000000000000000000000000000000000000000000000000000008040000000000000000000000000000000000000000000000020000000000000000000800002000000000800000000010000000000000000000000000000000000000000000000000000004000000000000000000000000000000000000000000000000002000000000004000000000000000008000000002000000000000080000000000000000000000000000000000000020000000000000000000200000000000000000000000900000000000000000000000",
      "type": "0x2",
      "transactionHash": "0x36bde5ac56dc1511b3c105d3ddfa1e4a6d379978dd657c82483e6d34f3e649a9",
      "transactionIndex": "0x6",
      "blockHash": "0x173cf039bf1247dc337008950af2969bb4a9c0ac2283af13131f47fdb45f356e",
      "blockNumber": "0x749869",
      "gasUsed": "0x2b1b6",
      "effectiveGasPrice": "0xfd",
      "from": "0xcda2fdb452ff4f5d7ba1c3d5dfcc9cb926a5eb7d",
      "to": "0x79dfbed14077b8f2421eece5707a17b161094e6a",
      "contractAddress": null,
      "l1BaseFeeScalar": "0x186a0",
      "l1BlobBaseFee": "0x1",
      "l1BlobBaseFeeScalar": "0x95506",
      "l1Fee": "0x10dfa3b2fdd",
      "l1GasPrice": "0x1aff6c519",
      "l1GasUsed": "0x640"
    },
    {
      "status": "0x1",
      "cumulativeGasUsed": "0x138751",
      "logs": [
        {
          "address": "0x2e8af9c5922623058aa92a183b391e62cb6b2d12",
          "topics": [
            "0xddf252ad1be2c89b69c2b068fc378daa952ba7f163c4a11628f55a4df523b3ef",
            "0x0000000000000000000000000000000000000000000000000000000000000000",
            "0x000000000000000000000000cda2fdb452ff4f5d7ba1c3d5dfcc9cb926a5eb7d",
            "0x000000000000000000000000000000000000000000000000000000000000006d"
          ],
          "data": "0x",
          "blockHash": "0x173cf039bf1247dc337008950af2969bb4a9c0ac2283af13131f47fdb45f356e",
          "blockNumber": "0x749869",
          "transactionHash": "0x3ffbd9c47b92797a58b7b15ee90c6c7905acdc280438b2b6f43ae8c0c8b05573",
          "transactionIndex": "0x7",
          "logIndex": "0xc",
          "removed": false
        },
        {
          "address": "0x2e8af9c5922623058aa92a183b391e62cb6b2d12",
          "topics": [
            "0xf8e1a15aba9398e019f0b49df1a4fde98ee17ae345cb5f6b5e2c27f5033e8ce7"
          ],
          "data": "0x000000000000000000000000000000000000000000000000000000000000006d",
          "blockHash": "0x173cf039bf1247dc337008950af2969bb4a9c0ac2283af13131f47fdb45f356e",
          "blockNumber": "0x749869",
          "transactionHash": "0x3ffbd9c47b92797a58b7b15ee90c6c7905acdc280438b2b6f43ae8c0c8b05573",
          "transactionIndex": "0x7",
          "logIndex": "0xd",
          "removed": false
        }
      ],
      "logsBloom": "0x00000000000000000000000000000000000000020000000000000000000000000000000000000000000000000000000000000000000000000000000000000000000000000000000000000008040000000000000000000000000000000000000000000000020000000000000000000800002000000000800000000010000000000000000000000000000000000000000000000000000000000000000000000000000000000000000000000000000000002000000000004000000000000000008000000002000000000000000000000000000000000000000000000000000020000000000000000000200000000000000010000000100000000100000000000040",
      "type": "0x2",
      "transactionHash": "0x3ffbd9c47b92797a58b7b15ee90c6c7905acdc280438b2b6f43ae8c0c8b05573",
      "transactionIndex": "0x7",
      "blockHash": "0x173cf039bf1247dc337008950af2969bb4a9c0ac2283af13131f47fdb45f356e",
      "blockNumber": "0x749869",
      "gasUsed": "0x2b1b6",
      "effectiveGasPrice": "0xfd",
      "from": "0xcda2fdb452ff4f5d7ba1c3d5dfcc9cb926a5eb7d",
      "to": "0x79dfbed14077b8f2421eece5707a17b161094e6a",
      "contractAddress": null,
      "l1BaseFeeScalar": "0x186a0",
      "l1BlobBaseFee": "0x1",
      "l1BlobBaseFeeScalar": "0x95506",
      "l1Fee": "0x10dfa3b2fdd",
      "l1GasPrice": "0x1aff6c519",
      "l1GasUsed": "0x640"
    },
    {
      "status": "0x1",
      "cumulativeGasUsed": "0x163907",
      "logs": [
        {
          "address": "0x2e8af9c5922623058aa92a183b391e62cb6b2d12",
          "topics": [
            "0xddf252ad1be2c89b69c2b068fc378daa952ba7f163c4a11628f55a4df523b3ef",
            "0x0000000000000000000000000000000000000000000000000000000000000000",
            "0x000000000000000000000000cda2fdb452ff4f5d7ba1c3d5dfcc9cb926a5eb7d",
            "0x000000000000000000000000000000000000000000000000000000000000006e"
          ],
          "data": "0x",
          "blockHash": "0x173cf039bf1247dc337008950af2969bb4a9c0ac2283af13131f47fdb45f356e",
          "blockNumber": "0x749869",
          "transactionHash": "0x3aad046dd037496a27f93b84d614918237a82fff94d4a108a4e932f55a0aec3a",
          "transactionIndex": "0x8",
          "logIndex": "0xe",
          "removed": false
        },
        {
          "address": "0x2e8af9c5922623058aa92a183b391e62cb6b2d12",
          "topics": [
            "0xf8e1a15aba9398e019f0b49df1a4fde98ee17ae345cb5f6b5e2c27f5033e8ce7"
          ],
          "data": "0x000000000000000000000000000000000000000000000000000000000000006e",
          "blockHash": "0x173cf039bf1247dc337008950af2969bb4a9c0ac2283af13131f47fdb45f356e",
          "blockNumber": "0x749869",
          "transactionHash": "0x3aad046dd037496a27f93b84d614918237a82fff94d4a108a4e932f55a0aec3a",
          "transactionIndex": "0x8",
          "logIndex": "0xf",
          "removed": false
        }
      ],
      "logsBloom": "0x00000000000000000000000000000000000000020000000000000000000000000000000000000000000000000000000000000000000000000000000000000000000040000000000000000008040000000000000000000000000000000000000000000000020000000000000000000800002000000000800000000010000000000000000000000000000000000000000000000000000000000000000000000000000000000000000000000000000000002000000000004000000000000000008080000002000000000000000000000000000000000000000000010000000020000000000000000000200000000000000000000000100000000000000000000000",
      "type": "0x2",
      "transactionHash": "0x3aad046dd037496a27f93b84d614918237a82fff94d4a108a4e932f55a0aec3a",
      "transactionIndex": "0x8",
      "blockHash": "0x173cf039bf1247dc337008950af2969bb4a9c0ac2283af13131f47fdb45f356e",
      "blockNumber": "0x749869",
      "gasUsed": "0x2b1b6",
      "effectiveGasPrice": "0xfd",
      "from": "0xcda2fdb452ff4f5d7ba1c3d5dfcc9cb926a5eb7d",
      "to": "0x79dfbed14077b8f2421eece5707a17b161094e6a",
      "contractAddress": null,
      "l1BaseFeeScalar": "0x186a0",
      "l1BlobBaseFee": "0x1",
      "l1BlobBaseFeeScalar": "0x95506",
      "l1Fee": "0x10dfa3b2fdd",
      "l1GasPrice": "0x1aff6c519",
      "l1GasUsed": "0x640"
    },
    {
      "status": "0x1",
      "cumulativeGasUsed": "0x18eabd",
      "logs": [
        {
          "address": "0x2e8af9c5922623058aa92a183b391e62cb6b2d12",
          "topics": [
            "0xddf252ad1be2c89b69c2b068fc378daa952ba7f163c4a11628f55a4df523b3ef",
            "0x0000000000000000000000000000000000000000000000000000000000000000",
            "0x000000000000000000000000cda2fdb452ff4f5d7ba1c3d5dfcc9cb926a5eb7d",
            "0x000000000000000000000000000000000000000000000000000000000000006f"
          ],
          "data": "0x",
          "blockHash": "0x173cf039bf1247dc337008950af2969bb4a9c0ac2283af13131f47fdb45f356e",
          "blockNumber": "0x749869",
          "transactionHash": "0xd577d66b73d4045b4dcfa83c51446abc51cec03570f457d0426f4a3de1e438f8",
          "transactionIndex": "0x9",
          "logIndex": "0x10",
          "removed": false
        },
        {
          "address": "0x2e8af9c5922623058aa92a183b391e62cb6b2d12",
          "topics": [
            "0xf8e1a15aba9398e019f0b49df1a4fde98ee17ae345cb5f6b5e2c27f5033e8ce7"
          ],
          "data": "0x000000000000000000000000000000000000000000000000000000000000006f",
          "blockHash": "0x173cf039bf1247dc337008950af2969bb4a9c0ac2283af13131f47fdb45f356e",
          "blockNumber": "0x749869",
          "transactionHash": "0xd577d66b73d4045b4dcfa83c51446abc51cec03570f457d0426f4a3de1e438f8",
          "transactionIndex": "0x9",
          "logIndex": "0x11",
          "removed": false
        }
      ],
      "logsBloom": "0x00000000000000000000000000000000000000020000000000000000000000000000000000000000000000000000000000000000000000000000000000000000000000000000000000000008040000000000000000000000000000000000000000000000020000000000000000000800002000000000800000000010000000000000000000000000000000000000000000000000000000000000000000000000000000000000000040000000000000002000000100004000000000000000008000040002000000000000000000000000000000000000000000000000000020000000000000000000200000000000000000000000100000000000000000000000",
      "type": "0x2",
      "transactionHash": "0xd577d66b73d4045b4dcfa83c51446abc51cec03570f457d0426f4a3de1e438f8",
      "transactionIndex": "0x9",
      "blockHash": "0x173cf039bf1247dc337008950af2969bb4a9c0ac2283af13131f47fdb45f356e",
      "blockNumber": "0x749869",
      "gasUsed": "0x2b1b6",
      "effectiveGasPrice": "0xfd",
      "from": "0xcda2fdb452ff4f5d7ba1c3d5dfcc9cb926a5eb7d",
      "to": "0x79dfbed14077b8f2421eece5707a17b161094e6a",
      "contractAddress": null,
      "l1BaseFeeScalar": "0x186a0",
      "l1BlobBaseFee": "0x1",
      "l1BlobBaseFeeScalar": "0x95506",
      "l1Fee": "0x10dfa3b2fdd",
      "l1GasPrice": "0x1aff6c519",
      "l1GasUsed": "0x640"
    },
    {
      "status": "0x1",
      "cumulativeGasUsed": "0x1b9c73",
      "logs": [
        {
          "address": "0x2e8af9c5922623058aa92a183b391e62cb6b2d12",
          "topics": [
            "0xddf252ad1be2c89b69c2b068fc378daa952ba7f163c4a11628f55a4df523b3ef",
            "0x0000000000000000000000000000000000000000000000000000000000000000",
            "0x000000000000000000000000cda2fdb452ff4f5d7ba1c3d5dfcc9cb926a5eb7d",
            "0x0000000000000000000000000000000000000000000000000000000000000070"
          ],
          "data": "0x",
          "blockHash": "0x173cf039bf1247dc337008950af2969bb4a9c0ac2283af13131f47fdb45f356e",
          "blockNumber": "0x749869",
          "transactionHash": "0x739e40710040bf9f55af207197395c2cece9eacd5372c623a36672e559cba367",
          "transactionIndex": "0xa",
          "logIndex": "0x12",
          "removed": false
        },
        {
          "address": "0x2e8af9c5922623058aa92a183b391e62cb6b2d12",
          "topics": [
            "0xf8e1a15aba9398e019f0b49df1a4fde98ee17ae345cb5f6b5e2c27f5033e8ce7"
          ],
          "data": "0x0000000000000000000000000000000000000000000000000000000000000070",
          "blockHash": "0x173cf039bf1247dc337008950af2969bb4a9c0ac2283af13131f47fdb45f356e",
          "blockNumber": "0x749869",
          "transactionHash": "0x739e40710040bf9f55af207197395c2cece9eacd5372c623a36672e559cba367",
          "transactionIndex": "0xa",
          "logIndex": "0x13",
          "removed": false
        }
      ],
      "logsBloom": "0x00000000000000000000000000000000000008020000000000000000000000000000000000000000000000000000000000000000000000000000000000000000000000000000000000000008040000000000000000000000000000000000000000000000020000000000000000000800002000000000800000000010000000008000000000000000000000000000000000000000000000000000000000000000000000000000000000000000000000002000000000004000000000000000008000000002000000000000000000000000000000008000000000000000000020000000000000000000200000000000000000000000100000000000000000000000",
      "type": "0x2",
      "transactionHash": "0x739e40710040bf9f55af207197395c2cece9eacd5372c623a36672e559cba367",
      "transactionIndex": "0xa",
      "blockHash": "0x173cf039bf1247dc337008950af2969bb4a9c0ac2283af13131f47fdb45f356e",
      "blockNumber": "0x749869",
      "gasUsed": "0x2b1b6",
      "effectiveGasPrice": "0xfd",
      "from": "0xcda2fdb452ff4f5d7ba1c3d5dfcc9cb926a5eb7d",
      "to": "0x79dfbed14077b8f2421eece5707a17b161094e6a",
      "contractAddress": null,
      "l1BaseFeeScalar": "0x186a0",
      "l1BlobBaseFee": "0x1",
      "l1BlobBaseFeeScalar": "0x95506",
      "l1Fee": "0x10dfa3b2fdd",
      "l1GasPrice": "0x1aff6c519",
      "l1GasUsed": "0x640"
    },
    {
      "status": "0x1",
      "cumulativeGasUsed": "0x1e4e29",
      "logs": [
        {
          "address": "0x2e8af9c5922623058aa92a183b391e62cb6b2d12",
          "topics": [
            "0xddf252ad1be2c89b69c2b068fc378daa952ba7f163c4a11628f55a4df523b3ef",
            "0x0000000000000000000000000000000000000000000000000000000000000000",
            "0x000000000000000000000000cda2fdb452ff4f5d7ba1c3d5dfcc9cb926a5eb7d",
            "0x0000000000000000000000000000000000000000000000000000000000000071"
          ],
          "data": "0x",
          "blockHash": "0x173cf039bf1247dc337008950af2969bb4a9c0ac2283af13131f47fdb45f356e",
          "blockNumber": "0x749869",
          "transactionHash": "0x42a207e2204a5962dd75576c7b4e3e008ece92dde4d085e30c9d593a6e7c0821",
          "transactionIndex": "0xb",
          "logIndex": "0x14",
          "removed": false
        },
        {
          "address": "0x2e8af9c5922623058aa92a183b391e62cb6b2d12",
          "topics": [
            "0xf8e1a15aba9398e019f0b49df1a4fde98ee17ae345cb5f6b5e2c27f5033e8ce7"
          ],
          "data": "0x0000000000000000000000000000000000000000000000000000000000000071",
          "blockHash": "0x173cf039bf1247dc337008950af2969bb4a9c0ac2283af13131f47fdb45f356e",
          "blockNumber": "0x749869",
          "transactionHash": "0x42a207e2204a5962dd75576c7b4e3e008ece92dde4d085e30c9d593a6e7c0821",
          "transactionIndex": "0xb",
          "logIndex": "0x15",
          "removed": false
        }
      ],
      "logsBloom": "0x00000000000000000000000000000000000000020000000000000000000000000000000000000000000000000000100000000000000000000000000000000000000000000000000000000008040000000000000000000000000000000000000000000000020000000000000000000800002000000000800000000010000000000000000000000000000000000000000000000000000000000000000000000000000000000000000000000000000000002000000000004000000000000000008010000002000000000000000008000000000000000000000000000000000020000000000000000000200000000000000000000000100000000000000000000000",
      "type": "0x2",
      "transactionHash": "0x42a207e2204a5962dd75576c7b4e3e008ece92dde4d085e30c9d593a6e7c0821",
      "transactionIndex": "0xb",
      "blockHash": "0x173cf039bf1247dc337008950af2969bb4a9c0ac2283af13131f47fdb45f356e",
      "blockNumber": "0x749869",
      "gasUsed": "0x2b1b6",
      "effectiveGasPrice": "0xfd",
      "from": "0xcda2fdb452ff4f5d7ba1c3d5dfcc9cb926a5eb7d",
      "to": "0x79dfbed14077b8f2421eece5707a17b161094e6a",
      "contractAddress": null,
      "l1BaseFeeScalar": "0x186a0",
      "l1BlobBaseFee": "0x1",
      "l1BlobBaseFeeScalar": "0x95506",
      "l1Fee": "0x10dfa3b2fdd",
      "l1GasPrice": "0x1aff6c519",
      "l1GasUsed": "0x640"
    },
    {
      "status": "0x1",
      "cumulativeGasUsed": "0x20ffdf",
      "logs": [
        {
          "address": "0x2e8af9c5922623058aa92a183b391e62cb6b2d12",
          "topics": [
            "0xddf252ad1be2c89b69c2b068fc378daa952ba7f163c4a11628f55a4df523b3ef",
            "0x0000000000000000000000000000000000000000000000000000000000000000",
            "0x000000000000000000000000cda2fdb452ff4f5d7ba1c3d5dfcc9cb926a5eb7d",
            "0x0000000000000000000000000000000000000000000000000000000000000072"
          ],
          "data": "0x",
          "blockHash": "0x173cf039bf1247dc337008950af2969bb4a9c0ac2283af13131f47fdb45f356e",
          "blockNumber": "0x749869",
          "transactionHash": "0xc46e25726a541bae877047f10d9f14f8d2e9b6eeb590c6fe18466debe51408ed",
          "transactionIndex": "0xc",
          "logIndex": "0x16",
          "removed": false
        },
        {
          "address": "0x2e8af9c5922623058aa92a183b391e62cb6b2d12",
          "topics": [
            "0xf8e1a15aba9398e019f0b49df1a4fde98ee17ae345cb5f6b5e2c27f5033e8ce7"
          ],
          "data": "0x0000000000000000000000000000000000000000000000000000000000000072",
          "blockHash": "0x173cf039bf1247dc337008950af2969bb4a9c0ac2283af13131f47fdb45f356e",
          "blockNumber": "0x749869",
          "transactionHash": "0xc46e25726a541bae877047f10d9f14f8d2e9b6eeb590c6fe18466debe51408ed",
          "transactionIndex": "0xc",
          "logIndex": "0x17",
          "removed": false
        }
      ],
      "logsBloom": "0x08000000000000020000000000000000000000020000000000000000000000000000000000000000000000000000000000000000000010000000000000000000000000000000000000000008040000000000000000000000000000000000000000000000020000000000000000000800002000000000800000000010000000000000000000000000000000000000000000000000000000000000000000000000000000000000000000000000000000002000000000004000000000000000008000000002000000000000000000000000000000000000000000000000000020000000000000000000200000000000000000000000100000000000000000000000",
      "type": "0x2",
      "transactionHash": "0xc46e25726a541bae877047f10d9f14f8d2e9b6eeb590c6fe18466debe51408ed",
      "transactionIndex": "0xc",
      "blockHash": "0x173cf039bf1247dc337008950af2969bb4a9c0ac2283af13131f47fdb45f356e",
      "blockNumber": "0x749869",
      "gasUsed": "0x2b1b6",
      "effectiveGasPrice": "0xfd",
      "from": "0xcda2fdb452ff4f5d7ba1c3d5dfcc9cb926a5eb7d",
      "to": "0x79dfbed14077b8f2421eece5707a17b161094e6a",
      "contractAddress": null,
      "l1BaseFeeScalar": "0x186a0",
      "l1BlobBaseFee": "0x1",
      "l1BlobBaseFeeScalar": "0x95506",
      "l1Fee": "0x10dfa3b2fdd",
      "l1GasPrice": "0x1aff6c519",
      "l1GasUsed": "0x640"
    },
    {
      "status": "0x1",
      "cumulativeGasUsed": "0x23b195",
      "logs": [
        {
          "address": "0x2e8af9c5922623058aa92a183b391e62cb6b2d12",
          "topics": [
            "0xddf252ad1be2c89b69c2b068fc378daa952ba7f163c4a11628f55a4df523b3ef",
            "0x0000000000000000000000000000000000000000000000000000000000000000",
            "0x000000000000000000000000cda2fdb452ff4f5d7ba1c3d5dfcc9cb926a5eb7d",
            "0x0000000000000000000000000000000000000000000000000000000000000073"
          ],
          "data": "0x",
          "blockHash": "0x173cf039bf1247dc337008950af2969bb4a9c0ac2283af13131f47fdb45f356e",
          "blockNumber": "0x749869",
          "transactionHash": "0x82f8e36804a46548ead64ac2f45391cb963be219c6242706c79a52e047b78f9a",
          "transactionIndex": "0xd",
          "logIndex": "0x18",
          "removed": false
        },
        {
          "address": "0x2e8af9c5922623058aa92a183b391e62cb6b2d12",
          "topics": [
            "0xf8e1a15aba9398e019f0b49df1a4fde98ee17ae345cb5f6b5e2c27f5033e8ce7"
          ],
          "data": "0x0000000000000000000000000000000000000000000000000000000000000073",
          "blockHash": "0x173cf039bf1247dc337008950af2969bb4a9c0ac2283af13131f47fdb45f356e",
          "blockNumber": "0x749869",
          "transactionHash": "0x82f8e36804a46548ead64ac2f45391cb963be219c6242706c79a52e047b78f9a",
          "transactionIndex": "0xd",
          "logIndex": "0x19",
          "removed": false
        }
      ],
      "logsBloom": "0x00000000000000000000000008000000000000020000000000000000000000000000000000000000000000002000000000000000000000000000000000000000000000000000000000000008040000000000000000000000000000000080000000000000020000000000000000000800002000000000800000000010000000000000000000000000000000000000000000000000000000000000000000000000000000000000000000000000000000002000000000004000000000000000008000000002000000000000000000000000000000000000000000000000000020000000000000000000200000000000000000000000100000000000000000000000",
      "type": "0x2",
      "transactionHash": "0x82f8e36804a46548ead64ac2f45391cb963be219c6242706c79a52e047b78f9a",
      "transactionIndex": "0xd",
      "blockHash": "0x173cf039bf1247dc337008950af2969bb4a9c0ac2283af13131f47fdb45f356e",
      "blockNumber": "0x749869",
      "gasUsed": "0x2b1b6",
      "effectiveGasPrice": "0xfd",
      "from": "0xcda2fdb452ff4f5d7ba1c3d5dfcc9cb926a5eb7d",
      "to": "0x79dfbed14077b8f2421eece5707a17b161094e6a",
      "contractAddress": null,
      "l1BaseFeeScalar": "0x186a0",
      "l1BlobBaseFee": "0x1",
      "l1BlobBaseFeeScalar": "0x95506",
      "l1Fee": "0x10dfa3b2fdd",
      "l1GasPrice": "0x1aff6c519",
      "l1GasUsed": "0x640"
    },
    {
      "status": "0x1",
      "cumulativeGasUsed": "0x26634b",
      "logs": [
        {
          "address": "0x2e8af9c5922623058aa92a183b391e62cb6b2d12",
          "topics": [
            "0xddf252ad1be2c89b69c2b068fc378daa952ba7f163c4a11628f55a4df523b3ef",
            "0x0000000000000000000000000000000000000000000000000000000000000000",
            "0x000000000000000000000000cda2fdb452ff4f5d7ba1c3d5dfcc9cb926a5eb7d",
            "0x0000000000000000000000000000000000000000000000000000000000000074"
          ],
          "data": "0x",
          "blockHash": "0x173cf039bf1247dc337008950af2969bb4a9c0ac2283af13131f47fdb45f356e",
          "blockNumber": "0x749869",
          "transactionHash": "0x12d928d2abadc5f289a84c8b35a2776bc3df6022c720c010f3553650a873ad35",
          "transactionIndex": "0xe",
          "logIndex": "0x1a",
          "removed": false
        },
        {
          "address": "0x2e8af9c5922623058aa92a183b391e62cb6b2d12",
          "topics": [
            "0xf8e1a15aba9398e019f0b49df1a4fde98ee17ae345cb5f6b5e2c27f5033e8ce7"
          ],
          "data": "0x0000000000000000000000000000000000000000000000000000000000000074",
          "blockHash": "0x173cf039bf1247dc337008950af2969bb4a9c0ac2283af13131f47fdb45f356e",
          "blockNumber": "0x749869",
          "transactionHash": "0x12d928d2abadc5f289a84c8b35a2776bc3df6022c720c010f3553650a873ad35",
          "transactionIndex": "0xe",
          "logIndex": "0x1b",
          "removed": false
        }
      ],
      "logsBloom": "0x00000000000000000000000000000000000000020000000000000000000000000000000000000000000000000000000000000000000000000000000000000000000000000000000000000008040000000000000000000000000000000000000000000000020000000000000000000800002000000000800000000010000000000000000000000000000000000400000000000000000000000000000000000000000000000000000000000000000000002000000004004000000000000000008000000002000000000000000100000000000000000000000000000000000020000000000000000000200000000000000000000000100000000000000000000000",
      "type": "0x2",
      "transactionHash": "0x12d928d2abadc5f289a84c8b35a2776bc3df6022c720c010f3553650a873ad35",
      "transactionIndex": "0xe",
      "blockHash": "0x173cf039bf1247dc337008950af2969bb4a9c0ac2283af13131f47fdb45f356e",
      "blockNumber": "0x749869",
      "gasUsed": "0x2b1b6",
      "effectiveGasPrice": "0xfd",
      "from": "0xcda2fdb452ff4f5d7ba1c3d5dfcc9cb926a5eb7d",
      "to": "0x79dfbed14077b8f2421eece5707a17b161094e6a",
      "contractAddress": null,
      "l1BaseFeeScalar": "0x186a0",
      "l1BlobBaseFee": "0x1",
      "l1BlobBaseFeeScalar": "0x95506",
      "l1Fee": "0x10dfa3b2fdd",
      "l1GasPrice": "0x1aff6c519",
      "l1GasUsed": "0x640"
    },
    {
      "status": "0x1",
      "cumulativeGasUsed": "0x291501",
      "logs": [
        {
          "address": "0x2e8af9c5922623058aa92a183b391e62cb6b2d12",
          "topics": [
            "0xddf252ad1be2c89b69c2b068fc378daa952ba7f163c4a11628f55a4df523b3ef",
            "0x0000000000000000000000000000000000000000000000000000000000000000",
            "0x000000000000000000000000cda2fdb452ff4f5d7ba1c3d5dfcc9cb926a5eb7d",
            "0x0000000000000000000000000000000000000000000000000000000000000075"
          ],
          "data": "0x",
          "blockHash": "0x173cf039bf1247dc337008950af2969bb4a9c0ac2283af13131f47fdb45f356e",
          "blockNumber": "0x749869",
          "transactionHash": "0xd0aadf30e5a4eac7310c57e8a5849c84e44823d51d9a46d6901d5768ac008fda",
          "transactionIndex": "0xf",
          "logIndex": "0x1c",
          "removed": false
        },
        {
          "address": "0x2e8af9c5922623058aa92a183b391e62cb6b2d12",
          "topics": [
            "0xf8e1a15aba9398e019f0b49df1a4fde98ee17ae345cb5f6b5e2c27f5033e8ce7"
          ],
          "data": "0x0000000000000000000000000000000000000000000000000000000000000075",
          "blockHash": "0x173cf039bf1247dc337008950af2969bb4a9c0ac2283af13131f47fdb45f356e",
          "blockNumber": "0x749869",
          "transactionHash": "0xd0aadf30e5a4eac7310c57e8a5849c84e44823d51d9a46d6901d5768ac008fda",
          "transactionIndex": "0xf",
          "logIndex": "0x1d",
          "removed": false
        }
      ],
      "logsBloom": "0x00000000000000000000000000000000000000020000000000000000000000000000000000000000000000000000000000000000000000000000000000000000000000000000000000000008040000000000000000000000000000000000000000000000020000000000000000000800002000000000800000000010000000000000000000000000000000000100000000000000000000000000000000000000000000000000000000000000000020002800000000004000000000000000008000000002000000000000000000000000000000000000000000000000000020000000000000000000200000000000000000000000100000000000000000000000",
      "type": "0x2",
      "transactionHash": "0xd0aadf30e5a4eac7310c57e8a5849c84e44823d51d9a46d6901d5768ac008fda",
      "transactionIndex": "0xf",
      "blockHash": "0x173cf039bf1247dc337008950af2969bb4a9c0ac2283af13131f47fdb45f356e",
      "blockNumber": "0x749869",
      "gasUsed": "0x2b1b6",
      "effectiveGasPrice": "0xfd",
      "from": "0xcda2fdb452ff4f5d7ba1c3d5dfcc9cb926a5eb7d",
      "to": "0x79dfbed14077b8f2421eece5707a17b161094e6a",
      "contractAddress": null,
      "l1BaseFeeScalar": "0x186a0",
      "l1BlobBaseFee": "0x1",
      "l1BlobBaseFeeScalar": "0x95506",
      "l1Fee": "0x10dfa3b2fdd",
      "l1GasPrice": "0x1aff6c519",
      "l1GasUsed": "0x640"
    },
    {
      "status": "0x1",
      "cumulativeGasUsed": "0x2bc6b7",
      "logs": [
        {
          "address": "0x2e8af9c5922623058aa92a183b391e62cb6b2d12",
          "topics": [
            "0xddf252ad1be2c89b69c2b068fc378daa952ba7f163c4a11628f55a4df523b3ef",
            "0x0000000000000000000000000000000000000000000000000000000000000000",
            "0x000000000000000000000000cda2fdb452ff4f5d7ba1c3d5dfcc9cb926a5eb7d",
            "0x0000000000000000000000000000000000000000000000000000000000000076"
          ],
          "data": "0x",
          "blockHash": "0x173cf039bf1247dc337008950af2969bb4a9c0ac2283af13131f47fdb45f356e",
          "blockNumber": "0x749869",
          "transactionHash": "0xdc32546cf8654ee90cec055d345ce7ff7f163661f632990b07f1441765cacb90",
          "transactionIndex": "0x10",
          "logIndex": "0x1e",
          "removed": false
        },
        {
          "address": "0x2e8af9c5922623058aa92a183b391e62cb6b2d12",
          "topics": [
            "0xf8e1a15aba9398e019f0b49df1a4fde98ee17ae345cb5f6b5e2c27f5033e8ce7"
          ],
          "data": "0x0000000000000000000000000000000000000000000000000000000000000076",
          "blockHash": "0x173cf039bf1247dc337008950af2969bb4a9c0ac2283af13131f47fdb45f356e",
          "blockNumber": "0x749869",
          "transactionHash": "0xdc32546cf8654ee90cec055d345ce7ff7f163661f632990b07f1441765cacb90",
          "transactionIndex": "0x10",
          "logIndex": "0x1f",
          "removed": false
        }
      ],
      "logsBloom": "0x00000000000000000000000000000000000000020000000000000000000000200000000000000000000000000000000000000000000000000000000000000000000000000000000000000008040000000008000000000000000000100000000000000000020000000000000000000800002000000000800000000010000000000000000000000000000000000000000000000000000000000000000000000000000000000000000000000000000000002000000000004000000000000000008000000002000000000000000000000000000000000000000000000000000020000000000000000000200000000000000000000000100000000000000000000000",
      "type": "0x2",
      "transactionHash": "0xdc32546cf8654ee90cec055d345ce7ff7f163661f632990b07f1441765cacb90",
      "transactionIndex": "0x10",
      "blockHash": "0x173cf039bf1247dc337008950af2969bb4a9c0ac2283af13131f47fdb45f356e",
      "blockNumber": "0x749869",
      "gasUsed": "0x2b1b6",
      "effectiveGasPrice": "0xfd",
      "from": "0xcda2fdb452ff4f5d7ba1c3d5dfcc9cb926a5eb7d",
      "to": "0x79dfbed14077b8f2421eece5707a17b161094e6a",
      "contractAddress": null,
      "l1BaseFeeScalar": "0x186a0",
      "l1BlobBaseFee": "0x1",
      "l1BlobBaseFeeScalar": "0x95506",
      "l1Fee": "0x10dfa3b2fdd",
      "l1GasPrice": "0x1aff6c519",
      "l1GasUsed": "0x640"
    },
    {
      "status": "0x1",
      "cumulativeGasUsed": "0x2e786d",
      "logs": [
        {
          "address": "0x2e8af9c5922623058aa92a183b391e62cb6b2d12",
          "topics": [
            "0xddf252ad1be2c89b69c2b068fc378daa952ba7f163c4a11628f55a4df523b3ef",
            "0x0000000000000000000000000000000000000000000000000000000000000000",
            "0x000000000000000000000000cda2fdb452ff4f5d7ba1c3d5dfcc9cb926a5eb7d",
            "0x0000000000000000000000000000000000000000000000000000000000000077"
          ],
          "data": "0x",
          "blockHash": "0x173cf039bf1247dc337008950af2969bb4a9c0ac2283af13131f47fdb45f356e",
          "blockNumber": "0x749869",
          "transactionHash": "0x2659db6fa92e593c501f664f63edc67f483d472c407f98c476c4ec5897402a2b",
          "transactionIndex": "0x11",
          "logIndex": "0x20",
          "removed": false
        },
        {
          "address": "0x2e8af9c5922623058aa92a183b391e62cb6b2d12",
          "topics": [
            "0xf8e1a15aba9398e019f0b49df1a4fde98ee17ae345cb5f6b5e2c27f5033e8ce7"
          ],
          "data": "0x0000000000000000000000000000000000000000000000000000000000000077",
          "blockHash": "0x173cf039bf1247dc337008950af2969bb4a9c0ac2283af13131f47fdb45f356e",
          "blockNumber": "0x749869",
          "transactionHash": "0x2659db6fa92e593c501f664f63edc67f483d472c407f98c476c4ec5897402a2b",
          "transactionIndex": "0x11",
          "logIndex": "0x21",
          "removed": false
        }
      ],
      "logsBloom": "0x00000000000000000000000000000000000000020000000000000000000000000000000000000000000000000000000000000000000000000000000000000000000000000000040000000008040000000000000000000000000000000000000000000000020000000000000000000800002000000000800000000010000000000000000000000000000000000000000000000000040000000000000000000000000000000000000000000000000000002000000000004000000000000000008000000002000000000000000000000000000000000000000000000000000020020000000000000000200000000000000000000000100000000000000000000000",
      "type": "0x2",
      "transactionHash": "0x2659db6fa92e593c501f664f63edc67f483d472c407f98c476c4ec5897402a2b",
      "transactionIndex": "0x11",
      "blockHash": "0x173cf039bf1247dc337008950af2969bb4a9c0ac2283af13131f47fdb45f356e",
      "blockNumber": "0x749869",
      "gasUsed": "0x2b1b6",
      "effectiveGasPrice": "0xfd",
      "from": "0xcda2fdb452ff4f5d7ba1c3d5dfcc9cb926a5eb7d",
      "to": "0x79dfbed14077b8f2421eece5707a17b161094e6a",
      "contractAddress": null,
      "l1BaseFeeScalar": "0x186a0",
      "l1BlobBaseFee": "0x1",
      "l1BlobBaseFeeScalar": "0x95506",
      "l1Fee": "0x10dfa3b2fdd",
      "l1GasPrice": "0x1aff6c519",
      "l1GasUsed": "0x640"
    },
    {
      "status": "0x1",
      "cumulativeGasUsed": "0x312a23",
      "logs": [
        {
          "address": "0x2e8af9c5922623058aa92a183b391e62cb6b2d12",
          "topics": [
            "0xddf252ad1be2c89b69c2b068fc378daa952ba7f163c4a11628f55a4df523b3ef",
            "0x0000000000000000000000000000000000000000000000000000000000000000",
            "0x000000000000000000000000cda2fdb452ff4f5d7ba1c3d5dfcc9cb926a5eb7d",
            "0x0000000000000000000000000000000000000000000000000000000000000078"
          ],
          "data": "0x",
          "blockHash": "0x173cf039bf1247dc337008950af2969bb4a9c0ac2283af13131f47fdb45f356e",
          "blockNumber": "0x749869",
          "transactionHash": "0x1f7303624612c319fe4cb5009465d060ffbb58b9c6bca6afb284427290cf6dd2",
          "transactionIndex": "0x12",
          "logIndex": "0x22",
          "removed": false
        },
        {
          "address": "0x2e8af9c5922623058aa92a183b391e62cb6b2d12",
          "topics": [
            "0xf8e1a15aba9398e019f0b49df1a4fde98ee17ae345cb5f6b5e2c27f5033e8ce7"
          ],
          "data": "0x0000000000000000000000000000000000000000000000000000000000000078",
          "blockHash": "0x173cf039bf1247dc337008950af2969bb4a9c0ac2283af13131f47fdb45f356e",
          "blockNumber": "0x749869",
          "transactionHash": "0x1f7303624612c319fe4cb5009465d060ffbb58b9c6bca6afb284427290cf6dd2",
          "transactionIndex": "0x12",
          "logIndex": "0x23",
          "removed": false
        }
      ],
      "logsBloom": "0x00000000000000000000000000000000000000020000000000000000000000000000000000000000000000000000000000000000000000000000000000000000000000000000004000000008040000000000000000000000000000000000000000000000020000000000000000000800002000000000800000000010000000000000000000000000000000000000000000000200000000000000000020000000000000000000000000000000000000002000000000004000000000000000008000000002000000000000000000000000000000000000000000000000000020000000000000000000200000000000000000000000100000000000000000000000",
      "type": "0x2",
      "transactionHash": "0x1f7303624612c319fe4cb5009465d060ffbb58b9c6bca6afb284427290cf6dd2",
      "transactionIndex": "0x12",
      "blockHash": "0x173cf039bf1247dc337008950af2969bb4a9c0ac2283af13131f47fdb45f356e",
      "blockNumber": "0x749869",
      "gasUsed": "0x2b1b6",
      "effectiveGasPrice": "0xfd",
      "from": "0xcda2fdb452ff4f5d7ba1c3d5dfcc9cb926a5eb7d",
      "to": "0x79dfbed14077b8f2421eece5707a17b161094e6a",
      "contractAddress": null,
      "l1BaseFeeScalar": "0x186a0",
      "l1BlobBaseFee": "0x1",
      "l1BlobBaseFeeScalar": "0x95506",
      "l1Fee": "0x10dfa3b2fdd",
      "l1GasPrice": "0x1aff6c519",
      "l1GasUsed": "0x640"
    },
    {
      "status": "0x1",
      "cumulativeGasUsed": "0x33dbd9",
      "logs": [
        {
          "address": "0x2e8af9c5922623058aa92a183b391e62cb6b2d12",
          "topics": [
            "0xddf252ad1be2c89b69c2b068fc378daa952ba7f163c4a11628f55a4df523b3ef",
            "0x0000000000000000000000000000000000000000000000000000000000000000",
            "0x000000000000000000000000cda2fdb452ff4f5d7ba1c3d5dfcc9cb926a5eb7d",
            "0x0000000000000000000000000000000000000000000000000000000000000079"
          ],
          "data": "0x",
          "blockHash": "0x173cf039bf1247dc337008950af2969bb4a9c0ac2283af13131f47fdb45f356e",
          "blockNumber": "0x749869",
          "transactionHash": "0x519f89a87e3d9c3c3bb730550371c4a45190c3714d6caf1c4c54364a79a6b617",
          "transactionIndex": "0x13",
          "logIndex": "0x24",
          "removed": false
        },
        {
          "address": "0x2e8af9c5922623058aa92a183b391e62cb6b2d12",
          "topics": [
            "0xf8e1a15aba9398e019f0b49df1a4fde98ee17ae345cb5f6b5e2c27f5033e8ce7"
          ],
          "data": "0x0000000000000000000000000000000000000000000000000000000000000079",
          "blockHash": "0x173cf039bf1247dc337008950af2969bb4a9c0ac2283af13131f47fdb45f356e",
          "blockNumber": "0x749869",
          "transactionHash": "0x519f89a87e3d9c3c3bb730550371c4a45190c3714d6caf1c4c54364a79a6b617",
          "transactionIndex": "0x13",
          "logIndex": "0x25",
          "removed": false
        }
      ],
      "logsBloom": "0x00000000000000000000000000000000000000020000000000000000000000000000000000000000000000000000000000000000000000000000000000000000000000000000008000000008040000000800000000000000000000000000000000000000020000000000000000000800002000000000800000000010000000000000000000000000000000000000000000000000000000000000000000000000000000000001000000000000000000002000000000004000000000000000008000000002000000000000000000000000000000000000000000000000000020000000000000000000200000000000000000000000100000000000000000000000",
      "type": "0x2",
      "transactionHash": "0x519f89a87e3d9c3c3bb730550371c4a45190c3714d6caf1c4c54364a79a6b617",
      "transactionIndex": "0x13",
      "blockHash": "0x173cf039bf1247dc337008950af2969bb4a9c0ac2283af13131f47fdb45f356e",
      "blockNumber": "0x749869",
      "gasUsed": "0x2b1b6",
      "effectiveGasPrice": "0xfd",
      "from": "0xcda2fdb452ff4f5d7ba1c3d5dfcc9cb926a5eb7d",
      "to": "0x79dfbed14077b8f2421eece5707a17b161094e6a",
      "contractAddress": null,
      "l1BaseFeeScalar": "0x186a0",
      "l1BlobBaseFee": "0x1",
      "l1BlobBaseFeeScalar": "0x95506",
      "l1Fee": "0x10dfa3b2fdd",
      "l1GasPrice": "0x1aff6c519",
      "l1GasUsed": "0x640"
    },
    {
      "status": "0x1",
      "cumulativeGasUsed": "0x35d0d",
      "logs": [
        {
          "address": "0x2e8af9c5922623058aa92a183b391e62cb6b2d12",
          "topics": [
            "0xddf252ad1be2c89b69c2b068fc378daa952ba7f163c4a11628f55a4df523b3ef",
            "0x0000000000000000000000000000000000000000000000000000000000000000",
            "0x000000000000000000000000cda2fdb452ff4f5d7ba1c3d5dfcc9cb926a5eb7d",
            "0x000000000000000000000000000000000000000000000000000000000000007a"
          ],
          "data": "0x",
          "blockHash": "0x13b94876a4d076f29ee322e3b22ca09254f97dba52eb392530ebbaa4caf39ea7",
          "blockNumber": "0x74986a",
          "transactionHash": "0x2ccc9a9285d95d6a86375dff534b861564f5e256fac5465186267e95921a7365",
          "transactionIndex": "0x1",
          "logIndex": "0x0",
          "removed": false
        },
        {
          "address": "0x2e8af9c5922623058aa92a183b391e62cb6b2d12",
          "topics": [
            "0xf8e1a15aba9398e019f0b49df1a4fde98ee17ae345cb5f6b5e2c27f5033e8ce7"
          ],
          "data": "0x000000000000000000000000000000000000000000000000000000000000007a",
          "blockHash": "0x13b94876a4d076f29ee322e3b22ca09254f97dba52eb392530ebbaa4caf39ea7",
          "blockNumber": "0x74986a",
          "transactionHash": "0x2ccc9a9285d95d6a86375dff534b861564f5e256fac5465186267e95921a7365",
          "transactionIndex": "0x1",
          "logIndex": "0x1",
          "removed": false
        }
      ],
      "logsBloom": "0x00000000000000000000000000000000000200020000000000000000000000000000000000000000000000000000000000000000000000000000000000000000000000000000000000000008040000000000000000000000000000000000000000000000020000000000000000000800002000000000800000000010000000000000000000000000000000000000000000000000000000000000000000000000000000000000000000000000400000002000000000004000000000000000008000000002000000000000000000000000000000000000000000000000000020000000000000000000200000000000000000000000100000100000000000000000",
      "type": "0x2",
      "transactionHash": "0x2ccc9a9285d95d6a86375dff534b861564f5e256fac5465186267e95921a7365",
      "transactionIndex": "0x1",
      "blockHash": "0x13b94876a4d076f29ee322e3b22ca09254f97dba52eb392530ebbaa4caf39ea7",
      "blockNumber": "0x74986a",
      "gasUsed": "0x2b1b6",
      "effectiveGasPrice": "0xfd",
      "from": "0xcda2fdb452ff4f5d7ba1c3d5dfcc9cb926a5eb7d",
      "to": "0x79dfbed14077b8f2421eece5707a17b161094e6a",
      "contractAddress": null,
      "l1BaseFeeScalar": "0x186a0",
      "l1BlobBaseFee": "0x1",
      "l1BlobBaseFeeScalar": "0x95506",
      "l1Fee": "0x10dfa3b2fdd",
      "l1GasPrice": "0x1aff6c519",
      "l1GasUsed": "0x640"
    },
    {
      "status": "0x1",
      "cumulativeGasUsed": "0x60ec3",
      "logs": [
        {
          "address": "0x2e8af9c5922623058aa92a183b391e62cb6b2d12",
          "topics": [
            "0xddf252ad1be2c89b69c2b068fc378daa952ba7f163c4a11628f55a4df523b3ef",
            "0x0000000000000000000000000000000000000000000000000000000000000000",
            "0x000000000000000000000000cda2fdb452ff4f5d7ba1c3d5dfcc9cb926a5eb7d",
            "0x000000000000000000000000000000000000000000000000000000000000007b"
          ],
          "data": "0x",
          "blockHash": "0x13b94876a4d076f29ee322e3b22ca09254f97dba52eb392530ebbaa4caf39ea7",
          "blockNumber": "0x74986a",
          "transactionHash": "0xf05de831f202f463261f277d2538f414170245e45d05429f322ba8f400b94440",
          "transactionIndex": "0x2",
          "logIndex": "0x2",
          "removed": false
        },
        {
          "address": "0x2e8af9c5922623058aa92a183b391e62cb6b2d12",
          "topics": [
            "0xf8e1a15aba9398e019f0b49df1a4fde98ee17ae345cb5f6b5e2c27f5033e8ce7"
          ],
          "data": "0x000000000000000000000000000000000000000000000000000000000000007b",
          "blockHash": "0x13b94876a4d076f29ee322e3b22ca09254f97dba52eb392530ebbaa4caf39ea7",
          "blockNumber": "0x74986a",
          "transactionHash": "0xf05de831f202f463261f277d2538f414170245e45d05429f322ba8f400b94440",
          "transactionIndex": "0x2",
          "logIndex": "0x3",
          "removed": false
        }
      ],
      "logsBloom": "0x00000000000000000000000000000000000000020000000000000000000000000000000000000000000000000000000000000000000000000000000000000000000000000000000000000008040000000000020000000000000000000000000000000000020000000000000000000800002000000000808000000010000000000000000000000000000000000000000000000000000000000000000000000000000000000000000000000000000000002000000000004000000000000000008000000002000000000000000200000000000000000000000000000000000020000000000000000000200000000000000000000000100000000000000000000000",
      "type": "0x2",
      "transactionHash": "0xf05de831f202f463261f277d2538f414170245e45d05429f322ba8f400b94440",
      "transactionIndex": "0x2",
      "blockHash": "0x13b94876a4d076f29ee322e3b22ca09254f97dba52eb392530ebbaa4caf39ea7",
      "blockNumber": "0x74986a",
      "gasUsed": "0x2b1b6",
      "effectiveGasPrice": "0xfd",
      "from": "0xcda2fdb452ff4f5d7ba1c3d5dfcc9cb926a5eb7d",
      "to": "0x79dfbed14077b8f2421eece5707a17b161094e6a",
      "contractAddress": null,
      "l1BaseFeeScalar": "0x186a0",
      "l1BlobBaseFee": "0x1",
      "l1BlobBaseFeeScalar": "0x95506",
      "l1Fee": "0x10dfa3b2fdd",
      "l1GasPrice": "0x1aff6c519",
      "l1GasUsed": "0x640"
    },
    {
      "status": "0x1",
      "cumulativeGasUsed": "0x8c079",
      "logs": [
        {
          "address": "0x2e8af9c5922623058aa92a183b391e62cb6b2d12",
          "topics": [
            "0xddf252ad1be2c89b69c2b068fc378daa952ba7f163c4a11628f55a4df523b3ef",
            "0x0000000000000000000000000000000000000000000000000000000000000000",
            "0x000000000000000000000000cda2fdb452ff4f5d7ba1c3d5dfcc9cb926a5eb7d",
            "0x000000000000000000000000000000000000000000000000000000000000007c"
          ],
          "data": "0x",
          "blockHash": "0x13b94876a4d076f29ee322e3b22ca09254f97dba52eb392530ebbaa4caf39ea7",
          "blockNumber": "0x74986a",
          "transactionHash": "0x344a76894a7d60279cdd2d5a1210afa1b9295ea5782f9087a1e21c29a45d8c83",
          "transactionIndex": "0x3",
          "logIndex": "0x4",
          "removed": false
        },
        {
          "address": "0x2e8af9c5922623058aa92a183b391e62cb6b2d12",
          "topics": [
            "0xf8e1a15aba9398e019f0b49df1a4fde98ee17ae345cb5f6b5e2c27f5033e8ce7"
          ],
          "data": "0x000000000000000000000000000000000000000000000000000000000000007c",
          "blockHash": "0x13b94876a4d076f29ee322e3b22ca09254f97dba52eb392530ebbaa4caf39ea7",
          "blockNumber": "0x74986a",
          "transactionHash": "0x344a76894a7d60279cdd2d5a1210afa1b9295ea5782f9087a1e21c29a45d8c83",
          "transactionIndex": "0x3",
          "logIndex": "0x5",
          "removed": false
        }
      ],
      "logsBloom": "0x00000000000000000000000000000000000000020000000000000000000000000000000000000000000000000000000000000000000000000000000000000000000000000000000000000008040000000000000000000000000000000000000000000000020000000000000000000800002000000000800000000010000000000020000000000000000000000000000000000000000000000000000000000000000000000000000000000000000000002000000000004000000000040000008000000002000000000000000000000000000000000000000000000000000020000000000020000000200000000000000000000000100000000000000000000000",
      "type": "0x2",
      "transactionHash": "0x344a76894a7d60279cdd2d5a1210afa1b9295ea5782f9087a1e21c29a45d8c83",
      "transactionIndex": "0x3",
      "blockHash": "0x13b94876a4d076f29ee322e3b22ca09254f97dba52eb392530ebbaa4caf39ea7",
      "blockNumber": "0x74986a",
      "gasUsed": "0x2b1b6",
      "effectiveGasPrice": "0xfd",
      "from": "0xcda2fdb452ff4f5d7ba1c3d5dfcc9cb926a5eb7d",
      "to": "0x79dfbed14077b8f2421eece5707a17b161094e6a",
      "contractAddress": null,
      "l1BaseFeeScalar": "0x186a0",
      "l1BlobBaseFee": "0x1",
      "l1BlobBaseFeeScalar": "0x95506",
      "l1Fee": "0x10dfa3b2fdd",
      "l1GasPrice": "0x1aff6c519",
      "l1GasUsed": "0x640"
    },
    {
      "status": "0x1",
      "cumulativeGasUsed": "0xb722f",
      "logs": [
        {
          "address": "0x2e8af9c5922623058aa92a183b391e62cb6b2d12",
          "topics": [
            "0xddf252ad1be2c89b69c2b068fc378daa952ba7f163c4a11628f55a4df523b3ef",
            "0x0000000000000000000000000000000000000000000000000000000000000000",
            "0x000000000000000000000000cda2fdb452ff4f5d7ba1c3d5dfcc9cb926a5eb7d",
            "0x000000000000000000000000000000000000000000000000000000000000007d"
          ],
          "data": "0x",
          "blockHash": "0x13b94876a4d076f29ee322e3b22ca09254f97dba52eb392530ebbaa4caf39ea7",
          "blockNumber": "0x74986a",
          "transactionHash": "0xe61b846ef3f57750dce5d1b16352d9dfd29ac14dba5ffba74f1a57f5fc85db80",
          "transactionIndex": "0x4",
          "logIndex": "0x6",
          "removed": false
        },
        {
          "address": "0x2e8af9c5922623058aa92a183b391e62cb6b2d12",
          "topics": [
            "0xf8e1a15aba9398e019f0b49df1a4fde98ee17ae345cb5f6b5e2c27f5033e8ce7"
          ],
          "data": "0x000000000000000000000000000000000000000000000000000000000000007d",
          "blockHash": "0x13b94876a4d076f29ee322e3b22ca09254f97dba52eb392530ebbaa4caf39ea7",
          "blockNumber": "0x74986a",
          "transactionHash": "0xe61b846ef3f57750dce5d1b16352d9dfd29ac14dba5ffba74f1a57f5fc85db80",
          "transactionIndex": "0x4",
          "logIndex": "0x7",
          "removed": false
        }
      ],
      "logsBloom": "0x00000000000000000000000000000000000000020000000000000000000000000000000000000000000000000000000000000000000000000000000000000000000000000000000000000008040000000000000000000000000000000000000000000000020000000000000000000800002000000000800000000010000000000000000000000000000000000000000000000000000000000000000100000000000000000000000000000000000000002000000000004000000000000000008000000002000000000000000000000000000000000000000000000000000820000000000000000000200010000000000000000000100000000000000000000000",
      "type": "0x2",
      "transactionHash": "0xe61b846ef3f57750dce5d1b16352d9dfd29ac14dba5ffba74f1a57f5fc85db80",
      "transactionIndex": "0x4",
      "blockHash": "0x13b94876a4d076f29ee322e3b22ca09254f97dba52eb392530ebbaa4caf39ea7",
      "blockNumber": "0x74986a",
      "gasUsed": "0x2b1b6",
      "effectiveGasPrice": "0xfd",
      "from": "0xcda2fdb452ff4f5d7ba1c3d5dfcc9cb926a5eb7d",
      "to": "0x79dfbed14077b8f2421eece5707a17b161094e6a",
      "contractAddress": null,
      "l1BaseFeeScalar": "0x186a0",
      "l1BlobBaseFee": "0x1",
      "l1BlobBaseFeeScalar": "0x95506",
      "l1Fee": "0x10dfa3b2fdd",
      "l1GasPrice": "0x1aff6c519",
      "l1GasUsed": "0x640"
    },
    {
      "status": "0x1",
      "cumulativeGasUsed": "0xe23e5",
      "logs": [
        {
          "address": "0x2e8af9c5922623058aa92a183b391e62cb6b2d12",
          "topics": [
            "0xddf252ad1be2c89b69c2b068fc378daa952ba7f163c4a11628f55a4df523b3ef",
            "0x0000000000000000000000000000000000000000000000000000000000000000",
            "0x000000000000000000000000cda2fdb452ff4f5d7ba1c3d5dfcc9cb926a5eb7d",
            "0x000000000000000000000000000000000000000000000000000000000000007e"
          ],
          "data": "0x",
          "blockHash": "0x13b94876a4d076f29ee322e3b22ca09254f97dba52eb392530ebbaa4caf39ea7",
          "blockNumber": "0x74986a",
          "transactionHash": "0xa9be97dba858d15c3125741bd43c42f5e60d8cb8ada35b567fcd3663fb2e53f7",
          "transactionIndex": "0x5",
          "logIndex": "0x8",
          "removed": false
        },
        {
          "address": "0x2e8af9c5922623058aa92a183b391e62cb6b2d12",
          "topics": [
            "0xf8e1a15aba9398e019f0b49df1a4fde98ee17ae345cb5f6b5e2c27f5033e8ce7"
          ],
          "data": "0x000000000000000000000000000000000000000000000000000000000000007e",
          "blockHash": "0x13b94876a4d076f29ee322e3b22ca09254f97dba52eb392530ebbaa4caf39ea7",
          "blockNumber": "0x74986a",
          "transactionHash": "0xa9be97dba858d15c3125741bd43c42f5e60d8cb8ada35b567fcd3663fb2e53f7",
          "transactionIndex": "0x5",
          "logIndex": "0x9",
          "removed": false
        }
      ],
      "logsBloom": "0x00000000000000000000000000000000000000020000000000000400000000000000000000000000000000000000000000000000000000000000000000000000000000000000000004000008040000000000000000000000000000000000000000000000020000000000000000000800002000000000800000000010000000000000000000000000000000000000000000000000000000000000000000000000000000000000000000000000000000002000000000004000000000008000008000000002000000000000000000000000000000000000000000000000000020000000000000000000200000000000000000000000100000000000000000000000",
      "type": "0x2",
      "transactionHash": "0xa9be97dba858d15c3125741bd43c42f5e60d8cb8ada35b567fcd3663fb2e53f7",
      "transactionIndex": "0x5",
      "blockHash": "0x13b94876a4d076f29ee322e3b22ca09254f97dba52eb392530ebbaa4caf39ea7",
      "blockNumber": "0x74986a",
      "gasUsed": "0x2b1b6",
      "effectiveGasPrice": "0xfd",
      "from": "0xcda2fdb452ff4f5d7ba1c3d5dfcc9cb926a5eb7d",
      "to": "0x79dfbed14077b8f2421eece5707a17b161094e6a",
      "contractAddress": null,
      "l1BaseFeeScalar": "0x186a0",
      "l1BlobBaseFee": "0x1",
      "l1BlobBaseFeeScalar": "0x95506",
      "l1Fee": "0x10dfa3b2fdd",
      "l1GasPrice": "0x1aff6c519",
      "l1GasUsed": "0x640"
    },
    {
      "status": "0x1",
      "cumulativeGasUsed": "0x10d59b",
      "logs": [
        {
          "address": "0x2e8af9c5922623058aa92a183b391e62cb6b2d12",
          "topics": [
            "0xddf252ad1be2c89b69c2b068fc378daa952ba7f163c4a11628f55a4df523b3ef",
            "0x0000000000000000000000000000000000000000000000000000000000000000",
            "0x000000000000000000000000cda2fdb452ff4f5d7ba1c3d5dfcc9cb926a5eb7d",
            "0x000000000000000000000000000000000000000000000000000000000000007f"
          ],
          "data": "0x",
          "blockHash": "0x13b94876a4d076f29ee322e3b22ca09254f97dba52eb392530ebbaa4caf39ea7",
          "blockNumber": "0x74986a",
          "transactionHash": "0x541324970d7297c7dc8381985413fceb5568b16ec51f550bb41dc5acdb44b5c5",
          "transactionIndex": "0x6",
          "logIndex": "0xa",
          "removed": false
        },
        {
          "address": "0x2e8af9c5922623058aa92a183b391e62cb6b2d12",
          "topics": [
            "0xf8e1a15aba9398e019f0b49df1a4fde98ee17ae345cb5f6b5e2c27f5033e8ce7"
          ],
          "data": "0x000000000000000000000000000000000000000000000000000000000000007f",
          "blockHash": "0x13b94876a4d076f29ee322e3b22ca09254f97dba52eb392530ebbaa4caf39ea7",
          "blockNumber": "0x74986a",
          "transactionHash": "0x541324970d7297c7dc8381985413fceb5568b16ec51f550bb41dc5acdb44b5c5",
          "transactionIndex": "0x6",
          "logIndex": "0xb",
          "removed": false
        }
      ],
      "logsBloom": "0x00000000000000000000000000000000000000020000000000000000000000000000000000000000000000000004002000000000000000000000000000000000000000000000000000000008040000000000000000000000000000000000000000000000020000000000000000000800002000000000800000000010000000000000000000000000000000000000000000000000000000000000000000000000000000000000000000000000000000002000000000004000000000000000008000000002000000000000001000000000000000000000000000000000000020000000000000000000200000000000000000000000100000000000000000000000",
      "type": "0x2",
      "transactionHash": "0x541324970d7297c7dc8381985413fceb5568b16ec51f550bb41dc5acdb44b5c5",
      "transactionIndex": "0x6",
      "blockHash": "0x13b94876a4d076f29ee322e3b22ca09254f97dba52eb392530ebbaa4caf39ea7",
      "blockNumber": "0x74986a",
      "gasUsed": "0x2b1b6",
      "effectiveGasPrice": "0xfd",
      "from": "0xcda2fdb452ff4f5d7ba1c3d5dfcc9cb926a5eb7d",
      "to": "0x79dfbed14077b8f2421eece5707a17b161094e6a",
      "contractAddress": null,
      "l1BaseFeeScalar": "0x186a0",
      "l1BlobBaseFee": "0x1",
      "l1BlobBaseFeeScalar": "0x95506",
      "l1Fee": "0x10dfa3b2fdd",
      "l1GasPrice": "0x1aff6c519",
      "l1GasUsed": "0x640"
    },
    {
      "status": "0x1",
      "cumulativeGasUsed": "0x138751",
      "logs": [
        {
          "address": "0x2e8af9c5922623058aa92a183b391e62cb6b2d12",
          "topics": [
            "0xddf252ad1be2c89b69c2b068fc378daa952ba7f163c4a11628f55a4df523b3ef",
            "0x0000000000000000000000000000000000000000000000000000000000000000",
            "0x000000000000000000000000cda2fdb452ff4f5d7ba1c3d5dfcc9cb926a5eb7d",
            "0x0000000000000000000000000000000000000000000000000000000000000080"
          ],
          "data": "0x",
          "blockHash": "0x13b94876a4d076f29ee322e3b22ca09254f97dba52eb392530ebbaa4caf39ea7",
          "blockNumber": "0x74986a",
          "transactionHash": "0xcd2cd6bf6ae7a987c92e2c6718394b3b7c39a9aaf0aba1171a7df935a99216f4",
          "transactionIndex": "0x7",
          "logIndex": "0xc",
          "removed": false
        },
        {
          "address": "0x2e8af9c5922623058aa92a183b391e62cb6b2d12",
          "topics": [
            "0xf8e1a15aba9398e019f0b49df1a4fde98ee17ae345cb5f6b5e2c27f5033e8ce7"
          ],
          "data": "0x0000000000000000000000000000000000000000000000000000000000000080",
          "blockHash": "0x13b94876a4d076f29ee322e3b22ca09254f97dba52eb392530ebbaa4caf39ea7",
          "blockNumber": "0x74986a",
          "transactionHash": "0xcd2cd6bf6ae7a987c92e2c6718394b3b7c39a9aaf0aba1171a7df935a99216f4",
          "transactionIndex": "0x7",
          "logIndex": "0xd",
          "removed": false
        }
      ],
      "logsBloom": "0x00000000000000000000000000000000000000020000000000000000000000000000000000000000000000000000000000000000000000000000000000000000000000000000000000000008040000000000000000000000000000000000000000000000020000000000000000000800002008000000800000000010000000000000000000000000000000000000000000000000000000000000000000000020000000000000000000000000000000002000000000004000000000000000008000080002000000000000000000000000000000000000000000000000000020000000000000000000200000000000000000000000100000000000000000000000",
      "type": "0x2",
      "transactionHash": "0xcd2cd6bf6ae7a987c92e2c6718394b3b7c39a9aaf0aba1171a7df935a99216f4",
      "transactionIndex": "0x7",
      "blockHash": "0x13b94876a4d076f29ee322e3b22ca09254f97dba52eb392530ebbaa4caf39ea7",
      "blockNumber": "0x74986a",
      "gasUsed": "0x2b1b6",
      "effectiveGasPrice": "0xfd",
      "from": "0xcda2fdb452ff4f5d7ba1c3d5dfcc9cb926a5eb7d",
      "to": "0x79dfbed14077b8f2421eece5707a17b161094e6a",
      "contractAddress": null,
      "l1BaseFeeScalar": "0x186a0",
      "l1BlobBaseFee": "0x1",
      "l1BlobBaseFeeScalar": "0x95506",
      "l1Fee": "0x10dfa3b2fdd",
      "l1GasPrice": "0x1aff6c519",
      "l1GasUsed": "0x640"
    },
    {
      "status": "0x1",
      "cumulativeGasUsed": "0x163907",
      "logs": [
        {
          "address": "0x2e8af9c5922623058aa92a183b391e62cb6b2d12",
          "topics": [
            "0xddf252ad1be2c89b69c2b068fc378daa952ba7f163c4a11628f55a4df523b3ef",
            "0x0000000000000000000000000000000000000000000000000000000000000000",
            "0x000000000000000000000000cda2fdb452ff4f5d7ba1c3d5dfcc9cb926a5eb7d",
            "0x0000000000000000000000000000000000000000000000000000000000000081"
          ],
          "data": "0x",
          "blockHash": "0x13b94876a4d076f29ee322e3b22ca09254f97dba52eb392530ebbaa4caf39ea7",
          "blockNumber": "0x74986a",
          "transactionHash": "0x6f52dfa9edb5b77a344fce012f0123abdfeb220bbc878208b8215849fe9368ab",
          "transactionIndex": "0x8",
          "logIndex": "0xe",
          "removed": false
        },
        {
          "address": "0x2e8af9c5922623058aa92a183b391e62cb6b2d12",
          "topics": [
            "0xf8e1a15aba9398e019f0b49df1a4fde98ee17ae345cb5f6b5e2c27f5033e8ce7"
          ],
          "data": "0x0000000000000000000000000000000000000000000000000000000000000081",
          "blockHash": "0x13b94876a4d076f29ee322e3b22ca09254f97dba52eb392530ebbaa4caf39ea7",
          "blockNumber": "0x74986a",
          "transactionHash": "0x6f52dfa9edb5b77a344fce012f0123abdfeb220bbc878208b8215849fe9368ab",
          "transactionIndex": "0x8",
          "logIndex": "0xf",
          "removed": false
        }
      ],
      "logsBloom": "0x00000000000000000000000000000000000000020000000000000000000000001000000000000000000000000000000000000000000000000000000000000000000000000000000000000008040000000000000000000000000000000000000000000000020000000000000000100800002000000000800000000010000000000000000000000000000000000000000000000000000000000000000000000000000000000000000000000000000000002000000000004000000000000000008000000002000000000000000000000000000000000000200000000000000020000000000000000000200000000000000000000000100000000000000000000000",
      "type": "0x2",
      "transactionHash": "0x6f52dfa9edb5b77a344fce012f0123abdfeb220bbc878208b8215849fe9368ab",
      "transactionIndex": "0x8",
      "blockHash": "0x13b94876a4d076f29ee322e3b22ca09254f97dba52eb392530ebbaa4caf39ea7",
      "blockNumber": "0x74986a",
      "gasUsed": "0x2b1b6",
      "effectiveGasPrice": "0xfd",
      "from": "0xcda2fdb452ff4f5d7ba1c3d5dfcc9cb926a5eb7d",
      "to": "0x79dfbed14077b8f2421eece5707a17b161094e6a",
      "contractAddress": null,
      "l1BaseFeeScalar": "0x186a0",
      "l1BlobBaseFee": "0x1",
      "l1BlobBaseFeeScalar": "0x95506",
      "l1Fee": "0x10dfa3b2fdd",
      "l1GasPrice": "0x1aff6c519",
      "l1GasUsed": "0x640"
    },
    {
      "status": "0x1",
      "cumulativeGasUsed": "0x18eabd",
      "logs": [
        {
          "address": "0x2e8af9c5922623058aa92a183b391e62cb6b2d12",
          "topics": [
            "0xddf252ad1be2c89b69c2b068fc378daa952ba7f163c4a11628f55a4df523b3ef",
            "0x0000000000000000000000000000000000000000000000000000000000000000",
            "0x000000000000000000000000cda2fdb452ff4f5d7ba1c3d5dfcc9cb926a5eb7d",
            "0x0000000000000000000000000000000000000000000000000000000000000082"
          ],
          "data": "0x",
          "blockHash": "0x13b94876a4d076f29ee322e3b22ca09254f97dba52eb392530ebbaa4caf39ea7",
          "blockNumber": "0x74986a",
          "transactionHash": "0xaf6fc39c3f6fc35bbb9eebb41cb36d73b4643c13447eb078f90259684eb04429",
          "transactionIndex": "0x9",
          "logIndex": "0x10",
          "removed": false
        },
        {
          "address": "0x2e8af9c5922623058aa92a183b391e62cb6b2d12",
          "topics": [
            "0xf8e1a15aba9398e019f0b49df1a4fde98ee17ae345cb5f6b5e2c27f5033e8ce7"
          ],
          "data": "0x0000000000000000000000000000000000000000000000000000000000000082",
          "blockHash": "0x13b94876a4d076f29ee322e3b22ca09254f97dba52eb392530ebbaa4caf39ea7",
          "blockNumber": "0x74986a",
          "transactionHash": "0xaf6fc39c3f6fc35bbb9eebb41cb36d73b4643c13447eb078f90259684eb04429",
          "transactionIndex": "0x9",
          "logIndex": "0x11",
          "removed": false
        }
      ],
      "logsBloom": "0x00000000000000000000000000000000000000020000000000000000000000000000000000000000000000000000000000000010000000000000000000000000000000000000000000000008040000000000000000000000000000000000000040000000020000000000000000000800002000000000800000000010000000000000000000000000000000000000000000000000000000000000000000000000000000000000000000000000000000002000000000004000000000100000008000000002000000000000000000000000000000000000000000000000000020000000000000000000200000000000000000000000100000000000000000000000",
      "type": "0x2",
      "transactionHash": "0xaf6fc39c3f6fc35bbb9eebb41cb36d73b4643c13447eb078f90259684eb04429",
      "transactionIndex": "0x9",
      "blockHash": "0x13b94876a4d076f29ee322e3b22ca09254f97dba52eb392530ebbaa4caf39ea7",
      "blockNumber": "0x74986a",
      "gasUsed": "0x2b1b6",
      "effectiveGasPrice": "0xfd",
      "from": "0xcda2fdb452ff4f5d7ba1c3d5dfcc9cb926a5eb7d",
      "to": "0x79dfbed14077b8f2421eece5707a17b161094e6a",
      "contractAddress": null,
      "l1BaseFeeScalar": "0x186a0",
      "l1BlobBaseFee": "0x1",
      "l1BlobBaseFeeScalar": "0x95506",
      "l1Fee": "0x10dfa3b2fdd",
      "l1GasPrice": "0x1aff6c519",
      "l1GasUsed": "0x640"
    },
    {
      "status": "0x1",
      "cumulativeGasUsed": "0x1b9c73",
      "logs": [
        {
          "address": "0x2e8af9c5922623058aa92a183b391e62cb6b2d12",
          "topics": [
            "0xddf252ad1be2c89b69c2b068fc378daa952ba7f163c4a11628f55a4df523b3ef",
            "0x0000000000000000000000000000000000000000000000000000000000000000",
            "0x000000000000000000000000cda2fdb452ff4f5d7ba1c3d5dfcc9cb926a5eb7d",
            "0x0000000000000000000000000000000000000000000000000000000000000083"
          ],
          "data": "0x",
          "blockHash": "0x13b94876a4d076f29ee322e3b22ca09254f97dba52eb392530ebbaa4caf39ea7",
          "blockNumber": "0x74986a",
          "transactionHash": "0xca1bd50a8ae9f775ade4888de3a604e2f1eb3852213768fec8bb30f7fa641e0b",
          "transactionIndex": "0xa",
          "logIndex": "0x12",
          "removed": false
        },
        {
          "address": "0x2e8af9c5922623058aa92a183b391e62cb6b2d12",
          "topics": [
            "0xf8e1a15aba9398e019f0b49df1a4fde98ee17ae345cb5f6b5e2c27f5033e8ce7"
          ],
          "data": "0x0000000000000000000000000000000000000000000000000000000000000083",
          "blockHash": "0x13b94876a4d076f29ee322e3b22ca09254f97dba52eb392530ebbaa4caf39ea7",
          "blockNumber": "0x74986a",
          "transactionHash": "0xca1bd50a8ae9f775ade4888de3a604e2f1eb3852213768fec8bb30f7fa641e0b",
          "transactionIndex": "0xa",
          "logIndex": "0x13",
          "removed": false
        }
      ],
      "logsBloom": "0x00000000000000000000000000000000000000020000000000000000000000000000000000000000000000000000000000000000000000000000000000000000000000000000000000000008040000000000000000000000000000000000000000000000020000000000000000000800002000000000800000000010000000000000000000000000000000000080000000000000000000000000000000000000000000000000000000000000000000002000000000004000000000000000008000000002000000000000000000000000000000000000000000000400000020000000000000000000200000000000800000000000100000000000000000000000",
      "type": "0x2",
      "transactionHash": "0xca1bd50a8ae9f775ade4888de3a604e2f1eb3852213768fec8bb30f7fa641e0b",
      "transactionIndex": "0xa",
      "blockHash": "0x13b94876a4d076f29ee322e3b22ca09254f97dba52eb392530ebbaa4caf39ea7",
      "blockNumber": "0x74986a",
      "gasUsed": "0x2b1b6",
      "effectiveGasPrice": "0xfd",
      "from": "0xcda2fdb452ff4f5d7ba1c3d5dfcc9cb926a5eb7d",
      "to": "0x79dfbed14077b8f2421eece5707a17b161094e6a",
      "contractAddress": null,
      "l1BaseFeeScalar": "0x186a0",
      "l1BlobBaseFee": "0x1",
      "l1BlobBaseFeeScalar": "0x95506",
      "l1Fee": "0x10dfa3b2fdd",
      "l1GasPrice": "0x1aff6c519",
      "l1GasUsed": "0x640"
    },
    {
      "status": "0x1",
      "cumulativeGasUsed": "0x1e4e29",
      "logs": [
        {
          "address": "0x2e8af9c5922623058aa92a183b391e62cb6b2d12",
          "topics": [
            "0xddf252ad1be2c89b69c2b068fc378daa952ba7f163c4a11628f55a4df523b3ef",
            "0x0000000000000000000000000000000000000000000000000000000000000000",
            "0x000000000000000000000000cda2fdb452ff4f5d7ba1c3d5dfcc9cb926a5eb7d",
            "0x0000000000000000000000000000000000000000000000000000000000000084"
          ],
          "data": "0x",
          "blockHash": "0x13b94876a4d076f29ee322e3b22ca09254f97dba52eb392530ebbaa4caf39ea7",
          "blockNumber": "0x74986a",
          "transactionHash": "0xf5f495832894d7191241857b34102263184706cc80a4f996fadd89c6e7bd2b6f",
          "transactionIndex": "0xb",
          "logIndex": "0x14",
          "removed": false
        },
        {
          "address": "0x2e8af9c5922623058aa92a183b391e62cb6b2d12",
          "topics": [
            "0xf8e1a15aba9398e019f0b49df1a4fde98ee17ae345cb5f6b5e2c27f5033e8ce7"
          ],
          "data": "0x0000000000000000000000000000000000000000000000000000000000000084",
          "blockHash": "0x13b94876a4d076f29ee322e3b22ca09254f97dba52eb392530ebbaa4caf39ea7",
          "blockNumber": "0x74986a",
          "transactionHash": "0xf5f495832894d7191241857b34102263184706cc80a4f996fadd89c6e7bd2b6f",
          "transactionIndex": "0xb",
          "logIndex": "0x15",
          "removed": false
        }
      ],
      "logsBloom": "0x00000000000000000000000000000000000000020000000000000000000000000000000000000000000000000008000000000000000000000000000000000000000000000000000000000008040000000000000000000000000000000000000000000000020000000000000000000800002000000000800000000010000000000000000000000000000000000000000000000000000000000000000000000000000000000000000000000000000000002000000000004000000000000000008000000002000000000000000000000000000000000000000000000000000020000000000000000080200000000000000000000000100000000000002000000000",
      "type": "0x2",
      "transactionHash": "0xf5f495832894d7191241857b34102263184706cc80a4f996fadd89c6e7bd2b6f",
      "transactionIndex": "0xb",
      "blockHash": "0x13b94876a4d076f29ee322e3b22ca09254f97dba52eb392530ebbaa4caf39ea7",
      "blockNumber": "0x74986a",
      "gasUsed": "0x2b1b6",
      "effectiveGasPrice": "0xfd",
      "from": "0xcda2fdb452ff4f5d7ba1c3d5dfcc9cb926a5eb7d",
      "to": "0x79dfbed14077b8f2421eece5707a17b161094e6a",
      "contractAddress": null,
      "l1BaseFeeScalar": "0x186a0",
      "l1BlobBaseFee": "0x1",
      "l1BlobBaseFeeScalar": "0x95506",
      "l1Fee": "0x10dfa3b2fdd",
      "l1GasPrice": "0x1aff6c519",
      "l1GasUsed": "0x640"
    },
    {
      "status": "0x1",
      "cumulativeGasUsed": "0x20ffdf",
      "logs": [
        {
          "address": "0x2e8af9c5922623058aa92a183b391e62cb6b2d12",
          "topics": [
            "0xddf252ad1be2c89b69c2b068fc378daa952ba7f163c4a11628f55a4df523b3ef",
            "0x0000000000000000000000000000000000000000000000000000000000000000",
            "0x000000000000000000000000cda2fdb452ff4f5d7ba1c3d5dfcc9cb926a5eb7d",
            "0x0000000000000000000000000000000000000000000000000000000000000085"
          ],
          "data": "0x",
          "blockHash": "0x13b94876a4d076f29ee322e3b22ca09254f97dba52eb392530ebbaa4caf39ea7",
          "blockNumber": "0x74986a",
          "transactionHash": "0x15a8fb0491e2b5e0906348a2c583a642a5405083a3d6621fc07e2225bc471bd3",
          "transactionIndex": "0xc",
          "logIndex": "0x16",
          "removed": false
        },
        {
          "address": "0x2e8af9c5922623058aa92a183b391e62cb6b2d12",
          "topics": [
            "0xf8e1a15aba9398e019f0b49df1a4fde98ee17ae345cb5f6b5e2c27f5033e8ce7"
          ],
          "data": "0x0000000000000000000000000000000000000000000000000000000000000085",
          "blockHash": "0x13b94876a4d076f29ee322e3b22ca09254f97dba52eb392530ebbaa4caf39ea7",
          "blockNumber": "0x74986a",
          "transactionHash": "0x15a8fb0491e2b5e0906348a2c583a642a5405083a3d6621fc07e2225bc471bd3",
          "transactionIndex": "0xc",
          "logIndex": "0x17",
          "removed": false
        }
      ],
      "logsBloom": "0x00000000000000000000000000000000000000020000000000000000000000000000000000000000000000000000000000000000000000000000000000000000000000000000000000000008040000000000000000000000000000000000000000000000020000000000000000000800002400000000800000000010000000000000000004000000000000000000000000000000000000000000000000000000000000000000000000000000000000002000000000004000000000000000008000000002000000000000000000000000000000000000000000000000000020000000000000000000200000000000000000000000100000020000000000000000",
      "type": "0x2",
      "transactionHash": "0x15a8fb0491e2b5e0906348a2c583a642a5405083a3d6621fc07e2225bc471bd3",
      "transactionIndex": "0xc",
      "blockHash": "0x13b94876a4d076f29ee322e3b22ca09254f97dba52eb392530ebbaa4caf39ea7",
      "blockNumber": "0x74986a",
      "gasUsed": "0x2b1b6",
      "effectiveGasPrice": "0xfd",
      "from": "0xcda2fdb452ff4f5d7ba1c3d5dfcc9cb926a5eb7d",
      "to": "0x79dfbed14077b8f2421eece5707a17b161094e6a",
      "contractAddress": null,
      "l1BaseFeeScalar": "0x186a0",
      "l1BlobBaseFee": "0x1",
      "l1BlobBaseFeeScalar": "0x95506",
      "l1Fee": "0x10dfa3b2fdd",
      "l1GasPrice": "0x1aff6c519",
      "l1GasUsed": "0x640"
    },
    {
      "status": "0x1",
      "cumulativeGasUsed": "0x23b195",
      "logs": [
        {
          "address": "0x2e8af9c5922623058aa92a183b391e62cb6b2d12",
          "topics": [
            "0xddf252ad1be2c89b69c2b068fc378daa952ba7f163c4a11628f55a4df523b3ef",
            "0x0000000000000000000000000000000000000000000000000000000000000000",
            "0x000000000000000000000000cda2fdb452ff4f5d7ba1c3d5dfcc9cb926a5eb7d",
            "0x0000000000000000000000000000000000000000000000000000000000000086"
          ],
          "data": "0x",
          "blockHash": "0x13b94876a4d076f29ee322e3b22ca09254f97dba52eb392530ebbaa4caf39ea7",
          "blockNumber": "0x74986a",
          "transactionHash": "0x7c21ec61d0bb61f55f077f218aa0f435c1d8bf56bebdc16b28899f4ad48e7787",
          "transactionIndex": "0xd",
          "logIndex": "0x18",
          "removed": false
        },
        {
          "address": "0x2e8af9c5922623058aa92a183b391e62cb6b2d12",
          "topics": [
            "0xf8e1a15aba9398e019f0b49df1a4fde98ee17ae345cb5f6b5e2c27f5033e8ce7"
          ],
          "data": "0x0000000000000000000000000000000000000000000000000000000000000086",
          "blockHash": "0x13b94876a4d076f29ee322e3b22ca09254f97dba52eb392530ebbaa4caf39ea7",
          "blockNumber": "0x74986a",
          "transactionHash": "0x7c21ec61d0bb61f55f077f218aa0f435c1d8bf56bebdc16b28899f4ad48e7787",
          "transactionIndex": "0xd",
          "logIndex": "0x19",
          "removed": false
        }
      ],
      "logsBloom": "0x00000000000000000000000000000000000000020000000000000000000000000000000000000000008000000000000000000000000000000000000000000000000000000000000000000008040000000000000000000000000000000000000000000000020000000000000000000800002000000000800400000010000000000000000000000000000000000000000000000000000000000000000000000000000000000000000000000000000000102000000000004000000000000000008000000002000000000000000000000000000000000000000000000000000020000000000000000000200000000000000000000000100000000000000000000000",
      "type": "0x2",
      "transactionHash": "0x7c21ec61d0bb61f55f077f218aa0f435c1d8bf56bebdc16b28899f4ad48e7787",
      "transactionIndex": "0xd",
      "blockHash": "0x13b94876a4d076f29ee322e3b22ca09254f97dba52eb392530ebbaa4caf39ea7",
      "blockNumber": "0x74986a",
      "gasUsed": "0x2b1b6",
      "effectiveGasPrice": "0xfd",
      "from": "0xcda2fdb452ff4f5d7ba1c3d5dfcc9cb926a5eb7d",
      "to": "0x79dfbed14077b8f2421eece5707a17b161094e6a",
      "contractAddress": null,
      "l1BaseFeeScalar": "0x186a0",
      "l1BlobBaseFee": "0x1",
      "l1BlobBaseFeeScalar": "0x95506",
      "l1Fee": "0x10dfa3b2fdd",
      "l1GasPrice": "0x1aff6c519",
      "l1GasUsed": "0x640"
    },
    {
      "status": "0x1",
      "cumulativeGasUsed": "0x26634b",
      "logs": [
        {
          "address": "0x2e8af9c5922623058aa92a183b391e62cb6b2d12",
          "topics": [
            "0xddf252ad1be2c89b69c2b068fc378daa952ba7f163c4a11628f55a4df523b3ef",
            "0x0000000000000000000000000000000000000000000000000000000000000000",
            "0x000000000000000000000000cda2fdb452ff4f5d7ba1c3d5dfcc9cb926a5eb7d",
            "0x0000000000000000000000000000000000000000000000000000000000000087"
          ],
          "data": "0x",
          "blockHash": "0x13b94876a4d076f29ee322e3b22ca09254f97dba52eb392530ebbaa4caf39ea7",
          "blockNumber": "0x74986a",
          "transactionHash": "0xf42c41efd502a4a2f09b6b0b912b8ae10f8ceec98cd060e6d736eca030c9906d",
          "transactionIndex": "0xe",
          "logIndex": "0x1a",
          "removed": false
        },
        {
          "address": "0x2e8af9c5922623058aa92a183b391e62cb6b2d12",
          "topics": [
            "0xf8e1a15aba9398e019f0b49df1a4fde98ee17ae345cb5f6b5e2c27f5033e8ce7"
          ],
          "data": "0x0000000000000000000000000000000000000000000000000000000000000087",
          "blockHash": "0x13b94876a4d076f29ee322e3b22ca09254f97dba52eb392530ebbaa4caf39ea7",
          "blockNumber": "0x74986a",
          "transactionHash": "0xf42c41efd502a4a2f09b6b0b912b8ae10f8ceec98cd060e6d736eca030c9906d",
          "transactionIndex": "0xe",
          "logIndex": "0x1b",
          "removed": false
        }
      ],
      "logsBloom": "0x00000000000000000000000000000000000000020000000000000000040000000000000000000000000000000000000000000000000000000000000000000000000000000000000000000008040000000000000000000000000000000000000000000000020000000000000000000800002000000000800000000010000000000000000000000000000000000000000000000000000000000000000000000000000000000000000000000000000000002000000000004000000000000000008000000002000000004000000000000000000000000000000000000000000020000000000000000000200000000000020000000000100000000000000000000000",
      "type": "0x2",
      "transactionHash": "0xf42c41efd502a4a2f09b6b0b912b8ae10f8ceec98cd060e6d736eca030c9906d",
      "transactionIndex": "0xe",
      "blockHash": "0x13b94876a4d076f29ee322e3b22ca09254f97dba52eb392530ebbaa4caf39ea7",
      "blockNumber": "0x74986a",
      "gasUsed": "0x2b1b6",
      "effectiveGasPrice": "0xfd",
      "from": "0xcda2fdb452ff4f5d7ba1c3d5dfcc9cb926a5eb7d",
      "to": "0x79dfbed14077b8f2421eece5707a17b161094e6a",
      "contractAddress": null,
      "l1BaseFeeScalar": "0x186a0",
      "l1BlobBaseFee": "0x1",
      "l1BlobBaseFeeScalar": "0x95506",
      "l1Fee": "0x10dfa3b2fdd",
      "l1GasPrice": "0x1aff6c519",
      "l1GasUsed": "0x640"
    },
    {
      "status": "0x1",
      "cumulativeGasUsed": "0x291501",
      "logs": [
        {
          "address": "0x2e8af9c5922623058aa92a183b391e62cb6b2d12",
          "topics": [
            "0xddf252ad1be2c89b69c2b068fc378daa952ba7f163c4a11628f55a4df523b3ef",
            "0x0000000000000000000000000000000000000000000000000000000000000000",
            "0x000000000000000000000000cda2fdb452ff4f5d7ba1c3d5dfcc9cb926a5eb7d",
            "0x0000000000000000000000000000000000000000000000000000000000000088"
          ],
          "data": "0x",
          "blockHash": "0x13b94876a4d076f29ee322e3b22ca09254f97dba52eb392530ebbaa4caf39ea7",
          "blockNumber": "0x74986a",
          "transactionHash": "0x15cdcdcf8b92c10e7a3f1877e7976f934d5af17c8127f0ebf31c4716f49c9dc0",
          "transactionIndex": "0xf",
          "logIndex": "0x1c",
          "removed": false
        },
        {
          "address": "0x2e8af9c5922623058aa92a183b391e62cb6b2d12",
          "topics": [
            "0xf8e1a15aba9398e019f0b49df1a4fde98ee17ae345cb5f6b5e2c27f5033e8ce7"
          ],
          "data": "0x0000000000000000000000000000000000000000000000000000000000000088",
          "blockHash": "0x13b94876a4d076f29ee322e3b22ca09254f97dba52eb392530ebbaa4caf39ea7",
          "blockNumber": "0x74986a",
          "transactionHash": "0x15cdcdcf8b92c10e7a3f1877e7976f934d5af17c8127f0ebf31c4716f49c9dc0",
          "transactionIndex": "0xf",
          "logIndex": "0x1d",
          "removed": false
        }
      ],
      "logsBloom": "0x00000000000000000000000000000000000000020000000000000000000000000010000000000000000000000000000000000000000000000000000000000000000000000000000000000008040000000000000000000000000000000000000000000000020080000000000000000800002000000000800000000010000000000000000000000000000000000000000000000000000000000000000000000000000000000000000000000000000000002000000000044000000000000000008000000002000000000000000000000000000000000000000000000000000020000000000000000000200000000000000000000000100000000000000000000000",
      "type": "0x2",
      "transactionHash": "0x15cdcdcf8b92c10e7a3f1877e7976f934d5af17c8127f0ebf31c4716f49c9dc0",
      "transactionIndex": "0xf",
      "blockHash": "0x13b94876a4d076f29ee322e3b22ca09254f97dba52eb392530ebbaa4caf39ea7",
      "blockNumber": "0x74986a",
      "gasUsed": "0x2b1b6",
      "effectiveGasPrice": "0xfd",
      "from": "0xcda2fdb452ff4f5d7ba1c3d5dfcc9cb926a5eb7d",
      "to": "0x79dfbed14077b8f2421eece5707a17b161094e6a",
      "contractAddress": null,
      "l1BaseFeeScalar": "0x186a0",
      "l1BlobBaseFee": "0x1",
      "l1BlobBaseFeeScalar": "0x95506",
      "l1Fee": "0x10dfa3b2fdd",
      "l1GasPrice": "0x1aff6c519",
      "l1GasUsed": "0x640"
    },
    {
      "status": "0x1",
      "cumulativeGasUsed": "0x2bc6b7",
      "logs": [
        {
          "address": "0x2e8af9c5922623058aa92a183b391e62cb6b2d12",
          "topics": [
            "0xddf252ad1be2c89b69c2b068fc378daa952ba7f163c4a11628f55a4df523b3ef",
            "0x0000000000000000000000000000000000000000000000000000000000000000",
            "0x000000000000000000000000cda2fdb452ff4f5d7ba1c3d5dfcc9cb926a5eb7d",
            "0x0000000000000000000000000000000000000000000000000000000000000089"
          ],
          "data": "0x",
          "blockHash": "0x13b94876a4d076f29ee322e3b22ca09254f97dba52eb392530ebbaa4caf39ea7",
          "blockNumber": "0x74986a",
          "transactionHash": "0xd7c1d0e2f99c8404f2cd01ee3902ec224cfbdd406e42884bb504a7640c9664e9",
          "transactionIndex": "0x10",
          "logIndex": "0x1e",
          "removed": false
        },
        {
          "address": "0x2e8af9c5922623058aa92a183b391e62cb6b2d12",
          "topics": [
            "0xf8e1a15aba9398e019f0b49df1a4fde98ee17ae345cb5f6b5e2c27f5033e8ce7"
          ],
          "data": "0x0000000000000000000000000000000000000000000000000000000000000089",
          "blockHash": "0x13b94876a4d076f29ee322e3b22ca09254f97dba52eb392530ebbaa4caf39ea7",
          "blockNumber": "0x74986a",
          "transactionHash": "0xd7c1d0e2f99c8404f2cd01ee3902ec224cfbdd406e42884bb504a7640c9664e9",
          "transactionIndex": "0x10",
          "logIndex": "0x1f",
          "removed": false
        }
      ],
      "logsBloom": "0x00000000000000000000000000000000000000020000000000000000000000000000000000000000000000000000000000000000000000000000000000000000000000000000000000000008040000000000000000000000000000000000000000000000020000800000000000000800002000000000800000000010000000000400000000000000000000000002000000000000000000000000000000000000000000000000000000000000000000002000000000004000000000000000008000000002000000000000000000000000000000000000000000000000000020000000000000000000200000000000000000000000100000000000000000000000",
      "type": "0x2",
      "transactionHash": "0xd7c1d0e2f99c8404f2cd01ee3902ec224cfbdd406e42884bb504a7640c9664e9",
      "transactionIndex": "0x10",
      "blockHash": "0x13b94876a4d076f29ee322e3b22ca09254f97dba52eb392530ebbaa4caf39ea7",
      "blockNumber": "0x74986a",
      "gasUsed": "0x2b1b6",
      "effectiveGasPrice": "0xfd",
      "from": "0xcda2fdb452ff4f5d7ba1c3d5dfcc9cb926a5eb7d",
      "to": "0x79dfbed14077b8f2421eece5707a17b161094e6a",
      "contractAddress": null,
      "l1BaseFeeScalar": "0x186a0",
      "l1BlobBaseFee": "0x1",
      "l1BlobBaseFeeScalar": "0x95506",
      "l1Fee": "0x10dfa3b2fdd",
      "l1GasPrice": "0x1aff6c519",
      "l1GasUsed": "0x640"
    },
    {
      "status": "0x1",
      "cumulativeGasUsed": "0x2e786d",
      "logs": [
        {
          "address": "0x2e8af9c5922623058aa92a183b391e62cb6b2d12",
          "topics": [
            "0xddf252ad1be2c89b69c2b068fc378daa952ba7f163c4a11628f55a4df523b3ef",
            "0x0000000000000000000000000000000000000000000000000000000000000000",
            "0x000000000000000000000000cda2fdb452ff4f5d7ba1c3d5dfcc9cb926a5eb7d",
            "0x000000000000000000000000000000000000000000000000000000000000008a"
          ],
          "data": "0x",
          "blockHash": "0x13b94876a4d076f29ee322e3b22ca09254f97dba52eb392530ebbaa4caf39ea7",
          "blockNumber": "0x74986a",
          "transactionHash": "0x38b60d6b9734b10b3d7c20b9477f7fe16ae2f3c847d479f7b224565e780de5d8",
          "transactionIndex": "0x11",
          "logIndex": "0x20",
          "removed": false
        },
        {
          "address": "0x2e8af9c5922623058aa92a183b391e62cb6b2d12",
          "topics": [
            "0xf8e1a15aba9398e019f0b49df1a4fde98ee17ae345cb5f6b5e2c27f5033e8ce7"
          ],
          "data": "0x000000000000000000000000000000000000000000000000000000000000008a",
          "blockHash": "0x13b94876a4d076f29ee322e3b22ca09254f97dba52eb392530ebbaa4caf39ea7",
          "blockNumber": "0x74986a",
          "transactionHash": "0x38b60d6b9734b10b3d7c20b9477f7fe16ae2f3c847d479f7b224565e780de5d8",
          "transactionIndex": "0x11",
          "logIndex": "0x21",
          "removed": false
        }
      ],
      "logsBloom": "0x00000000000000000000000000000000000000020000000000000000000000000000000000000000000000000000000000000000000000000000000000000000000000000008000000000008040000000000000000000000000000000000000000000000020000008000000000000800002000000000800000000010000000000000000000000000000000000000000000000000000000080000000000000000000000000000000000000000000000002000000000004000000000000000008000000002000000000000000000000000000000000000000000000000000020000000000000000000200000000000000000000000100000000000000000000000",
      "type": "0x2",
      "transactionHash": "0x38b60d6b9734b10b3d7c20b9477f7fe16ae2f3c847d479f7b224565e780de5d8",
      "transactionIndex": "0x11",
      "blockHash": "0x13b94876a4d076f29ee322e3b22ca09254f97dba52eb392530ebbaa4caf39ea7",
      "blockNumber": "0x74986a",
      "gasUsed": "0x2b1b6",
      "effectiveGasPrice": "0xfd",
      "from": "0xcda2fdb452ff4f5d7ba1c3d5dfcc9cb926a5eb7d",
      "to": "0x79dfbed14077b8f2421eece5707a17b161094e6a",
      "contractAddress": null,
      "l1BaseFeeScalar": "0x186a0",
      "l1BlobBaseFee": "0x1",
      "l1BlobBaseFeeScalar": "0x95506",
      "l1Fee": "0x10dfa3b2fdd",
      "l1GasPrice": "0x1aff6c519",
      "l1GasUsed": "0x640"
    },
    {
      "status": "0x1",
      "cumulativeGasUsed": "0x312a23",
      "logs": [
        {
          "address": "0x2e8af9c5922623058aa92a183b391e62cb6b2d12",
          "topics": [
            "0xddf252ad1be2c89b69c2b068fc378daa952ba7f163c4a11628f55a4df523b3ef",
            "0x0000000000000000000000000000000000000000000000000000000000000000",
            "0x000000000000000000000000cda2fdb452ff4f5d7ba1c3d5dfcc9cb926a5eb7d",
            "0x000000000000000000000000000000000000000000000000000000000000008b"
          ],
          "data": "0x",
          "blockHash": "0x13b94876a4d076f29ee322e3b22ca09254f97dba52eb392530ebbaa4caf39ea7",
          "blockNumber": "0x74986a",
          "transactionHash": "0x1409b63e8b735b8df1cafac20e3195c56ed2ef040e59a5dd4b5089f7ecd08341",
          "transactionIndex": "0x12",
          "logIndex": "0x22",
          "removed": false
        },
        {
          "address": "0x2e8af9c5922623058aa92a183b391e62cb6b2d12",
          "topics": [
            "0xf8e1a15aba9398e019f0b49df1a4fde98ee17ae345cb5f6b5e2c27f5033e8ce7"
          ],
          "data": "0x000000000000000000000000000000000000000000000000000000000000008b",
          "blockHash": "0x13b94876a4d076f29ee322e3b22ca09254f97dba52eb392530ebbaa4caf39ea7",
          "blockNumber": "0x74986a",
          "transactionHash": "0x1409b63e8b735b8df1cafac20e3195c56ed2ef040e59a5dd4b5089f7ecd08341",
          "transactionIndex": "0x12",
          "logIndex": "0x23",
          "removed": false
        }
      ],
      "logsBloom": "0x00000000000000000000000000000000000000020000000000000000000000000000000000000000000000000000000000000000000000000000000000000000000000000000000000000008040000000000000000000000000000000000000000000000020000000000000000000800002000000000800000000010000000000000000000000000000000000000000000000800000000000000000000000000000000000000000000000000000000002000000000004000000000000000008000000202000000000001000000000000000000000000000000000000000020000000000000000000200000000000000000000000100000000000000000000000",
      "type": "0x2",
      "transactionHash": "0x1409b63e8b735b8df1cafac20e3195c56ed2ef040e59a5dd4b5089f7ecd08341",
      "transactionIndex": "0x12",
      "blockHash": "0x13b94876a4d076f29ee322e3b22ca09254f97dba52eb392530ebbaa4caf39ea7",
      "blockNumber": "0x74986a",
      "gasUsed": "0x2b1b6",
      "effectiveGasPrice": "0xfd",
      "from": "0xcda2fdb452ff4f5d7ba1c3d5dfcc9cb926a5eb7d",
      "to": "0x79dfbed14077b8f2421eece5707a17b161094e6a",
      "contractAddress": null,
      "l1BaseFeeScalar": "0x186a0",
      "l1BlobBaseFee": "0x1",
      "l1BlobBaseFeeScalar": "0x95506",
      "l1Fee": "0x10dfa3b2fdd",
      "l1GasPrice": "0x1aff6c519",
      "l1GasUsed": "0x640"
    },
    {
      "status": "0x1",
      "cumulativeGasUsed": "0x33dbd9",
      "logs": [
        {
          "address": "0x2e8af9c5922623058aa92a183b391e62cb6b2d12",
          "topics": [
            "0xddf252ad1be2c89b69c2b068fc378daa952ba7f163c4a11628f55a4df523b3ef",
            "0x0000000000000000000000000000000000000000000000000000000000000000",
            "0x000000000000000000000000cda2fdb452ff4f5d7ba1c3d5dfcc9cb926a5eb7d",
            "0x000000000000000000000000000000000000000000000000000000000000008c"
          ],
          "data": "0x",
          "blockHash": "0x13b94876a4d076f29ee322e3b22ca09254f97dba52eb392530ebbaa4caf39ea7",
          "blockNumber": "0x74986a",
          "transactionHash": "0x48de5850bbde892baa818116ad15e1af2ca8f4fb683116ee7279cd4ccf9247f4",
          "transactionIndex": "0x13",
          "logIndex": "0x24",
          "removed": false
        },
        {
          "address": "0x2e8af9c5922623058aa92a183b391e62cb6b2d12",
          "topics": [
            "0xf8e1a15aba9398e019f0b49df1a4fde98ee17ae345cb5f6b5e2c27f5033e8ce7"
          ],
          "data": "0x000000000000000000000000000000000000000000000000000000000000008c",
          "blockHash": "0x13b94876a4d076f29ee322e3b22ca09254f97dba52eb392530ebbaa4caf39ea7",
          "blockNumber": "0x74986a",
          "transactionHash": "0x48de5850bbde892baa818116ad15e1af2ca8f4fb683116ee7279cd4ccf9247f4",
          "transactionIndex": "0x13",
          "logIndex": "0x25",
          "removed": false
        }
      ],
      "logsBloom": "0x00000000000000000000000000000000000000020000000000008000000000000000000000000000000000000000000000000000000000000000000000000000000000000000040000000008042000000000000000000000000000000000000000000000020000000000000000000800002000000000800000000010000000000000000000000000000000000000000000000000000000000000000000000000000000000000000000000000000000002000000000004000000000000000008000000002000000000000000000000000000000000000000000000000000020000000000000000000200000000000000000000000100000000000000000000000",
      "type": "0x2",
      "transactionHash": "0x48de5850bbde892baa818116ad15e1af2ca8f4fb683116ee7279cd4ccf9247f4",
      "transactionIndex": "0x13",
      "blockHash": "0x13b94876a4d076f29ee322e3b22ca09254f97dba52eb392530ebbaa4caf39ea7",
      "blockNumber": "0x74986a",
      "gasUsed": "0x2b1b6",
      "effectiveGasPrice": "0xfd",
      "from": "0xcda2fdb452ff4f5d7ba1c3d5dfcc9cb926a5eb7d",
      "to": "0x79dfbed14077b8f2421eece5707a17b161094e6a",
      "contractAddress": null,
      "l1BaseFeeScalar": "0x186a0",
      "l1BlobBaseFee": "0x1",
      "l1BlobBaseFeeScalar": "0x95506",
      "l1Fee": "0x10dfa3b2fdd",
      "l1GasPrice": "0x1aff6c519",
      "l1GasUsed": "0x640"
    },
    {
      "status": "0x1",
      "cumulativeGasUsed": "0x368d8f",
      "logs": [
        {
          "address": "0x2e8af9c5922623058aa92a183b391e62cb6b2d12",
          "topics": [
            "0xddf252ad1be2c89b69c2b068fc378daa952ba7f163c4a11628f55a4df523b3ef",
            "0x0000000000000000000000000000000000000000000000000000000000000000",
            "0x000000000000000000000000cda2fdb452ff4f5d7ba1c3d5dfcc9cb926a5eb7d",
            "0x000000000000000000000000000000000000000000000000000000000000008d"
          ],
          "data": "0x",
          "blockHash": "0x13b94876a4d076f29ee322e3b22ca09254f97dba52eb392530ebbaa4caf39ea7",
          "blockNumber": "0x74986a",
          "transactionHash": "0xe93e2899eca0f0232026c4d8c4f55f6aa69f23b1584abce63846f4e7da0b61ae",
          "transactionIndex": "0x14",
          "logIndex": "0x26",
          "removed": false
        },
        {
          "address": "0x2e8af9c5922623058aa92a183b391e62cb6b2d12",
          "topics": [
            "0xf8e1a15aba9398e019f0b49df1a4fde98ee17ae345cb5f6b5e2c27f5033e8ce7"
          ],
          "data": "0x000000000000000000000000000000000000000000000000000000000000008d",
          "blockHash": "0x13b94876a4d076f29ee322e3b22ca09254f97dba52eb392530ebbaa4caf39ea7",
          "blockNumber": "0x74986a",
          "transactionHash": "0xe93e2899eca0f0232026c4d8c4f55f6aa69f23b1584abce63846f4e7da0b61ae",
          "transactionIndex": "0x14",
          "logIndex": "0x27",
          "removed": false
        }
      ],
      "logsBloom": "0x00000000000000000000000200000000000000020000000000000000000000000000000000000000000000000000000000000000000000000000040000000000000000000000000000000008040000000000000000000000000000000000000000000000020000000000000000000800002000000000800000000010000000000000000000000000000000000000000000000000000000000000000000000000000000000000000000000000000000002000000000004000000000000000008000000002000000000000000000000000000000000000000000000000000020000000000004000000200000000000000000000000100000000000000000000000",
      "type": "0x2",
      "transactionHash": "0xe93e2899eca0f0232026c4d8c4f55f6aa69f23b1584abce63846f4e7da0b61ae",
      "transactionIndex": "0x14",
      "blockHash": "0x13b94876a4d076f29ee322e3b22ca09254f97dba52eb392530ebbaa4caf39ea7",
      "blockNumber": "0x74986a",
      "gasUsed": "0x2b1b6",
      "effectiveGasPrice": "0xfd",
      "from": "0xcda2fdb452ff4f5d7ba1c3d5dfcc9cb926a5eb7d",
      "to": "0x79dfbed14077b8f2421eece5707a17b161094e6a",
      "contractAddress": null,
      "l1BaseFeeScalar": "0x186a0",
      "l1BlobBaseFee": "0x1",
      "l1BlobBaseFeeScalar": "0x95506",
      "l1Fee": "0x10dfa3b2fdd",
      "l1GasPrice": "0x1aff6c519",
      "l1GasUsed": "0x640"
    },
    {
      "status": "0x1",
      "cumulativeGasUsed": "0x393f45",
      "logs": [
        {
          "address": "0x2e8af9c5922623058aa92a183b391e62cb6b2d12",
          "topics": [
            "0xddf252ad1be2c89b69c2b068fc378daa952ba7f163c4a11628f55a4df523b3ef",
            "0x0000000000000000000000000000000000000000000000000000000000000000",
            "0x000000000000000000000000cda2fdb452ff4f5d7ba1c3d5dfcc9cb926a5eb7d",
            "0x000000000000000000000000000000000000000000000000000000000000008e"
          ],
          "data": "0x",
          "blockHash": "0x13b94876a4d076f29ee322e3b22ca09254f97dba52eb392530ebbaa4caf39ea7",
          "blockNumber": "0x74986a",
          "transactionHash": "0x6d742aa1c2abfa9506e940af28d3352f0d8a78adc9a35023a1b18ef348f3f2fd",
          "transactionIndex": "0x15",
          "logIndex": "0x28",
          "removed": false
        },
        {
          "address": "0x2e8af9c5922623058aa92a183b391e62cb6b2d12",
          "topics": [
            "0xf8e1a15aba9398e019f0b49df1a4fde98ee17ae345cb5f6b5e2c27f5033e8ce7"
          ],
          "data": "0x000000000000000000000000000000000000000000000000000000000000008e",
          "blockHash": "0x13b94876a4d076f29ee322e3b22ca09254f97dba52eb392530ebbaa4caf39ea7",
          "blockNumber": "0x74986a",
          "transactionHash": "0x6d742aa1c2abfa9506e940af28d3352f0d8a78adc9a35023a1b18ef348f3f2fd",
          "transactionIndex": "0x15",
          "logIndex": "0x29",
          "removed": false
        }
      ],
      "logsBloom": "0x00000000000000000000000000000000000000020000000000000000000000000000000020000000000000000000000000000000000000000000000000000000000000000000000000000008040000000000000000000000000000000000000000000000020000000000000000000800002000000000800000000010000000000000000000000000000000000000000000000000000000000000000000000000000000000000000000000000000000002000000000004000000000000000008080000002000000000000000000000000000000000000000000000000000020000000000000000000200000000000000000000000100000000004000000000000",
      "type": "0x2",
      "transactionHash": "0x6d742aa1c2abfa9506e940af28d3352f0d8a78adc9a35023a1b18ef348f3f2fd",
      "transactionIndex": "0x15",
      "blockHash": "0x13b94876a4d076f29ee322e3b22ca09254f97dba52eb392530ebbaa4caf39ea7",
      "blockNumber": "0x74986a",
      "gasUsed": "0x2b1b6",
      "effectiveGasPrice": "0xfd",
      "from": "0xcda2fdb452ff4f5d7ba1c3d5dfcc9cb926a5eb7d",
      "to": "0x79dfbed14077b8f2421eece5707a17b161094e6a",
      "contractAddress": null,
      "l1BaseFeeScalar": "0x186a0",
      "l1BlobBaseFee": "0x1",
      "l1BlobBaseFeeScalar": "0x95506",
      "l1Fee": "0x10dfa3b2fdd",
      "l1GasPrice": "0x1aff6c519",
      "l1GasUsed": "0x640"
    },
    {
      "status": "0x1",
      "cumulativeGasUsed": "0x3bf0fb",
      "logs": [
        {
          "address": "0x2e8af9c5922623058aa92a183b391e62cb6b2d12",
          "topics": [
            "0xddf252ad1be2c89b69c2b068fc378daa952ba7f163c4a11628f55a4df523b3ef",
            "0x0000000000000000000000000000000000000000000000000000000000000000",
            "0x000000000000000000000000cda2fdb452ff4f5d7ba1c3d5dfcc9cb926a5eb7d",
            "0x000000000000000000000000000000000000000000000000000000000000008f"
          ],
          "data": "0x",
          "blockHash": "0x13b94876a4d076f29ee322e3b22ca09254f97dba52eb392530ebbaa4caf39ea7",
          "blockNumber": "0x74986a",
          "transactionHash": "0x4307025ba540104f9217e1c46820ee5e858824432e02d246534d32a526f5dcc8",
          "transactionIndex": "0x16",
          "logIndex": "0x2a",
          "removed": false
        },
        {
          "address": "0x2e8af9c5922623058aa92a183b391e62cb6b2d12",
          "topics": [
            "0xf8e1a15aba9398e019f0b49df1a4fde98ee17ae345cb5f6b5e2c27f5033e8ce7"
          ],
          "data": "0x000000000000000000000000000000000000000000000000000000000000008f",
          "blockHash": "0x13b94876a4d076f29ee322e3b22ca09254f97dba52eb392530ebbaa4caf39ea7",
          "blockNumber": "0x74986a",
          "transactionHash": "0x4307025ba540104f9217e1c46820ee5e858824432e02d246534d32a526f5dcc8",
          "transactionIndex": "0x16",
          "logIndex": "0x2b",
          "removed": false
        }
      ],
      "logsBloom": "0x00000000000000000000000000000000000000020000000000000000000000000000000000000000000000000000000000000000000000000000000000000000000000000000000000000008040000000000000000000000000000000000000000000000020000000000000000000800002000000000800000000010000000000000000000000000000000000000000080000000000000000000000400000000000000000000000000000000000000002000000000004000000000000000008000000002000000000000000000000000000000000000000000000000000820000000000000000000200000000000000000000000100000000000000000000000",
      "type": "0x2",
      "transactionHash": "0x4307025ba540104f9217e1c46820ee5e858824432e02d246534d32a526f5dcc8",
      "transactionIndex": "0x16",
      "blockHash": "0x13b94876a4d076f29ee322e3b22ca09254f97dba52eb392530ebbaa4caf39ea7",
      "blockNumber": "0x74986a",
      "gasUsed": "0x2b1b6",
      "effectiveGasPrice": "0xfd",
      "from": "0xcda2fdb452ff4f5d7ba1c3d5dfcc9cb926a5eb7d",
      "to": "0x79dfbed14077b8f2421eece5707a17b161094e6a",
      "contractAddress": null,
      "l1BaseFeeScalar": "0x186a0",
      "l1BlobBaseFee": "0x1",
      "l1BlobBaseFeeScalar": "0x95506",
      "l1Fee": "0x10dfa3b2fdd",
      "l1GasPrice": "0x1aff6c519",
      "l1GasUsed": "0x640"
    },
    {
      "status": "0x1",
      "cumulativeGasUsed": "0x3ea2b1",
      "logs": [
        {
          "address": "0x2e8af9c5922623058aa92a183b391e62cb6b2d12",
          "topics": [
            "0xddf252ad1be2c89b69c2b068fc378daa952ba7f163c4a11628f55a4df523b3ef",
            "0x0000000000000000000000000000000000000000000000000000000000000000",
            "0x000000000000000000000000cda2fdb452ff4f5d7ba1c3d5dfcc9cb926a5eb7d",
            "0x0000000000000000000000000000000000000000000000000000000000000090"
          ],
          "data": "0x",
          "blockHash": "0x13b94876a4d076f29ee322e3b22ca09254f97dba52eb392530ebbaa4caf39ea7",
          "blockNumber": "0x74986a",
          "transactionHash": "0x1dfa403f60e98e49cd7ebde3d2e55e2cfa18697fba6ee3854a35b006bda1901b",
          "transactionIndex": "0x17",
          "logIndex": "0x2c",
          "removed": false
        },
        {
          "address": "0x2e8af9c5922623058aa92a183b391e62cb6b2d12",
          "topics": [
            "0xf8e1a15aba9398e019f0b49df1a4fde98ee17ae345cb5f6b5e2c27f5033e8ce7"
          ],
          "data": "0x0000000000000000000000000000000000000000000000000000000000000090",
          "blockHash": "0x13b94876a4d076f29ee322e3b22ca09254f97dba52eb392530ebbaa4caf39ea7",
          "blockNumber": "0x74986a",
          "transactionHash": "0x1dfa403f60e98e49cd7ebde3d2e55e2cfa18697fba6ee3854a35b006bda1901b",
          "transactionIndex": "0x17",
          "logIndex": "0x2d",
          "removed": false
        }
      ],
      "logsBloom": "0x00000000000000000000000000000000000000020000000000000000000000000000000000000000000000000000000000000000000000000000000000000000000000000000000000000008040000000000000000000000000000000000000000000000020000000000000000000800002000000000800000000010000000000000000000000000000000000000000000000000000000000000002000000000000000000000000000000000000000002000000000004000000000000000008000000002000000000000000000000000000000000000000000000000000020000200000000000000200200000000000000000000100000000000000000000000",
      "type": "0x2",
      "transactionHash": "0x1dfa403f60e98e49cd7ebde3d2e55e2cfa18697fba6ee3854a35b006bda1901b",
      "transactionIndex": "0x17",
      "blockHash": "0x13b94876a4d076f29ee322e3b22ca09254f97dba52eb392530ebbaa4caf39ea7",
      "blockNumber": "0x74986a",
      "gasUsed": "0x2b1b6",
      "effectiveGasPrice": "0xfd",
      "from": "0xcda2fdb452ff4f5d7ba1c3d5dfcc9cb926a5eb7d",
      "to": "0x79dfbed14077b8f2421eece5707a17b161094e6a",
      "contractAddress": null,
      "l1BaseFeeScalar": "0x186a0",
      "l1BlobBaseFee": "0x1",
      "l1BlobBaseFeeScalar": "0x95506",
      "l1Fee": "0x10dfa3b2fdd",
      "l1GasPrice": "0x1aff6c519",
      "l1GasUsed": "0x640"
    },
    {
      "status": "0x1",
      "cumulativeGasUsed": "0x415467",
      "logs": [
        {
          "address": "0x2e8af9c5922623058aa92a183b391e62cb6b2d12",
          "topics": [
            "0xddf252ad1be2c89b69c2b068fc378daa952ba7f163c4a11628f55a4df523b3ef",
            "0x0000000000000000000000000000000000000000000000000000000000000000",
            "0x000000000000000000000000cda2fdb452ff4f5d7ba1c3d5dfcc9cb926a5eb7d",
            "0x0000000000000000000000000000000000000000000000000000000000000091"
          ],
          "data": "0x",
          "blockHash": "0x13b94876a4d076f29ee322e3b22ca09254f97dba52eb392530ebbaa4caf39ea7",
          "blockNumber": "0x74986a",
          "transactionHash": "0x57ac8d09b52b967ea4d693d6415cb43d08b738d48512e45a642baeed7b2a86a4",
          "transactionIndex": "0x18",
          "logIndex": "0x2e",
          "removed": false
        },
        {
          "address": "0x2e8af9c5922623058aa92a183b391e62cb6b2d12",
          "topics": [
            "0xf8e1a15aba9398e019f0b49df1a4fde98ee17ae345cb5f6b5e2c27f5033e8ce7"
          ],
          "data": "0x0000000000000000000000000000000000000000000000000000000000000091",
          "blockHash": "0x13b94876a4d076f29ee322e3b22ca09254f97dba52eb392530ebbaa4caf39ea7",
          "blockNumber": "0x74986a",
          "transactionHash": "0x57ac8d09b52b967ea4d693d6415cb43d08b738d48512e45a642baeed7b2a86a4",
          "transactionIndex": "0x18",
          "logIndex": "0x2f",
          "removed": false
        }
      ],
      "logsBloom": "0x00000000000000000000000000000000000000020000000000000000000000000000000000000000000000000000000000000000000000000000000000000000000000000000000000004008040000000000080000000000000000000000000000000000020000000000000000000800002000000000800000000010000000000000000000000000000000000000000000000000000000000000000000000000000000000000000000000000000000002000000000004000000000000000008000000002000000000000000000000000000000000000000000000000000020000000000000000000200000000000000000000000100040000000000000000000",
      "type": "0x2",
      "transactionHash": "0x57ac8d09b52b967ea4d693d6415cb43d08b738d48512e45a642baeed7b2a86a4",
      "transactionIndex": "0x18",
      "blockHash": "0x13b94876a4d076f29ee322e3b22ca09254f97dba52eb392530ebbaa4caf39ea7",
      "blockNumber": "0x74986a",
      "gasUsed": "0x2b1b6",
      "effectiveGasPrice": "0xfd",
      "from": "0xcda2fdb452ff4f5d7ba1c3d5dfcc9cb926a5eb7d",
      "to": "0x79dfbed14077b8f2421eece5707a17b161094e6a",
      "contractAddress": null,
      "l1BaseFeeScalar": "0x186a0",
      "l1BlobBaseFee": "0x1",
      "l1BlobBaseFeeScalar": "0x95506",
      "l1Fee": "0x10dfa3b2fdd",
      "l1GasPrice": "0x1aff6c519",
      "l1GasUsed": "0x640"
    },
    {
      "status": "0x1",
      "cumulativeGasUsed": "0x44061d",
      "logs": [
        {
          "address": "0x2e8af9c5922623058aa92a183b391e62cb6b2d12",
          "topics": [
            "0xddf252ad1be2c89b69c2b068fc378daa952ba7f163c4a11628f55a4df523b3ef",
            "0x0000000000000000000000000000000000000000000000000000000000000000",
            "0x000000000000000000000000cda2fdb452ff4f5d7ba1c3d5dfcc9cb926a5eb7d",
            "0x0000000000000000000000000000000000000000000000000000000000000092"
          ],
          "data": "0x",
          "blockHash": "0x13b94876a4d076f29ee322e3b22ca09254f97dba52eb392530ebbaa4caf39ea7",
          "blockNumber": "0x74986a",
          "transactionHash": "0x59595ff932821a73a7c9826208e6f5e293655d82187ebabec6f302b320c0aa6b",
          "transactionIndex": "0x19",
          "logIndex": "0x30",
          "removed": false
        },
        {
          "address": "0x2e8af9c5922623058aa92a183b391e62cb6b2d12",
          "topics": [
            "0xf8e1a15aba9398e019f0b49df1a4fde98ee17ae345cb5f6b5e2c27f5033e8ce7"
          ],
          "data": "0x0000000000000000000000000000000000000000000000000000000000000092",
          "blockHash": "0x13b94876a4d076f29ee322e3b22ca09254f97dba52eb392530ebbaa4caf39ea7",
          "blockNumber": "0x74986a",
          "transactionHash": "0x59595ff932821a73a7c9826208e6f5e293655d82187ebabec6f302b320c0aa6b",
          "transactionIndex": "0x19",
          "logIndex": "0x31",
          "removed": false
        }
      ],
      "logsBloom": "0x00000000000000000000000000000000000000020000000000000000000000000000000000000000000000000000000000000000000000200000000000000000000000000000000000000008040000000000000000000000000000000000000000000000020000000000000000000800002000000000800000000010000000000000000000000000000000000000000000000000000000000000000000000000000000000000000000000000000000002000000000004000000000000000008000000002000000000000000000000000000000000000000000000000000020000000000000000000200000000000000000000000100001020000000000000000",
      "type": "0x2",
      "transactionHash": "0x59595ff932821a73a7c9826208e6f5e293655d82187ebabec6f302b320c0aa6b",
      "transactionIndex": "0x19",
      "blockHash": "0x13b94876a4d076f29ee322e3b22ca09254f97dba52eb392530ebbaa4caf39ea7",
      "blockNumber": "0x74986a",
      "gasUsed": "0x2b1b6",
      "effectiveGasPrice": "0xfd",
      "from": "0xcda2fdb452ff4f5d7ba1c3d5dfcc9cb926a5eb7d",
      "to": "0x79dfbed14077b8f2421eece5707a17b161094e6a",
      "contractAddress": null,
      "l1BaseFeeScalar": "0x186a0",
      "l1BlobBaseFee": "0x1",
      "l1BlobBaseFeeScalar": "0x95506",
      "l1Fee": "0x10dfa3b2fdd",
      "l1GasPrice": "0x1aff6c519",
      "l1GasUsed": "0x640"
    },
    {
      "status": "0x1",
      "cumulativeGasUsed": "0x46b7d3",
      "logs": [
        {
          "address": "0x2e8af9c5922623058aa92a183b391e62cb6b2d12",
          "topics": [
            "0xddf252ad1be2c89b69c2b068fc378daa952ba7f163c4a11628f55a4df523b3ef",
            "0x0000000000000000000000000000000000000000000000000000000000000000",
            "0x000000000000000000000000cda2fdb452ff4f5d7ba1c3d5dfcc9cb926a5eb7d",
            "0x0000000000000000000000000000000000000000000000000000000000000093"
          ],
          "data": "0x",
          "blockHash": "0x13b94876a4d076f29ee322e3b22ca09254f97dba52eb392530ebbaa4caf39ea7",
          "blockNumber": "0x74986a",
          "transactionHash": "0xc3f0a29c0b1baae3ad5624a62b41505f3ce04817ad3b776f6ba5a366a4b41149",
          "transactionIndex": "0x1a",
          "logIndex": "0x32",
          "removed": false
        },
        {
          "address": "0x2e8af9c5922623058aa92a183b391e62cb6b2d12",
          "topics": [
            "0xf8e1a15aba9398e019f0b49df1a4fde98ee17ae345cb5f6b5e2c27f5033e8ce7"
          ],
          "data": "0x0000000000000000000000000000000000000000000000000000000000000093",
          "blockHash": "0x13b94876a4d076f29ee322e3b22ca09254f97dba52eb392530ebbaa4caf39ea7",
          "blockNumber": "0x74986a",
          "transactionHash": "0xc3f0a29c0b1baae3ad5624a62b41505f3ce04817ad3b776f6ba5a366a4b41149",
          "transactionIndex": "0x1a",
          "logIndex": "0x33",
          "removed": false
        }
      ],
      "logsBloom": "0x00000000000000000000000000000000000000020000000000000000000000000000000000000000000000000000000000000000000000000000000000000000000000000000000000000008040000000000000000000000000000000000000000000000020000000000010000000800002000000000800008000010000000000000000000000000000000000000000000000000000000000000000000000000000000000000000000000000000000002000000000004000000000000000008000000002000000000000000000000000000000000000000000000000000020000000000004000000200000000000000000000000100000000000000000000000",
      "type": "0x2",
      "transactionHash": "0xc3f0a29c0b1baae3ad5624a62b41505f3ce04817ad3b776f6ba5a366a4b41149",
      "transactionIndex": "0x1a",
      "blockHash": "0x13b94876a4d076f29ee322e3b22ca09254f97dba52eb392530ebbaa4caf39ea7",
      "blockNumber": "0x74986a",
      "gasUsed": "0x2b1b6",
      "effectiveGasPrice": "0xfd",
      "from": "0xcda2fdb452ff4f5d7ba1c3d5dfcc9cb926a5eb7d",
      "to": "0x79dfbed14077b8f2421eece5707a17b161094e6a",
      "contractAddress": null,
      "l1BaseFeeScalar": "0x186a0",
      "l1BlobBaseFee": "0x1",
      "l1BlobBaseFeeScalar": "0x95506",
      "l1Fee": "0x10dfa3b2fdd",
      "l1GasPrice": "0x1aff6c519",
      "l1GasUsed": "0x640"
    },
    {
      "status": "0x1",
      "cumulativeGasUsed": "0x496989",
      "logs": [
        {
          "address": "0x2e8af9c5922623058aa92a183b391e62cb6b2d12",
          "topics": [
            "0xddf252ad1be2c89b69c2b068fc378daa952ba7f163c4a11628f55a4df523b3ef",
            "0x0000000000000000000000000000000000000000000000000000000000000000",
            "0x000000000000000000000000cda2fdb452ff4f5d7ba1c3d5dfcc9cb926a5eb7d",
            "0x0000000000000000000000000000000000000000000000000000000000000094"
          ],
          "data": "0x",
          "blockHash": "0x13b94876a4d076f29ee322e3b22ca09254f97dba52eb392530ebbaa4caf39ea7",
          "blockNumber": "0x74986a",
          "transactionHash": "0xecfbe07d2930d4d745f1ddb3c31185c3d6544c53cd6ef76508ed0bbc5db848ea",
          "transactionIndex": "0x1b",
          "logIndex": "0x34",
          "removed": false
        },
        {
          "address": "0x2e8af9c5922623058aa92a183b391e62cb6b2d12",
          "topics": [
            "0xf8e1a15aba9398e019f0b49df1a4fde98ee17ae345cb5f6b5e2c27f5033e8ce7"
          ],
          "data": "0x0000000000000000000000000000000000000000000000000000000000000094",
          "blockHash": "0x13b94876a4d076f29ee322e3b22ca09254f97dba52eb392530ebbaa4caf39ea7",
          "blockNumber": "0x74986a",
          "transactionHash": "0xecfbe07d2930d4d745f1ddb3c31185c3d6544c53cd6ef76508ed0bbc5db848ea",
          "transactionIndex": "0x1b",
          "logIndex": "0x35",
          "removed": false
        }
      ],
      "logsBloom": "0x00000000000000000000000000000000000000020000000000000000000000000000000000000000000000000000000000000000000000000000000000000000000000000000000000000008040000000000000000000000000000000000000000000000020000000000000000000800002000000000800000000010000000000000000000001000000000000000000000000000000000000000000000000000000000000000000000000000000000002040000000004000000000000000008000000002000000000000000000000000000000000000000000000000000020000000000000000000200000000000000000000000100000800000000000000000",
      "type": "0x2",
      "transactionHash": "0xecfbe07d2930d4d745f1ddb3c31185c3d6544c53cd6ef76508ed0bbc5db848ea",
      "transactionIndex": "0x1b",
      "blockHash": "0x13b94876a4d076f29ee322e3b22ca09254f97dba52eb392530ebbaa4caf39ea7",
      "blockNumber": "0x74986a",
      "gasUsed": "0x2b1b6",
      "effectiveGasPrice": "0xfd",
      "from": "0xcda2fdb452ff4f5d7ba1c3d5dfcc9cb926a5eb7d",
      "to": "0x79dfbed14077b8f2421eece5707a17b161094e6a",
      "contractAddress": null,
      "l1BaseFeeScalar": "0x186a0",
      "l1BlobBaseFee": "0x1",
      "l1BlobBaseFeeScalar": "0x95506",
      "l1Fee": "0x10dfa3b2fdd",
      "l1GasPrice": "0x1aff6c519",
      "l1GasUsed": "0x640"
    },
    {
      "status": "0x1",
      "cumulativeGasUsed": "0x4c1b3f",
      "logs": [
        {
          "address": "0x2e8af9c5922623058aa92a183b391e62cb6b2d12",
          "topics": [
            "0xddf252ad1be2c89b69c2b068fc378daa952ba7f163c4a11628f55a4df523b3ef",
            "0x0000000000000000000000000000000000000000000000000000000000000000",
            "0x000000000000000000000000cda2fdb452ff4f5d7ba1c3d5dfcc9cb926a5eb7d",
            "0x0000000000000000000000000000000000000000000000000000000000000095"
          ],
          "data": "0x",
          "blockHash": "0x13b94876a4d076f29ee322e3b22ca09254f97dba52eb392530ebbaa4caf39ea7",
          "blockNumber": "0x74986a",
          "transactionHash": "0x748b4e11130af725ec12855b0b05ae5d67d6edf6018c06640bede657b75829b5",
          "transactionIndex": "0x1c",
          "logIndex": "0x36",
          "removed": false
        },
        {
          "address": "0x2e8af9c5922623058aa92a183b391e62cb6b2d12",
          "topics": [
            "0xf8e1a15aba9398e019f0b49df1a4fde98ee17ae345cb5f6b5e2c27f5033e8ce7"
          ],
          "data": "0x0000000000000000000000000000000000000000000000000000000000000095",
          "blockHash": "0x13b94876a4d076f29ee322e3b22ca09254f97dba52eb392530ebbaa4caf39ea7",
          "blockNumber": "0x74986a",
          "transactionHash": "0x748b4e11130af725ec12855b0b05ae5d67d6edf6018c06640bede657b75829b5",
          "transactionIndex": "0x1c",
          "logIndex": "0x37",
          "removed": false
        }
      ],
      "logsBloom": "0x00000000000000000000000000000000000000020000000000000000000000000000000000000000000000000000000000000000000000000000000000000000000002000000000000000008040000000000000000000000000000000000800000000000020000000000000000000800002100000000800000000010000000000000000000000000000000000000000000000000000000000000000000000000000000000000000000000000000000002000000000004000000000000000008000000002000000000000000000000000000000000000000000000000000020000000000000000000200000000000000000000000100000000000000000000000",
      "type": "0x2",
      "transactionHash": "0x748b4e11130af725ec12855b0b05ae5d67d6edf6018c06640bede657b75829b5",
      "transactionIndex": "0x1c",
      "blockHash": "0x13b94876a4d076f29ee322e3b22ca09254f97dba52eb392530ebbaa4caf39ea7",
      "blockNumber": "0x74986a",
      "gasUsed": "0x2b1b6",
      "effectiveGasPrice": "0xfd",
      "from": "0xcda2fdb452ff4f5d7ba1c3d5dfcc9cb926a5eb7d",
      "to": "0x79dfbed14077b8f2421eece5707a17b161094e6a",
      "contractAddress": null,
      "l1BaseFeeScalar": "0x186a0",
      "l1BlobBaseFee": "0x1",
      "l1BlobBaseFeeScalar": "0x95506",
      "l1Fee": "0x10dfa3b2fdd",
      "l1GasPrice": "0x1aff6c519",
      "l1GasUsed": "0x640"
    },
    {
      "status": "0x1",
      "cumulativeGasUsed": "0x4eccf5",
      "logs": [
        {
          "address": "0x2e8af9c5922623058aa92a183b391e62cb6b2d12",
          "topics": [
            "0xddf252ad1be2c89b69c2b068fc378daa952ba7f163c4a11628f55a4df523b3ef",
            "0x0000000000000000000000000000000000000000000000000000000000000000",
            "0x000000000000000000000000cda2fdb452ff4f5d7ba1c3d5dfcc9cb926a5eb7d",
            "0x0000000000000000000000000000000000000000000000000000000000000096"
          ],
          "data": "0x",
          "blockHash": "0x13b94876a4d076f29ee322e3b22ca09254f97dba52eb392530ebbaa4caf39ea7",
          "blockNumber": "0x74986a",
          "transactionHash": "0x02c82690fb97ec213d304ab1a03cd3e39496427a33f6c54dca760fe8232fa4e5",
          "transactionIndex": "0x1d",
          "logIndex": "0x38",
          "removed": false
        },
        {
          "address": "0x2e8af9c5922623058aa92a183b391e62cb6b2d12",
          "topics": [
            "0xf8e1a15aba9398e019f0b49df1a4fde98ee17ae345cb5f6b5e2c27f5033e8ce7"
          ],
          "data": "0x0000000000000000000000000000000000000000000000000000000000000096",
          "blockHash": "0x13b94876a4d076f29ee322e3b22ca09254f97dba52eb392530ebbaa4caf39ea7",
          "blockNumber": "0x74986a",
          "transactionHash": "0x02c82690fb97ec213d304ab1a03cd3e39496427a33f6c54dca760fe8232fa4e5",
          "transactionIndex": "0x1d",
          "logIndex": "0x39",
          "removed": false
        }
      ],
      "logsBloom": "0x00000000000000000000000000000000000000020000000000000000000000000000000000000000000000000000000000000000000000000000000000000000000000000000000000000008040000000000000000000000000000000000000000000000020000000000000000000c00002000000000800000000010000000000000000000000000000000000000000000000000000000000000000000000000000000000000000000000280000000002000000000004000000000000000008000000002000000000000000000000000000000000000000000000000000020000000000000000000200000000000000000000000100000000000000000000000",
      "type": "0x2",
      "transactionHash": "0x02c82690fb97ec213d304ab1a03cd3e39496427a33f6c54dca760fe8232fa4e5",
      "transactionIndex": "0x1d",
      "blockHash": "0x13b94876a4d076f29ee322e3b22ca09254f97dba52eb392530ebbaa4caf39ea7",
      "blockNumber": "0x74986a",
      "gasUsed": "0x2b1b6",
      "effectiveGasPrice": "0xfd",
      "from": "0xcda2fdb452ff4f5d7ba1c3d5dfcc9cb926a5eb7d",
      "to": "0x79dfbed14077b8f2421eece5707a17b161094e6a",
      "contractAddress": null,
      "l1BaseFeeScalar": "0x186a0",
      "l1BlobBaseFee": "0x1",
      "l1BlobBaseFeeScalar": "0x95506",
      "l1Fee": "0x10dfa3b2fdd",
      "l1GasPrice": "0x1aff6c519",
      "l1GasUsed": "0x640"
    },
    {
      "status": "0x1",
      "cumulativeGasUsed": "0x517eab",
      "logs": [
        {
          "address": "0x2e8af9c5922623058aa92a183b391e62cb6b2d12",
          "topics": [
            "0xddf252ad1be2c89b69c2b068fc378daa952ba7f163c4a11628f55a4df523b3ef",
            "0x0000000000000000000000000000000000000000000000000000000000000000",
            "0x000000000000000000000000cda2fdb452ff4f5d7ba1c3d5dfcc9cb926a5eb7d",
            "0x0000000000000000000000000000000000000000000000000000000000000097"
          ],
          "data": "0x",
          "blockHash": "0x13b94876a4d076f29ee322e3b22ca09254f97dba52eb392530ebbaa4caf39ea7",
          "blockNumber": "0x74986a",
          "transactionHash": "0x0d0d245607c26e723c7f9c01b2c9063e74d13fd0410111dbebde305beeff5db7",
          "transactionIndex": "0x1e",
          "logIndex": "0x3a",
          "removed": false
        },
        {
          "address": "0x2e8af9c5922623058aa92a183b391e62cb6b2d12",
          "topics": [
            "0xf8e1a15aba9398e019f0b49df1a4fde98ee17ae345cb5f6b5e2c27f5033e8ce7"
          ],
          "data": "0x0000000000000000000000000000000000000000000000000000000000000097",
          "blockHash": "0x13b94876a4d076f29ee322e3b22ca09254f97dba52eb392530ebbaa4caf39ea7",
          "blockNumber": "0x74986a",
          "transactionHash": "0x0d0d245607c26e723c7f9c01b2c9063e74d13fd0410111dbebde305beeff5db7",
          "transactionIndex": "0x1e",
          "logIndex": "0x3b",
          "removed": false
        }
      ],
      "logsBloom": "0x00000000000000000000000000000000000000020000000000000000000000000000000000000000000000000000000000000000000000000000000000000000000000000000000000000008040000000000000000000400000000000000000000000000020000000000000000000800002000000000800000000010000000000000200000000000000000000000000000000000000000000000000000000000000000000000000000000000000000002000000000004000000000000000008000000002000000000000000000000100000000000000000000000000000020000000000000000000200000000000000000000000100000000000000000000000",
      "type": "0x2",
      "transactionHash": "0x0d0d245607c26e723c7f9c01b2c9063e74d13fd0410111dbebde305beeff5db7",
      "transactionIndex": "0x1e",
      "blockHash": "0x13b94876a4d076f29ee322e3b22ca09254f97dba52eb392530ebbaa4caf39ea7",
      "blockNumber": "0x74986a",
      "gasUsed": "0x2b1b6",
      "effectiveGasPrice": "0xfd",
      "from": "0xcda2fdb452ff4f5d7ba1c3d5dfcc9cb926a5eb7d",
      "to": "0x79dfbed14077b8f2421eece5707a17b161094e6a",
      "contractAddress": null,
      "l1BaseFeeScalar": "0x186a0",
      "l1BlobBaseFee": "0x1",
      "l1BlobBaseFeeScalar": "0x95506",
      "l1Fee": "0x10dfa3b2fdd",
      "l1GasPrice": "0x1aff6c519",
      "l1GasUsed": "0x640"
    },
    {
      "status": "0x1",
      "cumulativeGasUsed": "0x543061",
      "logs": [
        {
          "address": "0x2e8af9c5922623058aa92a183b391e62cb6b2d12",
          "topics": [
            "0xddf252ad1be2c89b69c2b068fc378daa952ba7f163c4a11628f55a4df523b3ef",
            "0x0000000000000000000000000000000000000000000000000000000000000000",
            "0x000000000000000000000000cda2fdb452ff4f5d7ba1c3d5dfcc9cb926a5eb7d",
            "0x0000000000000000000000000000000000000000000000000000000000000098"
          ],
          "data": "0x",
          "blockHash": "0x13b94876a4d076f29ee322e3b22ca09254f97dba52eb392530ebbaa4caf39ea7",
          "blockNumber": "0x74986a",
          "transactionHash": "0x254f06d7dd367b5b33292e081ca2867711d708193a74e46ebc6a095e27b6e1b1",
          "transactionIndex": "0x1f",
          "logIndex": "0x3c",
          "removed": false
        },
        {
          "address": "0x2e8af9c5922623058aa92a183b391e62cb6b2d12",
          "topics": [
            "0xf8e1a15aba9398e019f0b49df1a4fde98ee17ae345cb5f6b5e2c27f5033e8ce7"
          ],
          "data": "0x0000000000000000000000000000000000000000000000000000000000000098",
          "blockHash": "0x13b94876a4d076f29ee322e3b22ca09254f97dba52eb392530ebbaa4caf39ea7",
          "blockNumber": "0x74986a",
          "transactionHash": "0x254f06d7dd367b5b33292e081ca2867711d708193a74e46ebc6a095e27b6e1b1",
          "transactionIndex": "0x1f",
          "logIndex": "0x3d",
          "removed": false
        }
      ],
      "logsBloom": "0x00000000000000000000000000000000000000020000000000000000000000000000000000000000000000000000000000000000000000000000000000000000000000000000000000000008040000000000000000000000000000000000000000000000020000000000000000000800002000000000800000000010000000000000000000000000000000000000000000000000000000000000000000000000000000000000000000000000004000002000000000004000008000000000008000000002000000000000000000000000004000000000000000000000000020000000000000000000200000000000000000000000100000000000000000000000",
      "type": "0x2",
      "transactionHash": "0x254f06d7dd367b5b33292e081ca2867711d708193a74e46ebc6a095e27b6e1b1",
      "transactionIndex": "0x1f",
      "blockHash": "0x13b94876a4d076f29ee322e3b22ca09254f97dba52eb392530ebbaa4caf39ea7",
      "blockNumber": "0x74986a",
      "gasUsed": "0x2b1b6",
      "effectiveGasPrice": "0xfd",
      "from": "0xcda2fdb452ff4f5d7ba1c3d5dfcc9cb926a5eb7d",
      "to": "0x79dfbed14077b8f2421eece5707a17b161094e6a",
      "contractAddress": null,
      "l1BaseFeeScalar": "0x186a0",
      "l1BlobBaseFee": "0x1",
      "l1BlobBaseFeeScalar": "0x95506",
      "l1Fee": "0x10dfa3b2fdd",
      "l1GasPrice": "0x1aff6c519",
      "l1GasUsed": "0x640"
    }
  ],
  "libraries": [],
  "pending": [],
  "returns": {},
  "timestamp": 1728144382,
  "chain": 60808,
  "commit": "7d9679b"
}