{
  "transactions": [
    {
      "hash": "0xc6f95f513757c43f3ccc294ffe1e6bf27a629747de15614c8224a81e29475832",
      "transactionType": "CALL",
      "contractName": null,
      "contractAddress": "0x4a0e0dfc66c8995708c3499559374a0a2e260a1e",
      "function": "setMaxTicketPerUser(uint256)",
      "arguments": [
        "2"
      ],
      "transaction": {
        "from": "0xcda2fdb452ff4f5d7ba1c3d5dfcc9cb926a5eb7d",
        "to": "0x4a0e0dfc66c8995708c3499559374a0a2e260a1e",
        "gas": "0x9adf",
        "value": "0x0",
        "input": "0x82dd5a150000000000000000000000000000000000000000000000000000000000000002",
        "nonce": "0x1c01",
        "chainId": "0xed88"
      },
      "additionalContracts": [],
      "isFixedGasLimit": false
    },
    {
      "hash": "0x40c6ec60d62311dd801549b55d07d2db4720b3f4cb845e3585a5a52848fe45d0",
      "transactionType": "CALL",
      "contractName": null,
      "contractAddress": "0x5393b1d1ba6058ceb42e012036161e30acd0825c",
      "function": "setMaxTicketPerUser(uint256)",
      "arguments": [
        "2"
      ],
      "transaction": {
        "from": "0xcda2fdb452ff4f5d7ba1c3d5dfcc9cb926a5eb7d",
        "to": "0x5393b1d1ba6058ceb42e012036161e30acd0825c",
        "gas": "0x9adf",
        "value": "0x0",
        "input": "0x82dd5a150000000000000000000000000000000000000000000000000000000000000002",
        "nonce": "0x1c02",
        "chainId": "0xed88"
      },
      "additionalContracts": [],
      "isFixedGasLimit": false
    },
    {
      "hash": "0xc3fca50b7a7b2097db7ed9547ccf7d4ee9cc028445b5af75afff499e77c9c5c9",
      "transactionType": "CALL",
      "contractName": null,
      "contractAddress": "0xf617a31a61e3d02ccef4ec11202d377edb2b84d7",
      "function": "setMaxTicketPerUser(uint256)",
      "arguments": [
        "2"
      ],
      "transaction": {
        "from": "0xcda2fdb452ff4f5d7ba1c3d5dfcc9cb926a5eb7d",
        "to": "0xf617a31a61e3d02ccef4ec11202d377edb2b84d7",
        "gas": "0x9adf",
        "value": "0x0",
        "input": "0x82dd5a150000000000000000000000000000000000000000000000000000000000000002",
        "nonce": "0x1c03",
        "chainId": "0xed88"
      },
      "additionalContracts": [],
      "isFixedGasLimit": false
    },
    {
      "hash": "0xb9a8036a3a44add6f22fcce4cc368aef14ee5cfabdc212203734939383fbd8c9",
      "transactionType": "CALL",
      "contractName": null,
      "contractAddress": "0x228d6b4c1da545422b05b2d8cc21a608e4619c93",
      "function": "setMaxTicketPerUser(uint256)",
      "arguments": [
        "2"
      ],
      "transaction": {
        "from": "0xcda2fdb452ff4f5d7ba1c3d5dfcc9cb926a5eb7d",
        "to": "0x228d6b4c1da545422b05b2d8cc21a608e4619c93",
        "gas": "0x9adf",
        "value": "0x0",
        "input": "0x82dd5a150000000000000000000000000000000000000000000000000000000000000002",
        "nonce": "0x1c04",
        "chainId": "0xed88"
      },
      "additionalContracts": [],
      "isFixedGasLimit": false
    }
  ],
  "receipts": [
    {
      "status": "0x1",
      "cumulativeGasUsed": "0x13c23",
      "logs": [],
      "logsBloom": "0x00000000000000000000000000000000000000000000000000000000000000000000000000000000000000000000000000000000000000000000000000000000000000000000000000000000000000000000000000000000000000000000000000000000000000000000000000000000000000000000000000000000000000000000000000000000000000000000000000000000000000000000000000000000000000000000000000000000000000000000000000000000000000000000000000000000000000000000000000000000000000000000000000000000000000000000000000000000000000000000000000000000000000000000000000000000",
      "type": "0x2",
      "transactionHash": "0xc6f95f513757c43f3ccc294ffe1e6bf27a629747de15614c8224a81e29475832",
      "transactionIndex": "0x1",
      "blockHash": "0xa6bea18325a51ffbc69b1cec27dfc1eca23e569196486620474a02ca412eb8b8",
      "blockNumber": "0x743e8d",
      "gasUsed": "0x7020",
      "effectiveGasPrice": "0xfd",
      "from": "0xcda2fdb452ff4f5d7ba1c3d5dfcc9cb926a5eb7d",
      "to": "0x4a0e0dfc66c8995708c3499559374a0a2e260a1e",
      "contractAddress": null,
      "l1BaseFeeScalar": "0x186a0",
      "l1BlobBaseFee": "0x1",
      "l1BlobBaseFeeScalar": "0x95506",
      "l1Fee": "0x7eba2e3d9d",
      "l1GasPrice": "0xcac37d2f",
      "l1GasUsed": "0x640"
    },
    {
      "status": "0x1",
      "cumulativeGasUsed": "0x1ac43",
      "logs": [],
      "logsBloom": "0x00000000000000000000000000000000000000000000000000000000000000000000000000000000000000000000000000000000000000000000000000000000000000000000000000000000000000000000000000000000000000000000000000000000000000000000000000000000000000000000000000000000000000000000000000000000000000000000000000000000000000000000000000000000000000000000000000000000000000000000000000000000000000000000000000000000000000000000000000000000000000000000000000000000000000000000000000000000000000000000000000000000000000000000000000000000",
      "type": "0x2",
      "transactionHash": "0x40c6ec60d62311dd801549b55d07d2db4720b3f4cb845e3585a5a52848fe45d0",
      "transactionIndex": "0x2",
      "blockHash": "0xa6bea18325a51ffbc69b1cec27dfc1eca23e569196486620474a02ca412eb8b8",
      "blockNumber": "0x743e8d",
      "gasUsed": "0x7020",
      "effectiveGasPrice": "0xfd",
      "from": "0xcda2fdb452ff4f5d7ba1c3d5dfcc9cb926a5eb7d",
      "to": "0x5393b1d1ba6058ceb42e012036161e30acd0825c",
      "contractAddress": null,
      "l1BaseFeeScalar": "0x186a0",
      "l1BlobBaseFee": "0x1",
      "l1BlobBaseFeeScalar": "0x95506",
      "l1Fee": "0x7eba2e3d9d",
      "l1GasPrice": "0xcac37d2f",
      "l1GasUsed": "0x640"
    },
    {
      "status": "0x1",
      "cumulativeGasUsed": "0x21c63",
      "logs": [],
      "logsBloom": "0x00000000000000000000000000000000000000000000000000000000000000000000000000000000000000000000000000000000000000000000000000000000000000000000000000000000000000000000000000000000000000000000000000000000000000000000000000000000000000000000000000000000000000000000000000000000000000000000000000000000000000000000000000000000000000000000000000000000000000000000000000000000000000000000000000000000000000000000000000000000000000000000000000000000000000000000000000000000000000000000000000000000000000000000000000000000",
      "type": "0x2",
      "transactionHash": "0xc3fca50b7a7b2097db7ed9547ccf7d4ee9cc028445b5af75afff499e77c9c5c9",
      "transactionIndex": "0x3",
      "blockHash": "0xa6bea18325a51ffbc69b1cec27dfc1eca23e569196486620474a02ca412eb8b8",
      "blockNumber": "0x743e8d",
      "gasUsed": "0x7020",
      "effectiveGasPrice": "0xfd",
      "from": "0xcda2fdb452ff4f5d7ba1c3d5dfcc9cb926a5eb7d",
      "to": "0xf617a31a61e3d02ccef4ec11202d377edb2b84d7",
      "contractAddress": null,
      "l1BaseFeeScalar": "0x186a0",
      "l1BlobBaseFee": "0x1",
      "l1BlobBaseFeeScalar": "0x95506",
      "l1Fee": "0x7eba2e3d9d",
      "l1GasPrice": "0xcac37d2f",
      "l1GasUsed": "0x640"
    },
    {
      "status": "0x1",
      "cumulativeGasUsed": "0x28c83",
      "logs": [],
      "logsBloom": "0x00000000000000000000000000000000000000000000000000000000000000000000000000000000000000000000000000000000000000000000000000000000000000000000000000000000000000000000000000000000000000000000000000000000000000000000000000000000000000000000000000000000000000000000000000000000000000000000000000000000000000000000000000000000000000000000000000000000000000000000000000000000000000000000000000000000000000000000000000000000000000000000000000000000000000000000000000000000000000000000000000000000000000000000000000000000",
      "type": "0x2",
      "transactionHash": "0xb9a8036a3a44add6f22fcce4cc368aef14ee5cfabdc212203734939383fbd8c9",
      "transactionIndex": "0x4",
      "blockHash": "0xa6bea18325a51ffbc69b1cec27dfc1eca23e569196486620474a02ca412eb8b8",
      "blockNumber": "0x743e8d",
      "gasUsed": "0x7020",
      "effectiveGasPrice": "0xfd",
      "from": "0xcda2fdb452ff4f5d7ba1c3d5dfcc9cb926a5eb7d",
      "to": "0x228d6b4c1da545422b05b2d8cc21a608e4619c93",
      "contractAddress": null,
      "l1BaseFeeScalar": "0x186a0",
      "l1BlobBaseFee": "0x1",
      "l1BlobBaseFeeScalar": "0x95506",
      "l1Fee": "0x7eba2e3d9d",
      "l1GasPrice": "0xcac37d2f",
      "l1GasUsed": "0x640"
    }
  ],
  "libraries": [],
  "pending": [],
  "returns": {},
  "timestamp": 1728098371,
  "chain": 60808,
  "commit": "7d9679b"
}