{
  "transactions": [
    {
      "hash": "0x5186549a1951f4c2d45292476102dc0a953af4999c391a3a65bd4c4d01cdfe67",
      "transactionType": "CALL",
      "contractName": null,
      "contractAddress": "0xa7b156a9686fcfe79071efbc4f70383df4a763ab",
      "function": "startNextRound()",
      "arguments": [],
      "transaction": {
        "from": "0xcda2fdb452ff4f5d7ba1c3d5dfcc9cb926a5eb7d",
        "to": "0xa7b156a9686fcfe79071efbc4f70383df4a763ab",
        "gas": "0xf6ed",
        "value": "0x0",
        "input": "0x3c3ccc44",
        "nonce": "0x21f4",
        "chainId": "0xed88"
      },
      "additionalContracts": [],
      "isFixedGasLimit": false
    },
    {
      "hash": "0xd809f805964dd81379d77433367714b1a2c9edbbe820635da22099ccc4b638ed",
      "transactionType": "CALL",
      "contractName": null,
      "contractAddress": "0xa7b156a9686fcfe79071efbc4f70383df4a763ab",
      "function": "setWlStat(address,bool,uint256)",
      "arguments": [
        "0x0426E6B29Ec78c8d43502EC8DECbDb76551e7D60",
        "true",
        "10"
      ],
      "transaction": {
        "from": "0xcda2fdb452ff4f5d7ba1c3d5dfcc9cb926a5eb7d",
        "to": "0xa7b156a9686fcfe79071efbc4f70383df4a763ab",
        "gas": "0x17f46",
        "value": "0x0",
        "input": "0x1425d0a40000000000000000000000000426e6b29ec78c8d43502ec8decbdb76551e7d600000000000000000000000000000000000000000000000000000000000000001000000000000000000000000000000000000000000000000000000000000000a",
        "nonce": "0x21f5",
        "chainId": "0xed88"
      },
      "additionalContracts": [],
      "isFixedGasLimit": false
    }
  ],
  "receipts": [
    {
      "status": "0x1",
      "cumulativeGasUsed": "0x15e1d",
      "logs": [],
      "logsBloom": "0x00000000000000000000000000000000000000000000000000000000000000000000000000000000000000000000000000000000000000000000000000000000000000000000000000000000000000000000000000000000000000000000000000000000000000000000000000000000000000000000000000000000000000000000000000000000000000000000000000000000000000000000000000000000000000000000000000000000000000000000000000000000000000000000000000000000000000000000000000000000000000000000000000000000000000000000000000000000000000000000000000000000000000000000000000000000",
      "type": "0x2",
      "transactionHash": "0x5186549a1951f4c2d45292476102dc0a953af4999c391a3a65bd4c4d01cdfe67",
      "transactionIndex": "0x1",
      "blockHash": "0x3296d899123e330fa890c253be3255dbcdbb4ad7fb5406a7855dabd2cb3a08a1",
      "blockNumber": "0x75d8ad",
      "gasUsed": "0xb2c6",
      "effectiveGasPrice": "0xfd",
      "from": "0xcda2fdb452ff4f5d7ba1c3d5dfcc9cb926a5eb7d",
      "to": "0xa7b156a9686fcfe79071efbc4f70383df4a763ab",
      "contractAddress": null,
      "l1BaseFeeScalar": "0x186a0",
      "l1BlobBaseFee": "0x1",
      "l1BlobBaseFeeScalar": "0x95506",
      "l1Fee": "0x56412dbb7dd",
      "l1GasPrice": "0x8a01e2c59",
      "l1GasUsed": "0x640"
    },
    {
      "status": "0x1",
      "cumulativeGasUsed": "0x2739a",
      "logs": [],
      "logsBloom": "0x00000000000000000000000000000000000000000000000000000000000000000000000000000000000000000000000000000000000000000000000000000000000000000000000000000000000000000000000000000000000000000000000000000000000000000000000000000000000000000000000000000000000000000000000000000000000000000000000000000000000000000000000000000000000000000000000000000000000000000000000000000000000000000000000000000000000000000000000000000000000000000000000000000000000000000000000000000000000000000000000000000000000000000000000000000000",
      "type": "0x2",
      "transactionHash": "0xd809f805964dd81379d77433367714b1a2c9edbbe820635da22099ccc4b638ed",
      "transactionIndex": "0x2",
      "blockHash": "0x3296d899123e330fa890c253be3255dbcdbb4ad7fb5406a7855dabd2cb3a08a1",
      "blockNumber": "0x75d8ad",
      "gasUsed": "0x1157d",
      "effectiveGasPrice": "0xfd",
      "from": "0xcda2fdb452ff4f5d7ba1c3d5dfcc9cb926a5eb7d",
      "to": "0xa7b156a9686fcfe79071efbc4f70383df4a763ab",
      "contractAddress": null,
      "l1BaseFeeScalar": "0x186a0",
      "l1BlobBaseFee": "0x1",
      "l1BlobBaseFeeScalar": "0x95506",
      "l1Fee": "0x56412dbb7dd",
      "l1GasPrice": "0x8a01e2c59",
      "l1GasUsed": "0x640"
    }
  ],
  "libraries": [],
  "pending": [],
  "returns": {},
  "timestamp": 1728308353,
  "chain": 60808,
  "commit": "7d9679b"
}